{
  "contractName": "ANTv2",
  "abi": [
    {
      "inputs": [
        {
          "internalType": "address",
          "name": "initialMinter",
          "type": "address"
        }
      ],
      "stateMutability": "nonpayable",
      "type": "constructor"
    },
    {
      "anonymous": false,
      "inputs": [
        {
          "indexed": true,
          "internalType": "address",
          "name": "owner",
          "type": "address"
        },
        {
          "indexed": true,
          "internalType": "address",
          "name": "spender",
          "type": "address"
        },
        {
          "indexed": false,
          "internalType": "uint256",
          "name": "value",
          "type": "uint256"
        }
      ],
      "name": "Approval",
      "type": "event"
    },
    {
      "anonymous": false,
      "inputs": [
        {
          "indexed": true,
          "internalType": "address",
          "name": "authorizer",
          "type": "address"
        },
        {
          "indexed": true,
          "internalType": "bytes32",
          "name": "nonce",
          "type": "bytes32"
        }
      ],
      "name": "AuthorizationUsed",
      "type": "event"
    },
    {
      "anonymous": false,
      "inputs": [
        {
          "indexed": true,
          "internalType": "address",
          "name": "minter",
          "type": "address"
        }
      ],
      "name": "ChangeMinter",
      "type": "event"
    },
    {
      "anonymous": false,
      "inputs": [
        {
          "indexed": true,
          "internalType": "address",
          "name": "from",
          "type": "address"
        },
        {
          "indexed": true,
          "internalType": "address",
          "name": "to",
          "type": "address"
        },
        {
          "indexed": false,
          "internalType": "uint256",
          "name": "value",
          "type": "uint256"
        }
      ],
      "name": "Transfer",
      "type": "event"
    },
    {
      "inputs": [
        {
          "internalType": "address",
          "name": "",
          "type": "address"
        },
        {
          "internalType": "address",
          "name": "",
          "type": "address"
        }
      ],
      "name": "allowance",
      "outputs": [
        {
          "internalType": "uint256",
          "name": "",
          "type": "uint256"
        }
      ],
      "stateMutability": "view",
      "type": "function"
    },
    {
      "inputs": [
        {
          "internalType": "address",
          "name": "",
          "type": "address"
        },
        {
          "internalType": "bytes32",
          "name": "",
          "type": "bytes32"
        }
      ],
      "name": "authorizationState",
      "outputs": [
        {
          "internalType": "bool",
          "name": "",
          "type": "bool"
        }
      ],
      "stateMutability": "view",
      "type": "function"
    },
    {
      "inputs": [
        {
          "internalType": "address",
          "name": "",
          "type": "address"
        }
      ],
      "name": "balanceOf",
      "outputs": [
        {
          "internalType": "uint256",
          "name": "",
          "type": "uint256"
        }
      ],
      "stateMutability": "view",
      "type": "function"
    },
    {
      "inputs": [],
      "name": "decimals",
      "outputs": [
        {
          "internalType": "uint8",
          "name": "",
          "type": "uint8"
        }
      ],
      "stateMutability": "view",
      "type": "function"
    },
    {
      "inputs": [],
      "name": "minter",
      "outputs": [
        {
          "internalType": "address",
          "name": "",
          "type": "address"
        }
      ],
      "stateMutability": "view",
      "type": "function"
    },
    {
      "inputs": [],
      "name": "name",
      "outputs": [
        {
          "internalType": "string",
          "name": "",
          "type": "string"
        }
      ],
      "stateMutability": "view",
      "type": "function"
    },
    {
      "inputs": [
        {
          "internalType": "address",
          "name": "",
          "type": "address"
        }
      ],
      "name": "nonces",
      "outputs": [
        {
          "internalType": "uint256",
          "name": "",
          "type": "uint256"
        }
      ],
      "stateMutability": "view",
      "type": "function"
    },
    {
      "inputs": [],
      "name": "symbol",
      "outputs": [
        {
          "internalType": "string",
          "name": "",
          "type": "string"
        }
      ],
      "stateMutability": "view",
      "type": "function"
    },
    {
      "inputs": [],
      "name": "totalSupply",
      "outputs": [
        {
          "internalType": "uint256",
          "name": "",
          "type": "uint256"
        }
      ],
      "stateMutability": "view",
      "type": "function"
    },
    {
      "inputs": [],
      "name": "getChainId",
      "outputs": [
        {
          "internalType": "uint256",
          "name": "chainId",
          "type": "uint256"
        }
      ],
      "stateMutability": "view",
      "type": "function"
    },
    {
      "inputs": [
        {
          "internalType": "address",
          "name": "to",
          "type": "address"
        },
        {
          "internalType": "uint256",
          "name": "value",
          "type": "uint256"
        }
      ],
      "name": "mint",
      "outputs": [
        {
          "internalType": "bool",
          "name": "",
          "type": "bool"
        }
      ],
      "stateMutability": "nonpayable",
      "type": "function"
    },
    {
      "inputs": [
        {
          "internalType": "address",
          "name": "newMinter",
          "type": "address"
        }
      ],
      "name": "changeMinter",
      "outputs": [],
      "stateMutability": "nonpayable",
      "type": "function"
    },
    {
      "inputs": [
        {
          "internalType": "uint256",
          "name": "value",
          "type": "uint256"
        }
      ],
      "name": "burn",
      "outputs": [
        {
          "internalType": "bool",
          "name": "",
          "type": "bool"
        }
      ],
      "stateMutability": "nonpayable",
      "type": "function"
    },
    {
      "inputs": [
        {
          "internalType": "address",
          "name": "spender",
          "type": "address"
        },
        {
          "internalType": "uint256",
          "name": "value",
          "type": "uint256"
        }
      ],
      "name": "approve",
      "outputs": [
        {
          "internalType": "bool",
          "name": "",
          "type": "bool"
        }
      ],
      "stateMutability": "nonpayable",
      "type": "function"
    },
    {
      "inputs": [
        {
          "internalType": "address",
          "name": "to",
          "type": "address"
        },
        {
          "internalType": "uint256",
          "name": "value",
          "type": "uint256"
        }
      ],
      "name": "transfer",
      "outputs": [
        {
          "internalType": "bool",
          "name": "",
          "type": "bool"
        }
      ],
      "stateMutability": "nonpayable",
      "type": "function"
    },
    {
      "inputs": [
        {
          "internalType": "address",
          "name": "from",
          "type": "address"
        },
        {
          "internalType": "address",
          "name": "to",
          "type": "address"
        },
        {
          "internalType": "uint256",
          "name": "value",
          "type": "uint256"
        }
      ],
      "name": "transferFrom",
      "outputs": [
        {
          "internalType": "bool",
          "name": "",
          "type": "bool"
        }
      ],
      "stateMutability": "nonpayable",
      "type": "function"
    }
  ],
  "bytecode": "0x60806040523480156200001157600080fd5b50604051620015f3380380620015f38339818101604052810190620000379190620000ec565b62000048816200004f60201b60201c565b5062000171565b806000806101000a81548173ffffffffffffffffffffffffffffffffffffffff021916908373ffffffffffffffffffffffffffffffffffffffff1602179055508073ffffffffffffffffffffffffffffffffffffffff167fc87aeafc6e4ae6202adf4f08a76769119ae93cc129c0e0cbac08a118bc18e1ce60405160405180910390a250565b600081519050620000e68162000157565b92915050565b60006020828403121562000105576200010462000152565b5b60006200011584828501620000d5565b91505092915050565b60006200012b8262000132565b9050919050565b600073ffffffffffffffffffffffffffffffffffffffff82169050919050565b600080fd5b62000162816200011e565b81146200016e57600080fd5b50565b61147280620001816000396000f3fe608060405234801561001057600080fd5b50600436106101005760003560e01c806340c10f191161009757806395d89b411161006657806395d89b41146102d7578063a9059cbb146102f5578063dd62ed3e14610325578063e94a01021461035557610100565b806340c10f191461021757806342966c681461024757806370a08231146102775780637ecebe00146102a757610100565b806323b872dd116100d357806323b872dd1461018f5780632c4d4d18146101bf578063313ce567146101db5780633408e470146101f957610100565b806306fdde03146101055780630754617214610123578063095ea7b31461014157806318160ddd14610171575b600080fd5b61010d610385565b60405161011a91906110fe565b60405180910390f35b61012b6103be565b60405161013891906110c8565b60405180910390f35b61015b60048036038101906101569190610f5a565b6103e2565b60405161016891906110e3565b60405180910390f35b6101796103f9565b60405161018691906111a0565b60405180910390f35b6101a960048036038101906101a49190610ec7565b6103ff565b6040516101b691906110e3565b60405180910390f35b6101d960048036038101906101d49190610e5a565b610553565b005b6101e36105ed565b6040516101f091906111bb565b60405180910390f35b6102016105f2565b60405161020e91906111a0565b60405180910390f35b610231600480360381019061022c9190610f5a565b6105fa565b60405161023e91906110e3565b60405180910390f35b610261600480360381019061025c9190610f9a565b61069f565b60405161026e91906110e3565b60405180910390f35b610291600480360381019061028c9190610e5a565b6106b4565b60405161029e91906111a0565b60405180910390f35b6102c160048036038101906102bc9190610e5a565b6106cc565b6040516102ce91906111a0565b60405180910390f35b6102df6106e4565b6040516102ec91906110fe565b60405180910390f35b61030f600480360381019061030a9190610f5a565b61071d565b60405161031c91906110e3565b60405180910390f35b61033f600480360381019061033a9190610e87565b610734565b60405161034c91906111a0565b60405180910390f35b61036f600480360381019061036a9190610f1a565b610759565b60405161037c91906110e3565b60405180910390f35b6040518060400160405280601481526020017f417261676f6e204e6574776f726b20546f6b656e00000000000000000000000081525081565b60008054906101000a900473ffffffffffffffffffffffffffffffffffffffff1681565b60006103ef338484610788565b6001905092915050565b60015481565b600080600360008673ffffffffffffffffffffffffffffffffffffffff1673ffffffffffffffffffffffffffffffffffffffff16815260200190815260200160002060003373ffffffffffffffffffffffffffffffffffffffff1673ffffffffffffffffffffffffffffffffffffffff1681526020019081526020016000205490507fffffffffffffffffffffffffffffffffffffffffffffffffffffffffffffffff811461053c576104bb838261087390919063ffffffff16565b600360008773ffffffffffffffffffffffffffffffffffffffff1673ffffffffffffffffffffffffffffffffffffffff16815260200190815260200160002060003373ffffffffffffffffffffffffffffffffffffffff1673ffffffffffffffffffffffffffffffffffffffff168152602001908152602001600020819055505b6105478585856108cc565b60019150509392505050565b60008054906101000a900473ffffffffffffffffffffffffffffffffffffffff1673ffffffffffffffffffffffffffffffffffffffff163373ffffffffffffffffffffffffffffffffffffffff16146105e1576040517f08c379a00000000000000000000000000000000000000000000000000000000081526004016105d890611140565b60405180910390fd5b6105ea81610b08565b50565b601281565b600046905090565b60008060009054906101000a900473ffffffffffffffffffffffffffffffffffffffff1673ffffffffffffffffffffffffffffffffffffffff163373ffffffffffffffffffffffffffffffffffffffff161461068b576040517f08c379a000000000000000000000000000000000000000000000000000000000815260040161068290611140565b60405180910390fd5b6106958383610b8e565b6001905092915050565b60006106ab3383610ca8565b60019050919050565b60026020528060005260406000206000915090505481565b60046020528060005260406000206000915090505481565b6040518060400160405280600381526020017f414e54000000000000000000000000000000000000000000000000000000000081525081565b600061072a3384846108cc565b6001905092915050565b6003602052816000526040600020602052806000526040600020600091509150505481565b60056020528160005260406000206020528060005260406000206000915091509054906101000a900460ff1681565b80600360008573ffffffffffffffffffffffffffffffffffffffff1673ffffffffffffffffffffffffffffffffffffffff16815260200190815260200160002060008473ffffffffffffffffffffffffffffffffffffffff1673ffffffffffffffffffffffffffffffffffffffff168152602001908152602001600020819055508173ffffffffffffffffffffffffffffffffffffffff168373ffffffffffffffffffffffffffffffffffffffff167f8c5be1e5ebec7d5bd14f71427d1e84f3dd0314c0f7b2291e5b200ac8c7c3b9258360405161086691906111a0565b60405180910390a3505050565b60008282846108829190611248565b91508111156108c6576040517f08c379a00000000000000000000000000000000000000000000000000000000081526004016108bd90611160565b60405180910390fd5b92915050565b3073ffffffffffffffffffffffffffffffffffffffff168273ffffffffffffffffffffffffffffffffffffffff16141580156109355750600073ffffffffffffffffffffffffffffffffffffffff168273ffffffffffffffffffffffffffffffffffffffff1614155b610974576040517f08c379a000000000000000000000000000000000000000000000000000000000815260040161096b90611180565b60405180910390fd5b6109c681600260008673ffffffffffffffffffffffffffffffffffffffff1673ffffffffffffffffffffffffffffffffffffffff1681526020019081526020016000205461087390919063ffffffff16565b600260008573ffffffffffffffffffffffffffffffffffffffff1673ffffffffffffffffffffffffffffffffffffffff16815260200190815260200160002081905550610a5b81600260008573ffffffffffffffffffffffffffffffffffffffff1673ffffffffffffffffffffffffffffffffffffffff16815260200190815260200160002054610dc290919063ffffffff16565b600260008473ffffffffffffffffffffffffffffffffffffffff1673ffffffffffffffffffffffffffffffffffffffff168152602001908152602001600020819055508173ffffffffffffffffffffffffffffffffffffffff168373ffffffffffffffffffffffffffffffffffffffff167fddf252ad1be2c89b69c2b068fc378daa952ba7f163c4a11628f55a4df523b3ef83604051610afb91906111a0565b60405180910390a3505050565b806000806101000a81548173ffffffffffffffffffffffffffffffffffffffff021916908373ffffffffffffffffffffffffffffffffffffffff1602179055508073ffffffffffffffffffffffffffffffffffffffff167fc87aeafc6e4ae6202adf4f08a76769119ae93cc129c0e0cbac08a118bc18e1ce60405160405180910390a250565b610ba381600154610dc290919063ffffffff16565b600181905550610bfb81600260008573ffffffffffffffffffffffffffffffffffffffff1673ffffffffffffffffffffffffffffffffffffffff16815260200190815260200160002054610dc290919063ffffffff16565b600260008473ffffffffffffffffffffffffffffffffffffffff1673ffffffffffffffffffffffffffffffffffffffff168152602001908152602001600020819055508173ffffffffffffffffffffffffffffffffffffffff16600073ffffffffffffffffffffffffffffffffffffffff167fddf252ad1be2c89b69c2b068fc378daa952ba7f163c4a11628f55a4df523b3ef83604051610c9c91906111a0565b60405180910390a35050565b610cfa81600260008573ffffffffffffffffffffffffffffffffffffffff1673ffffffffffffffffffffffffffffffffffffffff1681526020019081526020016000205461087390919063ffffffff16565b600260008473ffffffffffffffffffffffffffffffffffffffff1673ffffffffffffffffffffffffffffffffffffffff16815260200190815260200160002081905550610d528160015461087390919063ffffffff16565b600181905550600073ffffffffffffffffffffffffffffffffffffffff168273ffffffffffffffffffffffffffffffffffffffff167fddf252ad1be2c89b69c2b068fc378daa952ba7f163c4a11628f55a4df523b3ef83604051610db691906111a0565b60405180910390a35050565b6000828284610dd191906111f2565b9150811015610e15576040517f08c379a0000000000000000000000000000000000000000000000000000000008152600401610e0c90611120565b60405180910390fd5b92915050565b600081359050610e2a816113f7565b92915050565b600081359050610e3f8161140e565b92915050565b600081359050610e5481611425565b92915050565b600060208284031215610e7057610e6f61133d565b5b6000610e7e84828501610e1b565b91505092915050565b60008060408385031215610e9e57610e9d61133d565b5b6000610eac85828601610e1b565b9250506020610ebd85828601610e1b565b9150509250929050565b600080600060608486031215610ee057610edf61133d565b5b6000610eee86828701610e1b565b9350506020610eff86828701610e1b565b9250506040610f1086828701610e45565b9150509250925092565b60008060408385031215610f3157610f3061133d565b5b6000610f3f85828601610e1b565b9250506020610f5085828601610e30565b9150509250929050565b60008060408385031215610f7157610f7061133d565b5b6000610f7f85828601610e1b565b9250506020610f9085828601610e45565b9150509250929050565b600060208284031215610fb057610faf61133d565b5b6000610fbe84828501610e45565b91505092915050565b610fd08161127c565b82525050565b610fdf8161128e565b82525050565b6000610ff0826111d6565b610ffa81856111e1565b935061100a8185602086016112db565b61101381611342565b840191505092915050565b600061102b6011836111e1565b915061103682611353565b602082019050919050565b600061104e6010836111e1565b91506110598261137c565b602082019050919050565b60006110716012836111e1565b915061107c826113a5565b602082019050919050565b6000611094601f836111e1565b915061109f826113ce565b602082019050919050565b6110b3816112c4565b82525050565b6110c2816112ce565b82525050565b60006020820190506110dd6000830184610fc7565b92915050565b60006020820190506110f86000830184610fd6565b92915050565b600060208201905081810360008301526111188184610fe5565b905092915050565b600060208201905081810360008301526111398161101e565b9050919050565b6000602082019050818103600083015261115981611041565b9050919050565b6000602082019050818103600083015261117981611064565b9050919050565b6000602082019050818103600083015261119981611087565b9050919050565b60006020820190506111b560008301846110aa565b92915050565b60006020820190506111d060008301846110b9565b92915050565b600081519050919050565b600082825260208201905092915050565b60006111fd826112c4565b9150611208836112c4565b9250827fffffffffffffffffffffffffffffffffffffffffffffffffffffffffffffffff0382111561123d5761123c61130e565b5b828201905092915050565b6000611253826112c4565b915061125e836112c4565b9250828210156112715761127061130e565b5b828203905092915050565b6000611287826112a4565b9050919050565b60008115159050919050565b6000819050919050565b600073ffffffffffffffffffffffffffffffffffffffff82169050919050565b6000819050919050565b600060ff82169050919050565b60005b838110156112f95780820151818401526020810190506112de565b83811115611308576000848401525b50505050565b7f4e487b7100000000000000000000000000000000000000000000000000000000600052601160045260246000fd5b600080fd5b6000601f19601f8301169050919050565b7f4d4154483a4144445f4f564552464c4f57000000000000000000000000000000600082015250565b7f414e5456323a4e4f545f4d494e54455200000000000000000000000000000000600082015250565b7f4d4154483a5355425f554e444552464c4f570000000000000000000000000000600082015250565b7f414e5456323a52454345495645525f49535f544f4b454e5f4f525f5a45524f00600082015250565b6114008161127c565b811461140b57600080fd5b50565b6114178161129a565b811461142257600080fd5b50565b61142e816112c4565b811461143957600080fd5b5056fea2646970667358221220a48e76335b057be2b8ea78f1c9cbcafc86a7ba1034aeec7ecc62fb80badc34bb64736f6c63430008070033",
  "immutableReferences": {},
  "source": "// \r\n// SPDX-License-Identifier: GPL-3.0-or-later\r\n\r\n// \r\npragma solidity ^0.8.7;\r\n\r\nimport './libraries/SafeMath.sol';\r\n\r\ncontract ANTv2 {\r\n    using SafeMath for uint256;\r\n\r\n    string public constant name = \"Aragon Network Token\";\r\n    string public constant symbol = \"ANT\";\r\n    uint8 public constant decimals = 18;\r\n\r\n    address public minter;\r\n    uint256 public totalSupply;\r\n    mapping (address => uint256) public balanceOf;\r\n    mapping (address => mapping (address => uint256)) public allowance;\r\n\r\n    uint256 constant MAX_UINT256 = type(uint256).max;\r\n\r\n    // ERC-2612, ERC-3009 state\r\n    mapping (address => uint256) public nonces;\r\n    mapping (address => mapping (bytes32 => bool)) public authorizationState;\r\n\r\n    event Approval(address indexed owner, address indexed spender, uint256 value);\r\n    event Transfer(address indexed from, address indexed to, uint256 value);\r\n    event AuthorizationUsed(address indexed authorizer, bytes32 indexed nonce);\r\n    event ChangeMinter(address indexed minter);\r\n\r\n    modifier onlyMinter {\r\n        require(msg.sender == minter, \"ANTV2:NOT_MINTER\");\r\n        _;\r\n    }\r\n\r\n    constructor(address initialMinter){\r\n        _changeMinter(initialMinter);\r\n    }\r\n\r\n    function _changeMinter(address newMinter) internal {\r\n        minter = newMinter;\r\n        emit ChangeMinter(newMinter);\r\n    }\r\n\r\n    function _mint(address to, uint256 value) internal {\r\n        totalSupply = totalSupply.add(value);\r\n        balanceOf[to] = balanceOf[to].add(value);\r\n        emit Transfer(address(0), to, value);\r\n    }\r\n\r\n    function _burn(address from, uint value) internal {\r\n        // Balance is implicitly checked with SafeMath's underflow protection\r\n        balanceOf[from] = balanceOf[from].sub(value);\r\n        totalSupply = totalSupply.sub(value);\r\n        emit Transfer(from, address(0), value);\r\n    }\r\n\r\n    function _approve(address owner, address spender, uint256 value) private {\r\n        allowance[owner][spender] = value;\r\n        emit Approval(owner, spender, value);\r\n    }\r\n\r\n    function _transfer(address from, address to, uint256 value) private {\r\n        require(to != address(this) && to != address(0), \"ANTV2:RECEIVER_IS_TOKEN_OR_ZERO\");\r\n\r\n        // Balance is implicitly checked with SafeMath's underflow protection\r\n        balanceOf[from] = balanceOf[from].sub(value);\r\n        balanceOf[to] = balanceOf[to].add(value);\r\n        emit Transfer(from, to, value);\r\n    }\r\n\r\n    function getChainId() public view returns (uint256 chainId) {\r\n        assembly { chainId := chainid() }\r\n    }\r\n\r\n    function mint(address to, uint256 value) external onlyMinter returns (bool) {\r\n        _mint(to, value);\r\n        return true;\r\n    }\r\n\r\n    function changeMinter(address newMinter) external onlyMinter {\r\n        _changeMinter(newMinter);\r\n    }\r\n\r\n    function burn(uint256 value) external returns (bool) {\r\n        _burn(msg.sender, value);\r\n        return true;\r\n    }\r\n\r\n    function approve(address spender, uint256 value) external returns (bool) {\r\n        _approve(msg.sender, spender, value);\r\n        return true;\r\n    }\r\n\r\n    function transfer(address to, uint256 value) external returns (bool) {\r\n        _transfer(msg.sender, to, value);\r\n        return true;\r\n    }\r\n\r\n    function transferFrom(address from, address to, uint256 value) external returns (bool) {\r\n        uint256 fromAllowance = allowance[from][msg.sender];\r\n        if (fromAllowance != MAX_UINT256) {\r\n            // Allowance is implicitly checked with SafeMath's underflow protection\r\n            allowance[from][msg.sender] = fromAllowance.sub(value);\r\n        }\r\n        _transfer(from, to, value);\r\n        return true;\r\n    }\r\n\r\n}",
  "sourcePath": "E:\\\\paper\\DAO\\test\\project\\contracts\\Token\\ANTv2.sol",
  "compiler": {
    "name": "solc",
    "version": "0.8.7+commit.e28d00a7.Emscripten.clang"
  },
  "schemaVersion": "3.4.16",
  "updatedAt": "2025-02-28T04:07:29.110Z",
  "devdoc": {
    "kind": "dev",
    "methods": {},
    "version": 1
  },
  "userdoc": {
    "kind": "user",
    "methods": {},
    "version": 1
  }
}