{
  "contractName": "baseproposal",
  "abi": [
    {
      "inputs": [
        {
          "internalType": "string",
          "name": "_name",
          "type": "string"
        },
        {
          "internalType": "string",
          "name": "_discription",
          "type": "string"
        },
        {
          "internalType": "uint8",
          "name": "_proposalKind",
          "type": "uint8"
        },
        {
          "internalType": "uint8",
          "name": "_proposalStatus",
          "type": "uint8"
        },
        {
          "internalType": "uint256",
          "name": "_startTime",
          "type": "uint256"
        },
        {
          "internalType": "uint256",
          "name": "_endTime",
          "type": "uint256"
        }
      ],
      "stateMutability": "nonpayable",
      "type": "constructor"
    },
    {
      "inputs": [
        {
          "internalType": "uint256",
          "name": "index",
          "type": "uint256"
        }
      ],
      "name": "ActionFailed",
      "type": "error"
    },
    {
      "inputs": [],
      "name": "InsufficientGas",
      "type": "error"
    },
    {
      "anonymous": false,
      "inputs": [
        {
          "indexed": false,
          "internalType": "address",
          "name": "actor",
          "type": "address"
        },
        {
          "components": [
            {
              "internalType": "address",
              "name": "to",
              "type": "address"
            },
            {
              "internalType": "uint256",
              "name": "value",
              "type": "uint256"
            },
            {
              "internalType": "bytes",
              "name": "data",
              "type": "bytes"
            }
          ],
          "indexed": false,
          "internalType": "struct Action[]",
          "name": "actions",
          "type": "tuple[]"
        },
        {
          "indexed": false,
          "internalType": "uint256",
          "name": "allowFailureMap",
          "type": "uint256"
        },
        {
          "indexed": false,
          "internalType": "uint256",
          "name": "failureMap",
          "type": "uint256"
        },
        {
          "indexed": false,
          "internalType": "bytes[]",
          "name": "execResults",
          "type": "bytes[]"
        }
      ],
      "name": "Executed",
      "type": "event"
    },
    {
      "inputs": [],
      "name": "creator",
      "outputs": [
        {
          "internalType": "address",
          "name": "",
          "type": "address"
        }
      ],
      "stateMutability": "view",
      "type": "function"
    },
    {
      "inputs": [],
      "name": "discription",
      "outputs": [
        {
          "internalType": "string",
          "name": "",
          "type": "string"
        }
      ],
      "stateMutability": "view",
      "type": "function"
    },
    {
      "inputs": [],
      "name": "endTime",
      "outputs": [
        {
          "internalType": "uint256",
          "name": "",
          "type": "uint256"
        }
      ],
      "stateMutability": "view",
      "type": "function"
    },
    {
      "inputs": [],
      "name": "name",
      "outputs": [
        {
          "internalType": "string",
          "name": "",
          "type": "string"
        }
      ],
      "stateMutability": "view",
      "type": "function"
    },
    {
      "inputs": [],
      "name": "startTime",
      "outputs": [
        {
          "internalType": "uint256",
          "name": "",
          "type": "uint256"
        }
      ],
      "stateMutability": "view",
      "type": "function"
    },
    {
      "inputs": [
        {
          "internalType": "address",
          "name": "",
          "type": "address"
        }
      ],
      "name": "vote",
      "outputs": [
        {
          "internalType": "uint8",
          "name": "approval",
          "type": "uint8"
        },
        {
          "internalType": "uint8",
          "name": "reject",
          "type": "uint8"
        },
        {
          "internalType": "uint8",
          "name": "abstain",
          "type": "uint8"
        }
      ],
      "stateMutability": "view",
      "type": "function"
    },
    {
      "inputs": [],
      "name": "voteCounts",
      "outputs": [
        {
          "internalType": "uint256",
          "name": "",
          "type": "uint256"
        }
      ],
      "stateMutability": "view",
      "type": "function"
    },
    {
      "inputs": [
        {
          "internalType": "string",
          "name": "_name",
          "type": "string"
        }
      ],
      "name": "setname",
      "outputs": [],
      "stateMutability": "nonpayable",
      "type": "function"
    },
    {
      "inputs": [
        {
          "internalType": "string",
          "name": "_discription",
          "type": "string"
        }
      ],
      "name": "setdiscription",
      "outputs": [],
      "stateMutability": "nonpayable",
      "type": "function"
    },
    {
      "inputs": [
        {
          "internalType": "enum baseproposal.ProposalKind",
          "name": "_proposalKind",
          "type": "uint8"
        }
      ],
      "name": "setproposalKind",
      "outputs": [],
      "stateMutability": "nonpayable",
      "type": "function"
    },
    {
      "inputs": [
        {
          "internalType": "enum baseproposal.ProposalStatus",
          "name": "_proposalStatus",
          "type": "uint8"
        }
      ],
      "name": "setproposalStatus",
      "outputs": [],
      "stateMutability": "nonpayable",
      "type": "function"
    },
    {
      "inputs": [
        {
          "internalType": "uint256",
          "name": "_voteCounts",
          "type": "uint256"
        }
      ],
      "name": "setvoteCounts",
      "outputs": [],
      "stateMutability": "nonpayable",
      "type": "function"
    },
    {
      "inputs": [],
      "name": "getvoteCounts",
      "outputs": [
        {
          "internalType": "uint256",
          "name": "",
          "type": "uint256"
        }
      ],
      "stateMutability": "view",
      "type": "function"
    },
    {
      "inputs": [
        {
          "components": [
            {
              "internalType": "address",
              "name": "to",
              "type": "address"
            },
            {
              "internalType": "uint256",
              "name": "value",
              "type": "uint256"
            },
            {
              "internalType": "bytes",
              "name": "data",
              "type": "bytes"
            }
          ],
          "internalType": "struct Action",
          "name": "_action",
          "type": "tuple"
        }
      ],
      "name": "addactions",
      "outputs": [],
      "stateMutability": "nonpayable",
      "type": "function"
    },
    {
      "inputs": [
        {
          "internalType": "address",
          "name": "now_address",
          "type": "address"
        },
        {
          "internalType": "uint8",
          "name": "_approval",
          "type": "uint8"
        },
        {
          "internalType": "uint8",
          "name": "_reject",
          "type": "uint8"
        },
        {
          "internalType": "uint8",
          "name": "_abstain",
          "type": "uint8"
        }
      ],
      "name": "setvote",
      "outputs": [],
      "stateMutability": "nonpayable",
      "type": "function"
    },
    {
      "inputs": [
        {
          "internalType": "address",
          "name": "fuction_address",
          "type": "address"
        },
        {
          "internalType": "uint256",
          "name": "money",
          "type": "uint256"
        },
        {
          "internalType": "bytes",
          "name": "_data",
          "type": "bytes"
        }
      ],
      "name": "setAction",
      "outputs": [],
      "stateMutability": "nonpayable",
      "type": "function"
    },
    {
      "inputs": [
        {
          "internalType": "uint256",
          "name": "_allowFailureMap",
          "type": "uint256"
        }
      ],
      "name": "execute_actions",
      "outputs": [
        {
          "internalType": "bytes[]",
          "name": "execResults",
          "type": "bytes[]"
        },
        {
          "internalType": "uint256",
          "name": "failureMap",
          "type": "uint256"
        }
      ],
      "stateMutability": "nonpayable",
      "type": "function"
    },
    {
      "inputs": [],
      "name": "getAllActions",
      "outputs": [
        {
          "components": [
            {
              "internalType": "address",
              "name": "to",
              "type": "address"
            },
            {
              "internalType": "uint256",
              "name": "value",
              "type": "uint256"
            },
            {
              "internalType": "bytes",
              "name": "data",
              "type": "bytes"
            }
          ],
          "internalType": "struct Action[]",
          "name": "",
          "type": "tuple[]"
        }
      ],
      "stateMutability": "view",
      "type": "function"
    }
  ],
  "bytecode": "0x60806040523480156200001157600080fd5b50604051620021a0380380620021a08339818101604052810190620000379190620002b4565b336000806101000a81548173ffffffffffffffffffffffffffffffffffffffff021916908373ffffffffffffffffffffffffffffffffffffffff16021790555085600190805190602001906200008f92919062000158565b508460029080519060200190620000a892919062000158565b508360ff166002811115620000c257620000c1620004a6565b5b600860016101000a81548160ff02191690836002811115620000e957620000e8620004a6565b5b02179055508260ff166006811115620001075762000106620004a6565b5b600860006101000a81548160ff021916908360068111156200012e576200012d620004a6565b5b0217905550816003819055508060048190555063ffffffff6007819055505050505050506200058c565b82805462000166906200043a565b90600052602060002090601f0160209004810192826200018a5760008555620001d6565b82601f10620001a557805160ff1916838001178555620001d6565b82800160010185558215620001d6579182015b82811115620001d5578251825591602001919060010190620001b8565b5b509050620001e59190620001e9565b5090565b5b8082111562000204576000816000905550600101620001ea565b5090565b60006200021f6200021984620003b7565b6200038e565b9050828152602081018484840111156200023e576200023d62000538565b5b6200024b84828562000404565b509392505050565b600082601f8301126200026b576200026a62000533565b5b81516200027d84826020860162000208565b91505092915050565b600081519050620002978162000558565b92915050565b600081519050620002ae8162000572565b92915050565b60008060008060008060c08789031215620002d457620002d362000542565b5b600087015167ffffffffffffffff811115620002f557620002f46200053d565b5b6200030389828a0162000253565b965050602087015167ffffffffffffffff8111156200032757620003266200053d565b5b6200033589828a0162000253565b95505060406200034889828a016200029d565b94505060606200035b89828a016200029d565b93505060806200036e89828a0162000286565b92505060a06200038189828a0162000286565b9150509295509295509295565b60006200039a620003ad565b9050620003a8828262000470565b919050565b6000604051905090565b600067ffffffffffffffff821115620003d557620003d462000504565b5b620003e08262000547565b9050602081019050919050565b6000819050919050565b600060ff82169050919050565b60005b838110156200042457808201518184015260208101905062000407565b8381111562000434576000848401525b50505050565b600060028204905060018216806200045357607f821691505b602082108114156200046a5762000469620004d5565b5b50919050565b6200047b8262000547565b810181811067ffffffffffffffff821117156200049d576200049c62000504565b5b80604052505050565b7f4e487b7100000000000000000000000000000000000000000000000000000000600052602160045260246000fd5b7f4e487b7100000000000000000000000000000000000000000000000000000000600052602260045260246000fd5b7f4e487b7100000000000000000000000000000000000000000000000000000000600052604160045260246000fd5b600080fd5b600080fd5b600080fd5b600080fd5b6000601f19601f8301169050919050565b6200056381620003ed565b81146200056f57600080fd5b50565b6200057d81620003f7565b81146200058957600080fd5b50565b611c04806200059c6000396000f3fe608060405234801561001057600080fd5b50600436106101165760003560e01c8063367c317c116100a25780638b2bd4a6116100715780638b2bd4a6146102be578063aea5df16146102da578063e53240b6146102f8578063ee1ef2b214610316578063f83eb3951461033257610116565b8063367c317c146102365780636dd7d8ea1461025257806378e979251461028457806379d623df146102a257610116565b80631ea62323116100e95780631ea62323146101935780632cefeb07146101af57806330ad2bc3146101cb5780633197cbb6146101fc578063332982171461021a57610116565b806302d05d3f1461011b57806306fdde03146101395780630f01870b146101575780631132ac2b14610175575b600080fd5b61012361034e565b604051610130919061158d565b60405180910390f35b610141610372565b60405161014e919061165b565b60405180910390f35b61015f610400565b60405161016c919061167d565b60405180910390f35b61017d610406565b60405161018a919061167d565b60405180910390f35b6101ad60048036038101906101a8919061113c565b610410565b005b6101c960048036038101906101c491906110aa565b61041a565b005b6101e560048036038101906101e0919061113c565b610434565b6040516101f3929190611609565b60405180910390f35b6102046106ee565b604051610211919061167d565b60405180910390f35b610234600480360381019061022f9190611050565b6106f4565b005b610250600480360381019061024b91906110f3565b610721565b005b61026c60048036038101906102679190610f4d565b6107c0565b60405161027b93929190611698565b60405180910390f35b61028c610811565b604051610299919061167d565b60405180910390f35b6102bc60048036038101906102b79190610fe9565b610817565b005b6102d860048036038101906102d3919061107d565b61092e565b005b6102e261095b565b6040516102ef9190611639565b60405180910390f35b610300610aac565b60405161030d919061165b565b60405180910390f35b610330600480360381019061032b91906110aa565b610b3a565b005b61034c60048036038101906103479190610f7a565b610b54565b005b60008054906101000a900473ffffffffffffffffffffffffffffffffffffffff1681565b6001805461037f90611933565b80601f01602080910402602001604051908101604052809291908181526020018280546103ab90611933565b80156103f85780601f106103cd576101008083540402835291602001916103f8565b820191906000526020600020905b8154815290600101906020018083116103db57829003601f168201915b505050505081565b60055481565b6000600554905090565b8060058190555050565b8060019080519060200190610430929190610c5b565b5050565b6060600060068054905067ffffffffffffffff81111561045757610456611afe565b5b60405190808252806020026020018201604052801561048a57816020015b60608152602001906001900390816104755790505b50915060008060005b600680549050811015610686575a9250600080600683815481106104ba576104b9611acf565b5b906000526020600020906003020160000160009054906101000a900473ffffffffffffffffffffffffffffffffffffffff1673ffffffffffffffffffffffffffffffffffffffff166006848154811061051657610515611acf565b5b9060005260206000209060030201600101546006858154811061053c5761053b611acf565b5b906000526020600020906003020160020160405161055a9190611576565b60006040518083038185875af1925050503d8060008114610597576040519150601f19603f3d011682016040523d82523d6000602084013e61059c565b606091505b50915091505a93506105ae8884610c2b565b6105f957816105f457826040517fa6a7dbbd0000000000000000000000000000000000000000000000000000000081526004016105eb919061167d565b60405180910390fd5b610652565b816106515760408561060b919061184d565b841015610644576040517f1c26714c00000000000000000000000000000000000000000000000000000000815260040160405180910390fd5b61064e8684610c47565b95505b5b8087848151811061066657610665611acf565b5b60200260200101819052505050808061067e906119ca565b915050610493565b507fdf4eb9388a298d4ffcfdf7f0c74dc60f7dbf6481fd0f774fae678d0ad102c24e60008054906101000a900473ffffffffffffffffffffffffffffffffffffffff1660068786886040516106df9594939291906115a8565b60405180910390a15050915091565b60045481565b80600860016101000a81548160ff0219169083600281111561071957610718611a71565b5b021790555050565b600681908060018154018082558091505060019003906000526020600020906003020160009091909190915060008201518160000160006101000a81548173ffffffffffffffffffffffffffffffffffffffff021916908373ffffffffffffffffffffffffffffffffffffffff1602179055506020820151816001015560408201518160020190805190602001906107ba929190610ce1565b50505050565b60096020528060005260406000206000915090508060000160009054906101000a900460ff16908060000160019054906101000a900460ff16908060000160029054906101000a900460ff16905083565b60035481565b82600960008673ffffffffffffffffffffffffffffffffffffffff1673ffffffffffffffffffffffffffffffffffffffff16815260200190815260200160002060000160006101000a81548160ff021916908360ff16021790555081600960008673ffffffffffffffffffffffffffffffffffffffff1673ffffffffffffffffffffffffffffffffffffffff16815260200190815260200160002060000160016101000a81548160ff021916908360ff16021790555080600960008673ffffffffffffffffffffffffffffffffffffffff1673ffffffffffffffffffffffffffffffffffffffff16815260200190815260200160002060000160026101000a81548160ff021916908360ff16021790555050505050565b80600860006101000a81548160ff0219169083600681111561095357610952611a71565b5b021790555050565b60606006805480602002602001604051908101604052809291908181526020016000905b82821015610aa357838290600052602060002090600302016040518060600160405290816000820160009054906101000a900473ffffffffffffffffffffffffffffffffffffffff1673ffffffffffffffffffffffffffffffffffffffff1673ffffffffffffffffffffffffffffffffffffffff16815260200160018201548152602001600282018054610a1290611933565b80601f0160208091040260200160405190810160405280929190818152602001828054610a3e90611933565b8015610a8b5780601f10610a6057610100808354040283529160200191610a8b565b820191906000526020600020905b815481529060010190602001808311610a6e57829003601f168201915b5050505050815250508152602001906001019061097f565b50505050905090565b60028054610ab990611933565b80601f0160208091040260200160405190810160405280929190818152602001828054610ae590611933565b8015610b325780601f10610b0757610100808354040283529160200191610b32565b820191906000526020600020905b815481529060010190602001808311610b1557829003601f168201915b505050505081565b8060029080519060200190610b50929190610c5b565b5050565b600060405180606001604052808573ffffffffffffffffffffffffffffffffffffffff168152602001848152602001838152509050600681908060018154018082558091505060019003906000526020600020906003020160009091909190915060008201518160000160006101000a81548173ffffffffffffffffffffffffffffffffffffffff021916908373ffffffffffffffffffffffffffffffffffffffff160217905550602082015181600101556040820151816002019080519060200190610c22929190610ce1565b50505050505050565b6000808260ff166001901b841690506000811191505092915050565b60008160ff166001901b8318905092915050565b828054610c6790611933565b90600052602060002090601f016020900481019282610c895760008555610cd0565b82601f10610ca257805160ff1916838001178555610cd0565b82800160010185558215610cd0579182015b82811115610ccf578251825591602001919060010190610cb4565b5b509050610cdd9190610d67565b5090565b828054610ced90611933565b90600052602060002090601f016020900481019282610d0f5760008555610d56565b82601f10610d2857805160ff1916838001178555610d56565b82800160010185558215610d56579182015b82811115610d55578251825591602001919060010190610d3a565b5b509050610d639190610d67565b5090565b5b80821115610d80576000816000905550600101610d68565b5090565b6000610d97610d92846116f4565b6116cf565b905082815260208101848484011115610db357610db2611b3c565b5b610dbe8482856118f1565b509392505050565b6000610dd9610dd484611725565b6116cf565b905082815260208101848484011115610df557610df4611b3c565b5b610e008482856118f1565b509392505050565b600081359050610e1781611b69565b92915050565b600082601f830112610e3257610e31611b2d565b5b8135610e42848260208601610d84565b91505092915050565b600081359050610e5a81611b80565b92915050565b600081359050610e6f81611b90565b92915050565b600082601f830112610e8a57610e89611b2d565b5b8135610e9a848260208601610dc6565b91505092915050565b600060608284031215610eb957610eb8611b32565b5b610ec360606116cf565b90506000610ed384828501610e08565b6000830152506020610ee784828501610f23565b602083015250604082013567ffffffffffffffff811115610f0b57610f0a611b37565b5b610f1784828501610e1d565b60408301525092915050565b600081359050610f3281611ba0565b92915050565b600081359050610f4781611bb7565b92915050565b600060208284031215610f6357610f62611b46565b5b6000610f7184828501610e08565b91505092915050565b600080600060608486031215610f9357610f92611b46565b5b6000610fa186828701610e08565b9350506020610fb286828701610f23565b925050604084013567ffffffffffffffff811115610fd357610fd2611b41565b5b610fdf86828701610e1d565b9150509250925092565b6000806000806080858703121561100357611002611b46565b5b600061101187828801610e08565b945050602061102287828801610f38565b935050604061103387828801610f38565b925050606061104487828801610f38565b91505092959194509250565b60006020828403121561106657611065611b46565b5b600061107484828501610e4b565b91505092915050565b60006020828403121561109357611092611b46565b5b60006110a184828501610e60565b91505092915050565b6000602082840312156110c0576110bf611b46565b5b600082013567ffffffffffffffff8111156110de576110dd611b41565b5b6110ea84828501610e75565b91505092915050565b60006020828403121561110957611108611b46565b5b600082013567ffffffffffffffff81111561112757611126611b41565b5b61113384828501610ea3565b91505092915050565b60006020828403121561115257611151611b46565b5b600061116084828501610f23565b91505092915050565b60006111758383611321565b905092915050565b60006111898383611492565b905092915050565b600061119d83836114e2565b905092915050565b6111ae816118a8565b82525050565b6111bd816118a8565b82525050565b60006111ce826117a0565b6111d881856117fe565b9350836020820285016111ea85611756565b8060005b8581101561122657848403895281516112078582611169565b9450611212836117d7565b925060208a019950506001810190506111ee565b50829750879550505050505092915050565b6000611243826117ab565b61124d818561180f565b93508360208202850161125f85611766565b8060005b8581101561129b578484038952815161127c858261117d565b9450611287836117e4565b925060208a01995050600181019050611263565b50829750879550505050505092915050565b60006112b8826117b6565b6112c2818561180f565b9350836020820285016112d485611776565b8060005b8581101561130f578484038952816112f08582611191565b94506112fb836117f1565b925060208a019950506001810190506112d8565b50829750879550505050505092915050565b600061132c826117c1565b6113368185611820565b9350611346818560208601611900565b61134f81611b4b565b840191505092915050565b6000815461136781611933565b6113718186611820565b9450600182166000811461138c576001811461139e576113d1565b60ff19831686526020860193506113d1565b6113a78561178b565b60005b838110156113c9578154818901526001820191506020810190506113aa565b808801955050505b50505092915050565b600081546113e781611933565b6113f18186611831565b9450600182166000811461140c576001811461141d57611450565b60ff19831686528186019350611450565b6114268561178b565b60005b8381101561144857815481890152600182019150602081019050611429565b838801955050505b50505092915050565b6000611464826117cc565b61146e818561183c565b935061147e818560208601611900565b61148781611b4b565b840191505092915050565b60006060830160008301516114aa60008601826111a5565b5060208301516114bd6020860182611549565b50604083015184820360408601526114d58282611321565b9150508091505092915050565b60006060830160008084015490506114f981611965565b61150660008701826111a5565b50600184015490506115178161197f565b6115246020870182611549565b5060028401858303604087015261153b838261135a565b925050819250505092915050565b611552816118da565b82525050565b611561816118da565b82525050565b611570816118e4565b82525050565b600061158282846113da565b915081905092915050565b60006020820190506115a260008301846111b4565b92915050565b600060a0820190506115bd60008301886111b4565b81810360208301526115cf81876112ad565b90506115de6040830186611558565b6115eb6060830185611558565b81810360808301526115fd81846111c3565b90509695505050505050565b6000604082019050818103600083015261162381856111c3565b90506116326020830184611558565b9392505050565b600060208201905081810360008301526116538184611238565b905092915050565b600060208201905081810360008301526116758184611459565b905092915050565b60006020820190506116926000830184611558565b92915050565b60006060820190506116ad6000830186611567565b6116ba6020830185611567565b6116c76040830184611567565b949350505050565b60006116d96116ea565b90506116e58282611999565b919050565b6000604051905090565b600067ffffffffffffffff82111561170f5761170e611afe565b5b61171882611b4b565b9050602081019050919050565b600067ffffffffffffffff8211156117405761173f611afe565b5b61174982611b4b565b9050602081019050919050565b6000819050602082019050919050565b6000819050602082019050919050565b60008190508160005260206000209050919050565b60008190508160005260206000209050919050565b600081519050919050565b600081519050919050565b600081549050919050565b600081519050919050565b600081519050919050565b6000602082019050919050565b6000602082019050919050565b6000600382019050919050565b600082825260208201905092915050565b600082825260208201905092915050565b600082825260208201905092915050565b600081905092915050565b600082825260208201905092915050565b6000611858826118da565b9150611863836118da565b92508261187357611872611a42565b5b828204905092915050565b600073ffffffffffffffffffffffffffffffffffffffff82169050919050565b6000819050919050565b60006118b3826118ba565b9050919050565b600073ffffffffffffffffffffffffffffffffffffffff82169050919050565b6000819050919050565b600060ff82169050919050565b82818337600083830152505050565b60005b8381101561191e578082015181840152602081019050611903565b8381111561192d576000848401525b50505050565b6000600282049050600182168061194b57607f821691505b6020821081141561195f5761195e611aa0565b5b50919050565b600061197861197383611b5c565b61187e565b9050919050565b600061199261198d83611b5c565b61189e565b9050919050565b6119a282611b4b565b810181811067ffffffffffffffff821117156119c1576119c0611afe565b5b80604052505050565b60006119d5826118da565b91507fffffffffffffffffffffffffffffffffffffffffffffffffffffffffffffffff821415611a0857611a07611a13565b5b600182019050919050565b7f4e487b7100000000000000000000000000000000000000000000000000000000600052601160045260246000fd5b7f4e487b7100000000000000000000000000000000000000000000000000000000600052601260045260246000fd5b7f4e487b7100000000000000000000000000000000000000000000000000000000600052602160045260246000fd5b7f4e487b7100000000000000000000000000000000000000000000000000000000600052602260045260246000fd5b7f4e487b7100000000000000000000000000000000000000000000000000000000600052603260045260246000fd5b7f4e487b7100000000000000000000000000000000000000000000000000000000600052604160045260246000fd5b600080fd5b600080fd5b600080fd5b600080fd5b600080fd5b600080fd5b6000601f19601f8301169050919050565b60008160001c9050919050565b611b72816118a8565b8114611b7d57600080fd5b50565b60038110611b8d57600080fd5b50565b60078110611b9d57600080fd5b50565b611ba9816118da565b8114611bb457600080fd5b50565b611bc0816118e4565b8114611bcb57600080fd5b5056fea26469706673582212207af2d9b88d75356380f23468159830e09d23967e82aa8803c1684ed6740bb79f64736f6c63430008070033",
  "immutableReferences": {},
  "source": "// \r\n// SPDX-License-Identifier: GPL-3.0-or-later\r\n\r\n// \r\npragma solidity ^0.8.7;\r\nimport {hasBit,flipBit} from \"../util/BitMap.sol\";\r\n\r\nstruct Action {\r\n    address to;\r\n    uint256 value;\r\n    bytes data;\r\n}\r\n\r\ncontract baseproposal {\r\n\r\n    \r\n    enum ProposalStatus {\r\n        InProgress,       // Proposal is still in progress.\r\n        Approved,         // If quorum voted yes, this proposal is successfully approved.\r\n        Rejected,         // If quorum voted no, this proposal is rejected. Bond is returned.\r\n        Removed,          // If quorum voted to remove (e.g. spam), this proposal is rejected and bond is not returned.\r\n        Expired,          // Expired after period of time.\r\n        Moved,            // If proposal was moved to Hub or somewhere else.\r\n        Failed            // If proposal has failed when finalizing. Allowed to re-finalize again to either expire or approve.\r\n    }\r\n\r\n    enum ProposalKind {\r\n        FunctionCall, // \r\n        MintToken, // \r\n        Transfer\r\n    }\r\n\r\n    struct voted {\r\n        uint8 approval;\r\n        uint8 reject;\r\n        uint8 abstain;\r\n    }\r\n    error ActionFailed(uint256 index);\r\n    error InsufficientGas();\r\n\r\n    address public creator;\r\n    string public name;\r\n    string public discription;\r\n    uint public startTime;\r\n    uint public endTime;\r\n    uint256 public voteCounts;\r\n    Action[] actions;\r\n    uint256 allowFailureMap;\r\n    ProposalStatus proposalStatus;\r\n    ProposalKind proposalKind;\r\n    mapping(address => voted) public vote;\r\n\r\n    event Executed(\r\n        address actor,\r\n        Action[] actions,\r\n        uint256 allowFailureMap,\r\n        uint256 failureMap,\r\n        bytes[] execResults\r\n    );\r\n\r\n    constructor(\r\n        string memory _name, \r\n        string memory _discription,\r\n        uint8 _proposalKind,\r\n        uint8 _proposalStatus,\r\n        uint _startTime,\r\n        uint _endTime\r\n        ){\r\n\r\n        creator = msg.sender;\r\n        name = _name;\r\n        discription = _discription;\r\n        proposalKind = ProposalKind(_proposalKind);\r\n        proposalStatus = ProposalStatus(_proposalStatus);\r\n        startTime = _startTime;\r\n        endTime = _endTime;\r\n        allowFailureMap = 0xFFFFFFFF;\r\n    }\r\n\r\n    function setname(string memory _name) public{\r\n        name = _name;\r\n    }\r\n\r\n    function setdiscription(string memory _discription) public{\r\n        discription = _discription;\r\n    }\r\n\r\n    function setproposalKind(ProposalKind _proposalKind) public{\r\n        proposalKind = _proposalKind;\r\n    }\r\n\r\n    function setproposalStatus(ProposalStatus _proposalStatus) public{\r\n        proposalStatus = _proposalStatus;\r\n    }\r\n\r\n    function setvoteCounts(uint256 _voteCounts) public{\r\n            voteCounts = _voteCounts;\r\n    }\r\n    function getvoteCounts() public view returns(uint256){\r\n            return voteCounts;\r\n    }\r\n\r\n    function addactions(Action memory _action) public{\r\n            actions.push(_action);\r\n    }\r\n    \r\n    function setvote(address now_address, uint8 _approval, uint8 _reject, uint8 _abstain) public{\r\n            vote[now_address].approval = _approval;\r\n            vote[now_address].reject = _reject;\r\n            vote[now_address].abstain = _abstain;\r\n    }\r\n\r\n    // function setAction_Transer(\r\n    //     address reciver, \r\n    //     uint256 amount // abi encode \r\n    //     ) public{\r\n    //         require(address(this).balance >= amount, \"Insufficient contract balance\");\r\n    //         (bool success, ) = reciver.call{value: amount}(\"\");\r\n    //         require(success, \"Transfer failed\");\r\n    // }\r\n\r\n    function setAction(\r\n        address fuction_address, \r\n        uint256 money,\r\n        bytes memory _data // abi encode \r\n        ) public{\r\n            Action memory action = Action({\r\n                to: fuction_address,\r\n                value: money,\r\n                data: _data\r\n            });\r\n            actions.push(action);\r\n    }\r\n\r\n    // function execute(Action[] memory _actions, uint256 _allowFailureMap) public returns(bytes[] memory execResults, uint256 failureMap){\r\n\r\n    //     execResults = new bytes[](_actions.length);\r\n    //     uint256 gasBefore;\r\n    //     uint256 gasAfter;\r\n\r\n    //     for(uint i = 0; i < _actions.length; i++){\r\n\r\n    //         gasBefore = gasleft();\r\n\r\n    //         (bool success, bytes memory result) = _actions[i].to.call{value: _actions[i].value}(\r\n    //             _actions[i].data\r\n    //         );\r\n\r\n    //         gasAfter = gasleft();\r\n\r\n    //         if (!hasBit(_allowFailureMap, uint8(i))) {\r\n    //             // Check if the call failed.\r\n    //             if (!success) {\r\n    //                 revert ActionFailed(i);\r\n    //             }\r\n    //         } else {\r\n    //             // Check if the call failed.\r\n    //             if (!success) {\r\n\r\n    //                 if (gasAfter < gasBefore / 64) {\r\n    //                     revert InsufficientGas();\r\n    //                 }\r\n\r\n    //                 // Store that this action failed.\r\n    //                 failureMap = flipBit(failureMap, uint8(i));\r\n    //             }\r\n    //         }\r\n    //         execResults[i] = result;\r\n\r\n    //     }\r\n    //     emit Executed({\r\n    //         actor: creator,\r\n    //         actions: _actions,\r\n    //         allowFailureMap: _allowFailureMap,\r\n    //         failureMap: failureMap,\r\n    //         execResults: execResults\r\n    //     });\r\n    // }\r\n\r\n    function execute_actions(uint256 _allowFailureMap) public returns(bytes[] memory execResults, uint256 failureMap){\r\n\r\n        execResults = new bytes[](actions.length);\r\n        uint256 gasBefore;\r\n        uint256 gasAfter;\r\n\r\n        for(uint i = 0; i < actions.length; i++){\r\n\r\n            gasBefore = gasleft();\r\n\r\n            (bool success, bytes memory result) = actions[i].to.call{value: actions[i].value}(\r\n                actions[i].data\r\n            );\r\n\r\n            gasAfter = gasleft();\r\n\r\n            if (!hasBit(_allowFailureMap, uint8(i))) {\r\n                // Check if the call failed.\r\n                if (!success) {\r\n                    revert ActionFailed(i);\r\n                }\r\n            } else {\r\n                // Check if the call failed.\r\n                if (!success) {\r\n\r\n                    if (gasAfter < gasBefore / 64) {\r\n                        revert InsufficientGas();\r\n                    }\r\n\r\n                    // Store that this action failed.\r\n                    failureMap = flipBit(failureMap, uint8(i));\r\n                }\r\n            }\r\n            execResults[i] = result;\r\n\r\n        }\r\n        emit Executed({\r\n            actor: creator,\r\n            actions: actions,\r\n            allowFailureMap: _allowFailureMap,\r\n            failureMap: failureMap,\r\n            execResults: execResults\r\n        });\r\n    }\r\n\r\n    function getAllActions() public view returns (Action[] memory) {\r\n        return actions;\r\n    }\r\n}\r\n\r\n/*\r\n\r\n\r\n\r\n\r\n */",
  "sourcePath": "E:\\\\paper\\DAO\\test\\project\\contracts\\newContracts\\baseproposal.sol",
  "compiler": {
    "name": "solc",
    "version": "0.8.7+commit.e28d00a7.Emscripten.clang"
  },
  "schemaVersion": "3.4.16",
  "updatedAt": "2025-03-13T03:11:01.715Z",
  "devdoc": {
    "kind": "dev",
    "methods": {},
    "version": 1
  },
  "userdoc": {
    "kind": "user",
    "methods": {},
    "version": 1
  }
}