{
  "contractName": "CourseAllocation",
  "abi": [
    {
      "inputs": [],
      "stateMutability": "nonpayable",
      "type": "constructor"
    },
    {
      "inputs": [
        {
          "internalType": "address",
          "name": "",
          "type": "address"
        }
      ],
      "name": "addressToAgentId",
      "outputs": [
        {
          "internalType": "uint256",
          "name": "",
          "type": "uint256"
        }
      ],
      "stateMutability": "view",
      "type": "function",
      "constant": true
    },
    {
      "inputs": [
        {
          "internalType": "address",
          "name": "",
          "type": "address"
        }
      ],
      "name": "addressToClassId",
      "outputs": [
        {
          "internalType": "uint256",
          "name": "",
          "type": "uint256"
        }
      ],
      "stateMutability": "view",
      "type": "function",
      "constant": true
    },
    {
      "inputs": [
        {
          "internalType": "address",
          "name": "",
          "type": "address"
        }
      ],
      "name": "addressToTeacherId",
      "outputs": [
        {
          "internalType": "uint256",
          "name": "",
          "type": "uint256"
        }
      ],
      "stateMutability": "view",
      "type": "function",
      "constant": true
    },
    {
      "inputs": [],
      "name": "agentCount",
      "outputs": [
        {
          "internalType": "uint256",
          "name": "",
          "type": "uint256"
        }
      ],
      "stateMutability": "view",
      "type": "function",
      "constant": true
    },
    {
      "inputs": [
        {
          "internalType": "uint256",
          "name": "",
          "type": "uint256"
        }
      ],
      "name": "agentIds",
      "outputs": [
        {
          "internalType": "uint256",
          "name": "",
          "type": "uint256"
        }
      ],
      "stateMutability": "view",
      "type": "function",
      "constant": true
    },
    {
      "inputs": [
        {
          "internalType": "uint256",
          "name": "",
          "type": "uint256"
        }
      ],
      "name": "agents",
      "outputs": [
        {
          "internalType": "uint256",
          "name": "id",
          "type": "uint256"
        },
        {
          "internalType": "string",
          "name": "name",
          "type": "string"
        },
        {
          "internalType": "address",
          "name": "addr",
          "type": "address"
        },
        {
          "internalType": "uint256",
          "name": "value",
          "type": "uint256"
        }
      ],
      "stateMutability": "view",
      "type": "function",
      "constant": true
    },
    {
      "inputs": [],
      "name": "classCount",
      "outputs": [
        {
          "internalType": "uint256",
          "name": "",
          "type": "uint256"
        }
      ],
      "stateMutability": "view",
      "type": "function",
      "constant": true
    },
    {
      "inputs": [
        {
          "internalType": "uint256",
          "name": "",
          "type": "uint256"
        }
      ],
      "name": "classIds",
      "outputs": [
        {
          "internalType": "uint256",
          "name": "",
          "type": "uint256"
        }
      ],
      "stateMutability": "view",
      "type": "function",
      "constant": true
    },
    {
      "inputs": [],
      "name": "courseCount",
      "outputs": [
        {
          "internalType": "uint256",
          "name": "",
          "type": "uint256"
        }
      ],
      "stateMutability": "view",
      "type": "function",
      "constant": true
    },
    {
      "inputs": [
        {
          "internalType": "uint256",
          "name": "",
          "type": "uint256"
        }
      ],
      "name": "courseIds",
      "outputs": [
        {
          "internalType": "uint256",
          "name": "",
          "type": "uint256"
        }
      ],
      "stateMutability": "view",
      "type": "function",
      "constant": true
    },
    {
      "inputs": [
        {
          "internalType": "uint256",
          "name": "",
          "type": "uint256"
        }
      ],
      "name": "courses",
      "outputs": [
        {
          "internalType": "uint256",
          "name": "id",
          "type": "uint256"
        },
        {
          "internalType": "string",
          "name": "name",
          "type": "string"
        },
        {
          "internalType": "uint256",
          "name": "importance",
          "type": "uint256"
        },
        {
          "internalType": "bool",
          "name": "isAgentSuitable",
          "type": "bool"
        }
      ],
      "stateMutability": "view",
      "type": "function",
      "constant": true
    },
    {
      "inputs": [],
      "name": "teacherCount",
      "outputs": [
        {
          "internalType": "uint256",
          "name": "",
          "type": "uint256"
        }
      ],
      "stateMutability": "view",
      "type": "function",
      "constant": true
    },
    {
      "inputs": [
        {
          "internalType": "uint256",
          "name": "",
          "type": "uint256"
        }
      ],
      "name": "teacherIds",
      "outputs": [
        {
          "internalType": "uint256",
          "name": "",
          "type": "uint256"
        }
      ],
      "stateMutability": "view",
      "type": "function",
      "constant": true
    },
    {
      "inputs": [
        {
          "internalType": "uint256",
          "name": "",
          "type": "uint256"
        }
      ],
      "name": "teachers",
      "outputs": [
        {
          "internalType": "uint256",
          "name": "id",
          "type": "uint256"
        },
        {
          "internalType": "string",
          "name": "name",
          "type": "string"
        },
        {
          "internalType": "address",
          "name": "addr",
          "type": "address"
        },
        {
          "internalType": "uint256",
          "name": "suitabilityWeight",
          "type": "uint256"
        },
        {
          "internalType": "uint256",
          "name": "value",
          "type": "uint256"
        }
      ],
      "stateMutability": "view",
      "type": "function",
      "constant": true
    },
    {
      "inputs": [
        {
          "internalType": "address",
          "name": "teacherAddress",
          "type": "address"
        },
        {
          "internalType": "uint256",
          "name": "_TeacherId",
          "type": "uint256"
        }
      ],
      "name": "setTeacherId",
      "outputs": [],
      "stateMutability": "nonpayable",
      "type": "function"
    },
    {
      "inputs": [
        {
          "internalType": "uint256",
          "name": "teacherId",
          "type": "uint256"
        }
      ],
      "name": "removeTeacher",
      "outputs": [],
      "stateMutability": "nonpayable",
      "type": "function"
    },
    {
      "inputs": [
        {
          "internalType": "uint256",
          "name": "teacherId",
          "type": "uint256"
        },
        {
          "internalType": "string",
          "name": "_name",
          "type": "string"
        }
      ],
      "name": "setTeacherName",
      "outputs": [],
      "stateMutability": "nonpayable",
      "type": "function"
    },
    {
      "inputs": [
        {
          "internalType": "uint256",
          "name": "teacherId",
          "type": "uint256"
        },
        {
          "internalType": "address",
          "name": "_teacherAddress",
          "type": "address"
        }
      ],
      "name": "setTeacherAddress",
      "outputs": [],
      "stateMutability": "nonpayable",
      "type": "function"
    },
    {
      "inputs": [
        {
          "internalType": "uint256",
          "name": "teacherId",
          "type": "uint256"
        },
        {
          "internalType": "uint256",
          "name": "_assignedCourses",
          "type": "uint256"
        }
      ],
      "name": "addTeacherAssignedCourses",
      "outputs": [],
      "stateMutability": "nonpayable",
      "type": "function"
    },
    {
      "inputs": [
        {
          "internalType": "uint256",
          "name": "teacherId",
          "type": "uint256"
        },
        {
          "internalType": "uint256",
          "name": "_assignedCourses",
          "type": "uint256"
        }
      ],
      "name": "addTeacherReallyAssignedCourses",
      "outputs": [],
      "stateMutability": "nonpayable",
      "type": "function"
    },
    {
      "inputs": [
        {
          "internalType": "uint256",
          "name": "teacherId",
          "type": "uint256"
        },
        {
          "internalType": "uint256",
          "name": "_assignedCourses",
          "type": "uint256"
        }
      ],
      "name": "removeTeacherAssignedCourses",
      "outputs": [],
      "stateMutability": "nonpayable",
      "type": "function"
    },
    {
      "inputs": [
        {
          "internalType": "uint256",
          "name": "teacherId",
          "type": "uint256"
        },
        {
          "internalType": "uint256",
          "name": "_assignedCourses",
          "type": "uint256"
        }
      ],
      "name": "removeTeacherReallyAssignedCourses",
      "outputs": [],
      "stateMutability": "nonpayable",
      "type": "function"
    },
    {
      "inputs": [
        {
          "internalType": "uint256",
          "name": "teacherId",
          "type": "uint256"
        },
        {
          "internalType": "uint256",
          "name": "_suitabilityWeight",
          "type": "uint256"
        }
      ],
      "name": "setTeacherSuitabilityWeight",
      "outputs": [],
      "stateMutability": "nonpayable",
      "type": "function"
    },
    {
      "inputs": [
        {
          "internalType": "uint256",
          "name": "teacherId",
          "type": "uint256"
        },
        {
          "internalType": "uint256",
          "name": "_value",
          "type": "uint256"
        }
      ],
      "name": "setTeacherValue",
      "outputs": [],
      "stateMutability": "nonpayable",
      "type": "function"
    },
    {
      "inputs": [
        {
          "internalType": "uint256",
          "name": "agentId",
          "type": "uint256"
        },
        {
          "internalType": "uint256",
          "name": "_value",
          "type": "uint256"
        }
      ],
      "name": "setAgentValue",
      "outputs": [],
      "stateMutability": "nonpayable",
      "type": "function"
    },
    {
      "inputs": [
        {
          "internalType": "uint256",
          "name": "teacherId",
          "type": "uint256"
        },
        {
          "internalType": "uint256[]",
          "name": "_suitabilities",
          "type": "uint256[]"
        }
      ],
      "name": "setAllTeacherCourseSuitability",
      "outputs": [],
      "stateMutability": "nonpayable",
      "type": "function"
    },
    {
      "inputs": [
        {
          "internalType": "uint256",
          "name": "teacherId",
          "type": "uint256"
        },
        {
          "internalType": "uint256",
          "name": "courseId",
          "type": "uint256"
        },
        {
          "internalType": "uint256",
          "name": "_suitability",
          "type": "uint256"
        }
      ],
      "name": "setTeacherCourseSuitability",
      "outputs": [],
      "stateMutability": "nonpayable",
      "type": "function"
    },
    {
      "inputs": [
        {
          "internalType": "uint256",
          "name": "teacherId",
          "type": "uint256"
        },
        {
          "internalType": "uint256[]",
          "name": "_preferences",
          "type": "uint256[]"
        }
      ],
      "name": "setAllTeacherCoursePreferences",
      "outputs": [],
      "stateMutability": "nonpayable",
      "type": "function"
    },
    {
      "inputs": [
        {
          "internalType": "uint256",
          "name": "teacherId",
          "type": "uint256"
        },
        {
          "internalType": "uint256",
          "name": "courseId",
          "type": "uint256"
        },
        {
          "internalType": "uint256",
          "name": "_preference",
          "type": "uint256"
        }
      ],
      "name": "setTeacherCoursePreferences",
      "outputs": [],
      "stateMutability": "nonpayable",
      "type": "function"
    },
    {
      "inputs": [
        {
          "internalType": "address",
          "name": "agentAddress",
          "type": "address"
        },
        {
          "internalType": "uint256",
          "name": "_agentId",
          "type": "uint256"
        }
      ],
      "name": "setAgentId",
      "outputs": [],
      "stateMutability": "nonpayable",
      "type": "function"
    },
    {
      "inputs": [
        {
          "internalType": "uint256",
          "name": "agentId",
          "type": "uint256"
        }
      ],
      "name": "removeAgent",
      "outputs": [],
      "stateMutability": "nonpayable",
      "type": "function"
    },
    {
      "inputs": [
        {
          "internalType": "uint256",
          "name": "agentId",
          "type": "uint256"
        },
        {
          "internalType": "string",
          "name": "_name",
          "type": "string"
        }
      ],
      "name": "setAgentName",
      "outputs": [],
      "stateMutability": "nonpayable",
      "type": "function"
    },
    {
      "inputs": [
        {
          "internalType": "uint256",
          "name": "agentId",
          "type": "uint256"
        },
        {
          "internalType": "address",
          "name": "_agentAddress",
          "type": "address"
        }
      ],
      "name": "setAgentAddress",
      "outputs": [],
      "stateMutability": "nonpayable",
      "type": "function"
    },
    {
      "inputs": [
        {
          "internalType": "uint256",
          "name": "agentId",
          "type": "uint256"
        },
        {
          "internalType": "uint256",
          "name": "_assignedCourses",
          "type": "uint256"
        }
      ],
      "name": "addAgentAssignedCourses",
      "outputs": [],
      "stateMutability": "nonpayable",
      "type": "function"
    },
    {
      "inputs": [
        {
          "internalType": "uint256",
          "name": "agentId",
          "type": "uint256"
        },
        {
          "internalType": "uint256",
          "name": "_assignedCourses",
          "type": "uint256"
        }
      ],
      "name": "removeAgentAssignedCourses",
      "outputs": [],
      "stateMutability": "nonpayable",
      "type": "function"
    },
    {
      "inputs": [
        {
          "internalType": "uint256",
          "name": "agentId",
          "type": "uint256"
        },
        {
          "internalType": "uint256",
          "name": "_courseId",
          "type": "uint256"
        },
        {
          "internalType": "uint256",
          "name": "_suitability",
          "type": "uint256"
        }
      ],
      "name": "setAgentCourseSuitability",
      "outputs": [],
      "stateMutability": "nonpayable",
      "type": "function"
    },
    {
      "inputs": [
        {
          "internalType": "uint256",
          "name": "agentId",
          "type": "uint256"
        },
        {
          "internalType": "uint256[]",
          "name": "_suitabilities",
          "type": "uint256[]"
        }
      ],
      "name": "setAllAgentCourseSuitability",
      "outputs": [],
      "stateMutability": "nonpayable",
      "type": "function"
    },
    {
      "inputs": [
        {
          "internalType": "address",
          "name": "classAddress",
          "type": "address"
        },
        {
          "internalType": "uint256",
          "name": "_id",
          "type": "uint256"
        }
      ],
      "name": "setClassId",
      "outputs": [],
      "stateMutability": "nonpayable",
      "type": "function"
    },
    {
      "inputs": [
        {
          "internalType": "uint256",
          "name": "classId",
          "type": "uint256"
        }
      ],
      "name": "removeClass",
      "outputs": [],
      "stateMutability": "nonpayable",
      "type": "function"
    },
    {
      "inputs": [
        {
          "internalType": "uint256",
          "name": "courseId",
          "type": "uint256"
        }
      ],
      "name": "setCourseId",
      "outputs": [],
      "stateMutability": "nonpayable",
      "type": "function"
    },
    {
      "inputs": [
        {
          "internalType": "uint256",
          "name": "courseId",
          "type": "uint256"
        }
      ],
      "name": "removeCourse",
      "outputs": [],
      "stateMutability": "nonpayable",
      "type": "function"
    },
    {
      "inputs": [
        {
          "internalType": "uint256",
          "name": "courseId",
          "type": "uint256"
        },
        {
          "internalType": "string",
          "name": "_name",
          "type": "string"
        }
      ],
      "name": "setCourseName",
      "outputs": [],
      "stateMutability": "nonpayable",
      "type": "function"
    },
    {
      "inputs": [
        {
          "internalType": "uint256",
          "name": "courseId",
          "type": "uint256"
        },
        {
          "internalType": "uint256",
          "name": "_importance",
          "type": "uint256"
        }
      ],
      "name": "setCourseImportance",
      "outputs": [],
      "stateMutability": "nonpayable",
      "type": "function"
    },
    {
      "inputs": [
        {
          "internalType": "uint256[]",
          "name": "_importances",
          "type": "uint256[]"
        }
      ],
      "name": "setAllCourseImportance",
      "outputs": [],
      "stateMutability": "nonpayable",
      "type": "function"
    },
    {
      "inputs": [
        {
          "internalType": "uint256",
          "name": "courseId",
          "type": "uint256"
        },
        {
          "internalType": "uint256",
          "name": "_teacherId",
          "type": "uint256"
        }
      ],
      "name": "addCourseAssignedTeacherId",
      "outputs": [],
      "stateMutability": "nonpayable",
      "type": "function"
    },
    {
      "inputs": [
        {
          "internalType": "uint256",
          "name": "courseId",
          "type": "uint256"
        },
        {
          "internalType": "uint256",
          "name": "_agentId",
          "type": "uint256"
        }
      ],
      "name": "addCourseAssignedAgentId",
      "outputs": [],
      "stateMutability": "nonpayable",
      "type": "function"
    },
    {
      "inputs": [
        {
          "internalType": "uint256",
          "name": "courseId",
          "type": "uint256"
        },
        {
          "internalType": "uint256",
          "name": "_teacherId",
          "type": "uint256"
        }
      ],
      "name": "removeCourseAssignedTeacherId",
      "outputs": [],
      "stateMutability": "nonpayable",
      "type": "function"
    },
    {
      "inputs": [
        {
          "internalType": "uint256",
          "name": "courseId",
          "type": "uint256"
        },
        {
          "internalType": "uint256",
          "name": "_agentId",
          "type": "uint256"
        }
      ],
      "name": "removeCourseAssignedAgentId",
      "outputs": [],
      "stateMutability": "nonpayable",
      "type": "function"
    },
    {
      "inputs": [
        {
          "internalType": "uint256",
          "name": "courseId",
          "type": "uint256"
        },
        {
          "internalType": "bool",
          "name": "_isAgentSuitable",
          "type": "bool"
        }
      ],
      "name": "setCourseIsAgentSuitable",
      "outputs": [],
      "stateMutability": "nonpayable",
      "type": "function"
    },
    {
      "inputs": [
        {
          "internalType": "uint256",
          "name": "_teacherCount",
          "type": "uint256"
        }
      ],
      "name": "setTeacherCount",
      "outputs": [],
      "stateMutability": "nonpayable",
      "type": "function"
    },
    {
      "inputs": [
        {
          "internalType": "uint256",
          "name": "_agentCount",
          "type": "uint256"
        }
      ],
      "name": "setAgentCount",
      "outputs": [],
      "stateMutability": "nonpayable",
      "type": "function"
    },
    {
      "inputs": [
        {
          "internalType": "uint256",
          "name": "_classCount",
          "type": "uint256"
        }
      ],
      "name": "setClassCount",
      "outputs": [],
      "stateMutability": "nonpayable",
      "type": "function"
    },
    {
      "inputs": [
        {
          "internalType": "uint256",
          "name": "_courseCount",
          "type": "uint256"
        }
      ],
      "name": "setCourseCount",
      "outputs": [],
      "stateMutability": "nonpayable",
      "type": "function"
    },
    {
      "inputs": [
        {
          "internalType": "uint256",
          "name": "_teacherId",
          "type": "uint256"
        },
        {
          "internalType": "uint256",
          "name": "courseId",
          "type": "uint256"
        }
      ],
      "name": "getTeacherSuitability",
      "outputs": [
        {
          "internalType": "uint256",
          "name": "",
          "type": "uint256"
        }
      ],
      "stateMutability": "view",
      "type": "function",
      "constant": true
    },
    {
      "inputs": [
        {
          "internalType": "uint256",
          "name": "_agentId",
          "type": "uint256"
        },
        {
          "internalType": "uint256",
          "name": "courseId",
          "type": "uint256"
        }
      ],
      "name": "getAgentSuitability",
      "outputs": [
        {
          "internalType": "uint256",
          "name": "",
          "type": "uint256"
        }
      ],
      "stateMutability": "view",
      "type": "function",
      "constant": true
    },
    {
      "inputs": [
        {
          "internalType": "uint256",
          "name": "_teacherId",
          "type": "uint256"
        },
        {
          "internalType": "uint256",
          "name": "courseId",
          "type": "uint256"
        }
      ],
      "name": "getPreference",
      "outputs": [
        {
          "internalType": "uint256",
          "name": "",
          "type": "uint256"
        }
      ],
      "stateMutability": "view",
      "type": "function",
      "constant": true
    },
    {
      "inputs": [
        {
          "internalType": "uint256",
          "name": "_teacherId",
          "type": "uint256"
        }
      ],
      "name": "getTeacherAssignedCourses",
      "outputs": [
        {
          "internalType": "uint256[]",
          "name": "",
          "type": "uint256[]"
        }
      ],
      "stateMutability": "view",
      "type": "function",
      "constant": true
    },
    {
      "inputs": [
        {
          "internalType": "uint256",
          "name": "_teacherId",
          "type": "uint256"
        }
      ],
      "name": "getTeacherReallyAssignedCourses",
      "outputs": [
        {
          "internalType": "uint256[]",
          "name": "",
          "type": "uint256[]"
        }
      ],
      "stateMutability": "view",
      "type": "function",
      "constant": true
    },
    {
      "inputs": [
        {
          "internalType": "uint256",
          "name": "_agentId",
          "type": "uint256"
        }
      ],
      "name": "getAgentAssignedCourses",
      "outputs": [
        {
          "internalType": "uint256[]",
          "name": "",
          "type": "uint256[]"
        }
      ],
      "stateMutability": "view",
      "type": "function",
      "constant": true
    },
    {
      "inputs": [
        {
          "internalType": "uint256",
          "name": "_courseId",
          "type": "uint256"
        }
      ],
      "name": "getCoursesAssignedTeacher",
      "outputs": [
        {
          "internalType": "uint256[]",
          "name": "",
          "type": "uint256[]"
        }
      ],
      "stateMutability": "view",
      "type": "function",
      "constant": true
    },
    {
      "inputs": [
        {
          "internalType": "uint256",
          "name": "_courseId",
          "type": "uint256"
        }
      ],
      "name": "getCoursesAssignedAgent",
      "outputs": [
        {
          "internalType": "uint256[]",
          "name": "",
          "type": "uint256[]"
        }
      ],
      "stateMutability": "view",
      "type": "function",
      "constant": true
    },
    {
      "inputs": [],
      "name": "getTeacherIds",
      "outputs": [
        {
          "internalType": "uint256[]",
          "name": "",
          "type": "uint256[]"
        }
      ],
      "stateMutability": "view",
      "type": "function",
      "constant": true
    },
    {
      "inputs": [],
      "name": "getAgentIds",
      "outputs": [
        {
          "internalType": "uint256[]",
          "name": "",
          "type": "uint256[]"
        }
      ],
      "stateMutability": "view",
      "type": "function",
      "constant": true
    },
    {
      "inputs": [],
      "name": "getCourseIds",
      "outputs": [
        {
          "internalType": "uint256[]",
          "name": "",
          "type": "uint256[]"
        }
      ],
      "stateMutability": "view",
      "type": "function",
      "constant": true
    },
    {
      "inputs": [],
      "name": "getClassIds",
      "outputs": [
        {
          "internalType": "uint256[]",
          "name": "",
          "type": "uint256[]"
        }
      ],
      "stateMutability": "view",
      "type": "function",
      "constant": true
    },
    {
      "inputs": [
        {
          "internalType": "uint256",
          "name": "courseId",
          "type": "uint256"
        },
        {
          "internalType": "uint256",
          "name": "importance",
          "type": "uint256"
        },
        {
          "internalType": "bool",
          "name": "isAgentSuitable",
          "type": "bool"
        }
      ],
      "name": "setCourseProperties",
      "outputs": [],
      "stateMutability": "nonpayable",
      "type": "function"
    },
    {
      "inputs": [],
      "name": "getCourseCount",
      "outputs": [
        {
          "internalType": "uint256",
          "name": "",
          "type": "uint256"
        }
      ],
      "stateMutability": "view",
      "type": "function",
      "constant": true
    }
  ],
  "bytecode": "0x608060405234801561001057600080fd5b50613b21806100206000396000f3fe608060405234801561001057600080fd5b50600436106103f15760003560e01c806396f979d211610215578063ce64bf9b11610125578063e40af036116100b8578063e8a2dc2f11610087578063e8a2dc2f14610c1a578063ebacebe414610c4a578063ee196ee214610c7a578063f0f2efd814610c96578063fc09e9d014610cb2576103f1565b8063e40af03614610b96578063e52505d814610bb2578063e637812f14610be2578063e7fa455714610bfe576103f1565b8063deb9f76a116100f4578063deb9f76a14610b26578063df3addfa14610b42578063e204b10214610b5e578063e20b340514610b7a576103f1565b8063ce64bf9b14610a7a578063d4e57ff014610aaa578063dcfa705714610ada578063dd03576514610b0a576103f1565b8063b1508760116101a8578063bd1602d111610177578063bd1602d1146109ee578063bfb9d44c14610a0a578063c318fe5f14610a26578063cb85404514610a42578063cddd6c6314610a5e576103f1565b8063b150876014610966578063b7dc128414610984578063bb69df72146109a2578063bca24bd4146109be576103f1565b8063a549e416116101e4578063a549e416146108f4578063a7ab847214610910578063ab9963171461092c578063ad3a6ad41461094a576103f1565b806396f979d2146108595780639709ee011461088c57806397e92d52146108bc5780639e122377146108d8576103f1565b806356e760581161031057806372ab4e96116102a357806382ff0a5a1161027257806382ff0a5a1461078f578063851580a7146107bf57806386875ea8146107ef57806391c89deb1461080b57806396cfda061461083b576103f1565b806372ab4e961461070b57806372c30f45146107275780637fa7e04d14610743578063827e57311461075f576103f1565b80636798bad9116102df5780636798bad91461069b5780636e428d2d146106b75780636fcf4f96146106d3578063700ed28b146106ef576103f1565b806356e76058146106155780635953faff146106455780635e383d4614610661578063660551591461067d576103f1565b806334ac0b40116103885780634b974df7116103575780634b974df71461058c5780634d27e912146105a85780634d652350146105c4578063513856c8146105e2576103f1565b806334ac0b40146104ee5780633abdb63d1461052257806346be31361461053e578063494e23711461055c576103f1565b80631dd86f90116103c45780631dd86f901461047c5780631fe76a6c146104985780632359b7b8146104b45780632b0816ac146104d2576103f1565b80630dbd6b90146103f65780630f7f13cf146104125780630fa1c2711461044257806318860d371461045e575b600080fd5b610410600480360381019061040b91906131aa565b610cce565b005b61042c60048036038101906104279190612f47565b610d1c565b60405161043991906134ac565b60405180910390f35b61045c6004803603810190610457919061316a565b610d34565b005b610466610d75565b60405161047391906133ea565b60405180910390f35b610496600480360381019061049191906131fd565b610dcd565b005b6104b260048036038101906104ad91906131fd565b610e80565b005b6104bc610eb1565b6040516104c991906133ea565b60405180910390f35b6104ec60048036038101906104e79190612ffd565b610f09565b005b61050860048036038101906105039190612ffd565b610f50565b604051610519959493929190613513565b60405180910390f35b61053c60048036038101906105379190612ffd565b61102e565b005b610546611116565b60405161055391906134ac565b60405180910390f35b61057660048036038101906105719190612ffd565b61111c565b60405161058391906134ac565b60405180910390f35b6105a660048036038101906105a1919061316a565b611140565b005b6105c260048036038101906105bd91906131fd565b6112da565b005b6105cc61130b565b6040516105d991906133ea565b60405180910390f35b6105fc60048036038101906105f79190612ffd565b611363565b60405161060c94939291906134c7565b60405180910390f35b61062f600480360381019061062a9190612ffd565b61143b565b60405161063c91906134ac565b60405180910390f35b61065f600480360381019061065a9190612fb4565b61145f565b005b61067b60048036038101906106769190612f74565b611521565b005b610685611592565b60405161069291906134ac565b60405180910390f35b6106b560048036038101906106b09190612ffd565b611598565b005b6106d160048036038101906106cc919061316a565b6115a2565b005b6106ed60048036038101906106e89190612ffd565b61173c565b005b6107096004803603810190610704919061316a565b6118a6565b005b6107256004803603810190610720919061316a565b6118e7565b005b610741600480360381019061073c9190612ffd565b611928565b005b61075d6004803603810190610758919061310a565b6119f4565b005b61077960048036038101906107749190612ffd565b611a1f565b60405161078691906133ea565b60405180910390f35b6107a960048036038101906107a49190612ffd565b611a8d565b6040516107b691906133ea565b60405180910390f35b6107d960048036038101906107d4919061316a565b611afb565b6040516107e691906134ac565b60405180910390f35b6108096004803603810190610804919061316a565b611b2d565b005b61082560048036038101906108209190612ffd565b611cc7565b60405161083291906133ea565b60405180910390f35b610843611d35565b60405161085091906134ac565b60405180910390f35b610873600480360381019061086e9190612ffd565b611d3f565b604051610883949392919061356d565b60405180910390f35b6108a660048036038101906108a1919061316a565b611e04565b6040516108b391906134ac565b60405180910390f35b6108d660048036038101906108d1919061306a565b611e36565b005b6108f260048036038101906108ed919061310a565b611f8e565b005b61090e60048036038101906109099190612f74565b611fb9565b005b61092a6004803603810190610925919061310a565b612044565b005b6109346120f1565b60405161094191906134ac565b60405180910390f35b610964600480360381019061095f919061306a565b6120f7565b005b61096e61224f565b60405161097b91906133ea565b60405180910390f35b61098c6122a7565b60405161099991906134ac565b60405180910390f35b6109bc60048036038101906109b7919061316a565b6122ad565b005b6109d860048036038101906109d39190612ffd565b61234e565b6040516109e591906134ac565b60405180910390f35b610a086004803603810190610a039190612ffd565b612372565b005b610a246004803603810190610a1f9190612f74565b61237c565b005b610a406004803603810190610a3b919061302a565b612408565b005b610a5c6004803603810190610a5791906130ca565b6124e3565b005b610a786004803603810190610a73919061302a565b612515565b005b610a946004803603810190610a8f9190612ffd565b61256e565b604051610aa191906133ea565b60405180910390f35b610ac46004803603810190610abf9190612f47565b6125dc565b604051610ad191906134ac565b60405180910390f35b610af46004803603810190610aef9190612ffd565b6125f4565b604051610b0191906134ac565b60405180910390f35b610b246004803603810190610b1f9190612ffd565b612618565b005b610b406004803603810190610b3b9190612ffd565b612622565b005b610b5c6004803603810190610b579190612ffd565b61262c565b005b610b786004803603810190610b73919061316a565b6126f8565b005b610b946004803603810190610b8f919061316a565b612717565b005b610bb06004803603810190610bab919061316a565b6127b8565b005b610bcc6004803603810190610bc79190612ffd565b612952565b604051610bd991906133ea565b60405180910390f35b610bfc6004803603810190610bf7919061316a565b6129c0565b005b610c186004803603810190610c13919061316a565b612a01565b005b610c346004803603810190610c2f919061316a565b612b9b565b604051610c4191906134ac565b60405180910390f35b610c646004803603810190610c5f9190612f47565b612bcd565b604051610c7191906134ac565b60405180910390f35b610c946004803603810190610c8f919061316a565b612be5565b005b610cb06004803603810190610cab919061306a565b612c04565b005b610ccc6004803603810190610cc7919061316a565b612cda565b005b816005600085815260200190815260200160002060020181905550806005600085815260200190815260200160002060050160006101000a81548160ff021916908315150217905550505050565b60006020528060005260406000206000915090505481565b600560008381526020019081526020016000206003018190806001815401808255809150506001900390600052602060002001600090919091909150555050565b6060600d805480602002602001604051908101604052809291908181526020018280548015610dc357602002820191906000526020600020905b815481526020019060010190808311610daf575b5050505050905090565b60008060003373ffffffffffffffffffffffffffffffffffffffff1673ffffffffffffffffffffffffffffffffffffffff168152602001908152602001600020541415610e4f576040517f08c379a0000000000000000000000000000000000000000000000000000000008152600401610e469061346c565b60405180910390fd5b8060036000858152602001908152602001600020600801600084815260200190815260200160002081905550505050565b8060036000858152602001908152602001600020600701600084815260200190815260200160002081905550505050565b6060600c805480602002602001604051908101604052809291908181526020018280548015610eff57602002820191906000526020600020905b815481526020019060010190808311610eeb575b5050505050905090565b806005600083815260200190815260200160002060000181905550600c81908060018154018082558091505060019003906000526020600020016000909190919091505550565b6003602052806000526040600020600091509050806000015490806001018054610f799061370e565b80601f0160208091040260200160405190810160405280929190818152602001828054610fa59061370e565b8015610ff25780601f10610fc757610100808354040283529160200191610ff2565b820191906000526020600020905b815481529060010190602001808311610fd557829003601f168201915b5050505050908060020160009054906101000a900473ffffffffffffffffffffffffffffffffffffffff16908060050154908060060154905085565b6000600460008381526020019081526020016000206000018190555060005b600b805490508110156111125781600b828154811061106f5761106e613847565b5b906000526020600020015414156110ff57600b6001600b80549050611094919061365f565b815481106110a5576110a4613847565b5b9060005260206000200154600b82815481106110c4576110c3613847565b5b9060005260206000200181905550600b8054806110e4576110e3613818565b5b60019003818190600052602060002001600090559055611112565b808061110a90613771565b91505061104d565b5050565b60065481565b600c818154811061112c57600080fd5b906000526020600020016000915090505481565b60008080600090505b60036000868152602001908152602001600020600301805490508110156111c3578360036000878152602001908152602001600020600301828154811061119357611192613847565b5b906000526020600020015414156111b057600192508091506111c3565b80806111bb90613771565b915050611149565b508115611299576003600085815260200190815260200160002060030160016003600087815260200190815260200160002060030180549050611206919061365f565b8154811061121757611216613847565b5b906000526020600020015460036000868152602001908152602001600020600301828154811061124a57611249613847565b5b90600052602060002001819055506003600085815260200190815260200160002060030180548061127e5761127d613818565b5b600190038181906000526020600020016000905590556112d4565b6040517f08c379a00000000000000000000000000000000000000000000000000000000081526004016112cb9061342c565b60405180910390fd5b50505050565b8060046000858152602001908152602001600020600501600084815260200190815260200160002081905550505050565b6060600a80548060200260200160405190810160405280929190818152602001828054801561135957602002820191906000526020600020905b815481526020019060010190808311611345575b5050505050905090565b600460205280600052604060002060009150905080600001549080600101805461138c9061370e565b80601f01602080910402602001604051908101604052809291908181526020018280546113b89061370e565b80156114055780601f106113da57610100808354040283529160200191611405565b820191906000526020600020905b8154815290600101906020018083116113e857829003601f168201915b5050505050908060020160009054906101000a900473ffffffffffffffffffffffffffffffffffffffff16908060030154905084565b600b818154811061144b57600080fd5b906000526020600020016000915090505481565b600c805490508151146114a7576040517f08c379a000000000000000000000000000000000000000000000000000000000815260040161149e9061344c565b60405180910390fd5b60005b600c8054905081101561151d578181815181106114ca576114c9613847565b5b602002602001015160056000600c84815481106114ea576114e9613847565b5b9060005260206000200154815260200190815260200160002060020181905550808061151590613771565b9150506114aa565b5050565b80600260008473ffffffffffffffffffffffffffffffffffffffff1673ffffffffffffffffffffffffffffffffffffffff16815260200190815260200160002081905550600d8190806001815401808255809150506001900390600052602060002001600090919091909150555050565b60095481565b8060068190555050565b60008080600090505b600560008681526020019081526020016000206003018054905081101561162557836005600087815260200190815260200160002060030182815481106115f5576115f4613847565b5b906000526020600020015414156116125760019250809150611625565b808061161d90613771565b9150506115ab565b5081156116fb576005600085815260200190815260200160002060030160016005600087815260200190815260200160002060030180549050611668919061365f565b8154811061167957611678613847565b5b90600052602060002001546005600086815260200190815260200160002060030182815481106116ac576116ab613847565b5b9060005260206000200181905550600560008581526020019081526020016000206003018054806116e0576116df613818565b5b60019003818190600052602060002001600090559055611736565b6040517f08c379a000000000000000000000000000000000000000000000000000000000815260040161172d9061342c565b60405180910390fd5b50505050565b60008060003373ffffffffffffffffffffffffffffffffffffffff1673ffffffffffffffffffffffffffffffffffffffff1681526020019081526020016000205414156117be576040517f08c379a00000000000000000000000000000000000000000000000000000000081526004016117b59061346c565b60405180910390fd5b6000600360008381526020019081526020016000206000018190555060005b600a805490508110156118a25781600a82815481106117ff576117fe613847565b5b9060005260206000200154141561188f57600a6001600a80549050611824919061365f565b8154811061183557611834613847565b5b9060005260206000200154600a828154811061185457611853613847565b5b9060005260206000200181905550600a80548061187457611873613818565b5b600190038181906000526020600020016000905590556118a2565b808061189a90613771565b9150506117dd565b5050565b600360008381526020019081526020016000206003018190806001815401808255809150506001900390600052602060002001600090919091909150555050565b600460008381526020019081526020016000206004018190806001815401808255809150506001900390600052602060002001600090919091909150555050565b60005b600d805490508110156119f05781600d828154811061194d5761194c613847565b5b906000526020600020015414156119dd57600d6001600d80549050611972919061365f565b8154811061198357611982613847565b5b9060005260206000200154600d82815481106119a2576119a1613847565b5b9060005260206000200181905550600d8054806119c2576119c1613818565b5b600190038181906000526020600020016000905590556119f0565b80806119e890613771565b91505061192b565b5050565b8181600460008681526020019081526020016000206001019190611a19929190612d1b565b50505050565b606060036000838152602001908152602001600020600401805480602002602001604051908101604052809291908181526020018280548015611a8157602002820191906000526020600020905b815481526020019060010190808311611a6d575b50505050509050919050565b606060056000838152602001908152602001600020600301805480602002602001604051908101604052809291908181526020018280548015611aef57602002820191906000526020600020905b815481526020019060010190808311611adb575b50505050509050919050565b600060036000848152602001908152602001600020600801600083815260200190815260200160002054905092915050565b60008080600090505b6005600086815260200190815260200160002060040180549050811015611bb05783600560008781526020019081526020016000206004018281548110611b8057611b7f613847565b5b90600052602060002001541415611b9d5760019250809150611bb0565b8080611ba890613771565b915050611b36565b508115611c86576005600085815260200190815260200160002060040160016005600087815260200190815260200160002060040180549050611bf3919061365f565b81548110611c0457611c03613847565b5b9060005260206000200154600560008681526020019081526020016000206004018281548110611c3757611c36613847565b5b906000526020600020018190555060056000858152602001908152602001600020600401805480611c6b57611c6a613818565b5b60019003818190600052602060002001600090559055611cc1565b6040517f08c379a0000000000000000000000000000000000000000000000000000000008152600401611cb89061342c565b60405180910390fd5b50505050565b606060056000838152602001908152602001600020600401805480602002602001604051908101604052809291908181526020018280548015611d2957602002820191906000526020600020905b815481526020019060010190808311611d15575b50505050509050919050565b6000600954905090565b6005602052806000526040600020600091509050806000015490806001018054611d689061370e565b80601f0160208091040260200160405190810160405280929190818152602001828054611d949061370e565b8015611de15780601f10611db657610100808354040283529160200191611de1565b820191906000526020600020905b815481529060010190602001808311611dc457829003601f168201915b5050505050908060020154908060050160009054906101000a900460ff16905084565b600060046000848152602001908152602001600020600501600083815260200190815260200160002054905092915050565b60008060003373ffffffffffffffffffffffffffffffffffffffff1673ffffffffffffffffffffffffffffffffffffffff168152602001908152602001600020541415611eb8576040517f08c379a0000000000000000000000000000000000000000000000000000000008152600401611eaf9061346c565b60405180910390fd5b600c805490508282905014611f02576040517f08c379a0000000000000000000000000000000000000000000000000000000008152600401611ef99061348c565b60405180910390fd5b60005b600c80549050811015611f8857828282818110611f2557611f24613847565b5b90506020020135600360008681526020019081526020016000206007016000600c8481548110611f5857611f57613847565b5b90600052602060002001548152602001908152602001600020819055508080611f8090613771565b915050611f05565b50505050565b8181600560008681526020019081526020016000206001019190611fb3929190612d1b565b50505050565b806000808473ffffffffffffffffffffffffffffffffffffffff1673ffffffffffffffffffffffffffffffffffffffff16815260200190815260200160002081905550806003600083815260200190815260200160002060000181905550600a8190806001815401808255809150506001900390600052602060002001600090919091909150555050565b60008060003373ffffffffffffffffffffffffffffffffffffffff1673ffffffffffffffffffffffffffffffffffffffff1681526020019081526020016000205414156120c6576040517f08c379a00000000000000000000000000000000000000000000000000000000081526004016120bd9061346c565b60405180910390fd5b81816003600086815260200190815260200160002060010191906120eb929190612d1b565b50505050565b60085481565b60008060003373ffffffffffffffffffffffffffffffffffffffff1673ffffffffffffffffffffffffffffffffffffffff168152602001908152602001600020541415612179576040517f08c379a00000000000000000000000000000000000000000000000000000000081526004016121709061346c565b60405180910390fd5b600c8054905082829050146121c3576040517f08c379a00000000000000000000000000000000000000000000000000000000081526004016121ba9061340c565b60405180910390fd5b60005b600c80549050811015612249578282828181106121e6576121e5613847565b5b90506020020135600360008681526020019081526020016000206008016000600c848154811061221957612218613847565b5b9060005260206000200154815260200190815260200160002081905550808061224190613771565b9150506121c6565b50505050565b6060600b80548060200260200160405190810160405280929190818152602001828054801561229d57602002820191906000526020600020905b815481526020019060010190808311612289575b5050505050905090565b60075481565b60008060003373ffffffffffffffffffffffffffffffffffffffff1673ffffffffffffffffffffffffffffffffffffffff16815260200190815260200160002054141561232f576040517f08c379a00000000000000000000000000000000000000000000000000000000081526004016123269061346c565b60405180910390fd5b8060036000848152602001908152602001600020600501819055505050565b600d818154811061235e57600080fd5b906000526020600020016000915090505481565b8060098190555050565b80600160008473ffffffffffffffffffffffffffffffffffffffff1673ffffffffffffffffffffffffffffffffffffffff16815260200190815260200160002081905550806004600083815260200190815260200160002060000181905550600b8190806001815401808255809150506001900390600052602060002001600090919091909150555050565b60008060003373ffffffffffffffffffffffffffffffffffffffff1673ffffffffffffffffffffffffffffffffffffffff16815260200190815260200160002054141561248a576040517f08c379a00000000000000000000000000000000000000000000000000000000081526004016124819061346c565b60405180910390fd5b806003600084815260200190815260200160002060020160006101000a81548173ffffffffffffffffffffffffffffffffffffffff021916908373ffffffffffffffffffffffffffffffffffffffff1602179055505050565b806005600084815260200190815260200160002060050160006101000a81548160ff0219169083151502179055505050565b806004600084815260200190815260200160002060020160006101000a81548173ffffffffffffffffffffffffffffffffffffffff021916908373ffffffffffffffffffffffffffffffffffffffff1602179055505050565b6060600460008381526020019081526020016000206004018054806020026020016040519081016040528092919081815260200182805480156125d057602002820191906000526020600020905b8154815260200190600101908083116125bc575b50505050509050919050565b60026020528060005260406000206000915090505481565b600a818154811061260457600080fd5b906000526020600020016000915090505481565b8060088190555050565b8060078190555050565b60005b600c805490508110156126f45781600c828154811061265157612650613847565b5b906000526020600020015414156126e157600c6001600c80549050612676919061365f565b8154811061268757612686613847565b5b9060005260206000200154600c82815481106126a6576126a5613847565b5b9060005260206000200181905550600c8054806126c6576126c5613818565b5b600190038181906000526020600020016000905590556126f4565b80806126ec90613771565b91505061262f565b5050565b8060056000848152602001908152602001600020600201819055505050565b60008060003373ffffffffffffffffffffffffffffffffffffffff1673ffffffffffffffffffffffffffffffffffffffff168152602001908152602001600020541415612799576040517f08c379a00000000000000000000000000000000000000000000000000000000081526004016127909061346c565b60405180910390fd5b8060036000848152602001908152602001600020600601819055505050565b60008080600090505b600460008681526020019081526020016000206004018054905081101561283b578360046000878152602001908152602001600020600401828154811061280b5761280a613847565b5b90600052602060002001541415612828576001925080915061283b565b808061283390613771565b9150506127c1565b50811561291157600460008581526020019081526020016000206004016001600460008781526020019081526020016000206004018054905061287e919061365f565b8154811061288f5761288e613847565b5b90600052602060002001546004600086815260200190815260200160002060040182815481106128c2576128c1613847565b5b9060005260206000200181905550600460008581526020019081526020016000206004018054806128f6576128f5613818565b5b6001900381819060005260206000200160009055905561294c565b6040517f08c379a00000000000000000000000000000000000000000000000000000000081526004016129439061342c565b60405180910390fd5b50505050565b6060600360008381526020019081526020016000206003018054806020026020016040519081016040528092919081815260200182805480156129b457602002820191906000526020600020905b8154815260200190600101908083116129a0575b50505050509050919050565b600360008381526020019081526020016000206004018190806001815401808255809150506001900390600052602060002001600090919091909150555050565b60008080600090505b6003600086815260200190815260200160002060040180549050811015612a845783600360008781526020019081526020016000206004018281548110612a5457612a53613847565b5b90600052602060002001541415612a715760019250809150612a84565b8080612a7c90613771565b915050612a0a565b508115612b5a576003600085815260200190815260200160002060040160016003600087815260200190815260200160002060040180549050612ac7919061365f565b81548110612ad857612ad7613847565b5b9060005260206000200154600360008681526020019081526020016000206004018281548110612b0b57612b0a613847565b5b906000526020600020018190555060036000858152602001908152602001600020600401805480612b3f57612b3e613818565b5b60019003818190600052602060002001600090559055612b95565b6040517f08c379a0000000000000000000000000000000000000000000000000000000008152600401612b8c9061342c565b60405180910390fd5b50505050565b600060036000848152602001908152602001600020600701600083815260200190815260200160002054905092915050565b60016020528060005260406000206000915090505481565b8060046000848152602001908152602001600020600301819055505050565b600c805490508282905014612c4e576040517f08c379a0000000000000000000000000000000000000000000000000000000008152600401612c459061348c565b60405180910390fd5b60005b600c80549050811015612cd457828282818110612c7157612c70613847565b5b90506020020135600460008681526020019081526020016000206005016000600c8481548110612ca457612ca3613847565b5b90600052602060002001548152602001908152602001600020819055508080612ccc90613771565b915050612c51565b50505050565b600560008381526020019081526020016000206004018190806001815401808255809150506001900390600052602060002001600090919091909150555050565b828054612d279061370e565b90600052602060002090601f016020900481019282612d495760008555612d90565b82601f10612d6257803560ff1916838001178555612d90565b82800160010185558215612d90579182015b82811115612d8f578235825591602001919060010190612d74565b5b509050612d9d9190612da1565b5090565b5b80821115612dba576000816000905550600101612da2565b5090565b6000612dd1612dcc846135de565b6135b9565b90508083825260208201905082856020860282011115612df457612df36138af565b5b60005b85811015612e245781612e0a8882612f32565b845260208401935060208301925050600181019050612df7565b5050509392505050565b600081359050612e3d81613aa6565b92915050565b60008083601f840112612e5957612e586138aa565b5b8235905067ffffffffffffffff811115612e7657612e756138a5565b5b602083019150836020820283011115612e9257612e916138af565b5b9250929050565b600082601f830112612eae57612ead6138aa565b5b8135612ebe848260208601612dbe565b91505092915050565b600081359050612ed681613abd565b92915050565b60008083601f840112612ef257612ef16138aa565b5b8235905067ffffffffffffffff811115612f0f57612f0e6138a5565b5b602083019150836001820283011115612f2b57612f2a6138af565b5b9250929050565b600081359050612f4181613ad4565b92915050565b600060208284031215612f5d57612f5c6138b9565b5b6000612f6b84828501612e2e565b91505092915050565b60008060408385031215612f8b57612f8a6138b9565b5b6000612f9985828601612e2e565b9250506020612faa85828601612f32565b9150509250929050565b600060208284031215612fca57612fc96138b9565b5b600082013567ffffffffffffffff811115612fe857612fe76138b4565b5b612ff484828501612e99565b91505092915050565b600060208284031215613013576130126138b9565b5b600061302184828501612f32565b91505092915050565b60008060408385031215613041576130406138b9565b5b600061304f85828601612f32565b925050602061306085828601612e2e565b9150509250929050565b600080600060408486031215613083576130826138b9565b5b600061309186828701612f32565b935050602084013567ffffffffffffffff8111156130b2576130b16138b4565b5b6130be86828701612e43565b92509250509250925092565b600080604083850312156130e1576130e06138b9565b5b60006130ef85828601612f32565b925050602061310085828601612ec7565b9150509250929050565b600080600060408486031215613123576131226138b9565b5b600061313186828701612f32565b935050602084013567ffffffffffffffff811115613152576131516138b4565b5b61315e86828701612edc565b92509250509250925092565b60008060408385031215613181576131806138b9565b5b600061318f85828601612f32565b92505060206131a085828601612f32565b9150509250929050565b6000806000606084860312156131c3576131c26138b9565b5b60006131d186828701612f32565b93505060206131e286828701612f32565b92505060406131f386828701612ec7565b9150509250925092565b600080600060608486031215613216576132156138b9565b5b600061322486828701612f32565b935050602061323586828701612f32565b925050604061324686828701612f32565b9150509250925092565b600061325c83836133cc565b60208301905092915050565b61327181613693565b82525050565b60006132828261361a565b61328c818561363d565b93506132978361360a565b8060005b838110156132c85781516132af8882613250565b97506132ba83613630565b92505060018101905061329b565b5085935050505092915050565b6132de816136a5565b82525050565b60006132ef82613625565b6132f9818561364e565b93506133098185602086016136db565b613312816138be565b840191505092915050565b600061332a60608361364e565b9150613335826138cf565b606082019050919050565b600061334d60108361364e565b915061335882613944565b602082019050919050565b600061337060228361364e565b915061337b8261396d565b604082019050919050565b6000613393602f8361364e565b915061339e826139bc565b604082019050919050565b60006133b660618361364e565b91506133c182613a0b565b608082019050919050565b6133d5816136d1565b82525050565b6133e4816136d1565b82525050565b600060208201905081810360008301526134048184613277565b905092915050565b600060208201905081810360008301526134258161331d565b9050919050565b6000602082019050818103600083015261344581613340565b9050919050565b6000602082019050818103600083015261346581613363565b9050919050565b6000602082019050818103600083015261348581613386565b9050919050565b600060208201905081810360008301526134a5816133a9565b9050919050565b60006020820190506134c160008301846133db565b92915050565b60006080820190506134dc60008301876133db565b81810360208301526134ee81866132e4565b90506134fd6040830185613268565b61350a60608301846133db565b95945050505050565b600060a08201905061352860008301886133db565b818103602083015261353a81876132e4565b90506135496040830186613268565b61355660608301856133db565b61356360808301846133db565b9695505050505050565b600060808201905061358260008301876133db565b818103602083015261359481866132e4565b90506135a360408301856133db565b6135b060608301846132d5565b95945050505050565b60006135c36135d4565b90506135cf8282613740565b919050565b6000604051905090565b600067ffffffffffffffff8211156135f9576135f8613876565b5b602082029050602081019050919050565b6000819050602082019050919050565b600081519050919050565b600081519050919050565b6000602082019050919050565b600082825260208201905092915050565b600082825260208201905092915050565b600061366a826136d1565b9150613675836136d1565b925082821015613688576136876137ba565b5b828203905092915050565b600061369e826136b1565b9050919050565b60008115159050919050565b600073ffffffffffffffffffffffffffffffffffffffff82169050919050565b6000819050919050565b60005b838110156136f95780820151818401526020810190506136de565b83811115613708576000848401525b50505050565b6000600282049050600182168061372657607f821691505b6020821081141561373a576137396137e9565b5b50919050565b613749826138be565b810181811067ffffffffffffffff8211171561376857613767613876565b5b80604052505050565b600061377c826136d1565b91507fffffffffffffffffffffffffffffffffffffffffffffffffffffffffffffffff8214156137af576137ae6137ba565b5b600182019050919050565b7f4e487b7100000000000000000000000000000000000000000000000000000000600052601160045260246000fd5b7f4e487b7100000000000000000000000000000000000000000000000000000000600052602260045260246000fd5b7f4e487b7100000000000000000000000000000000000000000000000000000000600052603160045260246000fd5b7f4e487b7100000000000000000000000000000000000000000000000000000000600052603260045260246000fd5b7f4e487b7100000000000000000000000000000000000000000000000000000000600052604160045260246000fd5b600080fd5b600080fd5b600080fd5b600080fd5b600080fd5b6000601f19601f8301169050919050565b7f5768656e2073657474696e672074686520707265666572656e6365206c65766560008201527f6c206f6620636f75727365732c206974206973206e656365737361727920746f60208201527f206861766520616e20657175616c206e756d626572206f6620636f7572736573604082015250565b7f436f75727365206e6f7420666f756e6400000000000000000000000000000000600082015250565b7f6d7573742075706461746520616c6c20636f7572736520737569746162696c6960008201527f7479000000000000000000000000000000000000000000000000000000000000602082015250565b7f4f6e6c7920726567697374657265642074656163686572732063616e2063616c60008201527f6c20746869732066756e6374696f6e0000000000000000000000000000000000602082015250565b7f5768656e2073657474696e672074686520737569746162696c697479206c657660008201527f656c206f6620636f75727365732c206974206973206e6563657373617279207460208201527f6f206861766520616e20657175616c206e756d626572206f6620636f7572736560408201527f7300000000000000000000000000000000000000000000000000000000000000606082015250565b613aaf81613693565b8114613aba57600080fd5b50565b613ac6816136a5565b8114613ad157600080fd5b50565b613add816136d1565b8114613ae857600080fd5b5056fea2646970667358221220a77211ab3165c30d2da6698013dc951fb702035bceaac1afa813249e8fced5cc64736f6c63430008070033",
  "immutableReferences": {},
  "source": "// SPDX-License-Identifier: MIT\r\npragma solidity ^0.8.7;\r\n\r\ncontract CourseAllocation {\r\n    // 教师结构体\r\n    struct Teacher {\r\n        uint256 id;\r\n        string name;\r\n        address addr;\r\n        uint256[] assignedCourses;\r\n        uint256[] reallyAssignedCourses;\r\n        uint256 suitabilityWeight;\r\n        uint256 value;\r\n        mapping(uint256 => uint256) courseSuitabilities;\r\n        mapping(uint256 => uint256) coursePreferences;\r\n    }\r\n\r\n    // 智能体结构体\r\n    struct Agent {\r\n        uint256 id;\r\n        string name;\r\n        address addr;\r\n        uint256 value;\r\n        uint256[] assignedCourses;\r\n        mapping(uint256 => uint256) courseSuitabilities;\r\n    }\r\n\r\n    // 课程结构体\r\n    struct Course {\r\n        uint256 id;\r\n        string name;\r\n        uint256 importance;\r\n        uint256[] assignedTeacherId;\r\n        uint256[] assignedAgentId;\r\n        bool isAgentSuitable;\r\n    }\r\n\r\n    // 教师映射：地址 => 教师ID\r\n    mapping(address => uint256) public addressToTeacherId;\r\n\r\n    // 智能体映射：地址 => 智能体ID\r\n    mapping(address => uint256) public addressToAgentId;\r\n\r\n    // 班级映射：地址 => 班级ID\r\n    mapping(address => uint256) public addressToClassId;\r\n\r\n    // 教师映射：ID => 教师结构体\r\n    mapping(uint256 => Teacher) public teachers;\r\n\r\n    // 智能体映射：ID => 智能体结构体\r\n    mapping(uint256 => Agent) public agents;\r\n\r\n    // 课程映射：ID => 课程结构体\r\n    mapping(uint256 => Course) public courses;\r\n\r\n    // 教师ID计数器\r\n    uint256 public teacherCount;\r\n\r\n    // 智能体ID计数器\r\n    uint256 public agentCount;\r\n\r\n    // 班级ID计数器\r\n    uint256 public classCount;\r\n\r\n    // 课程ID计数器\r\n    uint256 public courseCount;\r\n\r\n    // 老师ID存储数组\r\n    uint256[] public teacherIds;\r\n\r\n    // 智能体ID存储数组\r\n    uint256[] public agentIds;\r\n\r\n    // 课程ID存储数组\r\n    uint256[] public courseIds;\r\n\r\n    // 班级ID存储数组\r\n    uint256[] public classIds;\r\n\r\n    // 事件\r\n    // event CourseImportanceSet(uint256 indexed courseId, uint256 importance);\r\n    // event SuitabilityUpdated(uint256 indexed courseId, uint256 suitability);\r\n    // event PreferenceUpdated(uint256 indexed teacherId, uint256 indexed courseId, uint256 preference);\r\n    // event ProposalCreated(uint256 proposalId, uint256 indexed courseId, uint256[] teacherIds); // 提案创建\r\n    // event MachineProposal(uint256 proposalId, uint256 indexed courseId, uint256[] teacherIds, uint256[] teacherCounts); // 提案创建\r\n    // event CourseAssignedToTeacher(uint256 indexed courseId, uint256 indexed teacherId); // 课程分配给老师\r\n\r\n    // 构造函数，初始化管理员\r\n    constructor() {}\r\n\r\n    // 修饰符：仅教师可访问\r\n    modifier onlyTeacher() {\r\n        require(\r\n            addressToTeacherId[msg.sender] != 0,\r\n            \"Only registered teachers can call this function\"\r\n        );\r\n        _;\r\n    }\r\n\r\n    // 设置教师ID\r\n    function setTeacherId(address teacherAddress, uint256 _TeacherId) public {\r\n        addressToTeacherId[teacherAddress] = _TeacherId;\r\n        teachers[_TeacherId].id = _TeacherId;\r\n        teacherIds.push(_TeacherId);\r\n    }\r\n\r\n    // 设置教师是否存在\r\n    function removeTeacher(uint256 teacherId) public onlyTeacher {\r\n        teachers[teacherId].id = 0;\r\n        // 从 teacherIds 数组中移除教师 ID\r\n        for (uint256 i = 0; i < teacherIds.length; i++) {\r\n            if (teacherIds[i] == teacherId) {\r\n                // 将要移除的教师 ID 位置的元素替换为数组中最后一个元素\r\n                teacherIds[i] = teacherIds[teacherIds.length - 1];\r\n                // 移除数组中的最后一个元素\r\n                teacherIds.pop();\r\n                break;\r\n            }\r\n        }\r\n    }\r\n\r\n    // 设置教师姓名\r\n    function setTeacherName(\r\n        uint256 teacherId,\r\n        string calldata _name\r\n    ) public onlyTeacher {\r\n        teachers[teacherId].name = _name;\r\n    }\r\n\r\n    // 设置教师地址\r\n    function setTeacherAddress(\r\n        uint256 teacherId,\r\n        address _teacherAddress\r\n    ) public onlyTeacher {\r\n        teachers[teacherId].addr = _teacherAddress;\r\n    }\r\n\r\n    // 设置教师已分配课程\r\n    function addTeacherAssignedCourses(\r\n        uint256 teacherId,\r\n        uint256 _assignedCourses\r\n    ) public {\r\n        teachers[teacherId].assignedCourses.push(_assignedCourses);\r\n    }\r\n\r\n    // 设置教师已分配课程\r\n    function addTeacherReallyAssignedCourses(\r\n        uint256 teacherId,\r\n        uint256 _assignedCourses\r\n    ) public {\r\n        teachers[teacherId].reallyAssignedCourses.push(_assignedCourses);\r\n    }\r\n\r\n    // 移除教师已分配课程\r\n    function removeTeacherAssignedCourses(\r\n        uint256 teacherId,\r\n        uint256 _assignedCourses\r\n    ) public {\r\n        bool found = false;\r\n        uint256 indexToRemove;\r\n\r\n        // 遍历数组，找到课程 ID 的位置\r\n        for (\r\n            uint256 i = 0;\r\n            i < teachers[teacherId].assignedCourses.length;\r\n            i++\r\n        ) {\r\n            if (teachers[teacherId].assignedCourses[i] == _assignedCourses) {\r\n                found = true;\r\n                indexToRemove = i;\r\n                break;\r\n            }\r\n        }\r\n\r\n        // 如果找到了课程 ID\r\n        if (found) {\r\n            // 将要移除的课程位置的元素替换为数组中最后一个元素\r\n            teachers[teacherId].assignedCourses[indexToRemove] = teachers[\r\n                teacherId\r\n            ].assignedCourses[teachers[teacherId].assignedCourses.length - 1];\r\n            // 移除数组中的最后一个元素\r\n            teachers[teacherId].assignedCourses.pop();\r\n        } else {\r\n            // 如果没有找到课程 ID，可以抛出一个错误或者进行其他处理\r\n            revert(\"Course not found\");\r\n        }\r\n    }\r\n\r\n    // 移除教师已分配课程\r\n    function removeTeacherReallyAssignedCourses(\r\n        uint256 teacherId,\r\n        uint256 _assignedCourses\r\n    ) public {\r\n        bool found = false;\r\n        uint256 indexToRemove;\r\n\r\n        // 遍历数组，找到课程 ID 的位置\r\n        for (\r\n            uint256 i = 0;\r\n            i < teachers[teacherId].reallyAssignedCourses.length;\r\n            i++\r\n        ) {\r\n            if (\r\n                teachers[teacherId].reallyAssignedCourses[i] == _assignedCourses\r\n            ) {\r\n                found = true;\r\n                indexToRemove = i;\r\n                break;\r\n            }\r\n        }\r\n\r\n        // 如果找到了课程 ID\r\n        if (found) {\r\n            // 将要移除的课程位置的元素替换为数组中最后一个元素\r\n            teachers[teacherId].reallyAssignedCourses[indexToRemove] = teachers[\r\n                teacherId\r\n            ].reallyAssignedCourses[\r\n                    teachers[teacherId].reallyAssignedCourses.length - 1\r\n                ];\r\n            // 移除数组中的最后一个元素\r\n            teachers[teacherId].reallyAssignedCourses.pop();\r\n        } else {\r\n            // 如果没有找到课程 ID，可以抛出一个错误或者进行其他处理\r\n            revert(\"Course not found\");\r\n        }\r\n    }\r\n\r\n    // 设置教师适合程度权重\r\n    function setTeacherSuitabilityWeight(\r\n        uint256 teacherId,\r\n        uint256 _suitabilityWeight\r\n    ) public onlyTeacher {\r\n        teachers[teacherId].suitabilityWeight = _suitabilityWeight;\r\n    }\r\n\r\n    // 设置教师工资\r\n    function setTeacherValue(\r\n        uint256 teacherId,\r\n        uint256 _value\r\n    ) public onlyTeacher {\r\n        teachers[teacherId].value = _value;\r\n    }\r\n\r\n    // 设置教师工资\r\n    function setAgentValue(uint256 agentId, uint256 _value) public {\r\n        agents[agentId].value = _value;\r\n    }\r\n\r\n    // 设置教师对所有课程的适合程度\r\n    function setAllTeacherCourseSuitability(\r\n        uint256 teacherId,\r\n        uint256[] calldata _suitabilities\r\n    ) public onlyTeacher {\r\n        require(\r\n            _suitabilities.length == courseIds.length,\r\n            \"When setting the suitability level of courses, it is necessary to have an equal number of courses\"\r\n        );\r\n        for (\r\n            uint256 courseIndex = 0;\r\n            courseIndex < courseIds.length;\r\n            courseIndex++\r\n        ) {\r\n            teachers[teacherId].courseSuitabilities[\r\n                courseIds[courseIndex]\r\n            ] = _suitabilities[courseIndex];\r\n        }\r\n    }\r\n\r\n    // 设置教师对课程的适合程度\r\n    function setTeacherCourseSuitability(\r\n        uint256 teacherId,\r\n        uint256 courseId,\r\n        uint256 _suitability\r\n    ) public {\r\n        teachers[teacherId].courseSuitabilities[courseId] = _suitability;\r\n    }\r\n\r\n    // 设置教师对所有课程的偏好程度\r\n    function setAllTeacherCoursePreferences(\r\n        uint256 teacherId,\r\n        uint256[] calldata _preferences\r\n    ) public onlyTeacher {\r\n        require(\r\n            _preferences.length == courseIds.length,\r\n            \"When setting the preference level of courses, it is necessary to have an equal number of courses\"\r\n        );\r\n        for (\r\n            uint256 courseIndex = 0;\r\n            courseIndex < courseIds.length;\r\n            courseIndex++\r\n        ) {\r\n            teachers[teacherId].coursePreferences[\r\n                courseIds[courseIndex]\r\n            ] = _preferences[courseIndex];\r\n        }\r\n    }\r\n\r\n    // 设置教师对课程的偏好程度\r\n    function setTeacherCoursePreferences(\r\n        uint256 teacherId,\r\n        uint256 courseId,\r\n        uint256 _preference\r\n    ) public onlyTeacher {\r\n        teachers[teacherId].coursePreferences[courseId] = _preference;\r\n    }\r\n\r\n    // 设置智能体ID\r\n    function setAgentId(address agentAddress, uint256 _agentId) public {\r\n        addressToAgentId[agentAddress] = _agentId;\r\n        agents[_agentId].id = _agentId;\r\n        agentIds.push(_agentId);\r\n    }\r\n\r\n    // 移除智能体\r\n    function removeAgent(uint256 agentId) public {\r\n        agents[agentId].id = 0;\r\n        // 从 agentIds 数组中移除智能体 ID\r\n        for (uint256 i = 0; i < agentIds.length; i++) {\r\n            if (agentIds[i] == agentId) {\r\n                // 将要移除的智能体 ID 位置的元素替换为数组中最后一个元素\r\n                agentIds[i] = agentIds[agentIds.length - 1];\r\n                // 移除数组中的最后一个元素\r\n                agentIds.pop();\r\n                break;\r\n            }\r\n        }\r\n    }\r\n\r\n    // 设置智能体姓名\r\n    function setAgentName(uint256 agentId, string calldata _name) public {\r\n        agents[agentId].name = _name;\r\n    }\r\n\r\n    // 设置智能体地址\r\n    function setAgentAddress(uint256 agentId, address _agentAddress) public {\r\n        agents[agentId].addr = _agentAddress;\r\n    }\r\n\r\n    // 添加智能体已分配课程\r\n    function addAgentAssignedCourses(\r\n        uint256 agentId,\r\n        uint256 _assignedCourses\r\n    ) public {\r\n        agents[agentId].assignedCourses.push(_assignedCourses);\r\n    }\r\n\r\n    // 移除智能体已分配课程\r\n    function removeAgentAssignedCourses(\r\n        uint256 agentId,\r\n        uint256 _assignedCourses\r\n    ) public {\r\n        bool found = false;\r\n        uint256 indexToRemove;\r\n\r\n        // 遍历数组，找到课程 ID 的位置\r\n        for (uint256 i = 0; i < agents[agentId].assignedCourses.length; i++) {\r\n            if (agents[agentId].assignedCourses[i] == _assignedCourses) {\r\n                found = true;\r\n                indexToRemove = i;\r\n                break;\r\n            }\r\n        }\r\n\r\n        // 如果找到了课程 ID\r\n        if (found) {\r\n            // 将要移除的课程位置的元素替换为数组中最后一个元素\r\n            agents[agentId].assignedCourses[indexToRemove] = agents[agentId]\r\n                .assignedCourses[agents[agentId].assignedCourses.length - 1];\r\n            // 移除数组中的最后一个元素\r\n            agents[agentId].assignedCourses.pop();\r\n        } else {\r\n            // 如果没有找到课程 ID，可以抛出一个错误或者进行其他处理\r\n            revert(\"Course not found\");\r\n        }\r\n    }\r\n\r\n    // 设置智能体对课程的适合程度\r\n    function setAgentCourseSuitability(\r\n        uint256 agentId,\r\n        uint256 _courseId,\r\n        uint256 _suitability\r\n    ) public {\r\n        agents[agentId].courseSuitabilities[_courseId] = _suitability;\r\n    }\r\n\r\n    // 设置智能体对课程的适合程度\r\n    function setAllAgentCourseSuitability(\r\n        uint256 agentId,\r\n        uint256[] calldata _suitabilities\r\n    ) public {\r\n        require(\r\n            _suitabilities.length == courseIds.length,\r\n            \"When setting the suitability level of courses, it is necessary to have an equal number of courses\"\r\n        );\r\n        for (\r\n            uint256 courseIndex = 0;\r\n            courseIndex < courseIds.length;\r\n            courseIndex++\r\n        ) {\r\n            agents[agentId].courseSuitabilities[\r\n                courseIds[courseIndex]\r\n            ] = _suitabilities[courseIndex];\r\n        }\r\n    }\r\n\r\n    // 设置班级ID\r\n    function setClassId(address classAddress, uint256 _id) public {\r\n        addressToClassId[classAddress] = _id;\r\n        classIds.push(_id);\r\n    }\r\n\r\n    // 移除班级\r\n    function removeClass(uint256 classId) public {\r\n        // 从 classIds 数组中移除智能体 ID\r\n        for (uint256 i = 0; i < classIds.length; i++) {\r\n            if (classIds[i] == classId) {\r\n                // 将要移除的班级 ID 位置的元素替换为数组中最后一个元素\r\n                classIds[i] = classIds[classIds.length - 1];\r\n                // 移除数组中的最后一个元素\r\n                classIds.pop();\r\n                break;\r\n            }\r\n        }\r\n    }\r\n\r\n    // 设置课程ID\r\n    function setCourseId(uint256 courseId) public {\r\n        courses[courseId].id = courseId;\r\n        courseIds.push(courseId);\r\n    }\r\n\r\n    // 移除课程\r\n    function removeCourse(uint256 courseId) public {\r\n        // 从 classIds 数组中移除智能体 ID\r\n        for (uint256 i = 0; i < courseIds.length; i++) {\r\n            if (courseIds[i] == courseId) {\r\n                // 将要移除的班级 ID 位置的元素替换为数组中最后一个元素\r\n                courseIds[i] = courseIds[courseIds.length - 1];\r\n                // 移除数组中的最后一个元素\r\n                courseIds.pop();\r\n                break;\r\n            }\r\n        }\r\n    }\r\n\r\n    // 设置课程名称\r\n    function setCourseName(uint256 courseId, string calldata _name) public {\r\n        courses[courseId].name = _name;\r\n    }\r\n\r\n    // 设置课程重要性\r\n    function setCourseImportance(uint256 courseId, uint256 _importance) public {\r\n        courses[courseId].importance = _importance;\r\n    }\r\n\r\n    // 管理员设置课程重要程度\r\n    function setAllCourseImportance(uint256[] memory _importances) public {\r\n        require(\r\n            _importances.length == courseIds.length,\r\n            \"must update all course suitability\"\r\n        );\r\n        // 更新课程适合度\r\n        for (\r\n            uint256 courseIndex = 0;\r\n            courseIndex < courseIds.length;\r\n            courseIndex++\r\n        ) {\r\n            courses[courseIds[courseIndex]].importance = _importances[\r\n                courseIndex\r\n            ];\r\n        }\r\n    }\r\n\r\n    // 添加课程分配的教师ID\r\n    function addCourseAssignedTeacherId(\r\n        uint256 courseId,\r\n        uint256 _teacherId\r\n    ) public {\r\n        courses[courseId].assignedTeacherId.push(_teacherId);\r\n    }\r\n\r\n    // 添加课程分配的智能体ID\r\n    function addCourseAssignedAgentId(\r\n        uint256 courseId,\r\n        uint256 _agentId\r\n    ) public {\r\n        courses[courseId].assignedAgentId.push(_agentId);\r\n    }\r\n\r\n    // 移除课程已分配的老师\r\n    function removeCourseAssignedTeacherId(\r\n        uint256 courseId,\r\n        uint256 _teacherId\r\n    ) public {\r\n        bool found = false;\r\n        uint256 indexToRemove;\r\n\r\n        // 遍历数组，找到课程 ID 的位置\r\n        for (\r\n            uint256 i = 0;\r\n            i < courses[courseId].assignedTeacherId.length;\r\n            i++\r\n        ) {\r\n            if (courses[courseId].assignedTeacherId[i] == _teacherId) {\r\n                found = true;\r\n                indexToRemove = i;\r\n                break;\r\n            }\r\n        }\r\n\r\n        // 如果找到了课程 ID\r\n        if (found) {\r\n            // 将要移除的课程位置的元素替换为数组中最后一个元素\r\n            courses[courseId].assignedTeacherId[indexToRemove] = courses[\r\n                courseId\r\n            ].assignedTeacherId[courses[courseId].assignedTeacherId.length - 1];\r\n            // 移除数组中的最后一个元素\r\n            courses[courseId].assignedTeacherId.pop();\r\n        } else {\r\n            // 如果没有找到课程 ID，可以抛出一个错误或者进行其他处理\r\n            revert(\"Course not found\");\r\n        }\r\n    }\r\n\r\n    // 移除课程已分配的智能体\r\n    function removeCourseAssignedAgentId(\r\n        uint256 courseId,\r\n        uint256 _agentId\r\n    ) public {\r\n        bool found = false;\r\n        uint256 indexToRemove;\r\n\r\n        // 遍历数组，找到课程 ID 的位置\r\n        for (uint256 i = 0; i < courses[courseId].assignedAgentId.length; i++) {\r\n            if (courses[courseId].assignedAgentId[i] == _agentId) {\r\n                found = true;\r\n                indexToRemove = i;\r\n                break;\r\n            }\r\n        }\r\n\r\n        // 如果找到了课程 ID\r\n        if (found) {\r\n            // 将要移除的课程位置的元素替换为数组中最后一个元素\r\n            courses[courseId].assignedAgentId[indexToRemove] = courses[courseId]\r\n                .assignedAgentId[courses[courseId].assignedAgentId.length - 1];\r\n            // 移除数组中的最后一个元素\r\n            courses[courseId].assignedAgentId.pop();\r\n        } else {\r\n            // 如果没有找到课程 ID，可以抛出一个错误或者进行其他处理\r\n            revert(\"Course not found\");\r\n        }\r\n    }\r\n\r\n    // 设置课程是否适合智能体\r\n    function setCourseIsAgentSuitable(\r\n        uint256 courseId,\r\n        bool _isAgentSuitable\r\n    ) public {\r\n        courses[courseId].isAgentSuitable = _isAgentSuitable;\r\n    }\r\n\r\n    // 设置教师计数器\r\n    function setTeacherCount(uint256 _teacherCount) public {\r\n        teacherCount = _teacherCount;\r\n    }\r\n\r\n    // 设置智能体计数器\r\n    function setAgentCount(uint256 _agentCount) public {\r\n        agentCount = _agentCount;\r\n    }\r\n\r\n    // 设置班级计数器\r\n    function setClassCount(uint256 _classCount) public {\r\n        classCount = _classCount;\r\n    }\r\n\r\n    // 设置课程计数器\r\n    function setCourseCount(uint256 _courseCount) public {\r\n        courseCount = _courseCount;\r\n    }\r\n\r\n    // 获取教师对课程的适合程度\r\n    function getTeacherSuitability(\r\n        uint256 _teacherId,\r\n        uint256 courseId\r\n    ) public view returns (uint256) {\r\n        return teachers[_teacherId].courseSuitabilities[courseId];\r\n    }\r\n\r\n    // 获取智能体对课程的适合程度\r\n    function getAgentSuitability(\r\n        uint256 _agentId,\r\n        uint256 courseId\r\n    ) public view returns (uint256) {\r\n        return agents[_agentId].courseSuitabilities[courseId];\r\n    }\r\n\r\n    // 获取教师对课程的偏好程度\r\n    function getPreference(\r\n        uint256 _teacherId,\r\n        uint256 courseId\r\n    ) public view returns (uint256) {\r\n        return teachers[_teacherId].coursePreferences[courseId];\r\n    }\r\n\r\n    // 获取老师分配的课程\r\n    function getTeacherAssignedCourses(\r\n        uint256 _teacherId\r\n    ) public view returns (uint256[] memory) {\r\n        return teachers[_teacherId].assignedCourses;\r\n    }\r\n\r\n    // 获取老师真正分配的课程\r\n    function getTeacherReallyAssignedCourses(\r\n        uint256 _teacherId\r\n    ) public view returns (uint256[] memory) {\r\n        return teachers[_teacherId].reallyAssignedCourses;\r\n    }\r\n\r\n    // 获取智能体分配的课程\r\n    function getAgentAssignedCourses(\r\n        uint256 _agentId\r\n    ) public view returns (uint256[] memory) {\r\n        return agents[_agentId].assignedCourses;\r\n    }\r\n\r\n    // 获取课程被分配给的老师\r\n    function getCoursesAssignedTeacher(\r\n        uint256 _courseId\r\n    ) public view returns (uint256[] memory) {\r\n        return courses[_courseId].assignedTeacherId;\r\n    }\r\n\r\n    // 获取课程被分配给的智能体\r\n    function getCoursesAssignedAgent(\r\n        uint256 _courseId\r\n    ) public view returns (uint256[] memory) {\r\n        return courses[_courseId].assignedAgentId;\r\n    }\r\n\r\n    function getTeacherIds() public view returns (uint256[] memory) {\r\n        return teacherIds;\r\n    }\r\n\r\n    function getAgentIds() public view returns (uint256[] memory) {\r\n        return agentIds;\r\n    }\r\n\r\n    function getCourseIds() public view returns (uint256[] memory) {\r\n        return courseIds;\r\n    }\r\n\r\n    function getClassIds() public view returns (uint256[] memory) {\r\n        return classIds;\r\n    }\r\n\r\n    function setCourseProperties(\r\n        uint256 courseId,\r\n        uint256 importance,\r\n        bool isAgentSuitable\r\n    ) public {\r\n        courses[courseId].importance = importance;\r\n        courses[courseId].isAgentSuitable = isAgentSuitable;\r\n    }\r\n\r\n    function getCourseCount() public view returns (uint256) {\r\n        return courseCount;\r\n    }\r\n}\r\n",
  "sourcePath": "E:\\dao\\327\\Course-allocation\\project\\contracts\\CourseAllocation.sol",
  "compiler": {
    "name": "solc",
    "version": "0.8.7+commit.e28d00a7.Emscripten.clang"
  },
  "schemaVersion": "3.4.16",
  "updatedAt": "2025-04-04T09:21:20.556Z",
  "networkType": "ethereum",
  "devdoc": {
    "kind": "dev",
    "methods": {},
    "version": 1
  },
  "userdoc": {
    "kind": "user",
    "methods": {},
    "version": 1
  }
}