{
  "contractName": "CourseVoting",
  "abi": [
    {
      "inputs": [
        {
          "internalType": "address",
          "name": "_courseAllocationAddress",
          "type": "address"
        }
      ],
      "stateMutability": "nonpayable",
      "type": "constructor"
    },
    {
      "anonymous": false,
      "inputs": [
        {
          "indexed": false,
          "internalType": "uint256",
          "name": "proposalId",
          "type": "uint256"
        },
        {
          "indexed": false,
          "internalType": "uint256",
          "name": "courseId",
          "type": "uint256"
        },
        {
          "indexed": false,
          "internalType": "string",
          "name": "courseName",
          "type": "string"
        }
      ],
      "name": "ProposalCreated",
      "type": "event"
    },
    {
      "anonymous": false,
      "inputs": [
        {
          "indexed": false,
          "internalType": "uint256",
          "name": "proposalId",
          "type": "uint256"
        },
        {
          "indexed": false,
          "internalType": "uint256",
          "name": "averageScore",
          "type": "uint256"
        },
        {
          "indexed": false,
          "internalType": "bool",
          "name": "suitable",
          "type": "bool"
        }
      ],
      "name": "ProposalFinalized",
      "type": "event"
    },
    {
      "anonymous": false,
      "inputs": [
        {
          "indexed": false,
          "internalType": "uint256",
          "name": "proposalId",
          "type": "uint256"
        },
        {
          "indexed": false,
          "internalType": "address",
          "name": "teacher",
          "type": "address"
        },
        {
          "indexed": false,
          "internalType": "uint256",
          "name": "score",
          "type": "uint256"
        },
        {
          "indexed": false,
          "internalType": "bool",
          "name": "suitable",
          "type": "bool"
        }
      ],
      "name": "VoteCast",
      "type": "event"
    },
    {
      "inputs": [],
      "name": "courseAllocation",
      "outputs": [
        {
          "internalType": "contract ICourseAllocation",
          "name": "",
          "type": "address"
        }
      ],
      "stateMutability": "view",
      "type": "function"
    },
    {
      "inputs": [],
      "name": "owner",
      "outputs": [
        {
          "internalType": "address",
          "name": "",
          "type": "address"
        }
      ],
      "stateMutability": "view",
      "type": "function"
    },
    {
      "inputs": [],
      "name": "proposalCount",
      "outputs": [
        {
          "internalType": "uint256",
          "name": "",
          "type": "uint256"
        }
      ],
      "stateMutability": "view",
      "type": "function"
    },
    {
      "inputs": [
        {
          "internalType": "uint256",
          "name": "",
          "type": "uint256"
        }
      ],
      "name": "proposals",
      "outputs": [
        {
          "internalType": "uint256",
          "name": "courseId",
          "type": "uint256"
        },
        {
          "internalType": "string",
          "name": "courseName",
          "type": "string"
        },
        {
          "internalType": "uint256",
          "name": "totalScore",
          "type": "uint256"
        },
        {
          "internalType": "uint256",
          "name": "voteCount",
          "type": "uint256"
        },
        {
          "internalType": "uint256",
          "name": "agreeCount",
          "type": "uint256"
        },
        {
          "internalType": "uint256",
          "name": "disagreeCount",
          "type": "uint256"
        },
        {
          "internalType": "bool",
          "name": "finalized",
          "type": "bool"
        }
      ],
      "stateMutability": "view",
      "type": "function"
    },
    {
      "inputs": [
        {
          "internalType": "uint256",
          "name": "_courseId",
          "type": "uint256"
        },
        {
          "internalType": "string",
          "name": "_courseName",
          "type": "string"
        }
      ],
      "name": "createProposal",
      "outputs": [
        {
          "internalType": "uint256",
          "name": "",
          "type": "uint256"
        }
      ],
      "stateMutability": "nonpayable",
      "type": "function"
    },
    {
      "inputs": [
        {
          "internalType": "uint256",
          "name": "_proposalId",
          "type": "uint256"
        },
        {
          "internalType": "uint256",
          "name": "_score",
          "type": "uint256"
        },
        {
          "internalType": "bool",
          "name": "_suitable",
          "type": "bool"
        }
      ],
      "name": "vote",
      "outputs": [],
      "stateMutability": "nonpayable",
      "type": "function"
    },
    {
      "inputs": [
        {
          "internalType": "uint256",
          "name": "_proposalId",
          "type": "uint256"
        }
      ],
      "name": "finalizeProposal",
      "outputs": [],
      "stateMutability": "nonpayable",
      "type": "function"
    },
    {
      "inputs": [
        {
          "internalType": "uint256",
          "name": "_proposalId",
          "type": "uint256"
        }
      ],
      "name": "getProposalResults",
      "outputs": [
        {
          "internalType": "uint256",
          "name": "averageScore",
          "type": "uint256"
        },
        {
          "internalType": "bool",
          "name": "suitable",
          "type": "bool"
        }
      ],
      "stateMutability": "view",
      "type": "function"
    }
  ],
  "bytecode": "0x60806040523480156200001157600080fd5b506040516200172e3803806200172e8339818101604052810190620000379190620000d6565b336000806101000a81548173ffffffffffffffffffffffffffffffffffffffff021916908373ffffffffffffffffffffffffffffffffffffffff16021790555080600160006101000a81548173ffffffffffffffffffffffffffffffffffffffff021916908373ffffffffffffffffffffffffffffffffffffffff160217905550506200015b565b600081519050620000d08162000141565b92915050565b600060208284031215620000ef57620000ee6200013c565b5b6000620000ff84828501620000bf565b91505092915050565b600062000115826200011c565b9050919050565b600073ffffffffffffffffffffffffffffffffffffffff82169050919050565b600080fd5b6200014c8162000108565b81146200015857600080fd5b50565b6115c3806200016b6000396000f3fe608060405234801561001057600080fd5b50600436106100885760003560e01c80635bdcd0081161005b5780635bdcd0081461012d5780636a18ff7a1461015e5780638da5cb5b1461017a578063da35c6641461019857610088565b8063013cf08b1461008d57806302d52fa4146100c357806345f50996146100f35780635652077c14610111575b600080fd5b6100a760048036038101906100a29190610b91565b6101b6565b6040516100ba9796959493929190610fe6565b60405180910390f35b6100dd60048036038101906100d89190610beb565b61028d565b6040516100ea9190610f5d565b60405180910390f35b6100fb6103ba565b6040516101089190610e42565b60405180910390f35b61012b60048036038101906101269190610b91565b6103e0565b005b61014760048036038101906101429190610b91565b610638565b604051610155929190610fbd565b60405180910390f35b61017860048036038101906101739190610c47565b6106cc565b005b610182610a15565b60405161018f9190610e27565b60405180910390f35b6101a0610a39565b6040516101ad9190610f5d565b60405180910390f35b60026020528060005260406000206000915090508060000154908060010180546101df9061128a565b80601f016020809104026020016040519081016040528092919081815260200182805461020b9061128a565b80156102585780601f1061022d57610100808354040283529160200191610258565b820191906000526020600020905b81548152906001019060200180831161023b57829003601f168201915b5050505050908060020154908060030154908060040154908060050154908060060160009054906101000a900460ff16905087565b60008060009054906101000a900473ffffffffffffffffffffffffffffffffffffffff1673ffffffffffffffffffffffffffffffffffffffff163373ffffffffffffffffffffffffffffffffffffffff161461031e576040517f08c379a000000000000000000000000000000000000000000000000000000000815260040161031590610f3d565b60405180910390fd5b60036000815480929190610331906112ed565b91905055506000600260006003548152602001908152602001600020905083816000018190555082816001019080519060200190610370929190610a3f565b507f7aade497c2cd4241d757f694370d0e4a250bfa251b3ab287406b2ab58d3fdad660035485856040516103a693929190611093565b60405180910390a160035491505092915050565b600160009054906101000a900473ffffffffffffffffffffffffffffffffffffffff1681565b60008054906101000a900473ffffffffffffffffffffffffffffffffffffffff1673ffffffffffffffffffffffffffffffffffffffff163373ffffffffffffffffffffffffffffffffffffffff161461046e576040517f08c379a000000000000000000000000000000000000000000000000000000000815260040161046590610f3d565b60405180910390fd5b60006002600083815260200190815260200160002090508060060160009054906101000a900460ff16156104d7576040517f08c379a00000000000000000000000000000000000000000000000000000000081526004016104ce90610f1d565b60405180910390fd5b600081600301541161051e576040517f08c379a000000000000000000000000000000000000000000000000000000000815260040161051590610e7d565b60405180910390fd5b60018160060160006101000a81548160ff0219169083151502179055506000816003015482600201546105519190611199565b9050600082600501548360040154119050600160009054906101000a900473ffffffffffffffffffffffffffffffffffffffff1673ffffffffffffffffffffffffffffffffffffffff16630dbd6b90846000015484846040518463ffffffff1660e01b81526004016105c59392919061105c565b600060405180830381600087803b1580156105df57600080fd5b505af11580156105f3573d6000803e3d6000fd5b505050507fb1a545a19aebaf09784addd3ddfe6d1b2581c20c6b7563acafc2cccb455e2d5f84838360405161062a9392919061105c565b60405180910390a150505050565b60008060006002600085815260200190815260200160002090508060060160009054906101000a900460ff166106a3576040517f08c379a000000000000000000000000000000000000000000000000000000000815260040161069a90610efd565b60405180910390fd5b806003015481600201546106b79190611199565b92508060050154816004015411915050915091565b6000600160009054906101000a900473ffffffffffffffffffffffffffffffffffffffff1673ffffffffffffffffffffffffffffffffffffffff16630f7f13cf336040518263ffffffff1660e01b81526004016107299190610e27565b60206040518083038186803b15801561074157600080fd5b505afa158015610755573d6000803e3d6000fd5b505050506040513d601f19601f820116820180604052508101906107799190610bbe565b14156107ba576040517f08c379a00000000000000000000000000000000000000000000000000000000081526004016107b190610ebd565b60405180910390fd5b60006002600085815260200190815260200160002090508060060160009054906101000a900460ff1615610823576040517f08c379a000000000000000000000000000000000000000000000000000000000815260040161081a90610edd565b60405180910390fd5b8060070160003373ffffffffffffffffffffffffffffffffffffffff1673ffffffffffffffffffffffffffffffffffffffff16815260200190815260200160002060009054906101000a900460ff16156108b2576040517f08c379a00000000000000000000000000000000000000000000000000000000081526004016108a990610e9d565b60405180910390fd5b600183101580156108c45750600a8311155b610903576040517f08c379a00000000000000000000000000000000000000000000000000000000081526004016108fa90610e5d565b60405180910390fd5b60018160070160003373ffffffffffffffffffffffffffffffffffffffff1673ffffffffffffffffffffffffffffffffffffffff16815260200190815260200160002060006101000a81548160ff021916908315150217905550828160020160008282546109719190611143565b9250508190555080600301600081548092919061098d906112ed565b919050555081156109b7578060040160008154809291906109ad906112ed565b91905055506109d2565b8060050160008154809291906109cc906112ed565b91905055505b7fb898e75d5aac8de2f407e4a683c8d909e832d1e371e3bff0fa3ed934e88d956284338585604051610a079493929190610f78565b60405180910390a150505050565b60008054906101000a900473ffffffffffffffffffffffffffffffffffffffff1681565b60035481565b828054610a4b9061128a565b90600052602060002090601f016020900481019282610a6d5760008555610ab4565b82601f10610a8657805160ff1916838001178555610ab4565b82800160010185558215610ab4579182015b82811115610ab3578251825591602001919060010190610a98565b5b509050610ac19190610ac5565b5090565b5b80821115610ade576000816000905550600101610ac6565b5090565b6000610af5610af0846110f6565b6110d1565b905082815260208101848484011115610b1157610b106113f7565b5b610b1c848285611248565b509392505050565b600081359050610b338161155f565b92915050565b600082601f830112610b4e57610b4d6113f2565b5b8135610b5e848260208601610ae2565b91505092915050565b600081359050610b7681611576565b92915050565b600081519050610b8b81611576565b92915050565b600060208284031215610ba757610ba6611401565b5b6000610bb584828501610b67565b91505092915050565b600060208284031215610bd457610bd3611401565b5b6000610be284828501610b7c565b91505092915050565b60008060408385031215610c0257610c01611401565b5b6000610c1085828601610b67565b925050602083013567ffffffffffffffff811115610c3157610c306113fc565b5b610c3d85828601610b39565b9150509250929050565b600080600060608486031215610c6057610c5f611401565b5b6000610c6e86828701610b67565b9350506020610c7f86828701610b67565b9250506040610c9086828701610b24565b9150509250925092565b610ca3816111ca565b82525050565b610cb2816111dc565b82525050565b610cc181611212565b82525050565b6000610cd282611127565b610cdc8185611132565b9350610cec818560208601611257565b610cf581611406565b840191505092915050565b6000610d0d600d83611132565b9150610d1882611417565b602082019050919050565b6000610d30600d83611132565b9150610d3b82611440565b602082019050919050565b6000610d53600d83611132565b9150610d5e82611469565b602082019050919050565b6000610d76601583611132565b9150610d8182611492565b602082019050919050565b6000610d99601a83611132565b9150610da4826114bb565b602082019050919050565b6000610dbc601183611132565b9150610dc7826114e4565b602082019050919050565b6000610ddf601183611132565b9150610dea8261150d565b602082019050919050565b6000610e02600e83611132565b9150610e0d82611536565b602082019050919050565b610e2181611208565b82525050565b6000602082019050610e3c6000830184610c9a565b92915050565b6000602082019050610e576000830184610cb8565b92915050565b60006020820190508181036000830152610e7681610d00565b9050919050565b60006020820190508181036000830152610e9681610d23565b9050919050565b60006020820190508181036000830152610eb681610d46565b9050919050565b60006020820190508181036000830152610ed681610d69565b9050919050565b60006020820190508181036000830152610ef681610d8c565b9050919050565b60006020820190508181036000830152610f1681610daf565b9050919050565b60006020820190508181036000830152610f3681610dd2565b9050919050565b60006020820190508181036000830152610f5681610df5565b9050919050565b6000602082019050610f726000830184610e18565b92915050565b6000608082019050610f8d6000830187610e18565b610f9a6020830186610c9a565b610fa76040830185610e18565b610fb46060830184610ca9565b95945050505050565b6000604082019050610fd26000830185610e18565b610fdf6020830184610ca9565b9392505050565b600060e082019050610ffb600083018a610e18565b818103602083015261100d8189610cc7565b905061101c6040830188610e18565b6110296060830187610e18565b6110366080830186610e18565b61104360a0830185610e18565b61105060c0830184610ca9565b98975050505050505050565b60006060820190506110716000830186610e18565b61107e6020830185610e18565b61108b6040830184610ca9565b949350505050565b60006060820190506110a86000830186610e18565b6110b56020830185610e18565b81810360408301526110c78184610cc7565b9050949350505050565b60006110db6110ec565b90506110e782826112bc565b919050565b6000604051905090565b600067ffffffffffffffff821115611111576111106113c3565b5b61111a82611406565b9050602081019050919050565b600081519050919050565b600082825260208201905092915050565b600061114e82611208565b915061115983611208565b9250827fffffffffffffffffffffffffffffffffffffffffffffffffffffffffffffffff0382111561118e5761118d611336565b5b828201905092915050565b60006111a482611208565b91506111af83611208565b9250826111bf576111be611365565b5b828204905092915050565b60006111d5826111e8565b9050919050565b60008115159050919050565b600073ffffffffffffffffffffffffffffffffffffffff82169050919050565b6000819050919050565b600061121d82611224565b9050919050565b600061122f82611236565b9050919050565b6000611241826111e8565b9050919050565b82818337600083830152505050565b60005b8381101561127557808201518184015260208101905061125a565b83811115611284576000848401525b50505050565b600060028204905060018216806112a257607f821691505b602082108114156112b6576112b5611394565b5b50919050565b6112c582611406565b810181811067ffffffffffffffff821117156112e4576112e36113c3565b5b80604052505050565b60006112f882611208565b91507fffffffffffffffffffffffffffffffffffffffffffffffffffffffffffffffff82141561132b5761132a611336565b5b600182019050919050565b7f4e487b7100000000000000000000000000000000000000000000000000000000600052601160045260246000fd5b7f4e487b7100000000000000000000000000000000000000000000000000000000600052601260045260246000fd5b7f4e487b7100000000000000000000000000000000000000000000000000000000600052602260045260246000fd5b7f4e487b7100000000000000000000000000000000000000000000000000000000600052604160045260246000fd5b600080fd5b600080fd5b600080fd5b600080fd5b6000601f19601f8301169050919050565b7f496e76616c69642073636f726500000000000000000000000000000000000000600082015250565b7f4e6f20766f746573206361737400000000000000000000000000000000000000600082015250565b7f416c726561647920766f74656400000000000000000000000000000000000000600082015250565b7f4f6e6c7920746561636865727320616c6c6f7765640000000000000000000000600082015250565b7f50726f706f73616c20616c72656164792066696e616c697a6564000000000000600082015250565b7f4e6f742066696e616c697a656420796574000000000000000000000000000000600082015250565b7f416c72656164792066696e616c697a6564000000000000000000000000000000600082015250565b7f4e6f7420617574686f72697a6564000000000000000000000000000000000000600082015250565b611568816111dc565b811461157357600080fd5b50565b61157f81611208565b811461158a57600080fd5b5056fea2646970667358221220d24c279d0ee80e40e1c42b96c06820e042710bc8de1079da61d4468e150382d764736f6c63430008070033",
  "immutableReferences": {},
  "source": "// SPDX-License-Identifier: MIT\r\npragma solidity ^0.8.0;\r\n\r\ninterface ICourseAllocation {\r\n    function addressToTeacherId(\r\n        address teacher\r\n    ) external view returns (uint256);\r\n\r\n    function setCourseProperties(\r\n        uint256 courseId,\r\n        uint256 importance,\r\n        bool suitable\r\n    ) external;\r\n}\r\n\r\ncontract CourseVoting {\r\n    struct Proposal {\r\n        uint256 courseId;\r\n        string courseName;\r\n        uint256 totalScore;\r\n        uint256 voteCount;\r\n        uint256 agreeCount;\r\n        uint256 disagreeCount;\r\n        bool finalized;\r\n        mapping(address => bool) hasVoted;\r\n    }\r\n\r\n    address public owner;\r\n    ICourseAllocation public courseAllocation;\r\n\r\n    mapping(uint256 => Proposal) public proposals;\r\n    uint256 public proposalCount;\r\n\r\n    event ProposalCreated(\r\n        uint256 proposalId,\r\n        uint256 courseId,\r\n        string courseName\r\n    );\r\n    event VoteCast(\r\n        uint256 proposalId,\r\n        address teacher,\r\n        uint256 score,\r\n        bool suitable\r\n    );\r\n    event ProposalFinalized(\r\n        uint256 proposalId,\r\n        uint256 averageScore,\r\n        bool suitable\r\n    );\r\n\r\n    modifier onlyTeacher() {\r\n        require(\r\n            courseAllocation.addressToTeacherId(msg.sender) != 0,\r\n            \"Only teachers allowed\"\r\n        );\r\n        _;\r\n    }\r\n\r\n    modifier onlyOwner() {\r\n        require(msg.sender == owner, \"Not authorized\");\r\n        _;\r\n    }\r\n\r\n    constructor(address _courseAllocationAddress) {\r\n        owner = msg.sender;\r\n        courseAllocation = ICourseAllocation(_courseAllocationAddress);\r\n    }\r\n\r\n    function createProposal(\r\n        uint256 _courseId,\r\n        string memory _courseName\r\n    ) public onlyOwner returns (uint256) {\r\n        proposalCount++;\r\n        Proposal storage proposal = proposals[proposalCount];\r\n        proposal.courseId = _courseId;\r\n        proposal.courseName = _courseName;\r\n        emit ProposalCreated(proposalCount, _courseId, _courseName);\r\n        return proposalCount;\r\n    }\r\n\r\n    function vote(\r\n        uint256 _proposalId,\r\n        uint256 _score,\r\n        bool _suitable\r\n    ) public onlyTeacher {\r\n        Proposal storage proposal = proposals[_proposalId];\r\n        require(!proposal.finalized, \"Proposal already finalized\");\r\n        require(!proposal.hasVoted[msg.sender], \"Already voted\");\r\n        require(_score >= 1 && _score <= 10, \"Invalid score\");\r\n\r\n        proposal.hasVoted[msg.sender] = true;\r\n        proposal.totalScore += _score;\r\n        proposal.voteCount++;\r\n\r\n        if (_suitable) {\r\n            proposal.agreeCount++;\r\n        } else {\r\n            proposal.disagreeCount++;\r\n        }\r\n\r\n        emit VoteCast(_proposalId, msg.sender, _score, _suitable);\r\n    }\r\n\r\n    function finalizeProposal(uint256 _proposalId) public onlyOwner {\r\n        Proposal storage proposal = proposals[_proposalId];\r\n        require(!proposal.finalized, \"Already finalized\");\r\n        require(proposal.voteCount > 0, \"No votes cast\");\r\n\r\n        proposal.finalized = true;\r\n        uint256 averageScore = proposal.totalScore / proposal.voteCount;\r\n        bool suitable = proposal.agreeCount > proposal.disagreeCount;\r\n\r\n        courseAllocation.setCourseProperties(\r\n            proposal.courseId,\r\n            averageScore,\r\n            suitable\r\n        );\r\n\r\n        emit ProposalFinalized(_proposalId, averageScore, suitable);\r\n    }\r\n\r\n    function getProposalResults(\r\n        uint256 _proposalId\r\n    ) public view returns (uint256 averageScore, bool suitable) {\r\n        Proposal storage proposal = proposals[_proposalId];\r\n        require(proposal.finalized, \"Not finalized yet\");\r\n        averageScore = proposal.totalScore / proposal.voteCount;\r\n        suitable = proposal.agreeCount > proposal.disagreeCount;\r\n    }\r\n}\r\n",
  "sourcePath": "E:\\dao\\327\\Course-allocation\\project\\contracts\\TeacherVote.sol",
  "compiler": {
    "name": "solc",
    "version": "0.8.7+commit.e28d00a7.Emscripten.clang"
  },
  "schemaVersion": "3.4.16",
  "updatedAt": "2025-04-04T09:21:18.026Z",
  "devdoc": {
    "kind": "dev",
    "methods": {},
    "version": 1
  },
  "userdoc": {
    "kind": "user",
    "methods": {},
    "version": 1
  }
}