{
  "contractName": "CourseAllocation",
  "abi": [
    {
      "inputs": [],
      "stateMutability": "nonpayable",
      "type": "constructor"
    },
    {
      "inputs": [
        {
          "internalType": "address",
          "name": "",
          "type": "address"
        }
      ],
      "name": "addressToAgentId",
      "outputs": [
        {
          "internalType": "uint256",
          "name": "",
          "type": "uint256"
        }
      ],
      "stateMutability": "view",
      "type": "function",
      "constant": true
    },
    {
      "inputs": [
        {
          "internalType": "address",
          "name": "",
          "type": "address"
        }
      ],
      "name": "addressToClassId",
      "outputs": [
        {
          "internalType": "uint256",
          "name": "",
          "type": "uint256"
        }
      ],
      "stateMutability": "view",
      "type": "function",
      "constant": true
    },
    {
      "inputs": [
        {
          "internalType": "address",
          "name": "",
          "type": "address"
        }
      ],
      "name": "addressToTeacherId",
      "outputs": [
        {
          "internalType": "uint256",
          "name": "",
          "type": "uint256"
        }
      ],
      "stateMutability": "view",
      "type": "function",
      "constant": true
    },
    {
      "inputs": [],
      "name": "agentCount",
      "outputs": [
        {
          "internalType": "uint256",
          "name": "",
          "type": "uint256"
        }
      ],
      "stateMutability": "view",
      "type": "function",
      "constant": true
    },
    {
      "inputs": [
        {
          "internalType": "uint256",
          "name": "",
          "type": "uint256"
        }
      ],
      "name": "agentIds",
      "outputs": [
        {
          "internalType": "uint256",
          "name": "",
          "type": "uint256"
        }
      ],
      "stateMutability": "view",
      "type": "function",
      "constant": true
    },
    {
      "inputs": [
        {
          "internalType": "uint256",
          "name": "",
          "type": "uint256"
        }
      ],
      "name": "agents",
      "outputs": [
        {
          "internalType": "uint256",
          "name": "id",
          "type": "uint256"
        },
        {
          "internalType": "string",
          "name": "name",
          "type": "string"
        },
        {
          "internalType": "address",
          "name": "addr",
          "type": "address"
        },
        {
          "internalType": "uint256",
          "name": "value",
          "type": "uint256"
        }
      ],
      "stateMutability": "view",
      "type": "function",
      "constant": true
    },
    {
      "inputs": [],
      "name": "classCount",
      "outputs": [
        {
          "internalType": "uint256",
          "name": "",
          "type": "uint256"
        }
      ],
      "stateMutability": "view",
      "type": "function",
      "constant": true
    },
    {
      "inputs": [
        {
          "internalType": "uint256",
          "name": "",
          "type": "uint256"
        }
      ],
      "name": "classIds",
      "outputs": [
        {
          "internalType": "uint256",
          "name": "",
          "type": "uint256"
        }
      ],
      "stateMutability": "view",
      "type": "function",
      "constant": true
    },
    {
      "inputs": [],
      "name": "courseCount",
      "outputs": [
        {
          "internalType": "uint256",
          "name": "",
          "type": "uint256"
        }
      ],
      "stateMutability": "view",
      "type": "function",
      "constant": true
    },
    {
      "inputs": [
        {
          "internalType": "uint256",
          "name": "",
          "type": "uint256"
        }
      ],
      "name": "courseIds",
      "outputs": [
        {
          "internalType": "uint256",
          "name": "",
          "type": "uint256"
        }
      ],
      "stateMutability": "view",
      "type": "function",
      "constant": true
    },
    {
      "inputs": [
        {
          "internalType": "uint256",
          "name": "",
          "type": "uint256"
        }
      ],
      "name": "courses",
      "outputs": [
        {
          "internalType": "uint256",
          "name": "id",
          "type": "uint256"
        },
        {
          "internalType": "string",
          "name": "name",
          "type": "string"
        },
        {
          "internalType": "uint256",
          "name": "importance",
          "type": "uint256"
        },
        {
          "internalType": "bool",
          "name": "isAgentSuitable",
          "type": "bool"
        }
      ],
      "stateMutability": "view",
      "type": "function",
      "constant": true
    },
    {
      "inputs": [],
      "name": "teacherCount",
      "outputs": [
        {
          "internalType": "uint256",
          "name": "",
          "type": "uint256"
        }
      ],
      "stateMutability": "view",
      "type": "function",
      "constant": true
    },
    {
      "inputs": [
        {
          "internalType": "uint256",
          "name": "",
          "type": "uint256"
        }
      ],
      "name": "teacherIds",
      "outputs": [
        {
          "internalType": "uint256",
          "name": "",
          "type": "uint256"
        }
      ],
      "stateMutability": "view",
      "type": "function",
      "constant": true
    },
    {
      "inputs": [
        {
          "internalType": "uint256",
          "name": "",
          "type": "uint256"
        }
      ],
      "name": "teachers",
      "outputs": [
        {
          "internalType": "uint256",
          "name": "id",
          "type": "uint256"
        },
        {
          "internalType": "string",
          "name": "name",
          "type": "string"
        },
        {
          "internalType": "address",
          "name": "addr",
          "type": "address"
        },
        {
          "internalType": "uint256",
          "name": "suitabilityWeight",
          "type": "uint256"
        },
        {
          "internalType": "uint256",
          "name": "value",
          "type": "uint256"
        }
      ],
      "stateMutability": "view",
      "type": "function",
      "constant": true
    },
    {
      "inputs": [
        {
          "internalType": "address",
          "name": "teacherAddress",
          "type": "address"
        },
        {
          "internalType": "uint256",
          "name": "_TeacherId",
          "type": "uint256"
        }
      ],
      "name": "setTeacherId",
      "outputs": [],
      "stateMutability": "nonpayable",
      "type": "function"
    },
    {
      "inputs": [
        {
          "internalType": "uint256",
          "name": "teacherId",
          "type": "uint256"
        }
      ],
      "name": "removeTeacher",
      "outputs": [],
      "stateMutability": "nonpayable",
      "type": "function"
    },
    {
      "inputs": [
        {
          "internalType": "uint256",
          "name": "teacherId",
          "type": "uint256"
        },
        {
          "internalType": "string",
          "name": "_name",
          "type": "string"
        }
      ],
      "name": "setTeacherName",
      "outputs": [],
      "stateMutability": "nonpayable",
      "type": "function"
    },
    {
      "inputs": [
        {
          "internalType": "uint256",
          "name": "teacherId",
          "type": "uint256"
        },
        {
          "internalType": "address",
          "name": "_teacherAddress",
          "type": "address"
        }
      ],
      "name": "setTeacherAddress",
      "outputs": [],
      "stateMutability": "nonpayable",
      "type": "function"
    },
    {
      "inputs": [
        {
          "internalType": "uint256",
          "name": "teacherId",
          "type": "uint256"
        },
        {
          "internalType": "uint256",
          "name": "_assignedCourses",
          "type": "uint256"
        }
      ],
      "name": "addTeacherAssignedCourses",
      "outputs": [],
      "stateMutability": "nonpayable",
      "type": "function"
    },
    {
      "inputs": [
        {
          "internalType": "uint256",
          "name": "teacherId",
          "type": "uint256"
        },
        {
          "internalType": "uint256",
          "name": "_assignedCourses",
          "type": "uint256"
        }
      ],
      "name": "addTeacherReallyAssignedCourses",
      "outputs": [],
      "stateMutability": "nonpayable",
      "type": "function"
    },
    {
      "inputs": [
        {
          "internalType": "uint256",
          "name": "teacherId",
          "type": "uint256"
        },
        {
          "internalType": "uint256",
          "name": "_assignedCourses",
          "type": "uint256"
        }
      ],
      "name": "removeTeacherAssignedCourses",
      "outputs": [],
      "stateMutability": "nonpayable",
      "type": "function"
    },
    {
      "inputs": [
        {
          "internalType": "uint256",
          "name": "teacherId",
          "type": "uint256"
        },
        {
          "internalType": "uint256",
          "name": "_assignedCourses",
          "type": "uint256"
        }
      ],
      "name": "removeTeacherReallyAssignedCourses",
      "outputs": [],
      "stateMutability": "nonpayable",
      "type": "function"
    },
    {
      "inputs": [
        {
          "internalType": "uint256",
          "name": "teacherId",
          "type": "uint256"
        },
        {
          "internalType": "uint256",
          "name": "_suitabilityWeight",
          "type": "uint256"
        }
      ],
      "name": "setTeacherSuitabilityWeight",
      "outputs": [],
      "stateMutability": "nonpayable",
      "type": "function"
    },
    {
      "inputs": [
        {
          "internalType": "uint256",
          "name": "teacherId",
          "type": "uint256"
        },
        {
          "internalType": "uint256",
          "name": "_value",
          "type": "uint256"
        }
      ],
      "name": "setTeacherValue",
      "outputs": [],
      "stateMutability": "nonpayable",
      "type": "function"
    },
    {
      "inputs": [
        {
          "internalType": "uint256",
          "name": "agentId",
          "type": "uint256"
        },
        {
          "internalType": "uint256",
          "name": "_value",
          "type": "uint256"
        }
      ],
      "name": "setAgentValue",
      "outputs": [],
      "stateMutability": "nonpayable",
      "type": "function"
    },
    {
      "inputs": [
        {
          "internalType": "uint256",
          "name": "teacherId",
          "type": "uint256"
        },
        {
          "internalType": "uint256[]",
          "name": "_suitabilities",
          "type": "uint256[]"
        }
      ],
      "name": "setAllTeacherCourseSuitability",
      "outputs": [],
      "stateMutability": "nonpayable",
      "type": "function"
    },
    {
      "inputs": [
        {
          "internalType": "uint256",
          "name": "teacherId",
          "type": "uint256"
        },
        {
          "internalType": "uint256",
          "name": "courseId",
          "type": "uint256"
        },
        {
          "internalType": "uint256",
          "name": "_suitability",
          "type": "uint256"
        }
      ],
      "name": "setTeacherCourseSuitability",
      "outputs": [],
      "stateMutability": "nonpayable",
      "type": "function"
    },
    {
      "inputs": [
        {
          "internalType": "uint256",
          "name": "teacherId",
          "type": "uint256"
        },
        {
          "internalType": "uint256[]",
          "name": "_preferences",
          "type": "uint256[]"
        }
      ],
      "name": "setAllTeacherCoursePreferences",
      "outputs": [],
      "stateMutability": "nonpayable",
      "type": "function"
    },
    {
      "inputs": [
        {
          "internalType": "uint256",
          "name": "teacherId",
          "type": "uint256"
        },
        {
          "internalType": "uint256",
          "name": "courseId",
          "type": "uint256"
        },
        {
          "internalType": "uint256",
          "name": "_preference",
          "type": "uint256"
        }
      ],
      "name": "setTeacherCoursePreferences",
      "outputs": [],
      "stateMutability": "nonpayable",
      "type": "function"
    },
    {
      "inputs": [
        {
          "internalType": "address",
          "name": "agentAddress",
          "type": "address"
        },
        {
          "internalType": "uint256",
          "name": "_agentId",
          "type": "uint256"
        }
      ],
      "name": "setAgentId",
      "outputs": [],
      "stateMutability": "nonpayable",
      "type": "function"
    },
    {
      "inputs": [
        {
          "internalType": "uint256",
          "name": "agentId",
          "type": "uint256"
        }
      ],
      "name": "removeAgent",
      "outputs": [],
      "stateMutability": "nonpayable",
      "type": "function"
    },
    {
      "inputs": [
        {
          "internalType": "uint256",
          "name": "agentId",
          "type": "uint256"
        },
        {
          "internalType": "string",
          "name": "_name",
          "type": "string"
        }
      ],
      "name": "setAgentName",
      "outputs": [],
      "stateMutability": "nonpayable",
      "type": "function"
    },
    {
      "inputs": [
        {
          "internalType": "uint256",
          "name": "agentId",
          "type": "uint256"
        },
        {
          "internalType": "address",
          "name": "_agentAddress",
          "type": "address"
        }
      ],
      "name": "setAgentAddress",
      "outputs": [],
      "stateMutability": "nonpayable",
      "type": "function"
    },
    {
      "inputs": [
        {
          "internalType": "uint256",
          "name": "agentId",
          "type": "uint256"
        },
        {
          "internalType": "uint256",
          "name": "_assignedCourses",
          "type": "uint256"
        }
      ],
      "name": "addAgentAssignedCourses",
      "outputs": [],
      "stateMutability": "nonpayable",
      "type": "function"
    },
    {
      "inputs": [
        {
          "internalType": "uint256",
          "name": "agentId",
          "type": "uint256"
        },
        {
          "internalType": "uint256",
          "name": "_assignedCourses",
          "type": "uint256"
        }
      ],
      "name": "removeAgentAssignedCourses",
      "outputs": [],
      "stateMutability": "nonpayable",
      "type": "function"
    },
    {
      "inputs": [
        {
          "internalType": "uint256",
          "name": "agentId",
          "type": "uint256"
        },
        {
          "internalType": "uint256",
          "name": "_courseId",
          "type": "uint256"
        },
        {
          "internalType": "uint256",
          "name": "_suitability",
          "type": "uint256"
        }
      ],
      "name": "setAgentCourseSuitability",
      "outputs": [],
      "stateMutability": "nonpayable",
      "type": "function"
    },
    {
      "inputs": [
        {
          "internalType": "uint256",
          "name": "agentId",
          "type": "uint256"
        },
        {
          "internalType": "uint256[]",
          "name": "_suitabilities",
          "type": "uint256[]"
        }
      ],
      "name": "setAllAgentCourseSuitability",
      "outputs": [],
      "stateMutability": "nonpayable",
      "type": "function"
    },
    {
      "inputs": [
        {
          "internalType": "address",
          "name": "classAddress",
          "type": "address"
        },
        {
          "internalType": "uint256",
          "name": "_id",
          "type": "uint256"
        }
      ],
      "name": "setClassId",
      "outputs": [],
      "stateMutability": "nonpayable",
      "type": "function"
    },
    {
      "inputs": [
        {
          "internalType": "uint256",
          "name": "classId",
          "type": "uint256"
        }
      ],
      "name": "removeClass",
      "outputs": [],
      "stateMutability": "nonpayable",
      "type": "function"
    },
    {
      "inputs": [
        {
          "internalType": "uint256",
          "name": "courseId",
          "type": "uint256"
        }
      ],
      "name": "setCourseId",
      "outputs": [],
      "stateMutability": "nonpayable",
      "type": "function"
    },
    {
      "inputs": [
        {
          "internalType": "uint256",
          "name": "courseId",
          "type": "uint256"
        }
      ],
      "name": "removeCourse",
      "outputs": [],
      "stateMutability": "nonpayable",
      "type": "function"
    },
    {
      "inputs": [
        {
          "internalType": "uint256",
          "name": "courseId",
          "type": "uint256"
        },
        {
          "internalType": "string",
          "name": "_name",
          "type": "string"
        }
      ],
      "name": "setCourseName",
      "outputs": [],
      "stateMutability": "nonpayable",
      "type": "function"
    },
    {
      "inputs": [
        {
          "internalType": "uint256",
          "name": "courseId",
          "type": "uint256"
        },
        {
          "internalType": "uint256",
          "name": "_importance",
          "type": "uint256"
        }
      ],
      "name": "setCourseImportance",
      "outputs": [],
      "stateMutability": "nonpayable",
      "type": "function"
    },
    {
      "inputs": [
        {
          "internalType": "uint256[]",
          "name": "_importances",
          "type": "uint256[]"
        }
      ],
      "name": "setAllCourseImportance",
      "outputs": [],
      "stateMutability": "nonpayable",
      "type": "function"
    },
    {
      "inputs": [
        {
          "internalType": "uint256",
          "name": "courseId",
          "type": "uint256"
        },
        {
          "internalType": "uint256",
          "name": "_teacherId",
          "type": "uint256"
        }
      ],
      "name": "addCourseAssignedTeacherId",
      "outputs": [],
      "stateMutability": "nonpayable",
      "type": "function"
    },
    {
      "inputs": [
        {
          "internalType": "uint256",
          "name": "courseId",
          "type": "uint256"
        },
        {
          "internalType": "uint256",
          "name": "_agentId",
          "type": "uint256"
        }
      ],
      "name": "addCourseAssignedAgentId",
      "outputs": [],
      "stateMutability": "nonpayable",
      "type": "function"
    },
    {
      "inputs": [
        {
          "internalType": "uint256",
          "name": "courseId",
          "type": "uint256"
        },
        {
          "internalType": "uint256",
          "name": "_teacherId",
          "type": "uint256"
        }
      ],
      "name": "removeCourseAssignedTeacherId",
      "outputs": [],
      "stateMutability": "nonpayable",
      "type": "function"
    },
    {
      "inputs": [
        {
          "internalType": "uint256",
          "name": "courseId",
          "type": "uint256"
        },
        {
          "internalType": "uint256",
          "name": "_agentId",
          "type": "uint256"
        }
      ],
      "name": "removeCourseAssignedAgentId",
      "outputs": [],
      "stateMutability": "nonpayable",
      "type": "function"
    },
    {
      "inputs": [
        {
          "internalType": "uint256",
          "name": "courseId",
          "type": "uint256"
        },
        {
          "internalType": "bool",
          "name": "_isAgentSuitable",
          "type": "bool"
        }
      ],
      "name": "setCourseIsAgentSuitable",
      "outputs": [],
      "stateMutability": "nonpayable",
      "type": "function"
    },
    {
      "inputs": [
        {
          "internalType": "uint256",
          "name": "_teacherCount",
          "type": "uint256"
        }
      ],
      "name": "setTeacherCount",
      "outputs": [],
      "stateMutability": "nonpayable",
      "type": "function"
    },
    {
      "inputs": [
        {
          "internalType": "uint256",
          "name": "_agentCount",
          "type": "uint256"
        }
      ],
      "name": "setAgentCount",
      "outputs": [],
      "stateMutability": "nonpayable",
      "type": "function"
    },
    {
      "inputs": [
        {
          "internalType": "uint256",
          "name": "_classCount",
          "type": "uint256"
        }
      ],
      "name": "setClassCount",
      "outputs": [],
      "stateMutability": "nonpayable",
      "type": "function"
    },
    {
      "inputs": [
        {
          "internalType": "uint256",
          "name": "_courseCount",
          "type": "uint256"
        }
      ],
      "name": "setCourseCount",
      "outputs": [],
      "stateMutability": "nonpayable",
      "type": "function"
    },
    {
      "inputs": [
        {
          "internalType": "uint256",
          "name": "_teacherId",
          "type": "uint256"
        },
        {
          "internalType": "uint256",
          "name": "courseId",
          "type": "uint256"
        }
      ],
      "name": "getTeacherSuitability",
      "outputs": [
        {
          "internalType": "uint256",
          "name": "",
          "type": "uint256"
        }
      ],
      "stateMutability": "view",
      "type": "function",
      "constant": true
    },
    {
      "inputs": [
        {
          "internalType": "uint256",
          "name": "_agentId",
          "type": "uint256"
        },
        {
          "internalType": "uint256",
          "name": "courseId",
          "type": "uint256"
        }
      ],
      "name": "getAgentSuitability",
      "outputs": [
        {
          "internalType": "uint256",
          "name": "",
          "type": "uint256"
        }
      ],
      "stateMutability": "view",
      "type": "function",
      "constant": true
    },
    {
      "inputs": [
        {
          "internalType": "uint256",
          "name": "_teacherId",
          "type": "uint256"
        },
        {
          "internalType": "uint256",
          "name": "courseId",
          "type": "uint256"
        }
      ],
      "name": "getPreference",
      "outputs": [
        {
          "internalType": "uint256",
          "name": "",
          "type": "uint256"
        }
      ],
      "stateMutability": "view",
      "type": "function",
      "constant": true
    },
    {
      "inputs": [
        {
          "internalType": "uint256",
          "name": "_teacherId",
          "type": "uint256"
        }
      ],
      "name": "getTeacherAssignedCourses",
      "outputs": [
        {
          "internalType": "uint256[]",
          "name": "",
          "type": "uint256[]"
        }
      ],
      "stateMutability": "view",
      "type": "function",
      "constant": true
    },
    {
      "inputs": [
        {
          "internalType": "uint256",
          "name": "_teacherId",
          "type": "uint256"
        }
      ],
      "name": "getTeacherReallyAssignedCourses",
      "outputs": [
        {
          "internalType": "uint256[]",
          "name": "",
          "type": "uint256[]"
        }
      ],
      "stateMutability": "view",
      "type": "function",
      "constant": true
    },
    {
      "inputs": [
        {
          "internalType": "uint256",
          "name": "_agentId",
          "type": "uint256"
        }
      ],
      "name": "getAgentAssignedCourses",
      "outputs": [
        {
          "internalType": "uint256[]",
          "name": "",
          "type": "uint256[]"
        }
      ],
      "stateMutability": "view",
      "type": "function",
      "constant": true
    },
    {
      "inputs": [
        {
          "internalType": "uint256",
          "name": "_courseId",
          "type": "uint256"
        }
      ],
      "name": "getCoursesAssignedTeacher",
      "outputs": [
        {
          "internalType": "uint256[]",
          "name": "",
          "type": "uint256[]"
        }
      ],
      "stateMutability": "view",
      "type": "function",
      "constant": true
    },
    {
      "inputs": [
        {
          "internalType": "uint256",
          "name": "_courseId",
          "type": "uint256"
        }
      ],
      "name": "getCoursesAssignedAgent",
      "outputs": [
        {
          "internalType": "uint256[]",
          "name": "",
          "type": "uint256[]"
        }
      ],
      "stateMutability": "view",
      "type": "function",
      "constant": true
    },
    {
      "inputs": [],
      "name": "getTeacherIds",
      "outputs": [
        {
          "internalType": "uint256[]",
          "name": "",
          "type": "uint256[]"
        }
      ],
      "stateMutability": "view",
      "type": "function",
      "constant": true
    },
    {
      "inputs": [],
      "name": "getAgentIds",
      "outputs": [
        {
          "internalType": "uint256[]",
          "name": "",
          "type": "uint256[]"
        }
      ],
      "stateMutability": "view",
      "type": "function",
      "constant": true
    },
    {
      "inputs": [],
      "name": "getCourseIds",
      "outputs": [
        {
          "internalType": "uint256[]",
          "name": "",
          "type": "uint256[]"
        }
      ],
      "stateMutability": "view",
      "type": "function",
      "constant": true
    },
    {
      "inputs": [],
      "name": "getClassIds",
      "outputs": [
        {
          "internalType": "uint256[]",
          "name": "",
          "type": "uint256[]"
        }
      ],
      "stateMutability": "view",
      "type": "function",
      "constant": true
    },
    {
      "inputs": [],
      "name": "getCourseCount",
      "outputs": [
        {
          "internalType": "uint256",
          "name": "",
          "type": "uint256"
        }
      ],
      "stateMutability": "view",
      "type": "function",
      "constant": true
    }
  ],
  "bytecode": "0x608060405234801561001057600080fd5b50613a59806100206000396000f3fe608060405234801561001057600080fd5b50600436106103e65760003560e01c80639709ee011161020a578063ce64bf9b11610125578063e40af036116100b8578063e8a2dc2f11610087578063e8a2dc2f14610bf3578063ebacebe414610c23578063ee196ee214610c53578063f0f2efd814610c6f578063fc09e9d014610c8b576103e6565b8063e40af03614610b6f578063e52505d814610b8b578063e637812f14610bbb578063e7fa455714610bd7576103e6565b8063deb9f76a116100f4578063deb9f76a14610aff578063df3addfa14610b1b578063e204b10214610b37578063e20b340514610b53576103e6565b8063ce64bf9b14610a53578063d4e57ff014610a83578063dcfa705714610ab3578063dd03576514610ae3576103e6565b8063b7dc12841161019d578063bfb9d44c1161016c578063bfb9d44c146109e3578063c318fe5f146109ff578063cb85404514610a1b578063cddd6c6314610a37576103e6565b8063b7dc12841461095d578063bb69df721461097b578063bca24bd414610997578063bd1602d1146109c7576103e6565b8063a7ab8472116101d9578063a7ab8472146108e9578063ab99631714610905578063ad3a6ad414610923578063b15087601461093f576103e6565b80639709ee011461086557806397e92d52146108955780639e122377146108b1578063a549e416146108cd576103e6565b80635953faff1161030557806372c30f4511610298578063851580a711610267578063851580a71461079857806386875ea8146107c857806391c89deb146107e457806396cfda061461081457806396f979d214610832576103e6565b806372c30f45146107005780637fa7e04d1461071c578063827e57311461073857806382ff0a5a14610768576103e6565b80636e428d2d116102d45780636e428d2d146106905780636fcf4f96146106ac578063700ed28b146106c857806372ab4e96146106e4576103e6565b80635953faff1461061e5780635e383d461461063a57806366055159146106565780636798bad914610674576103e6565b80633abdb63d1161037d5780634d27e9121161034c5780634d27e912146105815780634d6523501461059d578063513856c8146105bb57806356e76058146105ee576103e6565b80633abdb63d146104fb57806346be313614610517578063494e2371146105355780634b974df714610565576103e6565b80631fe76a6c116103b95780631fe76a6c146104715780632359b7b81461048d5780632b0816ac146104ab57806334ac0b40146104c7576103e6565b80630f7f13cf146103eb5780630fa1c2711461041b57806318860d37146104375780631dd86f9014610455575b600080fd5b61040560048036038101906104009190612ed2565b610ca7565b60405161041291906133e4565b60405180910390f35b610435600480360381019061043091906130f5565b610cbf565b005b61043f610d00565b60405161044c9190613322565b60405180910390f35b61046f600480360381019061046a9190613135565b610d58565b005b61048b60048036038101906104869190613135565b610e0b565b005b610495610e3c565b6040516104a29190613322565b60405180910390f35b6104c560048036038101906104c09190612f88565b610e94565b005b6104e160048036038101906104dc9190612f88565b610edb565b6040516104f295949392919061344b565b60405180910390f35b61051560048036038101906105109190612f88565b610fb9565b005b61051f6110a1565b60405161052c91906133e4565b60405180910390f35b61054f600480360381019061054a9190612f88565b6110a7565b60405161055c91906133e4565b60405180910390f35b61057f600480360381019061057a91906130f5565b6110cb565b005b61059b60048036038101906105969190613135565b611265565b005b6105a5611296565b6040516105b29190613322565b60405180910390f35b6105d560048036038101906105d09190612f88565b6112ee565b6040516105e594939291906133ff565b60405180910390f35b61060860048036038101906106039190612f88565b6113c6565b60405161061591906133e4565b60405180910390f35b61063860048036038101906106339190612f3f565b6113ea565b005b610654600480360381019061064f9190612eff565b6114ac565b005b61065e61151d565b60405161066b91906133e4565b60405180910390f35b61068e60048036038101906106899190612f88565b611523565b005b6106aa60048036038101906106a591906130f5565b61152d565b005b6106c660048036038101906106c19190612f88565b6116c7565b005b6106e260048036038101906106dd91906130f5565b611831565b005b6106fe60048036038101906106f991906130f5565b611872565b005b61071a60048036038101906107159190612f88565b6118b3565b005b61073660048036038101906107319190613095565b61197f565b005b610752600480360381019061074d9190612f88565b6119aa565b60405161075f9190613322565b60405180910390f35b610782600480360381019061077d9190612f88565b611a18565b60405161078f9190613322565b60405180910390f35b6107b260048036038101906107ad91906130f5565b611a86565b6040516107bf91906133e4565b60405180910390f35b6107e260048036038101906107dd91906130f5565b611ab8565b005b6107fe60048036038101906107f99190612f88565b611c52565b60405161080b9190613322565b60405180910390f35b61081c611cc0565b60405161082991906133e4565b60405180910390f35b61084c60048036038101906108479190612f88565b611cca565b60405161085c94939291906134a5565b60405180910390f35b61087f600480360381019061087a91906130f5565b611d8f565b60405161088c91906133e4565b60405180910390f35b6108af60048036038101906108aa9190612ff5565b611dc1565b005b6108cb60048036038101906108c69190613095565b611f19565b005b6108e760048036038101906108e29190612eff565b611f44565b005b61090360048036038101906108fe9190613095565b611fcf565b005b61090d61207c565b60405161091a91906133e4565b60405180910390f35b61093d60048036038101906109389190612ff5565b612082565b005b6109476121da565b6040516109549190613322565b60405180910390f35b610965612232565b60405161097291906133e4565b60405180910390f35b610995600480360381019061099091906130f5565b612238565b005b6109b160048036038101906109ac9190612f88565b6122d9565b6040516109be91906133e4565b60405180910390f35b6109e160048036038101906109dc9190612f88565b6122fd565b005b6109fd60048036038101906109f89190612eff565b612307565b005b610a196004803603810190610a149190612fb5565b612393565b005b610a356004803603810190610a309190613055565b61246e565b005b610a516004803603810190610a4c9190612fb5565b6124a0565b005b610a6d6004803603810190610a689190612f88565b6124f9565b604051610a7a9190613322565b60405180910390f35b610a9d6004803603810190610a989190612ed2565b612567565b604051610aaa91906133e4565b60405180910390f35b610acd6004803603810190610ac89190612f88565b61257f565b604051610ada91906133e4565b60405180910390f35b610afd6004803603810190610af89190612f88565b6125a3565b005b610b196004803603810190610b149190612f88565b6125ad565b005b610b356004803603810190610b309190612f88565b6125b7565b005b610b516004803603810190610b4c91906130f5565b612683565b005b610b6d6004803603810190610b6891906130f5565b6126a2565b005b610b896004803603810190610b8491906130f5565b612743565b005b610ba56004803603810190610ba09190612f88565b6128dd565b604051610bb29190613322565b60405180910390f35b610bd56004803603810190610bd091906130f5565b61294b565b005b610bf16004803603810190610bec91906130f5565b61298c565b005b610c0d6004803603810190610c0891906130f5565b612b26565b604051610c1a91906133e4565b60405180910390f35b610c3d6004803603810190610c389190612ed2565b612b58565b604051610c4a91906133e4565b60405180910390f35b610c6d6004803603810190610c6891906130f5565b612b70565b005b610c896004803603810190610c849190612ff5565b612b8f565b005b610ca56004803603810190610ca091906130f5565b612c65565b005b60006020528060005260406000206000915090505481565b600560008381526020019081526020016000206003018190806001815401808255809150506001900390600052602060002001600090919091909150555050565b6060600d805480602002602001604051908101604052809291908181526020018280548015610d4e57602002820191906000526020600020905b815481526020019060010190808311610d3a575b5050505050905090565b60008060003373ffffffffffffffffffffffffffffffffffffffff1673ffffffffffffffffffffffffffffffffffffffff168152602001908152602001600020541415610dda576040517f08c379a0000000000000000000000000000000000000000000000000000000008152600401610dd1906133a4565b60405180910390fd5b8060036000858152602001908152602001600020600801600084815260200190815260200160002081905550505050565b8060036000858152602001908152602001600020600701600084815260200190815260200160002081905550505050565b6060600c805480602002602001604051908101604052809291908181526020018280548015610e8a57602002820191906000526020600020905b815481526020019060010190808311610e76575b5050505050905090565b806005600083815260200190815260200160002060000181905550600c81908060018154018082558091505060019003906000526020600020016000909190919091505550565b6003602052806000526040600020600091509050806000015490806001018054610f0490613646565b80601f0160208091040260200160405190810160405280929190818152602001828054610f3090613646565b8015610f7d5780601f10610f5257610100808354040283529160200191610f7d565b820191906000526020600020905b815481529060010190602001808311610f6057829003601f168201915b5050505050908060020160009054906101000a900473ffffffffffffffffffffffffffffffffffffffff16908060050154908060060154905085565b6000600460008381526020019081526020016000206000018190555060005b600b8054905081101561109d5781600b8281548110610ffa57610ff961377f565b5b9060005260206000200154141561108a57600b6001600b8054905061101f9190613597565b815481106110305761102f61377f565b5b9060005260206000200154600b828154811061104f5761104e61377f565b5b9060005260206000200181905550600b80548061106f5761106e613750565b5b6001900381819060005260206000200160009055905561109d565b8080611095906136a9565b915050610fd8565b5050565b60065481565b600c81815481106110b757600080fd5b906000526020600020016000915090505481565b60008080600090505b600360008681526020019081526020016000206003018054905081101561114e578360036000878152602001908152602001600020600301828154811061111e5761111d61377f565b5b9060005260206000200154141561113b576001925080915061114e565b8080611146906136a9565b9150506110d4565b5081156112245760036000858152602001908152602001600020600301600160036000878152602001908152602001600020600301805490506111919190613597565b815481106111a2576111a161377f565b5b90600052602060002001546003600086815260200190815260200160002060030182815481106111d5576111d461377f565b5b90600052602060002001819055506003600085815260200190815260200160002060030180548061120957611208613750565b5b6001900381819060005260206000200160009055905561125f565b6040517f08c379a000000000000000000000000000000000000000000000000000000000815260040161125690613364565b60405180910390fd5b50505050565b8060046000858152602001908152602001600020600501600084815260200190815260200160002081905550505050565b6060600a8054806020026020016040519081016040528092919081815260200182805480156112e457602002820191906000526020600020905b8154815260200190600101908083116112d0575b5050505050905090565b600460205280600052604060002060009150905080600001549080600101805461131790613646565b80601f016020809104026020016040519081016040528092919081815260200182805461134390613646565b80156113905780601f1061136557610100808354040283529160200191611390565b820191906000526020600020905b81548152906001019060200180831161137357829003601f168201915b5050505050908060020160009054906101000a900473ffffffffffffffffffffffffffffffffffffffff16908060030154905084565b600b81815481106113d657600080fd5b906000526020600020016000915090505481565b600c80549050815114611432576040517f08c379a000000000000000000000000000000000000000000000000000000000815260040161142990613384565b60405180910390fd5b60005b600c805490508110156114a8578181815181106114555761145461377f565b5b602002602001015160056000600c84815481106114755761147461377f565b5b906000526020600020015481526020019081526020016000206002018190555080806114a0906136a9565b915050611435565b5050565b80600260008473ffffffffffffffffffffffffffffffffffffffff1673ffffffffffffffffffffffffffffffffffffffff16815260200190815260200160002081905550600d8190806001815401808255809150506001900390600052602060002001600090919091909150555050565b60095481565b8060068190555050565b60008080600090505b60056000868152602001908152602001600020600301805490508110156115b057836005600087815260200190815260200160002060030182815481106115805761157f61377f565b5b9060005260206000200154141561159d57600192508091506115b0565b80806115a8906136a9565b915050611536565b5081156116865760056000858152602001908152602001600020600301600160056000878152602001908152602001600020600301805490506115f39190613597565b815481106116045761160361377f565b5b90600052602060002001546005600086815260200190815260200160002060030182815481106116375761163661377f565b5b90600052602060002001819055506005600085815260200190815260200160002060030180548061166b5761166a613750565b5b600190038181906000526020600020016000905590556116c1565b6040517f08c379a00000000000000000000000000000000000000000000000000000000081526004016116b890613364565b60405180910390fd5b50505050565b60008060003373ffffffffffffffffffffffffffffffffffffffff1673ffffffffffffffffffffffffffffffffffffffff168152602001908152602001600020541415611749576040517f08c379a0000000000000000000000000000000000000000000000000000000008152600401611740906133a4565b60405180910390fd5b6000600360008381526020019081526020016000206000018190555060005b600a8054905081101561182d5781600a828154811061178a5761178961377f565b5b9060005260206000200154141561181a57600a6001600a805490506117af9190613597565b815481106117c0576117bf61377f565b5b9060005260206000200154600a82815481106117df576117de61377f565b5b9060005260206000200181905550600a8054806117ff576117fe613750565b5b6001900381819060005260206000200160009055905561182d565b8080611825906136a9565b915050611768565b5050565b600360008381526020019081526020016000206003018190806001815401808255809150506001900390600052602060002001600090919091909150555050565b600460008381526020019081526020016000206004018190806001815401808255809150506001900390600052602060002001600090919091909150555050565b60005b600d8054905081101561197b5781600d82815481106118d8576118d761377f565b5b9060005260206000200154141561196857600d6001600d805490506118fd9190613597565b8154811061190e5761190d61377f565b5b9060005260206000200154600d828154811061192d5761192c61377f565b5b9060005260206000200181905550600d80548061194d5761194c613750565b5b6001900381819060005260206000200160009055905561197b565b8080611973906136a9565b9150506118b6565b5050565b81816004600086815260200190815260200160002060010191906119a4929190612ca6565b50505050565b606060036000838152602001908152602001600020600401805480602002602001604051908101604052809291908181526020018280548015611a0c57602002820191906000526020600020905b8154815260200190600101908083116119f8575b50505050509050919050565b606060056000838152602001908152602001600020600301805480602002602001604051908101604052809291908181526020018280548015611a7a57602002820191906000526020600020905b815481526020019060010190808311611a66575b50505050509050919050565b600060036000848152602001908152602001600020600801600083815260200190815260200160002054905092915050565b60008080600090505b6005600086815260200190815260200160002060040180549050811015611b3b5783600560008781526020019081526020016000206004018281548110611b0b57611b0a61377f565b5b90600052602060002001541415611b285760019250809150611b3b565b8080611b33906136a9565b915050611ac1565b508115611c11576005600085815260200190815260200160002060040160016005600087815260200190815260200160002060040180549050611b7e9190613597565b81548110611b8f57611b8e61377f565b5b9060005260206000200154600560008681526020019081526020016000206004018281548110611bc257611bc161377f565b5b906000526020600020018190555060056000858152602001908152602001600020600401805480611bf657611bf5613750565b5b60019003818190600052602060002001600090559055611c4c565b6040517f08c379a0000000000000000000000000000000000000000000000000000000008152600401611c4390613364565b60405180910390fd5b50505050565b606060056000838152602001908152602001600020600401805480602002602001604051908101604052809291908181526020018280548015611cb457602002820191906000526020600020905b815481526020019060010190808311611ca0575b50505050509050919050565b6000600954905090565b6005602052806000526040600020600091509050806000015490806001018054611cf390613646565b80601f0160208091040260200160405190810160405280929190818152602001828054611d1f90613646565b8015611d6c5780601f10611d4157610100808354040283529160200191611d6c565b820191906000526020600020905b815481529060010190602001808311611d4f57829003601f168201915b5050505050908060020154908060050160009054906101000a900460ff16905084565b600060046000848152602001908152602001600020600501600083815260200190815260200160002054905092915050565b60008060003373ffffffffffffffffffffffffffffffffffffffff1673ffffffffffffffffffffffffffffffffffffffff168152602001908152602001600020541415611e43576040517f08c379a0000000000000000000000000000000000000000000000000000000008152600401611e3a906133a4565b60405180910390fd5b600c805490508282905014611e8d576040517f08c379a0000000000000000000000000000000000000000000000000000000008152600401611e84906133c4565b60405180910390fd5b60005b600c80549050811015611f1357828282818110611eb057611eaf61377f565b5b90506020020135600360008681526020019081526020016000206007016000600c8481548110611ee357611ee261377f565b5b90600052602060002001548152602001908152602001600020819055508080611f0b906136a9565b915050611e90565b50505050565b8181600560008681526020019081526020016000206001019190611f3e929190612ca6565b50505050565b806000808473ffffffffffffffffffffffffffffffffffffffff1673ffffffffffffffffffffffffffffffffffffffff16815260200190815260200160002081905550806003600083815260200190815260200160002060000181905550600a8190806001815401808255809150506001900390600052602060002001600090919091909150555050565b60008060003373ffffffffffffffffffffffffffffffffffffffff1673ffffffffffffffffffffffffffffffffffffffff168152602001908152602001600020541415612051576040517f08c379a0000000000000000000000000000000000000000000000000000000008152600401612048906133a4565b60405180910390fd5b8181600360008681526020019081526020016000206001019190612076929190612ca6565b50505050565b60085481565b60008060003373ffffffffffffffffffffffffffffffffffffffff1673ffffffffffffffffffffffffffffffffffffffff168152602001908152602001600020541415612104576040517f08c379a00000000000000000000000000000000000000000000000000000000081526004016120fb906133a4565b60405180910390fd5b600c80549050828290501461214e576040517f08c379a000000000000000000000000000000000000000000000000000000000815260040161214590613344565b60405180910390fd5b60005b600c805490508110156121d4578282828181106121715761217061377f565b5b90506020020135600360008681526020019081526020016000206008016000600c84815481106121a4576121a361377f565b5b906000526020600020015481526020019081526020016000208190555080806121cc906136a9565b915050612151565b50505050565b6060600b80548060200260200160405190810160405280929190818152602001828054801561222857602002820191906000526020600020905b815481526020019060010190808311612214575b5050505050905090565b60075481565b60008060003373ffffffffffffffffffffffffffffffffffffffff1673ffffffffffffffffffffffffffffffffffffffff1681526020019081526020016000205414156122ba576040517f08c379a00000000000000000000000000000000000000000000000000000000081526004016122b1906133a4565b60405180910390fd5b8060036000848152602001908152602001600020600501819055505050565b600d81815481106122e957600080fd5b906000526020600020016000915090505481565b8060098190555050565b80600160008473ffffffffffffffffffffffffffffffffffffffff1673ffffffffffffffffffffffffffffffffffffffff16815260200190815260200160002081905550806004600083815260200190815260200160002060000181905550600b8190806001815401808255809150506001900390600052602060002001600090919091909150555050565b60008060003373ffffffffffffffffffffffffffffffffffffffff1673ffffffffffffffffffffffffffffffffffffffff168152602001908152602001600020541415612415576040517f08c379a000000000000000000000000000000000000000000000000000000000815260040161240c906133a4565b60405180910390fd5b806003600084815260200190815260200160002060020160006101000a81548173ffffffffffffffffffffffffffffffffffffffff021916908373ffffffffffffffffffffffffffffffffffffffff1602179055505050565b806005600084815260200190815260200160002060050160006101000a81548160ff0219169083151502179055505050565b806004600084815260200190815260200160002060020160006101000a81548173ffffffffffffffffffffffffffffffffffffffff021916908373ffffffffffffffffffffffffffffffffffffffff1602179055505050565b60606004600083815260200190815260200160002060040180548060200260200160405190810160405280929190818152602001828054801561255b57602002820191906000526020600020905b815481526020019060010190808311612547575b50505050509050919050565b60026020528060005260406000206000915090505481565b600a818154811061258f57600080fd5b906000526020600020016000915090505481565b8060088190555050565b8060078190555050565b60005b600c8054905081101561267f5781600c82815481106125dc576125db61377f565b5b9060005260206000200154141561266c57600c6001600c805490506126019190613597565b815481106126125761261161377f565b5b9060005260206000200154600c82815481106126315761263061377f565b5b9060005260206000200181905550600c80548061265157612650613750565b5b6001900381819060005260206000200160009055905561267f565b8080612677906136a9565b9150506125ba565b5050565b8060056000848152602001908152602001600020600201819055505050565b60008060003373ffffffffffffffffffffffffffffffffffffffff1673ffffffffffffffffffffffffffffffffffffffff168152602001908152602001600020541415612724576040517f08c379a000000000000000000000000000000000000000000000000000000000815260040161271b906133a4565b60405180910390fd5b8060036000848152602001908152602001600020600601819055505050565b60008080600090505b60046000868152602001908152602001600020600401805490508110156127c657836004600087815260200190815260200160002060040182815481106127965761279561377f565b5b906000526020600020015414156127b357600192508091506127c6565b80806127be906136a9565b91505061274c565b50811561289c5760046000858152602001908152602001600020600401600160046000878152602001908152602001600020600401805490506128099190613597565b8154811061281a5761281961377f565b5b906000526020600020015460046000868152602001908152602001600020600401828154811061284d5761284c61377f565b5b90600052602060002001819055506004600085815260200190815260200160002060040180548061288157612880613750565b5b600190038181906000526020600020016000905590556128d7565b6040517f08c379a00000000000000000000000000000000000000000000000000000000081526004016128ce90613364565b60405180910390fd5b50505050565b60606003600083815260200190815260200160002060030180548060200260200160405190810160405280929190818152602001828054801561293f57602002820191906000526020600020905b81548152602001906001019080831161292b575b50505050509050919050565b600360008381526020019081526020016000206004018190806001815401808255809150506001900390600052602060002001600090919091909150555050565b60008080600090505b6003600086815260200190815260200160002060040180549050811015612a0f57836003600087815260200190815260200160002060040182815481106129df576129de61377f565b5b906000526020600020015414156129fc5760019250809150612a0f565b8080612a07906136a9565b915050612995565b508115612ae5576003600085815260200190815260200160002060040160016003600087815260200190815260200160002060040180549050612a529190613597565b81548110612a6357612a6261377f565b5b9060005260206000200154600360008681526020019081526020016000206004018281548110612a9657612a9561377f565b5b906000526020600020018190555060036000858152602001908152602001600020600401805480612aca57612ac9613750565b5b60019003818190600052602060002001600090559055612b20565b6040517f08c379a0000000000000000000000000000000000000000000000000000000008152600401612b1790613364565b60405180910390fd5b50505050565b600060036000848152602001908152602001600020600701600083815260200190815260200160002054905092915050565b60016020528060005260406000206000915090505481565b8060046000848152602001908152602001600020600301819055505050565b600c805490508282905014612bd9576040517f08c379a0000000000000000000000000000000000000000000000000000000008152600401612bd0906133c4565b60405180910390fd5b60005b600c80549050811015612c5f57828282818110612bfc57612bfb61377f565b5b90506020020135600460008681526020019081526020016000206005016000600c8481548110612c2f57612c2e61377f565b5b90600052602060002001548152602001908152602001600020819055508080612c57906136a9565b915050612bdc565b50505050565b600560008381526020019081526020016000206004018190806001815401808255809150506001900390600052602060002001600090919091909150555050565b828054612cb290613646565b90600052602060002090601f016020900481019282612cd45760008555612d1b565b82601f10612ced57803560ff1916838001178555612d1b565b82800160010185558215612d1b579182015b82811115612d1a578235825591602001919060010190612cff565b5b509050612d289190612d2c565b5090565b5b80821115612d45576000816000905550600101612d2d565b5090565b6000612d5c612d5784613516565b6134f1565b90508083825260208201905082856020860282011115612d7f57612d7e6137e7565b5b60005b85811015612daf5781612d958882612ebd565b845260208401935060208301925050600181019050612d82565b5050509392505050565b600081359050612dc8816139de565b92915050565b60008083601f840112612de457612de36137e2565b5b8235905067ffffffffffffffff811115612e0157612e006137dd565b5b602083019150836020820283011115612e1d57612e1c6137e7565b5b9250929050565b600082601f830112612e3957612e386137e2565b5b8135612e49848260208601612d49565b91505092915050565b600081359050612e61816139f5565b92915050565b60008083601f840112612e7d57612e7c6137e2565b5b8235905067ffffffffffffffff811115612e9a57612e996137dd565b5b602083019150836001820283011115612eb657612eb56137e7565b5b9250929050565b600081359050612ecc81613a0c565b92915050565b600060208284031215612ee857612ee76137f1565b5b6000612ef684828501612db9565b91505092915050565b60008060408385031215612f1657612f156137f1565b5b6000612f2485828601612db9565b9250506020612f3585828601612ebd565b9150509250929050565b600060208284031215612f5557612f546137f1565b5b600082013567ffffffffffffffff811115612f7357612f726137ec565b5b612f7f84828501612e24565b91505092915050565b600060208284031215612f9e57612f9d6137f1565b5b6000612fac84828501612ebd565b91505092915050565b60008060408385031215612fcc57612fcb6137f1565b5b6000612fda85828601612ebd565b9250506020612feb85828601612db9565b9150509250929050565b60008060006040848603121561300e5761300d6137f1565b5b600061301c86828701612ebd565b935050602084013567ffffffffffffffff81111561303d5761303c6137ec565b5b61304986828701612dce565b92509250509250925092565b6000806040838503121561306c5761306b6137f1565b5b600061307a85828601612ebd565b925050602061308b85828601612e52565b9150509250929050565b6000806000604084860312156130ae576130ad6137f1565b5b60006130bc86828701612ebd565b935050602084013567ffffffffffffffff8111156130dd576130dc6137ec565b5b6130e986828701612e67565b92509250509250925092565b6000806040838503121561310c5761310b6137f1565b5b600061311a85828601612ebd565b925050602061312b85828601612ebd565b9150509250929050565b60008060006060848603121561314e5761314d6137f1565b5b600061315c86828701612ebd565b935050602061316d86828701612ebd565b925050604061317e86828701612ebd565b9150509250925092565b60006131948383613304565b60208301905092915050565b6131a9816135cb565b82525050565b60006131ba82613552565b6131c48185613575565b93506131cf83613542565b8060005b838110156132005781516131e78882613188565b97506131f283613568565b9250506001810190506131d3565b5085935050505092915050565b613216816135dd565b82525050565b60006132278261355d565b6132318185613586565b9350613241818560208601613613565b61324a816137f6565b840191505092915050565b6000613262606083613586565b915061326d82613807565b606082019050919050565b6000613285601083613586565b91506132908261387c565b602082019050919050565b60006132a8602283613586565b91506132b3826138a5565b604082019050919050565b60006132cb602f83613586565b91506132d6826138f4565b604082019050919050565b60006132ee606183613586565b91506132f982613943565b608082019050919050565b61330d81613609565b82525050565b61331c81613609565b82525050565b6000602082019050818103600083015261333c81846131af565b905092915050565b6000602082019050818103600083015261335d81613255565b9050919050565b6000602082019050818103600083015261337d81613278565b9050919050565b6000602082019050818103600083015261339d8161329b565b9050919050565b600060208201905081810360008301526133bd816132be565b9050919050565b600060208201905081810360008301526133dd816132e1565b9050919050565b60006020820190506133f96000830184613313565b92915050565b60006080820190506134146000830187613313565b8181036020830152613426818661321c565b905061343560408301856131a0565b6134426060830184613313565b95945050505050565b600060a0820190506134606000830188613313565b8181036020830152613472818761321c565b905061348160408301866131a0565b61348e6060830185613313565b61349b6080830184613313565b9695505050505050565b60006080820190506134ba6000830187613313565b81810360208301526134cc818661321c565b90506134db6040830185613313565b6134e8606083018461320d565b95945050505050565b60006134fb61350c565b90506135078282613678565b919050565b6000604051905090565b600067ffffffffffffffff821115613531576135306137ae565b5b602082029050602081019050919050565b6000819050602082019050919050565b600081519050919050565b600081519050919050565b6000602082019050919050565b600082825260208201905092915050565b600082825260208201905092915050565b60006135a282613609565b91506135ad83613609565b9250828210156135c0576135bf6136f2565b5b828203905092915050565b60006135d6826135e9565b9050919050565b60008115159050919050565b600073ffffffffffffffffffffffffffffffffffffffff82169050919050565b6000819050919050565b60005b83811015613631578082015181840152602081019050613616565b83811115613640576000848401525b50505050565b6000600282049050600182168061365e57607f821691505b6020821081141561367257613671613721565b5b50919050565b613681826137f6565b810181811067ffffffffffffffff821117156136a05761369f6137ae565b5b80604052505050565b60006136b482613609565b91507fffffffffffffffffffffffffffffffffffffffffffffffffffffffffffffffff8214156136e7576136e66136f2565b5b600182019050919050565b7f4e487b7100000000000000000000000000000000000000000000000000000000600052601160045260246000fd5b7f4e487b7100000000000000000000000000000000000000000000000000000000600052602260045260246000fd5b7f4e487b7100000000000000000000000000000000000000000000000000000000600052603160045260246000fd5b7f4e487b7100000000000000000000000000000000000000000000000000000000600052603260045260246000fd5b7f4e487b7100000000000000000000000000000000000000000000000000000000600052604160045260246000fd5b600080fd5b600080fd5b600080fd5b600080fd5b600080fd5b6000601f19601f8301169050919050565b7f5768656e2073657474696e672074686520707265666572656e6365206c65766560008201527f6c206f6620636f75727365732c206974206973206e656365737361727920746f60208201527f206861766520616e20657175616c206e756d626572206f6620636f7572736573604082015250565b7f436f75727365206e6f7420666f756e6400000000000000000000000000000000600082015250565b7f6d7573742075706461746520616c6c20636f7572736520737569746162696c6960008201527f7479000000000000000000000000000000000000000000000000000000000000602082015250565b7f4f6e6c7920726567697374657265642074656163686572732063616e2063616c60008201527f6c20746869732066756e6374696f6e0000000000000000000000000000000000602082015250565b7f5768656e2073657474696e672074686520737569746162696c697479206c657660008201527f656c206f6620636f75727365732c206974206973206e6563657373617279207460208201527f6f206861766520616e20657175616c206e756d626572206f6620636f7572736560408201527f7300000000000000000000000000000000000000000000000000000000000000606082015250565b6139e7816135cb565b81146139f257600080fd5b50565b6139fe816135dd565b8114613a0957600080fd5b50565b613a1581613609565b8114613a2057600080fd5b5056fea2646970667358221220a4d9d2c6f1eea15abf38eb02f134bba106c6f6096246ea33cb3dc763cdf3d97564736f6c63430008070033",
  "immutableReferences": {},
  "source": "// SPDX-License-Identifier: MIT\r\npragma solidity ^0.8.7;\r\n\r\ncontract CourseAllocation {\r\n    // 教师结构体\r\n    struct Teacher {\r\n        uint256 id;\r\n        string name;\r\n        address addr;\r\n        uint256[] assignedCourses;\r\n        uint256[] reallyAssignedCourses;\r\n        uint256 suitabilityWeight;\r\n        uint256 value;\r\n        mapping(uint256 => uint256) courseSuitabilities;\r\n        mapping(uint256 => uint256) coursePreferences;\r\n    }\r\n\r\n    // 智能体结构体\r\n    struct Agent {\r\n        uint256 id;\r\n        string name;\r\n        address addr;\r\n        uint256 value;\r\n        uint256[] assignedCourses;\r\n        mapping(uint256 => uint256) courseSuitabilities;\r\n    }\r\n\r\n    // 课程结构体\r\n    struct Course {\r\n        uint256 id;\r\n        string name;\r\n        uint256 importance;\r\n        uint256[] assignedTeacherId;\r\n        uint256[] assignedAgentId;\r\n        bool isAgentSuitable;\r\n    }\r\n\r\n    // 教师映射：地址 => 教师ID\r\n    mapping(address => uint256) public addressToTeacherId;\r\n\r\n    // 智能体映射：地址 => 智能体ID\r\n    mapping(address => uint256) public addressToAgentId;\r\n\r\n    // 班级映射：地址 => 班级ID\r\n    mapping(address => uint256) public addressToClassId;\r\n\r\n    // 教师映射：ID => 教师结构体\r\n    mapping(uint256 => Teacher) public teachers;\r\n\r\n    // 智能体映射：ID => 智能体结构体\r\n    mapping(uint256 => Agent) public agents;\r\n\r\n    // 课程映射：ID => 课程结构体\r\n    mapping(uint256 => Course) public courses;\r\n\r\n    // 教师ID计数器\r\n    uint256 public teacherCount;\r\n\r\n    // 智能体ID计数器\r\n    uint256 public agentCount;\r\n\r\n    // 班级ID计数器\r\n    uint256 public classCount;\r\n\r\n    // 课程ID计数器\r\n    uint256 public courseCount;\r\n\r\n    // 老师ID存储数组\r\n    uint256[] public teacherIds;\r\n\r\n    // 智能体ID存储数组\r\n    uint256[] public agentIds;\r\n\r\n    // 课程ID存储数组\r\n    uint256[] public courseIds;\r\n\r\n    // 班级ID存储数组\r\n    uint256[] public classIds;\r\n\r\n    // 事件\r\n    // event CourseImportanceSet(uint256 indexed courseId, uint256 importance);\r\n    // event SuitabilityUpdated(uint256 indexed courseId, uint256 suitability);\r\n    // event PreferenceUpdated(uint256 indexed teacherId, uint256 indexed courseId, uint256 preference);\r\n    // event ProposalCreated(uint256 proposalId, uint256 indexed courseId, uint256[] teacherIds); // 提案创建\r\n    // event MachineProposal(uint256 proposalId, uint256 indexed courseId, uint256[] teacherIds, uint256[] teacherCounts); // 提案创建\r\n    // event CourseAssignedToTeacher(uint256 indexed courseId, uint256 indexed teacherId); // 课程分配给老师\r\n\r\n    // 构造函数，初始化管理员\r\n    constructor() {}\r\n\r\n    // 修饰符：仅教师可访问\r\n    modifier onlyTeacher() {\r\n        require(\r\n            addressToTeacherId[msg.sender] != 0,\r\n            \"Only registered teachers can call this function\"\r\n        );\r\n        _;\r\n    }\r\n\r\n    // 设置教师ID\r\n    function setTeacherId(address teacherAddress, uint256 _TeacherId) public {\r\n        addressToTeacherId[teacherAddress] = _TeacherId;\r\n        teachers[_TeacherId].id = _TeacherId;\r\n        teacherIds.push(_TeacherId);\r\n    }\r\n\r\n    // 设置教师是否存在\r\n    function removeTeacher(uint256 teacherId) public onlyTeacher {\r\n        teachers[teacherId].id = 0;\r\n        // 从 teacherIds 数组中移除教师 ID\r\n        for (uint256 i = 0; i < teacherIds.length; i++) {\r\n            if (teacherIds[i] == teacherId) {\r\n                // 将要移除的教师 ID 位置的元素替换为数组中最后一个元素\r\n                teacherIds[i] = teacherIds[teacherIds.length - 1];\r\n                // 移除数组中的最后一个元素\r\n                teacherIds.pop();\r\n                break;\r\n            }\r\n        }\r\n    }\r\n\r\n    // 设置教师姓名\r\n    function setTeacherName(\r\n        uint256 teacherId,\r\n        string calldata _name\r\n    ) public onlyTeacher {\r\n        teachers[teacherId].name = _name;\r\n    }\r\n\r\n    // 设置教师地址\r\n    function setTeacherAddress(\r\n        uint256 teacherId,\r\n        address _teacherAddress\r\n    ) public onlyTeacher {\r\n        teachers[teacherId].addr = _teacherAddress;\r\n    }\r\n\r\n    // 设置教师已分配课程\r\n    function addTeacherAssignedCourses(\r\n        uint256 teacherId,\r\n        uint256 _assignedCourses\r\n    ) public {\r\n        teachers[teacherId].assignedCourses.push(_assignedCourses);\r\n    }\r\n\r\n    // 设置教师已分配课程\r\n    function addTeacherReallyAssignedCourses(\r\n        uint256 teacherId,\r\n        uint256 _assignedCourses\r\n    ) public {\r\n        teachers[teacherId].reallyAssignedCourses.push(_assignedCourses);\r\n    }\r\n\r\n    // 移除教师已分配课程\r\n    function removeTeacherAssignedCourses(\r\n        uint256 teacherId,\r\n        uint256 _assignedCourses\r\n    ) public {\r\n        bool found = false;\r\n        uint256 indexToRemove;\r\n\r\n        // 遍历数组，找到课程 ID 的位置\r\n        for (\r\n            uint256 i = 0;\r\n            i < teachers[teacherId].assignedCourses.length;\r\n            i++\r\n        ) {\r\n            if (teachers[teacherId].assignedCourses[i] == _assignedCourses) {\r\n                found = true;\r\n                indexToRemove = i;\r\n                break;\r\n            }\r\n        }\r\n\r\n        // 如果找到了课程 ID\r\n        if (found) {\r\n            // 将要移除的课程位置的元素替换为数组中最后一个元素\r\n            teachers[teacherId].assignedCourses[indexToRemove] = teachers[\r\n                teacherId\r\n            ].assignedCourses[teachers[teacherId].assignedCourses.length - 1];\r\n            // 移除数组中的最后一个元素\r\n            teachers[teacherId].assignedCourses.pop();\r\n        } else {\r\n            // 如果没有找到课程 ID，可以抛出一个错误或者进行其他处理\r\n            revert(\"Course not found\");\r\n        }\r\n    }\r\n\r\n    // 移除教师已分配课程\r\n    function removeTeacherReallyAssignedCourses(\r\n        uint256 teacherId,\r\n        uint256 _assignedCourses\r\n    ) public {\r\n        bool found = false;\r\n        uint256 indexToRemove;\r\n\r\n        // 遍历数组，找到课程 ID 的位置\r\n        for (\r\n            uint256 i = 0;\r\n            i < teachers[teacherId].reallyAssignedCourses.length;\r\n            i++\r\n        ) {\r\n            if (\r\n                teachers[teacherId].reallyAssignedCourses[i] == _assignedCourses\r\n            ) {\r\n                found = true;\r\n                indexToRemove = i;\r\n                break;\r\n            }\r\n        }\r\n\r\n        // 如果找到了课程 ID\r\n        if (found) {\r\n            // 将要移除的课程位置的元素替换为数组中最后一个元素\r\n            teachers[teacherId].reallyAssignedCourses[indexToRemove] = teachers[\r\n                teacherId\r\n            ].reallyAssignedCourses[\r\n                    teachers[teacherId].reallyAssignedCourses.length - 1\r\n                ];\r\n            // 移除数组中的最后一个元素\r\n            teachers[teacherId].reallyAssignedCourses.pop();\r\n        } else {\r\n            // 如果没有找到课程 ID，可以抛出一个错误或者进行其他处理\r\n            revert(\"Course not found\");\r\n        }\r\n    }\r\n\r\n    // 设置教师适合程度权重\r\n    function setTeacherSuitabilityWeight(\r\n        uint256 teacherId,\r\n        uint256 _suitabilityWeight\r\n    ) public onlyTeacher {\r\n        teachers[teacherId].suitabilityWeight = _suitabilityWeight;\r\n    }\r\n\r\n    // 设置教师工资\r\n    function setTeacherValue(\r\n        uint256 teacherId,\r\n        uint256 _value\r\n    ) public onlyTeacher {\r\n        teachers[teacherId].value = _value;\r\n    }\r\n\r\n    // 设置教师工资\r\n    function setAgentValue(uint256 agentId, uint256 _value) public {\r\n        agents[agentId].value = _value;\r\n    }\r\n\r\n    // 设置教师对所有课程的适合程度\r\n    function setAllTeacherCourseSuitability(\r\n        uint256 teacherId,\r\n        uint256[] calldata _suitabilities\r\n    ) public onlyTeacher {\r\n        require(\r\n            _suitabilities.length == courseIds.length,\r\n            \"When setting the suitability level of courses, it is necessary to have an equal number of courses\"\r\n        );\r\n        for (\r\n            uint256 courseIndex = 0;\r\n            courseIndex < courseIds.length;\r\n            courseIndex++\r\n        ) {\r\n            teachers[teacherId].courseSuitabilities[\r\n                courseIds[courseIndex]\r\n            ] = _suitabilities[courseIndex];\r\n        }\r\n    }\r\n\r\n    // 设置教师对课程的适合程度\r\n    function setTeacherCourseSuitability(\r\n        uint256 teacherId,\r\n        uint256 courseId,\r\n        uint256 _suitability\r\n    ) public {\r\n        teachers[teacherId].courseSuitabilities[courseId] = _suitability;\r\n    }\r\n\r\n    // 设置教师对所有课程的偏好程度\r\n    function setAllTeacherCoursePreferences(\r\n        uint256 teacherId,\r\n        uint256[] calldata _preferences\r\n    ) public onlyTeacher {\r\n        require(\r\n            _preferences.length == courseIds.length,\r\n            \"When setting the preference level of courses, it is necessary to have an equal number of courses\"\r\n        );\r\n        for (\r\n            uint256 courseIndex = 0;\r\n            courseIndex < courseIds.length;\r\n            courseIndex++\r\n        ) {\r\n            teachers[teacherId].coursePreferences[\r\n                courseIds[courseIndex]\r\n            ] = _preferences[courseIndex];\r\n        }\r\n    }\r\n\r\n    // 设置教师对课程的偏好程度\r\n    function setTeacherCoursePreferences(\r\n        uint256 teacherId,\r\n        uint256 courseId,\r\n        uint256 _preference\r\n    ) public onlyTeacher {\r\n        teachers[teacherId].coursePreferences[courseId] = _preference;\r\n    }\r\n\r\n    // 设置智能体ID\r\n    function setAgentId(address agentAddress, uint256 _agentId) public {\r\n        addressToAgentId[agentAddress] = _agentId;\r\n        agents[_agentId].id = _agentId;\r\n        agentIds.push(_agentId);\r\n    }\r\n\r\n    // 移除智能体\r\n    function removeAgent(uint256 agentId) public {\r\n        agents[agentId].id = 0;\r\n        // 从 agentIds 数组中移除智能体 ID\r\n        for (uint256 i = 0; i < agentIds.length; i++) {\r\n            if (agentIds[i] == agentId) {\r\n                // 将要移除的智能体 ID 位置的元素替换为数组中最后一个元素\r\n                agentIds[i] = agentIds[agentIds.length - 1];\r\n                // 移除数组中的最后一个元素\r\n                agentIds.pop();\r\n                break;\r\n            }\r\n        }\r\n    }\r\n\r\n    // 设置智能体姓名\r\n    function setAgentName(uint256 agentId, string calldata _name) public {\r\n        agents[agentId].name = _name;\r\n    }\r\n\r\n    // 设置智能体地址\r\n    function setAgentAddress(uint256 agentId, address _agentAddress) public {\r\n        agents[agentId].addr = _agentAddress;\r\n    }\r\n\r\n    // 添加智能体已分配课程\r\n    function addAgentAssignedCourses(\r\n        uint256 agentId,\r\n        uint256 _assignedCourses\r\n    ) public {\r\n        agents[agentId].assignedCourses.push(_assignedCourses);\r\n    }\r\n\r\n    // 移除智能体已分配课程\r\n    function removeAgentAssignedCourses(\r\n        uint256 agentId,\r\n        uint256 _assignedCourses\r\n    ) public {\r\n        bool found = false;\r\n        uint256 indexToRemove;\r\n\r\n        // 遍历数组，找到课程 ID 的位置\r\n        for (uint256 i = 0; i < agents[agentId].assignedCourses.length; i++) {\r\n            if (agents[agentId].assignedCourses[i] == _assignedCourses) {\r\n                found = true;\r\n                indexToRemove = i;\r\n                break;\r\n            }\r\n        }\r\n\r\n        // 如果找到了课程 ID\r\n        if (found) {\r\n            // 将要移除的课程位置的元素替换为数组中最后一个元素\r\n            agents[agentId].assignedCourses[indexToRemove] = agents[agentId]\r\n                .assignedCourses[agents[agentId].assignedCourses.length - 1];\r\n            // 移除数组中的最后一个元素\r\n            agents[agentId].assignedCourses.pop();\r\n        } else {\r\n            // 如果没有找到课程 ID，可以抛出一个错误或者进行其他处理\r\n            revert(\"Course not found\");\r\n        }\r\n    }\r\n\r\n    // 设置智能体对课程的适合程度\r\n    function setAgentCourseSuitability(\r\n        uint256 agentId,\r\n        uint256 _courseId,\r\n        uint256 _suitability\r\n    ) public {\r\n        agents[agentId].courseSuitabilities[_courseId] = _suitability;\r\n    }\r\n\r\n    // 设置智能体对课程的适合程度\r\n    function setAllAgentCourseSuitability(\r\n        uint256 agentId,\r\n        uint256[] calldata _suitabilities\r\n    ) public {\r\n        require(\r\n            _suitabilities.length == courseIds.length,\r\n            \"When setting the suitability level of courses, it is necessary to have an equal number of courses\"\r\n        );\r\n        for (\r\n            uint256 courseIndex = 0;\r\n            courseIndex < courseIds.length;\r\n            courseIndex++\r\n        ) {\r\n            agents[agentId].courseSuitabilities[\r\n                courseIds[courseIndex]\r\n            ] = _suitabilities[courseIndex];\r\n        }\r\n    }\r\n\r\n    // 设置班级ID\r\n    function setClassId(address classAddress, uint256 _id) public {\r\n        addressToClassId[classAddress] = _id;\r\n        classIds.push(_id);\r\n    }\r\n\r\n    // 移除班级\r\n    function removeClass(uint256 classId) public {\r\n        // 从 classIds 数组中移除智能体 ID\r\n        for (uint256 i = 0; i < classIds.length; i++) {\r\n            if (classIds[i] == classId) {\r\n                // 将要移除的班级 ID 位置的元素替换为数组中最后一个元素\r\n                classIds[i] = classIds[classIds.length - 1];\r\n                // 移除数组中的最后一个元素\r\n                classIds.pop();\r\n                break;\r\n            }\r\n        }\r\n    }\r\n\r\n    // 设置课程ID\r\n    function setCourseId(uint256 courseId) public {\r\n        courses[courseId].id = courseId;\r\n        courseIds.push(courseId);\r\n    }\r\n\r\n    // 移除课程\r\n    function removeCourse(uint256 courseId) public {\r\n        // 从 classIds 数组中移除智能体 ID\r\n        for (uint256 i = 0; i < courseIds.length; i++) {\r\n            if (courseIds[i] == courseId) {\r\n                // 将要移除的班级 ID 位置的元素替换为数组中最后一个元素\r\n                courseIds[i] = courseIds[courseIds.length - 1];\r\n                // 移除数组中的最后一个元素\r\n                courseIds.pop();\r\n                break;\r\n            }\r\n        }\r\n    }\r\n\r\n    // 设置课程名称\r\n    function setCourseName(uint256 courseId, string calldata _name) public {\r\n        courses[courseId].name = _name;\r\n    }\r\n\r\n    // 设置课程重要性\r\n    function setCourseImportance(uint256 courseId, uint256 _importance) public {\r\n        courses[courseId].importance = _importance;\r\n    }\r\n\r\n    // 管理员设置课程重要程度\r\n    function setAllCourseImportance(uint256[] memory _importances) public {\r\n        require(\r\n            _importances.length == courseIds.length,\r\n            \"must update all course suitability\"\r\n        );\r\n        // 更新课程适合度\r\n        for (\r\n            uint256 courseIndex = 0;\r\n            courseIndex < courseIds.length;\r\n            courseIndex++\r\n        ) {\r\n            courses[courseIds[courseIndex]].importance = _importances[\r\n                courseIndex\r\n            ];\r\n        }\r\n    }\r\n\r\n    // 添加课程分配的教师ID\r\n    function addCourseAssignedTeacherId(\r\n        uint256 courseId,\r\n        uint256 _teacherId\r\n    ) public {\r\n        courses[courseId].assignedTeacherId.push(_teacherId);\r\n    }\r\n\r\n    // 添加课程分配的智能体ID\r\n    function addCourseAssignedAgentId(\r\n        uint256 courseId,\r\n        uint256 _agentId\r\n    ) public {\r\n        courses[courseId].assignedAgentId.push(_agentId);\r\n    }\r\n\r\n    // 移除课程已分配的老师\r\n    function removeCourseAssignedTeacherId(\r\n        uint256 courseId,\r\n        uint256 _teacherId\r\n    ) public {\r\n        bool found = false;\r\n        uint256 indexToRemove;\r\n\r\n        // 遍历数组，找到课程 ID 的位置\r\n        for (\r\n            uint256 i = 0;\r\n            i < courses[courseId].assignedTeacherId.length;\r\n            i++\r\n        ) {\r\n            if (courses[courseId].assignedTeacherId[i] == _teacherId) {\r\n                found = true;\r\n                indexToRemove = i;\r\n                break;\r\n            }\r\n        }\r\n\r\n        // 如果找到了课程 ID\r\n        if (found) {\r\n            // 将要移除的课程位置的元素替换为数组中最后一个元素\r\n            courses[courseId].assignedTeacherId[indexToRemove] = courses[\r\n                courseId\r\n            ].assignedTeacherId[courses[courseId].assignedTeacherId.length - 1];\r\n            // 移除数组中的最后一个元素\r\n            courses[courseId].assignedTeacherId.pop();\r\n        } else {\r\n            // 如果没有找到课程 ID，可以抛出一个错误或者进行其他处理\r\n            revert(\"Course not found\");\r\n        }\r\n    }\r\n\r\n    // 移除课程已分配的智能体\r\n    function removeCourseAssignedAgentId(\r\n        uint256 courseId,\r\n        uint256 _agentId\r\n    ) public {\r\n        bool found = false;\r\n        uint256 indexToRemove;\r\n\r\n        // 遍历数组，找到课程 ID 的位置\r\n        for (uint256 i = 0; i < courses[courseId].assignedAgentId.length; i++) {\r\n            if (courses[courseId].assignedAgentId[i] == _agentId) {\r\n                found = true;\r\n                indexToRemove = i;\r\n                break;\r\n            }\r\n        }\r\n\r\n        // 如果找到了课程 ID\r\n        if (found) {\r\n            // 将要移除的课程位置的元素替换为数组中最后一个元素\r\n            courses[courseId].assignedAgentId[indexToRemove] = courses[courseId]\r\n                .assignedAgentId[courses[courseId].assignedAgentId.length - 1];\r\n            // 移除数组中的最后一个元素\r\n            courses[courseId].assignedAgentId.pop();\r\n        } else {\r\n            // 如果没有找到课程 ID，可以抛出一个错误或者进行其他处理\r\n            revert(\"Course not found\");\r\n        }\r\n    }\r\n\r\n    // 设置课程是否适合智能体\r\n    function setCourseIsAgentSuitable(\r\n        uint256 courseId,\r\n        bool _isAgentSuitable\r\n    ) public {\r\n        courses[courseId].isAgentSuitable = _isAgentSuitable;\r\n    }\r\n\r\n    // 设置教师计数器\r\n    function setTeacherCount(uint256 _teacherCount) public {\r\n        teacherCount = _teacherCount;\r\n    }\r\n\r\n    // 设置智能体计数器\r\n    function setAgentCount(uint256 _agentCount) public {\r\n        agentCount = _agentCount;\r\n    }\r\n\r\n    // 设置班级计数器\r\n    function setClassCount(uint256 _classCount) public {\r\n        classCount = _classCount;\r\n    }\r\n\r\n    // 设置课程计数器\r\n    function setCourseCount(uint256 _courseCount) public {\r\n        courseCount = _courseCount;\r\n    }\r\n\r\n    // 获取教师对课程的适合程度\r\n    function getTeacherSuitability(\r\n        uint256 _teacherId,\r\n        uint256 courseId\r\n    ) public view returns (uint256) {\r\n        return teachers[_teacherId].courseSuitabilities[courseId];\r\n    }\r\n\r\n    // 获取智能体对课程的适合程度\r\n    function getAgentSuitability(\r\n        uint256 _agentId,\r\n        uint256 courseId\r\n    ) public view returns (uint256) {\r\n        return agents[_agentId].courseSuitabilities[courseId];\r\n    }\r\n\r\n    // 获取教师对课程的偏好程度\r\n    function getPreference(\r\n        uint256 _teacherId,\r\n        uint256 courseId\r\n    ) public view returns (uint256) {\r\n        return teachers[_teacherId].coursePreferences[courseId];\r\n    }\r\n\r\n    // 获取老师分配的课程\r\n    function getTeacherAssignedCourses(\r\n        uint256 _teacherId\r\n    ) public view returns (uint256[] memory) {\r\n        return teachers[_teacherId].assignedCourses;\r\n    }\r\n\r\n    // 获取老师真正分配的课程\r\n    function getTeacherReallyAssignedCourses(\r\n        uint256 _teacherId\r\n    ) public view returns (uint256[] memory) {\r\n        return teachers[_teacherId].reallyAssignedCourses;\r\n    }\r\n\r\n    // 获取智能体分配的课程\r\n    function getAgentAssignedCourses(\r\n        uint256 _agentId\r\n    ) public view returns (uint256[] memory) {\r\n        return agents[_agentId].assignedCourses;\r\n    }\r\n\r\n    // 获取课程被分配给的老师\r\n    function getCoursesAssignedTeacher(\r\n        uint256 _courseId\r\n    ) public view returns (uint256[] memory) {\r\n        return courses[_courseId].assignedTeacherId;\r\n    }\r\n\r\n    // 获取课程被分配给的智能体\r\n    function getCoursesAssignedAgent(\r\n        uint256 _courseId\r\n    ) public view returns (uint256[] memory) {\r\n        return courses[_courseId].assignedAgentId;\r\n    }\r\n\r\n    function getTeacherIds() public view returns (uint256[] memory) {\r\n        return teacherIds;\r\n    }\r\n\r\n    function getAgentIds() public view returns (uint256[] memory) {\r\n        return agentIds;\r\n    }\r\n\r\n    function getCourseIds() public view returns (uint256[] memory) {\r\n        return courseIds;\r\n    }\r\n\r\n    function getClassIds() public view returns (uint256[] memory) {\r\n        return classIds;\r\n    }\r\n\r\n    function getCourseCount() public view returns (uint256) {\r\n        return courseCount;\r\n    }\r\n}\r\n",
  "sourcePath": "E:\\dao\\327\\Course-allocation\\project\\contracts\\CourseAllocation.sol",
  "compiler": {
    "name": "solc",
    "version": "0.8.7+commit.e28d00a7.Emscripten.clang"
  },
  "schemaVersion": "3.4.16",
  "updatedAt": "2025-04-05T03:52:03.895Z",
  "networkType": "ethereum",
  "devdoc": {
    "kind": "dev",
    "methods": {},
    "version": 1
  },
  "userdoc": {
    "kind": "user",
    "methods": {},
    "version": 1
  }
}