{
  "contractName": "Finance",
  "abi": [
    {
      "inputs": [],
      "stateMutability": "payable",
      "type": "constructor"
    },
    {
      "stateMutability": "payable",
      "type": "fallback"
    },
    {
      "inputs": [],
      "name": "money",
      "outputs": [
        {
          "internalType": "uint256",
          "name": "",
          "type": "uint256"
        }
      ],
      "stateMutability": "view",
      "type": "function"
    },
    {
      "inputs": [
        {
          "internalType": "uint256",
          "name": "",
          "type": "uint256"
        }
      ],
      "name": "transfers",
      "outputs": [
        {
          "internalType": "address",
          "name": "from",
          "type": "address"
        },
        {
          "internalType": "address",
          "name": "to",
          "type": "address"
        },
        {
          "internalType": "uint256",
          "name": "amount",
          "type": "uint256"
        },
        {
          "internalType": "uint256",
          "name": "timestamp",
          "type": "uint256"
        }
      ],
      "stateMutability": "view",
      "type": "function"
    },
    {
      "stateMutability": "payable",
      "type": "receive"
    },
    {
      "inputs": [
        {
          "internalType": "address",
          "name": "addr",
          "type": "address"
        },
        {
          "internalType": "uint256",
          "name": "amount",
          "type": "uint256"
        }
      ],
      "name": "sendValue",
      "outputs": [],
      "stateMutability": "nonpayable",
      "type": "function"
    },
    {
      "inputs": [
        {
          "internalType": "address payable",
          "name": "addr",
          "type": "address"
        }
      ],
      "name": "getBalance",
      "outputs": [
        {
          "internalType": "uint256",
          "name": "",
          "type": "uint256"
        }
      ],
      "stateMutability": "view",
      "type": "function"
    },
    {
      "inputs": [],
      "name": "deposit",
      "outputs": [],
      "stateMutability": "payable",
      "type": "function"
    }
  ],
  "bytecode": "0x608060405233600260006101000a81548173ffffffffffffffffffffffffffffffffffffffff021916908373ffffffffffffffffffffffffffffffffffffffff160217905550346001819055506108e28061005b6000396000f3fe60806040526004361061004e5760003560e01c806324a084df1461009f5780634ddd108a146100c85780639377d711146100f3578063d0e30db014610133578063f8b2cb4f1461013d57610079565b3661007957346001600082825461006591906106af565b9250508190555061007733303461017a565b005b346001600082825461008b91906106af565b9250508190555061009d33303461017a565b005b3480156100ab57600080fd5b506100c660048036038101906100c1919061052d565b61029b565b005b3480156100d457600080fd5b506100dd6103b1565b6040516100ea9190610683565b60405180910390f35b3480156100ff57600080fd5b5061011a6004803603810190610115919061056d565b6103b7565b60405161012a94939291906105fe565b60405180910390f35b61013b610437565b005b34801561014957600080fd5b50610164600480360381019061015f9190610500565b6104a0565b6040516101719190610683565b60405180910390f35b600060405180608001604052808573ffffffffffffffffffffffffffffffffffffffff1681526020018473ffffffffffffffffffffffffffffffffffffffff16815260200183815260200142815250908060018154018082558091505060019003906000526020600020906004020160009091909190915060008201518160000160006101000a81548173ffffffffffffffffffffffffffffffffffffffff021916908373ffffffffffffffffffffffffffffffffffffffff16021790555060208201518160010160006101000a81548173ffffffffffffffffffffffffffffffffffffffff021916908373ffffffffffffffffffffffffffffffffffffffff16021790555060408201518160020155606082015181600301555050505050565b6000829050600082116102e3576040517f08c379a00000000000000000000000000000000000000000000000000000000081526004016102da90610643565b60405180910390fd5b6000670de0b6b3a7640000836102f99190610705565b9050806001541015610340576040517f08c379a000000000000000000000000000000000000000000000000000000000815260040161033790610663565b60405180910390fd5b8173ffffffffffffffffffffffffffffffffffffffff166108fc829081150290604051600060405180830381858888f19350505050158015610386573d6000803e3d6000fd5b508060016000828254610399919061075f565b925050819055506103ab33858361017a565b50505050565b60015481565b600081815481106103c757600080fd5b90600052602060002090600402016000915090508060000160009054906101000a900473ffffffffffffffffffffffffffffffffffffffff16908060010160009054906101000a900473ffffffffffffffffffffffffffffffffffffffff16908060020154908060030154905084565b6000341161047a576040517f08c379a000000000000000000000000000000000000000000000000000000000815260040161047190610643565b60405180910390fd5b346001600082825461048c91906106af565b9250508190555061049e33303461017a565b565b60008173ffffffffffffffffffffffffffffffffffffffff16319050919050565b6000813590506104d081610867565b92915050565b6000813590506104e58161087e565b92915050565b6000813590506104fa81610895565b92915050565b60006020828403121561051657610515610810565b5b6000610524848285016104d6565b91505092915050565b6000806040838503121561054457610543610810565b5b6000610552858286016104c1565b9250506020610563858286016104eb565b9150509250929050565b60006020828403121561058357610582610810565b5b6000610591848285016104eb565b91505092915050565b6105a381610793565b82525050565b60006105b660208361069e565b91506105c182610815565b602082019050919050565b60006105d9601d8361069e565b91506105e48261083e565b602082019050919050565b6105f8816107d7565b82525050565b6000608082019050610613600083018761059a565b610620602083018661059a565b61062d60408301856105ef565b61063a60608301846105ef565b95945050505050565b6000602082019050818103600083015261065c816105a9565b9050919050565b6000602082019050818103600083015261067c816105cc565b9050919050565b600060208201905061069860008301846105ef565b92915050565b600082825260208201905092915050565b60006106ba826107d7565b91506106c5836107d7565b9250827fffffffffffffffffffffffffffffffffffffffffffffffffffffffffffffffff038211156106fa576106f96107e1565b5b828201905092915050565b6000610710826107d7565b915061071b836107d7565b9250817fffffffffffffffffffffffffffffffffffffffffffffffffffffffffffffffff0483118215151615610754576107536107e1565b5b828202905092915050565b600061076a826107d7565b9150610775836107d7565b925082821015610788576107876107e1565b5b828203905092915050565b600061079e826107b7565b9050919050565b60006107b0826107b7565b9050919050565b600073ffffffffffffffffffffffffffffffffffffffff82169050919050565b6000819050919050565b7f4e487b7100000000000000000000000000000000000000000000000000000000600052601160045260246000fd5b600080fd5b7f416d6f756e74206d7573742062652067726561746572207468616e207a65726f600082015250565b7f496e73756666696369656e7420636f6e74726163742062616c616e6365000000600082015250565b61087081610793565b811461087b57600080fd5b50565b610887816107a5565b811461089257600080fd5b50565b61089e816107d7565b81146108a957600080fd5b5056fea26469706673582212206c6b4d808e31c19150b4f7237efe6726cbd0365f7eb2c6f6879c85bf58657f4f64736f6c63430008070033",
  "immutableReferences": {},
  "source": "// \r\n// SPDX-License-Identifier: GPL-3.0-or-later\r\n\r\n// \r\npragma solidity ^0.8.7;\r\n\r\ncontract Finance {\r\n    \r\n    struct Transfer {\r\n        address from;\r\n        address to;\r\n        uint256 amount;\r\n        uint256 timestamp;\r\n    }\r\n\r\n    Transfer[] public transfers;\r\n\r\n    uint256 public money;   // \r\n    address payable owner; // \r\n\r\n    constructor() payable { // \r\n        owner = payable(msg.sender); // \r\n        money = msg.value;          // \r\n    }\r\n\r\n    // \r\n    function sendValue(address addr, uint256 amount) public {\r\n        address payable addr_pay = payable(addr);\r\n        require(amount > 0, \"Amount must be greater than zero\"); // \r\n        uint256 amountInWei = amount * 10**18; //  ETH  Wei\r\n        require(money >= amountInWei, \"Insufficient contract balance\"); // \r\n\r\n        addr_pay.transfer(amountInWei); //  Wei \r\n        money -= amountInWei;       // \r\n        recordTransfer(msg.sender, addr, amountInWei); // \r\n    }\r\n\r\n    // \r\n    function getBalance(address payable addr) public view returns (uint256) {\r\n        return addr.balance; // \r\n    }\r\n\r\n    // \r\n    function deposit() public payable {\r\n        require(msg.value > 0, \"Amount must be greater than zero\");\r\n        money += msg.value; // \r\n        recordTransfer(msg.sender, address(this), msg.value); // \r\n    }\r\n\r\n    // \r\n    function recordTransfer(address from, address to, uint256 amount) private {\r\n        transfers.push(Transfer(from, to, amount, block.timestamp)); // \r\n    }\r\n\r\n    // fallbackpayable\r\n    fallback() external payable {\r\n        money += msg.value; // \r\n        recordTransfer(msg.sender, address(this), msg.value); // \r\n    }\r\n                   \r\n    receive() external payable {\r\n        money += msg.value; // \r\n        recordTransfer(msg.sender, address(this), msg.value); // \r\n    }\r\n}",
  "sourcePath": "E:\\\\paper\\DAO\\test\\project\\contracts\\Finance\\finance.sol",
  "compiler": {
    "name": "solc",
    "version": "0.8.7+commit.e28d00a7.Emscripten.clang"
  },
  "schemaVersion": "3.4.16",
  "updatedAt": "2025-03-10T08:21:30.205Z",
  "devdoc": {
    "kind": "dev",
    "methods": {},
    "version": 1
  },
  "userdoc": {
    "kind": "user",
    "methods": {},
    "version": 1
  }
}