{
  "contractName": "ICourseAllocation",
  "abi": [
    {
      "inputs": [],
      "stateMutability": "nonpayable",
      "type": "constructor"
    },
    {
      "inputs": [],
      "name": "ScoreTypeChioce",
      "outputs": [
        {
          "internalType": "string",
          "name": "",
          "type": "string"
        }
      ],
      "stateMutability": "view",
      "type": "function",
      "constant": true
    },
    {
      "inputs": [
        {
          "internalType": "address",
          "name": "",
          "type": "address"
        }
      ],
      "name": "addressToAgentId",
      "outputs": [
        {
          "internalType": "uint256",
          "name": "",
          "type": "uint256"
        }
      ],
      "stateMutability": "view",
      "type": "function",
      "constant": true
    },
    {
      "inputs": [
        {
          "internalType": "address",
          "name": "",
          "type": "address"
        }
      ],
      "name": "addressToClassId",
      "outputs": [
        {
          "internalType": "uint256",
          "name": "",
          "type": "uint256"
        }
      ],
      "stateMutability": "view",
      "type": "function",
      "constant": true
    },
    {
      "inputs": [
        {
          "internalType": "address",
          "name": "",
          "type": "address"
        }
      ],
      "name": "addressToSupervisorId",
      "outputs": [
        {
          "internalType": "uint256",
          "name": "",
          "type": "uint256"
        }
      ],
      "stateMutability": "view",
      "type": "function",
      "constant": true
    },
    {
      "inputs": [
        {
          "internalType": "address",
          "name": "",
          "type": "address"
        }
      ],
      "name": "addressToTeacherId",
      "outputs": [
        {
          "internalType": "uint256",
          "name": "",
          "type": "uint256"
        }
      ],
      "stateMutability": "view",
      "type": "function",
      "constant": true
    },
    {
      "inputs": [],
      "name": "agentCount",
      "outputs": [
        {
          "internalType": "uint256",
          "name": "",
          "type": "uint256"
        }
      ],
      "stateMutability": "view",
      "type": "function",
      "constant": true
    },
    {
      "inputs": [
        {
          "internalType": "uint256",
          "name": "",
          "type": "uint256"
        }
      ],
      "name": "agentIds",
      "outputs": [
        {
          "internalType": "uint256",
          "name": "",
          "type": "uint256"
        }
      ],
      "stateMutability": "view",
      "type": "function",
      "constant": true
    },
    {
      "inputs": [
        {
          "internalType": "uint256",
          "name": "",
          "type": "uint256"
        }
      ],
      "name": "agents",
      "outputs": [
        {
          "internalType": "uint256",
          "name": "id",
          "type": "uint256"
        },
        {
          "internalType": "string",
          "name": "name",
          "type": "string"
        },
        {
          "internalType": "address",
          "name": "addr",
          "type": "address"
        },
        {
          "internalType": "uint256",
          "name": "value",
          "type": "uint256"
        }
      ],
      "stateMutability": "view",
      "type": "function",
      "constant": true
    },
    {
      "inputs": [],
      "name": "classCount",
      "outputs": [
        {
          "internalType": "uint256",
          "name": "",
          "type": "uint256"
        }
      ],
      "stateMutability": "view",
      "type": "function",
      "constant": true
    },
    {
      "inputs": [
        {
          "internalType": "uint256",
          "name": "",
          "type": "uint256"
        }
      ],
      "name": "classIds",
      "outputs": [
        {
          "internalType": "uint256",
          "name": "",
          "type": "uint256"
        }
      ],
      "stateMutability": "view",
      "type": "function",
      "constant": true
    },
    {
      "inputs": [],
      "name": "courseCount",
      "outputs": [
        {
          "internalType": "uint256",
          "name": "",
          "type": "uint256"
        }
      ],
      "stateMutability": "view",
      "type": "function",
      "constant": true
    },
    {
      "inputs": [
        {
          "internalType": "uint256",
          "name": "",
          "type": "uint256"
        }
      ],
      "name": "courseIds",
      "outputs": [
        {
          "internalType": "uint256",
          "name": "",
          "type": "uint256"
        }
      ],
      "stateMutability": "view",
      "type": "function",
      "constant": true
    },
    {
      "inputs": [
        {
          "internalType": "uint256",
          "name": "",
          "type": "uint256"
        }
      ],
      "name": "courseScores",
      "outputs": [
        {
          "internalType": "uint256",
          "name": "id",
          "type": "uint256"
        },
        {
          "internalType": "uint256",
          "name": "totalScore",
          "type": "uint256"
        }
      ],
      "stateMutability": "view",
      "type": "function",
      "constant": true
    },
    {
      "inputs": [
        {
          "internalType": "uint256",
          "name": "",
          "type": "uint256"
        }
      ],
      "name": "courses",
      "outputs": [
        {
          "internalType": "uint256",
          "name": "id",
          "type": "uint256"
        },
        {
          "internalType": "string",
          "name": "name",
          "type": "string"
        },
        {
          "internalType": "uint256",
          "name": "importance",
          "type": "uint256"
        }
      ],
      "stateMutability": "view",
      "type": "function",
      "constant": true
    },
    {
      "inputs": [],
      "name": "supervisorCount",
      "outputs": [
        {
          "internalType": "uint256",
          "name": "",
          "type": "uint256"
        }
      ],
      "stateMutability": "view",
      "type": "function",
      "constant": true
    },
    {
      "inputs": [
        {
          "internalType": "uint256",
          "name": "",
          "type": "uint256"
        }
      ],
      "name": "supervisorIds",
      "outputs": [
        {
          "internalType": "uint256",
          "name": "",
          "type": "uint256"
        }
      ],
      "stateMutability": "view",
      "type": "function",
      "constant": true
    },
    {
      "inputs": [
        {
          "internalType": "uint256",
          "name": "",
          "type": "uint256"
        }
      ],
      "name": "supervisors",
      "outputs": [
        {
          "internalType": "uint256",
          "name": "id",
          "type": "uint256"
        },
        {
          "internalType": "string",
          "name": "name",
          "type": "string"
        },
        {
          "internalType": "address",
          "name": "addr",
          "type": "address"
        }
      ],
      "stateMutability": "view",
      "type": "function",
      "constant": true
    },
    {
      "inputs": [],
      "name": "teacherCount",
      "outputs": [
        {
          "internalType": "uint256",
          "name": "",
          "type": "uint256"
        }
      ],
      "stateMutability": "view",
      "type": "function",
      "constant": true
    },
    {
      "inputs": [
        {
          "internalType": "uint256",
          "name": "",
          "type": "uint256"
        }
      ],
      "name": "teacherIds",
      "outputs": [
        {
          "internalType": "uint256",
          "name": "",
          "type": "uint256"
        }
      ],
      "stateMutability": "view",
      "type": "function",
      "constant": true
    },
    {
      "inputs": [
        {
          "internalType": "uint256",
          "name": "",
          "type": "uint256"
        }
      ],
      "name": "teachers",
      "outputs": [
        {
          "internalType": "uint256",
          "name": "id",
          "type": "uint256"
        },
        {
          "internalType": "string",
          "name": "name",
          "type": "string"
        },
        {
          "internalType": "address",
          "name": "addr",
          "type": "address"
        },
        {
          "internalType": "uint256",
          "name": "suitabilityWeight",
          "type": "uint256"
        },
        {
          "internalType": "uint256",
          "name": "transferCourseCoins",
          "type": "uint256"
        },
        {
          "internalType": "uint256",
          "name": "value",
          "type": "uint256"
        }
      ],
      "stateMutability": "view",
      "type": "function",
      "constant": true
    },
    {
      "inputs": [],
      "name": "totalWeight",
      "outputs": [
        {
          "internalType": "uint256",
          "name": "",
          "type": "uint256"
        }
      ],
      "stateMutability": "view",
      "type": "function",
      "constant": true
    },
    {
      "inputs": [],
      "name": "transferCourseEndTime",
      "outputs": [
        {
          "internalType": "uint256",
          "name": "",
          "type": "uint256"
        }
      ],
      "stateMutability": "view",
      "type": "function",
      "constant": true
    },
    {
      "inputs": [],
      "name": "transferCourseNumbers",
      "outputs": [
        {
          "internalType": "uint256",
          "name": "",
          "type": "uint256"
        }
      ],
      "stateMutability": "view",
      "type": "function",
      "constant": true
    },
    {
      "inputs": [],
      "name": "transferCourseStartTime",
      "outputs": [
        {
          "internalType": "uint256",
          "name": "",
          "type": "uint256"
        }
      ],
      "stateMutability": "view",
      "type": "function",
      "constant": true
    },
    {
      "inputs": [
        {
          "internalType": "address",
          "name": "teacherAddress",
          "type": "address"
        },
        {
          "internalType": "uint256",
          "name": "_TeacherId",
          "type": "uint256"
        }
      ],
      "name": "setTeacherId",
      "outputs": [],
      "stateMutability": "nonpayable",
      "type": "function"
    },
    {
      "inputs": [
        {
          "internalType": "uint256",
          "name": "teacherId",
          "type": "uint256"
        }
      ],
      "name": "removeTeacher",
      "outputs": [],
      "stateMutability": "nonpayable",
      "type": "function"
    },
    {
      "inputs": [
        {
          "internalType": "uint256",
          "name": "teacherId",
          "type": "uint256"
        },
        {
          "internalType": "string",
          "name": "_name",
          "type": "string"
        }
      ],
      "name": "setTeacherName",
      "outputs": [],
      "stateMutability": "nonpayable",
      "type": "function"
    },
    {
      "inputs": [
        {
          "internalType": "uint256",
          "name": "teacherId",
          "type": "uint256"
        },
        {
          "internalType": "address",
          "name": "_teacherAddress",
          "type": "address"
        }
      ],
      "name": "setTeacherAddress",
      "outputs": [],
      "stateMutability": "nonpayable",
      "type": "function"
    },
    {
      "inputs": [
        {
          "internalType": "uint256",
          "name": "teacherId",
          "type": "uint256"
        },
        {
          "internalType": "uint256",
          "name": "_assignedCourses",
          "type": "uint256"
        }
      ],
      "name": "addTeacherAssignedCourses",
      "outputs": [],
      "stateMutability": "nonpayable",
      "type": "function"
    },
    {
      "inputs": [
        {
          "internalType": "uint256",
          "name": "teacherId",
          "type": "uint256"
        },
        {
          "internalType": "uint256",
          "name": "_assignedCourses",
          "type": "uint256"
        }
      ],
      "name": "addTeacherReallyAssignedCourses",
      "outputs": [],
      "stateMutability": "nonpayable",
      "type": "function"
    },
    {
      "inputs": [
        {
          "internalType": "uint256",
          "name": "teacherId",
          "type": "uint256"
        },
        {
          "internalType": "uint256",
          "name": "_assignedCourses",
          "type": "uint256"
        }
      ],
      "name": "removeTeacherAssignedCourses",
      "outputs": [],
      "stateMutability": "nonpayable",
      "type": "function"
    },
    {
      "inputs": [
        {
          "internalType": "uint256",
          "name": "teacherId",
          "type": "uint256"
        },
        {
          "internalType": "uint256",
          "name": "_assignedCourses",
          "type": "uint256"
        }
      ],
      "name": "removeTeacherReallyAssignedCourses",
      "outputs": [],
      "stateMutability": "nonpayable",
      "type": "function"
    },
    {
      "inputs": [
        {
          "internalType": "uint256",
          "name": "teacherId",
          "type": "uint256"
        },
        {
          "internalType": "uint256",
          "name": "_suitabilityWeight",
          "type": "uint256"
        }
      ],
      "name": "setTeacherSuitabilityWeight",
      "outputs": [],
      "stateMutability": "nonpayable",
      "type": "function"
    },
    {
      "inputs": [
        {
          "internalType": "uint256",
          "name": "teacherId",
          "type": "uint256"
        },
        {
          "internalType": "uint256",
          "name": "_transferCourseCoins",
          "type": "uint256"
        }
      ],
      "name": "setTeacherTransferCourseCoins",
      "outputs": [],
      "stateMutability": "nonpayable",
      "type": "function"
    },
    {
      "inputs": [
        {
          "internalType": "uint256",
          "name": "teacherId",
          "type": "uint256"
        },
        {
          "internalType": "uint256",
          "name": "_value",
          "type": "uint256"
        }
      ],
      "name": "setTeacherValue",
      "outputs": [],
      "stateMutability": "nonpayable",
      "type": "function"
    },
    {
      "inputs": [
        {
          "internalType": "uint256",
          "name": "agentId",
          "type": "uint256"
        },
        {
          "internalType": "uint256",
          "name": "_value",
          "type": "uint256"
        }
      ],
      "name": "setAgentValue",
      "outputs": [],
      "stateMutability": "nonpayable",
      "type": "function"
    },
    {
      "inputs": [
        {
          "internalType": "uint256",
          "name": "teacherId",
          "type": "uint256"
        },
        {
          "internalType": "uint256[]",
          "name": "_suitabilities",
          "type": "uint256[]"
        }
      ],
      "name": "setAllTeacherCourseSuitability",
      "outputs": [],
      "stateMutability": "nonpayable",
      "type": "function"
    },
    {
      "inputs": [
        {
          "internalType": "uint256",
          "name": "teacherId",
          "type": "uint256"
        },
        {
          "internalType": "uint256",
          "name": "courseId",
          "type": "uint256"
        },
        {
          "internalType": "uint256",
          "name": "_suitability",
          "type": "uint256"
        }
      ],
      "name": "setTeacherCourseSuitability",
      "outputs": [],
      "stateMutability": "nonpayable",
      "type": "function"
    },
    {
      "inputs": [
        {
          "internalType": "uint256",
          "name": "teacherId",
          "type": "uint256"
        },
        {
          "internalType": "uint256[]",
          "name": "_preferences",
          "type": "uint256[]"
        }
      ],
      "name": "setAllTeacherCoursePreferences",
      "outputs": [],
      "stateMutability": "nonpayable",
      "type": "function"
    },
    {
      "inputs": [
        {
          "internalType": "uint256",
          "name": "teacherId",
          "type": "uint256"
        },
        {
          "internalType": "uint256",
          "name": "courseId",
          "type": "uint256"
        },
        {
          "internalType": "uint256",
          "name": "_preference",
          "type": "uint256"
        }
      ],
      "name": "setTeacherCoursePreferences",
      "outputs": [],
      "stateMutability": "nonpayable",
      "type": "function"
    },
    {
      "inputs": [
        {
          "internalType": "address",
          "name": "agentAddress",
          "type": "address"
        },
        {
          "internalType": "uint256",
          "name": "_agentId",
          "type": "uint256"
        }
      ],
      "name": "setAgentId",
      "outputs": [],
      "stateMutability": "nonpayable",
      "type": "function"
    },
    {
      "inputs": [
        {
          "internalType": "uint256",
          "name": "agentId",
          "type": "uint256"
        }
      ],
      "name": "removeAgent",
      "outputs": [],
      "stateMutability": "nonpayable",
      "type": "function"
    },
    {
      "inputs": [
        {
          "internalType": "uint256",
          "name": "agentId",
          "type": "uint256"
        },
        {
          "internalType": "string",
          "name": "_name",
          "type": "string"
        }
      ],
      "name": "setAgentName",
      "outputs": [],
      "stateMutability": "nonpayable",
      "type": "function"
    },
    {
      "inputs": [
        {
          "internalType": "uint256",
          "name": "agentId",
          "type": "uint256"
        },
        {
          "internalType": "address",
          "name": "_agentAddress",
          "type": "address"
        }
      ],
      "name": "setAgentAddress",
      "outputs": [],
      "stateMutability": "nonpayable",
      "type": "function"
    },
    {
      "inputs": [
        {
          "internalType": "uint256",
          "name": "agentId",
          "type": "uint256"
        },
        {
          "internalType": "uint256",
          "name": "_assignedCourses",
          "type": "uint256"
        }
      ],
      "name": "addAgentAssignedCourses",
      "outputs": [],
      "stateMutability": "nonpayable",
      "type": "function"
    },
    {
      "inputs": [
        {
          "internalType": "uint256",
          "name": "agentId",
          "type": "uint256"
        },
        {
          "internalType": "uint256",
          "name": "_assignedCourses",
          "type": "uint256"
        }
      ],
      "name": "removeAgentAssignedCourses",
      "outputs": [],
      "stateMutability": "nonpayable",
      "type": "function"
    },
    {
      "inputs": [
        {
          "internalType": "uint256",
          "name": "agentId",
          "type": "uint256"
        },
        {
          "internalType": "uint256",
          "name": "_courseId",
          "type": "uint256"
        },
        {
          "internalType": "uint256",
          "name": "_suitability",
          "type": "uint256"
        }
      ],
      "name": "setAgentCourseSuitability",
      "outputs": [],
      "stateMutability": "nonpayable",
      "type": "function"
    },
    {
      "inputs": [
        {
          "internalType": "uint256",
          "name": "agentId",
          "type": "uint256"
        },
        {
          "internalType": "uint256[]",
          "name": "_suitabilities",
          "type": "uint256[]"
        }
      ],
      "name": "setAllAgentCourseSuitability",
      "outputs": [],
      "stateMutability": "nonpayable",
      "type": "function"
    },
    {
      "inputs": [
        {
          "internalType": "address",
          "name": "classAddress",
          "type": "address"
        },
        {
          "internalType": "uint256",
          "name": "_id",
          "type": "uint256"
        }
      ],
      "name": "setClassId",
      "outputs": [],
      "stateMutability": "nonpayable",
      "type": "function"
    },
    {
      "inputs": [
        {
          "internalType": "uint256",
          "name": "classId",
          "type": "uint256"
        }
      ],
      "name": "removeClass",
      "outputs": [],
      "stateMutability": "nonpayable",
      "type": "function"
    },
    {
      "inputs": [
        {
          "internalType": "uint256",
          "name": "courseId",
          "type": "uint256"
        }
      ],
      "name": "setCourseId",
      "outputs": [],
      "stateMutability": "nonpayable",
      "type": "function"
    },
    {
      "inputs": [
        {
          "internalType": "uint256",
          "name": "courseId",
          "type": "uint256"
        }
      ],
      "name": "removeCourse",
      "outputs": [],
      "stateMutability": "nonpayable",
      "type": "function"
    },
    {
      "inputs": [
        {
          "internalType": "uint256",
          "name": "courseId",
          "type": "uint256"
        },
        {
          "internalType": "string",
          "name": "_name",
          "type": "string"
        }
      ],
      "name": "setCourseName",
      "outputs": [],
      "stateMutability": "nonpayable",
      "type": "function"
    },
    {
      "inputs": [
        {
          "internalType": "uint256",
          "name": "courseId",
          "type": "uint256"
        },
        {
          "internalType": "uint256",
          "name": "_importance",
          "type": "uint256"
        }
      ],
      "name": "setCourseImportance",
      "outputs": [],
      "stateMutability": "nonpayable",
      "type": "function"
    },
    {
      "inputs": [
        {
          "internalType": "uint256[]",
          "name": "_importances",
          "type": "uint256[]"
        }
      ],
      "name": "setAllCourseImportance",
      "outputs": [],
      "stateMutability": "nonpayable",
      "type": "function"
    },
    {
      "inputs": [
        {
          "internalType": "uint256",
          "name": "courseId",
          "type": "uint256"
        },
        {
          "internalType": "uint256",
          "name": "_teacherId",
          "type": "uint256"
        }
      ],
      "name": "addCourseAssignedTeacherId",
      "outputs": [],
      "stateMutability": "nonpayable",
      "type": "function"
    },
    {
      "inputs": [
        {
          "internalType": "uint256",
          "name": "courseId",
          "type": "uint256"
        },
        {
          "internalType": "uint256",
          "name": "_agentId",
          "type": "uint256"
        }
      ],
      "name": "addCourseAssignedAgentId",
      "outputs": [],
      "stateMutability": "nonpayable",
      "type": "function"
    },
    {
      "inputs": [
        {
          "internalType": "uint256",
          "name": "courseId",
          "type": "uint256"
        },
        {
          "internalType": "uint256",
          "name": "_teacherId",
          "type": "uint256"
        }
      ],
      "name": "removeCourseAssignedTeacherId",
      "outputs": [],
      "stateMutability": "nonpayable",
      "type": "function"
    },
    {
      "inputs": [
        {
          "internalType": "uint256",
          "name": "courseId",
          "type": "uint256"
        },
        {
          "internalType": "uint256",
          "name": "_agentId",
          "type": "uint256"
        }
      ],
      "name": "removeCourseAssignedAgentId",
      "outputs": [],
      "stateMutability": "nonpayable",
      "type": "function"
    },
    {
      "inputs": [
        {
          "internalType": "uint256",
          "name": "_teacherCount",
          "type": "uint256"
        }
      ],
      "name": "setTeacherCount",
      "outputs": [],
      "stateMutability": "nonpayable",
      "type": "function"
    },
    {
      "inputs": [
        {
          "internalType": "uint256",
          "name": "_agentCount",
          "type": "uint256"
        }
      ],
      "name": "setAgentCount",
      "outputs": [],
      "stateMutability": "nonpayable",
      "type": "function"
    },
    {
      "inputs": [
        {
          "internalType": "uint256",
          "name": "_classCount",
          "type": "uint256"
        }
      ],
      "name": "setClassCount",
      "outputs": [],
      "stateMutability": "nonpayable",
      "type": "function"
    },
    {
      "inputs": [
        {
          "internalType": "uint256",
          "name": "_courseCount",
          "type": "uint256"
        }
      ],
      "name": "setCourseCount",
      "outputs": [],
      "stateMutability": "nonpayable",
      "type": "function"
    },
    {
      "inputs": [
        {
          "internalType": "uint256",
          "name": "_teacherId",
          "type": "uint256"
        },
        {
          "internalType": "uint256",
          "name": "courseId",
          "type": "uint256"
        }
      ],
      "name": "getTeacherSuitability",
      "outputs": [
        {
          "internalType": "uint256",
          "name": "",
          "type": "uint256"
        }
      ],
      "stateMutability": "view",
      "type": "function",
      "constant": true
    },
    {
      "inputs": [
        {
          "internalType": "uint256",
          "name": "_agentId",
          "type": "uint256"
        },
        {
          "internalType": "uint256",
          "name": "courseId",
          "type": "uint256"
        }
      ],
      "name": "getAgentSuitability",
      "outputs": [
        {
          "internalType": "uint256",
          "name": "",
          "type": "uint256"
        }
      ],
      "stateMutability": "view",
      "type": "function",
      "constant": true
    },
    {
      "inputs": [
        {
          "internalType": "uint256",
          "name": "_teacherId",
          "type": "uint256"
        },
        {
          "internalType": "uint256",
          "name": "courseId",
          "type": "uint256"
        }
      ],
      "name": "getPreference",
      "outputs": [
        {
          "internalType": "uint256",
          "name": "",
          "type": "uint256"
        }
      ],
      "stateMutability": "view",
      "type": "function",
      "constant": true
    },
    {
      "inputs": [
        {
          "internalType": "uint256",
          "name": "_teacherId",
          "type": "uint256"
        }
      ],
      "name": "getTeacherAssignedCourses",
      "outputs": [
        {
          "internalType": "uint256[]",
          "name": "",
          "type": "uint256[]"
        }
      ],
      "stateMutability": "view",
      "type": "function",
      "constant": true
    },
    {
      "inputs": [
        {
          "internalType": "uint256",
          "name": "_teacherId",
          "type": "uint256"
        }
      ],
      "name": "getTeacherReallyAssignedCourses",
      "outputs": [
        {
          "internalType": "uint256[]",
          "name": "",
          "type": "uint256[]"
        }
      ],
      "stateMutability": "view",
      "type": "function",
      "constant": true
    },
    {
      "inputs": [
        {
          "internalType": "uint256",
          "name": "_agentId",
          "type": "uint256"
        }
      ],
      "name": "getAgentAssignedCourses",
      "outputs": [
        {
          "internalType": "uint256[]",
          "name": "",
          "type": "uint256[]"
        }
      ],
      "stateMutability": "view",
      "type": "function",
      "constant": true
    },
    {
      "inputs": [
        {
          "internalType": "uint256",
          "name": "_courseId",
          "type": "uint256"
        }
      ],
      "name": "getCoursesAssignedTeacher",
      "outputs": [
        {
          "internalType": "uint256[]",
          "name": "",
          "type": "uint256[]"
        }
      ],
      "stateMutability": "view",
      "type": "function",
      "constant": true
    },
    {
      "inputs": [
        {
          "internalType": "uint256",
          "name": "_courseId",
          "type": "uint256"
        }
      ],
      "name": "getCoursesAssignedAgent",
      "outputs": [
        {
          "internalType": "uint256[]",
          "name": "",
          "type": "uint256[]"
        }
      ],
      "stateMutability": "view",
      "type": "function",
      "constant": true
    },
    {
      "inputs": [
        {
          "internalType": "uint256",
          "name": "courseId",
          "type": "uint256"
        }
      ],
      "name": "getCourseImportance",
      "outputs": [
        {
          "internalType": "uint256",
          "name": "",
          "type": "uint256"
        }
      ],
      "stateMutability": "view",
      "type": "function",
      "constant": true
    },
    {
      "inputs": [],
      "name": "getTeacherIds",
      "outputs": [
        {
          "internalType": "uint256[]",
          "name": "",
          "type": "uint256[]"
        }
      ],
      "stateMutability": "view",
      "type": "function",
      "constant": true
    },
    {
      "inputs": [],
      "name": "getAgentIds",
      "outputs": [
        {
          "internalType": "uint256[]",
          "name": "",
          "type": "uint256[]"
        }
      ],
      "stateMutability": "view",
      "type": "function",
      "constant": true
    },
    {
      "inputs": [],
      "name": "getCourseIds",
      "outputs": [
        {
          "internalType": "uint256[]",
          "name": "",
          "type": "uint256[]"
        }
      ],
      "stateMutability": "view",
      "type": "function",
      "constant": true
    },
    {
      "inputs": [],
      "name": "getClassIds",
      "outputs": [
        {
          "internalType": "uint256[]",
          "name": "",
          "type": "uint256[]"
        }
      ],
      "stateMutability": "view",
      "type": "function",
      "constant": true
    },
    {
      "inputs": [
        {
          "internalType": "uint256",
          "name": "courseId",
          "type": "uint256"
        },
        {
          "internalType": "uint256",
          "name": "classId",
          "type": "uint256"
        },
        {
          "internalType": "uint256",
          "name": "score",
          "type": "uint256"
        }
      ],
      "name": "addCourseClassScores",
      "outputs": [],
      "stateMutability": "nonpayable",
      "type": "function"
    },
    {
      "inputs": [
        {
          "internalType": "uint256",
          "name": "courseId",
          "type": "uint256"
        },
        {
          "internalType": "uint256",
          "name": "classId",
          "type": "uint256"
        }
      ],
      "name": "getGiveScoreClassIdExists",
      "outputs": [
        {
          "internalType": "uint256",
          "name": "",
          "type": "uint256"
        }
      ],
      "stateMutability": "view",
      "type": "function",
      "constant": true
    },
    {
      "inputs": [
        {
          "internalType": "uint256",
          "name": "courseId",
          "type": "uint256"
        },
        {
          "internalType": "uint256[]",
          "name": "classIds_",
          "type": "uint256[]"
        }
      ],
      "name": "removeCourseClassScores",
      "outputs": [],
      "stateMutability": "nonpayable",
      "type": "function"
    },
    {
      "inputs": [
        {
          "internalType": "uint256",
          "name": "courseId",
          "type": "uint256"
        }
      ],
      "name": "getCourseClassScores",
      "outputs": [
        {
          "internalType": "uint256[]",
          "name": "",
          "type": "uint256[]"
        }
      ],
      "stateMutability": "view",
      "type": "function",
      "constant": true
    },
    {
      "inputs": [
        {
          "internalType": "uint256",
          "name": "courseId",
          "type": "uint256"
        },
        {
          "internalType": "uint256",
          "name": "teacherId",
          "type": "uint256"
        },
        {
          "internalType": "uint256",
          "name": "score",
          "type": "uint256"
        }
      ],
      "name": "addTeacherScores",
      "outputs": [],
      "stateMutability": "nonpayable",
      "type": "function"
    },
    {
      "inputs": [
        {
          "internalType": "uint256",
          "name": "courseId",
          "type": "uint256"
        },
        {
          "internalType": "uint256[]",
          "name": "teacherIds_",
          "type": "uint256[]"
        }
      ],
      "name": "removeTeacherScores",
      "outputs": [],
      "stateMutability": "nonpayable",
      "type": "function"
    },
    {
      "inputs": [
        {
          "internalType": "uint256",
          "name": "courseId",
          "type": "uint256"
        }
      ],
      "name": "getTeacherScores",
      "outputs": [
        {
          "internalType": "uint256[]",
          "name": "",
          "type": "uint256[]"
        }
      ],
      "stateMutability": "view",
      "type": "function",
      "constant": true
    },
    {
      "inputs": [
        {
          "internalType": "uint256",
          "name": "courseId",
          "type": "uint256"
        },
        {
          "internalType": "uint256",
          "name": "teacherId",
          "type": "uint256"
        }
      ],
      "name": "getGiveScoreTeacherIdExists",
      "outputs": [
        {
          "internalType": "uint256",
          "name": "",
          "type": "uint256"
        }
      ],
      "stateMutability": "view",
      "type": "function",
      "constant": true
    },
    {
      "inputs": [
        {
          "internalType": "uint256",
          "name": "courseId",
          "type": "uint256"
        },
        {
          "internalType": "uint256",
          "name": "score",
          "type": "uint256"
        }
      ],
      "name": "setCourseTotalScore",
      "outputs": [],
      "stateMutability": "nonpayable",
      "type": "function"
    },
    {
      "inputs": [
        {
          "internalType": "uint256",
          "name": "courseId",
          "type": "uint256"
        },
        {
          "internalType": "uint256",
          "name": "supervisorId",
          "type": "uint256"
        },
        {
          "internalType": "uint256",
          "name": "score",
          "type": "uint256"
        }
      ],
      "name": "addCourseSupervisorScores",
      "outputs": [],
      "stateMutability": "nonpayable",
      "type": "function"
    },
    {
      "inputs": [
        {
          "internalType": "uint256",
          "name": "courseId",
          "type": "uint256"
        },
        {
          "internalType": "uint256[]",
          "name": "supervisorIds_",
          "type": "uint256[]"
        }
      ],
      "name": "removeCourseSupervisorScores",
      "outputs": [],
      "stateMutability": "nonpayable",
      "type": "function"
    },
    {
      "inputs": [
        {
          "internalType": "uint256",
          "name": "courseId",
          "type": "uint256"
        },
        {
          "internalType": "uint256",
          "name": "supervisorId",
          "type": "uint256"
        }
      ],
      "name": "getGiveScoreSupervisorIdExists",
      "outputs": [
        {
          "internalType": "uint256",
          "name": "",
          "type": "uint256"
        }
      ],
      "stateMutability": "view",
      "type": "function",
      "constant": true
    },
    {
      "inputs": [
        {
          "internalType": "uint256",
          "name": "courseId",
          "type": "uint256"
        }
      ],
      "name": "getCourseSupervisorScores",
      "outputs": [
        {
          "internalType": "uint256[]",
          "name": "",
          "type": "uint256[]"
        }
      ],
      "stateMutability": "view",
      "type": "function",
      "constant": true
    },
    {
      "inputs": [
        {
          "internalType": "uint256",
          "name": "supervisorId",
          "type": "uint256"
        }
      ],
      "name": "addSupervisorId",
      "outputs": [],
      "stateMutability": "nonpayable",
      "type": "function"
    },
    {
      "inputs": [],
      "name": "getSupervisorIds",
      "outputs": [
        {
          "internalType": "uint256[]",
          "name": "",
          "type": "uint256[]"
        }
      ],
      "stateMutability": "view",
      "type": "function",
      "constant": true
    },
    {
      "inputs": [
        {
          "internalType": "address",
          "name": "supervisor",
          "type": "address"
        },
        {
          "internalType": "uint256",
          "name": "supervisorId",
          "type": "uint256"
        }
      ],
      "name": "setSupervisorId",
      "outputs": [],
      "stateMutability": "nonpayable",
      "type": "function"
    },
    {
      "inputs": [
        {
          "internalType": "uint256",
          "name": "supervisorId",
          "type": "uint256"
        },
        {
          "internalType": "string",
          "name": "_name",
          "type": "string"
        }
      ],
      "name": "setSupervisorName",
      "outputs": [],
      "stateMutability": "nonpayable",
      "type": "function"
    },
    {
      "inputs": [
        {
          "internalType": "uint256",
          "name": "supervisorId",
          "type": "uint256"
        },
        {
          "internalType": "uint256",
          "name": "courseId",
          "type": "uint256"
        },
        {
          "internalType": "uint256",
          "name": "score",
          "type": "uint256"
        }
      ],
      "name": "setSupervisorsCourseScore",
      "outputs": [],
      "stateMutability": "nonpayable",
      "type": "function"
    },
    {
      "inputs": [
        {
          "internalType": "uint256",
          "name": "_transferCourseNumbers",
          "type": "uint256"
        }
      ],
      "name": "settransferCourseNumbers",
      "outputs": [],
      "stateMutability": "nonpayable",
      "type": "function"
    },
    {
      "inputs": [
        {
          "internalType": "uint256",
          "name": "_transferCourseStartTime",
          "type": "uint256"
        }
      ],
      "name": "settransferCourseStartTime",
      "outputs": [],
      "stateMutability": "nonpayable",
      "type": "function"
    },
    {
      "inputs": [
        {
          "internalType": "uint256",
          "name": "_transferCourseEndTime",
          "type": "uint256"
        }
      ],
      "name": "settransferCourseEndTime",
      "outputs": [],
      "stateMutability": "nonpayable",
      "type": "function"
    },
    {
      "inputs": [
        {
          "internalType": "string",
          "name": "option",
          "type": "string"
        }
      ],
      "name": "setScoreType",
      "outputs": [],
      "stateMutability": "nonpayable",
      "type": "function"
    }
  ],
  "bytecode": "0x608060405234801561001057600080fd5b50614d40806100206000396000f3fe608060405234801561001057600080fd5b50600436106105665760003560e01c806391c89deb116102ca578063ce64bf9b1161018d578063e637812f116100f4578063ee196ee2116100ad578063fa8f084d11610087578063fa8f084d14611220578063fc09e9d01461123e578063fc2ddca51461125a578063fe8dc6a81461127657610566565b8063ee196ee2146111cc578063f0f2efd8146111e8578063f31e14941461120457610566565b8063e637812f146110d3578063e7fa4557146110ef578063e8a2dc2f1461110b578063e90616571461113b578063ebacebe41461116b578063ebd1aac61461119b57610566565b8063deb9f76a11610146578063deb9f76a14611017578063df3addfa14611033578063e204b1021461104f578063e20b34051461106b578063e40af03614611087578063e52505d8146110a357610566565b8063ce64bf9b14610f0b578063d4e57ff014610f3b578063d95a61d514610f6b578063d96ce73f14610f9b578063dcfa705714610fcb578063dd03576514610ffb57610566565b8063ab99631711610231578063bb69df72116101ea578063bb69df7214610e4f578063bca24bd414610e6b578063bd1602d114610e9b578063bfb9d44c14610eb7578063c318fe5f14610ed3578063cddd6c6314610eef57610566565b8063ab99631714610da1578063ad3a6ad414610dbf578063b150876014610ddb578063b373a43414610df9578063b4da858414610e15578063b7dc128414610e3157610566565b806397e92d521161028357806397e92d5214610cf75780639e12237714610d13578063a549e41614610d2f578063a7ab847214610d4b578063aaa4b24e14610d67578063ab7cee7714610d8357610566565b806391c89deb14610bf95780639476cf9b14610c29578063951d5fee14610c5957806396c82e5714610c7757806396f979d214610c955780639709ee0114610cc757610566565b806356e760581161042d5780636fcf4f96116103945780637fa7e04d1161034d5780638377b690116103275780638377b69014610b61578063851580a714610b9157806386875ea814610bc15780638bbb3be114610bdd57610566565b80637fa7e04d14610ae5578063827e573114610b0157806382ff0a5a14610b3157610566565b80636fcf4f9614610a27578063700ed28b14610a4357806372ab4e9614610a5f57806372c30f4514610a7b5780637ce28bac14610a975780637e4d164114610ac957610566565b806366055159116103e657806366055159146109695780636798bad9146109875780636b792cc8146109a35780636d889f84146109bf5780636e428d2d146109db5780636e9b0f8f146109f757610566565b806356e76058146108995780635953faff146108c95780635ca24db0146108e55780635e383d46146109155780635f63efe214610931578063643d172c1461094d57610566565b806338f6a6bd116104d1578063494e23711161048a578063494e2371146107c45780634b974df7146107f45780634d27e912146108105780634d6523501461082c5780634dcb63661461084a578063513856c81461086657610566565b806338f6a6bd146107045780633abdb63d14610720578063406143ae1461073c578063439fc3d11461076c57806345073d5c1461078a57806346be3136146107a657610566565b80631928f3bc116105235780631928f3bc1461063f5780631dd86f901461065d5780631fe76a6c146106795780632359b7b8146106955780632b0816ac146106b357806334ac0b40146106cf57610566565b8063034f578e1461056b57806307061e011461058957806308a2037f146105b95780630f7f13cf146105d55780630fa1c2711461060557806318860d3714610621575b600080fd5b610573611292565b60405161058091906145b6565b60405180910390f35b6105a3600480360381019061059e91906141eb565b611298565b6040516105b091906145b6565b60405180910390f35b6105d360048036038101906105ce919061418b565b6112ca565b005b6105ef60048036038101906105ea9190613f5f565b6112f5565b6040516105fc91906145b6565b60405180910390f35b61061f600480360381019061061a91906141eb565b61130d565b005b61062961134e565b6040516106369190614472565b60405180910390f35b6106476113a6565b60405161065491906145b6565b60405180910390f35b6106776004803603810190610672919061422b565b6113ac565b005b610693600480360381019061068e919061422b565b611460565b005b61069d611491565b6040516106aa9190614472565b60405180910390f35b6106cd60048036038101906106c89190614062565b6114e9565b005b6106e960048036038101906106e49190614062565b611530565b6040516106fb9695949392919061465b565b60405180910390f35b61071e6004803603810190610719919061422b565b611614565b005b61073a60048036038101906107359190614062565b6116ec565b005b61075660048036038101906107519190614062565b6117d4565b6040516107639190614472565b60405180910390f35b610774611842565b6040516107819190614494565b60405180910390f35b6107a4600480360381019061079f919061412f565b6118d0565b005b6107ae61195d565b6040516107bb91906145b6565b60405180910390f35b6107de60048036038101906107d99190614062565b611963565b6040516107eb91906145b6565b60405180910390f35b61080e600480360381019061080991906141eb565b611987565b005b61082a6004803603810190610825919061422b565b611b21565b005b610834611b52565b6040516108419190614472565b60405180910390f35b610864600480360381019061085f919061412f565b611baa565b005b610880600480360381019061087b9190614062565b611c37565b604051610890949392919061460f565b60405180910390f35b6108b360048036038101906108ae9190614062565b611d0f565b6040516108c091906145b6565b60405180910390f35b6108e360048036038101906108de9190613fcc565b611d33565b005b6108ff60048036038101906108fa9190614062565b611df5565b60405161090c9190614472565b60405180910390f35b61092f600480360381019061092a9190613f8c565b611e63565b005b61094b60048036038101906109469190614062565b611ed4565b005b61096760048036038101906109629190614062565b611ede565b005b610971611f22565b60405161097e91906145b6565b60405180910390f35b6109a1600480360381019061099c9190614062565b611f28565b005b6109bd60048036038101906109b89190614062565b611f32565b005b6109d960048036038101906109d4919061422b565b611f3c565b005b6109f560048036038101906109f091906141eb565b612014565b005b610a116004803603810190610a0c9190614062565b6121ae565b604051610a1e91906145b6565b60405180910390f35b610a416004803603810190610a3c9190614062565b6121ce565b005b610a5d6004803603810190610a5891906141eb565b612339565b005b610a796004803603810190610a7491906141eb565b61237a565b005b610a956004803603810190610a909190614062565b6123bb565b005b610ab16004803603810190610aac9190614062565b612487565b604051610ac0939291906145d1565b60405180910390f35b610ae36004803603810190610ade9190614015565b612559565b005b610aff6004803603810190610afa919061418b565b61256f565b005b610b1b6004803603810190610b169190614062565b61259a565b604051610b289190614472565b60405180910390f35b610b4b6004803603810190610b469190614062565b612608565b604051610b589190614472565b60405180910390f35b610b7b6004803603810190610b7691906141eb565b612676565b604051610b8891906145b6565b60405180910390f35b610bab6004803603810190610ba691906141eb565b6126a8565b604051610bb891906145b6565b60405180910390f35b610bdb6004803603810190610bd691906141eb565b6126da565b005b610bf76004803603810190610bf29190613f8c565b61283a565b005b610c136004803603810190610c0e9190614062565b6128f2565b604051610c209190614472565b60405180910390f35b610c436004803603810190610c3e9190614062565b612960565b604051610c5091906145b6565b60405180910390f35b610c61612984565b604051610c6e91906145b6565b60405180910390f35b610c7f61298a565b604051610c8c91906145b6565b60405180910390f35b610caf6004803603810190610caa9190614062565b612990565b604051610cbe939291906146c3565b60405180910390f35b610ce16004803603810190610cdc91906141eb565b612a42565b604051610cee91906145b6565b60405180910390f35b610d116004803603810190610d0c91906140cf565b612a74565b005b610d2d6004803603810190610d28919061418b565b612bcd565b005b610d496004803603810190610d449190613f8c565b612bf8565b005b610d656004803603810190610d60919061418b565b612c84565b005b610d816004803603810190610d7c91906141eb565b612d32565b005b610d8b612d51565b604051610d9891906145b6565b60405180910390f35b610da9612d57565b604051610db691906145b6565b60405180910390f35b610dd96004803603810190610dd491906140cf565b612d5d565b005b610de3612eb6565b604051610df09190614472565b60405180910390f35b610e136004803603810190610e0e9190614062565b612f0e565b005b610e2f6004803603810190610e2a91906141eb565b612f18565b005b610e39612fba565b604051610e4691906145b6565b60405180910390f35b610e696004803603810190610e6491906141eb565b612fc0565b005b610e856004803603810190610e809190614062565b6130c0565b604051610e9291906145b6565b60405180910390f35b610eb56004803603810190610eb09190614062565b6130e4565b005b610ed16004803603810190610ecc9190613f8c565b6130ee565b005b610eed6004803603810190610ee8919061408f565b61317a565b005b610f096004803603810190610f04919061408f565b613256565b005b610f256004803603810190610f209190614062565b6132af565b604051610f329190614472565b60405180910390f35b610f556004803603810190610f509190613f5f565b61331d565b604051610f6291906145b6565b60405180910390f35b610f856004803603810190610f809190613f5f565b613335565b604051610f9291906145b6565b60405180910390f35b610fb56004803603810190610fb09190614062565b61334d565b604051610fc29190614472565b60405180910390f35b610fe56004803603810190610fe09190614062565b6133bb565b604051610ff291906145b6565b60405180910390f35b61101560048036038101906110109190614062565b6133df565b005b611031600480360381019061102c9190614062565b6133e9565b005b61104d60048036038101906110489190614062565b6133f3565b005b611069600480360381019061106491906141eb565b6134bf565b005b611085600480360381019061108091906141eb565b6134de565b005b6110a1600480360381019061109c91906141eb565b613580565b005b6110bd60048036038101906110b89190614062565b61371a565b6040516110ca9190614472565b60405180910390f35b6110ed60048036038101906110e891906141eb565b613788565b005b611109600480360381019061110491906141eb565b6137c9565b005b611125600480360381019061112091906141eb565b613963565b60405161113291906145b6565b60405180910390f35b611155600480360381019061115091906141eb565b613995565b60405161116291906145b6565b60405180910390f35b61118560048036038101906111809190613f5f565b6139c7565b60405161119291906145b6565b60405180910390f35b6111b560048036038101906111b09190614062565b6139df565b6040516111c3929190614701565b60405180910390f35b6111e660048036038101906111e191906141eb565b613a03565b005b61120260048036038101906111fd91906140cf565b613a22565b005b61121e6004803603810190611219919061422b565b613af8565b005b611228613bd0565b6040516112359190614472565b60405180910390f35b611258600480360381019061125391906141eb565b613c28565b005b611274600480360381019061126f919061422b565b613c69565b005b611290600480360381019061128b919061412f565b613c9a565b005b60175481565b6000600a6000848152602001908152602001600020600501600083815260200190815260200160002054905092915050565b81816008600086815260200190815260200160002060010191906112ef929190613d27565b50505050565b60026020528060005260406000206000915090505481565b600960008381526020019081526020016000206003018190806001815401808255809150506001900390600052602060002001600090919091909150555050565b6060601380548060200260200160405190810160405280929190818152602001828054801561139c57602002820191906000526020600020905b815481526020019060010190808311611388575b5050505050905090565b60165481565b6000600260003373ffffffffffffffffffffffffffffffffffffffff1673ffffffffffffffffffffffffffffffffffffffff16815260200190815260200160002054141561142f576040517f08c379a000000000000000000000000000000000000000000000000000000000815260040161142690614576565b60405180910390fd5b8060066000858152602001908152602001600020600901600084815260200190815260200160002081905550505050565b8060066000858152602001908152602001600020600801600084815260200190815260200160002081905550505050565b606060128054806020026020016040519081016040528092919081815260200182805480156114df57602002820191906000526020600020905b8154815260200190600101908083116114cb575b5050505050905090565b806009600083815260200190815260200160002060000181905550601281908060018154018082558091505060019003906000526020600020016000909190919091505550565b6006602052806000526040600020600091509050806000015490806001018054611559906148c9565b80601f0160208091040260200160405190810160405280929190818152602001828054611585906148c9565b80156115d25780601f106115a7576101008083540402835291602001916115d2565b820191906000526020600020905b8154815290600101906020018083116115b557829003601f168201915b5050505050908060020160009054906101000a900473ffffffffffffffffffffffffffffffffffffffff16908060050154908060060154908060070154905086565b6000600a60008581526020019081526020016000206005016000848152602001908152602001600020541461167e576040517f08c379a000000000000000000000000000000000000000000000000000000000815260040161167590614516565b60405180910390fd5b80600a6000858152602001908152602001600020600501600084815260200190815260200160002081905550600a6000848152602001908152602001600020600401819080600181540180825580915050600190039060005260206000200160009091909190915055505050565b6000600760008381526020019081526020016000206000018190555060005b6011805490508110156117d057816011828154811061172d5761172c614a02565b5b906000526020600020015414156117bd57601160016011805490506117529190614826565b8154811061176357611762614a02565b5b90600052602060002001546011828154811061178257611781614a02565b5b906000526020600020018190555060118054806117a2576117a16149d3565b5b600190038181906000526020600020016000905590556117d0565b80806117c89061492c565b91505061170b565b5050565b6060600a600083815260200190815260200160002060040180548060200260200160405190810160405280929190818152602001828054801561183657602002820191906000526020600020905b815481526020019060010190808311611822575b50505050509050919050565b6000805461184f906148c9565b80601f016020809104026020016040519081016040528092919081815260200182805461187b906148c9565b80156118c85780601f1061189d576101008083540402835291602001916118c8565b820191906000526020600020905b8154815290600101906020018083116118ab57829003601f168201915b505050505081565b60005b8151811015611936576000600a6000858152602001908152602001600020600301600084848151811061190957611908614a02565b5b6020026020010151815260200190815260200160002081905550808061192e9061492c565b9150506118d3565b50600a600083815260200190815260200160002060020160006119599190613dad565b5050565b600b5481565b6012818154811061197357600080fd5b906000526020600020016000915090505481565b60008080600090505b6006600086815260200190815260200160002060030180549050811015611a0a57836006600087815260200190815260200160002060030182815481106119da576119d9614a02565b5b906000526020600020015414156119f75760019250809150611a0a565b8080611a029061492c565b915050611990565b508115611ae0576006600085815260200190815260200160002060030160016006600087815260200190815260200160002060030180549050611a4d9190614826565b81548110611a5e57611a5d614a02565b5b9060005260206000200154600660008681526020019081526020016000206003018281548110611a9157611a90614a02565b5b906000526020600020018190555060066000858152602001908152602001600020600301805480611ac557611ac46149d3565b5b60019003818190600052602060002001600090559055611b1b565b6040517f08c379a0000000000000000000000000000000000000000000000000000000008152600401611b12906144f6565b60405180910390fd5b50505050565b8060076000858152602001908152602001600020600501600084815260200190815260200160002081905550505050565b60606010805480602002602001604051908101604052809291908181526020018280548015611ba057602002820191906000526020600020905b815481526020019060010190808311611b8c575b5050505050905090565b60005b8151811015611c10576000600a60008581526020019081526020016000206007016000848481518110611be357611be2614a02565b5b60200260200101518152602001908152602001600020819055508080611c089061492c565b915050611bad565b50600a60008381526020019081526020016000206006016000611c339190613dad565b5050565b6007602052806000526040600020600091509050806000015490806001018054611c60906148c9565b80601f0160208091040260200160405190810160405280929190818152602001828054611c8c906148c9565b8015611cd95780601f10611cae57610100808354040283529160200191611cd9565b820191906000526020600020905b815481529060010190602001808311611cbc57829003601f168201915b5050505050908060020160009054906101000a900473ffffffffffffffffffffffffffffffffffffffff16908060030154905084565b60118181548110611d1f57600080fd5b906000526020600020016000915090505481565b601280549050815114611d7b576040517f08c379a0000000000000000000000000000000000000000000000000000000008152600401611d7290614536565b60405180910390fd5b60005b601280549050811015611df157818181518110611d9e57611d9d614a02565b5b60200260200101516009600060128481548110611dbe57611dbd614a02565b5b90600052602060002001548152602001908152602001600020600201819055508080611de99061492c565b915050611d7e565b5050565b6060600a6000838152602001908152602001600020600201805480602002602001604051908101604052809291908181526020018280548015611e5757602002820191906000526020600020905b815481526020019060010190808311611e43575b50505050509050919050565b80600460008473ffffffffffffffffffffffffffffffffffffffff1673ffffffffffffffffffffffffffffffffffffffff1681526020019081526020016000208190555060138190806001815401808255809150506001900390600052602060002001600090919091909150555050565b8060168190555050565b6014819080600181540180825580915050600190039060005260206000200160009091909190915055600f6000815480929190611f1a9061492c565b919050555050565b600e5481565b80600b8190555050565b8060158190555050565b6000600a600085815260200190815260200160002060030160008481526020019081526020016000205414611fa6576040517f08c379a0000000000000000000000000000000000000000000000000000000008152600401611f9d906144d6565b60405180910390fd5b80600a6000858152602001908152602001600020600301600084815260200190815260200160002081905550600a6000848152602001908152602001600020600201819080600181540180825580915050600190039060005260206000200160009091909190915055505050565b60008080600090505b6009600086815260200190815260200160002060030180549050811015612097578360096000878152602001908152602001600020600301828154811061206757612066614a02565b5b906000526020600020015414156120845760019250809150612097565b808061208f9061492c565b91505061201d565b50811561216d5760096000858152602001908152602001600020600301600160096000878152602001908152602001600020600301805490506120da9190614826565b815481106120eb576120ea614a02565b5b906000526020600020015460096000868152602001908152602001600020600301828154811061211e5761211d614a02565b5b906000526020600020018190555060096000858152602001908152602001600020600301805480612152576121516149d3565b5b600190038181906000526020600020016000905590556121a8565b6040517f08c379a000000000000000000000000000000000000000000000000000000000815260040161219f906144f6565b60405180910390fd5b50505050565b600060096000838152602001908152602001600020600201549050919050565b6000600260003373ffffffffffffffffffffffffffffffffffffffff1673ffffffffffffffffffffffffffffffffffffffff168152602001908152602001600020541415612251576040517f08c379a000000000000000000000000000000000000000000000000000000000815260040161224890614576565b60405180910390fd5b6000600660008381526020019081526020016000206000018190555060005b60108054905081101561233557816010828154811061229257612291614a02565b5b9060005260206000200154141561232257601060016010805490506122b79190614826565b815481106122c8576122c7614a02565b5b9060005260206000200154601082815481106122e7576122e6614a02565b5b90600052602060002001819055506010805480612307576123066149d3565b5b60019003818190600052602060002001600090559055612335565b808061232d9061492c565b915050612270565b5050565b600660008381526020019081526020016000206003018190806001815401808255809150506001900390600052602060002001600090919091909150555050565b600760008381526020019081526020016000206004018190806001815401808255809150506001900390600052602060002001600090919091909150555050565b60005b6013805490508110156124835781601382815481106123e0576123df614a02565b5b9060005260206000200154141561247057601360016013805490506124059190614826565b8154811061241657612415614a02565b5b90600052602060002001546013828154811061243557612434614a02565b5b90600052602060002001819055506013805480612455576124546149d3565b5b60019003818190600052602060002001600090559055612483565b808061247b9061492c565b9150506123be565b5050565b60086020528060005260406000206000915090508060000154908060010180546124b0906148c9565b80601f01602080910402602001604051908101604052809291908181526020018280546124dc906148c9565b80156125295780601f106124fe57610100808354040283529160200191612529565b820191906000526020600020905b81548152906001019060200180831161250c57829003601f168201915b5050505050908060020160009054906101000a900473ffffffffffffffffffffffffffffffffffffffff16905083565b81816000919061256a929190613d27565b505050565b8181600760008681526020019081526020016000206001019190612594929190613d27565b50505050565b6060600660008381526020019081526020016000206004018054806020026020016040519081016040528092919081815260200182805480156125fc57602002820191906000526020600020905b8154815260200190600101908083116125e8575b50505050509050919050565b60606009600083815260200190815260200160002060030180548060200260200160405190810160405280929190818152602001828054801561266a57602002820191906000526020600020905b815481526020019060010190808311612656575b50505050509050919050565b6000600a6000848152602001908152602001600020600301600083815260200190815260200160002054905092915050565b600060066000848152602001908152602001600020600901600083815260200190815260200160002054905092915050565b60008080600090505b600960008681526020019081526020016000206004018054905081101561275d578360096000878152602001908152602001600020600401828154811061272d5761272c614a02565b5b9060005260206000200154141561274a576001925080915061275d565b80806127559061492c565b9150506126e3565b5081156128335760096000858152602001908152602001600020600401600160096000878152602001908152602001600020600401805490506127a09190614826565b815481106127b1576127b0614a02565b5b90600052602060002001546009600086815260200190815260200160002060040182815481106127e4576127e3614a02565b5b906000526020600020018190555060096000858152602001908152602001600020600401805480612818576128176149d3565b5b60019003818190600052602060002001600090559055612834565b5b50505050565b80600560008473ffffffffffffffffffffffffffffffffffffffff1673ffffffffffffffffffffffffffffffffffffffff16815260200190815260200160002081905550806008600083815260200190815260200160002060000181905550816008600083815260200190815260200160002060020160006101000a81548173ffffffffffffffffffffffffffffffffffffffff021916908373ffffffffffffffffffffffffffffffffffffffff1602179055505050565b60606009600083815260200190815260200160002060040180548060200260200160405190810160405280929190818152602001828054801561295457602002820191906000526020600020905b815481526020019060010190808311612940575b50505050509050919050565b6014818154811061297057600080fd5b906000526020600020016000915090505481565b60155481565b60015481565b60096020528060005260406000206000915090508060000154908060010180546129b9906148c9565b80601f01602080910402602001604051908101604052809291908181526020018280546129e5906148c9565b8015612a325780601f10612a0757610100808354040283529160200191612a32565b820191906000526020600020905b815481529060010190602001808311612a1557829003601f168201915b5050505050908060020154905083565b600060076000848152602001908152602001600020600501600083815260200190815260200160002054905092915050565b6000600260003373ffffffffffffffffffffffffffffffffffffffff1673ffffffffffffffffffffffffffffffffffffffff168152602001908152602001600020541415612af7576040517f08c379a0000000000000000000000000000000000000000000000000000000008152600401612aee90614576565b60405180910390fd5b6012805490508282905014612b41576040517f08c379a0000000000000000000000000000000000000000000000000000000008152600401612b3890614596565b60405180910390fd5b60005b601280549050811015612bc757828282818110612b6457612b63614a02565b5b9050602002013560066000868152602001908152602001600020600801600060128481548110612b9757612b96614a02565b5b90600052602060002001548152602001908152602001600020819055508080612bbf9061492c565b915050612b44565b50505050565b8181600960008681526020019081526020016000206001019190612bf2929190613d27565b50505050565b80600260008473ffffffffffffffffffffffffffffffffffffffff1673ffffffffffffffffffffffffffffffffffffffff1681526020019081526020016000208190555080600660008381526020019081526020016000206000018190555060108190806001815401808255809150506001900390600052602060002001600090919091909150555050565b6000600260003373ffffffffffffffffffffffffffffffffffffffff1673ffffffffffffffffffffffffffffffffffffffff168152602001908152602001600020541415612d07576040517f08c379a0000000000000000000000000000000000000000000000000000000008152600401612cfe90614576565b60405180910390fd5b8181600660008681526020019081526020016000206001019190612d2c929190613d27565b50505050565b80600a6000848152602001908152602001600020600101819055505050565b600f5481565b600d5481565b6000600260003373ffffffffffffffffffffffffffffffffffffffff1673ffffffffffffffffffffffffffffffffffffffff168152602001908152602001600020541415612de0576040517f08c379a0000000000000000000000000000000000000000000000000000000008152600401612dd790614576565b60405180910390fd5b6012805490508282905014612e2a576040517f08c379a0000000000000000000000000000000000000000000000000000000008152600401612e21906144b6565b60405180910390fd5b60005b601280549050811015612eb057828282818110612e4d57612e4c614a02565b5b9050602002013560066000868152602001908152602001600020600901600060128481548110612e8057612e7f614a02565b5b90600052602060002001548152602001908152602001600020819055508080612ea89061492c565b915050612e2d565b50505050565b60606011805480602002602001604051908101604052809291908181526020018280548015612f0457602002820191906000526020600020905b815481526020019060010190808311612ef0575b5050505050905090565b8060178190555050565b6000600260003373ffffffffffffffffffffffffffffffffffffffff1673ffffffffffffffffffffffffffffffffffffffff168152602001908152602001600020541415612f9b576040517f08c379a0000000000000000000000000000000000000000000000000000000008152600401612f9290614576565b60405180910390fd5b8060066000848152602001908152602001600020600601819055505050565b600c5481565b6000600260003373ffffffffffffffffffffffffffffffffffffffff1673ffffffffffffffffffffffffffffffffffffffff168152602001908152602001600020541415613043576040517f08c379a000000000000000000000000000000000000000000000000000000000815260040161303a90614576565b60405180910390fd5b60066000838152602001908152602001600020600501546001600082825461306b9190614826565b925050819055508060066000848152602001908152602001600020600501819055506006600083815260200190815260200160002060050154600160008282546130b591906147d0565b925050819055505050565b601381815481106130d057600080fd5b906000526020600020016000915090505481565b80600e8190555050565b80600360008473ffffffffffffffffffffffffffffffffffffffff1673ffffffffffffffffffffffffffffffffffffffff1681526020019081526020016000208190555080600760008381526020019081526020016000206000018190555060118190806001815401808255809150506001900390600052602060002001600090919091909150555050565b6000600260003373ffffffffffffffffffffffffffffffffffffffff1673ffffffffffffffffffffffffffffffffffffffff1681526020019081526020016000205414156131fd576040517f08c379a00000000000000000000000000000000000000000000000000000000081526004016131f490614576565b60405180910390fd5b806006600084815260200190815260200160002060020160006101000a81548173ffffffffffffffffffffffffffffffffffffffff021916908373ffffffffffffffffffffffffffffffffffffffff1602179055505050565b806007600084815260200190815260200160002060020160006101000a81548173ffffffffffffffffffffffffffffffffffffffff021916908373ffffffffffffffffffffffffffffffffffffffff1602179055505050565b60606007600083815260200190815260200160002060040180548060200260200160405190810160405280929190818152602001828054801561331157602002820191906000526020600020905b8154815260200190600101908083116132fd575b50505050509050919050565b60046020528060005260406000206000915090505481565b60056020528060005260406000206000915090505481565b6060600a60008381526020019081526020016000206006018054806020026020016040519081016040528092919081815260200182805480156133af57602002820191906000526020600020905b81548152602001906001019080831161339b575b50505050509050919050565b601081815481106133cb57600080fd5b906000526020600020016000915090505481565b80600d8190555050565b80600c8190555050565b60005b6012805490508110156134bb57816012828154811061341857613417614a02565b5b906000526020600020015414156134a8576012600160128054905061343d9190614826565b8154811061344e5761344d614a02565b5b90600052602060002001546012828154811061346d5761346c614a02565b5b9060005260206000200181905550601280548061348d5761348c6149d3565b5b600190038181906000526020600020016000905590556134bb565b80806134b39061492c565b9150506133f6565b5050565b8060096000848152602001908152602001600020600201819055505050565b6000600260003373ffffffffffffffffffffffffffffffffffffffff1673ffffffffffffffffffffffffffffffffffffffff168152602001908152602001600020541415613561576040517f08c379a000000000000000000000000000000000000000000000000000000000815260040161355890614576565b60405180910390fd5b8060066000848152602001908152602001600020600701819055505050565b60008080600090505b600760008681526020019081526020016000206004018054905081101561360357836007600087815260200190815260200160002060040182815481106135d3576135d2614a02565b5b906000526020600020015414156135f05760019250809150613603565b80806135fb9061492c565b915050613589565b5081156136d95760076000858152602001908152602001600020600401600160076000878152602001908152602001600020600401805490506136469190614826565b8154811061365757613656614a02565b5b906000526020600020015460076000868152602001908152602001600020600401828154811061368a57613689614a02565b5b9060005260206000200181905550600760008581526020019081526020016000206004018054806136be576136bd6149d3565b5b60019003818190600052602060002001600090559055613714565b6040517f08c379a000000000000000000000000000000000000000000000000000000000815260040161370b906144f6565b60405180910390fd5b50505050565b60606006600083815260200190815260200160002060030180548060200260200160405190810160405280929190818152602001828054801561377c57602002820191906000526020600020905b815481526020019060010190808311613768575b50505050509050919050565b600660008381526020019081526020016000206004018190806001815401808255809150506001900390600052602060002001600090919091909150555050565b60008080600090505b600660008681526020019081526020016000206004018054905081101561384c578360066000878152602001908152602001600020600401828154811061381c5761381b614a02565b5b90600052602060002001541415613839576001925080915061384c565b80806138449061492c565b9150506137d2565b50811561392257600660008581526020019081526020016000206004016001600660008781526020019081526020016000206004018054905061388f9190614826565b815481106138a05761389f614a02565b5b90600052602060002001546006600086815260200190815260200160002060040182815481106138d3576138d2614a02565b5b906000526020600020018190555060066000858152602001908152602001600020600401805480613907576139066149d3565b5b6001900381819060005260206000200160009055905561395d565b6040517f08c379a0000000000000000000000000000000000000000000000000000000008152600401613954906144f6565b60405180910390fd5b50505050565b600060066000848152602001908152602001600020600801600083815260200190815260200160002054905092915050565b6000600a6000848152602001908152602001600020600701600083815260200190815260200160002054905092915050565b60036020528060005260406000206000915090505481565b600a6020528060005260406000206000915090508060000154908060010154905082565b8060076000848152602001908152602001600020600301819055505050565b6012805490508282905014613a6c576040517f08c379a0000000000000000000000000000000000000000000000000000000008152600401613a6390614596565b60405180910390fd5b60005b601280549050811015613af257828282818110613a8f57613a8e614a02565b5b9050602002013560076000868152602001908152602001600020600501600060128481548110613ac257613ac1614a02565b5b90600052602060002001548152602001908152602001600020819055508080613aea9061492c565b915050613a6f565b50505050565b6000600a600085815260200190815260200160002060070160008481526020019081526020016000205414613b62576040517f08c379a0000000000000000000000000000000000000000000000000000000008152600401613b5990614556565b60405180910390fd5b80600a6000858152602001908152602001600020600701600084815260200190815260200160002081905550600a6000848152602001908152602001600020600601819080600181540180825580915050600190039060005260206000200160009091909190915055505050565b60606014805480602002602001604051908101604052809291908181526020018280548015613c1e57602002820191906000526020600020905b815481526020019060010190808311613c0a575b5050505050905090565b600960008381526020019081526020016000206004018190806001815401808255809150506001900390600052602060002001600090919091909150555050565b8060086000858152602001908152602001600020600301600084815260200190815260200160002081905550505050565b60005b8151811015613d00576000600a60008581526020019081526020016000206005016000848481518110613cd357613cd2614a02565b5b60200260200101518152602001908152602001600020819055508080613cf89061492c565b915050613c9d565b50600a60008381526020019081526020016000206004016000613d239190613dad565b5050565b828054613d33906148c9565b90600052602060002090601f016020900481019282613d555760008555613d9c565b82601f10613d6e57803560ff1916838001178555613d9c565b82800160010185558215613d9c579182015b82811115613d9b578235825591602001919060010190613d80565b5b509050613da99190613dce565b5090565b5080546000825590600052602060002090810190613dcb9190613dce565b50565b5b80821115613de7576000816000905550600101613dcf565b5090565b6000613dfe613df98461474f565b61472a565b90508083825260208201905082856020860282011115613e2157613e20614a6a565b5b60005b85811015613e515781613e378882613f4a565b845260208401935060208301925050600181019050613e24565b5050509392505050565b600081359050613e6a81614cdc565b92915050565b60008083601f840112613e8657613e85614a65565b5b8235905067ffffffffffffffff811115613ea357613ea2614a60565b5b602083019150836020820283011115613ebf57613ebe614a6a565b5b9250929050565b600082601f830112613edb57613eda614a65565b5b8135613eeb848260208601613deb565b91505092915050565b60008083601f840112613f0a57613f09614a65565b5b8235905067ffffffffffffffff811115613f2757613f26614a60565b5b602083019150836001820283011115613f4357613f42614a6a565b5b9250929050565b600081359050613f5981614cf3565b92915050565b600060208284031215613f7557613f74614a74565b5b6000613f8384828501613e5b565b91505092915050565b60008060408385031215613fa357613fa2614a74565b5b6000613fb185828601613e5b565b9250506020613fc285828601613f4a565b9150509250929050565b600060208284031215613fe257613fe1614a74565b5b600082013567ffffffffffffffff81111561400057613fff614a6f565b5b61400c84828501613ec6565b91505092915050565b6000806020838503121561402c5761402b614a74565b5b600083013567ffffffffffffffff81111561404a57614049614a6f565b5b61405685828601613ef4565b92509250509250929050565b60006020828403121561407857614077614a74565b5b600061408684828501613f4a565b91505092915050565b600080604083850312156140a6576140a5614a74565b5b60006140b485828601613f4a565b92505060206140c585828601613e5b565b9150509250929050565b6000806000604084860312156140e8576140e7614a74565b5b60006140f686828701613f4a565b935050602084013567ffffffffffffffff81111561411757614116614a6f565b5b61412386828701613e70565b92509250509250925092565b6000806040838503121561414657614145614a74565b5b600061415485828601613f4a565b925050602083013567ffffffffffffffff81111561417557614174614a6f565b5b61418185828601613ec6565b9150509250929050565b6000806000604084860312156141a4576141a3614a74565b5b60006141b286828701613f4a565b935050602084013567ffffffffffffffff8111156141d3576141d2614a6f565b5b6141df86828701613ef4565b92509250509250925092565b6000806040838503121561420257614201614a74565b5b600061421085828601613f4a565b925050602061422185828601613f4a565b9150509250929050565b60008060006060848603121561424457614243614a74565b5b600061425286828701613f4a565b935050602061426386828701613f4a565b925050604061427486828701613f4a565b9150509250925092565b600061428a8383614454565b60208301905092915050565b61429f8161485a565b82525050565b60006142b08261478b565b6142ba81856147ae565b93506142c58361477b565b8060005b838110156142f65781516142dd888261427e565b97506142e8836147a1565b9250506001810190506142c9565b5085935050505092915050565b600061430e82614796565b61431881856147bf565b9350614328818560208601614896565b61433181614a79565b840191505092915050565b60006143496060836147bf565b915061435482614a8a565b606082019050919050565b600061436c6015836147bf565b915061437782614aff565b602082019050919050565b600061438f6010836147bf565b915061439a82614b28565b602082019050919050565b60006143b26015836147bf565b91506143bd82614b51565b602082019050919050565b60006143d56022836147bf565b91506143e082614b7a565b604082019050919050565b60006143f86015836147bf565b915061440382614bc9565b602082019050919050565b600061441b602f836147bf565b915061442682614bf2565b604082019050919050565b600061443e6061836147bf565b915061444982614c41565b608082019050919050565b61445d8161488c565b82525050565b61446c8161488c565b82525050565b6000602082019050818103600083015261448c81846142a5565b905092915050565b600060208201905081810360008301526144ae8184614303565b905092915050565b600060208201905081810360008301526144cf8161433c565b9050919050565b600060208201905081810360008301526144ef8161435f565b9050919050565b6000602082019050818103600083015261450f81614382565b9050919050565b6000602082019050818103600083015261452f816143a5565b9050919050565b6000602082019050818103600083015261454f816143c8565b9050919050565b6000602082019050818103600083015261456f816143eb565b9050919050565b6000602082019050818103600083015261458f8161440e565b9050919050565b600060208201905081810360008301526145af81614431565b9050919050565b60006020820190506145cb6000830184614463565b92915050565b60006060820190506145e66000830186614463565b81810360208301526145f88185614303565b90506146076040830184614296565b949350505050565b60006080820190506146246000830187614463565b81810360208301526146368186614303565b90506146456040830185614296565b6146526060830184614463565b95945050505050565b600060c0820190506146706000830189614463565b81810360208301526146828188614303565b90506146916040830187614296565b61469e6060830186614463565b6146ab6080830185614463565b6146b860a0830184614463565b979650505050505050565b60006060820190506146d86000830186614463565b81810360208301526146ea8185614303565b90506146f96040830184614463565b949350505050565b60006040820190506147166000830185614463565b6147236020830184614463565b9392505050565b6000614734614745565b905061474082826148fb565b919050565b6000604051905090565b600067ffffffffffffffff82111561476a57614769614a31565b5b602082029050602081019050919050565b6000819050602082019050919050565b600081519050919050565b600081519050919050565b6000602082019050919050565b600082825260208201905092915050565b600082825260208201905092915050565b60006147db8261488c565b91506147e68361488c565b9250827fffffffffffffffffffffffffffffffffffffffffffffffffffffffffffffffff0382111561481b5761481a614975565b5b828201905092915050565b60006148318261488c565b915061483c8361488c565b92508282101561484f5761484e614975565b5b828203905092915050565b60006148658261486c565b9050919050565b600073ffffffffffffffffffffffffffffffffffffffff82169050919050565b6000819050919050565b60005b838110156148b4578082015181840152602081019050614899565b838111156148c3576000848401525b50505050565b600060028204905060018216806148e157607f821691505b602082108114156148f5576148f46149a4565b5b50919050565b61490482614a79565b810181811067ffffffffffffffff8211171561492357614922614a31565b5b80604052505050565b60006149378261488c565b91507fffffffffffffffffffffffffffffffffffffffffffffffffffffffffffffffff82141561496a57614969614975565b5b600182019050919050565b7f4e487b7100000000000000000000000000000000000000000000000000000000600052601160045260246000fd5b7f4e487b7100000000000000000000000000000000000000000000000000000000600052602260045260246000fd5b7f4e487b7100000000000000000000000000000000000000000000000000000000600052603160045260246000fd5b7f4e487b7100000000000000000000000000000000000000000000000000000000600052603260045260246000fd5b7f4e487b7100000000000000000000000000000000000000000000000000000000600052604160045260246000fd5b600080fd5b600080fd5b600080fd5b600080fd5b600080fd5b6000601f19601f8301169050919050565b7f5768656e2073657474696e672074686520707265666572656e6365206c65766560008201527f6c206f6620636f75727365732c206974206973206e656365737361727920746f60208201527f206861766520616e20657175616c206e756d626572206f6620636f7572736573604082015250565b7fe8afa5e78fade7baa7e5b7b2e7bb8fe68993e588860000000000000000000000600082015250565b7f436f75727365206e6f7420666f756e6400000000000000000000000000000000600082015250565b7fe8afa5e88081e5b888e5b7b2e7bb8fe68993e588860000000000000000000000600082015250565b7f6d7573742075706461746520616c6c20636f7572736520737569746162696c6960008201527f7479000000000000000000000000000000000000000000000000000000000000602082015250565b7fe8afa5e79da3e5afbce5b7b2e7bb8fe8af84e588860000000000000000000000600082015250565b7f4f6e6c7920726567697374657265642074656163686572732063616e2063616c60008201527f6c20746869732066756e6374696f6e0000000000000000000000000000000000602082015250565b7f5768656e2073657474696e672074686520737569746162696c697479206c657660008201527f656c206f6620636f75727365732c206974206973206e6563657373617279207460208201527f6f206861766520616e20657175616c206e756d626572206f6620636f7572736560408201527f7300000000000000000000000000000000000000000000000000000000000000606082015250565b614ce58161485a565b8114614cf057600080fd5b50565b614cfc8161488c565b8114614d0757600080fd5b5056fea26469706673582212200fe6d4a5d7937c2399b97f4b09aba9bde263a22202cd989dfe2bdbc7cdb7228d64736f6c63430008070033",
  "immutableReferences": {},
  "source": "// SPDX-License-Identifier: MIT\r\npragma solidity ^0.8.7;\r\n\r\ncontract ICourseAllocation {\r\n    // \r\n    struct Teacher {\r\n        uint256 id;\r\n        string name;\r\n        address addr;\r\n        uint256[] assignedCourses;\r\n        uint256[] reallyAssignedCourses;\r\n        uint256 suitabilityWeight;\r\n        uint256 transferCourseCoins;\r\n        uint256 value;\r\n        mapping(uint256 => uint256) courseSuitabilities;\r\n        mapping(uint256 => uint256) coursePreferences;\r\n    }\r\n\r\n    // \r\n    struct Agent {\r\n        uint256 id;\r\n        string name;\r\n        address addr;\r\n        uint256 value;\r\n        uint256[] assignedCourses;\r\n        mapping(uint256 => uint256) courseSuitabilities;\r\n    }\r\n\r\n    // \r\n    struct Supervisor {\r\n        uint256 id;\r\n        string name;\r\n        address addr;\r\n        mapping(uint256 => uint256) courseScores;\r\n    }\r\n\r\n    // \r\n    struct Course {\r\n        uint256 id;\r\n        string name;\r\n        uint256 importance;\r\n        uint256[] assignedTeacherId;\r\n        uint256[] assignedAgentId;\r\n    }\r\n\r\n    struct CourseScore {\r\n        uint256 id; // id\r\n        uint256 totalScore;\r\n        uint256[] classScores;\r\n        mapping(uint256 => uint256) giveScoreClassIdExists;\r\n        uint256[] teacherScores;\r\n        mapping(uint256 => uint256) giveScoreTeacherIdExists;\r\n        uint256[] supervisorScores;\r\n        mapping(uint256 => uint256) giveScoreSupervisorIdExists;\r\n    }\r\n    // \r\n    string public ScoreTypeChioce;\r\n\r\n    // \r\n    uint256 public totalWeight;\r\n\r\n    //  => ID\r\n    mapping(address => uint256) public addressToTeacherId;\r\n\r\n    //  => ID\r\n    mapping(address => uint256) public addressToAgentId;\r\n\r\n    //  => ID\r\n    mapping(address => uint256) public addressToClassId;\r\n\r\n    //  => ID\r\n    mapping(address => uint256) public addressToSupervisorId;\r\n\r\n    // ID => \r\n    mapping(uint256 => Teacher) public teachers;\r\n\r\n    // ID => \r\n    mapping(uint256 => Agent) public agents;\r\n\r\n    // ID => \r\n    mapping(uint256 => Supervisor) public supervisors;\r\n\r\n    // ID => \r\n    mapping(uint256 => Course) public courses;\r\n\r\n    // ID => \r\n    mapping(uint256 => CourseScore) public courseScores;\r\n\r\n    // ID\r\n    uint256 public teacherCount;\r\n\r\n    // ID\r\n    uint256 public agentCount;\r\n\r\n    // ID\r\n    uint256 public classCount;\r\n\r\n    // ID\r\n    uint256 public courseCount;\r\n\r\n    // ID\r\n    uint256 public supervisorCount;\r\n\r\n    // ID\r\n    uint256[] public teacherIds;\r\n\r\n    // ID\r\n    uint256[] public agentIds;\r\n\r\n    // ID\r\n    uint256[] public courseIds;\r\n\r\n    // ID\r\n    uint256[] public classIds;\r\n\r\n    // ID\r\n    uint256[] public supervisorIds;\r\n\r\n    // \r\n    uint256 public transferCourseNumbers;\r\n\r\n    // \r\n    uint256 public transferCourseStartTime;\r\n\r\n    // \r\n    uint256 public transferCourseEndTime;\r\n\r\n    // \r\n    // event CourseImportanceSet(uint256 indexed courseId, uint256 importance);\r\n    // event SuitabilityUpdated(uint256 indexed courseId, uint256 suitability);\r\n    // event PreferenceUpdated(uint256 indexed teacherId, uint256 indexed courseId, uint256 preference);\r\n    // event ProposalCreated(uint256 proposalId, uint256 indexed courseId, uint256[] teacherIds); // \r\n    // event MachineProposal(uint256 proposalId, uint256 indexed courseId, uint256[] teacherIds, uint256[] teacherCounts); // \r\n    // event CourseAssignedToTeacher(uint256 indexed courseId, uint256 indexed teacherId); // \r\n\r\n    // \r\n    constructor() {}\r\n\r\n    // \r\n    modifier onlyTeacher() {\r\n        require(\r\n            addressToTeacherId[msg.sender] != 0,\r\n            \"Only registered teachers can call this function\"\r\n        );\r\n        _;\r\n    }\r\n\r\n    // ID\r\n    function setTeacherId(address teacherAddress, uint256 _TeacherId) public {\r\n        addressToTeacherId[teacherAddress] = _TeacherId;\r\n        teachers[_TeacherId].id = _TeacherId;\r\n        teacherIds.push(_TeacherId);\r\n    }\r\n\r\n    // \r\n    function removeTeacher(uint256 teacherId) public onlyTeacher {\r\n        teachers[teacherId].id = 0;\r\n        //  teacherIds  ID\r\n        for (uint256 i = 0; i < teacherIds.length; i++) {\r\n            if (teacherIds[i] == teacherId) {\r\n                //  ID \r\n                teacherIds[i] = teacherIds[teacherIds.length - 1];\r\n                // \r\n                teacherIds.pop();\r\n                break;\r\n            }\r\n        }\r\n    }\r\n\r\n    // \r\n    function setTeacherName(\r\n        uint256 teacherId,\r\n        string calldata _name\r\n    ) public onlyTeacher {\r\n        teachers[teacherId].name = _name;\r\n    }\r\n\r\n    // \r\n    function setTeacherAddress(\r\n        uint256 teacherId,\r\n        address _teacherAddress\r\n    ) public onlyTeacher {\r\n        teachers[teacherId].addr = _teacherAddress;\r\n    }\r\n\r\n    // \r\n    function addTeacherAssignedCourses(\r\n        uint256 teacherId,\r\n        uint256 _assignedCourses\r\n    ) public {\r\n        teachers[teacherId].assignedCourses.push(_assignedCourses);\r\n    }\r\n\r\n    // \r\n    function addTeacherReallyAssignedCourses(\r\n        uint256 teacherId,\r\n        uint256 _assignedCourses\r\n    ) public {\r\n        teachers[teacherId].reallyAssignedCourses.push(_assignedCourses);\r\n    }\r\n\r\n    // \r\n    function removeTeacherAssignedCourses(\r\n        uint256 teacherId,\r\n        uint256 _assignedCourses\r\n    ) public {\r\n        bool found = false;\r\n        uint256 indexToRemove;\r\n\r\n        //  ID \r\n        for (\r\n            uint256 i = 0;\r\n            i < teachers[teacherId].assignedCourses.length;\r\n            i++\r\n        ) {\r\n            if (teachers[teacherId].assignedCourses[i] == _assignedCourses) {\r\n                found = true;\r\n                indexToRemove = i;\r\n                break;\r\n            }\r\n        }\r\n\r\n        //  ID\r\n        if (found) {\r\n            // \r\n            teachers[teacherId].assignedCourses[indexToRemove] = teachers[\r\n                teacherId\r\n            ].assignedCourses[teachers[teacherId].assignedCourses.length - 1];\r\n            // \r\n            teachers[teacherId].assignedCourses.pop();\r\n        } else {\r\n            //  ID\r\n            revert(\"Course not found\");\r\n        }\r\n    }\r\n\r\n    // \r\n    function removeTeacherReallyAssignedCourses(\r\n        uint256 teacherId,\r\n        uint256 _assignedCourses\r\n    ) public {\r\n        bool found = false;\r\n        uint256 indexToRemove;\r\n\r\n        //  ID \r\n        for (\r\n            uint256 i = 0;\r\n            i < teachers[teacherId].reallyAssignedCourses.length;\r\n            i++\r\n        ) {\r\n            if (\r\n                teachers[teacherId].reallyAssignedCourses[i] == _assignedCourses\r\n            ) {\r\n                found = true;\r\n                indexToRemove = i;\r\n                break;\r\n            }\r\n        }\r\n\r\n        //  ID\r\n        if (found) {\r\n            // \r\n            teachers[teacherId].reallyAssignedCourses[indexToRemove] = teachers[\r\n                teacherId\r\n            ].reallyAssignedCourses[\r\n                    teachers[teacherId].reallyAssignedCourses.length - 1\r\n                ];\r\n            // \r\n            teachers[teacherId].reallyAssignedCourses.pop();\r\n        } else {\r\n            //  ID\r\n            revert(\"Course not found\");\r\n        }\r\n    }\r\n\r\n    // \r\n    function setTeacherSuitabilityWeight(\r\n        uint256 teacherId,\r\n        uint256 _suitabilityWeight\r\n    ) public onlyTeacher {\r\n        totalWeight -= teachers[teacherId].suitabilityWeight;\r\n        teachers[teacherId].suitabilityWeight = _suitabilityWeight;\r\n        totalWeight += teachers[teacherId].suitabilityWeight;\r\n    }\r\n\r\n    // \r\n    function setTeacherTransferCourseCoins(\r\n        uint256 teacherId,\r\n        uint256 _transferCourseCoins\r\n    ) public onlyTeacher {\r\n        teachers[teacherId].transferCourseCoins = _transferCourseCoins;\r\n    }\r\n\r\n    // \r\n    function setTeacherValue(\r\n        uint256 teacherId,\r\n        uint256 _value\r\n    ) public onlyTeacher {\r\n        teachers[teacherId].value = _value;\r\n    }\r\n\r\n    // \r\n    function setAgentValue(uint256 agentId, uint256 _value) public {\r\n        agents[agentId].value = _value;\r\n    }\r\n\r\n    // \r\n    function setAllTeacherCourseSuitability(\r\n        uint256 teacherId,\r\n        uint256[] calldata _suitabilities\r\n    ) public onlyTeacher {\r\n        require(\r\n            _suitabilities.length == courseIds.length,\r\n            \"When setting the suitability level of courses, it is necessary to have an equal number of courses\"\r\n        );\r\n        for (\r\n            uint256 courseIndex = 0;\r\n            courseIndex < courseIds.length;\r\n            courseIndex++\r\n        ) {\r\n            teachers[teacherId].courseSuitabilities[\r\n                courseIds[courseIndex]\r\n            ] = _suitabilities[courseIndex];\r\n        }\r\n    }\r\n\r\n    // \r\n    function setTeacherCourseSuitability(\r\n        uint256 teacherId,\r\n        uint256 courseId,\r\n        uint256 _suitability\r\n    ) public {\r\n        teachers[teacherId].courseSuitabilities[courseId] = _suitability;\r\n    }\r\n\r\n    // \r\n    function setAllTeacherCoursePreferences(\r\n        uint256 teacherId,\r\n        uint256[] calldata _preferences\r\n    ) public onlyTeacher {\r\n        require(\r\n            _preferences.length == courseIds.length,\r\n            \"When setting the preference level of courses, it is necessary to have an equal number of courses\"\r\n        );\r\n        for (\r\n            uint256 courseIndex = 0;\r\n            courseIndex < courseIds.length;\r\n            courseIndex++\r\n        ) {\r\n            teachers[teacherId].coursePreferences[\r\n                courseIds[courseIndex]\r\n            ] = _preferences[courseIndex];\r\n        }\r\n    }\r\n\r\n    // \r\n    function setTeacherCoursePreferences(\r\n        uint256 teacherId,\r\n        uint256 courseId,\r\n        uint256 _preference\r\n    ) public onlyTeacher {\r\n        teachers[teacherId].coursePreferences[courseId] = _preference;\r\n    }\r\n\r\n    // ID\r\n    function setAgentId(address agentAddress, uint256 _agentId) public {\r\n        addressToAgentId[agentAddress] = _agentId;\r\n        agents[_agentId].id = _agentId;\r\n        agentIds.push(_agentId);\r\n    }\r\n\r\n    // \r\n    function removeAgent(uint256 agentId) public {\r\n        agents[agentId].id = 0;\r\n        //  agentIds  ID\r\n        for (uint256 i = 0; i < agentIds.length; i++) {\r\n            if (agentIds[i] == agentId) {\r\n                //  ID \r\n                agentIds[i] = agentIds[agentIds.length - 1];\r\n                // \r\n                agentIds.pop();\r\n                break;\r\n            }\r\n        }\r\n    }\r\n\r\n    // \r\n    function setAgentName(uint256 agentId, string calldata _name) public {\r\n        agents[agentId].name = _name;\r\n    }\r\n\r\n    // \r\n    function setAgentAddress(uint256 agentId, address _agentAddress) public {\r\n        agents[agentId].addr = _agentAddress;\r\n    }\r\n\r\n    // \r\n    function addAgentAssignedCourses(\r\n        uint256 agentId,\r\n        uint256 _assignedCourses\r\n    ) public {\r\n        agents[agentId].assignedCourses.push(_assignedCourses);\r\n    }\r\n\r\n    // \r\n    function removeAgentAssignedCourses(\r\n        uint256 agentId,\r\n        uint256 _assignedCourses\r\n    ) public {\r\n        bool found = false;\r\n        uint256 indexToRemove;\r\n\r\n        //  ID \r\n        for (uint256 i = 0; i < agents[agentId].assignedCourses.length; i++) {\r\n            if (agents[agentId].assignedCourses[i] == _assignedCourses) {\r\n                found = true;\r\n                indexToRemove = i;\r\n                break;\r\n            }\r\n        }\r\n\r\n        //  ID\r\n        if (found) {\r\n            // \r\n            agents[agentId].assignedCourses[indexToRemove] = agents[agentId]\r\n                .assignedCourses[agents[agentId].assignedCourses.length - 1];\r\n            // \r\n            agents[agentId].assignedCourses.pop();\r\n        } else {\r\n            //  ID\r\n            revert(\"Course not found\");\r\n        }\r\n    }\r\n\r\n    // \r\n    function setAgentCourseSuitability(\r\n        uint256 agentId,\r\n        uint256 _courseId,\r\n        uint256 _suitability\r\n    ) public {\r\n        agents[agentId].courseSuitabilities[_courseId] = _suitability;\r\n    }\r\n\r\n    // \r\n    function setAllAgentCourseSuitability(\r\n        uint256 agentId,\r\n        uint256[] calldata _suitabilities\r\n    ) public {\r\n        require(\r\n            _suitabilities.length == courseIds.length,\r\n            \"When setting the suitability level of courses, it is necessary to have an equal number of courses\"\r\n        );\r\n        for (\r\n            uint256 courseIndex = 0;\r\n            courseIndex < courseIds.length;\r\n            courseIndex++\r\n        ) {\r\n            agents[agentId].courseSuitabilities[\r\n                courseIds[courseIndex]\r\n            ] = _suitabilities[courseIndex];\r\n        }\r\n    }\r\n\r\n    // ID\r\n    function setClassId(address classAddress, uint256 _id) public {\r\n        addressToClassId[classAddress] = _id;\r\n        classIds.push(_id);\r\n    }\r\n\r\n    // \r\n    function removeClass(uint256 classId) public {\r\n        //  classIds  ID\r\n        for (uint256 i = 0; i < classIds.length; i++) {\r\n            if (classIds[i] == classId) {\r\n                //  ID \r\n                classIds[i] = classIds[classIds.length - 1];\r\n                // \r\n                classIds.pop();\r\n                break;\r\n            }\r\n        }\r\n    }\r\n\r\n    // ID\r\n    function setCourseId(uint256 courseId) public {\r\n        courses[courseId].id = courseId;\r\n        courseIds.push(courseId);\r\n    }\r\n\r\n    // \r\n    function removeCourse(uint256 courseId) public {\r\n        //  classIds  ID\r\n        for (uint256 i = 0; i < courseIds.length; i++) {\r\n            if (courseIds[i] == courseId) {\r\n                //  ID \r\n                courseIds[i] = courseIds[courseIds.length - 1];\r\n                // \r\n                courseIds.pop();\r\n                break;\r\n            }\r\n        }\r\n    }\r\n\r\n    // \r\n    function setCourseName(uint256 courseId, string calldata _name) public {\r\n        courses[courseId].name = _name;\r\n    }\r\n\r\n    // \r\n    function setCourseImportance(uint256 courseId, uint256 _importance) public {\r\n        courses[courseId].importance = _importance;\r\n    }\r\n\r\n    // \r\n    function setAllCourseImportance(uint256[] memory _importances) public {\r\n        require(\r\n            _importances.length == courseIds.length,\r\n            \"must update all course suitability\"\r\n        );\r\n        // \r\n        for (\r\n            uint256 courseIndex = 0;\r\n            courseIndex < courseIds.length;\r\n            courseIndex++\r\n        ) {\r\n            courses[courseIds[courseIndex]].importance = _importances[\r\n                courseIndex\r\n            ];\r\n        }\r\n    }\r\n\r\n    // ID\r\n    function addCourseAssignedTeacherId(\r\n        uint256 courseId,\r\n        uint256 _teacherId\r\n    ) public {\r\n        courses[courseId].assignedTeacherId.push(_teacherId);\r\n    }\r\n\r\n    // ID\r\n    function addCourseAssignedAgentId(\r\n        uint256 courseId,\r\n        uint256 _agentId\r\n    ) public {\r\n        courses[courseId].assignedAgentId.push(_agentId);\r\n    }\r\n\r\n    // \r\n    function removeCourseAssignedTeacherId(\r\n        uint256 courseId,\r\n        uint256 _teacherId\r\n    ) public {\r\n        bool found = false;\r\n        uint256 indexToRemove;\r\n\r\n        //  ID \r\n        for (\r\n            uint256 i = 0;\r\n            i < courses[courseId].assignedTeacherId.length;\r\n            i++\r\n        ) {\r\n            if (courses[courseId].assignedTeacherId[i] == _teacherId) {\r\n                found = true;\r\n                indexToRemove = i;\r\n                break;\r\n            }\r\n        }\r\n\r\n        //  ID\r\n        if (found) {\r\n            // \r\n            courses[courseId].assignedTeacherId[indexToRemove] = courses[\r\n                courseId\r\n            ].assignedTeacherId[courses[courseId].assignedTeacherId.length - 1];\r\n            // \r\n            courses[courseId].assignedTeacherId.pop();\r\n        } else {\r\n            //  ID\r\n            revert(\"Course not found\");\r\n        }\r\n    }\r\n\r\n    // \r\n    function removeCourseAssignedAgentId(\r\n        uint256 courseId,\r\n        uint256 _agentId\r\n    ) public {\r\n        bool found = false;\r\n        uint256 indexToRemove;\r\n\r\n        //  ID \r\n        for (uint256 i = 0; i < courses[courseId].assignedAgentId.length; i++) {\r\n            if (courses[courseId].assignedAgentId[i] == _agentId) {\r\n                found = true;\r\n                indexToRemove = i;\r\n                break;\r\n            }\r\n        }\r\n\r\n        //  ID\r\n        if (found) {\r\n            // \r\n            courses[courseId].assignedAgentId[indexToRemove] = courses[courseId]\r\n                .assignedAgentId[courses[courseId].assignedAgentId.length - 1];\r\n            // \r\n            courses[courseId].assignedAgentId.pop();\r\n        } else {\r\n            //  ID\r\n            // revert(\"Course not found\"); \r\n        }\r\n    }\r\n\r\n    // // \r\n    // function setCourseIsAgentSuitable(\r\n    //     uint256 courseId,\r\n    //     bool _isAgentSuitable\r\n    // ) public {\r\n    //     courses[courseId].isAgentSuitable = _isAgentSuitable;\r\n    // }\r\n\r\n    // \r\n    function setTeacherCount(uint256 _teacherCount) public {\r\n        teacherCount = _teacherCount;\r\n    }\r\n\r\n    // \r\n    function setAgentCount(uint256 _agentCount) public {\r\n        agentCount = _agentCount;\r\n    }\r\n\r\n    // \r\n    function setClassCount(uint256 _classCount) public {\r\n        classCount = _classCount;\r\n    }\r\n\r\n    // \r\n    function setCourseCount(uint256 _courseCount) public {\r\n        courseCount = _courseCount;\r\n    }\r\n\r\n    // \r\n    function getTeacherSuitability(\r\n        uint256 _teacherId,\r\n        uint256 courseId\r\n    ) public view returns (uint256) {\r\n        return teachers[_teacherId].courseSuitabilities[courseId];\r\n    }\r\n\r\n    // \r\n    function getAgentSuitability(\r\n        uint256 _agentId,\r\n        uint256 courseId\r\n    ) public view returns (uint256) {\r\n        return agents[_agentId].courseSuitabilities[courseId];\r\n    }\r\n\r\n    // \r\n    function getPreference(\r\n        uint256 _teacherId,\r\n        uint256 courseId\r\n    ) public view returns (uint256) {\r\n        return teachers[_teacherId].coursePreferences[courseId];\r\n    }\r\n\r\n    // \r\n    function getTeacherAssignedCourses(\r\n        uint256 _teacherId\r\n    ) public view returns (uint256[] memory) {\r\n        return teachers[_teacherId].assignedCourses;\r\n    }\r\n\r\n    // \r\n    function getTeacherReallyAssignedCourses(\r\n        uint256 _teacherId\r\n    ) public view returns (uint256[] memory) {\r\n        return teachers[_teacherId].reallyAssignedCourses;\r\n    }\r\n\r\n    // \r\n    function getAgentAssignedCourses(\r\n        uint256 _agentId\r\n    ) public view returns (uint256[] memory) {\r\n        return agents[_agentId].assignedCourses;\r\n    }\r\n\r\n    // \r\n    function getCoursesAssignedTeacher(\r\n        uint256 _courseId\r\n    ) public view returns (uint256[] memory) {\r\n        return courses[_courseId].assignedTeacherId;\r\n    }\r\n\r\n    // \r\n    function getCoursesAssignedAgent(\r\n        uint256 _courseId\r\n    ) public view returns (uint256[] memory) {\r\n        return courses[_courseId].assignedAgentId;\r\n    }\r\n\r\n    // \r\n    function getCourseImportance(uint courseId) external view returns (uint) {\r\n        return courses[courseId].importance;\r\n    }\r\n\r\n    // // \r\n    // function getCourseIsAgentSuitable(\r\n    //     uint courseId\r\n    // ) external view returns (bool) {\r\n    //     return courses[courseId].isAgentSuitable;\r\n    // }\r\n\r\n    function getTeacherIds() public view returns (uint256[] memory) {\r\n        return teacherIds;\r\n    }\r\n\r\n    function getAgentIds() public view returns (uint256[] memory) {\r\n        return agentIds;\r\n    }\r\n\r\n    function getCourseIds() public view returns (uint256[] memory) {\r\n        return courseIds;\r\n    }\r\n\r\n    function getClassIds() public view returns (uint256[] memory) {\r\n        return classIds;\r\n    }\r\n\r\n    function addCourseClassScores(\r\n        uint256 courseId,\r\n        uint256 classId,\r\n        uint256 score\r\n    ) public {\r\n        require(\r\n            courseScores[courseId].giveScoreClassIdExists[classId] == 0,\r\n            unicode\"\"\r\n        );\r\n        courseScores[courseId].giveScoreClassIdExists[classId] = score;\r\n        courseScores[courseId].classScores.push(score);\r\n    }\r\n\r\n    function getGiveScoreClassIdExists(\r\n        uint256 courseId,\r\n        uint256 classId\r\n    ) public view returns (uint256) {\r\n        return courseScores[courseId].giveScoreClassIdExists[classId];\r\n    }\r\n\r\n    // \r\n    function removeCourseClassScores(\r\n        uint256 courseId,\r\n        uint256[] memory classIds_\r\n    ) public {\r\n        for (uint256 i = 0; i < classIds_.length; i++) {\r\n            courseScores[courseId].giveScoreClassIdExists[classIds_[i]] = 0;\r\n        }\r\n        delete courseScores[courseId].classScores;\r\n    }\r\n\r\n    function getCourseClassScores(\r\n        uint256 courseId\r\n    ) public view returns (uint256[] memory) {\r\n        return courseScores[courseId].classScores;\r\n    }\r\n\r\n    function addTeacherScores(\r\n        uint256 courseId,\r\n        uint256 teacherId,\r\n        uint256 score\r\n    ) public {\r\n        require(\r\n            courseScores[courseId].giveScoreTeacherIdExists[teacherId] == 0,\r\n            unicode\"\"\r\n        );\r\n        courseScores[courseId].giveScoreTeacherIdExists[teacherId] = score;\r\n        courseScores[courseId].teacherScores.push(score);\r\n    }\r\n\r\n    function removeTeacherScores(\r\n        uint256 courseId,\r\n        uint256[] memory teacherIds_\r\n    ) public {\r\n        for (uint256 i = 0; i < teacherIds_.length; i++) {\r\n            courseScores[courseId].giveScoreTeacherIdExists[teacherIds_[i]] = 0;\r\n        }\r\n        delete courseScores[courseId].teacherScores;\r\n    }\r\n\r\n    function getTeacherScores(uint256 courseId) public view returns (uint256[] memory) {\r\n        return courseScores[courseId].teacherScores;\r\n    }\r\n\r\n    function getGiveScoreTeacherIdExists(\r\n        uint256 courseId,\r\n        uint256 teacherId \r\n    ) public view returns (uint256) {\r\n        return courseScores[courseId].giveScoreTeacherIdExists[teacherId]; \r\n    }\r\n\r\n    function setCourseTotalScore(uint256 courseId, uint256 score) public {\r\n        courseScores[courseId].totalScore = score;\r\n    }\r\n\r\n    function addCourseSupervisorScores(\r\n        uint256 courseId,\r\n        uint256 supervisorId,\r\n        uint256 score\r\n    ) public {\r\n        require(\r\n            courseScores[courseId].giveScoreSupervisorIdExists[supervisorId] ==\r\n                0,\r\n            unicode\"\"\r\n        );\r\n        courseScores[courseId].giveScoreSupervisorIdExists[\r\n            supervisorId\r\n        ] = score;\r\n        courseScores[courseId].supervisorScores.push(score);\r\n    }\r\n\r\n    function removeCourseSupervisorScores(\r\n        uint256 courseId,\r\n        uint256[] memory supervisorIds_ \r\n    ) public {\r\n        for (uint256 i = 0; i < supervisorIds_.length; i++) {\r\n            courseScores[courseId].giveScoreSupervisorIdExists[supervisorIds_[i]] = 0;\r\n        }\r\n        delete courseScores[courseId].supervisorScores;\r\n    }\r\n\r\n    function getGiveScoreSupervisorIdExists(\r\n        uint256 courseId,\r\n        uint256 supervisorId\r\n    ) public view returns (uint256) {\r\n        return courseScores[courseId].giveScoreSupervisorIdExists[supervisorId];\r\n    }\r\n\r\n    function getCourseSupervisorScores(\r\n        uint256 courseId\r\n    ) public view returns (uint256[] memory) {\r\n        return courseScores[courseId].supervisorScores;\r\n    }\r\n\r\n    function addSupervisorId(uint256 supervisorId) public {\r\n        supervisorIds.push(supervisorId);\r\n        supervisorCount++;\r\n    }\r\n\r\n    function getSupervisorIds() public view returns (uint256[] memory) {\r\n        return supervisorIds;\r\n    }\r\n\r\n    function setSupervisorId(address supervisor, uint256 supervisorId) public {\r\n        addressToSupervisorId[supervisor] = supervisorId;\r\n        supervisors[supervisorId].id = supervisorId;\r\n        supervisors[supervisorId].addr = supervisor;\r\n    }\r\n\r\n    function setSupervisorName(\r\n        uint256 supervisorId,\r\n        string calldata _name\r\n    ) public {\r\n        supervisors[supervisorId].name = _name;\r\n    }\r\n\r\n    function setSupervisorsCourseScore(\r\n        uint256 supervisorId,\r\n        uint256 courseId,\r\n        uint256 score\r\n    ) public {\r\n        supervisors[supervisorId].courseScores[courseId] = score;\r\n    }\r\n\r\n    function settransferCourseNumbers(uint256 _transferCourseNumbers) public {\r\n        transferCourseNumbers = _transferCourseNumbers;\r\n    }\r\n\r\n    function settransferCourseStartTime(\r\n        uint256 _transferCourseStartTime\r\n    ) public {\r\n        transferCourseStartTime = _transferCourseStartTime;\r\n    }\r\n\r\n    function settransferCourseEndTime(uint256 _transferCourseEndTime) public {\r\n        transferCourseEndTime = _transferCourseEndTime;\r\n    }\r\n\r\n    function setScoreType(string calldata option) public {\r\n        ScoreTypeChioce = option;\r\n    }\r\n}\r\n",
  "sourcePath": "D:\\vscode\\\\course\\project\\contracts\\ICourseAllocation.sol",
  "compiler": {
    "name": "solc",
    "version": "0.8.7+commit.e28d00a7.Emscripten.clang"
  },
  "schemaVersion": "3.4.16",
  "updatedAt": "2025-04-15T08:10:34.225Z",
  "networkType": "ethereum",
  "devdoc": {
    "kind": "dev",
    "methods": {},
    "version": 1
  },
  "userdoc": {
    "kind": "user",
    "methods": {},
    "version": 1
  }
}