{
  "contractName": "ICourseAllocation",
  "abi": [
    {
      "inputs": [],
      "stateMutability": "nonpayable",
      "type": "constructor"
    },
    {
      "inputs": [],
      "name": "ScoreTypeChioce",
      "outputs": [
        {
          "internalType": "string",
          "name": "",
          "type": "string"
        }
      ],
      "stateMutability": "view",
      "type": "function"
    },
    {
      "inputs": [
        {
          "internalType": "address",
          "name": "",
          "type": "address"
        }
      ],
      "name": "addressToAgentId",
      "outputs": [
        {
          "internalType": "uint256",
          "name": "",
          "type": "uint256"
        }
      ],
      "stateMutability": "view",
      "type": "function"
    },
    {
      "inputs": [
        {
          "internalType": "address",
          "name": "",
          "type": "address"
        }
      ],
      "name": "addressToClassId",
      "outputs": [
        {
          "internalType": "uint256",
          "name": "",
          "type": "uint256"
        }
      ],
      "stateMutability": "view",
      "type": "function"
    },
    {
      "inputs": [
        {
          "internalType": "address",
          "name": "",
          "type": "address"
        }
      ],
      "name": "addressToSupervisorId",
      "outputs": [
        {
          "internalType": "uint256",
          "name": "",
          "type": "uint256"
        }
      ],
      "stateMutability": "view",
      "type": "function"
    },
    {
      "inputs": [
        {
          "internalType": "address",
          "name": "",
          "type": "address"
        }
      ],
      "name": "addressToTeacherId",
      "outputs": [
        {
          "internalType": "uint256",
          "name": "",
          "type": "uint256"
        }
      ],
      "stateMutability": "view",
      "type": "function"
    },
    {
      "inputs": [],
      "name": "agentCount",
      "outputs": [
        {
          "internalType": "uint256",
          "name": "",
          "type": "uint256"
        }
      ],
      "stateMutability": "view",
      "type": "function"
    },
    {
      "inputs": [
        {
          "internalType": "uint256",
          "name": "",
          "type": "uint256"
        }
      ],
      "name": "agentIds",
      "outputs": [
        {
          "internalType": "uint256",
          "name": "",
          "type": "uint256"
        }
      ],
      "stateMutability": "view",
      "type": "function"
    },
    {
      "inputs": [
        {
          "internalType": "uint256",
          "name": "",
          "type": "uint256"
        }
      ],
      "name": "agents",
      "outputs": [
        {
          "internalType": "uint256",
          "name": "id",
          "type": "uint256"
        },
        {
          "internalType": "string",
          "name": "name",
          "type": "string"
        },
        {
          "internalType": "address",
          "name": "addr",
          "type": "address"
        },
        {
          "internalType": "uint256",
          "name": "value",
          "type": "uint256"
        }
      ],
      "stateMutability": "view",
      "type": "function"
    },
    {
      "inputs": [],
      "name": "classCount",
      "outputs": [
        {
          "internalType": "uint256",
          "name": "",
          "type": "uint256"
        }
      ],
      "stateMutability": "view",
      "type": "function"
    },
    {
      "inputs": [
        {
          "internalType": "uint256",
          "name": "",
          "type": "uint256"
        }
      ],
      "name": "classIds",
      "outputs": [
        {
          "internalType": "uint256",
          "name": "",
          "type": "uint256"
        }
      ],
      "stateMutability": "view",
      "type": "function"
    },
    {
      "inputs": [],
      "name": "courseCount",
      "outputs": [
        {
          "internalType": "uint256",
          "name": "",
          "type": "uint256"
        }
      ],
      "stateMutability": "view",
      "type": "function"
    },
    {
      "inputs": [
        {
          "internalType": "uint256",
          "name": "",
          "type": "uint256"
        }
      ],
      "name": "courseIds",
      "outputs": [
        {
          "internalType": "uint256",
          "name": "",
          "type": "uint256"
        }
      ],
      "stateMutability": "view",
      "type": "function"
    },
    {
      "inputs": [
        {
          "internalType": "uint256",
          "name": "",
          "type": "uint256"
        }
      ],
      "name": "courseScores",
      "outputs": [
        {
          "internalType": "uint256",
          "name": "id",
          "type": "uint256"
        },
        {
          "internalType": "uint256",
          "name": "totalScore",
          "type": "uint256"
        }
      ],
      "stateMutability": "view",
      "type": "function"
    },
    {
      "inputs": [
        {
          "internalType": "uint256",
          "name": "",
          "type": "uint256"
        }
      ],
      "name": "courses",
      "outputs": [
        {
          "internalType": "uint256",
          "name": "id",
          "type": "uint256"
        },
        {
          "internalType": "string",
          "name": "name",
          "type": "string"
        },
        {
          "internalType": "uint256",
          "name": "importance",
          "type": "uint256"
        }
      ],
      "stateMutability": "view",
      "type": "function"
    },
    {
      "inputs": [],
      "name": "supervisorCount",
      "outputs": [
        {
          "internalType": "uint256",
          "name": "",
          "type": "uint256"
        }
      ],
      "stateMutability": "view",
      "type": "function"
    },
    {
      "inputs": [
        {
          "internalType": "uint256",
          "name": "",
          "type": "uint256"
        }
      ],
      "name": "supervisorIds",
      "outputs": [
        {
          "internalType": "uint256",
          "name": "",
          "type": "uint256"
        }
      ],
      "stateMutability": "view",
      "type": "function"
    },
    {
      "inputs": [
        {
          "internalType": "uint256",
          "name": "",
          "type": "uint256"
        }
      ],
      "name": "supervisors",
      "outputs": [
        {
          "internalType": "uint256",
          "name": "id",
          "type": "uint256"
        },
        {
          "internalType": "string",
          "name": "name",
          "type": "string"
        },
        {
          "internalType": "address",
          "name": "addr",
          "type": "address"
        }
      ],
      "stateMutability": "view",
      "type": "function"
    },
    {
      "inputs": [],
      "name": "teacherCount",
      "outputs": [
        {
          "internalType": "uint256",
          "name": "",
          "type": "uint256"
        }
      ],
      "stateMutability": "view",
      "type": "function"
    },
    {
      "inputs": [
        {
          "internalType": "uint256",
          "name": "",
          "type": "uint256"
        }
      ],
      "name": "teacherIds",
      "outputs": [
        {
          "internalType": "uint256",
          "name": "",
          "type": "uint256"
        }
      ],
      "stateMutability": "view",
      "type": "function"
    },
    {
      "inputs": [
        {
          "internalType": "uint256",
          "name": "",
          "type": "uint256"
        }
      ],
      "name": "teachers",
      "outputs": [
        {
          "internalType": "uint256",
          "name": "id",
          "type": "uint256"
        },
        {
          "internalType": "string",
          "name": "name",
          "type": "string"
        },
        {
          "internalType": "address",
          "name": "addr",
          "type": "address"
        },
        {
          "internalType": "uint256",
          "name": "suitabilityWeight",
          "type": "uint256"
        },
        {
          "internalType": "uint256",
          "name": "transferCourseCoins",
          "type": "uint256"
        },
        {
          "internalType": "uint256",
          "name": "value",
          "type": "uint256"
        }
      ],
      "stateMutability": "view",
      "type": "function"
    },
    {
      "inputs": [],
      "name": "totalWeight",
      "outputs": [
        {
          "internalType": "uint256",
          "name": "",
          "type": "uint256"
        }
      ],
      "stateMutability": "view",
      "type": "function"
    },
    {
      "inputs": [],
      "name": "transferCourseEndTime",
      "outputs": [
        {
          "internalType": "uint256",
          "name": "",
          "type": "uint256"
        }
      ],
      "stateMutability": "view",
      "type": "function"
    },
    {
      "inputs": [],
      "name": "transferCourseNumbers",
      "outputs": [
        {
          "internalType": "uint256",
          "name": "",
          "type": "uint256"
        }
      ],
      "stateMutability": "view",
      "type": "function"
    },
    {
      "inputs": [],
      "name": "transferCourseStartTime",
      "outputs": [
        {
          "internalType": "uint256",
          "name": "",
          "type": "uint256"
        }
      ],
      "stateMutability": "view",
      "type": "function"
    },
    {
      "inputs": [
        {
          "internalType": "address",
          "name": "teacherAddress",
          "type": "address"
        },
        {
          "internalType": "uint256",
          "name": "_TeacherId",
          "type": "uint256"
        }
      ],
      "name": "setTeacherId",
      "outputs": [],
      "stateMutability": "nonpayable",
      "type": "function"
    },
    {
      "inputs": [
        {
          "internalType": "uint256",
          "name": "teacherId",
          "type": "uint256"
        }
      ],
      "name": "removeTeacher",
      "outputs": [],
      "stateMutability": "nonpayable",
      "type": "function"
    },
    {
      "inputs": [
        {
          "internalType": "uint256",
          "name": "teacherId",
          "type": "uint256"
        },
        {
          "internalType": "string",
          "name": "_name",
          "type": "string"
        }
      ],
      "name": "setTeacherName",
      "outputs": [],
      "stateMutability": "nonpayable",
      "type": "function"
    },
    {
      "inputs": [
        {
          "internalType": "uint256",
          "name": "teacherId",
          "type": "uint256"
        },
        {
          "internalType": "address",
          "name": "_teacherAddress",
          "type": "address"
        }
      ],
      "name": "setTeacherAddress",
      "outputs": [],
      "stateMutability": "nonpayable",
      "type": "function"
    },
    {
      "inputs": [
        {
          "internalType": "uint256",
          "name": "teacherId",
          "type": "uint256"
        },
        {
          "internalType": "uint256",
          "name": "_assignedCourses",
          "type": "uint256"
        }
      ],
      "name": "addTeacherAssignedCourses",
      "outputs": [],
      "stateMutability": "nonpayable",
      "type": "function"
    },
    {
      "inputs": [
        {
          "internalType": "uint256",
          "name": "teacherId",
          "type": "uint256"
        },
        {
          "internalType": "uint256",
          "name": "_assignedCourses",
          "type": "uint256"
        }
      ],
      "name": "addTeacherReallyAssignedCourses",
      "outputs": [],
      "stateMutability": "nonpayable",
      "type": "function"
    },
    {
      "inputs": [
        {
          "internalType": "uint256",
          "name": "teacherId",
          "type": "uint256"
        },
        {
          "internalType": "uint256",
          "name": "_assignedCourses",
          "type": "uint256"
        }
      ],
      "name": "removeTeacherAssignedCourses",
      "outputs": [],
      "stateMutability": "nonpayable",
      "type": "function"
    },
    {
      "inputs": [
        {
          "internalType": "uint256",
          "name": "teacherId",
          "type": "uint256"
        },
        {
          "internalType": "uint256",
          "name": "_assignedCourses",
          "type": "uint256"
        }
      ],
      "name": "removeTeacherReallyAssignedCourses",
      "outputs": [],
      "stateMutability": "nonpayable",
      "type": "function"
    },
    {
      "inputs": [
        {
          "internalType": "uint256",
          "name": "teacherId",
          "type": "uint256"
        },
        {
          "internalType": "uint256",
          "name": "_suitabilityWeight",
          "type": "uint256"
        }
      ],
      "name": "setTeacherSuitabilityWeight",
      "outputs": [],
      "stateMutability": "nonpayable",
      "type": "function"
    },
    {
      "inputs": [
        {
          "internalType": "uint256",
          "name": "teacherId",
          "type": "uint256"
        },
        {
          "internalType": "uint256",
          "name": "_transferCourseCoins",
          "type": "uint256"
        }
      ],
      "name": "setTeacherTransferCourseCoins",
      "outputs": [],
      "stateMutability": "nonpayable",
      "type": "function"
    },
    {
      "inputs": [
        {
          "internalType": "uint256",
          "name": "teacherId",
          "type": "uint256"
        },
        {
          "internalType": "uint256",
          "name": "_value",
          "type": "uint256"
        }
      ],
      "name": "setTeacherValue",
      "outputs": [],
      "stateMutability": "nonpayable",
      "type": "function"
    },
    {
      "inputs": [
        {
          "internalType": "uint256",
          "name": "agentId",
          "type": "uint256"
        },
        {
          "internalType": "uint256",
          "name": "_value",
          "type": "uint256"
        }
      ],
      "name": "setAgentValue",
      "outputs": [],
      "stateMutability": "nonpayable",
      "type": "function"
    },
    {
      "inputs": [
        {
          "internalType": "uint256",
          "name": "teacherId",
          "type": "uint256"
        },
        {
          "internalType": "uint256[]",
          "name": "_suitabilities",
          "type": "uint256[]"
        }
      ],
      "name": "setAllTeacherCourseSuitability",
      "outputs": [],
      "stateMutability": "nonpayable",
      "type": "function"
    },
    {
      "inputs": [
        {
          "internalType": "uint256",
          "name": "teacherId",
          "type": "uint256"
        },
        {
          "internalType": "uint256",
          "name": "courseId",
          "type": "uint256"
        },
        {
          "internalType": "uint256",
          "name": "_suitability",
          "type": "uint256"
        }
      ],
      "name": "setTeacherCourseSuitability",
      "outputs": [],
      "stateMutability": "nonpayable",
      "type": "function"
    },
    {
      "inputs": [
        {
          "internalType": "uint256",
          "name": "teacherId",
          "type": "uint256"
        },
        {
          "internalType": "uint256[]",
          "name": "_preferences",
          "type": "uint256[]"
        }
      ],
      "name": "setAllTeacherCoursePreferences",
      "outputs": [],
      "stateMutability": "nonpayable",
      "type": "function"
    },
    {
      "inputs": [
        {
          "internalType": "uint256",
          "name": "teacherId",
          "type": "uint256"
        },
        {
          "internalType": "uint256",
          "name": "courseId",
          "type": "uint256"
        },
        {
          "internalType": "uint256",
          "name": "_preference",
          "type": "uint256"
        }
      ],
      "name": "setTeacherCoursePreferences",
      "outputs": [],
      "stateMutability": "nonpayable",
      "type": "function"
    },
    {
      "inputs": [
        {
          "internalType": "address",
          "name": "agentAddress",
          "type": "address"
        },
        {
          "internalType": "uint256",
          "name": "_agentId",
          "type": "uint256"
        }
      ],
      "name": "setAgentId",
      "outputs": [],
      "stateMutability": "nonpayable",
      "type": "function"
    },
    {
      "inputs": [
        {
          "internalType": "uint256",
          "name": "agentId",
          "type": "uint256"
        }
      ],
      "name": "removeAgent",
      "outputs": [],
      "stateMutability": "nonpayable",
      "type": "function"
    },
    {
      "inputs": [
        {
          "internalType": "uint256",
          "name": "agentId",
          "type": "uint256"
        },
        {
          "internalType": "string",
          "name": "_name",
          "type": "string"
        }
      ],
      "name": "setAgentName",
      "outputs": [],
      "stateMutability": "nonpayable",
      "type": "function"
    },
    {
      "inputs": [
        {
          "internalType": "uint256",
          "name": "agentId",
          "type": "uint256"
        },
        {
          "internalType": "address",
          "name": "_agentAddress",
          "type": "address"
        }
      ],
      "name": "setAgentAddress",
      "outputs": [],
      "stateMutability": "nonpayable",
      "type": "function"
    },
    {
      "inputs": [
        {
          "internalType": "uint256",
          "name": "agentId",
          "type": "uint256"
        },
        {
          "internalType": "uint256",
          "name": "_assignedCourses",
          "type": "uint256"
        }
      ],
      "name": "addAgentAssignedCourses",
      "outputs": [],
      "stateMutability": "nonpayable",
      "type": "function"
    },
    {
      "inputs": [
        {
          "internalType": "uint256",
          "name": "agentId",
          "type": "uint256"
        },
        {
          "internalType": "uint256",
          "name": "_assignedCourses",
          "type": "uint256"
        }
      ],
      "name": "removeAgentAssignedCourses",
      "outputs": [],
      "stateMutability": "nonpayable",
      "type": "function"
    },
    {
      "inputs": [
        {
          "internalType": "uint256",
          "name": "agentId",
          "type": "uint256"
        },
        {
          "internalType": "uint256",
          "name": "_courseId",
          "type": "uint256"
        },
        {
          "internalType": "uint256",
          "name": "_suitability",
          "type": "uint256"
        }
      ],
      "name": "setAgentCourseSuitability",
      "outputs": [],
      "stateMutability": "nonpayable",
      "type": "function"
    },
    {
      "inputs": [
        {
          "internalType": "uint256",
          "name": "agentId",
          "type": "uint256"
        },
        {
          "internalType": "uint256[]",
          "name": "_suitabilities",
          "type": "uint256[]"
        }
      ],
      "name": "setAllAgentCourseSuitability",
      "outputs": [],
      "stateMutability": "nonpayable",
      "type": "function"
    },
    {
      "inputs": [
        {
          "internalType": "address",
          "name": "classAddress",
          "type": "address"
        },
        {
          "internalType": "uint256",
          "name": "_id",
          "type": "uint256"
        }
      ],
      "name": "setClassId",
      "outputs": [],
      "stateMutability": "nonpayable",
      "type": "function"
    },
    {
      "inputs": [
        {
          "internalType": "uint256",
          "name": "classId",
          "type": "uint256"
        }
      ],
      "name": "removeClass",
      "outputs": [],
      "stateMutability": "nonpayable",
      "type": "function"
    },
    {
      "inputs": [
        {
          "internalType": "uint256",
          "name": "courseId",
          "type": "uint256"
        }
      ],
      "name": "setCourseId",
      "outputs": [],
      "stateMutability": "nonpayable",
      "type": "function"
    },
    {
      "inputs": [
        {
          "internalType": "uint256",
          "name": "courseId",
          "type": "uint256"
        }
      ],
      "name": "removeCourse",
      "outputs": [],
      "stateMutability": "nonpayable",
      "type": "function"
    },
    {
      "inputs": [
        {
          "internalType": "uint256",
          "name": "courseId",
          "type": "uint256"
        },
        {
          "internalType": "string",
          "name": "_name",
          "type": "string"
        }
      ],
      "name": "setCourseName",
      "outputs": [],
      "stateMutability": "nonpayable",
      "type": "function"
    },
    {
      "inputs": [
        {
          "internalType": "uint256",
          "name": "courseId",
          "type": "uint256"
        },
        {
          "internalType": "uint256",
          "name": "_importance",
          "type": "uint256"
        }
      ],
      "name": "setCourseImportance",
      "outputs": [],
      "stateMutability": "nonpayable",
      "type": "function"
    },
    {
      "inputs": [
        {
          "internalType": "uint256[]",
          "name": "_importances",
          "type": "uint256[]"
        }
      ],
      "name": "setAllCourseImportance",
      "outputs": [],
      "stateMutability": "nonpayable",
      "type": "function"
    },
    {
      "inputs": [
        {
          "internalType": "uint256",
          "name": "courseId",
          "type": "uint256"
        },
        {
          "internalType": "uint256",
          "name": "_teacherId",
          "type": "uint256"
        }
      ],
      "name": "addCourseAssignedTeacherId",
      "outputs": [],
      "stateMutability": "nonpayable",
      "type": "function"
    },
    {
      "inputs": [
        {
          "internalType": "uint256",
          "name": "courseId",
          "type": "uint256"
        },
        {
          "internalType": "uint256",
          "name": "_agentId",
          "type": "uint256"
        }
      ],
      "name": "addCourseAssignedAgentId",
      "outputs": [],
      "stateMutability": "nonpayable",
      "type": "function"
    },
    {
      "inputs": [
        {
          "internalType": "uint256",
          "name": "courseId",
          "type": "uint256"
        },
        {
          "internalType": "uint256",
          "name": "_teacherId",
          "type": "uint256"
        }
      ],
      "name": "removeCourseAssignedTeacherId",
      "outputs": [],
      "stateMutability": "nonpayable",
      "type": "function"
    },
    {
      "inputs": [
        {
          "internalType": "uint256",
          "name": "courseId",
          "type": "uint256"
        },
        {
          "internalType": "uint256",
          "name": "_agentId",
          "type": "uint256"
        }
      ],
      "name": "removeCourseAssignedAgentId",
      "outputs": [],
      "stateMutability": "nonpayable",
      "type": "function"
    },
    {
      "inputs": [
        {
          "internalType": "uint256",
          "name": "_teacherCount",
          "type": "uint256"
        }
      ],
      "name": "setTeacherCount",
      "outputs": [],
      "stateMutability": "nonpayable",
      "type": "function"
    },
    {
      "inputs": [
        {
          "internalType": "uint256",
          "name": "_agentCount",
          "type": "uint256"
        }
      ],
      "name": "setAgentCount",
      "outputs": [],
      "stateMutability": "nonpayable",
      "type": "function"
    },
    {
      "inputs": [
        {
          "internalType": "uint256",
          "name": "_classCount",
          "type": "uint256"
        }
      ],
      "name": "setClassCount",
      "outputs": [],
      "stateMutability": "nonpayable",
      "type": "function"
    },
    {
      "inputs": [
        {
          "internalType": "uint256",
          "name": "_courseCount",
          "type": "uint256"
        }
      ],
      "name": "setCourseCount",
      "outputs": [],
      "stateMutability": "nonpayable",
      "type": "function"
    },
    {
      "inputs": [
        {
          "internalType": "uint256",
          "name": "_teacherId",
          "type": "uint256"
        },
        {
          "internalType": "uint256",
          "name": "courseId",
          "type": "uint256"
        }
      ],
      "name": "getTeacherSuitability",
      "outputs": [
        {
          "internalType": "uint256",
          "name": "",
          "type": "uint256"
        }
      ],
      "stateMutability": "view",
      "type": "function"
    },
    {
      "inputs": [
        {
          "internalType": "uint256",
          "name": "_agentId",
          "type": "uint256"
        },
        {
          "internalType": "uint256",
          "name": "courseId",
          "type": "uint256"
        }
      ],
      "name": "getAgentSuitability",
      "outputs": [
        {
          "internalType": "uint256",
          "name": "",
          "type": "uint256"
        }
      ],
      "stateMutability": "view",
      "type": "function"
    },
    {
      "inputs": [
        {
          "internalType": "uint256",
          "name": "_teacherId",
          "type": "uint256"
        },
        {
          "internalType": "uint256",
          "name": "courseId",
          "type": "uint256"
        }
      ],
      "name": "getPreference",
      "outputs": [
        {
          "internalType": "uint256",
          "name": "",
          "type": "uint256"
        }
      ],
      "stateMutability": "view",
      "type": "function"
    },
    {
      "inputs": [
        {
          "internalType": "uint256",
          "name": "_teacherId",
          "type": "uint256"
        }
      ],
      "name": "getTeacherAssignedCourses",
      "outputs": [
        {
          "internalType": "uint256[]",
          "name": "",
          "type": "uint256[]"
        }
      ],
      "stateMutability": "view",
      "type": "function"
    },
    {
      "inputs": [
        {
          "internalType": "uint256",
          "name": "_teacherId",
          "type": "uint256"
        }
      ],
      "name": "getTeacherReallyAssignedCourses",
      "outputs": [
        {
          "internalType": "uint256[]",
          "name": "",
          "type": "uint256[]"
        }
      ],
      "stateMutability": "view",
      "type": "function"
    },
    {
      "inputs": [
        {
          "internalType": "uint256",
          "name": "_agentId",
          "type": "uint256"
        }
      ],
      "name": "getAgentAssignedCourses",
      "outputs": [
        {
          "internalType": "uint256[]",
          "name": "",
          "type": "uint256[]"
        }
      ],
      "stateMutability": "view",
      "type": "function"
    },
    {
      "inputs": [
        {
          "internalType": "uint256",
          "name": "_courseId",
          "type": "uint256"
        }
      ],
      "name": "getCoursesAssignedTeacher",
      "outputs": [
        {
          "internalType": "uint256[]",
          "name": "",
          "type": "uint256[]"
        }
      ],
      "stateMutability": "view",
      "type": "function"
    },
    {
      "inputs": [
        {
          "internalType": "uint256",
          "name": "_courseId",
          "type": "uint256"
        }
      ],
      "name": "getCoursesAssignedAgent",
      "outputs": [
        {
          "internalType": "uint256[]",
          "name": "",
          "type": "uint256[]"
        }
      ],
      "stateMutability": "view",
      "type": "function"
    },
    {
      "inputs": [
        {
          "internalType": "uint256",
          "name": "courseId",
          "type": "uint256"
        }
      ],
      "name": "getCourseImportance",
      "outputs": [
        {
          "internalType": "uint256",
          "name": "",
          "type": "uint256"
        }
      ],
      "stateMutability": "view",
      "type": "function"
    },
    {
      "inputs": [],
      "name": "getTeacherIds",
      "outputs": [
        {
          "internalType": "uint256[]",
          "name": "",
          "type": "uint256[]"
        }
      ],
      "stateMutability": "view",
      "type": "function"
    },
    {
      "inputs": [],
      "name": "getAgentIds",
      "outputs": [
        {
          "internalType": "uint256[]",
          "name": "",
          "type": "uint256[]"
        }
      ],
      "stateMutability": "view",
      "type": "function"
    },
    {
      "inputs": [],
      "name": "getCourseIds",
      "outputs": [
        {
          "internalType": "uint256[]",
          "name": "",
          "type": "uint256[]"
        }
      ],
      "stateMutability": "view",
      "type": "function"
    },
    {
      "inputs": [],
      "name": "getClassIds",
      "outputs": [
        {
          "internalType": "uint256[]",
          "name": "",
          "type": "uint256[]"
        }
      ],
      "stateMutability": "view",
      "type": "function"
    },
    {
      "inputs": [
        {
          "internalType": "uint256",
          "name": "courseId",
          "type": "uint256"
        },
        {
          "internalType": "uint256",
          "name": "classId",
          "type": "uint256"
        },
        {
          "internalType": "uint256",
          "name": "score",
          "type": "uint256"
        }
      ],
      "name": "addCourseClassScores",
      "outputs": [],
      "stateMutability": "nonpayable",
      "type": "function"
    },
    {
      "inputs": [
        {
          "internalType": "uint256",
          "name": "courseId",
          "type": "uint256"
        },
        {
          "internalType": "uint256",
          "name": "classId",
          "type": "uint256"
        }
      ],
      "name": "getGiveScoreClassIdExists",
      "outputs": [
        {
          "internalType": "uint256",
          "name": "",
          "type": "uint256"
        }
      ],
      "stateMutability": "view",
      "type": "function"
    },
    {
      "inputs": [
        {
          "internalType": "uint256",
          "name": "courseId",
          "type": "uint256"
        },
        {
          "internalType": "uint256[]",
          "name": "classIds_",
          "type": "uint256[]"
        }
      ],
      "name": "removeCourseClassScores",
      "outputs": [],
      "stateMutability": "nonpayable",
      "type": "function"
    },
    {
      "inputs": [
        {
          "internalType": "uint256",
          "name": "courseId",
          "type": "uint256"
        }
      ],
      "name": "getCourseClassScores",
      "outputs": [
        {
          "internalType": "uint256[]",
          "name": "",
          "type": "uint256[]"
        }
      ],
      "stateMutability": "view",
      "type": "function"
    },
    {
      "inputs": [
        {
          "internalType": "uint256",
          "name": "courseId",
          "type": "uint256"
        },
        {
          "internalType": "uint256",
          "name": "teacherId",
          "type": "uint256"
        },
        {
          "internalType": "uint256",
          "name": "score",
          "type": "uint256"
        }
      ],
      "name": "addTeacherScores",
      "outputs": [],
      "stateMutability": "nonpayable",
      "type": "function"
    },
    {
      "inputs": [
        {
          "internalType": "uint256",
          "name": "courseId",
          "type": "uint256"
        },
        {
          "internalType": "uint256[]",
          "name": "teacherIds_",
          "type": "uint256[]"
        }
      ],
      "name": "removeTeacherScores",
      "outputs": [],
      "stateMutability": "nonpayable",
      "type": "function"
    },
    {
      "inputs": [
        {
          "internalType": "uint256",
          "name": "courseId",
          "type": "uint256"
        }
      ],
      "name": "getTeacherScores",
      "outputs": [
        {
          "internalType": "uint256[]",
          "name": "",
          "type": "uint256[]"
        }
      ],
      "stateMutability": "view",
      "type": "function"
    },
    {
      "inputs": [
        {
          "internalType": "uint256",
          "name": "courseId",
          "type": "uint256"
        },
        {
          "internalType": "uint256",
          "name": "teacherId",
          "type": "uint256"
        }
      ],
      "name": "getGiveScoreTeacherIdExists",
      "outputs": [
        {
          "internalType": "uint256",
          "name": "",
          "type": "uint256"
        }
      ],
      "stateMutability": "view",
      "type": "function"
    },
    {
      "inputs": [
        {
          "internalType": "uint256",
          "name": "courseId",
          "type": "uint256"
        },
        {
          "internalType": "uint256",
          "name": "score",
          "type": "uint256"
        }
      ],
      "name": "setCourseTotalScore",
      "outputs": [],
      "stateMutability": "nonpayable",
      "type": "function"
    },
    {
      "inputs": [
        {
          "internalType": "uint256",
          "name": "courseId",
          "type": "uint256"
        },
        {
          "internalType": "uint256",
          "name": "supervisorId",
          "type": "uint256"
        },
        {
          "internalType": "uint256",
          "name": "score",
          "type": "uint256"
        }
      ],
      "name": "addCourseSupervisorScores",
      "outputs": [],
      "stateMutability": "nonpayable",
      "type": "function"
    },
    {
      "inputs": [
        {
          "internalType": "uint256",
          "name": "courseId",
          "type": "uint256"
        },
        {
          "internalType": "uint256[]",
          "name": "supervisorIds_",
          "type": "uint256[]"
        }
      ],
      "name": "removeCourseSupervisorScores",
      "outputs": [],
      "stateMutability": "nonpayable",
      "type": "function"
    },
    {
      "inputs": [
        {
          "internalType": "uint256",
          "name": "courseId",
          "type": "uint256"
        },
        {
          "internalType": "uint256",
          "name": "supervisorId",
          "type": "uint256"
        }
      ],
      "name": "getGiveScoreSupervisorIdExists",
      "outputs": [
        {
          "internalType": "uint256",
          "name": "",
          "type": "uint256"
        }
      ],
      "stateMutability": "view",
      "type": "function"
    },
    {
      "inputs": [
        {
          "internalType": "uint256",
          "name": "courseId",
          "type": "uint256"
        }
      ],
      "name": "getCourseSupervisorScores",
      "outputs": [
        {
          "internalType": "uint256[]",
          "name": "",
          "type": "uint256[]"
        }
      ],
      "stateMutability": "view",
      "type": "function"
    },
    {
      "inputs": [
        {
          "internalType": "uint256",
          "name": "supervisorId",
          "type": "uint256"
        }
      ],
      "name": "addSupervisorId",
      "outputs": [],
      "stateMutability": "nonpayable",
      "type": "function"
    },
    {
      "inputs": [],
      "name": "getSupervisorIds",
      "outputs": [
        {
          "internalType": "uint256[]",
          "name": "",
          "type": "uint256[]"
        }
      ],
      "stateMutability": "view",
      "type": "function"
    },
    {
      "inputs": [
        {
          "internalType": "address",
          "name": "supervisor",
          "type": "address"
        },
        {
          "internalType": "uint256",
          "name": "supervisorId",
          "type": "uint256"
        }
      ],
      "name": "setSupervisorId",
      "outputs": [],
      "stateMutability": "nonpayable",
      "type": "function"
    },
    {
      "inputs": [
        {
          "internalType": "uint256",
          "name": "supervisorId",
          "type": "uint256"
        },
        {
          "internalType": "string",
          "name": "_name",
          "type": "string"
        }
      ],
      "name": "setSupervisorName",
      "outputs": [],
      "stateMutability": "nonpayable",
      "type": "function"
    },
    {
      "inputs": [
        {
          "internalType": "uint256",
          "name": "supervisorId",
          "type": "uint256"
        },
        {
          "internalType": "uint256",
          "name": "courseId",
          "type": "uint256"
        },
        {
          "internalType": "uint256",
          "name": "score",
          "type": "uint256"
        }
      ],
      "name": "setSupervisorsCourseScore",
      "outputs": [],
      "stateMutability": "nonpayable",
      "type": "function"
    },
    {
      "inputs": [
        {
          "internalType": "uint256",
          "name": "_transferCourseNumbers",
          "type": "uint256"
        }
      ],
      "name": "settransferCourseNumbers",
      "outputs": [],
      "stateMutability": "nonpayable",
      "type": "function"
    },
    {
      "inputs": [
        {
          "internalType": "uint256",
          "name": "_transferCourseStartTime",
          "type": "uint256"
        }
      ],
      "name": "settransferCourseStartTime",
      "outputs": [],
      "stateMutability": "nonpayable",
      "type": "function"
    },
    {
      "inputs": [
        {
          "internalType": "uint256",
          "name": "_transferCourseEndTime",
          "type": "uint256"
        }
      ],
      "name": "settransferCourseEndTime",
      "outputs": [],
      "stateMutability": "nonpayable",
      "type": "function"
    },
    {
      "inputs": [
        {
          "internalType": "string",
          "name": "option",
          "type": "string"
        }
      ],
      "name": "setScoreType",
      "outputs": [],
      "stateMutability": "nonpayable",
      "type": "function"
    }
  ],
  "bytecode": "0x608060405234801561001057600080fd5b50614d7a806100206000396000f3fe608060405234801561001057600080fd5b50600436106105665760003560e01c806391c89deb116102ca578063ce64bf9b1161018d578063e637812f116100f4578063ee196ee2116100ad578063fa8f084d11610087578063fa8f084d14611220578063fc09e9d01461123e578063fc2ddca51461125a578063fe8dc6a81461127657610566565b8063ee196ee2146111cc578063f0f2efd8146111e8578063f31e14941461120457610566565b8063e637812f146110d3578063e7fa4557146110ef578063e8a2dc2f1461110b578063e90616571461113b578063ebacebe41461116b578063ebd1aac61461119b57610566565b8063deb9f76a11610146578063deb9f76a14611017578063df3addfa14611033578063e204b1021461104f578063e20b34051461106b578063e40af03614611087578063e52505d8146110a357610566565b8063ce64bf9b14610f0b578063d4e57ff014610f3b578063d95a61d514610f6b578063d96ce73f14610f9b578063dcfa705714610fcb578063dd03576514610ffb57610566565b8063ab99631711610231578063bb69df72116101ea578063bb69df7214610e4f578063bca24bd414610e6b578063bd1602d114610e9b578063bfb9d44c14610eb7578063c318fe5f14610ed3578063cddd6c6314610eef57610566565b8063ab99631714610da1578063ad3a6ad414610dbf578063b150876014610ddb578063b373a43414610df9578063b4da858414610e15578063b7dc128414610e3157610566565b806397e92d521161028357806397e92d5214610cf75780639e12237714610d13578063a549e41614610d2f578063a7ab847214610d4b578063aaa4b24e14610d67578063ab7cee7714610d8357610566565b806391c89deb14610bf95780639476cf9b14610c29578063951d5fee14610c5957806396c82e5714610c7757806396f979d214610c955780639709ee0114610cc757610566565b806356e760581161042d5780636fcf4f96116103945780637fa7e04d1161034d5780638377b690116103275780638377b69014610b61578063851580a714610b9157806386875ea814610bc15780638bbb3be114610bdd57610566565b80637fa7e04d14610ae5578063827e573114610b0157806382ff0a5a14610b3157610566565b80636fcf4f9614610a27578063700ed28b14610a4357806372ab4e9614610a5f57806372c30f4514610a7b5780637ce28bac14610a975780637e4d164114610ac957610566565b806366055159116103e657806366055159146109695780636798bad9146109875780636b792cc8146109a35780636d889f84146109bf5780636e428d2d146109db5780636e9b0f8f146109f757610566565b806356e76058146108995780635953faff146108c95780635ca24db0146108e55780635e383d46146109155780635f63efe214610931578063643d172c1461094d57610566565b806338f6a6bd116104d1578063494e23711161048a578063494e2371146107c45780634b974df7146107f45780634d27e912146108105780634d6523501461082c5780634dcb63661461084a578063513856c81461086657610566565b806338f6a6bd146107045780633abdb63d14610720578063406143ae1461073c578063439fc3d11461076c57806345073d5c1461078a57806346be3136146107a657610566565b80631928f3bc116105235780631928f3bc1461063f5780631dd86f901461065d5780631fe76a6c146106795780632359b7b8146106955780632b0816ac146106b357806334ac0b40146106cf57610566565b8063034f578e1461056b57806307061e011461058957806308a2037f146105b95780630f7f13cf146105d55780630fa1c2711461060557806318860d3714610621575b600080fd5b610573611292565b60405161058091906145f0565b60405180910390f35b6105a3600480360381019061059e9190614225565b611298565b6040516105b091906145f0565b60405180910390f35b6105d360048036038101906105ce91906141c5565b6112ca565b005b6105ef60048036038101906105ea9190613f99565b6112f5565b6040516105fc91906145f0565b60405180910390f35b61061f600480360381019061061a9190614225565b61130d565b005b61062961134e565b60405161063691906144ac565b60405180910390f35b6106476113a6565b60405161065491906145f0565b60405180910390f35b61067760048036038101906106729190614265565b6113ac565b005b610693600480360381019061068e9190614265565b611460565b005b61069d611491565b6040516106aa91906144ac565b60405180910390f35b6106cd60048036038101906106c8919061409c565b6114e9565b005b6106e960048036038101906106e4919061409c565b611530565b6040516106fb96959493929190614695565b60405180910390f35b61071e60048036038101906107199190614265565b611614565b005b61073a6004803603810190610735919061409c565b6116ec565b005b6107566004803603810190610751919061409c565b6117d4565b60405161076391906144ac565b60405180910390f35b610774611842565b60405161078191906144ce565b60405180910390f35b6107a4600480360381019061079f9190614169565b6118d0565b005b6107ae61195d565b6040516107bb91906145f0565b60405180910390f35b6107de60048036038101906107d9919061409c565b611963565b6040516107eb91906145f0565b60405180910390f35b61080e60048036038101906108099190614225565b611987565b005b61082a60048036038101906108259190614265565b611b21565b005b610834611b52565b60405161084191906144ac565b60405180910390f35b610864600480360381019061085f9190614169565b611baa565b005b610880600480360381019061087b919061409c565b611c37565b6040516108909493929190614649565b60405180910390f35b6108b360048036038101906108ae919061409c565b611d0f565b6040516108c091906145f0565b60405180910390f35b6108e360048036038101906108de9190614006565b611d33565b005b6108ff60048036038101906108fa919061409c565b611df5565b60405161090c91906144ac565b60405180910390f35b61092f600480360381019061092a9190613fc6565b611e63565b005b61094b6004803603810190610946919061409c565b611ed4565b005b6109676004803603810190610962919061409c565b611ede565b005b610971611f22565b60405161097e91906145f0565b60405180910390f35b6109a1600480360381019061099c919061409c565b611f28565b005b6109bd60048036038101906109b8919061409c565b611f32565b005b6109d960048036038101906109d49190614265565b611f3c565b005b6109f560048036038101906109f09190614225565b612014565b005b610a116004803603810190610a0c919061409c565b6121ae565b604051610a1e91906145f0565b60405180910390f35b610a416004803603810190610a3c919061409c565b6121ce565b005b610a5d6004803603810190610a589190614225565b612339565b005b610a796004803603810190610a749190614225565b61237a565b005b610a956004803603810190610a90919061409c565b6123bb565b005b610ab16004803603810190610aac919061409c565b612487565b604051610ac09392919061460b565b60405180910390f35b610ae36004803603810190610ade919061404f565b612559565b005b610aff6004803603810190610afa91906141c5565b61256f565b005b610b1b6004803603810190610b16919061409c565b61259a565b604051610b2891906144ac565b60405180910390f35b610b4b6004803603810190610b46919061409c565b612608565b604051610b5891906144ac565b60405180910390f35b610b7b6004803603810190610b769190614225565b612676565b604051610b8891906145f0565b60405180910390f35b610bab6004803603810190610ba69190614225565b6126a8565b604051610bb891906145f0565b60405180910390f35b610bdb6004803603810190610bd69190614225565b6126da565b005b610bf76004803603810190610bf29190613fc6565b612874565b005b610c136004803603810190610c0e919061409c565b61292c565b604051610c2091906144ac565b60405180910390f35b610c436004803603810190610c3e919061409c565b61299a565b604051610c5091906145f0565b60405180910390f35b610c616129be565b604051610c6e91906145f0565b60405180910390f35b610c7f6129c4565b604051610c8c91906145f0565b60405180910390f35b610caf6004803603810190610caa919061409c565b6129ca565b604051610cbe939291906146fd565b60405180910390f35b610ce16004803603810190610cdc9190614225565b612a7c565b604051610cee91906145f0565b60405180910390f35b610d116004803603810190610d0c9190614109565b612aae565b005b610d2d6004803603810190610d2891906141c5565b612c07565b005b610d496004803603810190610d449190613fc6565b612c32565b005b610d656004803603810190610d6091906141c5565b612cbe565b005b610d816004803603810190610d7c9190614225565b612d6c565b005b610d8b612d8b565b604051610d9891906145f0565b60405180910390f35b610da9612d91565b604051610db691906145f0565b60405180910390f35b610dd96004803603810190610dd49190614109565b612d97565b005b610de3612ef0565b604051610df091906144ac565b60405180910390f35b610e136004803603810190610e0e919061409c565b612f48565b005b610e2f6004803603810190610e2a9190614225565b612f52565b005b610e39612ff4565b604051610e4691906145f0565b60405180910390f35b610e696004803603810190610e649190614225565b612ffa565b005b610e856004803603810190610e80919061409c565b6130fa565b604051610e9291906145f0565b60405180910390f35b610eb56004803603810190610eb0919061409c565b61311e565b005b610ed16004803603810190610ecc9190613fc6565b613128565b005b610eed6004803603810190610ee891906140c9565b6131b4565b005b610f096004803603810190610f0491906140c9565b613290565b005b610f256004803603810190610f20919061409c565b6132e9565b604051610f3291906144ac565b60405180910390f35b610f556004803603810190610f509190613f99565b613357565b604051610f6291906145f0565b60405180910390f35b610f856004803603810190610f809190613f99565b61336f565b604051610f9291906145f0565b60405180910390f35b610fb56004803603810190610fb0919061409c565b613387565b604051610fc291906144ac565b60405180910390f35b610fe56004803603810190610fe0919061409c565b6133f5565b604051610ff291906145f0565b60405180910390f35b6110156004803603810190611010919061409c565b613419565b005b611031600480360381019061102c919061409c565b613423565b005b61104d6004803603810190611048919061409c565b61342d565b005b61106960048036038101906110649190614225565b6134f9565b005b61108560048036038101906110809190614225565b613518565b005b6110a1600480360381019061109c9190614225565b6135ba565b005b6110bd60048036038101906110b8919061409c565b613754565b6040516110ca91906144ac565b60405180910390f35b6110ed60048036038101906110e89190614225565b6137c2565b005b61110960048036038101906111049190614225565b613803565b005b61112560048036038101906111209190614225565b61399d565b60405161113291906145f0565b60405180910390f35b61115560048036038101906111509190614225565b6139cf565b60405161116291906145f0565b60405180910390f35b61118560048036038101906111809190613f99565b613a01565b60405161119291906145f0565b60405180910390f35b6111b560048036038101906111b0919061409c565b613a19565b6040516111c392919061473b565b60405180910390f35b6111e660048036038101906111e19190614225565b613a3d565b005b61120260048036038101906111fd9190614109565b613a5c565b005b61121e60048036038101906112199190614265565b613b32565b005b611228613c0a565b60405161123591906144ac565b60405180910390f35b61125860048036038101906112539190614225565b613c62565b005b611274600480360381019061126f9190614265565b613ca3565b005b611290600480360381019061128b9190614169565b613cd4565b005b60175481565b6000600a6000848152602001908152602001600020600501600083815260200190815260200160002054905092915050565b81816008600086815260200190815260200160002060010191906112ef929190613d61565b50505050565b60026020528060005260406000206000915090505481565b600960008381526020019081526020016000206003018190806001815401808255809150506001900390600052602060002001600090919091909150555050565b6060601380548060200260200160405190810160405280929190818152602001828054801561139c57602002820191906000526020600020905b815481526020019060010190808311611388575b5050505050905090565b60165481565b6000600260003373ffffffffffffffffffffffffffffffffffffffff1673ffffffffffffffffffffffffffffffffffffffff16815260200190815260200160002054141561142f576040517f08c379a0000000000000000000000000000000000000000000000000000000008152600401611426906145b0565b60405180910390fd5b8060066000858152602001908152602001600020600901600084815260200190815260200160002081905550505050565b8060066000858152602001908152602001600020600801600084815260200190815260200160002081905550505050565b606060128054806020026020016040519081016040528092919081815260200182805480156114df57602002820191906000526020600020905b8154815260200190600101908083116114cb575b5050505050905090565b806009600083815260200190815260200160002060000181905550601281908060018154018082558091505060019003906000526020600020016000909190919091505550565b600660205280600052604060002060009150905080600001549080600101805461155990614903565b80601f016020809104026020016040519081016040528092919081815260200182805461158590614903565b80156115d25780601f106115a7576101008083540402835291602001916115d2565b820191906000526020600020905b8154815290600101906020018083116115b557829003601f168201915b5050505050908060020160009054906101000a900473ffffffffffffffffffffffffffffffffffffffff16908060050154908060060154908060070154905086565b6000600a60008581526020019081526020016000206005016000848152602001908152602001600020541461167e576040517f08c379a000000000000000000000000000000000000000000000000000000000815260040161167590614550565b60405180910390fd5b80600a6000858152602001908152602001600020600501600084815260200190815260200160002081905550600a6000848152602001908152602001600020600401819080600181540180825580915050600190039060005260206000200160009091909190915055505050565b6000600760008381526020019081526020016000206000018190555060005b6011805490508110156117d057816011828154811061172d5761172c614a3c565b5b906000526020600020015414156117bd57601160016011805490506117529190614860565b8154811061176357611762614a3c565b5b90600052602060002001546011828154811061178257611781614a3c565b5b906000526020600020018190555060118054806117a2576117a1614a0d565b5b600190038181906000526020600020016000905590556117d0565b80806117c890614966565b91505061170b565b5050565b6060600a600083815260200190815260200160002060040180548060200260200160405190810160405280929190818152602001828054801561183657602002820191906000526020600020905b815481526020019060010190808311611822575b50505050509050919050565b6000805461184f90614903565b80601f016020809104026020016040519081016040528092919081815260200182805461187b90614903565b80156118c85780601f1061189d576101008083540402835291602001916118c8565b820191906000526020600020905b8154815290600101906020018083116118ab57829003601f168201915b505050505081565b60005b8151811015611936576000600a6000858152602001908152602001600020600301600084848151811061190957611908614a3c565b5b6020026020010151815260200190815260200160002081905550808061192e90614966565b9150506118d3565b50600a600083815260200190815260200160002060020160006119599190613de7565b5050565b600b5481565b6012818154811061197357600080fd5b906000526020600020016000915090505481565b60008080600090505b6006600086815260200190815260200160002060030180549050811015611a0a57836006600087815260200190815260200160002060030182815481106119da576119d9614a3c565b5b906000526020600020015414156119f75760019250809150611a0a565b8080611a0290614966565b915050611990565b508115611ae0576006600085815260200190815260200160002060030160016006600087815260200190815260200160002060030180549050611a4d9190614860565b81548110611a5e57611a5d614a3c565b5b9060005260206000200154600660008681526020019081526020016000206003018281548110611a9157611a90614a3c565b5b906000526020600020018190555060066000858152602001908152602001600020600301805480611ac557611ac4614a0d565b5b60019003818190600052602060002001600090559055611b1b565b6040517f08c379a0000000000000000000000000000000000000000000000000000000008152600401611b1290614530565b60405180910390fd5b50505050565b8060076000858152602001908152602001600020600501600084815260200190815260200160002081905550505050565b60606010805480602002602001604051908101604052809291908181526020018280548015611ba057602002820191906000526020600020905b815481526020019060010190808311611b8c575b5050505050905090565b60005b8151811015611c10576000600a60008581526020019081526020016000206007016000848481518110611be357611be2614a3c565b5b60200260200101518152602001908152602001600020819055508080611c0890614966565b915050611bad565b50600a60008381526020019081526020016000206006016000611c339190613de7565b5050565b6007602052806000526040600020600091509050806000015490806001018054611c6090614903565b80601f0160208091040260200160405190810160405280929190818152602001828054611c8c90614903565b8015611cd95780601f10611cae57610100808354040283529160200191611cd9565b820191906000526020600020905b815481529060010190602001808311611cbc57829003601f168201915b5050505050908060020160009054906101000a900473ffffffffffffffffffffffffffffffffffffffff16908060030154905084565b60118181548110611d1f57600080fd5b906000526020600020016000915090505481565b601280549050815114611d7b576040517f08c379a0000000000000000000000000000000000000000000000000000000008152600401611d7290614570565b60405180910390fd5b60005b601280549050811015611df157818181518110611d9e57611d9d614a3c565b5b60200260200101516009600060128481548110611dbe57611dbd614a3c565b5b90600052602060002001548152602001908152602001600020600201819055508080611de990614966565b915050611d7e565b5050565b6060600a6000838152602001908152602001600020600201805480602002602001604051908101604052809291908181526020018280548015611e5757602002820191906000526020600020905b815481526020019060010190808311611e43575b50505050509050919050565b80600460008473ffffffffffffffffffffffffffffffffffffffff1673ffffffffffffffffffffffffffffffffffffffff1681526020019081526020016000208190555060138190806001815401808255809150506001900390600052602060002001600090919091909150555050565b8060168190555050565b6014819080600181540180825580915050600190039060005260206000200160009091909190915055600f6000815480929190611f1a90614966565b919050555050565b600e5481565b80600b8190555050565b8060158190555050565b6000600a600085815260200190815260200160002060030160008481526020019081526020016000205414611fa6576040517f08c379a0000000000000000000000000000000000000000000000000000000008152600401611f9d90614510565b60405180910390fd5b80600a6000858152602001908152602001600020600301600084815260200190815260200160002081905550600a6000848152602001908152602001600020600201819080600181540180825580915050600190039060005260206000200160009091909190915055505050565b60008080600090505b6009600086815260200190815260200160002060030180549050811015612097578360096000878152602001908152602001600020600301828154811061206757612066614a3c565b5b906000526020600020015414156120845760019250809150612097565b808061208f90614966565b91505061201d565b50811561216d5760096000858152602001908152602001600020600301600160096000878152602001908152602001600020600301805490506120da9190614860565b815481106120eb576120ea614a3c565b5b906000526020600020015460096000868152602001908152602001600020600301828154811061211e5761211d614a3c565b5b90600052602060002001819055506009600085815260200190815260200160002060030180548061215257612151614a0d565b5b600190038181906000526020600020016000905590556121a8565b6040517f08c379a000000000000000000000000000000000000000000000000000000000815260040161219f90614530565b60405180910390fd5b50505050565b600060096000838152602001908152602001600020600201549050919050565b6000600260003373ffffffffffffffffffffffffffffffffffffffff1673ffffffffffffffffffffffffffffffffffffffff168152602001908152602001600020541415612251576040517f08c379a0000000000000000000000000000000000000000000000000000000008152600401612248906145b0565b60405180910390fd5b6000600660008381526020019081526020016000206000018190555060005b60108054905081101561233557816010828154811061229257612291614a3c565b5b9060005260206000200154141561232257601060016010805490506122b79190614860565b815481106122c8576122c7614a3c565b5b9060005260206000200154601082815481106122e7576122e6614a3c565b5b9060005260206000200181905550601080548061230757612306614a0d565b5b60019003818190600052602060002001600090559055612335565b808061232d90614966565b915050612270565b5050565b600660008381526020019081526020016000206003018190806001815401808255809150506001900390600052602060002001600090919091909150555050565b600760008381526020019081526020016000206004018190806001815401808255809150506001900390600052602060002001600090919091909150555050565b60005b6013805490508110156124835781601382815481106123e0576123df614a3c565b5b9060005260206000200154141561247057601360016013805490506124059190614860565b8154811061241657612415614a3c565b5b90600052602060002001546013828154811061243557612434614a3c565b5b9060005260206000200181905550601380548061245557612454614a0d565b5b60019003818190600052602060002001600090559055612483565b808061247b90614966565b9150506123be565b5050565b60086020528060005260406000206000915090508060000154908060010180546124b090614903565b80601f01602080910402602001604051908101604052809291908181526020018280546124dc90614903565b80156125295780601f106124fe57610100808354040283529160200191612529565b820191906000526020600020905b81548152906001019060200180831161250c57829003601f168201915b5050505050908060020160009054906101000a900473ffffffffffffffffffffffffffffffffffffffff16905083565b81816000919061256a929190613d61565b505050565b8181600760008681526020019081526020016000206001019190612594929190613d61565b50505050565b6060600660008381526020019081526020016000206004018054806020026020016040519081016040528092919081815260200182805480156125fc57602002820191906000526020600020905b8154815260200190600101908083116125e8575b50505050509050919050565b60606009600083815260200190815260200160002060030180548060200260200160405190810160405280929190818152602001828054801561266a57602002820191906000526020600020905b815481526020019060010190808311612656575b50505050509050919050565b6000600a6000848152602001908152602001600020600301600083815260200190815260200160002054905092915050565b600060066000848152602001908152602001600020600901600083815260200190815260200160002054905092915050565b60008080600090505b600960008681526020019081526020016000206004018054905081101561275d578360096000878152602001908152602001600020600401828154811061272d5761272c614a3c565b5b9060005260206000200154141561274a576001925080915061275d565b808061275590614966565b9150506126e3565b5081156128335760096000858152602001908152602001600020600401600160096000878152602001908152602001600020600401805490506127a09190614860565b815481106127b1576127b0614a3c565b5b90600052602060002001546009600086815260200190815260200160002060040182815481106127e4576127e3614a3c565b5b90600052602060002001819055506009600085815260200190815260200160002060040180548061281857612817614a0d565b5b6001900381819060005260206000200160009055905561286e565b6040517f08c379a000000000000000000000000000000000000000000000000000000000815260040161286590614530565b60405180910390fd5b50505050565b80600560008473ffffffffffffffffffffffffffffffffffffffff1673ffffffffffffffffffffffffffffffffffffffff16815260200190815260200160002081905550806008600083815260200190815260200160002060000181905550816008600083815260200190815260200160002060020160006101000a81548173ffffffffffffffffffffffffffffffffffffffff021916908373ffffffffffffffffffffffffffffffffffffffff1602179055505050565b60606009600083815260200190815260200160002060040180548060200260200160405190810160405280929190818152602001828054801561298e57602002820191906000526020600020905b81548152602001906001019080831161297a575b50505050509050919050565b601481815481106129aa57600080fd5b906000526020600020016000915090505481565b60155481565b60015481565b60096020528060005260406000206000915090508060000154908060010180546129f390614903565b80601f0160208091040260200160405190810160405280929190818152602001828054612a1f90614903565b8015612a6c5780601f10612a4157610100808354040283529160200191612a6c565b820191906000526020600020905b815481529060010190602001808311612a4f57829003601f168201915b5050505050908060020154905083565b600060076000848152602001908152602001600020600501600083815260200190815260200160002054905092915050565b6000600260003373ffffffffffffffffffffffffffffffffffffffff1673ffffffffffffffffffffffffffffffffffffffff168152602001908152602001600020541415612b31576040517f08c379a0000000000000000000000000000000000000000000000000000000008152600401612b28906145b0565b60405180910390fd5b6012805490508282905014612b7b576040517f08c379a0000000000000000000000000000000000000000000000000000000008152600401612b72906145d0565b60405180910390fd5b60005b601280549050811015612c0157828282818110612b9e57612b9d614a3c565b5b9050602002013560066000868152602001908152602001600020600801600060128481548110612bd157612bd0614a3c565b5b90600052602060002001548152602001908152602001600020819055508080612bf990614966565b915050612b7e565b50505050565b8181600960008681526020019081526020016000206001019190612c2c929190613d61565b50505050565b80600260008473ffffffffffffffffffffffffffffffffffffffff1673ffffffffffffffffffffffffffffffffffffffff1681526020019081526020016000208190555080600660008381526020019081526020016000206000018190555060108190806001815401808255809150506001900390600052602060002001600090919091909150555050565b6000600260003373ffffffffffffffffffffffffffffffffffffffff1673ffffffffffffffffffffffffffffffffffffffff168152602001908152602001600020541415612d41576040517f08c379a0000000000000000000000000000000000000000000000000000000008152600401612d38906145b0565b60405180910390fd5b8181600660008681526020019081526020016000206001019190612d66929190613d61565b50505050565b80600a6000848152602001908152602001600020600101819055505050565b600f5481565b600d5481565b6000600260003373ffffffffffffffffffffffffffffffffffffffff1673ffffffffffffffffffffffffffffffffffffffff168152602001908152602001600020541415612e1a576040517f08c379a0000000000000000000000000000000000000000000000000000000008152600401612e11906145b0565b60405180910390fd5b6012805490508282905014612e64576040517f08c379a0000000000000000000000000000000000000000000000000000000008152600401612e5b906144f0565b60405180910390fd5b60005b601280549050811015612eea57828282818110612e8757612e86614a3c565b5b9050602002013560066000868152602001908152602001600020600901600060128481548110612eba57612eb9614a3c565b5b90600052602060002001548152602001908152602001600020819055508080612ee290614966565b915050612e67565b50505050565b60606011805480602002602001604051908101604052809291908181526020018280548015612f3e57602002820191906000526020600020905b815481526020019060010190808311612f2a575b5050505050905090565b8060178190555050565b6000600260003373ffffffffffffffffffffffffffffffffffffffff1673ffffffffffffffffffffffffffffffffffffffff168152602001908152602001600020541415612fd5576040517f08c379a0000000000000000000000000000000000000000000000000000000008152600401612fcc906145b0565b60405180910390fd5b8060066000848152602001908152602001600020600601819055505050565b600c5481565b6000600260003373ffffffffffffffffffffffffffffffffffffffff1673ffffffffffffffffffffffffffffffffffffffff16815260200190815260200160002054141561307d576040517f08c379a0000000000000000000000000000000000000000000000000000000008152600401613074906145b0565b60405180910390fd5b6006600083815260200190815260200160002060050154600160008282546130a59190614860565b925050819055508060066000848152602001908152602001600020600501819055506006600083815260200190815260200160002060050154600160008282546130ef919061480a565b925050819055505050565b6013818154811061310a57600080fd5b906000526020600020016000915090505481565b80600e8190555050565b80600360008473ffffffffffffffffffffffffffffffffffffffff1673ffffffffffffffffffffffffffffffffffffffff1681526020019081526020016000208190555080600760008381526020019081526020016000206000018190555060118190806001815401808255809150506001900390600052602060002001600090919091909150555050565b6000600260003373ffffffffffffffffffffffffffffffffffffffff1673ffffffffffffffffffffffffffffffffffffffff168152602001908152602001600020541415613237576040517f08c379a000000000000000000000000000000000000000000000000000000000815260040161322e906145b0565b60405180910390fd5b806006600084815260200190815260200160002060020160006101000a81548173ffffffffffffffffffffffffffffffffffffffff021916908373ffffffffffffffffffffffffffffffffffffffff1602179055505050565b806007600084815260200190815260200160002060020160006101000a81548173ffffffffffffffffffffffffffffffffffffffff021916908373ffffffffffffffffffffffffffffffffffffffff1602179055505050565b60606007600083815260200190815260200160002060040180548060200260200160405190810160405280929190818152602001828054801561334b57602002820191906000526020600020905b815481526020019060010190808311613337575b50505050509050919050565b60046020528060005260406000206000915090505481565b60056020528060005260406000206000915090505481565b6060600a60008381526020019081526020016000206006018054806020026020016040519081016040528092919081815260200182805480156133e957602002820191906000526020600020905b8154815260200190600101908083116133d5575b50505050509050919050565b6010818154811061340557600080fd5b906000526020600020016000915090505481565b80600d8190555050565b80600c8190555050565b60005b6012805490508110156134f557816012828154811061345257613451614a3c565b5b906000526020600020015414156134e257601260016012805490506134779190614860565b8154811061348857613487614a3c565b5b9060005260206000200154601282815481106134a7576134a6614a3c565b5b906000526020600020018190555060128054806134c7576134c6614a0d565b5b600190038181906000526020600020016000905590556134f5565b80806134ed90614966565b915050613430565b5050565b8060096000848152602001908152602001600020600201819055505050565b6000600260003373ffffffffffffffffffffffffffffffffffffffff1673ffffffffffffffffffffffffffffffffffffffff16815260200190815260200160002054141561359b576040517f08c379a0000000000000000000000000000000000000000000000000000000008152600401613592906145b0565b60405180910390fd5b8060066000848152602001908152602001600020600701819055505050565b60008080600090505b600760008681526020019081526020016000206004018054905081101561363d578360076000878152602001908152602001600020600401828154811061360d5761360c614a3c565b5b9060005260206000200154141561362a576001925080915061363d565b808061363590614966565b9150506135c3565b5081156137135760076000858152602001908152602001600020600401600160076000878152602001908152602001600020600401805490506136809190614860565b8154811061369157613690614a3c565b5b90600052602060002001546007600086815260200190815260200160002060040182815481106136c4576136c3614a3c565b5b9060005260206000200181905550600760008581526020019081526020016000206004018054806136f8576136f7614a0d565b5b6001900381819060005260206000200160009055905561374e565b6040517f08c379a000000000000000000000000000000000000000000000000000000000815260040161374590614530565b60405180910390fd5b50505050565b6060600660008381526020019081526020016000206003018054806020026020016040519081016040528092919081815260200182805480156137b657602002820191906000526020600020905b8154815260200190600101908083116137a2575b50505050509050919050565b600660008381526020019081526020016000206004018190806001815401808255809150506001900390600052602060002001600090919091909150555050565b60008080600090505b6006600086815260200190815260200160002060040180549050811015613886578360066000878152602001908152602001600020600401828154811061385657613855614a3c565b5b906000526020600020015414156138735760019250809150613886565b808061387e90614966565b91505061380c565b50811561395c5760066000858152602001908152602001600020600401600160066000878152602001908152602001600020600401805490506138c99190614860565b815481106138da576138d9614a3c565b5b906000526020600020015460066000868152602001908152602001600020600401828154811061390d5761390c614a3c565b5b90600052602060002001819055506006600085815260200190815260200160002060040180548061394157613940614a0d565b5b60019003818190600052602060002001600090559055613997565b6040517f08c379a000000000000000000000000000000000000000000000000000000000815260040161398e90614530565b60405180910390fd5b50505050565b600060066000848152602001908152602001600020600801600083815260200190815260200160002054905092915050565b6000600a6000848152602001908152602001600020600701600083815260200190815260200160002054905092915050565b60036020528060005260406000206000915090505481565b600a6020528060005260406000206000915090508060000154908060010154905082565b8060076000848152602001908152602001600020600301819055505050565b6012805490508282905014613aa6576040517f08c379a0000000000000000000000000000000000000000000000000000000008152600401613a9d906145d0565b60405180910390fd5b60005b601280549050811015613b2c57828282818110613ac957613ac8614a3c565b5b9050602002013560076000868152602001908152602001600020600501600060128481548110613afc57613afb614a3c565b5b90600052602060002001548152602001908152602001600020819055508080613b2490614966565b915050613aa9565b50505050565b6000600a600085815260200190815260200160002060070160008481526020019081526020016000205414613b9c576040517f08c379a0000000000000000000000000000000000000000000000000000000008152600401613b9390614590565b60405180910390fd5b80600a6000858152602001908152602001600020600701600084815260200190815260200160002081905550600a6000848152602001908152602001600020600601819080600181540180825580915050600190039060005260206000200160009091909190915055505050565b60606014805480602002602001604051908101604052809291908181526020018280548015613c5857602002820191906000526020600020905b815481526020019060010190808311613c44575b5050505050905090565b600960008381526020019081526020016000206004018190806001815401808255809150506001900390600052602060002001600090919091909150555050565b8060086000858152602001908152602001600020600301600084815260200190815260200160002081905550505050565b60005b8151811015613d3a576000600a60008581526020019081526020016000206005016000848481518110613d0d57613d0c614a3c565b5b60200260200101518152602001908152602001600020819055508080613d3290614966565b915050613cd7565b50600a60008381526020019081526020016000206004016000613d5d9190613de7565b5050565b828054613d6d90614903565b90600052602060002090601f016020900481019282613d8f5760008555613dd6565b82601f10613da857803560ff1916838001178555613dd6565b82800160010185558215613dd6579182015b82811115613dd5578235825591602001919060010190613dba565b5b509050613de39190613e08565b5090565b5080546000825590600052602060002090810190613e059190613e08565b50565b5b80821115613e21576000816000905550600101613e09565b5090565b6000613e38613e3384614789565b614764565b90508083825260208201905082856020860282011115613e5b57613e5a614aa4565b5b60005b85811015613e8b5781613e718882613f84565b845260208401935060208301925050600181019050613e5e565b5050509392505050565b600081359050613ea481614d16565b92915050565b60008083601f840112613ec057613ebf614a9f565b5b8235905067ffffffffffffffff811115613edd57613edc614a9a565b5b602083019150836020820283011115613ef957613ef8614aa4565b5b9250929050565b600082601f830112613f1557613f14614a9f565b5b8135613f25848260208601613e25565b91505092915050565b60008083601f840112613f4457613f43614a9f565b5b8235905067ffffffffffffffff811115613f6157613f60614a9a565b5b602083019150836001820283011115613f7d57613f7c614aa4565b5b9250929050565b600081359050613f9381614d2d565b92915050565b600060208284031215613faf57613fae614aae565b5b6000613fbd84828501613e95565b91505092915050565b60008060408385031215613fdd57613fdc614aae565b5b6000613feb85828601613e95565b9250506020613ffc85828601613f84565b9150509250929050565b60006020828403121561401c5761401b614aae565b5b600082013567ffffffffffffffff81111561403a57614039614aa9565b5b61404684828501613f00565b91505092915050565b6000806020838503121561406657614065614aae565b5b600083013567ffffffffffffffff81111561408457614083614aa9565b5b61409085828601613f2e565b92509250509250929050565b6000602082840312156140b2576140b1614aae565b5b60006140c084828501613f84565b91505092915050565b600080604083850312156140e0576140df614aae565b5b60006140ee85828601613f84565b92505060206140ff85828601613e95565b9150509250929050565b60008060006040848603121561412257614121614aae565b5b600061413086828701613f84565b935050602084013567ffffffffffffffff81111561415157614150614aa9565b5b61415d86828701613eaa565b92509250509250925092565b600080604083850312156141805761417f614aae565b5b600061418e85828601613f84565b925050602083013567ffffffffffffffff8111156141af576141ae614aa9565b5b6141bb85828601613f00565b9150509250929050565b6000806000604084860312156141de576141dd614aae565b5b60006141ec86828701613f84565b935050602084013567ffffffffffffffff81111561420d5761420c614aa9565b5b61421986828701613f2e565b92509250509250925092565b6000806040838503121561423c5761423b614aae565b5b600061424a85828601613f84565b925050602061425b85828601613f84565b9150509250929050565b60008060006060848603121561427e5761427d614aae565b5b600061428c86828701613f84565b935050602061429d86828701613f84565b92505060406142ae86828701613f84565b9150509250925092565b60006142c4838361448e565b60208301905092915050565b6142d981614894565b82525050565b60006142ea826147c5565b6142f481856147e8565b93506142ff836147b5565b8060005b8381101561433057815161431788826142b8565b9750614322836147db565b925050600181019050614303565b5085935050505092915050565b6000614348826147d0565b61435281856147f9565b93506143628185602086016148d0565b61436b81614ab3565b840191505092915050565b60006143836060836147f9565b915061438e82614ac4565b606082019050919050565b60006143a66015836147f9565b91506143b182614b39565b602082019050919050565b60006143c96010836147f9565b91506143d482614b62565b602082019050919050565b60006143ec6015836147f9565b91506143f782614b8b565b602082019050919050565b600061440f6022836147f9565b915061441a82614bb4565b604082019050919050565b60006144326015836147f9565b915061443d82614c03565b602082019050919050565b6000614455602f836147f9565b915061446082614c2c565b604082019050919050565b60006144786061836147f9565b915061448382614c7b565b608082019050919050565b614497816148c6565b82525050565b6144a6816148c6565b82525050565b600060208201905081810360008301526144c681846142df565b905092915050565b600060208201905081810360008301526144e8818461433d565b905092915050565b6000602082019050818103600083015261450981614376565b9050919050565b6000602082019050818103600083015261452981614399565b9050919050565b60006020820190508181036000830152614549816143bc565b9050919050565b60006020820190508181036000830152614569816143df565b9050919050565b6000602082019050818103600083015261458981614402565b9050919050565b600060208201905081810360008301526145a981614425565b9050919050565b600060208201905081810360008301526145c981614448565b9050919050565b600060208201905081810360008301526145e98161446b565b9050919050565b6000602082019050614605600083018461449d565b92915050565b6000606082019050614620600083018661449d565b8181036020830152614632818561433d565b905061464160408301846142d0565b949350505050565b600060808201905061465e600083018761449d565b8181036020830152614670818661433d565b905061467f60408301856142d0565b61468c606083018461449d565b95945050505050565b600060c0820190506146aa600083018961449d565b81810360208301526146bc818861433d565b90506146cb60408301876142d0565b6146d8606083018661449d565b6146e5608083018561449d565b6146f260a083018461449d565b979650505050505050565b6000606082019050614712600083018661449d565b8181036020830152614724818561433d565b9050614733604083018461449d565b949350505050565b6000604082019050614750600083018561449d565b61475d602083018461449d565b9392505050565b600061476e61477f565b905061477a8282614935565b919050565b6000604051905090565b600067ffffffffffffffff8211156147a4576147a3614a6b565b5b602082029050602081019050919050565b6000819050602082019050919050565b600081519050919050565b600081519050919050565b6000602082019050919050565b600082825260208201905092915050565b600082825260208201905092915050565b6000614815826148c6565b9150614820836148c6565b9250827fffffffffffffffffffffffffffffffffffffffffffffffffffffffffffffffff03821115614855576148546149af565b5b828201905092915050565b600061486b826148c6565b9150614876836148c6565b925082821015614889576148886149af565b5b828203905092915050565b600061489f826148a6565b9050919050565b600073ffffffffffffffffffffffffffffffffffffffff82169050919050565b6000819050919050565b60005b838110156148ee5780820151818401526020810190506148d3565b838111156148fd576000848401525b50505050565b6000600282049050600182168061491b57607f821691505b6020821081141561492f5761492e6149de565b5b50919050565b61493e82614ab3565b810181811067ffffffffffffffff8211171561495d5761495c614a6b565b5b80604052505050565b6000614971826148c6565b91507fffffffffffffffffffffffffffffffffffffffffffffffffffffffffffffffff8214156149a4576149a36149af565b5b600182019050919050565b7f4e487b7100000000000000000000000000000000000000000000000000000000600052601160045260246000fd5b7f4e487b7100000000000000000000000000000000000000000000000000000000600052602260045260246000fd5b7f4e487b7100000000000000000000000000000000000000000000000000000000600052603160045260246000fd5b7f4e487b7100000000000000000000000000000000000000000000000000000000600052603260045260246000fd5b7f4e487b7100000000000000000000000000000000000000000000000000000000600052604160045260246000fd5b600080fd5b600080fd5b600080fd5b600080fd5b600080fd5b6000601f19601f8301169050919050565b7f5768656e2073657474696e672074686520707265666572656e6365206c65766560008201527f6c206f6620636f75727365732c206974206973206e656365737361727920746f60208201527f206861766520616e20657175616c206e756d626572206f6620636f7572736573604082015250565b7fe8afa5e78fade7baa7e5b7b2e7bb8fe68993e588860000000000000000000000600082015250565b7f436f75727365206e6f7420666f756e6400000000000000000000000000000000600082015250565b7fe8afa5e88081e5b888e5b7b2e7bb8fe68993e588860000000000000000000000600082015250565b7f6d7573742075706461746520616c6c20636f7572736520737569746162696c6960008201527f7479000000000000000000000000000000000000000000000000000000000000602082015250565b7fe8afa5e79da3e5afbce5b7b2e7bb8fe8af84e588860000000000000000000000600082015250565b7f4f6e6c7920726567697374657265642074656163686572732063616e2063616c60008201527f6c20746869732066756e6374696f6e0000000000000000000000000000000000602082015250565b7f5768656e2073657474696e672074686520737569746162696c697479206c657660008201527f656c206f6620636f75727365732c206974206973206e6563657373617279207460208201527f6f206861766520616e20657175616c206e756d626572206f6620636f7572736560408201527f7300000000000000000000000000000000000000000000000000000000000000606082015250565b614d1f81614894565b8114614d2a57600080fd5b50565b614d36816148c6565b8114614d4157600080fd5b5056fea2646970667358221220ccbc574350b95d968bd7f84ff324da119f0516667d3158515c2c1339359a618664736f6c63430008070033",
  "immutableReferences": {},
  "source": "// SPDX-License-Identifier: MIT\r\npragma solidity ^0.8.7;\r\n\r\ncontract ICourseAllocation {\r\n    // \r\n    struct Teacher {\r\n        uint256 id;\r\n        string name;\r\n        address addr;\r\n        uint256[] assignedCourses;\r\n        uint256[] reallyAssignedCourses;\r\n        uint256 suitabilityWeight;\r\n        uint256 transferCourseCoins;\r\n        uint256 value;\r\n        mapping(uint256 => uint256) courseSuitabilities;\r\n        mapping(uint256 => uint256) coursePreferences;\r\n    }\r\n\r\n    // \r\n    struct Agent {\r\n        uint256 id;\r\n        string name;\r\n        address addr;\r\n        uint256 value;\r\n        uint256[] assignedCourses;\r\n        mapping(uint256 => uint256) courseSuitabilities;\r\n    }\r\n\r\n    // \r\n    struct Supervisor {\r\n        uint256 id;\r\n        string name;\r\n        address addr;\r\n        mapping(uint256 => uint256) courseScores;\r\n    }\r\n\r\n    // \r\n    struct Course {\r\n        uint256 id;\r\n        string name;\r\n        uint256 importance;\r\n        uint256[] assignedTeacherId;\r\n        uint256[] assignedAgentId;\r\n    }\r\n\r\n    struct CourseScore {\r\n        uint256 id; // id\r\n        uint256 totalScore;\r\n        uint256[] classScores;\r\n        mapping(uint256 => uint256) giveScoreClassIdExists;\r\n        uint256[] teacherScores;\r\n        mapping(uint256 => uint256) giveScoreTeacherIdExists;\r\n        uint256[] supervisorScores;\r\n        mapping(uint256 => uint256) giveScoreSupervisorIdExists;\r\n    }\r\n    // \r\n    string public ScoreTypeChioce;\r\n\r\n    // \r\n    uint256 public totalWeight;\r\n\r\n    //  => ID\r\n    mapping(address => uint256) public addressToTeacherId;\r\n\r\n    //  => ID\r\n    mapping(address => uint256) public addressToAgentId;\r\n\r\n    //  => ID\r\n    mapping(address => uint256) public addressToClassId;\r\n\r\n    //  => ID\r\n    mapping(address => uint256) public addressToSupervisorId;\r\n\r\n    // ID => \r\n    mapping(uint256 => Teacher) public teachers;\r\n\r\n    // ID => \r\n    mapping(uint256 => Agent) public agents;\r\n\r\n    // ID => \r\n    mapping(uint256 => Supervisor) public supervisors;\r\n\r\n    // ID => \r\n    mapping(uint256 => Course) public courses;\r\n\r\n    // ID => \r\n    mapping(uint256 => CourseScore) public courseScores;\r\n\r\n    // ID\r\n    uint256 public teacherCount;\r\n\r\n    // ID\r\n    uint256 public agentCount;\r\n\r\n    // ID\r\n    uint256 public classCount;\r\n\r\n    // ID\r\n    uint256 public courseCount;\r\n\r\n    // ID\r\n    uint256 public supervisorCount;\r\n\r\n    // ID\r\n    uint256[] public teacherIds;\r\n\r\n    // ID\r\n    uint256[] public agentIds;\r\n\r\n    // ID\r\n    uint256[] public courseIds;\r\n\r\n    // ID\r\n    uint256[] public classIds;\r\n\r\n    // ID\r\n    uint256[] public supervisorIds;\r\n\r\n    // \r\n    uint256 public transferCourseNumbers;\r\n\r\n    // \r\n    uint256 public transferCourseStartTime;\r\n\r\n    // \r\n    uint256 public transferCourseEndTime;\r\n\r\n    // \r\n    // event CourseImportanceSet(uint256 indexed courseId, uint256 importance);\r\n    // event SuitabilityUpdated(uint256 indexed courseId, uint256 suitability);\r\n    // event PreferenceUpdated(uint256 indexed teacherId, uint256 indexed courseId, uint256 preference);\r\n    // event ProposalCreated(uint256 proposalId, uint256 indexed courseId, uint256[] teacherIds); // \r\n    // event MachineProposal(uint256 proposalId, uint256 indexed courseId, uint256[] teacherIds, uint256[] teacherCounts); // \r\n    // event CourseAssignedToTeacher(uint256 indexed courseId, uint256 indexed teacherId); // \r\n\r\n    // \r\n    constructor() {}\r\n\r\n    // \r\n    modifier onlyTeacher() {\r\n        require(\r\n            addressToTeacherId[msg.sender] != 0,\r\n            \"Only registered teachers can call this function\"\r\n        );\r\n        _;\r\n    }\r\n\r\n    // ID\r\n    function setTeacherId(address teacherAddress, uint256 _TeacherId) public {\r\n        addressToTeacherId[teacherAddress] = _TeacherId;\r\n        teachers[_TeacherId].id = _TeacherId;\r\n        teacherIds.push(_TeacherId);\r\n    }\r\n\r\n    // \r\n    function removeTeacher(uint256 teacherId) public onlyTeacher {\r\n        teachers[teacherId].id = 0;\r\n        //  teacherIds  ID\r\n        for (uint256 i = 0; i < teacherIds.length; i++) {\r\n            if (teacherIds[i] == teacherId) {\r\n                //  ID \r\n                teacherIds[i] = teacherIds[teacherIds.length - 1];\r\n                // \r\n                teacherIds.pop();\r\n                break;\r\n            }\r\n        }\r\n    }\r\n\r\n    // \r\n    function setTeacherName(\r\n        uint256 teacherId,\r\n        string calldata _name\r\n    ) public onlyTeacher {\r\n        teachers[teacherId].name = _name;\r\n    }\r\n\r\n    // \r\n    function setTeacherAddress(\r\n        uint256 teacherId,\r\n        address _teacherAddress\r\n    ) public onlyTeacher {\r\n        teachers[teacherId].addr = _teacherAddress;\r\n    }\r\n\r\n    // \r\n    function addTeacherAssignedCourses(\r\n        uint256 teacherId,\r\n        uint256 _assignedCourses\r\n    ) public {\r\n        teachers[teacherId].assignedCourses.push(_assignedCourses);\r\n    }\r\n\r\n    // \r\n    function addTeacherReallyAssignedCourses(\r\n        uint256 teacherId,\r\n        uint256 _assignedCourses\r\n    ) public {\r\n        teachers[teacherId].reallyAssignedCourses.push(_assignedCourses);\r\n    }\r\n\r\n    // \r\n    function removeTeacherAssignedCourses(\r\n        uint256 teacherId,\r\n        uint256 _assignedCourses\r\n    ) public {\r\n        bool found = false;\r\n        uint256 indexToRemove;\r\n\r\n        //  ID \r\n        for (\r\n            uint256 i = 0;\r\n            i < teachers[teacherId].assignedCourses.length;\r\n            i++\r\n        ) {\r\n            if (teachers[teacherId].assignedCourses[i] == _assignedCourses) {\r\n                found = true;\r\n                indexToRemove = i;\r\n                break;\r\n            }\r\n        }\r\n\r\n        //  ID\r\n        if (found) {\r\n            // \r\n            teachers[teacherId].assignedCourses[indexToRemove] = teachers[\r\n                teacherId\r\n            ].assignedCourses[teachers[teacherId].assignedCourses.length - 1];\r\n            // \r\n            teachers[teacherId].assignedCourses.pop();\r\n        } else {\r\n            //  ID\r\n            revert(\"Course not found\");\r\n        }\r\n    }\r\n\r\n    // \r\n    function removeTeacherReallyAssignedCourses(\r\n        uint256 teacherId,\r\n        uint256 _assignedCourses\r\n    ) public {\r\n        bool found = false;\r\n        uint256 indexToRemove;\r\n\r\n        //  ID \r\n        for (\r\n            uint256 i = 0;\r\n            i < teachers[teacherId].reallyAssignedCourses.length;\r\n            i++\r\n        ) {\r\n            if (\r\n                teachers[teacherId].reallyAssignedCourses[i] == _assignedCourses\r\n            ) {\r\n                found = true;\r\n                indexToRemove = i;\r\n                break;\r\n            }\r\n        }\r\n\r\n        //  ID\r\n        if (found) {\r\n            // \r\n            teachers[teacherId].reallyAssignedCourses[indexToRemove] = teachers[\r\n                teacherId\r\n            ].reallyAssignedCourses[\r\n                    teachers[teacherId].reallyAssignedCourses.length - 1\r\n                ];\r\n            // \r\n            teachers[teacherId].reallyAssignedCourses.pop();\r\n        } else {\r\n            //  ID\r\n            revert(\"Course not found\");\r\n        }\r\n    }\r\n\r\n    // \r\n    function setTeacherSuitabilityWeight(\r\n        uint256 teacherId,\r\n        uint256 _suitabilityWeight\r\n    ) public onlyTeacher {\r\n        totalWeight -= teachers[teacherId].suitabilityWeight;\r\n        teachers[teacherId].suitabilityWeight = _suitabilityWeight;\r\n        totalWeight += teachers[teacherId].suitabilityWeight;\r\n    }\r\n\r\n    // \r\n    function setTeacherTransferCourseCoins(\r\n        uint256 teacherId,\r\n        uint256 _transferCourseCoins\r\n    ) public onlyTeacher {\r\n        teachers[teacherId].transferCourseCoins = _transferCourseCoins;\r\n    }\r\n\r\n    // \r\n    function setTeacherValue(\r\n        uint256 teacherId,\r\n        uint256 _value\r\n    ) public onlyTeacher {\r\n        teachers[teacherId].value = _value;\r\n    }\r\n\r\n    // \r\n    function setAgentValue(uint256 agentId, uint256 _value) public {\r\n        agents[agentId].value = _value;\r\n    }\r\n\r\n    // \r\n    function setAllTeacherCourseSuitability(\r\n        uint256 teacherId,\r\n        uint256[] calldata _suitabilities\r\n    ) public onlyTeacher {\r\n        require(\r\n            _suitabilities.length == courseIds.length,\r\n            \"When setting the suitability level of courses, it is necessary to have an equal number of courses\"\r\n        );\r\n        for (\r\n            uint256 courseIndex = 0;\r\n            courseIndex < courseIds.length;\r\n            courseIndex++\r\n        ) {\r\n            teachers[teacherId].courseSuitabilities[\r\n                courseIds[courseIndex]\r\n            ] = _suitabilities[courseIndex];\r\n        }\r\n    }\r\n\r\n    // \r\n    function setTeacherCourseSuitability(\r\n        uint256 teacherId,\r\n        uint256 courseId,\r\n        uint256 _suitability\r\n    ) public {\r\n        teachers[teacherId].courseSuitabilities[courseId] = _suitability;\r\n    }\r\n\r\n    // \r\n    function setAllTeacherCoursePreferences(\r\n        uint256 teacherId,\r\n        uint256[] calldata _preferences\r\n    ) public onlyTeacher {\r\n        require(\r\n            _preferences.length == courseIds.length,\r\n            \"When setting the preference level of courses, it is necessary to have an equal number of courses\"\r\n        );\r\n        for (\r\n            uint256 courseIndex = 0;\r\n            courseIndex < courseIds.length;\r\n            courseIndex++\r\n        ) {\r\n            teachers[teacherId].coursePreferences[\r\n                courseIds[courseIndex]\r\n            ] = _preferences[courseIndex];\r\n        }\r\n    }\r\n\r\n    // \r\n    function setTeacherCoursePreferences(\r\n        uint256 teacherId,\r\n        uint256 courseId,\r\n        uint256 _preference\r\n    ) public onlyTeacher {\r\n        teachers[teacherId].coursePreferences[courseId] = _preference;\r\n    }\r\n\r\n    // ID\r\n    function setAgentId(address agentAddress, uint256 _agentId) public {\r\n        addressToAgentId[agentAddress] = _agentId;\r\n        agents[_agentId].id = _agentId;\r\n        agentIds.push(_agentId);\r\n    }\r\n\r\n    // \r\n    function removeAgent(uint256 agentId) public {\r\n        agents[agentId].id = 0;\r\n        //  agentIds  ID\r\n        for (uint256 i = 0; i < agentIds.length; i++) {\r\n            if (agentIds[i] == agentId) {\r\n                //  ID \r\n                agentIds[i] = agentIds[agentIds.length - 1];\r\n                // \r\n                agentIds.pop();\r\n                break;\r\n            }\r\n        }\r\n    }\r\n\r\n    // \r\n    function setAgentName(uint256 agentId, string calldata _name) public {\r\n        agents[agentId].name = _name;\r\n    }\r\n\r\n    // \r\n    function setAgentAddress(uint256 agentId, address _agentAddress) public {\r\n        agents[agentId].addr = _agentAddress;\r\n    }\r\n\r\n    // \r\n    function addAgentAssignedCourses(\r\n        uint256 agentId,\r\n        uint256 _assignedCourses\r\n    ) public {\r\n        agents[agentId].assignedCourses.push(_assignedCourses);\r\n    }\r\n\r\n    // \r\n    function removeAgentAssignedCourses(\r\n        uint256 agentId,\r\n        uint256 _assignedCourses\r\n    ) public {\r\n        bool found = false;\r\n        uint256 indexToRemove;\r\n\r\n        //  ID \r\n        for (uint256 i = 0; i < agents[agentId].assignedCourses.length; i++) {\r\n            if (agents[agentId].assignedCourses[i] == _assignedCourses) {\r\n                found = true;\r\n                indexToRemove = i;\r\n                break;\r\n            }\r\n        }\r\n\r\n        //  ID\r\n        if (found) {\r\n            // \r\n            agents[agentId].assignedCourses[indexToRemove] = agents[agentId]\r\n                .assignedCourses[agents[agentId].assignedCourses.length - 1];\r\n            // \r\n            agents[agentId].assignedCourses.pop();\r\n        } else {\r\n            //  ID\r\n            revert(\"Course not found\");\r\n        }\r\n    }\r\n\r\n    // \r\n    function setAgentCourseSuitability(\r\n        uint256 agentId,\r\n        uint256 _courseId,\r\n        uint256 _suitability\r\n    ) public {\r\n        agents[agentId].courseSuitabilities[_courseId] = _suitability;\r\n    }\r\n\r\n    // \r\n    function setAllAgentCourseSuitability(\r\n        uint256 agentId,\r\n        uint256[] calldata _suitabilities\r\n    ) public {\r\n        require(\r\n            _suitabilities.length == courseIds.length,\r\n            \"When setting the suitability level of courses, it is necessary to have an equal number of courses\"\r\n        );\r\n        for (\r\n            uint256 courseIndex = 0;\r\n            courseIndex < courseIds.length;\r\n            courseIndex++\r\n        ) {\r\n            agents[agentId].courseSuitabilities[\r\n                courseIds[courseIndex]\r\n            ] = _suitabilities[courseIndex];\r\n        }\r\n    }\r\n\r\n    // ID\r\n    function setClassId(address classAddress, uint256 _id) public {\r\n        addressToClassId[classAddress] = _id;\r\n        classIds.push(_id);\r\n    }\r\n\r\n    // \r\n    function removeClass(uint256 classId) public {\r\n        //  classIds  ID\r\n        for (uint256 i = 0; i < classIds.length; i++) {\r\n            if (classIds[i] == classId) {\r\n                //  ID \r\n                classIds[i] = classIds[classIds.length - 1];\r\n                // \r\n                classIds.pop();\r\n                break;\r\n            }\r\n        }\r\n    }\r\n\r\n    // ID\r\n    function setCourseId(uint256 courseId) public {\r\n        courses[courseId].id = courseId;\r\n        courseIds.push(courseId);\r\n    }\r\n\r\n    // \r\n    function removeCourse(uint256 courseId) public {\r\n        //  classIds  ID\r\n        for (uint256 i = 0; i < courseIds.length; i++) {\r\n            if (courseIds[i] == courseId) {\r\n                //  ID \r\n                courseIds[i] = courseIds[courseIds.length - 1];\r\n                // \r\n                courseIds.pop();\r\n                break;\r\n            }\r\n        }\r\n    }\r\n\r\n    // \r\n    function setCourseName(uint256 courseId, string calldata _name) public {\r\n        courses[courseId].name = _name;\r\n    }\r\n\r\n    // \r\n    function setCourseImportance(uint256 courseId, uint256 _importance) public {\r\n        courses[courseId].importance = _importance;\r\n    }\r\n\r\n    // \r\n    function setAllCourseImportance(uint256[] memory _importances) public {\r\n        require(\r\n            _importances.length == courseIds.length,\r\n            \"must update all course suitability\"\r\n        );\r\n        // \r\n        for (\r\n            uint256 courseIndex = 0;\r\n            courseIndex < courseIds.length;\r\n            courseIndex++\r\n        ) {\r\n            courses[courseIds[courseIndex]].importance = _importances[\r\n                courseIndex\r\n            ];\r\n        }\r\n    }\r\n\r\n    // ID\r\n    function addCourseAssignedTeacherId(\r\n        uint256 courseId,\r\n        uint256 _teacherId\r\n    ) public {\r\n        courses[courseId].assignedTeacherId.push(_teacherId);\r\n    }\r\n\r\n    // ID\r\n    function addCourseAssignedAgentId(\r\n        uint256 courseId,\r\n        uint256 _agentId\r\n    ) public {\r\n        courses[courseId].assignedAgentId.push(_agentId);\r\n    }\r\n\r\n    // \r\n    function removeCourseAssignedTeacherId(\r\n        uint256 courseId,\r\n        uint256 _teacherId\r\n    ) public {\r\n        bool found = false;\r\n        uint256 indexToRemove;\r\n\r\n        //  ID \r\n        for (\r\n            uint256 i = 0;\r\n            i < courses[courseId].assignedTeacherId.length;\r\n            i++\r\n        ) {\r\n            if (courses[courseId].assignedTeacherId[i] == _teacherId) {\r\n                found = true;\r\n                indexToRemove = i;\r\n                break;\r\n            }\r\n        }\r\n\r\n        //  ID\r\n        if (found) {\r\n            // \r\n            courses[courseId].assignedTeacherId[indexToRemove] = courses[\r\n                courseId\r\n            ].assignedTeacherId[courses[courseId].assignedTeacherId.length - 1];\r\n            // \r\n            courses[courseId].assignedTeacherId.pop();\r\n        } else {\r\n            //  ID\r\n            revert(\"Course not found\");\r\n        }\r\n    }\r\n\r\n    // \r\n    function removeCourseAssignedAgentId(\r\n        uint256 courseId,\r\n        uint256 _agentId\r\n    ) public {\r\n        bool found = false;\r\n        uint256 indexToRemove;\r\n\r\n        //  ID \r\n        for (uint256 i = 0; i < courses[courseId].assignedAgentId.length; i++) {\r\n            if (courses[courseId].assignedAgentId[i] == _agentId) {\r\n                found = true;\r\n                indexToRemove = i;\r\n                break;\r\n            }\r\n        }\r\n\r\n        //  ID\r\n        if (found) {\r\n            // \r\n            courses[courseId].assignedAgentId[indexToRemove] = courses[courseId]\r\n                .assignedAgentId[courses[courseId].assignedAgentId.length - 1];\r\n            // \r\n            courses[courseId].assignedAgentId.pop();\r\n        } else {\r\n            //  ID\r\n            revert(\"Course not found\");\r\n        }\r\n    }\r\n\r\n    // // \r\n    // function setCourseIsAgentSuitable(\r\n    //     uint256 courseId,\r\n    //     bool _isAgentSuitable\r\n    // ) public {\r\n    //     courses[courseId].isAgentSuitable = _isAgentSuitable;\r\n    // }\r\n\r\n    // \r\n    function setTeacherCount(uint256 _teacherCount) public {\r\n        teacherCount = _teacherCount;\r\n    }\r\n\r\n    // \r\n    function setAgentCount(uint256 _agentCount) public {\r\n        agentCount = _agentCount;\r\n    }\r\n\r\n    // \r\n    function setClassCount(uint256 _classCount) public {\r\n        classCount = _classCount;\r\n    }\r\n\r\n    // \r\n    function setCourseCount(uint256 _courseCount) public {\r\n        courseCount = _courseCount;\r\n    }\r\n\r\n    // \r\n    function getTeacherSuitability(\r\n        uint256 _teacherId,\r\n        uint256 courseId\r\n    ) public view returns (uint256) {\r\n        return teachers[_teacherId].courseSuitabilities[courseId];\r\n    }\r\n\r\n    // \r\n    function getAgentSuitability(\r\n        uint256 _agentId,\r\n        uint256 courseId\r\n    ) public view returns (uint256) {\r\n        return agents[_agentId].courseSuitabilities[courseId];\r\n    }\r\n\r\n    // \r\n    function getPreference(\r\n        uint256 _teacherId,\r\n        uint256 courseId\r\n    ) public view returns (uint256) {\r\n        return teachers[_teacherId].coursePreferences[courseId];\r\n    }\r\n\r\n    // \r\n    function getTeacherAssignedCourses(\r\n        uint256 _teacherId\r\n    ) public view returns (uint256[] memory) {\r\n        return teachers[_teacherId].assignedCourses;\r\n    }\r\n\r\n    // \r\n    function getTeacherReallyAssignedCourses(\r\n        uint256 _teacherId\r\n    ) public view returns (uint256[] memory) {\r\n        return teachers[_teacherId].reallyAssignedCourses;\r\n    }\r\n\r\n    // \r\n    function getAgentAssignedCourses(\r\n        uint256 _agentId\r\n    ) public view returns (uint256[] memory) {\r\n        return agents[_agentId].assignedCourses;\r\n    }\r\n\r\n    // \r\n    function getCoursesAssignedTeacher(\r\n        uint256 _courseId\r\n    ) public view returns (uint256[] memory) {\r\n        return courses[_courseId].assignedTeacherId;\r\n    }\r\n\r\n    // \r\n    function getCoursesAssignedAgent(\r\n        uint256 _courseId\r\n    ) public view returns (uint256[] memory) {\r\n        return courses[_courseId].assignedAgentId;\r\n    }\r\n\r\n    // \r\n    function getCourseImportance(uint courseId) external view returns (uint) {\r\n        return courses[courseId].importance;\r\n    }\r\n\r\n    // // \r\n    // function getCourseIsAgentSuitable(\r\n    //     uint courseId\r\n    // ) external view returns (bool) {\r\n    //     return courses[courseId].isAgentSuitable;\r\n    // }\r\n\r\n    function getTeacherIds() public view returns (uint256[] memory) {\r\n        return teacherIds;\r\n    }\r\n\r\n    function getAgentIds() public view returns (uint256[] memory) {\r\n        return agentIds;\r\n    }\r\n\r\n    function getCourseIds() public view returns (uint256[] memory) {\r\n        return courseIds;\r\n    }\r\n\r\n    function getClassIds() public view returns (uint256[] memory) {\r\n        return classIds;\r\n    }\r\n\r\n    function addCourseClassScores(\r\n        uint256 courseId,\r\n        uint256 classId,\r\n        uint256 score\r\n    ) public {\r\n        require(\r\n            courseScores[courseId].giveScoreClassIdExists[classId] == 0,\r\n            unicode\"\"\r\n        );\r\n        courseScores[courseId].giveScoreClassIdExists[classId] = score;\r\n        courseScores[courseId].classScores.push(score);\r\n    }\r\n\r\n    function getGiveScoreClassIdExists(\r\n        uint256 courseId,\r\n        uint256 classId\r\n    ) public view returns (uint256) {\r\n        return courseScores[courseId].giveScoreClassIdExists[classId];\r\n    }\r\n\r\n    // \r\n    function removeCourseClassScores(\r\n        uint256 courseId,\r\n        uint256[] memory classIds_\r\n    ) public {\r\n        for (uint256 i = 0; i < classIds_.length; i++) {\r\n            courseScores[courseId].giveScoreClassIdExists[classIds_[i]] = 0;\r\n        }\r\n        delete courseScores[courseId].classScores;\r\n    }\r\n\r\n    function getCourseClassScores(\r\n        uint256 courseId\r\n    ) public view returns (uint256[] memory) {\r\n        return courseScores[courseId].classScores;\r\n    }\r\n\r\n    function addTeacherScores(\r\n        uint256 courseId,\r\n        uint256 teacherId,\r\n        uint256 score\r\n    ) public {\r\n        require(\r\n            courseScores[courseId].giveScoreTeacherIdExists[teacherId] == 0,\r\n            unicode\"\"\r\n        );\r\n        courseScores[courseId].giveScoreTeacherIdExists[teacherId] = score;\r\n        courseScores[courseId].teacherScores.push(score);\r\n    }\r\n\r\n    function removeTeacherScores(\r\n        uint256 courseId,\r\n        uint256[] memory teacherIds_\r\n    ) public {\r\n        for (uint256 i = 0; i < teacherIds_.length; i++) {\r\n            courseScores[courseId].giveScoreTeacherIdExists[teacherIds_[i]] = 0;\r\n        }\r\n        delete courseScores[courseId].teacherScores;\r\n    }\r\n\r\n    function getTeacherScores(uint256 courseId) public view returns (uint256[] memory) {\r\n        return courseScores[courseId].teacherScores;\r\n    }\r\n\r\n    function getGiveScoreTeacherIdExists(\r\n        uint256 courseId,\r\n        uint256 teacherId \r\n    ) public view returns (uint256) {\r\n        return courseScores[courseId].giveScoreTeacherIdExists[teacherId]; \r\n    }\r\n\r\n    function setCourseTotalScore(uint256 courseId, uint256 score) public {\r\n        courseScores[courseId].totalScore = score;\r\n    }\r\n\r\n    function addCourseSupervisorScores(\r\n        uint256 courseId,\r\n        uint256 supervisorId,\r\n        uint256 score\r\n    ) public {\r\n        require(\r\n            courseScores[courseId].giveScoreSupervisorIdExists[supervisorId] ==\r\n                0,\r\n            unicode\"\"\r\n        );\r\n        courseScores[courseId].giveScoreSupervisorIdExists[\r\n            supervisorId\r\n        ] = score;\r\n        courseScores[courseId].supervisorScores.push(score);\r\n    }\r\n\r\n    function removeCourseSupervisorScores(\r\n        uint256 courseId,\r\n        uint256[] memory supervisorIds_ \r\n    ) public {\r\n        for (uint256 i = 0; i < supervisorIds_.length; i++) {\r\n            courseScores[courseId].giveScoreSupervisorIdExists[supervisorIds_[i]] = 0;\r\n        }\r\n        delete courseScores[courseId].supervisorScores;\r\n    }\r\n\r\n    function getGiveScoreSupervisorIdExists(\r\n        uint256 courseId,\r\n        uint256 supervisorId\r\n    ) public view returns (uint256) {\r\n        return courseScores[courseId].giveScoreSupervisorIdExists[supervisorId];\r\n    }\r\n\r\n    function getCourseSupervisorScores(\r\n        uint256 courseId\r\n    ) public view returns (uint256[] memory) {\r\n        return courseScores[courseId].supervisorScores;\r\n    }\r\n\r\n    function addSupervisorId(uint256 supervisorId) public {\r\n        supervisorIds.push(supervisorId);\r\n        supervisorCount++;\r\n    }\r\n\r\n    function getSupervisorIds() public view returns (uint256[] memory) {\r\n        return supervisorIds;\r\n    }\r\n\r\n    function setSupervisorId(address supervisor, uint256 supervisorId) public {\r\n        addressToSupervisorId[supervisor] = supervisorId;\r\n        supervisors[supervisorId].id = supervisorId;\r\n        supervisors[supervisorId].addr = supervisor;\r\n    }\r\n\r\n    function setSupervisorName(\r\n        uint256 supervisorId,\r\n        string calldata _name\r\n    ) public {\r\n        supervisors[supervisorId].name = _name;\r\n    }\r\n\r\n    function setSupervisorsCourseScore(\r\n        uint256 supervisorId,\r\n        uint256 courseId,\r\n        uint256 score\r\n    ) public {\r\n        supervisors[supervisorId].courseScores[courseId] = score;\r\n    }\r\n\r\n    function settransferCourseNumbers(uint256 _transferCourseNumbers) public {\r\n        transferCourseNumbers = _transferCourseNumbers;\r\n    }\r\n\r\n    function settransferCourseStartTime(\r\n        uint256 _transferCourseStartTime\r\n    ) public {\r\n        transferCourseStartTime = _transferCourseStartTime;\r\n    }\r\n\r\n    function settransferCourseEndTime(uint256 _transferCourseEndTime) public {\r\n        transferCourseEndTime = _transferCourseEndTime;\r\n    }\r\n\r\n    function setScoreType(string calldata option) public {\r\n        ScoreTypeChioce = option;\r\n    }\r\n}\r\n",
  "sourcePath": "E:\\\\paper\\DAO\\git-DAO\\yzt\\Course-allocation\\project\\contracts\\ICourseAllocation.sol",
  "compiler": {
    "name": "solc",
    "version": "0.8.7+commit.e28d00a7.Emscripten.clang"
  },
  "schemaVersion": "3.4.16",
  "updatedAt": "2025-04-15T03:53:24.825Z",
  "devdoc": {
    "kind": "dev",
    "methods": {},
    "version": 1
  },
  "userdoc": {
    "kind": "user",
    "methods": {},
    "version": 1
  }
}