{
  "contractName": "ICourseAllocation",
  "abi": [
    {
      "inputs": [],
      "stateMutability": "nonpayable",
      "type": "constructor"
    },
    {
      "inputs": [
        {
          "internalType": "address",
          "name": "",
          "type": "address"
        }
      ],
      "name": "addressToAgentId",
      "outputs": [
        {
          "internalType": "uint256",
          "name": "",
          "type": "uint256"
        }
      ],
      "stateMutability": "view",
      "type": "function",
      "constant": true
    },
    {
      "inputs": [
        {
          "internalType": "address",
          "name": "",
          "type": "address"
        }
      ],
      "name": "addressToClassId",
      "outputs": [
        {
          "internalType": "uint256",
          "name": "",
          "type": "uint256"
        }
      ],
      "stateMutability": "view",
      "type": "function",
      "constant": true
    },
    {
      "inputs": [
        {
          "internalType": "address",
          "name": "",
          "type": "address"
        }
      ],
      "name": "addressToSupervisorId",
      "outputs": [
        {
          "internalType": "uint256",
          "name": "",
          "type": "uint256"
        }
      ],
      "stateMutability": "view",
      "type": "function",
      "constant": true
    },
    {
      "inputs": [
        {
          "internalType": "address",
          "name": "",
          "type": "address"
        }
      ],
      "name": "addressToTeacherId",
      "outputs": [
        {
          "internalType": "uint256",
          "name": "",
          "type": "uint256"
        }
      ],
      "stateMutability": "view",
      "type": "function",
      "constant": true
    },
    {
      "inputs": [],
      "name": "agentCount",
      "outputs": [
        {
          "internalType": "uint256",
          "name": "",
          "type": "uint256"
        }
      ],
      "stateMutability": "view",
      "type": "function",
      "constant": true
    },
    {
      "inputs": [
        {
          "internalType": "uint256",
          "name": "",
          "type": "uint256"
        }
      ],
      "name": "agentIds",
      "outputs": [
        {
          "internalType": "uint256",
          "name": "",
          "type": "uint256"
        }
      ],
      "stateMutability": "view",
      "type": "function",
      "constant": true
    },
    {
      "inputs": [
        {
          "internalType": "uint256",
          "name": "",
          "type": "uint256"
        }
      ],
      "name": "agents",
      "outputs": [
        {
          "internalType": "uint256",
          "name": "id",
          "type": "uint256"
        },
        {
          "internalType": "string",
          "name": "name",
          "type": "string"
        },
        {
          "internalType": "address",
          "name": "addr",
          "type": "address"
        },
        {
          "internalType": "uint256",
          "name": "value",
          "type": "uint256"
        }
      ],
      "stateMutability": "view",
      "type": "function",
      "constant": true
    },
    {
      "inputs": [],
      "name": "classCount",
      "outputs": [
        {
          "internalType": "uint256",
          "name": "",
          "type": "uint256"
        }
      ],
      "stateMutability": "view",
      "type": "function",
      "constant": true
    },
    {
      "inputs": [
        {
          "internalType": "uint256",
          "name": "",
          "type": "uint256"
        }
      ],
      "name": "classIds",
      "outputs": [
        {
          "internalType": "uint256",
          "name": "",
          "type": "uint256"
        }
      ],
      "stateMutability": "view",
      "type": "function",
      "constant": true
    },
    {
      "inputs": [],
      "name": "courseCount",
      "outputs": [
        {
          "internalType": "uint256",
          "name": "",
          "type": "uint256"
        }
      ],
      "stateMutability": "view",
      "type": "function",
      "constant": true
    },
    {
      "inputs": [
        {
          "internalType": "uint256",
          "name": "",
          "type": "uint256"
        }
      ],
      "name": "courseIds",
      "outputs": [
        {
          "internalType": "uint256",
          "name": "",
          "type": "uint256"
        }
      ],
      "stateMutability": "view",
      "type": "function",
      "constant": true
    },
    {
      "inputs": [
        {
          "internalType": "uint256",
          "name": "",
          "type": "uint256"
        }
      ],
      "name": "courseScores",
      "outputs": [
        {
          "internalType": "uint256",
          "name": "id",
          "type": "uint256"
        },
        {
          "internalType": "uint256",
          "name": "totalScore",
          "type": "uint256"
        },
        {
          "internalType": "uint256",
          "name": "selfScore",
          "type": "uint256"
        }
      ],
      "stateMutability": "view",
      "type": "function",
      "constant": true
    },
    {
      "inputs": [
        {
          "internalType": "uint256",
          "name": "",
          "type": "uint256"
        }
      ],
      "name": "courses",
      "outputs": [
        {
          "internalType": "uint256",
          "name": "id",
          "type": "uint256"
        },
        {
          "internalType": "string",
          "name": "name",
          "type": "string"
        },
        {
          "internalType": "uint256",
          "name": "importance",
          "type": "uint256"
        },
        {
          "internalType": "bool",
          "name": "isAgentSuitable",
          "type": "bool"
        }
      ],
      "stateMutability": "view",
      "type": "function",
      "constant": true
    },
    {
      "inputs": [],
      "name": "supervisorCount",
      "outputs": [
        {
          "internalType": "uint256",
          "name": "",
          "type": "uint256"
        }
      ],
      "stateMutability": "view",
      "type": "function",
      "constant": true
    },
    {
      "inputs": [
        {
          "internalType": "uint256",
          "name": "",
          "type": "uint256"
        }
      ],
      "name": "supervisorIds",
      "outputs": [
        {
          "internalType": "uint256",
          "name": "",
          "type": "uint256"
        }
      ],
      "stateMutability": "view",
      "type": "function",
      "constant": true
    },
    {
      "inputs": [
        {
          "internalType": "uint256",
          "name": "",
          "type": "uint256"
        }
      ],
      "name": "supervisors",
      "outputs": [
        {
          "internalType": "uint256",
          "name": "id",
          "type": "uint256"
        },
        {
          "internalType": "string",
          "name": "name",
          "type": "string"
        },
        {
          "internalType": "address",
          "name": "addr",
          "type": "address"
        }
      ],
      "stateMutability": "view",
      "type": "function",
      "constant": true
    },
    {
      "inputs": [],
      "name": "teacherCount",
      "outputs": [
        {
          "internalType": "uint256",
          "name": "",
          "type": "uint256"
        }
      ],
      "stateMutability": "view",
      "type": "function",
      "constant": true
    },
    {
      "inputs": [
        {
          "internalType": "uint256",
          "name": "",
          "type": "uint256"
        }
      ],
      "name": "teacherIds",
      "outputs": [
        {
          "internalType": "uint256",
          "name": "",
          "type": "uint256"
        }
      ],
      "stateMutability": "view",
      "type": "function",
      "constant": true
    },
    {
      "inputs": [
        {
          "internalType": "uint256",
          "name": "",
          "type": "uint256"
        }
      ],
      "name": "teachers",
      "outputs": [
        {
          "internalType": "uint256",
          "name": "id",
          "type": "uint256"
        },
        {
          "internalType": "string",
          "name": "name",
          "type": "string"
        },
        {
          "internalType": "address",
          "name": "addr",
          "type": "address"
        },
        {
          "internalType": "uint256",
          "name": "suitabilityWeight",
          "type": "uint256"
        },
        {
          "internalType": "uint256",
          "name": "transferCourseCoins",
          "type": "uint256"
        },
        {
          "internalType": "uint256",
          "name": "value",
          "type": "uint256"
        }
      ],
      "stateMutability": "view",
      "type": "function",
      "constant": true
    },
    {
      "inputs": [],
      "name": "totalWeight",
      "outputs": [
        {
          "internalType": "uint256",
          "name": "",
          "type": "uint256"
        }
      ],
      "stateMutability": "view",
      "type": "function",
      "constant": true
    },
    {
      "inputs": [],
      "name": "transferCourseEndTime",
      "outputs": [
        {
          "internalType": "uint256",
          "name": "",
          "type": "uint256"
        }
      ],
      "stateMutability": "view",
      "type": "function",
      "constant": true
    },
    {
      "inputs": [],
      "name": "transferCourseNumbers",
      "outputs": [
        {
          "internalType": "uint256",
          "name": "",
          "type": "uint256"
        }
      ],
      "stateMutability": "view",
      "type": "function",
      "constant": true
    },
    {
      "inputs": [],
      "name": "transferCourseStartTime",
      "outputs": [
        {
          "internalType": "uint256",
          "name": "",
          "type": "uint256"
        }
      ],
      "stateMutability": "view",
      "type": "function",
      "constant": true
    },
    {
      "inputs": [
        {
          "internalType": "address",
          "name": "teacherAddress",
          "type": "address"
        },
        {
          "internalType": "uint256",
          "name": "_TeacherId",
          "type": "uint256"
        }
      ],
      "name": "setTeacherId",
      "outputs": [],
      "stateMutability": "nonpayable",
      "type": "function"
    },
    {
      "inputs": [
        {
          "internalType": "uint256",
          "name": "teacherId",
          "type": "uint256"
        }
      ],
      "name": "removeTeacher",
      "outputs": [],
      "stateMutability": "nonpayable",
      "type": "function"
    },
    {
      "inputs": [
        {
          "internalType": "uint256",
          "name": "teacherId",
          "type": "uint256"
        },
        {
          "internalType": "string",
          "name": "_name",
          "type": "string"
        }
      ],
      "name": "setTeacherName",
      "outputs": [],
      "stateMutability": "nonpayable",
      "type": "function"
    },
    {
      "inputs": [
        {
          "internalType": "uint256",
          "name": "teacherId",
          "type": "uint256"
        },
        {
          "internalType": "address",
          "name": "_teacherAddress",
          "type": "address"
        }
      ],
      "name": "setTeacherAddress",
      "outputs": [],
      "stateMutability": "nonpayable",
      "type": "function"
    },
    {
      "inputs": [
        {
          "internalType": "uint256",
          "name": "teacherId",
          "type": "uint256"
        },
        {
          "internalType": "uint256",
          "name": "_assignedCourses",
          "type": "uint256"
        }
      ],
      "name": "addTeacherAssignedCourses",
      "outputs": [],
      "stateMutability": "nonpayable",
      "type": "function"
    },
    {
      "inputs": [
        {
          "internalType": "uint256",
          "name": "teacherId",
          "type": "uint256"
        },
        {
          "internalType": "uint256",
          "name": "_assignedCourses",
          "type": "uint256"
        }
      ],
      "name": "addTeacherReallyAssignedCourses",
      "outputs": [],
      "stateMutability": "nonpayable",
      "type": "function"
    },
    {
      "inputs": [
        {
          "internalType": "uint256",
          "name": "teacherId",
          "type": "uint256"
        },
        {
          "internalType": "uint256",
          "name": "_assignedCourses",
          "type": "uint256"
        }
      ],
      "name": "removeTeacherAssignedCourses",
      "outputs": [],
      "stateMutability": "nonpayable",
      "type": "function"
    },
    {
      "inputs": [
        {
          "internalType": "uint256",
          "name": "teacherId",
          "type": "uint256"
        },
        {
          "internalType": "uint256",
          "name": "_assignedCourses",
          "type": "uint256"
        }
      ],
      "name": "removeTeacherReallyAssignedCourses",
      "outputs": [],
      "stateMutability": "nonpayable",
      "type": "function"
    },
    {
      "inputs": [
        {
          "internalType": "uint256",
          "name": "teacherId",
          "type": "uint256"
        },
        {
          "internalType": "uint256",
          "name": "_suitabilityWeight",
          "type": "uint256"
        }
      ],
      "name": "setTeacherSuitabilityWeight",
      "outputs": [],
      "stateMutability": "nonpayable",
      "type": "function"
    },
    {
      "inputs": [
        {
          "internalType": "uint256",
          "name": "teacherId",
          "type": "uint256"
        },
        {
          "internalType": "uint256",
          "name": "_transferCourseCoins",
          "type": "uint256"
        }
      ],
      "name": "setTeacherTransferCourseCoins",
      "outputs": [],
      "stateMutability": "nonpayable",
      "type": "function"
    },
    {
      "inputs": [
        {
          "internalType": "uint256",
          "name": "teacherId",
          "type": "uint256"
        },
        {
          "internalType": "uint256",
          "name": "_value",
          "type": "uint256"
        }
      ],
      "name": "setTeacherValue",
      "outputs": [],
      "stateMutability": "nonpayable",
      "type": "function"
    },
    {
      "inputs": [
        {
          "internalType": "uint256",
          "name": "agentId",
          "type": "uint256"
        },
        {
          "internalType": "uint256",
          "name": "_value",
          "type": "uint256"
        }
      ],
      "name": "setAgentValue",
      "outputs": [],
      "stateMutability": "nonpayable",
      "type": "function"
    },
    {
      "inputs": [
        {
          "internalType": "uint256",
          "name": "teacherId",
          "type": "uint256"
        },
        {
          "internalType": "uint256[]",
          "name": "_suitabilities",
          "type": "uint256[]"
        }
      ],
      "name": "setAllTeacherCourseSuitability",
      "outputs": [],
      "stateMutability": "nonpayable",
      "type": "function"
    },
    {
      "inputs": [
        {
          "internalType": "uint256",
          "name": "teacherId",
          "type": "uint256"
        },
        {
          "internalType": "uint256",
          "name": "courseId",
          "type": "uint256"
        },
        {
          "internalType": "uint256",
          "name": "_suitability",
          "type": "uint256"
        }
      ],
      "name": "setTeacherCourseSuitability",
      "outputs": [],
      "stateMutability": "nonpayable",
      "type": "function"
    },
    {
      "inputs": [
        {
          "internalType": "uint256",
          "name": "teacherId",
          "type": "uint256"
        },
        {
          "internalType": "uint256[]",
          "name": "_preferences",
          "type": "uint256[]"
        }
      ],
      "name": "setAllTeacherCoursePreferences",
      "outputs": [],
      "stateMutability": "nonpayable",
      "type": "function"
    },
    {
      "inputs": [
        {
          "internalType": "uint256",
          "name": "teacherId",
          "type": "uint256"
        },
        {
          "internalType": "uint256",
          "name": "courseId",
          "type": "uint256"
        },
        {
          "internalType": "uint256",
          "name": "_preference",
          "type": "uint256"
        }
      ],
      "name": "setTeacherCoursePreferences",
      "outputs": [],
      "stateMutability": "nonpayable",
      "type": "function"
    },
    {
      "inputs": [
        {
          "internalType": "address",
          "name": "agentAddress",
          "type": "address"
        },
        {
          "internalType": "uint256",
          "name": "_agentId",
          "type": "uint256"
        }
      ],
      "name": "setAgentId",
      "outputs": [],
      "stateMutability": "nonpayable",
      "type": "function"
    },
    {
      "inputs": [
        {
          "internalType": "uint256",
          "name": "agentId",
          "type": "uint256"
        }
      ],
      "name": "removeAgent",
      "outputs": [],
      "stateMutability": "nonpayable",
      "type": "function"
    },
    {
      "inputs": [
        {
          "internalType": "uint256",
          "name": "agentId",
          "type": "uint256"
        },
        {
          "internalType": "string",
          "name": "_name",
          "type": "string"
        }
      ],
      "name": "setAgentName",
      "outputs": [],
      "stateMutability": "nonpayable",
      "type": "function"
    },
    {
      "inputs": [
        {
          "internalType": "uint256",
          "name": "agentId",
          "type": "uint256"
        },
        {
          "internalType": "address",
          "name": "_agentAddress",
          "type": "address"
        }
      ],
      "name": "setAgentAddress",
      "outputs": [],
      "stateMutability": "nonpayable",
      "type": "function"
    },
    {
      "inputs": [
        {
          "internalType": "uint256",
          "name": "agentId",
          "type": "uint256"
        },
        {
          "internalType": "uint256",
          "name": "_assignedCourses",
          "type": "uint256"
        }
      ],
      "name": "addAgentAssignedCourses",
      "outputs": [],
      "stateMutability": "nonpayable",
      "type": "function"
    },
    {
      "inputs": [
        {
          "internalType": "uint256",
          "name": "agentId",
          "type": "uint256"
        },
        {
          "internalType": "uint256",
          "name": "_assignedCourses",
          "type": "uint256"
        }
      ],
      "name": "removeAgentAssignedCourses",
      "outputs": [],
      "stateMutability": "nonpayable",
      "type": "function"
    },
    {
      "inputs": [
        {
          "internalType": "uint256",
          "name": "agentId",
          "type": "uint256"
        },
        {
          "internalType": "uint256",
          "name": "_courseId",
          "type": "uint256"
        },
        {
          "internalType": "uint256",
          "name": "_suitability",
          "type": "uint256"
        }
      ],
      "name": "setAgentCourseSuitability",
      "outputs": [],
      "stateMutability": "nonpayable",
      "type": "function"
    },
    {
      "inputs": [
        {
          "internalType": "uint256",
          "name": "agentId",
          "type": "uint256"
        },
        {
          "internalType": "uint256[]",
          "name": "_suitabilities",
          "type": "uint256[]"
        }
      ],
      "name": "setAllAgentCourseSuitability",
      "outputs": [],
      "stateMutability": "nonpayable",
      "type": "function"
    },
    {
      "inputs": [
        {
          "internalType": "address",
          "name": "classAddress",
          "type": "address"
        },
        {
          "internalType": "uint256",
          "name": "_id",
          "type": "uint256"
        }
      ],
      "name": "setClassId",
      "outputs": [],
      "stateMutability": "nonpayable",
      "type": "function"
    },
    {
      "inputs": [
        {
          "internalType": "uint256",
          "name": "classId",
          "type": "uint256"
        }
      ],
      "name": "removeClass",
      "outputs": [],
      "stateMutability": "nonpayable",
      "type": "function"
    },
    {
      "inputs": [
        {
          "internalType": "uint256",
          "name": "courseId",
          "type": "uint256"
        }
      ],
      "name": "setCourseId",
      "outputs": [],
      "stateMutability": "nonpayable",
      "type": "function"
    },
    {
      "inputs": [
        {
          "internalType": "uint256",
          "name": "courseId",
          "type": "uint256"
        }
      ],
      "name": "removeCourse",
      "outputs": [],
      "stateMutability": "nonpayable",
      "type": "function"
    },
    {
      "inputs": [
        {
          "internalType": "uint256",
          "name": "courseId",
          "type": "uint256"
        },
        {
          "internalType": "string",
          "name": "_name",
          "type": "string"
        }
      ],
      "name": "setCourseName",
      "outputs": [],
      "stateMutability": "nonpayable",
      "type": "function"
    },
    {
      "inputs": [
        {
          "internalType": "uint256",
          "name": "courseId",
          "type": "uint256"
        },
        {
          "internalType": "uint256",
          "name": "_importance",
          "type": "uint256"
        }
      ],
      "name": "setCourseImportance",
      "outputs": [],
      "stateMutability": "nonpayable",
      "type": "function"
    },
    {
      "inputs": [
        {
          "internalType": "uint256[]",
          "name": "_importances",
          "type": "uint256[]"
        }
      ],
      "name": "setAllCourseImportance",
      "outputs": [],
      "stateMutability": "nonpayable",
      "type": "function"
    },
    {
      "inputs": [
        {
          "internalType": "uint256",
          "name": "courseId",
          "type": "uint256"
        },
        {
          "internalType": "uint256",
          "name": "_teacherId",
          "type": "uint256"
        }
      ],
      "name": "addCourseAssignedTeacherId",
      "outputs": [],
      "stateMutability": "nonpayable",
      "type": "function"
    },
    {
      "inputs": [
        {
          "internalType": "uint256",
          "name": "courseId",
          "type": "uint256"
        },
        {
          "internalType": "uint256",
          "name": "_agentId",
          "type": "uint256"
        }
      ],
      "name": "addCourseAssignedAgentId",
      "outputs": [],
      "stateMutability": "nonpayable",
      "type": "function"
    },
    {
      "inputs": [
        {
          "internalType": "uint256",
          "name": "courseId",
          "type": "uint256"
        },
        {
          "internalType": "uint256",
          "name": "_teacherId",
          "type": "uint256"
        }
      ],
      "name": "removeCourseAssignedTeacherId",
      "outputs": [],
      "stateMutability": "nonpayable",
      "type": "function"
    },
    {
      "inputs": [
        {
          "internalType": "uint256",
          "name": "courseId",
          "type": "uint256"
        },
        {
          "internalType": "uint256",
          "name": "_agentId",
          "type": "uint256"
        }
      ],
      "name": "removeCourseAssignedAgentId",
      "outputs": [],
      "stateMutability": "nonpayable",
      "type": "function"
    },
    {
      "inputs": [
        {
          "internalType": "uint256",
          "name": "courseId",
          "type": "uint256"
        },
        {
          "internalType": "bool",
          "name": "_isAgentSuitable",
          "type": "bool"
        }
      ],
      "name": "setCourseIsAgentSuitable",
      "outputs": [],
      "stateMutability": "nonpayable",
      "type": "function"
    },
    {
      "inputs": [
        {
          "internalType": "uint256",
          "name": "_teacherCount",
          "type": "uint256"
        }
      ],
      "name": "setTeacherCount",
      "outputs": [],
      "stateMutability": "nonpayable",
      "type": "function"
    },
    {
      "inputs": [
        {
          "internalType": "uint256",
          "name": "_agentCount",
          "type": "uint256"
        }
      ],
      "name": "setAgentCount",
      "outputs": [],
      "stateMutability": "nonpayable",
      "type": "function"
    },
    {
      "inputs": [
        {
          "internalType": "uint256",
          "name": "_classCount",
          "type": "uint256"
        }
      ],
      "name": "setClassCount",
      "outputs": [],
      "stateMutability": "nonpayable",
      "type": "function"
    },
    {
      "inputs": [
        {
          "internalType": "uint256",
          "name": "_courseCount",
          "type": "uint256"
        }
      ],
      "name": "setCourseCount",
      "outputs": [],
      "stateMutability": "nonpayable",
      "type": "function"
    },
    {
      "inputs": [
        {
          "internalType": "uint256",
          "name": "_teacherId",
          "type": "uint256"
        },
        {
          "internalType": "uint256",
          "name": "courseId",
          "type": "uint256"
        }
      ],
      "name": "getTeacherSuitability",
      "outputs": [
        {
          "internalType": "uint256",
          "name": "",
          "type": "uint256"
        }
      ],
      "stateMutability": "view",
      "type": "function",
      "constant": true
    },
    {
      "inputs": [
        {
          "internalType": "uint256",
          "name": "_agentId",
          "type": "uint256"
        },
        {
          "internalType": "uint256",
          "name": "courseId",
          "type": "uint256"
        }
      ],
      "name": "getAgentSuitability",
      "outputs": [
        {
          "internalType": "uint256",
          "name": "",
          "type": "uint256"
        }
      ],
      "stateMutability": "view",
      "type": "function",
      "constant": true
    },
    {
      "inputs": [
        {
          "internalType": "uint256",
          "name": "_teacherId",
          "type": "uint256"
        },
        {
          "internalType": "uint256",
          "name": "courseId",
          "type": "uint256"
        }
      ],
      "name": "getPreference",
      "outputs": [
        {
          "internalType": "uint256",
          "name": "",
          "type": "uint256"
        }
      ],
      "stateMutability": "view",
      "type": "function",
      "constant": true
    },
    {
      "inputs": [
        {
          "internalType": "uint256",
          "name": "_teacherId",
          "type": "uint256"
        }
      ],
      "name": "getTeacherAssignedCourses",
      "outputs": [
        {
          "internalType": "uint256[]",
          "name": "",
          "type": "uint256[]"
        }
      ],
      "stateMutability": "view",
      "type": "function",
      "constant": true
    },
    {
      "inputs": [
        {
          "internalType": "uint256",
          "name": "_teacherId",
          "type": "uint256"
        }
      ],
      "name": "getTeacherReallyAssignedCourses",
      "outputs": [
        {
          "internalType": "uint256[]",
          "name": "",
          "type": "uint256[]"
        }
      ],
      "stateMutability": "view",
      "type": "function",
      "constant": true
    },
    {
      "inputs": [
        {
          "internalType": "uint256",
          "name": "_agentId",
          "type": "uint256"
        }
      ],
      "name": "getAgentAssignedCourses",
      "outputs": [
        {
          "internalType": "uint256[]",
          "name": "",
          "type": "uint256[]"
        }
      ],
      "stateMutability": "view",
      "type": "function",
      "constant": true
    },
    {
      "inputs": [
        {
          "internalType": "uint256",
          "name": "_courseId",
          "type": "uint256"
        }
      ],
      "name": "getCoursesAssignedTeacher",
      "outputs": [
        {
          "internalType": "uint256[]",
          "name": "",
          "type": "uint256[]"
        }
      ],
      "stateMutability": "view",
      "type": "function",
      "constant": true
    },
    {
      "inputs": [
        {
          "internalType": "uint256",
          "name": "_courseId",
          "type": "uint256"
        }
      ],
      "name": "getCoursesAssignedAgent",
      "outputs": [
        {
          "internalType": "uint256[]",
          "name": "",
          "type": "uint256[]"
        }
      ],
      "stateMutability": "view",
      "type": "function",
      "constant": true
    },
    {
      "inputs": [
        {
          "internalType": "uint256",
          "name": "courseId",
          "type": "uint256"
        }
      ],
      "name": "getCourseImportance",
      "outputs": [
        {
          "internalType": "uint256",
          "name": "",
          "type": "uint256"
        }
      ],
      "stateMutability": "view",
      "type": "function",
      "constant": true
    },
    {
      "inputs": [
        {
          "internalType": "uint256",
          "name": "courseId",
          "type": "uint256"
        }
      ],
      "name": "getCourseIsAgentSuitable",
      "outputs": [
        {
          "internalType": "bool",
          "name": "",
          "type": "bool"
        }
      ],
      "stateMutability": "view",
      "type": "function",
      "constant": true
    },
    {
      "inputs": [],
      "name": "getTeacherIds",
      "outputs": [
        {
          "internalType": "uint256[]",
          "name": "",
          "type": "uint256[]"
        }
      ],
      "stateMutability": "view",
      "type": "function",
      "constant": true
    },
    {
      "inputs": [],
      "name": "getAgentIds",
      "outputs": [
        {
          "internalType": "uint256[]",
          "name": "",
          "type": "uint256[]"
        }
      ],
      "stateMutability": "view",
      "type": "function",
      "constant": true
    },
    {
      "inputs": [],
      "name": "getCourseIds",
      "outputs": [
        {
          "internalType": "uint256[]",
          "name": "",
          "type": "uint256[]"
        }
      ],
      "stateMutability": "view",
      "type": "function",
      "constant": true
    },
    {
      "inputs": [],
      "name": "getClassIds",
      "outputs": [
        {
          "internalType": "uint256[]",
          "name": "",
          "type": "uint256[]"
        }
      ],
      "stateMutability": "view",
      "type": "function",
      "constant": true
    },
    {
      "inputs": [
        {
          "internalType": "uint256",
          "name": "courseId",
          "type": "uint256"
        },
        {
          "internalType": "uint256",
          "name": "classId",
          "type": "uint256"
        },
        {
          "internalType": "uint256",
          "name": "score",
          "type": "uint256"
        }
      ],
      "name": "addCourseClassScores",
      "outputs": [],
      "stateMutability": "nonpayable",
      "type": "function"
    },
    {
      "inputs": [
        {
          "internalType": "uint256",
          "name": "courseId",
          "type": "uint256"
        },
        {
          "internalType": "uint256",
          "name": "classId",
          "type": "uint256"
        }
      ],
      "name": "getGiveScoreClassIdExists",
      "outputs": [
        {
          "internalType": "uint256",
          "name": "",
          "type": "uint256"
        }
      ],
      "stateMutability": "view",
      "type": "function",
      "constant": true
    },
    {
      "inputs": [
        {
          "internalType": "uint256",
          "name": "courseId",
          "type": "uint256"
        },
        {
          "internalType": "uint256[]",
          "name": "classIds_",
          "type": "uint256[]"
        }
      ],
      "name": "removeCourseClassScores",
      "outputs": [],
      "stateMutability": "nonpayable",
      "type": "function"
    },
    {
      "inputs": [
        {
          "internalType": "uint256",
          "name": "courseId",
          "type": "uint256"
        }
      ],
      "name": "getCourseClassScores",
      "outputs": [
        {
          "internalType": "uint256[]",
          "name": "",
          "type": "uint256[]"
        }
      ],
      "stateMutability": "view",
      "type": "function",
      "constant": true
    },
    {
      "inputs": [
        {
          "internalType": "uint256",
          "name": "courseId",
          "type": "uint256"
        },
        {
          "internalType": "uint256",
          "name": "score",
          "type": "uint256"
        }
      ],
      "name": "setCourseSelfScore",
      "outputs": [],
      "stateMutability": "nonpayable",
      "type": "function"
    },
    {
      "inputs": [
        {
          "internalType": "uint256",
          "name": "courseId",
          "type": "uint256"
        },
        {
          "internalType": "uint256",
          "name": "score",
          "type": "uint256"
        }
      ],
      "name": "setCourseTotalScore",
      "outputs": [],
      "stateMutability": "nonpayable",
      "type": "function"
    },
    {
      "inputs": [
        {
          "internalType": "uint256",
          "name": "courseId",
          "type": "uint256"
        },
        {
          "internalType": "uint256",
          "name": "supervisorId",
          "type": "uint256"
        },
        {
          "internalType": "uint256",
          "name": "score",
          "type": "uint256"
        }
      ],
      "name": "addCourseSupervisorScores",
      "outputs": [],
      "stateMutability": "nonpayable",
      "type": "function"
    },
    {
      "inputs": [
        {
          "internalType": "uint256",
          "name": "courseId",
          "type": "uint256"
        },
        {
          "internalType": "uint256",
          "name": "supervisorId",
          "type": "uint256"
        }
      ],
      "name": "getGiveScoreSupervisorIdExists",
      "outputs": [
        {
          "internalType": "uint256",
          "name": "",
          "type": "uint256"
        }
      ],
      "stateMutability": "view",
      "type": "function",
      "constant": true
    },
    {
      "inputs": [
        {
          "internalType": "uint256",
          "name": "courseId",
          "type": "uint256"
        }
      ],
      "name": "getCourseSupervisorScores",
      "outputs": [
        {
          "internalType": "uint256[]",
          "name": "",
          "type": "uint256[]"
        }
      ],
      "stateMutability": "view",
      "type": "function",
      "constant": true
    },
    {
      "inputs": [
        {
          "internalType": "uint256",
          "name": "supervisorId",
          "type": "uint256"
        }
      ],
      "name": "addSupervisorId",
      "outputs": [],
      "stateMutability": "nonpayable",
      "type": "function"
    },
    {
      "inputs": [],
      "name": "getSupervisorIds",
      "outputs": [
        {
          "internalType": "uint256[]",
          "name": "",
          "type": "uint256[]"
        }
      ],
      "stateMutability": "view",
      "type": "function",
      "constant": true
    },
    {
      "inputs": [
        {
          "internalType": "address",
          "name": "supervisor",
          "type": "address"
        },
        {
          "internalType": "uint256",
          "name": "supervisorId",
          "type": "uint256"
        }
      ],
      "name": "setSupervisorId",
      "outputs": [],
      "stateMutability": "nonpayable",
      "type": "function"
    },
    {
      "inputs": [
        {
          "internalType": "uint256",
          "name": "supervisorId",
          "type": "uint256"
        },
        {
          "internalType": "string",
          "name": "_name",
          "type": "string"
        }
      ],
      "name": "setSupervisorName",
      "outputs": [],
      "stateMutability": "nonpayable",
      "type": "function"
    },
    {
      "inputs": [
        {
          "internalType": "uint256",
          "name": "supervisorId",
          "type": "uint256"
        },
        {
          "internalType": "uint256",
          "name": "courseId",
          "type": "uint256"
        },
        {
          "internalType": "uint256",
          "name": "score",
          "type": "uint256"
        }
      ],
      "name": "setSupervisorsCourseScore",
      "outputs": [],
      "stateMutability": "nonpayable",
      "type": "function"
    },
    {
      "inputs": [
        {
          "internalType": "uint256",
          "name": "_transferCourseNumbers",
          "type": "uint256"
        }
      ],
      "name": "settransferCourseNumbers",
      "outputs": [],
      "stateMutability": "nonpayable",
      "type": "function"
    },
    {
      "inputs": [
        {
          "internalType": "uint256",
          "name": "_transferCourseStartTime",
          "type": "uint256"
        }
      ],
      "name": "settransferCourseStartTime",
      "outputs": [],
      "stateMutability": "nonpayable",
      "type": "function"
    },
    {
      "inputs": [
        {
          "internalType": "uint256",
          "name": "_transferCourseEndTime",
          "type": "uint256"
        }
      ],
      "name": "settransferCourseEndTime",
      "outputs": [],
      "stateMutability": "nonpayable",
      "type": "function"
    }
  ],
  "bytecode": "0x608060405234801561001057600080fd5b506149ec806100206000396000f3fe608060405234801561001057600080fd5b506004361061051a5760003560e01c8063951d5fee116102a4578063ce64bf9b11610172578063e637812f116100d9578063ee196ee211610092578063ee196ee214611118578063f0f2efd814611134578063f31e149414611150578063fa8f084d1461116c578063fc09e9d01461118a578063fc2ddca5146111a65761051a565b8063e637812f1461101e578063e7fa45571461103a578063e8a2dc2f14611056578063e906165714611086578063ebacebe4146110b6578063ebd1aac6146110e65761051a565b8063deb9f76a1161012b578063deb9f76a14610f62578063df3addfa14610f7e578063e204b10214610f9a578063e20b340514610fb6578063e40af03614610fd2578063e52505d814610fee5761051a565b8063ce64bf9b14610e56578063d4e57ff014610e86578063d95a61d514610eb6578063d96ce73f14610ee6578063dcfa705714610f16578063dd03576514610f465761051a565b8063ad3a6ad411610216578063bca24bd4116101cf578063bca24bd414610d9a578063bd1602d114610dca578063bfb9d44c14610de6578063c318fe5f14610e02578063cb85404514610e1e578063cddd6c6314610e3a5761051a565b8063ad3a6ad414610cee578063b150876014610d0a578063b373a43414610d28578063b4da858414610d44578063b7dc128414610d60578063bb69df7214610d7e5761051a565b80639e122377116102685780639e12237714610c42578063a549e41614610c5e578063a7ab847214610c7a578063aaa4b24e14610c96578063ab7cee7714610cb2578063ab99631714610cd05761051a565b8063951d5fee14610b8757806396c82e5714610ba557806396f979d214610bc35780639709ee0114610bf657806397e92d5214610c265761051a565b80635e383d46116103ec57806372c30f4511610353578063851580a71161030c578063851580a714610a8f57806386875ea814610abf5780638b27e55214610adb5780638bbb3be114610b0b57806391c89deb14610b275780639476cf9b14610b575761051a565b806372c30f45146109955780637ce28bac146109b15780637fa7e04d146109e3578063827e5731146109ff57806382ff0a5a14610a2f5780638377b69014610a5f5761051a565b80636d889f84116103a55780636d889f84146108d95780636e428d2d146108f55780636e9b0f8f146109115780636fcf4f9614610941578063700ed28b1461095d57806372ab4e96146109795761051a565b80635e383d461461082f5780635f63efe21461084b578063643d172c1461086757806366055159146108835780636798bad9146108a15780636b792cc8146108bd5761051a565b80633abdb63d116104905780634d652350116104495780634d65235014610746578063513856c81461076457806356e76058146107975780635953faff146107c75780635a47fb8d146107e35780635ca24db0146107ff5761051a565b80633abdb63d1461068857806345073d5c146106a457806346be3136146106c0578063494e2371146106de5780634b974df71461070e5780634d27e9121461072a5761051a565b80631928f3bc116104e25780631928f3bc146105c35780631dd86f90146105e15780631fe76a6c146105fd5780632359b7b8146106195780632b0816ac1461063757806334ac0b40146106535761051a565b8063034f578e1461051f57806308a2037f1461053d5780630f7f13cf146105595780630fa1c2711461058957806318860d37146105a5575b600080fd5b6105276111c2565b604051610534919061424c565b60405180910390f35b61055760048036038101906105529190613e5c565b6111c8565b005b610573600480360381019061056e9190613c3d565b6111f3565b604051610580919061424c565b60405180910390f35b6105a3600480360381019061059e9190613ebc565b61120b565b005b6105ad61124c565b6040516105ba919061412f565b60405180910390f35b6105cb6112a4565b6040516105d8919061424c565b60405180910390f35b6105fb60048036038101906105f69190613efc565b6112aa565b005b61061760048036038101906106129190613efc565b61135e565b005b61062161138f565b60405161062e919061412f565b60405180910390f35b610651600480360381019061064c9190613cf3565b6113e7565b005b61066d60048036038101906106689190613cf3565b61142e565b60405161067f969594939291906142f1565b60405180910390f35b6106a2600480360381019061069d9190613cf3565b611512565b005b6106be60048036038101906106b99190613dc0565b6115fa565b005b6106c8611687565b6040516106d5919061424c565b60405180910390f35b6106f860048036038101906106f39190613cf3565b61168d565b604051610705919061424c565b60405180910390f35b61072860048036038101906107239190613ebc565b6116b1565b005b610744600480360381019061073f9190613efc565b61184b565b005b61074e61187c565b60405161075b919061412f565b60405180910390f35b61077e60048036038101906107799190613cf3565b6118d4565b60405161078e94939291906142a5565b60405180910390f35b6107b160048036038101906107ac9190613cf3565b6119ac565b6040516107be919061424c565b60405180910390f35b6107e160048036038101906107dc9190613caa565b6119d0565b005b6107fd60048036038101906107f89190613ebc565b611a92565b005b61081960048036038101906108149190613cf3565b611ab1565b604051610826919061412f565b60405180910390f35b61084960048036038101906108449190613c6a565b611b1f565b005b61086560048036038101906108609190613cf3565b611b90565b005b610881600480360381019061087c9190613cf3565b611b9a565b005b61088b611bde565b604051610898919061424c565b60405180910390f35b6108bb60048036038101906108b69190613cf3565b611be4565b005b6108d760048036038101906108d29190613cf3565b611bee565b005b6108f360048036038101906108ee9190613efc565b611bf8565b005b61090f600480360381019061090a9190613ebc565b611cd0565b005b61092b60048036038101906109269190613cf3565b611e6a565b604051610938919061424c565b60405180910390f35b61095b60048036038101906109569190613cf3565b611e8a565b005b61097760048036038101906109729190613ebc565b611ff5565b005b610993600480360381019061098e9190613ebc565b612036565b005b6109af60048036038101906109aa9190613cf3565b612077565b005b6109cb60048036038101906109c69190613cf3565b612143565b6040516109da93929190614267565b60405180910390f35b6109fd60048036038101906109f89190613e5c565b612215565b005b610a196004803603810190610a149190613cf3565b612240565b604051610a26919061412f565b60405180910390f35b610a496004803603810190610a449190613cf3565b6122ae565b604051610a56919061412f565b60405180910390f35b610a796004803603810190610a749190613ebc565b61231c565b604051610a86919061424c565b60405180910390f35b610aa96004803603810190610aa49190613ebc565b61234e565b604051610ab6919061424c565b60405180910390f35b610ad96004803603810190610ad49190613ebc565b612380565b005b610af56004803603810190610af09190613cf3565b61251a565b604051610b029190614151565b60405180910390f35b610b256004803603810190610b209190613c6a565b612547565b005b610b416004803603810190610b3c9190613cf3565b6125ff565b604051610b4e919061412f565b60405180910390f35b610b716004803603810190610b6c9190613cf3565b61266d565b604051610b7e919061424c565b60405180910390f35b610b8f612691565b604051610b9c919061424c565b60405180910390f35b610bad612697565b604051610bba919061424c565b60405180910390f35b610bdd6004803603810190610bd89190613cf3565b61269d565b604051610bed9493929190614359565b60405180910390f35b610c106004803603810190610c0b9190613ebc565b612762565b604051610c1d919061424c565b60405180910390f35b610c406004803603810190610c3b9190613d60565b612794565b005b610c5c6004803603810190610c579190613e5c565b6128ed565b005b610c786004803603810190610c739190613c6a565b612918565b005b610c946004803603810190610c8f9190613e5c565b6129a4565b005b610cb06004803603810190610cab9190613ebc565b612a52565b005b610cba612a71565b604051610cc7919061424c565b60405180910390f35b610cd8612a77565b604051610ce5919061424c565b60405180910390f35b610d086004803603810190610d039190613d60565b612a7d565b005b610d12612bd6565b604051610d1f919061412f565b60405180910390f35b610d426004803603810190610d3d9190613cf3565b612c2e565b005b610d5e6004803603810190610d599190613ebc565b612c38565b005b610d68612cda565b604051610d75919061424c565b60405180910390f35b610d986004803603810190610d939190613ebc565b612ce0565b005b610db46004803603810190610daf9190613cf3565b612dde565b604051610dc1919061424c565b60405180910390f35b610de46004803603810190610ddf9190613cf3565b612e02565b005b610e006004803603810190610dfb9190613c6a565b612e0c565b005b610e1c6004803603810190610e179190613d20565b612e98565b005b610e386004803603810190610e339190613e1c565b612f74565b005b610e546004803603810190610e4f9190613d20565b612fa6565b005b610e706004803603810190610e6b9190613cf3565b612fff565b604051610e7d919061412f565b60405180910390f35b610ea06004803603810190610e9b9190613c3d565b61306d565b604051610ead919061424c565b60405180910390f35b610ed06004803603810190610ecb9190613c3d565b613085565b604051610edd919061424c565b60405180910390f35b610f006004803603810190610efb9190613cf3565b61309d565b604051610f0d919061412f565b60405180910390f35b610f306004803603810190610f2b9190613cf3565b61310b565b604051610f3d919061424c565b60405180910390f35b610f606004803603810190610f5b9190613cf3565b61312f565b005b610f7c6004803603810190610f779190613cf3565b613139565b005b610f986004803603810190610f939190613cf3565b613143565b005b610fb46004803603810190610faf9190613ebc565b61320f565b005b610fd06004803603810190610fcb9190613ebc565b61322e565b005b610fec6004803603810190610fe79190613ebc565b6132d0565b005b61100860048036038101906110039190613cf3565b61346a565b604051611015919061412f565b60405180910390f35b61103860048036038101906110339190613ebc565b6134d8565b005b611054600480360381019061104f9190613ebc565b613519565b005b611070600480360381019061106b9190613ebc565b6136b3565b60405161107d919061424c565b60405180910390f35b6110a0600480360381019061109b9190613ebc565b6136e5565b6040516110ad919061424c565b60405180910390f35b6110d060048036038101906110cb9190613c3d565b613717565b6040516110dd919061424c565b60405180910390f35b61110060048036038101906110fb9190613cf3565b61372f565b60405161110f939291906143a5565b60405180910390f35b611132600480360381019061112d9190613ebc565b613759565b005b61114e60048036038101906111499190613d60565b613778565b005b61116a60048036038101906111659190613efc565b61384e565b005b611174613926565b604051611181919061412f565b60405180910390f35b6111a4600480360381019061119f9190613ebc565b61397e565b005b6111c060048036038101906111bb9190613efc565b6139bf565b005b60165481565b81816007600086815260200190815260200160002060010191906111ed9291906139f0565b50505050565b60016020528060005260406000206000915090505481565b600860008381526020019081526020016000206003018190806001815401808255809150506001900390600052602060002001600090919091909150555050565b6060601280548060200260200160405190810160405280929190818152602001828054801561129a57602002820191906000526020600020905b815481526020019060010190808311611286575b5050505050905090565b60155481565b6000600160003373ffffffffffffffffffffffffffffffffffffffff1673ffffffffffffffffffffffffffffffffffffffff16815260200190815260200160002054141561132d576040517f08c379a00000000000000000000000000000000000000000000000000000000081526004016113249061420c565b60405180910390fd5b8060056000858152602001908152602001600020600901600084815260200190815260200160002081905550505050565b8060056000858152602001908152602001600020600801600084815260200190815260200160002081905550505050565b606060118054806020026020016040519081016040528092919081815260200182805480156113dd57602002820191906000526020600020905b8154815260200190600101908083116113c9575b5050505050905090565b806008600083815260200190815260200160002060000181905550601181908060018154018082558091505060019003906000526020600020016000909190919091505550565b600560205280600052604060002060009150905080600001549080600101805461145790614587565b80601f016020809104026020016040519081016040528092919081815260200182805461148390614587565b80156114d05780601f106114a5576101008083540402835291602001916114d0565b820191906000526020600020905b8154815290600101906020018083116114b357829003601f168201915b5050505050908060020160009054906101000a900473ffffffffffffffffffffffffffffffffffffffff16908060050154908060060154908060070154905086565b6000600660008381526020019081526020016000206000018190555060005b6010805490508110156115f6578160108281548110611553576115526146c0565b5b906000526020600020015414156115e3576010600160108054905061157891906144d8565b81548110611589576115886146c0565b5b9060005260206000200154601082815481106115a8576115a76146c0565b5b906000526020600020018190555060108054806115c8576115c7614691565b5b600190038181906000526020600020016000905590556115f6565b80806115ee906145ea565b915050611531565b5050565b60005b8151811015611660576000600960008581526020019081526020016000206003016000848481518110611633576116326146c0565b5b60200260200101518152602001908152602001600020819055508080611658906145ea565b9150506115fd565b506009600083815260200190815260200160002060020160006116839190613a76565b5050565b600a5481565b6011818154811061169d57600080fd5b906000526020600020016000915090505481565b60008080600090505b60056000868152602001908152602001600020600301805490508110156117345783600560008781526020019081526020016000206003018281548110611704576117036146c0565b5b906000526020600020015414156117215760019250809150611734565b808061172c906145ea565b9150506116ba565b50811561180a57600560008581526020019081526020016000206003016001600560008781526020019081526020016000206003018054905061177791906144d8565b81548110611788576117876146c0565b5b90600052602060002001546005600086815260200190815260200160002060030182815481106117bb576117ba6146c0565b5b9060005260206000200181905550600560008581526020019081526020016000206003018054806117ef576117ee614691565b5b60019003818190600052602060002001600090559055611845565b6040517f08c379a000000000000000000000000000000000000000000000000000000000815260040161183c906141ac565b60405180910390fd5b50505050565b8060066000858152602001908152602001600020600501600084815260200190815260200160002081905550505050565b6060600f8054806020026020016040519081016040528092919081815260200182805480156118ca57602002820191906000526020600020905b8154815260200190600101908083116118b6575b5050505050905090565b60066020528060005260406000206000915090508060000154908060010180546118fd90614587565b80601f016020809104026020016040519081016040528092919081815260200182805461192990614587565b80156119765780601f1061194b57610100808354040283529160200191611976565b820191906000526020600020905b81548152906001019060200180831161195957829003601f168201915b5050505050908060020160009054906101000a900473ffffffffffffffffffffffffffffffffffffffff16908060030154905084565b601081815481106119bc57600080fd5b906000526020600020016000915090505481565b601180549050815114611a18576040517f08c379a0000000000000000000000000000000000000000000000000000000008152600401611a0f906141cc565b60405180910390fd5b60005b601180549050811015611a8e57818181518110611a3b57611a3a6146c0565b5b60200260200101516008600060118481548110611a5b57611a5a6146c0565b5b90600052602060002001548152602001908152602001600020600201819055508080611a86906145ea565b915050611a1b565b5050565b8060096000848152602001908152602001600020600401819055505050565b606060096000838152602001908152602001600020600201805480602002602001604051908101604052809291908181526020018280548015611b1357602002820191906000526020600020905b815481526020019060010190808311611aff575b50505050509050919050565b80600360008473ffffffffffffffffffffffffffffffffffffffff1673ffffffffffffffffffffffffffffffffffffffff1681526020019081526020016000208190555060128190806001815401808255809150506001900390600052602060002001600090919091909150555050565b8060158190555050565b6013819080600181540180825580915050600190039060005260206000200160009091909190915055600e6000815480929190611bd6906145ea565b919050555050565b600d5481565b80600a8190555050565b8060148190555050565b60006009600085815260200190815260200160002060030160008481526020019081526020016000205414611c62576040517f08c379a0000000000000000000000000000000000000000000000000000000008152600401611c599061418c565b60405180910390fd5b806009600085815260200190815260200160002060030160008481526020019081526020016000208190555060096000848152602001908152602001600020600201819080600181540180825580915050600190039060005260206000200160009091909190915055505050565b60008080600090505b6008600086815260200190815260200160002060030180549050811015611d535783600860008781526020019081526020016000206003018281548110611d2357611d226146c0565b5b90600052602060002001541415611d405760019250809150611d53565b8080611d4b906145ea565b915050611cd9565b508115611e29576008600085815260200190815260200160002060030160016008600087815260200190815260200160002060030180549050611d9691906144d8565b81548110611da757611da66146c0565b5b9060005260206000200154600860008681526020019081526020016000206003018281548110611dda57611dd96146c0565b5b906000526020600020018190555060086000858152602001908152602001600020600301805480611e0e57611e0d614691565b5b60019003818190600052602060002001600090559055611e64565b6040517f08c379a0000000000000000000000000000000000000000000000000000000008152600401611e5b906141ac565b60405180910390fd5b50505050565b600060086000838152602001908152602001600020600201549050919050565b6000600160003373ffffffffffffffffffffffffffffffffffffffff1673ffffffffffffffffffffffffffffffffffffffff168152602001908152602001600020541415611f0d576040517f08c379a0000000000000000000000000000000000000000000000000000000008152600401611f049061420c565b60405180910390fd5b6000600560008381526020019081526020016000206000018190555060005b600f80549050811015611ff15781600f8281548110611f4e57611f4d6146c0565b5b90600052602060002001541415611fde57600f6001600f80549050611f7391906144d8565b81548110611f8457611f836146c0565b5b9060005260206000200154600f8281548110611fa357611fa26146c0565b5b9060005260206000200181905550600f805480611fc357611fc2614691565b5b60019003818190600052602060002001600090559055611ff1565b8080611fe9906145ea565b915050611f2c565b5050565b600560008381526020019081526020016000206003018190806001815401808255809150506001900390600052602060002001600090919091909150555050565b600660008381526020019081526020016000206004018190806001815401808255809150506001900390600052602060002001600090919091909150555050565b60005b60128054905081101561213f57816012828154811061209c5761209b6146c0565b5b9060005260206000200154141561212c57601260016012805490506120c191906144d8565b815481106120d2576120d16146c0565b5b9060005260206000200154601282815481106120f1576120f06146c0565b5b9060005260206000200181905550601280548061211157612110614691565b5b6001900381819060005260206000200160009055905561213f565b8080612137906145ea565b91505061207a565b5050565b600760205280600052604060002060009150905080600001549080600101805461216c90614587565b80601f016020809104026020016040519081016040528092919081815260200182805461219890614587565b80156121e55780601f106121ba576101008083540402835291602001916121e5565b820191906000526020600020905b8154815290600101906020018083116121c857829003601f168201915b5050505050908060020160009054906101000a900473ffffffffffffffffffffffffffffffffffffffff16905083565b818160066000868152602001908152602001600020600101919061223a9291906139f0565b50505050565b6060600560008381526020019081526020016000206004018054806020026020016040519081016040528092919081815260200182805480156122a257602002820191906000526020600020905b81548152602001906001019080831161228e575b50505050509050919050565b60606008600083815260200190815260200160002060030180548060200260200160405190810160405280929190818152602001828054801561231057602002820191906000526020600020905b8154815260200190600101908083116122fc575b50505050509050919050565b600060096000848152602001908152602001600020600301600083815260200190815260200160002054905092915050565b600060056000848152602001908152602001600020600901600083815260200190815260200160002054905092915050565b60008080600090505b600860008681526020019081526020016000206004018054905081101561240357836008600087815260200190815260200160002060040182815481106123d3576123d26146c0565b5b906000526020600020015414156123f05760019250809150612403565b80806123fb906145ea565b915050612389565b5081156124d957600860008581526020019081526020016000206004016001600860008781526020019081526020016000206004018054905061244691906144d8565b81548110612457576124566146c0565b5b906000526020600020015460086000868152602001908152602001600020600401828154811061248a576124896146c0565b5b9060005260206000200181905550600860008581526020019081526020016000206004018054806124be576124bd614691565b5b60019003818190600052602060002001600090559055612514565b6040517f08c379a000000000000000000000000000000000000000000000000000000000815260040161250b906141ac565b60405180910390fd5b50505050565b60006008600083815260200190815260200160002060050160009054906101000a900460ff169050919050565b80600460008473ffffffffffffffffffffffffffffffffffffffff1673ffffffffffffffffffffffffffffffffffffffff16815260200190815260200160002081905550806007600083815260200190815260200160002060000181905550816007600083815260200190815260200160002060020160006101000a81548173ffffffffffffffffffffffffffffffffffffffff021916908373ffffffffffffffffffffffffffffffffffffffff1602179055505050565b60606008600083815260200190815260200160002060040180548060200260200160405190810160405280929190818152602001828054801561266157602002820191906000526020600020905b81548152602001906001019080831161264d575b50505050509050919050565b6013818154811061267d57600080fd5b906000526020600020016000915090505481565b60145481565b60005481565b60086020528060005260406000206000915090508060000154908060010180546126c690614587565b80601f01602080910402602001604051908101604052809291908181526020018280546126f290614587565b801561273f5780601f106127145761010080835404028352916020019161273f565b820191906000526020600020905b81548152906001019060200180831161272257829003601f168201915b5050505050908060020154908060050160009054906101000a900460ff16905084565b600060066000848152602001908152602001600020600501600083815260200190815260200160002054905092915050565b6000600160003373ffffffffffffffffffffffffffffffffffffffff1673ffffffffffffffffffffffffffffffffffffffff168152602001908152602001600020541415612817576040517f08c379a000000000000000000000000000000000000000000000000000000000815260040161280e9061420c565b60405180910390fd5b6011805490508282905014612861576040517f08c379a00000000000000000000000000000000000000000000000000000000081526004016128589061422c565b60405180910390fd5b60005b6011805490508110156128e757828282818110612884576128836146c0565b5b90506020020135600560008681526020019081526020016000206008016000601184815481106128b7576128b66146c0565b5b906000526020600020015481526020019081526020016000208190555080806128df906145ea565b915050612864565b50505050565b81816008600086815260200190815260200160002060010191906129129291906139f0565b50505050565b80600160008473ffffffffffffffffffffffffffffffffffffffff1673ffffffffffffffffffffffffffffffffffffffff16815260200190815260200160002081905550806005600083815260200190815260200160002060000181905550600f8190806001815401808255809150506001900390600052602060002001600090919091909150555050565b6000600160003373ffffffffffffffffffffffffffffffffffffffff1673ffffffffffffffffffffffffffffffffffffffff168152602001908152602001600020541415612a27576040517f08c379a0000000000000000000000000000000000000000000000000000000008152600401612a1e9061420c565b60405180910390fd5b8181600560008681526020019081526020016000206001019190612a4c9291906139f0565b50505050565b8060096000848152602001908152602001600020600101819055505050565b600e5481565b600c5481565b6000600160003373ffffffffffffffffffffffffffffffffffffffff1673ffffffffffffffffffffffffffffffffffffffff168152602001908152602001600020541415612b00576040517f08c379a0000000000000000000000000000000000000000000000000000000008152600401612af79061420c565b60405180910390fd5b6011805490508282905014612b4a576040517f08c379a0000000000000000000000000000000000000000000000000000000008152600401612b419061416c565b60405180910390fd5b60005b601180549050811015612bd057828282818110612b6d57612b6c6146c0565b5b9050602002013560056000868152602001908152602001600020600901600060118481548110612ba057612b9f6146c0565b5b90600052602060002001548152602001908152602001600020819055508080612bc8906145ea565b915050612b4d565b50505050565b60606010805480602002602001604051908101604052809291908181526020018280548015612c2457602002820191906000526020600020905b815481526020019060010190808311612c10575b5050505050905090565b8060168190555050565b6000600160003373ffffffffffffffffffffffffffffffffffffffff1673ffffffffffffffffffffffffffffffffffffffff168152602001908152602001600020541415612cbb576040517f08c379a0000000000000000000000000000000000000000000000000000000008152600401612cb29061420c565b60405180910390fd5b8060056000848152602001908152602001600020600601819055505050565b600b5481565b6000600160003373ffffffffffffffffffffffffffffffffffffffff1673ffffffffffffffffffffffffffffffffffffffff168152602001908152602001600020541415612d63576040517f08c379a0000000000000000000000000000000000000000000000000000000008152600401612d5a9061420c565b60405180910390fd5b6005600083815260200190815260200160002060050154600080828254612d8a91906144d8565b925050819055508060056000848152602001908152602001600020600501819055506005600083815260200190815260200160002060050154600080828254612dd39190614482565b925050819055505050565b60128181548110612dee57600080fd5b906000526020600020016000915090505481565b80600d8190555050565b80600260008473ffffffffffffffffffffffffffffffffffffffff1673ffffffffffffffffffffffffffffffffffffffff1681526020019081526020016000208190555080600660008381526020019081526020016000206000018190555060108190806001815401808255809150506001900390600052602060002001600090919091909150555050565b6000600160003373ffffffffffffffffffffffffffffffffffffffff1673ffffffffffffffffffffffffffffffffffffffff168152602001908152602001600020541415612f1b576040517f08c379a0000000000000000000000000000000000000000000000000000000008152600401612f129061420c565b60405180910390fd5b806005600084815260200190815260200160002060020160006101000a81548173ffffffffffffffffffffffffffffffffffffffff021916908373ffffffffffffffffffffffffffffffffffffffff1602179055505050565b806008600084815260200190815260200160002060050160006101000a81548160ff0219169083151502179055505050565b806006600084815260200190815260200160002060020160006101000a81548173ffffffffffffffffffffffffffffffffffffffff021916908373ffffffffffffffffffffffffffffffffffffffff1602179055505050565b60606006600083815260200190815260200160002060040180548060200260200160405190810160405280929190818152602001828054801561306157602002820191906000526020600020905b81548152602001906001019080831161304d575b50505050509050919050565b60036020528060005260406000206000915090505481565b60046020528060005260406000206000915090505481565b6060600960008381526020019081526020016000206005018054806020026020016040519081016040528092919081815260200182805480156130ff57602002820191906000526020600020905b8154815260200190600101908083116130eb575b50505050509050919050565b600f818154811061311b57600080fd5b906000526020600020016000915090505481565b80600c8190555050565b80600b8190555050565b60005b60118054905081101561320b578160118281548110613168576131676146c0565b5b906000526020600020015414156131f8576011600160118054905061318d91906144d8565b8154811061319e5761319d6146c0565b5b9060005260206000200154601182815481106131bd576131bc6146c0565b5b906000526020600020018190555060118054806131dd576131dc614691565b5b6001900381819060005260206000200160009055905561320b565b8080613203906145ea565b915050613146565b5050565b8060086000848152602001908152602001600020600201819055505050565b6000600160003373ffffffffffffffffffffffffffffffffffffffff1673ffffffffffffffffffffffffffffffffffffffff1681526020019081526020016000205414156132b1576040517f08c379a00000000000000000000000000000000000000000000000000000000081526004016132a89061420c565b60405180910390fd5b8060056000848152602001908152602001600020600701819055505050565b60008080600090505b60066000868152602001908152602001600020600401805490508110156133535783600660008781526020019081526020016000206004018281548110613323576133226146c0565b5b906000526020600020015414156133405760019250809150613353565b808061334b906145ea565b9150506132d9565b50811561342957600660008581526020019081526020016000206004016001600660008781526020019081526020016000206004018054905061339691906144d8565b815481106133a7576133a66146c0565b5b90600052602060002001546006600086815260200190815260200160002060040182815481106133da576133d96146c0565b5b90600052602060002001819055506006600085815260200190815260200160002060040180548061340e5761340d614691565b5b60019003818190600052602060002001600090559055613464565b6040517f08c379a000000000000000000000000000000000000000000000000000000000815260040161345b906141ac565b60405180910390fd5b50505050565b6060600560008381526020019081526020016000206003018054806020026020016040519081016040528092919081815260200182805480156134cc57602002820191906000526020600020905b8154815260200190600101908083116134b8575b50505050509050919050565b600560008381526020019081526020016000206004018190806001815401808255809150506001900390600052602060002001600090919091909150555050565b60008080600090505b600560008681526020019081526020016000206004018054905081101561359c578360056000878152602001908152602001600020600401828154811061356c5761356b6146c0565b5b90600052602060002001541415613589576001925080915061359c565b8080613594906145ea565b915050613522565b5081156136725760056000858152602001908152602001600020600401600160056000878152602001908152602001600020600401805490506135df91906144d8565b815481106135f0576135ef6146c0565b5b9060005260206000200154600560008681526020019081526020016000206004018281548110613623576136226146c0565b5b90600052602060002001819055506005600085815260200190815260200160002060040180548061365757613656614691565b5b600190038181906000526020600020016000905590556136ad565b6040517f08c379a00000000000000000000000000000000000000000000000000000000081526004016136a4906141ac565b60405180910390fd5b50505050565b600060056000848152602001908152602001600020600801600083815260200190815260200160002054905092915050565b600060096000848152602001908152602001600020600601600083815260200190815260200160002054905092915050565b60026020528060005260406000206000915090505481565b60096020528060005260406000206000915090508060000154908060010154908060040154905083565b8060066000848152602001908152602001600020600301819055505050565b60118054905082829050146137c2576040517f08c379a00000000000000000000000000000000000000000000000000000000081526004016137b99061422c565b60405180910390fd5b60005b601180549050811015613848578282828181106137e5576137e46146c0565b5b9050602002013560066000868152602001908152602001600020600501600060118481548110613818576138176146c0565b5b90600052602060002001548152602001908152602001600020819055508080613840906145ea565b9150506137c5565b50505050565b600060096000858152602001908152602001600020600601600084815260200190815260200160002054146138b8576040517f08c379a00000000000000000000000000000000000000000000000000000000081526004016138af906141ec565b60405180910390fd5b806009600085815260200190815260200160002060060160008481526020019081526020016000208190555060096000848152602001908152602001600020600501819080600181540180825580915050600190039060005260206000200160009091909190915055505050565b6060601380548060200260200160405190810160405280929190818152602001828054801561397457602002820191906000526020600020905b815481526020019060010190808311613960575b5050505050905090565b600860008381526020019081526020016000206004018190806001815401808255809150506001900390600052602060002001600090919091909150555050565b8060076000858152602001908152602001600020600301600084815260200190815260200160002081905550505050565b8280546139fc90614587565b90600052602060002090601f016020900481019282613a1e5760008555613a65565b82601f10613a3757803560ff1916838001178555613a65565b82800160010185558215613a65579182015b82811115613a64578235825591602001919060010190613a49565b5b509050613a729190613a97565b5090565b5080546000825590600052602060002090810190613a949190613a97565b50565b5b80821115613ab0576000816000905550600101613a98565b5090565b6000613ac7613ac284614401565b6143dc565b90508083825260208201905082856020860282011115613aea57613ae9614728565b5b60005b85811015613b1a5781613b008882613c28565b845260208401935060208301925050600181019050613aed565b5050509392505050565b600081359050613b3381614971565b92915050565b60008083601f840112613b4f57613b4e614723565b5b8235905067ffffffffffffffff811115613b6c57613b6b61471e565b5b602083019150836020820283011115613b8857613b87614728565b5b9250929050565b600082601f830112613ba457613ba3614723565b5b8135613bb4848260208601613ab4565b91505092915050565b600081359050613bcc81614988565b92915050565b60008083601f840112613be857613be7614723565b5b8235905067ffffffffffffffff811115613c0557613c0461471e565b5b602083019150836001820283011115613c2157613c20614728565b5b9250929050565b600081359050613c378161499f565b92915050565b600060208284031215613c5357613c52614732565b5b6000613c6184828501613b24565b91505092915050565b60008060408385031215613c8157613c80614732565b5b6000613c8f85828601613b24565b9250506020613ca085828601613c28565b9150509250929050565b600060208284031215613cc057613cbf614732565b5b600082013567ffffffffffffffff811115613cde57613cdd61472d565b5b613cea84828501613b8f565b91505092915050565b600060208284031215613d0957613d08614732565b5b6000613d1784828501613c28565b91505092915050565b60008060408385031215613d3757613d36614732565b5b6000613d4585828601613c28565b9250506020613d5685828601613b24565b9150509250929050565b600080600060408486031215613d7957613d78614732565b5b6000613d8786828701613c28565b935050602084013567ffffffffffffffff811115613da857613da761472d565b5b613db486828701613b39565b92509250509250925092565b60008060408385031215613dd757613dd6614732565b5b6000613de585828601613c28565b925050602083013567ffffffffffffffff811115613e0657613e0561472d565b5b613e1285828601613b8f565b9150509250929050565b60008060408385031215613e3357613e32614732565b5b6000613e4185828601613c28565b9250506020613e5285828601613bbd565b9150509250929050565b600080600060408486031215613e7557613e74614732565b5b6000613e8386828701613c28565b935050602084013567ffffffffffffffff811115613ea457613ea361472d565b5b613eb086828701613bd2565b92509250509250925092565b60008060408385031215613ed357613ed2614732565b5b6000613ee185828601613c28565b9250506020613ef285828601613c28565b9150509250929050565b600080600060608486031215613f1557613f14614732565b5b6000613f2386828701613c28565b9350506020613f3486828701613c28565b9250506040613f4586828701613c28565b9150509250925092565b6000613f5b8383614111565b60208301905092915050565b613f708161450c565b82525050565b6000613f818261443d565b613f8b8185614460565b9350613f968361442d565b8060005b83811015613fc7578151613fae8882613f4f565b9750613fb983614453565b925050600181019050613f9a565b5085935050505092915050565b613fdd8161451e565b82525050565b6000613fee82614448565b613ff88185614471565b9350614008818560208601614554565b61401181614737565b840191505092915050565b6000614029606083614471565b915061403482614748565b606082019050919050565b600061404c601583614471565b9150614057826147bd565b602082019050919050565b600061406f601083614471565b915061407a826147e6565b602082019050919050565b6000614092602283614471565b915061409d8261480f565b604082019050919050565b60006140b5601583614471565b91506140c08261485e565b602082019050919050565b60006140d8602f83614471565b91506140e382614887565b604082019050919050565b60006140fb606183614471565b9150614106826148d6565b608082019050919050565b61411a8161454a565b82525050565b6141298161454a565b82525050565b600060208201905081810360008301526141498184613f76565b905092915050565b60006020820190506141666000830184613fd4565b92915050565b600060208201905081810360008301526141858161401c565b9050919050565b600060208201905081810360008301526141a58161403f565b9050919050565b600060208201905081810360008301526141c581614062565b9050919050565b600060208201905081810360008301526141e581614085565b9050919050565b60006020820190508181036000830152614205816140a8565b9050919050565b60006020820190508181036000830152614225816140cb565b9050919050565b60006020820190508181036000830152614245816140ee565b9050919050565b60006020820190506142616000830184614120565b92915050565b600060608201905061427c6000830186614120565b818103602083015261428e8185613fe3565b905061429d6040830184613f67565b949350505050565b60006080820190506142ba6000830187614120565b81810360208301526142cc8186613fe3565b90506142db6040830185613f67565b6142e86060830184614120565b95945050505050565b600060c0820190506143066000830189614120565b81810360208301526143188188613fe3565b90506143276040830187613f67565b6143346060830186614120565b6143416080830185614120565b61434e60a0830184614120565b979650505050505050565b600060808201905061436e6000830187614120565b81810360208301526143808186613fe3565b905061438f6040830185614120565b61439c6060830184613fd4565b95945050505050565b60006060820190506143ba6000830186614120565b6143c76020830185614120565b6143d46040830184614120565b949350505050565b60006143e66143f7565b90506143f282826145b9565b919050565b6000604051905090565b600067ffffffffffffffff82111561441c5761441b6146ef565b5b602082029050602081019050919050565b6000819050602082019050919050565b600081519050919050565b600081519050919050565b6000602082019050919050565b600082825260208201905092915050565b600082825260208201905092915050565b600061448d8261454a565b91506144988361454a565b9250827fffffffffffffffffffffffffffffffffffffffffffffffffffffffffffffffff038211156144cd576144cc614633565b5b828201905092915050565b60006144e38261454a565b91506144ee8361454a565b92508282101561450157614500614633565b5b828203905092915050565b60006145178261452a565b9050919050565b60008115159050919050565b600073ffffffffffffffffffffffffffffffffffffffff82169050919050565b6000819050919050565b60005b83811015614572578082015181840152602081019050614557565b83811115614581576000848401525b50505050565b6000600282049050600182168061459f57607f821691505b602082108114156145b3576145b2614662565b5b50919050565b6145c282614737565b810181811067ffffffffffffffff821117156145e1576145e06146ef565b5b80604052505050565b60006145f58261454a565b91507fffffffffffffffffffffffffffffffffffffffffffffffffffffffffffffffff82141561462857614627614633565b5b600182019050919050565b7f4e487b7100000000000000000000000000000000000000000000000000000000600052601160045260246000fd5b7f4e487b7100000000000000000000000000000000000000000000000000000000600052602260045260246000fd5b7f4e487b7100000000000000000000000000000000000000000000000000000000600052603160045260246000fd5b7f4e487b7100000000000000000000000000000000000000000000000000000000600052603260045260246000fd5b7f4e487b7100000000000000000000000000000000000000000000000000000000600052604160045260246000fd5b600080fd5b600080fd5b600080fd5b600080fd5b600080fd5b6000601f19601f8301169050919050565b7f5768656e2073657474696e672074686520707265666572656e6365206c65766560008201527f6c206f6620636f75727365732c206974206973206e656365737361727920746f60208201527f206861766520616e20657175616c206e756d626572206f6620636f7572736573604082015250565b7fe8afa5e78fade7baa7e5b7b2e7bb8fe68993e588860000000000000000000000600082015250565b7f436f75727365206e6f7420666f756e6400000000000000000000000000000000600082015250565b7f6d7573742075706461746520616c6c20636f7572736520737569746162696c6960008201527f7479000000000000000000000000000000000000000000000000000000000000602082015250565b7fe8afa5e79da3e5afbce5b7b2e7bb8fe8af84e588860000000000000000000000600082015250565b7f4f6e6c7920726567697374657265642074656163686572732063616e2063616c60008201527f6c20746869732066756e6374696f6e0000000000000000000000000000000000602082015250565b7f5768656e2073657474696e672074686520737569746162696c697479206c657660008201527f656c206f6620636f75727365732c206974206973206e6563657373617279207460208201527f6f206861766520616e20657175616c206e756d626572206f6620636f7572736560408201527f7300000000000000000000000000000000000000000000000000000000000000606082015250565b61497a8161450c565b811461498557600080fd5b50565b6149918161451e565b811461499c57600080fd5b50565b6149a88161454a565b81146149b357600080fd5b5056fea26469706673582212203974d65e5c7159e8f19e8f4dceba92821250fc4ed8eb3c8f04c25a2c3f4f00ae64736f6c63430008070033",
  "immutableReferences": {},
  "source": "// SPDX-License-Identifier: MIT\r\npragma solidity ^0.8.7;\r\n\r\ncontract ICourseAllocation {\r\n    // \r\n    struct Teacher {\r\n        uint256 id;\r\n        string name;\r\n        address addr;\r\n        uint256[] assignedCourses;\r\n        uint256[] reallyAssignedCourses;\r\n        uint256 suitabilityWeight;\r\n        uint256 transferCourseCoins;\r\n        uint256 value;\r\n        mapping(uint256 => uint256) courseSuitabilities;\r\n        mapping(uint256 => uint256) coursePreferences;\r\n    }\r\n\r\n    // \r\n    struct Agent {\r\n        uint256 id;\r\n        string name;\r\n        address addr;\r\n        uint256 value;\r\n        uint256[] assignedCourses;\r\n        mapping(uint256 => uint256) courseSuitabilities;\r\n    }\r\n\r\n    // \r\n    struct Supervisor {\r\n        uint256 id;\r\n        string name;\r\n        address addr;\r\n        mapping(uint256 => uint256) courseScores;\r\n    }\r\n\r\n    // \r\n    struct Course {\r\n        uint256 id;\r\n        string name;\r\n        uint256 importance;\r\n        uint256[] assignedTeacherId;\r\n        uint256[] assignedAgentId;\r\n        bool isAgentSuitable;\r\n    }\r\n\r\n    struct CourseScore {\r\n        uint256 id; // id\r\n        uint256 totalScore;\r\n        uint256[] classScores;\r\n        mapping(uint256 => uint256) giveScoreClassIdExists;\r\n        uint256 selfScore;\r\n        uint256[] supervisorScores;\r\n        mapping(uint256 => uint256) giveScoreSupervisorIdExists;\r\n    }\r\n\r\n    // \r\n    uint256 public totalWeight;\r\n\r\n    //  => ID\r\n    mapping(address => uint256) public addressToTeacherId;\r\n\r\n    //  => ID\r\n    mapping(address => uint256) public addressToAgentId;\r\n\r\n    //  => ID\r\n    mapping(address => uint256) public addressToClassId;\r\n\r\n    //  => ID\r\n    mapping(address => uint256) public addressToSupervisorId;\r\n\r\n    // ID => \r\n    mapping(uint256 => Teacher) public teachers;\r\n\r\n    // ID => \r\n    mapping(uint256 => Agent) public agents;\r\n\r\n    // ID => \r\n    mapping(uint256 => Supervisor) public supervisors;\r\n\r\n    // ID => \r\n    mapping(uint256 => Course) public courses;\r\n\r\n    // ID => \r\n    mapping(uint256 => CourseScore) public courseScores;\r\n\r\n    // ID\r\n    uint256 public teacherCount;\r\n\r\n    // ID\r\n    uint256 public agentCount;\r\n\r\n    // ID\r\n    uint256 public classCount;\r\n\r\n    // ID\r\n    uint256 public courseCount;\r\n\r\n    // ID\r\n    uint256 public supervisorCount;\r\n\r\n    // ID\r\n    uint256[] public teacherIds;\r\n\r\n    // ID\r\n    uint256[] public agentIds;\r\n\r\n    // ID\r\n    uint256[] public courseIds;\r\n\r\n    // ID\r\n    uint256[] public classIds;\r\n\r\n    // ID\r\n    uint256[] public supervisorIds;\r\n\r\n    // \r\n    uint256 public transferCourseNumbers;\r\n\r\n    // \r\n    uint256 public transferCourseStartTime;\r\n\r\n    // \r\n    uint256 public transferCourseEndTime;\r\n\r\n    // \r\n    // event CourseImportanceSet(uint256 indexed courseId, uint256 importance);\r\n    // event SuitabilityUpdated(uint256 indexed courseId, uint256 suitability);\r\n    // event PreferenceUpdated(uint256 indexed teacherId, uint256 indexed courseId, uint256 preference);\r\n    // event ProposalCreated(uint256 proposalId, uint256 indexed courseId, uint256[] teacherIds); // \r\n    // event MachineProposal(uint256 proposalId, uint256 indexed courseId, uint256[] teacherIds, uint256[] teacherCounts); // \r\n    // event CourseAssignedToTeacher(uint256 indexed courseId, uint256 indexed teacherId); // \r\n\r\n    // \r\n    constructor() {}\r\n\r\n    // \r\n    modifier onlyTeacher() {\r\n        require(\r\n            addressToTeacherId[msg.sender] != 0,\r\n            \"Only registered teachers can call this function\"\r\n        );\r\n        _;\r\n    }\r\n\r\n    // ID\r\n    function setTeacherId(address teacherAddress, uint256 _TeacherId) public {\r\n        addressToTeacherId[teacherAddress] = _TeacherId;\r\n        teachers[_TeacherId].id = _TeacherId;\r\n        teacherIds.push(_TeacherId);\r\n    }\r\n\r\n    // \r\n    function removeTeacher(uint256 teacherId) public onlyTeacher {\r\n        teachers[teacherId].id = 0;\r\n        //  teacherIds  ID\r\n        for (uint256 i = 0; i < teacherIds.length; i++) {\r\n            if (teacherIds[i] == teacherId) {\r\n                //  ID \r\n                teacherIds[i] = teacherIds[teacherIds.length - 1];\r\n                // \r\n                teacherIds.pop();\r\n                break;\r\n            }\r\n        }\r\n    }\r\n\r\n    // \r\n    function setTeacherName(\r\n        uint256 teacherId,\r\n        string calldata _name\r\n    ) public onlyTeacher {\r\n        teachers[teacherId].name = _name;\r\n    }\r\n\r\n    // \r\n    function setTeacherAddress(\r\n        uint256 teacherId,\r\n        address _teacherAddress\r\n    ) public onlyTeacher {\r\n        teachers[teacherId].addr = _teacherAddress;\r\n    }\r\n\r\n    // \r\n    function addTeacherAssignedCourses(\r\n        uint256 teacherId,\r\n        uint256 _assignedCourses\r\n    ) public {\r\n        teachers[teacherId].assignedCourses.push(_assignedCourses);\r\n    }\r\n\r\n    // \r\n    function addTeacherReallyAssignedCourses(\r\n        uint256 teacherId,\r\n        uint256 _assignedCourses\r\n    ) public {\r\n        teachers[teacherId].reallyAssignedCourses.push(_assignedCourses);\r\n    }\r\n\r\n    // \r\n    function removeTeacherAssignedCourses(\r\n        uint256 teacherId,\r\n        uint256 _assignedCourses\r\n    ) public {\r\n        bool found = false;\r\n        uint256 indexToRemove;\r\n\r\n        //  ID \r\n        for (\r\n            uint256 i = 0;\r\n            i < teachers[teacherId].assignedCourses.length;\r\n            i++\r\n        ) {\r\n            if (teachers[teacherId].assignedCourses[i] == _assignedCourses) {\r\n                found = true;\r\n                indexToRemove = i;\r\n                break;\r\n            }\r\n        }\r\n\r\n        //  ID\r\n        if (found) {\r\n            // \r\n            teachers[teacherId].assignedCourses[indexToRemove] = teachers[\r\n                teacherId\r\n            ].assignedCourses[teachers[teacherId].assignedCourses.length - 1];\r\n            // \r\n            teachers[teacherId].assignedCourses.pop();\r\n        } else {\r\n            //  ID\r\n            revert(\"Course not found\");\r\n        }\r\n    }\r\n\r\n    // \r\n    function removeTeacherReallyAssignedCourses(\r\n        uint256 teacherId,\r\n        uint256 _assignedCourses\r\n    ) public {\r\n        bool found = false;\r\n        uint256 indexToRemove;\r\n\r\n        //  ID \r\n        for (\r\n            uint256 i = 0;\r\n            i < teachers[teacherId].reallyAssignedCourses.length;\r\n            i++\r\n        ) {\r\n            if (\r\n                teachers[teacherId].reallyAssignedCourses[i] == _assignedCourses\r\n            ) {\r\n                found = true;\r\n                indexToRemove = i;\r\n                break;\r\n            }\r\n        }\r\n\r\n        //  ID\r\n        if (found) {\r\n            // \r\n            teachers[teacherId].reallyAssignedCourses[indexToRemove] = teachers[\r\n                teacherId\r\n            ].reallyAssignedCourses[\r\n                    teachers[teacherId].reallyAssignedCourses.length - 1\r\n                ];\r\n            // \r\n            teachers[teacherId].reallyAssignedCourses.pop();\r\n        } else {\r\n            //  ID\r\n            revert(\"Course not found\");\r\n        }\r\n    }\r\n\r\n    // \r\n    function setTeacherSuitabilityWeight(\r\n        uint256 teacherId,\r\n        uint256 _suitabilityWeight\r\n    ) public onlyTeacher {\r\n        totalWeight -= teachers[teacherId].suitabilityWeight;\r\n        teachers[teacherId].suitabilityWeight = _suitabilityWeight;\r\n        totalWeight += teachers[teacherId].suitabilityWeight;\r\n    }\r\n\r\n    // \r\n    function setTeacherTransferCourseCoins(\r\n        uint256 teacherId,\r\n        uint256 _transferCourseCoins\r\n    ) public onlyTeacher {\r\n        teachers[teacherId].transferCourseCoins = _transferCourseCoins;\r\n    }\r\n\r\n    // \r\n    function setTeacherValue(\r\n        uint256 teacherId,\r\n        uint256 _value\r\n    ) public onlyTeacher {\r\n        teachers[teacherId].value = _value;\r\n    }\r\n\r\n    // \r\n    function setAgentValue(uint256 agentId, uint256 _value) public {\r\n        agents[agentId].value = _value;\r\n    }\r\n\r\n    // \r\n    function setAllTeacherCourseSuitability(\r\n        uint256 teacherId,\r\n        uint256[] calldata _suitabilities\r\n    ) public onlyTeacher {\r\n        require(\r\n            _suitabilities.length == courseIds.length,\r\n            \"When setting the suitability level of courses, it is necessary to have an equal number of courses\"\r\n        );\r\n        for (\r\n            uint256 courseIndex = 0;\r\n            courseIndex < courseIds.length;\r\n            courseIndex++\r\n        ) {\r\n            teachers[teacherId].courseSuitabilities[\r\n                courseIds[courseIndex]\r\n            ] = _suitabilities[courseIndex];\r\n        }\r\n    }\r\n\r\n    // \r\n    function setTeacherCourseSuitability(\r\n        uint256 teacherId,\r\n        uint256 courseId,\r\n        uint256 _suitability\r\n    ) public {\r\n        teachers[teacherId].courseSuitabilities[courseId] = _suitability;\r\n    }\r\n\r\n    // \r\n    function setAllTeacherCoursePreferences(\r\n        uint256 teacherId,\r\n        uint256[] calldata _preferences\r\n    ) public onlyTeacher {\r\n        require(\r\n            _preferences.length == courseIds.length,\r\n            \"When setting the preference level of courses, it is necessary to have an equal number of courses\"\r\n        );\r\n        for (\r\n            uint256 courseIndex = 0;\r\n            courseIndex < courseIds.length;\r\n            courseIndex++\r\n        ) {\r\n            teachers[teacherId].coursePreferences[\r\n                courseIds[courseIndex]\r\n            ] = _preferences[courseIndex];\r\n        }\r\n    }\r\n\r\n    // \r\n    function setTeacherCoursePreferences(\r\n        uint256 teacherId,\r\n        uint256 courseId,\r\n        uint256 _preference\r\n    ) public onlyTeacher {\r\n        teachers[teacherId].coursePreferences[courseId] = _preference;\r\n    }\r\n\r\n    // ID\r\n    function setAgentId(address agentAddress, uint256 _agentId) public {\r\n        addressToAgentId[agentAddress] = _agentId;\r\n        agents[_agentId].id = _agentId;\r\n        agentIds.push(_agentId);\r\n    }\r\n\r\n    // \r\n    function removeAgent(uint256 agentId) public {\r\n        agents[agentId].id = 0;\r\n        //  agentIds  ID\r\n        for (uint256 i = 0; i < agentIds.length; i++) {\r\n            if (agentIds[i] == agentId) {\r\n                //  ID \r\n                agentIds[i] = agentIds[agentIds.length - 1];\r\n                // \r\n                agentIds.pop();\r\n                break;\r\n            }\r\n        }\r\n    }\r\n\r\n    // \r\n    function setAgentName(uint256 agentId, string calldata _name) public {\r\n        agents[agentId].name = _name;\r\n    }\r\n\r\n    // \r\n    function setAgentAddress(uint256 agentId, address _agentAddress) public {\r\n        agents[agentId].addr = _agentAddress;\r\n    }\r\n\r\n    // \r\n    function addAgentAssignedCourses(\r\n        uint256 agentId,\r\n        uint256 _assignedCourses\r\n    ) public {\r\n        agents[agentId].assignedCourses.push(_assignedCourses);\r\n    }\r\n\r\n    // \r\n    function removeAgentAssignedCourses(\r\n        uint256 agentId,\r\n        uint256 _assignedCourses\r\n    ) public {\r\n        bool found = false;\r\n        uint256 indexToRemove;\r\n\r\n        //  ID \r\n        for (uint256 i = 0; i < agents[agentId].assignedCourses.length; i++) {\r\n            if (agents[agentId].assignedCourses[i] == _assignedCourses) {\r\n                found = true;\r\n                indexToRemove = i;\r\n                break;\r\n            }\r\n        }\r\n\r\n        //  ID\r\n        if (found) {\r\n            // \r\n            agents[agentId].assignedCourses[indexToRemove] = agents[agentId]\r\n                .assignedCourses[agents[agentId].assignedCourses.length - 1];\r\n            // \r\n            agents[agentId].assignedCourses.pop();\r\n        } else {\r\n            //  ID\r\n            revert(\"Course not found\");\r\n        }\r\n    }\r\n\r\n    // \r\n    function setAgentCourseSuitability(\r\n        uint256 agentId,\r\n        uint256 _courseId,\r\n        uint256 _suitability\r\n    ) public {\r\n        agents[agentId].courseSuitabilities[_courseId] = _suitability;\r\n    }\r\n\r\n    // \r\n    function setAllAgentCourseSuitability(\r\n        uint256 agentId,\r\n        uint256[] calldata _suitabilities\r\n    ) public {\r\n        require(\r\n            _suitabilities.length == courseIds.length,\r\n            \"When setting the suitability level of courses, it is necessary to have an equal number of courses\"\r\n        );\r\n        for (\r\n            uint256 courseIndex = 0;\r\n            courseIndex < courseIds.length;\r\n            courseIndex++\r\n        ) {\r\n            agents[agentId].courseSuitabilities[\r\n                courseIds[courseIndex]\r\n            ] = _suitabilities[courseIndex];\r\n        }\r\n    }\r\n\r\n    // ID\r\n    function setClassId(address classAddress, uint256 _id) public {\r\n        addressToClassId[classAddress] = _id;\r\n        classIds.push(_id);\r\n    }\r\n\r\n    // \r\n    function removeClass(uint256 classId) public {\r\n        //  classIds  ID\r\n        for (uint256 i = 0; i < classIds.length; i++) {\r\n            if (classIds[i] == classId) {\r\n                //  ID \r\n                classIds[i] = classIds[classIds.length - 1];\r\n                // \r\n                classIds.pop();\r\n                break;\r\n            }\r\n        }\r\n    }\r\n\r\n    // ID\r\n    function setCourseId(uint256 courseId) public {\r\n        courses[courseId].id = courseId;\r\n        courseIds.push(courseId);\r\n    }\r\n\r\n    // \r\n    function removeCourse(uint256 courseId) public {\r\n        //  classIds  ID\r\n        for (uint256 i = 0; i < courseIds.length; i++) {\r\n            if (courseIds[i] == courseId) {\r\n                //  ID \r\n                courseIds[i] = courseIds[courseIds.length - 1];\r\n                // \r\n                courseIds.pop();\r\n                break;\r\n            }\r\n        }\r\n    }\r\n\r\n    // \r\n    function setCourseName(uint256 courseId, string calldata _name) public {\r\n        courses[courseId].name = _name;\r\n    }\r\n\r\n    // \r\n    function setCourseImportance(uint256 courseId, uint256 _importance) public {\r\n        courses[courseId].importance = _importance;\r\n    }\r\n\r\n    // \r\n    function setAllCourseImportance(uint256[] memory _importances) public {\r\n        require(\r\n            _importances.length == courseIds.length,\r\n            \"must update all course suitability\"\r\n        );\r\n        // \r\n        for (\r\n            uint256 courseIndex = 0;\r\n            courseIndex < courseIds.length;\r\n            courseIndex++\r\n        ) {\r\n            courses[courseIds[courseIndex]].importance = _importances[\r\n                courseIndex\r\n            ];\r\n        }\r\n    }\r\n\r\n    // ID\r\n    function addCourseAssignedTeacherId(\r\n        uint256 courseId,\r\n        uint256 _teacherId\r\n    ) public {\r\n        courses[courseId].assignedTeacherId.push(_teacherId);\r\n    }\r\n\r\n    // ID\r\n    function addCourseAssignedAgentId(\r\n        uint256 courseId,\r\n        uint256 _agentId\r\n    ) public {\r\n        courses[courseId].assignedAgentId.push(_agentId);\r\n    }\r\n\r\n    // \r\n    function removeCourseAssignedTeacherId(\r\n        uint256 courseId,\r\n        uint256 _teacherId\r\n    ) public {\r\n        bool found = false;\r\n        uint256 indexToRemove;\r\n\r\n        //  ID \r\n        for (\r\n            uint256 i = 0;\r\n            i < courses[courseId].assignedTeacherId.length;\r\n            i++\r\n        ) {\r\n            if (courses[courseId].assignedTeacherId[i] == _teacherId) {\r\n                found = true;\r\n                indexToRemove = i;\r\n                break;\r\n            }\r\n        }\r\n\r\n        //  ID\r\n        if (found) {\r\n            // \r\n            courses[courseId].assignedTeacherId[indexToRemove] = courses[\r\n                courseId\r\n            ].assignedTeacherId[courses[courseId].assignedTeacherId.length - 1];\r\n            // \r\n            courses[courseId].assignedTeacherId.pop();\r\n        } else {\r\n            //  ID\r\n            revert(\"Course not found\");\r\n        }\r\n    }\r\n\r\n    // \r\n    function removeCourseAssignedAgentId(\r\n        uint256 courseId,\r\n        uint256 _agentId\r\n    ) public {\r\n        bool found = false;\r\n        uint256 indexToRemove;\r\n\r\n        //  ID \r\n        for (uint256 i = 0; i < courses[courseId].assignedAgentId.length; i++) {\r\n            if (courses[courseId].assignedAgentId[i] == _agentId) {\r\n                found = true;\r\n                indexToRemove = i;\r\n                break;\r\n            }\r\n        }\r\n\r\n        //  ID\r\n        if (found) {\r\n            // \r\n            courses[courseId].assignedAgentId[indexToRemove] = courses[courseId]\r\n                .assignedAgentId[courses[courseId].assignedAgentId.length - 1];\r\n            // \r\n            courses[courseId].assignedAgentId.pop();\r\n        } else {\r\n            //  ID\r\n            revert(\"Course not found\");\r\n        }\r\n    }\r\n\r\n    // \r\n    function setCourseIsAgentSuitable(\r\n        uint256 courseId,\r\n        bool _isAgentSuitable\r\n    ) public {\r\n        courses[courseId].isAgentSuitable = _isAgentSuitable;\r\n    }\r\n\r\n    // \r\n    function setTeacherCount(uint256 _teacherCount) public {\r\n        teacherCount = _teacherCount;\r\n    }\r\n\r\n    // \r\n    function setAgentCount(uint256 _agentCount) public {\r\n        agentCount = _agentCount;\r\n    }\r\n\r\n    // \r\n    function setClassCount(uint256 _classCount) public {\r\n        classCount = _classCount;\r\n    }\r\n\r\n    // \r\n    function setCourseCount(uint256 _courseCount) public {\r\n        courseCount = _courseCount;\r\n    }\r\n\r\n    // \r\n    function getTeacherSuitability(\r\n        uint256 _teacherId,\r\n        uint256 courseId\r\n    ) public view returns (uint256) {\r\n        return teachers[_teacherId].courseSuitabilities[courseId];\r\n    }\r\n\r\n    // \r\n    function getAgentSuitability(\r\n        uint256 _agentId,\r\n        uint256 courseId\r\n    ) public view returns (uint256) {\r\n        return agents[_agentId].courseSuitabilities[courseId];\r\n    }\r\n\r\n    // \r\n    function getPreference(\r\n        uint256 _teacherId,\r\n        uint256 courseId\r\n    ) public view returns (uint256) {\r\n        return teachers[_teacherId].coursePreferences[courseId];\r\n    }\r\n\r\n    // \r\n    function getTeacherAssignedCourses(\r\n        uint256 _teacherId\r\n    ) public view returns (uint256[] memory) {\r\n        return teachers[_teacherId].assignedCourses;\r\n    }\r\n\r\n    // \r\n    function getTeacherReallyAssignedCourses(\r\n        uint256 _teacherId\r\n    ) public view returns (uint256[] memory) {\r\n        return teachers[_teacherId].reallyAssignedCourses;\r\n    }\r\n\r\n    // \r\n    function getAgentAssignedCourses(\r\n        uint256 _agentId\r\n    ) public view returns (uint256[] memory) {\r\n        return agents[_agentId].assignedCourses;\r\n    }\r\n\r\n    // \r\n    function getCoursesAssignedTeacher(\r\n        uint256 _courseId\r\n    ) public view returns (uint256[] memory) {\r\n        return courses[_courseId].assignedTeacherId;\r\n    }\r\n\r\n    // \r\n    function getCoursesAssignedAgent(\r\n        uint256 _courseId\r\n    ) public view returns (uint256[] memory) {\r\n        return courses[_courseId].assignedAgentId;\r\n    }\r\n\r\n    // \r\n    function getCourseImportance(uint courseId) external view returns (uint) {\r\n        return courses[courseId].importance;\r\n    }\r\n\r\n    // \r\n    function getCourseIsAgentSuitable(\r\n        uint courseId\r\n    ) external view returns (bool) {\r\n        return courses[courseId].isAgentSuitable;\r\n    }\r\n\r\n    function getTeacherIds() public view returns (uint256[] memory) {\r\n        return teacherIds;\r\n    }\r\n\r\n    function getAgentIds() public view returns (uint256[] memory) {\r\n        return agentIds;\r\n    }\r\n\r\n    function getCourseIds() public view returns (uint256[] memory) {\r\n        return courseIds;\r\n    }\r\n\r\n    function getClassIds() public view returns (uint256[] memory) {\r\n        return classIds;\r\n    }\r\n\r\n    function addCourseClassScores(\r\n        uint256 courseId,\r\n        uint256 classId,\r\n        uint256 score\r\n    ) public {\r\n        require(\r\n            courseScores[courseId].giveScoreClassIdExists[classId] == 0,\r\n            unicode\"\"\r\n        );\r\n        courseScores[courseId].giveScoreClassIdExists[classId] = score;\r\n        courseScores[courseId].classScores.push(score);\r\n    }\r\n\r\n    function getGiveScoreClassIdExists(\r\n        uint256 courseId,\r\n        uint256 classId\r\n    ) public view returns (uint256) {\r\n        return courseScores[courseId].giveScoreClassIdExists[classId];\r\n    }\r\n\r\n    // \r\n    function removeCourseClassScores(\r\n        uint256 courseId,\r\n        uint256[] memory classIds_\r\n    ) public {\r\n        for (uint256 i = 0; i < classIds_.length; i++) {\r\n            courseScores[courseId].giveScoreClassIdExists[classIds_[i]] = 0;\r\n        }\r\n        delete courseScores[courseId].classScores;\r\n    }\r\n\r\n    function getCourseClassScores(\r\n        uint256 courseId\r\n    ) public view returns (uint256[] memory) {\r\n        return courseScores[courseId].classScores;\r\n    }\r\n\r\n    function setCourseSelfScore(uint256 courseId, uint256 score) public {\r\n        courseScores[courseId].selfScore = score;\r\n    }\r\n\r\n    function setCourseTotalScore(uint256 courseId, uint256 score) public {\r\n        courseScores[courseId].totalScore = score;\r\n    }\r\n\r\n    function addCourseSupervisorScores(\r\n        uint256 courseId,\r\n        uint256 supervisorId,\r\n        uint256 score\r\n    ) public {\r\n        require(\r\n            courseScores[courseId].giveScoreSupervisorIdExists[supervisorId] ==\r\n                0,\r\n            unicode\"\"\r\n        );\r\n        courseScores[courseId].giveScoreSupervisorIdExists[\r\n            supervisorId\r\n        ] = score;\r\n        courseScores[courseId].supervisorScores.push(score);\r\n    }\r\n\r\n    function getGiveScoreSupervisorIdExists(\r\n        uint256 courseId,\r\n        uint256 supervisorId\r\n    ) public view returns (uint256) {\r\n        return courseScores[courseId].giveScoreSupervisorIdExists[supervisorId];\r\n    }\r\n\r\n    function getCourseSupervisorScores(\r\n        uint256 courseId\r\n    ) public view returns (uint256[] memory) {\r\n        return courseScores[courseId].supervisorScores;\r\n    }\r\n\r\n    function addSupervisorId(uint256 supervisorId) public {\r\n        supervisorIds.push(supervisorId);\r\n        supervisorCount++;\r\n    }\r\n\r\n    function getSupervisorIds() public view returns (uint256[] memory) {\r\n        return supervisorIds;\r\n    }\r\n\r\n    function setSupervisorId(address supervisor, uint256 supervisorId) public {\r\n        addressToSupervisorId[supervisor] = supervisorId;\r\n        supervisors[supervisorId].id = supervisorId;\r\n        supervisors[supervisorId].addr = supervisor;\r\n    }\r\n\r\n    function setSupervisorName(\r\n        uint256 supervisorId,\r\n        string calldata _name\r\n    ) public {\r\n        supervisors[supervisorId].name = _name;\r\n    }\r\n\r\n    function setSupervisorsCourseScore(\r\n        uint256 supervisorId,\r\n        uint256 courseId,\r\n        uint256 score\r\n    ) public {\r\n        supervisors[supervisorId].courseScores[courseId] = score;\r\n    }\r\n\r\n    function settransferCourseNumbers(uint256 _transferCourseNumbers) public {\r\n        transferCourseNumbers = _transferCourseNumbers;\r\n    }\r\n\r\n    function settransferCourseStartTime(\r\n        uint256 _transferCourseStartTime\r\n    ) public {\r\n        transferCourseStartTime = _transferCourseStartTime;\r\n    }\r\n\r\n    function settransferCourseEndTime(uint256 _transferCourseEndTime) public {\r\n        transferCourseEndTime = _transferCourseEndTime;\r\n    }\r\n}\r\n",
  "sourcePath": "E:\\dao\\327\\Course-allocation\\project\\contracts\\ICourseAllocation.sol",
  "compiler": {
    "name": "solc",
    "version": "0.8.7+commit.e28d00a7.Emscripten.clang"
  },
  "schemaVersion": "3.4.16",
  "updatedAt": "2025-04-07T08:49:00.355Z",
  "networkType": "ethereum",
  "devdoc": {
    "kind": "dev",
    "methods": {},
    "version": 1
  },
  "userdoc": {
    "kind": "user",
    "methods": {},
    "version": 1
  }
}