{
  "contractName": "ICourseAllocation",
  "abi": [
    {
      "inputs": [],
      "stateMutability": "nonpayable",
      "type": "constructor"
    },
    {
      "inputs": [
        {
          "internalType": "address",
          "name": "",
          "type": "address"
        }
      ],
      "name": "addressToAgentId",
      "outputs": [
        {
          "internalType": "uint256",
          "name": "",
          "type": "uint256"
        }
      ],
      "stateMutability": "view",
      "type": "function",
      "constant": true
    },
    {
      "inputs": [
        {
          "internalType": "address",
          "name": "",
          "type": "address"
        }
      ],
      "name": "addressToClassId",
      "outputs": [
        {
          "internalType": "uint256",
          "name": "",
          "type": "uint256"
        }
      ],
      "stateMutability": "view",
      "type": "function",
      "constant": true
    },
    {
      "inputs": [
        {
          "internalType": "address",
          "name": "",
          "type": "address"
        }
      ],
      "name": "addressToTeacherId",
      "outputs": [
        {
          "internalType": "uint256",
          "name": "",
          "type": "uint256"
        }
      ],
      "stateMutability": "view",
      "type": "function",
      "constant": true
    },
    {
      "inputs": [],
      "name": "agentCount",
      "outputs": [
        {
          "internalType": "uint256",
          "name": "",
          "type": "uint256"
        }
      ],
      "stateMutability": "view",
      "type": "function",
      "constant": true
    },
    {
      "inputs": [
        {
          "internalType": "uint256",
          "name": "",
          "type": "uint256"
        }
      ],
      "name": "agentIds",
      "outputs": [
        {
          "internalType": "uint256",
          "name": "",
          "type": "uint256"
        }
      ],
      "stateMutability": "view",
      "type": "function",
      "constant": true
    },
    {
      "inputs": [
        {
          "internalType": "uint256",
          "name": "",
          "type": "uint256"
        }
      ],
      "name": "agents",
      "outputs": [
        {
          "internalType": "uint256",
          "name": "id",
          "type": "uint256"
        },
        {
          "internalType": "string",
          "name": "name",
          "type": "string"
        },
        {
          "internalType": "address",
          "name": "addr",
          "type": "address"
        },
        {
          "internalType": "uint256",
          "name": "value",
          "type": "uint256"
        }
      ],
      "stateMutability": "view",
      "type": "function",
      "constant": true
    },
    {
      "inputs": [],
      "name": "classCount",
      "outputs": [
        {
          "internalType": "uint256",
          "name": "",
          "type": "uint256"
        }
      ],
      "stateMutability": "view",
      "type": "function",
      "constant": true
    },
    {
      "inputs": [
        {
          "internalType": "uint256",
          "name": "",
          "type": "uint256"
        }
      ],
      "name": "classIds",
      "outputs": [
        {
          "internalType": "uint256",
          "name": "",
          "type": "uint256"
        }
      ],
      "stateMutability": "view",
      "type": "function",
      "constant": true
    },
    {
      "inputs": [],
      "name": "courseCount",
      "outputs": [
        {
          "internalType": "uint256",
          "name": "",
          "type": "uint256"
        }
      ],
      "stateMutability": "view",
      "type": "function",
      "constant": true
    },
    {
      "inputs": [
        {
          "internalType": "uint256",
          "name": "",
          "type": "uint256"
        }
      ],
      "name": "courseIds",
      "outputs": [
        {
          "internalType": "uint256",
          "name": "",
          "type": "uint256"
        }
      ],
      "stateMutability": "view",
      "type": "function",
      "constant": true
    },
    {
      "inputs": [
        {
          "internalType": "uint256",
          "name": "",
          "type": "uint256"
        }
      ],
      "name": "courses",
      "outputs": [
        {
          "internalType": "uint256",
          "name": "id",
          "type": "uint256"
        },
        {
          "internalType": "string",
          "name": "name",
          "type": "string"
        },
        {
          "internalType": "uint256",
          "name": "importance",
          "type": "uint256"
        },
        {
          "internalType": "bool",
          "name": "isAgentSuitable",
          "type": "bool"
        }
      ],
      "stateMutability": "view",
      "type": "function",
      "constant": true
    },
    {
      "inputs": [],
      "name": "teacherCount",
      "outputs": [
        {
          "internalType": "uint256",
          "name": "",
          "type": "uint256"
        }
      ],
      "stateMutability": "view",
      "type": "function",
      "constant": true
    },
    {
      "inputs": [
        {
          "internalType": "uint256",
          "name": "",
          "type": "uint256"
        }
      ],
      "name": "teacherIds",
      "outputs": [
        {
          "internalType": "uint256",
          "name": "",
          "type": "uint256"
        }
      ],
      "stateMutability": "view",
      "type": "function",
      "constant": true
    },
    {
      "inputs": [
        {
          "internalType": "uint256",
          "name": "",
          "type": "uint256"
        }
      ],
      "name": "teachers",
      "outputs": [
        {
          "internalType": "uint256",
          "name": "id",
          "type": "uint256"
        },
        {
          "internalType": "string",
          "name": "name",
          "type": "string"
        },
        {
          "internalType": "address",
          "name": "addr",
          "type": "address"
        },
        {
          "internalType": "uint256",
          "name": "suitabilityWeight",
          "type": "uint256"
        },
        {
          "internalType": "uint256",
          "name": "value",
          "type": "uint256"
        }
      ],
      "stateMutability": "view",
      "type": "function",
      "constant": true
    },
    {
      "inputs": [
        {
          "internalType": "address",
          "name": "teacherAddress",
          "type": "address"
        },
        {
          "internalType": "uint256",
          "name": "_TeacherId",
          "type": "uint256"
        }
      ],
      "name": "setTeacherId",
      "outputs": [],
      "stateMutability": "nonpayable",
      "type": "function"
    },
    {
      "inputs": [
        {
          "internalType": "uint256",
          "name": "teacherId",
          "type": "uint256"
        }
      ],
      "name": "removeTeacher",
      "outputs": [],
      "stateMutability": "nonpayable",
      "type": "function"
    },
    {
      "inputs": [
        {
          "internalType": "uint256",
          "name": "teacherId",
          "type": "uint256"
        },
        {
          "internalType": "string",
          "name": "_name",
          "type": "string"
        }
      ],
      "name": "setTeacherName",
      "outputs": [],
      "stateMutability": "nonpayable",
      "type": "function"
    },
    {
      "inputs": [
        {
          "internalType": "uint256",
          "name": "teacherId",
          "type": "uint256"
        },
        {
          "internalType": "address",
          "name": "_teacherAddress",
          "type": "address"
        }
      ],
      "name": "setTeacherAddress",
      "outputs": [],
      "stateMutability": "nonpayable",
      "type": "function"
    },
    {
      "inputs": [
        {
          "internalType": "uint256",
          "name": "teacherId",
          "type": "uint256"
        },
        {
          "internalType": "uint256",
          "name": "_assignedCourses",
          "type": "uint256"
        }
      ],
      "name": "addTeacherAssignedCourses",
      "outputs": [],
      "stateMutability": "nonpayable",
      "type": "function"
    },
    {
      "inputs": [
        {
          "internalType": "uint256",
          "name": "teacherId",
          "type": "uint256"
        },
        {
          "internalType": "uint256",
          "name": "_assignedCourses",
          "type": "uint256"
        }
      ],
      "name": "removeTeacherAssignedCourses",
      "outputs": [],
      "stateMutability": "nonpayable",
      "type": "function"
    },
    {
      "inputs": [
        {
          "internalType": "uint256",
          "name": "teacherId",
          "type": "uint256"
        },
        {
          "internalType": "uint256",
          "name": "_suitabilityWeight",
          "type": "uint256"
        }
      ],
      "name": "setTeacherSuitabilityWeight",
      "outputs": [],
      "stateMutability": "nonpayable",
      "type": "function"
    },
    {
      "inputs": [
        {
          "internalType": "uint256",
          "name": "teacherId",
          "type": "uint256"
        },
        {
          "internalType": "uint256",
          "name": "_value",
          "type": "uint256"
        }
      ],
      "name": "setTeacherValue",
      "outputs": [],
      "stateMutability": "nonpayable",
      "type": "function"
    },
    {
      "inputs": [
        {
          "internalType": "uint256",
          "name": "agentId",
          "type": "uint256"
        },
        {
          "internalType": "uint256",
          "name": "_value",
          "type": "uint256"
        }
      ],
      "name": "setAgentValue",
      "outputs": [],
      "stateMutability": "nonpayable",
      "type": "function"
    },
    {
      "inputs": [
        {
          "internalType": "uint256",
          "name": "teacherId",
          "type": "uint256"
        },
        {
          "internalType": "uint256[]",
          "name": "_suitabilities",
          "type": "uint256[]"
        }
      ],
      "name": "setAllTeacherCourseSuitability",
      "outputs": [],
      "stateMutability": "nonpayable",
      "type": "function"
    },
    {
      "inputs": [
        {
          "internalType": "uint256",
          "name": "teacherId",
          "type": "uint256"
        },
        {
          "internalType": "uint256",
          "name": "courseId",
          "type": "uint256"
        },
        {
          "internalType": "uint256",
          "name": "_suitability",
          "type": "uint256"
        }
      ],
      "name": "setTeacherCourseSuitability",
      "outputs": [],
      "stateMutability": "nonpayable",
      "type": "function"
    },
    {
      "inputs": [
        {
          "internalType": "uint256",
          "name": "teacherId",
          "type": "uint256"
        },
        {
          "internalType": "uint256[]",
          "name": "_preferences",
          "type": "uint256[]"
        }
      ],
      "name": "setAllTeacherCoursePreferences",
      "outputs": [],
      "stateMutability": "nonpayable",
      "type": "function"
    },
    {
      "inputs": [
        {
          "internalType": "uint256",
          "name": "teacherId",
          "type": "uint256"
        },
        {
          "internalType": "uint256",
          "name": "courseId",
          "type": "uint256"
        },
        {
          "internalType": "uint256",
          "name": "_preference",
          "type": "uint256"
        }
      ],
      "name": "setTeacherCoursePreferences",
      "outputs": [],
      "stateMutability": "nonpayable",
      "type": "function"
    },
    {
      "inputs": [
        {
          "internalType": "address",
          "name": "agentAddress",
          "type": "address"
        },
        {
          "internalType": "uint256",
          "name": "_agentId",
          "type": "uint256"
        }
      ],
      "name": "setAgentId",
      "outputs": [],
      "stateMutability": "nonpayable",
      "type": "function"
    },
    {
      "inputs": [
        {
          "internalType": "uint256",
          "name": "agentId",
          "type": "uint256"
        }
      ],
      "name": "removeAgent",
      "outputs": [],
      "stateMutability": "nonpayable",
      "type": "function"
    },
    {
      "inputs": [
        {
          "internalType": "uint256",
          "name": "agentId",
          "type": "uint256"
        },
        {
          "internalType": "string",
          "name": "_name",
          "type": "string"
        }
      ],
      "name": "setAgentName",
      "outputs": [],
      "stateMutability": "nonpayable",
      "type": "function"
    },
    {
      "inputs": [
        {
          "internalType": "uint256",
          "name": "agentId",
          "type": "uint256"
        },
        {
          "internalType": "address",
          "name": "_agentAddress",
          "type": "address"
        }
      ],
      "name": "setAgentAddress",
      "outputs": [],
      "stateMutability": "nonpayable",
      "type": "function"
    },
    {
      "inputs": [
        {
          "internalType": "uint256",
          "name": "agentId",
          "type": "uint256"
        },
        {
          "internalType": "uint256",
          "name": "_assignedCourses",
          "type": "uint256"
        }
      ],
      "name": "addAgentAssignedCourses",
      "outputs": [],
      "stateMutability": "nonpayable",
      "type": "function"
    },
    {
      "inputs": [
        {
          "internalType": "uint256",
          "name": "agentId",
          "type": "uint256"
        },
        {
          "internalType": "uint256",
          "name": "_assignedCourses",
          "type": "uint256"
        }
      ],
      "name": "removeAgentAssignedCourses",
      "outputs": [],
      "stateMutability": "nonpayable",
      "type": "function"
    },
    {
      "inputs": [
        {
          "internalType": "uint256",
          "name": "agentId",
          "type": "uint256"
        },
        {
          "internalType": "uint256",
          "name": "_courseId",
          "type": "uint256"
        },
        {
          "internalType": "uint256",
          "name": "_suitability",
          "type": "uint256"
        }
      ],
      "name": "setAgentCourseSuitability",
      "outputs": [],
      "stateMutability": "nonpayable",
      "type": "function"
    },
    {
      "inputs": [
        {
          "internalType": "uint256",
          "name": "agentId",
          "type": "uint256"
        },
        {
          "internalType": "uint256[]",
          "name": "_suitabilities",
          "type": "uint256[]"
        }
      ],
      "name": "setAllAgentCourseSuitability",
      "outputs": [],
      "stateMutability": "nonpayable",
      "type": "function"
    },
    {
      "inputs": [
        {
          "internalType": "address",
          "name": "classAddress",
          "type": "address"
        },
        {
          "internalType": "uint256",
          "name": "_id",
          "type": "uint256"
        }
      ],
      "name": "setClassId",
      "outputs": [],
      "stateMutability": "nonpayable",
      "type": "function"
    },
    {
      "inputs": [
        {
          "internalType": "uint256",
          "name": "classId",
          "type": "uint256"
        }
      ],
      "name": "removeClass",
      "outputs": [],
      "stateMutability": "nonpayable",
      "type": "function"
    },
    {
      "inputs": [
        {
          "internalType": "uint256",
          "name": "courseId",
          "type": "uint256"
        }
      ],
      "name": "setCourseId",
      "outputs": [],
      "stateMutability": "nonpayable",
      "type": "function"
    },
    {
      "inputs": [
        {
          "internalType": "uint256",
          "name": "courseId",
          "type": "uint256"
        }
      ],
      "name": "removeCourse",
      "outputs": [],
      "stateMutability": "nonpayable",
      "type": "function"
    },
    {
      "inputs": [
        {
          "internalType": "uint256",
          "name": "courseId",
          "type": "uint256"
        },
        {
          "internalType": "string",
          "name": "_name",
          "type": "string"
        }
      ],
      "name": "setCourseName",
      "outputs": [],
      "stateMutability": "nonpayable",
      "type": "function"
    },
    {
      "inputs": [
        {
          "internalType": "uint256",
          "name": "courseId",
          "type": "uint256"
        },
        {
          "internalType": "uint256",
          "name": "_importance",
          "type": "uint256"
        }
      ],
      "name": "setCourseImportance",
      "outputs": [],
      "stateMutability": "nonpayable",
      "type": "function"
    },
    {
      "inputs": [
        {
          "internalType": "uint256[]",
          "name": "_importances",
          "type": "uint256[]"
        }
      ],
      "name": "setAllCourseImportance",
      "outputs": [],
      "stateMutability": "nonpayable",
      "type": "function"
    },
    {
      "inputs": [
        {
          "internalType": "uint256",
          "name": "courseId",
          "type": "uint256"
        },
        {
          "internalType": "uint256",
          "name": "_teacherId",
          "type": "uint256"
        }
      ],
      "name": "addCourseAssignedTeacherId",
      "outputs": [],
      "stateMutability": "nonpayable",
      "type": "function"
    },
    {
      "inputs": [
        {
          "internalType": "uint256",
          "name": "courseId",
          "type": "uint256"
        },
        {
          "internalType": "uint256",
          "name": "_agentId",
          "type": "uint256"
        }
      ],
      "name": "addCourseAssignedAgentId",
      "outputs": [],
      "stateMutability": "nonpayable",
      "type": "function"
    },
    {
      "inputs": [
        {
          "internalType": "uint256",
          "name": "courseId",
          "type": "uint256"
        },
        {
          "internalType": "uint256",
          "name": "_teacherId",
          "type": "uint256"
        }
      ],
      "name": "removeCourseAssignedTeacherId",
      "outputs": [],
      "stateMutability": "nonpayable",
      "type": "function"
    },
    {
      "inputs": [
        {
          "internalType": "uint256",
          "name": "courseId",
          "type": "uint256"
        },
        {
          "internalType": "uint256",
          "name": "_agentId",
          "type": "uint256"
        }
      ],
      "name": "removeCourseAssignedAgentId",
      "outputs": [],
      "stateMutability": "nonpayable",
      "type": "function"
    },
    {
      "inputs": [
        {
          "internalType": "uint256",
          "name": "courseId",
          "type": "uint256"
        },
        {
          "internalType": "bool",
          "name": "_isAgentSuitable",
          "type": "bool"
        }
      ],
      "name": "setCourseIsAgentSuitable",
      "outputs": [],
      "stateMutability": "nonpayable",
      "type": "function"
    },
    {
      "inputs": [
        {
          "internalType": "uint256",
          "name": "_teacherCount",
          "type": "uint256"
        }
      ],
      "name": "setTeacherCount",
      "outputs": [],
      "stateMutability": "nonpayable",
      "type": "function"
    },
    {
      "inputs": [
        {
          "internalType": "uint256",
          "name": "_agentCount",
          "type": "uint256"
        }
      ],
      "name": "setAgentCount",
      "outputs": [],
      "stateMutability": "nonpayable",
      "type": "function"
    },
    {
      "inputs": [
        {
          "internalType": "uint256",
          "name": "_classCount",
          "type": "uint256"
        }
      ],
      "name": "setClassCount",
      "outputs": [],
      "stateMutability": "nonpayable",
      "type": "function"
    },
    {
      "inputs": [
        {
          "internalType": "uint256",
          "name": "_courseCount",
          "type": "uint256"
        }
      ],
      "name": "setCourseCount",
      "outputs": [],
      "stateMutability": "nonpayable",
      "type": "function"
    },
    {
      "inputs": [
        {
          "internalType": "uint256",
          "name": "_teacherId",
          "type": "uint256"
        },
        {
          "internalType": "uint256",
          "name": "courseId",
          "type": "uint256"
        }
      ],
      "name": "getTeacherSuitability",
      "outputs": [
        {
          "internalType": "uint256",
          "name": "",
          "type": "uint256"
        }
      ],
      "stateMutability": "view",
      "type": "function",
      "constant": true
    },
    {
      "inputs": [
        {
          "internalType": "uint256",
          "name": "_agentId",
          "type": "uint256"
        },
        {
          "internalType": "uint256",
          "name": "courseId",
          "type": "uint256"
        }
      ],
      "name": "getAgentSuitability",
      "outputs": [
        {
          "internalType": "uint256",
          "name": "",
          "type": "uint256"
        }
      ],
      "stateMutability": "view",
      "type": "function",
      "constant": true
    },
    {
      "inputs": [
        {
          "internalType": "uint256",
          "name": "_teacherId",
          "type": "uint256"
        },
        {
          "internalType": "uint256",
          "name": "courseId",
          "type": "uint256"
        }
      ],
      "name": "getPreference",
      "outputs": [
        {
          "internalType": "uint256",
          "name": "",
          "type": "uint256"
        }
      ],
      "stateMutability": "view",
      "type": "function",
      "constant": true
    },
    {
      "inputs": [
        {
          "internalType": "uint256",
          "name": "_teacherId",
          "type": "uint256"
        }
      ],
      "name": "getTeacherAssignedCourses",
      "outputs": [
        {
          "internalType": "uint256[]",
          "name": "",
          "type": "uint256[]"
        }
      ],
      "stateMutability": "view",
      "type": "function",
      "constant": true
    },
    {
      "inputs": [
        {
          "internalType": "uint256",
          "name": "_agentId",
          "type": "uint256"
        }
      ],
      "name": "getAgentAssignedCourses",
      "outputs": [
        {
          "internalType": "uint256[]",
          "name": "",
          "type": "uint256[]"
        }
      ],
      "stateMutability": "view",
      "type": "function",
      "constant": true
    },
    {
      "inputs": [
        {
          "internalType": "uint256",
          "name": "_courseId",
          "type": "uint256"
        }
      ],
      "name": "getCoursesAssignedTeacher",
      "outputs": [
        {
          "internalType": "uint256[]",
          "name": "",
          "type": "uint256[]"
        }
      ],
      "stateMutability": "view",
      "type": "function",
      "constant": true
    },
    {
      "inputs": [
        {
          "internalType": "uint256",
          "name": "_courseId",
          "type": "uint256"
        }
      ],
      "name": "getCoursesAssignedAgent",
      "outputs": [
        {
          "internalType": "uint256[]",
          "name": "",
          "type": "uint256[]"
        }
      ],
      "stateMutability": "view",
      "type": "function",
      "constant": true
    },
    {
      "inputs": [],
      "name": "getTeacherIds",
      "outputs": [
        {
          "internalType": "uint256[]",
          "name": "",
          "type": "uint256[]"
        }
      ],
      "stateMutability": "view",
      "type": "function",
      "constant": true
    },
    {
      "inputs": [],
      "name": "getAgentIds",
      "outputs": [
        {
          "internalType": "uint256[]",
          "name": "",
          "type": "uint256[]"
        }
      ],
      "stateMutability": "view",
      "type": "function",
      "constant": true
    },
    {
      "inputs": [],
      "name": "getCourseIds",
      "outputs": [
        {
          "internalType": "uint256[]",
          "name": "",
          "type": "uint256[]"
        }
      ],
      "stateMutability": "view",
      "type": "function",
      "constant": true
    },
    {
      "inputs": [],
      "name": "getClassIds",
      "outputs": [
        {
          "internalType": "uint256[]",
          "name": "",
          "type": "uint256[]"
        }
      ],
      "stateMutability": "view",
      "type": "function",
      "constant": true
    }
  ],
  "bytecode": "0x608060405234801561001057600080fd5b50613754806100206000396000f3fe608060405234801561001057600080fd5b50600436106103ba5760003560e01c80639709ee01116101f4578063cddd6c631161011a578063e20b3405116100ad578063ebacebe41161007c578063ebacebe414610b71578063ee196ee214610ba1578063f0f2efd814610bbd578063fc09e9d014610bd9576103ba565b8063e20b340514610ad9578063e40af03614610af5578063e52505d814610b11578063e8a2dc2f14610b41576103ba565b8063dd035765116100e9578063dd03576514610a69578063deb9f76a14610a85578063df3addfa14610aa1578063e204b10214610abd576103ba565b8063cddd6c63146109bd578063ce64bf9b146109d9578063d4e57ff014610a09578063dcfa705714610a39576103ba565b8063b150876011610192578063bd1602d111610161578063bd1602d11461094d578063bfb9d44c14610969578063c318fe5f14610985578063cb854045146109a1576103ba565b8063b1508760146108c5578063b7dc1284146108e3578063bb69df7214610901578063bca24bd41461091d576103ba565b8063a549e416116101ce578063a549e41614610853578063a7ab84721461086f578063ab9963171461088b578063ad3a6ad4146108a9576103ba565b80639709ee01146107eb57806397e92d521461081b5780639e12237714610837576103ba565b806356e76058116102e457806372ab4e9611610277578063851580a711610246578063851580a71461073c57806386875ea81461076c57806391c89deb1461078857806396f979d2146107b8576103ba565b806372ab4e96146106b857806372c30f45146106d45780637fa7e04d146106f057806382ff0a5a1461070c576103ba565b80636798bad9116102b35780636798bad9146106485780636e428d2d146106645780636fcf4f9614610680578063700ed28b1461069c576103ba565b806356e76058146105c25780635953faff146105f25780635e383d461461060e578063660551591461062a576103ba565b806334ac0b401161035c5780634b974df71161032b5780634b974df7146105395780634d27e912146105555780634d65235014610571578063513856c81461058f576103ba565b806334ac0b401461049b5780633abdb63d146104cf57806346be3136146104eb578063494e237114610509576103ba565b80631dd86f90116103985780631dd86f90146104295780631fe76a6c146104455780632359b7b8146104615780632b0816ac1461047f576103ba565b80630f7f13cf146103bf5780630fa1c271146103ef57806318860d371461040b575b600080fd5b6103d960048036038101906103d49190612bcd565b610bf5565b6040516103e691906130df565b60405180910390f35b61040960048036038101906104049190612df0565b610c0d565b005b610413610c4e565b604051610420919061301d565b60405180910390f35b610443600480360381019061043e9190612e30565b610ca6565b005b61045f600480360381019061045a9190612e30565b610d59565b005b610469610d8a565b604051610476919061301d565b60405180910390f35b61049960048036038101906104949190612c83565b610de2565b005b6104b560048036038101906104b09190612c83565b610e29565b6040516104c6959493929190613146565b60405180910390f35b6104e960048036038101906104e49190612c83565b610f07565b005b6104f3610fef565b60405161050091906130df565b60405180910390f35b610523600480360381019061051e9190612c83565b610ff5565b60405161053091906130df565b60405180910390f35b610553600480360381019061054e9190612df0565b611019565b005b61056f600480360381019061056a9190612e30565b6111b3565b005b6105796111e4565b604051610586919061301d565b60405180910390f35b6105a960048036038101906105a49190612c83565b61123c565b6040516105b994939291906130fa565b60405180910390f35b6105dc60048036038101906105d79190612c83565b611314565b6040516105e991906130df565b60405180910390f35b61060c60048036038101906106079190612c3a565b611338565b005b61062860048036038101906106239190612bfa565b6113fa565b005b61063261146b565b60405161063f91906130df565b60405180910390f35b610662600480360381019061065d9190612c83565b611471565b005b61067e60048036038101906106799190612df0565b61147b565b005b61069a60048036038101906106959190612c83565b611615565b005b6106b660048036038101906106b19190612df0565b61177f565b005b6106d260048036038101906106cd9190612df0565b6117c0565b005b6106ee60048036038101906106e99190612c83565b611801565b005b61070a60048036038101906107059190612d90565b6118cd565b005b61072660048036038101906107219190612c83565b6118f8565b604051610733919061301d565b60405180910390f35b61075660048036038101906107519190612df0565b611966565b60405161076391906130df565b60405180910390f35b61078660048036038101906107819190612df0565b611998565b005b6107a2600480360381019061079d9190612c83565b611b32565b6040516107af919061301d565b60405180910390f35b6107d260048036038101906107cd9190612c83565b611ba0565b6040516107e294939291906131a0565b60405180910390f35b61080560048036038101906108009190612df0565b611c65565b60405161081291906130df565b60405180910390f35b61083560048036038101906108309190612cf0565b611c97565b005b610851600480360381019061084c9190612d90565b611def565b005b61086d60048036038101906108689190612bfa565b611e1a565b005b61088960048036038101906108849190612d90565b611ea5565b005b610893611f52565b6040516108a091906130df565b60405180910390f35b6108c360048036038101906108be9190612cf0565b611f58565b005b6108cd6120b0565b6040516108da919061301d565b60405180910390f35b6108eb612108565b6040516108f891906130df565b60405180910390f35b61091b60048036038101906109169190612df0565b61210e565b005b61093760048036038101906109329190612c83565b6121af565b60405161094491906130df565b60405180910390f35b61096760048036038101906109629190612c83565b6121d3565b005b610983600480360381019061097e9190612bfa565b6121dd565b005b61099f600480360381019061099a9190612cb0565b612269565b005b6109bb60048036038101906109b69190612d50565b612344565b005b6109d760048036038101906109d29190612cb0565b612376565b005b6109f360048036038101906109ee9190612c83565b6123cf565b604051610a00919061301d565b60405180910390f35b610a236004803603810190610a1e9190612bcd565b61243d565b604051610a3091906130df565b60405180910390f35b610a536004803603810190610a4e9190612c83565b612455565b604051610a6091906130df565b60405180910390f35b610a836004803603810190610a7e9190612c83565b612479565b005b610a9f6004803603810190610a9a9190612c83565b612483565b005b610abb6004803603810190610ab69190612c83565b61248d565b005b610ad76004803603810190610ad29190612df0565b612559565b005b610af36004803603810190610aee9190612df0565b612578565b005b610b0f6004803603810190610b0a9190612df0565b612619565b005b610b2b6004803603810190610b269190612c83565b6127b3565b604051610b38919061301d565b60405180910390f35b610b5b6004803603810190610b569190612df0565b612821565b604051610b6891906130df565b60405180910390f35b610b8b6004803603810190610b869190612bcd565b612853565b604051610b9891906130df565b60405180910390f35b610bbb6004803603810190610bb69190612df0565b61286b565b005b610bd76004803603810190610bd29190612cf0565b61288a565b005b610bf36004803603810190610bee9190612df0565b612960565b005b60006020528060005260406000206000915090505481565b600560008381526020019081526020016000206003018190806001815401808255809150506001900390600052602060002001600090919091909150555050565b6060600d805480602002602001604051908101604052809291908181526020018280548015610c9c57602002820191906000526020600020905b815481526020019060010190808311610c88575b5050505050905090565b60008060003373ffffffffffffffffffffffffffffffffffffffff1673ffffffffffffffffffffffffffffffffffffffff168152602001908152602001600020541415610d28576040517f08c379a0000000000000000000000000000000000000000000000000000000008152600401610d1f9061309f565b60405180910390fd5b8060036000858152602001908152602001600020600701600084815260200190815260200160002081905550505050565b8060036000858152602001908152602001600020600601600084815260200190815260200160002081905550505050565b6060600c805480602002602001604051908101604052809291908181526020018280548015610dd857602002820191906000526020600020905b815481526020019060010190808311610dc4575b5050505050905090565b806005600083815260200190815260200160002060000181905550600c81908060018154018082558091505060019003906000526020600020016000909190919091505550565b6003602052806000526040600020600091509050806000015490806001018054610e5290613341565b80601f0160208091040260200160405190810160405280929190818152602001828054610e7e90613341565b8015610ecb5780601f10610ea057610100808354040283529160200191610ecb565b820191906000526020600020905b815481529060010190602001808311610eae57829003601f168201915b5050505050908060020160009054906101000a900473ffffffffffffffffffffffffffffffffffffffff16908060040154908060050154905085565b6000600460008381526020019081526020016000206000018190555060005b600b80549050811015610feb5781600b8281548110610f4857610f4761347a565b5b90600052602060002001541415610fd857600b6001600b80549050610f6d9190613292565b81548110610f7e57610f7d61347a565b5b9060005260206000200154600b8281548110610f9d57610f9c61347a565b5b9060005260206000200181905550600b805480610fbd57610fbc61344b565b5b60019003818190600052602060002001600090559055610feb565b8080610fe3906133a4565b915050610f26565b5050565b60065481565b600c818154811061100557600080fd5b906000526020600020016000915090505481565b60008080600090505b600360008681526020019081526020016000206003018054905081101561109c578360036000878152602001908152602001600020600301828154811061106c5761106b61347a565b5b90600052602060002001541415611089576001925080915061109c565b8080611094906133a4565b915050611022565b5081156111725760036000858152602001908152602001600020600301600160036000878152602001908152602001600020600301805490506110df9190613292565b815481106110f0576110ef61347a565b5b90600052602060002001546003600086815260200190815260200160002060030182815481106111235761112261347a565b5b9060005260206000200181905550600360008581526020019081526020016000206003018054806111575761115661344b565b5b600190038181906000526020600020016000905590556111ad565b6040517f08c379a00000000000000000000000000000000000000000000000000000000081526004016111a49061305f565b60405180910390fd5b50505050565b8060046000858152602001908152602001600020600501600084815260200190815260200160002081905550505050565b6060600a80548060200260200160405190810160405280929190818152602001828054801561123257602002820191906000526020600020905b81548152602001906001019080831161121e575b5050505050905090565b600460205280600052604060002060009150905080600001549080600101805461126590613341565b80601f016020809104026020016040519081016040528092919081815260200182805461129190613341565b80156112de5780601f106112b3576101008083540402835291602001916112de565b820191906000526020600020905b8154815290600101906020018083116112c157829003601f168201915b5050505050908060020160009054906101000a900473ffffffffffffffffffffffffffffffffffffffff16908060030154905084565b600b818154811061132457600080fd5b906000526020600020016000915090505481565b600c80549050815114611380576040517f08c379a00000000000000000000000000000000000000000000000000000000081526004016113779061307f565b60405180910390fd5b60005b600c805490508110156113f6578181815181106113a3576113a261347a565b5b602002602001015160056000600c84815481106113c3576113c261347a565b5b906000526020600020015481526020019081526020016000206002018190555080806113ee906133a4565b915050611383565b5050565b80600260008473ffffffffffffffffffffffffffffffffffffffff1673ffffffffffffffffffffffffffffffffffffffff16815260200190815260200160002081905550600d8190806001815401808255809150506001900390600052602060002001600090919091909150555050565b60095481565b8060068190555050565b60008080600090505b60056000868152602001908152602001600020600301805490508110156114fe57836005600087815260200190815260200160002060030182815481106114ce576114cd61347a565b5b906000526020600020015414156114eb57600192508091506114fe565b80806114f6906133a4565b915050611484565b5081156115d45760056000858152602001908152602001600020600301600160056000878152602001908152602001600020600301805490506115419190613292565b815481106115525761155161347a565b5b90600052602060002001546005600086815260200190815260200160002060030182815481106115855761158461347a565b5b9060005260206000200181905550600560008581526020019081526020016000206003018054806115b9576115b861344b565b5b6001900381819060005260206000200160009055905561160f565b6040517f08c379a00000000000000000000000000000000000000000000000000000000081526004016116069061305f565b60405180910390fd5b50505050565b60008060003373ffffffffffffffffffffffffffffffffffffffff1673ffffffffffffffffffffffffffffffffffffffff168152602001908152602001600020541415611697576040517f08c379a000000000000000000000000000000000000000000000000000000000815260040161168e9061309f565b60405180910390fd5b6000600360008381526020019081526020016000206000018190555060005b600a8054905081101561177b5781600a82815481106116d8576116d761347a565b5b9060005260206000200154141561176857600a6001600a805490506116fd9190613292565b8154811061170e5761170d61347a565b5b9060005260206000200154600a828154811061172d5761172c61347a565b5b9060005260206000200181905550600a80548061174d5761174c61344b565b5b6001900381819060005260206000200160009055905561177b565b8080611773906133a4565b9150506116b6565b5050565b600360008381526020019081526020016000206003018190806001815401808255809150506001900390600052602060002001600090919091909150555050565b600460008381526020019081526020016000206004018190806001815401808255809150506001900390600052602060002001600090919091909150555050565b60005b600d805490508110156118c95781600d82815481106118265761182561347a565b5b906000526020600020015414156118b657600d6001600d8054905061184b9190613292565b8154811061185c5761185b61347a565b5b9060005260206000200154600d828154811061187b5761187a61347a565b5b9060005260206000200181905550600d80548061189b5761189a61344b565b5b600190038181906000526020600020016000905590556118c9565b80806118c1906133a4565b915050611804565b5050565b81816004600086815260200190815260200160002060010191906118f29291906129a1565b50505050565b60606005600083815260200190815260200160002060030180548060200260200160405190810160405280929190818152602001828054801561195a57602002820191906000526020600020905b815481526020019060010190808311611946575b50505050509050919050565b600060036000848152602001908152602001600020600701600083815260200190815260200160002054905092915050565b60008080600090505b6005600086815260200190815260200160002060040180549050811015611a1b57836005600087815260200190815260200160002060040182815481106119eb576119ea61347a565b5b90600052602060002001541415611a085760019250809150611a1b565b8080611a13906133a4565b9150506119a1565b508115611af1576005600085815260200190815260200160002060040160016005600087815260200190815260200160002060040180549050611a5e9190613292565b81548110611a6f57611a6e61347a565b5b9060005260206000200154600560008681526020019081526020016000206004018281548110611aa257611aa161347a565b5b906000526020600020018190555060056000858152602001908152602001600020600401805480611ad657611ad561344b565b5b60019003818190600052602060002001600090559055611b2c565b6040517f08c379a0000000000000000000000000000000000000000000000000000000008152600401611b239061305f565b60405180910390fd5b50505050565b606060056000838152602001908152602001600020600401805480602002602001604051908101604052809291908181526020018280548015611b9457602002820191906000526020600020905b815481526020019060010190808311611b80575b50505050509050919050565b6005602052806000526040600020600091509050806000015490806001018054611bc990613341565b80601f0160208091040260200160405190810160405280929190818152602001828054611bf590613341565b8015611c425780601f10611c1757610100808354040283529160200191611c42565b820191906000526020600020905b815481529060010190602001808311611c2557829003601f168201915b5050505050908060020154908060050160009054906101000a900460ff16905084565b600060046000848152602001908152602001600020600501600083815260200190815260200160002054905092915050565b60008060003373ffffffffffffffffffffffffffffffffffffffff1673ffffffffffffffffffffffffffffffffffffffff168152602001908152602001600020541415611d19576040517f08c379a0000000000000000000000000000000000000000000000000000000008152600401611d109061309f565b60405180910390fd5b600c805490508282905014611d63576040517f08c379a0000000000000000000000000000000000000000000000000000000008152600401611d5a906130bf565b60405180910390fd5b60005b600c80549050811015611de957828282818110611d8657611d8561347a565b5b90506020020135600360008681526020019081526020016000206006016000600c8481548110611db957611db861347a565b5b90600052602060002001548152602001908152602001600020819055508080611de1906133a4565b915050611d66565b50505050565b8181600560008681526020019081526020016000206001019190611e149291906129a1565b50505050565b806000808473ffffffffffffffffffffffffffffffffffffffff1673ffffffffffffffffffffffffffffffffffffffff16815260200190815260200160002081905550806003600083815260200190815260200160002060000181905550600a8190806001815401808255809150506001900390600052602060002001600090919091909150555050565b60008060003373ffffffffffffffffffffffffffffffffffffffff1673ffffffffffffffffffffffffffffffffffffffff168152602001908152602001600020541415611f27576040517f08c379a0000000000000000000000000000000000000000000000000000000008152600401611f1e9061309f565b60405180910390fd5b8181600360008681526020019081526020016000206001019190611f4c9291906129a1565b50505050565b60085481565b60008060003373ffffffffffffffffffffffffffffffffffffffff1673ffffffffffffffffffffffffffffffffffffffff168152602001908152602001600020541415611fda576040517f08c379a0000000000000000000000000000000000000000000000000000000008152600401611fd19061309f565b60405180910390fd5b600c805490508282905014612024576040517f08c379a000000000000000000000000000000000000000000000000000000000815260040161201b9061303f565b60405180910390fd5b60005b600c805490508110156120aa578282828181106120475761204661347a565b5b90506020020135600360008681526020019081526020016000206007016000600c848154811061207a5761207961347a565b5b906000526020600020015481526020019081526020016000208190555080806120a2906133a4565b915050612027565b50505050565b6060600b8054806020026020016040519081016040528092919081815260200182805480156120fe57602002820191906000526020600020905b8154815260200190600101908083116120ea575b5050505050905090565b60075481565b60008060003373ffffffffffffffffffffffffffffffffffffffff1673ffffffffffffffffffffffffffffffffffffffff168152602001908152602001600020541415612190576040517f08c379a00000000000000000000000000000000000000000000000000000000081526004016121879061309f565b60405180910390fd5b8060036000848152602001908152602001600020600401819055505050565b600d81815481106121bf57600080fd5b906000526020600020016000915090505481565b8060098190555050565b80600160008473ffffffffffffffffffffffffffffffffffffffff1673ffffffffffffffffffffffffffffffffffffffff16815260200190815260200160002081905550806004600083815260200190815260200160002060000181905550600b8190806001815401808255809150506001900390600052602060002001600090919091909150555050565b60008060003373ffffffffffffffffffffffffffffffffffffffff1673ffffffffffffffffffffffffffffffffffffffff1681526020019081526020016000205414156122eb576040517f08c379a00000000000000000000000000000000000000000000000000000000081526004016122e29061309f565b60405180910390fd5b806003600084815260200190815260200160002060020160006101000a81548173ffffffffffffffffffffffffffffffffffffffff021916908373ffffffffffffffffffffffffffffffffffffffff1602179055505050565b806005600084815260200190815260200160002060050160006101000a81548160ff0219169083151502179055505050565b806004600084815260200190815260200160002060020160006101000a81548173ffffffffffffffffffffffffffffffffffffffff021916908373ffffffffffffffffffffffffffffffffffffffff1602179055505050565b60606004600083815260200190815260200160002060040180548060200260200160405190810160405280929190818152602001828054801561243157602002820191906000526020600020905b81548152602001906001019080831161241d575b50505050509050919050565b60026020528060005260406000206000915090505481565b600a818154811061246557600080fd5b906000526020600020016000915090505481565b8060088190555050565b8060078190555050565b60005b600c805490508110156125555781600c82815481106124b2576124b161347a565b5b9060005260206000200154141561254257600c6001600c805490506124d79190613292565b815481106124e8576124e761347a565b5b9060005260206000200154600c82815481106125075761250661347a565b5b9060005260206000200181905550600c8054806125275761252661344b565b5b60019003818190600052602060002001600090559055612555565b808061254d906133a4565b915050612490565b5050565b8060056000848152602001908152602001600020600201819055505050565b60008060003373ffffffffffffffffffffffffffffffffffffffff1673ffffffffffffffffffffffffffffffffffffffff1681526020019081526020016000205414156125fa576040517f08c379a00000000000000000000000000000000000000000000000000000000081526004016125f19061309f565b60405180910390fd5b8060036000848152602001908152602001600020600501819055505050565b60008080600090505b600460008681526020019081526020016000206004018054905081101561269c578360046000878152602001908152602001600020600401828154811061266c5761266b61347a565b5b90600052602060002001541415612689576001925080915061269c565b8080612694906133a4565b915050612622565b5081156127725760046000858152602001908152602001600020600401600160046000878152602001908152602001600020600401805490506126df9190613292565b815481106126f0576126ef61347a565b5b90600052602060002001546004600086815260200190815260200160002060040182815481106127235761272261347a565b5b9060005260206000200181905550600460008581526020019081526020016000206004018054806127575761275661344b565b5b600190038181906000526020600020016000905590556127ad565b6040517f08c379a00000000000000000000000000000000000000000000000000000000081526004016127a49061305f565b60405180910390fd5b50505050565b60606003600083815260200190815260200160002060030180548060200260200160405190810160405280929190818152602001828054801561281557602002820191906000526020600020905b815481526020019060010190808311612801575b50505050509050919050565b600060036000848152602001908152602001600020600601600083815260200190815260200160002054905092915050565b60016020528060005260406000206000915090505481565b8060046000848152602001908152602001600020600301819055505050565b600c8054905082829050146128d4576040517f08c379a00000000000000000000000000000000000000000000000000000000081526004016128cb906130bf565b60405180910390fd5b60005b600c8054905081101561295a578282828181106128f7576128f661347a565b5b90506020020135600460008681526020019081526020016000206005016000600c848154811061292a5761292961347a565b5b90600052602060002001548152602001908152602001600020819055508080612952906133a4565b9150506128d7565b50505050565b600560008381526020019081526020016000206004018190806001815401808255809150506001900390600052602060002001600090919091909150555050565b8280546129ad90613341565b90600052602060002090601f0160209004810192826129cf5760008555612a16565b82601f106129e857803560ff1916838001178555612a16565b82800160010185558215612a16579182015b82811115612a155782358255916020019190600101906129fa565b5b509050612a239190612a27565b5090565b5b80821115612a40576000816000905550600101612a28565b5090565b6000612a57612a5284613211565b6131ec565b90508083825260208201905082856020860282011115612a7a57612a796134e2565b5b60005b85811015612aaa5781612a908882612bb8565b845260208401935060208301925050600181019050612a7d565b5050509392505050565b600081359050612ac3816136d9565b92915050565b60008083601f840112612adf57612ade6134dd565b5b8235905067ffffffffffffffff811115612afc57612afb6134d8565b5b602083019150836020820283011115612b1857612b176134e2565b5b9250929050565b600082601f830112612b3457612b336134dd565b5b8135612b44848260208601612a44565b91505092915050565b600081359050612b5c816136f0565b92915050565b60008083601f840112612b7857612b776134dd565b5b8235905067ffffffffffffffff811115612b9557612b946134d8565b5b602083019150836001820283011115612bb157612bb06134e2565b5b9250929050565b600081359050612bc781613707565b92915050565b600060208284031215612be357612be26134ec565b5b6000612bf184828501612ab4565b91505092915050565b60008060408385031215612c1157612c106134ec565b5b6000612c1f85828601612ab4565b9250506020612c3085828601612bb8565b9150509250929050565b600060208284031215612c5057612c4f6134ec565b5b600082013567ffffffffffffffff811115612c6e57612c6d6134e7565b5b612c7a84828501612b1f565b91505092915050565b600060208284031215612c9957612c986134ec565b5b6000612ca784828501612bb8565b91505092915050565b60008060408385031215612cc757612cc66134ec565b5b6000612cd585828601612bb8565b9250506020612ce685828601612ab4565b9150509250929050565b600080600060408486031215612d0957612d086134ec565b5b6000612d1786828701612bb8565b935050602084013567ffffffffffffffff811115612d3857612d376134e7565b5b612d4486828701612ac9565b92509250509250925092565b60008060408385031215612d6757612d666134ec565b5b6000612d7585828601612bb8565b9250506020612d8685828601612b4d565b9150509250929050565b600080600060408486031215612da957612da86134ec565b5b6000612db786828701612bb8565b935050602084013567ffffffffffffffff811115612dd857612dd76134e7565b5b612de486828701612b62565b92509250509250925092565b60008060408385031215612e0757612e066134ec565b5b6000612e1585828601612bb8565b9250506020612e2685828601612bb8565b9150509250929050565b600080600060608486031215612e4957612e486134ec565b5b6000612e5786828701612bb8565b9350506020612e6886828701612bb8565b9250506040612e7986828701612bb8565b9150509250925092565b6000612e8f8383612fff565b60208301905092915050565b612ea4816132c6565b82525050565b6000612eb58261324d565b612ebf8185613270565b9350612eca8361323d565b8060005b83811015612efb578151612ee28882612e83565b9750612eed83613263565b925050600181019050612ece565b5085935050505092915050565b612f11816132d8565b82525050565b6000612f2282613258565b612f2c8185613281565b9350612f3c81856020860161330e565b612f45816134f1565b840191505092915050565b6000612f5d606083613281565b9150612f6882613502565b606082019050919050565b6000612f80601083613281565b9150612f8b82613577565b602082019050919050565b6000612fa3602283613281565b9150612fae826135a0565b604082019050919050565b6000612fc6602f83613281565b9150612fd1826135ef565b604082019050919050565b6000612fe9606183613281565b9150612ff48261363e565b608082019050919050565b61300881613304565b82525050565b61301781613304565b82525050565b600060208201905081810360008301526130378184612eaa565b905092915050565b6000602082019050818103600083015261305881612f50565b9050919050565b6000602082019050818103600083015261307881612f73565b9050919050565b6000602082019050818103600083015261309881612f96565b9050919050565b600060208201905081810360008301526130b881612fb9565b9050919050565b600060208201905081810360008301526130d881612fdc565b9050919050565b60006020820190506130f4600083018461300e565b92915050565b600060808201905061310f600083018761300e565b81810360208301526131218186612f17565b90506131306040830185612e9b565b61313d606083018461300e565b95945050505050565b600060a08201905061315b600083018861300e565b818103602083015261316d8187612f17565b905061317c6040830186612e9b565b613189606083018561300e565b613196608083018461300e565b9695505050505050565b60006080820190506131b5600083018761300e565b81810360208301526131c78186612f17565b90506131d6604083018561300e565b6131e36060830184612f08565b95945050505050565b60006131f6613207565b90506132028282613373565b919050565b6000604051905090565b600067ffffffffffffffff82111561322c5761322b6134a9565b5b602082029050602081019050919050565b6000819050602082019050919050565b600081519050919050565b600081519050919050565b6000602082019050919050565b600082825260208201905092915050565b600082825260208201905092915050565b600061329d82613304565b91506132a883613304565b9250828210156132bb576132ba6133ed565b5b828203905092915050565b60006132d1826132e4565b9050919050565b60008115159050919050565b600073ffffffffffffffffffffffffffffffffffffffff82169050919050565b6000819050919050565b60005b8381101561332c578082015181840152602081019050613311565b8381111561333b576000848401525b50505050565b6000600282049050600182168061335957607f821691505b6020821081141561336d5761336c61341c565b5b50919050565b61337c826134f1565b810181811067ffffffffffffffff8211171561339b5761339a6134a9565b5b80604052505050565b60006133af82613304565b91507fffffffffffffffffffffffffffffffffffffffffffffffffffffffffffffffff8214156133e2576133e16133ed565b5b600182019050919050565b7f4e487b7100000000000000000000000000000000000000000000000000000000600052601160045260246000fd5b7f4e487b7100000000000000000000000000000000000000000000000000000000600052602260045260246000fd5b7f4e487b7100000000000000000000000000000000000000000000000000000000600052603160045260246000fd5b7f4e487b7100000000000000000000000000000000000000000000000000000000600052603260045260246000fd5b7f4e487b7100000000000000000000000000000000000000000000000000000000600052604160045260246000fd5b600080fd5b600080fd5b600080fd5b600080fd5b600080fd5b6000601f19601f8301169050919050565b7f5768656e2073657474696e672074686520707265666572656e6365206c65766560008201527f6c206f6620636f75727365732c206974206973206e656365737361727920746f60208201527f206861766520616e20657175616c206e756d626572206f6620636f7572736573604082015250565b7f436f75727365206e6f7420666f756e6400000000000000000000000000000000600082015250565b7f6d7573742075706461746520616c6c20636f7572736520737569746162696c6960008201527f7479000000000000000000000000000000000000000000000000000000000000602082015250565b7f4f6e6c7920726567697374657265642074656163686572732063616e2063616c60008201527f6c20746869732066756e6374696f6e0000000000000000000000000000000000602082015250565b7f5768656e2073657474696e672074686520737569746162696c697479206c657660008201527f656c206f6620636f75727365732c206974206973206e6563657373617279207460208201527f6f206861766520616e20657175616c206e756d626572206f6620636f7572736560408201527f7300000000000000000000000000000000000000000000000000000000000000606082015250565b6136e2816132c6565b81146136ed57600080fd5b50565b6136f9816132d8565b811461370457600080fd5b50565b61371081613304565b811461371b57600080fd5b5056fea2646970667358221220fd0131968abaf6309645da6ebf88d35545906783c03b8e20f1ac1473e449665064736f6c63430008070033",
  "immutableReferences": {},
  "source": "// SPDX-License-Identifier: MIT\r\npragma solidity ^0.8.7;\r\n\r\ncontract ICourseAllocation {\r\n    // \r\n    struct Teacher {\r\n        uint256 id;\r\n        string name;\r\n        address addr;\r\n        uint256[] assignedCourses;\r\n        uint256 suitabilityWeight;\r\n        uint256 value;\r\n        mapping(uint256 => uint256) courseSuitabilities;\r\n        mapping(uint256 => uint256) coursePreferences;\r\n    }\r\n\r\n    // \r\n    struct Agent {\r\n        uint256 id;\r\n        string name;\r\n        address addr;\r\n        uint256 value;\r\n        uint256[] assignedCourses;\r\n        mapping(uint256 => uint256) courseSuitabilities;\r\n    }\r\n\r\n    // \r\n    struct Course {\r\n        uint256 id;\r\n        string name;\r\n        uint256 importance;\r\n        uint256[] assignedTeacherId;\r\n        uint256[] assignedAgentId;\r\n        bool isAgentSuitable;\r\n    }\r\n\r\n    //  => ID\r\n    mapping(address => uint256) public addressToTeacherId;\r\n\r\n    //  => ID\r\n    mapping(address => uint256) public addressToAgentId;\r\n\r\n    //  => ID\r\n    mapping(address => uint256) public addressToClassId;\r\n\r\n    // ID => \r\n    mapping(uint256 => Teacher) public teachers;\r\n\r\n    // ID => \r\n    mapping(uint256 => Agent) public agents;\r\n\r\n    // ID => \r\n    mapping(uint256 => Course) public courses;\r\n\r\n    // ID\r\n    uint256 public teacherCount;\r\n\r\n    // ID\r\n    uint256 public agentCount;\r\n\r\n    // ID\r\n    uint256 public classCount;\r\n\r\n    // ID\r\n    uint256 public courseCount;\r\n\r\n    // ID\r\n    uint256[] public teacherIds;\r\n\r\n    // ID\r\n    uint256[] public agentIds;\r\n\r\n    // ID\r\n    uint256[] public courseIds;\r\n\r\n    // ID\r\n    uint256[] public classIds;\r\n\r\n    // \r\n    // event CourseImportanceSet(uint256 indexed courseId, uint256 importance);\r\n    // event SuitabilityUpdated(uint256 indexed courseId, uint256 suitability);\r\n    // event PreferenceUpdated(uint256 indexed teacherId, uint256 indexed courseId, uint256 preference);\r\n    // event ProposalCreated(uint256 proposalId, uint256 indexed courseId, uint256[] teacherIds); // \r\n    // event MachineProposal(uint256 proposalId, uint256 indexed courseId, uint256[] teacherIds, uint256[] teacherCounts); // \r\n    // event CourseAssignedToTeacher(uint256 indexed courseId, uint256 indexed teacherId); // \r\n\r\n    // \r\n    constructor() {}\r\n\r\n    // \r\n    modifier onlyTeacher() {\r\n        require(\r\n            addressToTeacherId[msg.sender] != 0,\r\n            \"Only registered teachers can call this function\"\r\n        );\r\n        _;\r\n    }\r\n\r\n    // ID\r\n    function setTeacherId(address teacherAddress, uint256 _TeacherId) public {\r\n        addressToTeacherId[teacherAddress] = _TeacherId;\r\n        teachers[_TeacherId].id = _TeacherId;\r\n        teacherIds.push(_TeacherId);\r\n    }\r\n\r\n    // \r\n    function removeTeacher(uint256 teacherId) public onlyTeacher {\r\n        teachers[teacherId].id = 0;\r\n        //  teacherIds  ID\r\n        for (uint256 i = 0; i < teacherIds.length; i++) {\r\n            if (teacherIds[i] == teacherId) {\r\n                //  ID \r\n                teacherIds[i] = teacherIds[teacherIds.length - 1];\r\n                // \r\n                teacherIds.pop();\r\n                break;\r\n            }\r\n        }\r\n    }\r\n\r\n    // \r\n    function setTeacherName(\r\n        uint256 teacherId,\r\n        string calldata _name\r\n    ) public onlyTeacher {\r\n        teachers[teacherId].name = _name;\r\n    }\r\n\r\n    // \r\n    function setTeacherAddress(\r\n        uint256 teacherId,\r\n        address _teacherAddress\r\n    ) public onlyTeacher {\r\n        teachers[teacherId].addr = _teacherAddress;\r\n    }\r\n\r\n    // \r\n    function addTeacherAssignedCourses(\r\n        uint256 teacherId,\r\n        uint256 _assignedCourses\r\n    ) public {\r\n        teachers[teacherId].assignedCourses.push(_assignedCourses);\r\n    }\r\n\r\n    // \r\n    function removeTeacherAssignedCourses(\r\n        uint256 teacherId,\r\n        uint256 _assignedCourses\r\n    ) public {\r\n        bool found = false;\r\n        uint256 indexToRemove;\r\n\r\n        //  ID \r\n        for (\r\n            uint256 i = 0;\r\n            i < teachers[teacherId].assignedCourses.length;\r\n            i++\r\n        ) {\r\n            if (teachers[teacherId].assignedCourses[i] == _assignedCourses) {\r\n                found = true;\r\n                indexToRemove = i;\r\n                break;\r\n            }\r\n        }\r\n\r\n        //  ID\r\n        if (found) {\r\n            // \r\n            teachers[teacherId].assignedCourses[indexToRemove] = teachers[\r\n                teacherId\r\n            ].assignedCourses[teachers[teacherId].assignedCourses.length - 1];\r\n            // \r\n            teachers[teacherId].assignedCourses.pop();\r\n        } else {\r\n            //  ID\r\n            revert(\"Course not found\");\r\n        }\r\n    }\r\n\r\n    // \r\n    function setTeacherSuitabilityWeight(\r\n        uint256 teacherId,\r\n        uint256 _suitabilityWeight\r\n    ) public onlyTeacher {\r\n        teachers[teacherId].suitabilityWeight = _suitabilityWeight;\r\n    }\r\n\r\n    // \r\n    function setTeacherValue(\r\n        uint256 teacherId,\r\n        uint256 _value\r\n    ) public onlyTeacher {\r\n        teachers[teacherId].value = _value;\r\n    }\r\n\r\n    // \r\n    function setAgentValue(uint256 agentId, uint256 _value) public {\r\n        agents[agentId].value = _value;\r\n    }\r\n\r\n    // \r\n    function setAllTeacherCourseSuitability(\r\n        uint256 teacherId,\r\n        uint256[] calldata _suitabilities\r\n    ) public onlyTeacher {\r\n        require(\r\n            _suitabilities.length == courseIds.length,\r\n            \"When setting the suitability level of courses, it is necessary to have an equal number of courses\"\r\n        );\r\n        for (\r\n            uint256 courseIndex = 0;\r\n            courseIndex < courseIds.length;\r\n            courseIndex++\r\n        ) {\r\n            teachers[teacherId].courseSuitabilities[\r\n                courseIds[courseIndex]\r\n            ] = _suitabilities[courseIndex];\r\n        }\r\n    }\r\n\r\n    // \r\n    function setTeacherCourseSuitability(\r\n        uint256 teacherId,\r\n        uint256 courseId,\r\n        uint256 _suitability\r\n    ) public {\r\n        teachers[teacherId].courseSuitabilities[courseId] = _suitability;\r\n    }\r\n\r\n    // \r\n    function setAllTeacherCoursePreferences(\r\n        uint256 teacherId,\r\n        uint256[] calldata _preferences\r\n    ) public onlyTeacher {\r\n        require(\r\n            _preferences.length == courseIds.length,\r\n            \"When setting the preference level of courses, it is necessary to have an equal number of courses\"\r\n        );\r\n        for (\r\n            uint256 courseIndex = 0;\r\n            courseIndex < courseIds.length;\r\n            courseIndex++\r\n        ) {\r\n            teachers[teacherId].coursePreferences[\r\n                courseIds[courseIndex]\r\n            ] = _preferences[courseIndex];\r\n        }\r\n    }\r\n\r\n    // \r\n    function setTeacherCoursePreferences(\r\n        uint256 teacherId,\r\n        uint256 courseId,\r\n        uint256 _preference\r\n    ) public onlyTeacher {\r\n        teachers[teacherId].coursePreferences[courseId] = _preference;\r\n    }\r\n\r\n    // ID\r\n    function setAgentId(address agentAddress, uint256 _agentId) public {\r\n        addressToAgentId[agentAddress] = _agentId;\r\n        agents[_agentId].id = _agentId;\r\n        agentIds.push(_agentId);\r\n    }\r\n\r\n    // \r\n    function removeAgent(uint256 agentId) public {\r\n        agents[agentId].id = 0;\r\n        //  agentIds  ID\r\n        for (uint256 i = 0; i < agentIds.length; i++) {\r\n            if (agentIds[i] == agentId) {\r\n                //  ID \r\n                agentIds[i] = agentIds[agentIds.length - 1];\r\n                // \r\n                agentIds.pop();\r\n                break;\r\n            }\r\n        }\r\n    }\r\n\r\n    // \r\n    function setAgentName(uint256 agentId, string calldata _name) public {\r\n        agents[agentId].name = _name;\r\n    }\r\n\r\n    // \r\n    function setAgentAddress(uint256 agentId, address _agentAddress) public {\r\n        agents[agentId].addr = _agentAddress;\r\n    }\r\n\r\n    // \r\n    function addAgentAssignedCourses(\r\n        uint256 agentId,\r\n        uint256 _assignedCourses\r\n    ) public {\r\n        agents[agentId].assignedCourses.push(_assignedCourses);\r\n    }\r\n\r\n    // \r\n    function removeAgentAssignedCourses(\r\n        uint256 agentId,\r\n        uint256 _assignedCourses\r\n    ) public {\r\n        bool found = false;\r\n        uint256 indexToRemove;\r\n\r\n        //  ID \r\n        for (uint256 i = 0; i < agents[agentId].assignedCourses.length; i++) {\r\n            if (agents[agentId].assignedCourses[i] == _assignedCourses) {\r\n                found = true;\r\n                indexToRemove = i;\r\n                break;\r\n            }\r\n        }\r\n\r\n        //  ID\r\n        if (found) {\r\n            // \r\n            agents[agentId].assignedCourses[indexToRemove] = agents[agentId]\r\n                .assignedCourses[agents[agentId].assignedCourses.length - 1];\r\n            // \r\n            agents[agentId].assignedCourses.pop();\r\n        } else {\r\n            //  ID\r\n            revert(\"Course not found\");\r\n        }\r\n    }\r\n\r\n    // \r\n    function setAgentCourseSuitability(\r\n        uint256 agentId,\r\n        uint256 _courseId,\r\n        uint256 _suitability\r\n    ) public {\r\n        agents[agentId].courseSuitabilities[_courseId] = _suitability;\r\n    }\r\n\r\n    // \r\n    function setAllAgentCourseSuitability(\r\n        uint256 agentId,\r\n        uint256[] calldata _suitabilities\r\n    ) public {\r\n        require(\r\n            _suitabilities.length == courseIds.length,\r\n            \"When setting the suitability level of courses, it is necessary to have an equal number of courses\"\r\n        );\r\n        for (\r\n            uint256 courseIndex = 0;\r\n            courseIndex < courseIds.length;\r\n            courseIndex++\r\n        ) {\r\n            agents[agentId].courseSuitabilities[\r\n                courseIds[courseIndex]\r\n            ] = _suitabilities[courseIndex];\r\n        }\r\n    }\r\n\r\n    // ID\r\n    function setClassId(address classAddress, uint256 _id) public {\r\n        addressToClassId[classAddress] = _id;\r\n        classIds.push(_id);\r\n    }\r\n\r\n    // \r\n    function removeClass(uint256 classId) public {\r\n        //  classIds  ID\r\n        for (uint256 i = 0; i < classIds.length; i++) {\r\n            if (classIds[i] == classId) {\r\n                //  ID \r\n                classIds[i] = classIds[classIds.length - 1];\r\n                // \r\n                classIds.pop();\r\n                break;\r\n            }\r\n        }\r\n    }\r\n\r\n    // ID\r\n    function setCourseId(uint256 courseId) public {\r\n        courses[courseId].id = courseId;\r\n        courseIds.push(courseId);\r\n    }\r\n\r\n    // \r\n    function removeCourse(uint256 courseId) public {\r\n        //  classIds  ID\r\n        for (uint256 i = 0; i < courseIds.length; i++) {\r\n            if (courseIds[i] == courseId) {\r\n                //  ID \r\n                courseIds[i] = courseIds[courseIds.length - 1];\r\n                // \r\n                courseIds.pop();\r\n                break;\r\n            }\r\n        }\r\n    }\r\n\r\n    // \r\n    function setCourseName(uint256 courseId, string calldata _name) public {\r\n        courses[courseId].name = _name;\r\n    }\r\n\r\n    // \r\n    function setCourseImportance(uint256 courseId, uint256 _importance) public {\r\n        courses[courseId].importance = _importance;\r\n    }\r\n\r\n    // \r\n    function setAllCourseImportance(uint256[] memory _importances) public {\r\n        require(\r\n            _importances.length == courseIds.length,\r\n            \"must update all course suitability\"\r\n        );\r\n        // \r\n        for (\r\n            uint256 courseIndex = 0;\r\n            courseIndex < courseIds.length;\r\n            courseIndex++\r\n        ) {\r\n            courses[courseIds[courseIndex]].importance = _importances[\r\n                courseIndex\r\n            ];\r\n        }\r\n    }\r\n\r\n    // ID\r\n    function addCourseAssignedTeacherId(\r\n        uint256 courseId,\r\n        uint256 _teacherId\r\n    ) public {\r\n        courses[courseId].assignedTeacherId.push(_teacherId);\r\n    }\r\n\r\n    // ID\r\n    function addCourseAssignedAgentId(\r\n        uint256 courseId,\r\n        uint256 _agentId\r\n    ) public {\r\n        courses[courseId].assignedAgentId.push(_agentId);\r\n    }\r\n\r\n    // \r\n    function removeCourseAssignedTeacherId(\r\n        uint256 courseId,\r\n        uint256 _teacherId\r\n    ) public {\r\n        bool found = false;\r\n        uint256 indexToRemove;\r\n\r\n        //  ID \r\n        for (\r\n            uint256 i = 0;\r\n            i < courses[courseId].assignedTeacherId.length;\r\n            i++\r\n        ) {\r\n            if (courses[courseId].assignedTeacherId[i] == _teacherId) {\r\n                found = true;\r\n                indexToRemove = i;\r\n                break;\r\n            }\r\n        }\r\n\r\n        //  ID\r\n        if (found) {\r\n            // \r\n            courses[courseId].assignedTeacherId[indexToRemove] = courses[\r\n                courseId\r\n            ].assignedTeacherId[courses[courseId].assignedTeacherId.length - 1];\r\n            // \r\n            courses[courseId].assignedTeacherId.pop();\r\n        } else {\r\n            //  ID\r\n            revert(\"Course not found\");\r\n        }\r\n    }\r\n\r\n    // \r\n    function removeCourseAssignedAgentId(\r\n        uint256 courseId,\r\n        uint256 _agentId\r\n    ) public {\r\n        bool found = false;\r\n        uint256 indexToRemove;\r\n\r\n        //  ID \r\n        for (uint256 i = 0; i < courses[courseId].assignedAgentId.length; i++) {\r\n            if (courses[courseId].assignedAgentId[i] == _agentId) {\r\n                found = true;\r\n                indexToRemove = i;\r\n                break;\r\n            }\r\n        }\r\n\r\n        //  ID\r\n        if (found) {\r\n            // \r\n            courses[courseId].assignedAgentId[indexToRemove] = courses[courseId]\r\n                .assignedAgentId[courses[courseId].assignedAgentId.length - 1];\r\n            // \r\n            courses[courseId].assignedAgentId.pop();\r\n        } else {\r\n            //  ID\r\n            revert(\"Course not found\");\r\n        }\r\n    }\r\n\r\n    // \r\n    function setCourseIsAgentSuitable(\r\n        uint256 courseId,\r\n        bool _isAgentSuitable\r\n    ) public {\r\n        courses[courseId].isAgentSuitable = _isAgentSuitable;\r\n    }\r\n\r\n    // \r\n    function setTeacherCount(uint256 _teacherCount) public {\r\n        teacherCount = _teacherCount;\r\n    }\r\n\r\n    // \r\n    function setAgentCount(uint256 _agentCount) public {\r\n        agentCount = _agentCount;\r\n    }\r\n\r\n    // \r\n    function setClassCount(uint256 _classCount) public {\r\n        classCount = _classCount;\r\n    }\r\n\r\n    // \r\n    function setCourseCount(uint256 _courseCount) public {\r\n        courseCount = _courseCount;\r\n    }\r\n\r\n    // \r\n    function getTeacherSuitability(\r\n        uint256 _teacherId,\r\n        uint256 courseId\r\n    ) public view returns (uint256) {\r\n        return teachers[_teacherId].courseSuitabilities[courseId];\r\n    }\r\n\r\n    // \r\n    function getAgentSuitability(\r\n        uint256 _agentId,\r\n        uint256 courseId\r\n    ) public view returns (uint256) {\r\n        return agents[_agentId].courseSuitabilities[courseId];\r\n    }\r\n\r\n    // \r\n    function getPreference(\r\n        uint256 _teacherId,\r\n        uint256 courseId\r\n    ) public view returns (uint256) {\r\n        return teachers[_teacherId].coursePreferences[courseId];\r\n    }\r\n\r\n    // \r\n    function getTeacherAssignedCourses(\r\n        uint256 _teacherId\r\n    ) public view returns (uint256[] memory) {\r\n        return teachers[_teacherId].assignedCourses;\r\n    }\r\n\r\n    // \r\n    function getAgentAssignedCourses(\r\n        uint256 _agentId\r\n    ) public view returns (uint256[] memory) {\r\n        return agents[_agentId].assignedCourses;\r\n    }\r\n\r\n    // \r\n    function getCoursesAssignedTeacher(\r\n        uint256 _courseId\r\n    ) public view returns (uint256[] memory) {\r\n        return courses[_courseId].assignedTeacherId;\r\n    }\r\n\r\n    // \r\n    function getCoursesAssignedAgent(\r\n        uint256 _courseId\r\n    ) public view returns (uint256[] memory) {\r\n        return courses[_courseId].assignedAgentId;\r\n    }\r\n\r\n    function getTeacherIds() public view returns (uint256[] memory) {\r\n        return teacherIds;\r\n    }\r\n\r\n    function getAgentIds() public view returns (uint256[] memory) {\r\n        return agentIds;\r\n    }\r\n\r\n    function getCourseIds() public view returns (uint256[] memory) {\r\n        return courseIds;\r\n    }\r\n\r\n    function getClassIds() public view returns (uint256[] memory) {\r\n        return classIds;\r\n    }\r\n}\r\n",
  "sourcePath": "E:\\dao\\327\\Course-allocation\\project\\contracts\\ICourseAllocation.sol",
  "compiler": {
    "name": "solc",
    "version": "0.8.7+commit.e28d00a7.Emscripten.clang"
  },
  "schemaVersion": "3.4.16",
  "updatedAt": "2025-03-27T12:34:38.538Z",
  "networkType": "ethereum",
  "devdoc": {
    "kind": "dev",
    "methods": {},
    "version": 1
  },
  "userdoc": {
    "kind": "user",
    "methods": {},
    "version": 1
  }
}