{
  "contractName": "ICourseAllocation",
  "abi": [
    {
      "inputs": [],
      "stateMutability": "nonpayable",
      "type": "constructor"
    },
    {
      "inputs": [
        {
          "internalType": "address",
          "name": "",
          "type": "address"
        }
      ],
      "name": "addressToAgentId",
      "outputs": [
        {
          "internalType": "uint256",
          "name": "",
          "type": "uint256"
        }
      ],
      "stateMutability": "view",
      "type": "function",
      "constant": true
    },
    {
      "inputs": [
        {
          "internalType": "address",
          "name": "",
          "type": "address"
        }
      ],
      "name": "addressToClassId",
      "outputs": [
        {
          "internalType": "uint256",
          "name": "",
          "type": "uint256"
        }
      ],
      "stateMutability": "view",
      "type": "function",
      "constant": true
    },
    {
      "inputs": [
        {
          "internalType": "address",
          "name": "",
          "type": "address"
        }
      ],
      "name": "addressToTeacherId",
      "outputs": [
        {
          "internalType": "uint256",
          "name": "",
          "type": "uint256"
        }
      ],
      "stateMutability": "view",
      "type": "function",
      "constant": true
    },
    {
      "inputs": [],
      "name": "agentCount",
      "outputs": [
        {
          "internalType": "uint256",
          "name": "",
          "type": "uint256"
        }
      ],
      "stateMutability": "view",
      "type": "function",
      "constant": true
    },
    {
      "inputs": [
        {
          "internalType": "uint256",
          "name": "",
          "type": "uint256"
        }
      ],
      "name": "agentIds",
      "outputs": [
        {
          "internalType": "uint256",
          "name": "",
          "type": "uint256"
        }
      ],
      "stateMutability": "view",
      "type": "function",
      "constant": true
    },
    {
      "inputs": [
        {
          "internalType": "uint256",
          "name": "",
          "type": "uint256"
        }
      ],
      "name": "agents",
      "outputs": [
        {
          "internalType": "uint256",
          "name": "id",
          "type": "uint256"
        },
        {
          "internalType": "string",
          "name": "name",
          "type": "string"
        },
        {
          "internalType": "address",
          "name": "addr",
          "type": "address"
        }
      ],
      "stateMutability": "view",
      "type": "function",
      "constant": true
    },
    {
      "inputs": [],
      "name": "classCount",
      "outputs": [
        {
          "internalType": "uint256",
          "name": "",
          "type": "uint256"
        }
      ],
      "stateMutability": "view",
      "type": "function",
      "constant": true
    },
    {
      "inputs": [
        {
          "internalType": "uint256",
          "name": "",
          "type": "uint256"
        }
      ],
      "name": "classIds",
      "outputs": [
        {
          "internalType": "uint256",
          "name": "",
          "type": "uint256"
        }
      ],
      "stateMutability": "view",
      "type": "function",
      "constant": true
    },
    {
      "inputs": [],
      "name": "courseCount",
      "outputs": [
        {
          "internalType": "uint256",
          "name": "",
          "type": "uint256"
        }
      ],
      "stateMutability": "view",
      "type": "function",
      "constant": true
    },
    {
      "inputs": [
        {
          "internalType": "uint256",
          "name": "",
          "type": "uint256"
        }
      ],
      "name": "courseIds",
      "outputs": [
        {
          "internalType": "uint256",
          "name": "",
          "type": "uint256"
        }
      ],
      "stateMutability": "view",
      "type": "function",
      "constant": true
    },
    {
      "inputs": [
        {
          "internalType": "uint256",
          "name": "",
          "type": "uint256"
        }
      ],
      "name": "courses",
      "outputs": [
        {
          "internalType": "uint256",
          "name": "id",
          "type": "uint256"
        },
        {
          "internalType": "string",
          "name": "name",
          "type": "string"
        },
        {
          "internalType": "uint256",
          "name": "importance",
          "type": "uint256"
        },
        {
          "internalType": "bool",
          "name": "isAgentSuitable",
          "type": "bool"
        }
      ],
      "stateMutability": "view",
      "type": "function",
      "constant": true
    },
    {
      "inputs": [],
      "name": "teacherCount",
      "outputs": [
        {
          "internalType": "uint256",
          "name": "",
          "type": "uint256"
        }
      ],
      "stateMutability": "view",
      "type": "function",
      "constant": true
    },
    {
      "inputs": [
        {
          "internalType": "uint256",
          "name": "",
          "type": "uint256"
        }
      ],
      "name": "teacherIds",
      "outputs": [
        {
          "internalType": "uint256",
          "name": "",
          "type": "uint256"
        }
      ],
      "stateMutability": "view",
      "type": "function",
      "constant": true
    },
    {
      "inputs": [
        {
          "internalType": "uint256",
          "name": "",
          "type": "uint256"
        }
      ],
      "name": "teachers",
      "outputs": [
        {
          "internalType": "uint256",
          "name": "id",
          "type": "uint256"
        },
        {
          "internalType": "string",
          "name": "name",
          "type": "string"
        },
        {
          "internalType": "address",
          "name": "addr",
          "type": "address"
        },
        {
          "internalType": "uint256",
          "name": "suitabilityWeight",
          "type": "uint256"
        },
        {
          "internalType": "uint256",
          "name": "value",
          "type": "uint256"
        }
      ],
      "stateMutability": "view",
      "type": "function",
      "constant": true
    },
    {
      "inputs": [
        {
          "internalType": "address",
          "name": "teacherAddress",
          "type": "address"
        },
        {
          "internalType": "uint256",
          "name": "_TeacherId",
          "type": "uint256"
        }
      ],
      "name": "setTeacherId",
      "outputs": [],
      "stateMutability": "nonpayable",
      "type": "function"
    },
    {
      "inputs": [
        {
          "internalType": "uint256",
          "name": "teacherId",
          "type": "uint256"
        }
      ],
      "name": "removeTeacher",
      "outputs": [],
      "stateMutability": "nonpayable",
      "type": "function"
    },
    {
      "inputs": [
        {
          "internalType": "uint256",
          "name": "teacherId",
          "type": "uint256"
        },
        {
          "internalType": "string",
          "name": "_name",
          "type": "string"
        }
      ],
      "name": "setTeacherName",
      "outputs": [],
      "stateMutability": "nonpayable",
      "type": "function"
    },
    {
      "inputs": [
        {
          "internalType": "uint256",
          "name": "teacherId",
          "type": "uint256"
        },
        {
          "internalType": "address",
          "name": "_teacherAddress",
          "type": "address"
        }
      ],
      "name": "setTeacherAddress",
      "outputs": [],
      "stateMutability": "nonpayable",
      "type": "function"
    },
    {
      "inputs": [
        {
          "internalType": "uint256",
          "name": "teacherId",
          "type": "uint256"
        },
        {
          "internalType": "uint256",
          "name": "_assignedCourses",
          "type": "uint256"
        }
      ],
      "name": "addTeacherAssignedCourses",
      "outputs": [],
      "stateMutability": "nonpayable",
      "type": "function"
    },
    {
      "inputs": [
        {
          "internalType": "uint256",
          "name": "teacherId",
          "type": "uint256"
        },
        {
          "internalType": "uint256",
          "name": "_assignedCourses",
          "type": "uint256"
        }
      ],
      "name": "removeTeacherAssignedCourses",
      "outputs": [],
      "stateMutability": "nonpayable",
      "type": "function"
    },
    {
      "inputs": [
        {
          "internalType": "uint256",
          "name": "teacherId",
          "type": "uint256"
        },
        {
          "internalType": "uint256",
          "name": "_suitabilityWeight",
          "type": "uint256"
        }
      ],
      "name": "setTeacherSuitabilityWeight",
      "outputs": [],
      "stateMutability": "nonpayable",
      "type": "function"
    },
    {
      "inputs": [
        {
          "internalType": "uint256",
          "name": "teacherId",
          "type": "uint256"
        },
        {
          "internalType": "uint256",
          "name": "_value",
          "type": "uint256"
        }
      ],
      "name": "setTeacherValue",
      "outputs": [],
      "stateMutability": "nonpayable",
      "type": "function"
    },
    {
      "inputs": [
        {
          "internalType": "uint256",
          "name": "teacherId",
          "type": "uint256"
        },
        {
          "internalType": "uint256[]",
          "name": "_suitabilities",
          "type": "uint256[]"
        }
      ],
      "name": "setAllTeacherCourseSuitability",
      "outputs": [],
      "stateMutability": "nonpayable",
      "type": "function"
    },
    {
      "inputs": [
        {
          "internalType": "uint256",
          "name": "teacherId",
          "type": "uint256"
        },
        {
          "internalType": "uint256",
          "name": "courseId",
          "type": "uint256"
        },
        {
          "internalType": "uint256",
          "name": "_suitability",
          "type": "uint256"
        }
      ],
      "name": "setTeacherCourseSuitability",
      "outputs": [],
      "stateMutability": "nonpayable",
      "type": "function"
    },
    {
      "inputs": [
        {
          "internalType": "uint256",
          "name": "teacherId",
          "type": "uint256"
        },
        {
          "internalType": "uint256[]",
          "name": "_preferences",
          "type": "uint256[]"
        }
      ],
      "name": "setAllTeacherCoursePreferences",
      "outputs": [],
      "stateMutability": "nonpayable",
      "type": "function"
    },
    {
      "inputs": [
        {
          "internalType": "uint256",
          "name": "teacherId",
          "type": "uint256"
        },
        {
          "internalType": "uint256",
          "name": "courseId",
          "type": "uint256"
        },
        {
          "internalType": "uint256",
          "name": "_preference",
          "type": "uint256"
        }
      ],
      "name": "setTeacherCoursePreferences",
      "outputs": [],
      "stateMutability": "nonpayable",
      "type": "function"
    },
    {
      "inputs": [
        {
          "internalType": "address",
          "name": "agentAddress",
          "type": "address"
        },
        {
          "internalType": "uint256",
          "name": "_agentId",
          "type": "uint256"
        }
      ],
      "name": "setAgentId",
      "outputs": [],
      "stateMutability": "nonpayable",
      "type": "function"
    },
    {
      "inputs": [
        {
          "internalType": "uint256",
          "name": "agentId",
          "type": "uint256"
        }
      ],
      "name": "removeAgent",
      "outputs": [],
      "stateMutability": "nonpayable",
      "type": "function"
    },
    {
      "inputs": [
        {
          "internalType": "uint256",
          "name": "agentId",
          "type": "uint256"
        },
        {
          "internalType": "string",
          "name": "_name",
          "type": "string"
        }
      ],
      "name": "setAgentName",
      "outputs": [],
      "stateMutability": "nonpayable",
      "type": "function"
    },
    {
      "inputs": [
        {
          "internalType": "uint256",
          "name": "agentId",
          "type": "uint256"
        },
        {
          "internalType": "address",
          "name": "_agentAddress",
          "type": "address"
        }
      ],
      "name": "setAgentAddress",
      "outputs": [],
      "stateMutability": "nonpayable",
      "type": "function"
    },
    {
      "inputs": [
        {
          "internalType": "uint256",
          "name": "agentId",
          "type": "uint256"
        },
        {
          "internalType": "uint256",
          "name": "_assignedCourses",
          "type": "uint256"
        }
      ],
      "name": "addAgentAssignedCourses",
      "outputs": [],
      "stateMutability": "nonpayable",
      "type": "function"
    },
    {
      "inputs": [
        {
          "internalType": "uint256",
          "name": "agentId",
          "type": "uint256"
        },
        {
          "internalType": "uint256",
          "name": "_assignedCourses",
          "type": "uint256"
        }
      ],
      "name": "removeAgentAssignedCourses",
      "outputs": [],
      "stateMutability": "nonpayable",
      "type": "function"
    },
    {
      "inputs": [
        {
          "internalType": "uint256",
          "name": "agentId",
          "type": "uint256"
        },
        {
          "internalType": "uint256",
          "name": "_courseId",
          "type": "uint256"
        },
        {
          "internalType": "uint256",
          "name": "_suitability",
          "type": "uint256"
        }
      ],
      "name": "setAgentCourseSuitability",
      "outputs": [],
      "stateMutability": "nonpayable",
      "type": "function"
    },
    {
      "inputs": [
        {
          "internalType": "uint256",
          "name": "agentId",
          "type": "uint256"
        },
        {
          "internalType": "uint256[]",
          "name": "_suitabilities",
          "type": "uint256[]"
        }
      ],
      "name": "setAllAgentCourseSuitability",
      "outputs": [],
      "stateMutability": "nonpayable",
      "type": "function"
    },
    {
      "inputs": [
        {
          "internalType": "address",
          "name": "classAddress",
          "type": "address"
        },
        {
          "internalType": "uint256",
          "name": "_id",
          "type": "uint256"
        }
      ],
      "name": "setClassId",
      "outputs": [],
      "stateMutability": "nonpayable",
      "type": "function"
    },
    {
      "inputs": [
        {
          "internalType": "uint256",
          "name": "classId",
          "type": "uint256"
        }
      ],
      "name": "removeClass",
      "outputs": [],
      "stateMutability": "nonpayable",
      "type": "function"
    },
    {
      "inputs": [
        {
          "internalType": "uint256",
          "name": "courseId",
          "type": "uint256"
        }
      ],
      "name": "setCourseId",
      "outputs": [],
      "stateMutability": "nonpayable",
      "type": "function"
    },
    {
      "inputs": [
        {
          "internalType": "uint256",
          "name": "courseId",
          "type": "uint256"
        }
      ],
      "name": "removeCourse",
      "outputs": [],
      "stateMutability": "nonpayable",
      "type": "function"
    },
    {
      "inputs": [
        {
          "internalType": "uint256",
          "name": "courseId",
          "type": "uint256"
        },
        {
          "internalType": "string",
          "name": "_name",
          "type": "string"
        }
      ],
      "name": "setCourseName",
      "outputs": [],
      "stateMutability": "nonpayable",
      "type": "function"
    },
    {
      "inputs": [
        {
          "internalType": "uint256",
          "name": "courseId",
          "type": "uint256"
        },
        {
          "internalType": "uint256",
          "name": "_importance",
          "type": "uint256"
        }
      ],
      "name": "setCourseImportance",
      "outputs": [],
      "stateMutability": "nonpayable",
      "type": "function"
    },
    {
      "inputs": [
        {
          "internalType": "uint256[]",
          "name": "_importances",
          "type": "uint256[]"
        }
      ],
      "name": "setAllCourseImportance",
      "outputs": [],
      "stateMutability": "nonpayable",
      "type": "function"
    },
    {
      "inputs": [
        {
          "internalType": "uint256",
          "name": "courseId",
          "type": "uint256"
        },
        {
          "internalType": "uint256",
          "name": "_teacherId",
          "type": "uint256"
        }
      ],
      "name": "addCourseAssignedTeacherId",
      "outputs": [],
      "stateMutability": "nonpayable",
      "type": "function"
    },
    {
      "inputs": [
        {
          "internalType": "uint256",
          "name": "courseId",
          "type": "uint256"
        },
        {
          "internalType": "uint256",
          "name": "_agentId",
          "type": "uint256"
        }
      ],
      "name": "addCourseAssignedAgentId",
      "outputs": [],
      "stateMutability": "nonpayable",
      "type": "function"
    },
    {
      "inputs": [
        {
          "internalType": "uint256",
          "name": "courseId",
          "type": "uint256"
        },
        {
          "internalType": "uint256",
          "name": "_teacherId",
          "type": "uint256"
        }
      ],
      "name": "removeCourseAssignedTeacherId",
      "outputs": [],
      "stateMutability": "nonpayable",
      "type": "function"
    },
    {
      "inputs": [
        {
          "internalType": "uint256",
          "name": "courseId",
          "type": "uint256"
        },
        {
          "internalType": "uint256",
          "name": "_agentId",
          "type": "uint256"
        }
      ],
      "name": "removeCourseAssignedAgentId",
      "outputs": [],
      "stateMutability": "nonpayable",
      "type": "function"
    },
    {
      "inputs": [
        {
          "internalType": "uint256",
          "name": "courseId",
          "type": "uint256"
        },
        {
          "internalType": "bool",
          "name": "_isAgentSuitable",
          "type": "bool"
        }
      ],
      "name": "setCourseIsAgentSuitable",
      "outputs": [],
      "stateMutability": "nonpayable",
      "type": "function"
    },
    {
      "inputs": [
        {
          "internalType": "uint256",
          "name": "_teacherCount",
          "type": "uint256"
        }
      ],
      "name": "setTeacherCount",
      "outputs": [],
      "stateMutability": "nonpayable",
      "type": "function"
    },
    {
      "inputs": [
        {
          "internalType": "uint256",
          "name": "_agentCount",
          "type": "uint256"
        }
      ],
      "name": "setAgentCount",
      "outputs": [],
      "stateMutability": "nonpayable",
      "type": "function"
    },
    {
      "inputs": [
        {
          "internalType": "uint256",
          "name": "_classCount",
          "type": "uint256"
        }
      ],
      "name": "setClassCount",
      "outputs": [],
      "stateMutability": "nonpayable",
      "type": "function"
    },
    {
      "inputs": [
        {
          "internalType": "uint256",
          "name": "_courseCount",
          "type": "uint256"
        }
      ],
      "name": "setCourseCount",
      "outputs": [],
      "stateMutability": "nonpayable",
      "type": "function"
    },
    {
      "inputs": [
        {
          "internalType": "uint256",
          "name": "_teacherId",
          "type": "uint256"
        },
        {
          "internalType": "uint256",
          "name": "courseId",
          "type": "uint256"
        }
      ],
      "name": "getTeacherSuitability",
      "outputs": [
        {
          "internalType": "uint256",
          "name": "",
          "type": "uint256"
        }
      ],
      "stateMutability": "view",
      "type": "function",
      "constant": true
    },
    {
      "inputs": [
        {
          "internalType": "uint256",
          "name": "_agentId",
          "type": "uint256"
        },
        {
          "internalType": "uint256",
          "name": "courseId",
          "type": "uint256"
        }
      ],
      "name": "getAgentSuitability",
      "outputs": [
        {
          "internalType": "uint256",
          "name": "",
          "type": "uint256"
        }
      ],
      "stateMutability": "view",
      "type": "function",
      "constant": true
    },
    {
      "inputs": [
        {
          "internalType": "uint256",
          "name": "_teacherId",
          "type": "uint256"
        },
        {
          "internalType": "uint256",
          "name": "courseId",
          "type": "uint256"
        }
      ],
      "name": "getPreference",
      "outputs": [
        {
          "internalType": "uint256",
          "name": "",
          "type": "uint256"
        }
      ],
      "stateMutability": "view",
      "type": "function",
      "constant": true
    },
    {
      "inputs": [
        {
          "internalType": "uint256",
          "name": "_teacherId",
          "type": "uint256"
        }
      ],
      "name": "getTeacherAssignedCourses",
      "outputs": [
        {
          "internalType": "uint256[]",
          "name": "",
          "type": "uint256[]"
        }
      ],
      "stateMutability": "view",
      "type": "function",
      "constant": true
    },
    {
      "inputs": [
        {
          "internalType": "uint256",
          "name": "_agentId",
          "type": "uint256"
        }
      ],
      "name": "getAgentAssignedCourses",
      "outputs": [
        {
          "internalType": "uint256[]",
          "name": "",
          "type": "uint256[]"
        }
      ],
      "stateMutability": "view",
      "type": "function",
      "constant": true
    },
    {
      "inputs": [
        {
          "internalType": "uint256",
          "name": "_courseId",
          "type": "uint256"
        }
      ],
      "name": "getCoursesAssignedTeacher",
      "outputs": [
        {
          "internalType": "uint256[]",
          "name": "",
          "type": "uint256[]"
        }
      ],
      "stateMutability": "view",
      "type": "function",
      "constant": true
    },
    {
      "inputs": [
        {
          "internalType": "uint256",
          "name": "_courseId",
          "type": "uint256"
        }
      ],
      "name": "getCoursesAssignedAgent",
      "outputs": [
        {
          "internalType": "uint256[]",
          "name": "",
          "type": "uint256[]"
        }
      ],
      "stateMutability": "view",
      "type": "function",
      "constant": true
    },
    {
      "inputs": [],
      "name": "getTeacherIds",
      "outputs": [
        {
          "internalType": "uint256[]",
          "name": "",
          "type": "uint256[]"
        }
      ],
      "stateMutability": "view",
      "type": "function",
      "constant": true
    },
    {
      "inputs": [],
      "name": "getAgentIds",
      "outputs": [
        {
          "internalType": "uint256[]",
          "name": "",
          "type": "uint256[]"
        }
      ],
      "stateMutability": "view",
      "type": "function",
      "constant": true
    },
    {
      "inputs": [],
      "name": "getCourseIds",
      "outputs": [
        {
          "internalType": "uint256[]",
          "name": "",
          "type": "uint256[]"
        }
      ],
      "stateMutability": "view",
      "type": "function",
      "constant": true
    },
    {
      "inputs": [],
      "name": "getClassIds",
      "outputs": [
        {
          "internalType": "uint256[]",
          "name": "",
          "type": "uint256[]"
        }
      ],
      "stateMutability": "view",
      "type": "function",
      "constant": true
    }
  ],
  "bytecode": "0x608060405234801561001057600080fd5b506136f9806100206000396000f3fe608060405234801561001057600080fd5b50600436106103af5760003560e01c806396f979d2116101f4578063cb8540451161011a578063e204b102116100ad578063e8a2dc2f1161007c578063e8a2dc2f14610b35578063ebacebe414610b65578063f0f2efd814610b95578063fc09e9d014610bb1576103af565b8063e204b10214610ab1578063e20b340514610acd578063e40af03614610ae9578063e52505d814610b05576103af565b8063dcfa7057116100e9578063dcfa705714610a2d578063dd03576514610a5d578063deb9f76a14610a79578063df3addfa14610a95576103af565b8063cb85404514610995578063cddd6c63146109b1578063ce64bf9b146109cd578063d4e57ff0146109fd576103af565b8063ad3a6ad411610192578063bca24bd411610161578063bca24bd414610911578063bd1602d114610941578063bfb9d44c1461095d578063c318fe5f14610979576103af565b8063ad3a6ad41461089d578063b1508760146108b9578063b7dc1284146108d7578063bb69df72146108f5576103af565b80639e122377116101ce5780639e1223771461082b578063a549e41614610847578063a7ab847214610863578063ab9963171461087f576103af565b806396f979d2146107ac5780639709ee01146107df57806397e92d521461080f576103af565b806356e76058116102d9578063700ed28b1161027757806382ff0a5a1161024657806382ff0a5a14610700578063851580a71461073057806386875ea81461076057806391c89deb1461077c576103af565b8063700ed28b1461069057806372ab4e96146106ac57806372c30f45146106c85780637fa7e04d146106e4576103af565b806366055159116102b3578063660551591461061e5780636798bad91461063c5780636e428d2d146106585780636fcf4f9614610674576103af565b806356e76058146105b65780635953faff146105e65780635e383d4614610602576103af565b806334ac0b40116103515780634b974df7116103205780634b974df71461052e5780634d27e9121461054a5780634d65235014610566578063513856c814610584576103af565b806334ac0b40146104905780633abdb63d146104c457806346be3136146104e0578063494e2371146104fe576103af565b80631dd86f901161038d5780631dd86f901461041e5780631fe76a6c1461043a5780632359b7b8146104565780632b0816ac14610474576103af565b80630f7f13cf146103b45780630fa1c271146103e457806318860d3714610400575b600080fd5b6103ce60048036038101906103c99190612b80565b610bcd565b6040516103db9190613092565b60405180910390f35b6103fe60048036038101906103f99190612da3565b610be5565b005b610408610c26565b6040516104159190612fd0565b60405180910390f35b61043860048036038101906104339190612de3565b610c7e565b005b610454600480360381019061044f9190612de3565b610d31565b005b61045e610d62565b60405161046b9190612fd0565b60405180910390f35b61048e60048036038101906104899190612c36565b610dba565b005b6104aa60048036038101906104a59190612c36565b610e01565b6040516104bb9594939291906130eb565b60405180910390f35b6104de60048036038101906104d99190612c36565b610edf565b005b6104e8610fc7565b6040516104f59190613092565b60405180910390f35b61051860048036038101906105139190612c36565b610fcd565b6040516105259190613092565b60405180910390f35b61054860048036038101906105439190612da3565b610ff1565b005b610564600480360381019061055f9190612de3565b61118b565b005b61056e6111bc565b60405161057b9190612fd0565b60405180910390f35b61059e60048036038101906105999190612c36565b611214565b6040516105ad939291906130ad565b60405180910390f35b6105d060048036038101906105cb9190612c36565b6112e6565b6040516105dd9190613092565b60405180910390f35b61060060048036038101906105fb9190612bed565b61130a565b005b61061c60048036038101906106179190612bad565b6113cc565b005b61062661143d565b6040516106339190613092565b60405180910390f35b61065660048036038101906106519190612c36565b611443565b005b610672600480360381019061066d9190612da3565b61144d565b005b61068e60048036038101906106899190612c36565b6115e7565b005b6106aa60048036038101906106a59190612da3565b611751565b005b6106c660048036038101906106c19190612da3565b611792565b005b6106e260048036038101906106dd9190612c36565b6117d3565b005b6106fe60048036038101906106f99190612d43565b61189f565b005b61071a60048036038101906107159190612c36565b6118ca565b6040516107279190612fd0565b60405180910390f35b61074a60048036038101906107459190612da3565b611938565b6040516107579190613092565b60405180910390f35b61077a60048036038101906107759190612da3565b61196a565b005b61079660048036038101906107919190612c36565b611b04565b6040516107a39190612fd0565b60405180910390f35b6107c660048036038101906107c19190612c36565b611b72565b6040516107d69493929190613145565b60405180910390f35b6107f960048036038101906107f49190612da3565b611c37565b6040516108069190613092565b60405180910390f35b61082960048036038101906108249190612ca3565b611c69565b005b61084560048036038101906108409190612d43565b611dc1565b005b610861600480360381019061085c9190612bad565b611dec565b005b61087d60048036038101906108789190612d43565b611e77565b005b610887611f24565b6040516108949190613092565b60405180910390f35b6108b760048036038101906108b29190612ca3565b611f2a565b005b6108c1612082565b6040516108ce9190612fd0565b60405180910390f35b6108df6120da565b6040516108ec9190613092565b60405180910390f35b61090f600480360381019061090a9190612da3565b6120e0565b005b61092b60048036038101906109269190612c36565b612181565b6040516109389190613092565b60405180910390f35b61095b60048036038101906109569190612c36565b6121a5565b005b61097760048036038101906109729190612bad565b6121af565b005b610993600480360381019061098e9190612c63565b61223b565b005b6109af60048036038101906109aa9190612d03565b612316565b005b6109cb60048036038101906109c69190612c63565b612348565b005b6109e760048036038101906109e29190612c36565b6123a1565b6040516109f49190612fd0565b60405180910390f35b610a176004803603810190610a129190612b80565b61240f565b604051610a249190613092565b60405180910390f35b610a476004803603810190610a429190612c36565b612427565b604051610a549190613092565b60405180910390f35b610a776004803603810190610a729190612c36565b61244b565b005b610a936004803603810190610a8e9190612c36565b612455565b005b610aaf6004803603810190610aaa9190612c36565b61245f565b005b610acb6004803603810190610ac69190612da3565b61252b565b005b610ae76004803603810190610ae29190612da3565b61254a565b005b610b036004803603810190610afe9190612da3565b6125eb565b005b610b1f6004803603810190610b1a9190612c36565b612785565b604051610b2c9190612fd0565b60405180910390f35b610b4f6004803603810190610b4a9190612da3565b6127f3565b604051610b5c9190613092565b60405180910390f35b610b7f6004803603810190610b7a9190612b80565b612825565b604051610b8c9190613092565b60405180910390f35b610baf6004803603810190610baa9190612ca3565b61283d565b005b610bcb6004803603810190610bc69190612da3565b612913565b005b60006020528060005260406000206000915090505481565b600560008381526020019081526020016000206003018190806001815401808255809150506001900390600052602060002001600090919091909150555050565b6060600d805480602002602001604051908101604052809291908181526020018280548015610c7457602002820191906000526020600020905b815481526020019060010190808311610c60575b5050505050905090565b60008060003373ffffffffffffffffffffffffffffffffffffffff1673ffffffffffffffffffffffffffffffffffffffff168152602001908152602001600020541415610d00576040517f08c379a0000000000000000000000000000000000000000000000000000000008152600401610cf790613052565b60405180910390fd5b8060036000858152602001908152602001600020600701600084815260200190815260200160002081905550505050565b8060036000858152602001908152602001600020600601600084815260200190815260200160002081905550505050565b6060600c805480602002602001604051908101604052809291908181526020018280548015610db057602002820191906000526020600020905b815481526020019060010190808311610d9c575b5050505050905090565b806005600083815260200190815260200160002060000181905550600c81908060018154018082558091505060019003906000526020600020016000909190919091505550565b6003602052806000526040600020600091509050806000015490806001018054610e2a906132e6565b80601f0160208091040260200160405190810160405280929190818152602001828054610e56906132e6565b8015610ea35780601f10610e7857610100808354040283529160200191610ea3565b820191906000526020600020905b815481529060010190602001808311610e8657829003601f168201915b5050505050908060020160009054906101000a900473ffffffffffffffffffffffffffffffffffffffff16908060040154908060050154905085565b6000600460008381526020019081526020016000206000018190555060005b600b80549050811015610fc35781600b8281548110610f2057610f1f61341f565b5b90600052602060002001541415610fb057600b6001600b80549050610f459190613237565b81548110610f5657610f5561341f565b5b9060005260206000200154600b8281548110610f7557610f7461341f565b5b9060005260206000200181905550600b805480610f9557610f946133f0565b5b60019003818190600052602060002001600090559055610fc3565b8080610fbb90613349565b915050610efe565b5050565b60065481565b600c8181548110610fdd57600080fd5b906000526020600020016000915090505481565b60008080600090505b600360008681526020019081526020016000206003018054905081101561107457836003600087815260200190815260200160002060030182815481106110445761104361341f565b5b906000526020600020015414156110615760019250809150611074565b808061106c90613349565b915050610ffa565b50811561114a5760036000858152602001908152602001600020600301600160036000878152602001908152602001600020600301805490506110b79190613237565b815481106110c8576110c761341f565b5b90600052602060002001546003600086815260200190815260200160002060030182815481106110fb576110fa61341f565b5b90600052602060002001819055506003600085815260200190815260200160002060030180548061112f5761112e6133f0565b5b60019003818190600052602060002001600090559055611185565b6040517f08c379a000000000000000000000000000000000000000000000000000000000815260040161117c90613012565b60405180910390fd5b50505050565b8060046000858152602001908152602001600020600401600084815260200190815260200160002081905550505050565b6060600a80548060200260200160405190810160405280929190818152602001828054801561120a57602002820191906000526020600020905b8154815260200190600101908083116111f6575b5050505050905090565b600460205280600052604060002060009150905080600001549080600101805461123d906132e6565b80601f0160208091040260200160405190810160405280929190818152602001828054611269906132e6565b80156112b65780601f1061128b576101008083540402835291602001916112b6565b820191906000526020600020905b81548152906001019060200180831161129957829003601f168201915b5050505050908060020160009054906101000a900473ffffffffffffffffffffffffffffffffffffffff16905083565b600b81815481106112f657600080fd5b906000526020600020016000915090505481565b600c80549050815114611352576040517f08c379a000000000000000000000000000000000000000000000000000000000815260040161134990613032565b60405180910390fd5b60005b600c805490508110156113c8578181815181106113755761137461341f565b5b602002602001015160056000600c84815481106113955761139461341f565b5b906000526020600020015481526020019081526020016000206002018190555080806113c090613349565b915050611355565b5050565b80600260008473ffffffffffffffffffffffffffffffffffffffff1673ffffffffffffffffffffffffffffffffffffffff16815260200190815260200160002081905550600d8190806001815401808255809150506001900390600052602060002001600090919091909150555050565b60095481565b8060068190555050565b60008080600090505b60056000868152602001908152602001600020600301805490508110156114d057836005600087815260200190815260200160002060030182815481106114a05761149f61341f565b5b906000526020600020015414156114bd57600192508091506114d0565b80806114c890613349565b915050611456565b5081156115a65760056000858152602001908152602001600020600301600160056000878152602001908152602001600020600301805490506115139190613237565b815481106115245761152361341f565b5b90600052602060002001546005600086815260200190815260200160002060030182815481106115575761155661341f565b5b90600052602060002001819055506005600085815260200190815260200160002060030180548061158b5761158a6133f0565b5b600190038181906000526020600020016000905590556115e1565b6040517f08c379a00000000000000000000000000000000000000000000000000000000081526004016115d890613012565b60405180910390fd5b50505050565b60008060003373ffffffffffffffffffffffffffffffffffffffff1673ffffffffffffffffffffffffffffffffffffffff168152602001908152602001600020541415611669576040517f08c379a000000000000000000000000000000000000000000000000000000000815260040161166090613052565b60405180910390fd5b6000600360008381526020019081526020016000206000018190555060005b600a8054905081101561174d5781600a82815481106116aa576116a961341f565b5b9060005260206000200154141561173a57600a6001600a805490506116cf9190613237565b815481106116e0576116df61341f565b5b9060005260206000200154600a82815481106116ff576116fe61341f565b5b9060005260206000200181905550600a80548061171f5761171e6133f0565b5b6001900381819060005260206000200160009055905561174d565b808061174590613349565b915050611688565b5050565b600360008381526020019081526020016000206003018190806001815401808255809150506001900390600052602060002001600090919091909150555050565b600460008381526020019081526020016000206003018190806001815401808255809150506001900390600052602060002001600090919091909150555050565b60005b600d8054905081101561189b5781600d82815481106117f8576117f761341f565b5b9060005260206000200154141561188857600d6001600d8054905061181d9190613237565b8154811061182e5761182d61341f565b5b9060005260206000200154600d828154811061184d5761184c61341f565b5b9060005260206000200181905550600d80548061186d5761186c6133f0565b5b6001900381819060005260206000200160009055905561189b565b808061189390613349565b9150506117d6565b5050565b81816004600086815260200190815260200160002060010191906118c4929190612954565b50505050565b60606005600083815260200190815260200160002060030180548060200260200160405190810160405280929190818152602001828054801561192c57602002820191906000526020600020905b815481526020019060010190808311611918575b50505050509050919050565b600060036000848152602001908152602001600020600701600083815260200190815260200160002054905092915050565b60008080600090505b60056000868152602001908152602001600020600401805490508110156119ed57836005600087815260200190815260200160002060040182815481106119bd576119bc61341f565b5b906000526020600020015414156119da57600192508091506119ed565b80806119e590613349565b915050611973565b508115611ac3576005600085815260200190815260200160002060040160016005600087815260200190815260200160002060040180549050611a309190613237565b81548110611a4157611a4061341f565b5b9060005260206000200154600560008681526020019081526020016000206004018281548110611a7457611a7361341f565b5b906000526020600020018190555060056000858152602001908152602001600020600401805480611aa857611aa76133f0565b5b60019003818190600052602060002001600090559055611afe565b6040517f08c379a0000000000000000000000000000000000000000000000000000000008152600401611af590613012565b60405180910390fd5b50505050565b606060056000838152602001908152602001600020600401805480602002602001604051908101604052809291908181526020018280548015611b6657602002820191906000526020600020905b815481526020019060010190808311611b52575b50505050509050919050565b6005602052806000526040600020600091509050806000015490806001018054611b9b906132e6565b80601f0160208091040260200160405190810160405280929190818152602001828054611bc7906132e6565b8015611c145780601f10611be957610100808354040283529160200191611c14565b820191906000526020600020905b815481529060010190602001808311611bf757829003601f168201915b5050505050908060020154908060050160009054906101000a900460ff16905084565b600060046000848152602001908152602001600020600401600083815260200190815260200160002054905092915050565b60008060003373ffffffffffffffffffffffffffffffffffffffff1673ffffffffffffffffffffffffffffffffffffffff168152602001908152602001600020541415611ceb576040517f08c379a0000000000000000000000000000000000000000000000000000000008152600401611ce290613052565b60405180910390fd5b600c805490508282905014611d35576040517f08c379a0000000000000000000000000000000000000000000000000000000008152600401611d2c90613072565b60405180910390fd5b60005b600c80549050811015611dbb57828282818110611d5857611d5761341f565b5b90506020020135600360008681526020019081526020016000206006016000600c8481548110611d8b57611d8a61341f565b5b90600052602060002001548152602001908152602001600020819055508080611db390613349565b915050611d38565b50505050565b8181600560008681526020019081526020016000206001019190611de6929190612954565b50505050565b806000808473ffffffffffffffffffffffffffffffffffffffff1673ffffffffffffffffffffffffffffffffffffffff16815260200190815260200160002081905550806003600083815260200190815260200160002060000181905550600a8190806001815401808255809150506001900390600052602060002001600090919091909150555050565b60008060003373ffffffffffffffffffffffffffffffffffffffff1673ffffffffffffffffffffffffffffffffffffffff168152602001908152602001600020541415611ef9576040517f08c379a0000000000000000000000000000000000000000000000000000000008152600401611ef090613052565b60405180910390fd5b8181600360008681526020019081526020016000206001019190611f1e929190612954565b50505050565b60085481565b60008060003373ffffffffffffffffffffffffffffffffffffffff1673ffffffffffffffffffffffffffffffffffffffff168152602001908152602001600020541415611fac576040517f08c379a0000000000000000000000000000000000000000000000000000000008152600401611fa390613052565b60405180910390fd5b600c805490508282905014611ff6576040517f08c379a0000000000000000000000000000000000000000000000000000000008152600401611fed90612ff2565b60405180910390fd5b60005b600c8054905081101561207c578282828181106120195761201861341f565b5b90506020020135600360008681526020019081526020016000206007016000600c848154811061204c5761204b61341f565b5b9060005260206000200154815260200190815260200160002081905550808061207490613349565b915050611ff9565b50505050565b6060600b8054806020026020016040519081016040528092919081815260200182805480156120d057602002820191906000526020600020905b8154815260200190600101908083116120bc575b5050505050905090565b60075481565b60008060003373ffffffffffffffffffffffffffffffffffffffff1673ffffffffffffffffffffffffffffffffffffffff168152602001908152602001600020541415612162576040517f08c379a000000000000000000000000000000000000000000000000000000000815260040161215990613052565b60405180910390fd5b8060036000848152602001908152602001600020600401819055505050565b600d818154811061219157600080fd5b906000526020600020016000915090505481565b8060098190555050565b80600160008473ffffffffffffffffffffffffffffffffffffffff1673ffffffffffffffffffffffffffffffffffffffff16815260200190815260200160002081905550806004600083815260200190815260200160002060000181905550600b8190806001815401808255809150506001900390600052602060002001600090919091909150555050565b60008060003373ffffffffffffffffffffffffffffffffffffffff1673ffffffffffffffffffffffffffffffffffffffff1681526020019081526020016000205414156122bd576040517f08c379a00000000000000000000000000000000000000000000000000000000081526004016122b490613052565b60405180910390fd5b806003600084815260200190815260200160002060020160006101000a81548173ffffffffffffffffffffffffffffffffffffffff021916908373ffffffffffffffffffffffffffffffffffffffff1602179055505050565b806005600084815260200190815260200160002060050160006101000a81548160ff0219169083151502179055505050565b806004600084815260200190815260200160002060020160006101000a81548173ffffffffffffffffffffffffffffffffffffffff021916908373ffffffffffffffffffffffffffffffffffffffff1602179055505050565b60606004600083815260200190815260200160002060030180548060200260200160405190810160405280929190818152602001828054801561240357602002820191906000526020600020905b8154815260200190600101908083116123ef575b50505050509050919050565b60026020528060005260406000206000915090505481565b600a818154811061243757600080fd5b906000526020600020016000915090505481565b8060088190555050565b8060078190555050565b60005b600c805490508110156125275781600c82815481106124845761248361341f565b5b9060005260206000200154141561251457600c6001600c805490506124a99190613237565b815481106124ba576124b961341f565b5b9060005260206000200154600c82815481106124d9576124d861341f565b5b9060005260206000200181905550600c8054806124f9576124f86133f0565b5b60019003818190600052602060002001600090559055612527565b808061251f90613349565b915050612462565b5050565b8060056000848152602001908152602001600020600201819055505050565b60008060003373ffffffffffffffffffffffffffffffffffffffff1673ffffffffffffffffffffffffffffffffffffffff1681526020019081526020016000205414156125cc576040517f08c379a00000000000000000000000000000000000000000000000000000000081526004016125c390613052565b60405180910390fd5b8060036000848152602001908152602001600020600501819055505050565b60008080600090505b600460008681526020019081526020016000206003018054905081101561266e578360046000878152602001908152602001600020600301828154811061263e5761263d61341f565b5b9060005260206000200154141561265b576001925080915061266e565b808061266690613349565b9150506125f4565b5081156127445760046000858152602001908152602001600020600301600160046000878152602001908152602001600020600301805490506126b19190613237565b815481106126c2576126c161341f565b5b90600052602060002001546004600086815260200190815260200160002060030182815481106126f5576126f461341f565b5b906000526020600020018190555060046000858152602001908152602001600020600301805480612729576127286133f0565b5b6001900381819060005260206000200160009055905561277f565b6040517f08c379a000000000000000000000000000000000000000000000000000000000815260040161277690613012565b60405180910390fd5b50505050565b6060600360008381526020019081526020016000206003018054806020026020016040519081016040528092919081815260200182805480156127e757602002820191906000526020600020905b8154815260200190600101908083116127d3575b50505050509050919050565b600060036000848152602001908152602001600020600601600083815260200190815260200160002054905092915050565b60016020528060005260406000206000915090505481565b600c805490508282905014612887576040517f08c379a000000000000000000000000000000000000000000000000000000000815260040161287e90613072565b60405180910390fd5b60005b600c8054905081101561290d578282828181106128aa576128a961341f565b5b90506020020135600460008681526020019081526020016000206004016000600c84815481106128dd576128dc61341f565b5b9060005260206000200154815260200190815260200160002081905550808061290590613349565b91505061288a565b50505050565b600560008381526020019081526020016000206004018190806001815401808255809150506001900390600052602060002001600090919091909150555050565b828054612960906132e6565b90600052602060002090601f01602090048101928261298257600085556129c9565b82601f1061299b57803560ff19168380011785556129c9565b828001600101855582156129c9579182015b828111156129c85782358255916020019190600101906129ad565b5b5090506129d691906129da565b5090565b5b808211156129f35760008160009055506001016129db565b5090565b6000612a0a612a05846131b6565b613191565b90508083825260208201905082856020860282011115612a2d57612a2c613487565b5b60005b85811015612a5d5781612a438882612b6b565b845260208401935060208301925050600181019050612a30565b5050509392505050565b600081359050612a768161367e565b92915050565b60008083601f840112612a9257612a91613482565b5b8235905067ffffffffffffffff811115612aaf57612aae61347d565b5b602083019150836020820283011115612acb57612aca613487565b5b9250929050565b600082601f830112612ae757612ae6613482565b5b8135612af78482602086016129f7565b91505092915050565b600081359050612b0f81613695565b92915050565b60008083601f840112612b2b57612b2a613482565b5b8235905067ffffffffffffffff811115612b4857612b4761347d565b5b602083019150836001820283011115612b6457612b63613487565b5b9250929050565b600081359050612b7a816136ac565b92915050565b600060208284031215612b9657612b95613491565b5b6000612ba484828501612a67565b91505092915050565b60008060408385031215612bc457612bc3613491565b5b6000612bd285828601612a67565b9250506020612be385828601612b6b565b9150509250929050565b600060208284031215612c0357612c02613491565b5b600082013567ffffffffffffffff811115612c2157612c2061348c565b5b612c2d84828501612ad2565b91505092915050565b600060208284031215612c4c57612c4b613491565b5b6000612c5a84828501612b6b565b91505092915050565b60008060408385031215612c7a57612c79613491565b5b6000612c8885828601612b6b565b9250506020612c9985828601612a67565b9150509250929050565b600080600060408486031215612cbc57612cbb613491565b5b6000612cca86828701612b6b565b935050602084013567ffffffffffffffff811115612ceb57612cea61348c565b5b612cf786828701612a7c565b92509250509250925092565b60008060408385031215612d1a57612d19613491565b5b6000612d2885828601612b6b565b9250506020612d3985828601612b00565b9150509250929050565b600080600060408486031215612d5c57612d5b613491565b5b6000612d6a86828701612b6b565b935050602084013567ffffffffffffffff811115612d8b57612d8a61348c565b5b612d9786828701612b15565b92509250509250925092565b60008060408385031215612dba57612db9613491565b5b6000612dc885828601612b6b565b9250506020612dd985828601612b6b565b9150509250929050565b600080600060608486031215612dfc57612dfb613491565b5b6000612e0a86828701612b6b565b9350506020612e1b86828701612b6b565b9250506040612e2c86828701612b6b565b9150509250925092565b6000612e428383612fb2565b60208301905092915050565b612e578161326b565b82525050565b6000612e68826131f2565b612e728185613215565b9350612e7d836131e2565b8060005b83811015612eae578151612e958882612e36565b9750612ea083613208565b925050600181019050612e81565b5085935050505092915050565b612ec48161327d565b82525050565b6000612ed5826131fd565b612edf8185613226565b9350612eef8185602086016132b3565b612ef881613496565b840191505092915050565b6000612f10606083613226565b9150612f1b826134a7565b606082019050919050565b6000612f33601083613226565b9150612f3e8261351c565b602082019050919050565b6000612f56602283613226565b9150612f6182613545565b604082019050919050565b6000612f79602f83613226565b9150612f8482613594565b604082019050919050565b6000612f9c606183613226565b9150612fa7826135e3565b608082019050919050565b612fbb816132a9565b82525050565b612fca816132a9565b82525050565b60006020820190508181036000830152612fea8184612e5d565b905092915050565b6000602082019050818103600083015261300b81612f03565b9050919050565b6000602082019050818103600083015261302b81612f26565b9050919050565b6000602082019050818103600083015261304b81612f49565b9050919050565b6000602082019050818103600083015261306b81612f6c565b9050919050565b6000602082019050818103600083015261308b81612f8f565b9050919050565b60006020820190506130a76000830184612fc1565b92915050565b60006060820190506130c26000830186612fc1565b81810360208301526130d48185612eca565b90506130e36040830184612e4e565b949350505050565b600060a0820190506131006000830188612fc1565b81810360208301526131128187612eca565b90506131216040830186612e4e565b61312e6060830185612fc1565b61313b6080830184612fc1565b9695505050505050565b600060808201905061315a6000830187612fc1565b818103602083015261316c8186612eca565b905061317b6040830185612fc1565b6131886060830184612ebb565b95945050505050565b600061319b6131ac565b90506131a78282613318565b919050565b6000604051905090565b600067ffffffffffffffff8211156131d1576131d061344e565b5b602082029050602081019050919050565b6000819050602082019050919050565b600081519050919050565b600081519050919050565b6000602082019050919050565b600082825260208201905092915050565b600082825260208201905092915050565b6000613242826132a9565b915061324d836132a9565b9250828210156132605761325f613392565b5b828203905092915050565b600061327682613289565b9050919050565b60008115159050919050565b600073ffffffffffffffffffffffffffffffffffffffff82169050919050565b6000819050919050565b60005b838110156132d15780820151818401526020810190506132b6565b838111156132e0576000848401525b50505050565b600060028204905060018216806132fe57607f821691505b60208210811415613312576133116133c1565b5b50919050565b61332182613496565b810181811067ffffffffffffffff821117156133405761333f61344e565b5b80604052505050565b6000613354826132a9565b91507fffffffffffffffffffffffffffffffffffffffffffffffffffffffffffffffff82141561338757613386613392565b5b600182019050919050565b7f4e487b7100000000000000000000000000000000000000000000000000000000600052601160045260246000fd5b7f4e487b7100000000000000000000000000000000000000000000000000000000600052602260045260246000fd5b7f4e487b7100000000000000000000000000000000000000000000000000000000600052603160045260246000fd5b7f4e487b7100000000000000000000000000000000000000000000000000000000600052603260045260246000fd5b7f4e487b7100000000000000000000000000000000000000000000000000000000600052604160045260246000fd5b600080fd5b600080fd5b600080fd5b600080fd5b600080fd5b6000601f19601f8301169050919050565b7f5768656e2073657474696e672074686520707265666572656e6365206c65766560008201527f6c206f6620636f75727365732c206974206973206e656365737361727920746f60208201527f206861766520616e20657175616c206e756d626572206f6620636f7572736573604082015250565b7f436f75727365206e6f7420666f756e6400000000000000000000000000000000600082015250565b7f6d7573742075706461746520616c6c20636f7572736520737569746162696c6960008201527f7479000000000000000000000000000000000000000000000000000000000000602082015250565b7f4f6e6c7920726567697374657265642074656163686572732063616e2063616c60008201527f6c20746869732066756e6374696f6e0000000000000000000000000000000000602082015250565b7f5768656e2073657474696e672074686520737569746162696c697479206c657660008201527f656c206f6620636f75727365732c206974206973206e6563657373617279207460208201527f6f206861766520616e20657175616c206e756d626572206f6620636f7572736560408201527f7300000000000000000000000000000000000000000000000000000000000000606082015250565b6136878161326b565b811461369257600080fd5b50565b61369e8161327d565b81146136a957600080fd5b50565b6136b5816132a9565b81146136c057600080fd5b5056fea26469706673582212200cbe37d03366d53aedb36cea2d1131e92e17f0e6eaf8004dc28d1d3e8be4e19864736f6c63430008070033",
  "immutableReferences": {},
  "source": "// SPDX-License-Identifier: MIT\r\npragma solidity ^0.8.7;\r\n\r\ncontract ICourseAllocation {\r\n    \r\n    // \r\n    struct Teacher {\r\n        uint256 id;\r\n        string name;\r\n        address addr;\r\n        uint256[] assignedCourses;\r\n        uint256 suitabilityWeight;\r\n        uint256 value;\r\n        mapping(uint256 => uint256) courseSuitabilities;\r\n        mapping(uint256 => uint256) coursePreferences;\r\n    }\r\n\r\n    // \r\n    struct Agent {\r\n        uint256 id;\r\n        string name;\r\n        address addr;\r\n        uint256[] assignedCourses;\r\n        mapping(uint256 => uint256) courseSuitabilities;\r\n    }\r\n\r\n    // \r\n    struct Course {\r\n        uint256 id;\r\n        string name;\r\n        uint256 importance;\r\n        uint256[] assignedTeacherId;\r\n        uint256[] assignedAgentId;\r\n        bool isAgentSuitable;\r\n    }\r\n\r\n    //  => ID\r\n    mapping(address => uint256) public addressToTeacherId;\r\n\r\n    //  => ID\r\n    mapping(address => uint256) public addressToAgentId;\r\n\r\n    //  => ID\r\n    mapping(address => uint256) public addressToClassId;\r\n\r\n    // ID => \r\n    mapping(uint256 => Teacher) public teachers;\r\n\r\n    // ID => \r\n    mapping(uint256 => Agent) public agents;\r\n\r\n    // ID => \r\n    mapping(uint256 => Course) public courses;\r\n\r\n    // ID\r\n    uint256 public teacherCount;\r\n\r\n    // ID\r\n    uint256 public agentCount;\r\n\r\n    // ID\r\n    uint256 public classCount;\r\n\r\n    // ID\r\n    uint256 public courseCount;\r\n\r\n    // ID\r\n    uint256[] public teacherIds;\r\n\r\n    // ID\r\n    uint256[] public agentIds;\r\n\r\n    // ID\r\n    uint256[] public courseIds;\r\n\r\n    // ID\r\n    uint256[] public classIds;\r\n\r\n    // \r\n    // event CourseImportanceSet(uint256 indexed courseId, uint256 importance);\r\n    // event SuitabilityUpdated(uint256 indexed courseId, uint256 suitability);\r\n    // event PreferenceUpdated(uint256 indexed teacherId, uint256 indexed courseId, uint256 preference);\r\n    // event ProposalCreated(uint256 proposalId, uint256 indexed courseId, uint256[] teacherIds); // \r\n    // event MachineProposal(uint256 proposalId, uint256 indexed courseId, uint256[] teacherIds, uint256[] teacherCounts); // \r\n    // event CourseAssignedToTeacher(uint256 indexed courseId, uint256 indexed teacherId); // \r\n    \r\n    // \r\n    constructor() {\r\n    }\r\n\r\n    // \r\n    modifier onlyTeacher() {\r\n        require(addressToTeacherId[msg.sender] != 0, \"Only registered teachers can call this function\");\r\n        _;\r\n    }\r\n\r\n    // ID\r\n    function setTeacherId(address teacherAddress, uint256 _TeacherId) public {\r\n        addressToTeacherId[teacherAddress] = _TeacherId;\r\n        teachers[_TeacherId].id = _TeacherId;\r\n        teacherIds.push(_TeacherId);\r\n    }\r\n\r\n    // \r\n    function removeTeacher(uint256 teacherId) public onlyTeacher {\r\n        teachers[teacherId].id = 0;\r\n        //  teacherIds  ID\r\n        for (uint256 i = 0; i < teacherIds.length; i++) {\r\n            if (teacherIds[i] == teacherId) {\r\n                //  ID \r\n                teacherIds[i] = teacherIds[teacherIds.length - 1];\r\n                // \r\n                teacherIds.pop();\r\n                break;\r\n            }\r\n        }\r\n    }\r\n\r\n    // \r\n    function setTeacherName(uint256 teacherId, string calldata _name) public onlyTeacher {\r\n        teachers[teacherId].name = _name;\r\n    }\r\n\r\n    // \r\n    function setTeacherAddress(uint256 teacherId, address _teacherAddress) public onlyTeacher {\r\n        teachers[teacherId].addr = _teacherAddress;\r\n    }\r\n\r\n    // \r\n    function addTeacherAssignedCourses(uint256 teacherId, uint256 _assignedCourses) public {\r\n        teachers[teacherId].assignedCourses.push(_assignedCourses);\r\n    }\r\n\r\n    // \r\n    function removeTeacherAssignedCourses(uint256 teacherId, uint256 _assignedCourses) public {\r\n        bool found = false;\r\n        uint256 indexToRemove;\r\n\r\n        //  ID \r\n        for (uint256 i = 0; i < teachers[teacherId].assignedCourses.length; i++) {\r\n            if (teachers[teacherId].assignedCourses[i] == _assignedCourses) {\r\n                found = true;\r\n                indexToRemove = i;\r\n                break;\r\n            }\r\n        }\r\n\r\n        //  ID\r\n        if (found) {\r\n            // \r\n            teachers[teacherId].assignedCourses[indexToRemove] =  teachers[teacherId].assignedCourses[teachers[teacherId].assignedCourses.length - 1];\r\n            // \r\n            teachers[teacherId].assignedCourses.pop();\r\n        } else {\r\n            //  ID\r\n            revert(\"Course not found\");\r\n        }\r\n    }\r\n\r\n    // \r\n    function setTeacherSuitabilityWeight(uint256 teacherId, uint256 _suitabilityWeight) public onlyTeacher {\r\n        teachers[teacherId].suitabilityWeight = _suitabilityWeight;\r\n    }\r\n\r\n    // \r\n    function setTeacherValue(uint256 teacherId, uint256 _value) public onlyTeacher {\r\n        teachers[teacherId].value = _value;\r\n    }\r\n\r\n    // \r\n    function setAllTeacherCourseSuitability(uint256 teacherId, uint256[] calldata _suitabilities) public onlyTeacher {\r\n        require(_suitabilities.length == courseIds.length, \"When setting the suitability level of courses, it is necessary to have an equal number of courses\" );\r\n        for(uint256 courseIndex = 0 ; courseIndex < courseIds.length ; courseIndex++){\r\n            teachers[teacherId].courseSuitabilities[courseIds[courseIndex]] = _suitabilities[courseIndex];\r\n        }\r\n    }\r\n\r\n    // \r\n    function setTeacherCourseSuitability(uint256 teacherId, uint256 courseId, uint256 _suitability) public {\r\n        teachers[teacherId].courseSuitabilities[courseId] = _suitability;\r\n    }\r\n\r\n    // \r\n    function setAllTeacherCoursePreferences(uint256 teacherId, uint256[] calldata _preferences) public onlyTeacher {\r\n        require(_preferences.length == courseIds.length, \"When setting the preference level of courses, it is necessary to have an equal number of courses\" );\r\n        for(uint256 courseIndex = 0 ; courseIndex < courseIds.length ; courseIndex++){\r\n            teachers[teacherId].coursePreferences[courseIds[courseIndex]] = _preferences[courseIndex];\r\n        }\r\n    }\r\n\r\n    // \r\n    function setTeacherCoursePreferences(uint256 teacherId, uint256 courseId, uint256 _preference) public onlyTeacher {\r\n        teachers[teacherId].coursePreferences[courseId] = _preference;\r\n    }\r\n\r\n    // ID\r\n    function setAgentId(address agentAddress, uint256 _agentId) public {\r\n        addressToAgentId[agentAddress] = _agentId;\r\n        agents[_agentId].id = _agentId;\r\n        agentIds.push(_agentId);\r\n    }\r\n\r\n    // \r\n    function removeAgent(uint256 agentId) public {\r\n        agents[agentId].id = 0;\r\n        //  agentIds  ID\r\n        for (uint256 i = 0; i < agentIds.length; i++) {\r\n            if (agentIds[i] == agentId) {\r\n                //  ID \r\n                agentIds[i] = agentIds[agentIds.length - 1];\r\n                // \r\n                agentIds.pop();\r\n                break;\r\n            }\r\n        }\r\n    }\r\n\r\n    // \r\n    function setAgentName(uint256 agentId, string calldata _name) public {\r\n        agents[agentId].name = _name;\r\n    }\r\n\r\n    // \r\n    function setAgentAddress(uint256 agentId, address _agentAddress) public {\r\n        agents[agentId].addr = _agentAddress;\r\n    }\r\n\r\n    // \r\n    function addAgentAssignedCourses(uint256 agentId, uint256 _assignedCourses) public {\r\n        agents[agentId].assignedCourses.push(_assignedCourses);\r\n    }\r\n\r\n    // \r\n    function removeAgentAssignedCourses(uint256 agentId, uint256 _assignedCourses) public {\r\n        bool found = false;\r\n        uint256 indexToRemove;\r\n\r\n        //  ID \r\n        for (uint256 i = 0; i < agents[agentId].assignedCourses.length; i++) {\r\n            if (agents[agentId].assignedCourses[i] == _assignedCourses) {\r\n                found = true;\r\n                indexToRemove = i;\r\n                break;\r\n            }\r\n        }\r\n\r\n        //  ID\r\n        if (found) {\r\n            // \r\n            agents[agentId].assignedCourses[indexToRemove] = agents[agentId].assignedCourses[agents[agentId].assignedCourses.length - 1];\r\n            // \r\n            agents[agentId].assignedCourses.pop();\r\n        } else {\r\n            //  ID\r\n            revert(\"Course not found\");\r\n        }\r\n    }\r\n\r\n    // \r\n    function setAgentCourseSuitability(uint256 agentId, uint256 _courseId, uint256 _suitability) public {\r\n        agents[agentId].courseSuitabilities[_courseId] = _suitability;\r\n    }\r\n\r\n    // \r\n    function setAllAgentCourseSuitability(uint256 agentId, uint256[] calldata _suitabilities) public {\r\n        require(_suitabilities.length == courseIds.length, \"When setting the suitability level of courses, it is necessary to have an equal number of courses\" );\r\n        for(uint256 courseIndex = 0 ; courseIndex < courseIds.length ; courseIndex++){\r\n            agents[agentId].courseSuitabilities[courseIds[courseIndex]] = _suitabilities[courseIndex];\r\n        }\r\n    }\r\n\r\n    // ID\r\n    function setClassId(address classAddress, uint256 _id) public {\r\n        addressToClassId[classAddress] = _id;\r\n        classIds.push(_id);\r\n    }\r\n\r\n    // \r\n    function removeClass(uint256 classId) public {\r\n        //  classIds  ID\r\n        for (uint256 i = 0; i < classIds.length; i++) {\r\n            if (classIds[i] == classId) {\r\n                //  ID \r\n                classIds[i] = classIds[classIds.length - 1];\r\n                // \r\n                classIds.pop();\r\n                break;\r\n            }\r\n        }\r\n    }\r\n\r\n    // ID\r\n    function setCourseId(uint256 courseId) public {\r\n        courses[courseId].id = courseId;\r\n        courseIds.push(courseId);\r\n    }\r\n\r\n    // \r\n    function removeCourse(uint256 courseId) public {\r\n        //  classIds  ID\r\n        for (uint256 i = 0; i < courseIds.length; i++) {\r\n            if (courseIds[i] == courseId) {\r\n                //  ID \r\n                courseIds[i] = courseIds[courseIds.length - 1];\r\n                // \r\n                courseIds.pop();\r\n                break;\r\n            }\r\n        }\r\n    }\r\n\r\n    // \r\n    function setCourseName(uint256 courseId, string calldata _name) public {\r\n        courses[courseId].name = _name;\r\n    }\r\n\r\n    // \r\n    function setCourseImportance(uint256 courseId, uint256 _importance) public {\r\n        courses[courseId].importance = _importance;\r\n    }\r\n\r\n    // \r\n    function setAllCourseImportance(uint256[] memory _importances) public {\r\n        require(_importances.length == courseIds.length, \"must update all course suitability\");\r\n        // \r\n        for (uint256 courseIndex = 0; courseIndex < courseIds.length; courseIndex++) {\r\n            courses[courseIds[courseIndex]].importance = _importances[courseIndex];\r\n        }\r\n    }\r\n\r\n    // ID\r\n    function addCourseAssignedTeacherId(uint256 courseId, uint256 _teacherId) public {\r\n        courses[courseId].assignedTeacherId.push(_teacherId);\r\n    }\r\n\r\n    // ID\r\n    function addCourseAssignedAgentId(uint256 courseId, uint256 _agentId) public {\r\n        courses[courseId].assignedAgentId.push(_agentId);\r\n    }\r\n\r\n    // \r\n    function removeCourseAssignedTeacherId(uint256 courseId, uint256 _teacherId) public {\r\n        bool found = false;\r\n        uint256 indexToRemove;\r\n\r\n        //  ID \r\n        for (uint256 i = 0; i < courses[courseId].assignedTeacherId.length; i++) {\r\n            if (courses[courseId].assignedTeacherId[i] == _teacherId) {\r\n                found = true;\r\n                indexToRemove = i;\r\n                break;\r\n            }\r\n        }\r\n\r\n        //  ID\r\n        if (found) {\r\n            // \r\n            courses[courseId].assignedTeacherId[indexToRemove] = courses[courseId].assignedTeacherId[courses[courseId].assignedTeacherId.length - 1];\r\n            // \r\n            courses[courseId].assignedTeacherId.pop();\r\n        } else {\r\n            //  ID\r\n            revert(\"Course not found\");\r\n        }\r\n    }\r\n\r\n    // \r\n    function removeCourseAssignedAgentId(uint256 courseId, uint256 _agentId) public {\r\n        bool found = false;\r\n        uint256 indexToRemove;\r\n\r\n        //  ID \r\n        for (uint256 i = 0; i < courses[courseId].assignedAgentId.length; i++) {\r\n            if (courses[courseId].assignedAgentId[i] == _agentId) {\r\n                found = true;\r\n                indexToRemove = i;\r\n                break;\r\n            }\r\n        }\r\n\r\n        //  ID\r\n        if (found) {\r\n            // \r\n            courses[courseId].assignedAgentId[indexToRemove] = courses[courseId].assignedAgentId[courses[courseId].assignedAgentId.length - 1];\r\n            // \r\n            courses[courseId].assignedAgentId.pop();\r\n        } else {\r\n            //  ID\r\n            revert(\"Course not found\");\r\n        }\r\n    }\r\n\r\n    // \r\n    function setCourseIsAgentSuitable(uint256 courseId, bool _isAgentSuitable) public {\r\n        courses[courseId].isAgentSuitable = _isAgentSuitable;\r\n    }\r\n\r\n    // \r\n    function setTeacherCount(uint256 _teacherCount) public {\r\n        teacherCount = _teacherCount;\r\n    }\r\n\r\n    // \r\n    function setAgentCount(uint256 _agentCount) public {\r\n        agentCount = _agentCount;\r\n    }\r\n\r\n    // \r\n    function setClassCount(uint256 _classCount) public {\r\n        classCount = _classCount;\r\n    }\r\n\r\n    // \r\n    function setCourseCount(uint256 _courseCount) public {\r\n        courseCount = _courseCount;\r\n    }\r\n\r\n    // \r\n    function getTeacherSuitability(uint256 _teacherId, uint256 courseId) public view returns(uint256){\r\n        return teachers[_teacherId].courseSuitabilities[courseId];\r\n    }\r\n\r\n    // \r\n    function getAgentSuitability(uint256 _agentId, uint256 courseId) public view returns(uint256){\r\n        return agents[_agentId].courseSuitabilities[courseId];\r\n    }\r\n\r\n    // \r\n    function getPreference(uint256 _teacherId, uint256 courseId) public view returns(uint256){\r\n        return teachers[_teacherId].coursePreferences[courseId];\r\n    }\r\n\r\n    // \r\n    function getTeacherAssignedCourses(uint256 _teacherId) public view returns(uint256[] memory){\r\n        return teachers[_teacherId].assignedCourses;\r\n    }\r\n\r\n    // \r\n    function getAgentAssignedCourses(uint256 _agentId) public view returns(uint256[] memory){\r\n        return agents[_agentId].assignedCourses;\r\n    }\r\n\r\n    // \r\n    function getCoursesAssignedTeacher(uint256 _courseId) public view returns(uint256[] memory){\r\n        return courses[_courseId].assignedTeacherId;\r\n    }\r\n\r\n    // \r\n    function getCoursesAssignedAgent(uint256 _courseId) public view returns(uint256[] memory){\r\n        return courses[_courseId].assignedAgentId;\r\n    }\r\n\r\n    function getTeacherIds() public view returns(uint256[] memory){\r\n        return teacherIds;\r\n    }\r\n\r\n    function getAgentIds() public view returns(uint256[] memory){\r\n        return agentIds;\r\n    }\r\n\r\n    function getCourseIds() public view returns(uint256[] memory){\r\n        return courseIds;\r\n    }\r\n\r\n    function getClassIds() public view returns(uint256[] memory){\r\n        return classIds; \r\n    }\r\n}",
  "sourcePath": "E:\\\\paper\\DAO\\git-DAO\\v1\\Course-allocation\\project\\contracts\\ICourseAllocation.sol",
  "compiler": {
    "name": "solc",
    "version": "0.8.7+commit.e28d00a7.Emscripten.clang"
  },
  "schemaVersion": "3.4.16",
  "updatedAt": "2025-03-27T08:15:38.626Z",
  "networkType": "ethereum",
  "devdoc": {
    "kind": "dev",
    "methods": {},
    "version": 1
  },
  "userdoc": {
    "kind": "user",
    "methods": {},
    "version": 1
  }
}