{
  "contractName": "ICourseAllocation",
  "abi": [
    {
      "inputs": [],
      "stateMutability": "nonpayable",
      "type": "constructor"
    },
    {
      "inputs": [],
      "name": "ScoreTypeChioce",
      "outputs": [
        {
          "internalType": "string",
          "name": "",
          "type": "string"
        }
      ],
      "stateMutability": "view",
      "type": "function",
      "constant": true
    },
    {
      "inputs": [
        {
          "internalType": "address",
          "name": "",
          "type": "address"
        }
      ],
      "name": "addressToAgentId",
      "outputs": [
        {
          "internalType": "uint256",
          "name": "",
          "type": "uint256"
        }
      ],
      "stateMutability": "view",
      "type": "function",
      "constant": true
    },
    {
      "inputs": [
        {
          "internalType": "address",
          "name": "",
          "type": "address"
        }
      ],
      "name": "addressToClassId",
      "outputs": [
        {
          "internalType": "uint256",
          "name": "",
          "type": "uint256"
        }
      ],
      "stateMutability": "view",
      "type": "function",
      "constant": true
    },
    {
      "inputs": [
        {
          "internalType": "address",
          "name": "",
          "type": "address"
        }
      ],
      "name": "addressToSupervisorId",
      "outputs": [
        {
          "internalType": "uint256",
          "name": "",
          "type": "uint256"
        }
      ],
      "stateMutability": "view",
      "type": "function",
      "constant": true
    },
    {
      "inputs": [
        {
          "internalType": "address",
          "name": "",
          "type": "address"
        }
      ],
      "name": "addressToTeacherId",
      "outputs": [
        {
          "internalType": "uint256",
          "name": "",
          "type": "uint256"
        }
      ],
      "stateMutability": "view",
      "type": "function",
      "constant": true
    },
    {
      "inputs": [],
      "name": "agentCount",
      "outputs": [
        {
          "internalType": "uint256",
          "name": "",
          "type": "uint256"
        }
      ],
      "stateMutability": "view",
      "type": "function",
      "constant": true
    },
    {
      "inputs": [
        {
          "internalType": "uint256",
          "name": "",
          "type": "uint256"
        }
      ],
      "name": "agentIds",
      "outputs": [
        {
          "internalType": "uint256",
          "name": "",
          "type": "uint256"
        }
      ],
      "stateMutability": "view",
      "type": "function",
      "constant": true
    },
    {
      "inputs": [
        {
          "internalType": "uint256",
          "name": "",
          "type": "uint256"
        }
      ],
      "name": "agents",
      "outputs": [
        {
          "internalType": "uint256",
          "name": "id",
          "type": "uint256"
        },
        {
          "internalType": "string",
          "name": "name",
          "type": "string"
        },
        {
          "internalType": "address",
          "name": "addr",
          "type": "address"
        },
        {
          "internalType": "uint256",
          "name": "value",
          "type": "uint256"
        }
      ],
      "stateMutability": "view",
      "type": "function",
      "constant": true
    },
    {
      "inputs": [],
      "name": "classCount",
      "outputs": [
        {
          "internalType": "uint256",
          "name": "",
          "type": "uint256"
        }
      ],
      "stateMutability": "view",
      "type": "function",
      "constant": true
    },
    {
      "inputs": [
        {
          "internalType": "uint256",
          "name": "",
          "type": "uint256"
        }
      ],
      "name": "classIds",
      "outputs": [
        {
          "internalType": "uint256",
          "name": "",
          "type": "uint256"
        }
      ],
      "stateMutability": "view",
      "type": "function",
      "constant": true
    },
    {
      "inputs": [],
      "name": "courseCount",
      "outputs": [
        {
          "internalType": "uint256",
          "name": "",
          "type": "uint256"
        }
      ],
      "stateMutability": "view",
      "type": "function",
      "constant": true
    },
    {
      "inputs": [
        {
          "internalType": "uint256",
          "name": "",
          "type": "uint256"
        }
      ],
      "name": "courseIds",
      "outputs": [
        {
          "internalType": "uint256",
          "name": "",
          "type": "uint256"
        }
      ],
      "stateMutability": "view",
      "type": "function",
      "constant": true
    },
    {
      "inputs": [
        {
          "internalType": "uint256",
          "name": "",
          "type": "uint256"
        }
      ],
      "name": "courseScores",
      "outputs": [
        {
          "internalType": "uint256",
          "name": "id",
          "type": "uint256"
        },
        {
          "internalType": "uint256",
          "name": "totalScore",
          "type": "uint256"
        },
        {
          "internalType": "uint256",
          "name": "machineScore",
          "type": "uint256"
        }
      ],
      "stateMutability": "view",
      "type": "function",
      "constant": true
    },
    {
      "inputs": [
        {
          "internalType": "uint256",
          "name": "",
          "type": "uint256"
        }
      ],
      "name": "courses",
      "outputs": [
        {
          "internalType": "uint256",
          "name": "id",
          "type": "uint256"
        },
        {
          "internalType": "string",
          "name": "name",
          "type": "string"
        },
        {
          "internalType": "uint256",
          "name": "importance",
          "type": "uint256"
        },
        {
          "internalType": "uint256",
          "name": "courseDifficulty",
          "type": "uint256"
        }
      ],
      "stateMutability": "view",
      "type": "function",
      "constant": true
    },
    {
      "inputs": [],
      "name": "supervisorCount",
      "outputs": [
        {
          "internalType": "uint256",
          "name": "",
          "type": "uint256"
        }
      ],
      "stateMutability": "view",
      "type": "function",
      "constant": true
    },
    {
      "inputs": [
        {
          "internalType": "uint256",
          "name": "",
          "type": "uint256"
        }
      ],
      "name": "supervisorIds",
      "outputs": [
        {
          "internalType": "uint256",
          "name": "",
          "type": "uint256"
        }
      ],
      "stateMutability": "view",
      "type": "function",
      "constant": true
    },
    {
      "inputs": [
        {
          "internalType": "uint256",
          "name": "",
          "type": "uint256"
        }
      ],
      "name": "supervisors",
      "outputs": [
        {
          "internalType": "uint256",
          "name": "id",
          "type": "uint256"
        },
        {
          "internalType": "string",
          "name": "name",
          "type": "string"
        },
        {
          "internalType": "address",
          "name": "addr",
          "type": "address"
        }
      ],
      "stateMutability": "view",
      "type": "function",
      "constant": true
    },
    {
      "inputs": [],
      "name": "teacherCount",
      "outputs": [
        {
          "internalType": "uint256",
          "name": "",
          "type": "uint256"
        }
      ],
      "stateMutability": "view",
      "type": "function",
      "constant": true
    },
    {
      "inputs": [
        {
          "internalType": "uint256",
          "name": "",
          "type": "uint256"
        }
      ],
      "name": "teacherIds",
      "outputs": [
        {
          "internalType": "uint256",
          "name": "",
          "type": "uint256"
        }
      ],
      "stateMutability": "view",
      "type": "function",
      "constant": true
    },
    {
      "inputs": [
        {
          "internalType": "uint256",
          "name": "",
          "type": "uint256"
        }
      ],
      "name": "teachers",
      "outputs": [
        {
          "internalType": "uint256",
          "name": "id",
          "type": "uint256"
        },
        {
          "internalType": "string",
          "name": "name",
          "type": "string"
        },
        {
          "internalType": "address",
          "name": "addr",
          "type": "address"
        },
        {
          "internalType": "uint256",
          "name": "suitabilityWeight",
          "type": "uint256"
        },
        {
          "internalType": "uint256",
          "name": "transferCourseCoins",
          "type": "uint256"
        },
        {
          "internalType": "uint256",
          "name": "value",
          "type": "uint256"
        }
      ],
      "stateMutability": "view",
      "type": "function",
      "constant": true
    },
    {
      "inputs": [],
      "name": "totalWeight",
      "outputs": [
        {
          "internalType": "uint256",
          "name": "",
          "type": "uint256"
        }
      ],
      "stateMutability": "view",
      "type": "function",
      "constant": true
    },
    {
      "inputs": [],
      "name": "transferCourseEndTime",
      "outputs": [
        {
          "internalType": "uint256",
          "name": "",
          "type": "uint256"
        }
      ],
      "stateMutability": "view",
      "type": "function",
      "constant": true
    },
    {
      "inputs": [],
      "name": "transferCourseNumbers",
      "outputs": [
        {
          "internalType": "uint256",
          "name": "",
          "type": "uint256"
        }
      ],
      "stateMutability": "view",
      "type": "function",
      "constant": true
    },
    {
      "inputs": [],
      "name": "transferCourseStartTime",
      "outputs": [
        {
          "internalType": "uint256",
          "name": "",
          "type": "uint256"
        }
      ],
      "stateMutability": "view",
      "type": "function",
      "constant": true
    },
    {
      "inputs": [
        {
          "internalType": "address",
          "name": "teacherAddress",
          "type": "address"
        },
        {
          "internalType": "uint256",
          "name": "_TeacherId",
          "type": "uint256"
        }
      ],
      "name": "setTeacherId",
      "outputs": [],
      "stateMutability": "nonpayable",
      "type": "function"
    },
    {
      "inputs": [
        {
          "internalType": "uint256",
          "name": "teacherId",
          "type": "uint256"
        }
      ],
      "name": "removeTeacher",
      "outputs": [],
      "stateMutability": "nonpayable",
      "type": "function"
    },
    {
      "inputs": [
        {
          "internalType": "uint256",
          "name": "teacherId",
          "type": "uint256"
        },
        {
          "internalType": "string",
          "name": "_name",
          "type": "string"
        }
      ],
      "name": "setTeacherName",
      "outputs": [],
      "stateMutability": "nonpayable",
      "type": "function"
    },
    {
      "inputs": [
        {
          "internalType": "uint256",
          "name": "teacherId",
          "type": "uint256"
        },
        {
          "internalType": "address",
          "name": "_teacherAddress",
          "type": "address"
        }
      ],
      "name": "setTeacherAddress",
      "outputs": [],
      "stateMutability": "nonpayable",
      "type": "function"
    },
    {
      "inputs": [
        {
          "internalType": "uint256",
          "name": "teacherId",
          "type": "uint256"
        },
        {
          "internalType": "uint256",
          "name": "_assignedCourses",
          "type": "uint256"
        }
      ],
      "name": "addTeacherAssignedCourses",
      "outputs": [],
      "stateMutability": "nonpayable",
      "type": "function"
    },
    {
      "inputs": [
        {
          "internalType": "uint256",
          "name": "teacherId",
          "type": "uint256"
        },
        {
          "internalType": "string",
          "name": "_researchDirection",
          "type": "string"
        }
      ],
      "name": "addTeacherResearchDirection",
      "outputs": [],
      "stateMutability": "nonpayable",
      "type": "function"
    },
    {
      "inputs": [
        {
          "internalType": "uint256",
          "name": "teacherId",
          "type": "uint256"
        },
        {
          "internalType": "uint256",
          "name": "_paperCount",
          "type": "uint256"
        }
      ],
      "name": "addTeacherPaperCount",
      "outputs": [],
      "stateMutability": "nonpayable",
      "type": "function"
    },
    {
      "inputs": [
        {
          "internalType": "uint256",
          "name": "teacherId",
          "type": "uint256"
        },
        {
          "internalType": "uint256",
          "name": "_assignedCourses",
          "type": "uint256"
        }
      ],
      "name": "addTeacherReallyAssignedCourses",
      "outputs": [],
      "stateMutability": "nonpayable",
      "type": "function"
    },
    {
      "inputs": [
        {
          "internalType": "uint256",
          "name": "teacherId",
          "type": "uint256"
        },
        {
          "internalType": "uint256",
          "name": "_assignedCourses",
          "type": "uint256"
        }
      ],
      "name": "removeTeacherAssignedCourses",
      "outputs": [],
      "stateMutability": "nonpayable",
      "type": "function"
    },
    {
      "inputs": [
        {
          "internalType": "uint256",
          "name": "teacherId",
          "type": "uint256"
        },
        {
          "internalType": "string",
          "name": "_researchDirection",
          "type": "string"
        }
      ],
      "name": "removeTeacherResearchDirection",
      "outputs": [],
      "stateMutability": "nonpayable",
      "type": "function"
    },
    {
      "inputs": [
        {
          "internalType": "uint256",
          "name": "teacherId",
          "type": "uint256"
        },
        {
          "internalType": "uint256",
          "name": "index",
          "type": "uint256"
        },
        {
          "internalType": "string",
          "name": "inputString",
          "type": "string"
        }
      ],
      "name": "compareStrings",
      "outputs": [
        {
          "internalType": "bool",
          "name": "",
          "type": "bool"
        }
      ],
      "stateMutability": "view",
      "type": "function",
      "constant": true
    },
    {
      "inputs": [
        {
          "internalType": "uint256",
          "name": "teacherId",
          "type": "uint256"
        },
        {
          "internalType": "uint256",
          "name": "_assignedCourses",
          "type": "uint256"
        }
      ],
      "name": "removeTeacherReallyAssignedCourses",
      "outputs": [],
      "stateMutability": "nonpayable",
      "type": "function"
    },
    {
      "inputs": [
        {
          "internalType": "uint256",
          "name": "teacherId",
          "type": "uint256"
        },
        {
          "internalType": "uint256",
          "name": "_suitabilityWeight",
          "type": "uint256"
        }
      ],
      "name": "setTeacherSuitabilityWeight",
      "outputs": [],
      "stateMutability": "nonpayable",
      "type": "function"
    },
    {
      "inputs": [
        {
          "internalType": "uint256",
          "name": "teacherId",
          "type": "uint256"
        },
        {
          "internalType": "uint256",
          "name": "_transferCourseCoins",
          "type": "uint256"
        }
      ],
      "name": "setTeacherTransferCourseCoins",
      "outputs": [],
      "stateMutability": "nonpayable",
      "type": "function"
    },
    {
      "inputs": [
        {
          "internalType": "uint256",
          "name": "teacherId",
          "type": "uint256"
        },
        {
          "internalType": "uint256",
          "name": "_value",
          "type": "uint256"
        }
      ],
      "name": "setTeacherValue",
      "outputs": [],
      "stateMutability": "nonpayable",
      "type": "function"
    },
    {
      "inputs": [
        {
          "internalType": "uint256",
          "name": "agentId",
          "type": "uint256"
        },
        {
          "internalType": "uint256",
          "name": "_value",
          "type": "uint256"
        }
      ],
      "name": "setAgentValue",
      "outputs": [],
      "stateMutability": "nonpayable",
      "type": "function"
    },
    {
      "inputs": [
        {
          "internalType": "uint256",
          "name": "teacherId",
          "type": "uint256"
        },
        {
          "internalType": "uint256[]",
          "name": "_suitabilities",
          "type": "uint256[]"
        }
      ],
      "name": "setAllTeacherCourseSuitability",
      "outputs": [],
      "stateMutability": "nonpayable",
      "type": "function"
    },
    {
      "inputs": [
        {
          "internalType": "uint256",
          "name": "teacherId",
          "type": "uint256"
        },
        {
          "internalType": "uint256",
          "name": "courseId",
          "type": "uint256"
        },
        {
          "internalType": "uint256",
          "name": "_suitability",
          "type": "uint256"
        }
      ],
      "name": "setTeacherCourseSuitability",
      "outputs": [],
      "stateMutability": "nonpayable",
      "type": "function"
    },
    {
      "inputs": [
        {
          "internalType": "uint256",
          "name": "teacherId",
          "type": "uint256"
        },
        {
          "internalType": "uint256[]",
          "name": "_preferences",
          "type": "uint256[]"
        }
      ],
      "name": "setAllTeacherCoursePreferences",
      "outputs": [],
      "stateMutability": "nonpayable",
      "type": "function"
    },
    {
      "inputs": [
        {
          "internalType": "uint256",
          "name": "teacherId",
          "type": "uint256"
        },
        {
          "internalType": "uint256",
          "name": "courseId",
          "type": "uint256"
        },
        {
          "internalType": "uint256",
          "name": "_preference",
          "type": "uint256"
        }
      ],
      "name": "setTeacherCoursePreferences",
      "outputs": [],
      "stateMutability": "nonpayable",
      "type": "function"
    },
    {
      "inputs": [
        {
          "internalType": "address",
          "name": "agentAddress",
          "type": "address"
        },
        {
          "internalType": "uint256",
          "name": "_agentId",
          "type": "uint256"
        }
      ],
      "name": "setAgentId",
      "outputs": [],
      "stateMutability": "nonpayable",
      "type": "function"
    },
    {
      "inputs": [
        {
          "internalType": "uint256",
          "name": "agentId",
          "type": "uint256"
        }
      ],
      "name": "removeAgent",
      "outputs": [],
      "stateMutability": "nonpayable",
      "type": "function"
    },
    {
      "inputs": [
        {
          "internalType": "uint256",
          "name": "agentId",
          "type": "uint256"
        },
        {
          "internalType": "string",
          "name": "_name",
          "type": "string"
        }
      ],
      "name": "setAgentName",
      "outputs": [],
      "stateMutability": "nonpayable",
      "type": "function"
    },
    {
      "inputs": [
        {
          "internalType": "uint256",
          "name": "agentId",
          "type": "uint256"
        },
        {
          "internalType": "address",
          "name": "_agentAddress",
          "type": "address"
        }
      ],
      "name": "setAgentAddress",
      "outputs": [],
      "stateMutability": "nonpayable",
      "type": "function"
    },
    {
      "inputs": [
        {
          "internalType": "uint256",
          "name": "agentId",
          "type": "uint256"
        },
        {
          "internalType": "uint256",
          "name": "_assignedCourses",
          "type": "uint256"
        }
      ],
      "name": "addAgentAssignedCourses",
      "outputs": [],
      "stateMutability": "nonpayable",
      "type": "function"
    },
    {
      "inputs": [
        {
          "internalType": "uint256",
          "name": "agentId",
          "type": "uint256"
        },
        {
          "internalType": "uint256",
          "name": "_assignedCourses",
          "type": "uint256"
        }
      ],
      "name": "removeAgentAssignedCourses",
      "outputs": [],
      "stateMutability": "nonpayable",
      "type": "function"
    },
    {
      "inputs": [
        {
          "internalType": "uint256",
          "name": "agentId",
          "type": "uint256"
        },
        {
          "internalType": "uint256",
          "name": "_courseId",
          "type": "uint256"
        },
        {
          "internalType": "uint256",
          "name": "_suitability",
          "type": "uint256"
        }
      ],
      "name": "setAgentCourseSuitability",
      "outputs": [],
      "stateMutability": "nonpayable",
      "type": "function"
    },
    {
      "inputs": [
        {
          "internalType": "uint256",
          "name": "agentId",
          "type": "uint256"
        },
        {
          "internalType": "uint256[]",
          "name": "_suitabilities",
          "type": "uint256[]"
        }
      ],
      "name": "setAllAgentCourseSuitability",
      "outputs": [],
      "stateMutability": "nonpayable",
      "type": "function"
    },
    {
      "inputs": [
        {
          "internalType": "address",
          "name": "classAddress",
          "type": "address"
        },
        {
          "internalType": "uint256",
          "name": "_id",
          "type": "uint256"
        }
      ],
      "name": "setClassId",
      "outputs": [],
      "stateMutability": "nonpayable",
      "type": "function"
    },
    {
      "inputs": [
        {
          "internalType": "uint256",
          "name": "classId",
          "type": "uint256"
        }
      ],
      "name": "removeClass",
      "outputs": [],
      "stateMutability": "nonpayable",
      "type": "function"
    },
    {
      "inputs": [
        {
          "internalType": "uint256",
          "name": "courseId",
          "type": "uint256"
        }
      ],
      "name": "setCourseId",
      "outputs": [],
      "stateMutability": "nonpayable",
      "type": "function"
    },
    {
      "inputs": [
        {
          "internalType": "uint256",
          "name": "courseId",
          "type": "uint256"
        }
      ],
      "name": "removeCourse",
      "outputs": [],
      "stateMutability": "nonpayable",
      "type": "function"
    },
    {
      "inputs": [
        {
          "internalType": "uint256",
          "name": "courseId",
          "type": "uint256"
        },
        {
          "internalType": "string",
          "name": "_name",
          "type": "string"
        }
      ],
      "name": "setCourseName",
      "outputs": [],
      "stateMutability": "nonpayable",
      "type": "function"
    },
    {
      "inputs": [
        {
          "internalType": "uint256",
          "name": "courseId",
          "type": "uint256"
        },
        {
          "internalType": "uint256",
          "name": "_importance",
          "type": "uint256"
        }
      ],
      "name": "setCourseImportance",
      "outputs": [],
      "stateMutability": "nonpayable",
      "type": "function"
    },
    {
      "inputs": [
        {
          "internalType": "uint256",
          "name": "courseId",
          "type": "uint256"
        },
        {
          "internalType": "uint256",
          "name": "_courseDifficulty",
          "type": "uint256"
        }
      ],
      "name": "setCourseDifficulty",
      "outputs": [],
      "stateMutability": "nonpayable",
      "type": "function"
    },
    {
      "inputs": [
        {
          "internalType": "uint256",
          "name": "courseId",
          "type": "uint256"
        },
        {
          "internalType": "uint256",
          "name": "_machineScore",
          "type": "uint256"
        }
      ],
      "name": "setmachineScore",
      "outputs": [],
      "stateMutability": "nonpayable",
      "type": "function"
    },
    {
      "inputs": [
        {
          "internalType": "uint256[]",
          "name": "_importances",
          "type": "uint256[]"
        }
      ],
      "name": "setAllCourseImportance",
      "outputs": [],
      "stateMutability": "nonpayable",
      "type": "function"
    },
    {
      "inputs": [
        {
          "internalType": "uint256[]",
          "name": "_difficulties",
          "type": "uint256[]"
        }
      ],
      "name": "setAllCourseDifficulty",
      "outputs": [],
      "stateMutability": "nonpayable",
      "type": "function"
    },
    {
      "inputs": [
        {
          "internalType": "uint256",
          "name": "courseId",
          "type": "uint256"
        },
        {
          "internalType": "uint256",
          "name": "_teacherId",
          "type": "uint256"
        }
      ],
      "name": "addCourseAssignedTeacherId",
      "outputs": [],
      "stateMutability": "nonpayable",
      "type": "function"
    },
    {
      "inputs": [
        {
          "internalType": "uint256",
          "name": "courseId",
          "type": "uint256"
        },
        {
          "internalType": "uint256",
          "name": "_agentId",
          "type": "uint256"
        }
      ],
      "name": "addCourseAssignedAgentId",
      "outputs": [],
      "stateMutability": "nonpayable",
      "type": "function"
    },
    {
      "inputs": [
        {
          "internalType": "uint256",
          "name": "courseId",
          "type": "uint256"
        },
        {
          "internalType": "uint256",
          "name": "_teacherId",
          "type": "uint256"
        }
      ],
      "name": "removeCourseAssignedTeacherId",
      "outputs": [],
      "stateMutability": "nonpayable",
      "type": "function"
    },
    {
      "inputs": [
        {
          "internalType": "uint256",
          "name": "courseId",
          "type": "uint256"
        },
        {
          "internalType": "uint256",
          "name": "_agentId",
          "type": "uint256"
        }
      ],
      "name": "removeCourseAssignedAgentId",
      "outputs": [],
      "stateMutability": "nonpayable",
      "type": "function"
    },
    {
      "inputs": [
        {
          "internalType": "uint256",
          "name": "_teacherCount",
          "type": "uint256"
        }
      ],
      "name": "setTeacherCount",
      "outputs": [],
      "stateMutability": "nonpayable",
      "type": "function"
    },
    {
      "inputs": [
        {
          "internalType": "uint256",
          "name": "_agentCount",
          "type": "uint256"
        }
      ],
      "name": "setAgentCount",
      "outputs": [],
      "stateMutability": "nonpayable",
      "type": "function"
    },
    {
      "inputs": [
        {
          "internalType": "uint256",
          "name": "_classCount",
          "type": "uint256"
        }
      ],
      "name": "setClassCount",
      "outputs": [],
      "stateMutability": "nonpayable",
      "type": "function"
    },
    {
      "inputs": [
        {
          "internalType": "uint256",
          "name": "_courseCount",
          "type": "uint256"
        }
      ],
      "name": "setCourseCount",
      "outputs": [],
      "stateMutability": "nonpayable",
      "type": "function"
    },
    {
      "inputs": [
        {
          "internalType": "uint256",
          "name": "_teacherId",
          "type": "uint256"
        },
        {
          "internalType": "uint256",
          "name": "courseId",
          "type": "uint256"
        }
      ],
      "name": "getTeacherSuitability",
      "outputs": [
        {
          "internalType": "uint256",
          "name": "",
          "type": "uint256"
        }
      ],
      "stateMutability": "view",
      "type": "function",
      "constant": true
    },
    {
      "inputs": [
        {
          "internalType": "uint256",
          "name": "_agentId",
          "type": "uint256"
        },
        {
          "internalType": "uint256",
          "name": "courseId",
          "type": "uint256"
        }
      ],
      "name": "getAgentSuitability",
      "outputs": [
        {
          "internalType": "uint256",
          "name": "",
          "type": "uint256"
        }
      ],
      "stateMutability": "view",
      "type": "function",
      "constant": true
    },
    {
      "inputs": [
        {
          "internalType": "uint256",
          "name": "_teacherId",
          "type": "uint256"
        },
        {
          "internalType": "uint256",
          "name": "courseId",
          "type": "uint256"
        }
      ],
      "name": "getPreference",
      "outputs": [
        {
          "internalType": "uint256",
          "name": "",
          "type": "uint256"
        }
      ],
      "stateMutability": "view",
      "type": "function",
      "constant": true
    },
    {
      "inputs": [
        {
          "internalType": "uint256",
          "name": "_teacherId",
          "type": "uint256"
        }
      ],
      "name": "getTeacherAssignedCourses",
      "outputs": [
        {
          "internalType": "uint256[]",
          "name": "",
          "type": "uint256[]"
        }
      ],
      "stateMutability": "view",
      "type": "function",
      "constant": true
    },
    {
      "inputs": [
        {
          "internalType": "uint256",
          "name": "_teacherId",
          "type": "uint256"
        }
      ],
      "name": "getTeacherReallyAssignedCourses",
      "outputs": [
        {
          "internalType": "uint256[]",
          "name": "",
          "type": "uint256[]"
        }
      ],
      "stateMutability": "view",
      "type": "function",
      "constant": true
    },
    {
      "inputs": [
        {
          "internalType": "uint256",
          "name": "_teacherId",
          "type": "uint256"
        }
      ],
      "name": "getTeacherResearchDirection",
      "outputs": [
        {
          "internalType": "string[]",
          "name": "",
          "type": "string[]"
        }
      ],
      "stateMutability": "view",
      "type": "function",
      "constant": true
    },
    {
      "inputs": [
        {
          "internalType": "uint256",
          "name": "_teacherId",
          "type": "uint256"
        }
      ],
      "name": "getTeacherPaperCount",
      "outputs": [
        {
          "internalType": "uint256[]",
          "name": "",
          "type": "uint256[]"
        }
      ],
      "stateMutability": "view",
      "type": "function",
      "constant": true
    },
    {
      "inputs": [
        {
          "internalType": "uint256",
          "name": "_agentId",
          "type": "uint256"
        }
      ],
      "name": "getAgentAssignedCourses",
      "outputs": [
        {
          "internalType": "uint256[]",
          "name": "",
          "type": "uint256[]"
        }
      ],
      "stateMutability": "view",
      "type": "function",
      "constant": true
    },
    {
      "inputs": [
        {
          "internalType": "uint256",
          "name": "_courseId",
          "type": "uint256"
        }
      ],
      "name": "getCoursesAssignedTeacher",
      "outputs": [
        {
          "internalType": "uint256[]",
          "name": "",
          "type": "uint256[]"
        }
      ],
      "stateMutability": "view",
      "type": "function",
      "constant": true
    },
    {
      "inputs": [
        {
          "internalType": "uint256",
          "name": "_courseId",
          "type": "uint256"
        }
      ],
      "name": "getCoursesAssignedAgent",
      "outputs": [
        {
          "internalType": "uint256[]",
          "name": "",
          "type": "uint256[]"
        }
      ],
      "stateMutability": "view",
      "type": "function",
      "constant": true
    },
    {
      "inputs": [
        {
          "internalType": "uint256",
          "name": "courseId",
          "type": "uint256"
        }
      ],
      "name": "getCourseImportance",
      "outputs": [
        {
          "internalType": "uint256",
          "name": "",
          "type": "uint256"
        }
      ],
      "stateMutability": "view",
      "type": "function",
      "constant": true
    },
    {
      "inputs": [],
      "name": "getTeacherIds",
      "outputs": [
        {
          "internalType": "uint256[]",
          "name": "",
          "type": "uint256[]"
        }
      ],
      "stateMutability": "view",
      "type": "function",
      "constant": true
    },
    {
      "inputs": [],
      "name": "getAgentIds",
      "outputs": [
        {
          "internalType": "uint256[]",
          "name": "",
          "type": "uint256[]"
        }
      ],
      "stateMutability": "view",
      "type": "function",
      "constant": true
    },
    {
      "inputs": [],
      "name": "getCourseIds",
      "outputs": [
        {
          "internalType": "uint256[]",
          "name": "",
          "type": "uint256[]"
        }
      ],
      "stateMutability": "view",
      "type": "function",
      "constant": true
    },
    {
      "inputs": [],
      "name": "getClassIds",
      "outputs": [
        {
          "internalType": "uint256[]",
          "name": "",
          "type": "uint256[]"
        }
      ],
      "stateMutability": "view",
      "type": "function",
      "constant": true
    },
    {
      "inputs": [
        {
          "internalType": "uint256",
          "name": "courseId",
          "type": "uint256"
        },
        {
          "internalType": "uint256",
          "name": "classId",
          "type": "uint256"
        },
        {
          "internalType": "uint256",
          "name": "score",
          "type": "uint256"
        }
      ],
      "name": "addCourseClassScores",
      "outputs": [],
      "stateMutability": "nonpayable",
      "type": "function"
    },
    {
      "inputs": [
        {
          "internalType": "uint256",
          "name": "courseId",
          "type": "uint256"
        },
        {
          "internalType": "uint256",
          "name": "classId",
          "type": "uint256"
        }
      ],
      "name": "getGiveScoreClassIdExists",
      "outputs": [
        {
          "internalType": "uint256",
          "name": "",
          "type": "uint256"
        }
      ],
      "stateMutability": "view",
      "type": "function",
      "constant": true
    },
    {
      "inputs": [
        {
          "internalType": "uint256",
          "name": "courseId",
          "type": "uint256"
        },
        {
          "internalType": "uint256[]",
          "name": "classIds_",
          "type": "uint256[]"
        }
      ],
      "name": "removeCourseClassScores",
      "outputs": [],
      "stateMutability": "nonpayable",
      "type": "function"
    },
    {
      "inputs": [
        {
          "internalType": "uint256",
          "name": "courseId",
          "type": "uint256"
        }
      ],
      "name": "getCourseClassScores",
      "outputs": [
        {
          "internalType": "uint256[]",
          "name": "",
          "type": "uint256[]"
        }
      ],
      "stateMutability": "view",
      "type": "function",
      "constant": true
    },
    {
      "inputs": [
        {
          "internalType": "uint256",
          "name": "courseId",
          "type": "uint256"
        },
        {
          "internalType": "uint256",
          "name": "teacherId",
          "type": "uint256"
        },
        {
          "internalType": "uint256",
          "name": "score",
          "type": "uint256"
        }
      ],
      "name": "addTeacherScores",
      "outputs": [],
      "stateMutability": "nonpayable",
      "type": "function"
    },
    {
      "inputs": [
        {
          "internalType": "uint256",
          "name": "courseId",
          "type": "uint256"
        },
        {
          "internalType": "uint256[]",
          "name": "teacherIds_",
          "type": "uint256[]"
        }
      ],
      "name": "removeTeacherScores",
      "outputs": [],
      "stateMutability": "nonpayable",
      "type": "function"
    },
    {
      "inputs": [
        {
          "internalType": "uint256",
          "name": "courseId",
          "type": "uint256"
        }
      ],
      "name": "getTeacherScores",
      "outputs": [
        {
          "internalType": "uint256[]",
          "name": "",
          "type": "uint256[]"
        }
      ],
      "stateMutability": "view",
      "type": "function",
      "constant": true
    },
    {
      "inputs": [
        {
          "internalType": "uint256",
          "name": "courseId",
          "type": "uint256"
        },
        {
          "internalType": "uint256",
          "name": "teacherId",
          "type": "uint256"
        }
      ],
      "name": "getGiveScoreTeacherIdExists",
      "outputs": [
        {
          "internalType": "uint256",
          "name": "",
          "type": "uint256"
        }
      ],
      "stateMutability": "view",
      "type": "function",
      "constant": true
    },
    {
      "inputs": [
        {
          "internalType": "uint256",
          "name": "courseId",
          "type": "uint256"
        },
        {
          "internalType": "uint256",
          "name": "score",
          "type": "uint256"
        }
      ],
      "name": "setCourseTotalScore",
      "outputs": [],
      "stateMutability": "nonpayable",
      "type": "function"
    },
    {
      "inputs": [
        {
          "internalType": "uint256",
          "name": "courseId",
          "type": "uint256"
        },
        {
          "internalType": "uint256",
          "name": "supervisorId",
          "type": "uint256"
        },
        {
          "internalType": "uint256",
          "name": "score",
          "type": "uint256"
        }
      ],
      "name": "addCourseSupervisorScores",
      "outputs": [],
      "stateMutability": "nonpayable",
      "type": "function"
    },
    {
      "inputs": [
        {
          "internalType": "uint256",
          "name": "courseId",
          "type": "uint256"
        },
        {
          "internalType": "uint256[]",
          "name": "supervisorIds_",
          "type": "uint256[]"
        }
      ],
      "name": "removeCourseSupervisorScores",
      "outputs": [],
      "stateMutability": "nonpayable",
      "type": "function"
    },
    {
      "inputs": [
        {
          "internalType": "uint256",
          "name": "courseId",
          "type": "uint256"
        },
        {
          "internalType": "uint256",
          "name": "supervisorId",
          "type": "uint256"
        }
      ],
      "name": "getGiveScoreSupervisorIdExists",
      "outputs": [
        {
          "internalType": "uint256",
          "name": "",
          "type": "uint256"
        }
      ],
      "stateMutability": "view",
      "type": "function",
      "constant": true
    },
    {
      "inputs": [
        {
          "internalType": "uint256",
          "name": "courseId",
          "type": "uint256"
        }
      ],
      "name": "getCourseSupervisorScores",
      "outputs": [
        {
          "internalType": "uint256[]",
          "name": "",
          "type": "uint256[]"
        }
      ],
      "stateMutability": "view",
      "type": "function",
      "constant": true
    },
    {
      "inputs": [
        {
          "internalType": "uint256",
          "name": "supervisorId",
          "type": "uint256"
        }
      ],
      "name": "addSupervisorId",
      "outputs": [],
      "stateMutability": "nonpayable",
      "type": "function"
    },
    {
      "inputs": [],
      "name": "getSupervisorIds",
      "outputs": [
        {
          "internalType": "uint256[]",
          "name": "",
          "type": "uint256[]"
        }
      ],
      "stateMutability": "view",
      "type": "function",
      "constant": true
    },
    {
      "inputs": [
        {
          "internalType": "address",
          "name": "supervisor",
          "type": "address"
        },
        {
          "internalType": "uint256",
          "name": "supervisorId",
          "type": "uint256"
        }
      ],
      "name": "setSupervisorId",
      "outputs": [],
      "stateMutability": "nonpayable",
      "type": "function"
    },
    {
      "inputs": [
        {
          "internalType": "uint256",
          "name": "supervisorId",
          "type": "uint256"
        },
        {
          "internalType": "string",
          "name": "_name",
          "type": "string"
        }
      ],
      "name": "setSupervisorName",
      "outputs": [],
      "stateMutability": "nonpayable",
      "type": "function"
    },
    {
      "inputs": [
        {
          "internalType": "uint256",
          "name": "supervisorId",
          "type": "uint256"
        },
        {
          "internalType": "uint256",
          "name": "courseId",
          "type": "uint256"
        },
        {
          "internalType": "uint256",
          "name": "score",
          "type": "uint256"
        }
      ],
      "name": "setSupervisorsCourseScore",
      "outputs": [],
      "stateMutability": "nonpayable",
      "type": "function"
    },
    {
      "inputs": [
        {
          "internalType": "uint256",
          "name": "_transferCourseNumbers",
          "type": "uint256"
        }
      ],
      "name": "settransferCourseNumbers",
      "outputs": [],
      "stateMutability": "nonpayable",
      "type": "function"
    },
    {
      "inputs": [
        {
          "internalType": "uint256",
          "name": "_transferCourseStartTime",
          "type": "uint256"
        }
      ],
      "name": "settransferCourseStartTime",
      "outputs": [],
      "stateMutability": "nonpayable",
      "type": "function"
    },
    {
      "inputs": [
        {
          "internalType": "uint256",
          "name": "_transferCourseEndTime",
          "type": "uint256"
        }
      ],
      "name": "settransferCourseEndTime",
      "outputs": [],
      "stateMutability": "nonpayable",
      "type": "function"
    },
    {
      "inputs": [
        {
          "internalType": "string",
          "name": "option",
          "type": "string"
        }
      ],
      "name": "setScoreType",
      "outputs": [],
      "stateMutability": "nonpayable",
      "type": "function"
    }
  ],
  "bytecode": "0x608060405234801561001057600080fd5b50615c5780620000216000396000f3fe608060405234801561001057600080fd5b50600436106106595760003560e01c80639476cf9b11610351578063ce64bf9b116101c3578063e637812f1161010f578063f0f2efd8116100ad578063fa96bf9511610087578063fa96bf951461143b578063fc09e9d01461146b578063fc2ddca514611487578063fe8dc6a8146114a357610659565b8063f0f2efd8146113e5578063f31e149414611401578063fa8f084d1461141d57610659565b8063e9061657116100e9578063e906165714611337578063ebacebe414611367578063ebd1aac614611397578063ee196ee2146113c957610659565b8063e637812f146112cf578063e7fa4557146112eb578063e8a2dc2f1461130757610659565b8063dd0357651161017c578063e204b10211610156578063e204b1021461124b578063e20b340514611267578063e40af03614611283578063e52505d81461129f57610659565b8063dd035765146111f7578063deb9f76a14611213578063df3addfa1461122f57610659565b8063ce64bf9b146110eb578063d4e57ff01461111b578063d95a61d51461114b578063d96ce73f1461117b578063dcc26818146111ab578063dcfa7057146111c757610659565b8063ad3a6ad41161029d578063bd1602d11161023b578063c0e0feb411610215578063c0e0feb414611067578063c2eca9bc14611083578063c318fe5f146110b3578063cddd6c63146110cf57610659565b8063bd1602d114611013578063bebfd7661461102f578063bfb9d44c1461104b57610659565b8063b4da858411610277578063b4da858414610f8d578063b7dc128414610fa9578063bb69df7214610fc7578063bca24bd414610fe357610659565b8063ad3a6ad414610f37578063b150876014610f53578063b373a43414610f7157610659565b80639e1223771161030a578063a7ab8472116102e4578063a7ab847214610ec3578063aaa4b24e14610edf578063ab7cee7714610efb578063ab99631714610f1957610659565b80639e12237714610e6f578063a549e41614610e8b578063a755ca5314610ea757610659565b80639476cf9b14610d84578063951d5fee14610db457806396c82e5714610dd257806396f979d214610df05780639709ee0114610e2357806397e92d5214610e5357610659565b806358f3a306116104ea578063700ed28b11610436578063827e5731116103d4578063851580a7116103ae578063851580a714610cec57806386875ea814610d1c5780638bbb3be114610d3857806391c89deb14610d5457610659565b8063827e573114610c5c57806382ff0a5a14610c8c5780638377b69014610cbc57610659565b806378834678116104105780637883467814610bc25780637ce28bac14610bf25780637e4d164114610c245780637fa7e04d14610c4057610659565b8063700ed28b14610b6e57806372ab4e9614610b8a57806372c30f4514610ba657610659565b806366055159116104a35780636d889f841161047d5780636d889f8414610aea5780636e428d2d14610b065780636e9b0f8f14610b225780636fcf4f9614610b5257610659565b80636605515914610a945780636798bad914610ab25780636b792cc814610ace57610659565b806358f3a306146109d85780635953faff146109f45780635ca24db014610a105780635e383d4614610a405780635f63efe214610a5c578063643d172c14610a7857610659565b80633abdb63d116105a95780634b974df7116105625780634dcb63661161053c5780634dcb63661461093d578063513856c81461095957806352feb0381461098c57806356e76058146109a857610659565b80634b974df7146108e75780634d27e912146109035780634d6523501461091f57610659565b80633abdb63d14610813578063406143ae1461082f578063439fc3d11461085f57806345073d5c1461087d57806346be313614610899578063494e2371146108b757610659565b80631928f3bc116106165780632359b7b8116105f05780632359b7b8146107885780632b0816ac146107a657806334ac0b40146107c257806338f6a6bd146107f757610659565b80631928f3bc146107325780631dd86f90146107505780631fe76a6c1461076c57610659565b8063034f578e1461065e57806307061e011461067c57806308a2037f146106ac5780630f7f13cf146106c85780630fa1c271146106f857806318860d3714610714575b600080fd5b6106666114bf565b6040516106739190615403565b60405180910390f35b61069660048036038101906106919190614d9f565b6114c5565b6040516106a39190615403565b60405180910390f35b6106c660048036038101906106c19190614d3f565b6114f7565b005b6106e260048036038101906106dd9190614b13565b611522565b6040516106ef9190615403565b60405180910390f35b610712600480360381019061070d9190614d9f565b61153a565b005b61071c6115fe565b6040516107299190615284565b60405180910390f35b61073a611656565b6040516107479190615403565b60405180910390f35b61076a60048036038101906107659190614e53565b61165c565b005b61078660048036038101906107819190614e53565b611710565b005b610790611741565b60405161079d9190615284565b60405180910390f35b6107c060048036038101906107bb9190614c16565b611799565b005b6107dc60048036038101906107d79190614c16565b6117e0565b6040516107ee969594939291906154a8565b60405180910390f35b610811600480360381019061080c9190614e53565b6118c4565b005b61082d60048036038101906108289190614c16565b61199c565b005b61084960048036038101906108449190614c16565b611a84565b6040516108569190615284565b60405180910390f35b610867611af2565b60405161087491906152c1565b60405180910390f35b61089760048036038101906108929190614ce3565b611b80565b005b6108a1611c0d565b6040516108ae9190615403565b60405180910390f35b6108d160048036038101906108cc9190614c16565b611c13565b6040516108de9190615403565b60405180910390f35b61090160048036038101906108fc9190614d9f565b611c37565b005b61091d60048036038101906109189190614e53565b611dd1565b005b610927611e02565b6040516109349190615284565b60405180910390f35b61095760048036038101906109529190614ce3565b611e5a565b005b610973600480360381019061096e9190614c16565b611ee7565b604051610983949392919061545c565b60405180910390f35b6109a660048036038101906109a19190614d9f565b611fbf565b005b6109c260048036038101906109bd9190614c16565b611fde565b6040516109cf9190615403565b60405180910390f35b6109f260048036038101906109ed9190614d9f565b612002565b005b610a0e6004803603810190610a099190614b80565b612021565b005b610a2a6004803603810190610a259190614c16565b6120e3565b604051610a379190615284565b60405180910390f35b610a5a6004803603810190610a559190614b40565b612151565b005b610a766004803603810190610a719190614c16565b6121c2565b005b610a926004803603810190610a8d9190614c16565b6121cc565b005b610a9c612210565b604051610aa99190615403565b60405180910390f35b610acc6004803603810190610ac79190614c16565b612216565b005b610ae86004803603810190610ae39190614c16565b612220565b005b610b046004803603810190610aff9190614e53565b61222a565b005b610b206004803603810190610b1b9190614d9f565b612302565b005b610b3c6004803603810190610b379190614c16565b61249c565b604051610b499190615403565b60405180910390f35b610b6c6004803603810190610b679190614c16565b6124bc565b005b610b886004803603810190610b839190614d9f565b612627565b005b610ba46004803603810190610b9f9190614d9f565b6126eb565b005b610bc06004803603810190610bbb9190614c16565b6127af565b005b610bdc6004803603810190610bd79190614c16565b61287b565b604051610be99190615262565b60405180910390f35b610c0c6004803603810190610c079190614c16565b61296a565b604051610c1b9392919061541e565b60405180910390f35b610c3e6004803603810190610c399190614bc9565b612a3c565b005b610c5a6004803603810190610c559190614d3f565b612a52565b005b610c766004803603810190610c719190614c16565b612a7d565b604051610c839190615284565b60405180910390f35b610ca66004803603810190610ca19190614c16565b612aeb565b604051610cb39190615284565b60405180910390f35b610cd66004803603810190610cd19190614d9f565b612b59565b604051610ce39190615403565b60405180910390f35b610d066004803603810190610d019190614d9f565b612b8b565b604051610d139190615403565b60405180910390f35b610d366004803603810190610d319190614d9f565b612bbd565b005b610d526004803603810190610d4d9190614b40565b612d57565b005b610d6e6004803603810190610d699190614c16565b612e0f565b604051610d7b9190615284565b60405180910390f35b610d9e6004803603810190610d999190614c16565b612e7d565b604051610dab9190615403565b60405180910390f35b610dbc612ea1565b604051610dc99190615403565b60405180910390f35b610dda612ea7565b604051610de79190615403565b60405180910390f35b610e0a6004803603810190610e059190614c16565b612ead565b604051610e1a9493929190615510565b60405180910390f35b610e3d6004803603810190610e389190614d9f565b612f65565b604051610e4a9190615403565b60405180910390f35b610e6d6004803603810190610e689190614c83565b612f97565b005b610e896004803603810190610e849190614d3f565b6130f0565b005b610ea56004803603810190610ea09190614b40565b61311b565b005b610ec16004803603810190610ebc9190614d9f565b6131a7565b005b610edd6004803603810190610ed89190614d3f565b6131e8565b005b610ef96004803603810190610ef49190614d9f565b613296565b005b610f036132b5565b604051610f109190615403565b60405180910390f35b610f216132bb565b604051610f2e9190615403565b60405180910390f35b610f516004803603810190610f4c9190614c83565b6132c1565b005b610f5b61341a565b604051610f689190615284565b60405180910390f35b610f8b6004803603810190610f869190614c16565b613472565b005b610fa76004803603810190610fa29190614d9f565b61347c565b005b610fb161351e565b604051610fbe9190615403565b60405180910390f35b610fe16004803603810190610fdc9190614d9f565b613524565b005b610ffd6004803603810190610ff89190614c16565b613624565b60405161100a9190615403565b60405180910390f35b61102d60048036038101906110289190614c16565b613648565b005b61104960048036038101906110449190614d3f565b613652565b005b61106560048036038101906110609190614b40565b6136a9565b005b611081600480360381019061107c9190614d3f565b613735565b005b61109d60048036038101906110989190614ddf565b61398c565b6040516110aa91906152a6565b60405180910390f35b6110cd60048036038101906110c89190614c43565b613a25565b005b6110e960048036038101906110e49190614c43565b613b01565b005b61110560048036038101906111009190614c16565b613b5a565b6040516111129190615284565b60405180910390f35b61113560048036038101906111309190614b13565b613bc8565b6040516111429190615403565b60405180910390f35b61116560048036038101906111609190614b13565b613be0565b6040516111729190615403565b60405180910390f35b61119560048036038101906111909190614c16565b613bf8565b6040516111a29190615284565b60405180910390f35b6111c560048036038101906111c09190614b80565b613c66565b005b6111e160048036038101906111dc9190614c16565b613d28565b6040516111ee9190615403565b60405180910390f35b611211600480360381019061120c9190614c16565b613d4c565b005b61122d60048036038101906112289190614c16565b613d56565b005b61124960048036038101906112449190614c16565b613d60565b005b61126560048036038101906112609190614d9f565b613e2c565b005b611281600480360381019061127c9190614d9f565b613e4b565b005b61129d60048036038101906112989190614d9f565b613eed565b005b6112b960048036038101906112b49190614c16565b614087565b6040516112c69190615284565b60405180910390f35b6112e960048036038101906112e49190614d9f565b6140f5565b005b61130560048036038101906113009190614d9f565b6141b9565b005b611321600480360381019061131c9190614d9f565b614353565b60405161132e9190615403565b60405180910390f35b611351600480360381019061134c9190614d9f565b614385565b60405161135e9190615403565b60405180910390f35b611381600480360381019061137c9190614b13565b6143b7565b60405161138e9190615403565b60405180910390f35b6113b160048036038101906113ac9190614c16565b6143cf565b6040516113c09392919061555c565b60405180910390f35b6113e360048036038101906113de9190614d9f565b6143f9565b005b6113ff60048036038101906113fa9190614c83565b614418565b005b61141b60048036038101906114169190614e53565b6144ee565b005b6114256145c6565b6040516114329190615284565b60405180910390f35b61145560048036038101906114509190614c16565b61461e565b6040516114629190615284565b60405180910390f35b61148560048036038101906114809190614d9f565b61468c565b005b6114a1600480360381019061149c9190614e53565b614750565b005b6114bd60048036038101906114b89190614ce3565b614781565b005b60175481565b6000600a6000848152602001908152602001600020600501600083815260200190815260200160002054905092915050565b818160086000868152602001908152602001600020600101919061151c92919061480e565b50505050565b60026020528060005260406000206000915090505481565b6000805b60096000858152602001908152602001600020600301805490508110156115b55782600960008681526020019081526020016000206003018281548110611588576115876158f0565b5b906000526020600020015414156115a257600191506115b5565b80806115ad9061581a565b91505061153e565b50806115f957600960008481526020019081526020016000206003018290806001815401808255809150506001900390600052602060002001600090919091909150555b505050565b6060601380548060200260200160405190810160405280929190818152602001828054801561164c57602002820191906000526020600020905b815481526020019060010190808311611638575b5050505050905090565b60165481565b6000600260003373ffffffffffffffffffffffffffffffffffffffff1673ffffffffffffffffffffffffffffffffffffffff1681526020019081526020016000205414156116df576040517f08c379a00000000000000000000000000000000000000000000000000000000081526004016116d6906153c3565b60405180910390fd5b8060066000858152602001908152602001600020600b01600084815260200190815260200160002081905550505050565b8060066000858152602001908152602001600020600a01600084815260200190815260200160002081905550505050565b6060601280548060200260200160405190810160405280929190818152602001828054801561178f57602002820191906000526020600020905b81548152602001906001019080831161177b575b5050505050905090565b806009600083815260200190815260200160002060000181905550601281908060018154018082558091505060019003906000526020600020016000909190919091505550565b6006602052806000526040600020600091509050806000015490806001018054611809906157b7565b80601f0160208091040260200160405190810160405280929190818152602001828054611835906157b7565b80156118825780601f1061185757610100808354040283529160200191611882565b820191906000526020600020905b81548152906001019060200180831161186557829003601f168201915b5050505050908060040160009054906101000a900473ffffffffffffffffffffffffffffffffffffffff16908060070154908060080154908060090154905086565b6000600a60008581526020019081526020016000206005016000848152602001908152602001600020541461192e576040517f08c379a000000000000000000000000000000000000000000000000000000000815260040161192590615343565b60405180910390fd5b80600a6000858152602001908152602001600020600501600084815260200190815260200160002081905550600a6000848152602001908152602001600020600401819080600181540180825580915050600190039060005260206000200160009091909190915055505050565b6000600760008381526020019081526020016000206000018190555060005b601180549050811015611a805781601182815481106119dd576119dc6158f0565b5b90600052602060002001541415611a6d5760116001601180549050611a0291906156f9565b81548110611a1357611a126158f0565b5b906000526020600020015460118281548110611a3257611a316158f0565b5b90600052602060002001819055506011805480611a5257611a516158c1565b5b60019003818190600052602060002001600090559055611a80565b8080611a789061581a565b9150506119bb565b5050565b6060600a6000838152602001908152602001600020600401805480602002602001604051908101604052809291908181526020018280548015611ae657602002820191906000526020600020905b815481526020019060010190808311611ad2575b50505050509050919050565b60008054611aff906157b7565b80601f0160208091040260200160405190810160405280929190818152602001828054611b2b906157b7565b8015611b785780601f10611b4d57610100808354040283529160200191611b78565b820191906000526020600020905b815481529060010190602001808311611b5b57829003601f168201915b505050505081565b60005b8151811015611be6576000600a60008581526020019081526020016000206003016000848481518110611bb957611bb86158f0565b5b60200260200101518152602001908152602001600020819055508080611bde9061581a565b915050611b83565b50600a60008381526020019081526020016000206002016000611c099190614894565b5050565b600b5481565b60128181548110611c2357600080fd5b906000526020600020016000915090505481565b60008080600090505b6006600086815260200190815260200160002060050180549050811015611cba5783600660008781526020019081526020016000206005018281548110611c8a57611c896158f0565b5b90600052602060002001541415611ca75760019250809150611cba565b8080611cb29061581a565b915050611c40565b508115611d90576006600085815260200190815260200160002060050160016006600087815260200190815260200160002060050180549050611cfd91906156f9565b81548110611d0e57611d0d6158f0565b5b9060005260206000200154600660008681526020019081526020016000206005018281548110611d4157611d406158f0565b5b906000526020600020018190555060066000858152602001908152602001600020600501805480611d7557611d746158c1565b5b60019003818190600052602060002001600090559055611dcb565b6040517f08c379a0000000000000000000000000000000000000000000000000000000008152600401611dc290615323565b60405180910390fd5b50505050565b8060076000858152602001908152602001600020600501600084815260200190815260200160002081905550505050565b60606010805480602002602001604051908101604052809291908181526020018280548015611e5057602002820191906000526020600020905b815481526020019060010190808311611e3c575b5050505050905090565b60005b8151811015611ec0576000600a60008581526020019081526020016000206007016000848481518110611e9357611e926158f0565b5b60200260200101518152602001908152602001600020819055508080611eb89061581a565b915050611e5d565b50600a60008381526020019081526020016000206006016000611ee39190614894565b5050565b6007602052806000526040600020600091509050806000015490806001018054611f10906157b7565b80601f0160208091040260200160405190810160405280929190818152602001828054611f3c906157b7565b8015611f895780601f10611f5e57610100808354040283529160200191611f89565b820191906000526020600020905b815481529060010190602001808311611f6c57829003601f168201915b5050505050908060020160009054906101000a900473ffffffffffffffffffffffffffffffffffffffff16908060030154905084565b8060096000848152602001908152602001600020600501819055505050565b60118181548110611fee57600080fd5b906000526020600020016000915090505481565b80600a6000848152602001908152602001600020600801819055505050565b601280549050815114612069576040517f08c379a000000000000000000000000000000000000000000000000000000000815260040161206090615363565b60405180910390fd5b60005b6012805490508110156120df5781818151811061208c5761208b6158f0565b5b602002602001015160096000601284815481106120ac576120ab6158f0565b5b906000526020600020015481526020019081526020016000206002018190555080806120d79061581a565b91505061206c565b5050565b6060600a600083815260200190815260200160002060020180548060200260200160405190810160405280929190818152602001828054801561214557602002820191906000526020600020905b815481526020019060010190808311612131575b50505050509050919050565b80600460008473ffffffffffffffffffffffffffffffffffffffff1673ffffffffffffffffffffffffffffffffffffffff1681526020019081526020016000208190555060138190806001815401808255809150506001900390600052602060002001600090919091909150555050565b8060168190555050565b6014819080600181540180825580915050600190039060005260206000200160009091909190915055600f60008154809291906122089061581a565b919050555050565b600e5481565b80600b8190555050565b8060158190555050565b6000600a600085815260200190815260200160002060030160008481526020019081526020016000205414612294576040517f08c379a000000000000000000000000000000000000000000000000000000000815260040161228b90615303565b60405180910390fd5b80600a6000858152602001908152602001600020600301600084815260200190815260200160002081905550600a6000848152602001908152602001600020600201819080600181540180825580915050600190039060005260206000200160009091909190915055505050565b60008080600090505b60096000868152602001908152602001600020600301805490508110156123855783600960008781526020019081526020016000206003018281548110612355576123546158f0565b5b906000526020600020015414156123725760019250809150612385565b808061237d9061581a565b91505061230b565b50811561245b5760096000858152602001908152602001600020600301600160096000878152602001908152602001600020600301805490506123c891906156f9565b815481106123d9576123d86158f0565b5b906000526020600020015460096000868152602001908152602001600020600301828154811061240c5761240b6158f0565b5b9060005260206000200181905550600960008581526020019081526020016000206003018054806124405761243f6158c1565b5b60019003818190600052602060002001600090559055612496565b6040517f08c379a000000000000000000000000000000000000000000000000000000000815260040161248d90615323565b60405180910390fd5b50505050565b600060096000838152602001908152602001600020600201549050919050565b6000600260003373ffffffffffffffffffffffffffffffffffffffff1673ffffffffffffffffffffffffffffffffffffffff16815260200190815260200160002054141561253f576040517f08c379a0000000000000000000000000000000000000000000000000000000008152600401612536906153c3565b60405180910390fd5b6000600660008381526020019081526020016000206000018190555060005b6010805490508110156126235781601082815481106125805761257f6158f0565b5b9060005260206000200154141561261057601060016010805490506125a591906156f9565b815481106125b6576125b56158f0565b5b9060005260206000200154601082815481106125d5576125d46158f0565b5b906000526020600020018190555060108054806125f5576125f46158c1565b5b60019003818190600052602060002001600090559055612623565b808061261b9061581a565b91505061255e565b5050565b6000805b60066000858152602001908152602001600020600501805490508110156126a25782600660008681526020019081526020016000206005018281548110612675576126746158f0565b5b9060005260206000200154141561268f57600191506126a2565b808061269a9061581a565b91505061262b565b50806126e657600660008481526020019081526020016000206005018290806001815401808255809150506001900390600052602060002001600090919091909150555b505050565b6000805b60076000858152602001908152602001600020600401805490508110156127665782600760008681526020019081526020016000206004018281548110612739576127386158f0565b5b906000526020600020015414156127535760019150612766565b808061275e9061581a565b9150506126ef565b50806127aa57600760008481526020019081526020016000206004018290806001815401808255809150506001900390600052602060002001600090919091909150555b505050565b60005b6013805490508110156128775781601382815481106127d4576127d36158f0565b5b9060005260206000200154141561286457601360016013805490506127f991906156f9565b8154811061280a576128096158f0565b5b906000526020600020015460138281548110612829576128286158f0565b5b90600052602060002001819055506013805480612849576128486158c1565b5b60019003818190600052602060002001600090559055612877565b808061286f9061581a565b9150506127b2565b5050565b606060066000838152602001908152602001600020600201805480602002602001604051908101604052809291908181526020016000905b8282101561295f5783829060005260206000200180546128d2906157b7565b80601f01602080910402602001604051908101604052809291908181526020018280546128fe906157b7565b801561294b5780601f106129205761010080835404028352916020019161294b565b820191906000526020600020905b81548152906001019060200180831161292e57829003601f168201915b5050505050815260200190600101906128b3565b505050509050919050565b6008602052806000526040600020600091509050806000015490806001018054612993906157b7565b80601f01602080910402602001604051908101604052809291908181526020018280546129bf906157b7565b8015612a0c5780601f106129e157610100808354040283529160200191612a0c565b820191906000526020600020905b8154815290600101906020018083116129ef57829003601f168201915b5050505050908060020160009054906101000a900473ffffffffffffffffffffffffffffffffffffffff16905083565b818160009190612a4d92919061480e565b505050565b8181600760008681526020019081526020016000206001019190612a7792919061480e565b50505050565b606060066000838152602001908152602001600020600601805480602002602001604051908101604052809291908181526020018280548015612adf57602002820191906000526020600020905b815481526020019060010190808311612acb575b50505050509050919050565b606060096000838152602001908152602001600020600301805480602002602001604051908101604052809291908181526020018280548015612b4d57602002820191906000526020600020905b815481526020019060010190808311612b39575b50505050509050919050565b6000600a6000848152602001908152602001600020600301600083815260200190815260200160002054905092915050565b600060066000848152602001908152602001600020600b01600083815260200190815260200160002054905092915050565b60008080600090505b6009600086815260200190815260200160002060040180549050811015612c405783600960008781526020019081526020016000206004018281548110612c1057612c0f6158f0565b5b90600052602060002001541415612c2d5760019250809150612c40565b8080612c389061581a565b915050612bc6565b508115612d16576009600085815260200190815260200160002060040160016009600087815260200190815260200160002060040180549050612c8391906156f9565b81548110612c9457612c936158f0565b5b9060005260206000200154600960008681526020019081526020016000206004018281548110612cc757612cc66158f0565b5b906000526020600020018190555060096000858152602001908152602001600020600401805480612cfb57612cfa6158c1565b5b60019003818190600052602060002001600090559055612d51565b6040517f08c379a0000000000000000000000000000000000000000000000000000000008152600401612d4890615323565b60405180910390fd5b50505050565b80600560008473ffffffffffffffffffffffffffffffffffffffff1673ffffffffffffffffffffffffffffffffffffffff16815260200190815260200160002081905550806008600083815260200190815260200160002060000181905550816008600083815260200190815260200160002060020160006101000a81548173ffffffffffffffffffffffffffffffffffffffff021916908373ffffffffffffffffffffffffffffffffffffffff1602179055505050565b606060096000838152602001908152602001600020600401805480602002602001604051908101604052809291908181526020018280548015612e7157602002820191906000526020600020905b815481526020019060010190808311612e5d575b50505050509050919050565b60148181548110612e8d57600080fd5b906000526020600020016000915090505481565b60155481565b60015481565b6009602052806000526040600020600091509050806000015490806001018054612ed6906157b7565b80601f0160208091040260200160405190810160405280929190818152602001828054612f02906157b7565b8015612f4f5780601f10612f2457610100808354040283529160200191612f4f565b820191906000526020600020905b815481529060010190602001808311612f3257829003601f168201915b5050505050908060020154908060050154905084565b600060076000848152602001908152602001600020600501600083815260200190815260200160002054905092915050565b6000600260003373ffffffffffffffffffffffffffffffffffffffff1673ffffffffffffffffffffffffffffffffffffffff16815260200190815260200160002054141561301a576040517f08c379a0000000000000000000000000000000000000000000000000000000008152600401613011906153c3565b60405180910390fd5b6012805490508282905014613064576040517f08c379a000000000000000000000000000000000000000000000000000000000815260040161305b906153e3565b60405180910390fd5b60005b6012805490508110156130ea57828282818110613087576130866158f0565b5b9050602002013560066000868152602001908152602001600020600a016000601284815481106130ba576130b96158f0565b5b906000526020600020015481526020019081526020016000208190555080806130e29061581a565b915050613067565b50505050565b818160096000868152602001908152602001600020600101919061311592919061480e565b50505050565b80600260008473ffffffffffffffffffffffffffffffffffffffff1673ffffffffffffffffffffffffffffffffffffffff1681526020019081526020016000208190555080600660008381526020019081526020016000206000018190555060108190806001815401808255809150506001900390600052602060002001600090919091909150555050565b600660008381526020019081526020016000206003018190806001815401808255809150506001900390600052602060002001600090919091909150555050565b6000600260003373ffffffffffffffffffffffffffffffffffffffff1673ffffffffffffffffffffffffffffffffffffffff16815260200190815260200160002054141561326b576040517f08c379a0000000000000000000000000000000000000000000000000000000008152600401613262906153c3565b60405180910390fd5b818160066000868152602001908152602001600020600101919061329092919061480e565b50505050565b80600a6000848152602001908152602001600020600101819055505050565b600f5481565b600d5481565b6000600260003373ffffffffffffffffffffffffffffffffffffffff1673ffffffffffffffffffffffffffffffffffffffff168152602001908152602001600020541415613344576040517f08c379a000000000000000000000000000000000000000000000000000000000815260040161333b906153c3565b60405180910390fd5b601280549050828290501461338e576040517f08c379a0000000000000000000000000000000000000000000000000000000008152600401613385906152e3565b60405180910390fd5b60005b601280549050811015613414578282828181106133b1576133b06158f0565b5b9050602002013560066000868152602001908152602001600020600b016000601284815481106133e4576133e36158f0565b5b9060005260206000200154815260200190815260200160002081905550808061340c9061581a565b915050613391565b50505050565b6060601180548060200260200160405190810160405280929190818152602001828054801561346857602002820191906000526020600020905b815481526020019060010190808311613454575b5050505050905090565b8060178190555050565b6000600260003373ffffffffffffffffffffffffffffffffffffffff1673ffffffffffffffffffffffffffffffffffffffff1681526020019081526020016000205414156134ff576040517f08c379a00000000000000000000000000000000000000000000000000000000081526004016134f6906153c3565b60405180910390fd5b8060066000848152602001908152602001600020600801819055505050565b600c5481565b6000600260003373ffffffffffffffffffffffffffffffffffffffff1673ffffffffffffffffffffffffffffffffffffffff1681526020019081526020016000205414156135a7576040517f08c379a000000000000000000000000000000000000000000000000000000000815260040161359e906153c3565b60405180910390fd5b6006600083815260200190815260200160002060070154600160008282546135cf91906156f9565b9250508190555080600660008481526020019081526020016000206007018190555060066000838152602001908152602001600020600701546001600082825461361991906156a3565b925050819055505050565b6013818154811061363457600080fd5b906000526020600020016000915090505481565b80600e8190555050565b600660008481526020019081526020016000206002018282909180600181540180825580915050600190039060005260206000200160009091929091929091929091925091906136a392919061480e565b50505050565b80600360008473ffffffffffffffffffffffffffffffffffffffff1673ffffffffffffffffffffffffffffffffffffffff1681526020019081526020016000208190555080600760008381526020019081526020016000206000018190555060118190806001815401808255809150506001900390600052602060002001600090919091909150555050565b60008080600090505b600660008781526020019081526020016000206002018054905081101561378f5761376b8682878761398c565b1561377c576001925080915061378f565b80806137879061581a565b91505061373e565b50811561394a5760066000868152602001908152602001600020600201600160066000888152602001908152602001600020600201805490506137d291906156f9565b815481106137e3576137e26158f0565b5b90600052602060002001600660008781526020019081526020016000206002018281548110613815576138146158f0565b5b9060005260206000200190805461382b906157b7565b6138369291906148b5565b506006600086815260200190815260200160002060020180548061385d5761385c6158c1565b5b6001900381819060005260206000200160006138799190614942565b905560066000868152602001908152602001600020600301600160066000888152602001908152602001600020600301805490506138b791906156f9565b815481106138c8576138c76158f0565b5b90600052602060002001546006600087815260200190815260200160002060030182815481106138fb576138fa6158f0565b5b90600052602060002001819055506006600086815260200190815260200160002060030180548061392f5761392e6158c1565b5b60019003818190600052602060002001600090559055613985565b6040517f08c379a000000000000000000000000000000000000000000000000000000000815260040161397c906153a3565b60405180910390fd5b5050505050565b6000806006600087815260200190815260200160002060020185815481106139b7576139b66158f0565b5b906000526020600020016040516020016139d1919061524b565b604051602081830303815290604052805190602001209050600084846040516020016139fe929190615232565b60405160208183030381529060405280519060200120905080821492505050949350505050565b6000600260003373ffffffffffffffffffffffffffffffffffffffff1673ffffffffffffffffffffffffffffffffffffffff168152602001908152602001600020541415613aa8576040517f08c379a0000000000000000000000000000000000000000000000000000000008152600401613a9f906153c3565b60405180910390fd5b806006600084815260200190815260200160002060040160006101000a81548173ffffffffffffffffffffffffffffffffffffffff021916908373ffffffffffffffffffffffffffffffffffffffff1602179055505050565b806007600084815260200190815260200160002060020160006101000a81548173ffffffffffffffffffffffffffffffffffffffff021916908373ffffffffffffffffffffffffffffffffffffffff1602179055505050565b606060076000838152602001908152602001600020600401805480602002602001604051908101604052809291908181526020018280548015613bbc57602002820191906000526020600020905b815481526020019060010190808311613ba8575b50505050509050919050565b60046020528060005260406000206000915090505481565b60056020528060005260406000206000915090505481565b6060600a6000838152602001908152602001600020600601805480602002602001604051908101604052809291908181526020018280548015613c5a57602002820191906000526020600020905b815481526020019060010190808311613c46575b50505050509050919050565b601280549050815114613cae576040517f08c379a0000000000000000000000000000000000000000000000000000000008152600401613ca590615363565b60405180910390fd5b60005b601280549050811015613d2457818181518110613cd157613cd06158f0565b5b60200260200101516009600060128481548110613cf157613cf06158f0565b5b90600052602060002001548152602001908152602001600020600501819055508080613d1c9061581a565b915050613cb1565b5050565b60108181548110613d3857600080fd5b906000526020600020016000915090505481565b80600d8190555050565b80600c8190555050565b60005b601280549050811015613e28578160128281548110613d8557613d846158f0565b5b90600052602060002001541415613e155760126001601280549050613daa91906156f9565b81548110613dbb57613dba6158f0565b5b906000526020600020015460128281548110613dda57613dd96158f0565b5b90600052602060002001819055506012805480613dfa57613df96158c1565b5b60019003818190600052602060002001600090559055613e28565b8080613e209061581a565b915050613d63565b5050565b8060096000848152602001908152602001600020600201819055505050565b6000600260003373ffffffffffffffffffffffffffffffffffffffff1673ffffffffffffffffffffffffffffffffffffffff168152602001908152602001600020541415613ece576040517f08c379a0000000000000000000000000000000000000000000000000000000008152600401613ec5906153c3565b60405180910390fd5b8060066000848152602001908152602001600020600901819055505050565b60008080600090505b6007600086815260200190815260200160002060040180549050811015613f705783600760008781526020019081526020016000206004018281548110613f4057613f3f6158f0565b5b90600052602060002001541415613f5d5760019250809150613f70565b8080613f689061581a565b915050613ef6565b508115614046576007600085815260200190815260200160002060040160016007600087815260200190815260200160002060040180549050613fb391906156f9565b81548110613fc457613fc36158f0565b5b9060005260206000200154600760008681526020019081526020016000206004018281548110613ff757613ff66158f0565b5b90600052602060002001819055506007600085815260200190815260200160002060040180548061402b5761402a6158c1565b5b60019003818190600052602060002001600090559055614081565b6040517f08c379a000000000000000000000000000000000000000000000000000000000815260040161407890615323565b60405180910390fd5b50505050565b6060600660008381526020019081526020016000206005018054806020026020016040519081016040528092919081815260200182805480156140e957602002820191906000526020600020905b8154815260200190600101908083116140d5575b50505050509050919050565b6000805b60066000858152602001908152602001600020600601805490508110156141705782600660008681526020019081526020016000206006018281548110614143576141426158f0565b5b9060005260206000200154141561415d5760019150614170565b80806141689061581a565b9150506140f9565b50806141b457600660008481526020019081526020016000206006018290806001815401808255809150506001900390600052602060002001600090919091909150555b505050565b60008080600090505b600660008681526020019081526020016000206006018054905081101561423c578360066000878152602001908152602001600020600601828154811061420c5761420b6158f0565b5b90600052602060002001541415614229576001925080915061423c565b80806142349061581a565b9150506141c2565b50811561431257600660008581526020019081526020016000206006016001600660008781526020019081526020016000206006018054905061427f91906156f9565b815481106142905761428f6158f0565b5b90600052602060002001546006600086815260200190815260200160002060060182815481106142c3576142c26158f0565b5b9060005260206000200181905550600660008581526020019081526020016000206006018054806142f7576142f66158c1565b5b6001900381819060005260206000200160009055905561434d565b6040517f08c379a000000000000000000000000000000000000000000000000000000000815260040161434490615323565b60405180910390fd5b50505050565b600060066000848152602001908152602001600020600a01600083815260200190815260200160002054905092915050565b6000600a6000848152602001908152602001600020600701600083815260200190815260200160002054905092915050565b60036020528060005260406000206000915090505481565b600a6020528060005260406000206000915090508060000154908060010154908060080154905083565b8060076000848152602001908152602001600020600301819055505050565b6012805490508282905014614462576040517f08c379a0000000000000000000000000000000000000000000000000000000008152600401614459906153e3565b60405180910390fd5b60005b6012805490508110156144e857828282818110614485576144846158f0565b5b90506020020135600760008681526020019081526020016000206005016000601284815481106144b8576144b76158f0565b5b906000526020600020015481526020019081526020016000208190555080806144e09061581a565b915050614465565b50505050565b6000600a600085815260200190815260200160002060070160008481526020019081526020016000205414614558576040517f08c379a000000000000000000000000000000000000000000000000000000000815260040161454f90615383565b60405180910390fd5b80600a6000858152602001908152602001600020600701600084815260200190815260200160002081905550600a6000848152602001908152602001600020600601819080600181540180825580915050600190039060005260206000200160009091909190915055505050565b6060601480548060200260200160405190810160405280929190818152602001828054801561461457602002820191906000526020600020905b815481526020019060010190808311614600575b5050505050905090565b60606006600083815260200190815260200160002060030180548060200260200160405190810160405280929190818152602001828054801561468057602002820191906000526020600020905b81548152602001906001019080831161466c575b50505050509050919050565b6000805b600960008581526020019081526020016000206004018054905081101561470757826009600086815260200190815260200160002060040182815481106146da576146d96158f0565b5b906000526020600020015414156146f45760019150614707565b80806146ff9061581a565b915050614690565b508061474b57600960008481526020019081526020016000206004018290806001815401808255809150506001900390600052602060002001600090919091909150555b505050565b8060086000858152602001908152602001600020600301600084815260200190815260200160002081905550505050565b60005b81518110156147e7576000600a600085815260200190815260200160002060050160008484815181106147ba576147b96158f0565b5b602002602001015181526020019081526020016000208190555080806147df9061581a565b915050614784565b50600a6000838152602001908152602001600020600401600061480a9190614894565b5050565b82805461481a906157b7565b90600052602060002090601f01602090048101928261483c5760008555614883565b82601f1061485557803560ff1916838001178555614883565b82800160010185558215614883579182015b82811115614882578235825591602001919060010190614867565b5b5090506148909190614982565b5090565b50805460008255906000526020600020908101906148b29190614982565b50565b8280546148c1906157b7565b90600052602060002090601f0160209004810192826148e35760008555614931565b82601f106148f45780548555614931565b8280016001018555821561493157600052602060002091601f016020900482015b82811115614930578254825591600101919060010190614915565b5b50905061493e9190614982565b5090565b50805461494e906157b7565b6000825580601f10614960575061497f565b601f01602090049060005260206000209081019061497e9190614982565b5b50565b5b8082111561499b576000816000905550600101614983565b5090565b60006149b26149ad846155b8565b615593565b905080838252602082019050828560208602820111156149d5576149d4615958565b5b60005b85811015614a0557816149eb8882614afe565b8452602084019350602083019250506001810190506149d8565b5050509392505050565b600081359050614a1e81615bf3565b92915050565b60008083601f840112614a3a57614a39615953565b5b8235905067ffffffffffffffff811115614a5757614a5661594e565b5b602083019150836020820283011115614a7357614a72615958565b5b9250929050565b600082601f830112614a8f57614a8e615953565b5b8135614a9f84826020860161499f565b91505092915050565b60008083601f840112614abe57614abd615953565b5b8235905067ffffffffffffffff811115614adb57614ada61594e565b5b602083019150836001820283011115614af757614af6615958565b5b9250929050565b600081359050614b0d81615c0a565b92915050565b600060208284031215614b2957614b28615962565b5b6000614b3784828501614a0f565b91505092915050565b60008060408385031215614b5757614b56615962565b5b6000614b6585828601614a0f565b9250506020614b7685828601614afe565b9150509250929050565b600060208284031215614b9657614b95615962565b5b600082013567ffffffffffffffff811115614bb457614bb361595d565b5b614bc084828501614a7a565b91505092915050565b60008060208385031215614be057614bdf615962565b5b600083013567ffffffffffffffff811115614bfe57614bfd61595d565b5b614c0a85828601614aa8565b92509250509250929050565b600060208284031215614c2c57614c2b615962565b5b6000614c3a84828501614afe565b91505092915050565b60008060408385031215614c5a57614c59615962565b5b6000614c6885828601614afe565b9250506020614c7985828601614a0f565b9150509250929050565b600080600060408486031215614c9c57614c9b615962565b5b6000614caa86828701614afe565b935050602084013567ffffffffffffffff811115614ccb57614cca61595d565b5b614cd786828701614a24565b92509250509250925092565b60008060408385031215614cfa57614cf9615962565b5b6000614d0885828601614afe565b925050602083013567ffffffffffffffff811115614d2957614d2861595d565b5b614d3585828601614a7a565b9150509250929050565b600080600060408486031215614d5857614d57615962565b5b6000614d6686828701614afe565b935050602084013567ffffffffffffffff811115614d8757614d8661595d565b5b614d9386828701614aa8565b92509250509250925092565b60008060408385031215614db657614db5615962565b5b6000614dc485828601614afe565b9250506020614dd585828601614afe565b9150509250929050565b60008060008060608587031215614df957614df8615962565b5b6000614e0787828801614afe565b9450506020614e1887828801614afe565b935050604085013567ffffffffffffffff811115614e3957614e3861595d565b5b614e4587828801614aa8565b925092505092959194509250565b600080600060608486031215614e6c57614e6b615962565b5b6000614e7a86828701614afe565b9350506020614e8b86828701614afe565b9250506040614e9c86828701614afe565b9150509250925092565b6000614eb28383614fe8565b905092915050565b6000614ec68383615214565b60208301905092915050565b614edb8161572d565b82525050565b6000614eec82615619565b614ef68185615654565b935083602082028501614f08856155e4565b8060005b85811015614f445784840389528151614f258582614ea6565b9450614f308361563a565b925060208a01995050600181019050614f0c565b50829750879550505050505092915050565b6000614f6182615624565b614f6b8185615665565b9350614f76836155f4565b8060005b83811015614fa7578151614f8e8882614eba565b9750614f9983615647565b925050600181019050614f7a565b5085935050505092915050565b614fbd8161573f565b82525050565b6000614fcf8385615698565b9350614fdc838584615775565b82840190509392505050565b6000614ff38261562f565b614ffd8185615676565b935061500d818560208601615784565b61501681615967565b840191505092915050565b600061502c8261562f565b6150368185615687565b9350615046818560208601615784565b61504f81615967565b840191505092915050565b60008154615067816157b7565b6150718186615698565b9450600182166000811461508c576001811461509d576150d0565b60ff198316865281860193506150d0565b6150a685615604565b60005b838110156150c8578154818901526001820191506020810190506150a9565b838801955050505b50505092915050565b60006150e6606083615687565b91506150f182615978565b606082019050919050565b6000615109601583615687565b9150615114826159ed565b602082019050919050565b600061512c601083615687565b915061513782615a16565b602082019050919050565b600061514f601583615687565b915061515a82615a3f565b602082019050919050565b6000615172602283615687565b915061517d82615a68565b604082019050919050565b6000615195601583615687565b91506151a082615ab7565b602082019050919050565b60006151b8601b83615687565b91506151c382615ae0565b602082019050919050565b60006151db602f83615687565b91506151e682615b09565b604082019050919050565b60006151fe606183615687565b915061520982615b58565b608082019050919050565b61521d8161576b565b82525050565b61522c8161576b565b82525050565b600061523f828486614fc3565b91508190509392505050565b6000615257828461505a565b915081905092915050565b6000602082019050818103600083015261527c8184614ee1565b905092915050565b6000602082019050818103600083015261529e8184614f56565b905092915050565b60006020820190506152bb6000830184614fb4565b92915050565b600060208201905081810360008301526152db8184615021565b905092915050565b600060208201905081810360008301526152fc816150d9565b9050919050565b6000602082019050818103600083015261531c816150fc565b9050919050565b6000602082019050818103600083015261533c8161511f565b9050919050565b6000602082019050818103600083015261535c81615142565b9050919050565b6000602082019050818103600083015261537c81615165565b9050919050565b6000602082019050818103600083015261539c81615188565b9050919050565b600060208201905081810360008301526153bc816151ab565b9050919050565b600060208201905081810360008301526153dc816151ce565b9050919050565b600060208201905081810360008301526153fc816151f1565b9050919050565b60006020820190506154186000830184615223565b92915050565b60006060820190506154336000830186615223565b81810360208301526154458185615021565b90506154546040830184614ed2565b949350505050565b60006080820190506154716000830187615223565b81810360208301526154838186615021565b90506154926040830185614ed2565b61549f6060830184615223565b95945050505050565b600060c0820190506154bd6000830189615223565b81810360208301526154cf8188615021565b90506154de6040830187614ed2565b6154eb6060830186615223565b6154f86080830185615223565b61550560a0830184615223565b979650505050505050565b60006080820190506155256000830187615223565b81810360208301526155378186615021565b90506155466040830185615223565b6155536060830184615223565b95945050505050565b60006060820190506155716000830186615223565b61557e6020830185615223565b61558b6040830184615223565b949350505050565b600061559d6155ae565b90506155a982826157e9565b919050565b6000604051905090565b600067ffffffffffffffff8211156155d3576155d261591f565b5b602082029050602081019050919050565b6000819050602082019050919050565b6000819050602082019050919050565b60008190508160005260206000209050919050565b600081519050919050565b600081519050919050565b600081519050919050565b6000602082019050919050565b6000602082019050919050565b600082825260208201905092915050565b600082825260208201905092915050565b600082825260208201905092915050565b600082825260208201905092915050565b600081905092915050565b60006156ae8261576b565b91506156b98361576b565b9250827fffffffffffffffffffffffffffffffffffffffffffffffffffffffffffffffff038211156156ee576156ed615863565b5b828201905092915050565b60006157048261576b565b915061570f8361576b565b92508282101561572257615721615863565b5b828203905092915050565b60006157388261574b565b9050919050565b60008115159050919050565b600073ffffffffffffffffffffffffffffffffffffffff82169050919050565b6000819050919050565b82818337600083830152505050565b60005b838110156157a2578082015181840152602081019050615787565b838111156157b1576000848401525b50505050565b600060028204905060018216806157cf57607f821691505b602082108114156157e3576157e2615892565b5b50919050565b6157f282615967565b810181811067ffffffffffffffff821117156158115761581061591f565b5b80604052505050565b60006158258261576b565b91507fffffffffffffffffffffffffffffffffffffffffffffffffffffffffffffffff82141561585857615857615863565b5b600182019050919050565b7f4e487b7100000000000000000000000000000000000000000000000000000000600052601160045260246000fd5b7f4e487b7100000000000000000000000000000000000000000000000000000000600052602260045260246000fd5b7f4e487b7100000000000000000000000000000000000000000000000000000000600052603160045260246000fd5b7f4e487b7100000000000000000000000000000000000000000000000000000000600052603260045260246000fd5b7f4e487b7100000000000000000000000000000000000000000000000000000000600052604160045260246000fd5b600080fd5b600080fd5b600080fd5b600080fd5b600080fd5b6000601f19601f8301169050919050565b7f5768656e2073657474696e672074686520707265666572656e6365206c65766560008201527f6c206f6620636f75727365732c206974206973206e656365737361727920746f60208201527f206861766520616e20657175616c206e756d626572206f6620636f7572736573604082015250565b7fe8afa5e78fade7baa7e5b7b2e7bb8fe68993e588860000000000000000000000600082015250565b7f436f75727365206e6f7420666f756e6400000000000000000000000000000000600082015250565b7fe8afa5e88081e5b888e5b7b2e7bb8fe68993e588860000000000000000000000600082015250565b7f6d7573742075706461746520616c6c20636f7572736520737569746162696c6960008201527f7479000000000000000000000000000000000000000000000000000000000000602082015250565b7fe8afa5e79da3e5afbce5b7b2e7bb8fe8af84e588860000000000000000000000600082015250565b7f5265616368657220446972656374696f6e206e6f7420666f756e640000000000600082015250565b7f4f6e6c7920726567697374657265642074656163686572732063616e2063616c60008201527f6c20746869732066756e6374696f6e0000000000000000000000000000000000602082015250565b7f5768656e2073657474696e672074686520737569746162696c697479206c657660008201527f656c206f6620636f75727365732c206974206973206e6563657373617279207460208201527f6f206861766520616e20657175616c206e756d626572206f6620636f7572736560408201527f7300000000000000000000000000000000000000000000000000000000000000606082015250565b615bfc8161572d565b8114615c0757600080fd5b50565b615c138161576b565b8114615c1e57600080fd5b5056fea264697066735822122007ec4a9839af0726136a9ce0f4bafeb80f50c9da8307ca021d3d0a23a2639c3e64736f6c63430008070033",
  "immutableReferences": {},
  "source": "// SPDX-License-Identifier: MIT\r\npragma solidity ^0.8.7;\r\n\r\ncontract ICourseAllocation {\r\n    // \r\n    struct Teacher {\r\n        uint256 id;\r\n        string name;\r\n        string[] researchDrection;\r\n        uint256[] paperCount;\r\n        address addr;\r\n        uint256[] assignedCourses;\r\n        uint256[] reallyAssignedCourses;\r\n        uint256 suitabilityWeight;\r\n        uint256 transferCourseCoins;\r\n        uint256 value;\r\n        mapping(uint256 => uint256) courseSuitabilities;\r\n        mapping(uint256 => uint256) coursePreferences;\r\n    }\r\n\r\n    // \r\n    struct Agent {\r\n        uint256 id;\r\n        string name;\r\n        address addr;\r\n        uint256 value;\r\n        uint256[] assignedCourses;\r\n        mapping(uint256 => uint256) courseSuitabilities;\r\n    }\r\n\r\n    // \r\n    struct Supervisor {\r\n        uint256 id;\r\n        string name;\r\n        address addr;\r\n        mapping(uint256 => uint256) courseScores;\r\n    }\r\n\r\n    // \r\n    struct Course {\r\n        uint256 id;\r\n        string name;\r\n        uint256 importance;\r\n        uint256[] assignedTeacherId;\r\n        uint256[] assignedAgentId;\r\n        uint256 courseDifficulty;\r\n    }\r\n\r\n    struct CourseScore {\r\n        uint256 id; // id\r\n        uint256 totalScore;\r\n        uint256[] classScores;\r\n        mapping(uint256 => uint256) giveScoreClassIdExists;\r\n        uint256[] teacherScores;\r\n        mapping(uint256 => uint256) giveScoreTeacherIdExists;\r\n        uint256[] supervisorScores;\r\n        mapping(uint256 => uint256) giveScoreSupervisorIdExists;\r\n        uint256 machineScore; // \r\n    }\r\n    // \r\n    string public ScoreTypeChioce;\r\n\r\n    // \r\n    uint256 public totalWeight;\r\n\r\n    //  => ID\r\n    mapping(address => uint256) public addressToTeacherId;\r\n\r\n    //  => ID\r\n    mapping(address => uint256) public addressToAgentId;\r\n\r\n    //  => ID\r\n    mapping(address => uint256) public addressToClassId;\r\n\r\n    //  => ID\r\n    mapping(address => uint256) public addressToSupervisorId;\r\n\r\n    // ID => \r\n    mapping(uint256 => Teacher) public teachers;\r\n\r\n    // ID => \r\n    mapping(uint256 => Agent) public agents;\r\n\r\n    // ID => \r\n    mapping(uint256 => Supervisor) public supervisors;\r\n\r\n    // ID => \r\n    mapping(uint256 => Course) public courses;\r\n\r\n    // ID => \r\n    mapping(uint256 => CourseScore) public courseScores;\r\n\r\n    // ID\r\n    uint256 public teacherCount;\r\n\r\n    // ID\r\n    uint256 public agentCount;\r\n\r\n    // ID\r\n    uint256 public classCount;\r\n\r\n    // ID\r\n    uint256 public courseCount;\r\n\r\n    // ID\r\n    uint256 public supervisorCount;\r\n\r\n    // ID\r\n    uint256[] public teacherIds;\r\n\r\n    // ID\r\n    uint256[] public agentIds;\r\n\r\n    // ID\r\n    uint256[] public courseIds;\r\n\r\n    // ID\r\n    uint256[] public classIds;\r\n\r\n    // ID\r\n    uint256[] public supervisorIds;\r\n\r\n    // \r\n    uint256 public transferCourseNumbers;\r\n\r\n    // \r\n    uint256 public transferCourseStartTime;\r\n\r\n    // \r\n    uint256 public transferCourseEndTime;\r\n\r\n    // \r\n    // event CourseImportanceSet(uint256 indexed courseId, uint256 importance);\r\n    // event SuitabilityUpdated(uint256 indexed courseId, uint256 suitability);\r\n    // event PreferenceUpdated(uint256 indexed teacherId, uint256 indexed courseId, uint256 preference);\r\n    // event ProposalCreated(uint256 proposalId, uint256 indexed courseId, uint256[] teacherIds); // \r\n    // event MachineProposal(uint256 proposalId, uint256 indexed courseId, uint256[] teacherIds, uint256[] teacherCounts); // \r\n    // event CourseAssignedToTeacher(uint256 indexed courseId, uint256 indexed teacherId); // \r\n\r\n    // \r\n    constructor() {}\r\n\r\n    // \r\n    modifier onlyTeacher() {\r\n        require(\r\n            addressToTeacherId[msg.sender] != 0,\r\n            \"Only registered teachers can call this function\"\r\n        );\r\n        _;\r\n    }\r\n\r\n    // ID\r\n    function setTeacherId(address teacherAddress, uint256 _TeacherId) public {\r\n        addressToTeacherId[teacherAddress] = _TeacherId;\r\n        teachers[_TeacherId].id = _TeacherId;\r\n        teacherIds.push(_TeacherId);\r\n    }\r\n\r\n    // \r\n    function removeTeacher(uint256 teacherId) public onlyTeacher {\r\n        teachers[teacherId].id = 0;\r\n        //  teacherIds  ID\r\n        for (uint256 i = 0; i < teacherIds.length; i++) {\r\n            if (teacherIds[i] == teacherId) {\r\n                //  ID \r\n                teacherIds[i] = teacherIds[teacherIds.length - 1];\r\n                // \r\n                teacherIds.pop();\r\n                break;\r\n            }\r\n        }\r\n    }\r\n\r\n    // \r\n    function setTeacherName(\r\n        uint256 teacherId,\r\n        string calldata _name\r\n    ) public onlyTeacher {\r\n        teachers[teacherId].name = _name;\r\n    }\r\n\r\n    // \r\n    function setTeacherAddress(\r\n        uint256 teacherId,\r\n        address _teacherAddress\r\n    ) public onlyTeacher {\r\n        teachers[teacherId].addr = _teacherAddress;\r\n    }\r\n\r\n    // \r\n    function addTeacherAssignedCourses(\r\n        uint256 teacherId,\r\n        uint256 _assignedCourses\r\n    ) public {\r\n        bool found = false;\r\n        for (uint256 i = 0; i < teachers[teacherId].assignedCourses.length; i++) {\r\n            // require(\r\n            //     teachers[teacherId].assignedCourses[i] != _assignedCourses,\r\n            //     \"Course already assigned\"\r\n            // ); \r\n            if(teachers[teacherId].assignedCourses[i] == _assignedCourses){\r\n               found = true;\r\n               break; \r\n            }\r\n        }\r\n        if(!found) {\r\n            teachers[teacherId].assignedCourses.push(_assignedCourses);\r\n        }\r\n    }\r\n\r\n    // \r\n    function addTeacherResearchDirection(\r\n        uint256 teacherId,\r\n        string calldata _researchDirection\r\n    ) public {\r\n        teachers[teacherId].researchDrection.push(_researchDirection);\r\n    }\r\n\r\n    // \r\n    function addTeacherPaperCount(\r\n        uint256 teacherId,\r\n        uint256 _paperCount\r\n    ) public {\r\n        teachers[teacherId].paperCount.push(_paperCount);\r\n    }\r\n\r\n    // \r\n    function addTeacherReallyAssignedCourses(\r\n        uint256 teacherId,\r\n        uint256 _assignedCourses\r\n    ) public {\r\n        bool found = false;\r\n        for (uint256 i = 0; i < teachers[teacherId].reallyAssignedCourses.length; i++) {\r\n            // require(\r\n            //     teachers[teacherId].reallyAssignedCourses[i]!= _assignedCourses,\r\n            //     \"Course already assigned\"\r\n            // ); \r\n            if(teachers[teacherId].reallyAssignedCourses[i] == _assignedCourses){\r\n                found = true;\r\n                break;\r\n            }\r\n        }\r\n        if(!found) {\r\n            teachers[teacherId].reallyAssignedCourses.push(_assignedCourses); \r\n        }\r\n    }\r\n\r\n    // \r\n    function removeTeacherAssignedCourses(\r\n        uint256 teacherId,\r\n        uint256 _assignedCourses\r\n    ) public {\r\n        bool found = false;\r\n        uint256 indexToRemove;\r\n\r\n        //  ID \r\n        for (\r\n            uint256 i = 0;\r\n            i < teachers[teacherId].assignedCourses.length;\r\n            i++\r\n        ) {\r\n            if (teachers[teacherId].assignedCourses[i] == _assignedCourses) {\r\n                found = true;\r\n                indexToRemove = i;\r\n                break;\r\n            }\r\n        }\r\n\r\n        //  ID\r\n        if (found) {\r\n            // \r\n            teachers[teacherId].assignedCourses[indexToRemove] = teachers[\r\n                teacherId\r\n            ].assignedCourses[teachers[teacherId].assignedCourses.length - 1];\r\n            // \r\n            teachers[teacherId].assignedCourses.pop();\r\n        } else {\r\n            //  ID\r\n            revert(\"Course not found\");\r\n        }\r\n    }\r\n\r\n    // \r\n    function removeTeacherResearchDirection(\r\n        uint256 teacherId,\r\n        string calldata _researchDirection\r\n    ) public {\r\n        bool found = false;\r\n        uint256 indexToRemove;\r\n\r\n        //  ID \r\n        for (\r\n            uint256 i = 0;\r\n            i < teachers[teacherId].researchDrection.length;\r\n            i++\r\n        ) {\r\n            if (compareStrings(teacherId, i , _researchDirection)) {\r\n                found = true;\r\n                indexToRemove = i;\r\n                break;\r\n            }\r\n        }\r\n\r\n        //  ID\r\n        if (found) {\r\n            // \r\n            teachers[teacherId].researchDrection[indexToRemove] = teachers[\r\n                teacherId\r\n            ].researchDrection[teachers[teacherId].researchDrection.length - 1];\r\n            // \r\n            teachers[teacherId].researchDrection.pop();\r\n\r\n            // \r\n            teachers[teacherId].paperCount[indexToRemove] = teachers[\r\n                teacherId\r\n            ].paperCount[teachers[teacherId].paperCount.length - 1];\r\n            // \r\n            teachers[teacherId].paperCount.pop();\r\n\r\n        } else {\r\n            //  ID\r\n            revert(\"Reacher Direction not found\");\r\n        }\r\n    }\r\n\r\n    // \r\n    function compareStrings(uint256 teacherId, uint256 index, string calldata inputString) public view returns (bool) {\r\n        //  storage  calldata  memory\r\n        bytes32 storedHash = keccak256(abi.encodePacked(teachers[teacherId].researchDrection[index]));\r\n        bytes32 inputHash = keccak256(abi.encodePacked(inputString));\r\n\r\n        // \r\n        return storedHash == inputHash;\r\n    }\r\n\r\n    // \r\n    function removeTeacherReallyAssignedCourses(\r\n        uint256 teacherId,\r\n        uint256 _assignedCourses\r\n    ) public {\r\n        bool found = false;\r\n        uint256 indexToRemove;\r\n\r\n        //  ID \r\n        for (\r\n            uint256 i = 0;\r\n            i < teachers[teacherId].reallyAssignedCourses.length;\r\n            i++\r\n        ) {\r\n            if (\r\n                teachers[teacherId].reallyAssignedCourses[i] == _assignedCourses\r\n            ) {\r\n                found = true;\r\n                indexToRemove = i;\r\n                break;\r\n            }\r\n        }\r\n\r\n        //  ID\r\n        if (found) {\r\n            // \r\n            teachers[teacherId].reallyAssignedCourses[indexToRemove] = teachers[\r\n                teacherId\r\n            ].reallyAssignedCourses[\r\n                    teachers[teacherId].reallyAssignedCourses.length - 1\r\n                ];\r\n            // \r\n            teachers[teacherId].reallyAssignedCourses.pop();\r\n        } else {\r\n            //  ID\r\n            revert(\"Course not found\");\r\n        }\r\n    }\r\n\r\n    // \r\n    function setTeacherSuitabilityWeight(\r\n        uint256 teacherId,\r\n        uint256 _suitabilityWeight\r\n    ) public onlyTeacher {\r\n        totalWeight -= teachers[teacherId].suitabilityWeight;\r\n        teachers[teacherId].suitabilityWeight = _suitabilityWeight;\r\n        totalWeight += teachers[teacherId].suitabilityWeight;\r\n    }\r\n\r\n    // \r\n    function setTeacherTransferCourseCoins(\r\n        uint256 teacherId,\r\n        uint256 _transferCourseCoins\r\n    ) public onlyTeacher {\r\n        teachers[teacherId].transferCourseCoins = _transferCourseCoins;\r\n    }\r\n\r\n    // \r\n    function setTeacherValue(\r\n        uint256 teacherId,\r\n        uint256 _value\r\n    ) public onlyTeacher {\r\n        teachers[teacherId].value = _value;\r\n    }\r\n\r\n    // \r\n    function setAgentValue(uint256 agentId, uint256 _value) public {\r\n        agents[agentId].value = _value;\r\n    }\r\n\r\n    // \r\n    function setAllTeacherCourseSuitability(\r\n        uint256 teacherId,\r\n        uint256[] calldata _suitabilities\r\n    ) public onlyTeacher {\r\n        require(\r\n            _suitabilities.length == courseIds.length,\r\n            \"When setting the suitability level of courses, it is necessary to have an equal number of courses\"\r\n        );\r\n        for (\r\n            uint256 courseIndex = 0;\r\n            courseIndex < courseIds.length;\r\n            courseIndex++\r\n        ) {\r\n            teachers[teacherId].courseSuitabilities[\r\n                courseIds[courseIndex]\r\n            ] = _suitabilities[courseIndex];\r\n        }\r\n    }\r\n\r\n    // \r\n    function setTeacherCourseSuitability(\r\n        uint256 teacherId,\r\n        uint256 courseId,\r\n        uint256 _suitability\r\n    ) public {\r\n        teachers[teacherId].courseSuitabilities[courseId] = _suitability;\r\n    }\r\n\r\n    // \r\n    function setAllTeacherCoursePreferences(\r\n        uint256 teacherId,\r\n        uint256[] calldata _preferences\r\n    ) public onlyTeacher {\r\n        require(\r\n            _preferences.length == courseIds.length,\r\n            \"When setting the preference level of courses, it is necessary to have an equal number of courses\"\r\n        );\r\n        for (\r\n            uint256 courseIndex = 0;\r\n            courseIndex < courseIds.length;\r\n            courseIndex++\r\n        ) {\r\n            teachers[teacherId].coursePreferences[\r\n                courseIds[courseIndex]\r\n            ] = _preferences[courseIndex];\r\n        }\r\n    }\r\n\r\n    // \r\n    function setTeacherCoursePreferences(\r\n        uint256 teacherId,\r\n        uint256 courseId,\r\n        uint256 _preference\r\n    ) public onlyTeacher {\r\n        teachers[teacherId].coursePreferences[courseId] = _preference;\r\n    }\r\n\r\n    // ID\r\n    function setAgentId(address agentAddress, uint256 _agentId) public {\r\n        addressToAgentId[agentAddress] = _agentId;\r\n        agents[_agentId].id = _agentId;\r\n        agentIds.push(_agentId);\r\n    }\r\n\r\n    // \r\n    function removeAgent(uint256 agentId) public {\r\n        agents[agentId].id = 0;\r\n        //  agentIds  ID\r\n        for (uint256 i = 0; i < agentIds.length; i++) {\r\n            if (agentIds[i] == agentId) {\r\n                //  ID \r\n                agentIds[i] = agentIds[agentIds.length - 1];\r\n                // \r\n                agentIds.pop();\r\n                break;\r\n            }\r\n        }\r\n    }\r\n\r\n    // \r\n    function setAgentName(uint256 agentId, string calldata _name) public {\r\n        agents[agentId].name = _name;\r\n    }\r\n\r\n    // \r\n    function setAgentAddress(uint256 agentId, address _agentAddress) public {\r\n        agents[agentId].addr = _agentAddress;\r\n    }\r\n\r\n    // \r\n    function addAgentAssignedCourses(\r\n        uint256 agentId,\r\n        uint256 _assignedCourses\r\n    ) public {\r\n        bool found = false;\r\n        for (uint256 i = 0; i < agents[agentId].assignedCourses.length; i++) {\r\n            // require(\r\n            //     agents[agentId].assignedCourses[i]!= _assignedCourses,\r\n            //     \"Course already assigned\"\r\n            // );\r\n            if(agents[agentId].assignedCourses[i] == _assignedCourses){\r\n               found = true;\r\n               break; \r\n            } \r\n        }\r\n        if(!found) {\r\n            agents[agentId].assignedCourses.push(_assignedCourses); \r\n        }\r\n    }\r\n\r\n    // \r\n    function removeAgentAssignedCourses(\r\n        uint256 agentId,\r\n        uint256 _assignedCourses\r\n    ) public {\r\n        bool found = false;\r\n        uint256 indexToRemove;\r\n\r\n        //  ID \r\n        for (uint256 i = 0; i < agents[agentId].assignedCourses.length; i++) {\r\n            if (agents[agentId].assignedCourses[i] == _assignedCourses) {\r\n                found = true;\r\n                indexToRemove = i;\r\n                break;\r\n            }\r\n        }\r\n\r\n        //  ID\r\n        if (found) {\r\n            // \r\n            agents[agentId].assignedCourses[indexToRemove] = agents[agentId]\r\n                .assignedCourses[agents[agentId].assignedCourses.length - 1];\r\n            // \r\n            agents[agentId].assignedCourses.pop();\r\n        } else {\r\n            //  ID\r\n            revert(\"Course not found\");\r\n        }\r\n    }\r\n\r\n    // \r\n    function setAgentCourseSuitability(\r\n        uint256 agentId,\r\n        uint256 _courseId,\r\n        uint256 _suitability\r\n    ) public {\r\n        agents[agentId].courseSuitabilities[_courseId] = _suitability;\r\n    }\r\n\r\n    // \r\n    function setAllAgentCourseSuitability(\r\n        uint256 agentId,\r\n        uint256[] calldata _suitabilities\r\n    ) public {\r\n        require(\r\n            _suitabilities.length == courseIds.length,\r\n            \"When setting the suitability level of courses, it is necessary to have an equal number of courses\"\r\n        );\r\n        for (\r\n            uint256 courseIndex = 0;\r\n            courseIndex < courseIds.length;\r\n            courseIndex++\r\n        ) {\r\n            agents[agentId].courseSuitabilities[\r\n                courseIds[courseIndex]\r\n            ] = _suitabilities[courseIndex];\r\n        }\r\n    }\r\n\r\n    // ID\r\n    function setClassId(address classAddress, uint256 _id) public {\r\n        addressToClassId[classAddress] = _id;\r\n        classIds.push(_id);\r\n    }\r\n\r\n    // \r\n    function removeClass(uint256 classId) public {\r\n        //  classIds  ID\r\n        for (uint256 i = 0; i < classIds.length; i++) {\r\n            if (classIds[i] == classId) {\r\n                //  ID \r\n                classIds[i] = classIds[classIds.length - 1];\r\n                // \r\n                classIds.pop();\r\n                break;\r\n            }\r\n        }\r\n    }\r\n\r\n    // ID\r\n    function setCourseId(uint256 courseId) public {\r\n        courses[courseId].id = courseId;\r\n        courseIds.push(courseId);\r\n    }\r\n\r\n    // \r\n    function removeCourse(uint256 courseId) public {\r\n        //  classIds  ID\r\n        for (uint256 i = 0; i < courseIds.length; i++) {\r\n            if (courseIds[i] == courseId) {\r\n                //  ID \r\n                courseIds[i] = courseIds[courseIds.length - 1];\r\n                // \r\n                courseIds.pop();\r\n                break;\r\n            }\r\n        }\r\n    }\r\n\r\n    // \r\n    function setCourseName(uint256 courseId, string calldata _name) public {\r\n        courses[courseId].name = _name;\r\n    }\r\n\r\n    // \r\n    function setCourseImportance(uint256 courseId, uint256 _importance) public {\r\n        courses[courseId].importance = _importance;\r\n    }\r\n\r\n    // \r\n    function setCourseDifficulty(uint256 courseId, uint256 _courseDifficulty) public {\r\n        courses[courseId].courseDifficulty = _courseDifficulty;\r\n    }\r\n\r\n    // \r\n    function setmachineScore(uint256 courseId, uint256 _machineScore) public {\r\n        courseScores[courseId].machineScore = _machineScore;\r\n    }\r\n\r\n    // \r\n    function setAllCourseImportance(uint256[] memory _importances) public {\r\n        require(\r\n            _importances.length == courseIds.length,\r\n            \"must update all course suitability\"\r\n        );\r\n        // \r\n        for (\r\n            uint256 courseIndex = 0;\r\n            courseIndex < courseIds.length;\r\n            courseIndex++\r\n        ) {\r\n            courses[courseIds[courseIndex]].importance = _importances[\r\n                courseIndex\r\n            ];\r\n        }\r\n    }\r\n\r\n    // \r\n    function setAllCourseDifficulty(uint256[] memory _difficulties) public {\r\n        require(\r\n            _difficulties.length == courseIds.length,\r\n            \"must update all course suitability\"\r\n        );\r\n        // \r\n        for (\r\n            uint256 courseIndex = 0;\r\n            courseIndex < courseIds.length;\r\n            courseIndex++\r\n        ) {\r\n            courses[courseIds[courseIndex]].courseDifficulty = _difficulties[\r\n                courseIndex\r\n            ];\r\n        }\r\n    }\r\n\r\n    // ID\r\n    function addCourseAssignedTeacherId(\r\n        uint256 courseId,\r\n        uint256 _teacherId\r\n    ) public {\r\n        bool found = false;\r\n        for (uint256 i = 0; i < courses[courseId].assignedTeacherId.length; i++) {\r\n            // require(\r\n            //     courses[courseId].assignedTeacherId[i]!= _teacherId,\r\n            //     \"Teacher already assigned\"\r\n            // );\r\n            if (courses[courseId].assignedTeacherId[i] == _teacherId) {\r\n                found = true;\r\n                break; \r\n            }\r\n        }\r\n        if(!found) {\r\n            courses[courseId].assignedTeacherId.push(_teacherId); \r\n        }\r\n    }\r\n\r\n    // ID\r\n    function addCourseAssignedAgentId(\r\n        uint256 courseId,\r\n        uint256 _agentId\r\n    ) public {\r\n        bool found = false;\r\n        for (uint256 i = 0; i < courses[courseId].assignedAgentId.length; i++) {\r\n            // require(\r\n            //     courses[courseId].assignedAgentId[i]!= _agentId,\r\n            //     \"Agent already assigned\"\r\n            // );\r\n            if (courses[courseId].assignedAgentId[i] == _agentId) {\r\n                found = true;\r\n                break;\r\n            } \r\n        }\r\n        if(!found) {\r\n            courses[courseId].assignedAgentId.push(_agentId); \r\n        }\r\n    }\r\n\r\n    // \r\n    function removeCourseAssignedTeacherId(\r\n        uint256 courseId,\r\n        uint256 _teacherId\r\n    ) public {\r\n        bool found = false;\r\n        uint256 indexToRemove;\r\n\r\n        //  ID \r\n        for (\r\n            uint256 i = 0;\r\n            i < courses[courseId].assignedTeacherId.length;\r\n            i++\r\n        ) {\r\n            if (courses[courseId].assignedTeacherId[i] == _teacherId) {\r\n                found = true;\r\n                indexToRemove = i;\r\n                break;\r\n            }\r\n        }\r\n\r\n        //  ID\r\n        if (found) {\r\n            // \r\n            courses[courseId].assignedTeacherId[indexToRemove] = courses[\r\n                courseId\r\n            ].assignedTeacherId[courses[courseId].assignedTeacherId.length - 1];\r\n            // \r\n            courses[courseId].assignedTeacherId.pop();\r\n        } else {\r\n            //  ID\r\n            revert(\"Course not found\");\r\n        }\r\n    }\r\n\r\n    // \r\n    function removeCourseAssignedAgentId(\r\n        uint256 courseId,\r\n        uint256 _agentId\r\n    ) public {\r\n        bool found = false;\r\n        uint256 indexToRemove;\r\n\r\n        //  ID \r\n        for (uint256 i = 0; i < courses[courseId].assignedAgentId.length; i++) {\r\n            if (courses[courseId].assignedAgentId[i] == _agentId) {\r\n                found = true;\r\n                indexToRemove = i;\r\n                break;\r\n            }\r\n        }\r\n\r\n        //  ID\r\n        if (found) {\r\n            // \r\n            courses[courseId].assignedAgentId[indexToRemove] = courses[courseId]\r\n                .assignedAgentId[courses[courseId].assignedAgentId.length - 1];\r\n            // \r\n            courses[courseId].assignedAgentId.pop();\r\n        } else {\r\n            //  ID\r\n            revert(\"Course not found\");\r\n        }\r\n    }\r\n\r\n    // // \r\n    // function setCourseIsAgentSuitable(\r\n    //     uint256 courseId,\r\n    //     bool _isAgentSuitable\r\n    // ) public {\r\n    //     courses[courseId].isAgentSuitable = _isAgentSuitable;\r\n    // }\r\n\r\n    // \r\n    function setTeacherCount(uint256 _teacherCount) public {\r\n        teacherCount = _teacherCount;\r\n    }\r\n\r\n    // \r\n    function setAgentCount(uint256 _agentCount) public {\r\n        agentCount = _agentCount;\r\n    }\r\n\r\n    // \r\n    function setClassCount(uint256 _classCount) public {\r\n        classCount = _classCount;\r\n    }\r\n\r\n    // \r\n    function setCourseCount(uint256 _courseCount) public {\r\n        courseCount = _courseCount;\r\n    }\r\n\r\n    // \r\n    function getTeacherSuitability(\r\n        uint256 _teacherId,\r\n        uint256 courseId\r\n    ) public view returns (uint256) {\r\n        return teachers[_teacherId].courseSuitabilities[courseId];\r\n    }\r\n\r\n    // \r\n    function getAgentSuitability(\r\n        uint256 _agentId,\r\n        uint256 courseId\r\n    ) public view returns (uint256) {\r\n        return agents[_agentId].courseSuitabilities[courseId];\r\n    }\r\n\r\n    // \r\n    function getPreference(\r\n        uint256 _teacherId,\r\n        uint256 courseId\r\n    ) public view returns (uint256) {\r\n        return teachers[_teacherId].coursePreferences[courseId];\r\n    }\r\n\r\n    // \r\n    function getTeacherAssignedCourses(\r\n        uint256 _teacherId\r\n    ) public view returns (uint256[] memory) {\r\n        return teachers[_teacherId].assignedCourses;\r\n    }\r\n\r\n    // \r\n    function getTeacherReallyAssignedCourses(\r\n        uint256 _teacherId\r\n    ) public view returns (uint256[] memory) {\r\n        return teachers[_teacherId].reallyAssignedCourses;\r\n    }\r\n\r\n    // \r\n    function getTeacherResearchDirection(\r\n        uint256 _teacherId\r\n    ) public view returns (string[] memory) {\r\n        return teachers[_teacherId].researchDrection;\r\n    }\r\n\r\n    // \r\n    function getTeacherPaperCount(\r\n        uint256 _teacherId\r\n    ) public view returns (uint256[] memory) {\r\n        return teachers[_teacherId].paperCount;\r\n    }\r\n\r\n    // \r\n    function getAgentAssignedCourses(\r\n        uint256 _agentId\r\n    ) public view returns (uint256[] memory) {\r\n        return agents[_agentId].assignedCourses;\r\n    }\r\n\r\n    // \r\n    function getCoursesAssignedTeacher(\r\n        uint256 _courseId\r\n    ) public view returns (uint256[] memory) {\r\n        return courses[_courseId].assignedTeacherId;\r\n    }\r\n\r\n    // \r\n    function getCoursesAssignedAgent(\r\n        uint256 _courseId\r\n    ) public view returns (uint256[] memory) {\r\n        return courses[_courseId].assignedAgentId;\r\n    }\r\n\r\n    // \r\n    function getCourseImportance(uint courseId) external view returns (uint) {\r\n        return courses[courseId].importance;\r\n    }\r\n\r\n    // // \r\n    // function getCourseIsAgentSuitable(\r\n    //     uint courseId\r\n    // ) external view returns (bool) {\r\n    //     return courses[courseId].isAgentSuitable;\r\n    // }\r\n\r\n    function getTeacherIds() public view returns (uint256[] memory) {\r\n        return teacherIds;\r\n    }\r\n\r\n    function getAgentIds() public view returns (uint256[] memory) {\r\n        return agentIds;\r\n    }\r\n\r\n    function getCourseIds() public view returns (uint256[] memory) {\r\n        return courseIds;\r\n    }\r\n\r\n    function getClassIds() public view returns (uint256[] memory) {\r\n        return classIds;\r\n    }\r\n\r\n    function addCourseClassScores(\r\n        uint256 courseId,\r\n        uint256 classId,\r\n        uint256 score\r\n    ) public {\r\n        require(\r\n            courseScores[courseId].giveScoreClassIdExists[classId] == 0,\r\n            unicode\"\"\r\n        );\r\n        courseScores[courseId].giveScoreClassIdExists[classId] = score;\r\n        courseScores[courseId].classScores.push(score);\r\n    }\r\n\r\n    function getGiveScoreClassIdExists(\r\n        uint256 courseId,\r\n        uint256 classId\r\n    ) public view returns (uint256) {\r\n        return courseScores[courseId].giveScoreClassIdExists[classId];\r\n    }\r\n\r\n    // \r\n    function removeCourseClassScores(\r\n        uint256 courseId,\r\n        uint256[] memory classIds_\r\n    ) public {\r\n        for (uint256 i = 0; i < classIds_.length; i++) {\r\n            courseScores[courseId].giveScoreClassIdExists[classIds_[i]] = 0;\r\n        }\r\n        delete courseScores[courseId].classScores;\r\n    }\r\n\r\n    function getCourseClassScores(\r\n        uint256 courseId\r\n    ) public view returns (uint256[] memory) {\r\n        return courseScores[courseId].classScores;\r\n    }\r\n\r\n    function addTeacherScores(\r\n        uint256 courseId,\r\n        uint256 teacherId,\r\n        uint256 score\r\n    ) public {\r\n        require(\r\n            courseScores[courseId].giveScoreTeacherIdExists[teacherId] == 0,\r\n            unicode\"\"\r\n        );\r\n        courseScores[courseId].giveScoreTeacherIdExists[teacherId] = score;\r\n        courseScores[courseId].teacherScores.push(score);\r\n    }\r\n\r\n    function removeTeacherScores(\r\n        uint256 courseId,\r\n        uint256[] memory teacherIds_\r\n    ) public {\r\n        for (uint256 i = 0; i < teacherIds_.length; i++) {\r\n            courseScores[courseId].giveScoreTeacherIdExists[teacherIds_[i]] = 0;\r\n        }\r\n        delete courseScores[courseId].teacherScores;\r\n    }\r\n\r\n    function getTeacherScores(uint256 courseId) public view returns (uint256[] memory) {\r\n        return courseScores[courseId].teacherScores;\r\n    }\r\n\r\n    function getGiveScoreTeacherIdExists(\r\n        uint256 courseId,\r\n        uint256 teacherId \r\n    ) public view returns (uint256) {\r\n        return courseScores[courseId].giveScoreTeacherIdExists[teacherId]; \r\n    }\r\n\r\n    function setCourseTotalScore(uint256 courseId, uint256 score) public {\r\n        courseScores[courseId].totalScore = score;\r\n    }\r\n\r\n    function addCourseSupervisorScores(\r\n        uint256 courseId,\r\n        uint256 supervisorId,\r\n        uint256 score\r\n    ) public {\r\n        require(\r\n            courseScores[courseId].giveScoreSupervisorIdExists[supervisorId] ==\r\n                0,\r\n            unicode\"\"\r\n        );\r\n        courseScores[courseId].giveScoreSupervisorIdExists[\r\n            supervisorId\r\n        ] = score;\r\n        courseScores[courseId].supervisorScores.push(score);\r\n    }\r\n\r\n    function removeCourseSupervisorScores(\r\n        uint256 courseId,\r\n        uint256[] memory supervisorIds_ \r\n    ) public {\r\n        for (uint256 i = 0; i < supervisorIds_.length; i++) {\r\n            courseScores[courseId].giveScoreSupervisorIdExists[supervisorIds_[i]] = 0;\r\n        }\r\n        delete courseScores[courseId].supervisorScores;\r\n    }\r\n\r\n    function getGiveScoreSupervisorIdExists(\r\n        uint256 courseId,\r\n        uint256 supervisorId\r\n    ) public view returns (uint256) {\r\n        return courseScores[courseId].giveScoreSupervisorIdExists[supervisorId];\r\n    }\r\n\r\n    function getCourseSupervisorScores(\r\n        uint256 courseId\r\n    ) public view returns (uint256[] memory) {\r\n        return courseScores[courseId].supervisorScores;\r\n    }\r\n\r\n    function addSupervisorId(uint256 supervisorId) public {\r\n        supervisorIds.push(supervisorId);\r\n        supervisorCount++;\r\n    }\r\n\r\n    function getSupervisorIds() public view returns (uint256[] memory) {\r\n        return supervisorIds;\r\n    }\r\n\r\n    function setSupervisorId(address supervisor, uint256 supervisorId) public {\r\n        addressToSupervisorId[supervisor] = supervisorId;\r\n        supervisors[supervisorId].id = supervisorId;\r\n        supervisors[supervisorId].addr = supervisor;\r\n    }\r\n\r\n    function setSupervisorName(\r\n        uint256 supervisorId,\r\n        string calldata _name\r\n    ) public {\r\n        supervisors[supervisorId].name = _name;\r\n    }\r\n\r\n    function setSupervisorsCourseScore(\r\n        uint256 supervisorId,\r\n        uint256 courseId,\r\n        uint256 score\r\n    ) public {\r\n        supervisors[supervisorId].courseScores[courseId] = score;\r\n    }\r\n\r\n    function settransferCourseNumbers(uint256 _transferCourseNumbers) public {\r\n        transferCourseNumbers = _transferCourseNumbers;\r\n    }\r\n\r\n    function settransferCourseStartTime(\r\n        uint256 _transferCourseStartTime\r\n    ) public {\r\n        transferCourseStartTime = _transferCourseStartTime;\r\n    }\r\n\r\n    function settransferCourseEndTime(uint256 _transferCourseEndTime) public {\r\n        transferCourseEndTime = _transferCourseEndTime;\r\n    }\r\n\r\n    function setScoreType(string calldata option) public {\r\n        ScoreTypeChioce = option;\r\n    }\r\n}\r\n",
  "sourcePath": "E:\\dao\\327\\Course-allocation\\project\\contracts\\ICourseAllocation.sol",
  "compiler": {
    "name": "solc",
    "version": "0.8.7+commit.e28d00a7.Emscripten.clang"
  },
  "schemaVersion": "3.4.16",
  "updatedAt": "2025-05-12T07:50:20.082Z",
  "networkType": "ethereum",
  "devdoc": {
    "kind": "dev",
    "methods": {},
    "version": 1
  },
  "userdoc": {
    "kind": "user",
    "methods": {},
    "version": 1
  }
}