{
  "contractName": "ICourseAllocation",
  "abi": [
    {
      "inputs": [],
      "stateMutability": "nonpayable",
      "type": "constructor"
    },
    {
      "inputs": [],
      "name": "ScoreTypeChioce",
      "outputs": [
        {
          "internalType": "string",
          "name": "",
          "type": "string"
        }
      ],
      "stateMutability": "view",
      "type": "function",
      "constant": true
    },
    {
      "inputs": [
        {
          "internalType": "address",
          "name": "",
          "type": "address"
        }
      ],
      "name": "addressToAgentId",
      "outputs": [
        {
          "internalType": "uint256",
          "name": "",
          "type": "uint256"
        }
      ],
      "stateMutability": "view",
      "type": "function",
      "constant": true
    },
    {
      "inputs": [
        {
          "internalType": "address",
          "name": "",
          "type": "address"
        }
      ],
      "name": "addressToClassId",
      "outputs": [
        {
          "internalType": "uint256",
          "name": "",
          "type": "uint256"
        }
      ],
      "stateMutability": "view",
      "type": "function",
      "constant": true
    },
    {
      "inputs": [
        {
          "internalType": "address",
          "name": "",
          "type": "address"
        }
      ],
      "name": "addressToSupervisorId",
      "outputs": [
        {
          "internalType": "uint256",
          "name": "",
          "type": "uint256"
        }
      ],
      "stateMutability": "view",
      "type": "function",
      "constant": true
    },
    {
      "inputs": [
        {
          "internalType": "address",
          "name": "",
          "type": "address"
        }
      ],
      "name": "addressToTeacherId",
      "outputs": [
        {
          "internalType": "uint256",
          "name": "",
          "type": "uint256"
        }
      ],
      "stateMutability": "view",
      "type": "function",
      "constant": true
    },
    {
      "inputs": [],
      "name": "agentCount",
      "outputs": [
        {
          "internalType": "uint256",
          "name": "",
          "type": "uint256"
        }
      ],
      "stateMutability": "view",
      "type": "function",
      "constant": true
    },
    {
      "inputs": [
        {
          "internalType": "uint256",
          "name": "",
          "type": "uint256"
        }
      ],
      "name": "agentIds",
      "outputs": [
        {
          "internalType": "uint256",
          "name": "",
          "type": "uint256"
        }
      ],
      "stateMutability": "view",
      "type": "function",
      "constant": true
    },
    {
      "inputs": [
        {
          "internalType": "uint256",
          "name": "",
          "type": "uint256"
        }
      ],
      "name": "agents",
      "outputs": [
        {
          "internalType": "uint256",
          "name": "id",
          "type": "uint256"
        },
        {
          "internalType": "string",
          "name": "name",
          "type": "string"
        },
        {
          "internalType": "address",
          "name": "addr",
          "type": "address"
        },
        {
          "internalType": "uint256",
          "name": "value",
          "type": "uint256"
        }
      ],
      "stateMutability": "view",
      "type": "function",
      "constant": true
    },
    {
      "inputs": [],
      "name": "classCount",
      "outputs": [
        {
          "internalType": "uint256",
          "name": "",
          "type": "uint256"
        }
      ],
      "stateMutability": "view",
      "type": "function",
      "constant": true
    },
    {
      "inputs": [
        {
          "internalType": "uint256",
          "name": "",
          "type": "uint256"
        }
      ],
      "name": "classIds",
      "outputs": [
        {
          "internalType": "uint256",
          "name": "",
          "type": "uint256"
        }
      ],
      "stateMutability": "view",
      "type": "function",
      "constant": true
    },
    {
      "inputs": [],
      "name": "courseCount",
      "outputs": [
        {
          "internalType": "uint256",
          "name": "",
          "type": "uint256"
        }
      ],
      "stateMutability": "view",
      "type": "function",
      "constant": true
    },
    {
      "inputs": [
        {
          "internalType": "uint256",
          "name": "",
          "type": "uint256"
        }
      ],
      "name": "courseIds",
      "outputs": [
        {
          "internalType": "uint256",
          "name": "",
          "type": "uint256"
        }
      ],
      "stateMutability": "view",
      "type": "function",
      "constant": true
    },
    {
      "inputs": [
        {
          "internalType": "uint256",
          "name": "",
          "type": "uint256"
        }
      ],
      "name": "courseScores",
      "outputs": [
        {
          "internalType": "uint256",
          "name": "id",
          "type": "uint256"
        },
        {
          "internalType": "uint256",
          "name": "totalScore",
          "type": "uint256"
        },
        {
          "internalType": "uint256",
          "name": "selfScore",
          "type": "uint256"
        }
      ],
      "stateMutability": "view",
      "type": "function",
      "constant": true
    },
    {
      "inputs": [
        {
          "internalType": "uint256",
          "name": "",
          "type": "uint256"
        }
      ],
      "name": "courses",
      "outputs": [
        {
          "internalType": "uint256",
          "name": "id",
          "type": "uint256"
        },
        {
          "internalType": "string",
          "name": "name",
          "type": "string"
        },
        {
          "internalType": "uint256",
          "name": "importance",
          "type": "uint256"
        }
      ],
      "stateMutability": "view",
      "type": "function",
      "constant": true
    },
    {
      "inputs": [],
      "name": "supervisorCount",
      "outputs": [
        {
          "internalType": "uint256",
          "name": "",
          "type": "uint256"
        }
      ],
      "stateMutability": "view",
      "type": "function",
      "constant": true
    },
    {
      "inputs": [
        {
          "internalType": "uint256",
          "name": "",
          "type": "uint256"
        }
      ],
      "name": "supervisorIds",
      "outputs": [
        {
          "internalType": "uint256",
          "name": "",
          "type": "uint256"
        }
      ],
      "stateMutability": "view",
      "type": "function",
      "constant": true
    },
    {
      "inputs": [
        {
          "internalType": "uint256",
          "name": "",
          "type": "uint256"
        }
      ],
      "name": "supervisors",
      "outputs": [
        {
          "internalType": "uint256",
          "name": "id",
          "type": "uint256"
        },
        {
          "internalType": "string",
          "name": "name",
          "type": "string"
        },
        {
          "internalType": "address",
          "name": "addr",
          "type": "address"
        }
      ],
      "stateMutability": "view",
      "type": "function",
      "constant": true
    },
    {
      "inputs": [],
      "name": "teacherCount",
      "outputs": [
        {
          "internalType": "uint256",
          "name": "",
          "type": "uint256"
        }
      ],
      "stateMutability": "view",
      "type": "function",
      "constant": true
    },
    {
      "inputs": [
        {
          "internalType": "uint256",
          "name": "",
          "type": "uint256"
        }
      ],
      "name": "teacherIds",
      "outputs": [
        {
          "internalType": "uint256",
          "name": "",
          "type": "uint256"
        }
      ],
      "stateMutability": "view",
      "type": "function",
      "constant": true
    },
    {
      "inputs": [
        {
          "internalType": "uint256",
          "name": "",
          "type": "uint256"
        }
      ],
      "name": "teachers",
      "outputs": [
        {
          "internalType": "uint256",
          "name": "id",
          "type": "uint256"
        },
        {
          "internalType": "string",
          "name": "name",
          "type": "string"
        },
        {
          "internalType": "address",
          "name": "addr",
          "type": "address"
        },
        {
          "internalType": "uint256",
          "name": "suitabilityWeight",
          "type": "uint256"
        },
        {
          "internalType": "uint256",
          "name": "transferCourseCoins",
          "type": "uint256"
        },
        {
          "internalType": "uint256",
          "name": "value",
          "type": "uint256"
        }
      ],
      "stateMutability": "view",
      "type": "function",
      "constant": true
    },
    {
      "inputs": [],
      "name": "totalWeight",
      "outputs": [
        {
          "internalType": "uint256",
          "name": "",
          "type": "uint256"
        }
      ],
      "stateMutability": "view",
      "type": "function",
      "constant": true
    },
    {
      "inputs": [],
      "name": "transferCourseEndTime",
      "outputs": [
        {
          "internalType": "uint256",
          "name": "",
          "type": "uint256"
        }
      ],
      "stateMutability": "view",
      "type": "function",
      "constant": true
    },
    {
      "inputs": [],
      "name": "transferCourseNumbers",
      "outputs": [
        {
          "internalType": "uint256",
          "name": "",
          "type": "uint256"
        }
      ],
      "stateMutability": "view",
      "type": "function",
      "constant": true
    },
    {
      "inputs": [],
      "name": "transferCourseStartTime",
      "outputs": [
        {
          "internalType": "uint256",
          "name": "",
          "type": "uint256"
        }
      ],
      "stateMutability": "view",
      "type": "function",
      "constant": true
    },
    {
      "inputs": [
        {
          "internalType": "address",
          "name": "teacherAddress",
          "type": "address"
        },
        {
          "internalType": "uint256",
          "name": "_TeacherId",
          "type": "uint256"
        }
      ],
      "name": "setTeacherId",
      "outputs": [],
      "stateMutability": "nonpayable",
      "type": "function"
    },
    {
      "inputs": [
        {
          "internalType": "uint256",
          "name": "teacherId",
          "type": "uint256"
        }
      ],
      "name": "removeTeacher",
      "outputs": [],
      "stateMutability": "nonpayable",
      "type": "function"
    },
    {
      "inputs": [
        {
          "internalType": "uint256",
          "name": "teacherId",
          "type": "uint256"
        },
        {
          "internalType": "string",
          "name": "_name",
          "type": "string"
        }
      ],
      "name": "setTeacherName",
      "outputs": [],
      "stateMutability": "nonpayable",
      "type": "function"
    },
    {
      "inputs": [
        {
          "internalType": "uint256",
          "name": "teacherId",
          "type": "uint256"
        },
        {
          "internalType": "address",
          "name": "_teacherAddress",
          "type": "address"
        }
      ],
      "name": "setTeacherAddress",
      "outputs": [],
      "stateMutability": "nonpayable",
      "type": "function"
    },
    {
      "inputs": [
        {
          "internalType": "uint256",
          "name": "teacherId",
          "type": "uint256"
        },
        {
          "internalType": "uint256",
          "name": "_assignedCourses",
          "type": "uint256"
        }
      ],
      "name": "addTeacherAssignedCourses",
      "outputs": [],
      "stateMutability": "nonpayable",
      "type": "function"
    },
    {
      "inputs": [
        {
          "internalType": "uint256",
          "name": "teacherId",
          "type": "uint256"
        },
        {
          "internalType": "uint256",
          "name": "_assignedCourses",
          "type": "uint256"
        }
      ],
      "name": "addTeacherReallyAssignedCourses",
      "outputs": [],
      "stateMutability": "nonpayable",
      "type": "function"
    },
    {
      "inputs": [
        {
          "internalType": "uint256",
          "name": "teacherId",
          "type": "uint256"
        },
        {
          "internalType": "uint256",
          "name": "_assignedCourses",
          "type": "uint256"
        }
      ],
      "name": "removeTeacherAssignedCourses",
      "outputs": [],
      "stateMutability": "nonpayable",
      "type": "function"
    },
    {
      "inputs": [
        {
          "internalType": "uint256",
          "name": "teacherId",
          "type": "uint256"
        },
        {
          "internalType": "uint256",
          "name": "_assignedCourses",
          "type": "uint256"
        }
      ],
      "name": "removeTeacherReallyAssignedCourses",
      "outputs": [],
      "stateMutability": "nonpayable",
      "type": "function"
    },
    {
      "inputs": [
        {
          "internalType": "uint256",
          "name": "teacherId",
          "type": "uint256"
        },
        {
          "internalType": "uint256",
          "name": "_suitabilityWeight",
          "type": "uint256"
        }
      ],
      "name": "setTeacherSuitabilityWeight",
      "outputs": [],
      "stateMutability": "nonpayable",
      "type": "function"
    },
    {
      "inputs": [
        {
          "internalType": "uint256",
          "name": "teacherId",
          "type": "uint256"
        },
        {
          "internalType": "uint256",
          "name": "_transferCourseCoins",
          "type": "uint256"
        }
      ],
      "name": "setTeacherTransferCourseCoins",
      "outputs": [],
      "stateMutability": "nonpayable",
      "type": "function"
    },
    {
      "inputs": [
        {
          "internalType": "uint256",
          "name": "teacherId",
          "type": "uint256"
        },
        {
          "internalType": "uint256",
          "name": "_value",
          "type": "uint256"
        }
      ],
      "name": "setTeacherValue",
      "outputs": [],
      "stateMutability": "nonpayable",
      "type": "function"
    },
    {
      "inputs": [
        {
          "internalType": "uint256",
          "name": "agentId",
          "type": "uint256"
        },
        {
          "internalType": "uint256",
          "name": "_value",
          "type": "uint256"
        }
      ],
      "name": "setAgentValue",
      "outputs": [],
      "stateMutability": "nonpayable",
      "type": "function"
    },
    {
      "inputs": [
        {
          "internalType": "uint256",
          "name": "teacherId",
          "type": "uint256"
        },
        {
          "internalType": "uint256[]",
          "name": "_suitabilities",
          "type": "uint256[]"
        }
      ],
      "name": "setAllTeacherCourseSuitability",
      "outputs": [],
      "stateMutability": "nonpayable",
      "type": "function"
    },
    {
      "inputs": [
        {
          "internalType": "uint256",
          "name": "teacherId",
          "type": "uint256"
        },
        {
          "internalType": "uint256",
          "name": "courseId",
          "type": "uint256"
        },
        {
          "internalType": "uint256",
          "name": "_suitability",
          "type": "uint256"
        }
      ],
      "name": "setTeacherCourseSuitability",
      "outputs": [],
      "stateMutability": "nonpayable",
      "type": "function"
    },
    {
      "inputs": [
        {
          "internalType": "uint256",
          "name": "teacherId",
          "type": "uint256"
        },
        {
          "internalType": "uint256[]",
          "name": "_preferences",
          "type": "uint256[]"
        }
      ],
      "name": "setAllTeacherCoursePreferences",
      "outputs": [],
      "stateMutability": "nonpayable",
      "type": "function"
    },
    {
      "inputs": [
        {
          "internalType": "uint256",
          "name": "teacherId",
          "type": "uint256"
        },
        {
          "internalType": "uint256",
          "name": "courseId",
          "type": "uint256"
        },
        {
          "internalType": "uint256",
          "name": "_preference",
          "type": "uint256"
        }
      ],
      "name": "setTeacherCoursePreferences",
      "outputs": [],
      "stateMutability": "nonpayable",
      "type": "function"
    },
    {
      "inputs": [
        {
          "internalType": "address",
          "name": "agentAddress",
          "type": "address"
        },
        {
          "internalType": "uint256",
          "name": "_agentId",
          "type": "uint256"
        }
      ],
      "name": "setAgentId",
      "outputs": [],
      "stateMutability": "nonpayable",
      "type": "function"
    },
    {
      "inputs": [
        {
          "internalType": "uint256",
          "name": "agentId",
          "type": "uint256"
        }
      ],
      "name": "removeAgent",
      "outputs": [],
      "stateMutability": "nonpayable",
      "type": "function"
    },
    {
      "inputs": [
        {
          "internalType": "uint256",
          "name": "agentId",
          "type": "uint256"
        },
        {
          "internalType": "string",
          "name": "_name",
          "type": "string"
        }
      ],
      "name": "setAgentName",
      "outputs": [],
      "stateMutability": "nonpayable",
      "type": "function"
    },
    {
      "inputs": [
        {
          "internalType": "uint256",
          "name": "agentId",
          "type": "uint256"
        },
        {
          "internalType": "address",
          "name": "_agentAddress",
          "type": "address"
        }
      ],
      "name": "setAgentAddress",
      "outputs": [],
      "stateMutability": "nonpayable",
      "type": "function"
    },
    {
      "inputs": [
        {
          "internalType": "uint256",
          "name": "agentId",
          "type": "uint256"
        },
        {
          "internalType": "uint256",
          "name": "_assignedCourses",
          "type": "uint256"
        }
      ],
      "name": "addAgentAssignedCourses",
      "outputs": [],
      "stateMutability": "nonpayable",
      "type": "function"
    },
    {
      "inputs": [
        {
          "internalType": "uint256",
          "name": "agentId",
          "type": "uint256"
        },
        {
          "internalType": "uint256",
          "name": "_assignedCourses",
          "type": "uint256"
        }
      ],
      "name": "removeAgentAssignedCourses",
      "outputs": [],
      "stateMutability": "nonpayable",
      "type": "function"
    },
    {
      "inputs": [
        {
          "internalType": "uint256",
          "name": "agentId",
          "type": "uint256"
        },
        {
          "internalType": "uint256",
          "name": "_courseId",
          "type": "uint256"
        },
        {
          "internalType": "uint256",
          "name": "_suitability",
          "type": "uint256"
        }
      ],
      "name": "setAgentCourseSuitability",
      "outputs": [],
      "stateMutability": "nonpayable",
      "type": "function"
    },
    {
      "inputs": [
        {
          "internalType": "uint256",
          "name": "agentId",
          "type": "uint256"
        },
        {
          "internalType": "uint256[]",
          "name": "_suitabilities",
          "type": "uint256[]"
        }
      ],
      "name": "setAllAgentCourseSuitability",
      "outputs": [],
      "stateMutability": "nonpayable",
      "type": "function"
    },
    {
      "inputs": [
        {
          "internalType": "address",
          "name": "classAddress",
          "type": "address"
        },
        {
          "internalType": "uint256",
          "name": "_id",
          "type": "uint256"
        }
      ],
      "name": "setClassId",
      "outputs": [],
      "stateMutability": "nonpayable",
      "type": "function"
    },
    {
      "inputs": [
        {
          "internalType": "uint256",
          "name": "classId",
          "type": "uint256"
        }
      ],
      "name": "removeClass",
      "outputs": [],
      "stateMutability": "nonpayable",
      "type": "function"
    },
    {
      "inputs": [
        {
          "internalType": "uint256",
          "name": "courseId",
          "type": "uint256"
        }
      ],
      "name": "setCourseId",
      "outputs": [],
      "stateMutability": "nonpayable",
      "type": "function"
    },
    {
      "inputs": [
        {
          "internalType": "uint256",
          "name": "courseId",
          "type": "uint256"
        }
      ],
      "name": "removeCourse",
      "outputs": [],
      "stateMutability": "nonpayable",
      "type": "function"
    },
    {
      "inputs": [
        {
          "internalType": "uint256",
          "name": "courseId",
          "type": "uint256"
        },
        {
          "internalType": "string",
          "name": "_name",
          "type": "string"
        }
      ],
      "name": "setCourseName",
      "outputs": [],
      "stateMutability": "nonpayable",
      "type": "function"
    },
    {
      "inputs": [
        {
          "internalType": "uint256",
          "name": "courseId",
          "type": "uint256"
        },
        {
          "internalType": "uint256",
          "name": "_importance",
          "type": "uint256"
        }
      ],
      "name": "setCourseImportance",
      "outputs": [],
      "stateMutability": "nonpayable",
      "type": "function"
    },
    {
      "inputs": [
        {
          "internalType": "uint256[]",
          "name": "_importances",
          "type": "uint256[]"
        }
      ],
      "name": "setAllCourseImportance",
      "outputs": [],
      "stateMutability": "nonpayable",
      "type": "function"
    },
    {
      "inputs": [
        {
          "internalType": "uint256",
          "name": "courseId",
          "type": "uint256"
        },
        {
          "internalType": "uint256",
          "name": "_teacherId",
          "type": "uint256"
        }
      ],
      "name": "addCourseAssignedTeacherId",
      "outputs": [],
      "stateMutability": "nonpayable",
      "type": "function"
    },
    {
      "inputs": [
        {
          "internalType": "uint256",
          "name": "courseId",
          "type": "uint256"
        },
        {
          "internalType": "uint256",
          "name": "_agentId",
          "type": "uint256"
        }
      ],
      "name": "addCourseAssignedAgentId",
      "outputs": [],
      "stateMutability": "nonpayable",
      "type": "function"
    },
    {
      "inputs": [
        {
          "internalType": "uint256",
          "name": "courseId",
          "type": "uint256"
        },
        {
          "internalType": "uint256",
          "name": "_teacherId",
          "type": "uint256"
        }
      ],
      "name": "removeCourseAssignedTeacherId",
      "outputs": [],
      "stateMutability": "nonpayable",
      "type": "function"
    },
    {
      "inputs": [
        {
          "internalType": "uint256",
          "name": "courseId",
          "type": "uint256"
        },
        {
          "internalType": "uint256",
          "name": "_agentId",
          "type": "uint256"
        }
      ],
      "name": "removeCourseAssignedAgentId",
      "outputs": [],
      "stateMutability": "nonpayable",
      "type": "function"
    },
    {
      "inputs": [
        {
          "internalType": "uint256",
          "name": "_teacherCount",
          "type": "uint256"
        }
      ],
      "name": "setTeacherCount",
      "outputs": [],
      "stateMutability": "nonpayable",
      "type": "function"
    },
    {
      "inputs": [
        {
          "internalType": "uint256",
          "name": "_agentCount",
          "type": "uint256"
        }
      ],
      "name": "setAgentCount",
      "outputs": [],
      "stateMutability": "nonpayable",
      "type": "function"
    },
    {
      "inputs": [
        {
          "internalType": "uint256",
          "name": "_classCount",
          "type": "uint256"
        }
      ],
      "name": "setClassCount",
      "outputs": [],
      "stateMutability": "nonpayable",
      "type": "function"
    },
    {
      "inputs": [
        {
          "internalType": "uint256",
          "name": "_courseCount",
          "type": "uint256"
        }
      ],
      "name": "setCourseCount",
      "outputs": [],
      "stateMutability": "nonpayable",
      "type": "function"
    },
    {
      "inputs": [
        {
          "internalType": "uint256",
          "name": "_teacherId",
          "type": "uint256"
        },
        {
          "internalType": "uint256",
          "name": "courseId",
          "type": "uint256"
        }
      ],
      "name": "getTeacherSuitability",
      "outputs": [
        {
          "internalType": "uint256",
          "name": "",
          "type": "uint256"
        }
      ],
      "stateMutability": "view",
      "type": "function",
      "constant": true
    },
    {
      "inputs": [
        {
          "internalType": "uint256",
          "name": "_agentId",
          "type": "uint256"
        },
        {
          "internalType": "uint256",
          "name": "courseId",
          "type": "uint256"
        }
      ],
      "name": "getAgentSuitability",
      "outputs": [
        {
          "internalType": "uint256",
          "name": "",
          "type": "uint256"
        }
      ],
      "stateMutability": "view",
      "type": "function",
      "constant": true
    },
    {
      "inputs": [
        {
          "internalType": "uint256",
          "name": "_teacherId",
          "type": "uint256"
        },
        {
          "internalType": "uint256",
          "name": "courseId",
          "type": "uint256"
        }
      ],
      "name": "getPreference",
      "outputs": [
        {
          "internalType": "uint256",
          "name": "",
          "type": "uint256"
        }
      ],
      "stateMutability": "view",
      "type": "function",
      "constant": true
    },
    {
      "inputs": [
        {
          "internalType": "uint256",
          "name": "_teacherId",
          "type": "uint256"
        }
      ],
      "name": "getTeacherAssignedCourses",
      "outputs": [
        {
          "internalType": "uint256[]",
          "name": "",
          "type": "uint256[]"
        }
      ],
      "stateMutability": "view",
      "type": "function",
      "constant": true
    },
    {
      "inputs": [
        {
          "internalType": "uint256",
          "name": "_teacherId",
          "type": "uint256"
        }
      ],
      "name": "getTeacherReallyAssignedCourses",
      "outputs": [
        {
          "internalType": "uint256[]",
          "name": "",
          "type": "uint256[]"
        }
      ],
      "stateMutability": "view",
      "type": "function",
      "constant": true
    },
    {
      "inputs": [
        {
          "internalType": "uint256",
          "name": "_agentId",
          "type": "uint256"
        }
      ],
      "name": "getAgentAssignedCourses",
      "outputs": [
        {
          "internalType": "uint256[]",
          "name": "",
          "type": "uint256[]"
        }
      ],
      "stateMutability": "view",
      "type": "function",
      "constant": true
    },
    {
      "inputs": [
        {
          "internalType": "uint256",
          "name": "_courseId",
          "type": "uint256"
        }
      ],
      "name": "getCoursesAssignedTeacher",
      "outputs": [
        {
          "internalType": "uint256[]",
          "name": "",
          "type": "uint256[]"
        }
      ],
      "stateMutability": "view",
      "type": "function",
      "constant": true
    },
    {
      "inputs": [
        {
          "internalType": "uint256",
          "name": "_courseId",
          "type": "uint256"
        }
      ],
      "name": "getCoursesAssignedAgent",
      "outputs": [
        {
          "internalType": "uint256[]",
          "name": "",
          "type": "uint256[]"
        }
      ],
      "stateMutability": "view",
      "type": "function",
      "constant": true
    },
    {
      "inputs": [
        {
          "internalType": "uint256",
          "name": "courseId",
          "type": "uint256"
        }
      ],
      "name": "getCourseImportance",
      "outputs": [
        {
          "internalType": "uint256",
          "name": "",
          "type": "uint256"
        }
      ],
      "stateMutability": "view",
      "type": "function",
      "constant": true
    },
    {
      "inputs": [],
      "name": "getTeacherIds",
      "outputs": [
        {
          "internalType": "uint256[]",
          "name": "",
          "type": "uint256[]"
        }
      ],
      "stateMutability": "view",
      "type": "function",
      "constant": true
    },
    {
      "inputs": [],
      "name": "getAgentIds",
      "outputs": [
        {
          "internalType": "uint256[]",
          "name": "",
          "type": "uint256[]"
        }
      ],
      "stateMutability": "view",
      "type": "function",
      "constant": true
    },
    {
      "inputs": [],
      "name": "getCourseIds",
      "outputs": [
        {
          "internalType": "uint256[]",
          "name": "",
          "type": "uint256[]"
        }
      ],
      "stateMutability": "view",
      "type": "function",
      "constant": true
    },
    {
      "inputs": [],
      "name": "getClassIds",
      "outputs": [
        {
          "internalType": "uint256[]",
          "name": "",
          "type": "uint256[]"
        }
      ],
      "stateMutability": "view",
      "type": "function",
      "constant": true
    },
    {
      "inputs": [
        {
          "internalType": "uint256",
          "name": "courseId",
          "type": "uint256"
        },
        {
          "internalType": "uint256",
          "name": "classId",
          "type": "uint256"
        },
        {
          "internalType": "uint256",
          "name": "score",
          "type": "uint256"
        }
      ],
      "name": "addCourseClassScores",
      "outputs": [],
      "stateMutability": "nonpayable",
      "type": "function"
    },
    {
      "inputs": [
        {
          "internalType": "uint256",
          "name": "courseId",
          "type": "uint256"
        },
        {
          "internalType": "uint256",
          "name": "classId",
          "type": "uint256"
        }
      ],
      "name": "getGiveScoreClassIdExists",
      "outputs": [
        {
          "internalType": "uint256",
          "name": "",
          "type": "uint256"
        }
      ],
      "stateMutability": "view",
      "type": "function",
      "constant": true
    },
    {
      "inputs": [
        {
          "internalType": "uint256",
          "name": "courseId",
          "type": "uint256"
        },
        {
          "internalType": "uint256[]",
          "name": "classIds_",
          "type": "uint256[]"
        }
      ],
      "name": "removeCourseClassScores",
      "outputs": [],
      "stateMutability": "nonpayable",
      "type": "function"
    },
    {
      "inputs": [
        {
          "internalType": "uint256",
          "name": "courseId",
          "type": "uint256"
        }
      ],
      "name": "getCourseClassScores",
      "outputs": [
        {
          "internalType": "uint256[]",
          "name": "",
          "type": "uint256[]"
        }
      ],
      "stateMutability": "view",
      "type": "function",
      "constant": true
    },
    {
      "inputs": [
        {
          "internalType": "uint256",
          "name": "courseId",
          "type": "uint256"
        },
        {
          "internalType": "uint256",
          "name": "score",
          "type": "uint256"
        }
      ],
      "name": "setCourseSelfScore",
      "outputs": [],
      "stateMutability": "nonpayable",
      "type": "function"
    },
    {
      "inputs": [
        {
          "internalType": "uint256",
          "name": "courseId",
          "type": "uint256"
        },
        {
          "internalType": "uint256",
          "name": "score",
          "type": "uint256"
        }
      ],
      "name": "setCourseTotalScore",
      "outputs": [],
      "stateMutability": "nonpayable",
      "type": "function"
    },
    {
      "inputs": [
        {
          "internalType": "uint256",
          "name": "courseId",
          "type": "uint256"
        },
        {
          "internalType": "uint256",
          "name": "supervisorId",
          "type": "uint256"
        },
        {
          "internalType": "uint256",
          "name": "score",
          "type": "uint256"
        }
      ],
      "name": "addCourseSupervisorScores",
      "outputs": [],
      "stateMutability": "nonpayable",
      "type": "function"
    },
    {
      "inputs": [
        {
          "internalType": "uint256",
          "name": "courseId",
          "type": "uint256"
        },
        {
          "internalType": "uint256",
          "name": "supervisorId",
          "type": "uint256"
        }
      ],
      "name": "getGiveScoreSupervisorIdExists",
      "outputs": [
        {
          "internalType": "uint256",
          "name": "",
          "type": "uint256"
        }
      ],
      "stateMutability": "view",
      "type": "function",
      "constant": true
    },
    {
      "inputs": [
        {
          "internalType": "uint256",
          "name": "courseId",
          "type": "uint256"
        }
      ],
      "name": "getCourseSupervisorScores",
      "outputs": [
        {
          "internalType": "uint256[]",
          "name": "",
          "type": "uint256[]"
        }
      ],
      "stateMutability": "view",
      "type": "function",
      "constant": true
    },
    {
      "inputs": [
        {
          "internalType": "uint256",
          "name": "supervisorId",
          "type": "uint256"
        }
      ],
      "name": "addSupervisorId",
      "outputs": [],
      "stateMutability": "nonpayable",
      "type": "function"
    },
    {
      "inputs": [],
      "name": "getSupervisorIds",
      "outputs": [
        {
          "internalType": "uint256[]",
          "name": "",
          "type": "uint256[]"
        }
      ],
      "stateMutability": "view",
      "type": "function",
      "constant": true
    },
    {
      "inputs": [
        {
          "internalType": "address",
          "name": "supervisor",
          "type": "address"
        },
        {
          "internalType": "uint256",
          "name": "supervisorId",
          "type": "uint256"
        }
      ],
      "name": "setSupervisorId",
      "outputs": [],
      "stateMutability": "nonpayable",
      "type": "function"
    },
    {
      "inputs": [
        {
          "internalType": "uint256",
          "name": "supervisorId",
          "type": "uint256"
        },
        {
          "internalType": "string",
          "name": "_name",
          "type": "string"
        }
      ],
      "name": "setSupervisorName",
      "outputs": [],
      "stateMutability": "nonpayable",
      "type": "function"
    },
    {
      "inputs": [
        {
          "internalType": "uint256",
          "name": "supervisorId",
          "type": "uint256"
        },
        {
          "internalType": "uint256",
          "name": "courseId",
          "type": "uint256"
        },
        {
          "internalType": "uint256",
          "name": "score",
          "type": "uint256"
        }
      ],
      "name": "setSupervisorsCourseScore",
      "outputs": [],
      "stateMutability": "nonpayable",
      "type": "function"
    },
    {
      "inputs": [
        {
          "internalType": "uint256",
          "name": "_transferCourseNumbers",
          "type": "uint256"
        }
      ],
      "name": "settransferCourseNumbers",
      "outputs": [],
      "stateMutability": "nonpayable",
      "type": "function"
    },
    {
      "inputs": [
        {
          "internalType": "uint256",
          "name": "_transferCourseStartTime",
          "type": "uint256"
        }
      ],
      "name": "settransferCourseStartTime",
      "outputs": [],
      "stateMutability": "nonpayable",
      "type": "function"
    },
    {
      "inputs": [
        {
          "internalType": "uint256",
          "name": "_transferCourseEndTime",
          "type": "uint256"
        }
      ],
      "name": "settransferCourseEndTime",
      "outputs": [],
      "stateMutability": "nonpayable",
      "type": "function"
    },
    {
      "inputs": [
        {
          "internalType": "string",
          "name": "option",
          "type": "string"
        }
      ],
      "name": "setScoreType",
      "outputs": [],
      "stateMutability": "nonpayable",
      "type": "function"
    }
  ],
  "bytecode": "0x608060405234801561001057600080fd5b506149cc806100206000396000f3fe608060405234801561001057600080fd5b506004361061051a5760003560e01c80639476cf9b116102a4578063ce64bf9b11610172578063e637812f116100d9578063ee196ee211610092578063ee196ee214611105578063f0f2efd814611121578063f31e14941461113d578063fa8f084d14611159578063fc09e9d014611177578063fc2ddca5146111935761051a565b8063e637812f1461100b578063e7fa455714611027578063e8a2dc2f14611043578063e906165714611073578063ebacebe4146110a3578063ebd1aac6146110d35761051a565b8063deb9f76a1161012b578063deb9f76a14610f4f578063df3addfa14610f6b578063e204b10214610f87578063e20b340514610fa3578063e40af03614610fbf578063e52505d814610fdb5761051a565b8063ce64bf9b14610e43578063d4e57ff014610e73578063d95a61d514610ea3578063d96ce73f14610ed3578063dcfa705714610f03578063dd03576514610f335761051a565b8063ab99631711610216578063bb69df72116101cf578063bb69df7214610d87578063bca24bd414610da3578063bd1602d114610dd3578063bfb9d44c14610def578063c318fe5f14610e0b578063cddd6c6314610e275761051a565b8063ab99631714610cd9578063ad3a6ad414610cf7578063b150876014610d13578063b373a43414610d31578063b4da858414610d4d578063b7dc128414610d695761051a565b806397e92d521161026857806397e92d5214610c2f5780639e12237714610c4b578063a549e41614610c67578063a7ab847214610c83578063aaa4b24e14610c9f578063ab7cee7714610cbb5761051a565b80639476cf9b14610b61578063951d5fee14610b9157806396c82e5714610baf57806396f979d214610bcd5780639709ee0114610bff5761051a565b80635ca24db0116103ec57806372ab4e961161035357806382ff0a5a1161030c57806382ff0a5a14610a695780638377b69014610a99578063851580a714610ac957806386875ea814610af95780638bbb3be114610b1557806391c89deb14610b315761051a565b806372ab4e961461099757806372c30f45146109b35780637ce28bac146109cf5780637e4d164114610a015780637fa7e04d14610a1d578063827e573114610a395761051a565b80636b792cc8116103a55780636b792cc8146108db5780636d889f84146108f75780636e428d2d146109135780636e9b0f8f1461092f5780636fcf4f961461095f578063700ed28b1461097b5761051a565b80635ca24db01461081d5780635e383d461461084d5780635f63efe214610869578063643d172c1461088557806366055159146108a15780636798bad9146108bf5761051a565b80633abdb63d116104905780634d27e912116104495780634d27e912146107485780634d65235014610764578063513856c81461078257806356e76058146107b55780635953faff146107e55780635a47fb8d146108015761051a565b80633abdb63d14610688578063439fc3d1146106a457806345073d5c146106c257806346be3136146106de578063494e2371146106fc5780634b974df71461072c5761051a565b80631928f3bc116104e25780631928f3bc146105c35780631dd86f90146105e15780631fe76a6c146105fd5780632359b7b8146106195780632b0816ac1461063757806334ac0b40146106535761051a565b8063034f578e1461051f57806308a2037f1461053d5780630f7f13cf146105595780630fa1c2711461058957806318860d37146105a5575b600080fd5b6105276111af565b604051610534919061425d565b60405180910390f35b61055760048036038101906105529190613e75565b6111b5565b005b610573600480360381019061056e9190613c49565b6111e0565b604051610580919061425d565b60405180910390f35b6105a3600480360381019061059e9190613ed5565b6111f8565b005b6105ad611239565b6040516105ba9190614139565b60405180910390f35b6105cb611291565b6040516105d8919061425d565b60405180910390f35b6105fb60048036038101906105f69190613f15565b611297565b005b61061760048036038101906106129190613f15565b61134b565b005b61062161137c565b60405161062e9190614139565b60405180910390f35b610651600480360381019061064c9190613d4c565b6113d4565b005b61066d60048036038101906106689190613d4c565b61141b565b60405161067f96959493929190614302565b60405180910390f35b6106a2600480360381019061069d9190613d4c565b6114ff565b005b6106ac6115e7565b6040516106b9919061415b565b60405180910390f35b6106dc60048036038101906106d79190613e19565b611675565b005b6106e6611702565b6040516106f3919061425d565b60405180910390f35b61071660048036038101906107119190613d4c565b611708565b604051610723919061425d565b60405180910390f35b61074660048036038101906107419190613ed5565b61172c565b005b610762600480360381019061075d9190613f15565b6118c6565b005b61076c6118f7565b6040516107799190614139565b60405180910390f35b61079c60048036038101906107979190613d4c565b61194f565b6040516107ac94939291906142b6565b60405180910390f35b6107cf60048036038101906107ca9190613d4c565b611a27565b6040516107dc919061425d565b60405180910390f35b6107ff60048036038101906107fa9190613cb6565b611a4b565b005b61081b60048036038101906108169190613ed5565b611b0d565b005b61083760048036038101906108329190613d4c565b611b2c565b6040516108449190614139565b60405180910390f35b61086760048036038101906108629190613c76565b611b9a565b005b610883600480360381019061087e9190613d4c565b611c0b565b005b61089f600480360381019061089a9190613d4c565b611c15565b005b6108a9611c59565b6040516108b6919061425d565b60405180910390f35b6108d960048036038101906108d49190613d4c565b611c5f565b005b6108f560048036038101906108f09190613d4c565b611c69565b005b610911600480360381019061090c9190613f15565b611c73565b005b61092d60048036038101906109289190613ed5565b611d4b565b005b61094960048036038101906109449190613d4c565b611ee5565b604051610956919061425d565b60405180910390f35b61097960048036038101906109749190613d4c565b611f05565b005b61099560048036038101906109909190613ed5565b612070565b005b6109b160048036038101906109ac9190613ed5565b6120b1565b005b6109cd60048036038101906109c89190613d4c565b6120f2565b005b6109e960048036038101906109e49190613d4c565b6121be565b6040516109f893929190614278565b60405180910390f35b610a1b6004803603810190610a169190613cff565b612290565b005b610a376004803603810190610a329190613e75565b6122a6565b005b610a536004803603810190610a4e9190613d4c565b6122d1565b604051610a609190614139565b60405180910390f35b610a836004803603810190610a7e9190613d4c565b61233f565b604051610a909190614139565b60405180910390f35b610ab36004803603810190610aae9190613ed5565b6123ad565b604051610ac0919061425d565b60405180910390f35b610ae36004803603810190610ade9190613ed5565b6123df565b604051610af0919061425d565b60405180910390f35b610b136004803603810190610b0e9190613ed5565b612411565b005b610b2f6004803603810190610b2a9190613c76565b6125ab565b005b610b4b6004803603810190610b469190613d4c565b612663565b604051610b589190614139565b60405180910390f35b610b7b6004803603810190610b769190613d4c565b6126d1565b604051610b88919061425d565b60405180910390f35b610b996126f5565b604051610ba6919061425d565b60405180910390f35b610bb76126fb565b604051610bc4919061425d565b60405180910390f35b610be76004803603810190610be29190613d4c565b612701565b604051610bf69392919061436a565b60405180910390f35b610c196004803603810190610c149190613ed5565b6127b3565b604051610c26919061425d565b60405180910390f35b610c496004803603810190610c449190613db9565b6127e5565b005b610c656004803603810190610c609190613e75565b61293e565b005b610c816004803603810190610c7c9190613c76565b612969565b005b610c9d6004803603810190610c989190613e75565b6129f5565b005b610cb96004803603810190610cb49190613ed5565b612aa3565b005b610cc3612ac2565b604051610cd0919061425d565b60405180910390f35b610ce1612ac8565b604051610cee919061425d565b60405180910390f35b610d116004803603810190610d0c9190613db9565b612ace565b005b610d1b612c27565b604051610d289190614139565b60405180910390f35b610d4b6004803603810190610d469190613d4c565b612c7f565b005b610d676004803603810190610d629190613ed5565b612c89565b005b610d71612d2b565b604051610d7e919061425d565b60405180910390f35b610da16004803603810190610d9c9190613ed5565b612d31565b005b610dbd6004803603810190610db89190613d4c565b612e31565b604051610dca919061425d565b60405180910390f35b610ded6004803603810190610de89190613d4c565b612e55565b005b610e096004803603810190610e049190613c76565b612e5f565b005b610e256004803603810190610e209190613d79565b612eeb565b005b610e416004803603810190610e3c9190613d79565b612fc7565b005b610e5d6004803603810190610e589190613d4c565b613020565b604051610e6a9190614139565b60405180910390f35b610e8d6004803603810190610e889190613c49565b61308e565b604051610e9a919061425d565b60405180910390f35b610ebd6004803603810190610eb89190613c49565b6130a6565b604051610eca919061425d565b60405180910390f35b610eed6004803603810190610ee89190613d4c565b6130be565b604051610efa9190614139565b60405180910390f35b610f1d6004803603810190610f189190613d4c565b61312c565b604051610f2a919061425d565b60405180910390f35b610f4d6004803603810190610f489190613d4c565b613150565b005b610f696004803603810190610f649190613d4c565b61315a565b005b610f856004803603810190610f809190613d4c565b613164565b005b610fa16004803603810190610f9c9190613ed5565b613230565b005b610fbd6004803603810190610fb89190613ed5565b61324f565b005b610fd96004803603810190610fd49190613ed5565b6132f1565b005b610ff56004803603810190610ff09190613d4c565b61348b565b6040516110029190614139565b60405180910390f35b61102560048036038101906110209190613ed5565b6134f9565b005b611041600480360381019061103c9190613ed5565b61353a565b005b61105d60048036038101906110589190613ed5565b6136d4565b60405161106a919061425d565b60405180910390f35b61108d60048036038101906110889190613ed5565b613706565b60405161109a919061425d565b60405180910390f35b6110bd60048036038101906110b89190613c49565b613738565b6040516110ca919061425d565b60405180910390f35b6110ed60048036038101906110e89190613d4c565b613750565b6040516110fc939291906143a8565b60405180910390f35b61111f600480360381019061111a9190613ed5565b61377a565b005b61113b60048036038101906111369190613db9565b613799565b005b61115760048036038101906111529190613f15565b61386f565b005b611161613947565b60405161116e9190614139565b60405180910390f35b611191600480360381019061118c9190613ed5565b61399f565b005b6111ad60048036038101906111a89190613f15565b6139e0565b005b60175481565b81816008600086815260200190815260200160002060010191906111da929190613a11565b50505050565b60026020528060005260406000206000915090505481565b600960008381526020019081526020016000206003018190806001815401808255809150506001900390600052602060002001600090919091909150555050565b6060601380548060200260200160405190810160405280929190818152602001828054801561128757602002820191906000526020600020905b815481526020019060010190808311611273575b5050505050905090565b60165481565b6000600260003373ffffffffffffffffffffffffffffffffffffffff1673ffffffffffffffffffffffffffffffffffffffff16815260200190815260200160002054141561131a576040517f08c379a00000000000000000000000000000000000000000000000000000000081526004016113119061421d565b60405180910390fd5b8060066000858152602001908152602001600020600901600084815260200190815260200160002081905550505050565b8060066000858152602001908152602001600020600801600084815260200190815260200160002081905550505050565b606060128054806020026020016040519081016040528092919081815260200182805480156113ca57602002820191906000526020600020905b8154815260200190600101908083116113b6575b5050505050905090565b806009600083815260200190815260200160002060000181905550601281908060018154018082558091505060019003906000526020600020016000909190919091505550565b60066020528060005260406000206000915090508060000154908060010180546114449061457e565b80601f01602080910402602001604051908101604052809291908181526020018280546114709061457e565b80156114bd5780601f10611492576101008083540402835291602001916114bd565b820191906000526020600020905b8154815290600101906020018083116114a057829003601f168201915b5050505050908060020160009054906101000a900473ffffffffffffffffffffffffffffffffffffffff16908060050154908060060154908060070154905086565b6000600760008381526020019081526020016000206000018190555060005b6011805490508110156115e35781601182815481106115405761153f6146b7565b5b906000526020600020015414156115d0576011600160118054905061156591906144db565b81548110611576576115756146b7565b5b906000526020600020015460118281548110611595576115946146b7565b5b906000526020600020018190555060118054806115b5576115b4614688565b5b600190038181906000526020600020016000905590556115e3565b80806115db906145e1565b91505061151e565b5050565b600080546115f49061457e565b80601f01602080910402602001604051908101604052809291908181526020018280546116209061457e565b801561166d5780601f106116425761010080835404028352916020019161166d565b820191906000526020600020905b81548152906001019060200180831161165057829003601f168201915b505050505081565b60005b81518110156116db576000600a600085815260200190815260200160002060030160008484815181106116ae576116ad6146b7565b5b602002602001015181526020019081526020016000208190555080806116d3906145e1565b915050611678565b50600a600083815260200190815260200160002060020160006116fe9190613a97565b5050565b600b5481565b6012818154811061171857600080fd5b906000526020600020016000915090505481565b60008080600090505b60066000868152602001908152602001600020600301805490508110156117af578360066000878152602001908152602001600020600301828154811061177f5761177e6146b7565b5b9060005260206000200154141561179c57600192508091506117af565b80806117a7906145e1565b915050611735565b5081156118855760066000858152602001908152602001600020600301600160066000878152602001908152602001600020600301805490506117f291906144db565b81548110611803576118026146b7565b5b9060005260206000200154600660008681526020019081526020016000206003018281548110611836576118356146b7565b5b90600052602060002001819055506006600085815260200190815260200160002060030180548061186a57611869614688565b5b600190038181906000526020600020016000905590556118c0565b6040517f08c379a00000000000000000000000000000000000000000000000000000000081526004016118b7906141bd565b60405180910390fd5b50505050565b8060076000858152602001908152602001600020600501600084815260200190815260200160002081905550505050565b6060601080548060200260200160405190810160405280929190818152602001828054801561194557602002820191906000526020600020905b815481526020019060010190808311611931575b5050505050905090565b60076020528060005260406000206000915090508060000154908060010180546119789061457e565b80601f01602080910402602001604051908101604052809291908181526020018280546119a49061457e565b80156119f15780601f106119c6576101008083540402835291602001916119f1565b820191906000526020600020905b8154815290600101906020018083116119d457829003601f168201915b5050505050908060020160009054906101000a900473ffffffffffffffffffffffffffffffffffffffff16908060030154905084565b60118181548110611a3757600080fd5b906000526020600020016000915090505481565b601280549050815114611a93576040517f08c379a0000000000000000000000000000000000000000000000000000000008152600401611a8a906141dd565b60405180910390fd5b60005b601280549050811015611b0957818181518110611ab657611ab56146b7565b5b60200260200101516009600060128481548110611ad657611ad56146b7565b5b90600052602060002001548152602001908152602001600020600201819055508080611b01906145e1565b915050611a96565b5050565b80600a6000848152602001908152602001600020600401819055505050565b6060600a6000838152602001908152602001600020600201805480602002602001604051908101604052809291908181526020018280548015611b8e57602002820191906000526020600020905b815481526020019060010190808311611b7a575b50505050509050919050565b80600460008473ffffffffffffffffffffffffffffffffffffffff1673ffffffffffffffffffffffffffffffffffffffff1681526020019081526020016000208190555060138190806001815401808255809150506001900390600052602060002001600090919091909150555050565b8060168190555050565b6014819080600181540180825580915050600190039060005260206000200160009091909190915055600f6000815480929190611c51906145e1565b919050555050565b600e5481565b80600b8190555050565b8060158190555050565b6000600a600085815260200190815260200160002060030160008481526020019081526020016000205414611cdd576040517f08c379a0000000000000000000000000000000000000000000000000000000008152600401611cd49061419d565b60405180910390fd5b80600a6000858152602001908152602001600020600301600084815260200190815260200160002081905550600a6000848152602001908152602001600020600201819080600181540180825580915050600190039060005260206000200160009091909190915055505050565b60008080600090505b6009600086815260200190815260200160002060030180549050811015611dce5783600960008781526020019081526020016000206003018281548110611d9e57611d9d6146b7565b5b90600052602060002001541415611dbb5760019250809150611dce565b8080611dc6906145e1565b915050611d54565b508115611ea4576009600085815260200190815260200160002060030160016009600087815260200190815260200160002060030180549050611e1191906144db565b81548110611e2257611e216146b7565b5b9060005260206000200154600960008681526020019081526020016000206003018281548110611e5557611e546146b7565b5b906000526020600020018190555060096000858152602001908152602001600020600301805480611e8957611e88614688565b5b60019003818190600052602060002001600090559055611edf565b6040517f08c379a0000000000000000000000000000000000000000000000000000000008152600401611ed6906141bd565b60405180910390fd5b50505050565b600060096000838152602001908152602001600020600201549050919050565b6000600260003373ffffffffffffffffffffffffffffffffffffffff1673ffffffffffffffffffffffffffffffffffffffff168152602001908152602001600020541415611f88576040517f08c379a0000000000000000000000000000000000000000000000000000000008152600401611f7f9061421d565b60405180910390fd5b6000600660008381526020019081526020016000206000018190555060005b60108054905081101561206c578160108281548110611fc957611fc86146b7565b5b906000526020600020015414156120595760106001601080549050611fee91906144db565b81548110611fff57611ffe6146b7565b5b90600052602060002001546010828154811061201e5761201d6146b7565b5b9060005260206000200181905550601080548061203e5761203d614688565b5b6001900381819060005260206000200160009055905561206c565b8080612064906145e1565b915050611fa7565b5050565b600660008381526020019081526020016000206003018190806001815401808255809150506001900390600052602060002001600090919091909150555050565b600760008381526020019081526020016000206004018190806001815401808255809150506001900390600052602060002001600090919091909150555050565b60005b6013805490508110156121ba578160138281548110612117576121166146b7565b5b906000526020600020015414156121a7576013600160138054905061213c91906144db565b8154811061214d5761214c6146b7565b5b90600052602060002001546013828154811061216c5761216b6146b7565b5b9060005260206000200181905550601380548061218c5761218b614688565b5b600190038181906000526020600020016000905590556121ba565b80806121b2906145e1565b9150506120f5565b5050565b60086020528060005260406000206000915090508060000154908060010180546121e79061457e565b80601f01602080910402602001604051908101604052809291908181526020018280546122139061457e565b80156122605780601f1061223557610100808354040283529160200191612260565b820191906000526020600020905b81548152906001019060200180831161224357829003601f168201915b5050505050908060020160009054906101000a900473ffffffffffffffffffffffffffffffffffffffff16905083565b8181600091906122a1929190613a11565b505050565b81816007600086815260200190815260200160002060010191906122cb929190613a11565b50505050565b60606006600083815260200190815260200160002060040180548060200260200160405190810160405280929190818152602001828054801561233357602002820191906000526020600020905b81548152602001906001019080831161231f575b50505050509050919050565b6060600960008381526020019081526020016000206003018054806020026020016040519081016040528092919081815260200182805480156123a157602002820191906000526020600020905b81548152602001906001019080831161238d575b50505050509050919050565b6000600a6000848152602001908152602001600020600301600083815260200190815260200160002054905092915050565b600060066000848152602001908152602001600020600901600083815260200190815260200160002054905092915050565b60008080600090505b60096000868152602001908152602001600020600401805490508110156124945783600960008781526020019081526020016000206004018281548110612464576124636146b7565b5b906000526020600020015414156124815760019250809150612494565b808061248c906145e1565b91505061241a565b50811561256a5760096000858152602001908152602001600020600401600160096000878152602001908152602001600020600401805490506124d791906144db565b815481106124e8576124e76146b7565b5b906000526020600020015460096000868152602001908152602001600020600401828154811061251b5761251a6146b7565b5b90600052602060002001819055506009600085815260200190815260200160002060040180548061254f5761254e614688565b5b600190038181906000526020600020016000905590556125a5565b6040517f08c379a000000000000000000000000000000000000000000000000000000000815260040161259c906141bd565b60405180910390fd5b50505050565b80600560008473ffffffffffffffffffffffffffffffffffffffff1673ffffffffffffffffffffffffffffffffffffffff16815260200190815260200160002081905550806008600083815260200190815260200160002060000181905550816008600083815260200190815260200160002060020160006101000a81548173ffffffffffffffffffffffffffffffffffffffff021916908373ffffffffffffffffffffffffffffffffffffffff1602179055505050565b6060600960008381526020019081526020016000206004018054806020026020016040519081016040528092919081815260200182805480156126c557602002820191906000526020600020905b8154815260200190600101908083116126b1575b50505050509050919050565b601481815481106126e157600080fd5b906000526020600020016000915090505481565b60155481565b60015481565b600960205280600052604060002060009150905080600001549080600101805461272a9061457e565b80601f01602080910402602001604051908101604052809291908181526020018280546127569061457e565b80156127a35780601f10612778576101008083540402835291602001916127a3565b820191906000526020600020905b81548152906001019060200180831161278657829003601f168201915b5050505050908060020154905083565b600060076000848152602001908152602001600020600501600083815260200190815260200160002054905092915050565b6000600260003373ffffffffffffffffffffffffffffffffffffffff1673ffffffffffffffffffffffffffffffffffffffff168152602001908152602001600020541415612868576040517f08c379a000000000000000000000000000000000000000000000000000000000815260040161285f9061421d565b60405180910390fd5b60128054905082829050146128b2576040517f08c379a00000000000000000000000000000000000000000000000000000000081526004016128a99061423d565b60405180910390fd5b60005b601280549050811015612938578282828181106128d5576128d46146b7565b5b9050602002013560066000868152602001908152602001600020600801600060128481548110612908576129076146b7565b5b90600052602060002001548152602001908152602001600020819055508080612930906145e1565b9150506128b5565b50505050565b8181600960008681526020019081526020016000206001019190612963929190613a11565b50505050565b80600260008473ffffffffffffffffffffffffffffffffffffffff1673ffffffffffffffffffffffffffffffffffffffff1681526020019081526020016000208190555080600660008381526020019081526020016000206000018190555060108190806001815401808255809150506001900390600052602060002001600090919091909150555050565b6000600260003373ffffffffffffffffffffffffffffffffffffffff1673ffffffffffffffffffffffffffffffffffffffff168152602001908152602001600020541415612a78576040517f08c379a0000000000000000000000000000000000000000000000000000000008152600401612a6f9061421d565b60405180910390fd5b8181600660008681526020019081526020016000206001019190612a9d929190613a11565b50505050565b80600a6000848152602001908152602001600020600101819055505050565b600f5481565b600d5481565b6000600260003373ffffffffffffffffffffffffffffffffffffffff1673ffffffffffffffffffffffffffffffffffffffff168152602001908152602001600020541415612b51576040517f08c379a0000000000000000000000000000000000000000000000000000000008152600401612b489061421d565b60405180910390fd5b6012805490508282905014612b9b576040517f08c379a0000000000000000000000000000000000000000000000000000000008152600401612b929061417d565b60405180910390fd5b60005b601280549050811015612c2157828282818110612bbe57612bbd6146b7565b5b9050602002013560066000868152602001908152602001600020600901600060128481548110612bf157612bf06146b7565b5b90600052602060002001548152602001908152602001600020819055508080612c19906145e1565b915050612b9e565b50505050565b60606011805480602002602001604051908101604052809291908181526020018280548015612c7557602002820191906000526020600020905b815481526020019060010190808311612c61575b5050505050905090565b8060178190555050565b6000600260003373ffffffffffffffffffffffffffffffffffffffff1673ffffffffffffffffffffffffffffffffffffffff168152602001908152602001600020541415612d0c576040517f08c379a0000000000000000000000000000000000000000000000000000000008152600401612d039061421d565b60405180910390fd5b8060066000848152602001908152602001600020600601819055505050565b600c5481565b6000600260003373ffffffffffffffffffffffffffffffffffffffff1673ffffffffffffffffffffffffffffffffffffffff168152602001908152602001600020541415612db4576040517f08c379a0000000000000000000000000000000000000000000000000000000008152600401612dab9061421d565b60405180910390fd5b600660008381526020019081526020016000206005015460016000828254612ddc91906144db565b92505081905550806006600084815260200190815260200160002060050181905550600660008381526020019081526020016000206005015460016000828254612e269190614485565b925050819055505050565b60138181548110612e4157600080fd5b906000526020600020016000915090505481565b80600e8190555050565b80600360008473ffffffffffffffffffffffffffffffffffffffff1673ffffffffffffffffffffffffffffffffffffffff1681526020019081526020016000208190555080600760008381526020019081526020016000206000018190555060118190806001815401808255809150506001900390600052602060002001600090919091909150555050565b6000600260003373ffffffffffffffffffffffffffffffffffffffff1673ffffffffffffffffffffffffffffffffffffffff168152602001908152602001600020541415612f6e576040517f08c379a0000000000000000000000000000000000000000000000000000000008152600401612f659061421d565b60405180910390fd5b806006600084815260200190815260200160002060020160006101000a81548173ffffffffffffffffffffffffffffffffffffffff021916908373ffffffffffffffffffffffffffffffffffffffff1602179055505050565b806007600084815260200190815260200160002060020160006101000a81548173ffffffffffffffffffffffffffffffffffffffff021916908373ffffffffffffffffffffffffffffffffffffffff1602179055505050565b60606007600083815260200190815260200160002060040180548060200260200160405190810160405280929190818152602001828054801561308257602002820191906000526020600020905b81548152602001906001019080831161306e575b50505050509050919050565b60046020528060005260406000206000915090505481565b60056020528060005260406000206000915090505481565b6060600a600083815260200190815260200160002060050180548060200260200160405190810160405280929190818152602001828054801561312057602002820191906000526020600020905b81548152602001906001019080831161310c575b50505050509050919050565b6010818154811061313c57600080fd5b906000526020600020016000915090505481565b80600d8190555050565b80600c8190555050565b60005b60128054905081101561322c578160128281548110613189576131886146b7565b5b9060005260206000200154141561321957601260016012805490506131ae91906144db565b815481106131bf576131be6146b7565b5b9060005260206000200154601282815481106131de576131dd6146b7565b5b906000526020600020018190555060128054806131fe576131fd614688565b5b6001900381819060005260206000200160009055905561322c565b8080613224906145e1565b915050613167565b5050565b8060096000848152602001908152602001600020600201819055505050565b6000600260003373ffffffffffffffffffffffffffffffffffffffff1673ffffffffffffffffffffffffffffffffffffffff1681526020019081526020016000205414156132d2576040517f08c379a00000000000000000000000000000000000000000000000000000000081526004016132c99061421d565b60405180910390fd5b8060066000848152602001908152602001600020600701819055505050565b60008080600090505b60076000868152602001908152602001600020600401805490508110156133745783600760008781526020019081526020016000206004018281548110613344576133436146b7565b5b906000526020600020015414156133615760019250809150613374565b808061336c906145e1565b9150506132fa565b50811561344a5760076000858152602001908152602001600020600401600160076000878152602001908152602001600020600401805490506133b791906144db565b815481106133c8576133c76146b7565b5b90600052602060002001546007600086815260200190815260200160002060040182815481106133fb576133fa6146b7565b5b90600052602060002001819055506007600085815260200190815260200160002060040180548061342f5761342e614688565b5b60019003818190600052602060002001600090559055613485565b6040517f08c379a000000000000000000000000000000000000000000000000000000000815260040161347c906141bd565b60405180910390fd5b50505050565b6060600660008381526020019081526020016000206003018054806020026020016040519081016040528092919081815260200182805480156134ed57602002820191906000526020600020905b8154815260200190600101908083116134d9575b50505050509050919050565b600660008381526020019081526020016000206004018190806001815401808255809150506001900390600052602060002001600090919091909150555050565b60008080600090505b60066000868152602001908152602001600020600401805490508110156135bd578360066000878152602001908152602001600020600401828154811061358d5761358c6146b7565b5b906000526020600020015414156135aa57600192508091506135bd565b80806135b5906145e1565b915050613543565b50811561369357600660008581526020019081526020016000206004016001600660008781526020019081526020016000206004018054905061360091906144db565b81548110613611576136106146b7565b5b9060005260206000200154600660008681526020019081526020016000206004018281548110613644576136436146b7565b5b90600052602060002001819055506006600085815260200190815260200160002060040180548061367857613677614688565b5b600190038181906000526020600020016000905590556136ce565b6040517f08c379a00000000000000000000000000000000000000000000000000000000081526004016136c5906141bd565b60405180910390fd5b50505050565b600060066000848152602001908152602001600020600801600083815260200190815260200160002054905092915050565b6000600a6000848152602001908152602001600020600601600083815260200190815260200160002054905092915050565b60036020528060005260406000206000915090505481565b600a6020528060005260406000206000915090508060000154908060010154908060040154905083565b8060076000848152602001908152602001600020600301819055505050565b60128054905082829050146137e3576040517f08c379a00000000000000000000000000000000000000000000000000000000081526004016137da9061423d565b60405180910390fd5b60005b60128054905081101561386957828282818110613806576138056146b7565b5b9050602002013560076000868152602001908152602001600020600501600060128481548110613839576138386146b7565b5b90600052602060002001548152602001908152602001600020819055508080613861906145e1565b9150506137e6565b50505050565b6000600a6000858152602001908152602001600020600601600084815260200190815260200160002054146138d9576040517f08c379a00000000000000000000000000000000000000000000000000000000081526004016138d0906141fd565b60405180910390fd5b80600a6000858152602001908152602001600020600601600084815260200190815260200160002081905550600a6000848152602001908152602001600020600501819080600181540180825580915050600190039060005260206000200160009091909190915055505050565b6060601480548060200260200160405190810160405280929190818152602001828054801561399557602002820191906000526020600020905b815481526020019060010190808311613981575b5050505050905090565b600960008381526020019081526020016000206004018190806001815401808255809150506001900390600052602060002001600090919091909150555050565b8060086000858152602001908152602001600020600301600084815260200190815260200160002081905550505050565b828054613a1d9061457e565b90600052602060002090601f016020900481019282613a3f5760008555613a86565b82601f10613a5857803560ff1916838001178555613a86565b82800160010185558215613a86579182015b82811115613a85578235825591602001919060010190613a6a565b5b509050613a939190613ab8565b5090565b5080546000825590600052602060002090810190613ab59190613ab8565b50565b5b80821115613ad1576000816000905550600101613ab9565b5090565b6000613ae8613ae384614404565b6143df565b90508083825260208201905082856020860282011115613b0b57613b0a61471f565b5b60005b85811015613b3b5781613b218882613c34565b845260208401935060208301925050600181019050613b0e565b5050509392505050565b600081359050613b5481614968565b92915050565b60008083601f840112613b7057613b6f61471a565b5b8235905067ffffffffffffffff811115613b8d57613b8c614715565b5b602083019150836020820283011115613ba957613ba861471f565b5b9250929050565b600082601f830112613bc557613bc461471a565b5b8135613bd5848260208601613ad5565b91505092915050565b60008083601f840112613bf457613bf361471a565b5b8235905067ffffffffffffffff811115613c1157613c10614715565b5b602083019150836001820283011115613c2d57613c2c61471f565b5b9250929050565b600081359050613c438161497f565b92915050565b600060208284031215613c5f57613c5e614729565b5b6000613c6d84828501613b45565b91505092915050565b60008060408385031215613c8d57613c8c614729565b5b6000613c9b85828601613b45565b9250506020613cac85828601613c34565b9150509250929050565b600060208284031215613ccc57613ccb614729565b5b600082013567ffffffffffffffff811115613cea57613ce9614724565b5b613cf684828501613bb0565b91505092915050565b60008060208385031215613d1657613d15614729565b5b600083013567ffffffffffffffff811115613d3457613d33614724565b5b613d4085828601613bde565b92509250509250929050565b600060208284031215613d6257613d61614729565b5b6000613d7084828501613c34565b91505092915050565b60008060408385031215613d9057613d8f614729565b5b6000613d9e85828601613c34565b9250506020613daf85828601613b45565b9150509250929050565b600080600060408486031215613dd257613dd1614729565b5b6000613de086828701613c34565b935050602084013567ffffffffffffffff811115613e0157613e00614724565b5b613e0d86828701613b5a565b92509250509250925092565b60008060408385031215613e3057613e2f614729565b5b6000613e3e85828601613c34565b925050602083013567ffffffffffffffff811115613e5f57613e5e614724565b5b613e6b85828601613bb0565b9150509250929050565b600080600060408486031215613e8e57613e8d614729565b5b6000613e9c86828701613c34565b935050602084013567ffffffffffffffff811115613ebd57613ebc614724565b5b613ec986828701613bde565b92509250509250925092565b60008060408385031215613eec57613eeb614729565b5b6000613efa85828601613c34565b9250506020613f0b85828601613c34565b9150509250929050565b600080600060608486031215613f2e57613f2d614729565b5b6000613f3c86828701613c34565b9350506020613f4d86828701613c34565b9250506040613f5e86828701613c34565b9150509250925092565b6000613f74838361411b565b60208301905092915050565b613f898161450f565b82525050565b6000613f9a82614440565b613fa48185614463565b9350613faf83614430565b8060005b83811015613fe0578151613fc78882613f68565b9750613fd283614456565b925050600181019050613fb3565b5085935050505092915050565b6000613ff88261444b565b6140028185614474565b935061401281856020860161454b565b61401b8161472e565b840191505092915050565b6000614033606083614474565b915061403e8261473f565b606082019050919050565b6000614056601583614474565b9150614061826147b4565b602082019050919050565b6000614079601083614474565b9150614084826147dd565b602082019050919050565b600061409c602283614474565b91506140a782614806565b604082019050919050565b60006140bf601583614474565b91506140ca82614855565b602082019050919050565b60006140e2602f83614474565b91506140ed8261487e565b604082019050919050565b6000614105606183614474565b9150614110826148cd565b608082019050919050565b61412481614541565b82525050565b61413381614541565b82525050565b600060208201905081810360008301526141538184613f8f565b905092915050565b600060208201905081810360008301526141758184613fed565b905092915050565b6000602082019050818103600083015261419681614026565b9050919050565b600060208201905081810360008301526141b681614049565b9050919050565b600060208201905081810360008301526141d68161406c565b9050919050565b600060208201905081810360008301526141f68161408f565b9050919050565b60006020820190508181036000830152614216816140b2565b9050919050565b60006020820190508181036000830152614236816140d5565b9050919050565b60006020820190508181036000830152614256816140f8565b9050919050565b6000602082019050614272600083018461412a565b92915050565b600060608201905061428d600083018661412a565b818103602083015261429f8185613fed565b90506142ae6040830184613f80565b949350505050565b60006080820190506142cb600083018761412a565b81810360208301526142dd8186613fed565b90506142ec6040830185613f80565b6142f9606083018461412a565b95945050505050565b600060c082019050614317600083018961412a565b81810360208301526143298188613fed565b90506143386040830187613f80565b614345606083018661412a565b614352608083018561412a565b61435f60a083018461412a565b979650505050505050565b600060608201905061437f600083018661412a565b81810360208301526143918185613fed565b90506143a0604083018461412a565b949350505050565b60006060820190506143bd600083018661412a565b6143ca602083018561412a565b6143d7604083018461412a565b949350505050565b60006143e96143fa565b90506143f582826145b0565b919050565b6000604051905090565b600067ffffffffffffffff82111561441f5761441e6146e6565b5b602082029050602081019050919050565b6000819050602082019050919050565b600081519050919050565b600081519050919050565b6000602082019050919050565b600082825260208201905092915050565b600082825260208201905092915050565b600061449082614541565b915061449b83614541565b9250827fffffffffffffffffffffffffffffffffffffffffffffffffffffffffffffffff038211156144d0576144cf61462a565b5b828201905092915050565b60006144e682614541565b91506144f183614541565b9250828210156145045761450361462a565b5b828203905092915050565b600061451a82614521565b9050919050565b600073ffffffffffffffffffffffffffffffffffffffff82169050919050565b6000819050919050565b60005b8381101561456957808201518184015260208101905061454e565b83811115614578576000848401525b50505050565b6000600282049050600182168061459657607f821691505b602082108114156145aa576145a9614659565b5b50919050565b6145b98261472e565b810181811067ffffffffffffffff821117156145d8576145d76146e6565b5b80604052505050565b60006145ec82614541565b91507fffffffffffffffffffffffffffffffffffffffffffffffffffffffffffffffff82141561461f5761461e61462a565b5b600182019050919050565b7f4e487b7100000000000000000000000000000000000000000000000000000000600052601160045260246000fd5b7f4e487b7100000000000000000000000000000000000000000000000000000000600052602260045260246000fd5b7f4e487b7100000000000000000000000000000000000000000000000000000000600052603160045260246000fd5b7f4e487b7100000000000000000000000000000000000000000000000000000000600052603260045260246000fd5b7f4e487b7100000000000000000000000000000000000000000000000000000000600052604160045260246000fd5b600080fd5b600080fd5b600080fd5b600080fd5b600080fd5b6000601f19601f8301169050919050565b7f5768656e2073657474696e672074686520707265666572656e6365206c65766560008201527f6c206f6620636f75727365732c206974206973206e656365737361727920746f60208201527f206861766520616e20657175616c206e756d626572206f6620636f7572736573604082015250565b7fe8afa5e78fade7baa7e5b7b2e7bb8fe68993e588860000000000000000000000600082015250565b7f436f75727365206e6f7420666f756e6400000000000000000000000000000000600082015250565b7f6d7573742075706461746520616c6c20636f7572736520737569746162696c6960008201527f7479000000000000000000000000000000000000000000000000000000000000602082015250565b7fe8afa5e79da3e5afbce5b7b2e7bb8fe8af84e588860000000000000000000000600082015250565b7f4f6e6c7920726567697374657265642074656163686572732063616e2063616c60008201527f6c20746869732066756e6374696f6e0000000000000000000000000000000000602082015250565b7f5768656e2073657474696e672074686520737569746162696c697479206c657660008201527f656c206f6620636f75727365732c206974206973206e6563657373617279207460208201527f6f206861766520616e20657175616c206e756d626572206f6620636f7572736560408201527f7300000000000000000000000000000000000000000000000000000000000000606082015250565b6149718161450f565b811461497c57600080fd5b50565b61498881614541565b811461499357600080fd5b5056fea2646970667358221220a837815622817c5ee7b2e466334653beef2dcaecfcb543e4c09fdc449eb240e064736f6c63430008070033",
  "immutableReferences": {},
  "source": "// SPDX-License-Identifier: MIT\r\npragma solidity ^0.8.7;\r\n\r\ncontract ICourseAllocation {\r\n    // \r\n    struct Teacher {\r\n        uint256 id;\r\n        string name;\r\n        address addr;\r\n        uint256[] assignedCourses;\r\n        uint256[] reallyAssignedCourses;\r\n        uint256 suitabilityWeight;\r\n        uint256 transferCourseCoins;\r\n        uint256 value;\r\n        mapping(uint256 => uint256) courseSuitabilities;\r\n        mapping(uint256 => uint256) coursePreferences;\r\n    }\r\n\r\n    // \r\n    struct Agent {\r\n        uint256 id;\r\n        string name;\r\n        address addr;\r\n        uint256 value;\r\n        uint256[] assignedCourses;\r\n        mapping(uint256 => uint256) courseSuitabilities;\r\n    }\r\n\r\n    // \r\n    struct Supervisor {\r\n        uint256 id;\r\n        string name;\r\n        address addr;\r\n        mapping(uint256 => uint256) courseScores;\r\n    }\r\n\r\n    // \r\n    struct Course {\r\n        uint256 id;\r\n        string name;\r\n        uint256 importance;\r\n        uint256[] assignedTeacherId;\r\n        uint256[] assignedAgentId;\r\n    }\r\n\r\n    struct CourseScore {\r\n        uint256 id; // id\r\n        uint256 totalScore;\r\n        uint256[] classScores;\r\n        mapping(uint256 => uint256) giveScoreClassIdExists;\r\n        uint256 selfScore;\r\n        uint256[] supervisorScores;\r\n        mapping(uint256 => uint256) giveScoreSupervisorIdExists;\r\n    }\r\n    // \r\n    string public ScoreTypeChioce;\r\n\r\n    // \r\n    uint256 public totalWeight;\r\n\r\n    //  => ID\r\n    mapping(address => uint256) public addressToTeacherId;\r\n\r\n    //  => ID\r\n    mapping(address => uint256) public addressToAgentId;\r\n\r\n    //  => ID\r\n    mapping(address => uint256) public addressToClassId;\r\n\r\n    //  => ID\r\n    mapping(address => uint256) public addressToSupervisorId;\r\n\r\n    // ID => \r\n    mapping(uint256 => Teacher) public teachers;\r\n\r\n    // ID => \r\n    mapping(uint256 => Agent) public agents;\r\n\r\n    // ID => \r\n    mapping(uint256 => Supervisor) public supervisors;\r\n\r\n    // ID => \r\n    mapping(uint256 => Course) public courses;\r\n\r\n    // ID => \r\n    mapping(uint256 => CourseScore) public courseScores;\r\n\r\n    // ID\r\n    uint256 public teacherCount;\r\n\r\n    // ID\r\n    uint256 public agentCount;\r\n\r\n    // ID\r\n    uint256 public classCount;\r\n\r\n    // ID\r\n    uint256 public courseCount;\r\n\r\n    // ID\r\n    uint256 public supervisorCount;\r\n\r\n    // ID\r\n    uint256[] public teacherIds;\r\n\r\n    // ID\r\n    uint256[] public agentIds;\r\n\r\n    // ID\r\n    uint256[] public courseIds;\r\n\r\n    // ID\r\n    uint256[] public classIds;\r\n\r\n    // ID\r\n    uint256[] public supervisorIds;\r\n\r\n    // \r\n    uint256 public transferCourseNumbers;\r\n\r\n    // \r\n    uint256 public transferCourseStartTime;\r\n\r\n    // \r\n    uint256 public transferCourseEndTime;\r\n\r\n    // \r\n    // event CourseImportanceSet(uint256 indexed courseId, uint256 importance);\r\n    // event SuitabilityUpdated(uint256 indexed courseId, uint256 suitability);\r\n    // event PreferenceUpdated(uint256 indexed teacherId, uint256 indexed courseId, uint256 preference);\r\n    // event ProposalCreated(uint256 proposalId, uint256 indexed courseId, uint256[] teacherIds); // \r\n    // event MachineProposal(uint256 proposalId, uint256 indexed courseId, uint256[] teacherIds, uint256[] teacherCounts); // \r\n    // event CourseAssignedToTeacher(uint256 indexed courseId, uint256 indexed teacherId); // \r\n\r\n    // \r\n    constructor() {}\r\n\r\n    // \r\n    modifier onlyTeacher() {\r\n        require(\r\n            addressToTeacherId[msg.sender] != 0,\r\n            \"Only registered teachers can call this function\"\r\n        );\r\n        _;\r\n    }\r\n\r\n    // ID\r\n    function setTeacherId(address teacherAddress, uint256 _TeacherId) public {\r\n        addressToTeacherId[teacherAddress] = _TeacherId;\r\n        teachers[_TeacherId].id = _TeacherId;\r\n        teacherIds.push(_TeacherId);\r\n    }\r\n\r\n    // \r\n    function removeTeacher(uint256 teacherId) public onlyTeacher {\r\n        teachers[teacherId].id = 0;\r\n        //  teacherIds  ID\r\n        for (uint256 i = 0; i < teacherIds.length; i++) {\r\n            if (teacherIds[i] == teacherId) {\r\n                //  ID \r\n                teacherIds[i] = teacherIds[teacherIds.length - 1];\r\n                // \r\n                teacherIds.pop();\r\n                break;\r\n            }\r\n        }\r\n    }\r\n\r\n    // \r\n    function setTeacherName(\r\n        uint256 teacherId,\r\n        string calldata _name\r\n    ) public onlyTeacher {\r\n        teachers[teacherId].name = _name;\r\n    }\r\n\r\n    // \r\n    function setTeacherAddress(\r\n        uint256 teacherId,\r\n        address _teacherAddress\r\n    ) public onlyTeacher {\r\n        teachers[teacherId].addr = _teacherAddress;\r\n    }\r\n\r\n    // \r\n    function addTeacherAssignedCourses(\r\n        uint256 teacherId,\r\n        uint256 _assignedCourses\r\n    ) public {\r\n        teachers[teacherId].assignedCourses.push(_assignedCourses);\r\n    }\r\n\r\n    // \r\n    function addTeacherReallyAssignedCourses(\r\n        uint256 teacherId,\r\n        uint256 _assignedCourses\r\n    ) public {\r\n        teachers[teacherId].reallyAssignedCourses.push(_assignedCourses);\r\n    }\r\n\r\n    // \r\n    function removeTeacherAssignedCourses(\r\n        uint256 teacherId,\r\n        uint256 _assignedCourses\r\n    ) public {\r\n        bool found = false;\r\n        uint256 indexToRemove;\r\n\r\n        //  ID \r\n        for (\r\n            uint256 i = 0;\r\n            i < teachers[teacherId].assignedCourses.length;\r\n            i++\r\n        ) {\r\n            if (teachers[teacherId].assignedCourses[i] == _assignedCourses) {\r\n                found = true;\r\n                indexToRemove = i;\r\n                break;\r\n            }\r\n        }\r\n\r\n        //  ID\r\n        if (found) {\r\n            // \r\n            teachers[teacherId].assignedCourses[indexToRemove] = teachers[\r\n                teacherId\r\n            ].assignedCourses[teachers[teacherId].assignedCourses.length - 1];\r\n            // \r\n            teachers[teacherId].assignedCourses.pop();\r\n        } else {\r\n            //  ID\r\n            revert(\"Course not found\");\r\n        }\r\n    }\r\n\r\n    // \r\n    function removeTeacherReallyAssignedCourses(\r\n        uint256 teacherId,\r\n        uint256 _assignedCourses\r\n    ) public {\r\n        bool found = false;\r\n        uint256 indexToRemove;\r\n\r\n        //  ID \r\n        for (\r\n            uint256 i = 0;\r\n            i < teachers[teacherId].reallyAssignedCourses.length;\r\n            i++\r\n        ) {\r\n            if (\r\n                teachers[teacherId].reallyAssignedCourses[i] == _assignedCourses\r\n            ) {\r\n                found = true;\r\n                indexToRemove = i;\r\n                break;\r\n            }\r\n        }\r\n\r\n        //  ID\r\n        if (found) {\r\n            // \r\n            teachers[teacherId].reallyAssignedCourses[indexToRemove] = teachers[\r\n                teacherId\r\n            ].reallyAssignedCourses[\r\n                    teachers[teacherId].reallyAssignedCourses.length - 1\r\n                ];\r\n            // \r\n            teachers[teacherId].reallyAssignedCourses.pop();\r\n        } else {\r\n            //  ID\r\n            revert(\"Course not found\");\r\n        }\r\n    }\r\n\r\n    // \r\n    function setTeacherSuitabilityWeight(\r\n        uint256 teacherId,\r\n        uint256 _suitabilityWeight\r\n    ) public onlyTeacher {\r\n        totalWeight -= teachers[teacherId].suitabilityWeight;\r\n        teachers[teacherId].suitabilityWeight = _suitabilityWeight;\r\n        totalWeight += teachers[teacherId].suitabilityWeight;\r\n    }\r\n\r\n    // \r\n    function setTeacherTransferCourseCoins(\r\n        uint256 teacherId,\r\n        uint256 _transferCourseCoins\r\n    ) public onlyTeacher {\r\n        teachers[teacherId].transferCourseCoins = _transferCourseCoins;\r\n    }\r\n\r\n    // \r\n    function setTeacherValue(\r\n        uint256 teacherId,\r\n        uint256 _value\r\n    ) public onlyTeacher {\r\n        teachers[teacherId].value = _value;\r\n    }\r\n\r\n    // \r\n    function setAgentValue(uint256 agentId, uint256 _value) public {\r\n        agents[agentId].value = _value;\r\n    }\r\n\r\n    // \r\n    function setAllTeacherCourseSuitability(\r\n        uint256 teacherId,\r\n        uint256[] calldata _suitabilities\r\n    ) public onlyTeacher {\r\n        require(\r\n            _suitabilities.length == courseIds.length,\r\n            \"When setting the suitability level of courses, it is necessary to have an equal number of courses\"\r\n        );\r\n        for (\r\n            uint256 courseIndex = 0;\r\n            courseIndex < courseIds.length;\r\n            courseIndex++\r\n        ) {\r\n            teachers[teacherId].courseSuitabilities[\r\n                courseIds[courseIndex]\r\n            ] = _suitabilities[courseIndex];\r\n        }\r\n    }\r\n\r\n    // \r\n    function setTeacherCourseSuitability(\r\n        uint256 teacherId,\r\n        uint256 courseId,\r\n        uint256 _suitability\r\n    ) public {\r\n        teachers[teacherId].courseSuitabilities[courseId] = _suitability;\r\n    }\r\n\r\n    // \r\n    function setAllTeacherCoursePreferences(\r\n        uint256 teacherId,\r\n        uint256[] calldata _preferences\r\n    ) public onlyTeacher {\r\n        require(\r\n            _preferences.length == courseIds.length,\r\n            \"When setting the preference level of courses, it is necessary to have an equal number of courses\"\r\n        );\r\n        for (\r\n            uint256 courseIndex = 0;\r\n            courseIndex < courseIds.length;\r\n            courseIndex++\r\n        ) {\r\n            teachers[teacherId].coursePreferences[\r\n                courseIds[courseIndex]\r\n            ] = _preferences[courseIndex];\r\n        }\r\n    }\r\n\r\n    // \r\n    function setTeacherCoursePreferences(\r\n        uint256 teacherId,\r\n        uint256 courseId,\r\n        uint256 _preference\r\n    ) public onlyTeacher {\r\n        teachers[teacherId].coursePreferences[courseId] = _preference;\r\n    }\r\n\r\n    // ID\r\n    function setAgentId(address agentAddress, uint256 _agentId) public {\r\n        addressToAgentId[agentAddress] = _agentId;\r\n        agents[_agentId].id = _agentId;\r\n        agentIds.push(_agentId);\r\n    }\r\n\r\n    // \r\n    function removeAgent(uint256 agentId) public {\r\n        agents[agentId].id = 0;\r\n        //  agentIds  ID\r\n        for (uint256 i = 0; i < agentIds.length; i++) {\r\n            if (agentIds[i] == agentId) {\r\n                //  ID \r\n                agentIds[i] = agentIds[agentIds.length - 1];\r\n                // \r\n                agentIds.pop();\r\n                break;\r\n            }\r\n        }\r\n    }\r\n\r\n    // \r\n    function setAgentName(uint256 agentId, string calldata _name) public {\r\n        agents[agentId].name = _name;\r\n    }\r\n\r\n    // \r\n    function setAgentAddress(uint256 agentId, address _agentAddress) public {\r\n        agents[agentId].addr = _agentAddress;\r\n    }\r\n\r\n    // \r\n    function addAgentAssignedCourses(\r\n        uint256 agentId,\r\n        uint256 _assignedCourses\r\n    ) public {\r\n        agents[agentId].assignedCourses.push(_assignedCourses);\r\n    }\r\n\r\n    // \r\n    function removeAgentAssignedCourses(\r\n        uint256 agentId,\r\n        uint256 _assignedCourses\r\n    ) public {\r\n        bool found = false;\r\n        uint256 indexToRemove;\r\n\r\n        //  ID \r\n        for (uint256 i = 0; i < agents[agentId].assignedCourses.length; i++) {\r\n            if (agents[agentId].assignedCourses[i] == _assignedCourses) {\r\n                found = true;\r\n                indexToRemove = i;\r\n                break;\r\n            }\r\n        }\r\n\r\n        //  ID\r\n        if (found) {\r\n            // \r\n            agents[agentId].assignedCourses[indexToRemove] = agents[agentId]\r\n                .assignedCourses[agents[agentId].assignedCourses.length - 1];\r\n            // \r\n            agents[agentId].assignedCourses.pop();\r\n        } else {\r\n            //  ID\r\n            revert(\"Course not found\");\r\n        }\r\n    }\r\n\r\n    // \r\n    function setAgentCourseSuitability(\r\n        uint256 agentId,\r\n        uint256 _courseId,\r\n        uint256 _suitability\r\n    ) public {\r\n        agents[agentId].courseSuitabilities[_courseId] = _suitability;\r\n    }\r\n\r\n    // \r\n    function setAllAgentCourseSuitability(\r\n        uint256 agentId,\r\n        uint256[] calldata _suitabilities\r\n    ) public {\r\n        require(\r\n            _suitabilities.length == courseIds.length,\r\n            \"When setting the suitability level of courses, it is necessary to have an equal number of courses\"\r\n        );\r\n        for (\r\n            uint256 courseIndex = 0;\r\n            courseIndex < courseIds.length;\r\n            courseIndex++\r\n        ) {\r\n            agents[agentId].courseSuitabilities[\r\n                courseIds[courseIndex]\r\n            ] = _suitabilities[courseIndex];\r\n        }\r\n    }\r\n\r\n    // ID\r\n    function setClassId(address classAddress, uint256 _id) public {\r\n        addressToClassId[classAddress] = _id;\r\n        classIds.push(_id);\r\n    }\r\n\r\n    // \r\n    function removeClass(uint256 classId) public {\r\n        //  classIds  ID\r\n        for (uint256 i = 0; i < classIds.length; i++) {\r\n            if (classIds[i] == classId) {\r\n                //  ID \r\n                classIds[i] = classIds[classIds.length - 1];\r\n                // \r\n                classIds.pop();\r\n                break;\r\n            }\r\n        }\r\n    }\r\n\r\n    // ID\r\n    function setCourseId(uint256 courseId) public {\r\n        courses[courseId].id = courseId;\r\n        courseIds.push(courseId);\r\n    }\r\n\r\n    // \r\n    function removeCourse(uint256 courseId) public {\r\n        //  classIds  ID\r\n        for (uint256 i = 0; i < courseIds.length; i++) {\r\n            if (courseIds[i] == courseId) {\r\n                //  ID \r\n                courseIds[i] = courseIds[courseIds.length - 1];\r\n                // \r\n                courseIds.pop();\r\n                break;\r\n            }\r\n        }\r\n    }\r\n\r\n    // \r\n    function setCourseName(uint256 courseId, string calldata _name) public {\r\n        courses[courseId].name = _name;\r\n    }\r\n\r\n    // \r\n    function setCourseImportance(uint256 courseId, uint256 _importance) public {\r\n        courses[courseId].importance = _importance;\r\n    }\r\n\r\n    // \r\n    function setAllCourseImportance(uint256[] memory _importances) public {\r\n        require(\r\n            _importances.length == courseIds.length,\r\n            \"must update all course suitability\"\r\n        );\r\n        // \r\n        for (\r\n            uint256 courseIndex = 0;\r\n            courseIndex < courseIds.length;\r\n            courseIndex++\r\n        ) {\r\n            courses[courseIds[courseIndex]].importance = _importances[\r\n                courseIndex\r\n            ];\r\n        }\r\n    }\r\n\r\n    // ID\r\n    function addCourseAssignedTeacherId(\r\n        uint256 courseId,\r\n        uint256 _teacherId\r\n    ) public {\r\n        courses[courseId].assignedTeacherId.push(_teacherId);\r\n    }\r\n\r\n    // ID\r\n    function addCourseAssignedAgentId(\r\n        uint256 courseId,\r\n        uint256 _agentId\r\n    ) public {\r\n        courses[courseId].assignedAgentId.push(_agentId);\r\n    }\r\n\r\n    // \r\n    function removeCourseAssignedTeacherId(\r\n        uint256 courseId,\r\n        uint256 _teacherId\r\n    ) public {\r\n        bool found = false;\r\n        uint256 indexToRemove;\r\n\r\n        //  ID \r\n        for (\r\n            uint256 i = 0;\r\n            i < courses[courseId].assignedTeacherId.length;\r\n            i++\r\n        ) {\r\n            if (courses[courseId].assignedTeacherId[i] == _teacherId) {\r\n                found = true;\r\n                indexToRemove = i;\r\n                break;\r\n            }\r\n        }\r\n\r\n        //  ID\r\n        if (found) {\r\n            // \r\n            courses[courseId].assignedTeacherId[indexToRemove] = courses[\r\n                courseId\r\n            ].assignedTeacherId[courses[courseId].assignedTeacherId.length - 1];\r\n            // \r\n            courses[courseId].assignedTeacherId.pop();\r\n        } else {\r\n            //  ID\r\n            revert(\"Course not found\");\r\n        }\r\n    }\r\n\r\n    // \r\n    function removeCourseAssignedAgentId(\r\n        uint256 courseId,\r\n        uint256 _agentId\r\n    ) public {\r\n        bool found = false;\r\n        uint256 indexToRemove;\r\n\r\n        //  ID \r\n        for (uint256 i = 0; i < courses[courseId].assignedAgentId.length; i++) {\r\n            if (courses[courseId].assignedAgentId[i] == _agentId) {\r\n                found = true;\r\n                indexToRemove = i;\r\n                break;\r\n            }\r\n        }\r\n\r\n        //  ID\r\n        if (found) {\r\n            // \r\n            courses[courseId].assignedAgentId[indexToRemove] = courses[courseId]\r\n                .assignedAgentId[courses[courseId].assignedAgentId.length - 1];\r\n            // \r\n            courses[courseId].assignedAgentId.pop();\r\n        } else {\r\n            //  ID\r\n            revert(\"Course not found\");\r\n        }\r\n    }\r\n\r\n    // // \r\n    // function setCourseIsAgentSuitable(\r\n    //     uint256 courseId,\r\n    //     bool _isAgentSuitable\r\n    // ) public {\r\n    //     courses[courseId].isAgentSuitable = _isAgentSuitable;\r\n    // }\r\n\r\n    // \r\n    function setTeacherCount(uint256 _teacherCount) public {\r\n        teacherCount = _teacherCount;\r\n    }\r\n\r\n    // \r\n    function setAgentCount(uint256 _agentCount) public {\r\n        agentCount = _agentCount;\r\n    }\r\n\r\n    // \r\n    function setClassCount(uint256 _classCount) public {\r\n        classCount = _classCount;\r\n    }\r\n\r\n    // \r\n    function setCourseCount(uint256 _courseCount) public {\r\n        courseCount = _courseCount;\r\n    }\r\n\r\n    // \r\n    function getTeacherSuitability(\r\n        uint256 _teacherId,\r\n        uint256 courseId\r\n    ) public view returns (uint256) {\r\n        return teachers[_teacherId].courseSuitabilities[courseId];\r\n    }\r\n\r\n    // \r\n    function getAgentSuitability(\r\n        uint256 _agentId,\r\n        uint256 courseId\r\n    ) public view returns (uint256) {\r\n        return agents[_agentId].courseSuitabilities[courseId];\r\n    }\r\n\r\n    // \r\n    function getPreference(\r\n        uint256 _teacherId,\r\n        uint256 courseId\r\n    ) public view returns (uint256) {\r\n        return teachers[_teacherId].coursePreferences[courseId];\r\n    }\r\n\r\n    // \r\n    function getTeacherAssignedCourses(\r\n        uint256 _teacherId\r\n    ) public view returns (uint256[] memory) {\r\n        return teachers[_teacherId].assignedCourses;\r\n    }\r\n\r\n    // \r\n    function getTeacherReallyAssignedCourses(\r\n        uint256 _teacherId\r\n    ) public view returns (uint256[] memory) {\r\n        return teachers[_teacherId].reallyAssignedCourses;\r\n    }\r\n\r\n    // \r\n    function getAgentAssignedCourses(\r\n        uint256 _agentId\r\n    ) public view returns (uint256[] memory) {\r\n        return agents[_agentId].assignedCourses;\r\n    }\r\n\r\n    // \r\n    function getCoursesAssignedTeacher(\r\n        uint256 _courseId\r\n    ) public view returns (uint256[] memory) {\r\n        return courses[_courseId].assignedTeacherId;\r\n    }\r\n\r\n    // \r\n    function getCoursesAssignedAgent(\r\n        uint256 _courseId\r\n    ) public view returns (uint256[] memory) {\r\n        return courses[_courseId].assignedAgentId;\r\n    }\r\n\r\n    // \r\n    function getCourseImportance(uint courseId) external view returns (uint) {\r\n        return courses[courseId].importance;\r\n    }\r\n\r\n    // // \r\n    // function getCourseIsAgentSuitable(\r\n    //     uint courseId\r\n    // ) external view returns (bool) {\r\n    //     return courses[courseId].isAgentSuitable;\r\n    // }\r\n\r\n    function getTeacherIds() public view returns (uint256[] memory) {\r\n        return teacherIds;\r\n    }\r\n\r\n    function getAgentIds() public view returns (uint256[] memory) {\r\n        return agentIds;\r\n    }\r\n\r\n    function getCourseIds() public view returns (uint256[] memory) {\r\n        return courseIds;\r\n    }\r\n\r\n    function getClassIds() public view returns (uint256[] memory) {\r\n        return classIds;\r\n    }\r\n\r\n    function addCourseClassScores(\r\n        uint256 courseId,\r\n        uint256 classId,\r\n        uint256 score\r\n    ) public {\r\n        require(\r\n            courseScores[courseId].giveScoreClassIdExists[classId] == 0,\r\n            unicode\"\"\r\n        );\r\n        courseScores[courseId].giveScoreClassIdExists[classId] = score;\r\n        courseScores[courseId].classScores.push(score);\r\n    }\r\n\r\n    function getGiveScoreClassIdExists(\r\n        uint256 courseId,\r\n        uint256 classId\r\n    ) public view returns (uint256) {\r\n        return courseScores[courseId].giveScoreClassIdExists[classId];\r\n    }\r\n\r\n    // \r\n    function removeCourseClassScores(\r\n        uint256 courseId,\r\n        uint256[] memory classIds_\r\n    ) public {\r\n        for (uint256 i = 0; i < classIds_.length; i++) {\r\n            courseScores[courseId].giveScoreClassIdExists[classIds_[i]] = 0;\r\n        }\r\n        delete courseScores[courseId].classScores;\r\n    }\r\n\r\n    function getCourseClassScores(\r\n        uint256 courseId\r\n    ) public view returns (uint256[] memory) {\r\n        return courseScores[courseId].classScores;\r\n    }\r\n\r\n    function setCourseSelfScore(uint256 courseId, uint256 score) public {\r\n        courseScores[courseId].selfScore = score;\r\n    }\r\n\r\n    function setCourseTotalScore(uint256 courseId, uint256 score) public {\r\n        courseScores[courseId].totalScore = score;\r\n    }\r\n\r\n    function addCourseSupervisorScores(\r\n        uint256 courseId,\r\n        uint256 supervisorId,\r\n        uint256 score\r\n    ) public {\r\n        require(\r\n            courseScores[courseId].giveScoreSupervisorIdExists[supervisorId] ==\r\n                0,\r\n            unicode\"\"\r\n        );\r\n        courseScores[courseId].giveScoreSupervisorIdExists[\r\n            supervisorId\r\n        ] = score;\r\n        courseScores[courseId].supervisorScores.push(score);\r\n    }\r\n\r\n    function getGiveScoreSupervisorIdExists(\r\n        uint256 courseId,\r\n        uint256 supervisorId\r\n    ) public view returns (uint256) {\r\n        return courseScores[courseId].giveScoreSupervisorIdExists[supervisorId];\r\n    }\r\n\r\n    function getCourseSupervisorScores(\r\n        uint256 courseId\r\n    ) public view returns (uint256[] memory) {\r\n        return courseScores[courseId].supervisorScores;\r\n    }\r\n\r\n    function addSupervisorId(uint256 supervisorId) public {\r\n        supervisorIds.push(supervisorId);\r\n        supervisorCount++;\r\n    }\r\n\r\n    function getSupervisorIds() public view returns (uint256[] memory) {\r\n        return supervisorIds;\r\n    }\r\n\r\n    function setSupervisorId(address supervisor, uint256 supervisorId) public {\r\n        addressToSupervisorId[supervisor] = supervisorId;\r\n        supervisors[supervisorId].id = supervisorId;\r\n        supervisors[supervisorId].addr = supervisor;\r\n    }\r\n\r\n    function setSupervisorName(\r\n        uint256 supervisorId,\r\n        string calldata _name\r\n    ) public {\r\n        supervisors[supervisorId].name = _name;\r\n    }\r\n\r\n    function setSupervisorsCourseScore(\r\n        uint256 supervisorId,\r\n        uint256 courseId,\r\n        uint256 score\r\n    ) public {\r\n        supervisors[supervisorId].courseScores[courseId] = score;\r\n    }\r\n\r\n    function settransferCourseNumbers(uint256 _transferCourseNumbers) public {\r\n        transferCourseNumbers = _transferCourseNumbers;\r\n    }\r\n\r\n    function settransferCourseStartTime(\r\n        uint256 _transferCourseStartTime\r\n    ) public {\r\n        transferCourseStartTime = _transferCourseStartTime;\r\n    }\r\n\r\n    function settransferCourseEndTime(uint256 _transferCourseEndTime) public {\r\n        transferCourseEndTime = _transferCourseEndTime;\r\n    }\r\n\r\n    function setScoreType(string calldata option) public {\r\n        ScoreTypeChioce = option;\r\n    }\r\n}\r\n",
  "sourcePath": "E:\\dao\\327\\Course-allocation\\project\\contracts\\ICourseAllocation.sol",
  "compiler": {
    "name": "solc",
    "version": "0.8.7+commit.e28d00a7.Emscripten.clang"
  },
  "schemaVersion": "3.4.16",
  "updatedAt": "2025-04-10T08:26:16.620Z",
  "networkType": "ethereum",
  "devdoc": {
    "kind": "dev",
    "methods": {},
    "version": 1
  },
  "userdoc": {
    "kind": "user",
    "methods": {},
    "version": 1
  }
}