{
  "contractName": "ICourseAllocation",
  "abi": [
    {
      "inputs": [],
      "stateMutability": "nonpayable",
      "type": "constructor"
    },
    {
      "inputs": [
        {
          "internalType": "address",
          "name": "",
          "type": "address"
        }
      ],
      "name": "addressToAgentId",
      "outputs": [
        {
          "internalType": "uint256",
          "name": "",
          "type": "uint256"
        }
      ],
      "stateMutability": "view",
      "type": "function",
      "constant": true
    },
    {
      "inputs": [
        {
          "internalType": "address",
          "name": "",
          "type": "address"
        }
      ],
      "name": "addressToClassId",
      "outputs": [
        {
          "internalType": "uint256",
          "name": "",
          "type": "uint256"
        }
      ],
      "stateMutability": "view",
      "type": "function",
      "constant": true
    },
    {
      "inputs": [
        {
          "internalType": "address",
          "name": "",
          "type": "address"
        }
      ],
      "name": "addressToSupervisorId",
      "outputs": [
        {
          "internalType": "uint256",
          "name": "",
          "type": "uint256"
        }
      ],
      "stateMutability": "view",
      "type": "function",
      "constant": true
    },
    {
      "inputs": [
        {
          "internalType": "address",
          "name": "",
          "type": "address"
        }
      ],
      "name": "addressToTeacherId",
      "outputs": [
        {
          "internalType": "uint256",
          "name": "",
          "type": "uint256"
        }
      ],
      "stateMutability": "view",
      "type": "function",
      "constant": true
    },
    {
      "inputs": [],
      "name": "agentCount",
      "outputs": [
        {
          "internalType": "uint256",
          "name": "",
          "type": "uint256"
        }
      ],
      "stateMutability": "view",
      "type": "function",
      "constant": true
    },
    {
      "inputs": [
        {
          "internalType": "uint256",
          "name": "",
          "type": "uint256"
        }
      ],
      "name": "agentIds",
      "outputs": [
        {
          "internalType": "uint256",
          "name": "",
          "type": "uint256"
        }
      ],
      "stateMutability": "view",
      "type": "function",
      "constant": true
    },
    {
      "inputs": [
        {
          "internalType": "uint256",
          "name": "",
          "type": "uint256"
        }
      ],
      "name": "agents",
      "outputs": [
        {
          "internalType": "uint256",
          "name": "id",
          "type": "uint256"
        },
        {
          "internalType": "string",
          "name": "name",
          "type": "string"
        },
        {
          "internalType": "address",
          "name": "addr",
          "type": "address"
        },
        {
          "internalType": "uint256",
          "name": "value",
          "type": "uint256"
        }
      ],
      "stateMutability": "view",
      "type": "function",
      "constant": true
    },
    {
      "inputs": [],
      "name": "classCount",
      "outputs": [
        {
          "internalType": "uint256",
          "name": "",
          "type": "uint256"
        }
      ],
      "stateMutability": "view",
      "type": "function",
      "constant": true
    },
    {
      "inputs": [
        {
          "internalType": "uint256",
          "name": "",
          "type": "uint256"
        }
      ],
      "name": "classIds",
      "outputs": [
        {
          "internalType": "uint256",
          "name": "",
          "type": "uint256"
        }
      ],
      "stateMutability": "view",
      "type": "function",
      "constant": true
    },
    {
      "inputs": [],
      "name": "courseCount",
      "outputs": [
        {
          "internalType": "uint256",
          "name": "",
          "type": "uint256"
        }
      ],
      "stateMutability": "view",
      "type": "function",
      "constant": true
    },
    {
      "inputs": [
        {
          "internalType": "uint256",
          "name": "",
          "type": "uint256"
        }
      ],
      "name": "courseIds",
      "outputs": [
        {
          "internalType": "uint256",
          "name": "",
          "type": "uint256"
        }
      ],
      "stateMutability": "view",
      "type": "function",
      "constant": true
    },
    {
      "inputs": [
        {
          "internalType": "uint256",
          "name": "",
          "type": "uint256"
        }
      ],
      "name": "courseScores",
      "outputs": [
        {
          "internalType": "uint256",
          "name": "id",
          "type": "uint256"
        },
        {
          "internalType": "uint256",
          "name": "totalScore",
          "type": "uint256"
        },
        {
          "internalType": "uint256",
          "name": "selfScore",
          "type": "uint256"
        }
      ],
      "stateMutability": "view",
      "type": "function",
      "constant": true
    },
    {
      "inputs": [
        {
          "internalType": "uint256",
          "name": "",
          "type": "uint256"
        }
      ],
      "name": "courses",
      "outputs": [
        {
          "internalType": "uint256",
          "name": "id",
          "type": "uint256"
        },
        {
          "internalType": "string",
          "name": "name",
          "type": "string"
        },
        {
          "internalType": "uint256",
          "name": "importance",
          "type": "uint256"
        },
        {
          "internalType": "bool",
          "name": "isAgentSuitable",
          "type": "bool"
        }
      ],
      "stateMutability": "view",
      "type": "function",
      "constant": true
    },
    {
      "inputs": [],
      "name": "supervisorCount",
      "outputs": [
        {
          "internalType": "uint256",
          "name": "",
          "type": "uint256"
        }
      ],
      "stateMutability": "view",
      "type": "function",
      "constant": true
    },
    {
      "inputs": [
        {
          "internalType": "uint256",
          "name": "",
          "type": "uint256"
        }
      ],
      "name": "supervisorIds",
      "outputs": [
        {
          "internalType": "uint256",
          "name": "",
          "type": "uint256"
        }
      ],
      "stateMutability": "view",
      "type": "function",
      "constant": true
    },
    {
      "inputs": [
        {
          "internalType": "uint256",
          "name": "",
          "type": "uint256"
        }
      ],
      "name": "supervisors",
      "outputs": [
        {
          "internalType": "uint256",
          "name": "id",
          "type": "uint256"
        },
        {
          "internalType": "string",
          "name": "name",
          "type": "string"
        },
        {
          "internalType": "address",
          "name": "addr",
          "type": "address"
        }
      ],
      "stateMutability": "view",
      "type": "function",
      "constant": true
    },
    {
      "inputs": [],
      "name": "teacherCount",
      "outputs": [
        {
          "internalType": "uint256",
          "name": "",
          "type": "uint256"
        }
      ],
      "stateMutability": "view",
      "type": "function",
      "constant": true
    },
    {
      "inputs": [
        {
          "internalType": "uint256",
          "name": "",
          "type": "uint256"
        }
      ],
      "name": "teacherIds",
      "outputs": [
        {
          "internalType": "uint256",
          "name": "",
          "type": "uint256"
        }
      ],
      "stateMutability": "view",
      "type": "function",
      "constant": true
    },
    {
      "inputs": [
        {
          "internalType": "uint256",
          "name": "",
          "type": "uint256"
        }
      ],
      "name": "teachers",
      "outputs": [
        {
          "internalType": "uint256",
          "name": "id",
          "type": "uint256"
        },
        {
          "internalType": "string",
          "name": "name",
          "type": "string"
        },
        {
          "internalType": "address",
          "name": "addr",
          "type": "address"
        },
        {
          "internalType": "uint256",
          "name": "suitabilityWeight",
          "type": "uint256"
        },
        {
          "internalType": "uint256",
          "name": "transferCourseCoins",
          "type": "uint256"
        },
        {
          "internalType": "uint256",
          "name": "value",
          "type": "uint256"
        }
      ],
      "stateMutability": "view",
      "type": "function",
      "constant": true
    },
    {
      "inputs": [],
      "name": "totalWeight",
      "outputs": [
        {
          "internalType": "uint256",
          "name": "",
          "type": "uint256"
        }
      ],
      "stateMutability": "view",
      "type": "function",
      "constant": true
    },
    {
      "inputs": [
        {
          "internalType": "address",
          "name": "teacherAddress",
          "type": "address"
        },
        {
          "internalType": "uint256",
          "name": "_TeacherId",
          "type": "uint256"
        }
      ],
      "name": "setTeacherId",
      "outputs": [],
      "stateMutability": "nonpayable",
      "type": "function"
    },
    {
      "inputs": [
        {
          "internalType": "uint256",
          "name": "teacherId",
          "type": "uint256"
        }
      ],
      "name": "removeTeacher",
      "outputs": [],
      "stateMutability": "nonpayable",
      "type": "function"
    },
    {
      "inputs": [
        {
          "internalType": "uint256",
          "name": "teacherId",
          "type": "uint256"
        },
        {
          "internalType": "string",
          "name": "_name",
          "type": "string"
        }
      ],
      "name": "setTeacherName",
      "outputs": [],
      "stateMutability": "nonpayable",
      "type": "function"
    },
    {
      "inputs": [
        {
          "internalType": "uint256",
          "name": "teacherId",
          "type": "uint256"
        },
        {
          "internalType": "address",
          "name": "_teacherAddress",
          "type": "address"
        }
      ],
      "name": "setTeacherAddress",
      "outputs": [],
      "stateMutability": "nonpayable",
      "type": "function"
    },
    {
      "inputs": [
        {
          "internalType": "uint256",
          "name": "teacherId",
          "type": "uint256"
        },
        {
          "internalType": "uint256",
          "name": "_assignedCourses",
          "type": "uint256"
        }
      ],
      "name": "addTeacherAssignedCourses",
      "outputs": [],
      "stateMutability": "nonpayable",
      "type": "function"
    },
    {
      "inputs": [
        {
          "internalType": "uint256",
          "name": "teacherId",
          "type": "uint256"
        },
        {
          "internalType": "uint256",
          "name": "_assignedCourses",
          "type": "uint256"
        }
      ],
      "name": "addTeacherReallyAssignedCourses",
      "outputs": [],
      "stateMutability": "nonpayable",
      "type": "function"
    },
    {
      "inputs": [
        {
          "internalType": "uint256",
          "name": "teacherId",
          "type": "uint256"
        },
        {
          "internalType": "uint256",
          "name": "_assignedCourses",
          "type": "uint256"
        }
      ],
      "name": "removeTeacherAssignedCourses",
      "outputs": [],
      "stateMutability": "nonpayable",
      "type": "function"
    },
    {
      "inputs": [
        {
          "internalType": "uint256",
          "name": "teacherId",
          "type": "uint256"
        },
        {
          "internalType": "uint256",
          "name": "_assignedCourses",
          "type": "uint256"
        }
      ],
      "name": "removeTeacherReallyAssignedCourses",
      "outputs": [],
      "stateMutability": "nonpayable",
      "type": "function"
    },
    {
      "inputs": [
        {
          "internalType": "uint256",
          "name": "teacherId",
          "type": "uint256"
        },
        {
          "internalType": "uint256",
          "name": "_suitabilityWeight",
          "type": "uint256"
        }
      ],
      "name": "setTeacherSuitabilityWeight",
      "outputs": [],
      "stateMutability": "nonpayable",
      "type": "function"
    },
    {
      "inputs": [
        {
          "internalType": "uint256",
          "name": "teacherId",
          "type": "uint256"
        },
        {
          "internalType": "uint256",
          "name": "_transferCourseCoins",
          "type": "uint256"
        }
      ],
      "name": "setTeacherTransferCourseCoins",
      "outputs": [],
      "stateMutability": "nonpayable",
      "type": "function"
    },
    {
      "inputs": [
        {
          "internalType": "uint256",
          "name": "teacherId",
          "type": "uint256"
        },
        {
          "internalType": "uint256",
          "name": "_value",
          "type": "uint256"
        }
      ],
      "name": "setTeacherValue",
      "outputs": [],
      "stateMutability": "nonpayable",
      "type": "function"
    },
    {
      "inputs": [
        {
          "internalType": "uint256",
          "name": "agentId",
          "type": "uint256"
        },
        {
          "internalType": "uint256",
          "name": "_value",
          "type": "uint256"
        }
      ],
      "name": "setAgentValue",
      "outputs": [],
      "stateMutability": "nonpayable",
      "type": "function"
    },
    {
      "inputs": [
        {
          "internalType": "uint256",
          "name": "teacherId",
          "type": "uint256"
        },
        {
          "internalType": "uint256[]",
          "name": "_suitabilities",
          "type": "uint256[]"
        }
      ],
      "name": "setAllTeacherCourseSuitability",
      "outputs": [],
      "stateMutability": "nonpayable",
      "type": "function"
    },
    {
      "inputs": [
        {
          "internalType": "uint256",
          "name": "teacherId",
          "type": "uint256"
        },
        {
          "internalType": "uint256",
          "name": "courseId",
          "type": "uint256"
        },
        {
          "internalType": "uint256",
          "name": "_suitability",
          "type": "uint256"
        }
      ],
      "name": "setTeacherCourseSuitability",
      "outputs": [],
      "stateMutability": "nonpayable",
      "type": "function"
    },
    {
      "inputs": [
        {
          "internalType": "uint256",
          "name": "teacherId",
          "type": "uint256"
        },
        {
          "internalType": "uint256[]",
          "name": "_preferences",
          "type": "uint256[]"
        }
      ],
      "name": "setAllTeacherCoursePreferences",
      "outputs": [],
      "stateMutability": "nonpayable",
      "type": "function"
    },
    {
      "inputs": [
        {
          "internalType": "uint256",
          "name": "teacherId",
          "type": "uint256"
        },
        {
          "internalType": "uint256",
          "name": "courseId",
          "type": "uint256"
        },
        {
          "internalType": "uint256",
          "name": "_preference",
          "type": "uint256"
        }
      ],
      "name": "setTeacherCoursePreferences",
      "outputs": [],
      "stateMutability": "nonpayable",
      "type": "function"
    },
    {
      "inputs": [
        {
          "internalType": "address",
          "name": "agentAddress",
          "type": "address"
        },
        {
          "internalType": "uint256",
          "name": "_agentId",
          "type": "uint256"
        }
      ],
      "name": "setAgentId",
      "outputs": [],
      "stateMutability": "nonpayable",
      "type": "function"
    },
    {
      "inputs": [
        {
          "internalType": "uint256",
          "name": "agentId",
          "type": "uint256"
        }
      ],
      "name": "removeAgent",
      "outputs": [],
      "stateMutability": "nonpayable",
      "type": "function"
    },
    {
      "inputs": [
        {
          "internalType": "uint256",
          "name": "agentId",
          "type": "uint256"
        },
        {
          "internalType": "string",
          "name": "_name",
          "type": "string"
        }
      ],
      "name": "setAgentName",
      "outputs": [],
      "stateMutability": "nonpayable",
      "type": "function"
    },
    {
      "inputs": [
        {
          "internalType": "uint256",
          "name": "agentId",
          "type": "uint256"
        },
        {
          "internalType": "address",
          "name": "_agentAddress",
          "type": "address"
        }
      ],
      "name": "setAgentAddress",
      "outputs": [],
      "stateMutability": "nonpayable",
      "type": "function"
    },
    {
      "inputs": [
        {
          "internalType": "uint256",
          "name": "agentId",
          "type": "uint256"
        },
        {
          "internalType": "uint256",
          "name": "_assignedCourses",
          "type": "uint256"
        }
      ],
      "name": "addAgentAssignedCourses",
      "outputs": [],
      "stateMutability": "nonpayable",
      "type": "function"
    },
    {
      "inputs": [
        {
          "internalType": "uint256",
          "name": "agentId",
          "type": "uint256"
        },
        {
          "internalType": "uint256",
          "name": "_assignedCourses",
          "type": "uint256"
        }
      ],
      "name": "removeAgentAssignedCourses",
      "outputs": [],
      "stateMutability": "nonpayable",
      "type": "function"
    },
    {
      "inputs": [
        {
          "internalType": "uint256",
          "name": "agentId",
          "type": "uint256"
        },
        {
          "internalType": "uint256",
          "name": "_courseId",
          "type": "uint256"
        },
        {
          "internalType": "uint256",
          "name": "_suitability",
          "type": "uint256"
        }
      ],
      "name": "setAgentCourseSuitability",
      "outputs": [],
      "stateMutability": "nonpayable",
      "type": "function"
    },
    {
      "inputs": [
        {
          "internalType": "uint256",
          "name": "agentId",
          "type": "uint256"
        },
        {
          "internalType": "uint256[]",
          "name": "_suitabilities",
          "type": "uint256[]"
        }
      ],
      "name": "setAllAgentCourseSuitability",
      "outputs": [],
      "stateMutability": "nonpayable",
      "type": "function"
    },
    {
      "inputs": [
        {
          "internalType": "address",
          "name": "classAddress",
          "type": "address"
        },
        {
          "internalType": "uint256",
          "name": "_id",
          "type": "uint256"
        }
      ],
      "name": "setClassId",
      "outputs": [],
      "stateMutability": "nonpayable",
      "type": "function"
    },
    {
      "inputs": [
        {
          "internalType": "uint256",
          "name": "classId",
          "type": "uint256"
        }
      ],
      "name": "removeClass",
      "outputs": [],
      "stateMutability": "nonpayable",
      "type": "function"
    },
    {
      "inputs": [
        {
          "internalType": "uint256",
          "name": "courseId",
          "type": "uint256"
        }
      ],
      "name": "setCourseId",
      "outputs": [],
      "stateMutability": "nonpayable",
      "type": "function"
    },
    {
      "inputs": [
        {
          "internalType": "uint256",
          "name": "courseId",
          "type": "uint256"
        }
      ],
      "name": "removeCourse",
      "outputs": [],
      "stateMutability": "nonpayable",
      "type": "function"
    },
    {
      "inputs": [
        {
          "internalType": "uint256",
          "name": "courseId",
          "type": "uint256"
        },
        {
          "internalType": "string",
          "name": "_name",
          "type": "string"
        }
      ],
      "name": "setCourseName",
      "outputs": [],
      "stateMutability": "nonpayable",
      "type": "function"
    },
    {
      "inputs": [
        {
          "internalType": "uint256",
          "name": "courseId",
          "type": "uint256"
        },
        {
          "internalType": "uint256",
          "name": "_importance",
          "type": "uint256"
        }
      ],
      "name": "setCourseImportance",
      "outputs": [],
      "stateMutability": "nonpayable",
      "type": "function"
    },
    {
      "inputs": [
        {
          "internalType": "uint256[]",
          "name": "_importances",
          "type": "uint256[]"
        }
      ],
      "name": "setAllCourseImportance",
      "outputs": [],
      "stateMutability": "nonpayable",
      "type": "function"
    },
    {
      "inputs": [
        {
          "internalType": "uint256",
          "name": "courseId",
          "type": "uint256"
        },
        {
          "internalType": "uint256",
          "name": "_teacherId",
          "type": "uint256"
        }
      ],
      "name": "addCourseAssignedTeacherId",
      "outputs": [],
      "stateMutability": "nonpayable",
      "type": "function"
    },
    {
      "inputs": [
        {
          "internalType": "uint256",
          "name": "courseId",
          "type": "uint256"
        },
        {
          "internalType": "uint256",
          "name": "_agentId",
          "type": "uint256"
        }
      ],
      "name": "addCourseAssignedAgentId",
      "outputs": [],
      "stateMutability": "nonpayable",
      "type": "function"
    },
    {
      "inputs": [
        {
          "internalType": "uint256",
          "name": "courseId",
          "type": "uint256"
        },
        {
          "internalType": "uint256",
          "name": "_teacherId",
          "type": "uint256"
        }
      ],
      "name": "removeCourseAssignedTeacherId",
      "outputs": [],
      "stateMutability": "nonpayable",
      "type": "function"
    },
    {
      "inputs": [
        {
          "internalType": "uint256",
          "name": "courseId",
          "type": "uint256"
        },
        {
          "internalType": "uint256",
          "name": "_agentId",
          "type": "uint256"
        }
      ],
      "name": "removeCourseAssignedAgentId",
      "outputs": [],
      "stateMutability": "nonpayable",
      "type": "function"
    },
    {
      "inputs": [
        {
          "internalType": "uint256",
          "name": "courseId",
          "type": "uint256"
        },
        {
          "internalType": "bool",
          "name": "_isAgentSuitable",
          "type": "bool"
        }
      ],
      "name": "setCourseIsAgentSuitable",
      "outputs": [],
      "stateMutability": "nonpayable",
      "type": "function"
    },
    {
      "inputs": [
        {
          "internalType": "uint256",
          "name": "_teacherCount",
          "type": "uint256"
        }
      ],
      "name": "setTeacherCount",
      "outputs": [],
      "stateMutability": "nonpayable",
      "type": "function"
    },
    {
      "inputs": [
        {
          "internalType": "uint256",
          "name": "_agentCount",
          "type": "uint256"
        }
      ],
      "name": "setAgentCount",
      "outputs": [],
      "stateMutability": "nonpayable",
      "type": "function"
    },
    {
      "inputs": [
        {
          "internalType": "uint256",
          "name": "_classCount",
          "type": "uint256"
        }
      ],
      "name": "setClassCount",
      "outputs": [],
      "stateMutability": "nonpayable",
      "type": "function"
    },
    {
      "inputs": [
        {
          "internalType": "uint256",
          "name": "_courseCount",
          "type": "uint256"
        }
      ],
      "name": "setCourseCount",
      "outputs": [],
      "stateMutability": "nonpayable",
      "type": "function"
    },
    {
      "inputs": [
        {
          "internalType": "uint256",
          "name": "_teacherId",
          "type": "uint256"
        },
        {
          "internalType": "uint256",
          "name": "courseId",
          "type": "uint256"
        }
      ],
      "name": "getTeacherSuitability",
      "outputs": [
        {
          "internalType": "uint256",
          "name": "",
          "type": "uint256"
        }
      ],
      "stateMutability": "view",
      "type": "function",
      "constant": true
    },
    {
      "inputs": [
        {
          "internalType": "uint256",
          "name": "_agentId",
          "type": "uint256"
        },
        {
          "internalType": "uint256",
          "name": "courseId",
          "type": "uint256"
        }
      ],
      "name": "getAgentSuitability",
      "outputs": [
        {
          "internalType": "uint256",
          "name": "",
          "type": "uint256"
        }
      ],
      "stateMutability": "view",
      "type": "function",
      "constant": true
    },
    {
      "inputs": [
        {
          "internalType": "uint256",
          "name": "_teacherId",
          "type": "uint256"
        },
        {
          "internalType": "uint256",
          "name": "courseId",
          "type": "uint256"
        }
      ],
      "name": "getPreference",
      "outputs": [
        {
          "internalType": "uint256",
          "name": "",
          "type": "uint256"
        }
      ],
      "stateMutability": "view",
      "type": "function",
      "constant": true
    },
    {
      "inputs": [
        {
          "internalType": "uint256",
          "name": "_teacherId",
          "type": "uint256"
        }
      ],
      "name": "getTeacherAssignedCourses",
      "outputs": [
        {
          "internalType": "uint256[]",
          "name": "",
          "type": "uint256[]"
        }
      ],
      "stateMutability": "view",
      "type": "function",
      "constant": true
    },
    {
      "inputs": [
        {
          "internalType": "uint256",
          "name": "_teacherId",
          "type": "uint256"
        }
      ],
      "name": "getTeacherReallyAssignedCourses",
      "outputs": [
        {
          "internalType": "uint256[]",
          "name": "",
          "type": "uint256[]"
        }
      ],
      "stateMutability": "view",
      "type": "function",
      "constant": true
    },
    {
      "inputs": [
        {
          "internalType": "uint256",
          "name": "_agentId",
          "type": "uint256"
        }
      ],
      "name": "getAgentAssignedCourses",
      "outputs": [
        {
          "internalType": "uint256[]",
          "name": "",
          "type": "uint256[]"
        }
      ],
      "stateMutability": "view",
      "type": "function",
      "constant": true
    },
    {
      "inputs": [
        {
          "internalType": "uint256",
          "name": "_courseId",
          "type": "uint256"
        }
      ],
      "name": "getCoursesAssignedTeacher",
      "outputs": [
        {
          "internalType": "uint256[]",
          "name": "",
          "type": "uint256[]"
        }
      ],
      "stateMutability": "view",
      "type": "function",
      "constant": true
    },
    {
      "inputs": [
        {
          "internalType": "uint256",
          "name": "_courseId",
          "type": "uint256"
        }
      ],
      "name": "getCoursesAssignedAgent",
      "outputs": [
        {
          "internalType": "uint256[]",
          "name": "",
          "type": "uint256[]"
        }
      ],
      "stateMutability": "view",
      "type": "function",
      "constant": true
    },
    {
      "inputs": [],
      "name": "getTeacherIds",
      "outputs": [
        {
          "internalType": "uint256[]",
          "name": "",
          "type": "uint256[]"
        }
      ],
      "stateMutability": "view",
      "type": "function",
      "constant": true
    },
    {
      "inputs": [],
      "name": "getAgentIds",
      "outputs": [
        {
          "internalType": "uint256[]",
          "name": "",
          "type": "uint256[]"
        }
      ],
      "stateMutability": "view",
      "type": "function",
      "constant": true
    },
    {
      "inputs": [],
      "name": "getCourseIds",
      "outputs": [
        {
          "internalType": "uint256[]",
          "name": "",
          "type": "uint256[]"
        }
      ],
      "stateMutability": "view",
      "type": "function",
      "constant": true
    },
    {
      "inputs": [],
      "name": "getClassIds",
      "outputs": [
        {
          "internalType": "uint256[]",
          "name": "",
          "type": "uint256[]"
        }
      ],
      "stateMutability": "view",
      "type": "function",
      "constant": true
    },
    {
      "inputs": [
        {
          "internalType": "uint256",
          "name": "courseId",
          "type": "uint256"
        },
        {
          "internalType": "uint256",
          "name": "classId",
          "type": "uint256"
        },
        {
          "internalType": "uint256",
          "name": "score",
          "type": "uint256"
        }
      ],
      "name": "addCourseClassScores",
      "outputs": [],
      "stateMutability": "nonpayable",
      "type": "function"
    },
    {
      "inputs": [
        {
          "internalType": "uint256",
          "name": "courseId",
          "type": "uint256"
        }
      ],
      "name": "getCourseClassScores",
      "outputs": [
        {
          "internalType": "uint256[]",
          "name": "",
          "type": "uint256[]"
        }
      ],
      "stateMutability": "view",
      "type": "function",
      "constant": true
    },
    {
      "inputs": [
        {
          "internalType": "uint256",
          "name": "courseId",
          "type": "uint256"
        },
        {
          "internalType": "uint256",
          "name": "score",
          "type": "uint256"
        }
      ],
      "name": "setCourseSelfScore",
      "outputs": [],
      "stateMutability": "nonpayable",
      "type": "function"
    },
    {
      "inputs": [
        {
          "internalType": "uint256",
          "name": "courseId",
          "type": "uint256"
        },
        {
          "internalType": "uint256",
          "name": "score",
          "type": "uint256"
        }
      ],
      "name": "setCourseTotalScore",
      "outputs": [],
      "stateMutability": "nonpayable",
      "type": "function"
    },
    {
      "inputs": [
        {
          "internalType": "uint256",
          "name": "courseId",
          "type": "uint256"
        },
        {
          "internalType": "uint256",
          "name": "supervisorId",
          "type": "uint256"
        },
        {
          "internalType": "uint256",
          "name": "score",
          "type": "uint256"
        }
      ],
      "name": "addCourseSupervisorScores",
      "outputs": [],
      "stateMutability": "nonpayable",
      "type": "function"
    },
    {
      "inputs": [
        {
          "internalType": "uint256",
          "name": "courseId",
          "type": "uint256"
        }
      ],
      "name": "getCourseSupervisorScores",
      "outputs": [
        {
          "internalType": "uint256[]",
          "name": "",
          "type": "uint256[]"
        }
      ],
      "stateMutability": "view",
      "type": "function",
      "constant": true
    },
    {
      "inputs": [
        {
          "internalType": "uint256",
          "name": "supervisorId",
          "type": "uint256"
        }
      ],
      "name": "addSupervisorId",
      "outputs": [],
      "stateMutability": "nonpayable",
      "type": "function"
    },
    {
      "inputs": [],
      "name": "getSupervisorIds",
      "outputs": [
        {
          "internalType": "uint256[]",
          "name": "",
          "type": "uint256[]"
        }
      ],
      "stateMutability": "view",
      "type": "function",
      "constant": true
    },
    {
      "inputs": [
        {
          "internalType": "address",
          "name": "supervisor",
          "type": "address"
        },
        {
          "internalType": "uint256",
          "name": "supervisorId",
          "type": "uint256"
        }
      ],
      "name": "setSupervisorId",
      "outputs": [],
      "stateMutability": "nonpayable",
      "type": "function"
    },
    {
      "inputs": [
        {
          "internalType": "uint256",
          "name": "supervisorId",
          "type": "uint256"
        },
        {
          "internalType": "string",
          "name": "_name",
          "type": "string"
        }
      ],
      "name": "setSupervisorName",
      "outputs": [],
      "stateMutability": "nonpayable",
      "type": "function"
    },
    {
      "inputs": [
        {
          "internalType": "uint256",
          "name": "supervisorId",
          "type": "uint256"
        },
        {
          "internalType": "uint256",
          "name": "courseId",
          "type": "uint256"
        },
        {
          "internalType": "uint256",
          "name": "score",
          "type": "uint256"
        }
      ],
      "name": "setSupervisorsCourseScore",
      "outputs": [],
      "stateMutability": "nonpayable",
      "type": "function"
    }
  ],
  "bytecode": "0x608060405234801561001057600080fd5b5061463d806100206000396000f3fe608060405234801561001057600080fd5b50600436106104a15760003560e01c80639709ee011161026d578063d95a61d511610151578063e637812f116100ce578063ee196ee211610092578063ee196ee214610f15578063f0f2efd814610f31578063f31e149414610f4d578063fa8f084d14610f69578063fc09e9d014610f87578063fc2ddca514610fa3576104a1565b8063e637812f14610e4b578063e7fa455714610e67578063e8a2dc2f14610e83578063ebacebe414610eb3578063ebd1aac614610ee3576104a1565b8063df3addfa11610115578063df3addfa14610dab578063e204b10214610dc7578063e20b340514610de3578063e40af03614610dff578063e52505d814610e1b576104a1565b8063d95a61d514610ce3578063d96ce73f14610d13578063dcfa705714610d43578063dd03576514610d73578063deb9f76a14610d8f576104a1565b8063b4da8584116101ea578063bfb9d44c116101ae578063bfb9d44c14610c13578063c318fe5f14610c2f578063cb85404514610c4b578063cddd6c6314610c67578063ce64bf9b14610c83578063d4e57ff014610cb3576104a1565b8063b4da858414610b71578063b7dc128414610b8d578063bb69df7214610bab578063bca24bd414610bc7578063bd1602d114610bf7576104a1565b8063aaa4b24e11610231578063aaa4b24e14610adf578063ab7cee7714610afb578063ab99631714610b19578063ad3a6ad414610b37578063b150876014610b53576104a1565b80639709ee0114610a3f57806397e92d5214610a6f5780639e12237714610a8b578063a549e41614610aa7578063a7ab847214610ac3576104a1565b80635e383d46116103945780637ce28bac1161031157806386875ea8116102d557806386875ea8146109565780638bbb3be11461097257806391c89deb1461098e5780639476cf9b146109be57806396c82e57146109ee57806396f979d214610a0c576104a1565b80637ce28bac146108785780637fa7e04d146108aa578063827e5731146108c657806382ff0a5a146108f6578063851580a714610926576104a1565b80636e428d2d116103585780636e428d2d146107ec5780636fcf4f9614610808578063700ed28b1461082457806372ab4e961461084057806372c30f451461085c576104a1565b80635e383d461461075e578063643d172c1461077a57806366055159146107965780636798bad9146107b45780636d889f84146107d0576104a1565b806346be313611610422578063513856c8116103e6578063513856c81461069357806356e76058146106c65780635953faff146106f65780635a47fb8d146107125780635ca24db01461072e576104a1565b806346be3136146105ef578063494e23711461060d5780634b974df71461063d5780634d27e912146106595780634d65235014610675576104a1565b80631fe76a6c116104695780631fe76a6c146105485780632359b7b8146105645780632b0816ac1461058257806334ac0b401461059e5780633abdb63d146105d3576104a1565b806308a2037f146104a65780630f7f13cf146104c25780630fa1c271146104f257806318860d371461050e5780631dd86f901461052c575b600080fd5b6104c060048036038101906104bb9190613a9e565b610fbf565b005b6104dc60048036038101906104d791906138db565b610fea565b6040516104e99190613e73565b60405180910390f35b61050c60048036038101906105079190613afe565b611002565b005b610516611043565b6040516105239190613d71565b60405180910390f35b61054660048036038101906105419190613b3e565b61109b565b005b610562600480360381019061055d9190613b3e565b61114f565b005b61056c611180565b6040516105799190613d71565b60405180910390f35b61059c60048036038101906105979190613991565b6111d8565b005b6105b860048036038101906105b39190613991565b611237565b6040516105ca96959493929190613f18565b60405180910390f35b6105ed60048036038101906105e89190613991565b61131b565b005b6105f7611403565b6040516106049190613e73565b60405180910390f35b61062760048036038101906106229190613991565b611409565b6040516106349190613e73565b60405180910390f35b61065760048036038101906106529190613afe565b61142d565b005b610673600480360381019061066e9190613b3e565b6115c7565b005b61067d6115f8565b60405161068a9190613d71565b60405180910390f35b6106ad60048036038101906106a89190613991565b611650565b6040516106bd9493929190613ecc565b60405180910390f35b6106e060048036038101906106db9190613991565b611728565b6040516106ed9190613e73565b60405180910390f35b610710600480360381019061070b9190613948565b61174c565b005b61072c60048036038101906107279190613afe565b61180e565b005b61074860048036038101906107439190613991565b61182d565b6040516107559190613d71565b60405180910390f35b61077860048036038101906107739190613908565b61189b565b005b610794600480360381019061078f9190613991565b61190c565b005b61079e611950565b6040516107ab9190613e73565b60405180910390f35b6107ce60048036038101906107c99190613991565b611956565b005b6107ea60048036038101906107e59190613b3e565b611960565b005b61080660048036038101906108019190613afe565b611a38565b005b610822600480360381019061081d9190613991565b611bd2565b005b61083e60048036038101906108399190613afe565b611d3d565b005b61085a60048036038101906108559190613afe565b611d7e565b005b61087660048036038101906108719190613991565b611dbf565b005b610892600480360381019061088d9190613991565b611e8b565b6040516108a193929190613e8e565b60405180910390f35b6108c460048036038101906108bf9190613a9e565b611f5d565b005b6108e060048036038101906108db9190613991565b611f88565b6040516108ed9190613d71565b60405180910390f35b610910600480360381019061090b9190613991565b611ff6565b60405161091d9190613d71565b60405180910390f35b610940600480360381019061093b9190613afe565b612064565b60405161094d9190613e73565b60405180910390f35b610970600480360381019061096b9190613afe565b612096565b005b61098c60048036038101906109879190613908565b612230565b005b6109a860048036038101906109a39190613991565b6122e8565b6040516109b59190613d71565b60405180910390f35b6109d860048036038101906109d39190613991565b612356565b6040516109e59190613e73565b60405180910390f35b6109f661237a565b604051610a039190613e73565b60405180910390f35b610a266004803603810190610a219190613991565b612380565b604051610a369493929190613f80565b60405180910390f35b610a596004803603810190610a549190613afe565b612445565b604051610a669190613e73565b60405180910390f35b610a896004803603810190610a8491906139fe565b612477565b005b610aa56004803603810190610aa09190613a9e565b6125d0565b005b610ac16004803603810190610abc9190613908565b6125fb565b005b610add6004803603810190610ad89190613a9e565b612687565b005b610af96004803603810190610af49190613afe565b612735565b005b610b03612754565b604051610b109190613e73565b60405180910390f35b610b2161275a565b604051610b2e9190613e73565b60405180910390f35b610b516004803603810190610b4c91906139fe565b612760565b005b610b5b6128b9565b604051610b689190613d71565b60405180910390f35b610b8b6004803603810190610b869190613afe565b612911565b005b610b956129b3565b604051610ba29190613e73565b60405180910390f35b610bc56004803603810190610bc09190613afe565b6129b9565b005b610be16004803603810190610bdc9190613991565b612ab7565b604051610bee9190613e73565b60405180910390f35b610c116004803603810190610c0c9190613991565b612adb565b005b610c2d6004803603810190610c289190613908565b612ae5565b005b610c496004803603810190610c4491906139be565b612b71565b005b610c656004803603810190610c609190613a5e565b612c4d565b005b610c816004803603810190610c7c91906139be565b612c7f565b005b610c9d6004803603810190610c989190613991565b612cd8565b604051610caa9190613d71565b60405180910390f35b610ccd6004803603810190610cc891906138db565b612d46565b604051610cda9190613e73565b60405180910390f35b610cfd6004803603810190610cf891906138db565b612d5e565b604051610d0a9190613e73565b60405180910390f35b610d2d6004803603810190610d289190613991565b612d76565b604051610d3a9190613d71565b60405180910390f35b610d5d6004803603810190610d589190613991565b612de4565b604051610d6a9190613e73565b60405180910390f35b610d8d6004803603810190610d889190613991565b612e08565b005b610da96004803603810190610da49190613991565b612e12565b005b610dc56004803603810190610dc09190613991565b612e1c565b005b610de16004803603810190610ddc9190613afe565b612f00565b005b610dfd6004803603810190610df89190613afe565b612f1f565b005b610e196004803603810190610e149190613afe565b612fc1565b005b610e356004803603810190610e309190613991565b61315b565b604051610e429190613d71565b60405180910390f35b610e656004803603810190610e609190613afe565b6131c9565b005b610e816004803603810190610e7c9190613afe565b61320a565b005b610e9d6004803603810190610e989190613afe565b6133a4565b604051610eaa9190613e73565b60405180910390f35b610ecd6004803603810190610ec891906138db565b6133d6565b604051610eda9190613e73565b60405180910390f35b610efd6004803603810190610ef89190613991565b6133ee565b604051610f0c93929190613fcc565b60405180910390f35b610f2f6004803603810190610f2a9190613afe565b613418565b005b610f4b6004803603810190610f4691906139fe565b613437565b005b610f676004803603810190610f629190613b3e565b61350d565b005b610f716135e5565b604051610f7e9190613d71565b60405180910390f35b610fa16004803603810190610f9c9190613afe565b61363d565b005b610fbd6004803603810190610fb89190613b3e565b61367e565b005b8181600760008681526020019081526020016000206001019190610fe49291906136af565b50505050565b60016020528060005260406000206000915090505481565b600860008381526020019081526020016000206003018190806001815401808255809150506001900390600052602060002001600090919091909150555050565b6060601280548060200260200160405190810160405280929190818152602001828054801561109157602002820191906000526020600020905b81548152602001906001019080831161107d575b5050505050905090565b6000600160003373ffffffffffffffffffffffffffffffffffffffff1673ffffffffffffffffffffffffffffffffffffffff16815260200190815260200160002054141561111e576040517f08c379a000000000000000000000000000000000000000000000000000000000815260040161111590613e33565b60405180910390fd5b8060056000858152602001908152602001600020600901600084815260200190815260200160002081905550505050565b8060056000858152602001908152602001600020600801600084815260200190815260200160002081905550505050565b606060118054806020026020016040519081016040528092919081815260200182805480156111ce57602002820191906000526020600020905b8154815260200190600101908083116111ba575b5050505050905090565b8060086000838152602001908152602001600020600001819055506011819080600181540180825580915050600190039060005260206000200160009091909190915055600d600081548092919061122f9061423b565b919050555050565b6005602052806000526040600020600091509050806000015490806001018054611260906141d8565b80601f016020809104026020016040519081016040528092919081815260200182805461128c906141d8565b80156112d95780601f106112ae576101008083540402835291602001916112d9565b820191906000526020600020905b8154815290600101906020018083116112bc57829003601f168201915b5050505050908060020160009054906101000a900473ffffffffffffffffffffffffffffffffffffffff16908060050154908060060154908060070154905086565b6000600660008381526020019081526020016000206000018190555060005b6010805490508110156113ff57816010828154811061135c5761135b614311565b5b906000526020600020015414156113ec576010600160108054905061138191906140ff565b8154811061139257611391614311565b5b9060005260206000200154601082815481106113b1576113b0614311565b5b906000526020600020018190555060108054806113d1576113d06142e2565b5b600190038181906000526020600020016000905590556113ff565b80806113f79061423b565b91505061133a565b5050565b600a5481565b6011818154811061141957600080fd5b906000526020600020016000915090505481565b60008080600090505b60056000868152602001908152602001600020600301805490508110156114b057836005600087815260200190815260200160002060030182815481106114805761147f614311565b5b9060005260206000200154141561149d57600192508091506114b0565b80806114a89061423b565b915050611436565b5081156115865760056000858152602001908152602001600020600301600160056000878152602001908152602001600020600301805490506114f391906140ff565b8154811061150457611503614311565b5b906000526020600020015460056000868152602001908152602001600020600301828154811061153757611536614311565b5b90600052602060002001819055506005600085815260200190815260200160002060030180548061156b5761156a6142e2565b5b600190038181906000526020600020016000905590556115c1565b6040517f08c379a00000000000000000000000000000000000000000000000000000000081526004016115b890613db3565b60405180910390fd5b50505050565b8060066000858152602001908152602001600020600501600084815260200190815260200160002081905550505050565b6060600f80548060200260200160405190810160405280929190818152602001828054801561164657602002820191906000526020600020905b815481526020019060010190808311611632575b5050505050905090565b6006602052806000526040600020600091509050806000015490806001018054611679906141d8565b80601f01602080910402602001604051908101604052809291908181526020018280546116a5906141d8565b80156116f25780601f106116c7576101008083540402835291602001916116f2565b820191906000526020600020905b8154815290600101906020018083116116d557829003601f168201915b5050505050908060020160009054906101000a900473ffffffffffffffffffffffffffffffffffffffff16908060030154905084565b6010818154811061173857600080fd5b906000526020600020016000915090505481565b601180549050815114611794576040517f08c379a000000000000000000000000000000000000000000000000000000000815260040161178b90613e13565b60405180910390fd5b60005b60118054905081101561180a578181815181106117b7576117b6614311565b5b602002602001015160086000601184815481106117d7576117d6614311565b5b906000526020600020015481526020019081526020016000206002018190555080806118029061423b565b915050611797565b5050565b8060096000848152602001908152602001600020600401819055505050565b60606009600083815260200190815260200160002060020180548060200260200160405190810160405280929190818152602001828054801561188f57602002820191906000526020600020905b81548152602001906001019080831161187b575b50505050509050919050565b80600360008473ffffffffffffffffffffffffffffffffffffffff1673ffffffffffffffffffffffffffffffffffffffff1681526020019081526020016000208190555060128190806001815401808255809150506001900390600052602060002001600090919091909150555050565b6013819080600181540180825580915050600190039060005260206000200160009091909190915055600e60008154809291906119489061423b565b919050555050565b600d5481565b80600a8190555050565b600060096000858152602001908152602001600020600301600084815260200190815260200160002054146119ca576040517f08c379a00000000000000000000000000000000000000000000000000000000081526004016119c190613df3565b60405180910390fd5b806009600085815260200190815260200160002060030160008481526020019081526020016000208190555060096000848152602001908152602001600020600201819080600181540180825580915050600190039060005260206000200160009091909190915055505050565b60008080600090505b6008600086815260200190815260200160002060030180549050811015611abb5783600860008781526020019081526020016000206003018281548110611a8b57611a8a614311565b5b90600052602060002001541415611aa85760019250809150611abb565b8080611ab39061423b565b915050611a41565b508115611b91576008600085815260200190815260200160002060030160016008600087815260200190815260200160002060030180549050611afe91906140ff565b81548110611b0f57611b0e614311565b5b9060005260206000200154600860008681526020019081526020016000206003018281548110611b4257611b41614311565b5b906000526020600020018190555060086000858152602001908152602001600020600301805480611b7657611b756142e2565b5b60019003818190600052602060002001600090559055611bcc565b6040517f08c379a0000000000000000000000000000000000000000000000000000000008152600401611bc390613db3565b60405180910390fd5b50505050565b6000600160003373ffffffffffffffffffffffffffffffffffffffff1673ffffffffffffffffffffffffffffffffffffffff168152602001908152602001600020541415611c55576040517f08c379a0000000000000000000000000000000000000000000000000000000008152600401611c4c90613e33565b60405180910390fd5b6000600560008381526020019081526020016000206000018190555060005b600f80549050811015611d395781600f8281548110611c9657611c95614311565b5b90600052602060002001541415611d2657600f6001600f80549050611cbb91906140ff565b81548110611ccc57611ccb614311565b5b9060005260206000200154600f8281548110611ceb57611cea614311565b5b9060005260206000200181905550600f805480611d0b57611d0a6142e2565b5b60019003818190600052602060002001600090559055611d39565b8080611d319061423b565b915050611c74565b5050565b600560008381526020019081526020016000206003018190806001815401808255809150506001900390600052602060002001600090919091909150555050565b600660008381526020019081526020016000206004018190806001815401808255809150506001900390600052602060002001600090919091909150555050565b60005b601280549050811015611e87578160128281548110611de457611de3614311565b5b90600052602060002001541415611e745760126001601280549050611e0991906140ff565b81548110611e1a57611e19614311565b5b906000526020600020015460128281548110611e3957611e38614311565b5b90600052602060002001819055506012805480611e5957611e586142e2565b5b60019003818190600052602060002001600090559055611e87565b8080611e7f9061423b565b915050611dc2565b5050565b6007602052806000526040600020600091509050806000015490806001018054611eb4906141d8565b80601f0160208091040260200160405190810160405280929190818152602001828054611ee0906141d8565b8015611f2d5780601f10611f0257610100808354040283529160200191611f2d565b820191906000526020600020905b815481529060010190602001808311611f1057829003601f168201915b5050505050908060020160009054906101000a900473ffffffffffffffffffffffffffffffffffffffff16905083565b8181600660008681526020019081526020016000206001019190611f829291906136af565b50505050565b606060056000838152602001908152602001600020600401805480602002602001604051908101604052809291908181526020018280548015611fea57602002820191906000526020600020905b815481526020019060010190808311611fd6575b50505050509050919050565b60606008600083815260200190815260200160002060030180548060200260200160405190810160405280929190818152602001828054801561205857602002820191906000526020600020905b815481526020019060010190808311612044575b50505050509050919050565b600060056000848152602001908152602001600020600901600083815260200190815260200160002054905092915050565b60008080600090505b600860008681526020019081526020016000206004018054905081101561211957836008600087815260200190815260200160002060040182815481106120e9576120e8614311565b5b906000526020600020015414156121065760019250809150612119565b80806121119061423b565b91505061209f565b5081156121ef57600860008581526020019081526020016000206004016001600860008781526020019081526020016000206004018054905061215c91906140ff565b8154811061216d5761216c614311565b5b90600052602060002001546008600086815260200190815260200160002060040182815481106121a05761219f614311565b5b9060005260206000200181905550600860008581526020019081526020016000206004018054806121d4576121d36142e2565b5b6001900381819060005260206000200160009055905561222a565b6040517f08c379a000000000000000000000000000000000000000000000000000000000815260040161222190613db3565b60405180910390fd5b50505050565b80600460008473ffffffffffffffffffffffffffffffffffffffff1673ffffffffffffffffffffffffffffffffffffffff16815260200190815260200160002081905550806007600083815260200190815260200160002060000181905550816007600083815260200190815260200160002060020160006101000a81548173ffffffffffffffffffffffffffffffffffffffff021916908373ffffffffffffffffffffffffffffffffffffffff1602179055505050565b60606008600083815260200190815260200160002060040180548060200260200160405190810160405280929190818152602001828054801561234a57602002820191906000526020600020905b815481526020019060010190808311612336575b50505050509050919050565b6013818154811061236657600080fd5b906000526020600020016000915090505481565b60005481565b60086020528060005260406000206000915090508060000154908060010180546123a9906141d8565b80601f01602080910402602001604051908101604052809291908181526020018280546123d5906141d8565b80156124225780601f106123f757610100808354040283529160200191612422565b820191906000526020600020905b81548152906001019060200180831161240557829003601f168201915b5050505050908060020154908060050160009054906101000a900460ff16905084565b600060066000848152602001908152602001600020600501600083815260200190815260200160002054905092915050565b6000600160003373ffffffffffffffffffffffffffffffffffffffff1673ffffffffffffffffffffffffffffffffffffffff1681526020019081526020016000205414156124fa576040517f08c379a00000000000000000000000000000000000000000000000000000000081526004016124f190613e33565b60405180910390fd5b6011805490508282905014612544576040517f08c379a000000000000000000000000000000000000000000000000000000000815260040161253b90613e53565b60405180910390fd5b60005b6011805490508110156125ca5782828281811061256757612566614311565b5b905060200201356005600086815260200190815260200160002060080160006011848154811061259a57612599614311565b5b906000526020600020015481526020019081526020016000208190555080806125c29061423b565b915050612547565b50505050565b81816008600086815260200190815260200160002060010191906125f59291906136af565b50505050565b80600160008473ffffffffffffffffffffffffffffffffffffffff1673ffffffffffffffffffffffffffffffffffffffff16815260200190815260200160002081905550806005600083815260200190815260200160002060000181905550600f8190806001815401808255809150506001900390600052602060002001600090919091909150555050565b6000600160003373ffffffffffffffffffffffffffffffffffffffff1673ffffffffffffffffffffffffffffffffffffffff16815260200190815260200160002054141561270a576040517f08c379a000000000000000000000000000000000000000000000000000000000815260040161270190613e33565b60405180910390fd5b818160056000868152602001908152602001600020600101919061272f9291906136af565b50505050565b8060096000848152602001908152602001600020600101819055505050565b600e5481565b600c5481565b6000600160003373ffffffffffffffffffffffffffffffffffffffff1673ffffffffffffffffffffffffffffffffffffffff1681526020019081526020016000205414156127e3576040517f08c379a00000000000000000000000000000000000000000000000000000000081526004016127da90613e33565b60405180910390fd5b601180549050828290501461282d576040517f08c379a000000000000000000000000000000000000000000000000000000000815260040161282490613d93565b60405180910390fd5b60005b6011805490508110156128b3578282828181106128505761284f614311565b5b905060200201356005600086815260200190815260200160002060090160006011848154811061288357612882614311565b5b906000526020600020015481526020019081526020016000208190555080806128ab9061423b565b915050612830565b50505050565b6060601080548060200260200160405190810160405280929190818152602001828054801561290757602002820191906000526020600020905b8154815260200190600101908083116128f3575b5050505050905090565b6000600160003373ffffffffffffffffffffffffffffffffffffffff1673ffffffffffffffffffffffffffffffffffffffff168152602001908152602001600020541415612994576040517f08c379a000000000000000000000000000000000000000000000000000000000815260040161298b90613e33565b60405180910390fd5b8060056000848152602001908152602001600020600601819055505050565b600b5481565b6000600160003373ffffffffffffffffffffffffffffffffffffffff1673ffffffffffffffffffffffffffffffffffffffff168152602001908152602001600020541415612a3c576040517f08c379a0000000000000000000000000000000000000000000000000000000008152600401612a3390613e33565b60405180910390fd5b6005600083815260200190815260200160002060050154600080828254612a6391906140ff565b925050819055508060056000848152602001908152602001600020600501819055506005600083815260200190815260200160002060050154600080828254612aac91906140a9565b925050819055505050565b60128181548110612ac757600080fd5b906000526020600020016000915090505481565b80600d8190555050565b80600260008473ffffffffffffffffffffffffffffffffffffffff1673ffffffffffffffffffffffffffffffffffffffff1681526020019081526020016000208190555080600660008381526020019081526020016000206000018190555060108190806001815401808255809150506001900390600052602060002001600090919091909150555050565b6000600160003373ffffffffffffffffffffffffffffffffffffffff1673ffffffffffffffffffffffffffffffffffffffff168152602001908152602001600020541415612bf4576040517f08c379a0000000000000000000000000000000000000000000000000000000008152600401612beb90613e33565b60405180910390fd5b806005600084815260200190815260200160002060020160006101000a81548173ffffffffffffffffffffffffffffffffffffffff021916908373ffffffffffffffffffffffffffffffffffffffff1602179055505050565b806008600084815260200190815260200160002060050160006101000a81548160ff0219169083151502179055505050565b806006600084815260200190815260200160002060020160006101000a81548173ffffffffffffffffffffffffffffffffffffffff021916908373ffffffffffffffffffffffffffffffffffffffff1602179055505050565b606060066000838152602001908152602001600020600401805480602002602001604051908101604052809291908181526020018280548015612d3a57602002820191906000526020600020905b815481526020019060010190808311612d26575b50505050509050919050565b60036020528060005260406000206000915090505481565b60046020528060005260406000206000915090505481565b606060096000838152602001908152602001600020600501805480602002602001604051908101604052809291908181526020018280548015612dd857602002820191906000526020600020905b815481526020019060010190808311612dc4575b50505050509050919050565b600f8181548110612df457600080fd5b906000526020600020016000915090505481565b80600c8190555050565b80600b8190555050565b60005b601180549050811015612efc578160118281548110612e4157612e40614311565b5b90600052602060002001541415612ee95760116001601180549050612e6691906140ff565b81548110612e7757612e76614311565b5b906000526020600020015460118281548110612e9657612e95614311565b5b90600052602060002001819055506011805480612eb657612eb56142e2565b5b60019003818190600052602060002001600090559055600d6000815480929190612edf906141ae565b9190505550612efc565b8080612ef49061423b565b915050612e1f565b5050565b8060086000848152602001908152602001600020600201819055505050565b6000600160003373ffffffffffffffffffffffffffffffffffffffff1673ffffffffffffffffffffffffffffffffffffffff168152602001908152602001600020541415612fa2576040517f08c379a0000000000000000000000000000000000000000000000000000000008152600401612f9990613e33565b60405180910390fd5b8060056000848152602001908152602001600020600701819055505050565b60008080600090505b6006600086815260200190815260200160002060040180549050811015613044578360066000878152602001908152602001600020600401828154811061301457613013614311565b5b906000526020600020015414156130315760019250809150613044565b808061303c9061423b565b915050612fca565b50811561311a57600660008581526020019081526020016000206004016001600660008781526020019081526020016000206004018054905061308791906140ff565b8154811061309857613097614311565b5b90600052602060002001546006600086815260200190815260200160002060040182815481106130cb576130ca614311565b5b9060005260206000200181905550600660008581526020019081526020016000206004018054806130ff576130fe6142e2565b5b60019003818190600052602060002001600090559055613155565b6040517f08c379a000000000000000000000000000000000000000000000000000000000815260040161314c90613db3565b60405180910390fd5b50505050565b6060600560008381526020019081526020016000206003018054806020026020016040519081016040528092919081815260200182805480156131bd57602002820191906000526020600020905b8154815260200190600101908083116131a9575b50505050509050919050565b600560008381526020019081526020016000206004018190806001815401808255809150506001900390600052602060002001600090919091909150555050565b60008080600090505b600560008681526020019081526020016000206004018054905081101561328d578360056000878152602001908152602001600020600401828154811061325d5761325c614311565b5b9060005260206000200154141561327a576001925080915061328d565b80806132859061423b565b915050613213565b5081156133635760056000858152602001908152602001600020600401600160056000878152602001908152602001600020600401805490506132d091906140ff565b815481106132e1576132e0614311565b5b906000526020600020015460056000868152602001908152602001600020600401828154811061331457613313614311565b5b906000526020600020018190555060056000858152602001908152602001600020600401805480613348576133476142e2565b5b6001900381819060005260206000200160009055905561339e565b6040517f08c379a000000000000000000000000000000000000000000000000000000000815260040161339590613db3565b60405180910390fd5b50505050565b600060056000848152602001908152602001600020600801600083815260200190815260200160002054905092915050565b60026020528060005260406000206000915090505481565b60096020528060005260406000206000915090508060000154908060010154908060040154905083565b8060066000848152602001908152602001600020600301819055505050565b6011805490508282905014613481576040517f08c379a000000000000000000000000000000000000000000000000000000000815260040161347890613e53565b60405180910390fd5b60005b601180549050811015613507578282828181106134a4576134a3614311565b5b90506020020135600660008681526020019081526020016000206005016000601184815481106134d7576134d6614311565b5b906000526020600020015481526020019081526020016000208190555080806134ff9061423b565b915050613484565b50505050565b60006009600085815260200190815260200160002060060160008481526020019081526020016000205414613577576040517f08c379a000000000000000000000000000000000000000000000000000000000815260040161356e90613dd3565b60405180910390fd5b806009600085815260200190815260200160002060060160008481526020019081526020016000208190555060096000848152602001908152602001600020600501819080600181540180825580915050600190039060005260206000200160009091909190915055505050565b6060601380548060200260200160405190810160405280929190818152602001828054801561363357602002820191906000526020600020905b81548152602001906001019080831161361f575b5050505050905090565b600860008381526020019081526020016000206004018190806001815401808255809150506001900390600052602060002001600090919091909150555050565b8060076000858152602001908152602001600020600301600084815260200190815260200160002081905550505050565b8280546136bb906141d8565b90600052602060002090601f0160209004810192826136dd5760008555613724565b82601f106136f657803560ff1916838001178555613724565b82800160010185558215613724579182015b82811115613723578235825591602001919060010190613708565b5b5090506137319190613735565b5090565b5b8082111561374e576000816000905550600101613736565b5090565b600061376561376084614028565b614003565b9050808382526020820190508285602086028201111561378857613787614379565b5b60005b858110156137b8578161379e88826138c6565b84526020840193506020830192505060018101905061378b565b5050509392505050565b6000813590506137d1816145c2565b92915050565b60008083601f8401126137ed576137ec614374565b5b8235905067ffffffffffffffff81111561380a5761380961436f565b5b60208301915083602082028301111561382657613825614379565b5b9250929050565b600082601f83011261384257613841614374565b5b8135613852848260208601613752565b91505092915050565b60008135905061386a816145d9565b92915050565b60008083601f84011261388657613885614374565b5b8235905067ffffffffffffffff8111156138a3576138a261436f565b5b6020830191508360018202830111156138bf576138be614379565b5b9250929050565b6000813590506138d5816145f0565b92915050565b6000602082840312156138f1576138f0614383565b5b60006138ff848285016137c2565b91505092915050565b6000806040838503121561391f5761391e614383565b5b600061392d858286016137c2565b925050602061393e858286016138c6565b9150509250929050565b60006020828403121561395e5761395d614383565b5b600082013567ffffffffffffffff81111561397c5761397b61437e565b5b6139888482850161382d565b91505092915050565b6000602082840312156139a7576139a6614383565b5b60006139b5848285016138c6565b91505092915050565b600080604083850312156139d5576139d4614383565b5b60006139e3858286016138c6565b92505060206139f4858286016137c2565b9150509250929050565b600080600060408486031215613a1757613a16614383565b5b6000613a25868287016138c6565b935050602084013567ffffffffffffffff811115613a4657613a4561437e565b5b613a52868287016137d7565b92509250509250925092565b60008060408385031215613a7557613a74614383565b5b6000613a83858286016138c6565b9250506020613a948582860161385b565b9150509250929050565b600080600060408486031215613ab757613ab6614383565b5b6000613ac5868287016138c6565b935050602084013567ffffffffffffffff811115613ae657613ae561437e565b5b613af286828701613870565b92509250509250925092565b60008060408385031215613b1557613b14614383565b5b6000613b23858286016138c6565b9250506020613b34858286016138c6565b9150509250929050565b600080600060608486031215613b5757613b56614383565b5b6000613b65868287016138c6565b9350506020613b76868287016138c6565b9250506040613b87868287016138c6565b9150509250925092565b6000613b9d8383613d53565b60208301905092915050565b613bb281614133565b82525050565b6000613bc382614064565b613bcd8185614087565b9350613bd883614054565b8060005b83811015613c09578151613bf08882613b91565b9750613bfb8361407a565b925050600181019050613bdc565b5085935050505092915050565b613c1f81614145565b82525050565b6000613c308261406f565b613c3a8185614098565b9350613c4a81856020860161417b565b613c5381614388565b840191505092915050565b6000613c6b606083614098565b9150613c7682614399565b606082019050919050565b6000613c8e601083614098565b9150613c998261440e565b602082019050919050565b6000613cb1601583614098565b9150613cbc82614437565b602082019050919050565b6000613cd4601583614098565b9150613cdf82614460565b602082019050919050565b6000613cf7602283614098565b9150613d0282614489565b604082019050919050565b6000613d1a602f83614098565b9150613d25826144d8565b604082019050919050565b6000613d3d606183614098565b9150613d4882614527565b608082019050919050565b613d5c81614171565b82525050565b613d6b81614171565b82525050565b60006020820190508181036000830152613d8b8184613bb8565b905092915050565b60006020820190508181036000830152613dac81613c5e565b9050919050565b60006020820190508181036000830152613dcc81613c81565b9050919050565b60006020820190508181036000830152613dec81613ca4565b9050919050565b60006020820190508181036000830152613e0c81613cc7565b9050919050565b60006020820190508181036000830152613e2c81613cea565b9050919050565b60006020820190508181036000830152613e4c81613d0d565b9050919050565b60006020820190508181036000830152613e6c81613d30565b9050919050565b6000602082019050613e886000830184613d62565b92915050565b6000606082019050613ea36000830186613d62565b8181036020830152613eb58185613c25565b9050613ec46040830184613ba9565b949350505050565b6000608082019050613ee16000830187613d62565b8181036020830152613ef38186613c25565b9050613f026040830185613ba9565b613f0f6060830184613d62565b95945050505050565b600060c082019050613f2d6000830189613d62565b8181036020830152613f3f8188613c25565b9050613f4e6040830187613ba9565b613f5b6060830186613d62565b613f686080830185613d62565b613f7560a0830184613d62565b979650505050505050565b6000608082019050613f956000830187613d62565b8181036020830152613fa78186613c25565b9050613fb66040830185613d62565b613fc36060830184613c16565b95945050505050565b6000606082019050613fe16000830186613d62565b613fee6020830185613d62565b613ffb6040830184613d62565b949350505050565b600061400d61401e565b9050614019828261420a565b919050565b6000604051905090565b600067ffffffffffffffff82111561404357614042614340565b5b602082029050602081019050919050565b6000819050602082019050919050565b600081519050919050565b600081519050919050565b6000602082019050919050565b600082825260208201905092915050565b600082825260208201905092915050565b60006140b482614171565b91506140bf83614171565b9250827fffffffffffffffffffffffffffffffffffffffffffffffffffffffffffffffff038211156140f4576140f3614284565b5b828201905092915050565b600061410a82614171565b915061411583614171565b92508282101561412857614127614284565b5b828203905092915050565b600061413e82614151565b9050919050565b60008115159050919050565b600073ffffffffffffffffffffffffffffffffffffffff82169050919050565b6000819050919050565b60005b8381101561419957808201518184015260208101905061417e565b838111156141a8576000848401525b50505050565b60006141b982614171565b915060008214156141cd576141cc614284565b5b600182039050919050565b600060028204905060018216806141f057607f821691505b60208210811415614204576142036142b3565b5b50919050565b61421382614388565b810181811067ffffffffffffffff8211171561423257614231614340565b5b80604052505050565b600061424682614171565b91507fffffffffffffffffffffffffffffffffffffffffffffffffffffffffffffffff82141561427957614278614284565b5b600182019050919050565b7f4e487b7100000000000000000000000000000000000000000000000000000000600052601160045260246000fd5b7f4e487b7100000000000000000000000000000000000000000000000000000000600052602260045260246000fd5b7f4e487b7100000000000000000000000000000000000000000000000000000000600052603160045260246000fd5b7f4e487b7100000000000000000000000000000000000000000000000000000000600052603260045260246000fd5b7f4e487b7100000000000000000000000000000000000000000000000000000000600052604160045260246000fd5b600080fd5b600080fd5b600080fd5b600080fd5b600080fd5b6000601f19601f8301169050919050565b7f5768656e2073657474696e672074686520707265666572656e6365206c65766560008201527f6c206f6620636f75727365732c206974206973206e656365737361727920746f60208201527f206861766520616e20657175616c206e756d626572206f6620636f7572736573604082015250565b7f436f75727365206e6f7420666f756e6400000000000000000000000000000000600082015250565b7fe8afa5e79da3e5afbce5b7b2e7bb8fe68a95e7a5a80000000000000000000000600082015250565b7fe8afa5e78fade7baa7e5b7b2e7bb8fe68a95e7a5a80000000000000000000000600082015250565b7f6d7573742075706461746520616c6c20636f7572736520737569746162696c6960008201527f7479000000000000000000000000000000000000000000000000000000000000602082015250565b7f4f6e6c7920726567697374657265642074656163686572732063616e2063616c60008201527f6c20746869732066756e6374696f6e0000000000000000000000000000000000602082015250565b7f5768656e2073657474696e672074686520737569746162696c697479206c657660008201527f656c206f6620636f75727365732c206974206973206e6563657373617279207460208201527f6f206861766520616e20657175616c206e756d626572206f6620636f7572736560408201527f7300000000000000000000000000000000000000000000000000000000000000606082015250565b6145cb81614133565b81146145d657600080fd5b50565b6145e281614145565b81146145ed57600080fd5b50565b6145f981614171565b811461460457600080fd5b5056fea26469706673582212202e0c6da43885022dda81558c65a950d6d358fc494521d18c1db3084d223d1ea264736f6c63430008070033",
  "immutableReferences": {},
  "source": "// SPDX-License-Identifier: MIT\r\npragma solidity ^0.8.7;\r\n\r\ncontract ICourseAllocation {\r\n    // \r\n    struct Teacher {\r\n        uint256 id;\r\n        string name;\r\n        address addr;\r\n        uint256[] assignedCourses;\r\n        uint256[] reallyAssignedCourses;\r\n        uint256 suitabilityWeight;\r\n        uint256 transferCourseCoins;\r\n        uint256 value;\r\n        mapping(uint256 => uint256) courseSuitabilities;\r\n        mapping(uint256 => uint256) coursePreferences;\r\n    }\r\n\r\n    // \r\n    struct Agent {\r\n        uint256 id;\r\n        string name;\r\n        address addr;\r\n        uint256 value;\r\n        uint256[] assignedCourses;\r\n        mapping(uint256 => uint256) courseSuitabilities;\r\n    }\r\n\r\n    // \r\n    struct Supervisor {\r\n        uint256 id;\r\n        string name;\r\n        address addr;\r\n        mapping(uint256 => uint256) courseScores;\r\n    }\r\n\r\n    // \r\n    struct Course {\r\n        uint256 id;\r\n        string name;\r\n        uint256 importance;\r\n        uint256[] assignedTeacherId;\r\n        uint256[] assignedAgentId;\r\n        bool isAgentSuitable;\r\n    }\r\n    struct CourseScore {\r\n        uint256 id; // id\r\n        uint256 totalScore;\r\n        uint256[] classScores;\r\n        mapping(uint256 => uint256) giveScoreClassIdExists;\r\n        uint256 selfScore;\r\n        uint256[] supervisorScores;\r\n        mapping(uint256 => uint256) giveScoreSupervisorIdExists;\r\n    }\r\n\r\n    // \r\n    uint256 public totalWeight;\r\n\r\n    //  => ID\r\n    mapping(address => uint256) public addressToTeacherId;\r\n\r\n    //  => ID\r\n    mapping(address => uint256) public addressToAgentId;\r\n\r\n    //  => ID\r\n    mapping(address => uint256) public addressToClassId;\r\n\r\n    //  => ID\r\n    mapping(address => uint256) public addressToSupervisorId;\r\n\r\n    // ID => \r\n    mapping(uint256 => Teacher) public teachers;\r\n\r\n    // ID => \r\n    mapping(uint256 => Agent) public agents;\r\n\r\n    // ID => \r\n    mapping(uint256 => Supervisor) public supervisors;\r\n\r\n    // ID => \r\n    mapping(uint256 => Course) public courses;\r\n\r\n    // ID => \r\n    mapping(uint256 => CourseScore) public courseScores;\r\n\r\n    // ID\r\n    uint256 public teacherCount;\r\n\r\n    // ID\r\n    uint256 public agentCount;\r\n\r\n    // ID\r\n    uint256 public classCount;\r\n\r\n    // ID\r\n    uint256 public courseCount;\r\n\r\n    // ID\r\n    uint256 public supervisorCount;\r\n\r\n    // ID\r\n    uint256[] public teacherIds;\r\n\r\n    // ID\r\n    uint256[] public agentIds;\r\n\r\n    // ID\r\n    uint256[] public courseIds;\r\n\r\n    // ID\r\n    uint256[] public classIds;\r\n\r\n    // ID\r\n    uint256[] public supervisorIds;\r\n\r\n    // \r\n    // event CourseImportanceSet(uint256 indexed courseId, uint256 importance);\r\n    // event SuitabilityUpdated(uint256 indexed courseId, uint256 suitability);\r\n    // event PreferenceUpdated(uint256 indexed teacherId, uint256 indexed courseId, uint256 preference);\r\n    // event ProposalCreated(uint256 proposalId, uint256 indexed courseId, uint256[] teacherIds); // \r\n    // event MachineProposal(uint256 proposalId, uint256 indexed courseId, uint256[] teacherIds, uint256[] teacherCounts); // \r\n    // event CourseAssignedToTeacher(uint256 indexed courseId, uint256 indexed teacherId); // \r\n\r\n    // \r\n    constructor() {}\r\n\r\n    // \r\n    modifier onlyTeacher() {\r\n        require(\r\n            addressToTeacherId[msg.sender] != 0,\r\n            \"Only registered teachers can call this function\"\r\n        );\r\n        _;\r\n    }\r\n\r\n    // ID\r\n    function setTeacherId(address teacherAddress, uint256 _TeacherId) public {\r\n        addressToTeacherId[teacherAddress] = _TeacherId;\r\n        teachers[_TeacherId].id = _TeacherId;\r\n        teacherIds.push(_TeacherId);\r\n    }\r\n\r\n    // \r\n    function removeTeacher(uint256 teacherId) public onlyTeacher {\r\n        teachers[teacherId].id = 0;\r\n        //  teacherIds  ID\r\n        for (uint256 i = 0; i < teacherIds.length; i++) {\r\n            if (teacherIds[i] == teacherId) {\r\n                //  ID \r\n                teacherIds[i] = teacherIds[teacherIds.length - 1];\r\n                // \r\n                teacherIds.pop();\r\n                break;\r\n            }\r\n        }\r\n    }\r\n\r\n    // \r\n    function setTeacherName(\r\n        uint256 teacherId,\r\n        string calldata _name\r\n    ) public onlyTeacher {\r\n        teachers[teacherId].name = _name;\r\n    }\r\n\r\n    // \r\n    function setTeacherAddress(\r\n        uint256 teacherId,\r\n        address _teacherAddress\r\n    ) public onlyTeacher {\r\n        teachers[teacherId].addr = _teacherAddress;\r\n    }\r\n\r\n    // \r\n    function addTeacherAssignedCourses(\r\n        uint256 teacherId,\r\n        uint256 _assignedCourses\r\n    ) public {\r\n        teachers[teacherId].assignedCourses.push(_assignedCourses);\r\n    }\r\n\r\n    // \r\n    function addTeacherReallyAssignedCourses(\r\n        uint256 teacherId,\r\n        uint256 _assignedCourses\r\n    ) public {\r\n        teachers[teacherId].reallyAssignedCourses.push(_assignedCourses);\r\n    }\r\n\r\n    // \r\n    function removeTeacherAssignedCourses(\r\n        uint256 teacherId,\r\n        uint256 _assignedCourses\r\n    ) public {\r\n        bool found = false;\r\n        uint256 indexToRemove;\r\n\r\n        //  ID \r\n        for (\r\n            uint256 i = 0;\r\n            i < teachers[teacherId].assignedCourses.length;\r\n            i++\r\n        ) {\r\n            if (teachers[teacherId].assignedCourses[i] == _assignedCourses) {\r\n                found = true;\r\n                indexToRemove = i;\r\n                break;\r\n            }\r\n        }\r\n\r\n        //  ID\r\n        if (found) {\r\n            // \r\n            teachers[teacherId].assignedCourses[indexToRemove] = teachers[\r\n                teacherId\r\n            ].assignedCourses[teachers[teacherId].assignedCourses.length - 1];\r\n            // \r\n            teachers[teacherId].assignedCourses.pop();\r\n        } else {\r\n            //  ID\r\n            revert(\"Course not found\");\r\n        }\r\n    }\r\n\r\n    // \r\n    function removeTeacherReallyAssignedCourses(\r\n        uint256 teacherId,\r\n        uint256 _assignedCourses\r\n    ) public {\r\n        bool found = false;\r\n        uint256 indexToRemove;\r\n\r\n        //  ID \r\n        for (\r\n            uint256 i = 0;\r\n            i < teachers[teacherId].reallyAssignedCourses.length;\r\n            i++\r\n        ) {\r\n            if (\r\n                teachers[teacherId].reallyAssignedCourses[i] == _assignedCourses\r\n            ) {\r\n                found = true;\r\n                indexToRemove = i;\r\n                break;\r\n            }\r\n        }\r\n\r\n        //  ID\r\n        if (found) {\r\n            // \r\n            teachers[teacherId].reallyAssignedCourses[indexToRemove] = teachers[\r\n                teacherId\r\n            ].reallyAssignedCourses[\r\n                    teachers[teacherId].reallyAssignedCourses.length - 1\r\n                ];\r\n            // \r\n            teachers[teacherId].reallyAssignedCourses.pop();\r\n        } else {\r\n            //  ID\r\n            revert(\"Course not found\");\r\n        }\r\n    }\r\n\r\n    // \r\n    function setTeacherSuitabilityWeight(\r\n        uint256 teacherId,\r\n        uint256 _suitabilityWeight\r\n    ) public onlyTeacher {\r\n        totalWeight -= teachers[teacherId].suitabilityWeight;\r\n        teachers[teacherId].suitabilityWeight = _suitabilityWeight;\r\n        totalWeight += teachers[teacherId].suitabilityWeight;\r\n    }\r\n\r\n    // \r\n    function setTeacherTransferCourseCoins(\r\n        uint256 teacherId,\r\n        uint256 _transferCourseCoins\r\n    ) public onlyTeacher {\r\n        teachers[teacherId].transferCourseCoins = _transferCourseCoins;\r\n    }\r\n\r\n    // \r\n    function setTeacherValue(\r\n        uint256 teacherId,\r\n        uint256 _value\r\n    ) public onlyTeacher {\r\n        teachers[teacherId].value = _value;\r\n    }\r\n\r\n    // \r\n    function setAgentValue(uint256 agentId, uint256 _value) public {\r\n        agents[agentId].value = _value;\r\n    }\r\n\r\n    // \r\n    function setAllTeacherCourseSuitability(\r\n        uint256 teacherId,\r\n        uint256[] calldata _suitabilities\r\n    ) public onlyTeacher {\r\n        require(\r\n            _suitabilities.length == courseIds.length,\r\n            \"When setting the suitability level of courses, it is necessary to have an equal number of courses\"\r\n        );\r\n        for (\r\n            uint256 courseIndex = 0;\r\n            courseIndex < courseIds.length;\r\n            courseIndex++\r\n        ) {\r\n            teachers[teacherId].courseSuitabilities[\r\n                courseIds[courseIndex]\r\n            ] = _suitabilities[courseIndex];\r\n        }\r\n    }\r\n\r\n    // \r\n    function setTeacherCourseSuitability(\r\n        uint256 teacherId,\r\n        uint256 courseId,\r\n        uint256 _suitability\r\n    ) public {\r\n        teachers[teacherId].courseSuitabilities[courseId] = _suitability;\r\n    }\r\n\r\n    // \r\n    function setAllTeacherCoursePreferences(\r\n        uint256 teacherId,\r\n        uint256[] calldata _preferences\r\n    ) public onlyTeacher {\r\n        require(\r\n            _preferences.length == courseIds.length,\r\n            \"When setting the preference level of courses, it is necessary to have an equal number of courses\"\r\n        );\r\n        for (\r\n            uint256 courseIndex = 0;\r\n            courseIndex < courseIds.length;\r\n            courseIndex++\r\n        ) {\r\n            teachers[teacherId].coursePreferences[\r\n                courseIds[courseIndex]\r\n            ] = _preferences[courseIndex];\r\n        }\r\n    }\r\n\r\n    // \r\n    function setTeacherCoursePreferences(\r\n        uint256 teacherId,\r\n        uint256 courseId,\r\n        uint256 _preference\r\n    ) public onlyTeacher {\r\n        teachers[teacherId].coursePreferences[courseId] = _preference;\r\n    }\r\n\r\n    // ID\r\n    function setAgentId(address agentAddress, uint256 _agentId) public {\r\n        addressToAgentId[agentAddress] = _agentId;\r\n        agents[_agentId].id = _agentId;\r\n        agentIds.push(_agentId);\r\n    }\r\n\r\n    // \r\n    function removeAgent(uint256 agentId) public {\r\n        agents[agentId].id = 0;\r\n        //  agentIds  ID\r\n        for (uint256 i = 0; i < agentIds.length; i++) {\r\n            if (agentIds[i] == agentId) {\r\n                //  ID \r\n                agentIds[i] = agentIds[agentIds.length - 1];\r\n                // \r\n                agentIds.pop();\r\n                break;\r\n            }\r\n        }\r\n    }\r\n\r\n    // \r\n    function setAgentName(uint256 agentId, string calldata _name) public {\r\n        agents[agentId].name = _name;\r\n    }\r\n\r\n    // \r\n    function setAgentAddress(uint256 agentId, address _agentAddress) public {\r\n        agents[agentId].addr = _agentAddress;\r\n    }\r\n\r\n    // \r\n    function addAgentAssignedCourses(\r\n        uint256 agentId,\r\n        uint256 _assignedCourses\r\n    ) public {\r\n        agents[agentId].assignedCourses.push(_assignedCourses);\r\n    }\r\n\r\n    // \r\n    function removeAgentAssignedCourses(\r\n        uint256 agentId,\r\n        uint256 _assignedCourses\r\n    ) public {\r\n        bool found = false;\r\n        uint256 indexToRemove;\r\n\r\n        //  ID \r\n        for (uint256 i = 0; i < agents[agentId].assignedCourses.length; i++) {\r\n            if (agents[agentId].assignedCourses[i] == _assignedCourses) {\r\n                found = true;\r\n                indexToRemove = i;\r\n                break;\r\n            }\r\n        }\r\n\r\n        //  ID\r\n        if (found) {\r\n            // \r\n            agents[agentId].assignedCourses[indexToRemove] = agents[agentId]\r\n                .assignedCourses[agents[agentId].assignedCourses.length - 1];\r\n            // \r\n            agents[agentId].assignedCourses.pop();\r\n        } else {\r\n            //  ID\r\n            revert(\"Course not found\");\r\n        }\r\n    }\r\n\r\n    // \r\n    function setAgentCourseSuitability(\r\n        uint256 agentId,\r\n        uint256 _courseId,\r\n        uint256 _suitability\r\n    ) public {\r\n        agents[agentId].courseSuitabilities[_courseId] = _suitability;\r\n    }\r\n\r\n    // \r\n    function setAllAgentCourseSuitability(\r\n        uint256 agentId,\r\n        uint256[] calldata _suitabilities\r\n    ) public {\r\n        require(\r\n            _suitabilities.length == courseIds.length,\r\n            \"When setting the suitability level of courses, it is necessary to have an equal number of courses\"\r\n        );\r\n        for (\r\n            uint256 courseIndex = 0;\r\n            courseIndex < courseIds.length;\r\n            courseIndex++\r\n        ) {\r\n            agents[agentId].courseSuitabilities[\r\n                courseIds[courseIndex]\r\n            ] = _suitabilities[courseIndex];\r\n        }\r\n    }\r\n\r\n    // ID\r\n    function setClassId(address classAddress, uint256 _id) public {\r\n        addressToClassId[classAddress] = _id;\r\n        classIds.push(_id);\r\n    }\r\n\r\n    // \r\n    function removeClass(uint256 classId) public {\r\n        //  classIds  ID\r\n        for (uint256 i = 0; i < classIds.length; i++) {\r\n            if (classIds[i] == classId) {\r\n                //  ID \r\n                classIds[i] = classIds[classIds.length - 1];\r\n                // \r\n                classIds.pop();\r\n                break;\r\n            }\r\n        }\r\n    }\r\n\r\n    // ID\r\n    function setCourseId(uint256 courseId) public {\r\n        courses[courseId].id = courseId;\r\n        courseIds.push(courseId);\r\n        courseCount++;\r\n    }\r\n\r\n    // \r\n    function removeCourse(uint256 courseId) public {\r\n        //  classIds  ID\r\n        for (uint256 i = 0; i < courseIds.length; i++) {\r\n            if (courseIds[i] == courseId) {\r\n                //  ID \r\n                courseIds[i] = courseIds[courseIds.length - 1];\r\n                // \r\n                courseIds.pop();\r\n                courseCount--;\r\n                break;\r\n            }\r\n        }\r\n    }\r\n\r\n    // \r\n    function setCourseName(uint256 courseId, string calldata _name) public {\r\n        courses[courseId].name = _name;\r\n    }\r\n\r\n    // \r\n    function setCourseImportance(uint256 courseId, uint256 _importance) public {\r\n        courses[courseId].importance = _importance;\r\n    }\r\n\r\n    // \r\n    function setAllCourseImportance(uint256[] memory _importances) public {\r\n        require(\r\n            _importances.length == courseIds.length,\r\n            \"must update all course suitability\"\r\n        );\r\n        // \r\n        for (\r\n            uint256 courseIndex = 0;\r\n            courseIndex < courseIds.length;\r\n            courseIndex++\r\n        ) {\r\n            courses[courseIds[courseIndex]].importance = _importances[\r\n                courseIndex\r\n            ];\r\n        }\r\n    }\r\n\r\n    // ID\r\n    function addCourseAssignedTeacherId(\r\n        uint256 courseId,\r\n        uint256 _teacherId\r\n    ) public {\r\n        courses[courseId].assignedTeacherId.push(_teacherId);\r\n    }\r\n\r\n    // ID\r\n    function addCourseAssignedAgentId(\r\n        uint256 courseId,\r\n        uint256 _agentId\r\n    ) public {\r\n        courses[courseId].assignedAgentId.push(_agentId);\r\n    }\r\n\r\n    // \r\n    function removeCourseAssignedTeacherId(\r\n        uint256 courseId,\r\n        uint256 _teacherId\r\n    ) public {\r\n        bool found = false;\r\n        uint256 indexToRemove;\r\n\r\n        //  ID \r\n        for (\r\n            uint256 i = 0;\r\n            i < courses[courseId].assignedTeacherId.length;\r\n            i++\r\n        ) {\r\n            if (courses[courseId].assignedTeacherId[i] == _teacherId) {\r\n                found = true;\r\n                indexToRemove = i;\r\n                break;\r\n            }\r\n        }\r\n\r\n        //  ID\r\n        if (found) {\r\n            // \r\n            courses[courseId].assignedTeacherId[indexToRemove] = courses[\r\n                courseId\r\n            ].assignedTeacherId[courses[courseId].assignedTeacherId.length - 1];\r\n            // \r\n            courses[courseId].assignedTeacherId.pop();\r\n        } else {\r\n            //  ID\r\n            revert(\"Course not found\");\r\n        }\r\n    }\r\n\r\n    // \r\n    function removeCourseAssignedAgentId(\r\n        uint256 courseId,\r\n        uint256 _agentId\r\n    ) public {\r\n        bool found = false;\r\n        uint256 indexToRemove;\r\n\r\n        //  ID \r\n        for (uint256 i = 0; i < courses[courseId].assignedAgentId.length; i++) {\r\n            if (courses[courseId].assignedAgentId[i] == _agentId) {\r\n                found = true;\r\n                indexToRemove = i;\r\n                break;\r\n            }\r\n        }\r\n\r\n        //  ID\r\n        if (found) {\r\n            // \r\n            courses[courseId].assignedAgentId[indexToRemove] = courses[courseId]\r\n                .assignedAgentId[courses[courseId].assignedAgentId.length - 1];\r\n            // \r\n            courses[courseId].assignedAgentId.pop();\r\n        } else {\r\n            //  ID\r\n            revert(\"Course not found\");\r\n        }\r\n    }\r\n\r\n    // \r\n    function setCourseIsAgentSuitable(\r\n        uint256 courseId,\r\n        bool _isAgentSuitable\r\n    ) public {\r\n        courses[courseId].isAgentSuitable = _isAgentSuitable;\r\n    }\r\n\r\n    // \r\n    function setTeacherCount(uint256 _teacherCount) public {\r\n        teacherCount = _teacherCount;\r\n    }\r\n\r\n    // \r\n    function setAgentCount(uint256 _agentCount) public {\r\n        agentCount = _agentCount;\r\n    }\r\n\r\n    // \r\n    function setClassCount(uint256 _classCount) public {\r\n        classCount = _classCount;\r\n    }\r\n\r\n    // \r\n    function setCourseCount(uint256 _courseCount) public {\r\n        courseCount = _courseCount;\r\n    }\r\n\r\n    // \r\n    function getTeacherSuitability(\r\n        uint256 _teacherId,\r\n        uint256 courseId\r\n    ) public view returns (uint256) {\r\n        return teachers[_teacherId].courseSuitabilities[courseId];\r\n    }\r\n\r\n    // \r\n    function getAgentSuitability(\r\n        uint256 _agentId,\r\n        uint256 courseId\r\n    ) public view returns (uint256) {\r\n        return agents[_agentId].courseSuitabilities[courseId];\r\n    }\r\n\r\n    // \r\n    function getPreference(\r\n        uint256 _teacherId,\r\n        uint256 courseId\r\n    ) public view returns (uint256) {\r\n        return teachers[_teacherId].coursePreferences[courseId];\r\n    }\r\n\r\n    // \r\n    function getTeacherAssignedCourses(\r\n        uint256 _teacherId\r\n    ) public view returns (uint256[] memory) {\r\n        return teachers[_teacherId].assignedCourses;\r\n    }\r\n\r\n    // \r\n    function getTeacherReallyAssignedCourses(\r\n        uint256 _teacherId\r\n    ) public view returns (uint256[] memory) {\r\n        return teachers[_teacherId].reallyAssignedCourses;\r\n    }\r\n\r\n    // \r\n    function getAgentAssignedCourses(\r\n        uint256 _agentId\r\n    ) public view returns (uint256[] memory) {\r\n        return agents[_agentId].assignedCourses;\r\n    }\r\n\r\n    // \r\n    function getCoursesAssignedTeacher(\r\n        uint256 _courseId\r\n    ) public view returns (uint256[] memory) {\r\n        return courses[_courseId].assignedTeacherId;\r\n    }\r\n\r\n    // \r\n    function getCoursesAssignedAgent(\r\n        uint256 _courseId\r\n    ) public view returns (uint256[] memory) {\r\n        return courses[_courseId].assignedAgentId;\r\n    }\r\n\r\n    function getTeacherIds() public view returns (uint256[] memory) {\r\n        return teacherIds;\r\n    }\r\n\r\n    function getAgentIds() public view returns (uint256[] memory) {\r\n        return agentIds;\r\n    }\r\n\r\n    function getCourseIds() public view returns (uint256[] memory) {\r\n        return courseIds;\r\n    }\r\n\r\n    function getClassIds() public view returns (uint256[] memory) {\r\n        return classIds;\r\n    }\r\n\r\n    function addCourseClassScores(\r\n        uint256 courseId,\r\n        uint256 classId,\r\n        uint256 score\r\n    ) public {\r\n        require(\r\n            courseScores[courseId].giveScoreClassIdExists[classId] == 0,\r\n            unicode\"\"\r\n        );\r\n        courseScores[courseId].giveScoreClassIdExists[classId] = score;\r\n        courseScores[courseId].classScores.push(score);\r\n    }\r\n\r\n    function getCourseClassScores(\r\n        uint256 courseId\r\n    ) public view returns (uint256[] memory) {\r\n        return courseScores[courseId].classScores;\r\n    }\r\n\r\n    function setCourseSelfScore(uint256 courseId, uint256 score) public {\r\n        courseScores[courseId].selfScore = score;\r\n    }\r\n\r\n    function setCourseTotalScore(uint256 courseId, uint256 score) public {\r\n        courseScores[courseId].totalScore = score;\r\n    }\r\n\r\n    function addCourseSupervisorScores(\r\n        uint256 courseId,\r\n        uint256 supervisorId,\r\n        uint256 score\r\n    ) public {\r\n        require(\r\n            courseScores[courseId].giveScoreSupervisorIdExists[supervisorId] ==\r\n                0,\r\n            unicode\"\"\r\n        );\r\n        courseScores[courseId].giveScoreSupervisorIdExists[\r\n            supervisorId\r\n        ] = score;\r\n        courseScores[courseId].supervisorScores.push(score);\r\n    }\r\n\r\n    function getCourseSupervisorScores(\r\n        uint256 courseId\r\n    ) public view returns (uint256[] memory) {\r\n        return courseScores[courseId].supervisorScores;\r\n    }\r\n\r\n    function addSupervisorId(uint256 supervisorId) public {\r\n        supervisorIds.push(supervisorId);\r\n        supervisorCount++;\r\n    }\r\n\r\n    function getSupervisorIds() public view returns (uint256[] memory) {\r\n        return supervisorIds;\r\n    }\r\n\r\n    function setSupervisorId(address supervisor, uint256 supervisorId) public {\r\n        addressToSupervisorId[supervisor] = supervisorId;\r\n        supervisors[supervisorId].id = supervisorId;\r\n        supervisors[supervisorId].addr = supervisor;\r\n    }\r\n\r\n    function setSupervisorName(\r\n        uint256 supervisorId,\r\n        string calldata _name\r\n    ) public {\r\n        supervisors[supervisorId].name = _name;\r\n    }\r\n\r\n    function setSupervisorsCourseScore(\r\n        uint256 supervisorId,\r\n        uint256 courseId,\r\n        uint256 score\r\n    ) public {\r\n        supervisors[supervisorId].courseScores[courseId] = score;\r\n    }\r\n}\r\n",
  "sourcePath": "E:\\dao\\327\\Course-allocation\\project\\contracts\\ICourseAllocation.sol",
  "compiler": {
    "name": "solc",
    "version": "0.8.7+commit.e28d00a7.Emscripten.clang"
  },
  "schemaVersion": "3.4.16",
  "updatedAt": "2025-04-06T07:16:33.733Z",
  "networkType": "ethereum",
  "devdoc": {
    "kind": "dev",
    "methods": {},
    "version": 1
  },
  "userdoc": {
    "kind": "user",
    "methods": {},
    "version": 1
  }
}