{
  "contractName": "ICourseAllocation",
  "abi": [
    {
      "inputs": [],
      "stateMutability": "nonpayable",
      "type": "constructor"
    },
    {
      "inputs": [
        {
          "internalType": "address",
          "name": "",
          "type": "address"
        }
      ],
      "name": "addressToAgentId",
      "outputs": [
        {
          "internalType": "uint256",
          "name": "",
          "type": "uint256"
        }
      ],
      "stateMutability": "view",
      "type": "function",
      "constant": true
    },
    {
      "inputs": [
        {
          "internalType": "address",
          "name": "",
          "type": "address"
        }
      ],
      "name": "addressToClassId",
      "outputs": [
        {
          "internalType": "uint256",
          "name": "",
          "type": "uint256"
        }
      ],
      "stateMutability": "view",
      "type": "function",
      "constant": true
    },
    {
      "inputs": [
        {
          "internalType": "address",
          "name": "",
          "type": "address"
        }
      ],
      "name": "addressToSupervisorId",
      "outputs": [
        {
          "internalType": "uint256",
          "name": "",
          "type": "uint256"
        }
      ],
      "stateMutability": "view",
      "type": "function",
      "constant": true
    },
    {
      "inputs": [
        {
          "internalType": "address",
          "name": "",
          "type": "address"
        }
      ],
      "name": "addressToTeacherId",
      "outputs": [
        {
          "internalType": "uint256",
          "name": "",
          "type": "uint256"
        }
      ],
      "stateMutability": "view",
      "type": "function",
      "constant": true
    },
    {
      "inputs": [],
      "name": "agentCount",
      "outputs": [
        {
          "internalType": "uint256",
          "name": "",
          "type": "uint256"
        }
      ],
      "stateMutability": "view",
      "type": "function",
      "constant": true
    },
    {
      "inputs": [
        {
          "internalType": "uint256",
          "name": "",
          "type": "uint256"
        }
      ],
      "name": "agentIds",
      "outputs": [
        {
          "internalType": "uint256",
          "name": "",
          "type": "uint256"
        }
      ],
      "stateMutability": "view",
      "type": "function",
      "constant": true
    },
    {
      "inputs": [
        {
          "internalType": "uint256",
          "name": "",
          "type": "uint256"
        }
      ],
      "name": "agents",
      "outputs": [
        {
          "internalType": "uint256",
          "name": "id",
          "type": "uint256"
        },
        {
          "internalType": "string",
          "name": "name",
          "type": "string"
        },
        {
          "internalType": "address",
          "name": "addr",
          "type": "address"
        },
        {
          "internalType": "uint256",
          "name": "value",
          "type": "uint256"
        }
      ],
      "stateMutability": "view",
      "type": "function",
      "constant": true
    },
    {
      "inputs": [],
      "name": "classCount",
      "outputs": [
        {
          "internalType": "uint256",
          "name": "",
          "type": "uint256"
        }
      ],
      "stateMutability": "view",
      "type": "function",
      "constant": true
    },
    {
      "inputs": [
        {
          "internalType": "uint256",
          "name": "",
          "type": "uint256"
        }
      ],
      "name": "classIds",
      "outputs": [
        {
          "internalType": "uint256",
          "name": "",
          "type": "uint256"
        }
      ],
      "stateMutability": "view",
      "type": "function",
      "constant": true
    },
    {
      "inputs": [],
      "name": "courseCount",
      "outputs": [
        {
          "internalType": "uint256",
          "name": "",
          "type": "uint256"
        }
      ],
      "stateMutability": "view",
      "type": "function",
      "constant": true
    },
    {
      "inputs": [
        {
          "internalType": "uint256",
          "name": "",
          "type": "uint256"
        }
      ],
      "name": "courseIds",
      "outputs": [
        {
          "internalType": "uint256",
          "name": "",
          "type": "uint256"
        }
      ],
      "stateMutability": "view",
      "type": "function",
      "constant": true
    },
    {
      "inputs": [
        {
          "internalType": "uint256",
          "name": "",
          "type": "uint256"
        }
      ],
      "name": "courseScores",
      "outputs": [
        {
          "internalType": "uint256",
          "name": "id",
          "type": "uint256"
        },
        {
          "internalType": "uint256",
          "name": "totalScore",
          "type": "uint256"
        },
        {
          "internalType": "uint256",
          "name": "selfScore",
          "type": "uint256"
        }
      ],
      "stateMutability": "view",
      "type": "function",
      "constant": true
    },
    {
      "inputs": [
        {
          "internalType": "uint256",
          "name": "",
          "type": "uint256"
        }
      ],
      "name": "courses",
      "outputs": [
        {
          "internalType": "uint256",
          "name": "id",
          "type": "uint256"
        },
        {
          "internalType": "string",
          "name": "name",
          "type": "string"
        },
        {
          "internalType": "uint256",
          "name": "importance",
          "type": "uint256"
        },
        {
          "internalType": "bool",
          "name": "isAgentSuitable",
          "type": "bool"
        }
      ],
      "stateMutability": "view",
      "type": "function",
      "constant": true
    },
    {
      "inputs": [],
      "name": "supervisorCount",
      "outputs": [
        {
          "internalType": "uint256",
          "name": "",
          "type": "uint256"
        }
      ],
      "stateMutability": "view",
      "type": "function",
      "constant": true
    },
    {
      "inputs": [
        {
          "internalType": "uint256",
          "name": "",
          "type": "uint256"
        }
      ],
      "name": "supervisorIds",
      "outputs": [
        {
          "internalType": "uint256",
          "name": "",
          "type": "uint256"
        }
      ],
      "stateMutability": "view",
      "type": "function",
      "constant": true
    },
    {
      "inputs": [
        {
          "internalType": "uint256",
          "name": "",
          "type": "uint256"
        }
      ],
      "name": "supervisors",
      "outputs": [
        {
          "internalType": "uint256",
          "name": "id",
          "type": "uint256"
        },
        {
          "internalType": "string",
          "name": "name",
          "type": "string"
        },
        {
          "internalType": "address",
          "name": "addr",
          "type": "address"
        }
      ],
      "stateMutability": "view",
      "type": "function",
      "constant": true
    },
    {
      "inputs": [],
      "name": "teacherCount",
      "outputs": [
        {
          "internalType": "uint256",
          "name": "",
          "type": "uint256"
        }
      ],
      "stateMutability": "view",
      "type": "function",
      "constant": true
    },
    {
      "inputs": [
        {
          "internalType": "uint256",
          "name": "",
          "type": "uint256"
        }
      ],
      "name": "teacherIds",
      "outputs": [
        {
          "internalType": "uint256",
          "name": "",
          "type": "uint256"
        }
      ],
      "stateMutability": "view",
      "type": "function",
      "constant": true
    },
    {
      "inputs": [
        {
          "internalType": "uint256",
          "name": "",
          "type": "uint256"
        }
      ],
      "name": "teachers",
      "outputs": [
        {
          "internalType": "uint256",
          "name": "id",
          "type": "uint256"
        },
        {
          "internalType": "string",
          "name": "name",
          "type": "string"
        },
        {
          "internalType": "address",
          "name": "addr",
          "type": "address"
        },
        {
          "internalType": "uint256",
          "name": "suitabilityWeight",
          "type": "uint256"
        },
        {
          "internalType": "uint256",
          "name": "transferCourseCoins",
          "type": "uint256"
        },
        {
          "internalType": "uint256",
          "name": "value",
          "type": "uint256"
        }
      ],
      "stateMutability": "view",
      "type": "function",
      "constant": true
    },
    {
      "inputs": [],
      "name": "totalWeight",
      "outputs": [
        {
          "internalType": "uint256",
          "name": "",
          "type": "uint256"
        }
      ],
      "stateMutability": "view",
      "type": "function",
      "constant": true
    },
    {
      "inputs": [
        {
          "internalType": "address",
          "name": "teacherAddress",
          "type": "address"
        },
        {
          "internalType": "uint256",
          "name": "_TeacherId",
          "type": "uint256"
        }
      ],
      "name": "setTeacherId",
      "outputs": [],
      "stateMutability": "nonpayable",
      "type": "function"
    },
    {
      "inputs": [
        {
          "internalType": "uint256",
          "name": "teacherId",
          "type": "uint256"
        }
      ],
      "name": "removeTeacher",
      "outputs": [],
      "stateMutability": "nonpayable",
      "type": "function"
    },
    {
      "inputs": [
        {
          "internalType": "uint256",
          "name": "teacherId",
          "type": "uint256"
        },
        {
          "internalType": "string",
          "name": "_name",
          "type": "string"
        }
      ],
      "name": "setTeacherName",
      "outputs": [],
      "stateMutability": "nonpayable",
      "type": "function"
    },
    {
      "inputs": [
        {
          "internalType": "uint256",
          "name": "teacherId",
          "type": "uint256"
        },
        {
          "internalType": "address",
          "name": "_teacherAddress",
          "type": "address"
        }
      ],
      "name": "setTeacherAddress",
      "outputs": [],
      "stateMutability": "nonpayable",
      "type": "function"
    },
    {
      "inputs": [
        {
          "internalType": "uint256",
          "name": "teacherId",
          "type": "uint256"
        },
        {
          "internalType": "uint256",
          "name": "_assignedCourses",
          "type": "uint256"
        }
      ],
      "name": "addTeacherAssignedCourses",
      "outputs": [],
      "stateMutability": "nonpayable",
      "type": "function"
    },
    {
      "inputs": [
        {
          "internalType": "uint256",
          "name": "teacherId",
          "type": "uint256"
        },
        {
          "internalType": "uint256",
          "name": "_assignedCourses",
          "type": "uint256"
        }
      ],
      "name": "addTeacherReallyAssignedCourses",
      "outputs": [],
      "stateMutability": "nonpayable",
      "type": "function"
    },
    {
      "inputs": [
        {
          "internalType": "uint256",
          "name": "teacherId",
          "type": "uint256"
        },
        {
          "internalType": "uint256",
          "name": "_assignedCourses",
          "type": "uint256"
        }
      ],
      "name": "removeTeacherAssignedCourses",
      "outputs": [],
      "stateMutability": "nonpayable",
      "type": "function"
    },
    {
      "inputs": [
        {
          "internalType": "uint256",
          "name": "teacherId",
          "type": "uint256"
        },
        {
          "internalType": "uint256",
          "name": "_assignedCourses",
          "type": "uint256"
        }
      ],
      "name": "removeTeacherReallyAssignedCourses",
      "outputs": [],
      "stateMutability": "nonpayable",
      "type": "function"
    },
    {
      "inputs": [
        {
          "internalType": "uint256",
          "name": "teacherId",
          "type": "uint256"
        },
        {
          "internalType": "uint256",
          "name": "_suitabilityWeight",
          "type": "uint256"
        }
      ],
      "name": "setTeacherSuitabilityWeight",
      "outputs": [],
      "stateMutability": "nonpayable",
      "type": "function"
    },
    {
      "inputs": [
        {
          "internalType": "uint256",
          "name": "teacherId",
          "type": "uint256"
        },
        {
          "internalType": "uint256",
          "name": "_transferCourseCoins",
          "type": "uint256"
        }
      ],
      "name": "setTeacherTransferCourseCoins",
      "outputs": [],
      "stateMutability": "nonpayable",
      "type": "function"
    },
    {
      "inputs": [
        {
          "internalType": "uint256",
          "name": "teacherId",
          "type": "uint256"
        },
        {
          "internalType": "uint256",
          "name": "_value",
          "type": "uint256"
        }
      ],
      "name": "setTeacherValue",
      "outputs": [],
      "stateMutability": "nonpayable",
      "type": "function"
    },
    {
      "inputs": [
        {
          "internalType": "uint256",
          "name": "agentId",
          "type": "uint256"
        },
        {
          "internalType": "uint256",
          "name": "_value",
          "type": "uint256"
        }
      ],
      "name": "setAgentValue",
      "outputs": [],
      "stateMutability": "nonpayable",
      "type": "function"
    },
    {
      "inputs": [
        {
          "internalType": "uint256",
          "name": "teacherId",
          "type": "uint256"
        },
        {
          "internalType": "uint256[]",
          "name": "_suitabilities",
          "type": "uint256[]"
        }
      ],
      "name": "setAllTeacherCourseSuitability",
      "outputs": [],
      "stateMutability": "nonpayable",
      "type": "function"
    },
    {
      "inputs": [
        {
          "internalType": "uint256",
          "name": "teacherId",
          "type": "uint256"
        },
        {
          "internalType": "uint256",
          "name": "courseId",
          "type": "uint256"
        },
        {
          "internalType": "uint256",
          "name": "_suitability",
          "type": "uint256"
        }
      ],
      "name": "setTeacherCourseSuitability",
      "outputs": [],
      "stateMutability": "nonpayable",
      "type": "function"
    },
    {
      "inputs": [
        {
          "internalType": "uint256",
          "name": "teacherId",
          "type": "uint256"
        },
        {
          "internalType": "uint256[]",
          "name": "_preferences",
          "type": "uint256[]"
        }
      ],
      "name": "setAllTeacherCoursePreferences",
      "outputs": [],
      "stateMutability": "nonpayable",
      "type": "function"
    },
    {
      "inputs": [
        {
          "internalType": "uint256",
          "name": "teacherId",
          "type": "uint256"
        },
        {
          "internalType": "uint256",
          "name": "courseId",
          "type": "uint256"
        },
        {
          "internalType": "uint256",
          "name": "_preference",
          "type": "uint256"
        }
      ],
      "name": "setTeacherCoursePreferences",
      "outputs": [],
      "stateMutability": "nonpayable",
      "type": "function"
    },
    {
      "inputs": [
        {
          "internalType": "address",
          "name": "agentAddress",
          "type": "address"
        },
        {
          "internalType": "uint256",
          "name": "_agentId",
          "type": "uint256"
        }
      ],
      "name": "setAgentId",
      "outputs": [],
      "stateMutability": "nonpayable",
      "type": "function"
    },
    {
      "inputs": [
        {
          "internalType": "uint256",
          "name": "agentId",
          "type": "uint256"
        }
      ],
      "name": "removeAgent",
      "outputs": [],
      "stateMutability": "nonpayable",
      "type": "function"
    },
    {
      "inputs": [
        {
          "internalType": "uint256",
          "name": "agentId",
          "type": "uint256"
        },
        {
          "internalType": "string",
          "name": "_name",
          "type": "string"
        }
      ],
      "name": "setAgentName",
      "outputs": [],
      "stateMutability": "nonpayable",
      "type": "function"
    },
    {
      "inputs": [
        {
          "internalType": "uint256",
          "name": "agentId",
          "type": "uint256"
        },
        {
          "internalType": "address",
          "name": "_agentAddress",
          "type": "address"
        }
      ],
      "name": "setAgentAddress",
      "outputs": [],
      "stateMutability": "nonpayable",
      "type": "function"
    },
    {
      "inputs": [
        {
          "internalType": "uint256",
          "name": "agentId",
          "type": "uint256"
        },
        {
          "internalType": "uint256",
          "name": "_assignedCourses",
          "type": "uint256"
        }
      ],
      "name": "addAgentAssignedCourses",
      "outputs": [],
      "stateMutability": "nonpayable",
      "type": "function"
    },
    {
      "inputs": [
        {
          "internalType": "uint256",
          "name": "agentId",
          "type": "uint256"
        },
        {
          "internalType": "uint256",
          "name": "_assignedCourses",
          "type": "uint256"
        }
      ],
      "name": "removeAgentAssignedCourses",
      "outputs": [],
      "stateMutability": "nonpayable",
      "type": "function"
    },
    {
      "inputs": [
        {
          "internalType": "uint256",
          "name": "agentId",
          "type": "uint256"
        },
        {
          "internalType": "uint256",
          "name": "_courseId",
          "type": "uint256"
        },
        {
          "internalType": "uint256",
          "name": "_suitability",
          "type": "uint256"
        }
      ],
      "name": "setAgentCourseSuitability",
      "outputs": [],
      "stateMutability": "nonpayable",
      "type": "function"
    },
    {
      "inputs": [
        {
          "internalType": "uint256",
          "name": "agentId",
          "type": "uint256"
        },
        {
          "internalType": "uint256[]",
          "name": "_suitabilities",
          "type": "uint256[]"
        }
      ],
      "name": "setAllAgentCourseSuitability",
      "outputs": [],
      "stateMutability": "nonpayable",
      "type": "function"
    },
    {
      "inputs": [
        {
          "internalType": "address",
          "name": "classAddress",
          "type": "address"
        },
        {
          "internalType": "uint256",
          "name": "_id",
          "type": "uint256"
        }
      ],
      "name": "setClassId",
      "outputs": [],
      "stateMutability": "nonpayable",
      "type": "function"
    },
    {
      "inputs": [
        {
          "internalType": "uint256",
          "name": "classId",
          "type": "uint256"
        }
      ],
      "name": "removeClass",
      "outputs": [],
      "stateMutability": "nonpayable",
      "type": "function"
    },
    {
      "inputs": [
        {
          "internalType": "uint256",
          "name": "courseId",
          "type": "uint256"
        }
      ],
      "name": "setCourseId",
      "outputs": [],
      "stateMutability": "nonpayable",
      "type": "function"
    },
    {
      "inputs": [
        {
          "internalType": "uint256",
          "name": "courseId",
          "type": "uint256"
        }
      ],
      "name": "removeCourse",
      "outputs": [],
      "stateMutability": "nonpayable",
      "type": "function"
    },
    {
      "inputs": [
        {
          "internalType": "uint256",
          "name": "courseId",
          "type": "uint256"
        },
        {
          "internalType": "string",
          "name": "_name",
          "type": "string"
        }
      ],
      "name": "setCourseName",
      "outputs": [],
      "stateMutability": "nonpayable",
      "type": "function"
    },
    {
      "inputs": [
        {
          "internalType": "uint256",
          "name": "courseId",
          "type": "uint256"
        },
        {
          "internalType": "uint256",
          "name": "_importance",
          "type": "uint256"
        }
      ],
      "name": "setCourseImportance",
      "outputs": [],
      "stateMutability": "nonpayable",
      "type": "function"
    },
    {
      "inputs": [
        {
          "internalType": "uint256[]",
          "name": "_importances",
          "type": "uint256[]"
        }
      ],
      "name": "setAllCourseImportance",
      "outputs": [],
      "stateMutability": "nonpayable",
      "type": "function"
    },
    {
      "inputs": [
        {
          "internalType": "uint256",
          "name": "courseId",
          "type": "uint256"
        },
        {
          "internalType": "uint256",
          "name": "_teacherId",
          "type": "uint256"
        }
      ],
      "name": "addCourseAssignedTeacherId",
      "outputs": [],
      "stateMutability": "nonpayable",
      "type": "function"
    },
    {
      "inputs": [
        {
          "internalType": "uint256",
          "name": "courseId",
          "type": "uint256"
        },
        {
          "internalType": "uint256",
          "name": "_agentId",
          "type": "uint256"
        }
      ],
      "name": "addCourseAssignedAgentId",
      "outputs": [],
      "stateMutability": "nonpayable",
      "type": "function"
    },
    {
      "inputs": [
        {
          "internalType": "uint256",
          "name": "courseId",
          "type": "uint256"
        },
        {
          "internalType": "uint256",
          "name": "_teacherId",
          "type": "uint256"
        }
      ],
      "name": "removeCourseAssignedTeacherId",
      "outputs": [],
      "stateMutability": "nonpayable",
      "type": "function"
    },
    {
      "inputs": [
        {
          "internalType": "uint256",
          "name": "courseId",
          "type": "uint256"
        },
        {
          "internalType": "uint256",
          "name": "_agentId",
          "type": "uint256"
        }
      ],
      "name": "removeCourseAssignedAgentId",
      "outputs": [],
      "stateMutability": "nonpayable",
      "type": "function"
    },
    {
      "inputs": [
        {
          "internalType": "uint256",
          "name": "courseId",
          "type": "uint256"
        },
        {
          "internalType": "bool",
          "name": "_isAgentSuitable",
          "type": "bool"
        }
      ],
      "name": "setCourseIsAgentSuitable",
      "outputs": [],
      "stateMutability": "nonpayable",
      "type": "function"
    },
    {
      "inputs": [
        {
          "internalType": "uint256",
          "name": "_teacherCount",
          "type": "uint256"
        }
      ],
      "name": "setTeacherCount",
      "outputs": [],
      "stateMutability": "nonpayable",
      "type": "function"
    },
    {
      "inputs": [
        {
          "internalType": "uint256",
          "name": "_agentCount",
          "type": "uint256"
        }
      ],
      "name": "setAgentCount",
      "outputs": [],
      "stateMutability": "nonpayable",
      "type": "function"
    },
    {
      "inputs": [
        {
          "internalType": "uint256",
          "name": "_classCount",
          "type": "uint256"
        }
      ],
      "name": "setClassCount",
      "outputs": [],
      "stateMutability": "nonpayable",
      "type": "function"
    },
    {
      "inputs": [
        {
          "internalType": "uint256",
          "name": "_courseCount",
          "type": "uint256"
        }
      ],
      "name": "setCourseCount",
      "outputs": [],
      "stateMutability": "nonpayable",
      "type": "function"
    },
    {
      "inputs": [
        {
          "internalType": "uint256",
          "name": "_teacherId",
          "type": "uint256"
        },
        {
          "internalType": "uint256",
          "name": "courseId",
          "type": "uint256"
        }
      ],
      "name": "getTeacherSuitability",
      "outputs": [
        {
          "internalType": "uint256",
          "name": "",
          "type": "uint256"
        }
      ],
      "stateMutability": "view",
      "type": "function",
      "constant": true
    },
    {
      "inputs": [
        {
          "internalType": "uint256",
          "name": "_agentId",
          "type": "uint256"
        },
        {
          "internalType": "uint256",
          "name": "courseId",
          "type": "uint256"
        }
      ],
      "name": "getAgentSuitability",
      "outputs": [
        {
          "internalType": "uint256",
          "name": "",
          "type": "uint256"
        }
      ],
      "stateMutability": "view",
      "type": "function",
      "constant": true
    },
    {
      "inputs": [
        {
          "internalType": "uint256",
          "name": "_teacherId",
          "type": "uint256"
        },
        {
          "internalType": "uint256",
          "name": "courseId",
          "type": "uint256"
        }
      ],
      "name": "getPreference",
      "outputs": [
        {
          "internalType": "uint256",
          "name": "",
          "type": "uint256"
        }
      ],
      "stateMutability": "view",
      "type": "function",
      "constant": true
    },
    {
      "inputs": [
        {
          "internalType": "uint256",
          "name": "_teacherId",
          "type": "uint256"
        }
      ],
      "name": "getTeacherAssignedCourses",
      "outputs": [
        {
          "internalType": "uint256[]",
          "name": "",
          "type": "uint256[]"
        }
      ],
      "stateMutability": "view",
      "type": "function",
      "constant": true
    },
    {
      "inputs": [
        {
          "internalType": "uint256",
          "name": "_teacherId",
          "type": "uint256"
        }
      ],
      "name": "getTeacherReallyAssignedCourses",
      "outputs": [
        {
          "internalType": "uint256[]",
          "name": "",
          "type": "uint256[]"
        }
      ],
      "stateMutability": "view",
      "type": "function",
      "constant": true
    },
    {
      "inputs": [
        {
          "internalType": "uint256",
          "name": "_agentId",
          "type": "uint256"
        }
      ],
      "name": "getAgentAssignedCourses",
      "outputs": [
        {
          "internalType": "uint256[]",
          "name": "",
          "type": "uint256[]"
        }
      ],
      "stateMutability": "view",
      "type": "function",
      "constant": true
    },
    {
      "inputs": [
        {
          "internalType": "uint256",
          "name": "_courseId",
          "type": "uint256"
        }
      ],
      "name": "getCoursesAssignedTeacher",
      "outputs": [
        {
          "internalType": "uint256[]",
          "name": "",
          "type": "uint256[]"
        }
      ],
      "stateMutability": "view",
      "type": "function",
      "constant": true
    },
    {
      "inputs": [
        {
          "internalType": "uint256",
          "name": "_courseId",
          "type": "uint256"
        }
      ],
      "name": "getCoursesAssignedAgent",
      "outputs": [
        {
          "internalType": "uint256[]",
          "name": "",
          "type": "uint256[]"
        }
      ],
      "stateMutability": "view",
      "type": "function",
      "constant": true
    },
    {
      "inputs": [],
      "name": "getTeacherIds",
      "outputs": [
        {
          "internalType": "uint256[]",
          "name": "",
          "type": "uint256[]"
        }
      ],
      "stateMutability": "view",
      "type": "function",
      "constant": true
    },
    {
      "inputs": [],
      "name": "getAgentIds",
      "outputs": [
        {
          "internalType": "uint256[]",
          "name": "",
          "type": "uint256[]"
        }
      ],
      "stateMutability": "view",
      "type": "function",
      "constant": true
    },
    {
      "inputs": [],
      "name": "getCourseIds",
      "outputs": [
        {
          "internalType": "uint256[]",
          "name": "",
          "type": "uint256[]"
        }
      ],
      "stateMutability": "view",
      "type": "function",
      "constant": true
    },
    {
      "inputs": [],
      "name": "getClassIds",
      "outputs": [
        {
          "internalType": "uint256[]",
          "name": "",
          "type": "uint256[]"
        }
      ],
      "stateMutability": "view",
      "type": "function",
      "constant": true
    },
    {
      "inputs": [
        {
          "internalType": "uint256",
          "name": "courseId",
          "type": "uint256"
        },
        {
          "internalType": "uint256",
          "name": "classId",
          "type": "uint256"
        },
        {
          "internalType": "uint256",
          "name": "score",
          "type": "uint256"
        }
      ],
      "name": "addCourseClassScores",
      "outputs": [],
      "stateMutability": "nonpayable",
      "type": "function"
    },
    {
      "inputs": [
        {
          "internalType": "uint256",
          "name": "courseId",
          "type": "uint256"
        },
        {
          "internalType": "uint256",
          "name": "classId",
          "type": "uint256"
        }
      ],
      "name": "getGiveScoreClassIdExists",
      "outputs": [
        {
          "internalType": "uint256",
          "name": "",
          "type": "uint256"
        }
      ],
      "stateMutability": "view",
      "type": "function",
      "constant": true
    },
    {
      "inputs": [
        {
          "internalType": "uint256",
          "name": "courseId",
          "type": "uint256"
        },
        {
          "internalType": "uint256[]",
          "name": "classIds_",
          "type": "uint256[]"
        }
      ],
      "name": "removeCourseClassScores",
      "outputs": [],
      "stateMutability": "nonpayable",
      "type": "function"
    },
    {
      "inputs": [
        {
          "internalType": "uint256",
          "name": "courseId",
          "type": "uint256"
        }
      ],
      "name": "getCourseClassScores",
      "outputs": [
        {
          "internalType": "uint256[]",
          "name": "",
          "type": "uint256[]"
        }
      ],
      "stateMutability": "view",
      "type": "function",
      "constant": true
    },
    {
      "inputs": [
        {
          "internalType": "uint256",
          "name": "courseId",
          "type": "uint256"
        },
        {
          "internalType": "uint256",
          "name": "score",
          "type": "uint256"
        }
      ],
      "name": "setCourseSelfScore",
      "outputs": [],
      "stateMutability": "nonpayable",
      "type": "function"
    },
    {
      "inputs": [
        {
          "internalType": "uint256",
          "name": "courseId",
          "type": "uint256"
        },
        {
          "internalType": "uint256",
          "name": "score",
          "type": "uint256"
        }
      ],
      "name": "setCourseTotalScore",
      "outputs": [],
      "stateMutability": "nonpayable",
      "type": "function"
    },
    {
      "inputs": [
        {
          "internalType": "uint256",
          "name": "courseId",
          "type": "uint256"
        },
        {
          "internalType": "uint256",
          "name": "supervisorId",
          "type": "uint256"
        },
        {
          "internalType": "uint256",
          "name": "score",
          "type": "uint256"
        }
      ],
      "name": "addCourseSupervisorScores",
      "outputs": [],
      "stateMutability": "nonpayable",
      "type": "function"
    },
    {
      "inputs": [
        {
          "internalType": "uint256",
          "name": "courseId",
          "type": "uint256"
        },
        {
          "internalType": "uint256",
          "name": "supervisorId",
          "type": "uint256"
        }
      ],
      "name": "getGiveScoreSupervisorIdExists",
      "outputs": [
        {
          "internalType": "uint256",
          "name": "",
          "type": "uint256"
        }
      ],
      "stateMutability": "view",
      "type": "function",
      "constant": true
    },
    {
      "inputs": [
        {
          "internalType": "uint256",
          "name": "courseId",
          "type": "uint256"
        }
      ],
      "name": "getCourseSupervisorScores",
      "outputs": [
        {
          "internalType": "uint256[]",
          "name": "",
          "type": "uint256[]"
        }
      ],
      "stateMutability": "view",
      "type": "function",
      "constant": true
    },
    {
      "inputs": [
        {
          "internalType": "uint256",
          "name": "supervisorId",
          "type": "uint256"
        }
      ],
      "name": "addSupervisorId",
      "outputs": [],
      "stateMutability": "nonpayable",
      "type": "function"
    },
    {
      "inputs": [],
      "name": "getSupervisorIds",
      "outputs": [
        {
          "internalType": "uint256[]",
          "name": "",
          "type": "uint256[]"
        }
      ],
      "stateMutability": "view",
      "type": "function",
      "constant": true
    },
    {
      "inputs": [
        {
          "internalType": "address",
          "name": "supervisor",
          "type": "address"
        },
        {
          "internalType": "uint256",
          "name": "supervisorId",
          "type": "uint256"
        }
      ],
      "name": "setSupervisorId",
      "outputs": [],
      "stateMutability": "nonpayable",
      "type": "function"
    },
    {
      "inputs": [
        {
          "internalType": "uint256",
          "name": "supervisorId",
          "type": "uint256"
        },
        {
          "internalType": "string",
          "name": "_name",
          "type": "string"
        }
      ],
      "name": "setSupervisorName",
      "outputs": [],
      "stateMutability": "nonpayable",
      "type": "function"
    },
    {
      "inputs": [
        {
          "internalType": "uint256",
          "name": "supervisorId",
          "type": "uint256"
        },
        {
          "internalType": "uint256",
          "name": "courseId",
          "type": "uint256"
        },
        {
          "internalType": "uint256",
          "name": "score",
          "type": "uint256"
        }
      ],
      "name": "setSupervisorsCourseScore",
      "outputs": [],
      "stateMutability": "nonpayable",
      "type": "function"
    }
  ],
  "bytecode": "0x608060405234801561001057600080fd5b506147ee806100206000396000f3fe608060405234801561001057600080fd5b50600436106104c25760003560e01c80639709ee0111610278578063d95a61d51161015c578063e7fa4557116100ce578063ee196ee211610092578063ee196ee214610fb2578063f0f2efd814610fce578063f31e149414610fea578063fa8f084d14611006578063fc09e9d014611024578063fc2ddca514611040576104c2565b8063e7fa455714610ed4578063e8a2dc2f14610ef0578063e906165714610f20578063ebacebe414610f50578063ebd1aac614610f80576104c2565b8063df3addfa11610120578063df3addfa14610e18578063e204b10214610e34578063e20b340514610e50578063e40af03614610e6c578063e52505d814610e88578063e637812f14610eb8576104c2565b8063d95a61d514610d50578063d96ce73f14610d80578063dcfa705714610db0578063dd03576514610de0578063deb9f76a14610dfc576104c2565b8063b4da8584116101f5578063bfb9d44c116101b9578063bfb9d44c14610c80578063c318fe5f14610c9c578063cb85404514610cb8578063cddd6c6314610cd4578063ce64bf9b14610cf0578063d4e57ff014610d20576104c2565b8063b4da858414610bde578063b7dc128414610bfa578063bb69df7214610c18578063bca24bd414610c34578063bd1602d114610c64576104c2565b8063aaa4b24e1161023c578063aaa4b24e14610b4c578063ab7cee7714610b68578063ab99631714610b86578063ad3a6ad414610ba4578063b150876014610bc0576104c2565b80639709ee0114610aac57806397e92d5214610adc5780639e12237714610af8578063a549e41614610b14578063a7ab847214610b30576104c2565b80635e383d46116103aa5780637fa7e04d1161031c57806386875ea8116102e057806386875ea8146109c35780638bbb3be1146109df57806391c89deb146109fb5780639476cf9b14610a2b57806396c82e5714610a5b57806396f979d214610a79576104c2565b80637fa7e04d146108e7578063827e57311461090357806382ff0a5a146109335780638377b69014610963578063851580a714610993576104c2565b80636e428d2d1161036e5780636e428d2d146108295780636fcf4f9614610845578063700ed28b1461086157806372ab4e961461087d57806372c30f45146108995780637ce28bac146108b5576104c2565b80635e383d461461079b578063643d172c146107b757806366055159146107d35780636798bad9146107f15780636d889f841461080d576104c2565b806345073d5c116104435780634d652350116104075780634d652350146106b2578063513856c8146106d057806356e76058146107035780635953faff146107335780635a47fb8d1461074f5780635ca24db01461076b576104c2565b806345073d5c1461061057806346be31361461062c578063494e23711461064a5780634b974df71461067a5780634d27e91214610696576104c2565b80631fe76a6c1161048a5780631fe76a6c146105695780632359b7b8146105855780632b0816ac146105a357806334ac0b40146105bf5780633abdb63d146105f4576104c2565b806308a2037f146104c75780630f7f13cf146104e35780630fa1c2711461051357806318860d371461052f5780631dd86f901461054d575b600080fd5b6104e160048036038101906104dc9190613c79565b61105c565b005b6104fd60048036038101906104f89190613a5a565b611087565b60405161050a919061404e565b60405180910390f35b61052d60048036038101906105289190613cd9565b61109f565b005b6105376110e0565b6040516105449190613f4c565b60405180910390f35b61056760048036038101906105629190613d19565b611138565b005b610583600480360381019061057e9190613d19565b6111ec565b005b61058d61121d565b60405161059a9190613f4c565b60405180910390f35b6105bd60048036038101906105b89190613b10565b611275565b005b6105d960048036038101906105d49190613b10565b6112bc565b6040516105eb969594939291906140f3565b60405180910390f35b61060e60048036038101906106099190613b10565b6113a0565b005b61062a60048036038101906106259190613bdd565b611488565b005b610634611515565b604051610641919061404e565b60405180910390f35b610664600480360381019061065f9190613b10565b61151b565b604051610671919061404e565b60405180910390f35b610694600480360381019061068f9190613cd9565b61153f565b005b6106b060048036038101906106ab9190613d19565b6116d9565b005b6106ba61170a565b6040516106c79190613f4c565b60405180910390f35b6106ea60048036038101906106e59190613b10565b611762565b6040516106fa94939291906140a7565b60405180910390f35b61071d60048036038101906107189190613b10565b61183a565b60405161072a919061404e565b60405180910390f35b61074d60048036038101906107489190613ac7565b61185e565b005b61076960048036038101906107649190613cd9565b611920565b005b61078560048036038101906107809190613b10565b61193f565b6040516107929190613f4c565b60405180910390f35b6107b560048036038101906107b09190613a87565b6119ad565b005b6107d160048036038101906107cc9190613b10565b611a1e565b005b6107db611a62565b6040516107e8919061404e565b60405180910390f35b61080b60048036038101906108069190613b10565b611a68565b005b61082760048036038101906108229190613d19565b611a72565b005b610843600480360381019061083e9190613cd9565b611b4a565b005b61085f600480360381019061085a9190613b10565b611ce4565b005b61087b60048036038101906108769190613cd9565b611e4f565b005b61089760048036038101906108929190613cd9565b611e90565b005b6108b360048036038101906108ae9190613b10565b611ed1565b005b6108cf60048036038101906108ca9190613b10565b611f9d565b6040516108de93929190614069565b60405180910390f35b61090160048036038101906108fc9190613c79565b61206f565b005b61091d60048036038101906109189190613b10565b61209a565b60405161092a9190613f4c565b60405180910390f35b61094d60048036038101906109489190613b10565b612108565b60405161095a9190613f4c565b60405180910390f35b61097d60048036038101906109789190613cd9565b612176565b60405161098a919061404e565b60405180910390f35b6109ad60048036038101906109a89190613cd9565b6121a8565b6040516109ba919061404e565b60405180910390f35b6109dd60048036038101906109d89190613cd9565b6121da565b005b6109f960048036038101906109f49190613a87565b612374565b005b610a156004803603810190610a109190613b10565b61242c565b604051610a229190613f4c565b60405180910390f35b610a456004803603810190610a409190613b10565b61249a565b604051610a52919061404e565b60405180910390f35b610a636124be565b604051610a70919061404e565b60405180910390f35b610a936004803603810190610a8e9190613b10565b6124c4565b604051610aa3949392919061415b565b60405180910390f35b610ac66004803603810190610ac19190613cd9565b612589565b604051610ad3919061404e565b60405180910390f35b610af66004803603810190610af19190613b7d565b6125bb565b005b610b126004803603810190610b0d9190613c79565b612714565b005b610b2e6004803603810190610b299190613a87565b61273f565b005b610b4a6004803603810190610b459190613c79565b6127cb565b005b610b666004803603810190610b619190613cd9565b612879565b005b610b70612898565b604051610b7d919061404e565b60405180910390f35b610b8e61289e565b604051610b9b919061404e565b60405180910390f35b610bbe6004803603810190610bb99190613b7d565b6128a4565b005b610bc86129fd565b604051610bd59190613f4c565b60405180910390f35b610bf86004803603810190610bf39190613cd9565b612a55565b005b610c02612af7565b604051610c0f919061404e565b60405180910390f35b610c326004803603810190610c2d9190613cd9565b612afd565b005b610c4e6004803603810190610c499190613b10565b612bfb565b604051610c5b919061404e565b60405180910390f35b610c7e6004803603810190610c799190613b10565b612c1f565b005b610c9a6004803603810190610c959190613a87565b612c29565b005b610cb66004803603810190610cb19190613b3d565b612cb5565b005b610cd26004803603810190610ccd9190613c39565b612d91565b005b610cee6004803603810190610ce99190613b3d565b612dc3565b005b610d0a6004803603810190610d059190613b10565b612e1c565b604051610d179190613f4c565b60405180910390f35b610d3a6004803603810190610d359190613a5a565b612e8a565b604051610d47919061404e565b60405180910390f35b610d6a6004803603810190610d659190613a5a565b612ea2565b604051610d77919061404e565b60405180910390f35b610d9a6004803603810190610d959190613b10565b612eba565b604051610da79190613f4c565b60405180910390f35b610dca6004803603810190610dc59190613b10565b612f28565b604051610dd7919061404e565b60405180910390f35b610dfa6004803603810190610df59190613b10565b612f4c565b005b610e166004803603810190610e119190613b10565b612f56565b005b610e326004803603810190610e2d9190613b10565b612f60565b005b610e4e6004803603810190610e499190613cd9565b61302c565b005b610e6a6004803603810190610e659190613cd9565b61304b565b005b610e866004803603810190610e819190613cd9565b6130ed565b005b610ea26004803603810190610e9d9190613b10565b613287565b604051610eaf9190613f4c565b60405180910390f35b610ed26004803603810190610ecd9190613cd9565b6132f5565b005b610eee6004803603810190610ee99190613cd9565b613336565b005b610f0a6004803603810190610f059190613cd9565b6134d0565b604051610f17919061404e565b60405180910390f35b610f3a6004803603810190610f359190613cd9565b613502565b604051610f47919061404e565b60405180910390f35b610f6a6004803603810190610f659190613a5a565b613534565b604051610f77919061404e565b60405180910390f35b610f9a6004803603810190610f959190613b10565b61354c565b604051610fa9939291906141a7565b60405180910390f35b610fcc6004803603810190610fc79190613cd9565b613576565b005b610fe86004803603810190610fe39190613b7d565b613595565b005b6110046004803603810190610fff9190613d19565b61366b565b005b61100e613743565b60405161101b9190613f4c565b60405180910390f35b61103e60048036038101906110399190613cd9565b61379b565b005b61105a60048036038101906110559190613d19565b6137dc565b005b818160076000868152602001908152602001600020600101919061108192919061380d565b50505050565b60016020528060005260406000206000915090505481565b600860008381526020019081526020016000206003018190806001815401808255809150506001900390600052602060002001600090919091909150555050565b6060601280548060200260200160405190810160405280929190818152602001828054801561112e57602002820191906000526020600020905b81548152602001906001019080831161111a575b5050505050905090565b6000600160003373ffffffffffffffffffffffffffffffffffffffff1673ffffffffffffffffffffffffffffffffffffffff1681526020019081526020016000205414156111bb576040517f08c379a00000000000000000000000000000000000000000000000000000000081526004016111b29061400e565b60405180910390fd5b8060056000858152602001908152602001600020600901600084815260200190815260200160002081905550505050565b8060056000858152602001908152602001600020600801600084815260200190815260200160002081905550505050565b6060601180548060200260200160405190810160405280929190818152602001828054801561126b57602002820191906000526020600020905b815481526020019060010190808311611257575b5050505050905090565b806008600083815260200190815260200160002060000181905550601181908060018154018082558091505060019003906000526020600020016000909190919091505550565b60056020528060005260406000206000915090508060000154908060010180546112e590614389565b80601f016020809104026020016040519081016040528092919081815260200182805461131190614389565b801561135e5780601f106113335761010080835404028352916020019161135e565b820191906000526020600020905b81548152906001019060200180831161134157829003601f168201915b5050505050908060020160009054906101000a900473ffffffffffffffffffffffffffffffffffffffff16908060050154908060060154908060070154905086565b6000600660008381526020019081526020016000206000018190555060005b6010805490508110156114845781601082815481106113e1576113e06144c2565b5b90600052602060002001541415611471576010600160108054905061140691906142da565b81548110611417576114166144c2565b5b906000526020600020015460108281548110611436576114356144c2565b5b9060005260206000200181905550601080548061145657611455614493565b5b60019003818190600052602060002001600090559055611484565b808061147c906143ec565b9150506113bf565b5050565b60005b81518110156114ee5760006009600085815260200190815260200160002060030160008484815181106114c1576114c06144c2565b5b602002602001015181526020019081526020016000208190555080806114e6906143ec565b91505061148b565b506009600083815260200190815260200160002060020160006115119190613893565b5050565b600a5481565b6011818154811061152b57600080fd5b906000526020600020016000915090505481565b60008080600090505b60056000868152602001908152602001600020600301805490508110156115c25783600560008781526020019081526020016000206003018281548110611592576115916144c2565b5b906000526020600020015414156115af57600192508091506115c2565b80806115ba906143ec565b915050611548565b50811561169857600560008581526020019081526020016000206003016001600560008781526020019081526020016000206003018054905061160591906142da565b81548110611616576116156144c2565b5b9060005260206000200154600560008681526020019081526020016000206003018281548110611649576116486144c2565b5b90600052602060002001819055506005600085815260200190815260200160002060030180548061167d5761167c614493565b5b600190038181906000526020600020016000905590556116d3565b6040517f08c379a00000000000000000000000000000000000000000000000000000000081526004016116ca90613fae565b60405180910390fd5b50505050565b8060066000858152602001908152602001600020600501600084815260200190815260200160002081905550505050565b6060600f80548060200260200160405190810160405280929190818152602001828054801561175857602002820191906000526020600020905b815481526020019060010190808311611744575b5050505050905090565b600660205280600052604060002060009150905080600001549080600101805461178b90614389565b80601f01602080910402602001604051908101604052809291908181526020018280546117b790614389565b80156118045780601f106117d957610100808354040283529160200191611804565b820191906000526020600020905b8154815290600101906020018083116117e757829003601f168201915b5050505050908060020160009054906101000a900473ffffffffffffffffffffffffffffffffffffffff16908060030154905084565b6010818154811061184a57600080fd5b906000526020600020016000915090505481565b6011805490508151146118a6576040517f08c379a000000000000000000000000000000000000000000000000000000000815260040161189d90613fce565b60405180910390fd5b60005b60118054905081101561191c578181815181106118c9576118c86144c2565b5b602002602001015160086000601184815481106118e9576118e86144c2565b5b90600052602060002001548152602001908152602001600020600201819055508080611914906143ec565b9150506118a9565b5050565b8060096000848152602001908152602001600020600401819055505050565b6060600960008381526020019081526020016000206002018054806020026020016040519081016040528092919081815260200182805480156119a157602002820191906000526020600020905b81548152602001906001019080831161198d575b50505050509050919050565b80600360008473ffffffffffffffffffffffffffffffffffffffff1673ffffffffffffffffffffffffffffffffffffffff1681526020019081526020016000208190555060128190806001815401808255809150506001900390600052602060002001600090919091909150555050565b6013819080600181540180825580915050600190039060005260206000200160009091909190915055600e6000815480929190611a5a906143ec565b919050555050565b600d5481565b80600a8190555050565b60006009600085815260200190815260200160002060030160008481526020019081526020016000205414611adc576040517f08c379a0000000000000000000000000000000000000000000000000000000008152600401611ad390613f8e565b60405180910390fd5b806009600085815260200190815260200160002060030160008481526020019081526020016000208190555060096000848152602001908152602001600020600201819080600181540180825580915050600190039060005260206000200160009091909190915055505050565b60008080600090505b6008600086815260200190815260200160002060030180549050811015611bcd5783600860008781526020019081526020016000206003018281548110611b9d57611b9c6144c2565b5b90600052602060002001541415611bba5760019250809150611bcd565b8080611bc5906143ec565b915050611b53565b508115611ca3576008600085815260200190815260200160002060030160016008600087815260200190815260200160002060030180549050611c1091906142da565b81548110611c2157611c206144c2565b5b9060005260206000200154600860008681526020019081526020016000206003018281548110611c5457611c536144c2565b5b906000526020600020018190555060086000858152602001908152602001600020600301805480611c8857611c87614493565b5b60019003818190600052602060002001600090559055611cde565b6040517f08c379a0000000000000000000000000000000000000000000000000000000008152600401611cd590613fae565b60405180910390fd5b50505050565b6000600160003373ffffffffffffffffffffffffffffffffffffffff1673ffffffffffffffffffffffffffffffffffffffff168152602001908152602001600020541415611d67576040517f08c379a0000000000000000000000000000000000000000000000000000000008152600401611d5e9061400e565b60405180910390fd5b6000600560008381526020019081526020016000206000018190555060005b600f80549050811015611e4b5781600f8281548110611da857611da76144c2565b5b90600052602060002001541415611e3857600f6001600f80549050611dcd91906142da565b81548110611dde57611ddd6144c2565b5b9060005260206000200154600f8281548110611dfd57611dfc6144c2565b5b9060005260206000200181905550600f805480611e1d57611e1c614493565b5b60019003818190600052602060002001600090559055611e4b565b8080611e43906143ec565b915050611d86565b5050565b600560008381526020019081526020016000206003018190806001815401808255809150506001900390600052602060002001600090919091909150555050565b600660008381526020019081526020016000206004018190806001815401808255809150506001900390600052602060002001600090919091909150555050565b60005b601280549050811015611f99578160128281548110611ef657611ef56144c2565b5b90600052602060002001541415611f865760126001601280549050611f1b91906142da565b81548110611f2c57611f2b6144c2565b5b906000526020600020015460128281548110611f4b57611f4a6144c2565b5b90600052602060002001819055506012805480611f6b57611f6a614493565b5b60019003818190600052602060002001600090559055611f99565b8080611f91906143ec565b915050611ed4565b5050565b6007602052806000526040600020600091509050806000015490806001018054611fc690614389565b80601f0160208091040260200160405190810160405280929190818152602001828054611ff290614389565b801561203f5780601f106120145761010080835404028352916020019161203f565b820191906000526020600020905b81548152906001019060200180831161202257829003601f168201915b5050505050908060020160009054906101000a900473ffffffffffffffffffffffffffffffffffffffff16905083565b818160066000868152602001908152602001600020600101919061209492919061380d565b50505050565b6060600560008381526020019081526020016000206004018054806020026020016040519081016040528092919081815260200182805480156120fc57602002820191906000526020600020905b8154815260200190600101908083116120e8575b50505050509050919050565b60606008600083815260200190815260200160002060030180548060200260200160405190810160405280929190818152602001828054801561216a57602002820191906000526020600020905b815481526020019060010190808311612156575b50505050509050919050565b600060096000848152602001908152602001600020600301600083815260200190815260200160002054905092915050565b600060056000848152602001908152602001600020600901600083815260200190815260200160002054905092915050565b60008080600090505b600860008681526020019081526020016000206004018054905081101561225d578360086000878152602001908152602001600020600401828154811061222d5761222c6144c2565b5b9060005260206000200154141561224a576001925080915061225d565b8080612255906143ec565b9150506121e3565b5081156123335760086000858152602001908152602001600020600401600160086000878152602001908152602001600020600401805490506122a091906142da565b815481106122b1576122b06144c2565b5b90600052602060002001546008600086815260200190815260200160002060040182815481106122e4576122e36144c2565b5b90600052602060002001819055506008600085815260200190815260200160002060040180548061231857612317614493565b5b6001900381819060005260206000200160009055905561236e565b6040517f08c379a000000000000000000000000000000000000000000000000000000000815260040161236590613fae565b60405180910390fd5b50505050565b80600460008473ffffffffffffffffffffffffffffffffffffffff1673ffffffffffffffffffffffffffffffffffffffff16815260200190815260200160002081905550806007600083815260200190815260200160002060000181905550816007600083815260200190815260200160002060020160006101000a81548173ffffffffffffffffffffffffffffffffffffffff021916908373ffffffffffffffffffffffffffffffffffffffff1602179055505050565b60606008600083815260200190815260200160002060040180548060200260200160405190810160405280929190818152602001828054801561248e57602002820191906000526020600020905b81548152602001906001019080831161247a575b50505050509050919050565b601381815481106124aa57600080fd5b906000526020600020016000915090505481565b60005481565b60086020528060005260406000206000915090508060000154908060010180546124ed90614389565b80601f016020809104026020016040519081016040528092919081815260200182805461251990614389565b80156125665780601f1061253b57610100808354040283529160200191612566565b820191906000526020600020905b81548152906001019060200180831161254957829003601f168201915b5050505050908060020154908060050160009054906101000a900460ff16905084565b600060066000848152602001908152602001600020600501600083815260200190815260200160002054905092915050565b6000600160003373ffffffffffffffffffffffffffffffffffffffff1673ffffffffffffffffffffffffffffffffffffffff16815260200190815260200160002054141561263e576040517f08c379a00000000000000000000000000000000000000000000000000000000081526004016126359061400e565b60405180910390fd5b6011805490508282905014612688576040517f08c379a000000000000000000000000000000000000000000000000000000000815260040161267f9061402e565b60405180910390fd5b60005b60118054905081101561270e578282828181106126ab576126aa6144c2565b5b90506020020135600560008681526020019081526020016000206008016000601184815481106126de576126dd6144c2565b5b90600052602060002001548152602001908152602001600020819055508080612706906143ec565b91505061268b565b50505050565b818160086000868152602001908152602001600020600101919061273992919061380d565b50505050565b80600160008473ffffffffffffffffffffffffffffffffffffffff1673ffffffffffffffffffffffffffffffffffffffff16815260200190815260200160002081905550806005600083815260200190815260200160002060000181905550600f8190806001815401808255809150506001900390600052602060002001600090919091909150555050565b6000600160003373ffffffffffffffffffffffffffffffffffffffff1673ffffffffffffffffffffffffffffffffffffffff16815260200190815260200160002054141561284e576040517f08c379a00000000000000000000000000000000000000000000000000000000081526004016128459061400e565b60405180910390fd5b818160056000868152602001908152602001600020600101919061287392919061380d565b50505050565b8060096000848152602001908152602001600020600101819055505050565b600e5481565b600c5481565b6000600160003373ffffffffffffffffffffffffffffffffffffffff1673ffffffffffffffffffffffffffffffffffffffff168152602001908152602001600020541415612927576040517f08c379a000000000000000000000000000000000000000000000000000000000815260040161291e9061400e565b60405180910390fd5b6011805490508282905014612971576040517f08c379a000000000000000000000000000000000000000000000000000000000815260040161296890613f6e565b60405180910390fd5b60005b6011805490508110156129f757828282818110612994576129936144c2565b5b90506020020135600560008681526020019081526020016000206009016000601184815481106129c7576129c66144c2565b5b906000526020600020015481526020019081526020016000208190555080806129ef906143ec565b915050612974565b50505050565b60606010805480602002602001604051908101604052809291908181526020018280548015612a4b57602002820191906000526020600020905b815481526020019060010190808311612a37575b5050505050905090565b6000600160003373ffffffffffffffffffffffffffffffffffffffff1673ffffffffffffffffffffffffffffffffffffffff168152602001908152602001600020541415612ad8576040517f08c379a0000000000000000000000000000000000000000000000000000000008152600401612acf9061400e565b60405180910390fd5b8060056000848152602001908152602001600020600601819055505050565b600b5481565b6000600160003373ffffffffffffffffffffffffffffffffffffffff1673ffffffffffffffffffffffffffffffffffffffff168152602001908152602001600020541415612b80576040517f08c379a0000000000000000000000000000000000000000000000000000000008152600401612b779061400e565b60405180910390fd5b6005600083815260200190815260200160002060050154600080828254612ba791906142da565b925050819055508060056000848152602001908152602001600020600501819055506005600083815260200190815260200160002060050154600080828254612bf09190614284565b925050819055505050565b60128181548110612c0b57600080fd5b906000526020600020016000915090505481565b80600d8190555050565b80600260008473ffffffffffffffffffffffffffffffffffffffff1673ffffffffffffffffffffffffffffffffffffffff1681526020019081526020016000208190555080600660008381526020019081526020016000206000018190555060108190806001815401808255809150506001900390600052602060002001600090919091909150555050565b6000600160003373ffffffffffffffffffffffffffffffffffffffff1673ffffffffffffffffffffffffffffffffffffffff168152602001908152602001600020541415612d38576040517f08c379a0000000000000000000000000000000000000000000000000000000008152600401612d2f9061400e565b60405180910390fd5b806005600084815260200190815260200160002060020160006101000a81548173ffffffffffffffffffffffffffffffffffffffff021916908373ffffffffffffffffffffffffffffffffffffffff1602179055505050565b806008600084815260200190815260200160002060050160006101000a81548160ff0219169083151502179055505050565b806006600084815260200190815260200160002060020160006101000a81548173ffffffffffffffffffffffffffffffffffffffff021916908373ffffffffffffffffffffffffffffffffffffffff1602179055505050565b606060066000838152602001908152602001600020600401805480602002602001604051908101604052809291908181526020018280548015612e7e57602002820191906000526020600020905b815481526020019060010190808311612e6a575b50505050509050919050565b60036020528060005260406000206000915090505481565b60046020528060005260406000206000915090505481565b606060096000838152602001908152602001600020600501805480602002602001604051908101604052809291908181526020018280548015612f1c57602002820191906000526020600020905b815481526020019060010190808311612f08575b50505050509050919050565b600f8181548110612f3857600080fd5b906000526020600020016000915090505481565b80600c8190555050565b80600b8190555050565b60005b601180549050811015613028578160118281548110612f8557612f846144c2565b5b906000526020600020015414156130155760116001601180549050612faa91906142da565b81548110612fbb57612fba6144c2565b5b906000526020600020015460118281548110612fda57612fd96144c2565b5b90600052602060002001819055506011805480612ffa57612ff9614493565b5b60019003818190600052602060002001600090559055613028565b8080613020906143ec565b915050612f63565b5050565b8060086000848152602001908152602001600020600201819055505050565b6000600160003373ffffffffffffffffffffffffffffffffffffffff1673ffffffffffffffffffffffffffffffffffffffff1681526020019081526020016000205414156130ce576040517f08c379a00000000000000000000000000000000000000000000000000000000081526004016130c59061400e565b60405180910390fd5b8060056000848152602001908152602001600020600701819055505050565b60008080600090505b600660008681526020019081526020016000206004018054905081101561317057836006600087815260200190815260200160002060040182815481106131405761313f6144c2565b5b9060005260206000200154141561315d5760019250809150613170565b8080613168906143ec565b9150506130f6565b5081156132465760066000858152602001908152602001600020600401600160066000878152602001908152602001600020600401805490506131b391906142da565b815481106131c4576131c36144c2565b5b90600052602060002001546006600086815260200190815260200160002060040182815481106131f7576131f66144c2565b5b90600052602060002001819055506006600085815260200190815260200160002060040180548061322b5761322a614493565b5b60019003818190600052602060002001600090559055613281565b6040517f08c379a000000000000000000000000000000000000000000000000000000000815260040161327890613fae565b60405180910390fd5b50505050565b6060600560008381526020019081526020016000206003018054806020026020016040519081016040528092919081815260200182805480156132e957602002820191906000526020600020905b8154815260200190600101908083116132d5575b50505050509050919050565b600560008381526020019081526020016000206004018190806001815401808255809150506001900390600052602060002001600090919091909150555050565b60008080600090505b60056000868152602001908152602001600020600401805490508110156133b95783600560008781526020019081526020016000206004018281548110613389576133886144c2565b5b906000526020600020015414156133a657600192508091506133b9565b80806133b1906143ec565b91505061333f565b50811561348f5760056000858152602001908152602001600020600401600160056000878152602001908152602001600020600401805490506133fc91906142da565b8154811061340d5761340c6144c2565b5b90600052602060002001546005600086815260200190815260200160002060040182815481106134405761343f6144c2565b5b90600052602060002001819055506005600085815260200190815260200160002060040180548061347457613473614493565b5b600190038181906000526020600020016000905590556134ca565b6040517f08c379a00000000000000000000000000000000000000000000000000000000081526004016134c190613fae565b60405180910390fd5b50505050565b600060056000848152602001908152602001600020600801600083815260200190815260200160002054905092915050565b600060096000848152602001908152602001600020600601600083815260200190815260200160002054905092915050565b60026020528060005260406000206000915090505481565b60096020528060005260406000206000915090508060000154908060010154908060040154905083565b8060066000848152602001908152602001600020600301819055505050565b60118054905082829050146135df576040517f08c379a00000000000000000000000000000000000000000000000000000000081526004016135d69061402e565b60405180910390fd5b60005b60118054905081101561366557828282818110613602576136016144c2565b5b9050602002013560066000868152602001908152602001600020600501600060118481548110613635576136346144c2565b5b9060005260206000200154815260200190815260200160002081905550808061365d906143ec565b9150506135e2565b50505050565b600060096000858152602001908152602001600020600601600084815260200190815260200160002054146136d5576040517f08c379a00000000000000000000000000000000000000000000000000000000081526004016136cc90613fee565b60405180910390fd5b806009600085815260200190815260200160002060060160008481526020019081526020016000208190555060096000848152602001908152602001600020600501819080600181540180825580915050600190039060005260206000200160009091909190915055505050565b6060601380548060200260200160405190810160405280929190818152602001828054801561379157602002820191906000526020600020905b81548152602001906001019080831161377d575b5050505050905090565b600860008381526020019081526020016000206004018190806001815401808255809150506001900390600052602060002001600090919091909150555050565b8060076000858152602001908152602001600020600301600084815260200190815260200160002081905550505050565b82805461381990614389565b90600052602060002090601f01602090048101928261383b5760008555613882565b82601f1061385457803560ff1916838001178555613882565b82800160010185558215613882579182015b82811115613881578235825591602001919060010190613866565b5b50905061388f91906138b4565b5090565b50805460008255906000526020600020908101906138b191906138b4565b50565b5b808211156138cd5760008160009055506001016138b5565b5090565b60006138e46138df84614203565b6141de565b905080838252602082019050828560208602820111156139075761390661452a565b5b60005b85811015613937578161391d8882613a45565b84526020840193506020830192505060018101905061390a565b5050509392505050565b60008135905061395081614773565b92915050565b60008083601f84011261396c5761396b614525565b5b8235905067ffffffffffffffff81111561398957613988614520565b5b6020830191508360208202830111156139a5576139a461452a565b5b9250929050565b600082601f8301126139c1576139c0614525565b5b81356139d18482602086016138d1565b91505092915050565b6000813590506139e98161478a565b92915050565b60008083601f840112613a0557613a04614525565b5b8235905067ffffffffffffffff811115613a2257613a21614520565b5b602083019150836001820283011115613a3e57613a3d61452a565b5b9250929050565b600081359050613a54816147a1565b92915050565b600060208284031215613a7057613a6f614534565b5b6000613a7e84828501613941565b91505092915050565b60008060408385031215613a9e57613a9d614534565b5b6000613aac85828601613941565b9250506020613abd85828601613a45565b9150509250929050565b600060208284031215613add57613adc614534565b5b600082013567ffffffffffffffff811115613afb57613afa61452f565b5b613b07848285016139ac565b91505092915050565b600060208284031215613b2657613b25614534565b5b6000613b3484828501613a45565b91505092915050565b60008060408385031215613b5457613b53614534565b5b6000613b6285828601613a45565b9250506020613b7385828601613941565b9150509250929050565b600080600060408486031215613b9657613b95614534565b5b6000613ba486828701613a45565b935050602084013567ffffffffffffffff811115613bc557613bc461452f565b5b613bd186828701613956565b92509250509250925092565b60008060408385031215613bf457613bf3614534565b5b6000613c0285828601613a45565b925050602083013567ffffffffffffffff811115613c2357613c2261452f565b5b613c2f858286016139ac565b9150509250929050565b60008060408385031215613c5057613c4f614534565b5b6000613c5e85828601613a45565b9250506020613c6f858286016139da565b9150509250929050565b600080600060408486031215613c9257613c91614534565b5b6000613ca086828701613a45565b935050602084013567ffffffffffffffff811115613cc157613cc061452f565b5b613ccd868287016139ef565b92509250509250925092565b60008060408385031215613cf057613cef614534565b5b6000613cfe85828601613a45565b9250506020613d0f85828601613a45565b9150509250929050565b600080600060608486031215613d3257613d31614534565b5b6000613d4086828701613a45565b9350506020613d5186828701613a45565b9250506040613d6286828701613a45565b9150509250925092565b6000613d788383613f2e565b60208301905092915050565b613d8d8161430e565b82525050565b6000613d9e8261423f565b613da88185614262565b9350613db38361422f565b8060005b83811015613de4578151613dcb8882613d6c565b9750613dd683614255565b925050600181019050613db7565b5085935050505092915050565b613dfa81614320565b82525050565b6000613e0b8261424a565b613e158185614273565b9350613e25818560208601614356565b613e2e81614539565b840191505092915050565b6000613e46606083614273565b9150613e518261454a565b606082019050919050565b6000613e69601583614273565b9150613e74826145bf565b602082019050919050565b6000613e8c601083614273565b9150613e97826145e8565b602082019050919050565b6000613eaf602283614273565b9150613eba82614611565b604082019050919050565b6000613ed2601583614273565b9150613edd82614660565b602082019050919050565b6000613ef5602f83614273565b9150613f0082614689565b604082019050919050565b6000613f18606183614273565b9150613f23826146d8565b608082019050919050565b613f378161434c565b82525050565b613f468161434c565b82525050565b60006020820190508181036000830152613f668184613d93565b905092915050565b60006020820190508181036000830152613f8781613e39565b9050919050565b60006020820190508181036000830152613fa781613e5c565b9050919050565b60006020820190508181036000830152613fc781613e7f565b9050919050565b60006020820190508181036000830152613fe781613ea2565b9050919050565b6000602082019050818103600083015261400781613ec5565b9050919050565b6000602082019050818103600083015261402781613ee8565b9050919050565b6000602082019050818103600083015261404781613f0b565b9050919050565b60006020820190506140636000830184613f3d565b92915050565b600060608201905061407e6000830186613f3d565b81810360208301526140908185613e00565b905061409f6040830184613d84565b949350505050565b60006080820190506140bc6000830187613f3d565b81810360208301526140ce8186613e00565b90506140dd6040830185613d84565b6140ea6060830184613f3d565b95945050505050565b600060c0820190506141086000830189613f3d565b818103602083015261411a8188613e00565b90506141296040830187613d84565b6141366060830186613f3d565b6141436080830185613f3d565b61415060a0830184613f3d565b979650505050505050565b60006080820190506141706000830187613f3d565b81810360208301526141828186613e00565b90506141916040830185613f3d565b61419e6060830184613df1565b95945050505050565b60006060820190506141bc6000830186613f3d565b6141c96020830185613f3d565b6141d66040830184613f3d565b949350505050565b60006141e86141f9565b90506141f482826143bb565b919050565b6000604051905090565b600067ffffffffffffffff82111561421e5761421d6144f1565b5b602082029050602081019050919050565b6000819050602082019050919050565b600081519050919050565b600081519050919050565b6000602082019050919050565b600082825260208201905092915050565b600082825260208201905092915050565b600061428f8261434c565b915061429a8361434c565b9250827fffffffffffffffffffffffffffffffffffffffffffffffffffffffffffffffff038211156142cf576142ce614435565b5b828201905092915050565b60006142e58261434c565b91506142f08361434c565b92508282101561430357614302614435565b5b828203905092915050565b60006143198261432c565b9050919050565b60008115159050919050565b600073ffffffffffffffffffffffffffffffffffffffff82169050919050565b6000819050919050565b60005b83811015614374578082015181840152602081019050614359565b83811115614383576000848401525b50505050565b600060028204905060018216806143a157607f821691505b602082108114156143b5576143b4614464565b5b50919050565b6143c482614539565b810181811067ffffffffffffffff821117156143e3576143e26144f1565b5b80604052505050565b60006143f78261434c565b91507fffffffffffffffffffffffffffffffffffffffffffffffffffffffffffffffff82141561442a57614429614435565b5b600182019050919050565b7f4e487b7100000000000000000000000000000000000000000000000000000000600052601160045260246000fd5b7f4e487b7100000000000000000000000000000000000000000000000000000000600052602260045260246000fd5b7f4e487b7100000000000000000000000000000000000000000000000000000000600052603160045260246000fd5b7f4e487b7100000000000000000000000000000000000000000000000000000000600052603260045260246000fd5b7f4e487b7100000000000000000000000000000000000000000000000000000000600052604160045260246000fd5b600080fd5b600080fd5b600080fd5b600080fd5b600080fd5b6000601f19601f8301169050919050565b7f5768656e2073657474696e672074686520707265666572656e6365206c65766560008201527f6c206f6620636f75727365732c206974206973206e656365737361727920746f60208201527f206861766520616e20657175616c206e756d626572206f6620636f7572736573604082015250565b7fe8afa5e78fade7baa7e5b7b2e7bb8fe68993e588860000000000000000000000600082015250565b7f436f75727365206e6f7420666f756e6400000000000000000000000000000000600082015250565b7f6d7573742075706461746520616c6c20636f7572736520737569746162696c6960008201527f7479000000000000000000000000000000000000000000000000000000000000602082015250565b7fe8afa5e79da3e5afbce5b7b2e7bb8fe8af84e588860000000000000000000000600082015250565b7f4f6e6c7920726567697374657265642074656163686572732063616e2063616c60008201527f6c20746869732066756e6374696f6e0000000000000000000000000000000000602082015250565b7f5768656e2073657474696e672074686520737569746162696c697479206c657660008201527f656c206f6620636f75727365732c206974206973206e6563657373617279207460208201527f6f206861766520616e20657175616c206e756d626572206f6620636f7572736560408201527f7300000000000000000000000000000000000000000000000000000000000000606082015250565b61477c8161430e565b811461478757600080fd5b50565b61479381614320565b811461479e57600080fd5b50565b6147aa8161434c565b81146147b557600080fd5b5056fea2646970667358221220abcc3eca102661d6885ff26d596c1762f8effebeb65a7a0fbf9f01b0ab0bf97064736f6c63430008070033",
  "immutableReferences": {},
  "source": "// SPDX-License-Identifier: MIT\r\npragma solidity ^0.8.7;\r\n\r\ncontract ICourseAllocation {\r\n    // \r\n    struct Teacher {\r\n        uint256 id;\r\n        string name;\r\n        address addr;\r\n        uint256[] assignedCourses;\r\n        uint256[] reallyAssignedCourses;\r\n        uint256 suitabilityWeight;\r\n        uint256 transferCourseCoins;\r\n        uint256 value;\r\n        mapping(uint256 => uint256) courseSuitabilities;\r\n        mapping(uint256 => uint256) coursePreferences;\r\n    }\r\n\r\n    // \r\n    struct Agent {\r\n        uint256 id;\r\n        string name;\r\n        address addr;\r\n        uint256 value;\r\n        uint256[] assignedCourses;\r\n        mapping(uint256 => uint256) courseSuitabilities;\r\n    }\r\n\r\n    // \r\n    struct Supervisor {\r\n        uint256 id;\r\n        string name;\r\n        address addr;\r\n        mapping(uint256 => uint256) courseScores;\r\n    }\r\n\r\n    // \r\n    struct Course {\r\n        uint256 id;\r\n        string name;\r\n        uint256 importance;\r\n        uint256[] assignedTeacherId;\r\n        uint256[] assignedAgentId;\r\n        bool isAgentSuitable;\r\n    }\r\n    struct CourseScore {\r\n        uint256 id; // id\r\n        uint256 totalScore;\r\n        uint256[] classScores;\r\n        mapping(uint256 => uint256) giveScoreClassIdExists;\r\n        uint256 selfScore;\r\n        uint256[] supervisorScores;\r\n        mapping(uint256 => uint256) giveScoreSupervisorIdExists;\r\n    }\r\n\r\n    // \r\n    uint256 public totalWeight;\r\n\r\n    //  => ID\r\n    mapping(address => uint256) public addressToTeacherId;\r\n\r\n    //  => ID\r\n    mapping(address => uint256) public addressToAgentId;\r\n\r\n    //  => ID\r\n    mapping(address => uint256) public addressToClassId;\r\n\r\n    //  => ID\r\n    mapping(address => uint256) public addressToSupervisorId;\r\n\r\n    // ID => \r\n    mapping(uint256 => Teacher) public teachers;\r\n\r\n    // ID => \r\n    mapping(uint256 => Agent) public agents;\r\n\r\n    // ID => \r\n    mapping(uint256 => Supervisor) public supervisors;\r\n\r\n    // ID => \r\n    mapping(uint256 => Course) public courses;\r\n\r\n    // ID => \r\n    mapping(uint256 => CourseScore) public courseScores;\r\n\r\n    // ID\r\n    uint256 public teacherCount;\r\n\r\n    // ID\r\n    uint256 public agentCount;\r\n\r\n    // ID\r\n    uint256 public classCount;\r\n\r\n    // ID\r\n    uint256 public courseCount;\r\n\r\n    // ID\r\n    uint256 public supervisorCount;\r\n\r\n    // ID\r\n    uint256[] public teacherIds;\r\n\r\n    // ID\r\n    uint256[] public agentIds;\r\n\r\n    // ID\r\n    uint256[] public courseIds;\r\n\r\n    // ID\r\n    uint256[] public classIds;\r\n\r\n    // ID\r\n    uint256[] public supervisorIds;\r\n\r\n    // \r\n    // event CourseImportanceSet(uint256 indexed courseId, uint256 importance);\r\n    // event SuitabilityUpdated(uint256 indexed courseId, uint256 suitability);\r\n    // event PreferenceUpdated(uint256 indexed teacherId, uint256 indexed courseId, uint256 preference);\r\n    // event ProposalCreated(uint256 proposalId, uint256 indexed courseId, uint256[] teacherIds); // \r\n    // event MachineProposal(uint256 proposalId, uint256 indexed courseId, uint256[] teacherIds, uint256[] teacherCounts); // \r\n    // event CourseAssignedToTeacher(uint256 indexed courseId, uint256 indexed teacherId); // \r\n\r\n    // \r\n    constructor() {}\r\n\r\n    // \r\n    modifier onlyTeacher() {\r\n        require(\r\n            addressToTeacherId[msg.sender] != 0,\r\n            \"Only registered teachers can call this function\"\r\n        );\r\n        _;\r\n    }\r\n\r\n    // ID\r\n    function setTeacherId(address teacherAddress, uint256 _TeacherId) public {\r\n        addressToTeacherId[teacherAddress] = _TeacherId;\r\n        teachers[_TeacherId].id = _TeacherId;\r\n        teacherIds.push(_TeacherId);\r\n    }\r\n\r\n    // \r\n    function removeTeacher(uint256 teacherId) public onlyTeacher {\r\n        teachers[teacherId].id = 0;\r\n        //  teacherIds  ID\r\n        for (uint256 i = 0; i < teacherIds.length; i++) {\r\n            if (teacherIds[i] == teacherId) {\r\n                //  ID \r\n                teacherIds[i] = teacherIds[teacherIds.length - 1];\r\n                // \r\n                teacherIds.pop();\r\n                break;\r\n            }\r\n        }\r\n    }\r\n\r\n    // \r\n    function setTeacherName(\r\n        uint256 teacherId,\r\n        string calldata _name\r\n    ) public onlyTeacher {\r\n        teachers[teacherId].name = _name;\r\n    }\r\n\r\n    // \r\n    function setTeacherAddress(\r\n        uint256 teacherId,\r\n        address _teacherAddress\r\n    ) public onlyTeacher {\r\n        teachers[teacherId].addr = _teacherAddress;\r\n    }\r\n\r\n    // \r\n    function addTeacherAssignedCourses(\r\n        uint256 teacherId,\r\n        uint256 _assignedCourses\r\n    ) public {\r\n        teachers[teacherId].assignedCourses.push(_assignedCourses);\r\n    }\r\n\r\n    // \r\n    function addTeacherReallyAssignedCourses(\r\n        uint256 teacherId,\r\n        uint256 _assignedCourses\r\n    ) public {\r\n        teachers[teacherId].reallyAssignedCourses.push(_assignedCourses);\r\n    }\r\n\r\n    // \r\n    function removeTeacherAssignedCourses(\r\n        uint256 teacherId,\r\n        uint256 _assignedCourses\r\n    ) public {\r\n        bool found = false;\r\n        uint256 indexToRemove;\r\n\r\n        //  ID \r\n        for (\r\n            uint256 i = 0;\r\n            i < teachers[teacherId].assignedCourses.length;\r\n            i++\r\n        ) {\r\n            if (teachers[teacherId].assignedCourses[i] == _assignedCourses) {\r\n                found = true;\r\n                indexToRemove = i;\r\n                break;\r\n            }\r\n        }\r\n\r\n        //  ID\r\n        if (found) {\r\n            // \r\n            teachers[teacherId].assignedCourses[indexToRemove] = teachers[\r\n                teacherId\r\n            ].assignedCourses[teachers[teacherId].assignedCourses.length - 1];\r\n            // \r\n            teachers[teacherId].assignedCourses.pop();\r\n        } else {\r\n            //  ID\r\n            revert(\"Course not found\");\r\n        }\r\n    }\r\n\r\n    // \r\n    function removeTeacherReallyAssignedCourses(\r\n        uint256 teacherId,\r\n        uint256 _assignedCourses\r\n    ) public {\r\n        bool found = false;\r\n        uint256 indexToRemove;\r\n\r\n        //  ID \r\n        for (\r\n            uint256 i = 0;\r\n            i < teachers[teacherId].reallyAssignedCourses.length;\r\n            i++\r\n        ) {\r\n            if (\r\n                teachers[teacherId].reallyAssignedCourses[i] == _assignedCourses\r\n            ) {\r\n                found = true;\r\n                indexToRemove = i;\r\n                break;\r\n            }\r\n        }\r\n\r\n        //  ID\r\n        if (found) {\r\n            // \r\n            teachers[teacherId].reallyAssignedCourses[indexToRemove] = teachers[\r\n                teacherId\r\n            ].reallyAssignedCourses[\r\n                    teachers[teacherId].reallyAssignedCourses.length - 1\r\n                ];\r\n            // \r\n            teachers[teacherId].reallyAssignedCourses.pop();\r\n        } else {\r\n            //  ID\r\n            revert(\"Course not found\");\r\n        }\r\n    }\r\n\r\n    // \r\n    function setTeacherSuitabilityWeight(\r\n        uint256 teacherId,\r\n        uint256 _suitabilityWeight\r\n    ) public onlyTeacher {\r\n        totalWeight -= teachers[teacherId].suitabilityWeight;\r\n        teachers[teacherId].suitabilityWeight = _suitabilityWeight;\r\n        totalWeight += teachers[teacherId].suitabilityWeight;\r\n    }\r\n\r\n    // \r\n    function setTeacherTransferCourseCoins(\r\n        uint256 teacherId,\r\n        uint256 _transferCourseCoins\r\n    ) public onlyTeacher {\r\n        teachers[teacherId].transferCourseCoins = _transferCourseCoins;\r\n    }\r\n\r\n    // \r\n    function setTeacherValue(\r\n        uint256 teacherId,\r\n        uint256 _value\r\n    ) public onlyTeacher {\r\n        teachers[teacherId].value = _value;\r\n    }\r\n\r\n    // \r\n    function setAgentValue(uint256 agentId, uint256 _value) public {\r\n        agents[agentId].value = _value;\r\n    }\r\n\r\n    // \r\n    function setAllTeacherCourseSuitability(\r\n        uint256 teacherId,\r\n        uint256[] calldata _suitabilities\r\n    ) public onlyTeacher {\r\n        require(\r\n            _suitabilities.length == courseIds.length,\r\n            \"When setting the suitability level of courses, it is necessary to have an equal number of courses\"\r\n        );\r\n        for (\r\n            uint256 courseIndex = 0;\r\n            courseIndex < courseIds.length;\r\n            courseIndex++\r\n        ) {\r\n            teachers[teacherId].courseSuitabilities[\r\n                courseIds[courseIndex]\r\n            ] = _suitabilities[courseIndex];\r\n        }\r\n    }\r\n\r\n    // \r\n    function setTeacherCourseSuitability(\r\n        uint256 teacherId,\r\n        uint256 courseId,\r\n        uint256 _suitability\r\n    ) public {\r\n        teachers[teacherId].courseSuitabilities[courseId] = _suitability;\r\n    }\r\n\r\n    // \r\n    function setAllTeacherCoursePreferences(\r\n        uint256 teacherId,\r\n        uint256[] calldata _preferences\r\n    ) public onlyTeacher {\r\n        require(\r\n            _preferences.length == courseIds.length,\r\n            \"When setting the preference level of courses, it is necessary to have an equal number of courses\"\r\n        );\r\n        for (\r\n            uint256 courseIndex = 0;\r\n            courseIndex < courseIds.length;\r\n            courseIndex++\r\n        ) {\r\n            teachers[teacherId].coursePreferences[\r\n                courseIds[courseIndex]\r\n            ] = _preferences[courseIndex];\r\n        }\r\n    }\r\n\r\n    // \r\n    function setTeacherCoursePreferences(\r\n        uint256 teacherId,\r\n        uint256 courseId,\r\n        uint256 _preference\r\n    ) public onlyTeacher {\r\n        teachers[teacherId].coursePreferences[courseId] = _preference;\r\n    }\r\n\r\n    // ID\r\n    function setAgentId(address agentAddress, uint256 _agentId) public {\r\n        addressToAgentId[agentAddress] = _agentId;\r\n        agents[_agentId].id = _agentId;\r\n        agentIds.push(_agentId);\r\n    }\r\n\r\n    // \r\n    function removeAgent(uint256 agentId) public {\r\n        agents[agentId].id = 0;\r\n        //  agentIds  ID\r\n        for (uint256 i = 0; i < agentIds.length; i++) {\r\n            if (agentIds[i] == agentId) {\r\n                //  ID \r\n                agentIds[i] = agentIds[agentIds.length - 1];\r\n                // \r\n                agentIds.pop();\r\n                break;\r\n            }\r\n        }\r\n    }\r\n\r\n    // \r\n    function setAgentName(uint256 agentId, string calldata _name) public {\r\n        agents[agentId].name = _name;\r\n    }\r\n\r\n    // \r\n    function setAgentAddress(uint256 agentId, address _agentAddress) public {\r\n        agents[agentId].addr = _agentAddress;\r\n    }\r\n\r\n    // \r\n    function addAgentAssignedCourses(\r\n        uint256 agentId,\r\n        uint256 _assignedCourses\r\n    ) public {\r\n        agents[agentId].assignedCourses.push(_assignedCourses);\r\n    }\r\n\r\n    // \r\n    function removeAgentAssignedCourses(\r\n        uint256 agentId,\r\n        uint256 _assignedCourses\r\n    ) public {\r\n        bool found = false;\r\n        uint256 indexToRemove;\r\n\r\n        //  ID \r\n        for (uint256 i = 0; i < agents[agentId].assignedCourses.length; i++) {\r\n            if (agents[agentId].assignedCourses[i] == _assignedCourses) {\r\n                found = true;\r\n                indexToRemove = i;\r\n                break;\r\n            }\r\n        }\r\n\r\n        //  ID\r\n        if (found) {\r\n            // \r\n            agents[agentId].assignedCourses[indexToRemove] = agents[agentId]\r\n                .assignedCourses[agents[agentId].assignedCourses.length - 1];\r\n            // \r\n            agents[agentId].assignedCourses.pop();\r\n        } else {\r\n            //  ID\r\n            revert(\"Course not found\");\r\n        }\r\n    }\r\n\r\n    // \r\n    function setAgentCourseSuitability(\r\n        uint256 agentId,\r\n        uint256 _courseId,\r\n        uint256 _suitability\r\n    ) public {\r\n        agents[agentId].courseSuitabilities[_courseId] = _suitability;\r\n    }\r\n\r\n    // \r\n    function setAllAgentCourseSuitability(\r\n        uint256 agentId,\r\n        uint256[] calldata _suitabilities\r\n    ) public {\r\n        require(\r\n            _suitabilities.length == courseIds.length,\r\n            \"When setting the suitability level of courses, it is necessary to have an equal number of courses\"\r\n        );\r\n        for (\r\n            uint256 courseIndex = 0;\r\n            courseIndex < courseIds.length;\r\n            courseIndex++\r\n        ) {\r\n            agents[agentId].courseSuitabilities[\r\n                courseIds[courseIndex]\r\n            ] = _suitabilities[courseIndex];\r\n        }\r\n    }\r\n\r\n    // ID\r\n    function setClassId(address classAddress, uint256 _id) public {\r\n        addressToClassId[classAddress] = _id;\r\n        classIds.push(_id);\r\n    }\r\n\r\n    // \r\n    function removeClass(uint256 classId) public {\r\n        //  classIds  ID\r\n        for (uint256 i = 0; i < classIds.length; i++) {\r\n            if (classIds[i] == classId) {\r\n                //  ID \r\n                classIds[i] = classIds[classIds.length - 1];\r\n                // \r\n                classIds.pop();\r\n                break;\r\n            }\r\n        }\r\n    }\r\n\r\n    // ID\r\n    function setCourseId(uint256 courseId) public {\r\n        courses[courseId].id = courseId;\r\n        courseIds.push(courseId);\r\n    }\r\n\r\n    // \r\n    function removeCourse(uint256 courseId) public {\r\n        //  classIds  ID\r\n        for (uint256 i = 0; i < courseIds.length; i++) {\r\n            if (courseIds[i] == courseId) {\r\n                //  ID \r\n                courseIds[i] = courseIds[courseIds.length - 1];\r\n                // \r\n                courseIds.pop();\r\n                break;\r\n            }\r\n        }\r\n    }\r\n\r\n    // \r\n    function setCourseName(uint256 courseId, string calldata _name) public {\r\n        courses[courseId].name = _name;\r\n    }\r\n\r\n    // \r\n    function setCourseImportance(uint256 courseId, uint256 _importance) public {\r\n        courses[courseId].importance = _importance;\r\n    }\r\n\r\n    // \r\n    function setAllCourseImportance(uint256[] memory _importances) public {\r\n        require(\r\n            _importances.length == courseIds.length,\r\n            \"must update all course suitability\"\r\n        );\r\n        // \r\n        for (\r\n            uint256 courseIndex = 0;\r\n            courseIndex < courseIds.length;\r\n            courseIndex++\r\n        ) {\r\n            courses[courseIds[courseIndex]].importance = _importances[\r\n                courseIndex\r\n            ];\r\n        }\r\n    }\r\n\r\n    // ID\r\n    function addCourseAssignedTeacherId(\r\n        uint256 courseId,\r\n        uint256 _teacherId\r\n    ) public {\r\n        courses[courseId].assignedTeacherId.push(_teacherId);\r\n    }\r\n\r\n    // ID\r\n    function addCourseAssignedAgentId(\r\n        uint256 courseId,\r\n        uint256 _agentId\r\n    ) public {\r\n        courses[courseId].assignedAgentId.push(_agentId);\r\n    }\r\n\r\n    // \r\n    function removeCourseAssignedTeacherId(\r\n        uint256 courseId,\r\n        uint256 _teacherId\r\n    ) public {\r\n        bool found = false;\r\n        uint256 indexToRemove;\r\n\r\n        //  ID \r\n        for (\r\n            uint256 i = 0;\r\n            i < courses[courseId].assignedTeacherId.length;\r\n            i++\r\n        ) {\r\n            if (courses[courseId].assignedTeacherId[i] == _teacherId) {\r\n                found = true;\r\n                indexToRemove = i;\r\n                break;\r\n            }\r\n        }\r\n\r\n        //  ID\r\n        if (found) {\r\n            // \r\n            courses[courseId].assignedTeacherId[indexToRemove] = courses[\r\n                courseId\r\n            ].assignedTeacherId[courses[courseId].assignedTeacherId.length - 1];\r\n            // \r\n            courses[courseId].assignedTeacherId.pop();\r\n        } else {\r\n            //  ID\r\n            revert(\"Course not found\");\r\n        }\r\n    }\r\n\r\n    // \r\n    function removeCourseAssignedAgentId(\r\n        uint256 courseId,\r\n        uint256 _agentId\r\n    ) public {\r\n        bool found = false;\r\n        uint256 indexToRemove;\r\n\r\n        //  ID \r\n        for (uint256 i = 0; i < courses[courseId].assignedAgentId.length; i++) {\r\n            if (courses[courseId].assignedAgentId[i] == _agentId) {\r\n                found = true;\r\n                indexToRemove = i;\r\n                break;\r\n            }\r\n        }\r\n\r\n        //  ID\r\n        if (found) {\r\n            // \r\n            courses[courseId].assignedAgentId[indexToRemove] = courses[courseId]\r\n                .assignedAgentId[courses[courseId].assignedAgentId.length - 1];\r\n            // \r\n            courses[courseId].assignedAgentId.pop();\r\n        } else {\r\n            //  ID\r\n            revert(\"Course not found\");\r\n        }\r\n    }\r\n\r\n    // \r\n    function setCourseIsAgentSuitable(\r\n        uint256 courseId,\r\n        bool _isAgentSuitable\r\n    ) public {\r\n        courses[courseId].isAgentSuitable = _isAgentSuitable;\r\n    }\r\n\r\n    // \r\n    function setTeacherCount(uint256 _teacherCount) public {\r\n        teacherCount = _teacherCount;\r\n    }\r\n\r\n    // \r\n    function setAgentCount(uint256 _agentCount) public {\r\n        agentCount = _agentCount;\r\n    }\r\n\r\n    // \r\n    function setClassCount(uint256 _classCount) public {\r\n        classCount = _classCount;\r\n    }\r\n\r\n    // \r\n    function setCourseCount(uint256 _courseCount) public {\r\n        courseCount = _courseCount;\r\n    }\r\n\r\n    // \r\n    function getTeacherSuitability(\r\n        uint256 _teacherId,\r\n        uint256 courseId\r\n    ) public view returns (uint256) {\r\n        return teachers[_teacherId].courseSuitabilities[courseId];\r\n    }\r\n\r\n    // \r\n    function getAgentSuitability(\r\n        uint256 _agentId,\r\n        uint256 courseId\r\n    ) public view returns (uint256) {\r\n        return agents[_agentId].courseSuitabilities[courseId];\r\n    }\r\n\r\n    // \r\n    function getPreference(\r\n        uint256 _teacherId,\r\n        uint256 courseId\r\n    ) public view returns (uint256) {\r\n        return teachers[_teacherId].coursePreferences[courseId];\r\n    }\r\n\r\n    // \r\n    function getTeacherAssignedCourses(\r\n        uint256 _teacherId\r\n    ) public view returns (uint256[] memory) {\r\n        return teachers[_teacherId].assignedCourses;\r\n    }\r\n\r\n    // \r\n    function getTeacherReallyAssignedCourses(\r\n        uint256 _teacherId\r\n    ) public view returns (uint256[] memory) {\r\n        return teachers[_teacherId].reallyAssignedCourses;\r\n    }\r\n\r\n    // \r\n    function getAgentAssignedCourses(\r\n        uint256 _agentId\r\n    ) public view returns (uint256[] memory) {\r\n        return agents[_agentId].assignedCourses;\r\n    }\r\n\r\n    // \r\n    function getCoursesAssignedTeacher(\r\n        uint256 _courseId\r\n    ) public view returns (uint256[] memory) {\r\n        return courses[_courseId].assignedTeacherId;\r\n    }\r\n\r\n    // \r\n    function getCoursesAssignedAgent(\r\n        uint256 _courseId\r\n    ) public view returns (uint256[] memory) {\r\n        return courses[_courseId].assignedAgentId;\r\n    }\r\n\r\n    function getTeacherIds() public view returns (uint256[] memory) {\r\n        return teacherIds;\r\n    }\r\n\r\n    function getAgentIds() public view returns (uint256[] memory) {\r\n        return agentIds;\r\n    }\r\n\r\n    function getCourseIds() public view returns (uint256[] memory) {\r\n        return courseIds;\r\n    }\r\n\r\n    function getClassIds() public view returns (uint256[] memory) {\r\n        return classIds;\r\n    }\r\n\r\n    function addCourseClassScores(\r\n        uint256 courseId,\r\n        uint256 classId,\r\n        uint256 score\r\n    ) public {\r\n        require(\r\n            courseScores[courseId].giveScoreClassIdExists[classId] == 0,\r\n            unicode\"\"\r\n        );\r\n        courseScores[courseId].giveScoreClassIdExists[classId] = score;\r\n        courseScores[courseId].classScores.push(score);\r\n    }\r\n\r\n    function getGiveScoreClassIdExists(\r\n        uint256 courseId,\r\n        uint256 classId \r\n    ) public view returns (uint256) {\r\n        return courseScores[courseId].giveScoreClassIdExists[classId]; \r\n    }\r\n\r\n    // \r\n    function removeCourseClassScores(uint256 courseId, uint256[] memory classIds_) public {\r\n        for (uint256 i = 0; i < classIds_.length; i++) {\r\n            courseScores[courseId].giveScoreClassIdExists[classIds_[i]] = 0;\r\n        }\r\n        delete courseScores[courseId].classScores;\r\n    }\r\n\r\n    function getCourseClassScores(uint256 courseId) public view returns (uint256[] memory) {\r\n        return courseScores[courseId].classScores;\r\n    }\r\n\r\n    function setCourseSelfScore(uint256 courseId, uint256 score) public {\r\n        courseScores[courseId].selfScore = score;\r\n    }\r\n\r\n    function setCourseTotalScore(uint256 courseId, uint256 score) public {\r\n        courseScores[courseId].totalScore = score;\r\n    }\r\n\r\n    function addCourseSupervisorScores(\r\n        uint256 courseId,\r\n        uint256 supervisorId,\r\n        uint256 score\r\n    ) public {\r\n        require(\r\n            courseScores[courseId].giveScoreSupervisorIdExists[supervisorId] ==\r\n                0,\r\n            unicode\"\"\r\n        );\r\n        courseScores[courseId].giveScoreSupervisorIdExists[\r\n            supervisorId\r\n        ] = score;\r\n        courseScores[courseId].supervisorScores.push(score);\r\n    }\r\n\r\n    function getGiveScoreSupervisorIdExists(\r\n        uint256 courseId,\r\n        uint256 supervisorId\r\n    ) public view returns (uint256) {\r\n        return courseScores[courseId].giveScoreSupervisorIdExists[supervisorId];\r\n    }\r\n\r\n    function getCourseSupervisorScores(\r\n        uint256 courseId\r\n    ) public view returns (uint256[] memory) {\r\n        return courseScores[courseId].supervisorScores;\r\n    }\r\n\r\n    function addSupervisorId(uint256 supervisorId) public {\r\n        supervisorIds.push(supervisorId);\r\n        supervisorCount++;\r\n    }\r\n\r\n    function getSupervisorIds() public view returns (uint256[] memory) {\r\n        return supervisorIds;\r\n    }\r\n\r\n    function setSupervisorId(address supervisor, uint256 supervisorId) public {\r\n        addressToSupervisorId[supervisor] = supervisorId;\r\n        supervisors[supervisorId].id = supervisorId;\r\n        supervisors[supervisorId].addr = supervisor;\r\n    }\r\n\r\n    function setSupervisorName(\r\n        uint256 supervisorId,\r\n        string calldata _name\r\n    ) public {\r\n        supervisors[supervisorId].name = _name;\r\n    }\r\n\r\n    function setSupervisorsCourseScore(\r\n        uint256 supervisorId,\r\n        uint256 courseId,\r\n        uint256 score\r\n    ) public {\r\n        supervisors[supervisorId].courseScores[courseId] = score;\r\n    }\r\n}\r\n",
  "sourcePath": "D:\\vscode\\\\course\\project\\contracts\\ICourseAllocation.sol",
  "compiler": {
    "name": "solc",
    "version": "0.8.7+commit.e28d00a7.Emscripten.clang"
  },
  "schemaVersion": "3.4.16",
  "updatedAt": "2025-04-07T05:18:35.232Z",
  "networkType": "ethereum",
  "devdoc": {
    "kind": "dev",
    "methods": {},
    "version": 1
  },
  "userdoc": {
    "kind": "user",
    "methods": {},
    "version": 1
  }
}