{
  "contractName": "ICourseAllocation",
  "abi": [
    {
      "inputs": [],
      "stateMutability": "nonpayable",
      "type": "constructor"
    },
    {
      "inputs": [],
      "name": "ScoreTypeChioce",
      "outputs": [
        {
          "internalType": "string",
          "name": "",
          "type": "string"
        }
      ],
      "stateMutability": "view",
      "type": "function",
      "constant": true
    },
    {
      "inputs": [
        {
          "internalType": "address",
          "name": "",
          "type": "address"
        }
      ],
      "name": "addressToAgentId",
      "outputs": [
        {
          "internalType": "uint256",
          "name": "",
          "type": "uint256"
        }
      ],
      "stateMutability": "view",
      "type": "function",
      "constant": true
    },
    {
      "inputs": [
        {
          "internalType": "address",
          "name": "",
          "type": "address"
        }
      ],
      "name": "addressToClassId",
      "outputs": [
        {
          "internalType": "uint256",
          "name": "",
          "type": "uint256"
        }
      ],
      "stateMutability": "view",
      "type": "function",
      "constant": true
    },
    {
      "inputs": [
        {
          "internalType": "address",
          "name": "",
          "type": "address"
        }
      ],
      "name": "addressToSupervisorId",
      "outputs": [
        {
          "internalType": "uint256",
          "name": "",
          "type": "uint256"
        }
      ],
      "stateMutability": "view",
      "type": "function",
      "constant": true
    },
    {
      "inputs": [
        {
          "internalType": "address",
          "name": "",
          "type": "address"
        }
      ],
      "name": "addressToTeacherId",
      "outputs": [
        {
          "internalType": "uint256",
          "name": "",
          "type": "uint256"
        }
      ],
      "stateMutability": "view",
      "type": "function",
      "constant": true
    },
    {
      "inputs": [],
      "name": "agentCount",
      "outputs": [
        {
          "internalType": "uint256",
          "name": "",
          "type": "uint256"
        }
      ],
      "stateMutability": "view",
      "type": "function",
      "constant": true
    },
    {
      "inputs": [
        {
          "internalType": "uint256",
          "name": "",
          "type": "uint256"
        }
      ],
      "name": "agentIds",
      "outputs": [
        {
          "internalType": "uint256",
          "name": "",
          "type": "uint256"
        }
      ],
      "stateMutability": "view",
      "type": "function",
      "constant": true
    },
    {
      "inputs": [
        {
          "internalType": "uint256",
          "name": "",
          "type": "uint256"
        }
      ],
      "name": "agents",
      "outputs": [
        {
          "internalType": "uint256",
          "name": "id",
          "type": "uint256"
        },
        {
          "internalType": "string",
          "name": "name",
          "type": "string"
        },
        {
          "internalType": "address",
          "name": "addr",
          "type": "address"
        },
        {
          "internalType": "uint256",
          "name": "value",
          "type": "uint256"
        }
      ],
      "stateMutability": "view",
      "type": "function",
      "constant": true
    },
    {
      "inputs": [],
      "name": "classCount",
      "outputs": [
        {
          "internalType": "uint256",
          "name": "",
          "type": "uint256"
        }
      ],
      "stateMutability": "view",
      "type": "function",
      "constant": true
    },
    {
      "inputs": [
        {
          "internalType": "uint256",
          "name": "",
          "type": "uint256"
        }
      ],
      "name": "classIds",
      "outputs": [
        {
          "internalType": "uint256",
          "name": "",
          "type": "uint256"
        }
      ],
      "stateMutability": "view",
      "type": "function",
      "constant": true
    },
    {
      "inputs": [],
      "name": "courseCount",
      "outputs": [
        {
          "internalType": "uint256",
          "name": "",
          "type": "uint256"
        }
      ],
      "stateMutability": "view",
      "type": "function",
      "constant": true
    },
    {
      "inputs": [
        {
          "internalType": "uint256",
          "name": "",
          "type": "uint256"
        }
      ],
      "name": "courseIds",
      "outputs": [
        {
          "internalType": "uint256",
          "name": "",
          "type": "uint256"
        }
      ],
      "stateMutability": "view",
      "type": "function",
      "constant": true
    },
    {
      "inputs": [
        {
          "internalType": "uint256",
          "name": "",
          "type": "uint256"
        }
      ],
      "name": "courseScores",
      "outputs": [
        {
          "internalType": "uint256",
          "name": "id",
          "type": "uint256"
        },
        {
          "internalType": "uint256",
          "name": "totalScore",
          "type": "uint256"
        },
        {
          "internalType": "uint256",
          "name": "machineScore",
          "type": "uint256"
        }
      ],
      "stateMutability": "view",
      "type": "function",
      "constant": true
    },
    {
      "inputs": [
        {
          "internalType": "uint256",
          "name": "",
          "type": "uint256"
        }
      ],
      "name": "courses",
      "outputs": [
        {
          "internalType": "uint256",
          "name": "id",
          "type": "uint256"
        },
        {
          "internalType": "string",
          "name": "name",
          "type": "string"
        },
        {
          "internalType": "uint256",
          "name": "importance",
          "type": "uint256"
        },
        {
          "internalType": "uint256",
          "name": "courseDifficulty",
          "type": "uint256"
        }
      ],
      "stateMutability": "view",
      "type": "function",
      "constant": true
    },
    {
      "inputs": [],
      "name": "supervisorCount",
      "outputs": [
        {
          "internalType": "uint256",
          "name": "",
          "type": "uint256"
        }
      ],
      "stateMutability": "view",
      "type": "function",
      "constant": true
    },
    {
      "inputs": [
        {
          "internalType": "uint256",
          "name": "",
          "type": "uint256"
        }
      ],
      "name": "supervisorIds",
      "outputs": [
        {
          "internalType": "uint256",
          "name": "",
          "type": "uint256"
        }
      ],
      "stateMutability": "view",
      "type": "function",
      "constant": true
    },
    {
      "inputs": [
        {
          "internalType": "uint256",
          "name": "",
          "type": "uint256"
        }
      ],
      "name": "supervisors",
      "outputs": [
        {
          "internalType": "uint256",
          "name": "id",
          "type": "uint256"
        },
        {
          "internalType": "string",
          "name": "name",
          "type": "string"
        },
        {
          "internalType": "address",
          "name": "addr",
          "type": "address"
        }
      ],
      "stateMutability": "view",
      "type": "function",
      "constant": true
    },
    {
      "inputs": [],
      "name": "teacherCount",
      "outputs": [
        {
          "internalType": "uint256",
          "name": "",
          "type": "uint256"
        }
      ],
      "stateMutability": "view",
      "type": "function",
      "constant": true
    },
    {
      "inputs": [
        {
          "internalType": "uint256",
          "name": "",
          "type": "uint256"
        }
      ],
      "name": "teacherIds",
      "outputs": [
        {
          "internalType": "uint256",
          "name": "",
          "type": "uint256"
        }
      ],
      "stateMutability": "view",
      "type": "function",
      "constant": true
    },
    {
      "inputs": [
        {
          "internalType": "uint256",
          "name": "",
          "type": "uint256"
        }
      ],
      "name": "teachers",
      "outputs": [
        {
          "internalType": "uint256",
          "name": "id",
          "type": "uint256"
        },
        {
          "internalType": "string",
          "name": "name",
          "type": "string"
        },
        {
          "internalType": "address",
          "name": "addr",
          "type": "address"
        },
        {
          "internalType": "uint256",
          "name": "suitabilityWeight",
          "type": "uint256"
        },
        {
          "internalType": "uint256",
          "name": "transferCourseCoins",
          "type": "uint256"
        },
        {
          "internalType": "uint256",
          "name": "value",
          "type": "uint256"
        }
      ],
      "stateMutability": "view",
      "type": "function",
      "constant": true
    },
    {
      "inputs": [],
      "name": "totalWeight",
      "outputs": [
        {
          "internalType": "uint256",
          "name": "",
          "type": "uint256"
        }
      ],
      "stateMutability": "view",
      "type": "function",
      "constant": true
    },
    {
      "inputs": [],
      "name": "transferCourseEndTime",
      "outputs": [
        {
          "internalType": "uint256",
          "name": "",
          "type": "uint256"
        }
      ],
      "stateMutability": "view",
      "type": "function",
      "constant": true
    },
    {
      "inputs": [],
      "name": "transferCourseNumbers",
      "outputs": [
        {
          "internalType": "uint256",
          "name": "",
          "type": "uint256"
        }
      ],
      "stateMutability": "view",
      "type": "function",
      "constant": true
    },
    {
      "inputs": [],
      "name": "transferCourseStartTime",
      "outputs": [
        {
          "internalType": "uint256",
          "name": "",
          "type": "uint256"
        }
      ],
      "stateMutability": "view",
      "type": "function",
      "constant": true
    },
    {
      "inputs": [
        {
          "internalType": "address",
          "name": "teacherAddress",
          "type": "address"
        },
        {
          "internalType": "uint256",
          "name": "_TeacherId",
          "type": "uint256"
        }
      ],
      "name": "setTeacherId",
      "outputs": [],
      "stateMutability": "nonpayable",
      "type": "function"
    },
    {
      "inputs": [
        {
          "internalType": "uint256",
          "name": "teacherId",
          "type": "uint256"
        }
      ],
      "name": "removeTeacher",
      "outputs": [],
      "stateMutability": "nonpayable",
      "type": "function"
    },
    {
      "inputs": [
        {
          "internalType": "uint256",
          "name": "teacherId",
          "type": "uint256"
        },
        {
          "internalType": "string",
          "name": "_name",
          "type": "string"
        }
      ],
      "name": "setTeacherName",
      "outputs": [],
      "stateMutability": "nonpayable",
      "type": "function"
    },
    {
      "inputs": [
        {
          "internalType": "uint256",
          "name": "teacherId",
          "type": "uint256"
        },
        {
          "internalType": "address",
          "name": "_teacherAddress",
          "type": "address"
        }
      ],
      "name": "setTeacherAddress",
      "outputs": [],
      "stateMutability": "nonpayable",
      "type": "function"
    },
    {
      "inputs": [
        {
          "internalType": "uint256",
          "name": "teacherId",
          "type": "uint256"
        },
        {
          "internalType": "uint256",
          "name": "_assignedCourses",
          "type": "uint256"
        }
      ],
      "name": "addTeacherAssignedCourses",
      "outputs": [],
      "stateMutability": "nonpayable",
      "type": "function"
    },
    {
      "inputs": [
        {
          "internalType": "uint256",
          "name": "teacherId",
          "type": "uint256"
        },
        {
          "internalType": "string",
          "name": "_researchDirection",
          "type": "string"
        }
      ],
      "name": "addTeacherResearchDirection",
      "outputs": [],
      "stateMutability": "nonpayable",
      "type": "function"
    },
    {
      "inputs": [
        {
          "internalType": "uint256",
          "name": "teacherId",
          "type": "uint256"
        },
        {
          "internalType": "uint256",
          "name": "_paperCount",
          "type": "uint256"
        }
      ],
      "name": "addTeacherPaperCount",
      "outputs": [],
      "stateMutability": "nonpayable",
      "type": "function"
    },
    {
      "inputs": [
        {
          "internalType": "uint256",
          "name": "teacherId",
          "type": "uint256"
        },
        {
          "internalType": "uint256",
          "name": "_assignedCourses",
          "type": "uint256"
        }
      ],
      "name": "addTeacherReallyAssignedCourses",
      "outputs": [],
      "stateMutability": "nonpayable",
      "type": "function"
    },
    {
      "inputs": [
        {
          "internalType": "uint256",
          "name": "teacherId",
          "type": "uint256"
        },
        {
          "internalType": "uint256",
          "name": "_assignedCourses",
          "type": "uint256"
        }
      ],
      "name": "removeTeacherAssignedCourses",
      "outputs": [],
      "stateMutability": "nonpayable",
      "type": "function"
    },
    {
      "inputs": [
        {
          "internalType": "uint256",
          "name": "teacherId",
          "type": "uint256"
        },
        {
          "internalType": "string",
          "name": "_researchDirection",
          "type": "string"
        }
      ],
      "name": "removeTeacherResearchDirection",
      "outputs": [],
      "stateMutability": "nonpayable",
      "type": "function"
    },
    {
      "inputs": [
        {
          "internalType": "uint256",
          "name": "teacherId",
          "type": "uint256"
        },
        {
          "internalType": "uint256",
          "name": "index",
          "type": "uint256"
        },
        {
          "internalType": "string",
          "name": "inputString",
          "type": "string"
        }
      ],
      "name": "compareStrings",
      "outputs": [
        {
          "internalType": "bool",
          "name": "",
          "type": "bool"
        }
      ],
      "stateMutability": "view",
      "type": "function",
      "constant": true
    },
    {
      "inputs": [
        {
          "internalType": "uint256",
          "name": "teacherId",
          "type": "uint256"
        },
        {
          "internalType": "uint256",
          "name": "_assignedCourses",
          "type": "uint256"
        }
      ],
      "name": "removeTeacherReallyAssignedCourses",
      "outputs": [],
      "stateMutability": "nonpayable",
      "type": "function"
    },
    {
      "inputs": [
        {
          "internalType": "uint256",
          "name": "teacherId",
          "type": "uint256"
        },
        {
          "internalType": "uint256",
          "name": "_suitabilityWeight",
          "type": "uint256"
        }
      ],
      "name": "setTeacherSuitabilityWeight",
      "outputs": [],
      "stateMutability": "nonpayable",
      "type": "function"
    },
    {
      "inputs": [
        {
          "internalType": "uint256",
          "name": "teacherId",
          "type": "uint256"
        },
        {
          "internalType": "uint256",
          "name": "_transferCourseCoins",
          "type": "uint256"
        }
      ],
      "name": "setTeacherTransferCourseCoins",
      "outputs": [],
      "stateMutability": "nonpayable",
      "type": "function"
    },
    {
      "inputs": [
        {
          "internalType": "uint256",
          "name": "teacherId",
          "type": "uint256"
        },
        {
          "internalType": "uint256",
          "name": "_value",
          "type": "uint256"
        }
      ],
      "name": "setTeacherValue",
      "outputs": [],
      "stateMutability": "nonpayable",
      "type": "function"
    },
    {
      "inputs": [
        {
          "internalType": "uint256",
          "name": "agentId",
          "type": "uint256"
        },
        {
          "internalType": "uint256",
          "name": "_value",
          "type": "uint256"
        }
      ],
      "name": "setAgentValue",
      "outputs": [],
      "stateMutability": "nonpayable",
      "type": "function"
    },
    {
      "inputs": [
        {
          "internalType": "uint256",
          "name": "teacherId",
          "type": "uint256"
        },
        {
          "internalType": "uint256[]",
          "name": "_suitabilities",
          "type": "uint256[]"
        }
      ],
      "name": "setAllTeacherCourseSuitability",
      "outputs": [],
      "stateMutability": "nonpayable",
      "type": "function"
    },
    {
      "inputs": [
        {
          "internalType": "uint256",
          "name": "teacherId",
          "type": "uint256"
        },
        {
          "internalType": "uint256",
          "name": "courseId",
          "type": "uint256"
        },
        {
          "internalType": "uint256",
          "name": "_suitability",
          "type": "uint256"
        }
      ],
      "name": "setTeacherCourseSuitability",
      "outputs": [],
      "stateMutability": "nonpayable",
      "type": "function"
    },
    {
      "inputs": [
        {
          "internalType": "uint256",
          "name": "teacherId",
          "type": "uint256"
        },
        {
          "internalType": "uint256[]",
          "name": "_preferences",
          "type": "uint256[]"
        }
      ],
      "name": "setAllTeacherCoursePreferences",
      "outputs": [],
      "stateMutability": "nonpayable",
      "type": "function"
    },
    {
      "inputs": [
        {
          "internalType": "uint256",
          "name": "teacherId",
          "type": "uint256"
        },
        {
          "internalType": "uint256",
          "name": "courseId",
          "type": "uint256"
        },
        {
          "internalType": "uint256",
          "name": "_preference",
          "type": "uint256"
        }
      ],
      "name": "setTeacherCoursePreferences",
      "outputs": [],
      "stateMutability": "nonpayable",
      "type": "function"
    },
    {
      "inputs": [
        {
          "internalType": "address",
          "name": "agentAddress",
          "type": "address"
        },
        {
          "internalType": "uint256",
          "name": "_agentId",
          "type": "uint256"
        }
      ],
      "name": "setAgentId",
      "outputs": [],
      "stateMutability": "nonpayable",
      "type": "function"
    },
    {
      "inputs": [
        {
          "internalType": "uint256",
          "name": "agentId",
          "type": "uint256"
        }
      ],
      "name": "removeAgent",
      "outputs": [],
      "stateMutability": "nonpayable",
      "type": "function"
    },
    {
      "inputs": [
        {
          "internalType": "uint256",
          "name": "agentId",
          "type": "uint256"
        },
        {
          "internalType": "string",
          "name": "_name",
          "type": "string"
        }
      ],
      "name": "setAgentName",
      "outputs": [],
      "stateMutability": "nonpayable",
      "type": "function"
    },
    {
      "inputs": [
        {
          "internalType": "uint256",
          "name": "agentId",
          "type": "uint256"
        },
        {
          "internalType": "address",
          "name": "_agentAddress",
          "type": "address"
        }
      ],
      "name": "setAgentAddress",
      "outputs": [],
      "stateMutability": "nonpayable",
      "type": "function"
    },
    {
      "inputs": [
        {
          "internalType": "uint256",
          "name": "agentId",
          "type": "uint256"
        },
        {
          "internalType": "uint256",
          "name": "_assignedCourses",
          "type": "uint256"
        }
      ],
      "name": "addAgentAssignedCourses",
      "outputs": [],
      "stateMutability": "nonpayable",
      "type": "function"
    },
    {
      "inputs": [
        {
          "internalType": "uint256",
          "name": "agentId",
          "type": "uint256"
        },
        {
          "internalType": "uint256",
          "name": "_assignedCourses",
          "type": "uint256"
        }
      ],
      "name": "removeAgentAssignedCourses",
      "outputs": [],
      "stateMutability": "nonpayable",
      "type": "function"
    },
    {
      "inputs": [
        {
          "internalType": "uint256",
          "name": "agentId",
          "type": "uint256"
        },
        {
          "internalType": "uint256",
          "name": "_courseId",
          "type": "uint256"
        },
        {
          "internalType": "uint256",
          "name": "_suitability",
          "type": "uint256"
        }
      ],
      "name": "setAgentCourseSuitability",
      "outputs": [],
      "stateMutability": "nonpayable",
      "type": "function"
    },
    {
      "inputs": [
        {
          "internalType": "uint256",
          "name": "agentId",
          "type": "uint256"
        },
        {
          "internalType": "uint256[]",
          "name": "_suitabilities",
          "type": "uint256[]"
        }
      ],
      "name": "setAllAgentCourseSuitability",
      "outputs": [],
      "stateMutability": "nonpayable",
      "type": "function"
    },
    {
      "inputs": [
        {
          "internalType": "address",
          "name": "classAddress",
          "type": "address"
        },
        {
          "internalType": "uint256",
          "name": "_id",
          "type": "uint256"
        }
      ],
      "name": "setClassId",
      "outputs": [],
      "stateMutability": "nonpayable",
      "type": "function"
    },
    {
      "inputs": [
        {
          "internalType": "uint256",
          "name": "classId",
          "type": "uint256"
        }
      ],
      "name": "removeClass",
      "outputs": [],
      "stateMutability": "nonpayable",
      "type": "function"
    },
    {
      "inputs": [
        {
          "internalType": "uint256",
          "name": "courseId",
          "type": "uint256"
        }
      ],
      "name": "setCourseId",
      "outputs": [],
      "stateMutability": "nonpayable",
      "type": "function"
    },
    {
      "inputs": [
        {
          "internalType": "uint256",
          "name": "courseId",
          "type": "uint256"
        }
      ],
      "name": "removeCourse",
      "outputs": [],
      "stateMutability": "nonpayable",
      "type": "function"
    },
    {
      "inputs": [
        {
          "internalType": "uint256",
          "name": "courseId",
          "type": "uint256"
        },
        {
          "internalType": "string",
          "name": "_name",
          "type": "string"
        }
      ],
      "name": "setCourseName",
      "outputs": [],
      "stateMutability": "nonpayable",
      "type": "function"
    },
    {
      "inputs": [
        {
          "internalType": "uint256",
          "name": "courseId",
          "type": "uint256"
        },
        {
          "internalType": "uint256",
          "name": "_importance",
          "type": "uint256"
        }
      ],
      "name": "setCourseImportance",
      "outputs": [],
      "stateMutability": "nonpayable",
      "type": "function"
    },
    {
      "inputs": [
        {
          "internalType": "uint256",
          "name": "courseId",
          "type": "uint256"
        },
        {
          "internalType": "uint256",
          "name": "_courseDifficulty",
          "type": "uint256"
        }
      ],
      "name": "setCourseDifficulty",
      "outputs": [],
      "stateMutability": "nonpayable",
      "type": "function"
    },
    {
      "inputs": [
        {
          "internalType": "uint256",
          "name": "courseId",
          "type": "uint256"
        },
        {
          "internalType": "uint256",
          "name": "_machineScore",
          "type": "uint256"
        }
      ],
      "name": "setmachineScore",
      "outputs": [],
      "stateMutability": "nonpayable",
      "type": "function"
    },
    {
      "inputs": [
        {
          "internalType": "uint256[]",
          "name": "_importances",
          "type": "uint256[]"
        }
      ],
      "name": "setAllCourseImportance",
      "outputs": [],
      "stateMutability": "nonpayable",
      "type": "function"
    },
    {
      "inputs": [
        {
          "internalType": "uint256",
          "name": "courseId",
          "type": "uint256"
        },
        {
          "internalType": "uint256",
          "name": "_teacherId",
          "type": "uint256"
        }
      ],
      "name": "addCourseAssignedTeacherId",
      "outputs": [],
      "stateMutability": "nonpayable",
      "type": "function"
    },
    {
      "inputs": [
        {
          "internalType": "uint256",
          "name": "courseId",
          "type": "uint256"
        },
        {
          "internalType": "uint256",
          "name": "_agentId",
          "type": "uint256"
        }
      ],
      "name": "addCourseAssignedAgentId",
      "outputs": [],
      "stateMutability": "nonpayable",
      "type": "function"
    },
    {
      "inputs": [
        {
          "internalType": "uint256",
          "name": "courseId",
          "type": "uint256"
        },
        {
          "internalType": "uint256",
          "name": "_teacherId",
          "type": "uint256"
        }
      ],
      "name": "removeCourseAssignedTeacherId",
      "outputs": [],
      "stateMutability": "nonpayable",
      "type": "function"
    },
    {
      "inputs": [
        {
          "internalType": "uint256",
          "name": "courseId",
          "type": "uint256"
        },
        {
          "internalType": "uint256",
          "name": "_agentId",
          "type": "uint256"
        }
      ],
      "name": "removeCourseAssignedAgentId",
      "outputs": [],
      "stateMutability": "nonpayable",
      "type": "function"
    },
    {
      "inputs": [
        {
          "internalType": "uint256",
          "name": "_teacherCount",
          "type": "uint256"
        }
      ],
      "name": "setTeacherCount",
      "outputs": [],
      "stateMutability": "nonpayable",
      "type": "function"
    },
    {
      "inputs": [
        {
          "internalType": "uint256",
          "name": "_agentCount",
          "type": "uint256"
        }
      ],
      "name": "setAgentCount",
      "outputs": [],
      "stateMutability": "nonpayable",
      "type": "function"
    },
    {
      "inputs": [
        {
          "internalType": "uint256",
          "name": "_classCount",
          "type": "uint256"
        }
      ],
      "name": "setClassCount",
      "outputs": [],
      "stateMutability": "nonpayable",
      "type": "function"
    },
    {
      "inputs": [
        {
          "internalType": "uint256",
          "name": "_courseCount",
          "type": "uint256"
        }
      ],
      "name": "setCourseCount",
      "outputs": [],
      "stateMutability": "nonpayable",
      "type": "function"
    },
    {
      "inputs": [
        {
          "internalType": "uint256",
          "name": "_teacherId",
          "type": "uint256"
        },
        {
          "internalType": "uint256",
          "name": "courseId",
          "type": "uint256"
        }
      ],
      "name": "getTeacherSuitability",
      "outputs": [
        {
          "internalType": "uint256",
          "name": "",
          "type": "uint256"
        }
      ],
      "stateMutability": "view",
      "type": "function",
      "constant": true
    },
    {
      "inputs": [
        {
          "internalType": "uint256",
          "name": "_agentId",
          "type": "uint256"
        },
        {
          "internalType": "uint256",
          "name": "courseId",
          "type": "uint256"
        }
      ],
      "name": "getAgentSuitability",
      "outputs": [
        {
          "internalType": "uint256",
          "name": "",
          "type": "uint256"
        }
      ],
      "stateMutability": "view",
      "type": "function",
      "constant": true
    },
    {
      "inputs": [
        {
          "internalType": "uint256",
          "name": "_teacherId",
          "type": "uint256"
        },
        {
          "internalType": "uint256",
          "name": "courseId",
          "type": "uint256"
        }
      ],
      "name": "getPreference",
      "outputs": [
        {
          "internalType": "uint256",
          "name": "",
          "type": "uint256"
        }
      ],
      "stateMutability": "view",
      "type": "function",
      "constant": true
    },
    {
      "inputs": [
        {
          "internalType": "uint256",
          "name": "_teacherId",
          "type": "uint256"
        }
      ],
      "name": "getTeacherAssignedCourses",
      "outputs": [
        {
          "internalType": "uint256[]",
          "name": "",
          "type": "uint256[]"
        }
      ],
      "stateMutability": "view",
      "type": "function",
      "constant": true
    },
    {
      "inputs": [
        {
          "internalType": "uint256",
          "name": "_teacherId",
          "type": "uint256"
        }
      ],
      "name": "getTeacherReallyAssignedCourses",
      "outputs": [
        {
          "internalType": "uint256[]",
          "name": "",
          "type": "uint256[]"
        }
      ],
      "stateMutability": "view",
      "type": "function",
      "constant": true
    },
    {
      "inputs": [
        {
          "internalType": "uint256",
          "name": "_teacherId",
          "type": "uint256"
        }
      ],
      "name": "getTeacherResearchDirection",
      "outputs": [
        {
          "internalType": "string[]",
          "name": "",
          "type": "string[]"
        }
      ],
      "stateMutability": "view",
      "type": "function",
      "constant": true
    },
    {
      "inputs": [
        {
          "internalType": "uint256",
          "name": "_teacherId",
          "type": "uint256"
        }
      ],
      "name": "getTeacherPaperCount",
      "outputs": [
        {
          "internalType": "uint256[]",
          "name": "",
          "type": "uint256[]"
        }
      ],
      "stateMutability": "view",
      "type": "function",
      "constant": true
    },
    {
      "inputs": [
        {
          "internalType": "uint256",
          "name": "_agentId",
          "type": "uint256"
        }
      ],
      "name": "getAgentAssignedCourses",
      "outputs": [
        {
          "internalType": "uint256[]",
          "name": "",
          "type": "uint256[]"
        }
      ],
      "stateMutability": "view",
      "type": "function",
      "constant": true
    },
    {
      "inputs": [
        {
          "internalType": "uint256",
          "name": "_courseId",
          "type": "uint256"
        }
      ],
      "name": "getCoursesAssignedTeacher",
      "outputs": [
        {
          "internalType": "uint256[]",
          "name": "",
          "type": "uint256[]"
        }
      ],
      "stateMutability": "view",
      "type": "function",
      "constant": true
    },
    {
      "inputs": [
        {
          "internalType": "uint256",
          "name": "_courseId",
          "type": "uint256"
        }
      ],
      "name": "getCoursesAssignedAgent",
      "outputs": [
        {
          "internalType": "uint256[]",
          "name": "",
          "type": "uint256[]"
        }
      ],
      "stateMutability": "view",
      "type": "function",
      "constant": true
    },
    {
      "inputs": [
        {
          "internalType": "uint256",
          "name": "courseId",
          "type": "uint256"
        }
      ],
      "name": "getCourseImportance",
      "outputs": [
        {
          "internalType": "uint256",
          "name": "",
          "type": "uint256"
        }
      ],
      "stateMutability": "view",
      "type": "function",
      "constant": true
    },
    {
      "inputs": [],
      "name": "getTeacherIds",
      "outputs": [
        {
          "internalType": "uint256[]",
          "name": "",
          "type": "uint256[]"
        }
      ],
      "stateMutability": "view",
      "type": "function",
      "constant": true
    },
    {
      "inputs": [],
      "name": "getAgentIds",
      "outputs": [
        {
          "internalType": "uint256[]",
          "name": "",
          "type": "uint256[]"
        }
      ],
      "stateMutability": "view",
      "type": "function",
      "constant": true
    },
    {
      "inputs": [],
      "name": "getCourseIds",
      "outputs": [
        {
          "internalType": "uint256[]",
          "name": "",
          "type": "uint256[]"
        }
      ],
      "stateMutability": "view",
      "type": "function",
      "constant": true
    },
    {
      "inputs": [],
      "name": "getClassIds",
      "outputs": [
        {
          "internalType": "uint256[]",
          "name": "",
          "type": "uint256[]"
        }
      ],
      "stateMutability": "view",
      "type": "function",
      "constant": true
    },
    {
      "inputs": [
        {
          "internalType": "uint256",
          "name": "courseId",
          "type": "uint256"
        },
        {
          "internalType": "uint256",
          "name": "classId",
          "type": "uint256"
        },
        {
          "internalType": "uint256",
          "name": "score",
          "type": "uint256"
        }
      ],
      "name": "addCourseClassScores",
      "outputs": [],
      "stateMutability": "nonpayable",
      "type": "function"
    },
    {
      "inputs": [
        {
          "internalType": "uint256",
          "name": "courseId",
          "type": "uint256"
        },
        {
          "internalType": "uint256",
          "name": "classId",
          "type": "uint256"
        }
      ],
      "name": "getGiveScoreClassIdExists",
      "outputs": [
        {
          "internalType": "uint256",
          "name": "",
          "type": "uint256"
        }
      ],
      "stateMutability": "view",
      "type": "function",
      "constant": true
    },
    {
      "inputs": [
        {
          "internalType": "uint256",
          "name": "courseId",
          "type": "uint256"
        },
        {
          "internalType": "uint256[]",
          "name": "classIds_",
          "type": "uint256[]"
        }
      ],
      "name": "removeCourseClassScores",
      "outputs": [],
      "stateMutability": "nonpayable",
      "type": "function"
    },
    {
      "inputs": [
        {
          "internalType": "uint256",
          "name": "courseId",
          "type": "uint256"
        }
      ],
      "name": "getCourseClassScores",
      "outputs": [
        {
          "internalType": "uint256[]",
          "name": "",
          "type": "uint256[]"
        }
      ],
      "stateMutability": "view",
      "type": "function",
      "constant": true
    },
    {
      "inputs": [
        {
          "internalType": "uint256",
          "name": "courseId",
          "type": "uint256"
        },
        {
          "internalType": "uint256",
          "name": "teacherId",
          "type": "uint256"
        },
        {
          "internalType": "uint256",
          "name": "score",
          "type": "uint256"
        }
      ],
      "name": "addTeacherScores",
      "outputs": [],
      "stateMutability": "nonpayable",
      "type": "function"
    },
    {
      "inputs": [
        {
          "internalType": "uint256",
          "name": "courseId",
          "type": "uint256"
        },
        {
          "internalType": "uint256[]",
          "name": "teacherIds_",
          "type": "uint256[]"
        }
      ],
      "name": "removeTeacherScores",
      "outputs": [],
      "stateMutability": "nonpayable",
      "type": "function"
    },
    {
      "inputs": [
        {
          "internalType": "uint256",
          "name": "courseId",
          "type": "uint256"
        }
      ],
      "name": "getTeacherScores",
      "outputs": [
        {
          "internalType": "uint256[]",
          "name": "",
          "type": "uint256[]"
        }
      ],
      "stateMutability": "view",
      "type": "function",
      "constant": true
    },
    {
      "inputs": [
        {
          "internalType": "uint256",
          "name": "courseId",
          "type": "uint256"
        },
        {
          "internalType": "uint256",
          "name": "teacherId",
          "type": "uint256"
        }
      ],
      "name": "getGiveScoreTeacherIdExists",
      "outputs": [
        {
          "internalType": "uint256",
          "name": "",
          "type": "uint256"
        }
      ],
      "stateMutability": "view",
      "type": "function",
      "constant": true
    },
    {
      "inputs": [
        {
          "internalType": "uint256",
          "name": "courseId",
          "type": "uint256"
        },
        {
          "internalType": "uint256",
          "name": "score",
          "type": "uint256"
        }
      ],
      "name": "setCourseTotalScore",
      "outputs": [],
      "stateMutability": "nonpayable",
      "type": "function"
    },
    {
      "inputs": [
        {
          "internalType": "uint256",
          "name": "courseId",
          "type": "uint256"
        },
        {
          "internalType": "uint256",
          "name": "supervisorId",
          "type": "uint256"
        },
        {
          "internalType": "uint256",
          "name": "score",
          "type": "uint256"
        }
      ],
      "name": "addCourseSupervisorScores",
      "outputs": [],
      "stateMutability": "nonpayable",
      "type": "function"
    },
    {
      "inputs": [
        {
          "internalType": "uint256",
          "name": "courseId",
          "type": "uint256"
        },
        {
          "internalType": "uint256[]",
          "name": "supervisorIds_",
          "type": "uint256[]"
        }
      ],
      "name": "removeCourseSupervisorScores",
      "outputs": [],
      "stateMutability": "nonpayable",
      "type": "function"
    },
    {
      "inputs": [
        {
          "internalType": "uint256",
          "name": "courseId",
          "type": "uint256"
        },
        {
          "internalType": "uint256",
          "name": "supervisorId",
          "type": "uint256"
        }
      ],
      "name": "getGiveScoreSupervisorIdExists",
      "outputs": [
        {
          "internalType": "uint256",
          "name": "",
          "type": "uint256"
        }
      ],
      "stateMutability": "view",
      "type": "function",
      "constant": true
    },
    {
      "inputs": [
        {
          "internalType": "uint256",
          "name": "courseId",
          "type": "uint256"
        }
      ],
      "name": "getCourseSupervisorScores",
      "outputs": [
        {
          "internalType": "uint256[]",
          "name": "",
          "type": "uint256[]"
        }
      ],
      "stateMutability": "view",
      "type": "function",
      "constant": true
    },
    {
      "inputs": [
        {
          "internalType": "uint256",
          "name": "supervisorId",
          "type": "uint256"
        }
      ],
      "name": "addSupervisorId",
      "outputs": [],
      "stateMutability": "nonpayable",
      "type": "function"
    },
    {
      "inputs": [],
      "name": "getSupervisorIds",
      "outputs": [
        {
          "internalType": "uint256[]",
          "name": "",
          "type": "uint256[]"
        }
      ],
      "stateMutability": "view",
      "type": "function",
      "constant": true
    },
    {
      "inputs": [
        {
          "internalType": "address",
          "name": "supervisor",
          "type": "address"
        },
        {
          "internalType": "uint256",
          "name": "supervisorId",
          "type": "uint256"
        }
      ],
      "name": "setSupervisorId",
      "outputs": [],
      "stateMutability": "nonpayable",
      "type": "function"
    },
    {
      "inputs": [
        {
          "internalType": "uint256",
          "name": "supervisorId",
          "type": "uint256"
        },
        {
          "internalType": "string",
          "name": "_name",
          "type": "string"
        }
      ],
      "name": "setSupervisorName",
      "outputs": [],
      "stateMutability": "nonpayable",
      "type": "function"
    },
    {
      "inputs": [
        {
          "internalType": "uint256",
          "name": "supervisorId",
          "type": "uint256"
        },
        {
          "internalType": "uint256",
          "name": "courseId",
          "type": "uint256"
        },
        {
          "internalType": "uint256",
          "name": "score",
          "type": "uint256"
        }
      ],
      "name": "setSupervisorsCourseScore",
      "outputs": [],
      "stateMutability": "nonpayable",
      "type": "function"
    },
    {
      "inputs": [
        {
          "internalType": "uint256",
          "name": "_transferCourseNumbers",
          "type": "uint256"
        }
      ],
      "name": "settransferCourseNumbers",
      "outputs": [],
      "stateMutability": "nonpayable",
      "type": "function"
    },
    {
      "inputs": [
        {
          "internalType": "uint256",
          "name": "_transferCourseStartTime",
          "type": "uint256"
        }
      ],
      "name": "settransferCourseStartTime",
      "outputs": [],
      "stateMutability": "nonpayable",
      "type": "function"
    },
    {
      "inputs": [
        {
          "internalType": "uint256",
          "name": "_transferCourseEndTime",
          "type": "uint256"
        }
      ],
      "name": "settransferCourseEndTime",
      "outputs": [],
      "stateMutability": "nonpayable",
      "type": "function"
    },
    {
      "inputs": [
        {
          "internalType": "string",
          "name": "option",
          "type": "string"
        }
      ],
      "name": "setScoreType",
      "outputs": [],
      "stateMutability": "nonpayable",
      "type": "function"
    }
  ],
  "bytecode": "0x608060405234801561001057600080fd5b50615b5e80620000216000396000f3fe608060405234801561001057600080fd5b506004361061063e5760003560e01c80639476cf9b11610336578063cddd6c63116101c3578063e637812f1161010f578063f0f2efd8116100ad578063fa96bf9511610087578063fa96bf9514611404578063fc09e9d014611434578063fc2ddca514611450578063fe8dc6a81461146c5761063e565b8063f0f2efd8146113ae578063f31e1494146113ca578063fa8f084d146113e65761063e565b8063e9061657116100e9578063e906165714611300578063ebacebe414611330578063ebd1aac614611360578063ee196ee2146113925761063e565b8063e637812f14611298578063e7fa4557146112b4578063e8a2dc2f146112d05761063e565b8063dd0357651161017c578063e204b10211610156578063e204b10214611214578063e20b340514611230578063e40af0361461124c578063e52505d8146112685761063e565b8063dd035765146111c0578063deb9f76a146111dc578063df3addfa146111f85761063e565b8063cddd6c63146110b4578063ce64bf9b146110d0578063d4e57ff014611100578063d95a61d514611130578063d96ce73f14611160578063dcfa7057146111905761063e565b8063ad3a6ad411610282578063bca24bd41161023b578063bfb9d44c11610215578063bfb9d44c14611030578063c0e0feb41461104c578063c2eca9bc14611068578063c318fe5f146110985761063e565b8063bca24bd414610fc8578063bd1602d114610ff8578063bebfd766146110145761063e565b8063ad3a6ad414610f1c578063b150876014610f38578063b373a43414610f56578063b4da858414610f72578063b7dc128414610f8e578063bb69df7214610fac5761063e565b80639e122377116102ef578063a7ab8472116102c9578063a7ab847214610ea8578063aaa4b24e14610ec4578063ab7cee7714610ee0578063ab99631714610efe5761063e565b80639e12237714610e54578063a549e41614610e70578063a755ca5314610e8c5761063e565b80639476cf9b14610d69578063951d5fee14610d9957806396c82e5714610db757806396f979d214610dd55780639709ee0114610e0857806397e92d5214610e385761063e565b806358f3a306116104cf578063700ed28b1161041b578063827e5731116103b9578063851580a711610393578063851580a714610cd157806386875ea814610d015780638bbb3be114610d1d57806391c89deb14610d395761063e565b8063827e573114610c4157806382ff0a5a14610c715780638377b69014610ca15761063e565b806378834678116103f55780637883467814610ba75780637ce28bac14610bd75780637e4d164114610c095780637fa7e04d14610c255761063e565b8063700ed28b14610b5357806372ab4e9614610b6f57806372c30f4514610b8b5761063e565b806366055159116104885780636d889f84116104625780636d889f8414610acf5780636e428d2d14610aeb5780636e9b0f8f14610b075780636fcf4f9614610b375761063e565b80636605515914610a795780636798bad914610a975780636b792cc814610ab35761063e565b806358f3a306146109bd5780635953faff146109d95780635ca24db0146109f55780635e383d4614610a255780635f63efe214610a41578063643d172c14610a5d5761063e565b80633abdb63d1161058e5780634b974df7116105475780634dcb6366116105215780634dcb636614610922578063513856c81461093e57806352feb0381461097157806356e760581461098d5761063e565b80634b974df7146108cc5780634d27e912146108e85780634d652350146109045761063e565b80633abdb63d146107f8578063406143ae14610814578063439fc3d11461084457806345073d5c1461086257806346be31361461087e578063494e23711461089c5761063e565b80631928f3bc116105fb5780632359b7b8116105d55780632359b7b81461076d5780632b0816ac1461078b57806334ac0b40146107a757806338f6a6bd146107dc5761063e565b80631928f3bc146107175780631dd86f90146107355780631fe76a6c146107515761063e565b8063034f578e1461064357806307061e011461066157806308a2037f146106915780630f7f13cf146106ad5780630fa1c271146106dd57806318860d37146106f9575b600080fd5b61064b611488565b604051610658919061530a565b60405180910390f35b61067b60048036038101906106769190614ca6565b61148e565b604051610688919061530a565b60405180910390f35b6106ab60048036038101906106a69190614c46565b6114c0565b005b6106c760048036038101906106c29190614a1a565b6114eb565b6040516106d4919061530a565b60405180910390f35b6106f760048036038101906106f29190614ca6565b611503565b005b6107016115c7565b60405161070e919061518b565b60405180910390f35b61071f61161f565b60405161072c919061530a565b60405180910390f35b61074f600480360381019061074a9190614d5a565b611625565b005b61076b60048036038101906107669190614d5a565b6116d9565b005b61077561170a565b604051610782919061518b565b60405180910390f35b6107a560048036038101906107a09190614b1d565b611762565b005b6107c160048036038101906107bc9190614b1d565b6117a9565b6040516107d3969594939291906153af565b60405180910390f35b6107f660048036038101906107f19190614d5a565b61188d565b005b610812600480360381019061080d9190614b1d565b611965565b005b61082e60048036038101906108299190614b1d565b611a4d565b60405161083b919061518b565b60405180910390f35b61084c611abb565b60405161085991906151c8565b60405180910390f35b61087c60048036038101906108779190614bea565b611b49565b005b610886611bd6565b604051610893919061530a565b60405180910390f35b6108b660048036038101906108b19190614b1d565b611bdc565b6040516108c3919061530a565b60405180910390f35b6108e660048036038101906108e19190614ca6565b611c00565b005b61090260048036038101906108fd9190614d5a565b611d9a565b005b61090c611dcb565b604051610919919061518b565b60405180910390f35b61093c60048036038101906109379190614bea565b611e23565b005b61095860048036038101906109539190614b1d565b611eb0565b6040516109689493929190615363565b60405180910390f35b61098b60048036038101906109869190614ca6565b611f88565b005b6109a760048036038101906109a29190614b1d565b611fa7565b6040516109b4919061530a565b60405180910390f35b6109d760048036038101906109d29190614ca6565b611fcb565b005b6109f360048036038101906109ee9190614a87565b611fea565b005b610a0f6004803603810190610a0a9190614b1d565b6120ac565b604051610a1c919061518b565b60405180910390f35b610a3f6004803603810190610a3a9190614a47565b61211a565b005b610a5b6004803603810190610a569190614b1d565b61218b565b005b610a776004803603810190610a729190614b1d565b612195565b005b610a816121d9565b604051610a8e919061530a565b60405180910390f35b610ab16004803603810190610aac9190614b1d565b6121df565b005b610acd6004803603810190610ac89190614b1d565b6121e9565b005b610ae96004803603810190610ae49190614d5a565b6121f3565b005b610b056004803603810190610b009190614ca6565b6122cb565b005b610b216004803603810190610b1c9190614b1d565b612465565b604051610b2e919061530a565b60405180910390f35b610b516004803603810190610b4c9190614b1d565b612485565b005b610b6d6004803603810190610b689190614ca6565b6125f0565b005b610b896004803603810190610b849190614ca6565b6126b4565b005b610ba56004803603810190610ba09190614b1d565b612778565b005b610bc16004803603810190610bbc9190614b1d565b612844565b604051610bce9190615169565b60405180910390f35b610bf16004803603810190610bec9190614b1d565b612933565b604051610c0093929190615325565b60405180910390f35b610c236004803603810190610c1e9190614ad0565b612a05565b005b610c3f6004803603810190610c3a9190614c46565b612a1b565b005b610c5b6004803603810190610c569190614b1d565b612a46565b604051610c68919061518b565b60405180910390f35b610c8b6004803603810190610c869190614b1d565b612ab4565b604051610c98919061518b565b60405180910390f35b610cbb6004803603810190610cb69190614ca6565b612b22565b604051610cc8919061530a565b60405180910390f35b610ceb6004803603810190610ce69190614ca6565b612b54565b604051610cf8919061530a565b60405180910390f35b610d1b6004803603810190610d169190614ca6565b612b86565b005b610d376004803603810190610d329190614a47565b612d20565b005b610d536004803603810190610d4e9190614b1d565b612dd8565b604051610d60919061518b565b60405180910390f35b610d836004803603810190610d7e9190614b1d565b612e46565b604051610d90919061530a565b60405180910390f35b610da1612e6a565b604051610dae919061530a565b60405180910390f35b610dbf612e70565b604051610dcc919061530a565b60405180910390f35b610def6004803603810190610dea9190614b1d565b612e76565b604051610dff9493929190615417565b60405180910390f35b610e226004803603810190610e1d9190614ca6565b612f2e565b604051610e2f919061530a565b60405180910390f35b610e526004803603810190610e4d9190614b8a565b612f60565b005b610e6e6004803603810190610e699190614c46565b6130b9565b005b610e8a6004803603810190610e859190614a47565b6130e4565b005b610ea66004803603810190610ea19190614ca6565b613170565b005b610ec26004803603810190610ebd9190614c46565b6131b1565b005b610ede6004803603810190610ed99190614ca6565b61325f565b005b610ee861327e565b604051610ef5919061530a565b60405180910390f35b610f06613284565b604051610f13919061530a565b60405180910390f35b610f366004803603810190610f319190614b8a565b61328a565b005b610f406133e3565b604051610f4d919061518b565b60405180910390f35b610f706004803603810190610f6b9190614b1d565b61343b565b005b610f8c6004803603810190610f879190614ca6565b613445565b005b610f966134e7565b604051610fa3919061530a565b60405180910390f35b610fc66004803603810190610fc19190614ca6565b6134ed565b005b610fe26004803603810190610fdd9190614b1d565b6135ed565b604051610fef919061530a565b60405180910390f35b611012600480360381019061100d9190614b1d565b613611565b005b61102e60048036038101906110299190614c46565b61361b565b005b61104a60048036038101906110459190614a47565b613672565b005b61106660048036038101906110619190614c46565b6136fe565b005b611082600480360381019061107d9190614ce6565b613955565b60405161108f91906151ad565b60405180910390f35b6110b260048036038101906110ad9190614b4a565b6139ee565b005b6110ce60048036038101906110c99190614b4a565b613aca565b005b6110ea60048036038101906110e59190614b1d565b613b23565b6040516110f7919061518b565b60405180910390f35b61111a60048036038101906111159190614a1a565b613b91565b604051611127919061530a565b60405180910390f35b61114a60048036038101906111459190614a1a565b613ba9565b604051611157919061530a565b60405180910390f35b61117a60048036038101906111759190614b1d565b613bc1565b604051611187919061518b565b60405180910390f35b6111aa60048036038101906111a59190614b1d565b613c2f565b6040516111b7919061530a565b60405180910390f35b6111da60048036038101906111d59190614b1d565b613c53565b005b6111f660048036038101906111f19190614b1d565b613c5d565b005b611212600480360381019061120d9190614b1d565b613c67565b005b61122e60048036038101906112299190614ca6565b613d33565b005b61124a60048036038101906112459190614ca6565b613d52565b005b61126660048036038101906112619190614ca6565b613df4565b005b611282600480360381019061127d9190614b1d565b613f8e565b60405161128f919061518b565b60405180910390f35b6112b260048036038101906112ad9190614ca6565b613ffc565b005b6112ce60048036038101906112c99190614ca6565b6140c0565b005b6112ea60048036038101906112e59190614ca6565b61425a565b6040516112f7919061530a565b60405180910390f35b61131a60048036038101906113159190614ca6565b61428c565b604051611327919061530a565b60405180910390f35b61134a60048036038101906113459190614a1a565b6142be565b604051611357919061530a565b60405180910390f35b61137a60048036038101906113759190614b1d565b6142d6565b60405161138993929190615463565b60405180910390f35b6113ac60048036038101906113a79190614ca6565b614300565b005b6113c860048036038101906113c39190614b8a565b61431f565b005b6113e460048036038101906113df9190614d5a565b6143f5565b005b6113ee6144cd565b6040516113fb919061518b565b60405180910390f35b61141e60048036038101906114199190614b1d565b614525565b60405161142b919061518b565b60405180910390f35b61144e60048036038101906114499190614ca6565b614593565b005b61146a60048036038101906114659190614d5a565b614657565b005b61148660048036038101906114819190614bea565b614688565b005b60175481565b6000600a6000848152602001908152602001600020600501600083815260200190815260200160002054905092915050565b81816008600086815260200190815260200160002060010191906114e5929190614715565b50505050565b60026020528060005260406000206000915090505481565b6000805b600960008581526020019081526020016000206003018054905081101561157e5782600960008681526020019081526020016000206003018281548110611551576115506157f7565b5b9060005260206000200154141561156b576001915061157e565b808061157690615721565b915050611507565b50806115c257600960008481526020019081526020016000206003018290806001815401808255809150506001900390600052602060002001600090919091909150555b505050565b6060601380548060200260200160405190810160405280929190818152602001828054801561161557602002820191906000526020600020905b815481526020019060010190808311611601575b5050505050905090565b60165481565b6000600260003373ffffffffffffffffffffffffffffffffffffffff1673ffffffffffffffffffffffffffffffffffffffff1681526020019081526020016000205414156116a8576040517f08c379a000000000000000000000000000000000000000000000000000000000815260040161169f906152ca565b60405180910390fd5b8060066000858152602001908152602001600020600b01600084815260200190815260200160002081905550505050565b8060066000858152602001908152602001600020600a01600084815260200190815260200160002081905550505050565b6060601280548060200260200160405190810160405280929190818152602001828054801561175857602002820191906000526020600020905b815481526020019060010190808311611744575b5050505050905090565b806009600083815260200190815260200160002060000181905550601281908060018154018082558091505060019003906000526020600020016000909190919091505550565b60066020528060005260406000206000915090508060000154908060010180546117d2906156be565b80601f01602080910402602001604051908101604052809291908181526020018280546117fe906156be565b801561184b5780601f106118205761010080835404028352916020019161184b565b820191906000526020600020905b81548152906001019060200180831161182e57829003601f168201915b5050505050908060040160009054906101000a900473ffffffffffffffffffffffffffffffffffffffff16908060070154908060080154908060090154905086565b6000600a6000858152602001908152602001600020600501600084815260200190815260200160002054146118f7576040517f08c379a00000000000000000000000000000000000000000000000000000000081526004016118ee9061524a565b60405180910390fd5b80600a6000858152602001908152602001600020600501600084815260200190815260200160002081905550600a6000848152602001908152602001600020600401819080600181540180825580915050600190039060005260206000200160009091909190915055505050565b6000600760008381526020019081526020016000206000018190555060005b601180549050811015611a495781601182815481106119a6576119a56157f7565b5b90600052602060002001541415611a3657601160016011805490506119cb9190615600565b815481106119dc576119db6157f7565b5b9060005260206000200154601182815481106119fb576119fa6157f7565b5b90600052602060002001819055506011805480611a1b57611a1a6157c8565b5b60019003818190600052602060002001600090559055611a49565b8080611a4190615721565b915050611984565b5050565b6060600a6000838152602001908152602001600020600401805480602002602001604051908101604052809291908181526020018280548015611aaf57602002820191906000526020600020905b815481526020019060010190808311611a9b575b50505050509050919050565b60008054611ac8906156be565b80601f0160208091040260200160405190810160405280929190818152602001828054611af4906156be565b8015611b415780601f10611b1657610100808354040283529160200191611b41565b820191906000526020600020905b815481529060010190602001808311611b2457829003601f168201915b505050505081565b60005b8151811015611baf576000600a60008581526020019081526020016000206003016000848481518110611b8257611b816157f7565b5b60200260200101518152602001908152602001600020819055508080611ba790615721565b915050611b4c565b50600a60008381526020019081526020016000206002016000611bd2919061479b565b5050565b600b5481565b60128181548110611bec57600080fd5b906000526020600020016000915090505481565b60008080600090505b6006600086815260200190815260200160002060050180549050811015611c835783600660008781526020019081526020016000206005018281548110611c5357611c526157f7565b5b90600052602060002001541415611c705760019250809150611c83565b8080611c7b90615721565b915050611c09565b508115611d59576006600085815260200190815260200160002060050160016006600087815260200190815260200160002060050180549050611cc69190615600565b81548110611cd757611cd66157f7565b5b9060005260206000200154600660008681526020019081526020016000206005018281548110611d0a57611d096157f7565b5b906000526020600020018190555060066000858152602001908152602001600020600501805480611d3e57611d3d6157c8565b5b60019003818190600052602060002001600090559055611d94565b6040517f08c379a0000000000000000000000000000000000000000000000000000000008152600401611d8b9061522a565b60405180910390fd5b50505050565b8060076000858152602001908152602001600020600501600084815260200190815260200160002081905550505050565b60606010805480602002602001604051908101604052809291908181526020018280548015611e1957602002820191906000526020600020905b815481526020019060010190808311611e05575b5050505050905090565b60005b8151811015611e89576000600a60008581526020019081526020016000206007016000848481518110611e5c57611e5b6157f7565b5b60200260200101518152602001908152602001600020819055508080611e8190615721565b915050611e26565b50600a60008381526020019081526020016000206006016000611eac919061479b565b5050565b6007602052806000526040600020600091509050806000015490806001018054611ed9906156be565b80601f0160208091040260200160405190810160405280929190818152602001828054611f05906156be565b8015611f525780601f10611f2757610100808354040283529160200191611f52565b820191906000526020600020905b815481529060010190602001808311611f3557829003601f168201915b5050505050908060020160009054906101000a900473ffffffffffffffffffffffffffffffffffffffff16908060030154905084565b8060096000848152602001908152602001600020600501819055505050565b60118181548110611fb757600080fd5b906000526020600020016000915090505481565b80600a6000848152602001908152602001600020600801819055505050565b601280549050815114612032576040517f08c379a00000000000000000000000000000000000000000000000000000000081526004016120299061526a565b60405180910390fd5b60005b6012805490508110156120a857818181518110612055576120546157f7565b5b60200260200101516009600060128481548110612075576120746157f7565b5b906000526020600020015481526020019081526020016000206002018190555080806120a090615721565b915050612035565b5050565b6060600a600083815260200190815260200160002060020180548060200260200160405190810160405280929190818152602001828054801561210e57602002820191906000526020600020905b8154815260200190600101908083116120fa575b50505050509050919050565b80600460008473ffffffffffffffffffffffffffffffffffffffff1673ffffffffffffffffffffffffffffffffffffffff1681526020019081526020016000208190555060138190806001815401808255809150506001900390600052602060002001600090919091909150555050565b8060168190555050565b6014819080600181540180825580915050600190039060005260206000200160009091909190915055600f60008154809291906121d190615721565b919050555050565b600e5481565b80600b8190555050565b8060158190555050565b6000600a60008581526020019081526020016000206003016000848152602001908152602001600020541461225d576040517f08c379a00000000000000000000000000000000000000000000000000000000081526004016122549061520a565b60405180910390fd5b80600a6000858152602001908152602001600020600301600084815260200190815260200160002081905550600a6000848152602001908152602001600020600201819080600181540180825580915050600190039060005260206000200160009091909190915055505050565b60008080600090505b600960008681526020019081526020016000206003018054905081101561234e578360096000878152602001908152602001600020600301828154811061231e5761231d6157f7565b5b9060005260206000200154141561233b576001925080915061234e565b808061234690615721565b9150506122d4565b5081156124245760096000858152602001908152602001600020600301600160096000878152602001908152602001600020600301805490506123919190615600565b815481106123a2576123a16157f7565b5b90600052602060002001546009600086815260200190815260200160002060030182815481106123d5576123d46157f7565b5b906000526020600020018190555060096000858152602001908152602001600020600301805480612409576124086157c8565b5b6001900381819060005260206000200160009055905561245f565b6040517f08c379a00000000000000000000000000000000000000000000000000000000081526004016124569061522a565b60405180910390fd5b50505050565b600060096000838152602001908152602001600020600201549050919050565b6000600260003373ffffffffffffffffffffffffffffffffffffffff1673ffffffffffffffffffffffffffffffffffffffff168152602001908152602001600020541415612508576040517f08c379a00000000000000000000000000000000000000000000000000000000081526004016124ff906152ca565b60405180910390fd5b6000600660008381526020019081526020016000206000018190555060005b6010805490508110156125ec578160108281548110612549576125486157f7565b5b906000526020600020015414156125d9576010600160108054905061256e9190615600565b8154811061257f5761257e6157f7565b5b90600052602060002001546010828154811061259e5761259d6157f7565b5b906000526020600020018190555060108054806125be576125bd6157c8565b5b600190038181906000526020600020016000905590556125ec565b80806125e490615721565b915050612527565b5050565b6000805b600660008581526020019081526020016000206005018054905081101561266b578260066000868152602001908152602001600020600501828154811061263e5761263d6157f7565b5b90600052602060002001541415612658576001915061266b565b808061266390615721565b9150506125f4565b50806126af57600660008481526020019081526020016000206005018290806001815401808255809150506001900390600052602060002001600090919091909150555b505050565b6000805b600760008581526020019081526020016000206004018054905081101561272f5782600760008681526020019081526020016000206004018281548110612702576127016157f7565b5b9060005260206000200154141561271c576001915061272f565b808061272790615721565b9150506126b8565b508061277357600760008481526020019081526020016000206004018290806001815401808255809150506001900390600052602060002001600090919091909150555b505050565b60005b60138054905081101561284057816013828154811061279d5761279c6157f7565b5b9060005260206000200154141561282d57601360016013805490506127c29190615600565b815481106127d3576127d26157f7565b5b9060005260206000200154601382815481106127f2576127f16157f7565b5b90600052602060002001819055506013805480612812576128116157c8565b5b60019003818190600052602060002001600090559055612840565b808061283890615721565b91505061277b565b5050565b606060066000838152602001908152602001600020600201805480602002602001604051908101604052809291908181526020016000905b8282101561292857838290600052602060002001805461289b906156be565b80601f01602080910402602001604051908101604052809291908181526020018280546128c7906156be565b80156129145780601f106128e957610100808354040283529160200191612914565b820191906000526020600020905b8154815290600101906020018083116128f757829003601f168201915b50505050508152602001906001019061287c565b505050509050919050565b600860205280600052604060002060009150905080600001549080600101805461295c906156be565b80601f0160208091040260200160405190810160405280929190818152602001828054612988906156be565b80156129d55780601f106129aa576101008083540402835291602001916129d5565b820191906000526020600020905b8154815290600101906020018083116129b857829003601f168201915b5050505050908060020160009054906101000a900473ffffffffffffffffffffffffffffffffffffffff16905083565b818160009190612a16929190614715565b505050565b8181600760008681526020019081526020016000206001019190612a40929190614715565b50505050565b606060066000838152602001908152602001600020600601805480602002602001604051908101604052809291908181526020018280548015612aa857602002820191906000526020600020905b815481526020019060010190808311612a94575b50505050509050919050565b606060096000838152602001908152602001600020600301805480602002602001604051908101604052809291908181526020018280548015612b1657602002820191906000526020600020905b815481526020019060010190808311612b02575b50505050509050919050565b6000600a6000848152602001908152602001600020600301600083815260200190815260200160002054905092915050565b600060066000848152602001908152602001600020600b01600083815260200190815260200160002054905092915050565b60008080600090505b6009600086815260200190815260200160002060040180549050811015612c095783600960008781526020019081526020016000206004018281548110612bd957612bd86157f7565b5b90600052602060002001541415612bf65760019250809150612c09565b8080612c0190615721565b915050612b8f565b508115612cdf576009600085815260200190815260200160002060040160016009600087815260200190815260200160002060040180549050612c4c9190615600565b81548110612c5d57612c5c6157f7565b5b9060005260206000200154600960008681526020019081526020016000206004018281548110612c9057612c8f6157f7565b5b906000526020600020018190555060096000858152602001908152602001600020600401805480612cc457612cc36157c8565b5b60019003818190600052602060002001600090559055612d1a565b6040517f08c379a0000000000000000000000000000000000000000000000000000000008152600401612d119061522a565b60405180910390fd5b50505050565b80600560008473ffffffffffffffffffffffffffffffffffffffff1673ffffffffffffffffffffffffffffffffffffffff16815260200190815260200160002081905550806008600083815260200190815260200160002060000181905550816008600083815260200190815260200160002060020160006101000a81548173ffffffffffffffffffffffffffffffffffffffff021916908373ffffffffffffffffffffffffffffffffffffffff1602179055505050565b606060096000838152602001908152602001600020600401805480602002602001604051908101604052809291908181526020018280548015612e3a57602002820191906000526020600020905b815481526020019060010190808311612e26575b50505050509050919050565b60148181548110612e5657600080fd5b906000526020600020016000915090505481565b60155481565b60015481565b6009602052806000526040600020600091509050806000015490806001018054612e9f906156be565b80601f0160208091040260200160405190810160405280929190818152602001828054612ecb906156be565b8015612f185780601f10612eed57610100808354040283529160200191612f18565b820191906000526020600020905b815481529060010190602001808311612efb57829003601f168201915b5050505050908060020154908060050154905084565b600060076000848152602001908152602001600020600501600083815260200190815260200160002054905092915050565b6000600260003373ffffffffffffffffffffffffffffffffffffffff1673ffffffffffffffffffffffffffffffffffffffff168152602001908152602001600020541415612fe3576040517f08c379a0000000000000000000000000000000000000000000000000000000008152600401612fda906152ca565b60405180910390fd5b601280549050828290501461302d576040517f08c379a0000000000000000000000000000000000000000000000000000000008152600401613024906152ea565b60405180910390fd5b60005b6012805490508110156130b3578282828181106130505761304f6157f7565b5b9050602002013560066000868152602001908152602001600020600a01600060128481548110613083576130826157f7565b5b906000526020600020015481526020019081526020016000208190555080806130ab90615721565b915050613030565b50505050565b81816009600086815260200190815260200160002060010191906130de929190614715565b50505050565b80600260008473ffffffffffffffffffffffffffffffffffffffff1673ffffffffffffffffffffffffffffffffffffffff1681526020019081526020016000208190555080600660008381526020019081526020016000206000018190555060108190806001815401808255809150506001900390600052602060002001600090919091909150555050565b600660008381526020019081526020016000206003018190806001815401808255809150506001900390600052602060002001600090919091909150555050565b6000600260003373ffffffffffffffffffffffffffffffffffffffff1673ffffffffffffffffffffffffffffffffffffffff168152602001908152602001600020541415613234576040517f08c379a000000000000000000000000000000000000000000000000000000000815260040161322b906152ca565b60405180910390fd5b8181600660008681526020019081526020016000206001019190613259929190614715565b50505050565b80600a6000848152602001908152602001600020600101819055505050565b600f5481565b600d5481565b6000600260003373ffffffffffffffffffffffffffffffffffffffff1673ffffffffffffffffffffffffffffffffffffffff16815260200190815260200160002054141561330d576040517f08c379a0000000000000000000000000000000000000000000000000000000008152600401613304906152ca565b60405180910390fd5b6012805490508282905014613357576040517f08c379a000000000000000000000000000000000000000000000000000000000815260040161334e906151ea565b60405180910390fd5b60005b6012805490508110156133dd5782828281811061337a576133796157f7565b5b9050602002013560066000868152602001908152602001600020600b016000601284815481106133ad576133ac6157f7565b5b906000526020600020015481526020019081526020016000208190555080806133d590615721565b91505061335a565b50505050565b6060601180548060200260200160405190810160405280929190818152602001828054801561343157602002820191906000526020600020905b81548152602001906001019080831161341d575b5050505050905090565b8060178190555050565b6000600260003373ffffffffffffffffffffffffffffffffffffffff1673ffffffffffffffffffffffffffffffffffffffff1681526020019081526020016000205414156134c8576040517f08c379a00000000000000000000000000000000000000000000000000000000081526004016134bf906152ca565b60405180910390fd5b8060066000848152602001908152602001600020600801819055505050565b600c5481565b6000600260003373ffffffffffffffffffffffffffffffffffffffff1673ffffffffffffffffffffffffffffffffffffffff168152602001908152602001600020541415613570576040517f08c379a0000000000000000000000000000000000000000000000000000000008152600401613567906152ca565b60405180910390fd5b6006600083815260200190815260200160002060070154600160008282546135989190615600565b925050819055508060066000848152602001908152602001600020600701819055506006600083815260200190815260200160002060070154600160008282546135e291906155aa565b925050819055505050565b601381815481106135fd57600080fd5b906000526020600020016000915090505481565b80600e8190555050565b6006600084815260200190815260200160002060020182829091806001815401808255809150506001900390600052602060002001600090919290919290919290919250919061366c929190614715565b50505050565b80600360008473ffffffffffffffffffffffffffffffffffffffff1673ffffffffffffffffffffffffffffffffffffffff1681526020019081526020016000208190555080600760008381526020019081526020016000206000018190555060118190806001815401808255809150506001900390600052602060002001600090919091909150555050565b60008080600090505b60066000878152602001908152602001600020600201805490508110156137585761373486828787613955565b156137455760019250809150613758565b808061375090615721565b915050613707565b50811561391357600660008681526020019081526020016000206002016001600660008881526020019081526020016000206002018054905061379b9190615600565b815481106137ac576137ab6157f7565b5b906000526020600020016006600087815260200190815260200160002060020182815481106137de576137dd6157f7565b5b906000526020600020019080546137f4906156be565b6137ff9291906147bc565b5060066000868152602001908152602001600020600201805480613826576138256157c8565b5b6001900381819060005260206000200160006138429190614849565b905560066000868152602001908152602001600020600301600160066000888152602001908152602001600020600301805490506138809190615600565b81548110613891576138906157f7565b5b90600052602060002001546006600087815260200190815260200160002060030182815481106138c4576138c36157f7565b5b9060005260206000200181905550600660008681526020019081526020016000206003018054806138f8576138f76157c8565b5b6001900381819060005260206000200160009055905561394e565b6040517f08c379a0000000000000000000000000000000000000000000000000000000008152600401613945906152aa565b60405180910390fd5b5050505050565b6000806006600087815260200190815260200160002060020185815481106139805761397f6157f7565b5b9060005260206000200160405160200161399a9190615152565b604051602081830303815290604052805190602001209050600084846040516020016139c7929190615139565b60405160208183030381529060405280519060200120905080821492505050949350505050565b6000600260003373ffffffffffffffffffffffffffffffffffffffff1673ffffffffffffffffffffffffffffffffffffffff168152602001908152602001600020541415613a71576040517f08c379a0000000000000000000000000000000000000000000000000000000008152600401613a68906152ca565b60405180910390fd5b806006600084815260200190815260200160002060040160006101000a81548173ffffffffffffffffffffffffffffffffffffffff021916908373ffffffffffffffffffffffffffffffffffffffff1602179055505050565b806007600084815260200190815260200160002060020160006101000a81548173ffffffffffffffffffffffffffffffffffffffff021916908373ffffffffffffffffffffffffffffffffffffffff1602179055505050565b606060076000838152602001908152602001600020600401805480602002602001604051908101604052809291908181526020018280548015613b8557602002820191906000526020600020905b815481526020019060010190808311613b71575b50505050509050919050565b60046020528060005260406000206000915090505481565b60056020528060005260406000206000915090505481565b6060600a6000838152602001908152602001600020600601805480602002602001604051908101604052809291908181526020018280548015613c2357602002820191906000526020600020905b815481526020019060010190808311613c0f575b50505050509050919050565b60108181548110613c3f57600080fd5b906000526020600020016000915090505481565b80600d8190555050565b80600c8190555050565b60005b601280549050811015613d2f578160128281548110613c8c57613c8b6157f7565b5b90600052602060002001541415613d1c5760126001601280549050613cb19190615600565b81548110613cc257613cc16157f7565b5b906000526020600020015460128281548110613ce157613ce06157f7565b5b90600052602060002001819055506012805480613d0157613d006157c8565b5b60019003818190600052602060002001600090559055613d2f565b8080613d2790615721565b915050613c6a565b5050565b8060096000848152602001908152602001600020600201819055505050565b6000600260003373ffffffffffffffffffffffffffffffffffffffff1673ffffffffffffffffffffffffffffffffffffffff168152602001908152602001600020541415613dd5576040517f08c379a0000000000000000000000000000000000000000000000000000000008152600401613dcc906152ca565b60405180910390fd5b8060066000848152602001908152602001600020600901819055505050565b60008080600090505b6007600086815260200190815260200160002060040180549050811015613e775783600760008781526020019081526020016000206004018281548110613e4757613e466157f7565b5b90600052602060002001541415613e645760019250809150613e77565b8080613e6f90615721565b915050613dfd565b508115613f4d576007600085815260200190815260200160002060040160016007600087815260200190815260200160002060040180549050613eba9190615600565b81548110613ecb57613eca6157f7565b5b9060005260206000200154600760008681526020019081526020016000206004018281548110613efe57613efd6157f7565b5b906000526020600020018190555060076000858152602001908152602001600020600401805480613f3257613f316157c8565b5b60019003818190600052602060002001600090559055613f88565b6040517f08c379a0000000000000000000000000000000000000000000000000000000008152600401613f7f9061522a565b60405180910390fd5b50505050565b606060066000838152602001908152602001600020600501805480602002602001604051908101604052809291908181526020018280548015613ff057602002820191906000526020600020905b815481526020019060010190808311613fdc575b50505050509050919050565b6000805b6006600085815260200190815260200160002060060180549050811015614077578260066000868152602001908152602001600020600601828154811061404a576140496157f7565b5b906000526020600020015414156140645760019150614077565b808061406f90615721565b915050614000565b50806140bb57600660008481526020019081526020016000206006018290806001815401808255809150506001900390600052602060002001600090919091909150555b505050565b60008080600090505b60066000868152602001908152602001600020600601805490508110156141435783600660008781526020019081526020016000206006018281548110614113576141126157f7565b5b906000526020600020015414156141305760019250809150614143565b808061413b90615721565b9150506140c9565b5081156142195760066000858152602001908152602001600020600601600160066000878152602001908152602001600020600601805490506141869190615600565b81548110614197576141966157f7565b5b90600052602060002001546006600086815260200190815260200160002060060182815481106141ca576141c96157f7565b5b9060005260206000200181905550600660008581526020019081526020016000206006018054806141fe576141fd6157c8565b5b60019003818190600052602060002001600090559055614254565b6040517f08c379a000000000000000000000000000000000000000000000000000000000815260040161424b9061522a565b60405180910390fd5b50505050565b600060066000848152602001908152602001600020600a01600083815260200190815260200160002054905092915050565b6000600a6000848152602001908152602001600020600701600083815260200190815260200160002054905092915050565b60036020528060005260406000206000915090505481565b600a6020528060005260406000206000915090508060000154908060010154908060080154905083565b8060076000848152602001908152602001600020600301819055505050565b6012805490508282905014614369576040517f08c379a0000000000000000000000000000000000000000000000000000000008152600401614360906152ea565b60405180910390fd5b60005b6012805490508110156143ef5782828281811061438c5761438b6157f7565b5b90506020020135600760008681526020019081526020016000206005016000601284815481106143bf576143be6157f7565b5b906000526020600020015481526020019081526020016000208190555080806143e790615721565b91505061436c565b50505050565b6000600a60008581526020019081526020016000206007016000848152602001908152602001600020541461445f576040517f08c379a00000000000000000000000000000000000000000000000000000000081526004016144569061528a565b60405180910390fd5b80600a6000858152602001908152602001600020600701600084815260200190815260200160002081905550600a6000848152602001908152602001600020600601819080600181540180825580915050600190039060005260206000200160009091909190915055505050565b6060601480548060200260200160405190810160405280929190818152602001828054801561451b57602002820191906000526020600020905b815481526020019060010190808311614507575b5050505050905090565b60606006600083815260200190815260200160002060030180548060200260200160405190810160405280929190818152602001828054801561458757602002820191906000526020600020905b815481526020019060010190808311614573575b50505050509050919050565b6000805b600960008581526020019081526020016000206004018054905081101561460e57826009600086815260200190815260200160002060040182815481106145e1576145e06157f7565b5b906000526020600020015414156145fb576001915061460e565b808061460690615721565b915050614597565b508061465257600960008481526020019081526020016000206004018290806001815401808255809150506001900390600052602060002001600090919091909150555b505050565b8060086000858152602001908152602001600020600301600084815260200190815260200160002081905550505050565b60005b81518110156146ee576000600a600085815260200190815260200160002060050160008484815181106146c1576146c06157f7565b5b602002602001015181526020019081526020016000208190555080806146e690615721565b91505061468b565b50600a60008381526020019081526020016000206004016000614711919061479b565b5050565b828054614721906156be565b90600052602060002090601f016020900481019282614743576000855561478a565b82601f1061475c57803560ff191683800117855561478a565b8280016001018555821561478a579182015b8281111561478957823582559160200191906001019061476e565b5b5090506147979190614889565b5090565b50805460008255906000526020600020908101906147b99190614889565b50565b8280546147c8906156be565b90600052602060002090601f0160209004810192826147ea5760008555614838565b82601f106147fb5780548555614838565b8280016001018555821561483857600052602060002091601f016020900482015b8281111561483757825482559160010191906001019061481c565b5b5090506148459190614889565b5090565b508054614855906156be565b6000825580601f106148675750614886565b601f0160209004906000526020600020908101906148859190614889565b5b50565b5b808211156148a257600081600090555060010161488a565b5090565b60006148b96148b4846154bf565b61549a565b905080838252602082019050828560208602820111156148dc576148db61585f565b5b60005b8581101561490c57816148f28882614a05565b8452602084019350602083019250506001810190506148df565b5050509392505050565b60008135905061492581615afa565b92915050565b60008083601f8401126149415761494061585a565b5b8235905067ffffffffffffffff81111561495e5761495d615855565b5b60208301915083602082028301111561497a5761497961585f565b5b9250929050565b600082601f8301126149965761499561585a565b5b81356149a68482602086016148a6565b91505092915050565b60008083601f8401126149c5576149c461585a565b5b8235905067ffffffffffffffff8111156149e2576149e1615855565b5b6020830191508360018202830111156149fe576149fd61585f565b5b9250929050565b600081359050614a1481615b11565b92915050565b600060208284031215614a3057614a2f615869565b5b6000614a3e84828501614916565b91505092915050565b60008060408385031215614a5e57614a5d615869565b5b6000614a6c85828601614916565b9250506020614a7d85828601614a05565b9150509250929050565b600060208284031215614a9d57614a9c615869565b5b600082013567ffffffffffffffff811115614abb57614aba615864565b5b614ac784828501614981565b91505092915050565b60008060208385031215614ae757614ae6615869565b5b600083013567ffffffffffffffff811115614b0557614b04615864565b5b614b11858286016149af565b92509250509250929050565b600060208284031215614b3357614b32615869565b5b6000614b4184828501614a05565b91505092915050565b60008060408385031215614b6157614b60615869565b5b6000614b6f85828601614a05565b9250506020614b8085828601614916565b9150509250929050565b600080600060408486031215614ba357614ba2615869565b5b6000614bb186828701614a05565b935050602084013567ffffffffffffffff811115614bd257614bd1615864565b5b614bde8682870161492b565b92509250509250925092565b60008060408385031215614c0157614c00615869565b5b6000614c0f85828601614a05565b925050602083013567ffffffffffffffff811115614c3057614c2f615864565b5b614c3c85828601614981565b9150509250929050565b600080600060408486031215614c5f57614c5e615869565b5b6000614c6d86828701614a05565b935050602084013567ffffffffffffffff811115614c8e57614c8d615864565b5b614c9a868287016149af565b92509250509250925092565b60008060408385031215614cbd57614cbc615869565b5b6000614ccb85828601614a05565b9250506020614cdc85828601614a05565b9150509250929050565b60008060008060608587031215614d0057614cff615869565b5b6000614d0e87828801614a05565b9450506020614d1f87828801614a05565b935050604085013567ffffffffffffffff811115614d4057614d3f615864565b5b614d4c878288016149af565b925092505092959194509250565b600080600060608486031215614d7357614d72615869565b5b6000614d8186828701614a05565b9350506020614d9286828701614a05565b9250506040614da386828701614a05565b9150509250925092565b6000614db98383614eef565b905092915050565b6000614dcd838361511b565b60208301905092915050565b614de281615634565b82525050565b6000614df382615520565b614dfd818561555b565b935083602082028501614e0f856154eb565b8060005b85811015614e4b5784840389528151614e2c8582614dad565b9450614e3783615541565b925060208a01995050600181019050614e13565b50829750879550505050505092915050565b6000614e688261552b565b614e72818561556c565b9350614e7d836154fb565b8060005b83811015614eae578151614e958882614dc1565b9750614ea08361554e565b925050600181019050614e81565b5085935050505092915050565b614ec481615646565b82525050565b6000614ed6838561559f565b9350614ee383858461567c565b82840190509392505050565b6000614efa82615536565b614f04818561557d565b9350614f1481856020860161568b565b614f1d8161586e565b840191505092915050565b6000614f3382615536565b614f3d818561558e565b9350614f4d81856020860161568b565b614f568161586e565b840191505092915050565b60008154614f6e816156be565b614f78818661559f565b94506001821660008114614f935760018114614fa457614fd7565b60ff19831686528186019350614fd7565b614fad8561550b565b60005b83811015614fcf57815481890152600182019150602081019050614fb0565b838801955050505b50505092915050565b6000614fed60608361558e565b9150614ff88261587f565b606082019050919050565b600061501060158361558e565b915061501b826158f4565b602082019050919050565b600061503360108361558e565b915061503e8261591d565b602082019050919050565b600061505660158361558e565b915061506182615946565b602082019050919050565b600061507960228361558e565b91506150848261596f565b604082019050919050565b600061509c60158361558e565b91506150a7826159be565b602082019050919050565b60006150bf601b8361558e565b91506150ca826159e7565b602082019050919050565b60006150e2602f8361558e565b91506150ed82615a10565b604082019050919050565b600061510560618361558e565b915061511082615a5f565b608082019050919050565b61512481615672565b82525050565b61513381615672565b82525050565b6000615146828486614eca565b91508190509392505050565b600061515e8284614f61565b915081905092915050565b600060208201905081810360008301526151838184614de8565b905092915050565b600060208201905081810360008301526151a58184614e5d565b905092915050565b60006020820190506151c26000830184614ebb565b92915050565b600060208201905081810360008301526151e28184614f28565b905092915050565b6000602082019050818103600083015261520381614fe0565b9050919050565b6000602082019050818103600083015261522381615003565b9050919050565b6000602082019050818103600083015261524381615026565b9050919050565b6000602082019050818103600083015261526381615049565b9050919050565b600060208201905081810360008301526152838161506c565b9050919050565b600060208201905081810360008301526152a38161508f565b9050919050565b600060208201905081810360008301526152c3816150b2565b9050919050565b600060208201905081810360008301526152e3816150d5565b9050919050565b60006020820190508181036000830152615303816150f8565b9050919050565b600060208201905061531f600083018461512a565b92915050565b600060608201905061533a600083018661512a565b818103602083015261534c8185614f28565b905061535b6040830184614dd9565b949350505050565b6000608082019050615378600083018761512a565b818103602083015261538a8186614f28565b90506153996040830185614dd9565b6153a6606083018461512a565b95945050505050565b600060c0820190506153c4600083018961512a565b81810360208301526153d68188614f28565b90506153e56040830187614dd9565b6153f2606083018661512a565b6153ff608083018561512a565b61540c60a083018461512a565b979650505050505050565b600060808201905061542c600083018761512a565b818103602083015261543e8186614f28565b905061544d604083018561512a565b61545a606083018461512a565b95945050505050565b6000606082019050615478600083018661512a565b615485602083018561512a565b615492604083018461512a565b949350505050565b60006154a46154b5565b90506154b082826156f0565b919050565b6000604051905090565b600067ffffffffffffffff8211156154da576154d9615826565b5b602082029050602081019050919050565b6000819050602082019050919050565b6000819050602082019050919050565b60008190508160005260206000209050919050565b600081519050919050565b600081519050919050565b600081519050919050565b6000602082019050919050565b6000602082019050919050565b600082825260208201905092915050565b600082825260208201905092915050565b600082825260208201905092915050565b600082825260208201905092915050565b600081905092915050565b60006155b582615672565b91506155c083615672565b9250827fffffffffffffffffffffffffffffffffffffffffffffffffffffffffffffffff038211156155f5576155f461576a565b5b828201905092915050565b600061560b82615672565b915061561683615672565b9250828210156156295761562861576a565b5b828203905092915050565b600061563f82615652565b9050919050565b60008115159050919050565b600073ffffffffffffffffffffffffffffffffffffffff82169050919050565b6000819050919050565b82818337600083830152505050565b60005b838110156156a957808201518184015260208101905061568e565b838111156156b8576000848401525b50505050565b600060028204905060018216806156d657607f821691505b602082108114156156ea576156e9615799565b5b50919050565b6156f98261586e565b810181811067ffffffffffffffff8211171561571857615717615826565b5b80604052505050565b600061572c82615672565b91507fffffffffffffffffffffffffffffffffffffffffffffffffffffffffffffffff82141561575f5761575e61576a565b5b600182019050919050565b7f4e487b7100000000000000000000000000000000000000000000000000000000600052601160045260246000fd5b7f4e487b7100000000000000000000000000000000000000000000000000000000600052602260045260246000fd5b7f4e487b7100000000000000000000000000000000000000000000000000000000600052603160045260246000fd5b7f4e487b7100000000000000000000000000000000000000000000000000000000600052603260045260246000fd5b7f4e487b7100000000000000000000000000000000000000000000000000000000600052604160045260246000fd5b600080fd5b600080fd5b600080fd5b600080fd5b600080fd5b6000601f19601f8301169050919050565b7f5768656e2073657474696e672074686520707265666572656e6365206c65766560008201527f6c206f6620636f75727365732c206974206973206e656365737361727920746f60208201527f206861766520616e20657175616c206e756d626572206f6620636f7572736573604082015250565b7fe8afa5e78fade7baa7e5b7b2e7bb8fe68993e588860000000000000000000000600082015250565b7f436f75727365206e6f7420666f756e6400000000000000000000000000000000600082015250565b7fe8afa5e88081e5b888e5b7b2e7bb8fe68993e588860000000000000000000000600082015250565b7f6d7573742075706461746520616c6c20636f7572736520737569746162696c6960008201527f7479000000000000000000000000000000000000000000000000000000000000602082015250565b7fe8afa5e79da3e5afbce5b7b2e7bb8fe8af84e588860000000000000000000000600082015250565b7f5265616368657220446972656374696f6e206e6f7420666f756e640000000000600082015250565b7f4f6e6c7920726567697374657265642074656163686572732063616e2063616c60008201527f6c20746869732066756e6374696f6e0000000000000000000000000000000000602082015250565b7f5768656e2073657474696e672074686520737569746162696c697479206c657660008201527f656c206f6620636f75727365732c206974206973206e6563657373617279207460208201527f6f206861766520616e20657175616c206e756d626572206f6620636f7572736560408201527f7300000000000000000000000000000000000000000000000000000000000000606082015250565b615b0381615634565b8114615b0e57600080fd5b50565b615b1a81615672565b8114615b2557600080fd5b5056fea2646970667358221220b1747fff6429ade3c8c5aa2b5f387694baea5a1be5bf023d9524376df9a36b8a64736f6c63430008070033",
  "immutableReferences": {},
  "source": "// SPDX-License-Identifier: MIT\r\npragma solidity ^0.8.7;\r\n\r\ncontract ICourseAllocation {\r\n    // \r\n    struct Teacher {\r\n        uint256 id;\r\n        string name;\r\n        string[] researchDrection;\r\n        uint256[] paperCount;\r\n        address addr;\r\n        uint256[] assignedCourses;\r\n        uint256[] reallyAssignedCourses;\r\n        uint256 suitabilityWeight;\r\n        uint256 transferCourseCoins;\r\n        uint256 value;\r\n        mapping(uint256 => uint256) courseSuitabilities;\r\n        mapping(uint256 => uint256) coursePreferences;\r\n    }\r\n\r\n    // \r\n    struct Agent {\r\n        uint256 id;\r\n        string name;\r\n        address addr;\r\n        uint256 value;\r\n        uint256[] assignedCourses;\r\n        mapping(uint256 => uint256) courseSuitabilities;\r\n    }\r\n\r\n    // \r\n    struct Supervisor {\r\n        uint256 id;\r\n        string name;\r\n        address addr;\r\n        mapping(uint256 => uint256) courseScores;\r\n    }\r\n\r\n    // \r\n    struct Course {\r\n        uint256 id;\r\n        string name;\r\n        uint256 importance;\r\n        uint256[] assignedTeacherId;\r\n        uint256[] assignedAgentId;\r\n        uint256 courseDifficulty;\r\n    }\r\n\r\n    struct CourseScore {\r\n        uint256 id; // id\r\n        uint256 totalScore;\r\n        uint256[] classScores;\r\n        mapping(uint256 => uint256) giveScoreClassIdExists;\r\n        uint256[] teacherScores;\r\n        mapping(uint256 => uint256) giveScoreTeacherIdExists;\r\n        uint256[] supervisorScores;\r\n        mapping(uint256 => uint256) giveScoreSupervisorIdExists;\r\n        uint256 machineScore; // \r\n    }\r\n    // \r\n    string public ScoreTypeChioce;\r\n\r\n    // \r\n    uint256 public totalWeight;\r\n\r\n    //  => ID\r\n    mapping(address => uint256) public addressToTeacherId;\r\n\r\n    //  => ID\r\n    mapping(address => uint256) public addressToAgentId;\r\n\r\n    //  => ID\r\n    mapping(address => uint256) public addressToClassId;\r\n\r\n    //  => ID\r\n    mapping(address => uint256) public addressToSupervisorId;\r\n\r\n    // ID => \r\n    mapping(uint256 => Teacher) public teachers;\r\n\r\n    // ID => \r\n    mapping(uint256 => Agent) public agents;\r\n\r\n    // ID => \r\n    mapping(uint256 => Supervisor) public supervisors;\r\n\r\n    // ID => \r\n    mapping(uint256 => Course) public courses;\r\n\r\n    // ID => \r\n    mapping(uint256 => CourseScore) public courseScores;\r\n\r\n    // ID\r\n    uint256 public teacherCount;\r\n\r\n    // ID\r\n    uint256 public agentCount;\r\n\r\n    // ID\r\n    uint256 public classCount;\r\n\r\n    // ID\r\n    uint256 public courseCount;\r\n\r\n    // ID\r\n    uint256 public supervisorCount;\r\n\r\n    // ID\r\n    uint256[] public teacherIds;\r\n\r\n    // ID\r\n    uint256[] public agentIds;\r\n\r\n    // ID\r\n    uint256[] public courseIds;\r\n\r\n    // ID\r\n    uint256[] public classIds;\r\n\r\n    // ID\r\n    uint256[] public supervisorIds;\r\n\r\n    // \r\n    uint256 public transferCourseNumbers;\r\n\r\n    // \r\n    uint256 public transferCourseStartTime;\r\n\r\n    // \r\n    uint256 public transferCourseEndTime;\r\n\r\n    // \r\n    // event CourseImportanceSet(uint256 indexed courseId, uint256 importance);\r\n    // event SuitabilityUpdated(uint256 indexed courseId, uint256 suitability);\r\n    // event PreferenceUpdated(uint256 indexed teacherId, uint256 indexed courseId, uint256 preference);\r\n    // event ProposalCreated(uint256 proposalId, uint256 indexed courseId, uint256[] teacherIds); // \r\n    // event MachineProposal(uint256 proposalId, uint256 indexed courseId, uint256[] teacherIds, uint256[] teacherCounts); // \r\n    // event CourseAssignedToTeacher(uint256 indexed courseId, uint256 indexed teacherId); // \r\n\r\n    // \r\n    constructor() {}\r\n\r\n    // \r\n    modifier onlyTeacher() {\r\n        require(\r\n            addressToTeacherId[msg.sender] != 0,\r\n            \"Only registered teachers can call this function\"\r\n        );\r\n        _;\r\n    }\r\n\r\n    // ID\r\n    function setTeacherId(address teacherAddress, uint256 _TeacherId) public {\r\n        addressToTeacherId[teacherAddress] = _TeacherId;\r\n        teachers[_TeacherId].id = _TeacherId;\r\n        teacherIds.push(_TeacherId);\r\n    }\r\n\r\n    // \r\n    function removeTeacher(uint256 teacherId) public onlyTeacher {\r\n        teachers[teacherId].id = 0;\r\n        //  teacherIds  ID\r\n        for (uint256 i = 0; i < teacherIds.length; i++) {\r\n            if (teacherIds[i] == teacherId) {\r\n                //  ID \r\n                teacherIds[i] = teacherIds[teacherIds.length - 1];\r\n                // \r\n                teacherIds.pop();\r\n                break;\r\n            }\r\n        }\r\n    }\r\n\r\n    // \r\n    function setTeacherName(\r\n        uint256 teacherId,\r\n        string calldata _name\r\n    ) public onlyTeacher {\r\n        teachers[teacherId].name = _name;\r\n    }\r\n\r\n    // \r\n    function setTeacherAddress(\r\n        uint256 teacherId,\r\n        address _teacherAddress\r\n    ) public onlyTeacher {\r\n        teachers[teacherId].addr = _teacherAddress;\r\n    }\r\n\r\n    // \r\n    function addTeacherAssignedCourses(\r\n        uint256 teacherId,\r\n        uint256 _assignedCourses\r\n    ) public {\r\n        bool found = false;\r\n        for (uint256 i = 0; i < teachers[teacherId].assignedCourses.length; i++) {\r\n            // require(\r\n            //     teachers[teacherId].assignedCourses[i] != _assignedCourses,\r\n            //     \"Course already assigned\"\r\n            // ); \r\n            if(teachers[teacherId].assignedCourses[i] == _assignedCourses){\r\n               found = true;\r\n               break; \r\n            }\r\n        }\r\n        if(!found) {\r\n            teachers[teacherId].assignedCourses.push(_assignedCourses);\r\n        }\r\n    }\r\n\r\n    // \r\n    function addTeacherResearchDirection(\r\n        uint256 teacherId,\r\n        string calldata _researchDirection\r\n    ) public {\r\n        teachers[teacherId].researchDrection.push(_researchDirection);\r\n    }\r\n\r\n    // \r\n    function addTeacherPaperCount(\r\n        uint256 teacherId,\r\n        uint256 _paperCount\r\n    ) public {\r\n        teachers[teacherId].paperCount.push(_paperCount);\r\n    }\r\n\r\n    // \r\n    function addTeacherReallyAssignedCourses(\r\n        uint256 teacherId,\r\n        uint256 _assignedCourses\r\n    ) public {\r\n        bool found = false;\r\n        for (uint256 i = 0; i < teachers[teacherId].reallyAssignedCourses.length; i++) {\r\n            // require(\r\n            //     teachers[teacherId].reallyAssignedCourses[i]!= _assignedCourses,\r\n            //     \"Course already assigned\"\r\n            // ); \r\n            if(teachers[teacherId].reallyAssignedCourses[i] == _assignedCourses){\r\n                found = true;\r\n                break;\r\n            }\r\n        }\r\n        if(!found) {\r\n            teachers[teacherId].reallyAssignedCourses.push(_assignedCourses); \r\n        }\r\n    }\r\n\r\n    // \r\n    function removeTeacherAssignedCourses(\r\n        uint256 teacherId,\r\n        uint256 _assignedCourses\r\n    ) public {\r\n        bool found = false;\r\n        uint256 indexToRemove;\r\n\r\n        //  ID \r\n        for (\r\n            uint256 i = 0;\r\n            i < teachers[teacherId].assignedCourses.length;\r\n            i++\r\n        ) {\r\n            if (teachers[teacherId].assignedCourses[i] == _assignedCourses) {\r\n                found = true;\r\n                indexToRemove = i;\r\n                break;\r\n            }\r\n        }\r\n\r\n        //  ID\r\n        if (found) {\r\n            // \r\n            teachers[teacherId].assignedCourses[indexToRemove] = teachers[\r\n                teacherId\r\n            ].assignedCourses[teachers[teacherId].assignedCourses.length - 1];\r\n            // \r\n            teachers[teacherId].assignedCourses.pop();\r\n        } else {\r\n            //  ID\r\n            revert(\"Course not found\");\r\n        }\r\n    }\r\n\r\n    // \r\n    function removeTeacherResearchDirection(\r\n        uint256 teacherId,\r\n        string calldata _researchDirection\r\n    ) public {\r\n        bool found = false;\r\n        uint256 indexToRemove;\r\n\r\n        //  ID \r\n        for (\r\n            uint256 i = 0;\r\n            i < teachers[teacherId].researchDrection.length;\r\n            i++\r\n        ) {\r\n            if (compareStrings(teacherId, i , _researchDirection)) {\r\n                found = true;\r\n                indexToRemove = i;\r\n                break;\r\n            }\r\n        }\r\n\r\n        //  ID\r\n        if (found) {\r\n            // \r\n            teachers[teacherId].researchDrection[indexToRemove] = teachers[\r\n                teacherId\r\n            ].researchDrection[teachers[teacherId].researchDrection.length - 1];\r\n            // \r\n            teachers[teacherId].researchDrection.pop();\r\n\r\n            // \r\n            teachers[teacherId].paperCount[indexToRemove] = teachers[\r\n                teacherId\r\n            ].paperCount[teachers[teacherId].paperCount.length - 1];\r\n            // \r\n            teachers[teacherId].paperCount.pop();\r\n\r\n        } else {\r\n            //  ID\r\n            revert(\"Reacher Direction not found\");\r\n        }\r\n    }\r\n\r\n    // \r\n    function compareStrings(uint256 teacherId, uint256 index, string calldata inputString) public view returns (bool) {\r\n        //  storage  calldata  memory\r\n        bytes32 storedHash = keccak256(abi.encodePacked(teachers[teacherId].researchDrection[index]));\r\n        bytes32 inputHash = keccak256(abi.encodePacked(inputString));\r\n\r\n        // \r\n        return storedHash == inputHash;\r\n    }\r\n\r\n    // \r\n    function removeTeacherReallyAssignedCourses(\r\n        uint256 teacherId,\r\n        uint256 _assignedCourses\r\n    ) public {\r\n        bool found = false;\r\n        uint256 indexToRemove;\r\n\r\n        //  ID \r\n        for (\r\n            uint256 i = 0;\r\n            i < teachers[teacherId].reallyAssignedCourses.length;\r\n            i++\r\n        ) {\r\n            if (\r\n                teachers[teacherId].reallyAssignedCourses[i] == _assignedCourses\r\n            ) {\r\n                found = true;\r\n                indexToRemove = i;\r\n                break;\r\n            }\r\n        }\r\n\r\n        //  ID\r\n        if (found) {\r\n            // \r\n            teachers[teacherId].reallyAssignedCourses[indexToRemove] = teachers[\r\n                teacherId\r\n            ].reallyAssignedCourses[\r\n                    teachers[teacherId].reallyAssignedCourses.length - 1\r\n                ];\r\n            // \r\n            teachers[teacherId].reallyAssignedCourses.pop();\r\n        } else {\r\n            //  ID\r\n            revert(\"Course not found\");\r\n        }\r\n    }\r\n\r\n    // \r\n    function setTeacherSuitabilityWeight(\r\n        uint256 teacherId,\r\n        uint256 _suitabilityWeight\r\n    ) public onlyTeacher {\r\n        totalWeight -= teachers[teacherId].suitabilityWeight;\r\n        teachers[teacherId].suitabilityWeight = _suitabilityWeight;\r\n        totalWeight += teachers[teacherId].suitabilityWeight;\r\n    }\r\n\r\n    // \r\n    function setTeacherTransferCourseCoins(\r\n        uint256 teacherId,\r\n        uint256 _transferCourseCoins\r\n    ) public onlyTeacher {\r\n        teachers[teacherId].transferCourseCoins = _transferCourseCoins;\r\n    }\r\n\r\n    // \r\n    function setTeacherValue(\r\n        uint256 teacherId,\r\n        uint256 _value\r\n    ) public onlyTeacher {\r\n        teachers[teacherId].value = _value;\r\n    }\r\n\r\n    // \r\n    function setAgentValue(uint256 agentId, uint256 _value) public {\r\n        agents[agentId].value = _value;\r\n    }\r\n\r\n    // \r\n    function setAllTeacherCourseSuitability(\r\n        uint256 teacherId,\r\n        uint256[] calldata _suitabilities\r\n    ) public onlyTeacher {\r\n        require(\r\n            _suitabilities.length == courseIds.length,\r\n            \"When setting the suitability level of courses, it is necessary to have an equal number of courses\"\r\n        );\r\n        for (\r\n            uint256 courseIndex = 0;\r\n            courseIndex < courseIds.length;\r\n            courseIndex++\r\n        ) {\r\n            teachers[teacherId].courseSuitabilities[\r\n                courseIds[courseIndex]\r\n            ] = _suitabilities[courseIndex];\r\n        }\r\n    }\r\n\r\n    // \r\n    function setTeacherCourseSuitability(\r\n        uint256 teacherId,\r\n        uint256 courseId,\r\n        uint256 _suitability\r\n    ) public {\r\n        teachers[teacherId].courseSuitabilities[courseId] = _suitability;\r\n    }\r\n\r\n    // \r\n    function setAllTeacherCoursePreferences(\r\n        uint256 teacherId,\r\n        uint256[] calldata _preferences\r\n    ) public onlyTeacher {\r\n        require(\r\n            _preferences.length == courseIds.length,\r\n            \"When setting the preference level of courses, it is necessary to have an equal number of courses\"\r\n        );\r\n        for (\r\n            uint256 courseIndex = 0;\r\n            courseIndex < courseIds.length;\r\n            courseIndex++\r\n        ) {\r\n            teachers[teacherId].coursePreferences[\r\n                courseIds[courseIndex]\r\n            ] = _preferences[courseIndex];\r\n        }\r\n    }\r\n\r\n    // \r\n    function setTeacherCoursePreferences(\r\n        uint256 teacherId,\r\n        uint256 courseId,\r\n        uint256 _preference\r\n    ) public onlyTeacher {\r\n        teachers[teacherId].coursePreferences[courseId] = _preference;\r\n    }\r\n\r\n    // ID\r\n    function setAgentId(address agentAddress, uint256 _agentId) public {\r\n        addressToAgentId[agentAddress] = _agentId;\r\n        agents[_agentId].id = _agentId;\r\n        agentIds.push(_agentId);\r\n    }\r\n\r\n    // \r\n    function removeAgent(uint256 agentId) public {\r\n        agents[agentId].id = 0;\r\n        //  agentIds  ID\r\n        for (uint256 i = 0; i < agentIds.length; i++) {\r\n            if (agentIds[i] == agentId) {\r\n                //  ID \r\n                agentIds[i] = agentIds[agentIds.length - 1];\r\n                // \r\n                agentIds.pop();\r\n                break;\r\n            }\r\n        }\r\n    }\r\n\r\n    // \r\n    function setAgentName(uint256 agentId, string calldata _name) public {\r\n        agents[agentId].name = _name;\r\n    }\r\n\r\n    // \r\n    function setAgentAddress(uint256 agentId, address _agentAddress) public {\r\n        agents[agentId].addr = _agentAddress;\r\n    }\r\n\r\n    // \r\n    function addAgentAssignedCourses(\r\n        uint256 agentId,\r\n        uint256 _assignedCourses\r\n    ) public {\r\n        bool found = false;\r\n        for (uint256 i = 0; i < agents[agentId].assignedCourses.length; i++) {\r\n            // require(\r\n            //     agents[agentId].assignedCourses[i]!= _assignedCourses,\r\n            //     \"Course already assigned\"\r\n            // );\r\n            if(agents[agentId].assignedCourses[i] == _assignedCourses){\r\n               found = true;\r\n               break; \r\n            } \r\n        }\r\n        if(!found) {\r\n            agents[agentId].assignedCourses.push(_assignedCourses); \r\n        }\r\n    }\r\n\r\n    // \r\n    function removeAgentAssignedCourses(\r\n        uint256 agentId,\r\n        uint256 _assignedCourses\r\n    ) public {\r\n        bool found = false;\r\n        uint256 indexToRemove;\r\n\r\n        //  ID \r\n        for (uint256 i = 0; i < agents[agentId].assignedCourses.length; i++) {\r\n            if (agents[agentId].assignedCourses[i] == _assignedCourses) {\r\n                found = true;\r\n                indexToRemove = i;\r\n                break;\r\n            }\r\n        }\r\n\r\n        //  ID\r\n        if (found) {\r\n            // \r\n            agents[agentId].assignedCourses[indexToRemove] = agents[agentId]\r\n                .assignedCourses[agents[agentId].assignedCourses.length - 1];\r\n            // \r\n            agents[agentId].assignedCourses.pop();\r\n        } else {\r\n            //  ID\r\n            revert(\"Course not found\");\r\n        }\r\n    }\r\n\r\n    // \r\n    function setAgentCourseSuitability(\r\n        uint256 agentId,\r\n        uint256 _courseId,\r\n        uint256 _suitability\r\n    ) public {\r\n        agents[agentId].courseSuitabilities[_courseId] = _suitability;\r\n    }\r\n\r\n    // \r\n    function setAllAgentCourseSuitability(\r\n        uint256 agentId,\r\n        uint256[] calldata _suitabilities\r\n    ) public {\r\n        require(\r\n            _suitabilities.length == courseIds.length,\r\n            \"When setting the suitability level of courses, it is necessary to have an equal number of courses\"\r\n        );\r\n        for (\r\n            uint256 courseIndex = 0;\r\n            courseIndex < courseIds.length;\r\n            courseIndex++\r\n        ) {\r\n            agents[agentId].courseSuitabilities[\r\n                courseIds[courseIndex]\r\n            ] = _suitabilities[courseIndex];\r\n        }\r\n    }\r\n\r\n    // ID\r\n    function setClassId(address classAddress, uint256 _id) public {\r\n        addressToClassId[classAddress] = _id;\r\n        classIds.push(_id);\r\n    }\r\n\r\n    // \r\n    function removeClass(uint256 classId) public {\r\n        //  classIds  ID\r\n        for (uint256 i = 0; i < classIds.length; i++) {\r\n            if (classIds[i] == classId) {\r\n                //  ID \r\n                classIds[i] = classIds[classIds.length - 1];\r\n                // \r\n                classIds.pop();\r\n                break;\r\n            }\r\n        }\r\n    }\r\n\r\n    // ID\r\n    function setCourseId(uint256 courseId) public {\r\n        courses[courseId].id = courseId;\r\n        courseIds.push(courseId);\r\n    }\r\n\r\n    // \r\n    function removeCourse(uint256 courseId) public {\r\n        //  classIds  ID\r\n        for (uint256 i = 0; i < courseIds.length; i++) {\r\n            if (courseIds[i] == courseId) {\r\n                //  ID \r\n                courseIds[i] = courseIds[courseIds.length - 1];\r\n                // \r\n                courseIds.pop();\r\n                break;\r\n            }\r\n        }\r\n    }\r\n\r\n    // \r\n    function setCourseName(uint256 courseId, string calldata _name) public {\r\n        courses[courseId].name = _name;\r\n    }\r\n\r\n    // \r\n    function setCourseImportance(uint256 courseId, uint256 _importance) public {\r\n        courses[courseId].importance = _importance;\r\n    }\r\n\r\n    // \r\n    function setCourseDifficulty(uint256 courseId, uint256 _courseDifficulty) public {\r\n        courses[courseId].courseDifficulty = _courseDifficulty;\r\n    }\r\n\r\n    // \r\n    function setmachineScore(uint256 courseId, uint256 _machineScore) public {\r\n        courseScores[courseId].machineScore = _machineScore;\r\n    }\r\n\r\n    // \r\n    function setAllCourseImportance(uint256[] memory _importances) public {\r\n        require(\r\n            _importances.length == courseIds.length,\r\n            \"must update all course suitability\"\r\n        );\r\n        // \r\n        for (\r\n            uint256 courseIndex = 0;\r\n            courseIndex < courseIds.length;\r\n            courseIndex++\r\n        ) {\r\n            courses[courseIds[courseIndex]].importance = _importances[\r\n                courseIndex\r\n            ];\r\n        }\r\n    }\r\n\r\n    // ID\r\n    function addCourseAssignedTeacherId(\r\n        uint256 courseId,\r\n        uint256 _teacherId\r\n    ) public {\r\n        bool found = false;\r\n        for (uint256 i = 0; i < courses[courseId].assignedTeacherId.length; i++) {\r\n            // require(\r\n            //     courses[courseId].assignedTeacherId[i]!= _teacherId,\r\n            //     \"Teacher already assigned\"\r\n            // );\r\n            if (courses[courseId].assignedTeacherId[i] == _teacherId) {\r\n                found = true;\r\n                break; \r\n            }\r\n        }\r\n        if(!found) {\r\n            courses[courseId].assignedTeacherId.push(_teacherId); \r\n        }\r\n    }\r\n\r\n    // ID\r\n    function addCourseAssignedAgentId(\r\n        uint256 courseId,\r\n        uint256 _agentId\r\n    ) public {\r\n        bool found = false;\r\n        for (uint256 i = 0; i < courses[courseId].assignedAgentId.length; i++) {\r\n            // require(\r\n            //     courses[courseId].assignedAgentId[i]!= _agentId,\r\n            //     \"Agent already assigned\"\r\n            // );\r\n            if (courses[courseId].assignedAgentId[i] == _agentId) {\r\n                found = true;\r\n                break;\r\n            } \r\n        }\r\n        if(!found) {\r\n            courses[courseId].assignedAgentId.push(_agentId); \r\n        }\r\n    }\r\n\r\n    // \r\n    function removeCourseAssignedTeacherId(\r\n        uint256 courseId,\r\n        uint256 _teacherId\r\n    ) public {\r\n        bool found = false;\r\n        uint256 indexToRemove;\r\n\r\n        //  ID \r\n        for (\r\n            uint256 i = 0;\r\n            i < courses[courseId].assignedTeacherId.length;\r\n            i++\r\n        ) {\r\n            if (courses[courseId].assignedTeacherId[i] == _teacherId) {\r\n                found = true;\r\n                indexToRemove = i;\r\n                break;\r\n            }\r\n        }\r\n\r\n        //  ID\r\n        if (found) {\r\n            // \r\n            courses[courseId].assignedTeacherId[indexToRemove] = courses[\r\n                courseId\r\n            ].assignedTeacherId[courses[courseId].assignedTeacherId.length - 1];\r\n            // \r\n            courses[courseId].assignedTeacherId.pop();\r\n        } else {\r\n            //  ID\r\n            revert(\"Course not found\");\r\n        }\r\n    }\r\n\r\n    // \r\n    function removeCourseAssignedAgentId(\r\n        uint256 courseId,\r\n        uint256 _agentId\r\n    ) public {\r\n        bool found = false;\r\n        uint256 indexToRemove;\r\n\r\n        //  ID \r\n        for (uint256 i = 0; i < courses[courseId].assignedAgentId.length; i++) {\r\n            if (courses[courseId].assignedAgentId[i] == _agentId) {\r\n                found = true;\r\n                indexToRemove = i;\r\n                break;\r\n            }\r\n        }\r\n\r\n        //  ID\r\n        if (found) {\r\n            // \r\n            courses[courseId].assignedAgentId[indexToRemove] = courses[courseId]\r\n                .assignedAgentId[courses[courseId].assignedAgentId.length - 1];\r\n            // \r\n            courses[courseId].assignedAgentId.pop();\r\n        } else {\r\n            //  ID\r\n            revert(\"Course not found\");\r\n        }\r\n    }\r\n\r\n    // // \r\n    // function setCourseIsAgentSuitable(\r\n    //     uint256 courseId,\r\n    //     bool _isAgentSuitable\r\n    // ) public {\r\n    //     courses[courseId].isAgentSuitable = _isAgentSuitable;\r\n    // }\r\n\r\n    // \r\n    function setTeacherCount(uint256 _teacherCount) public {\r\n        teacherCount = _teacherCount;\r\n    }\r\n\r\n    // \r\n    function setAgentCount(uint256 _agentCount) public {\r\n        agentCount = _agentCount;\r\n    }\r\n\r\n    // \r\n    function setClassCount(uint256 _classCount) public {\r\n        classCount = _classCount;\r\n    }\r\n\r\n    // \r\n    function setCourseCount(uint256 _courseCount) public {\r\n        courseCount = _courseCount;\r\n    }\r\n\r\n    // \r\n    function getTeacherSuitability(\r\n        uint256 _teacherId,\r\n        uint256 courseId\r\n    ) public view returns (uint256) {\r\n        return teachers[_teacherId].courseSuitabilities[courseId];\r\n    }\r\n\r\n    // \r\n    function getAgentSuitability(\r\n        uint256 _agentId,\r\n        uint256 courseId\r\n    ) public view returns (uint256) {\r\n        return agents[_agentId].courseSuitabilities[courseId];\r\n    }\r\n\r\n    // \r\n    function getPreference(\r\n        uint256 _teacherId,\r\n        uint256 courseId\r\n    ) public view returns (uint256) {\r\n        return teachers[_teacherId].coursePreferences[courseId];\r\n    }\r\n\r\n    // \r\n    function getTeacherAssignedCourses(\r\n        uint256 _teacherId\r\n    ) public view returns (uint256[] memory) {\r\n        return teachers[_teacherId].assignedCourses;\r\n    }\r\n\r\n    // \r\n    function getTeacherReallyAssignedCourses(\r\n        uint256 _teacherId\r\n    ) public view returns (uint256[] memory) {\r\n        return teachers[_teacherId].reallyAssignedCourses;\r\n    }\r\n\r\n    // \r\n    function getTeacherResearchDirection(\r\n        uint256 _teacherId\r\n    ) public view returns (string[] memory) {\r\n        return teachers[_teacherId].researchDrection;\r\n    }\r\n\r\n    // \r\n    function getTeacherPaperCount(\r\n        uint256 _teacherId\r\n    ) public view returns (uint256[] memory) {\r\n        return teachers[_teacherId].paperCount;\r\n    }\r\n\r\n    // \r\n    function getAgentAssignedCourses(\r\n        uint256 _agentId\r\n    ) public view returns (uint256[] memory) {\r\n        return agents[_agentId].assignedCourses;\r\n    }\r\n\r\n    // \r\n    function getCoursesAssignedTeacher(\r\n        uint256 _courseId\r\n    ) public view returns (uint256[] memory) {\r\n        return courses[_courseId].assignedTeacherId;\r\n    }\r\n\r\n    // \r\n    function getCoursesAssignedAgent(\r\n        uint256 _courseId\r\n    ) public view returns (uint256[] memory) {\r\n        return courses[_courseId].assignedAgentId;\r\n    }\r\n\r\n    // \r\n    function getCourseImportance(uint courseId) external view returns (uint) {\r\n        return courses[courseId].importance;\r\n    }\r\n\r\n    // // \r\n    // function getCourseIsAgentSuitable(\r\n    //     uint courseId\r\n    // ) external view returns (bool) {\r\n    //     return courses[courseId].isAgentSuitable;\r\n    // }\r\n\r\n    function getTeacherIds() public view returns (uint256[] memory) {\r\n        return teacherIds;\r\n    }\r\n\r\n    function getAgentIds() public view returns (uint256[] memory) {\r\n        return agentIds;\r\n    }\r\n\r\n    function getCourseIds() public view returns (uint256[] memory) {\r\n        return courseIds;\r\n    }\r\n\r\n    function getClassIds() public view returns (uint256[] memory) {\r\n        return classIds;\r\n    }\r\n\r\n    function addCourseClassScores(\r\n        uint256 courseId,\r\n        uint256 classId,\r\n        uint256 score\r\n    ) public {\r\n        require(\r\n            courseScores[courseId].giveScoreClassIdExists[classId] == 0,\r\n            unicode\"\"\r\n        );\r\n        courseScores[courseId].giveScoreClassIdExists[classId] = score;\r\n        courseScores[courseId].classScores.push(score);\r\n    }\r\n\r\n    function getGiveScoreClassIdExists(\r\n        uint256 courseId,\r\n        uint256 classId\r\n    ) public view returns (uint256) {\r\n        return courseScores[courseId].giveScoreClassIdExists[classId];\r\n    }\r\n\r\n    // \r\n    function removeCourseClassScores(\r\n        uint256 courseId,\r\n        uint256[] memory classIds_\r\n    ) public {\r\n        for (uint256 i = 0; i < classIds_.length; i++) {\r\n            courseScores[courseId].giveScoreClassIdExists[classIds_[i]] = 0;\r\n        }\r\n        delete courseScores[courseId].classScores;\r\n    }\r\n\r\n    function getCourseClassScores(\r\n        uint256 courseId\r\n    ) public view returns (uint256[] memory) {\r\n        return courseScores[courseId].classScores;\r\n    }\r\n\r\n    function addTeacherScores(\r\n        uint256 courseId,\r\n        uint256 teacherId,\r\n        uint256 score\r\n    ) public {\r\n        require(\r\n            courseScores[courseId].giveScoreTeacherIdExists[teacherId] == 0,\r\n            unicode\"\"\r\n        );\r\n        courseScores[courseId].giveScoreTeacherIdExists[teacherId] = score;\r\n        courseScores[courseId].teacherScores.push(score);\r\n    }\r\n\r\n    function removeTeacherScores(\r\n        uint256 courseId,\r\n        uint256[] memory teacherIds_\r\n    ) public {\r\n        for (uint256 i = 0; i < teacherIds_.length; i++) {\r\n            courseScores[courseId].giveScoreTeacherIdExists[teacherIds_[i]] = 0;\r\n        }\r\n        delete courseScores[courseId].teacherScores;\r\n    }\r\n\r\n    function getTeacherScores(uint256 courseId) public view returns (uint256[] memory) {\r\n        return courseScores[courseId].teacherScores;\r\n    }\r\n\r\n    function getGiveScoreTeacherIdExists(\r\n        uint256 courseId,\r\n        uint256 teacherId \r\n    ) public view returns (uint256) {\r\n        return courseScores[courseId].giveScoreTeacherIdExists[teacherId]; \r\n    }\r\n\r\n    function setCourseTotalScore(uint256 courseId, uint256 score) public {\r\n        courseScores[courseId].totalScore = score;\r\n    }\r\n\r\n    function addCourseSupervisorScores(\r\n        uint256 courseId,\r\n        uint256 supervisorId,\r\n        uint256 score\r\n    ) public {\r\n        require(\r\n            courseScores[courseId].giveScoreSupervisorIdExists[supervisorId] ==\r\n                0,\r\n            unicode\"\"\r\n        );\r\n        courseScores[courseId].giveScoreSupervisorIdExists[\r\n            supervisorId\r\n        ] = score;\r\n        courseScores[courseId].supervisorScores.push(score);\r\n    }\r\n\r\n    function removeCourseSupervisorScores(\r\n        uint256 courseId,\r\n        uint256[] memory supervisorIds_ \r\n    ) public {\r\n        for (uint256 i = 0; i < supervisorIds_.length; i++) {\r\n            courseScores[courseId].giveScoreSupervisorIdExists[supervisorIds_[i]] = 0;\r\n        }\r\n        delete courseScores[courseId].supervisorScores;\r\n    }\r\n\r\n    function getGiveScoreSupervisorIdExists(\r\n        uint256 courseId,\r\n        uint256 supervisorId\r\n    ) public view returns (uint256) {\r\n        return courseScores[courseId].giveScoreSupervisorIdExists[supervisorId];\r\n    }\r\n\r\n    function getCourseSupervisorScores(\r\n        uint256 courseId\r\n    ) public view returns (uint256[] memory) {\r\n        return courseScores[courseId].supervisorScores;\r\n    }\r\n\r\n    function addSupervisorId(uint256 supervisorId) public {\r\n        supervisorIds.push(supervisorId);\r\n        supervisorCount++;\r\n    }\r\n\r\n    function getSupervisorIds() public view returns (uint256[] memory) {\r\n        return supervisorIds;\r\n    }\r\n\r\n    function setSupervisorId(address supervisor, uint256 supervisorId) public {\r\n        addressToSupervisorId[supervisor] = supervisorId;\r\n        supervisors[supervisorId].id = supervisorId;\r\n        supervisors[supervisorId].addr = supervisor;\r\n    }\r\n\r\n    function setSupervisorName(\r\n        uint256 supervisorId,\r\n        string calldata _name\r\n    ) public {\r\n        supervisors[supervisorId].name = _name;\r\n    }\r\n\r\n    function setSupervisorsCourseScore(\r\n        uint256 supervisorId,\r\n        uint256 courseId,\r\n        uint256 score\r\n    ) public {\r\n        supervisors[supervisorId].courseScores[courseId] = score;\r\n    }\r\n\r\n    function settransferCourseNumbers(uint256 _transferCourseNumbers) public {\r\n        transferCourseNumbers = _transferCourseNumbers;\r\n    }\r\n\r\n    function settransferCourseStartTime(\r\n        uint256 _transferCourseStartTime\r\n    ) public {\r\n        transferCourseStartTime = _transferCourseStartTime;\r\n    }\r\n\r\n    function settransferCourseEndTime(uint256 _transferCourseEndTime) public {\r\n        transferCourseEndTime = _transferCourseEndTime;\r\n    }\r\n\r\n    function setScoreType(string calldata option) public {\r\n        ScoreTypeChioce = option;\r\n    }\r\n}\r\n",
  "sourcePath": "D:\\vscode\\\\course\\project\\contracts\\ICourseAllocation.sol",
  "compiler": {
    "name": "solc",
    "version": "0.8.7+commit.e28d00a7.Emscripten.clang"
  },
  "schemaVersion": "3.4.16",
  "updatedAt": "2025-04-22T13:36:34.772Z",
  "networkType": "ethereum",
  "devdoc": {
    "kind": "dev",
    "methods": {},
    "version": 1
  },
  "userdoc": {
    "kind": "user",
    "methods": {},
    "version": 1
  }
}