{
  "contractName": "ICourseAllocation",
  "abi": [
    {
      "inputs": [],
      "stateMutability": "nonpayable",
      "type": "constructor"
    },
    {
      "inputs": [
        {
          "internalType": "address",
          "name": "",
          "type": "address"
        }
      ],
      "name": "addressToAgentId",
      "outputs": [
        {
          "internalType": "uint256",
          "name": "",
          "type": "uint256"
        }
      ],
      "stateMutability": "view",
      "type": "function",
      "constant": true
    },
    {
      "inputs": [
        {
          "internalType": "address",
          "name": "",
          "type": "address"
        }
      ],
      "name": "addressToClassId",
      "outputs": [
        {
          "internalType": "uint256",
          "name": "",
          "type": "uint256"
        }
      ],
      "stateMutability": "view",
      "type": "function",
      "constant": true
    },
    {
      "inputs": [
        {
          "internalType": "address",
          "name": "",
          "type": "address"
        }
      ],
      "name": "addressToSupervisorId",
      "outputs": [
        {
          "internalType": "uint256",
          "name": "",
          "type": "uint256"
        }
      ],
      "stateMutability": "view",
      "type": "function",
      "constant": true
    },
    {
      "inputs": [
        {
          "internalType": "address",
          "name": "",
          "type": "address"
        }
      ],
      "name": "addressToTeacherId",
      "outputs": [
        {
          "internalType": "uint256",
          "name": "",
          "type": "uint256"
        }
      ],
      "stateMutability": "view",
      "type": "function",
      "constant": true
    },
    {
      "inputs": [],
      "name": "agentCount",
      "outputs": [
        {
          "internalType": "uint256",
          "name": "",
          "type": "uint256"
        }
      ],
      "stateMutability": "view",
      "type": "function",
      "constant": true
    },
    {
      "inputs": [
        {
          "internalType": "uint256",
          "name": "",
          "type": "uint256"
        }
      ],
      "name": "agentIds",
      "outputs": [
        {
          "internalType": "uint256",
          "name": "",
          "type": "uint256"
        }
      ],
      "stateMutability": "view",
      "type": "function",
      "constant": true
    },
    {
      "inputs": [
        {
          "internalType": "uint256",
          "name": "",
          "type": "uint256"
        }
      ],
      "name": "agents",
      "outputs": [
        {
          "internalType": "uint256",
          "name": "id",
          "type": "uint256"
        },
        {
          "internalType": "string",
          "name": "name",
          "type": "string"
        },
        {
          "internalType": "address",
          "name": "addr",
          "type": "address"
        },
        {
          "internalType": "uint256",
          "name": "value",
          "type": "uint256"
        }
      ],
      "stateMutability": "view",
      "type": "function",
      "constant": true
    },
    {
      "inputs": [],
      "name": "classCount",
      "outputs": [
        {
          "internalType": "uint256",
          "name": "",
          "type": "uint256"
        }
      ],
      "stateMutability": "view",
      "type": "function",
      "constant": true
    },
    {
      "inputs": [
        {
          "internalType": "uint256",
          "name": "",
          "type": "uint256"
        }
      ],
      "name": "classIds",
      "outputs": [
        {
          "internalType": "uint256",
          "name": "",
          "type": "uint256"
        }
      ],
      "stateMutability": "view",
      "type": "function",
      "constant": true
    },
    {
      "inputs": [],
      "name": "courseCount",
      "outputs": [
        {
          "internalType": "uint256",
          "name": "",
          "type": "uint256"
        }
      ],
      "stateMutability": "view",
      "type": "function",
      "constant": true
    },
    {
      "inputs": [
        {
          "internalType": "uint256",
          "name": "",
          "type": "uint256"
        }
      ],
      "name": "courseIds",
      "outputs": [
        {
          "internalType": "uint256",
          "name": "",
          "type": "uint256"
        }
      ],
      "stateMutability": "view",
      "type": "function",
      "constant": true
    },
    {
      "inputs": [
        {
          "internalType": "uint256",
          "name": "",
          "type": "uint256"
        }
      ],
      "name": "courseScores",
      "outputs": [
        {
          "internalType": "uint256",
          "name": "id",
          "type": "uint256"
        },
        {
          "internalType": "uint256",
          "name": "totalScore",
          "type": "uint256"
        },
        {
          "internalType": "uint256",
          "name": "selfScore",
          "type": "uint256"
        }
      ],
      "stateMutability": "view",
      "type": "function",
      "constant": true
    },
    {
      "inputs": [
        {
          "internalType": "uint256",
          "name": "",
          "type": "uint256"
        }
      ],
      "name": "courses",
      "outputs": [
        {
          "internalType": "uint256",
          "name": "id",
          "type": "uint256"
        },
        {
          "internalType": "string",
          "name": "name",
          "type": "string"
        },
        {
          "internalType": "uint256",
          "name": "importance",
          "type": "uint256"
        },
        {
          "internalType": "bool",
          "name": "isAgentSuitable",
          "type": "bool"
        }
      ],
      "stateMutability": "view",
      "type": "function",
      "constant": true
    },
    {
      "inputs": [],
      "name": "supervisorCount",
      "outputs": [
        {
          "internalType": "uint256",
          "name": "",
          "type": "uint256"
        }
      ],
      "stateMutability": "view",
      "type": "function",
      "constant": true
    },
    {
      "inputs": [
        {
          "internalType": "uint256",
          "name": "",
          "type": "uint256"
        }
      ],
      "name": "supervisorIds",
      "outputs": [
        {
          "internalType": "uint256",
          "name": "",
          "type": "uint256"
        }
      ],
      "stateMutability": "view",
      "type": "function",
      "constant": true
    },
    {
      "inputs": [
        {
          "internalType": "uint256",
          "name": "",
          "type": "uint256"
        }
      ],
      "name": "supervisors",
      "outputs": [
        {
          "internalType": "uint256",
          "name": "id",
          "type": "uint256"
        },
        {
          "internalType": "string",
          "name": "name",
          "type": "string"
        },
        {
          "internalType": "address",
          "name": "addr",
          "type": "address"
        }
      ],
      "stateMutability": "view",
      "type": "function",
      "constant": true
    },
    {
      "inputs": [],
      "name": "teacherCount",
      "outputs": [
        {
          "internalType": "uint256",
          "name": "",
          "type": "uint256"
        }
      ],
      "stateMutability": "view",
      "type": "function",
      "constant": true
    },
    {
      "inputs": [
        {
          "internalType": "uint256",
          "name": "",
          "type": "uint256"
        }
      ],
      "name": "teacherIds",
      "outputs": [
        {
          "internalType": "uint256",
          "name": "",
          "type": "uint256"
        }
      ],
      "stateMutability": "view",
      "type": "function",
      "constant": true
    },
    {
      "inputs": [
        {
          "internalType": "uint256",
          "name": "",
          "type": "uint256"
        }
      ],
      "name": "teachers",
      "outputs": [
        {
          "internalType": "uint256",
          "name": "id",
          "type": "uint256"
        },
        {
          "internalType": "string",
          "name": "name",
          "type": "string"
        },
        {
          "internalType": "address",
          "name": "addr",
          "type": "address"
        },
        {
          "internalType": "uint256",
          "name": "suitabilityWeight",
          "type": "uint256"
        },
        {
          "internalType": "uint256",
          "name": "transferCourseCoins",
          "type": "uint256"
        },
        {
          "internalType": "uint256",
          "name": "value",
          "type": "uint256"
        }
      ],
      "stateMutability": "view",
      "type": "function",
      "constant": true
    },
    {
      "inputs": [],
      "name": "totalWeight",
      "outputs": [
        {
          "internalType": "uint256",
          "name": "",
          "type": "uint256"
        }
      ],
      "stateMutability": "view",
      "type": "function",
      "constant": true
    },
    {
      "inputs": [],
      "name": "transferCourseEndTime",
      "outputs": [
        {
          "internalType": "uint256",
          "name": "",
          "type": "uint256"
        }
      ],
      "stateMutability": "view",
      "type": "function",
      "constant": true
    },
    {
      "inputs": [],
      "name": "transferCourseNumbers",
      "outputs": [
        {
          "internalType": "uint256",
          "name": "",
          "type": "uint256"
        }
      ],
      "stateMutability": "view",
      "type": "function",
      "constant": true
    },
    {
      "inputs": [],
      "name": "transferCourseStartTime",
      "outputs": [
        {
          "internalType": "uint256",
          "name": "",
          "type": "uint256"
        }
      ],
      "stateMutability": "view",
      "type": "function",
      "constant": true
    },
    {
      "inputs": [
        {
          "internalType": "address",
          "name": "teacherAddress",
          "type": "address"
        },
        {
          "internalType": "uint256",
          "name": "_TeacherId",
          "type": "uint256"
        }
      ],
      "name": "setTeacherId",
      "outputs": [],
      "stateMutability": "nonpayable",
      "type": "function"
    },
    {
      "inputs": [
        {
          "internalType": "uint256",
          "name": "teacherId",
          "type": "uint256"
        }
      ],
      "name": "removeTeacher",
      "outputs": [],
      "stateMutability": "nonpayable",
      "type": "function"
    },
    {
      "inputs": [
        {
          "internalType": "uint256",
          "name": "teacherId",
          "type": "uint256"
        },
        {
          "internalType": "string",
          "name": "_name",
          "type": "string"
        }
      ],
      "name": "setTeacherName",
      "outputs": [],
      "stateMutability": "nonpayable",
      "type": "function"
    },
    {
      "inputs": [
        {
          "internalType": "uint256",
          "name": "teacherId",
          "type": "uint256"
        },
        {
          "internalType": "address",
          "name": "_teacherAddress",
          "type": "address"
        }
      ],
      "name": "setTeacherAddress",
      "outputs": [],
      "stateMutability": "nonpayable",
      "type": "function"
    },
    {
      "inputs": [
        {
          "internalType": "uint256",
          "name": "teacherId",
          "type": "uint256"
        },
        {
          "internalType": "uint256",
          "name": "_assignedCourses",
          "type": "uint256"
        }
      ],
      "name": "addTeacherAssignedCourses",
      "outputs": [],
      "stateMutability": "nonpayable",
      "type": "function"
    },
    {
      "inputs": [
        {
          "internalType": "uint256",
          "name": "teacherId",
          "type": "uint256"
        },
        {
          "internalType": "uint256",
          "name": "_assignedCourses",
          "type": "uint256"
        }
      ],
      "name": "addTeacherReallyAssignedCourses",
      "outputs": [],
      "stateMutability": "nonpayable",
      "type": "function"
    },
    {
      "inputs": [
        {
          "internalType": "uint256",
          "name": "teacherId",
          "type": "uint256"
        },
        {
          "internalType": "uint256",
          "name": "_assignedCourses",
          "type": "uint256"
        }
      ],
      "name": "removeTeacherAssignedCourses",
      "outputs": [],
      "stateMutability": "nonpayable",
      "type": "function"
    },
    {
      "inputs": [
        {
          "internalType": "uint256",
          "name": "teacherId",
          "type": "uint256"
        },
        {
          "internalType": "uint256",
          "name": "_assignedCourses",
          "type": "uint256"
        }
      ],
      "name": "removeTeacherReallyAssignedCourses",
      "outputs": [],
      "stateMutability": "nonpayable",
      "type": "function"
    },
    {
      "inputs": [
        {
          "internalType": "uint256",
          "name": "teacherId",
          "type": "uint256"
        },
        {
          "internalType": "uint256",
          "name": "_suitabilityWeight",
          "type": "uint256"
        }
      ],
      "name": "setTeacherSuitabilityWeight",
      "outputs": [],
      "stateMutability": "nonpayable",
      "type": "function"
    },
    {
      "inputs": [
        {
          "internalType": "uint256",
          "name": "teacherId",
          "type": "uint256"
        },
        {
          "internalType": "uint256",
          "name": "_transferCourseCoins",
          "type": "uint256"
        }
      ],
      "name": "setTeacherTransferCourseCoins",
      "outputs": [],
      "stateMutability": "nonpayable",
      "type": "function"
    },
    {
      "inputs": [
        {
          "internalType": "uint256",
          "name": "teacherId",
          "type": "uint256"
        },
        {
          "internalType": "uint256",
          "name": "_value",
          "type": "uint256"
        }
      ],
      "name": "setTeacherValue",
      "outputs": [],
      "stateMutability": "nonpayable",
      "type": "function"
    },
    {
      "inputs": [
        {
          "internalType": "uint256",
          "name": "agentId",
          "type": "uint256"
        },
        {
          "internalType": "uint256",
          "name": "_value",
          "type": "uint256"
        }
      ],
      "name": "setAgentValue",
      "outputs": [],
      "stateMutability": "nonpayable",
      "type": "function"
    },
    {
      "inputs": [
        {
          "internalType": "uint256",
          "name": "teacherId",
          "type": "uint256"
        },
        {
          "internalType": "uint256[]",
          "name": "_suitabilities",
          "type": "uint256[]"
        }
      ],
      "name": "setAllTeacherCourseSuitability",
      "outputs": [],
      "stateMutability": "nonpayable",
      "type": "function"
    },
    {
      "inputs": [
        {
          "internalType": "uint256",
          "name": "teacherId",
          "type": "uint256"
        },
        {
          "internalType": "uint256",
          "name": "courseId",
          "type": "uint256"
        },
        {
          "internalType": "uint256",
          "name": "_suitability",
          "type": "uint256"
        }
      ],
      "name": "setTeacherCourseSuitability",
      "outputs": [],
      "stateMutability": "nonpayable",
      "type": "function"
    },
    {
      "inputs": [
        {
          "internalType": "uint256",
          "name": "teacherId",
          "type": "uint256"
        },
        {
          "internalType": "uint256[]",
          "name": "_preferences",
          "type": "uint256[]"
        }
      ],
      "name": "setAllTeacherCoursePreferences",
      "outputs": [],
      "stateMutability": "nonpayable",
      "type": "function"
    },
    {
      "inputs": [
        {
          "internalType": "uint256",
          "name": "teacherId",
          "type": "uint256"
        },
        {
          "internalType": "uint256",
          "name": "courseId",
          "type": "uint256"
        },
        {
          "internalType": "uint256",
          "name": "_preference",
          "type": "uint256"
        }
      ],
      "name": "setTeacherCoursePreferences",
      "outputs": [],
      "stateMutability": "nonpayable",
      "type": "function"
    },
    {
      "inputs": [
        {
          "internalType": "address",
          "name": "agentAddress",
          "type": "address"
        },
        {
          "internalType": "uint256",
          "name": "_agentId",
          "type": "uint256"
        }
      ],
      "name": "setAgentId",
      "outputs": [],
      "stateMutability": "nonpayable",
      "type": "function"
    },
    {
      "inputs": [
        {
          "internalType": "uint256",
          "name": "agentId",
          "type": "uint256"
        }
      ],
      "name": "removeAgent",
      "outputs": [],
      "stateMutability": "nonpayable",
      "type": "function"
    },
    {
      "inputs": [
        {
          "internalType": "uint256",
          "name": "agentId",
          "type": "uint256"
        },
        {
          "internalType": "string",
          "name": "_name",
          "type": "string"
        }
      ],
      "name": "setAgentName",
      "outputs": [],
      "stateMutability": "nonpayable",
      "type": "function"
    },
    {
      "inputs": [
        {
          "internalType": "uint256",
          "name": "agentId",
          "type": "uint256"
        },
        {
          "internalType": "address",
          "name": "_agentAddress",
          "type": "address"
        }
      ],
      "name": "setAgentAddress",
      "outputs": [],
      "stateMutability": "nonpayable",
      "type": "function"
    },
    {
      "inputs": [
        {
          "internalType": "uint256",
          "name": "agentId",
          "type": "uint256"
        },
        {
          "internalType": "uint256",
          "name": "_assignedCourses",
          "type": "uint256"
        }
      ],
      "name": "addAgentAssignedCourses",
      "outputs": [],
      "stateMutability": "nonpayable",
      "type": "function"
    },
    {
      "inputs": [
        {
          "internalType": "uint256",
          "name": "agentId",
          "type": "uint256"
        },
        {
          "internalType": "uint256",
          "name": "_assignedCourses",
          "type": "uint256"
        }
      ],
      "name": "removeAgentAssignedCourses",
      "outputs": [],
      "stateMutability": "nonpayable",
      "type": "function"
    },
    {
      "inputs": [
        {
          "internalType": "uint256",
          "name": "agentId",
          "type": "uint256"
        },
        {
          "internalType": "uint256",
          "name": "_courseId",
          "type": "uint256"
        },
        {
          "internalType": "uint256",
          "name": "_suitability",
          "type": "uint256"
        }
      ],
      "name": "setAgentCourseSuitability",
      "outputs": [],
      "stateMutability": "nonpayable",
      "type": "function"
    },
    {
      "inputs": [
        {
          "internalType": "uint256",
          "name": "agentId",
          "type": "uint256"
        },
        {
          "internalType": "uint256[]",
          "name": "_suitabilities",
          "type": "uint256[]"
        }
      ],
      "name": "setAllAgentCourseSuitability",
      "outputs": [],
      "stateMutability": "nonpayable",
      "type": "function"
    },
    {
      "inputs": [
        {
          "internalType": "address",
          "name": "classAddress",
          "type": "address"
        },
        {
          "internalType": "uint256",
          "name": "_id",
          "type": "uint256"
        }
      ],
      "name": "setClassId",
      "outputs": [],
      "stateMutability": "nonpayable",
      "type": "function"
    },
    {
      "inputs": [
        {
          "internalType": "uint256",
          "name": "classId",
          "type": "uint256"
        }
      ],
      "name": "removeClass",
      "outputs": [],
      "stateMutability": "nonpayable",
      "type": "function"
    },
    {
      "inputs": [
        {
          "internalType": "uint256",
          "name": "courseId",
          "type": "uint256"
        }
      ],
      "name": "setCourseId",
      "outputs": [],
      "stateMutability": "nonpayable",
      "type": "function"
    },
    {
      "inputs": [
        {
          "internalType": "uint256",
          "name": "courseId",
          "type": "uint256"
        }
      ],
      "name": "removeCourse",
      "outputs": [],
      "stateMutability": "nonpayable",
      "type": "function"
    },
    {
      "inputs": [
        {
          "internalType": "uint256",
          "name": "courseId",
          "type": "uint256"
        },
        {
          "internalType": "string",
          "name": "_name",
          "type": "string"
        }
      ],
      "name": "setCourseName",
      "outputs": [],
      "stateMutability": "nonpayable",
      "type": "function"
    },
    {
      "inputs": [
        {
          "internalType": "uint256",
          "name": "courseId",
          "type": "uint256"
        },
        {
          "internalType": "uint256",
          "name": "_importance",
          "type": "uint256"
        }
      ],
      "name": "setCourseImportance",
      "outputs": [],
      "stateMutability": "nonpayable",
      "type": "function"
    },
    {
      "inputs": [
        {
          "internalType": "uint256[]",
          "name": "_importances",
          "type": "uint256[]"
        }
      ],
      "name": "setAllCourseImportance",
      "outputs": [],
      "stateMutability": "nonpayable",
      "type": "function"
    },
    {
      "inputs": [
        {
          "internalType": "uint256",
          "name": "courseId",
          "type": "uint256"
        },
        {
          "internalType": "uint256",
          "name": "_teacherId",
          "type": "uint256"
        }
      ],
      "name": "addCourseAssignedTeacherId",
      "outputs": [],
      "stateMutability": "nonpayable",
      "type": "function"
    },
    {
      "inputs": [
        {
          "internalType": "uint256",
          "name": "courseId",
          "type": "uint256"
        },
        {
          "internalType": "uint256",
          "name": "_agentId",
          "type": "uint256"
        }
      ],
      "name": "addCourseAssignedAgentId",
      "outputs": [],
      "stateMutability": "nonpayable",
      "type": "function"
    },
    {
      "inputs": [
        {
          "internalType": "uint256",
          "name": "courseId",
          "type": "uint256"
        },
        {
          "internalType": "uint256",
          "name": "_teacherId",
          "type": "uint256"
        }
      ],
      "name": "removeCourseAssignedTeacherId",
      "outputs": [],
      "stateMutability": "nonpayable",
      "type": "function"
    },
    {
      "inputs": [
        {
          "internalType": "uint256",
          "name": "courseId",
          "type": "uint256"
        },
        {
          "internalType": "uint256",
          "name": "_agentId",
          "type": "uint256"
        }
      ],
      "name": "removeCourseAssignedAgentId",
      "outputs": [],
      "stateMutability": "nonpayable",
      "type": "function"
    },
    {
      "inputs": [
        {
          "internalType": "uint256",
          "name": "courseId",
          "type": "uint256"
        },
        {
          "internalType": "bool",
          "name": "_isAgentSuitable",
          "type": "bool"
        }
      ],
      "name": "setCourseIsAgentSuitable",
      "outputs": [],
      "stateMutability": "nonpayable",
      "type": "function"
    },
    {
      "inputs": [
        {
          "internalType": "uint256",
          "name": "_teacherCount",
          "type": "uint256"
        }
      ],
      "name": "setTeacherCount",
      "outputs": [],
      "stateMutability": "nonpayable",
      "type": "function"
    },
    {
      "inputs": [
        {
          "internalType": "uint256",
          "name": "_agentCount",
          "type": "uint256"
        }
      ],
      "name": "setAgentCount",
      "outputs": [],
      "stateMutability": "nonpayable",
      "type": "function"
    },
    {
      "inputs": [
        {
          "internalType": "uint256",
          "name": "_classCount",
          "type": "uint256"
        }
      ],
      "name": "setClassCount",
      "outputs": [],
      "stateMutability": "nonpayable",
      "type": "function"
    },
    {
      "inputs": [
        {
          "internalType": "uint256",
          "name": "_courseCount",
          "type": "uint256"
        }
      ],
      "name": "setCourseCount",
      "outputs": [],
      "stateMutability": "nonpayable",
      "type": "function"
    },
    {
      "inputs": [
        {
          "internalType": "uint256",
          "name": "_teacherId",
          "type": "uint256"
        },
        {
          "internalType": "uint256",
          "name": "courseId",
          "type": "uint256"
        }
      ],
      "name": "getTeacherSuitability",
      "outputs": [
        {
          "internalType": "uint256",
          "name": "",
          "type": "uint256"
        }
      ],
      "stateMutability": "view",
      "type": "function",
      "constant": true
    },
    {
      "inputs": [
        {
          "internalType": "uint256",
          "name": "_agentId",
          "type": "uint256"
        },
        {
          "internalType": "uint256",
          "name": "courseId",
          "type": "uint256"
        }
      ],
      "name": "getAgentSuitability",
      "outputs": [
        {
          "internalType": "uint256",
          "name": "",
          "type": "uint256"
        }
      ],
      "stateMutability": "view",
      "type": "function",
      "constant": true
    },
    {
      "inputs": [
        {
          "internalType": "uint256",
          "name": "_teacherId",
          "type": "uint256"
        },
        {
          "internalType": "uint256",
          "name": "courseId",
          "type": "uint256"
        }
      ],
      "name": "getPreference",
      "outputs": [
        {
          "internalType": "uint256",
          "name": "",
          "type": "uint256"
        }
      ],
      "stateMutability": "view",
      "type": "function",
      "constant": true
    },
    {
      "inputs": [
        {
          "internalType": "uint256",
          "name": "_teacherId",
          "type": "uint256"
        }
      ],
      "name": "getTeacherAssignedCourses",
      "outputs": [
        {
          "internalType": "uint256[]",
          "name": "",
          "type": "uint256[]"
        }
      ],
      "stateMutability": "view",
      "type": "function",
      "constant": true
    },
    {
      "inputs": [
        {
          "internalType": "uint256",
          "name": "_teacherId",
          "type": "uint256"
        }
      ],
      "name": "getTeacherReallyAssignedCourses",
      "outputs": [
        {
          "internalType": "uint256[]",
          "name": "",
          "type": "uint256[]"
        }
      ],
      "stateMutability": "view",
      "type": "function",
      "constant": true
    },
    {
      "inputs": [
        {
          "internalType": "uint256",
          "name": "_agentId",
          "type": "uint256"
        }
      ],
      "name": "getAgentAssignedCourses",
      "outputs": [
        {
          "internalType": "uint256[]",
          "name": "",
          "type": "uint256[]"
        }
      ],
      "stateMutability": "view",
      "type": "function",
      "constant": true
    },
    {
      "inputs": [
        {
          "internalType": "uint256",
          "name": "_courseId",
          "type": "uint256"
        }
      ],
      "name": "getCoursesAssignedTeacher",
      "outputs": [
        {
          "internalType": "uint256[]",
          "name": "",
          "type": "uint256[]"
        }
      ],
      "stateMutability": "view",
      "type": "function",
      "constant": true
    },
    {
      "inputs": [
        {
          "internalType": "uint256",
          "name": "_courseId",
          "type": "uint256"
        }
      ],
      "name": "getCoursesAssignedAgent",
      "outputs": [
        {
          "internalType": "uint256[]",
          "name": "",
          "type": "uint256[]"
        }
      ],
      "stateMutability": "view",
      "type": "function",
      "constant": true
    },
    {
      "inputs": [],
      "name": "getTeacherIds",
      "outputs": [
        {
          "internalType": "uint256[]",
          "name": "",
          "type": "uint256[]"
        }
      ],
      "stateMutability": "view",
      "type": "function",
      "constant": true
    },
    {
      "inputs": [],
      "name": "getAgentIds",
      "outputs": [
        {
          "internalType": "uint256[]",
          "name": "",
          "type": "uint256[]"
        }
      ],
      "stateMutability": "view",
      "type": "function",
      "constant": true
    },
    {
      "inputs": [],
      "name": "getCourseIds",
      "outputs": [
        {
          "internalType": "uint256[]",
          "name": "",
          "type": "uint256[]"
        }
      ],
      "stateMutability": "view",
      "type": "function",
      "constant": true
    },
    {
      "inputs": [],
      "name": "getClassIds",
      "outputs": [
        {
          "internalType": "uint256[]",
          "name": "",
          "type": "uint256[]"
        }
      ],
      "stateMutability": "view",
      "type": "function",
      "constant": true
    },
    {
      "inputs": [
        {
          "internalType": "uint256",
          "name": "courseId",
          "type": "uint256"
        },
        {
          "internalType": "uint256",
          "name": "classId",
          "type": "uint256"
        },
        {
          "internalType": "uint256",
          "name": "score",
          "type": "uint256"
        }
      ],
      "name": "addCourseClassScores",
      "outputs": [],
      "stateMutability": "nonpayable",
      "type": "function"
    },
    {
      "inputs": [
        {
          "internalType": "uint256",
          "name": "courseId",
          "type": "uint256"
        },
        {
          "internalType": "uint256",
          "name": "classId",
          "type": "uint256"
        }
      ],
      "name": "getGiveScoreClassIdExists",
      "outputs": [
        {
          "internalType": "uint256",
          "name": "",
          "type": "uint256"
        }
      ],
      "stateMutability": "view",
      "type": "function",
      "constant": true
    },
    {
      "inputs": [
        {
          "internalType": "uint256",
          "name": "courseId",
          "type": "uint256"
        },
        {
          "internalType": "uint256[]",
          "name": "classIds_",
          "type": "uint256[]"
        }
      ],
      "name": "removeCourseClassScores",
      "outputs": [],
      "stateMutability": "nonpayable",
      "type": "function"
    },
    {
      "inputs": [
        {
          "internalType": "uint256",
          "name": "courseId",
          "type": "uint256"
        }
      ],
      "name": "getCourseClassScores",
      "outputs": [
        {
          "internalType": "uint256[]",
          "name": "",
          "type": "uint256[]"
        }
      ],
      "stateMutability": "view",
      "type": "function",
      "constant": true
    },
    {
      "inputs": [
        {
          "internalType": "uint256",
          "name": "courseId",
          "type": "uint256"
        },
        {
          "internalType": "uint256",
          "name": "score",
          "type": "uint256"
        }
      ],
      "name": "setCourseSelfScore",
      "outputs": [],
      "stateMutability": "nonpayable",
      "type": "function"
    },
    {
      "inputs": [
        {
          "internalType": "uint256",
          "name": "courseId",
          "type": "uint256"
        },
        {
          "internalType": "uint256",
          "name": "score",
          "type": "uint256"
        }
      ],
      "name": "setCourseTotalScore",
      "outputs": [],
      "stateMutability": "nonpayable",
      "type": "function"
    },
    {
      "inputs": [
        {
          "internalType": "uint256",
          "name": "courseId",
          "type": "uint256"
        },
        {
          "internalType": "uint256",
          "name": "supervisorId",
          "type": "uint256"
        },
        {
          "internalType": "uint256",
          "name": "score",
          "type": "uint256"
        }
      ],
      "name": "addCourseSupervisorScores",
      "outputs": [],
      "stateMutability": "nonpayable",
      "type": "function"
    },
    {
      "inputs": [
        {
          "internalType": "uint256",
          "name": "courseId",
          "type": "uint256"
        },
        {
          "internalType": "uint256",
          "name": "supervisorId",
          "type": "uint256"
        }
      ],
      "name": "getGiveScoreSupervisorIdExists",
      "outputs": [
        {
          "internalType": "uint256",
          "name": "",
          "type": "uint256"
        }
      ],
      "stateMutability": "view",
      "type": "function",
      "constant": true
    },
    {
      "inputs": [
        {
          "internalType": "uint256",
          "name": "courseId",
          "type": "uint256"
        }
      ],
      "name": "getCourseSupervisorScores",
      "outputs": [
        {
          "internalType": "uint256[]",
          "name": "",
          "type": "uint256[]"
        }
      ],
      "stateMutability": "view",
      "type": "function",
      "constant": true
    },
    {
      "inputs": [
        {
          "internalType": "uint256",
          "name": "supervisorId",
          "type": "uint256"
        }
      ],
      "name": "addSupervisorId",
      "outputs": [],
      "stateMutability": "nonpayable",
      "type": "function"
    },
    {
      "inputs": [],
      "name": "getSupervisorIds",
      "outputs": [
        {
          "internalType": "uint256[]",
          "name": "",
          "type": "uint256[]"
        }
      ],
      "stateMutability": "view",
      "type": "function",
      "constant": true
    },
    {
      "inputs": [
        {
          "internalType": "address",
          "name": "supervisor",
          "type": "address"
        },
        {
          "internalType": "uint256",
          "name": "supervisorId",
          "type": "uint256"
        }
      ],
      "name": "setSupervisorId",
      "outputs": [],
      "stateMutability": "nonpayable",
      "type": "function"
    },
    {
      "inputs": [
        {
          "internalType": "uint256",
          "name": "supervisorId",
          "type": "uint256"
        },
        {
          "internalType": "string",
          "name": "_name",
          "type": "string"
        }
      ],
      "name": "setSupervisorName",
      "outputs": [],
      "stateMutability": "nonpayable",
      "type": "function"
    },
    {
      "inputs": [
        {
          "internalType": "uint256",
          "name": "supervisorId",
          "type": "uint256"
        },
        {
          "internalType": "uint256",
          "name": "courseId",
          "type": "uint256"
        },
        {
          "internalType": "uint256",
          "name": "score",
          "type": "uint256"
        }
      ],
      "name": "setSupervisorsCourseScore",
      "outputs": [],
      "stateMutability": "nonpayable",
      "type": "function"
    },
    {
      "inputs": [
        {
          "internalType": "uint256",
          "name": "_transferCourseNumbers",
          "type": "uint256"
        }
      ],
      "name": "settransferCourseNumbers",
      "outputs": [],
      "stateMutability": "nonpayable",
      "type": "function"
    },
    {
      "inputs": [
        {
          "internalType": "uint256",
          "name": "_transferCourseStartTime",
          "type": "uint256"
        }
      ],
      "name": "settransferCourseStartTime",
      "outputs": [],
      "stateMutability": "nonpayable",
      "type": "function"
    },
    {
      "inputs": [
        {
          "internalType": "uint256",
          "name": "_transferCourseEndTime",
          "type": "uint256"
        }
      ],
      "name": "settransferCourseEndTime",
      "outputs": [],
      "stateMutability": "nonpayable",
      "type": "function"
    }
  ],
  "bytecode": "0x608060405234801561001057600080fd5b5061490e806100206000396000f3fe608060405234801561001057600080fd5b50600436106105045760003560e01c806396c82e5711610299578063d4e57ff011610167578063e637812f116100d9578063ee196ee211610092578063ee196ee2146110a2578063f0f2efd8146110be578063f31e1494146110da578063fa8f084d146110f6578063fc09e9d014611114578063fc2ddca51461113057610504565b8063e637812f14610fa8578063e7fa455714610fc4578063e8a2dc2f14610fe0578063e906165714611010578063ebacebe414611040578063ebd1aac61461107057610504565b8063deb9f76a1161012b578063deb9f76a14610eec578063df3addfa14610f08578063e204b10214610f24578063e20b340514610f40578063e40af03614610f5c578063e52505d814610f7857610504565b8063d4e57ff014610e10578063d95a61d514610e40578063d96ce73f14610e70578063dcfa705714610ea0578063dd03576514610ed057610504565b8063b15087601161020b578063bd1602d1116101c4578063bd1602d114610d54578063bfb9d44c14610d70578063c318fe5f14610d8c578063cb85404514610da8578063cddd6c6314610dc4578063ce64bf9b14610de057610504565b8063b150876014610c94578063b373a43414610cb2578063b4da858414610cce578063b7dc128414610cea578063bb69df7214610d08578063bca24bd414610d2457610504565b8063a549e4161161025d578063a549e41614610be8578063a7ab847214610c04578063aaa4b24e14610c20578063ab7cee7714610c3c578063ab99631714610c5a578063ad3a6ad414610c7857610504565b806396c82e5714610b2f57806396f979d214610b4d5780639709ee0114610b8057806397e92d5214610bb05780639e12237714610bcc57610504565b80635e383d46116103d657806372c30f4511610348578063851580a711610301578063851580a714610a4957806386875ea814610a795780638bbb3be114610a9557806391c89deb14610ab15780639476cf9b14610ae1578063951d5fee14610b1157610504565b806372c30f451461094f5780637ce28bac1461096b5780637fa7e04d1461099d578063827e5731146109b957806382ff0a5a146109e95780638377b69014610a1957610504565b80636b792cc81161039a5780636b792cc8146108a75780636d889f84146108c35780636e428d2d146108df5780636fcf4f96146108fb578063700ed28b1461091757806372ab4e961461093357610504565b80635e383d46146108195780635f63efe214610835578063643d172c14610851578063660551591461086d5780636798bad91461088b57610504565b80633abdb63d1161047a5780634d652350116104335780634d65235014610730578063513856c81461074e57806356e76058146107815780635953faff146107b15780635a47fb8d146107cd5780635ca24db0146107e957610504565b80633abdb63d1461067257806345073d5c1461068e57806346be3136146106aa578063494e2371146106c85780634b974df7146106f85780634d27e9121461071457610504565b80631928f3bc116104cc5780631928f3bc146105ad5780631dd86f90146105cb5780631fe76a6c146105e75780632359b7b8146106035780632b0816ac1461062157806334ac0b401461063d57610504565b8063034f578e1461050957806308a2037f146105275780630f7f13cf146105435780630fa1c2711461057357806318860d371461058f575b600080fd5b61051161114c565b60405161051e919061416e565b60405180910390f35b610541600480360381019061053c9190613d99565b611152565b005b61055d60048036038101906105589190613b7a565b61117d565b60405161056a919061416e565b60405180910390f35b61058d60048036038101906105889190613df9565b611195565b005b6105976111d6565b6040516105a4919061406c565b60405180910390f35b6105b561122e565b6040516105c2919061416e565b60405180910390f35b6105e560048036038101906105e09190613e39565b611234565b005b61060160048036038101906105fc9190613e39565b6112e8565b005b61060b611319565b604051610618919061406c565b60405180910390f35b61063b60048036038101906106369190613c30565b611371565b005b61065760048036038101906106529190613c30565b6113b8565b60405161066996959493929190614213565b60405180910390f35b61068c60048036038101906106879190613c30565b61149c565b005b6106a860048036038101906106a39190613cfd565b611584565b005b6106b2611611565b6040516106bf919061416e565b60405180910390f35b6106e260048036038101906106dd9190613c30565b611617565b6040516106ef919061416e565b60405180910390f35b610712600480360381019061070d9190613df9565b61163b565b005b61072e60048036038101906107299190613e39565b6117d5565b005b610738611806565b604051610745919061406c565b60405180910390f35b61076860048036038101906107639190613c30565b61185e565b60405161077894939291906141c7565b60405180910390f35b61079b60048036038101906107969190613c30565b611936565b6040516107a8919061416e565b60405180910390f35b6107cb60048036038101906107c69190613be7565b61195a565b005b6107e760048036038101906107e29190613df9565b611a1c565b005b61080360048036038101906107fe9190613c30565b611a3b565b604051610810919061406c565b60405180910390f35b610833600480360381019061082e9190613ba7565b611aa9565b005b61084f600480360381019061084a9190613c30565b611b1a565b005b61086b60048036038101906108669190613c30565b611b24565b005b610875611b68565b604051610882919061416e565b60405180910390f35b6108a560048036038101906108a09190613c30565b611b6e565b005b6108c160048036038101906108bc9190613c30565b611b78565b005b6108dd60048036038101906108d89190613e39565b611b82565b005b6108f960048036038101906108f49190613df9565b611c5a565b005b61091560048036038101906109109190613c30565b611df4565b005b610931600480360381019061092c9190613df9565b611f5f565b005b61094d60048036038101906109489190613df9565b611fa0565b005b61096960048036038101906109649190613c30565b611fe1565b005b61098560048036038101906109809190613c30565b6120ad565b60405161099493929190614189565b60405180910390f35b6109b760048036038101906109b29190613d99565b61217f565b005b6109d360048036038101906109ce9190613c30565b6121aa565b6040516109e0919061406c565b60405180910390f35b610a0360048036038101906109fe9190613c30565b612218565b604051610a10919061406c565b60405180910390f35b610a336004803603810190610a2e9190613df9565b612286565b604051610a40919061416e565b60405180910390f35b610a636004803603810190610a5e9190613df9565b6122b8565b604051610a70919061416e565b60405180910390f35b610a936004803603810190610a8e9190613df9565b6122ea565b005b610aaf6004803603810190610aaa9190613ba7565b612484565b005b610acb6004803603810190610ac69190613c30565b61253c565b604051610ad8919061406c565b60405180910390f35b610afb6004803603810190610af69190613c30565b6125aa565b604051610b08919061416e565b60405180910390f35b610b196125ce565b604051610b26919061416e565b60405180910390f35b610b376125d4565b604051610b44919061416e565b60405180910390f35b610b676004803603810190610b629190613c30565b6125da565b604051610b77949392919061427b565b60405180910390f35b610b9a6004803603810190610b959190613df9565b61269f565b604051610ba7919061416e565b60405180910390f35b610bca6004803603810190610bc59190613c9d565b6126d1565b005b610be66004803603810190610be19190613d99565b61282a565b005b610c026004803603810190610bfd9190613ba7565b612855565b005b610c1e6004803603810190610c199190613d99565b6128e1565b005b610c3a6004803603810190610c359190613df9565b61298f565b005b610c446129ae565b604051610c51919061416e565b60405180910390f35b610c626129b4565b604051610c6f919061416e565b60405180910390f35b610c926004803603810190610c8d9190613c9d565b6129ba565b005b610c9c612b13565b604051610ca9919061406c565b60405180910390f35b610ccc6004803603810190610cc79190613c30565b612b6b565b005b610ce86004803603810190610ce39190613df9565b612b75565b005b610cf2612c17565b604051610cff919061416e565b60405180910390f35b610d226004803603810190610d1d9190613df9565b612c1d565b005b610d3e6004803603810190610d399190613c30565b612d1b565b604051610d4b919061416e565b60405180910390f35b610d6e6004803603810190610d699190613c30565b612d3f565b005b610d8a6004803603810190610d859190613ba7565b612d49565b005b610da66004803603810190610da19190613c5d565b612dd5565b005b610dc26004803603810190610dbd9190613d59565b612eb1565b005b610dde6004803603810190610dd99190613c5d565b612ee3565b005b610dfa6004803603810190610df59190613c30565b612f3c565b604051610e07919061406c565b60405180910390f35b610e2a6004803603810190610e259190613b7a565b612faa565b604051610e37919061416e565b60405180910390f35b610e5a6004803603810190610e559190613b7a565b612fc2565b604051610e67919061416e565b60405180910390f35b610e8a6004803603810190610e859190613c30565b612fda565b604051610e97919061406c565b60405180910390f35b610eba6004803603810190610eb59190613c30565b613048565b604051610ec7919061416e565b60405180910390f35b610eea6004803603810190610ee59190613c30565b61306c565b005b610f066004803603810190610f019190613c30565b613076565b005b610f226004803603810190610f1d9190613c30565b613080565b005b610f3e6004803603810190610f399190613df9565b61314c565b005b610f5a6004803603810190610f559190613df9565b61316b565b005b610f766004803603810190610f719190613df9565b61320d565b005b610f926004803603810190610f8d9190613c30565b6133a7565b604051610f9f919061406c565b60405180910390f35b610fc26004803603810190610fbd9190613df9565b613415565b005b610fde6004803603810190610fd99190613df9565b613456565b005b610ffa6004803603810190610ff59190613df9565b6135f0565b604051611007919061416e565b60405180910390f35b61102a60048036038101906110259190613df9565b613622565b604051611037919061416e565b60405180910390f35b61105a60048036038101906110559190613b7a565b613654565b604051611067919061416e565b60405180910390f35b61108a60048036038101906110859190613c30565b61366c565b604051611099939291906142c7565b60405180910390f35b6110bc60048036038101906110b79190613df9565b613696565b005b6110d860048036038101906110d39190613c9d565b6136b5565b005b6110f460048036038101906110ef9190613e39565b61378b565b005b6110fe613863565b60405161110b919061406c565b60405180910390f35b61112e60048036038101906111299190613df9565b6138bb565b005b61114a60048036038101906111459190613e39565b6138fc565b005b60165481565b818160076000868152602001908152602001600020600101919061117792919061392d565b50505050565b60016020528060005260406000206000915090505481565b600860008381526020019081526020016000206003018190806001815401808255809150506001900390600052602060002001600090919091909150555050565b6060601280548060200260200160405190810160405280929190818152602001828054801561122457602002820191906000526020600020905b815481526020019060010190808311611210575b5050505050905090565b60155481565b6000600160003373ffffffffffffffffffffffffffffffffffffffff1673ffffffffffffffffffffffffffffffffffffffff1681526020019081526020016000205414156112b7576040517f08c379a00000000000000000000000000000000000000000000000000000000081526004016112ae9061412e565b60405180910390fd5b8060056000858152602001908152602001600020600901600084815260200190815260200160002081905550505050565b8060056000858152602001908152602001600020600801600084815260200190815260200160002081905550505050565b6060601180548060200260200160405190810160405280929190818152602001828054801561136757602002820191906000526020600020905b815481526020019060010190808311611353575b5050505050905090565b806008600083815260200190815260200160002060000181905550601181908060018154018082558091505060019003906000526020600020016000909190919091505550565b60056020528060005260406000206000915090508060000154908060010180546113e1906144a9565b80601f016020809104026020016040519081016040528092919081815260200182805461140d906144a9565b801561145a5780601f1061142f5761010080835404028352916020019161145a565b820191906000526020600020905b81548152906001019060200180831161143d57829003601f168201915b5050505050908060020160009054906101000a900473ffffffffffffffffffffffffffffffffffffffff16908060050154908060060154908060070154905086565b6000600660008381526020019081526020016000206000018190555060005b6010805490508110156115805781601082815481106114dd576114dc6145e2565b5b9060005260206000200154141561156d576010600160108054905061150291906143fa565b81548110611513576115126145e2565b5b906000526020600020015460108281548110611532576115316145e2565b5b90600052602060002001819055506010805480611552576115516145b3565b5b60019003818190600052602060002001600090559055611580565b80806115789061450c565b9150506114bb565b5050565b60005b81518110156115ea5760006009600085815260200190815260200160002060030160008484815181106115bd576115bc6145e2565b5b602002602001015181526020019081526020016000208190555080806115e29061450c565b915050611587565b5060096000838152602001908152602001600020600201600061160d91906139b3565b5050565b600a5481565b6011818154811061162757600080fd5b906000526020600020016000915090505481565b60008080600090505b60056000868152602001908152602001600020600301805490508110156116be578360056000878152602001908152602001600020600301828154811061168e5761168d6145e2565b5b906000526020600020015414156116ab57600192508091506116be565b80806116b69061450c565b915050611644565b50811561179457600560008581526020019081526020016000206003016001600560008781526020019081526020016000206003018054905061170191906143fa565b81548110611712576117116145e2565b5b9060005260206000200154600560008681526020019081526020016000206003018281548110611745576117446145e2565b5b906000526020600020018190555060056000858152602001908152602001600020600301805480611779576117786145b3565b5b600190038181906000526020600020016000905590556117cf565b6040517f08c379a00000000000000000000000000000000000000000000000000000000081526004016117c6906140ce565b60405180910390fd5b50505050565b8060066000858152602001908152602001600020600501600084815260200190815260200160002081905550505050565b6060600f80548060200260200160405190810160405280929190818152602001828054801561185457602002820191906000526020600020905b815481526020019060010190808311611840575b5050505050905090565b6006602052806000526040600020600091509050806000015490806001018054611887906144a9565b80601f01602080910402602001604051908101604052809291908181526020018280546118b3906144a9565b80156119005780601f106118d557610100808354040283529160200191611900565b820191906000526020600020905b8154815290600101906020018083116118e357829003601f168201915b5050505050908060020160009054906101000a900473ffffffffffffffffffffffffffffffffffffffff16908060030154905084565b6010818154811061194657600080fd5b906000526020600020016000915090505481565b6011805490508151146119a2576040517f08c379a0000000000000000000000000000000000000000000000000000000008152600401611999906140ee565b60405180910390fd5b60005b601180549050811015611a18578181815181106119c5576119c46145e2565b5b602002602001015160086000601184815481106119e5576119e46145e2565b5b90600052602060002001548152602001908152602001600020600201819055508080611a109061450c565b9150506119a5565b5050565b8060096000848152602001908152602001600020600401819055505050565b606060096000838152602001908152602001600020600201805480602002602001604051908101604052809291908181526020018280548015611a9d57602002820191906000526020600020905b815481526020019060010190808311611a89575b50505050509050919050565b80600360008473ffffffffffffffffffffffffffffffffffffffff1673ffffffffffffffffffffffffffffffffffffffff1681526020019081526020016000208190555060128190806001815401808255809150506001900390600052602060002001600090919091909150555050565b8060158190555050565b6013819080600181540180825580915050600190039060005260206000200160009091909190915055600e6000815480929190611b609061450c565b919050555050565b600d5481565b80600a8190555050565b8060148190555050565b60006009600085815260200190815260200160002060030160008481526020019081526020016000205414611bec576040517f08c379a0000000000000000000000000000000000000000000000000000000008152600401611be3906140ae565b60405180910390fd5b806009600085815260200190815260200160002060030160008481526020019081526020016000208190555060096000848152602001908152602001600020600201819080600181540180825580915050600190039060005260206000200160009091909190915055505050565b60008080600090505b6008600086815260200190815260200160002060030180549050811015611cdd5783600860008781526020019081526020016000206003018281548110611cad57611cac6145e2565b5b90600052602060002001541415611cca5760019250809150611cdd565b8080611cd59061450c565b915050611c63565b508115611db3576008600085815260200190815260200160002060030160016008600087815260200190815260200160002060030180549050611d2091906143fa565b81548110611d3157611d306145e2565b5b9060005260206000200154600860008681526020019081526020016000206003018281548110611d6457611d636145e2565b5b906000526020600020018190555060086000858152602001908152602001600020600301805480611d9857611d976145b3565b5b60019003818190600052602060002001600090559055611dee565b6040517f08c379a0000000000000000000000000000000000000000000000000000000008152600401611de5906140ce565b60405180910390fd5b50505050565b6000600160003373ffffffffffffffffffffffffffffffffffffffff1673ffffffffffffffffffffffffffffffffffffffff168152602001908152602001600020541415611e77576040517f08c379a0000000000000000000000000000000000000000000000000000000008152600401611e6e9061412e565b60405180910390fd5b6000600560008381526020019081526020016000206000018190555060005b600f80549050811015611f5b5781600f8281548110611eb857611eb76145e2565b5b90600052602060002001541415611f4857600f6001600f80549050611edd91906143fa565b81548110611eee57611eed6145e2565b5b9060005260206000200154600f8281548110611f0d57611f0c6145e2565b5b9060005260206000200181905550600f805480611f2d57611f2c6145b3565b5b60019003818190600052602060002001600090559055611f5b565b8080611f539061450c565b915050611e96565b5050565b600560008381526020019081526020016000206003018190806001815401808255809150506001900390600052602060002001600090919091909150555050565b600660008381526020019081526020016000206004018190806001815401808255809150506001900390600052602060002001600090919091909150555050565b60005b6012805490508110156120a9578160128281548110612006576120056145e2565b5b90600052602060002001541415612096576012600160128054905061202b91906143fa565b8154811061203c5761203b6145e2565b5b90600052602060002001546012828154811061205b5761205a6145e2565b5b9060005260206000200181905550601280548061207b5761207a6145b3565b5b600190038181906000526020600020016000905590556120a9565b80806120a19061450c565b915050611fe4565b5050565b60076020528060005260406000206000915090508060000154908060010180546120d6906144a9565b80601f0160208091040260200160405190810160405280929190818152602001828054612102906144a9565b801561214f5780601f106121245761010080835404028352916020019161214f565b820191906000526020600020905b81548152906001019060200180831161213257829003601f168201915b5050505050908060020160009054906101000a900473ffffffffffffffffffffffffffffffffffffffff16905083565b81816006600086815260200190815260200160002060010191906121a492919061392d565b50505050565b60606005600083815260200190815260200160002060040180548060200260200160405190810160405280929190818152602001828054801561220c57602002820191906000526020600020905b8154815260200190600101908083116121f8575b50505050509050919050565b60606008600083815260200190815260200160002060030180548060200260200160405190810160405280929190818152602001828054801561227a57602002820191906000526020600020905b815481526020019060010190808311612266575b50505050509050919050565b600060096000848152602001908152602001600020600301600083815260200190815260200160002054905092915050565b600060056000848152602001908152602001600020600901600083815260200190815260200160002054905092915050565b60008080600090505b600860008681526020019081526020016000206004018054905081101561236d578360086000878152602001908152602001600020600401828154811061233d5761233c6145e2565b5b9060005260206000200154141561235a576001925080915061236d565b80806123659061450c565b9150506122f3565b5081156124435760086000858152602001908152602001600020600401600160086000878152602001908152602001600020600401805490506123b091906143fa565b815481106123c1576123c06145e2565b5b90600052602060002001546008600086815260200190815260200160002060040182815481106123f4576123f36145e2565b5b906000526020600020018190555060086000858152602001908152602001600020600401805480612428576124276145b3565b5b6001900381819060005260206000200160009055905561247e565b6040517f08c379a0000000000000000000000000000000000000000000000000000000008152600401612475906140ce565b60405180910390fd5b50505050565b80600460008473ffffffffffffffffffffffffffffffffffffffff1673ffffffffffffffffffffffffffffffffffffffff16815260200190815260200160002081905550806007600083815260200190815260200160002060000181905550816007600083815260200190815260200160002060020160006101000a81548173ffffffffffffffffffffffffffffffffffffffff021916908373ffffffffffffffffffffffffffffffffffffffff1602179055505050565b60606008600083815260200190815260200160002060040180548060200260200160405190810160405280929190818152602001828054801561259e57602002820191906000526020600020905b81548152602001906001019080831161258a575b50505050509050919050565b601381815481106125ba57600080fd5b906000526020600020016000915090505481565b60145481565b60005481565b6008602052806000526040600020600091509050806000015490806001018054612603906144a9565b80601f016020809104026020016040519081016040528092919081815260200182805461262f906144a9565b801561267c5780601f106126515761010080835404028352916020019161267c565b820191906000526020600020905b81548152906001019060200180831161265f57829003601f168201915b5050505050908060020154908060050160009054906101000a900460ff16905084565b600060066000848152602001908152602001600020600501600083815260200190815260200160002054905092915050565b6000600160003373ffffffffffffffffffffffffffffffffffffffff1673ffffffffffffffffffffffffffffffffffffffff168152602001908152602001600020541415612754576040517f08c379a000000000000000000000000000000000000000000000000000000000815260040161274b9061412e565b60405180910390fd5b601180549050828290501461279e576040517f08c379a00000000000000000000000000000000000000000000000000000000081526004016127959061414e565b60405180910390fd5b60005b601180549050811015612824578282828181106127c1576127c06145e2565b5b90506020020135600560008681526020019081526020016000206008016000601184815481106127f4576127f36145e2565b5b9060005260206000200154815260200190815260200160002081905550808061281c9061450c565b9150506127a1565b50505050565b818160086000868152602001908152602001600020600101919061284f92919061392d565b50505050565b80600160008473ffffffffffffffffffffffffffffffffffffffff1673ffffffffffffffffffffffffffffffffffffffff16815260200190815260200160002081905550806005600083815260200190815260200160002060000181905550600f8190806001815401808255809150506001900390600052602060002001600090919091909150555050565b6000600160003373ffffffffffffffffffffffffffffffffffffffff1673ffffffffffffffffffffffffffffffffffffffff168152602001908152602001600020541415612964576040517f08c379a000000000000000000000000000000000000000000000000000000000815260040161295b9061412e565b60405180910390fd5b818160056000868152602001908152602001600020600101919061298992919061392d565b50505050565b8060096000848152602001908152602001600020600101819055505050565b600e5481565b600c5481565b6000600160003373ffffffffffffffffffffffffffffffffffffffff1673ffffffffffffffffffffffffffffffffffffffff168152602001908152602001600020541415612a3d576040517f08c379a0000000000000000000000000000000000000000000000000000000008152600401612a349061412e565b60405180910390fd5b6011805490508282905014612a87576040517f08c379a0000000000000000000000000000000000000000000000000000000008152600401612a7e9061408e565b60405180910390fd5b60005b601180549050811015612b0d57828282818110612aaa57612aa96145e2565b5b9050602002013560056000868152602001908152602001600020600901600060118481548110612add57612adc6145e2565b5b90600052602060002001548152602001908152602001600020819055508080612b059061450c565b915050612a8a565b50505050565b60606010805480602002602001604051908101604052809291908181526020018280548015612b6157602002820191906000526020600020905b815481526020019060010190808311612b4d575b5050505050905090565b8060168190555050565b6000600160003373ffffffffffffffffffffffffffffffffffffffff1673ffffffffffffffffffffffffffffffffffffffff168152602001908152602001600020541415612bf8576040517f08c379a0000000000000000000000000000000000000000000000000000000008152600401612bef9061412e565b60405180910390fd5b8060056000848152602001908152602001600020600601819055505050565b600b5481565b6000600160003373ffffffffffffffffffffffffffffffffffffffff1673ffffffffffffffffffffffffffffffffffffffff168152602001908152602001600020541415612ca0576040517f08c379a0000000000000000000000000000000000000000000000000000000008152600401612c979061412e565b60405180910390fd5b6005600083815260200190815260200160002060050154600080828254612cc791906143fa565b925050819055508060056000848152602001908152602001600020600501819055506005600083815260200190815260200160002060050154600080828254612d1091906143a4565b925050819055505050565b60128181548110612d2b57600080fd5b906000526020600020016000915090505481565b80600d8190555050565b80600260008473ffffffffffffffffffffffffffffffffffffffff1673ffffffffffffffffffffffffffffffffffffffff1681526020019081526020016000208190555080600660008381526020019081526020016000206000018190555060108190806001815401808255809150506001900390600052602060002001600090919091909150555050565b6000600160003373ffffffffffffffffffffffffffffffffffffffff1673ffffffffffffffffffffffffffffffffffffffff168152602001908152602001600020541415612e58576040517f08c379a0000000000000000000000000000000000000000000000000000000008152600401612e4f9061412e565b60405180910390fd5b806005600084815260200190815260200160002060020160006101000a81548173ffffffffffffffffffffffffffffffffffffffff021916908373ffffffffffffffffffffffffffffffffffffffff1602179055505050565b806008600084815260200190815260200160002060050160006101000a81548160ff0219169083151502179055505050565b806006600084815260200190815260200160002060020160006101000a81548173ffffffffffffffffffffffffffffffffffffffff021916908373ffffffffffffffffffffffffffffffffffffffff1602179055505050565b606060066000838152602001908152602001600020600401805480602002602001604051908101604052809291908181526020018280548015612f9e57602002820191906000526020600020905b815481526020019060010190808311612f8a575b50505050509050919050565b60036020528060005260406000206000915090505481565b60046020528060005260406000206000915090505481565b60606009600083815260200190815260200160002060050180548060200260200160405190810160405280929190818152602001828054801561303c57602002820191906000526020600020905b815481526020019060010190808311613028575b50505050509050919050565b600f818154811061305857600080fd5b906000526020600020016000915090505481565b80600c8190555050565b80600b8190555050565b60005b6011805490508110156131485781601182815481106130a5576130a46145e2565b5b9060005260206000200154141561313557601160016011805490506130ca91906143fa565b815481106130db576130da6145e2565b5b9060005260206000200154601182815481106130fa576130f96145e2565b5b9060005260206000200181905550601180548061311a576131196145b3565b5b60019003818190600052602060002001600090559055613148565b80806131409061450c565b915050613083565b5050565b8060086000848152602001908152602001600020600201819055505050565b6000600160003373ffffffffffffffffffffffffffffffffffffffff1673ffffffffffffffffffffffffffffffffffffffff1681526020019081526020016000205414156131ee576040517f08c379a00000000000000000000000000000000000000000000000000000000081526004016131e59061412e565b60405180910390fd5b8060056000848152602001908152602001600020600701819055505050565b60008080600090505b600660008681526020019081526020016000206004018054905081101561329057836006600087815260200190815260200160002060040182815481106132605761325f6145e2565b5b9060005260206000200154141561327d5760019250809150613290565b80806132889061450c565b915050613216565b5081156133665760066000858152602001908152602001600020600401600160066000878152602001908152602001600020600401805490506132d391906143fa565b815481106132e4576132e36145e2565b5b9060005260206000200154600660008681526020019081526020016000206004018281548110613317576133166145e2565b5b90600052602060002001819055506006600085815260200190815260200160002060040180548061334b5761334a6145b3565b5b600190038181906000526020600020016000905590556133a1565b6040517f08c379a0000000000000000000000000000000000000000000000000000000008152600401613398906140ce565b60405180910390fd5b50505050565b60606005600083815260200190815260200160002060030180548060200260200160405190810160405280929190818152602001828054801561340957602002820191906000526020600020905b8154815260200190600101908083116133f5575b50505050509050919050565b600560008381526020019081526020016000206004018190806001815401808255809150506001900390600052602060002001600090919091909150555050565b60008080600090505b60056000868152602001908152602001600020600401805490508110156134d957836005600087815260200190815260200160002060040182815481106134a9576134a86145e2565b5b906000526020600020015414156134c657600192508091506134d9565b80806134d19061450c565b91505061345f565b5081156135af57600560008581526020019081526020016000206004016001600560008781526020019081526020016000206004018054905061351c91906143fa565b8154811061352d5761352c6145e2565b5b90600052602060002001546005600086815260200190815260200160002060040182815481106135605761355f6145e2565b5b906000526020600020018190555060056000858152602001908152602001600020600401805480613594576135936145b3565b5b600190038181906000526020600020016000905590556135ea565b6040517f08c379a00000000000000000000000000000000000000000000000000000000081526004016135e1906140ce565b60405180910390fd5b50505050565b600060056000848152602001908152602001600020600801600083815260200190815260200160002054905092915050565b600060096000848152602001908152602001600020600601600083815260200190815260200160002054905092915050565b60026020528060005260406000206000915090505481565b60096020528060005260406000206000915090508060000154908060010154908060040154905083565b8060066000848152602001908152602001600020600301819055505050565b60118054905082829050146136ff576040517f08c379a00000000000000000000000000000000000000000000000000000000081526004016136f69061414e565b60405180910390fd5b60005b60118054905081101561378557828282818110613722576137216145e2565b5b9050602002013560066000868152602001908152602001600020600501600060118481548110613755576137546145e2565b5b9060005260206000200154815260200190815260200160002081905550808061377d9061450c565b915050613702565b50505050565b600060096000858152602001908152602001600020600601600084815260200190815260200160002054146137f5576040517f08c379a00000000000000000000000000000000000000000000000000000000081526004016137ec9061410e565b60405180910390fd5b806009600085815260200190815260200160002060060160008481526020019081526020016000208190555060096000848152602001908152602001600020600501819080600181540180825580915050600190039060005260206000200160009091909190915055505050565b606060138054806020026020016040519081016040528092919081815260200182805480156138b157602002820191906000526020600020905b81548152602001906001019080831161389d575b5050505050905090565b600860008381526020019081526020016000206004018190806001815401808255809150506001900390600052602060002001600090919091909150555050565b8060076000858152602001908152602001600020600301600084815260200190815260200160002081905550505050565b828054613939906144a9565b90600052602060002090601f01602090048101928261395b57600085556139a2565b82601f1061397457803560ff19168380011785556139a2565b828001600101855582156139a2579182015b828111156139a1578235825591602001919060010190613986565b5b5090506139af91906139d4565b5090565b50805460008255906000526020600020908101906139d191906139d4565b50565b5b808211156139ed5760008160009055506001016139d5565b5090565b6000613a046139ff84614323565b6142fe565b90508083825260208201905082856020860282011115613a2757613a2661464a565b5b60005b85811015613a575781613a3d8882613b65565b845260208401935060208301925050600181019050613a2a565b5050509392505050565b600081359050613a7081614893565b92915050565b60008083601f840112613a8c57613a8b614645565b5b8235905067ffffffffffffffff811115613aa957613aa8614640565b5b602083019150836020820283011115613ac557613ac461464a565b5b9250929050565b600082601f830112613ae157613ae0614645565b5b8135613af18482602086016139f1565b91505092915050565b600081359050613b09816148aa565b92915050565b60008083601f840112613b2557613b24614645565b5b8235905067ffffffffffffffff811115613b4257613b41614640565b5b602083019150836001820283011115613b5e57613b5d61464a565b5b9250929050565b600081359050613b74816148c1565b92915050565b600060208284031215613b9057613b8f614654565b5b6000613b9e84828501613a61565b91505092915050565b60008060408385031215613bbe57613bbd614654565b5b6000613bcc85828601613a61565b9250506020613bdd85828601613b65565b9150509250929050565b600060208284031215613bfd57613bfc614654565b5b600082013567ffffffffffffffff811115613c1b57613c1a61464f565b5b613c2784828501613acc565b91505092915050565b600060208284031215613c4657613c45614654565b5b6000613c5484828501613b65565b91505092915050565b60008060408385031215613c7457613c73614654565b5b6000613c8285828601613b65565b9250506020613c9385828601613a61565b9150509250929050565b600080600060408486031215613cb657613cb5614654565b5b6000613cc486828701613b65565b935050602084013567ffffffffffffffff811115613ce557613ce461464f565b5b613cf186828701613a76565b92509250509250925092565b60008060408385031215613d1457613d13614654565b5b6000613d2285828601613b65565b925050602083013567ffffffffffffffff811115613d4357613d4261464f565b5b613d4f85828601613acc565b9150509250929050565b60008060408385031215613d7057613d6f614654565b5b6000613d7e85828601613b65565b9250506020613d8f85828601613afa565b9150509250929050565b600080600060408486031215613db257613db1614654565b5b6000613dc086828701613b65565b935050602084013567ffffffffffffffff811115613de157613de061464f565b5b613ded86828701613b0f565b92509250509250925092565b60008060408385031215613e1057613e0f614654565b5b6000613e1e85828601613b65565b9250506020613e2f85828601613b65565b9150509250929050565b600080600060608486031215613e5257613e51614654565b5b6000613e6086828701613b65565b9350506020613e7186828701613b65565b9250506040613e8286828701613b65565b9150509250925092565b6000613e98838361404e565b60208301905092915050565b613ead8161442e565b82525050565b6000613ebe8261435f565b613ec88185614382565b9350613ed38361434f565b8060005b83811015613f04578151613eeb8882613e8c565b9750613ef683614375565b925050600181019050613ed7565b5085935050505092915050565b613f1a81614440565b82525050565b6000613f2b8261436a565b613f358185614393565b9350613f45818560208601614476565b613f4e81614659565b840191505092915050565b6000613f66606083614393565b9150613f718261466a565b606082019050919050565b6000613f89601583614393565b9150613f94826146df565b602082019050919050565b6000613fac601083614393565b9150613fb782614708565b602082019050919050565b6000613fcf602283614393565b9150613fda82614731565b604082019050919050565b6000613ff2601583614393565b9150613ffd82614780565b602082019050919050565b6000614015602f83614393565b9150614020826147a9565b604082019050919050565b6000614038606183614393565b9150614043826147f8565b608082019050919050565b6140578161446c565b82525050565b6140668161446c565b82525050565b600060208201905081810360008301526140868184613eb3565b905092915050565b600060208201905081810360008301526140a781613f59565b9050919050565b600060208201905081810360008301526140c781613f7c565b9050919050565b600060208201905081810360008301526140e781613f9f565b9050919050565b6000602082019050818103600083015261410781613fc2565b9050919050565b6000602082019050818103600083015261412781613fe5565b9050919050565b6000602082019050818103600083015261414781614008565b9050919050565b600060208201905081810360008301526141678161402b565b9050919050565b6000602082019050614183600083018461405d565b92915050565b600060608201905061419e600083018661405d565b81810360208301526141b08185613f20565b90506141bf6040830184613ea4565b949350505050565b60006080820190506141dc600083018761405d565b81810360208301526141ee8186613f20565b90506141fd6040830185613ea4565b61420a606083018461405d565b95945050505050565b600060c082019050614228600083018961405d565b818103602083015261423a8188613f20565b90506142496040830187613ea4565b614256606083018661405d565b614263608083018561405d565b61427060a083018461405d565b979650505050505050565b6000608082019050614290600083018761405d565b81810360208301526142a28186613f20565b90506142b1604083018561405d565b6142be6060830184613f11565b95945050505050565b60006060820190506142dc600083018661405d565b6142e9602083018561405d565b6142f6604083018461405d565b949350505050565b6000614308614319565b905061431482826144db565b919050565b6000604051905090565b600067ffffffffffffffff82111561433e5761433d614611565b5b602082029050602081019050919050565b6000819050602082019050919050565b600081519050919050565b600081519050919050565b6000602082019050919050565b600082825260208201905092915050565b600082825260208201905092915050565b60006143af8261446c565b91506143ba8361446c565b9250827fffffffffffffffffffffffffffffffffffffffffffffffffffffffffffffffff038211156143ef576143ee614555565b5b828201905092915050565b60006144058261446c565b91506144108361446c565b92508282101561442357614422614555565b5b828203905092915050565b60006144398261444c565b9050919050565b60008115159050919050565b600073ffffffffffffffffffffffffffffffffffffffff82169050919050565b6000819050919050565b60005b83811015614494578082015181840152602081019050614479565b838111156144a3576000848401525b50505050565b600060028204905060018216806144c157607f821691505b602082108114156144d5576144d4614584565b5b50919050565b6144e482614659565b810181811067ffffffffffffffff8211171561450357614502614611565b5b80604052505050565b60006145178261446c565b91507fffffffffffffffffffffffffffffffffffffffffffffffffffffffffffffffff82141561454a57614549614555565b5b600182019050919050565b7f4e487b7100000000000000000000000000000000000000000000000000000000600052601160045260246000fd5b7f4e487b7100000000000000000000000000000000000000000000000000000000600052602260045260246000fd5b7f4e487b7100000000000000000000000000000000000000000000000000000000600052603160045260246000fd5b7f4e487b7100000000000000000000000000000000000000000000000000000000600052603260045260246000fd5b7f4e487b7100000000000000000000000000000000000000000000000000000000600052604160045260246000fd5b600080fd5b600080fd5b600080fd5b600080fd5b600080fd5b6000601f19601f8301169050919050565b7f5768656e2073657474696e672074686520707265666572656e6365206c65766560008201527f6c206f6620636f75727365732c206974206973206e656365737361727920746f60208201527f206861766520616e20657175616c206e756d626572206f6620636f7572736573604082015250565b7fe8afa5e78fade7baa7e5b7b2e7bb8fe68993e588860000000000000000000000600082015250565b7f436f75727365206e6f7420666f756e6400000000000000000000000000000000600082015250565b7f6d7573742075706461746520616c6c20636f7572736520737569746162696c6960008201527f7479000000000000000000000000000000000000000000000000000000000000602082015250565b7fe8afa5e79da3e5afbce5b7b2e7bb8fe8af84e588860000000000000000000000600082015250565b7f4f6e6c7920726567697374657265642074656163686572732063616e2063616c60008201527f6c20746869732066756e6374696f6e0000000000000000000000000000000000602082015250565b7f5768656e2073657474696e672074686520737569746162696c697479206c657660008201527f656c206f6620636f75727365732c206974206973206e6563657373617279207460208201527f6f206861766520616e20657175616c206e756d626572206f6620636f7572736560408201527f7300000000000000000000000000000000000000000000000000000000000000606082015250565b61489c8161442e565b81146148a757600080fd5b50565b6148b381614440565b81146148be57600080fd5b50565b6148ca8161446c565b81146148d557600080fd5b5056fea264697066735822122061ff83e4e3a3f51f3eff21c1e0b84a6929aed640683f0099ebd2f5997081de1f64736f6c63430008070033",
  "immutableReferences": {},
  "source": "// SPDX-License-Identifier: MIT\r\npragma solidity ^0.8.7;\r\n\r\ncontract ICourseAllocation {\r\n    // \r\n    struct Teacher {\r\n        uint256 id;\r\n        string name;\r\n        address addr;\r\n        uint256[] assignedCourses;\r\n        uint256[] reallyAssignedCourses;\r\n        uint256 suitabilityWeight;\r\n        uint256 transferCourseCoins;\r\n        uint256 value;\r\n        mapping(uint256 => uint256) courseSuitabilities;\r\n        mapping(uint256 => uint256) coursePreferences;\r\n    }\r\n\r\n    // \r\n    struct Agent {\r\n        uint256 id;\r\n        string name;\r\n        address addr;\r\n        uint256 value;\r\n        uint256[] assignedCourses;\r\n        mapping(uint256 => uint256) courseSuitabilities;\r\n    }\r\n\r\n    // \r\n    struct Supervisor {\r\n        uint256 id;\r\n        string name;\r\n        address addr;\r\n        mapping(uint256 => uint256) courseScores;\r\n    }\r\n\r\n    // \r\n    struct Course {\r\n        uint256 id;\r\n        string name;\r\n        uint256 importance;\r\n        uint256[] assignedTeacherId;\r\n        uint256[] assignedAgentId;\r\n        bool isAgentSuitable;\r\n    }\r\n\r\n    struct CourseScore {\r\n        uint256 id; // id\r\n        uint256 totalScore;\r\n        uint256[] classScores;\r\n        mapping(uint256 => uint256) giveScoreClassIdExists;\r\n        uint256 selfScore;\r\n        uint256[] supervisorScores;\r\n        mapping(uint256 => uint256) giveScoreSupervisorIdExists;\r\n    }\r\n\r\n    // \r\n    uint256 public totalWeight;\r\n\r\n    //  => ID\r\n    mapping(address => uint256) public addressToTeacherId;\r\n\r\n    //  => ID\r\n    mapping(address => uint256) public addressToAgentId;\r\n\r\n    //  => ID\r\n    mapping(address => uint256) public addressToClassId;\r\n\r\n    //  => ID\r\n    mapping(address => uint256) public addressToSupervisorId;\r\n\r\n    // ID => \r\n    mapping(uint256 => Teacher) public teachers;\r\n\r\n    // ID => \r\n    mapping(uint256 => Agent) public agents;\r\n\r\n    // ID => \r\n    mapping(uint256 => Supervisor) public supervisors;\r\n\r\n    // ID => \r\n    mapping(uint256 => Course) public courses;\r\n\r\n    // ID => \r\n    mapping(uint256 => CourseScore) public courseScores;\r\n\r\n    // ID\r\n    uint256 public teacherCount;\r\n\r\n    // ID\r\n    uint256 public agentCount;\r\n\r\n    // ID\r\n    uint256 public classCount;\r\n\r\n    // ID\r\n    uint256 public courseCount;\r\n\r\n    // ID\r\n    uint256 public supervisorCount;\r\n\r\n    // ID\r\n    uint256[] public teacherIds;\r\n\r\n    // ID\r\n    uint256[] public agentIds;\r\n\r\n    // ID\r\n    uint256[] public courseIds;\r\n\r\n    // ID\r\n    uint256[] public classIds;\r\n\r\n    // ID\r\n    uint256[] public supervisorIds;\r\n\r\n    // \r\n    uint256 public transferCourseNumbers;\r\n\r\n    // \r\n    uint256 public transferCourseStartTime;\r\n\r\n    // \r\n    uint256 public transferCourseEndTime;\r\n\r\n    // \r\n    // event CourseImportanceSet(uint256 indexed courseId, uint256 importance);\r\n    // event SuitabilityUpdated(uint256 indexed courseId, uint256 suitability);\r\n    // event PreferenceUpdated(uint256 indexed teacherId, uint256 indexed courseId, uint256 preference);\r\n    // event ProposalCreated(uint256 proposalId, uint256 indexed courseId, uint256[] teacherIds); // \r\n    // event MachineProposal(uint256 proposalId, uint256 indexed courseId, uint256[] teacherIds, uint256[] teacherCounts); // \r\n    // event CourseAssignedToTeacher(uint256 indexed courseId, uint256 indexed teacherId); // \r\n\r\n    // \r\n    constructor() {}\r\n\r\n    // \r\n    modifier onlyTeacher() {\r\n        require(\r\n            addressToTeacherId[msg.sender] != 0,\r\n            \"Only registered teachers can call this function\"\r\n        );\r\n        _;\r\n    }\r\n\r\n    // ID\r\n    function setTeacherId(address teacherAddress, uint256 _TeacherId) public {\r\n        addressToTeacherId[teacherAddress] = _TeacherId;\r\n        teachers[_TeacherId].id = _TeacherId;\r\n        teacherIds.push(_TeacherId);\r\n    }\r\n\r\n    // \r\n    function removeTeacher(uint256 teacherId) public onlyTeacher {\r\n        teachers[teacherId].id = 0;\r\n        //  teacherIds  ID\r\n        for (uint256 i = 0; i < teacherIds.length; i++) {\r\n            if (teacherIds[i] == teacherId) {\r\n                //  ID \r\n                teacherIds[i] = teacherIds[teacherIds.length - 1];\r\n                // \r\n                teacherIds.pop();\r\n                break;\r\n            }\r\n        }\r\n    }\r\n\r\n    // \r\n    function setTeacherName(\r\n        uint256 teacherId,\r\n        string calldata _name\r\n    ) public onlyTeacher {\r\n        teachers[teacherId].name = _name;\r\n    }\r\n\r\n    // \r\n    function setTeacherAddress(\r\n        uint256 teacherId,\r\n        address _teacherAddress\r\n    ) public onlyTeacher {\r\n        teachers[teacherId].addr = _teacherAddress;\r\n    }\r\n\r\n    // \r\n    function addTeacherAssignedCourses(\r\n        uint256 teacherId,\r\n        uint256 _assignedCourses\r\n    ) public {\r\n        teachers[teacherId].assignedCourses.push(_assignedCourses);\r\n    }\r\n\r\n    // \r\n    function addTeacherReallyAssignedCourses(\r\n        uint256 teacherId,\r\n        uint256 _assignedCourses\r\n    ) public {\r\n        teachers[teacherId].reallyAssignedCourses.push(_assignedCourses);\r\n    }\r\n\r\n    // \r\n    function removeTeacherAssignedCourses(\r\n        uint256 teacherId,\r\n        uint256 _assignedCourses\r\n    ) public {\r\n        bool found = false;\r\n        uint256 indexToRemove;\r\n\r\n        //  ID \r\n        for (\r\n            uint256 i = 0;\r\n            i < teachers[teacherId].assignedCourses.length;\r\n            i++\r\n        ) {\r\n            if (teachers[teacherId].assignedCourses[i] == _assignedCourses) {\r\n                found = true;\r\n                indexToRemove = i;\r\n                break;\r\n            }\r\n        }\r\n\r\n        //  ID\r\n        if (found) {\r\n            // \r\n            teachers[teacherId].assignedCourses[indexToRemove] = teachers[\r\n                teacherId\r\n            ].assignedCourses[teachers[teacherId].assignedCourses.length - 1];\r\n            // \r\n            teachers[teacherId].assignedCourses.pop();\r\n        } else {\r\n            //  ID\r\n            revert(\"Course not found\");\r\n        }\r\n    }\r\n\r\n    // \r\n    function removeTeacherReallyAssignedCourses(\r\n        uint256 teacherId,\r\n        uint256 _assignedCourses\r\n    ) public {\r\n        bool found = false;\r\n        uint256 indexToRemove;\r\n\r\n        //  ID \r\n        for (\r\n            uint256 i = 0;\r\n            i < teachers[teacherId].reallyAssignedCourses.length;\r\n            i++\r\n        ) {\r\n            if (\r\n                teachers[teacherId].reallyAssignedCourses[i] == _assignedCourses\r\n            ) {\r\n                found = true;\r\n                indexToRemove = i;\r\n                break;\r\n            }\r\n        }\r\n\r\n        //  ID\r\n        if (found) {\r\n            // \r\n            teachers[teacherId].reallyAssignedCourses[indexToRemove] = teachers[\r\n                teacherId\r\n            ].reallyAssignedCourses[\r\n                    teachers[teacherId].reallyAssignedCourses.length - 1\r\n                ];\r\n            // \r\n            teachers[teacherId].reallyAssignedCourses.pop();\r\n        } else {\r\n            //  ID\r\n            revert(\"Course not found\");\r\n        }\r\n    }\r\n\r\n    // \r\n    function setTeacherSuitabilityWeight(\r\n        uint256 teacherId,\r\n        uint256 _suitabilityWeight\r\n    ) public onlyTeacher {\r\n        totalWeight -= teachers[teacherId].suitabilityWeight;\r\n        teachers[teacherId].suitabilityWeight = _suitabilityWeight;\r\n        totalWeight += teachers[teacherId].suitabilityWeight;\r\n    }\r\n\r\n    // \r\n    function setTeacherTransferCourseCoins(\r\n        uint256 teacherId,\r\n        uint256 _transferCourseCoins\r\n    ) public onlyTeacher {\r\n        teachers[teacherId].transferCourseCoins = _transferCourseCoins;\r\n    }\r\n\r\n    // \r\n    function setTeacherValue(\r\n        uint256 teacherId,\r\n        uint256 _value\r\n    ) public onlyTeacher {\r\n        teachers[teacherId].value = _value;\r\n    }\r\n\r\n    // \r\n    function setAgentValue(uint256 agentId, uint256 _value) public {\r\n        agents[agentId].value = _value;\r\n    }\r\n\r\n    // \r\n    function setAllTeacherCourseSuitability(\r\n        uint256 teacherId,\r\n        uint256[] calldata _suitabilities\r\n    ) public onlyTeacher {\r\n        require(\r\n            _suitabilities.length == courseIds.length,\r\n            \"When setting the suitability level of courses, it is necessary to have an equal number of courses\"\r\n        );\r\n        for (\r\n            uint256 courseIndex = 0;\r\n            courseIndex < courseIds.length;\r\n            courseIndex++\r\n        ) {\r\n            teachers[teacherId].courseSuitabilities[\r\n                courseIds[courseIndex]\r\n            ] = _suitabilities[courseIndex];\r\n        }\r\n    }\r\n\r\n    // \r\n    function setTeacherCourseSuitability(\r\n        uint256 teacherId,\r\n        uint256 courseId,\r\n        uint256 _suitability\r\n    ) public {\r\n        teachers[teacherId].courseSuitabilities[courseId] = _suitability;\r\n    }\r\n\r\n    // \r\n    function setAllTeacherCoursePreferences(\r\n        uint256 teacherId,\r\n        uint256[] calldata _preferences\r\n    ) public onlyTeacher {\r\n        require(\r\n            _preferences.length == courseIds.length,\r\n            \"When setting the preference level of courses, it is necessary to have an equal number of courses\"\r\n        );\r\n        for (\r\n            uint256 courseIndex = 0;\r\n            courseIndex < courseIds.length;\r\n            courseIndex++\r\n        ) {\r\n            teachers[teacherId].coursePreferences[\r\n                courseIds[courseIndex]\r\n            ] = _preferences[courseIndex];\r\n        }\r\n    }\r\n\r\n    // \r\n    function setTeacherCoursePreferences(\r\n        uint256 teacherId,\r\n        uint256 courseId,\r\n        uint256 _preference\r\n    ) public onlyTeacher {\r\n        teachers[teacherId].coursePreferences[courseId] = _preference;\r\n    }\r\n\r\n    // ID\r\n    function setAgentId(address agentAddress, uint256 _agentId) public {\r\n        addressToAgentId[agentAddress] = _agentId;\r\n        agents[_agentId].id = _agentId;\r\n        agentIds.push(_agentId);\r\n    }\r\n\r\n    // \r\n    function removeAgent(uint256 agentId) public {\r\n        agents[agentId].id = 0;\r\n        //  agentIds  ID\r\n        for (uint256 i = 0; i < agentIds.length; i++) {\r\n            if (agentIds[i] == agentId) {\r\n                //  ID \r\n                agentIds[i] = agentIds[agentIds.length - 1];\r\n                // \r\n                agentIds.pop();\r\n                break;\r\n            }\r\n        }\r\n    }\r\n\r\n    // \r\n    function setAgentName(uint256 agentId, string calldata _name) public {\r\n        agents[agentId].name = _name;\r\n    }\r\n\r\n    // \r\n    function setAgentAddress(uint256 agentId, address _agentAddress) public {\r\n        agents[agentId].addr = _agentAddress;\r\n    }\r\n\r\n    // \r\n    function addAgentAssignedCourses(\r\n        uint256 agentId,\r\n        uint256 _assignedCourses\r\n    ) public {\r\n        agents[agentId].assignedCourses.push(_assignedCourses);\r\n    }\r\n\r\n    // \r\n    function removeAgentAssignedCourses(\r\n        uint256 agentId,\r\n        uint256 _assignedCourses\r\n    ) public {\r\n        bool found = false;\r\n        uint256 indexToRemove;\r\n\r\n        //  ID \r\n        for (uint256 i = 0; i < agents[agentId].assignedCourses.length; i++) {\r\n            if (agents[agentId].assignedCourses[i] == _assignedCourses) {\r\n                found = true;\r\n                indexToRemove = i;\r\n                break;\r\n            }\r\n        }\r\n\r\n        //  ID\r\n        if (found) {\r\n            // \r\n            agents[agentId].assignedCourses[indexToRemove] = agents[agentId]\r\n                .assignedCourses[agents[agentId].assignedCourses.length - 1];\r\n            // \r\n            agents[agentId].assignedCourses.pop();\r\n        } else {\r\n            //  ID\r\n            revert(\"Course not found\");\r\n        }\r\n    }\r\n\r\n    // \r\n    function setAgentCourseSuitability(\r\n        uint256 agentId,\r\n        uint256 _courseId,\r\n        uint256 _suitability\r\n    ) public {\r\n        agents[agentId].courseSuitabilities[_courseId] = _suitability;\r\n    }\r\n\r\n    // \r\n    function setAllAgentCourseSuitability(\r\n        uint256 agentId,\r\n        uint256[] calldata _suitabilities\r\n    ) public {\r\n        require(\r\n            _suitabilities.length == courseIds.length,\r\n            \"When setting the suitability level of courses, it is necessary to have an equal number of courses\"\r\n        );\r\n        for (\r\n            uint256 courseIndex = 0;\r\n            courseIndex < courseIds.length;\r\n            courseIndex++\r\n        ) {\r\n            agents[agentId].courseSuitabilities[\r\n                courseIds[courseIndex]\r\n            ] = _suitabilities[courseIndex];\r\n        }\r\n    }\r\n\r\n    // ID\r\n    function setClassId(address classAddress, uint256 _id) public {\r\n        addressToClassId[classAddress] = _id;\r\n        classIds.push(_id);\r\n    }\r\n\r\n    // \r\n    function removeClass(uint256 classId) public {\r\n        //  classIds  ID\r\n        for (uint256 i = 0; i < classIds.length; i++) {\r\n            if (classIds[i] == classId) {\r\n                //  ID \r\n                classIds[i] = classIds[classIds.length - 1];\r\n                // \r\n                classIds.pop();\r\n                break;\r\n            }\r\n        }\r\n    }\r\n\r\n    // ID\r\n    function setCourseId(uint256 courseId) public {\r\n        courses[courseId].id = courseId;\r\n        courseIds.push(courseId);\r\n    }\r\n\r\n    // \r\n    function removeCourse(uint256 courseId) public {\r\n        //  classIds  ID\r\n        for (uint256 i = 0; i < courseIds.length; i++) {\r\n            if (courseIds[i] == courseId) {\r\n                //  ID \r\n                courseIds[i] = courseIds[courseIds.length - 1];\r\n                // \r\n                courseIds.pop();\r\n                break;\r\n            }\r\n        }\r\n    }\r\n\r\n    // \r\n    function setCourseName(uint256 courseId, string calldata _name) public {\r\n        courses[courseId].name = _name;\r\n    }\r\n\r\n    // \r\n    function setCourseImportance(uint256 courseId, uint256 _importance) public {\r\n        courses[courseId].importance = _importance;\r\n    }\r\n\r\n    // \r\n    function setAllCourseImportance(uint256[] memory _importances) public {\r\n        require(\r\n            _importances.length == courseIds.length,\r\n            \"must update all course suitability\"\r\n        );\r\n        // \r\n        for (\r\n            uint256 courseIndex = 0;\r\n            courseIndex < courseIds.length;\r\n            courseIndex++\r\n        ) {\r\n            courses[courseIds[courseIndex]].importance = _importances[\r\n                courseIndex\r\n            ];\r\n        }\r\n    }\r\n\r\n    // ID\r\n    function addCourseAssignedTeacherId(\r\n        uint256 courseId,\r\n        uint256 _teacherId\r\n    ) public {\r\n        courses[courseId].assignedTeacherId.push(_teacherId);\r\n    }\r\n\r\n    // ID\r\n    function addCourseAssignedAgentId(\r\n        uint256 courseId,\r\n        uint256 _agentId\r\n    ) public {\r\n        courses[courseId].assignedAgentId.push(_agentId);\r\n    }\r\n\r\n    // \r\n    function removeCourseAssignedTeacherId(\r\n        uint256 courseId,\r\n        uint256 _teacherId\r\n    ) public {\r\n        bool found = false;\r\n        uint256 indexToRemove;\r\n\r\n        //  ID \r\n        for (\r\n            uint256 i = 0;\r\n            i < courses[courseId].assignedTeacherId.length;\r\n            i++\r\n        ) {\r\n            if (courses[courseId].assignedTeacherId[i] == _teacherId) {\r\n                found = true;\r\n                indexToRemove = i;\r\n                break;\r\n            }\r\n        }\r\n\r\n        //  ID\r\n        if (found) {\r\n            // \r\n            courses[courseId].assignedTeacherId[indexToRemove] = courses[\r\n                courseId\r\n            ].assignedTeacherId[courses[courseId].assignedTeacherId.length - 1];\r\n            // \r\n            courses[courseId].assignedTeacherId.pop();\r\n        } else {\r\n            //  ID\r\n            revert(\"Course not found\");\r\n        }\r\n    }\r\n\r\n    // \r\n    function removeCourseAssignedAgentId(\r\n        uint256 courseId,\r\n        uint256 _agentId\r\n    ) public {\r\n        bool found = false;\r\n        uint256 indexToRemove;\r\n\r\n        //  ID \r\n        for (uint256 i = 0; i < courses[courseId].assignedAgentId.length; i++) {\r\n            if (courses[courseId].assignedAgentId[i] == _agentId) {\r\n                found = true;\r\n                indexToRemove = i;\r\n                break;\r\n            }\r\n        }\r\n\r\n        //  ID\r\n        if (found) {\r\n            // \r\n            courses[courseId].assignedAgentId[indexToRemove] = courses[courseId]\r\n                .assignedAgentId[courses[courseId].assignedAgentId.length - 1];\r\n            // \r\n            courses[courseId].assignedAgentId.pop();\r\n        } else {\r\n            //  ID\r\n            revert(\"Course not found\");\r\n        }\r\n    }\r\n\r\n    // \r\n    function setCourseIsAgentSuitable(\r\n        uint256 courseId,\r\n        bool _isAgentSuitable\r\n    ) public {\r\n        courses[courseId].isAgentSuitable = _isAgentSuitable;\r\n    }\r\n\r\n    // \r\n    function setTeacherCount(uint256 _teacherCount) public {\r\n        teacherCount = _teacherCount;\r\n    }\r\n\r\n    // \r\n    function setAgentCount(uint256 _agentCount) public {\r\n        agentCount = _agentCount;\r\n    }\r\n\r\n    // \r\n    function setClassCount(uint256 _classCount) public {\r\n        classCount = _classCount;\r\n    }\r\n\r\n    // \r\n    function setCourseCount(uint256 _courseCount) public {\r\n        courseCount = _courseCount;\r\n    }\r\n\r\n    // \r\n    function getTeacherSuitability(\r\n        uint256 _teacherId,\r\n        uint256 courseId\r\n    ) public view returns (uint256) {\r\n        return teachers[_teacherId].courseSuitabilities[courseId];\r\n    }\r\n\r\n    // \r\n    function getAgentSuitability(\r\n        uint256 _agentId,\r\n        uint256 courseId\r\n    ) public view returns (uint256) {\r\n        return agents[_agentId].courseSuitabilities[courseId];\r\n    }\r\n\r\n    // \r\n    function getPreference(\r\n        uint256 _teacherId,\r\n        uint256 courseId\r\n    ) public view returns (uint256) {\r\n        return teachers[_teacherId].coursePreferences[courseId];\r\n    }\r\n\r\n    // \r\n    function getTeacherAssignedCourses(\r\n        uint256 _teacherId\r\n    ) public view returns (uint256[] memory) {\r\n        return teachers[_teacherId].assignedCourses;\r\n    }\r\n\r\n    // \r\n    function getTeacherReallyAssignedCourses(\r\n        uint256 _teacherId\r\n    ) public view returns (uint256[] memory) {\r\n        return teachers[_teacherId].reallyAssignedCourses;\r\n    }\r\n\r\n    // \r\n    function getAgentAssignedCourses(\r\n        uint256 _agentId\r\n    ) public view returns (uint256[] memory) {\r\n        return agents[_agentId].assignedCourses;\r\n    }\r\n\r\n    // \r\n    function getCoursesAssignedTeacher(\r\n        uint256 _courseId\r\n    ) public view returns (uint256[] memory) {\r\n        return courses[_courseId].assignedTeacherId;\r\n    }\r\n\r\n    // \r\n    function getCoursesAssignedAgent(\r\n        uint256 _courseId\r\n    ) public view returns (uint256[] memory) {\r\n        return courses[_courseId].assignedAgentId;\r\n    }\r\n\r\n    function getTeacherIds() public view returns (uint256[] memory) {\r\n        return teacherIds;\r\n    }\r\n\r\n    function getAgentIds() public view returns (uint256[] memory) {\r\n        return agentIds;\r\n    }\r\n\r\n    function getCourseIds() public view returns (uint256[] memory) {\r\n        return courseIds;\r\n    }\r\n\r\n    function getClassIds() public view returns (uint256[] memory) {\r\n        return classIds;\r\n    }\r\n\r\n    function addCourseClassScores(\r\n        uint256 courseId,\r\n        uint256 classId,\r\n        uint256 score\r\n    ) public {\r\n        require(\r\n            courseScores[courseId].giveScoreClassIdExists[classId] == 0,\r\n            unicode\"\"\r\n        );\r\n        courseScores[courseId].giveScoreClassIdExists[classId] = score;\r\n        courseScores[courseId].classScores.push(score);\r\n    }\r\n\r\n    function getGiveScoreClassIdExists(\r\n        uint256 courseId,\r\n        uint256 classId \r\n    ) public view returns (uint256) {\r\n        return courseScores[courseId].giveScoreClassIdExists[classId]; \r\n    }\r\n\r\n    // \r\n    function removeCourseClassScores(uint256 courseId, uint256[] memory classIds_) public {\r\n        for (uint256 i = 0; i < classIds_.length; i++) {\r\n            courseScores[courseId].giveScoreClassIdExists[classIds_[i]] = 0;\r\n        }\r\n        delete courseScores[courseId].classScores;\r\n    }\r\n\r\n    function getCourseClassScores(uint256 courseId) public view returns (uint256[] memory) {\r\n        return courseScores[courseId].classScores;\r\n    }\r\n\r\n    function setCourseSelfScore(uint256 courseId, uint256 score) public {\r\n        courseScores[courseId].selfScore = score;\r\n    }\r\n\r\n    function setCourseTotalScore(uint256 courseId, uint256 score) public {\r\n        courseScores[courseId].totalScore = score;\r\n    }\r\n\r\n    function addCourseSupervisorScores(\r\n        uint256 courseId,\r\n        uint256 supervisorId,\r\n        uint256 score\r\n    ) public {\r\n        require(\r\n            courseScores[courseId].giveScoreSupervisorIdExists[supervisorId] ==\r\n                0,\r\n            unicode\"\"\r\n        );\r\n        courseScores[courseId].giveScoreSupervisorIdExists[\r\n            supervisorId\r\n        ] = score;\r\n        courseScores[courseId].supervisorScores.push(score);\r\n    }\r\n\r\n    function getGiveScoreSupervisorIdExists(\r\n        uint256 courseId,\r\n        uint256 supervisorId\r\n    ) public view returns (uint256) {\r\n        return courseScores[courseId].giveScoreSupervisorIdExists[supervisorId];\r\n    }\r\n\r\n    function getCourseSupervisorScores(\r\n        uint256 courseId\r\n    ) public view returns (uint256[] memory) {\r\n        return courseScores[courseId].supervisorScores;\r\n    }\r\n\r\n    function addSupervisorId(uint256 supervisorId) public {\r\n        supervisorIds.push(supervisorId);\r\n        supervisorCount++;\r\n    }\r\n\r\n    function getSupervisorIds() public view returns (uint256[] memory) {\r\n        return supervisorIds;\r\n    }\r\n\r\n    function setSupervisorId(address supervisor, uint256 supervisorId) public {\r\n        addressToSupervisorId[supervisor] = supervisorId;\r\n        supervisors[supervisorId].id = supervisorId;\r\n        supervisors[supervisorId].addr = supervisor;\r\n    }\r\n\r\n    function setSupervisorName(\r\n        uint256 supervisorId,\r\n        string calldata _name\r\n    ) public {\r\n        supervisors[supervisorId].name = _name;\r\n    }\r\n\r\n    function setSupervisorsCourseScore(\r\n        uint256 supervisorId,\r\n        uint256 courseId,\r\n        uint256 score\r\n    ) public {\r\n        supervisors[supervisorId].courseScores[courseId] = score;\r\n    }\r\n\r\n    function settransferCourseNumbers(\r\n        uint256 _transferCourseNumbers\r\n    ) public {\r\n        transferCourseNumbers = _transferCourseNumbers;\r\n    }\r\n\r\n    function settransferCourseStartTime(\r\n        uint256 _transferCourseStartTime\r\n    ) public {\r\n        transferCourseStartTime = _transferCourseStartTime;\r\n    }\r\n\r\n    function settransferCourseEndTime(\r\n        uint256 _transferCourseEndTime\r\n    ) public {\r\n        transferCourseEndTime = _transferCourseEndTime;\r\n    }\r\n\r\n}\r\n",
  "sourcePath": "E:\\\\paper\\DAO\\git-DAO\\lishuai\\Course-allocation\\project\\contracts\\ICourseAllocation.sol",
  "compiler": {
    "name": "solc",
    "version": "0.8.7+commit.e28d00a7.Emscripten.clang"
  },
  "schemaVersion": "3.4.16",
  "updatedAt": "2025-04-07T08:30:25.778Z",
  "networkType": "ethereum",
  "devdoc": {
    "kind": "dev",
    "methods": {},
    "version": 1
  },
  "userdoc": {
    "kind": "user",
    "methods": {},
    "version": 1
  }
}