{
  "contractName": "ICourseAllocation",
  "abi": [
    {
      "inputs": [],
      "stateMutability": "nonpayable",
      "type": "constructor"
    },
    {
      "inputs": [
        {
          "internalType": "address",
          "name": "",
          "type": "address"
        }
      ],
      "name": "addressToAgentId",
      "outputs": [
        {
          "internalType": "uint256",
          "name": "",
          "type": "uint256"
        }
      ],
      "stateMutability": "view",
      "type": "function",
      "constant": true
    },
    {
      "inputs": [
        {
          "internalType": "address",
          "name": "",
          "type": "address"
        }
      ],
      "name": "addressToClassId",
      "outputs": [
        {
          "internalType": "uint256",
          "name": "",
          "type": "uint256"
        }
      ],
      "stateMutability": "view",
      "type": "function",
      "constant": true
    },
    {
      "inputs": [
        {
          "internalType": "address",
          "name": "",
          "type": "address"
        }
      ],
      "name": "addressToSupervisorId",
      "outputs": [
        {
          "internalType": "uint256",
          "name": "",
          "type": "uint256"
        }
      ],
      "stateMutability": "view",
      "type": "function",
      "constant": true
    },
    {
      "inputs": [
        {
          "internalType": "address",
          "name": "",
          "type": "address"
        }
      ],
      "name": "addressToTeacherId",
      "outputs": [
        {
          "internalType": "uint256",
          "name": "",
          "type": "uint256"
        }
      ],
      "stateMutability": "view",
      "type": "function",
      "constant": true
    },
    {
      "inputs": [],
      "name": "agentCount",
      "outputs": [
        {
          "internalType": "uint256",
          "name": "",
          "type": "uint256"
        }
      ],
      "stateMutability": "view",
      "type": "function",
      "constant": true
    },
    {
      "inputs": [
        {
          "internalType": "uint256",
          "name": "",
          "type": "uint256"
        }
      ],
      "name": "agentIds",
      "outputs": [
        {
          "internalType": "uint256",
          "name": "",
          "type": "uint256"
        }
      ],
      "stateMutability": "view",
      "type": "function",
      "constant": true
    },
    {
      "inputs": [
        {
          "internalType": "uint256",
          "name": "",
          "type": "uint256"
        }
      ],
      "name": "agents",
      "outputs": [
        {
          "internalType": "uint256",
          "name": "id",
          "type": "uint256"
        },
        {
          "internalType": "string",
          "name": "name",
          "type": "string"
        },
        {
          "internalType": "address",
          "name": "addr",
          "type": "address"
        },
        {
          "internalType": "uint256",
          "name": "value",
          "type": "uint256"
        }
      ],
      "stateMutability": "view",
      "type": "function",
      "constant": true
    },
    {
      "inputs": [],
      "name": "classCount",
      "outputs": [
        {
          "internalType": "uint256",
          "name": "",
          "type": "uint256"
        }
      ],
      "stateMutability": "view",
      "type": "function",
      "constant": true
    },
    {
      "inputs": [
        {
          "internalType": "uint256",
          "name": "",
          "type": "uint256"
        }
      ],
      "name": "classIds",
      "outputs": [
        {
          "internalType": "uint256",
          "name": "",
          "type": "uint256"
        }
      ],
      "stateMutability": "view",
      "type": "function",
      "constant": true
    },
    {
      "inputs": [],
      "name": "courseCount",
      "outputs": [
        {
          "internalType": "uint256",
          "name": "",
          "type": "uint256"
        }
      ],
      "stateMutability": "view",
      "type": "function",
      "constant": true
    },
    {
      "inputs": [
        {
          "internalType": "uint256",
          "name": "",
          "type": "uint256"
        }
      ],
      "name": "courseIds",
      "outputs": [
        {
          "internalType": "uint256",
          "name": "",
          "type": "uint256"
        }
      ],
      "stateMutability": "view",
      "type": "function",
      "constant": true
    },
    {
      "inputs": [
        {
          "internalType": "uint256",
          "name": "",
          "type": "uint256"
        }
      ],
      "name": "courseScores",
      "outputs": [
        {
          "internalType": "uint256",
          "name": "id",
          "type": "uint256"
        },
        {
          "internalType": "uint256",
          "name": "totalScore",
          "type": "uint256"
        },
        {
          "internalType": "uint256",
          "name": "selfScore",
          "type": "uint256"
        }
      ],
      "stateMutability": "view",
      "type": "function",
      "constant": true
    },
    {
      "inputs": [
        {
          "internalType": "uint256",
          "name": "",
          "type": "uint256"
        }
      ],
      "name": "courses",
      "outputs": [
        {
          "internalType": "uint256",
          "name": "id",
          "type": "uint256"
        },
        {
          "internalType": "string",
          "name": "name",
          "type": "string"
        },
        {
          "internalType": "uint256",
          "name": "importance",
          "type": "uint256"
        },
        {
          "internalType": "bool",
          "name": "isAgentSuitable",
          "type": "bool"
        }
      ],
      "stateMutability": "view",
      "type": "function",
      "constant": true
    },
    {
      "inputs": [],
      "name": "supervisorCount",
      "outputs": [
        {
          "internalType": "uint256",
          "name": "",
          "type": "uint256"
        }
      ],
      "stateMutability": "view",
      "type": "function",
      "constant": true
    },
    {
      "inputs": [
        {
          "internalType": "uint256",
          "name": "",
          "type": "uint256"
        }
      ],
      "name": "supervisorIds",
      "outputs": [
        {
          "internalType": "uint256",
          "name": "",
          "type": "uint256"
        }
      ],
      "stateMutability": "view",
      "type": "function",
      "constant": true
    },
    {
      "inputs": [
        {
          "internalType": "uint256",
          "name": "",
          "type": "uint256"
        }
      ],
      "name": "supervisors",
      "outputs": [
        {
          "internalType": "uint256",
          "name": "id",
          "type": "uint256"
        },
        {
          "internalType": "address",
          "name": "addr",
          "type": "address"
        }
      ],
      "stateMutability": "view",
      "type": "function",
      "constant": true
    },
    {
      "inputs": [],
      "name": "teacherCount",
      "outputs": [
        {
          "internalType": "uint256",
          "name": "",
          "type": "uint256"
        }
      ],
      "stateMutability": "view",
      "type": "function",
      "constant": true
    },
    {
      "inputs": [
        {
          "internalType": "uint256",
          "name": "",
          "type": "uint256"
        }
      ],
      "name": "teacherIds",
      "outputs": [
        {
          "internalType": "uint256",
          "name": "",
          "type": "uint256"
        }
      ],
      "stateMutability": "view",
      "type": "function",
      "constant": true
    },
    {
      "inputs": [
        {
          "internalType": "uint256",
          "name": "",
          "type": "uint256"
        }
      ],
      "name": "teachers",
      "outputs": [
        {
          "internalType": "uint256",
          "name": "id",
          "type": "uint256"
        },
        {
          "internalType": "string",
          "name": "name",
          "type": "string"
        },
        {
          "internalType": "address",
          "name": "addr",
          "type": "address"
        },
        {
          "internalType": "uint256",
          "name": "suitabilityWeight",
          "type": "uint256"
        },
        {
          "internalType": "uint256",
          "name": "transferCourseCoins",
          "type": "uint256"
        },
        {
          "internalType": "uint256",
          "name": "value",
          "type": "uint256"
        }
      ],
      "stateMutability": "view",
      "type": "function",
      "constant": true
    },
    {
      "inputs": [],
      "name": "totalWeight",
      "outputs": [
        {
          "internalType": "uint256",
          "name": "",
          "type": "uint256"
        }
      ],
      "stateMutability": "view",
      "type": "function",
      "constant": true
    },
    {
      "inputs": [
        {
          "internalType": "address",
          "name": "teacherAddress",
          "type": "address"
        },
        {
          "internalType": "uint256",
          "name": "_TeacherId",
          "type": "uint256"
        }
      ],
      "name": "setTeacherId",
      "outputs": [],
      "stateMutability": "nonpayable",
      "type": "function"
    },
    {
      "inputs": [
        {
          "internalType": "uint256",
          "name": "teacherId",
          "type": "uint256"
        }
      ],
      "name": "removeTeacher",
      "outputs": [],
      "stateMutability": "nonpayable",
      "type": "function"
    },
    {
      "inputs": [
        {
          "internalType": "uint256",
          "name": "teacherId",
          "type": "uint256"
        },
        {
          "internalType": "string",
          "name": "_name",
          "type": "string"
        }
      ],
      "name": "setTeacherName",
      "outputs": [],
      "stateMutability": "nonpayable",
      "type": "function"
    },
    {
      "inputs": [
        {
          "internalType": "uint256",
          "name": "teacherId",
          "type": "uint256"
        },
        {
          "internalType": "address",
          "name": "_teacherAddress",
          "type": "address"
        }
      ],
      "name": "setTeacherAddress",
      "outputs": [],
      "stateMutability": "nonpayable",
      "type": "function"
    },
    {
      "inputs": [
        {
          "internalType": "uint256",
          "name": "teacherId",
          "type": "uint256"
        },
        {
          "internalType": "uint256",
          "name": "_assignedCourses",
          "type": "uint256"
        }
      ],
      "name": "addTeacherAssignedCourses",
      "outputs": [],
      "stateMutability": "nonpayable",
      "type": "function"
    },
    {
      "inputs": [
        {
          "internalType": "uint256",
          "name": "teacherId",
          "type": "uint256"
        },
        {
          "internalType": "uint256",
          "name": "_assignedCourses",
          "type": "uint256"
        }
      ],
      "name": "addTeacherReallyAssignedCourses",
      "outputs": [],
      "stateMutability": "nonpayable",
      "type": "function"
    },
    {
      "inputs": [
        {
          "internalType": "uint256",
          "name": "teacherId",
          "type": "uint256"
        },
        {
          "internalType": "uint256",
          "name": "_assignedCourses",
          "type": "uint256"
        }
      ],
      "name": "removeTeacherAssignedCourses",
      "outputs": [],
      "stateMutability": "nonpayable",
      "type": "function"
    },
    {
      "inputs": [
        {
          "internalType": "uint256",
          "name": "teacherId",
          "type": "uint256"
        },
        {
          "internalType": "uint256",
          "name": "_assignedCourses",
          "type": "uint256"
        }
      ],
      "name": "removeTeacherReallyAssignedCourses",
      "outputs": [],
      "stateMutability": "nonpayable",
      "type": "function"
    },
    {
      "inputs": [
        {
          "internalType": "uint256",
          "name": "teacherId",
          "type": "uint256"
        },
        {
          "internalType": "uint256",
          "name": "_suitabilityWeight",
          "type": "uint256"
        }
      ],
      "name": "setTeacherSuitabilityWeight",
      "outputs": [],
      "stateMutability": "nonpayable",
      "type": "function"
    },
    {
      "inputs": [
        {
          "internalType": "uint256",
          "name": "teacherId",
          "type": "uint256"
        },
        {
          "internalType": "uint256",
          "name": "_transferCourseCoins",
          "type": "uint256"
        }
      ],
      "name": "setTeacherTransferCourseCoins",
      "outputs": [],
      "stateMutability": "nonpayable",
      "type": "function"
    },
    {
      "inputs": [
        {
          "internalType": "uint256",
          "name": "teacherId",
          "type": "uint256"
        },
        {
          "internalType": "uint256",
          "name": "_value",
          "type": "uint256"
        }
      ],
      "name": "setTeacherValue",
      "outputs": [],
      "stateMutability": "nonpayable",
      "type": "function"
    },
    {
      "inputs": [
        {
          "internalType": "uint256",
          "name": "agentId",
          "type": "uint256"
        },
        {
          "internalType": "uint256",
          "name": "_value",
          "type": "uint256"
        }
      ],
      "name": "setAgentValue",
      "outputs": [],
      "stateMutability": "nonpayable",
      "type": "function"
    },
    {
      "inputs": [
        {
          "internalType": "uint256",
          "name": "teacherId",
          "type": "uint256"
        },
        {
          "internalType": "uint256[]",
          "name": "_suitabilities",
          "type": "uint256[]"
        }
      ],
      "name": "setAllTeacherCourseSuitability",
      "outputs": [],
      "stateMutability": "nonpayable",
      "type": "function"
    },
    {
      "inputs": [
        {
          "internalType": "uint256",
          "name": "teacherId",
          "type": "uint256"
        },
        {
          "internalType": "uint256",
          "name": "courseId",
          "type": "uint256"
        },
        {
          "internalType": "uint256",
          "name": "_suitability",
          "type": "uint256"
        }
      ],
      "name": "setTeacherCourseSuitability",
      "outputs": [],
      "stateMutability": "nonpayable",
      "type": "function"
    },
    {
      "inputs": [
        {
          "internalType": "uint256",
          "name": "teacherId",
          "type": "uint256"
        },
        {
          "internalType": "uint256[]",
          "name": "_preferences",
          "type": "uint256[]"
        }
      ],
      "name": "setAllTeacherCoursePreferences",
      "outputs": [],
      "stateMutability": "nonpayable",
      "type": "function"
    },
    {
      "inputs": [
        {
          "internalType": "uint256",
          "name": "teacherId",
          "type": "uint256"
        },
        {
          "internalType": "uint256",
          "name": "courseId",
          "type": "uint256"
        },
        {
          "internalType": "uint256",
          "name": "_preference",
          "type": "uint256"
        }
      ],
      "name": "setTeacherCoursePreferences",
      "outputs": [],
      "stateMutability": "nonpayable",
      "type": "function"
    },
    {
      "inputs": [
        {
          "internalType": "address",
          "name": "agentAddress",
          "type": "address"
        },
        {
          "internalType": "uint256",
          "name": "_agentId",
          "type": "uint256"
        }
      ],
      "name": "setAgentId",
      "outputs": [],
      "stateMutability": "nonpayable",
      "type": "function"
    },
    {
      "inputs": [
        {
          "internalType": "uint256",
          "name": "agentId",
          "type": "uint256"
        }
      ],
      "name": "removeAgent",
      "outputs": [],
      "stateMutability": "nonpayable",
      "type": "function"
    },
    {
      "inputs": [
        {
          "internalType": "uint256",
          "name": "agentId",
          "type": "uint256"
        },
        {
          "internalType": "string",
          "name": "_name",
          "type": "string"
        }
      ],
      "name": "setAgentName",
      "outputs": [],
      "stateMutability": "nonpayable",
      "type": "function"
    },
    {
      "inputs": [
        {
          "internalType": "uint256",
          "name": "agentId",
          "type": "uint256"
        },
        {
          "internalType": "address",
          "name": "_agentAddress",
          "type": "address"
        }
      ],
      "name": "setAgentAddress",
      "outputs": [],
      "stateMutability": "nonpayable",
      "type": "function"
    },
    {
      "inputs": [
        {
          "internalType": "uint256",
          "name": "agentId",
          "type": "uint256"
        },
        {
          "internalType": "uint256",
          "name": "_assignedCourses",
          "type": "uint256"
        }
      ],
      "name": "addAgentAssignedCourses",
      "outputs": [],
      "stateMutability": "nonpayable",
      "type": "function"
    },
    {
      "inputs": [
        {
          "internalType": "uint256",
          "name": "agentId",
          "type": "uint256"
        },
        {
          "internalType": "uint256",
          "name": "_assignedCourses",
          "type": "uint256"
        }
      ],
      "name": "removeAgentAssignedCourses",
      "outputs": [],
      "stateMutability": "nonpayable",
      "type": "function"
    },
    {
      "inputs": [
        {
          "internalType": "uint256",
          "name": "agentId",
          "type": "uint256"
        },
        {
          "internalType": "uint256",
          "name": "_courseId",
          "type": "uint256"
        },
        {
          "internalType": "uint256",
          "name": "_suitability",
          "type": "uint256"
        }
      ],
      "name": "setAgentCourseSuitability",
      "outputs": [],
      "stateMutability": "nonpayable",
      "type": "function"
    },
    {
      "inputs": [
        {
          "internalType": "uint256",
          "name": "agentId",
          "type": "uint256"
        },
        {
          "internalType": "uint256[]",
          "name": "_suitabilities",
          "type": "uint256[]"
        }
      ],
      "name": "setAllAgentCourseSuitability",
      "outputs": [],
      "stateMutability": "nonpayable",
      "type": "function"
    },
    {
      "inputs": [
        {
          "internalType": "address",
          "name": "classAddress",
          "type": "address"
        },
        {
          "internalType": "uint256",
          "name": "_id",
          "type": "uint256"
        }
      ],
      "name": "setClassId",
      "outputs": [],
      "stateMutability": "nonpayable",
      "type": "function"
    },
    {
      "inputs": [
        {
          "internalType": "uint256",
          "name": "classId",
          "type": "uint256"
        }
      ],
      "name": "removeClass",
      "outputs": [],
      "stateMutability": "nonpayable",
      "type": "function"
    },
    {
      "inputs": [
        {
          "internalType": "uint256",
          "name": "courseId",
          "type": "uint256"
        }
      ],
      "name": "setCourseId",
      "outputs": [],
      "stateMutability": "nonpayable",
      "type": "function"
    },
    {
      "inputs": [
        {
          "internalType": "uint256",
          "name": "courseId",
          "type": "uint256"
        }
      ],
      "name": "removeCourse",
      "outputs": [],
      "stateMutability": "nonpayable",
      "type": "function"
    },
    {
      "inputs": [
        {
          "internalType": "uint256",
          "name": "courseId",
          "type": "uint256"
        },
        {
          "internalType": "string",
          "name": "_name",
          "type": "string"
        }
      ],
      "name": "setCourseName",
      "outputs": [],
      "stateMutability": "nonpayable",
      "type": "function"
    },
    {
      "inputs": [
        {
          "internalType": "uint256",
          "name": "courseId",
          "type": "uint256"
        },
        {
          "internalType": "uint256",
          "name": "_importance",
          "type": "uint256"
        }
      ],
      "name": "setCourseImportance",
      "outputs": [],
      "stateMutability": "nonpayable",
      "type": "function"
    },
    {
      "inputs": [
        {
          "internalType": "uint256[]",
          "name": "_importances",
          "type": "uint256[]"
        }
      ],
      "name": "setAllCourseImportance",
      "outputs": [],
      "stateMutability": "nonpayable",
      "type": "function"
    },
    {
      "inputs": [
        {
          "internalType": "uint256",
          "name": "courseId",
          "type": "uint256"
        },
        {
          "internalType": "uint256",
          "name": "_teacherId",
          "type": "uint256"
        }
      ],
      "name": "addCourseAssignedTeacherId",
      "outputs": [],
      "stateMutability": "nonpayable",
      "type": "function"
    },
    {
      "inputs": [
        {
          "internalType": "uint256",
          "name": "courseId",
          "type": "uint256"
        },
        {
          "internalType": "uint256",
          "name": "_agentId",
          "type": "uint256"
        }
      ],
      "name": "addCourseAssignedAgentId",
      "outputs": [],
      "stateMutability": "nonpayable",
      "type": "function"
    },
    {
      "inputs": [
        {
          "internalType": "uint256",
          "name": "courseId",
          "type": "uint256"
        },
        {
          "internalType": "uint256",
          "name": "_teacherId",
          "type": "uint256"
        }
      ],
      "name": "removeCourseAssignedTeacherId",
      "outputs": [],
      "stateMutability": "nonpayable",
      "type": "function"
    },
    {
      "inputs": [
        {
          "internalType": "uint256",
          "name": "courseId",
          "type": "uint256"
        },
        {
          "internalType": "uint256",
          "name": "_agentId",
          "type": "uint256"
        }
      ],
      "name": "removeCourseAssignedAgentId",
      "outputs": [],
      "stateMutability": "nonpayable",
      "type": "function"
    },
    {
      "inputs": [
        {
          "internalType": "uint256",
          "name": "courseId",
          "type": "uint256"
        },
        {
          "internalType": "bool",
          "name": "_isAgentSuitable",
          "type": "bool"
        }
      ],
      "name": "setCourseIsAgentSuitable",
      "outputs": [],
      "stateMutability": "nonpayable",
      "type": "function"
    },
    {
      "inputs": [
        {
          "internalType": "uint256",
          "name": "_teacherCount",
          "type": "uint256"
        }
      ],
      "name": "setTeacherCount",
      "outputs": [],
      "stateMutability": "nonpayable",
      "type": "function"
    },
    {
      "inputs": [
        {
          "internalType": "uint256",
          "name": "_agentCount",
          "type": "uint256"
        }
      ],
      "name": "setAgentCount",
      "outputs": [],
      "stateMutability": "nonpayable",
      "type": "function"
    },
    {
      "inputs": [
        {
          "internalType": "uint256",
          "name": "_classCount",
          "type": "uint256"
        }
      ],
      "name": "setClassCount",
      "outputs": [],
      "stateMutability": "nonpayable",
      "type": "function"
    },
    {
      "inputs": [
        {
          "internalType": "uint256",
          "name": "_courseCount",
          "type": "uint256"
        }
      ],
      "name": "setCourseCount",
      "outputs": [],
      "stateMutability": "nonpayable",
      "type": "function"
    },
    {
      "inputs": [
        {
          "internalType": "uint256",
          "name": "_teacherId",
          "type": "uint256"
        },
        {
          "internalType": "uint256",
          "name": "courseId",
          "type": "uint256"
        }
      ],
      "name": "getTeacherSuitability",
      "outputs": [
        {
          "internalType": "uint256",
          "name": "",
          "type": "uint256"
        }
      ],
      "stateMutability": "view",
      "type": "function",
      "constant": true
    },
    {
      "inputs": [
        {
          "internalType": "uint256",
          "name": "_agentId",
          "type": "uint256"
        },
        {
          "internalType": "uint256",
          "name": "courseId",
          "type": "uint256"
        }
      ],
      "name": "getAgentSuitability",
      "outputs": [
        {
          "internalType": "uint256",
          "name": "",
          "type": "uint256"
        }
      ],
      "stateMutability": "view",
      "type": "function",
      "constant": true
    },
    {
      "inputs": [
        {
          "internalType": "uint256",
          "name": "_teacherId",
          "type": "uint256"
        },
        {
          "internalType": "uint256",
          "name": "courseId",
          "type": "uint256"
        }
      ],
      "name": "getPreference",
      "outputs": [
        {
          "internalType": "uint256",
          "name": "",
          "type": "uint256"
        }
      ],
      "stateMutability": "view",
      "type": "function",
      "constant": true
    },
    {
      "inputs": [
        {
          "internalType": "uint256",
          "name": "_teacherId",
          "type": "uint256"
        }
      ],
      "name": "getTeacherAssignedCourses",
      "outputs": [
        {
          "internalType": "uint256[]",
          "name": "",
          "type": "uint256[]"
        }
      ],
      "stateMutability": "view",
      "type": "function",
      "constant": true
    },
    {
      "inputs": [
        {
          "internalType": "uint256",
          "name": "_teacherId",
          "type": "uint256"
        }
      ],
      "name": "getTeacherReallyAssignedCourses",
      "outputs": [
        {
          "internalType": "uint256[]",
          "name": "",
          "type": "uint256[]"
        }
      ],
      "stateMutability": "view",
      "type": "function",
      "constant": true
    },
    {
      "inputs": [
        {
          "internalType": "uint256",
          "name": "_agentId",
          "type": "uint256"
        }
      ],
      "name": "getAgentAssignedCourses",
      "outputs": [
        {
          "internalType": "uint256[]",
          "name": "",
          "type": "uint256[]"
        }
      ],
      "stateMutability": "view",
      "type": "function",
      "constant": true
    },
    {
      "inputs": [
        {
          "internalType": "uint256",
          "name": "_courseId",
          "type": "uint256"
        }
      ],
      "name": "getCoursesAssignedTeacher",
      "outputs": [
        {
          "internalType": "uint256[]",
          "name": "",
          "type": "uint256[]"
        }
      ],
      "stateMutability": "view",
      "type": "function",
      "constant": true
    },
    {
      "inputs": [
        {
          "internalType": "uint256",
          "name": "_courseId",
          "type": "uint256"
        }
      ],
      "name": "getCoursesAssignedAgent",
      "outputs": [
        {
          "internalType": "uint256[]",
          "name": "",
          "type": "uint256[]"
        }
      ],
      "stateMutability": "view",
      "type": "function",
      "constant": true
    },
    {
      "inputs": [],
      "name": "getTeacherIds",
      "outputs": [
        {
          "internalType": "uint256[]",
          "name": "",
          "type": "uint256[]"
        }
      ],
      "stateMutability": "view",
      "type": "function",
      "constant": true
    },
    {
      "inputs": [],
      "name": "getAgentIds",
      "outputs": [
        {
          "internalType": "uint256[]",
          "name": "",
          "type": "uint256[]"
        }
      ],
      "stateMutability": "view",
      "type": "function",
      "constant": true
    },
    {
      "inputs": [],
      "name": "getCourseIds",
      "outputs": [
        {
          "internalType": "uint256[]",
          "name": "",
          "type": "uint256[]"
        }
      ],
      "stateMutability": "view",
      "type": "function",
      "constant": true
    },
    {
      "inputs": [],
      "name": "getClassIds",
      "outputs": [
        {
          "internalType": "uint256[]",
          "name": "",
          "type": "uint256[]"
        }
      ],
      "stateMutability": "view",
      "type": "function",
      "constant": true
    },
    {
      "inputs": [
        {
          "internalType": "uint256",
          "name": "courseId",
          "type": "uint256"
        },
        {
          "internalType": "uint256",
          "name": "classId",
          "type": "uint256"
        },
        {
          "internalType": "uint256",
          "name": "score",
          "type": "uint256"
        }
      ],
      "name": "addCourseClassScores",
      "outputs": [],
      "stateMutability": "nonpayable",
      "type": "function"
    },
    {
      "inputs": [
        {
          "internalType": "uint256",
          "name": "courseId",
          "type": "uint256"
        }
      ],
      "name": "getCourseClassScores",
      "outputs": [
        {
          "internalType": "uint256[]",
          "name": "",
          "type": "uint256[]"
        }
      ],
      "stateMutability": "view",
      "type": "function",
      "constant": true
    },
    {
      "inputs": [
        {
          "internalType": "uint256",
          "name": "courseId",
          "type": "uint256"
        },
        {
          "internalType": "uint256",
          "name": "score",
          "type": "uint256"
        }
      ],
      "name": "setCourseSelfScore",
      "outputs": [],
      "stateMutability": "nonpayable",
      "type": "function"
    },
    {
      "inputs": [
        {
          "internalType": "uint256",
          "name": "courseId",
          "type": "uint256"
        },
        {
          "internalType": "uint256",
          "name": "score",
          "type": "uint256"
        }
      ],
      "name": "setCourseTotalScore",
      "outputs": [],
      "stateMutability": "nonpayable",
      "type": "function"
    },
    {
      "inputs": [
        {
          "internalType": "uint256",
          "name": "courseId",
          "type": "uint256"
        },
        {
          "internalType": "uint256",
          "name": "supervisorId",
          "type": "uint256"
        },
        {
          "internalType": "uint256",
          "name": "score",
          "type": "uint256"
        }
      ],
      "name": "addCourseSupervisorScores",
      "outputs": [],
      "stateMutability": "nonpayable",
      "type": "function"
    },
    {
      "inputs": [
        {
          "internalType": "uint256",
          "name": "courseId",
          "type": "uint256"
        }
      ],
      "name": "getCourseSupervisorScores",
      "outputs": [
        {
          "internalType": "uint256[]",
          "name": "",
          "type": "uint256[]"
        }
      ],
      "stateMutability": "view",
      "type": "function",
      "constant": true
    },
    {
      "inputs": [
        {
          "internalType": "uint256",
          "name": "supervisorId",
          "type": "uint256"
        }
      ],
      "name": "addSupervisorId",
      "outputs": [],
      "stateMutability": "nonpayable",
      "type": "function"
    },
    {
      "inputs": [
        {
          "internalType": "address",
          "name": "supervisor",
          "type": "address"
        },
        {
          "internalType": "uint256",
          "name": "supervisorId",
          "type": "uint256"
        }
      ],
      "name": "setSupervisorsId",
      "outputs": [],
      "stateMutability": "nonpayable",
      "type": "function"
    },
    {
      "inputs": [
        {
          "internalType": "uint256",
          "name": "supervisorId",
          "type": "uint256"
        },
        {
          "internalType": "uint256",
          "name": "courseId",
          "type": "uint256"
        },
        {
          "internalType": "uint256",
          "name": "score",
          "type": "uint256"
        }
      ],
      "name": "setSupervisorsCourseScore",
      "outputs": [],
      "stateMutability": "nonpayable",
      "type": "function"
    }
  ],
  "bytecode": "0x608060405234801561001057600080fd5b5061446c806100206000396000f3fe608060405234801561001057600080fd5b506004361061048b5760003560e01c806397e92d5211610262578063d4e57ff011610151578063e52505d8116100ce578063ebd1aac611610092578063ebd1aac614610eb0578063ee196ee214610ee2578063f0f2efd814610efe578063f31e149414610f1a578063fc09e9d014610f36578063fc2ddca514610f525761048b565b8063e52505d814610de8578063e637812f14610e18578063e7fa455714610e34578063e8a2dc2f14610e50578063ebacebe414610e805761048b565b8063deb9f76a11610115578063deb9f76a14610d5c578063df3addfa14610d78578063e204b10214610d94578063e20b340514610db0578063e40af03614610dcc5761048b565b8063d4e57ff014610c80578063d95a61d514610cb0578063d96ce73f14610ce0578063dcfa705714610d10578063dd03576514610d405761048b565b8063b4da8584116101df578063bfb9d44c116101a3578063bfb9d44c14610be0578063c318fe5f14610bfc578063cb85404514610c18578063cddd6c6314610c34578063ce64bf9b14610c505761048b565b8063b4da858414610b3e578063b7dc128414610b5a578063bb69df7214610b78578063bca24bd414610b94578063bd1602d114610bc45761048b565b8063aaa4b24e11610226578063aaa4b24e14610aac578063ab7cee7714610ac8578063ab99631714610ae6578063ad3a6ad414610b04578063b150876014610b205761048b565b806397e92d5214610a205780639d84196714610a3c5780639e12237714610a58578063a549e41614610a74578063a7ab847214610a905761048b565b8063643d172c1161037e5780637fa7e04d116102fb57806391c89deb116102bf57806391c89deb1461093f5780639476cf9b1461096f57806396c82e571461099f57806396f979d2146109bd5780639709ee01146109f05761048b565b80637fa7e04d14610877578063827e57311461089357806382ff0a5a146108c3578063851580a7146108f357806386875ea8146109235761048b565b80636fcf4f96116103425780636fcf4f96146107d6578063700ed28b146107f257806372ab4e961461080e57806372c30f451461082a5780637ce28bac146108465761048b565b8063643d172c1461074857806366055159146107645780636798bad9146107825780636d889f841461079e5780636e428d2d146107ba5761048b565b8063494e23711161040c57806356e76058116103d057806356e76058146106945780635953faff146106c45780635a47fb8d146106e05780635ca24db0146106fc5780635e383d461461072c5761048b565b8063494e2371146105db5780634b974df71461060b5780634d27e912146106275780634d65235014610643578063513856c8146106615761048b565b80632359b7b8116104535780632359b7b8146105325780632b0816ac1461055057806334ac0b401461056c5780633abdb63d146105a157806346be3136146105bd5761048b565b80630f7f13cf146104905780630fa1c271146104c057806318860d37146104dc5780631dd86f90146104fa5780631fe76a6c14610516575b600080fd5b6104aa60048036038101906104a59190613749565b610f6e565b6040516104b79190613ce1565b60405180910390f35b6104da60048036038101906104d5919061396c565b610f86565b005b6104e4610fc7565b6040516104f19190613bdf565b60405180910390f35b610514600480360381019061050f91906139ac565b61101f565b005b610530600480360381019061052b91906139ac565b6110d3565b005b61053a611104565b6040516105479190613bdf565b60405180910390f35b61056a600480360381019061056591906137ff565b61115c565b005b610586600480360381019061058191906137ff565b6111a3565b60405161059896959493929190613d71565b60405180910390f35b6105bb60048036038101906105b691906137ff565b611287565b005b6105c561136f565b6040516105d29190613ce1565b60405180910390f35b6105f560048036038101906105f091906137ff565b611375565b6040516106029190613ce1565b60405180910390f35b6106256004803603810190610620919061396c565b611399565b005b610641600480360381019061063c91906139ac565b611533565b005b61064b611564565b6040516106589190613bdf565b60405180910390f35b61067b600480360381019061067691906137ff565b6115bc565b60405161068b9493929190613d25565b60405180910390f35b6106ae60048036038101906106a991906137ff565b611694565b6040516106bb9190613ce1565b60405180910390f35b6106de60048036038101906106d991906137b6565b6116b8565b005b6106fa60048036038101906106f5919061396c565b61177a565b005b610716600480360381019061071191906137ff565b611799565b6040516107239190613bdf565b60405180910390f35b61074660048036038101906107419190613776565b611807565b005b610762600480360381019061075d91906137ff565b611878565b005b61076c6118bc565b6040516107799190613ce1565b60405180910390f35b61079c600480360381019061079791906137ff565b6118c2565b005b6107b860048036038101906107b391906139ac565b6118cc565b005b6107d460048036038101906107cf919061396c565b6119a4565b005b6107f060048036038101906107eb91906137ff565b611b3e565b005b61080c6004803603810190610807919061396c565b611ca9565b005b6108286004803603810190610823919061396c565b611cea565b005b610844600480360381019061083f91906137ff565b611d2b565b005b610860600480360381019061085b91906137ff565b611df7565b60405161086e929190613cfc565b60405180910390f35b610891600480360381019061088c919061390c565b611e3b565b005b6108ad60048036038101906108a891906137ff565b611e66565b6040516108ba9190613bdf565b60405180910390f35b6108dd60048036038101906108d891906137ff565b611ed4565b6040516108ea9190613bdf565b60405180910390f35b61090d6004803603810190610908919061396c565b611f42565b60405161091a9190613ce1565b60405180910390f35b61093d6004803603810190610938919061396c565b611f74565b005b610959600480360381019061095491906137ff565b61210e565b6040516109669190613bdf565b60405180910390f35b610989600480360381019061098491906137ff565b61217c565b6040516109969190613ce1565b60405180910390f35b6109a76121a0565b6040516109b49190613ce1565b60405180910390f35b6109d760048036038101906109d291906137ff565b6121a6565b6040516109e79493929190613dd9565b60405180910390f35b610a0a6004803603810190610a05919061396c565b61226b565b604051610a179190613ce1565b60405180910390f35b610a3a6004803603810190610a35919061386c565b61229d565b005b610a566004803603810190610a519190613776565b6123f6565b005b610a726004803603810190610a6d919061390c565b6124ae565b005b610a8e6004803603810190610a899190613776565b6124d9565b005b610aaa6004803603810190610aa5919061390c565b612565565b005b610ac66004803603810190610ac1919061396c565b612613565b005b610ad0612632565b604051610add9190613ce1565b60405180910390f35b610aee612638565b604051610afb9190613ce1565b60405180910390f35b610b1e6004803603810190610b19919061386c565b61263e565b005b610b28612797565b604051610b359190613bdf565b60405180910390f35b610b586004803603810190610b53919061396c565b6127ef565b005b610b62612891565b604051610b6f9190613ce1565b60405180910390f35b610b926004803603810190610b8d919061396c565b612897565b005b610bae6004803603810190610ba991906137ff565b612995565b604051610bbb9190613ce1565b60405180910390f35b610bde6004803603810190610bd991906137ff565b6129b9565b005b610bfa6004803603810190610bf59190613776565b6129c3565b005b610c166004803603810190610c11919061382c565b612a4f565b005b610c326004803603810190610c2d91906138cc565b612b2b565b005b610c4e6004803603810190610c49919061382c565b612b5d565b005b610c6a6004803603810190610c6591906137ff565b612bb6565b604051610c779190613bdf565b60405180910390f35b610c9a6004803603810190610c959190613749565b612c24565b604051610ca79190613ce1565b60405180910390f35b610cca6004803603810190610cc59190613749565b612c3c565b604051610cd79190613ce1565b60405180910390f35b610cfa6004803603810190610cf591906137ff565b612c54565b604051610d079190613bdf565b60405180910390f35b610d2a6004803603810190610d2591906137ff565b612cc2565b604051610d379190613ce1565b60405180910390f35b610d5a6004803603810190610d5591906137ff565b612ce6565b005b610d766004803603810190610d7191906137ff565b612cf0565b005b610d926004803603810190610d8d91906137ff565b612cfa565b005b610dae6004803603810190610da9919061396c565b612dc6565b005b610dca6004803603810190610dc5919061396c565b612de5565b005b610de66004803603810190610de1919061396c565b612e87565b005b610e026004803603810190610dfd91906137ff565b613021565b604051610e0f9190613bdf565b60405180910390f35b610e326004803603810190610e2d919061396c565b61308f565b005b610e4e6004803603810190610e49919061396c565b6130d0565b005b610e6a6004803603810190610e65919061396c565b61326a565b604051610e779190613ce1565b60405180910390f35b610e9a6004803603810190610e959190613749565b61329c565b604051610ea79190613ce1565b60405180910390f35b610eca6004803603810190610ec591906137ff565b6132b4565b604051610ed993929190613e25565b60405180910390f35b610efc6004803603810190610ef7919061396c565b6132de565b005b610f186004803603810190610f13919061386c565b6132fd565b005b610f346004803603810190610f2f91906139ac565b6133d3565b005b610f506004803603810190610f4b919061396c565b6134ab565b005b610f6c6004803603810190610f6791906139ac565b6134ec565b005b60016020528060005260406000206000915090505481565b600860008381526020019081526020016000206003018190806001815401808255809150506001900390600052602060002001600090919091909150555050565b6060601280548060200260200160405190810160405280929190818152602001828054801561101557602002820191906000526020600020905b815481526020019060010190808311611001575b5050505050905090565b6000600160003373ffffffffffffffffffffffffffffffffffffffff1673ffffffffffffffffffffffffffffffffffffffff1681526020019081526020016000205414156110a2576040517f08c379a000000000000000000000000000000000000000000000000000000000815260040161109990613ca1565b60405180910390fd5b8060056000858152602001908152602001600020600901600084815260200190815260200160002081905550505050565b8060056000858152602001908152602001600020600801600084815260200190815260200160002081905550505050565b6060601180548060200260200160405190810160405280929190818152602001828054801561115257602002820191906000526020600020905b81548152602001906001019080831161113e575b5050505050905090565b806008600083815260200190815260200160002060000181905550601181908060018154018082558091505060019003906000526020600020016000909190919091505550565b60056020528060005260406000206000915090508060000154908060010180546111cc90614007565b80601f01602080910402602001604051908101604052809291908181526020018280546111f890614007565b80156112455780601f1061121a57610100808354040283529160200191611245565b820191906000526020600020905b81548152906001019060200180831161122857829003601f168201915b5050505050908060020160009054906101000a900473ffffffffffffffffffffffffffffffffffffffff16908060050154908060060154908060070154905086565b6000600660008381526020019081526020016000206000018190555060005b60108054905081101561136b5781601082815481106112c8576112c7614140565b5b9060005260206000200154141561135857601060016010805490506112ed9190613f58565b815481106112fe576112fd614140565b5b90600052602060002001546010828154811061131d5761131c614140565b5b9060005260206000200181905550601080548061133d5761133c614111565b5b6001900381819060005260206000200160009055905561136b565b80806113639061406a565b9150506112a6565b5050565b600a5481565b6011818154811061138557600080fd5b906000526020600020016000915090505481565b60008080600090505b600560008681526020019081526020016000206003018054905081101561141c57836005600087815260200190815260200160002060030182815481106113ec576113eb614140565b5b90600052602060002001541415611409576001925080915061141c565b80806114149061406a565b9150506113a2565b5081156114f257600560008581526020019081526020016000206003016001600560008781526020019081526020016000206003018054905061145f9190613f58565b815481106114705761146f614140565b5b90600052602060002001546005600086815260200190815260200160002060030182815481106114a3576114a2614140565b5b9060005260206000200181905550600560008581526020019081526020016000206003018054806114d7576114d6614111565b5b6001900381819060005260206000200160009055905561152d565b6040517f08c379a000000000000000000000000000000000000000000000000000000000815260040161152490613c21565b60405180910390fd5b50505050565b8060066000858152602001908152602001600020600501600084815260200190815260200160002081905550505050565b6060600f8054806020026020016040519081016040528092919081815260200182805480156115b257602002820191906000526020600020905b81548152602001906001019080831161159e575b5050505050905090565b60066020528060005260406000206000915090508060000154908060010180546115e590614007565b80601f016020809104026020016040519081016040528092919081815260200182805461161190614007565b801561165e5780601f106116335761010080835404028352916020019161165e565b820191906000526020600020905b81548152906001019060200180831161164157829003601f168201915b5050505050908060020160009054906101000a900473ffffffffffffffffffffffffffffffffffffffff16908060030154905084565b601081815481106116a457600080fd5b906000526020600020016000915090505481565b601180549050815114611700576040517f08c379a00000000000000000000000000000000000000000000000000000000081526004016116f790613c81565b60405180910390fd5b60005b6011805490508110156117765781818151811061172357611722614140565b5b6020026020010151600860006011848154811061174357611742614140565b5b9060005260206000200154815260200190815260200160002060020181905550808061176e9061406a565b915050611703565b5050565b8060096000848152602001908152602001600020600401819055505050565b6060600960008381526020019081526020016000206002018054806020026020016040519081016040528092919081815260200182805480156117fb57602002820191906000526020600020905b8154815260200190600101908083116117e7575b50505050509050919050565b80600360008473ffffffffffffffffffffffffffffffffffffffff1673ffffffffffffffffffffffffffffffffffffffff1681526020019081526020016000208190555060128190806001815401808255809150506001900390600052602060002001600090919091909150555050565b6013819080600181540180825580915050600190039060005260206000200160009091909190915055600e60008154809291906118b49061406a565b919050555050565b600d5481565b80600a8190555050565b60006009600085815260200190815260200160002060030160008481526020019081526020016000205414611936576040517f08c379a000000000000000000000000000000000000000000000000000000000815260040161192d90613c61565b60405180910390fd5b806009600085815260200190815260200160002060030160008481526020019081526020016000208190555060096000848152602001908152602001600020600201819080600181540180825580915050600190039060005260206000200160009091909190915055505050565b60008080600090505b6008600086815260200190815260200160002060030180549050811015611a2757836008600087815260200190815260200160002060030182815481106119f7576119f6614140565b5b90600052602060002001541415611a145760019250809150611a27565b8080611a1f9061406a565b9150506119ad565b508115611afd576008600085815260200190815260200160002060030160016008600087815260200190815260200160002060030180549050611a6a9190613f58565b81548110611a7b57611a7a614140565b5b9060005260206000200154600860008681526020019081526020016000206003018281548110611aae57611aad614140565b5b906000526020600020018190555060086000858152602001908152602001600020600301805480611ae257611ae1614111565b5b60019003818190600052602060002001600090559055611b38565b6040517f08c379a0000000000000000000000000000000000000000000000000000000008152600401611b2f90613c21565b60405180910390fd5b50505050565b6000600160003373ffffffffffffffffffffffffffffffffffffffff1673ffffffffffffffffffffffffffffffffffffffff168152602001908152602001600020541415611bc1576040517f08c379a0000000000000000000000000000000000000000000000000000000008152600401611bb890613ca1565b60405180910390fd5b6000600560008381526020019081526020016000206000018190555060005b600f80549050811015611ca55781600f8281548110611c0257611c01614140565b5b90600052602060002001541415611c9257600f6001600f80549050611c279190613f58565b81548110611c3857611c37614140565b5b9060005260206000200154600f8281548110611c5757611c56614140565b5b9060005260206000200181905550600f805480611c7757611c76614111565b5b60019003818190600052602060002001600090559055611ca5565b8080611c9d9061406a565b915050611be0565b5050565b600560008381526020019081526020016000206003018190806001815401808255809150506001900390600052602060002001600090919091909150555050565b600660008381526020019081526020016000206004018190806001815401808255809150506001900390600052602060002001600090919091909150555050565b60005b601280549050811015611df3578160128281548110611d5057611d4f614140565b5b90600052602060002001541415611de05760126001601280549050611d759190613f58565b81548110611d8657611d85614140565b5b906000526020600020015460128281548110611da557611da4614140565b5b90600052602060002001819055506012805480611dc557611dc4614111565b5b60019003818190600052602060002001600090559055611df3565b8080611deb9061406a565b915050611d2e565b5050565b60076020528060005260406000206000915090508060000154908060010160009054906101000a900473ffffffffffffffffffffffffffffffffffffffff16905082565b8181600660008681526020019081526020016000206001019190611e6092919061351d565b50505050565b606060056000838152602001908152602001600020600401805480602002602001604051908101604052809291908181526020018280548015611ec857602002820191906000526020600020905b815481526020019060010190808311611eb4575b50505050509050919050565b606060086000838152602001908152602001600020600301805480602002602001604051908101604052809291908181526020018280548015611f3657602002820191906000526020600020905b815481526020019060010190808311611f22575b50505050509050919050565b600060056000848152602001908152602001600020600901600083815260200190815260200160002054905092915050565b60008080600090505b6008600086815260200190815260200160002060040180549050811015611ff75783600860008781526020019081526020016000206004018281548110611fc757611fc6614140565b5b90600052602060002001541415611fe45760019250809150611ff7565b8080611fef9061406a565b915050611f7d565b5081156120cd57600860008581526020019081526020016000206004016001600860008781526020019081526020016000206004018054905061203a9190613f58565b8154811061204b5761204a614140565b5b906000526020600020015460086000868152602001908152602001600020600401828154811061207e5761207d614140565b5b9060005260206000200181905550600860008581526020019081526020016000206004018054806120b2576120b1614111565b5b60019003818190600052602060002001600090559055612108565b6040517f08c379a00000000000000000000000000000000000000000000000000000000081526004016120ff90613c21565b60405180910390fd5b50505050565b60606008600083815260200190815260200160002060040180548060200260200160405190810160405280929190818152602001828054801561217057602002820191906000526020600020905b81548152602001906001019080831161215c575b50505050509050919050565b6013818154811061218c57600080fd5b906000526020600020016000915090505481565b60005481565b60086020528060005260406000206000915090508060000154908060010180546121cf90614007565b80601f01602080910402602001604051908101604052809291908181526020018280546121fb90614007565b80156122485780601f1061221d57610100808354040283529160200191612248565b820191906000526020600020905b81548152906001019060200180831161222b57829003601f168201915b5050505050908060020154908060050160009054906101000a900460ff16905084565b600060066000848152602001908152602001600020600501600083815260200190815260200160002054905092915050565b6000600160003373ffffffffffffffffffffffffffffffffffffffff1673ffffffffffffffffffffffffffffffffffffffff168152602001908152602001600020541415612320576040517f08c379a000000000000000000000000000000000000000000000000000000000815260040161231790613ca1565b60405180910390fd5b601180549050828290501461236a576040517f08c379a000000000000000000000000000000000000000000000000000000000815260040161236190613cc1565b60405180910390fd5b60005b6011805490508110156123f05782828281811061238d5761238c614140565b5b90506020020135600560008681526020019081526020016000206008016000601184815481106123c0576123bf614140565b5b906000526020600020015481526020019081526020016000208190555080806123e89061406a565b91505061236d565b50505050565b80600460008473ffffffffffffffffffffffffffffffffffffffff1673ffffffffffffffffffffffffffffffffffffffff16815260200190815260200160002081905550806007600083815260200190815260200160002060000181905550816007600083815260200190815260200160002060010160006101000a81548173ffffffffffffffffffffffffffffffffffffffff021916908373ffffffffffffffffffffffffffffffffffffffff1602179055505050565b81816008600086815260200190815260200160002060010191906124d392919061351d565b50505050565b80600160008473ffffffffffffffffffffffffffffffffffffffff1673ffffffffffffffffffffffffffffffffffffffff16815260200190815260200160002081905550806005600083815260200190815260200160002060000181905550600f8190806001815401808255809150506001900390600052602060002001600090919091909150555050565b6000600160003373ffffffffffffffffffffffffffffffffffffffff1673ffffffffffffffffffffffffffffffffffffffff1681526020019081526020016000205414156125e8576040517f08c379a00000000000000000000000000000000000000000000000000000000081526004016125df90613ca1565b60405180910390fd5b818160056000868152602001908152602001600020600101919061260d92919061351d565b50505050565b8060096000848152602001908152602001600020600101819055505050565b600e5481565b600c5481565b6000600160003373ffffffffffffffffffffffffffffffffffffffff1673ffffffffffffffffffffffffffffffffffffffff1681526020019081526020016000205414156126c1576040517f08c379a00000000000000000000000000000000000000000000000000000000081526004016126b890613ca1565b60405180910390fd5b601180549050828290501461270b576040517f08c379a000000000000000000000000000000000000000000000000000000000815260040161270290613c01565b60405180910390fd5b60005b6011805490508110156127915782828281811061272e5761272d614140565b5b905060200201356005600086815260200190815260200160002060090160006011848154811061276157612760614140565b5b906000526020600020015481526020019081526020016000208190555080806127899061406a565b91505061270e565b50505050565b606060108054806020026020016040519081016040528092919081815260200182805480156127e557602002820191906000526020600020905b8154815260200190600101908083116127d1575b5050505050905090565b6000600160003373ffffffffffffffffffffffffffffffffffffffff1673ffffffffffffffffffffffffffffffffffffffff168152602001908152602001600020541415612872576040517f08c379a000000000000000000000000000000000000000000000000000000000815260040161286990613ca1565b60405180910390fd5b8060056000848152602001908152602001600020600601819055505050565b600b5481565b6000600160003373ffffffffffffffffffffffffffffffffffffffff1673ffffffffffffffffffffffffffffffffffffffff16815260200190815260200160002054141561291a576040517f08c379a000000000000000000000000000000000000000000000000000000000815260040161291190613ca1565b60405180910390fd5b60056000838152602001908152602001600020600501546000808282546129419190613f58565b92505081905550806005600084815260200190815260200160002060050181905550600560008381526020019081526020016000206005015460008082825461298a9190613f02565b925050819055505050565b601281815481106129a557600080fd5b906000526020600020016000915090505481565b80600d8190555050565b80600260008473ffffffffffffffffffffffffffffffffffffffff1673ffffffffffffffffffffffffffffffffffffffff1681526020019081526020016000208190555080600660008381526020019081526020016000206000018190555060108190806001815401808255809150506001900390600052602060002001600090919091909150555050565b6000600160003373ffffffffffffffffffffffffffffffffffffffff1673ffffffffffffffffffffffffffffffffffffffff168152602001908152602001600020541415612ad2576040517f08c379a0000000000000000000000000000000000000000000000000000000008152600401612ac990613ca1565b60405180910390fd5b806005600084815260200190815260200160002060020160006101000a81548173ffffffffffffffffffffffffffffffffffffffff021916908373ffffffffffffffffffffffffffffffffffffffff1602179055505050565b806008600084815260200190815260200160002060050160006101000a81548160ff0219169083151502179055505050565b806006600084815260200190815260200160002060020160006101000a81548173ffffffffffffffffffffffffffffffffffffffff021916908373ffffffffffffffffffffffffffffffffffffffff1602179055505050565b606060066000838152602001908152602001600020600401805480602002602001604051908101604052809291908181526020018280548015612c1857602002820191906000526020600020905b815481526020019060010190808311612c04575b50505050509050919050565b60036020528060005260406000206000915090505481565b60046020528060005260406000206000915090505481565b606060096000838152602001908152602001600020600501805480602002602001604051908101604052809291908181526020018280548015612cb657602002820191906000526020600020905b815481526020019060010190808311612ca2575b50505050509050919050565b600f8181548110612cd257600080fd5b906000526020600020016000915090505481565b80600c8190555050565b80600b8190555050565b60005b601180549050811015612dc2578160118281548110612d1f57612d1e614140565b5b90600052602060002001541415612daf5760116001601180549050612d449190613f58565b81548110612d5557612d54614140565b5b906000526020600020015460118281548110612d7457612d73614140565b5b90600052602060002001819055506011805480612d9457612d93614111565b5b60019003818190600052602060002001600090559055612dc2565b8080612dba9061406a565b915050612cfd565b5050565b8060086000848152602001908152602001600020600201819055505050565b6000600160003373ffffffffffffffffffffffffffffffffffffffff1673ffffffffffffffffffffffffffffffffffffffff168152602001908152602001600020541415612e68576040517f08c379a0000000000000000000000000000000000000000000000000000000008152600401612e5f90613ca1565b60405180910390fd5b8060056000848152602001908152602001600020600701819055505050565b60008080600090505b6006600086815260200190815260200160002060040180549050811015612f0a5783600660008781526020019081526020016000206004018281548110612eda57612ed9614140565b5b90600052602060002001541415612ef75760019250809150612f0a565b8080612f029061406a565b915050612e90565b508115612fe0576006600085815260200190815260200160002060040160016006600087815260200190815260200160002060040180549050612f4d9190613f58565b81548110612f5e57612f5d614140565b5b9060005260206000200154600660008681526020019081526020016000206004018281548110612f9157612f90614140565b5b906000526020600020018190555060066000858152602001908152602001600020600401805480612fc557612fc4614111565b5b6001900381819060005260206000200160009055905561301b565b6040517f08c379a000000000000000000000000000000000000000000000000000000000815260040161301290613c21565b60405180910390fd5b50505050565b60606005600083815260200190815260200160002060030180548060200260200160405190810160405280929190818152602001828054801561308357602002820191906000526020600020905b81548152602001906001019080831161306f575b50505050509050919050565b600560008381526020019081526020016000206004018190806001815401808255809150506001900390600052602060002001600090919091909150555050565b60008080600090505b6005600086815260200190815260200160002060040180549050811015613153578360056000878152602001908152602001600020600401828154811061312357613122614140565b5b906000526020600020015414156131405760019250809150613153565b808061314b9061406a565b9150506130d9565b5081156132295760056000858152602001908152602001600020600401600160056000878152602001908152602001600020600401805490506131969190613f58565b815481106131a7576131a6614140565b5b90600052602060002001546005600086815260200190815260200160002060040182815481106131da576131d9614140565b5b90600052602060002001819055506005600085815260200190815260200160002060040180548061320e5761320d614111565b5b60019003818190600052602060002001600090559055613264565b6040517f08c379a000000000000000000000000000000000000000000000000000000000815260040161325b90613c21565b60405180910390fd5b50505050565b600060056000848152602001908152602001600020600801600083815260200190815260200160002054905092915050565b60026020528060005260406000206000915090505481565b60096020528060005260406000206000915090508060000154908060010154908060040154905083565b8060066000848152602001908152602001600020600301819055505050565b6011805490508282905014613347576040517f08c379a000000000000000000000000000000000000000000000000000000000815260040161333e90613cc1565b60405180910390fd5b60005b6011805490508110156133cd5782828281811061336a57613369614140565b5b905060200201356006600086815260200190815260200160002060050160006011848154811061339d5761339c614140565b5b906000526020600020015481526020019081526020016000208190555080806133c59061406a565b91505061334a565b50505050565b6000600960008581526020019081526020016000206006016000848152602001908152602001600020541461343d576040517f08c379a000000000000000000000000000000000000000000000000000000000815260040161343490613c41565b60405180910390fd5b806009600085815260200190815260200160002060060160008481526020019081526020016000208190555060096000848152602001908152602001600020600501819080600181540180825580915050600190039060005260206000200160009091909190915055505050565b600860008381526020019081526020016000206004018190806001815401808255809150506001900390600052602060002001600090919091909150555050565b8060076000858152602001908152602001600020600201600084815260200190815260200160002081905550505050565b82805461352990614007565b90600052602060002090601f01602090048101928261354b5760008555613592565b82601f1061356457803560ff1916838001178555613592565b82800160010185558215613592579182015b82811115613591578235825591602001919060010190613576565b5b50905061359f91906135a3565b5090565b5b808211156135bc5760008160009055506001016135a4565b5090565b60006135d36135ce84613e81565b613e5c565b905080838252602082019050828560208602820111156135f6576135f56141a8565b5b60005b85811015613626578161360c8882613734565b8452602084019350602083019250506001810190506135f9565b5050509392505050565b60008135905061363f816143f1565b92915050565b60008083601f84011261365b5761365a6141a3565b5b8235905067ffffffffffffffff8111156136785761367761419e565b5b602083019150836020820283011115613694576136936141a8565b5b9250929050565b600082601f8301126136b0576136af6141a3565b5b81356136c08482602086016135c0565b91505092915050565b6000813590506136d881614408565b92915050565b60008083601f8401126136f4576136f36141a3565b5b8235905067ffffffffffffffff8111156137115761371061419e565b5b60208301915083600182028301111561372d5761372c6141a8565b5b9250929050565b6000813590506137438161441f565b92915050565b60006020828403121561375f5761375e6141b2565b5b600061376d84828501613630565b91505092915050565b6000806040838503121561378d5761378c6141b2565b5b600061379b85828601613630565b92505060206137ac85828601613734565b9150509250929050565b6000602082840312156137cc576137cb6141b2565b5b600082013567ffffffffffffffff8111156137ea576137e96141ad565b5b6137f68482850161369b565b91505092915050565b600060208284031215613815576138146141b2565b5b600061382384828501613734565b91505092915050565b60008060408385031215613843576138426141b2565b5b600061385185828601613734565b925050602061386285828601613630565b9150509250929050565b600080600060408486031215613885576138846141b2565b5b600061389386828701613734565b935050602084013567ffffffffffffffff8111156138b4576138b36141ad565b5b6138c086828701613645565b92509250509250925092565b600080604083850312156138e3576138e26141b2565b5b60006138f185828601613734565b9250506020613902858286016136c9565b9150509250929050565b600080600060408486031215613925576139246141b2565b5b600061393386828701613734565b935050602084013567ffffffffffffffff811115613954576139536141ad565b5b613960868287016136de565b92509250509250925092565b60008060408385031215613983576139826141b2565b5b600061399185828601613734565b92505060206139a285828601613734565b9150509250929050565b6000806000606084860312156139c5576139c46141b2565b5b60006139d386828701613734565b93505060206139e486828701613734565b92505060406139f586828701613734565b9150509250925092565b6000613a0b8383613bc1565b60208301905092915050565b613a2081613f8c565b82525050565b6000613a3182613ebd565b613a3b8185613ee0565b9350613a4683613ead565b8060005b83811015613a77578151613a5e88826139ff565b9750613a6983613ed3565b925050600181019050613a4a565b5085935050505092915050565b613a8d81613f9e565b82525050565b6000613a9e82613ec8565b613aa88185613ef1565b9350613ab8818560208601613fd4565b613ac1816141b7565b840191505092915050565b6000613ad9606083613ef1565b9150613ae4826141c8565b606082019050919050565b6000613afc601083613ef1565b9150613b078261423d565b602082019050919050565b6000613b1f601583613ef1565b9150613b2a82614266565b602082019050919050565b6000613b42601583613ef1565b9150613b4d8261428f565b602082019050919050565b6000613b65602283613ef1565b9150613b70826142b8565b604082019050919050565b6000613b88602f83613ef1565b9150613b9382614307565b604082019050919050565b6000613bab606183613ef1565b9150613bb682614356565b608082019050919050565b613bca81613fca565b82525050565b613bd981613fca565b82525050565b60006020820190508181036000830152613bf98184613a26565b905092915050565b60006020820190508181036000830152613c1a81613acc565b9050919050565b60006020820190508181036000830152613c3a81613aef565b9050919050565b60006020820190508181036000830152613c5a81613b12565b9050919050565b60006020820190508181036000830152613c7a81613b35565b9050919050565b60006020820190508181036000830152613c9a81613b58565b9050919050565b60006020820190508181036000830152613cba81613b7b565b9050919050565b60006020820190508181036000830152613cda81613b9e565b9050919050565b6000602082019050613cf66000830184613bd0565b92915050565b6000604082019050613d116000830185613bd0565b613d1e6020830184613a17565b9392505050565b6000608082019050613d3a6000830187613bd0565b8181036020830152613d4c8186613a93565b9050613d5b6040830185613a17565b613d686060830184613bd0565b95945050505050565b600060c082019050613d866000830189613bd0565b8181036020830152613d988188613a93565b9050613da76040830187613a17565b613db46060830186613bd0565b613dc16080830185613bd0565b613dce60a0830184613bd0565b979650505050505050565b6000608082019050613dee6000830187613bd0565b8181036020830152613e008186613a93565b9050613e0f6040830185613bd0565b613e1c6060830184613a84565b95945050505050565b6000606082019050613e3a6000830186613bd0565b613e476020830185613bd0565b613e546040830184613bd0565b949350505050565b6000613e66613e77565b9050613e728282614039565b919050565b6000604051905090565b600067ffffffffffffffff821115613e9c57613e9b61416f565b5b602082029050602081019050919050565b6000819050602082019050919050565b600081519050919050565b600081519050919050565b6000602082019050919050565b600082825260208201905092915050565b600082825260208201905092915050565b6000613f0d82613fca565b9150613f1883613fca565b9250827fffffffffffffffffffffffffffffffffffffffffffffffffffffffffffffffff03821115613f4d57613f4c6140b3565b5b828201905092915050565b6000613f6382613fca565b9150613f6e83613fca565b925082821015613f8157613f806140b3565b5b828203905092915050565b6000613f9782613faa565b9050919050565b60008115159050919050565b600073ffffffffffffffffffffffffffffffffffffffff82169050919050565b6000819050919050565b60005b83811015613ff2578082015181840152602081019050613fd7565b83811115614001576000848401525b50505050565b6000600282049050600182168061401f57607f821691505b60208210811415614033576140326140e2565b5b50919050565b614042826141b7565b810181811067ffffffffffffffff821117156140615761406061416f565b5b80604052505050565b600061407582613fca565b91507fffffffffffffffffffffffffffffffffffffffffffffffffffffffffffffffff8214156140a8576140a76140b3565b5b600182019050919050565b7f4e487b7100000000000000000000000000000000000000000000000000000000600052601160045260246000fd5b7f4e487b7100000000000000000000000000000000000000000000000000000000600052602260045260246000fd5b7f4e487b7100000000000000000000000000000000000000000000000000000000600052603160045260246000fd5b7f4e487b7100000000000000000000000000000000000000000000000000000000600052603260045260246000fd5b7f4e487b7100000000000000000000000000000000000000000000000000000000600052604160045260246000fd5b600080fd5b600080fd5b600080fd5b600080fd5b600080fd5b6000601f19601f8301169050919050565b7f5768656e2073657474696e672074686520707265666572656e6365206c65766560008201527f6c206f6620636f75727365732c206974206973206e656365737361727920746f60208201527f206861766520616e20657175616c206e756d626572206f6620636f7572736573604082015250565b7f436f75727365206e6f7420666f756e6400000000000000000000000000000000600082015250565b7fe8afa5e79da3e5afbce5b7b2e7bb8fe68a95e7a5a80000000000000000000000600082015250565b7fe8afa5e78fade7baa7e5b7b2e7bb8fe68a95e7a5a80000000000000000000000600082015250565b7f6d7573742075706461746520616c6c20636f7572736520737569746162696c6960008201527f7479000000000000000000000000000000000000000000000000000000000000602082015250565b7f4f6e6c7920726567697374657265642074656163686572732063616e2063616c60008201527f6c20746869732066756e6374696f6e0000000000000000000000000000000000602082015250565b7f5768656e2073657474696e672074686520737569746162696c697479206c657660008201527f656c206f6620636f75727365732c206974206973206e6563657373617279207460208201527f6f206861766520616e20657175616c206e756d626572206f6620636f7572736560408201527f7300000000000000000000000000000000000000000000000000000000000000606082015250565b6143fa81613f8c565b811461440557600080fd5b50565b61441181613f9e565b811461441c57600080fd5b50565b61442881613fca565b811461443357600080fd5b5056fea264697066735822122058cf68364eb5f19b5e6d9ae683f8be2b541b79b9752d9863e598292dedccaf8764736f6c63430008070033",
  "immutableReferences": {},
  "source": "// SPDX-License-Identifier: MIT\r\npragma solidity ^0.8.7;\r\n\r\ncontract ICourseAllocation {\r\n    // \r\n    struct Teacher {\r\n        uint256 id;\r\n        string name;\r\n        address addr;\r\n        uint256[] assignedCourses;\r\n        uint256[] reallyAssignedCourses;\r\n        uint256 suitabilityWeight;\r\n        uint256 transferCourseCoins;\r\n        uint256 value;\r\n        mapping(uint256 => uint256) courseSuitabilities;\r\n        mapping(uint256 => uint256) coursePreferences;\r\n    }\r\n\r\n    // \r\n    struct Agent {\r\n        uint256 id;\r\n        string name;\r\n        address addr;\r\n        uint256 value;\r\n        uint256[] assignedCourses;\r\n        mapping(uint256 => uint256) courseSuitabilities;\r\n    }\r\n\r\n    // \r\n    struct Supervisor {\r\n        uint256 id;\r\n        address addr;\r\n        mapping(uint256 => uint256) courseScores;\r\n    }\r\n\r\n    // \r\n    struct Course {\r\n        uint256 id;\r\n        string name;\r\n        uint256 importance;\r\n        uint256[] assignedTeacherId;\r\n        uint256[] assignedAgentId;\r\n        bool isAgentSuitable;\r\n    }\r\n    struct CourseScore {\r\n        uint256 id; // id\r\n        uint256 totalScore;\r\n        uint256[] classScores;\r\n        mapping(uint256 => uint256) giveScoreClassIdExists;\r\n        uint256 selfScore;\r\n        uint256[] supervisorScores;\r\n        mapping(uint256 => uint256) giveScoreSupervisorIdExists;\r\n    }\r\n\r\n    // \r\n    uint256 public totalWeight;\r\n\r\n    //  => ID\r\n    mapping(address => uint256) public addressToTeacherId;\r\n\r\n    //  => ID\r\n    mapping(address => uint256) public addressToAgentId;\r\n\r\n    //  => ID\r\n    mapping(address => uint256) public addressToClassId;\r\n\r\n    //  => ID\r\n    mapping(address => uint256) public addressToSupervisorId;\r\n\r\n    // ID => \r\n    mapping(uint256 => Teacher) public teachers;\r\n\r\n    // ID => \r\n    mapping(uint256 => Agent) public agents;\r\n\r\n    // ID => \r\n    mapping(uint256 => Supervisor) public supervisors;\r\n\r\n    // ID => \r\n    mapping(uint256 => Course) public courses;\r\n\r\n    // ID => \r\n    mapping(uint256 => CourseScore) public courseScores;\r\n\r\n    // ID\r\n    uint256 public teacherCount;\r\n\r\n    // ID\r\n    uint256 public agentCount;\r\n\r\n    // ID\r\n    uint256 public classCount;\r\n\r\n    // ID\r\n    uint256 public courseCount;\r\n\r\n    // ID\r\n    uint256 public supervisorCount;\r\n\r\n    // ID\r\n    uint256[] public teacherIds;\r\n\r\n    // ID\r\n    uint256[] public agentIds;\r\n\r\n    // ID\r\n    uint256[] public courseIds;\r\n\r\n    // ID\r\n    uint256[] public classIds;\r\n\r\n    // ID\r\n    uint256[] public supervisorIds;\r\n\r\n    // \r\n    // event CourseImportanceSet(uint256 indexed courseId, uint256 importance);\r\n    // event SuitabilityUpdated(uint256 indexed courseId, uint256 suitability);\r\n    // event PreferenceUpdated(uint256 indexed teacherId, uint256 indexed courseId, uint256 preference);\r\n    // event ProposalCreated(uint256 proposalId, uint256 indexed courseId, uint256[] teacherIds); // \r\n    // event MachineProposal(uint256 proposalId, uint256 indexed courseId, uint256[] teacherIds, uint256[] teacherCounts); // \r\n    // event CourseAssignedToTeacher(uint256 indexed courseId, uint256 indexed teacherId); // \r\n\r\n    // \r\n    constructor() {}\r\n\r\n    // \r\n    modifier onlyTeacher() {\r\n        require(\r\n            addressToTeacherId[msg.sender] != 0,\r\n            \"Only registered teachers can call this function\"\r\n        );\r\n        _;\r\n    }\r\n\r\n    // ID\r\n    function setTeacherId(address teacherAddress, uint256 _TeacherId) public {\r\n        addressToTeacherId[teacherAddress] = _TeacherId;\r\n        teachers[_TeacherId].id = _TeacherId;\r\n        teacherIds.push(_TeacherId);\r\n    }\r\n\r\n    // \r\n    function removeTeacher(uint256 teacherId) public onlyTeacher {\r\n        teachers[teacherId].id = 0;\r\n        //  teacherIds  ID\r\n        for (uint256 i = 0; i < teacherIds.length; i++) {\r\n            if (teacherIds[i] == teacherId) {\r\n                //  ID \r\n                teacherIds[i] = teacherIds[teacherIds.length - 1];\r\n                // \r\n                teacherIds.pop();\r\n                break;\r\n            }\r\n        }\r\n    }\r\n\r\n    // \r\n    function setTeacherName(\r\n        uint256 teacherId,\r\n        string calldata _name\r\n    ) public onlyTeacher {\r\n        teachers[teacherId].name = _name;\r\n    }\r\n\r\n    // \r\n    function setTeacherAddress(\r\n        uint256 teacherId,\r\n        address _teacherAddress\r\n    ) public onlyTeacher {\r\n        teachers[teacherId].addr = _teacherAddress;\r\n    }\r\n\r\n    // \r\n    function addTeacherAssignedCourses(\r\n        uint256 teacherId,\r\n        uint256 _assignedCourses\r\n    ) public {\r\n        teachers[teacherId].assignedCourses.push(_assignedCourses);\r\n    }\r\n\r\n    // \r\n    function addTeacherReallyAssignedCourses(\r\n        uint256 teacherId,\r\n        uint256 _assignedCourses\r\n    ) public {\r\n        teachers[teacherId].reallyAssignedCourses.push(_assignedCourses);\r\n    }\r\n\r\n    // \r\n    function removeTeacherAssignedCourses(\r\n        uint256 teacherId,\r\n        uint256 _assignedCourses\r\n    ) public {\r\n        bool found = false;\r\n        uint256 indexToRemove;\r\n\r\n        //  ID \r\n        for (\r\n            uint256 i = 0;\r\n            i < teachers[teacherId].assignedCourses.length;\r\n            i++\r\n        ) {\r\n            if (teachers[teacherId].assignedCourses[i] == _assignedCourses) {\r\n                found = true;\r\n                indexToRemove = i;\r\n                break;\r\n            }\r\n        }\r\n\r\n        //  ID\r\n        if (found) {\r\n            // \r\n            teachers[teacherId].assignedCourses[indexToRemove] = teachers[\r\n                teacherId\r\n            ].assignedCourses[teachers[teacherId].assignedCourses.length - 1];\r\n            // \r\n            teachers[teacherId].assignedCourses.pop();\r\n        } else {\r\n            //  ID\r\n            revert(\"Course not found\");\r\n        }\r\n    }\r\n\r\n    // \r\n    function removeTeacherReallyAssignedCourses(\r\n        uint256 teacherId,\r\n        uint256 _assignedCourses\r\n    ) public {\r\n        bool found = false;\r\n        uint256 indexToRemove;\r\n\r\n        //  ID \r\n        for (\r\n            uint256 i = 0;\r\n            i < teachers[teacherId].reallyAssignedCourses.length;\r\n            i++\r\n        ) {\r\n            if (teachers[teacherId].reallyAssignedCourses[i] == _assignedCourses) {\r\n                found = true;\r\n                indexToRemove = i;\r\n                break;\r\n            }\r\n        }\r\n\r\n        //  ID\r\n        if (found) {\r\n            // \r\n            teachers[teacherId].reallyAssignedCourses[indexToRemove] = teachers[\r\n                teacherId\r\n            ].reallyAssignedCourses[teachers[teacherId].reallyAssignedCourses.length - 1];\r\n            // \r\n            teachers[teacherId].reallyAssignedCourses.pop();\r\n        } else {\r\n            //  ID\r\n            revert(\"Course not found\");\r\n        }\r\n    }\r\n\r\n    // \r\n    function setTeacherSuitabilityWeight(\r\n        uint256 teacherId,\r\n        uint256 _suitabilityWeight\r\n    ) public onlyTeacher {\r\n        totalWeight -= teachers[teacherId].suitabilityWeight;\r\n        teachers[teacherId].suitabilityWeight = _suitabilityWeight;\r\n        totalWeight += teachers[teacherId].suitabilityWeight;\r\n    }\r\n\r\n    // \r\n    function setTeacherTransferCourseCoins(\r\n        uint256 teacherId,\r\n        uint256 _transferCourseCoins\r\n    ) public onlyTeacher {\r\n        teachers[teacherId].transferCourseCoins = _transferCourseCoins;\r\n    }\r\n\r\n    // \r\n    function setTeacherValue(\r\n        uint256 teacherId,\r\n        uint256 _value\r\n    ) public onlyTeacher {\r\n        teachers[teacherId].value = _value;\r\n    }\r\n\r\n    // \r\n    function setAgentValue(uint256 agentId, uint256 _value) public {\r\n        agents[agentId].value = _value;\r\n    }\r\n\r\n    // \r\n    function setAllTeacherCourseSuitability(\r\n        uint256 teacherId,\r\n        uint256[] calldata _suitabilities\r\n    ) public onlyTeacher {\r\n        require(\r\n            _suitabilities.length == courseIds.length,\r\n            \"When setting the suitability level of courses, it is necessary to have an equal number of courses\"\r\n        );\r\n        for (\r\n            uint256 courseIndex = 0;\r\n            courseIndex < courseIds.length;\r\n            courseIndex++\r\n        ) {\r\n            teachers[teacherId].courseSuitabilities[\r\n                courseIds[courseIndex]\r\n            ] = _suitabilities[courseIndex];\r\n        }\r\n    }\r\n\r\n    // \r\n    function setTeacherCourseSuitability(\r\n        uint256 teacherId,\r\n        uint256 courseId,\r\n        uint256 _suitability\r\n    ) public {\r\n        teachers[teacherId].courseSuitabilities[courseId] = _suitability;\r\n    }\r\n\r\n    // \r\n    function setAllTeacherCoursePreferences(\r\n        uint256 teacherId,\r\n        uint256[] calldata _preferences\r\n    ) public onlyTeacher {\r\n        require(\r\n            _preferences.length == courseIds.length,\r\n            \"When setting the preference level of courses, it is necessary to have an equal number of courses\"\r\n        );\r\n        for (\r\n            uint256 courseIndex = 0;\r\n            courseIndex < courseIds.length;\r\n            courseIndex++\r\n        ) {\r\n            teachers[teacherId].coursePreferences[\r\n                courseIds[courseIndex]\r\n            ] = _preferences[courseIndex];\r\n        }\r\n    }\r\n\r\n    // \r\n    function setTeacherCoursePreferences(\r\n        uint256 teacherId,\r\n        uint256 courseId,\r\n        uint256 _preference\r\n    ) public onlyTeacher {\r\n        teachers[teacherId].coursePreferences[courseId] = _preference;\r\n    }\r\n\r\n    // ID\r\n    function setAgentId(address agentAddress, uint256 _agentId) public {\r\n        addressToAgentId[agentAddress] = _agentId;\r\n        agents[_agentId].id = _agentId;\r\n        agentIds.push(_agentId);\r\n    }\r\n\r\n    // \r\n    function removeAgent(uint256 agentId) public {\r\n        agents[agentId].id = 0;\r\n        //  agentIds  ID\r\n        for (uint256 i = 0; i < agentIds.length; i++) {\r\n            if (agentIds[i] == agentId) {\r\n                //  ID \r\n                agentIds[i] = agentIds[agentIds.length - 1];\r\n                // \r\n                agentIds.pop();\r\n                break;\r\n            }\r\n        }\r\n    }\r\n\r\n    // \r\n    function setAgentName(uint256 agentId, string calldata _name) public {\r\n        agents[agentId].name = _name;\r\n    }\r\n\r\n    // \r\n    function setAgentAddress(uint256 agentId, address _agentAddress) public {\r\n        agents[agentId].addr = _agentAddress;\r\n    }\r\n\r\n    // \r\n    function addAgentAssignedCourses(\r\n        uint256 agentId,\r\n        uint256 _assignedCourses\r\n    ) public {\r\n        agents[agentId].assignedCourses.push(_assignedCourses);\r\n    }\r\n\r\n    // \r\n    function removeAgentAssignedCourses(\r\n        uint256 agentId,\r\n        uint256 _assignedCourses\r\n    ) public {\r\n        bool found = false;\r\n        uint256 indexToRemove;\r\n\r\n        //  ID \r\n        for (uint256 i = 0; i < agents[agentId].assignedCourses.length; i++) {\r\n            if (agents[agentId].assignedCourses[i] == _assignedCourses) {\r\n                found = true;\r\n                indexToRemove = i;\r\n                break;\r\n            }\r\n        }\r\n\r\n        //  ID\r\n        if (found) {\r\n            // \r\n            agents[agentId].assignedCourses[indexToRemove] = agents[agentId]\r\n                .assignedCourses[agents[agentId].assignedCourses.length - 1];\r\n            // \r\n            agents[agentId].assignedCourses.pop();\r\n        } else {\r\n            //  ID\r\n            revert(\"Course not found\");\r\n        }\r\n    }\r\n\r\n    // \r\n    function setAgentCourseSuitability(\r\n        uint256 agentId,\r\n        uint256 _courseId,\r\n        uint256 _suitability\r\n    ) public {\r\n        agents[agentId].courseSuitabilities[_courseId] = _suitability;\r\n    }\r\n\r\n    // \r\n    function setAllAgentCourseSuitability(\r\n        uint256 agentId,\r\n        uint256[] calldata _suitabilities\r\n    ) public {\r\n        require(\r\n            _suitabilities.length == courseIds.length,\r\n            \"When setting the suitability level of courses, it is necessary to have an equal number of courses\"\r\n        );\r\n        for (\r\n            uint256 courseIndex = 0;\r\n            courseIndex < courseIds.length;\r\n            courseIndex++\r\n        ) {\r\n            agents[agentId].courseSuitabilities[\r\n                courseIds[courseIndex]\r\n            ] = _suitabilities[courseIndex];\r\n        }\r\n    }\r\n\r\n    // ID\r\n    function setClassId(address classAddress, uint256 _id) public {\r\n        addressToClassId[classAddress] = _id;\r\n        classIds.push(_id);\r\n    }\r\n\r\n    // \r\n    function removeClass(uint256 classId) public {\r\n        //  classIds  ID\r\n        for (uint256 i = 0; i < classIds.length; i++) {\r\n            if (classIds[i] == classId) {\r\n                //  ID \r\n                classIds[i] = classIds[classIds.length - 1];\r\n                // \r\n                classIds.pop();\r\n                break;\r\n            }\r\n        }\r\n    }\r\n\r\n    // ID\r\n    function setCourseId(uint256 courseId) public {\r\n        courses[courseId].id = courseId;\r\n        courseIds.push(courseId);\r\n    }\r\n\r\n    // \r\n    function removeCourse(uint256 courseId) public {\r\n        //  classIds  ID\r\n        for (uint256 i = 0; i < courseIds.length; i++) {\r\n            if (courseIds[i] == courseId) {\r\n                //  ID \r\n                courseIds[i] = courseIds[courseIds.length - 1];\r\n                // \r\n                courseIds.pop();\r\n                break;\r\n            }\r\n        }\r\n    }\r\n\r\n    // \r\n    function setCourseName(uint256 courseId, string calldata _name) public {\r\n        courses[courseId].name = _name;\r\n    }\r\n\r\n    // \r\n    function setCourseImportance(uint256 courseId, uint256 _importance) public {\r\n        courses[courseId].importance = _importance;\r\n    }\r\n\r\n    // \r\n    function setAllCourseImportance(uint256[] memory _importances) public {\r\n        require(\r\n            _importances.length == courseIds.length,\r\n            \"must update all course suitability\"\r\n        );\r\n        // \r\n        for (\r\n            uint256 courseIndex = 0;\r\n            courseIndex < courseIds.length;\r\n            courseIndex++\r\n        ) {\r\n            courses[courseIds[courseIndex]].importance = _importances[\r\n                courseIndex\r\n            ];\r\n        }\r\n    }\r\n\r\n    // ID\r\n    function addCourseAssignedTeacherId(\r\n        uint256 courseId,\r\n        uint256 _teacherId\r\n    ) public {\r\n        courses[courseId].assignedTeacherId.push(_teacherId);\r\n    }\r\n\r\n    // ID\r\n    function addCourseAssignedAgentId(\r\n        uint256 courseId,\r\n        uint256 _agentId\r\n    ) public {\r\n        courses[courseId].assignedAgentId.push(_agentId);\r\n    }\r\n\r\n    // \r\n    function removeCourseAssignedTeacherId(\r\n        uint256 courseId,\r\n        uint256 _teacherId\r\n    ) public {\r\n        bool found = false;\r\n        uint256 indexToRemove;\r\n\r\n        //  ID \r\n        for (\r\n            uint256 i = 0;\r\n            i < courses[courseId].assignedTeacherId.length;\r\n            i++\r\n        ) {\r\n            if (courses[courseId].assignedTeacherId[i] == _teacherId) {\r\n                found = true;\r\n                indexToRemove = i;\r\n                break;\r\n            }\r\n        }\r\n\r\n        //  ID\r\n        if (found) {\r\n            // \r\n            courses[courseId].assignedTeacherId[indexToRemove] = courses[\r\n                courseId\r\n            ].assignedTeacherId[courses[courseId].assignedTeacherId.length - 1];\r\n            // \r\n            courses[courseId].assignedTeacherId.pop();\r\n        } else {\r\n            //  ID\r\n            revert(\"Course not found\");\r\n        }\r\n    }\r\n\r\n    // \r\n    function removeCourseAssignedAgentId(\r\n        uint256 courseId,\r\n        uint256 _agentId\r\n    ) public {\r\n        bool found = false;\r\n        uint256 indexToRemove;\r\n\r\n        //  ID \r\n        for (uint256 i = 0; i < courses[courseId].assignedAgentId.length; i++) {\r\n            if (courses[courseId].assignedAgentId[i] == _agentId) {\r\n                found = true;\r\n                indexToRemove = i;\r\n                break;\r\n            }\r\n        }\r\n\r\n        //  ID\r\n        if (found) {\r\n            // \r\n            courses[courseId].assignedAgentId[indexToRemove] = courses[courseId]\r\n                .assignedAgentId[courses[courseId].assignedAgentId.length - 1];\r\n            // \r\n            courses[courseId].assignedAgentId.pop();\r\n        } else {\r\n            //  ID\r\n            revert(\"Course not found\");\r\n        }\r\n    }\r\n\r\n    // \r\n    function setCourseIsAgentSuitable(\r\n        uint256 courseId,\r\n        bool _isAgentSuitable\r\n    ) public {\r\n        courses[courseId].isAgentSuitable = _isAgentSuitable;\r\n    }\r\n\r\n    // \r\n    function setTeacherCount(uint256 _teacherCount) public {\r\n        teacherCount = _teacherCount;\r\n    }\r\n\r\n    // \r\n    function setAgentCount(uint256 _agentCount) public {\r\n        agentCount = _agentCount;\r\n    }\r\n\r\n    // \r\n    function setClassCount(uint256 _classCount) public {\r\n        classCount = _classCount;\r\n    }\r\n\r\n    // \r\n    function setCourseCount(uint256 _courseCount) public {\r\n        courseCount = _courseCount;\r\n    }\r\n\r\n    // \r\n    function getTeacherSuitability(\r\n        uint256 _teacherId,\r\n        uint256 courseId\r\n    ) public view returns (uint256) {\r\n        return teachers[_teacherId].courseSuitabilities[courseId];\r\n    }\r\n\r\n    // \r\n    function getAgentSuitability(\r\n        uint256 _agentId,\r\n        uint256 courseId\r\n    ) public view returns (uint256) {\r\n        return agents[_agentId].courseSuitabilities[courseId];\r\n    }\r\n\r\n    // \r\n    function getPreference(\r\n        uint256 _teacherId,\r\n        uint256 courseId\r\n    ) public view returns (uint256) {\r\n        return teachers[_teacherId].coursePreferences[courseId];\r\n    }\r\n\r\n    // \r\n    function getTeacherAssignedCourses(\r\n        uint256 _teacherId\r\n    ) public view returns (uint256[] memory) {\r\n        return teachers[_teacherId].assignedCourses;\r\n    }\r\n\r\n    // \r\n    function getTeacherReallyAssignedCourses(\r\n        uint256 _teacherId\r\n    ) public view returns (uint256[] memory) {\r\n        return teachers[_teacherId].reallyAssignedCourses;\r\n    }\r\n\r\n    // \r\n    function getAgentAssignedCourses(\r\n        uint256 _agentId\r\n    ) public view returns (uint256[] memory) {\r\n        return agents[_agentId].assignedCourses;\r\n    }\r\n\r\n    // \r\n    function getCoursesAssignedTeacher(\r\n        uint256 _courseId\r\n    ) public view returns (uint256[] memory) {\r\n        return courses[_courseId].assignedTeacherId;\r\n    }\r\n\r\n    // \r\n    function getCoursesAssignedAgent(\r\n        uint256 _courseId\r\n    ) public view returns (uint256[] memory) {\r\n        return courses[_courseId].assignedAgentId;\r\n    }\r\n\r\n    function getTeacherIds() public view returns (uint256[] memory) {\r\n        return teacherIds;\r\n    }\r\n\r\n    function getAgentIds() public view returns (uint256[] memory) {\r\n        return agentIds;\r\n    }\r\n\r\n    function getCourseIds() public view returns (uint256[] memory) {\r\n        return courseIds;\r\n    }\r\n\r\n    function getClassIds() public view returns (uint256[] memory) {\r\n        return classIds;\r\n    }\r\n\r\n    function addCourseClassScores(uint256 courseId, uint256 classId, uint256 score) public {\r\n        require(courseScores[courseId].giveScoreClassIdExists[classId] == 0, unicode\"\");\r\n        courseScores[courseId].giveScoreClassIdExists[classId] = score;\r\n        courseScores[courseId].classScores.push(score); \r\n    }\r\n\r\n    function getCourseClassScores(uint256 courseId) public view returns (uint256[] memory) {\r\n        return courseScores[courseId].classScores;\r\n    }\r\n\r\n    function setCourseSelfScore(uint256 courseId, uint256 score) public {\r\n        courseScores[courseId].selfScore = score;\r\n    }\r\n\r\n    function setCourseTotalScore(uint256 courseId, uint256 score) public {\r\n        courseScores[courseId].totalScore = score;\r\n    }\r\n\r\n    function addCourseSupervisorScores(uint256 courseId, uint256 supervisorId,uint256 score) public {\r\n        require(courseScores[courseId].giveScoreSupervisorIdExists[supervisorId] == 0, unicode\"\");  \r\n        courseScores[courseId].giveScoreSupervisorIdExists[supervisorId] = score;\r\n        courseScores[courseId].supervisorScores.push(score);\r\n    }\r\n\r\n    function getCourseSupervisorScores(uint256 courseId) public view returns (uint256[] memory) {\r\n        return courseScores[courseId].supervisorScores;\r\n    }\r\n\r\n    function addSupervisorId(uint256 supervisorId) public {\r\n        supervisorIds.push(supervisorId);\r\n        supervisorCount++;\r\n    }\r\n\r\n    function setSupervisorsId(address supervisor, uint256 supervisorId) public {\r\n        addressToSupervisorId[supervisor] = supervisorId;\r\n        supervisors[supervisorId].id = supervisorId;\r\n        supervisors[supervisorId].addr = supervisor;\r\n    }\r\n\r\n    function setSupervisorsCourseScore(uint256 supervisorId, uint256 courseId, uint256 score) public {\r\n        supervisors[supervisorId].courseScores[courseId] = score; \r\n    }\r\n}\r\n",
  "sourcePath": "E:\\\\paper\\DAO\\git-DAO\\v1\\Course-allocation\\project\\contracts\\ICourseAllocation.sol",
  "compiler": {
    "name": "solc",
    "version": "0.8.7+commit.e28d00a7.Emscripten.clang"
  },
  "schemaVersion": "3.4.16",
  "updatedAt": "2025-04-03T08:41:07.175Z",
  "networkType": "ethereum",
  "devdoc": {
    "kind": "dev",
    "methods": {},
    "version": 1
  },
  "userdoc": {
    "kind": "user",
    "methods": {},
    "version": 1
  }
}