{
  "contractName": "ICourseAllocation",
  "abi": [
    {
      "inputs": [],
      "stateMutability": "nonpayable",
      "type": "constructor"
    },
    {
      "inputs": [],
      "name": "ScoreTypeChioce",
      "outputs": [
        {
          "internalType": "string",
          "name": "",
          "type": "string"
        }
      ],
      "stateMutability": "view",
      "type": "function"
    },
    {
      "inputs": [
        {
          "internalType": "address",
          "name": "",
          "type": "address"
        }
      ],
      "name": "addressToAgentId",
      "outputs": [
        {
          "internalType": "uint256",
          "name": "",
          "type": "uint256"
        }
      ],
      "stateMutability": "view",
      "type": "function"
    },
    {
      "inputs": [
        {
          "internalType": "address",
          "name": "",
          "type": "address"
        }
      ],
      "name": "addressToClassId",
      "outputs": [
        {
          "internalType": "uint256",
          "name": "",
          "type": "uint256"
        }
      ],
      "stateMutability": "view",
      "type": "function"
    },
    {
      "inputs": [
        {
          "internalType": "address",
          "name": "",
          "type": "address"
        }
      ],
      "name": "addressToSupervisorId",
      "outputs": [
        {
          "internalType": "uint256",
          "name": "",
          "type": "uint256"
        }
      ],
      "stateMutability": "view",
      "type": "function"
    },
    {
      "inputs": [
        {
          "internalType": "address",
          "name": "",
          "type": "address"
        }
      ],
      "name": "addressToTeacherId",
      "outputs": [
        {
          "internalType": "uint256",
          "name": "",
          "type": "uint256"
        }
      ],
      "stateMutability": "view",
      "type": "function"
    },
    {
      "inputs": [],
      "name": "agentCount",
      "outputs": [
        {
          "internalType": "uint256",
          "name": "",
          "type": "uint256"
        }
      ],
      "stateMutability": "view",
      "type": "function"
    },
    {
      "inputs": [
        {
          "internalType": "uint256",
          "name": "",
          "type": "uint256"
        }
      ],
      "name": "agentIds",
      "outputs": [
        {
          "internalType": "uint256",
          "name": "",
          "type": "uint256"
        }
      ],
      "stateMutability": "view",
      "type": "function"
    },
    {
      "inputs": [
        {
          "internalType": "uint256",
          "name": "",
          "type": "uint256"
        }
      ],
      "name": "agents",
      "outputs": [
        {
          "internalType": "uint256",
          "name": "id",
          "type": "uint256"
        },
        {
          "internalType": "string",
          "name": "name",
          "type": "string"
        },
        {
          "internalType": "address",
          "name": "addr",
          "type": "address"
        },
        {
          "internalType": "uint256",
          "name": "value",
          "type": "uint256"
        }
      ],
      "stateMutability": "view",
      "type": "function"
    },
    {
      "inputs": [],
      "name": "classCount",
      "outputs": [
        {
          "internalType": "uint256",
          "name": "",
          "type": "uint256"
        }
      ],
      "stateMutability": "view",
      "type": "function"
    },
    {
      "inputs": [
        {
          "internalType": "uint256",
          "name": "",
          "type": "uint256"
        }
      ],
      "name": "classIds",
      "outputs": [
        {
          "internalType": "uint256",
          "name": "",
          "type": "uint256"
        }
      ],
      "stateMutability": "view",
      "type": "function"
    },
    {
      "inputs": [],
      "name": "courseCount",
      "outputs": [
        {
          "internalType": "uint256",
          "name": "",
          "type": "uint256"
        }
      ],
      "stateMutability": "view",
      "type": "function"
    },
    {
      "inputs": [
        {
          "internalType": "uint256",
          "name": "",
          "type": "uint256"
        }
      ],
      "name": "courseIds",
      "outputs": [
        {
          "internalType": "uint256",
          "name": "",
          "type": "uint256"
        }
      ],
      "stateMutability": "view",
      "type": "function"
    },
    {
      "inputs": [
        {
          "internalType": "uint256",
          "name": "",
          "type": "uint256"
        }
      ],
      "name": "courseScores",
      "outputs": [
        {
          "internalType": "uint256",
          "name": "id",
          "type": "uint256"
        },
        {
          "internalType": "uint256",
          "name": "totalScore",
          "type": "uint256"
        },
        {
          "internalType": "uint256",
          "name": "machineScore",
          "type": "uint256"
        }
      ],
      "stateMutability": "view",
      "type": "function"
    },
    {
      "inputs": [
        {
          "internalType": "uint256",
          "name": "",
          "type": "uint256"
        }
      ],
      "name": "courses",
      "outputs": [
        {
          "internalType": "uint256",
          "name": "id",
          "type": "uint256"
        },
        {
          "internalType": "string",
          "name": "name",
          "type": "string"
        },
        {
          "internalType": "uint256",
          "name": "importance",
          "type": "uint256"
        },
        {
          "internalType": "uint256",
          "name": "courseDifficulty",
          "type": "uint256"
        }
      ],
      "stateMutability": "view",
      "type": "function"
    },
    {
      "inputs": [],
      "name": "supervisorCount",
      "outputs": [
        {
          "internalType": "uint256",
          "name": "",
          "type": "uint256"
        }
      ],
      "stateMutability": "view",
      "type": "function"
    },
    {
      "inputs": [
        {
          "internalType": "uint256",
          "name": "",
          "type": "uint256"
        }
      ],
      "name": "supervisorIds",
      "outputs": [
        {
          "internalType": "uint256",
          "name": "",
          "type": "uint256"
        }
      ],
      "stateMutability": "view",
      "type": "function"
    },
    {
      "inputs": [
        {
          "internalType": "uint256",
          "name": "",
          "type": "uint256"
        }
      ],
      "name": "supervisors",
      "outputs": [
        {
          "internalType": "uint256",
          "name": "id",
          "type": "uint256"
        },
        {
          "internalType": "string",
          "name": "name",
          "type": "string"
        },
        {
          "internalType": "address",
          "name": "addr",
          "type": "address"
        }
      ],
      "stateMutability": "view",
      "type": "function"
    },
    {
      "inputs": [],
      "name": "teacherCount",
      "outputs": [
        {
          "internalType": "uint256",
          "name": "",
          "type": "uint256"
        }
      ],
      "stateMutability": "view",
      "type": "function"
    },
    {
      "inputs": [
        {
          "internalType": "uint256",
          "name": "",
          "type": "uint256"
        }
      ],
      "name": "teacherIds",
      "outputs": [
        {
          "internalType": "uint256",
          "name": "",
          "type": "uint256"
        }
      ],
      "stateMutability": "view",
      "type": "function"
    },
    {
      "inputs": [
        {
          "internalType": "uint256",
          "name": "",
          "type": "uint256"
        }
      ],
      "name": "teachers",
      "outputs": [
        {
          "internalType": "uint256",
          "name": "id",
          "type": "uint256"
        },
        {
          "internalType": "string",
          "name": "name",
          "type": "string"
        },
        {
          "internalType": "address",
          "name": "addr",
          "type": "address"
        },
        {
          "internalType": "uint256",
          "name": "suitabilityWeight",
          "type": "uint256"
        },
        {
          "internalType": "uint256",
          "name": "transferCourseCoins",
          "type": "uint256"
        },
        {
          "internalType": "uint256",
          "name": "value",
          "type": "uint256"
        }
      ],
      "stateMutability": "view",
      "type": "function"
    },
    {
      "inputs": [],
      "name": "totalWeight",
      "outputs": [
        {
          "internalType": "uint256",
          "name": "",
          "type": "uint256"
        }
      ],
      "stateMutability": "view",
      "type": "function"
    },
    {
      "inputs": [],
      "name": "transferCourseEndTime",
      "outputs": [
        {
          "internalType": "uint256",
          "name": "",
          "type": "uint256"
        }
      ],
      "stateMutability": "view",
      "type": "function"
    },
    {
      "inputs": [],
      "name": "transferCourseNumbers",
      "outputs": [
        {
          "internalType": "uint256",
          "name": "",
          "type": "uint256"
        }
      ],
      "stateMutability": "view",
      "type": "function"
    },
    {
      "inputs": [],
      "name": "transferCourseStartTime",
      "outputs": [
        {
          "internalType": "uint256",
          "name": "",
          "type": "uint256"
        }
      ],
      "stateMutability": "view",
      "type": "function"
    },
    {
      "inputs": [
        {
          "internalType": "address",
          "name": "teacherAddress",
          "type": "address"
        },
        {
          "internalType": "uint256",
          "name": "_TeacherId",
          "type": "uint256"
        }
      ],
      "name": "setTeacherId",
      "outputs": [],
      "stateMutability": "nonpayable",
      "type": "function"
    },
    {
      "inputs": [
        {
          "internalType": "uint256",
          "name": "teacherId",
          "type": "uint256"
        }
      ],
      "name": "removeTeacher",
      "outputs": [],
      "stateMutability": "nonpayable",
      "type": "function"
    },
    {
      "inputs": [
        {
          "internalType": "uint256",
          "name": "teacherId",
          "type": "uint256"
        },
        {
          "internalType": "string",
          "name": "_name",
          "type": "string"
        }
      ],
      "name": "setTeacherName",
      "outputs": [],
      "stateMutability": "nonpayable",
      "type": "function"
    },
    {
      "inputs": [
        {
          "internalType": "uint256",
          "name": "teacherId",
          "type": "uint256"
        },
        {
          "internalType": "address",
          "name": "_teacherAddress",
          "type": "address"
        }
      ],
      "name": "setTeacherAddress",
      "outputs": [],
      "stateMutability": "nonpayable",
      "type": "function"
    },
    {
      "inputs": [
        {
          "internalType": "uint256",
          "name": "teacherId",
          "type": "uint256"
        },
        {
          "internalType": "uint256",
          "name": "_assignedCourses",
          "type": "uint256"
        }
      ],
      "name": "addTeacherAssignedCourses",
      "outputs": [],
      "stateMutability": "nonpayable",
      "type": "function"
    },
    {
      "inputs": [
        {
          "internalType": "uint256",
          "name": "teacherId",
          "type": "uint256"
        },
        {
          "internalType": "string",
          "name": "_researchDirection",
          "type": "string"
        }
      ],
      "name": "addTeacherResearchDirection",
      "outputs": [],
      "stateMutability": "nonpayable",
      "type": "function"
    },
    {
      "inputs": [
        {
          "internalType": "uint256",
          "name": "teacherId",
          "type": "uint256"
        },
        {
          "internalType": "uint256",
          "name": "_paperCount",
          "type": "uint256"
        }
      ],
      "name": "addTeacherPaperCount",
      "outputs": [],
      "stateMutability": "nonpayable",
      "type": "function"
    },
    {
      "inputs": [
        {
          "internalType": "uint256",
          "name": "teacherId",
          "type": "uint256"
        },
        {
          "internalType": "uint256",
          "name": "_assignedCourses",
          "type": "uint256"
        }
      ],
      "name": "addTeacherReallyAssignedCourses",
      "outputs": [],
      "stateMutability": "nonpayable",
      "type": "function"
    },
    {
      "inputs": [
        {
          "internalType": "uint256",
          "name": "teacherId",
          "type": "uint256"
        },
        {
          "internalType": "uint256",
          "name": "_assignedCourses",
          "type": "uint256"
        }
      ],
      "name": "removeTeacherAssignedCourses",
      "outputs": [],
      "stateMutability": "nonpayable",
      "type": "function"
    },
    {
      "inputs": [
        {
          "internalType": "uint256",
          "name": "teacherId",
          "type": "uint256"
        },
        {
          "internalType": "string",
          "name": "_researchDirection",
          "type": "string"
        }
      ],
      "name": "removeTeacherResearchDirection",
      "outputs": [],
      "stateMutability": "nonpayable",
      "type": "function"
    },
    {
      "inputs": [
        {
          "internalType": "uint256",
          "name": "teacherId",
          "type": "uint256"
        },
        {
          "internalType": "uint256",
          "name": "index",
          "type": "uint256"
        },
        {
          "internalType": "string",
          "name": "inputString",
          "type": "string"
        }
      ],
      "name": "compareStrings",
      "outputs": [
        {
          "internalType": "bool",
          "name": "",
          "type": "bool"
        }
      ],
      "stateMutability": "view",
      "type": "function"
    },
    {
      "inputs": [
        {
          "internalType": "uint256",
          "name": "teacherId",
          "type": "uint256"
        },
        {
          "internalType": "uint256",
          "name": "_assignedCourses",
          "type": "uint256"
        }
      ],
      "name": "removeTeacherReallyAssignedCourses",
      "outputs": [],
      "stateMutability": "nonpayable",
      "type": "function"
    },
    {
      "inputs": [
        {
          "internalType": "uint256",
          "name": "teacherId",
          "type": "uint256"
        },
        {
          "internalType": "uint256",
          "name": "_suitabilityWeight",
          "type": "uint256"
        }
      ],
      "name": "setTeacherSuitabilityWeight",
      "outputs": [],
      "stateMutability": "nonpayable",
      "type": "function"
    },
    {
      "inputs": [
        {
          "internalType": "uint256",
          "name": "teacherId",
          "type": "uint256"
        },
        {
          "internalType": "uint256",
          "name": "_transferCourseCoins",
          "type": "uint256"
        }
      ],
      "name": "setTeacherTransferCourseCoins",
      "outputs": [],
      "stateMutability": "nonpayable",
      "type": "function"
    },
    {
      "inputs": [
        {
          "internalType": "uint256",
          "name": "teacherId",
          "type": "uint256"
        },
        {
          "internalType": "uint256",
          "name": "_value",
          "type": "uint256"
        }
      ],
      "name": "setTeacherValue",
      "outputs": [],
      "stateMutability": "nonpayable",
      "type": "function"
    },
    {
      "inputs": [
        {
          "internalType": "uint256",
          "name": "agentId",
          "type": "uint256"
        },
        {
          "internalType": "uint256",
          "name": "_value",
          "type": "uint256"
        }
      ],
      "name": "setAgentValue",
      "outputs": [],
      "stateMutability": "nonpayable",
      "type": "function"
    },
    {
      "inputs": [
        {
          "internalType": "uint256",
          "name": "teacherId",
          "type": "uint256"
        },
        {
          "internalType": "uint256[]",
          "name": "_suitabilities",
          "type": "uint256[]"
        }
      ],
      "name": "setAllTeacherCourseSuitability",
      "outputs": [],
      "stateMutability": "nonpayable",
      "type": "function"
    },
    {
      "inputs": [
        {
          "internalType": "uint256",
          "name": "teacherId",
          "type": "uint256"
        },
        {
          "internalType": "uint256",
          "name": "courseId",
          "type": "uint256"
        },
        {
          "internalType": "uint256",
          "name": "_suitability",
          "type": "uint256"
        }
      ],
      "name": "setTeacherCourseSuitability",
      "outputs": [],
      "stateMutability": "nonpayable",
      "type": "function"
    },
    {
      "inputs": [
        {
          "internalType": "uint256",
          "name": "teacherId",
          "type": "uint256"
        },
        {
          "internalType": "uint256[]",
          "name": "_preferences",
          "type": "uint256[]"
        }
      ],
      "name": "setAllTeacherCoursePreferences",
      "outputs": [],
      "stateMutability": "nonpayable",
      "type": "function"
    },
    {
      "inputs": [
        {
          "internalType": "uint256",
          "name": "teacherId",
          "type": "uint256"
        },
        {
          "internalType": "uint256",
          "name": "courseId",
          "type": "uint256"
        },
        {
          "internalType": "uint256",
          "name": "_preference",
          "type": "uint256"
        }
      ],
      "name": "setTeacherCoursePreferences",
      "outputs": [],
      "stateMutability": "nonpayable",
      "type": "function"
    },
    {
      "inputs": [
        {
          "internalType": "address",
          "name": "agentAddress",
          "type": "address"
        },
        {
          "internalType": "uint256",
          "name": "_agentId",
          "type": "uint256"
        }
      ],
      "name": "setAgentId",
      "outputs": [],
      "stateMutability": "nonpayable",
      "type": "function"
    },
    {
      "inputs": [
        {
          "internalType": "uint256",
          "name": "agentId",
          "type": "uint256"
        }
      ],
      "name": "removeAgent",
      "outputs": [],
      "stateMutability": "nonpayable",
      "type": "function"
    },
    {
      "inputs": [
        {
          "internalType": "uint256",
          "name": "agentId",
          "type": "uint256"
        },
        {
          "internalType": "string",
          "name": "_name",
          "type": "string"
        }
      ],
      "name": "setAgentName",
      "outputs": [],
      "stateMutability": "nonpayable",
      "type": "function"
    },
    {
      "inputs": [
        {
          "internalType": "uint256",
          "name": "agentId",
          "type": "uint256"
        },
        {
          "internalType": "address",
          "name": "_agentAddress",
          "type": "address"
        }
      ],
      "name": "setAgentAddress",
      "outputs": [],
      "stateMutability": "nonpayable",
      "type": "function"
    },
    {
      "inputs": [
        {
          "internalType": "uint256",
          "name": "agentId",
          "type": "uint256"
        },
        {
          "internalType": "uint256",
          "name": "_assignedCourses",
          "type": "uint256"
        }
      ],
      "name": "addAgentAssignedCourses",
      "outputs": [],
      "stateMutability": "nonpayable",
      "type": "function"
    },
    {
      "inputs": [
        {
          "internalType": "uint256",
          "name": "agentId",
          "type": "uint256"
        },
        {
          "internalType": "uint256",
          "name": "_assignedCourses",
          "type": "uint256"
        }
      ],
      "name": "removeAgentAssignedCourses",
      "outputs": [],
      "stateMutability": "nonpayable",
      "type": "function"
    },
    {
      "inputs": [
        {
          "internalType": "uint256",
          "name": "agentId",
          "type": "uint256"
        },
        {
          "internalType": "uint256",
          "name": "_courseId",
          "type": "uint256"
        },
        {
          "internalType": "uint256",
          "name": "_suitability",
          "type": "uint256"
        }
      ],
      "name": "setAgentCourseSuitability",
      "outputs": [],
      "stateMutability": "nonpayable",
      "type": "function"
    },
    {
      "inputs": [
        {
          "internalType": "uint256",
          "name": "agentId",
          "type": "uint256"
        },
        {
          "internalType": "uint256[]",
          "name": "_suitabilities",
          "type": "uint256[]"
        }
      ],
      "name": "setAllAgentCourseSuitability",
      "outputs": [],
      "stateMutability": "nonpayable",
      "type": "function"
    },
    {
      "inputs": [
        {
          "internalType": "address",
          "name": "classAddress",
          "type": "address"
        },
        {
          "internalType": "uint256",
          "name": "_id",
          "type": "uint256"
        }
      ],
      "name": "setClassId",
      "outputs": [],
      "stateMutability": "nonpayable",
      "type": "function"
    },
    {
      "inputs": [
        {
          "internalType": "uint256",
          "name": "classId",
          "type": "uint256"
        }
      ],
      "name": "removeClass",
      "outputs": [],
      "stateMutability": "nonpayable",
      "type": "function"
    },
    {
      "inputs": [
        {
          "internalType": "uint256",
          "name": "courseId",
          "type": "uint256"
        }
      ],
      "name": "setCourseId",
      "outputs": [],
      "stateMutability": "nonpayable",
      "type": "function"
    },
    {
      "inputs": [
        {
          "internalType": "uint256",
          "name": "courseId",
          "type": "uint256"
        }
      ],
      "name": "removeCourse",
      "outputs": [],
      "stateMutability": "nonpayable",
      "type": "function"
    },
    {
      "inputs": [
        {
          "internalType": "uint256",
          "name": "courseId",
          "type": "uint256"
        },
        {
          "internalType": "string",
          "name": "_name",
          "type": "string"
        }
      ],
      "name": "setCourseName",
      "outputs": [],
      "stateMutability": "nonpayable",
      "type": "function"
    },
    {
      "inputs": [
        {
          "internalType": "uint256",
          "name": "courseId",
          "type": "uint256"
        },
        {
          "internalType": "uint256",
          "name": "_importance",
          "type": "uint256"
        }
      ],
      "name": "setCourseImportance",
      "outputs": [],
      "stateMutability": "nonpayable",
      "type": "function"
    },
    {
      "inputs": [
        {
          "internalType": "uint256",
          "name": "courseId",
          "type": "uint256"
        },
        {
          "internalType": "uint256",
          "name": "_courseDifficulty",
          "type": "uint256"
        }
      ],
      "name": "setCourseDifficulty",
      "outputs": [],
      "stateMutability": "nonpayable",
      "type": "function"
    },
    {
      "inputs": [
        {
          "internalType": "uint256",
          "name": "courseId",
          "type": "uint256"
        },
        {
          "internalType": "uint256",
          "name": "_machineScore",
          "type": "uint256"
        }
      ],
      "name": "setmachineScore",
      "outputs": [],
      "stateMutability": "nonpayable",
      "type": "function"
    },
    {
      "inputs": [
        {
          "internalType": "uint256[]",
          "name": "_importances",
          "type": "uint256[]"
        }
      ],
      "name": "setAllCourseImportance",
      "outputs": [],
      "stateMutability": "nonpayable",
      "type": "function"
    },
    {
      "inputs": [
        {
          "internalType": "uint256",
          "name": "courseId",
          "type": "uint256"
        },
        {
          "internalType": "uint256",
          "name": "_teacherId",
          "type": "uint256"
        }
      ],
      "name": "addCourseAssignedTeacherId",
      "outputs": [],
      "stateMutability": "nonpayable",
      "type": "function"
    },
    {
      "inputs": [
        {
          "internalType": "uint256",
          "name": "courseId",
          "type": "uint256"
        },
        {
          "internalType": "uint256",
          "name": "_agentId",
          "type": "uint256"
        }
      ],
      "name": "addCourseAssignedAgentId",
      "outputs": [],
      "stateMutability": "nonpayable",
      "type": "function"
    },
    {
      "inputs": [
        {
          "internalType": "uint256",
          "name": "courseId",
          "type": "uint256"
        },
        {
          "internalType": "uint256",
          "name": "_teacherId",
          "type": "uint256"
        }
      ],
      "name": "removeCourseAssignedTeacherId",
      "outputs": [],
      "stateMutability": "nonpayable",
      "type": "function"
    },
    {
      "inputs": [
        {
          "internalType": "uint256",
          "name": "courseId",
          "type": "uint256"
        },
        {
          "internalType": "uint256",
          "name": "_agentId",
          "type": "uint256"
        }
      ],
      "name": "removeCourseAssignedAgentId",
      "outputs": [],
      "stateMutability": "nonpayable",
      "type": "function"
    },
    {
      "inputs": [
        {
          "internalType": "uint256",
          "name": "_teacherCount",
          "type": "uint256"
        }
      ],
      "name": "setTeacherCount",
      "outputs": [],
      "stateMutability": "nonpayable",
      "type": "function"
    },
    {
      "inputs": [
        {
          "internalType": "uint256",
          "name": "_agentCount",
          "type": "uint256"
        }
      ],
      "name": "setAgentCount",
      "outputs": [],
      "stateMutability": "nonpayable",
      "type": "function"
    },
    {
      "inputs": [
        {
          "internalType": "uint256",
          "name": "_classCount",
          "type": "uint256"
        }
      ],
      "name": "setClassCount",
      "outputs": [],
      "stateMutability": "nonpayable",
      "type": "function"
    },
    {
      "inputs": [
        {
          "internalType": "uint256",
          "name": "_courseCount",
          "type": "uint256"
        }
      ],
      "name": "setCourseCount",
      "outputs": [],
      "stateMutability": "nonpayable",
      "type": "function"
    },
    {
      "inputs": [
        {
          "internalType": "uint256",
          "name": "_teacherId",
          "type": "uint256"
        },
        {
          "internalType": "uint256",
          "name": "courseId",
          "type": "uint256"
        }
      ],
      "name": "getTeacherSuitability",
      "outputs": [
        {
          "internalType": "uint256",
          "name": "",
          "type": "uint256"
        }
      ],
      "stateMutability": "view",
      "type": "function"
    },
    {
      "inputs": [
        {
          "internalType": "uint256",
          "name": "_agentId",
          "type": "uint256"
        },
        {
          "internalType": "uint256",
          "name": "courseId",
          "type": "uint256"
        }
      ],
      "name": "getAgentSuitability",
      "outputs": [
        {
          "internalType": "uint256",
          "name": "",
          "type": "uint256"
        }
      ],
      "stateMutability": "view",
      "type": "function"
    },
    {
      "inputs": [
        {
          "internalType": "uint256",
          "name": "_teacherId",
          "type": "uint256"
        },
        {
          "internalType": "uint256",
          "name": "courseId",
          "type": "uint256"
        }
      ],
      "name": "getPreference",
      "outputs": [
        {
          "internalType": "uint256",
          "name": "",
          "type": "uint256"
        }
      ],
      "stateMutability": "view",
      "type": "function"
    },
    {
      "inputs": [
        {
          "internalType": "uint256",
          "name": "_teacherId",
          "type": "uint256"
        }
      ],
      "name": "getTeacherAssignedCourses",
      "outputs": [
        {
          "internalType": "uint256[]",
          "name": "",
          "type": "uint256[]"
        }
      ],
      "stateMutability": "view",
      "type": "function"
    },
    {
      "inputs": [
        {
          "internalType": "uint256",
          "name": "_teacherId",
          "type": "uint256"
        }
      ],
      "name": "getTeacherReallyAssignedCourses",
      "outputs": [
        {
          "internalType": "uint256[]",
          "name": "",
          "type": "uint256[]"
        }
      ],
      "stateMutability": "view",
      "type": "function"
    },
    {
      "inputs": [
        {
          "internalType": "uint256",
          "name": "_teacherId",
          "type": "uint256"
        }
      ],
      "name": "getTeacherResearchDirection",
      "outputs": [
        {
          "internalType": "string[]",
          "name": "",
          "type": "string[]"
        }
      ],
      "stateMutability": "view",
      "type": "function"
    },
    {
      "inputs": [
        {
          "internalType": "uint256",
          "name": "_teacherId",
          "type": "uint256"
        }
      ],
      "name": "getTeacherPaperCount",
      "outputs": [
        {
          "internalType": "uint256[]",
          "name": "",
          "type": "uint256[]"
        }
      ],
      "stateMutability": "view",
      "type": "function"
    },
    {
      "inputs": [
        {
          "internalType": "uint256",
          "name": "_agentId",
          "type": "uint256"
        }
      ],
      "name": "getAgentAssignedCourses",
      "outputs": [
        {
          "internalType": "uint256[]",
          "name": "",
          "type": "uint256[]"
        }
      ],
      "stateMutability": "view",
      "type": "function"
    },
    {
      "inputs": [
        {
          "internalType": "uint256",
          "name": "_courseId",
          "type": "uint256"
        }
      ],
      "name": "getCoursesAssignedTeacher",
      "outputs": [
        {
          "internalType": "uint256[]",
          "name": "",
          "type": "uint256[]"
        }
      ],
      "stateMutability": "view",
      "type": "function"
    },
    {
      "inputs": [
        {
          "internalType": "uint256",
          "name": "_courseId",
          "type": "uint256"
        }
      ],
      "name": "getCoursesAssignedAgent",
      "outputs": [
        {
          "internalType": "uint256[]",
          "name": "",
          "type": "uint256[]"
        }
      ],
      "stateMutability": "view",
      "type": "function"
    },
    {
      "inputs": [
        {
          "internalType": "uint256",
          "name": "courseId",
          "type": "uint256"
        }
      ],
      "name": "getCourseImportance",
      "outputs": [
        {
          "internalType": "uint256",
          "name": "",
          "type": "uint256"
        }
      ],
      "stateMutability": "view",
      "type": "function"
    },
    {
      "inputs": [],
      "name": "getTeacherIds",
      "outputs": [
        {
          "internalType": "uint256[]",
          "name": "",
          "type": "uint256[]"
        }
      ],
      "stateMutability": "view",
      "type": "function"
    },
    {
      "inputs": [],
      "name": "getAgentIds",
      "outputs": [
        {
          "internalType": "uint256[]",
          "name": "",
          "type": "uint256[]"
        }
      ],
      "stateMutability": "view",
      "type": "function"
    },
    {
      "inputs": [],
      "name": "getCourseIds",
      "outputs": [
        {
          "internalType": "uint256[]",
          "name": "",
          "type": "uint256[]"
        }
      ],
      "stateMutability": "view",
      "type": "function"
    },
    {
      "inputs": [],
      "name": "getClassIds",
      "outputs": [
        {
          "internalType": "uint256[]",
          "name": "",
          "type": "uint256[]"
        }
      ],
      "stateMutability": "view",
      "type": "function"
    },
    {
      "inputs": [
        {
          "internalType": "uint256",
          "name": "courseId",
          "type": "uint256"
        },
        {
          "internalType": "uint256",
          "name": "classId",
          "type": "uint256"
        },
        {
          "internalType": "uint256",
          "name": "score",
          "type": "uint256"
        }
      ],
      "name": "addCourseClassScores",
      "outputs": [],
      "stateMutability": "nonpayable",
      "type": "function"
    },
    {
      "inputs": [
        {
          "internalType": "uint256",
          "name": "courseId",
          "type": "uint256"
        },
        {
          "internalType": "uint256",
          "name": "classId",
          "type": "uint256"
        }
      ],
      "name": "getGiveScoreClassIdExists",
      "outputs": [
        {
          "internalType": "uint256",
          "name": "",
          "type": "uint256"
        }
      ],
      "stateMutability": "view",
      "type": "function"
    },
    {
      "inputs": [
        {
          "internalType": "uint256",
          "name": "courseId",
          "type": "uint256"
        },
        {
          "internalType": "uint256[]",
          "name": "classIds_",
          "type": "uint256[]"
        }
      ],
      "name": "removeCourseClassScores",
      "outputs": [],
      "stateMutability": "nonpayable",
      "type": "function"
    },
    {
      "inputs": [
        {
          "internalType": "uint256",
          "name": "courseId",
          "type": "uint256"
        }
      ],
      "name": "getCourseClassScores",
      "outputs": [
        {
          "internalType": "uint256[]",
          "name": "",
          "type": "uint256[]"
        }
      ],
      "stateMutability": "view",
      "type": "function"
    },
    {
      "inputs": [
        {
          "internalType": "uint256",
          "name": "courseId",
          "type": "uint256"
        },
        {
          "internalType": "uint256",
          "name": "teacherId",
          "type": "uint256"
        },
        {
          "internalType": "uint256",
          "name": "score",
          "type": "uint256"
        }
      ],
      "name": "addTeacherScores",
      "outputs": [],
      "stateMutability": "nonpayable",
      "type": "function"
    },
    {
      "inputs": [
        {
          "internalType": "uint256",
          "name": "courseId",
          "type": "uint256"
        },
        {
          "internalType": "uint256[]",
          "name": "teacherIds_",
          "type": "uint256[]"
        }
      ],
      "name": "removeTeacherScores",
      "outputs": [],
      "stateMutability": "nonpayable",
      "type": "function"
    },
    {
      "inputs": [
        {
          "internalType": "uint256",
          "name": "courseId",
          "type": "uint256"
        }
      ],
      "name": "getTeacherScores",
      "outputs": [
        {
          "internalType": "uint256[]",
          "name": "",
          "type": "uint256[]"
        }
      ],
      "stateMutability": "view",
      "type": "function"
    },
    {
      "inputs": [
        {
          "internalType": "uint256",
          "name": "courseId",
          "type": "uint256"
        },
        {
          "internalType": "uint256",
          "name": "teacherId",
          "type": "uint256"
        }
      ],
      "name": "getGiveScoreTeacherIdExists",
      "outputs": [
        {
          "internalType": "uint256",
          "name": "",
          "type": "uint256"
        }
      ],
      "stateMutability": "view",
      "type": "function"
    },
    {
      "inputs": [
        {
          "internalType": "uint256",
          "name": "courseId",
          "type": "uint256"
        },
        {
          "internalType": "uint256",
          "name": "score",
          "type": "uint256"
        }
      ],
      "name": "setCourseTotalScore",
      "outputs": [],
      "stateMutability": "nonpayable",
      "type": "function"
    },
    {
      "inputs": [
        {
          "internalType": "uint256",
          "name": "courseId",
          "type": "uint256"
        },
        {
          "internalType": "uint256",
          "name": "supervisorId",
          "type": "uint256"
        },
        {
          "internalType": "uint256",
          "name": "score",
          "type": "uint256"
        }
      ],
      "name": "addCourseSupervisorScores",
      "outputs": [],
      "stateMutability": "nonpayable",
      "type": "function"
    },
    {
      "inputs": [
        {
          "internalType": "uint256",
          "name": "courseId",
          "type": "uint256"
        },
        {
          "internalType": "uint256[]",
          "name": "supervisorIds_",
          "type": "uint256[]"
        }
      ],
      "name": "removeCourseSupervisorScores",
      "outputs": [],
      "stateMutability": "nonpayable",
      "type": "function"
    },
    {
      "inputs": [
        {
          "internalType": "uint256",
          "name": "courseId",
          "type": "uint256"
        },
        {
          "internalType": "uint256",
          "name": "supervisorId",
          "type": "uint256"
        }
      ],
      "name": "getGiveScoreSupervisorIdExists",
      "outputs": [
        {
          "internalType": "uint256",
          "name": "",
          "type": "uint256"
        }
      ],
      "stateMutability": "view",
      "type": "function"
    },
    {
      "inputs": [
        {
          "internalType": "uint256",
          "name": "courseId",
          "type": "uint256"
        }
      ],
      "name": "getCourseSupervisorScores",
      "outputs": [
        {
          "internalType": "uint256[]",
          "name": "",
          "type": "uint256[]"
        }
      ],
      "stateMutability": "view",
      "type": "function"
    },
    {
      "inputs": [
        {
          "internalType": "uint256",
          "name": "supervisorId",
          "type": "uint256"
        }
      ],
      "name": "addSupervisorId",
      "outputs": [],
      "stateMutability": "nonpayable",
      "type": "function"
    },
    {
      "inputs": [],
      "name": "getSupervisorIds",
      "outputs": [
        {
          "internalType": "uint256[]",
          "name": "",
          "type": "uint256[]"
        }
      ],
      "stateMutability": "view",
      "type": "function"
    },
    {
      "inputs": [
        {
          "internalType": "address",
          "name": "supervisor",
          "type": "address"
        },
        {
          "internalType": "uint256",
          "name": "supervisorId",
          "type": "uint256"
        }
      ],
      "name": "setSupervisorId",
      "outputs": [],
      "stateMutability": "nonpayable",
      "type": "function"
    },
    {
      "inputs": [
        {
          "internalType": "uint256",
          "name": "supervisorId",
          "type": "uint256"
        },
        {
          "internalType": "string",
          "name": "_name",
          "type": "string"
        }
      ],
      "name": "setSupervisorName",
      "outputs": [],
      "stateMutability": "nonpayable",
      "type": "function"
    },
    {
      "inputs": [
        {
          "internalType": "uint256",
          "name": "supervisorId",
          "type": "uint256"
        },
        {
          "internalType": "uint256",
          "name": "courseId",
          "type": "uint256"
        },
        {
          "internalType": "uint256",
          "name": "score",
          "type": "uint256"
        }
      ],
      "name": "setSupervisorsCourseScore",
      "outputs": [],
      "stateMutability": "nonpayable",
      "type": "function"
    },
    {
      "inputs": [
        {
          "internalType": "uint256",
          "name": "_transferCourseNumbers",
          "type": "uint256"
        }
      ],
      "name": "settransferCourseNumbers",
      "outputs": [],
      "stateMutability": "nonpayable",
      "type": "function"
    },
    {
      "inputs": [
        {
          "internalType": "uint256",
          "name": "_transferCourseStartTime",
          "type": "uint256"
        }
      ],
      "name": "settransferCourseStartTime",
      "outputs": [],
      "stateMutability": "nonpayable",
      "type": "function"
    },
    {
      "inputs": [
        {
          "internalType": "uint256",
          "name": "_transferCourseEndTime",
          "type": "uint256"
        }
      ],
      "name": "settransferCourseEndTime",
      "outputs": [],
      "stateMutability": "nonpayable",
      "type": "function"
    },
    {
      "inputs": [
        {
          "internalType": "string",
          "name": "option",
          "type": "string"
        }
      ],
      "name": "setScoreType",
      "outputs": [],
      "stateMutability": "nonpayable",
      "type": "function"
    }
  ],
  "bytecode": "0x608060405234801561001057600080fd5b50615a8880620000216000396000f3fe608060405234801561001057600080fd5b50600436106106085760003560e01c8063951d5fee1161031b578063ce64bf9b116101a8578063e7fa4557116100f4578063f0f2efd8116100ad578063fa96bf9511610087578063fa96bf9514611394578063fc09e9d0146113c4578063fc2ddca5146113e0578063fe8dc6a8146113fc57610608565b8063f0f2efd81461133e578063f31e14941461135a578063fa8f084d1461137657610608565b8063e7fa455714611245578063e8a2dc2f14611261578063e906165714611291578063ebacebe4146112c1578063ebd1aac6146112f1578063ee196ee21461132257610608565b8063deb9f76a11610161578063e20b34051161013b578063e20b3405146111c1578063e40af036146111dd578063e52505d8146111f9578063e637812f1461122957610608565b8063deb9f76a1461116d578063df3addfa14611189578063e204b102146111a557610608565b8063ce64bf9b14611061578063d4e57ff014611091578063d95a61d5146110c1578063d96ce73f146110f1578063dcfa705714611121578063dd0357651461115157610608565b8063b150876011610267578063bd1602d111610220578063c0e0feb4116101fa578063c0e0feb414610fdd578063c2eca9bc14610ff9578063c318fe5f14611029578063cddd6c631461104557610608565b8063bd1602d114610f89578063bebfd76614610fa5578063bfb9d44c14610fc157610608565b8063b150876014610ec9578063b373a43414610ee7578063b4da858414610f03578063b7dc128414610f1f578063bb69df7214610f3d578063bca24bd414610f5957610608565b8063a549e416116102d4578063aaa4b24e116102ae578063aaa4b24e14610e55578063ab7cee7714610e71578063ab99631714610e8f578063ad3a6ad414610ead57610608565b8063a549e41614610e01578063a755ca5314610e1d578063a7ab847214610e3957610608565b8063951d5fee14610d2b57806396c82e5714610d4957806396f979d214610d675780639709ee0114610d9957806397e92d5214610dc95780639e12237714610de557610608565b80635ca24db01161049957806372c30f45116103e557806382ff0a5a1161039e57806386875ea81161037857806386875ea814610c935780638bbb3be114610caf57806391c89deb14610ccb5780639476cf9b14610cfb57610608565b806382ff0a5a14610c035780638377b69014610c33578063851580a714610c6357610608565b806372c30f4514610b1d5780637883467814610b395780637ce28bac14610b695780637e4d164114610b9b5780637fa7e04d14610bb7578063827e573114610bd357610608565b80636b792cc8116104525780636e9b0f8f1161042c5780636e9b0f8f14610a995780636fcf4f9614610ac9578063700ed28b14610ae557806372ab4e9614610b0157610608565b80636b792cc814610a455780636d889f8414610a615780636e428d2d14610a7d57610608565b80635ca24db0146109875780635e383d46146109b75780635f63efe2146109d3578063643d172c146109ef5780636605515914610a0b5780636798bad914610a2957610608565b80633abdb63d116105585780634b974df7116105115780634dcb6366116104eb5780634dcb6366146108ec578063513856c81461090857806356e760581461093b5780635953faff1461096b57610608565b80634b974df7146108965780634d27e912146108b25780634d652350146108ce57610608565b80633abdb63d146107c2578063406143ae146107de578063439fc3d11461080e57806345073d5c1461082c57806346be313614610848578063494e23711461086657610608565b80631928f3bc116105c55780632359b7b81161059f5780632359b7b8146107375780632b0816ac1461075557806334ac0b401461077157806338f6a6bd146107a657610608565b80631928f3bc146106e15780631dd86f90146106ff5780631fe76a6c1461071b57610608565b8063034f578e1461060d57806307061e011461062b57806308a2037f1461065b5780630f7f13cf146106775780630fa1c271146106a757806318860d37146106c3575b600080fd5b610615611418565b6040516106229190615250565b60405180910390f35b61064560048036038101906106409190614bec565b61141e565b6040516106529190615250565b60405180910390f35b61067560048036038101906106709190614b8c565b611450565b005b610691600480360381019061068c9190614960565b61147b565b60405161069e9190615250565b60405180910390f35b6106c160048036038101906106bc9190614bec565b611493565b005b6106cb611557565b6040516106d891906150d1565b60405180910390f35b6106e96115af565b6040516106f69190615250565b60405180910390f35b61071960048036038101906107149190614ca0565b6115b5565b005b61073560048036038101906107309190614ca0565b611669565b005b61073f61169a565b60405161074c91906150d1565b60405180910390f35b61076f600480360381019061076a9190614a63565b6116f2565b005b61078b60048036038101906107869190614a63565b611739565b60405161079d969594939291906152f5565b60405180910390f35b6107c060048036038101906107bb9190614ca0565b61181d565b005b6107dc60048036038101906107d79190614a63565b6118f5565b005b6107f860048036038101906107f39190614a63565b6119dd565b60405161080591906150d1565b60405180910390f35b610816611a4b565b604051610823919061510e565b60405180910390f35b61084660048036038101906108419190614b30565b611ad9565b005b610850611b66565b60405161085d9190615250565b60405180910390f35b610880600480360381019061087b9190614a63565b611b6c565b60405161088d9190615250565b60405180910390f35b6108b060048036038101906108ab9190614bec565b611b90565b005b6108cc60048036038101906108c79190614ca0565b611d2a565b005b6108d6611d5b565b6040516108e391906150d1565b60405180910390f35b61090660048036038101906109019190614b30565b611db3565b005b610922600480360381019061091d9190614a63565b611e40565b60405161093294939291906152a9565b60405180910390f35b61095560048036038101906109509190614a63565b611f18565b6040516109629190615250565b60405180910390f35b610985600480360381019061098091906149cd565b611f3c565b005b6109a1600480360381019061099c9190614a63565b611ffe565b6040516109ae91906150d1565b60405180910390f35b6109d160048036038101906109cc919061498d565b61206c565b005b6109ed60048036038101906109e89190614a63565b6120dd565b005b610a096004803603810190610a049190614a63565b6120e7565b005b610a1361212b565b604051610a209190615250565b60405180910390f35b610a436004803603810190610a3e9190614a63565b612131565b005b610a5f6004803603810190610a5a9190614a63565b61213b565b005b610a7b6004803603810190610a769190614ca0565b612145565b005b610a976004803603810190610a929190614bec565b61221d565b005b610ab36004803603810190610aae9190614a63565b6123b7565b604051610ac09190615250565b60405180910390f35b610ae36004803603810190610ade9190614a63565b6123d7565b005b610aff6004803603810190610afa9190614bec565b612542565b005b610b1b6004803603810190610b169190614bec565b612606565b005b610b376004803603810190610b329190614a63565b6126ca565b005b610b536004803603810190610b4e9190614a63565b612796565b604051610b6091906150af565b60405180910390f35b610b836004803603810190610b7e9190614a63565b612885565b604051610b929392919061526b565b60405180910390f35b610bb56004803603810190610bb09190614a16565b612957565b005b610bd16004803603810190610bcc9190614b8c565b61296d565b005b610bed6004803603810190610be89190614a63565b612998565b604051610bfa91906150d1565b60405180910390f35b610c1d6004803603810190610c189190614a63565b612a06565b604051610c2a91906150d1565b60405180910390f35b610c4d6004803603810190610c489190614bec565b612a74565b604051610c5a9190615250565b60405180910390f35b610c7d6004803603810190610c789190614bec565b612aa6565b604051610c8a9190615250565b60405180910390f35b610cad6004803603810190610ca89190614bec565b612ad8565b005b610cc96004803603810190610cc4919061498d565b612c72565b005b610ce56004803603810190610ce09190614a63565b612d2a565b604051610cf291906150d1565b60405180910390f35b610d156004803603810190610d109190614a63565b612d98565b604051610d229190615250565b60405180910390f35b610d33612dbc565b604051610d409190615250565b60405180910390f35b610d51612dc2565b604051610d5e9190615250565b60405180910390f35b610d816004803603810190610d7c9190614a63565b612dc8565b604051610d909392919061535d565b60405180910390f35b610db36004803603810190610dae9190614bec565b612e7a565b604051610dc09190615250565b60405180910390f35b610de36004803603810190610dde9190614ad0565b612eac565b005b610dff6004803603810190610dfa9190614b8c565b613005565b005b610e1b6004803603810190610e16919061498d565b613030565b005b610e376004803603810190610e329190614bec565b6130bc565b005b610e536004803603810190610e4e9190614b8c565b6130fd565b005b610e6f6004803603810190610e6a9190614bec565b6131ab565b005b610e796131ca565b604051610e869190615250565b60405180910390f35b610e976131d0565b604051610ea49190615250565b60405180910390f35b610ec76004803603810190610ec29190614ad0565b6131d6565b005b610ed161332f565b604051610ede91906150d1565b60405180910390f35b610f016004803603810190610efc9190614a63565b613387565b005b610f1d6004803603810190610f189190614bec565b613391565b005b610f27613433565b604051610f349190615250565b60405180910390f35b610f576004803603810190610f529190614bec565b613439565b005b610f736004803603810190610f6e9190614a63565b613539565b604051610f809190615250565b60405180910390f35b610fa36004803603810190610f9e9190614a63565b61355d565b005b610fbf6004803603810190610fba9190614b8c565b613567565b005b610fdb6004803603810190610fd6919061498d565b6135be565b005b610ff76004803603810190610ff29190614b8c565b61364a565b005b611013600480360381019061100e9190614c2c565b6138a1565b60405161102091906150f3565b60405180910390f35b611043600480360381019061103e9190614a90565b61393a565b005b61105f600480360381019061105a9190614a90565b613a16565b005b61107b60048036038101906110769190614a63565b613a6f565b60405161108891906150d1565b60405180910390f35b6110ab60048036038101906110a69190614960565b613add565b6040516110b89190615250565b60405180910390f35b6110db60048036038101906110d69190614960565b613af5565b6040516110e89190615250565b60405180910390f35b61110b60048036038101906111069190614a63565b613b0d565b60405161111891906150d1565b60405180910390f35b61113b60048036038101906111369190614a63565b613b7b565b6040516111489190615250565b60405180910390f35b61116b60048036038101906111669190614a63565b613b9f565b005b61118760048036038101906111829190614a63565b613ba9565b005b6111a3600480360381019061119e9190614a63565b613bb3565b005b6111bf60048036038101906111ba9190614bec565b613c7f565b005b6111db60048036038101906111d69190614bec565b613c9e565b005b6111f760048036038101906111f29190614bec565b613d40565b005b611213600480360381019061120e9190614a63565b613eda565b60405161122091906150d1565b60405180910390f35b611243600480360381019061123e9190614bec565b613f48565b005b61125f600480360381019061125a9190614bec565b61400c565b005b61127b60048036038101906112769190614bec565b6141a6565b6040516112889190615250565b60405180910390f35b6112ab60048036038101906112a69190614bec565b6141d8565b6040516112b89190615250565b60405180910390f35b6112db60048036038101906112d69190614960565b61420a565b6040516112e89190615250565b60405180910390f35b61130b60048036038101906113069190614a63565b614222565b60405161131992919061539b565b60405180910390f35b61133c60048036038101906113379190614bec565b614246565b005b61135860048036038101906113539190614ad0565b614265565b005b611374600480360381019061136f9190614ca0565b61433b565b005b61137e614413565b60405161138b91906150d1565b60405180910390f35b6113ae60048036038101906113a99190614a63565b61446b565b6040516113bb91906150d1565b60405180910390f35b6113de60048036038101906113d99190614bec565b6144d9565b005b6113fa60048036038101906113f59190614ca0565b61459d565b005b61141660048036038101906114119190614b30565b6145ce565b005b60175481565b6000600a6000848152602001908152602001600020600501600083815260200190815260200160002054905092915050565b818160086000868152602001908152602001600020600101919061147592919061465b565b50505050565b60026020528060005260406000206000915090505481565b6000805b600960008581526020019081526020016000206003018054905081101561150e57826009600086815260200190815260200160002060030182815481106114e1576114e0615721565b5b906000526020600020015414156114fb576001915061150e565b80806115069061564b565b915050611497565b508061155257600960008481526020019081526020016000206003018290806001815401808255809150506001900390600052602060002001600090919091909150555b505050565b606060138054806020026020016040519081016040528092919081815260200182805480156115a557602002820191906000526020600020905b815481526020019060010190808311611591575b5050505050905090565b60165481565b6000600260003373ffffffffffffffffffffffffffffffffffffffff1673ffffffffffffffffffffffffffffffffffffffff168152602001908152602001600020541415611638576040517f08c379a000000000000000000000000000000000000000000000000000000000815260040161162f90615210565b60405180910390fd5b8060066000858152602001908152602001600020600b01600084815260200190815260200160002081905550505050565b8060066000858152602001908152602001600020600a01600084815260200190815260200160002081905550505050565b606060128054806020026020016040519081016040528092919081815260200182805480156116e857602002820191906000526020600020905b8154815260200190600101908083116116d4575b5050505050905090565b806009600083815260200190815260200160002060000181905550601281908060018154018082558091505060019003906000526020600020016000909190919091505550565b6006602052806000526040600020600091509050806000015490806001018054611762906155e8565b80601f016020809104026020016040519081016040528092919081815260200182805461178e906155e8565b80156117db5780601f106117b0576101008083540402835291602001916117db565b820191906000526020600020905b8154815290600101906020018083116117be57829003601f168201915b5050505050908060040160009054906101000a900473ffffffffffffffffffffffffffffffffffffffff16908060070154908060080154908060090154905086565b6000600a600085815260200190815260200160002060050160008481526020019081526020016000205414611887576040517f08c379a000000000000000000000000000000000000000000000000000000000815260040161187e90615190565b60405180910390fd5b80600a6000858152602001908152602001600020600501600084815260200190815260200160002081905550600a6000848152602001908152602001600020600401819080600181540180825580915050600190039060005260206000200160009091909190915055505050565b6000600760008381526020019081526020016000206000018190555060005b6011805490508110156119d957816011828154811061193657611935615721565b5b906000526020600020015414156119c6576011600160118054905061195b919061552a565b8154811061196c5761196b615721565b5b90600052602060002001546011828154811061198b5761198a615721565b5b906000526020600020018190555060118054806119ab576119aa6156f2565b5b600190038181906000526020600020016000905590556119d9565b80806119d19061564b565b915050611914565b5050565b6060600a6000838152602001908152602001600020600401805480602002602001604051908101604052809291908181526020018280548015611a3f57602002820191906000526020600020905b815481526020019060010190808311611a2b575b50505050509050919050565b60008054611a58906155e8565b80601f0160208091040260200160405190810160405280929190818152602001828054611a84906155e8565b8015611ad15780601f10611aa657610100808354040283529160200191611ad1565b820191906000526020600020905b815481529060010190602001808311611ab457829003601f168201915b505050505081565b60005b8151811015611b3f576000600a60008581526020019081526020016000206003016000848481518110611b1257611b11615721565b5b60200260200101518152602001908152602001600020819055508080611b379061564b565b915050611adc565b50600a60008381526020019081526020016000206002016000611b6291906146e1565b5050565b600b5481565b60128181548110611b7c57600080fd5b906000526020600020016000915090505481565b60008080600090505b6006600086815260200190815260200160002060050180549050811015611c135783600660008781526020019081526020016000206005018281548110611be357611be2615721565b5b90600052602060002001541415611c005760019250809150611c13565b8080611c0b9061564b565b915050611b99565b508115611ce9576006600085815260200190815260200160002060050160016006600087815260200190815260200160002060050180549050611c56919061552a565b81548110611c6757611c66615721565b5b9060005260206000200154600660008681526020019081526020016000206005018281548110611c9a57611c99615721565b5b906000526020600020018190555060066000858152602001908152602001600020600501805480611cce57611ccd6156f2565b5b60019003818190600052602060002001600090559055611d24565b6040517f08c379a0000000000000000000000000000000000000000000000000000000008152600401611d1b90615170565b60405180910390fd5b50505050565b8060076000858152602001908152602001600020600501600084815260200190815260200160002081905550505050565b60606010805480602002602001604051908101604052809291908181526020018280548015611da957602002820191906000526020600020905b815481526020019060010190808311611d95575b5050505050905090565b60005b8151811015611e19576000600a60008581526020019081526020016000206007016000848481518110611dec57611deb615721565b5b60200260200101518152602001908152602001600020819055508080611e119061564b565b915050611db6565b50600a60008381526020019081526020016000206006016000611e3c91906146e1565b5050565b6007602052806000526040600020600091509050806000015490806001018054611e69906155e8565b80601f0160208091040260200160405190810160405280929190818152602001828054611e95906155e8565b8015611ee25780601f10611eb757610100808354040283529160200191611ee2565b820191906000526020600020905b815481529060010190602001808311611ec557829003601f168201915b5050505050908060020160009054906101000a900473ffffffffffffffffffffffffffffffffffffffff16908060030154905084565b60118181548110611f2857600080fd5b906000526020600020016000915090505481565b601280549050815114611f84576040517f08c379a0000000000000000000000000000000000000000000000000000000008152600401611f7b906151b0565b60405180910390fd5b60005b601280549050811015611ffa57818181518110611fa757611fa6615721565b5b60200260200101516009600060128481548110611fc757611fc6615721565b5b90600052602060002001548152602001908152602001600020600201819055508080611ff29061564b565b915050611f87565b5050565b6060600a600083815260200190815260200160002060020180548060200260200160405190810160405280929190818152602001828054801561206057602002820191906000526020600020905b81548152602001906001019080831161204c575b50505050509050919050565b80600460008473ffffffffffffffffffffffffffffffffffffffff1673ffffffffffffffffffffffffffffffffffffffff1681526020019081526020016000208190555060138190806001815401808255809150506001900390600052602060002001600090919091909150555050565b8060168190555050565b6014819080600181540180825580915050600190039060005260206000200160009091909190915055600f60008154809291906121239061564b565b919050555050565b600e5481565b80600b8190555050565b8060158190555050565b6000600a6000858152602001908152602001600020600301600084815260200190815260200160002054146121af576040517f08c379a00000000000000000000000000000000000000000000000000000000081526004016121a690615150565b60405180910390fd5b80600a6000858152602001908152602001600020600301600084815260200190815260200160002081905550600a6000848152602001908152602001600020600201819080600181540180825580915050600190039060005260206000200160009091909190915055505050565b60008080600090505b60096000868152602001908152602001600020600301805490508110156122a057836009600087815260200190815260200160002060030182815481106122705761226f615721565b5b9060005260206000200154141561228d57600192508091506122a0565b80806122989061564b565b915050612226565b5081156123765760096000858152602001908152602001600020600301600160096000878152602001908152602001600020600301805490506122e3919061552a565b815481106122f4576122f3615721565b5b906000526020600020015460096000868152602001908152602001600020600301828154811061232757612326615721565b5b90600052602060002001819055506009600085815260200190815260200160002060030180548061235b5761235a6156f2565b5b600190038181906000526020600020016000905590556123b1565b6040517f08c379a00000000000000000000000000000000000000000000000000000000081526004016123a890615170565b60405180910390fd5b50505050565b600060096000838152602001908152602001600020600201549050919050565b6000600260003373ffffffffffffffffffffffffffffffffffffffff1673ffffffffffffffffffffffffffffffffffffffff16815260200190815260200160002054141561245a576040517f08c379a000000000000000000000000000000000000000000000000000000000815260040161245190615210565b60405180910390fd5b6000600660008381526020019081526020016000206000018190555060005b60108054905081101561253e57816010828154811061249b5761249a615721565b5b9060005260206000200154141561252b57601060016010805490506124c0919061552a565b815481106124d1576124d0615721565b5b9060005260206000200154601082815481106124f0576124ef615721565b5b906000526020600020018190555060108054806125105761250f6156f2565b5b6001900381819060005260206000200160009055905561253e565b80806125369061564b565b915050612479565b5050565b6000805b60066000858152602001908152602001600020600501805490508110156125bd57826006600086815260200190815260200160002060050182815481106125905761258f615721565b5b906000526020600020015414156125aa57600191506125bd565b80806125b59061564b565b915050612546565b508061260157600660008481526020019081526020016000206005018290806001815401808255809150506001900390600052602060002001600090919091909150555b505050565b6000805b6007600085815260200190815260200160002060040180549050811015612681578260076000868152602001908152602001600020600401828154811061265457612653615721565b5b9060005260206000200154141561266e5760019150612681565b80806126799061564b565b91505061260a565b50806126c557600760008481526020019081526020016000206004018290806001815401808255809150506001900390600052602060002001600090919091909150555b505050565b60005b6013805490508110156127925781601382815481106126ef576126ee615721565b5b9060005260206000200154141561277f5760136001601380549050612714919061552a565b8154811061272557612724615721565b5b90600052602060002001546013828154811061274457612743615721565b5b90600052602060002001819055506013805480612764576127636156f2565b5b60019003818190600052602060002001600090559055612792565b808061278a9061564b565b9150506126cd565b5050565b606060066000838152602001908152602001600020600201805480602002602001604051908101604052809291908181526020016000905b8282101561287a5783829060005260206000200180546127ed906155e8565b80601f0160208091040260200160405190810160405280929190818152602001828054612819906155e8565b80156128665780601f1061283b57610100808354040283529160200191612866565b820191906000526020600020905b81548152906001019060200180831161284957829003601f168201915b5050505050815260200190600101906127ce565b505050509050919050565b60086020528060005260406000206000915090508060000154908060010180546128ae906155e8565b80601f01602080910402602001604051908101604052809291908181526020018280546128da906155e8565b80156129275780601f106128fc57610100808354040283529160200191612927565b820191906000526020600020905b81548152906001019060200180831161290a57829003601f168201915b5050505050908060020160009054906101000a900473ffffffffffffffffffffffffffffffffffffffff16905083565b81816000919061296892919061465b565b505050565b818160076000868152602001908152602001600020600101919061299292919061465b565b50505050565b6060600660008381526020019081526020016000206006018054806020026020016040519081016040528092919081815260200182805480156129fa57602002820191906000526020600020905b8154815260200190600101908083116129e6575b50505050509050919050565b606060096000838152602001908152602001600020600301805480602002602001604051908101604052809291908181526020018280548015612a6857602002820191906000526020600020905b815481526020019060010190808311612a54575b50505050509050919050565b6000600a6000848152602001908152602001600020600301600083815260200190815260200160002054905092915050565b600060066000848152602001908152602001600020600b01600083815260200190815260200160002054905092915050565b60008080600090505b6009600086815260200190815260200160002060040180549050811015612b5b5783600960008781526020019081526020016000206004018281548110612b2b57612b2a615721565b5b90600052602060002001541415612b485760019250809150612b5b565b8080612b539061564b565b915050612ae1565b508115612c31576009600085815260200190815260200160002060040160016009600087815260200190815260200160002060040180549050612b9e919061552a565b81548110612baf57612bae615721565b5b9060005260206000200154600960008681526020019081526020016000206004018281548110612be257612be1615721565b5b906000526020600020018190555060096000858152602001908152602001600020600401805480612c1657612c156156f2565b5b60019003818190600052602060002001600090559055612c6c565b6040517f08c379a0000000000000000000000000000000000000000000000000000000008152600401612c6390615170565b60405180910390fd5b50505050565b80600560008473ffffffffffffffffffffffffffffffffffffffff1673ffffffffffffffffffffffffffffffffffffffff16815260200190815260200160002081905550806008600083815260200190815260200160002060000181905550816008600083815260200190815260200160002060020160006101000a81548173ffffffffffffffffffffffffffffffffffffffff021916908373ffffffffffffffffffffffffffffffffffffffff1602179055505050565b606060096000838152602001908152602001600020600401805480602002602001604051908101604052809291908181526020018280548015612d8c57602002820191906000526020600020905b815481526020019060010190808311612d78575b50505050509050919050565b60148181548110612da857600080fd5b906000526020600020016000915090505481565b60155481565b60015481565b6009602052806000526040600020600091509050806000015490806001018054612df1906155e8565b80601f0160208091040260200160405190810160405280929190818152602001828054612e1d906155e8565b8015612e6a5780601f10612e3f57610100808354040283529160200191612e6a565b820191906000526020600020905b815481529060010190602001808311612e4d57829003601f168201915b5050505050908060020154905083565b600060076000848152602001908152602001600020600501600083815260200190815260200160002054905092915050565b6000600260003373ffffffffffffffffffffffffffffffffffffffff1673ffffffffffffffffffffffffffffffffffffffff168152602001908152602001600020541415612f2f576040517f08c379a0000000000000000000000000000000000000000000000000000000008152600401612f2690615210565b60405180910390fd5b6012805490508282905014612f79576040517f08c379a0000000000000000000000000000000000000000000000000000000008152600401612f7090615230565b60405180910390fd5b60005b601280549050811015612fff57828282818110612f9c57612f9b615721565b5b9050602002013560066000868152602001908152602001600020600a01600060128481548110612fcf57612fce615721565b5b90600052602060002001548152602001908152602001600020819055508080612ff79061564b565b915050612f7c565b50505050565b818160096000868152602001908152602001600020600101919061302a92919061465b565b50505050565b80600260008473ffffffffffffffffffffffffffffffffffffffff1673ffffffffffffffffffffffffffffffffffffffff1681526020019081526020016000208190555080600660008381526020019081526020016000206000018190555060108190806001815401808255809150506001900390600052602060002001600090919091909150555050565b600660008381526020019081526020016000206003018190806001815401808255809150506001900390600052602060002001600090919091909150555050565b6000600260003373ffffffffffffffffffffffffffffffffffffffff1673ffffffffffffffffffffffffffffffffffffffff168152602001908152602001600020541415613180576040517f08c379a000000000000000000000000000000000000000000000000000000000815260040161317790615210565b60405180910390fd5b81816006600086815260200190815260200160002060010191906131a592919061465b565b50505050565b80600a6000848152602001908152602001600020600101819055505050565b600f5481565b600d5481565b6000600260003373ffffffffffffffffffffffffffffffffffffffff1673ffffffffffffffffffffffffffffffffffffffff168152602001908152602001600020541415613259576040517f08c379a000000000000000000000000000000000000000000000000000000000815260040161325090615210565b60405180910390fd5b60128054905082829050146132a3576040517f08c379a000000000000000000000000000000000000000000000000000000000815260040161329a90615130565b60405180910390fd5b60005b601280549050811015613329578282828181106132c6576132c5615721565b5b9050602002013560066000868152602001908152602001600020600b016000601284815481106132f9576132f8615721565b5b906000526020600020015481526020019081526020016000208190555080806133219061564b565b9150506132a6565b50505050565b6060601180548060200260200160405190810160405280929190818152602001828054801561337d57602002820191906000526020600020905b815481526020019060010190808311613369575b5050505050905090565b8060178190555050565b6000600260003373ffffffffffffffffffffffffffffffffffffffff1673ffffffffffffffffffffffffffffffffffffffff168152602001908152602001600020541415613414576040517f08c379a000000000000000000000000000000000000000000000000000000000815260040161340b90615210565b60405180910390fd5b8060066000848152602001908152602001600020600801819055505050565b600c5481565b6000600260003373ffffffffffffffffffffffffffffffffffffffff1673ffffffffffffffffffffffffffffffffffffffff1681526020019081526020016000205414156134bc576040517f08c379a00000000000000000000000000000000000000000000000000000000081526004016134b390615210565b60405180910390fd5b6006600083815260200190815260200160002060070154600160008282546134e4919061552a565b9250508190555080600660008481526020019081526020016000206007018190555060066000838152602001908152602001600020600701546001600082825461352e91906154d4565b925050819055505050565b6013818154811061354957600080fd5b906000526020600020016000915090505481565b80600e8190555050565b600660008481526020019081526020016000206002018282909180600181540180825580915050600190039060005260206000200160009091929091929091929091925091906135b892919061465b565b50505050565b80600360008473ffffffffffffffffffffffffffffffffffffffff1673ffffffffffffffffffffffffffffffffffffffff1681526020019081526020016000208190555080600760008381526020019081526020016000206000018190555060118190806001815401808255809150506001900390600052602060002001600090919091909150555050565b60008080600090505b60066000878152602001908152602001600020600201805490508110156136a457613680868287876138a1565b1561369157600192508091506136a4565b808061369c9061564b565b915050613653565b50811561385f5760066000868152602001908152602001600020600201600160066000888152602001908152602001600020600201805490506136e7919061552a565b815481106136f8576136f7615721565b5b9060005260206000200160066000878152602001908152602001600020600201828154811061372a57613729615721565b5b90600052602060002001908054613740906155e8565b61374b929190614702565b5060066000868152602001908152602001600020600201805480613772576137716156f2565b5b60019003818190600052602060002001600061378e919061478f565b905560066000868152602001908152602001600020600301600160066000888152602001908152602001600020600301805490506137cc919061552a565b815481106137dd576137dc615721565b5b90600052602060002001546006600087815260200190815260200160002060030182815481106138105761380f615721565b5b906000526020600020018190555060066000868152602001908152602001600020600301805480613844576138436156f2565b5b6001900381819060005260206000200160009055905561389a565b6040517f08c379a0000000000000000000000000000000000000000000000000000000008152600401613891906151f0565b60405180910390fd5b5050505050565b6000806006600087815260200190815260200160002060020185815481106138cc576138cb615721565b5b906000526020600020016040516020016138e69190615098565b6040516020818303038152906040528051906020012090506000848460405160200161391392919061507f565b60405160208183030381529060405280519060200120905080821492505050949350505050565b6000600260003373ffffffffffffffffffffffffffffffffffffffff1673ffffffffffffffffffffffffffffffffffffffff1681526020019081526020016000205414156139bd576040517f08c379a00000000000000000000000000000000000000000000000000000000081526004016139b490615210565b60405180910390fd5b806006600084815260200190815260200160002060040160006101000a81548173ffffffffffffffffffffffffffffffffffffffff021916908373ffffffffffffffffffffffffffffffffffffffff1602179055505050565b806007600084815260200190815260200160002060020160006101000a81548173ffffffffffffffffffffffffffffffffffffffff021916908373ffffffffffffffffffffffffffffffffffffffff1602179055505050565b606060076000838152602001908152602001600020600401805480602002602001604051908101604052809291908181526020018280548015613ad157602002820191906000526020600020905b815481526020019060010190808311613abd575b50505050509050919050565b60046020528060005260406000206000915090505481565b60056020528060005260406000206000915090505481565b6060600a6000838152602001908152602001600020600601805480602002602001604051908101604052809291908181526020018280548015613b6f57602002820191906000526020600020905b815481526020019060010190808311613b5b575b50505050509050919050565b60108181548110613b8b57600080fd5b906000526020600020016000915090505481565b80600d8190555050565b80600c8190555050565b60005b601280549050811015613c7b578160128281548110613bd857613bd7615721565b5b90600052602060002001541415613c685760126001601280549050613bfd919061552a565b81548110613c0e57613c0d615721565b5b906000526020600020015460128281548110613c2d57613c2c615721565b5b90600052602060002001819055506012805480613c4d57613c4c6156f2565b5b60019003818190600052602060002001600090559055613c7b565b8080613c739061564b565b915050613bb6565b5050565b8060096000848152602001908152602001600020600201819055505050565b6000600260003373ffffffffffffffffffffffffffffffffffffffff1673ffffffffffffffffffffffffffffffffffffffff168152602001908152602001600020541415613d21576040517f08c379a0000000000000000000000000000000000000000000000000000000008152600401613d1890615210565b60405180910390fd5b8060066000848152602001908152602001600020600901819055505050565b60008080600090505b6007600086815260200190815260200160002060040180549050811015613dc35783600760008781526020019081526020016000206004018281548110613d9357613d92615721565b5b90600052602060002001541415613db05760019250809150613dc3565b8080613dbb9061564b565b915050613d49565b508115613e99576007600085815260200190815260200160002060040160016007600087815260200190815260200160002060040180549050613e06919061552a565b81548110613e1757613e16615721565b5b9060005260206000200154600760008681526020019081526020016000206004018281548110613e4a57613e49615721565b5b906000526020600020018190555060076000858152602001908152602001600020600401805480613e7e57613e7d6156f2565b5b60019003818190600052602060002001600090559055613ed4565b6040517f08c379a0000000000000000000000000000000000000000000000000000000008152600401613ecb90615170565b60405180910390fd5b50505050565b606060066000838152602001908152602001600020600501805480602002602001604051908101604052809291908181526020018280548015613f3c57602002820191906000526020600020905b815481526020019060010190808311613f28575b50505050509050919050565b6000805b6006600085815260200190815260200160002060060180549050811015613fc35782600660008681526020019081526020016000206006018281548110613f9657613f95615721565b5b90600052602060002001541415613fb05760019150613fc3565b8080613fbb9061564b565b915050613f4c565b508061400757600660008481526020019081526020016000206006018290806001815401808255809150506001900390600052602060002001600090919091909150555b505050565b60008080600090505b600660008681526020019081526020016000206006018054905081101561408f578360066000878152602001908152602001600020600601828154811061405f5761405e615721565b5b9060005260206000200154141561407c576001925080915061408f565b80806140879061564b565b915050614015565b5081156141655760066000858152602001908152602001600020600601600160066000878152602001908152602001600020600601805490506140d2919061552a565b815481106140e3576140e2615721565b5b906000526020600020015460066000868152602001908152602001600020600601828154811061411657614115615721565b5b90600052602060002001819055506006600085815260200190815260200160002060060180548061414a576141496156f2565b5b600190038181906000526020600020016000905590556141a0565b6040517f08c379a000000000000000000000000000000000000000000000000000000000815260040161419790615170565b60405180910390fd5b50505050565b600060066000848152602001908152602001600020600a01600083815260200190815260200160002054905092915050565b6000600a6000848152602001908152602001600020600701600083815260200190815260200160002054905092915050565b60036020528060005260406000206000915090505481565b600a6020528060005260406000206000915090508060000154908060010154905082565b8060076000848152602001908152602001600020600301819055505050565b60128054905082829050146142af576040517f08c379a00000000000000000000000000000000000000000000000000000000081526004016142a690615230565b60405180910390fd5b60005b601280549050811015614335578282828181106142d2576142d1615721565b5b905060200201356007600086815260200190815260200160002060050160006012848154811061430557614304615721565b5b9060005260206000200154815260200190815260200160002081905550808061432d9061564b565b9150506142b2565b50505050565b6000600a6000858152602001908152602001600020600701600084815260200190815260200160002054146143a5576040517f08c379a000000000000000000000000000000000000000000000000000000000815260040161439c906151d0565b60405180910390fd5b80600a6000858152602001908152602001600020600701600084815260200190815260200160002081905550600a6000848152602001908152602001600020600601819080600181540180825580915050600190039060005260206000200160009091909190915055505050565b6060601480548060200260200160405190810160405280929190818152602001828054801561446157602002820191906000526020600020905b81548152602001906001019080831161444d575b5050505050905090565b6060600660008381526020019081526020016000206003018054806020026020016040519081016040528092919081815260200182805480156144cd57602002820191906000526020600020905b8154815260200190600101908083116144b9575b50505050509050919050565b6000805b6009600085815260200190815260200160002060040180549050811015614554578260096000868152602001908152602001600020600401828154811061452757614526615721565b5b906000526020600020015414156145415760019150614554565b808061454c9061564b565b9150506144dd565b508061459857600960008481526020019081526020016000206004018290806001815401808255809150506001900390600052602060002001600090919091909150555b505050565b8060086000858152602001908152602001600020600301600084815260200190815260200160002081905550505050565b60005b8151811015614634576000600a6000858152602001908152602001600020600501600084848151811061460757614606615721565b5b6020026020010151815260200190815260200160002081905550808061462c9061564b565b9150506145d1565b50600a6000838152602001908152602001600020600401600061465791906146e1565b5050565b828054614667906155e8565b90600052602060002090601f01602090048101928261468957600085556146d0565b82601f106146a257803560ff19168380011785556146d0565b828001600101855582156146d0579182015b828111156146cf5782358255916020019190600101906146b4565b5b5090506146dd91906147cf565b5090565b50805460008255906000526020600020908101906146ff91906147cf565b50565b82805461470e906155e8565b90600052602060002090601f016020900481019282614730576000855561477e565b82601f10614741578054855561477e565b8280016001018555821561477e57600052602060002091601f016020900482015b8281111561477d578254825591600101919060010190614762565b5b50905061478b91906147cf565b5090565b50805461479b906155e8565b6000825580601f106147ad57506147cc565b601f0160209004906000526020600020908101906147cb91906147cf565b5b50565b5b808211156147e85760008160009055506001016147d0565b5090565b60006147ff6147fa846153e9565b6153c4565b9050808382526020820190508285602086028201111561482257614821615789565b5b60005b858110156148525781614838888261494b565b845260208401935060208301925050600181019050614825565b5050509392505050565b60008135905061486b81615a24565b92915050565b60008083601f84011261488757614886615784565b5b8235905067ffffffffffffffff8111156148a4576148a361577f565b5b6020830191508360208202830111156148c0576148bf615789565b5b9250929050565b600082601f8301126148dc576148db615784565b5b81356148ec8482602086016147ec565b91505092915050565b60008083601f84011261490b5761490a615784565b5b8235905067ffffffffffffffff8111156149285761492761577f565b5b60208301915083600182028301111561494457614943615789565b5b9250929050565b60008135905061495a81615a3b565b92915050565b60006020828403121561497657614975615793565b5b60006149848482850161485c565b91505092915050565b600080604083850312156149a4576149a3615793565b5b60006149b28582860161485c565b92505060206149c38582860161494b565b9150509250929050565b6000602082840312156149e3576149e2615793565b5b600082013567ffffffffffffffff811115614a0157614a0061578e565b5b614a0d848285016148c7565b91505092915050565b60008060208385031215614a2d57614a2c615793565b5b600083013567ffffffffffffffff811115614a4b57614a4a61578e565b5b614a57858286016148f5565b92509250509250929050565b600060208284031215614a7957614a78615793565b5b6000614a878482850161494b565b91505092915050565b60008060408385031215614aa757614aa6615793565b5b6000614ab58582860161494b565b9250506020614ac68582860161485c565b9150509250929050565b600080600060408486031215614ae957614ae8615793565b5b6000614af78682870161494b565b935050602084013567ffffffffffffffff811115614b1857614b1761578e565b5b614b2486828701614871565b92509250509250925092565b60008060408385031215614b4757614b46615793565b5b6000614b558582860161494b565b925050602083013567ffffffffffffffff811115614b7657614b7561578e565b5b614b82858286016148c7565b9150509250929050565b600080600060408486031215614ba557614ba4615793565b5b6000614bb38682870161494b565b935050602084013567ffffffffffffffff811115614bd457614bd361578e565b5b614be0868287016148f5565b92509250509250925092565b60008060408385031215614c0357614c02615793565b5b6000614c118582860161494b565b9250506020614c228582860161494b565b9150509250929050565b60008060008060608587031215614c4657614c45615793565b5b6000614c548782880161494b565b9450506020614c658782880161494b565b935050604085013567ffffffffffffffff811115614c8657614c8561578e565b5b614c92878288016148f5565b925092505092959194509250565b600080600060608486031215614cb957614cb8615793565b5b6000614cc78682870161494b565b9350506020614cd88682870161494b565b9250506040614ce98682870161494b565b9150509250925092565b6000614cff8383614e35565b905092915050565b6000614d138383615061565b60208301905092915050565b614d288161555e565b82525050565b6000614d398261544a565b614d438185615485565b935083602082028501614d5585615415565b8060005b85811015614d915784840389528151614d728582614cf3565b9450614d7d8361546b565b925060208a01995050600181019050614d59565b50829750879550505050505092915050565b6000614dae82615455565b614db88185615496565b9350614dc383615425565b8060005b83811015614df4578151614ddb8882614d07565b9750614de683615478565b925050600181019050614dc7565b5085935050505092915050565b614e0a81615570565b82525050565b6000614e1c83856154c9565b9350614e298385846155a6565b82840190509392505050565b6000614e4082615460565b614e4a81856154a7565b9350614e5a8185602086016155b5565b614e6381615798565b840191505092915050565b6000614e7982615460565b614e8381856154b8565b9350614e938185602086016155b5565b614e9c81615798565b840191505092915050565b60008154614eb4816155e8565b614ebe81866154c9565b94506001821660008114614ed95760018114614eea57614f1d565b60ff19831686528186019350614f1d565b614ef385615435565b60005b83811015614f1557815481890152600182019150602081019050614ef6565b838801955050505b50505092915050565b6000614f336060836154b8565b9150614f3e826157a9565b606082019050919050565b6000614f566015836154b8565b9150614f618261581e565b602082019050919050565b6000614f796010836154b8565b9150614f8482615847565b602082019050919050565b6000614f9c6015836154b8565b9150614fa782615870565b602082019050919050565b6000614fbf6022836154b8565b9150614fca82615899565b604082019050919050565b6000614fe26015836154b8565b9150614fed826158e8565b602082019050919050565b6000615005601b836154b8565b915061501082615911565b602082019050919050565b6000615028602f836154b8565b91506150338261593a565b604082019050919050565b600061504b6061836154b8565b915061505682615989565b608082019050919050565b61506a8161559c565b82525050565b6150798161559c565b82525050565b600061508c828486614e10565b91508190509392505050565b60006150a48284614ea7565b915081905092915050565b600060208201905081810360008301526150c98184614d2e565b905092915050565b600060208201905081810360008301526150eb8184614da3565b905092915050565b60006020820190506151086000830184614e01565b92915050565b600060208201905081810360008301526151288184614e6e565b905092915050565b6000602082019050818103600083015261514981614f26565b9050919050565b6000602082019050818103600083015261516981614f49565b9050919050565b6000602082019050818103600083015261518981614f6c565b9050919050565b600060208201905081810360008301526151a981614f8f565b9050919050565b600060208201905081810360008301526151c981614fb2565b9050919050565b600060208201905081810360008301526151e981614fd5565b9050919050565b6000602082019050818103600083015261520981614ff8565b9050919050565b600060208201905081810360008301526152298161501b565b9050919050565b600060208201905081810360008301526152498161503e565b9050919050565b60006020820190506152656000830184615070565b92915050565b60006060820190506152806000830186615070565b81810360208301526152928185614e6e565b90506152a16040830184614d1f565b949350505050565b60006080820190506152be6000830187615070565b81810360208301526152d08186614e6e565b90506152df6040830185614d1f565b6152ec6060830184615070565b95945050505050565b600060c08201905061530a6000830189615070565b818103602083015261531c8188614e6e565b905061532b6040830187614d1f565b6153386060830186615070565b6153456080830185615070565b61535260a0830184615070565b979650505050505050565b60006060820190506153726000830186615070565b81810360208301526153848185614e6e565b90506153936040830184615070565b949350505050565b60006040820190506153b06000830185615070565b6153bd6020830184615070565b9392505050565b60006153ce6153df565b90506153da828261561a565b919050565b6000604051905090565b600067ffffffffffffffff82111561540457615403615750565b5b602082029050602081019050919050565b6000819050602082019050919050565b6000819050602082019050919050565b60008190508160005260206000209050919050565b600081519050919050565b600081519050919050565b600081519050919050565b6000602082019050919050565b6000602082019050919050565b600082825260208201905092915050565b600082825260208201905092915050565b600082825260208201905092915050565b600082825260208201905092915050565b600081905092915050565b60006154df8261559c565b91506154ea8361559c565b9250827fffffffffffffffffffffffffffffffffffffffffffffffffffffffffffffffff0382111561551f5761551e615694565b5b828201905092915050565b60006155358261559c565b91506155408361559c565b92508282101561555357615552615694565b5b828203905092915050565b60006155698261557c565b9050919050565b60008115159050919050565b600073ffffffffffffffffffffffffffffffffffffffff82169050919050565b6000819050919050565b82818337600083830152505050565b60005b838110156155d35780820151818401526020810190506155b8565b838111156155e2576000848401525b50505050565b6000600282049050600182168061560057607f821691505b60208210811415615614576156136156c3565b5b50919050565b61562382615798565b810181811067ffffffffffffffff8211171561564257615641615750565b5b80604052505050565b60006156568261559c565b91507fffffffffffffffffffffffffffffffffffffffffffffffffffffffffffffffff82141561568957615688615694565b5b600182019050919050565b7f4e487b7100000000000000000000000000000000000000000000000000000000600052601160045260246000fd5b7f4e487b7100000000000000000000000000000000000000000000000000000000600052602260045260246000fd5b7f4e487b7100000000000000000000000000000000000000000000000000000000600052603160045260246000fd5b7f4e487b7100000000000000000000000000000000000000000000000000000000600052603260045260246000fd5b7f4e487b7100000000000000000000000000000000000000000000000000000000600052604160045260246000fd5b600080fd5b600080fd5b600080fd5b600080fd5b600080fd5b6000601f19601f8301169050919050565b7f5768656e2073657474696e672074686520707265666572656e6365206c65766560008201527f6c206f6620636f75727365732c206974206973206e656365737361727920746f60208201527f206861766520616e20657175616c206e756d626572206f6620636f7572736573604082015250565b7fe8afa5e78fade7baa7e5b7b2e7bb8fe68993e588860000000000000000000000600082015250565b7f436f75727365206e6f7420666f756e6400000000000000000000000000000000600082015250565b7fe8afa5e88081e5b888e5b7b2e7bb8fe68993e588860000000000000000000000600082015250565b7f6d7573742075706461746520616c6c20636f7572736520737569746162696c6960008201527f7479000000000000000000000000000000000000000000000000000000000000602082015250565b7fe8afa5e79da3e5afbce5b7b2e7bb8fe8af84e588860000000000000000000000600082015250565b7f5265616368657220446972656374696f6e206e6f7420666f756e640000000000600082015250565b7f4f6e6c7920726567697374657265642074656163686572732063616e2063616c60008201527f6c20746869732066756e6374696f6e0000000000000000000000000000000000602082015250565b7f5768656e2073657474696e672074686520737569746162696c697479206c657660008201527f656c206f6620636f75727365732c206974206973206e6563657373617279207460208201527f6f206861766520616e20657175616c206e756d626572206f6620636f7572736560408201527f7300000000000000000000000000000000000000000000000000000000000000606082015250565b615a2d8161555e565b8114615a3857600080fd5b50565b615a448161559c565b8114615a4f57600080fd5b5056fea264697066735822122051765b4b61bf861314fc07932621c020a7e5a3bf1fab1e9e29836dc9f829804d64736f6c63430008070033",
  "immutableReferences": {},
  "source": "// SPDX-License-Identifier: MIT\r\npragma solidity ^0.8.7;\r\n\r\ncontract ICourseAllocation {\r\n    // \r\n    struct Teacher {\r\n        uint256 id;\r\n        string name;\r\n        string[] researchDrection;\r\n        uint256[] paperCount;\r\n        address addr;\r\n        uint256[] assignedCourses;\r\n        uint256[] reallyAssignedCourses;\r\n        uint256 suitabilityWeight;\r\n        uint256 transferCourseCoins;\r\n        uint256 value;\r\n        mapping(uint256 => uint256) courseSuitabilities;\r\n        mapping(uint256 => uint256) coursePreferences;\r\n    }\r\n\r\n    // \r\n    struct Agent {\r\n        uint256 id;\r\n        string name;\r\n        address addr;\r\n        uint256 value;\r\n        uint256[] assignedCourses;\r\n        mapping(uint256 => uint256) courseSuitabilities;\r\n    }\r\n\r\n    // \r\n    struct Supervisor {\r\n        uint256 id;\r\n        string name;\r\n        address addr;\r\n        mapping(uint256 => uint256) courseScores;\r\n    }\r\n\r\n    // \r\n    struct Course {\r\n        uint256 id;\r\n        string name;\r\n        uint256 importance;\r\n        uint256[] assignedTeacherId;\r\n        uint256[] assignedAgentId;\r\n    }\r\n\r\n    struct CourseScore {\r\n        uint256 id; // id\r\n        uint256 totalScore;\r\n        uint256[] classScores;\r\n        mapping(uint256 => uint256) giveScoreClassIdExists;\r\n        uint256[] teacherScores;\r\n        mapping(uint256 => uint256) giveScoreTeacherIdExists;\r\n        uint256[] supervisorScores;\r\n        mapping(uint256 => uint256) giveScoreSupervisorIdExists;\r\n    }\r\n    // \r\n    string public ScoreTypeChioce;\r\n\r\n    // \r\n    uint256 public totalWeight;\r\n\r\n    //  => ID\r\n    mapping(address => uint256) public addressToTeacherId;\r\n\r\n    //  => ID\r\n    mapping(address => uint256) public addressToAgentId;\r\n\r\n    //  => ID\r\n    mapping(address => uint256) public addressToClassId;\r\n\r\n    //  => ID\r\n    mapping(address => uint256) public addressToSupervisorId;\r\n\r\n    // ID => \r\n    mapping(uint256 => Teacher) public teachers;\r\n\r\n    // ID => \r\n    mapping(uint256 => Agent) public agents;\r\n\r\n    // ID => \r\n    mapping(uint256 => Supervisor) public supervisors;\r\n\r\n    // ID => \r\n    mapping(uint256 => Course) public courses;\r\n\r\n    // ID => \r\n    mapping(uint256 => CourseScore) public courseScores;\r\n\r\n    // ID\r\n    uint256 public teacherCount;\r\n\r\n    // ID\r\n    uint256 public agentCount;\r\n\r\n    // ID\r\n    uint256 public classCount;\r\n\r\n    // ID\r\n    uint256 public courseCount;\r\n\r\n    // ID\r\n    uint256 public supervisorCount;\r\n\r\n    // ID\r\n    uint256[] public teacherIds;\r\n\r\n    // ID\r\n    uint256[] public agentIds;\r\n\r\n    // ID\r\n    uint256[] public courseIds;\r\n\r\n    // ID\r\n    uint256[] public classIds;\r\n\r\n    // ID\r\n    uint256[] public supervisorIds;\r\n\r\n    // \r\n    uint256 public transferCourseNumbers;\r\n\r\n    // \r\n    uint256 public transferCourseStartTime;\r\n\r\n    // \r\n    uint256 public transferCourseEndTime;\r\n\r\n    // \r\n    // event CourseImportanceSet(uint256 indexed courseId, uint256 importance);\r\n    // event SuitabilityUpdated(uint256 indexed courseId, uint256 suitability);\r\n    // event PreferenceUpdated(uint256 indexed teacherId, uint256 indexed courseId, uint256 preference);\r\n    // event ProposalCreated(uint256 proposalId, uint256 indexed courseId, uint256[] teacherIds); // \r\n    // event MachineProposal(uint256 proposalId, uint256 indexed courseId, uint256[] teacherIds, uint256[] teacherCounts); // \r\n    // event CourseAssignedToTeacher(uint256 indexed courseId, uint256 indexed teacherId); // \r\n\r\n    // \r\n    constructor() {}\r\n\r\n    // \r\n    modifier onlyTeacher() {\r\n        require(\r\n            addressToTeacherId[msg.sender] != 0,\r\n            \"Only registered teachers can call this function\"\r\n        );\r\n        _;\r\n    }\r\n\r\n    // ID\r\n    function setTeacherId(address teacherAddress, uint256 _TeacherId) public {\r\n        addressToTeacherId[teacherAddress] = _TeacherId;\r\n        teachers[_TeacherId].id = _TeacherId;\r\n        teacherIds.push(_TeacherId);\r\n    }\r\n\r\n    // \r\n    function removeTeacher(uint256 teacherId) public onlyTeacher {\r\n        teachers[teacherId].id = 0;\r\n        //  teacherIds  ID\r\n        for (uint256 i = 0; i < teacherIds.length; i++) {\r\n            if (teacherIds[i] == teacherId) {\r\n                //  ID \r\n                teacherIds[i] = teacherIds[teacherIds.length - 1];\r\n                // \r\n                teacherIds.pop();\r\n                break;\r\n            }\r\n        }\r\n    }\r\n\r\n    // \r\n    function setTeacherName(\r\n        uint256 teacherId,\r\n        string calldata _name\r\n    ) public onlyTeacher {\r\n        teachers[teacherId].name = _name;\r\n    }\r\n\r\n    // \r\n    function setTeacherAddress(\r\n        uint256 teacherId,\r\n        address _teacherAddress\r\n    ) public onlyTeacher {\r\n        teachers[teacherId].addr = _teacherAddress;\r\n    }\r\n\r\n    // \r\n    function addTeacherAssignedCourses(\r\n        uint256 teacherId,\r\n        uint256 _assignedCourses\r\n    ) public {\r\n        bool found = false;\r\n        for (uint256 i = 0; i < teachers[teacherId].assignedCourses.length; i++) {\r\n            // require(\r\n            //     teachers[teacherId].assignedCourses[i] != _assignedCourses,\r\n            //     \"Course already assigned\"\r\n            // ); \r\n            if(teachers[teacherId].assignedCourses[i] == _assignedCourses){\r\n               found = true;\r\n               break; \r\n            }\r\n        }\r\n        if(!found) {\r\n            teachers[teacherId].assignedCourses.push(_assignedCourses);\r\n        }\r\n    }\r\n\r\n    // \r\n    function addTeacherResearchDirection(\r\n        uint256 teacherId,\r\n        string calldata _researchDirection\r\n    ) public {\r\n        teachers[teacherId].researchDrection.push(_researchDirection);\r\n    }\r\n\r\n    // \r\n    function addTeacherPaperCount(\r\n        uint256 teacherId,\r\n        uint256 _paperCount\r\n    ) public {\r\n        teachers[teacherId].paperCount.push(_paperCount);\r\n    }\r\n\r\n    // \r\n    function addTeacherReallyAssignedCourses(\r\n        uint256 teacherId,\r\n        uint256 _assignedCourses\r\n    ) public {\r\n        bool found = false;\r\n        for (uint256 i = 0; i < teachers[teacherId].reallyAssignedCourses.length; i++) {\r\n            // require(\r\n            //     teachers[teacherId].reallyAssignedCourses[i]!= _assignedCourses,\r\n            //     \"Course already assigned\"\r\n            // ); \r\n            if(teachers[teacherId].reallyAssignedCourses[i] == _assignedCourses){\r\n                found = true;\r\n                break;\r\n            }\r\n        }\r\n        if(!found) {\r\n            teachers[teacherId].reallyAssignedCourses.push(_assignedCourses); \r\n        }\r\n    }\r\n\r\n    // \r\n    function removeTeacherAssignedCourses(\r\n        uint256 teacherId,\r\n        uint256 _assignedCourses\r\n    ) public {\r\n        bool found = false;\r\n        uint256 indexToRemove;\r\n\r\n        //  ID \r\n        for (\r\n            uint256 i = 0;\r\n            i < teachers[teacherId].assignedCourses.length;\r\n            i++\r\n        ) {\r\n            if (teachers[teacherId].assignedCourses[i] == _assignedCourses) {\r\n                found = true;\r\n                indexToRemove = i;\r\n                break;\r\n            }\r\n        }\r\n\r\n        //  ID\r\n        if (found) {\r\n            // \r\n            teachers[teacherId].assignedCourses[indexToRemove] = teachers[\r\n                teacherId\r\n            ].assignedCourses[teachers[teacherId].assignedCourses.length - 1];\r\n            // \r\n            teachers[teacherId].assignedCourses.pop();\r\n        } else {\r\n            //  ID\r\n            revert(\"Course not found\");\r\n        }\r\n    }\r\n\r\n    // \r\n    function removeTeacherResearchDirection(\r\n        uint256 teacherId,\r\n        string calldata _researchDirection\r\n    ) public {\r\n        bool found = false;\r\n        uint256 indexToRemove;\r\n\r\n        //  ID \r\n        for (\r\n            uint256 i = 0;\r\n            i < teachers[teacherId].researchDrection.length;\r\n            i++\r\n        ) {\r\n            if (compareStrings(teacherId, i , _researchDirection)) {\r\n                found = true;\r\n                indexToRemove = i;\r\n                break;\r\n            }\r\n        }\r\n\r\n        //  ID\r\n        if (found) {\r\n            // \r\n            teachers[teacherId].researchDrection[indexToRemove] = teachers[\r\n                teacherId\r\n            ].researchDrection[teachers[teacherId].researchDrection.length - 1];\r\n            // \r\n            teachers[teacherId].researchDrection.pop();\r\n\r\n            // \r\n            teachers[teacherId].paperCount[indexToRemove] = teachers[\r\n                teacherId\r\n            ].paperCount[teachers[teacherId].paperCount.length - 1];\r\n            // \r\n            teachers[teacherId].paperCount.pop();\r\n\r\n        } else {\r\n            //  ID\r\n            revert(\"Reacher Direction not found\");\r\n        }\r\n    }\r\n\r\n    // \r\n    function compareStrings(uint256 teacherId, uint256 index, string calldata inputString) public view returns (bool) {\r\n        //  storage  calldata  memory\r\n        bytes32 storedHash = keccak256(abi.encodePacked(teachers[teacherId].researchDrection[index]));\r\n        bytes32 inputHash = keccak256(abi.encodePacked(inputString));\r\n\r\n        // \r\n        return storedHash == inputHash;\r\n    }\r\n\r\n    // \r\n    function removeTeacherReallyAssignedCourses(\r\n        uint256 teacherId,\r\n        uint256 _assignedCourses\r\n    ) public {\r\n        bool found = false;\r\n        uint256 indexToRemove;\r\n\r\n        //  ID \r\n        for (\r\n            uint256 i = 0;\r\n            i < teachers[teacherId].reallyAssignedCourses.length;\r\n            i++\r\n        ) {\r\n            if (\r\n                teachers[teacherId].reallyAssignedCourses[i] == _assignedCourses\r\n            ) {\r\n                found = true;\r\n                indexToRemove = i;\r\n                break;\r\n            }\r\n        }\r\n\r\n        //  ID\r\n        if (found) {\r\n            // \r\n            teachers[teacherId].reallyAssignedCourses[indexToRemove] = teachers[\r\n                teacherId\r\n            ].reallyAssignedCourses[\r\n                    teachers[teacherId].reallyAssignedCourses.length - 1\r\n                ];\r\n            // \r\n            teachers[teacherId].reallyAssignedCourses.pop();\r\n        } else {\r\n            //  ID\r\n            revert(\"Course not found\");\r\n        }\r\n    }\r\n\r\n    // \r\n    function setTeacherSuitabilityWeight(\r\n        uint256 teacherId,\r\n        uint256 _suitabilityWeight\r\n    ) public onlyTeacher {\r\n        totalWeight -= teachers[teacherId].suitabilityWeight;\r\n        teachers[teacherId].suitabilityWeight = _suitabilityWeight;\r\n        totalWeight += teachers[teacherId].suitabilityWeight;\r\n    }\r\n\r\n    // \r\n    function setTeacherTransferCourseCoins(\r\n        uint256 teacherId,\r\n        uint256 _transferCourseCoins\r\n    ) public onlyTeacher {\r\n        teachers[teacherId].transferCourseCoins = _transferCourseCoins;\r\n    }\r\n\r\n    // \r\n    function setTeacherValue(\r\n        uint256 teacherId,\r\n        uint256 _value\r\n    ) public onlyTeacher {\r\n        teachers[teacherId].value = _value;\r\n    }\r\n\r\n    // \r\n    function setAgentValue(uint256 agentId, uint256 _value) public {\r\n        agents[agentId].value = _value;\r\n    }\r\n\r\n    // \r\n    function setAllTeacherCourseSuitability(\r\n        uint256 teacherId,\r\n        uint256[] calldata _suitabilities\r\n    ) public onlyTeacher {\r\n        require(\r\n            _suitabilities.length == courseIds.length,\r\n            \"When setting the suitability level of courses, it is necessary to have an equal number of courses\"\r\n        );\r\n        for (\r\n            uint256 courseIndex = 0;\r\n            courseIndex < courseIds.length;\r\n            courseIndex++\r\n        ) {\r\n            teachers[teacherId].courseSuitabilities[\r\n                courseIds[courseIndex]\r\n            ] = _suitabilities[courseIndex];\r\n        }\r\n    }\r\n\r\n    // \r\n    function setTeacherCourseSuitability(\r\n        uint256 teacherId,\r\n        uint256 courseId,\r\n        uint256 _suitability\r\n    ) public {\r\n        teachers[teacherId].courseSuitabilities[courseId] = _suitability;\r\n    }\r\n\r\n    // \r\n    function setAllTeacherCoursePreferences(\r\n        uint256 teacherId,\r\n        uint256[] calldata _preferences\r\n    ) public onlyTeacher {\r\n        require(\r\n            _preferences.length == courseIds.length,\r\n            \"When setting the preference level of courses, it is necessary to have an equal number of courses\"\r\n        );\r\n        for (\r\n            uint256 courseIndex = 0;\r\n            courseIndex < courseIds.length;\r\n            courseIndex++\r\n        ) {\r\n            teachers[teacherId].coursePreferences[\r\n                courseIds[courseIndex]\r\n            ] = _preferences[courseIndex];\r\n        }\r\n    }\r\n\r\n    // \r\n    function setTeacherCoursePreferences(\r\n        uint256 teacherId,\r\n        uint256 courseId,\r\n        uint256 _preference\r\n    ) public onlyTeacher {\r\n        teachers[teacherId].coursePreferences[courseId] = _preference;\r\n    }\r\n\r\n    // ID\r\n    function setAgentId(address agentAddress, uint256 _agentId) public {\r\n        addressToAgentId[agentAddress] = _agentId;\r\n        agents[_agentId].id = _agentId;\r\n        agentIds.push(_agentId);\r\n    }\r\n\r\n    // \r\n    function removeAgent(uint256 agentId) public {\r\n        agents[agentId].id = 0;\r\n        //  agentIds  ID\r\n        for (uint256 i = 0; i < agentIds.length; i++) {\r\n            if (agentIds[i] == agentId) {\r\n                //  ID \r\n                agentIds[i] = agentIds[agentIds.length - 1];\r\n                // \r\n                agentIds.pop();\r\n                break;\r\n            }\r\n        }\r\n    }\r\n\r\n    // \r\n    function setAgentName(uint256 agentId, string calldata _name) public {\r\n        agents[agentId].name = _name;\r\n    }\r\n\r\n    // \r\n    function setAgentAddress(uint256 agentId, address _agentAddress) public {\r\n        agents[agentId].addr = _agentAddress;\r\n    }\r\n\r\n    // \r\n    function addAgentAssignedCourses(\r\n        uint256 agentId,\r\n        uint256 _assignedCourses\r\n    ) public {\r\n        bool found = false;\r\n        for (uint256 i = 0; i < agents[agentId].assignedCourses.length; i++) {\r\n            // require(\r\n            //     agents[agentId].assignedCourses[i]!= _assignedCourses,\r\n            //     \"Course already assigned\"\r\n            // );\r\n            if(agents[agentId].assignedCourses[i] == _assignedCourses){\r\n               found = true;\r\n               break; \r\n            } \r\n        }\r\n        if(!found) {\r\n            agents[agentId].assignedCourses.push(_assignedCourses); \r\n        }\r\n    }\r\n\r\n    // \r\n    function removeAgentAssignedCourses(\r\n        uint256 agentId,\r\n        uint256 _assignedCourses\r\n    ) public {\r\n        bool found = false;\r\n        uint256 indexToRemove;\r\n\r\n        //  ID \r\n        for (uint256 i = 0; i < agents[agentId].assignedCourses.length; i++) {\r\n            if (agents[agentId].assignedCourses[i] == _assignedCourses) {\r\n                found = true;\r\n                indexToRemove = i;\r\n                break;\r\n            }\r\n        }\r\n\r\n        //  ID\r\n        if (found) {\r\n            // \r\n            agents[agentId].assignedCourses[indexToRemove] = agents[agentId]\r\n                .assignedCourses[agents[agentId].assignedCourses.length - 1];\r\n            // \r\n            agents[agentId].assignedCourses.pop();\r\n        } else {\r\n            //  ID\r\n            revert(\"Course not found\");\r\n        }\r\n    }\r\n\r\n    // \r\n    function setAgentCourseSuitability(\r\n        uint256 agentId,\r\n        uint256 _courseId,\r\n        uint256 _suitability\r\n    ) public {\r\n        agents[agentId].courseSuitabilities[_courseId] = _suitability;\r\n    }\r\n\r\n    // \r\n    function setAllAgentCourseSuitability(\r\n        uint256 agentId,\r\n        uint256[] calldata _suitabilities\r\n    ) public {\r\n        require(\r\n            _suitabilities.length == courseIds.length,\r\n            \"When setting the suitability level of courses, it is necessary to have an equal number of courses\"\r\n        );\r\n        for (\r\n            uint256 courseIndex = 0;\r\n            courseIndex < courseIds.length;\r\n            courseIndex++\r\n        ) {\r\n            agents[agentId].courseSuitabilities[\r\n                courseIds[courseIndex]\r\n            ] = _suitabilities[courseIndex];\r\n        }\r\n    }\r\n\r\n    // ID\r\n    function setClassId(address classAddress, uint256 _id) public {\r\n        addressToClassId[classAddress] = _id;\r\n        classIds.push(_id);\r\n    }\r\n\r\n    // \r\n    function removeClass(uint256 classId) public {\r\n        //  classIds  ID\r\n        for (uint256 i = 0; i < classIds.length; i++) {\r\n            if (classIds[i] == classId) {\r\n                //  ID \r\n                classIds[i] = classIds[classIds.length - 1];\r\n                // \r\n                classIds.pop();\r\n                break;\r\n            }\r\n        }\r\n    }\r\n\r\n    // ID\r\n    function setCourseId(uint256 courseId) public {\r\n        courses[courseId].id = courseId;\r\n        courseIds.push(courseId);\r\n    }\r\n\r\n    // \r\n    function removeCourse(uint256 courseId) public {\r\n        //  classIds  ID\r\n        for (uint256 i = 0; i < courseIds.length; i++) {\r\n            if (courseIds[i] == courseId) {\r\n                //  ID \r\n                courseIds[i] = courseIds[courseIds.length - 1];\r\n                // \r\n                courseIds.pop();\r\n                break;\r\n            }\r\n        }\r\n    }\r\n\r\n    // \r\n    function setCourseName(uint256 courseId, string calldata _name) public {\r\n        courses[courseId].name = _name;\r\n    }\r\n\r\n    // \r\n    function setCourseImportance(uint256 courseId, uint256 _importance) public {\r\n        courses[courseId].importance = _importance;\r\n    }\r\n\r\n    // \r\n    function setAllCourseImportance(uint256[] memory _importances) public {\r\n        require(\r\n            _importances.length == courseIds.length,\r\n            \"must update all course suitability\"\r\n        );\r\n        // \r\n        for (\r\n            uint256 courseIndex = 0;\r\n            courseIndex < courseIds.length;\r\n            courseIndex++\r\n        ) {\r\n            courses[courseIds[courseIndex]].importance = _importances[\r\n                courseIndex\r\n            ];\r\n        }\r\n    }\r\n\r\n    // ID\r\n    function addCourseAssignedTeacherId(\r\n        uint256 courseId,\r\n        uint256 _teacherId\r\n    ) public {\r\n        bool found = false;\r\n        for (uint256 i = 0; i < courses[courseId].assignedTeacherId.length; i++) {\r\n            // require(\r\n            //     courses[courseId].assignedTeacherId[i]!= _teacherId,\r\n            //     \"Teacher already assigned\"\r\n            // );\r\n            if (courses[courseId].assignedTeacherId[i] == _teacherId) {\r\n                found = true;\r\n                break; \r\n            }\r\n        }\r\n        if(!found) {\r\n            courses[courseId].assignedTeacherId.push(_teacherId); \r\n        }\r\n    }\r\n\r\n    // ID\r\n    function addCourseAssignedAgentId(\r\n        uint256 courseId,\r\n        uint256 _agentId\r\n    ) public {\r\n        bool found = false;\r\n        for (uint256 i = 0; i < courses[courseId].assignedAgentId.length; i++) {\r\n            // require(\r\n            //     courses[courseId].assignedAgentId[i]!= _agentId,\r\n            //     \"Agent already assigned\"\r\n            // );\r\n            if (courses[courseId].assignedAgentId[i] == _agentId) {\r\n                found = true;\r\n                break;\r\n            } \r\n        }\r\n        if(!found) {\r\n            courses[courseId].assignedAgentId.push(_agentId); \r\n        }\r\n    }\r\n\r\n    // \r\n    function removeCourseAssignedTeacherId(\r\n        uint256 courseId,\r\n        uint256 _teacherId\r\n    ) public {\r\n        bool found = false;\r\n        uint256 indexToRemove;\r\n\r\n        //  ID \r\n        for (\r\n            uint256 i = 0;\r\n            i < courses[courseId].assignedTeacherId.length;\r\n            i++\r\n        ) {\r\n            if (courses[courseId].assignedTeacherId[i] == _teacherId) {\r\n                found = true;\r\n                indexToRemove = i;\r\n                break;\r\n            }\r\n        }\r\n\r\n        //  ID\r\n        if (found) {\r\n            // \r\n            courses[courseId].assignedTeacherId[indexToRemove] = courses[\r\n                courseId\r\n            ].assignedTeacherId[courses[courseId].assignedTeacherId.length - 1];\r\n            // \r\n            courses[courseId].assignedTeacherId.pop();\r\n        } else {\r\n            //  ID\r\n            revert(\"Course not found\");\r\n        }\r\n    }\r\n\r\n    // \r\n    function removeCourseAssignedAgentId(\r\n        uint256 courseId,\r\n        uint256 _agentId\r\n    ) public {\r\n        bool found = false;\r\n        uint256 indexToRemove;\r\n\r\n        //  ID \r\n        for (uint256 i = 0; i < courses[courseId].assignedAgentId.length; i++) {\r\n            if (courses[courseId].assignedAgentId[i] == _agentId) {\r\n                found = true;\r\n                indexToRemove = i;\r\n                break;\r\n            }\r\n        }\r\n\r\n        //  ID\r\n        if (found) {\r\n            // \r\n            courses[courseId].assignedAgentId[indexToRemove] = courses[courseId]\r\n                .assignedAgentId[courses[courseId].assignedAgentId.length - 1];\r\n            // \r\n            courses[courseId].assignedAgentId.pop();\r\n        } else {\r\n            //  ID\r\n            revert(\"Course not found\");\r\n        }\r\n    }\r\n\r\n    // // \r\n    // function setCourseIsAgentSuitable(\r\n    //     uint256 courseId,\r\n    //     bool _isAgentSuitable\r\n    // ) public {\r\n    //     courses[courseId].isAgentSuitable = _isAgentSuitable;\r\n    // }\r\n\r\n    // \r\n    function setTeacherCount(uint256 _teacherCount) public {\r\n        teacherCount = _teacherCount;\r\n    }\r\n\r\n    // \r\n    function setAgentCount(uint256 _agentCount) public {\r\n        agentCount = _agentCount;\r\n    }\r\n\r\n    // \r\n    function setClassCount(uint256 _classCount) public {\r\n        classCount = _classCount;\r\n    }\r\n\r\n    // \r\n    function setCourseCount(uint256 _courseCount) public {\r\n        courseCount = _courseCount;\r\n    }\r\n\r\n    // \r\n    function getTeacherSuitability(\r\n        uint256 _teacherId,\r\n        uint256 courseId\r\n    ) public view returns (uint256) {\r\n        return teachers[_teacherId].courseSuitabilities[courseId];\r\n    }\r\n\r\n    // \r\n    function getAgentSuitability(\r\n        uint256 _agentId,\r\n        uint256 courseId\r\n    ) public view returns (uint256) {\r\n        return agents[_agentId].courseSuitabilities[courseId];\r\n    }\r\n\r\n    // \r\n    function getPreference(\r\n        uint256 _teacherId,\r\n        uint256 courseId\r\n    ) public view returns (uint256) {\r\n        return teachers[_teacherId].coursePreferences[courseId];\r\n    }\r\n\r\n    // \r\n    function getTeacherAssignedCourses(\r\n        uint256 _teacherId\r\n    ) public view returns (uint256[] memory) {\r\n        return teachers[_teacherId].assignedCourses;\r\n    }\r\n\r\n    // \r\n    function getTeacherReallyAssignedCourses(\r\n        uint256 _teacherId\r\n    ) public view returns (uint256[] memory) {\r\n        return teachers[_teacherId].reallyAssignedCourses;\r\n    }\r\n\r\n    // \r\n    function getTeacherResearchDirection(\r\n        uint256 _teacherId\r\n    ) public view returns (string[] memory) {\r\n        return teachers[_teacherId].researchDrection;\r\n    }\r\n\r\n    // \r\n    function getTeacherPaperCount(\r\n        uint256 _teacherId\r\n    ) public view returns (uint256[] memory) {\r\n        return teachers[_teacherId].paperCount;\r\n    }\r\n\r\n    // \r\n    function getAgentAssignedCourses(\r\n        uint256 _agentId\r\n    ) public view returns (uint256[] memory) {\r\n        return agents[_agentId].assignedCourses;\r\n    }\r\n\r\n    // \r\n    function getCoursesAssignedTeacher(\r\n        uint256 _courseId\r\n    ) public view returns (uint256[] memory) {\r\n        return courses[_courseId].assignedTeacherId;\r\n    }\r\n\r\n    // \r\n    function getCoursesAssignedAgent(\r\n        uint256 _courseId\r\n    ) public view returns (uint256[] memory) {\r\n        return courses[_courseId].assignedAgentId;\r\n    }\r\n\r\n    // \r\n    function getCourseImportance(uint courseId) external view returns (uint) {\r\n        return courses[courseId].importance;\r\n    }\r\n\r\n    // // \r\n    // function getCourseIsAgentSuitable(\r\n    //     uint courseId\r\n    // ) external view returns (bool) {\r\n    //     return courses[courseId].isAgentSuitable;\r\n    // }\r\n\r\n    function getTeacherIds() public view returns (uint256[] memory) {\r\n        return teacherIds;\r\n    }\r\n\r\n    function getAgentIds() public view returns (uint256[] memory) {\r\n        return agentIds;\r\n    }\r\n\r\n    function getCourseIds() public view returns (uint256[] memory) {\r\n        return courseIds;\r\n    }\r\n\r\n    function getClassIds() public view returns (uint256[] memory) {\r\n        return classIds;\r\n    }\r\n\r\n    function addCourseClassScores(\r\n        uint256 courseId,\r\n        uint256 classId,\r\n        uint256 score\r\n    ) public {\r\n        require(\r\n            courseScores[courseId].giveScoreClassIdExists[classId] == 0,\r\n            unicode\"\"\r\n        );\r\n        courseScores[courseId].giveScoreClassIdExists[classId] = score;\r\n        courseScores[courseId].classScores.push(score);\r\n    }\r\n\r\n    function getGiveScoreClassIdExists(\r\n        uint256 courseId,\r\n        uint256 classId\r\n    ) public view returns (uint256) {\r\n        return courseScores[courseId].giveScoreClassIdExists[classId];\r\n    }\r\n\r\n    // \r\n    function removeCourseClassScores(\r\n        uint256 courseId,\r\n        uint256[] memory classIds_\r\n    ) public {\r\n        for (uint256 i = 0; i < classIds_.length; i++) {\r\n            courseScores[courseId].giveScoreClassIdExists[classIds_[i]] = 0;\r\n        }\r\n        delete courseScores[courseId].classScores;\r\n    }\r\n\r\n    function getCourseClassScores(\r\n        uint256 courseId\r\n    ) public view returns (uint256[] memory) {\r\n        return courseScores[courseId].classScores;\r\n    }\r\n\r\n    function addTeacherScores(\r\n        uint256 courseId,\r\n        uint256 teacherId,\r\n        uint256 score\r\n    ) public {\r\n        require(\r\n            courseScores[courseId].giveScoreTeacherIdExists[teacherId] == 0,\r\n            unicode\"\"\r\n        );\r\n        courseScores[courseId].giveScoreTeacherIdExists[teacherId] = score;\r\n        courseScores[courseId].teacherScores.push(score);\r\n    }\r\n\r\n    function removeTeacherScores(\r\n        uint256 courseId,\r\n        uint256[] memory teacherIds_\r\n    ) public {\r\n        for (uint256 i = 0; i < teacherIds_.length; i++) {\r\n            courseScores[courseId].giveScoreTeacherIdExists[teacherIds_[i]] = 0;\r\n        }\r\n        delete courseScores[courseId].teacherScores;\r\n    }\r\n\r\n    function getTeacherScores(uint256 courseId) public view returns (uint256[] memory) {\r\n        return courseScores[courseId].teacherScores;\r\n    }\r\n\r\n    function getGiveScoreTeacherIdExists(\r\n        uint256 courseId,\r\n        uint256 teacherId \r\n    ) public view returns (uint256) {\r\n        return courseScores[courseId].giveScoreTeacherIdExists[teacherId]; \r\n    }\r\n\r\n    function setCourseTotalScore(uint256 courseId, uint256 score) public {\r\n        courseScores[courseId].totalScore = score;\r\n    }\r\n\r\n    function addCourseSupervisorScores(\r\n        uint256 courseId,\r\n        uint256 supervisorId,\r\n        uint256 score\r\n    ) public {\r\n        require(\r\n            courseScores[courseId].giveScoreSupervisorIdExists[supervisorId] ==\r\n                0,\r\n            unicode\"\"\r\n        );\r\n        courseScores[courseId].giveScoreSupervisorIdExists[\r\n            supervisorId\r\n        ] = score;\r\n        courseScores[courseId].supervisorScores.push(score);\r\n    }\r\n\r\n    function removeCourseSupervisorScores(\r\n        uint256 courseId,\r\n        uint256[] memory supervisorIds_ \r\n    ) public {\r\n        for (uint256 i = 0; i < supervisorIds_.length; i++) {\r\n            courseScores[courseId].giveScoreSupervisorIdExists[supervisorIds_[i]] = 0;\r\n        }\r\n        delete courseScores[courseId].supervisorScores;\r\n    }\r\n\r\n    function getGiveScoreSupervisorIdExists(\r\n        uint256 courseId,\r\n        uint256 supervisorId\r\n    ) public view returns (uint256) {\r\n        return courseScores[courseId].giveScoreSupervisorIdExists[supervisorId];\r\n    }\r\n\r\n    function getCourseSupervisorScores(\r\n        uint256 courseId\r\n    ) public view returns (uint256[] memory) {\r\n        return courseScores[courseId].supervisorScores;\r\n    }\r\n\r\n    function addSupervisorId(uint256 supervisorId) public {\r\n        supervisorIds.push(supervisorId);\r\n        supervisorCount++;\r\n    }\r\n\r\n    function getSupervisorIds() public view returns (uint256[] memory) {\r\n        return supervisorIds;\r\n    }\r\n\r\n    function setSupervisorId(address supervisor, uint256 supervisorId) public {\r\n        addressToSupervisorId[supervisor] = supervisorId;\r\n        supervisors[supervisorId].id = supervisorId;\r\n        supervisors[supervisorId].addr = supervisor;\r\n    }\r\n\r\n    function setSupervisorName(\r\n        uint256 supervisorId,\r\n        string calldata _name\r\n    ) public {\r\n        supervisors[supervisorId].name = _name;\r\n    }\r\n\r\n    function setSupervisorsCourseScore(\r\n        uint256 supervisorId,\r\n        uint256 courseId,\r\n        uint256 score\r\n    ) public {\r\n        supervisors[supervisorId].courseScores[courseId] = score;\r\n    }\r\n\r\n    function settransferCourseNumbers(uint256 _transferCourseNumbers) public {\r\n        transferCourseNumbers = _transferCourseNumbers;\r\n    }\r\n\r\n    function settransferCourseStartTime(\r\n        uint256 _transferCourseStartTime\r\n    ) public {\r\n        transferCourseStartTime = _transferCourseStartTime;\r\n    }\r\n\r\n    function settransferCourseEndTime(uint256 _transferCourseEndTime) public {\r\n        transferCourseEndTime = _transferCourseEndTime;\r\n    }\r\n\r\n    function setScoreType(string calldata option) public {\r\n        ScoreTypeChioce = option;\r\n    }\r\n}\r\n",
  "sourcePath": "D:\\vscode\\\\course\\project\\contracts\\ICourseAllocation.sol",
  "compiler": {
    "name": "solc",
    "version": "0.8.7+commit.e28d00a7.Emscripten.clang"
  },
  "schemaVersion": "3.4.16",
  "updatedAt": "2025-04-21T06:51:07.110Z",
  "networkType": "ethereum",
  "devdoc": {
    "kind": "dev",
    "methods": {},
    "version": 1
  },
  "userdoc": {
    "kind": "user",
    "methods": {},
    "version": 1
  }
}