{
  "contractName": "ICourseAllocation",
  "abi": [
    {
      "inputs": [],
      "stateMutability": "nonpayable",
      "type": "constructor"
    },
    {
      "inputs": [
        {
          "internalType": "address",
          "name": "",
          "type": "address"
        }
      ],
      "name": "addressToAgentId",
      "outputs": [
        {
          "internalType": "uint256",
          "name": "",
          "type": "uint256"
        }
      ],
      "stateMutability": "view",
      "type": "function",
      "constant": true
    },
    {
      "inputs": [
        {
          "internalType": "address",
          "name": "",
          "type": "address"
        }
      ],
      "name": "addressToClassId",
      "outputs": [
        {
          "internalType": "uint256",
          "name": "",
          "type": "uint256"
        }
      ],
      "stateMutability": "view",
      "type": "function",
      "constant": true
    },
    {
      "inputs": [
        {
          "internalType": "address",
          "name": "",
          "type": "address"
        }
      ],
      "name": "addressToTeacherId",
      "outputs": [
        {
          "internalType": "uint256",
          "name": "",
          "type": "uint256"
        }
      ],
      "stateMutability": "view",
      "type": "function",
      "constant": true
    },
    {
      "inputs": [],
      "name": "agentCount",
      "outputs": [
        {
          "internalType": "uint256",
          "name": "",
          "type": "uint256"
        }
      ],
      "stateMutability": "view",
      "type": "function",
      "constant": true
    },
    {
      "inputs": [
        {
          "internalType": "uint256",
          "name": "",
          "type": "uint256"
        }
      ],
      "name": "agentIds",
      "outputs": [
        {
          "internalType": "uint256",
          "name": "",
          "type": "uint256"
        }
      ],
      "stateMutability": "view",
      "type": "function",
      "constant": true
    },
    {
      "inputs": [
        {
          "internalType": "uint256",
          "name": "",
          "type": "uint256"
        }
      ],
      "name": "agents",
      "outputs": [
        {
          "internalType": "uint256",
          "name": "id",
          "type": "uint256"
        },
        {
          "internalType": "string",
          "name": "name",
          "type": "string"
        },
        {
          "internalType": "address",
          "name": "addr",
          "type": "address"
        },
        {
          "internalType": "uint256",
          "name": "value",
          "type": "uint256"
        }
      ],
      "stateMutability": "view",
      "type": "function",
      "constant": true
    },
    {
      "inputs": [],
      "name": "classCount",
      "outputs": [
        {
          "internalType": "uint256",
          "name": "",
          "type": "uint256"
        }
      ],
      "stateMutability": "view",
      "type": "function",
      "constant": true
    },
    {
      "inputs": [
        {
          "internalType": "uint256",
          "name": "",
          "type": "uint256"
        }
      ],
      "name": "classIds",
      "outputs": [
        {
          "internalType": "uint256",
          "name": "",
          "type": "uint256"
        }
      ],
      "stateMutability": "view",
      "type": "function",
      "constant": true
    },
    {
      "inputs": [],
      "name": "courseCount",
      "outputs": [
        {
          "internalType": "uint256",
          "name": "",
          "type": "uint256"
        }
      ],
      "stateMutability": "view",
      "type": "function",
      "constant": true
    },
    {
      "inputs": [
        {
          "internalType": "uint256",
          "name": "",
          "type": "uint256"
        }
      ],
      "name": "courseIds",
      "outputs": [
        {
          "internalType": "uint256",
          "name": "",
          "type": "uint256"
        }
      ],
      "stateMutability": "view",
      "type": "function",
      "constant": true
    },
    {
      "inputs": [
        {
          "internalType": "uint256",
          "name": "",
          "type": "uint256"
        }
      ],
      "name": "courses",
      "outputs": [
        {
          "internalType": "uint256",
          "name": "id",
          "type": "uint256"
        },
        {
          "internalType": "string",
          "name": "name",
          "type": "string"
        },
        {
          "internalType": "uint256",
          "name": "importance",
          "type": "uint256"
        },
        {
          "internalType": "bool",
          "name": "isAgentSuitable",
          "type": "bool"
        }
      ],
      "stateMutability": "view",
      "type": "function",
      "constant": true
    },
    {
      "inputs": [],
      "name": "teacherCount",
      "outputs": [
        {
          "internalType": "uint256",
          "name": "",
          "type": "uint256"
        }
      ],
      "stateMutability": "view",
      "type": "function",
      "constant": true
    },
    {
      "inputs": [
        {
          "internalType": "uint256",
          "name": "",
          "type": "uint256"
        }
      ],
      "name": "teacherIds",
      "outputs": [
        {
          "internalType": "uint256",
          "name": "",
          "type": "uint256"
        }
      ],
      "stateMutability": "view",
      "type": "function",
      "constant": true
    },
    {
      "inputs": [
        {
          "internalType": "uint256",
          "name": "",
          "type": "uint256"
        }
      ],
      "name": "teachers",
      "outputs": [
        {
          "internalType": "uint256",
          "name": "id",
          "type": "uint256"
        },
        {
          "internalType": "string",
          "name": "name",
          "type": "string"
        },
        {
          "internalType": "address",
          "name": "addr",
          "type": "address"
        },
        {
          "internalType": "uint256",
          "name": "suitabilityWeight",
          "type": "uint256"
        },
        {
          "internalType": "uint256",
          "name": "value",
          "type": "uint256"
        }
      ],
      "stateMutability": "view",
      "type": "function",
      "constant": true
    },
    {
      "inputs": [
        {
          "internalType": "address",
          "name": "teacherAddress",
          "type": "address"
        },
        {
          "internalType": "uint256",
          "name": "_TeacherId",
          "type": "uint256"
        }
      ],
      "name": "setTeacherId",
      "outputs": [],
      "stateMutability": "nonpayable",
      "type": "function"
    },
    {
      "inputs": [
        {
          "internalType": "uint256",
          "name": "teacherId",
          "type": "uint256"
        }
      ],
      "name": "removeTeacher",
      "outputs": [],
      "stateMutability": "nonpayable",
      "type": "function"
    },
    {
      "inputs": [
        {
          "internalType": "uint256",
          "name": "teacherId",
          "type": "uint256"
        },
        {
          "internalType": "string",
          "name": "_name",
          "type": "string"
        }
      ],
      "name": "setTeacherName",
      "outputs": [],
      "stateMutability": "nonpayable",
      "type": "function"
    },
    {
      "inputs": [
        {
          "internalType": "uint256",
          "name": "teacherId",
          "type": "uint256"
        },
        {
          "internalType": "address",
          "name": "_teacherAddress",
          "type": "address"
        }
      ],
      "name": "setTeacherAddress",
      "outputs": [],
      "stateMutability": "nonpayable",
      "type": "function"
    },
    {
      "inputs": [
        {
          "internalType": "uint256",
          "name": "teacherId",
          "type": "uint256"
        },
        {
          "internalType": "uint256",
          "name": "_assignedCourses",
          "type": "uint256"
        }
      ],
      "name": "addTeacherAssignedCourses",
      "outputs": [],
      "stateMutability": "nonpayable",
      "type": "function"
    },
    {
      "inputs": [
        {
          "internalType": "uint256",
          "name": "teacherId",
          "type": "uint256"
        },
        {
          "internalType": "uint256",
          "name": "_assignedCourses",
          "type": "uint256"
        }
      ],
      "name": "addTeacherReallyAssignedCourses",
      "outputs": [],
      "stateMutability": "nonpayable",
      "type": "function"
    },
    {
      "inputs": [
        {
          "internalType": "uint256",
          "name": "teacherId",
          "type": "uint256"
        },
        {
          "internalType": "uint256",
          "name": "_assignedCourses",
          "type": "uint256"
        }
      ],
      "name": "removeTeacherAssignedCourses",
      "outputs": [],
      "stateMutability": "nonpayable",
      "type": "function"
    },
    {
      "inputs": [
        {
          "internalType": "uint256",
          "name": "teacherId",
          "type": "uint256"
        },
        {
          "internalType": "uint256",
          "name": "_assignedCourses",
          "type": "uint256"
        }
      ],
      "name": "removeTeacherReallyAssignedCourses",
      "outputs": [],
      "stateMutability": "nonpayable",
      "type": "function"
    },
    {
      "inputs": [
        {
          "internalType": "uint256",
          "name": "teacherId",
          "type": "uint256"
        },
        {
          "internalType": "uint256",
          "name": "_suitabilityWeight",
          "type": "uint256"
        }
      ],
      "name": "setTeacherSuitabilityWeight",
      "outputs": [],
      "stateMutability": "nonpayable",
      "type": "function"
    },
    {
      "inputs": [
        {
          "internalType": "uint256",
          "name": "teacherId",
          "type": "uint256"
        },
        {
          "internalType": "uint256",
          "name": "_value",
          "type": "uint256"
        }
      ],
      "name": "setTeacherValue",
      "outputs": [],
      "stateMutability": "nonpayable",
      "type": "function"
    },
    {
      "inputs": [
        {
          "internalType": "uint256",
          "name": "agentId",
          "type": "uint256"
        },
        {
          "internalType": "uint256",
          "name": "_value",
          "type": "uint256"
        }
      ],
      "name": "setAgentValue",
      "outputs": [],
      "stateMutability": "nonpayable",
      "type": "function"
    },
    {
      "inputs": [
        {
          "internalType": "uint256",
          "name": "teacherId",
          "type": "uint256"
        },
        {
          "internalType": "uint256[]",
          "name": "_suitabilities",
          "type": "uint256[]"
        }
      ],
      "name": "setAllTeacherCourseSuitability",
      "outputs": [],
      "stateMutability": "nonpayable",
      "type": "function"
    },
    {
      "inputs": [
        {
          "internalType": "uint256",
          "name": "teacherId",
          "type": "uint256"
        },
        {
          "internalType": "uint256",
          "name": "courseId",
          "type": "uint256"
        },
        {
          "internalType": "uint256",
          "name": "_suitability",
          "type": "uint256"
        }
      ],
      "name": "setTeacherCourseSuitability",
      "outputs": [],
      "stateMutability": "nonpayable",
      "type": "function"
    },
    {
      "inputs": [
        {
          "internalType": "uint256",
          "name": "teacherId",
          "type": "uint256"
        },
        {
          "internalType": "uint256[]",
          "name": "_preferences",
          "type": "uint256[]"
        }
      ],
      "name": "setAllTeacherCoursePreferences",
      "outputs": [],
      "stateMutability": "nonpayable",
      "type": "function"
    },
    {
      "inputs": [
        {
          "internalType": "uint256",
          "name": "teacherId",
          "type": "uint256"
        },
        {
          "internalType": "uint256",
          "name": "courseId",
          "type": "uint256"
        },
        {
          "internalType": "uint256",
          "name": "_preference",
          "type": "uint256"
        }
      ],
      "name": "setTeacherCoursePreferences",
      "outputs": [],
      "stateMutability": "nonpayable",
      "type": "function"
    },
    {
      "inputs": [
        {
          "internalType": "address",
          "name": "agentAddress",
          "type": "address"
        },
        {
          "internalType": "uint256",
          "name": "_agentId",
          "type": "uint256"
        }
      ],
      "name": "setAgentId",
      "outputs": [],
      "stateMutability": "nonpayable",
      "type": "function"
    },
    {
      "inputs": [
        {
          "internalType": "uint256",
          "name": "agentId",
          "type": "uint256"
        }
      ],
      "name": "removeAgent",
      "outputs": [],
      "stateMutability": "nonpayable",
      "type": "function"
    },
    {
      "inputs": [
        {
          "internalType": "uint256",
          "name": "agentId",
          "type": "uint256"
        },
        {
          "internalType": "string",
          "name": "_name",
          "type": "string"
        }
      ],
      "name": "setAgentName",
      "outputs": [],
      "stateMutability": "nonpayable",
      "type": "function"
    },
    {
      "inputs": [
        {
          "internalType": "uint256",
          "name": "agentId",
          "type": "uint256"
        },
        {
          "internalType": "address",
          "name": "_agentAddress",
          "type": "address"
        }
      ],
      "name": "setAgentAddress",
      "outputs": [],
      "stateMutability": "nonpayable",
      "type": "function"
    },
    {
      "inputs": [
        {
          "internalType": "uint256",
          "name": "agentId",
          "type": "uint256"
        },
        {
          "internalType": "uint256",
          "name": "_assignedCourses",
          "type": "uint256"
        }
      ],
      "name": "addAgentAssignedCourses",
      "outputs": [],
      "stateMutability": "nonpayable",
      "type": "function"
    },
    {
      "inputs": [
        {
          "internalType": "uint256",
          "name": "agentId",
          "type": "uint256"
        },
        {
          "internalType": "uint256",
          "name": "_assignedCourses",
          "type": "uint256"
        }
      ],
      "name": "removeAgentAssignedCourses",
      "outputs": [],
      "stateMutability": "nonpayable",
      "type": "function"
    },
    {
      "inputs": [
        {
          "internalType": "uint256",
          "name": "agentId",
          "type": "uint256"
        },
        {
          "internalType": "uint256",
          "name": "_courseId",
          "type": "uint256"
        },
        {
          "internalType": "uint256",
          "name": "_suitability",
          "type": "uint256"
        }
      ],
      "name": "setAgentCourseSuitability",
      "outputs": [],
      "stateMutability": "nonpayable",
      "type": "function"
    },
    {
      "inputs": [
        {
          "internalType": "uint256",
          "name": "agentId",
          "type": "uint256"
        },
        {
          "internalType": "uint256[]",
          "name": "_suitabilities",
          "type": "uint256[]"
        }
      ],
      "name": "setAllAgentCourseSuitability",
      "outputs": [],
      "stateMutability": "nonpayable",
      "type": "function"
    },
    {
      "inputs": [
        {
          "internalType": "address",
          "name": "classAddress",
          "type": "address"
        },
        {
          "internalType": "uint256",
          "name": "_id",
          "type": "uint256"
        }
      ],
      "name": "setClassId",
      "outputs": [],
      "stateMutability": "nonpayable",
      "type": "function"
    },
    {
      "inputs": [
        {
          "internalType": "uint256",
          "name": "classId",
          "type": "uint256"
        }
      ],
      "name": "removeClass",
      "outputs": [],
      "stateMutability": "nonpayable",
      "type": "function"
    },
    {
      "inputs": [
        {
          "internalType": "uint256",
          "name": "courseId",
          "type": "uint256"
        }
      ],
      "name": "setCourseId",
      "outputs": [],
      "stateMutability": "nonpayable",
      "type": "function"
    },
    {
      "inputs": [
        {
          "internalType": "uint256",
          "name": "courseId",
          "type": "uint256"
        }
      ],
      "name": "removeCourse",
      "outputs": [],
      "stateMutability": "nonpayable",
      "type": "function"
    },
    {
      "inputs": [
        {
          "internalType": "uint256",
          "name": "courseId",
          "type": "uint256"
        },
        {
          "internalType": "string",
          "name": "_name",
          "type": "string"
        }
      ],
      "name": "setCourseName",
      "outputs": [],
      "stateMutability": "nonpayable",
      "type": "function"
    },
    {
      "inputs": [
        {
          "internalType": "uint256",
          "name": "courseId",
          "type": "uint256"
        },
        {
          "internalType": "uint256",
          "name": "_importance",
          "type": "uint256"
        }
      ],
      "name": "setCourseImportance",
      "outputs": [],
      "stateMutability": "nonpayable",
      "type": "function"
    },
    {
      "inputs": [
        {
          "internalType": "uint256[]",
          "name": "_importances",
          "type": "uint256[]"
        }
      ],
      "name": "setAllCourseImportance",
      "outputs": [],
      "stateMutability": "nonpayable",
      "type": "function"
    },
    {
      "inputs": [
        {
          "internalType": "uint256",
          "name": "courseId",
          "type": "uint256"
        },
        {
          "internalType": "uint256",
          "name": "_teacherId",
          "type": "uint256"
        }
      ],
      "name": "addCourseAssignedTeacherId",
      "outputs": [],
      "stateMutability": "nonpayable",
      "type": "function"
    },
    {
      "inputs": [
        {
          "internalType": "uint256",
          "name": "courseId",
          "type": "uint256"
        },
        {
          "internalType": "uint256",
          "name": "_agentId",
          "type": "uint256"
        }
      ],
      "name": "addCourseAssignedAgentId",
      "outputs": [],
      "stateMutability": "nonpayable",
      "type": "function"
    },
    {
      "inputs": [
        {
          "internalType": "uint256",
          "name": "courseId",
          "type": "uint256"
        },
        {
          "internalType": "uint256",
          "name": "_teacherId",
          "type": "uint256"
        }
      ],
      "name": "removeCourseAssignedTeacherId",
      "outputs": [],
      "stateMutability": "nonpayable",
      "type": "function"
    },
    {
      "inputs": [
        {
          "internalType": "uint256",
          "name": "courseId",
          "type": "uint256"
        },
        {
          "internalType": "uint256",
          "name": "_agentId",
          "type": "uint256"
        }
      ],
      "name": "removeCourseAssignedAgentId",
      "outputs": [],
      "stateMutability": "nonpayable",
      "type": "function"
    },
    {
      "inputs": [
        {
          "internalType": "uint256",
          "name": "courseId",
          "type": "uint256"
        },
        {
          "internalType": "bool",
          "name": "_isAgentSuitable",
          "type": "bool"
        }
      ],
      "name": "setCourseIsAgentSuitable",
      "outputs": [],
      "stateMutability": "nonpayable",
      "type": "function"
    },
    {
      "inputs": [
        {
          "internalType": "uint256",
          "name": "_teacherCount",
          "type": "uint256"
        }
      ],
      "name": "setTeacherCount",
      "outputs": [],
      "stateMutability": "nonpayable",
      "type": "function"
    },
    {
      "inputs": [
        {
          "internalType": "uint256",
          "name": "_agentCount",
          "type": "uint256"
        }
      ],
      "name": "setAgentCount",
      "outputs": [],
      "stateMutability": "nonpayable",
      "type": "function"
    },
    {
      "inputs": [
        {
          "internalType": "uint256",
          "name": "_classCount",
          "type": "uint256"
        }
      ],
      "name": "setClassCount",
      "outputs": [],
      "stateMutability": "nonpayable",
      "type": "function"
    },
    {
      "inputs": [
        {
          "internalType": "uint256",
          "name": "_courseCount",
          "type": "uint256"
        }
      ],
      "name": "setCourseCount",
      "outputs": [],
      "stateMutability": "nonpayable",
      "type": "function"
    },
    {
      "inputs": [
        {
          "internalType": "uint256",
          "name": "_teacherId",
          "type": "uint256"
        },
        {
          "internalType": "uint256",
          "name": "courseId",
          "type": "uint256"
        }
      ],
      "name": "getTeacherSuitability",
      "outputs": [
        {
          "internalType": "uint256",
          "name": "",
          "type": "uint256"
        }
      ],
      "stateMutability": "view",
      "type": "function",
      "constant": true
    },
    {
      "inputs": [
        {
          "internalType": "uint256",
          "name": "_agentId",
          "type": "uint256"
        },
        {
          "internalType": "uint256",
          "name": "courseId",
          "type": "uint256"
        }
      ],
      "name": "getAgentSuitability",
      "outputs": [
        {
          "internalType": "uint256",
          "name": "",
          "type": "uint256"
        }
      ],
      "stateMutability": "view",
      "type": "function",
      "constant": true
    },
    {
      "inputs": [
        {
          "internalType": "uint256",
          "name": "_teacherId",
          "type": "uint256"
        },
        {
          "internalType": "uint256",
          "name": "courseId",
          "type": "uint256"
        }
      ],
      "name": "getPreference",
      "outputs": [
        {
          "internalType": "uint256",
          "name": "",
          "type": "uint256"
        }
      ],
      "stateMutability": "view",
      "type": "function",
      "constant": true
    },
    {
      "inputs": [
        {
          "internalType": "uint256",
          "name": "_teacherId",
          "type": "uint256"
        }
      ],
      "name": "getTeacherAssignedCourses",
      "outputs": [
        {
          "internalType": "uint256[]",
          "name": "",
          "type": "uint256[]"
        }
      ],
      "stateMutability": "view",
      "type": "function",
      "constant": true
    },
    {
      "inputs": [
        {
          "internalType": "uint256",
          "name": "_teacherId",
          "type": "uint256"
        }
      ],
      "name": "getTeacherReallyAssignedCourses",
      "outputs": [
        {
          "internalType": "uint256[]",
          "name": "",
          "type": "uint256[]"
        }
      ],
      "stateMutability": "view",
      "type": "function",
      "constant": true
    },
    {
      "inputs": [
        {
          "internalType": "uint256",
          "name": "_agentId",
          "type": "uint256"
        }
      ],
      "name": "getAgentAssignedCourses",
      "outputs": [
        {
          "internalType": "uint256[]",
          "name": "",
          "type": "uint256[]"
        }
      ],
      "stateMutability": "view",
      "type": "function",
      "constant": true
    },
    {
      "inputs": [
        {
          "internalType": "uint256",
          "name": "_courseId",
          "type": "uint256"
        }
      ],
      "name": "getCoursesAssignedTeacher",
      "outputs": [
        {
          "internalType": "uint256[]",
          "name": "",
          "type": "uint256[]"
        }
      ],
      "stateMutability": "view",
      "type": "function",
      "constant": true
    },
    {
      "inputs": [
        {
          "internalType": "uint256",
          "name": "_courseId",
          "type": "uint256"
        }
      ],
      "name": "getCoursesAssignedAgent",
      "outputs": [
        {
          "internalType": "uint256[]",
          "name": "",
          "type": "uint256[]"
        }
      ],
      "stateMutability": "view",
      "type": "function",
      "constant": true
    },
    {
      "inputs": [],
      "name": "getTeacherIds",
      "outputs": [
        {
          "internalType": "uint256[]",
          "name": "",
          "type": "uint256[]"
        }
      ],
      "stateMutability": "view",
      "type": "function",
      "constant": true
    },
    {
      "inputs": [],
      "name": "getAgentIds",
      "outputs": [
        {
          "internalType": "uint256[]",
          "name": "",
          "type": "uint256[]"
        }
      ],
      "stateMutability": "view",
      "type": "function",
      "constant": true
    },
    {
      "inputs": [],
      "name": "getCourseIds",
      "outputs": [
        {
          "internalType": "uint256[]",
          "name": "",
          "type": "uint256[]"
        }
      ],
      "stateMutability": "view",
      "type": "function",
      "constant": true
    },
    {
      "inputs": [],
      "name": "getClassIds",
      "outputs": [
        {
          "internalType": "uint256[]",
          "name": "",
          "type": "uint256[]"
        }
      ],
      "stateMutability": "view",
      "type": "function",
      "constant": true
    }
  ],
  "bytecode": "0x608060405234801561001057600080fd5b50613a26806100206000396000f3fe608060405234801561001057600080fd5b50600436106103db5760003560e01c80639709ee011161020a578063ce64bf9b11610125578063e40af036116100b8578063e8a2dc2f11610087578063e8a2dc2f14610bca578063ebacebe414610bfa578063ee196ee214610c2a578063f0f2efd814610c46578063fc09e9d014610c62576103db565b8063e40af03614610b46578063e52505d814610b62578063e637812f14610b92578063e7fa455714610bae576103db565b8063deb9f76a116100f4578063deb9f76a14610ad6578063df3addfa14610af2578063e204b10214610b0e578063e20b340514610b2a576103db565b8063ce64bf9b14610a2a578063d4e57ff014610a5a578063dcfa705714610a8a578063dd03576514610aba576103db565b8063b7dc12841161019d578063bfb9d44c1161016c578063bfb9d44c146109ba578063c318fe5f146109d6578063cb854045146109f2578063cddd6c6314610a0e576103db565b8063b7dc128414610934578063bb69df7214610952578063bca24bd41461096e578063bd1602d11461099e576103db565b8063a7ab8472116101d9578063a7ab8472146108c0578063ab996317146108dc578063ad3a6ad4146108fa578063b150876014610916576103db565b80639709ee011461083c57806397e92d521461086c5780639e12237714610888578063a549e416146108a4576103db565b80635953faff116102fa57806372c30f451161028d578063851580a71161025c578063851580a71461078d57806386875ea8146107bd57806391c89deb146107d957806396f979d214610809576103db565b806372c30f45146106f55780637fa7e04d14610711578063827e57311461072d57806382ff0a5a1461075d576103db565b80636e428d2d116102c95780636e428d2d146106855780636fcf4f96146106a1578063700ed28b146106bd57806372ab4e96146106d9576103db565b80635953faff146106135780635e383d461461062f578063660551591461064b5780636798bad914610669576103db565b80633abdb63d116103725780634d27e912116103415780634d27e912146105765780634d65235014610592578063513856c8146105b057806356e76058146105e3576103db565b80633abdb63d146104f057806346be31361461050c578063494e23711461052a5780634b974df71461055a576103db565b80631fe76a6c116103ae5780631fe76a6c146104665780632359b7b8146104825780632b0816ac146104a057806334ac0b40146104bc576103db565b80630f7f13cf146103e05780630fa1c2711461041057806318860d371461042c5780631dd86f901461044a575b600080fd5b6103fa60048036038101906103f59190612e9f565b610c7e565b60405161040791906133b1565b60405180910390f35b61042a600480360381019061042591906130c2565b610c96565b005b610434610cd7565b60405161044191906132ef565b60405180910390f35b610464600480360381019061045f9190613102565b610d2f565b005b610480600480360381019061047b9190613102565b610de2565b005b61048a610e13565b60405161049791906132ef565b60405180910390f35b6104ba60048036038101906104b59190612f55565b610e6b565b005b6104d660048036038101906104d19190612f55565b610eb2565b6040516104e7959493929190613418565b60405180910390f35b61050a60048036038101906105059190612f55565b610f90565b005b610514611078565b60405161052191906133b1565b60405180910390f35b610544600480360381019061053f9190612f55565b61107e565b60405161055191906133b1565b60405180910390f35b610574600480360381019061056f91906130c2565b6110a2565b005b610590600480360381019061058b9190613102565b61123c565b005b61059a61126d565b6040516105a791906132ef565b60405180910390f35b6105ca60048036038101906105c59190612f55565b6112c5565b6040516105da94939291906133cc565b60405180910390f35b6105fd60048036038101906105f89190612f55565b61139d565b60405161060a91906133b1565b60405180910390f35b61062d60048036038101906106289190612f0c565b6113c1565b005b61064960048036038101906106449190612ecc565b611483565b005b6106536114f4565b60405161066091906133b1565b60405180910390f35b610683600480360381019061067e9190612f55565b6114fa565b005b61069f600480360381019061069a91906130c2565b611504565b005b6106bb60048036038101906106b69190612f55565b61169e565b005b6106d760048036038101906106d291906130c2565b611808565b005b6106f360048036038101906106ee91906130c2565b611849565b005b61070f600480360381019061070a9190612f55565b61188a565b005b61072b60048036038101906107269190613062565b611956565b005b61074760048036038101906107429190612f55565b611981565b60405161075491906132ef565b60405180910390f35b61077760048036038101906107729190612f55565b6119ef565b60405161078491906132ef565b60405180910390f35b6107a760048036038101906107a291906130c2565b611a5d565b6040516107b491906133b1565b60405180910390f35b6107d760048036038101906107d291906130c2565b611a8f565b005b6107f360048036038101906107ee9190612f55565b611c29565b60405161080091906132ef565b60405180910390f35b610823600480360381019061081e9190612f55565b611c97565b6040516108339493929190613472565b60405180910390f35b610856600480360381019061085191906130c2565b611d5c565b60405161086391906133b1565b60405180910390f35b61088660048036038101906108819190612fc2565b611d8e565b005b6108a2600480360381019061089d9190613062565b611ee6565b005b6108be60048036038101906108b99190612ecc565b611f11565b005b6108da60048036038101906108d59190613062565b611f9c565b005b6108e4612049565b6040516108f191906133b1565b60405180910390f35b610914600480360381019061090f9190612fc2565b61204f565b005b61091e6121a7565b60405161092b91906132ef565b60405180910390f35b61093c6121ff565b60405161094991906133b1565b60405180910390f35b61096c600480360381019061096791906130c2565b612205565b005b61098860048036038101906109839190612f55565b6122a6565b60405161099591906133b1565b60405180910390f35b6109b860048036038101906109b39190612f55565b6122ca565b005b6109d460048036038101906109cf9190612ecc565b6122d4565b005b6109f060048036038101906109eb9190612f82565b612360565b005b610a0c6004803603810190610a079190613022565b61243b565b005b610a286004803603810190610a239190612f82565b61246d565b005b610a446004803603810190610a3f9190612f55565b6124c6565b604051610a5191906132ef565b60405180910390f35b610a746004803603810190610a6f9190612e9f565b612534565b604051610a8191906133b1565b60405180910390f35b610aa46004803603810190610a9f9190612f55565b61254c565b604051610ab191906133b1565b60405180910390f35b610ad46004803603810190610acf9190612f55565b612570565b005b610af06004803603810190610aeb9190612f55565b61257a565b005b610b0c6004803603810190610b079190612f55565b612584565b005b610b286004803603810190610b2391906130c2565b612650565b005b610b446004803603810190610b3f91906130c2565b61266f565b005b610b606004803603810190610b5b91906130c2565b612710565b005b610b7c6004803603810190610b779190612f55565b6128aa565b604051610b8991906132ef565b60405180910390f35b610bac6004803603810190610ba791906130c2565b612918565b005b610bc86004803603810190610bc391906130c2565b612959565b005b610be46004803603810190610bdf91906130c2565b612af3565b604051610bf191906133b1565b60405180910390f35b610c146004803603810190610c0f9190612e9f565b612b25565b604051610c2191906133b1565b60405180910390f35b610c446004803603810190610c3f91906130c2565b612b3d565b005b610c606004803603810190610c5b9190612fc2565b612b5c565b005b610c7c6004803603810190610c7791906130c2565b612c32565b005b60006020528060005260406000206000915090505481565b600560008381526020019081526020016000206003018190806001815401808255809150506001900390600052602060002001600090919091909150555050565b6060600d805480602002602001604051908101604052809291908181526020018280548015610d2557602002820191906000526020600020905b815481526020019060010190808311610d11575b5050505050905090565b60008060003373ffffffffffffffffffffffffffffffffffffffff1673ffffffffffffffffffffffffffffffffffffffff168152602001908152602001600020541415610db1576040517f08c379a0000000000000000000000000000000000000000000000000000000008152600401610da890613371565b60405180910390fd5b8060036000858152602001908152602001600020600801600084815260200190815260200160002081905550505050565b8060036000858152602001908152602001600020600701600084815260200190815260200160002081905550505050565b6060600c805480602002602001604051908101604052809291908181526020018280548015610e6157602002820191906000526020600020905b815481526020019060010190808311610e4d575b5050505050905090565b806005600083815260200190815260200160002060000181905550600c81908060018154018082558091505060019003906000526020600020016000909190919091505550565b6003602052806000526040600020600091509050806000015490806001018054610edb90613613565b80601f0160208091040260200160405190810160405280929190818152602001828054610f0790613613565b8015610f545780601f10610f2957610100808354040283529160200191610f54565b820191906000526020600020905b815481529060010190602001808311610f3757829003601f168201915b5050505050908060020160009054906101000a900473ffffffffffffffffffffffffffffffffffffffff16908060050154908060060154905085565b6000600460008381526020019081526020016000206000018190555060005b600b805490508110156110745781600b8281548110610fd157610fd061374c565b5b9060005260206000200154141561106157600b6001600b80549050610ff69190613564565b815481106110075761100661374c565b5b9060005260206000200154600b82815481106110265761102561374c565b5b9060005260206000200181905550600b8054806110465761104561371d565b5b60019003818190600052602060002001600090559055611074565b808061106c90613676565b915050610faf565b5050565b60065481565b600c818154811061108e57600080fd5b906000526020600020016000915090505481565b60008080600090505b600360008681526020019081526020016000206003018054905081101561112557836003600087815260200190815260200160002060030182815481106110f5576110f461374c565b5b906000526020600020015414156111125760019250809150611125565b808061111d90613676565b9150506110ab565b5081156111fb5760036000858152602001908152602001600020600301600160036000878152602001908152602001600020600301805490506111689190613564565b815481106111795761117861374c565b5b90600052602060002001546003600086815260200190815260200160002060030182815481106111ac576111ab61374c565b5b9060005260206000200181905550600360008581526020019081526020016000206003018054806111e0576111df61371d565b5b60019003818190600052602060002001600090559055611236565b6040517f08c379a000000000000000000000000000000000000000000000000000000000815260040161122d90613331565b60405180910390fd5b50505050565b8060046000858152602001908152602001600020600501600084815260200190815260200160002081905550505050565b6060600a8054806020026020016040519081016040528092919081815260200182805480156112bb57602002820191906000526020600020905b8154815260200190600101908083116112a7575b5050505050905090565b60046020528060005260406000206000915090508060000154908060010180546112ee90613613565b80601f016020809104026020016040519081016040528092919081815260200182805461131a90613613565b80156113675780601f1061133c57610100808354040283529160200191611367565b820191906000526020600020905b81548152906001019060200180831161134a57829003601f168201915b5050505050908060020160009054906101000a900473ffffffffffffffffffffffffffffffffffffffff16908060030154905084565b600b81815481106113ad57600080fd5b906000526020600020016000915090505481565b600c80549050815114611409576040517f08c379a000000000000000000000000000000000000000000000000000000000815260040161140090613351565b60405180910390fd5b60005b600c8054905081101561147f5781818151811061142c5761142b61374c565b5b602002602001015160056000600c848154811061144c5761144b61374c565b5b9060005260206000200154815260200190815260200160002060020181905550808061147790613676565b91505061140c565b5050565b80600260008473ffffffffffffffffffffffffffffffffffffffff1673ffffffffffffffffffffffffffffffffffffffff16815260200190815260200160002081905550600d8190806001815401808255809150506001900390600052602060002001600090919091909150555050565b60095481565b8060068190555050565b60008080600090505b600560008681526020019081526020016000206003018054905081101561158757836005600087815260200190815260200160002060030182815481106115575761155661374c565b5b906000526020600020015414156115745760019250809150611587565b808061157f90613676565b91505061150d565b50811561165d5760056000858152602001908152602001600020600301600160056000878152602001908152602001600020600301805490506115ca9190613564565b815481106115db576115da61374c565b5b906000526020600020015460056000868152602001908152602001600020600301828154811061160e5761160d61374c565b5b9060005260206000200181905550600560008581526020019081526020016000206003018054806116425761164161371d565b5b60019003818190600052602060002001600090559055611698565b6040517f08c379a000000000000000000000000000000000000000000000000000000000815260040161168f90613331565b60405180910390fd5b50505050565b60008060003373ffffffffffffffffffffffffffffffffffffffff1673ffffffffffffffffffffffffffffffffffffffff168152602001908152602001600020541415611720576040517f08c379a000000000000000000000000000000000000000000000000000000000815260040161171790613371565b60405180910390fd5b6000600360008381526020019081526020016000206000018190555060005b600a805490508110156118045781600a82815481106117615761176061374c565b5b906000526020600020015414156117f157600a6001600a805490506117869190613564565b815481106117975761179661374c565b5b9060005260206000200154600a82815481106117b6576117b561374c565b5b9060005260206000200181905550600a8054806117d6576117d561371d565b5b60019003818190600052602060002001600090559055611804565b80806117fc90613676565b91505061173f565b5050565b600360008381526020019081526020016000206003018190806001815401808255809150506001900390600052602060002001600090919091909150555050565b600460008381526020019081526020016000206004018190806001815401808255809150506001900390600052602060002001600090919091909150555050565b60005b600d805490508110156119525781600d82815481106118af576118ae61374c565b5b9060005260206000200154141561193f57600d6001600d805490506118d49190613564565b815481106118e5576118e461374c565b5b9060005260206000200154600d82815481106119045761190361374c565b5b9060005260206000200181905550600d8054806119245761192361371d565b5b60019003818190600052602060002001600090559055611952565b808061194a90613676565b91505061188d565b5050565b818160046000868152602001908152602001600020600101919061197b929190612c73565b50505050565b6060600360008381526020019081526020016000206004018054806020026020016040519081016040528092919081815260200182805480156119e357602002820191906000526020600020905b8154815260200190600101908083116119cf575b50505050509050919050565b606060056000838152602001908152602001600020600301805480602002602001604051908101604052809291908181526020018280548015611a5157602002820191906000526020600020905b815481526020019060010190808311611a3d575b50505050509050919050565b600060036000848152602001908152602001600020600801600083815260200190815260200160002054905092915050565b60008080600090505b6005600086815260200190815260200160002060040180549050811015611b125783600560008781526020019081526020016000206004018281548110611ae257611ae161374c565b5b90600052602060002001541415611aff5760019250809150611b12565b8080611b0a90613676565b915050611a98565b508115611be8576005600085815260200190815260200160002060040160016005600087815260200190815260200160002060040180549050611b559190613564565b81548110611b6657611b6561374c565b5b9060005260206000200154600560008681526020019081526020016000206004018281548110611b9957611b9861374c565b5b906000526020600020018190555060056000858152602001908152602001600020600401805480611bcd57611bcc61371d565b5b60019003818190600052602060002001600090559055611c23565b6040517f08c379a0000000000000000000000000000000000000000000000000000000008152600401611c1a90613331565b60405180910390fd5b50505050565b606060056000838152602001908152602001600020600401805480602002602001604051908101604052809291908181526020018280548015611c8b57602002820191906000526020600020905b815481526020019060010190808311611c77575b50505050509050919050565b6005602052806000526040600020600091509050806000015490806001018054611cc090613613565b80601f0160208091040260200160405190810160405280929190818152602001828054611cec90613613565b8015611d395780601f10611d0e57610100808354040283529160200191611d39565b820191906000526020600020905b815481529060010190602001808311611d1c57829003601f168201915b5050505050908060020154908060050160009054906101000a900460ff16905084565b600060046000848152602001908152602001600020600501600083815260200190815260200160002054905092915050565b60008060003373ffffffffffffffffffffffffffffffffffffffff1673ffffffffffffffffffffffffffffffffffffffff168152602001908152602001600020541415611e10576040517f08c379a0000000000000000000000000000000000000000000000000000000008152600401611e0790613371565b60405180910390fd5b600c805490508282905014611e5a576040517f08c379a0000000000000000000000000000000000000000000000000000000008152600401611e5190613391565b60405180910390fd5b60005b600c80549050811015611ee057828282818110611e7d57611e7c61374c565b5b90506020020135600360008681526020019081526020016000206007016000600c8481548110611eb057611eaf61374c565b5b90600052602060002001548152602001908152602001600020819055508080611ed890613676565b915050611e5d565b50505050565b8181600560008681526020019081526020016000206001019190611f0b929190612c73565b50505050565b806000808473ffffffffffffffffffffffffffffffffffffffff1673ffffffffffffffffffffffffffffffffffffffff16815260200190815260200160002081905550806003600083815260200190815260200160002060000181905550600a8190806001815401808255809150506001900390600052602060002001600090919091909150555050565b60008060003373ffffffffffffffffffffffffffffffffffffffff1673ffffffffffffffffffffffffffffffffffffffff16815260200190815260200160002054141561201e576040517f08c379a000000000000000000000000000000000000000000000000000000000815260040161201590613371565b60405180910390fd5b8181600360008681526020019081526020016000206001019190612043929190612c73565b50505050565b60085481565b60008060003373ffffffffffffffffffffffffffffffffffffffff1673ffffffffffffffffffffffffffffffffffffffff1681526020019081526020016000205414156120d1576040517f08c379a00000000000000000000000000000000000000000000000000000000081526004016120c890613371565b60405180910390fd5b600c80549050828290501461211b576040517f08c379a000000000000000000000000000000000000000000000000000000000815260040161211290613311565b60405180910390fd5b60005b600c805490508110156121a15782828281811061213e5761213d61374c565b5b90506020020135600360008681526020019081526020016000206008016000600c84815481106121715761217061374c565b5b9060005260206000200154815260200190815260200160002081905550808061219990613676565b91505061211e565b50505050565b6060600b8054806020026020016040519081016040528092919081815260200182805480156121f557602002820191906000526020600020905b8154815260200190600101908083116121e1575b5050505050905090565b60075481565b60008060003373ffffffffffffffffffffffffffffffffffffffff1673ffffffffffffffffffffffffffffffffffffffff168152602001908152602001600020541415612287576040517f08c379a000000000000000000000000000000000000000000000000000000000815260040161227e90613371565b60405180910390fd5b8060036000848152602001908152602001600020600501819055505050565b600d81815481106122b657600080fd5b906000526020600020016000915090505481565b8060098190555050565b80600160008473ffffffffffffffffffffffffffffffffffffffff1673ffffffffffffffffffffffffffffffffffffffff16815260200190815260200160002081905550806004600083815260200190815260200160002060000181905550600b8190806001815401808255809150506001900390600052602060002001600090919091909150555050565b60008060003373ffffffffffffffffffffffffffffffffffffffff1673ffffffffffffffffffffffffffffffffffffffff1681526020019081526020016000205414156123e2576040517f08c379a00000000000000000000000000000000000000000000000000000000081526004016123d990613371565b60405180910390fd5b806003600084815260200190815260200160002060020160006101000a81548173ffffffffffffffffffffffffffffffffffffffff021916908373ffffffffffffffffffffffffffffffffffffffff1602179055505050565b806005600084815260200190815260200160002060050160006101000a81548160ff0219169083151502179055505050565b806004600084815260200190815260200160002060020160006101000a81548173ffffffffffffffffffffffffffffffffffffffff021916908373ffffffffffffffffffffffffffffffffffffffff1602179055505050565b60606004600083815260200190815260200160002060040180548060200260200160405190810160405280929190818152602001828054801561252857602002820191906000526020600020905b815481526020019060010190808311612514575b50505050509050919050565b60026020528060005260406000206000915090505481565b600a818154811061255c57600080fd5b906000526020600020016000915090505481565b8060088190555050565b8060078190555050565b60005b600c8054905081101561264c5781600c82815481106125a9576125a861374c565b5b9060005260206000200154141561263957600c6001600c805490506125ce9190613564565b815481106125df576125de61374c565b5b9060005260206000200154600c82815481106125fe576125fd61374c565b5b9060005260206000200181905550600c80548061261e5761261d61371d565b5b6001900381819060005260206000200160009055905561264c565b808061264490613676565b915050612587565b5050565b8060056000848152602001908152602001600020600201819055505050565b60008060003373ffffffffffffffffffffffffffffffffffffffff1673ffffffffffffffffffffffffffffffffffffffff1681526020019081526020016000205414156126f1576040517f08c379a00000000000000000000000000000000000000000000000000000000081526004016126e890613371565b60405180910390fd5b8060036000848152602001908152602001600020600601819055505050565b60008080600090505b600460008681526020019081526020016000206004018054905081101561279357836004600087815260200190815260200160002060040182815481106127635761276261374c565b5b906000526020600020015414156127805760019250809150612793565b808061278b90613676565b915050612719565b5081156128695760046000858152602001908152602001600020600401600160046000878152602001908152602001600020600401805490506127d69190613564565b815481106127e7576127e661374c565b5b906000526020600020015460046000868152602001908152602001600020600401828154811061281a5761281961374c565b5b90600052602060002001819055506004600085815260200190815260200160002060040180548061284e5761284d61371d565b5b600190038181906000526020600020016000905590556128a4565b6040517f08c379a000000000000000000000000000000000000000000000000000000000815260040161289b90613331565b60405180910390fd5b50505050565b60606003600083815260200190815260200160002060030180548060200260200160405190810160405280929190818152602001828054801561290c57602002820191906000526020600020905b8154815260200190600101908083116128f8575b50505050509050919050565b600360008381526020019081526020016000206004018190806001815401808255809150506001900390600052602060002001600090919091909150555050565b60008080600090505b60036000868152602001908152602001600020600401805490508110156129dc57836003600087815260200190815260200160002060040182815481106129ac576129ab61374c565b5b906000526020600020015414156129c957600192508091506129dc565b80806129d490613676565b915050612962565b508115612ab2576003600085815260200190815260200160002060040160016003600087815260200190815260200160002060040180549050612a1f9190613564565b81548110612a3057612a2f61374c565b5b9060005260206000200154600360008681526020019081526020016000206004018281548110612a6357612a6261374c565b5b906000526020600020018190555060036000858152602001908152602001600020600401805480612a9757612a9661371d565b5b60019003818190600052602060002001600090559055612aed565b6040517f08c379a0000000000000000000000000000000000000000000000000000000008152600401612ae490613331565b60405180910390fd5b50505050565b600060036000848152602001908152602001600020600701600083815260200190815260200160002054905092915050565b60016020528060005260406000206000915090505481565b8060046000848152602001908152602001600020600301819055505050565b600c805490508282905014612ba6576040517f08c379a0000000000000000000000000000000000000000000000000000000008152600401612b9d90613391565b60405180910390fd5b60005b600c80549050811015612c2c57828282818110612bc957612bc861374c565b5b90506020020135600460008681526020019081526020016000206005016000600c8481548110612bfc57612bfb61374c565b5b90600052602060002001548152602001908152602001600020819055508080612c2490613676565b915050612ba9565b50505050565b600560008381526020019081526020016000206004018190806001815401808255809150506001900390600052602060002001600090919091909150555050565b828054612c7f90613613565b90600052602060002090601f016020900481019282612ca15760008555612ce8565b82601f10612cba57803560ff1916838001178555612ce8565b82800160010185558215612ce8579182015b82811115612ce7578235825591602001919060010190612ccc565b5b509050612cf59190612cf9565b5090565b5b80821115612d12576000816000905550600101612cfa565b5090565b6000612d29612d24846134e3565b6134be565b90508083825260208201905082856020860282011115612d4c57612d4b6137b4565b5b60005b85811015612d7c5781612d628882612e8a565b845260208401935060208301925050600181019050612d4f565b5050509392505050565b600081359050612d95816139ab565b92915050565b60008083601f840112612db157612db06137af565b5b8235905067ffffffffffffffff811115612dce57612dcd6137aa565b5b602083019150836020820283011115612dea57612de96137b4565b5b9250929050565b600082601f830112612e0657612e056137af565b5b8135612e16848260208601612d16565b91505092915050565b600081359050612e2e816139c2565b92915050565b60008083601f840112612e4a57612e496137af565b5b8235905067ffffffffffffffff811115612e6757612e666137aa565b5b602083019150836001820283011115612e8357612e826137b4565b5b9250929050565b600081359050612e99816139d9565b92915050565b600060208284031215612eb557612eb46137be565b5b6000612ec384828501612d86565b91505092915050565b60008060408385031215612ee357612ee26137be565b5b6000612ef185828601612d86565b9250506020612f0285828601612e8a565b9150509250929050565b600060208284031215612f2257612f216137be565b5b600082013567ffffffffffffffff811115612f4057612f3f6137b9565b5b612f4c84828501612df1565b91505092915050565b600060208284031215612f6b57612f6a6137be565b5b6000612f7984828501612e8a565b91505092915050565b60008060408385031215612f9957612f986137be565b5b6000612fa785828601612e8a565b9250506020612fb885828601612d86565b9150509250929050565b600080600060408486031215612fdb57612fda6137be565b5b6000612fe986828701612e8a565b935050602084013567ffffffffffffffff81111561300a576130096137b9565b5b61301686828701612d9b565b92509250509250925092565b60008060408385031215613039576130386137be565b5b600061304785828601612e8a565b925050602061305885828601612e1f565b9150509250929050565b60008060006040848603121561307b5761307a6137be565b5b600061308986828701612e8a565b935050602084013567ffffffffffffffff8111156130aa576130a96137b9565b5b6130b686828701612e34565b92509250509250925092565b600080604083850312156130d9576130d86137be565b5b60006130e785828601612e8a565b92505060206130f885828601612e8a565b9150509250929050565b60008060006060848603121561311b5761311a6137be565b5b600061312986828701612e8a565b935050602061313a86828701612e8a565b925050604061314b86828701612e8a565b9150509250925092565b600061316183836132d1565b60208301905092915050565b61317681613598565b82525050565b60006131878261351f565b6131918185613542565b935061319c8361350f565b8060005b838110156131cd5781516131b48882613155565b97506131bf83613535565b9250506001810190506131a0565b5085935050505092915050565b6131e3816135aa565b82525050565b60006131f48261352a565b6131fe8185613553565b935061320e8185602086016135e0565b613217816137c3565b840191505092915050565b600061322f606083613553565b915061323a826137d4565b606082019050919050565b6000613252601083613553565b915061325d82613849565b602082019050919050565b6000613275602283613553565b915061328082613872565b604082019050919050565b6000613298602f83613553565b91506132a3826138c1565b604082019050919050565b60006132bb606183613553565b91506132c682613910565b608082019050919050565b6132da816135d6565b82525050565b6132e9816135d6565b82525050565b60006020820190508181036000830152613309818461317c565b905092915050565b6000602082019050818103600083015261332a81613222565b9050919050565b6000602082019050818103600083015261334a81613245565b9050919050565b6000602082019050818103600083015261336a81613268565b9050919050565b6000602082019050818103600083015261338a8161328b565b9050919050565b600060208201905081810360008301526133aa816132ae565b9050919050565b60006020820190506133c660008301846132e0565b92915050565b60006080820190506133e160008301876132e0565b81810360208301526133f381866131e9565b9050613402604083018561316d565b61340f60608301846132e0565b95945050505050565b600060a08201905061342d60008301886132e0565b818103602083015261343f81876131e9565b905061344e604083018661316d565b61345b60608301856132e0565b61346860808301846132e0565b9695505050505050565b600060808201905061348760008301876132e0565b818103602083015261349981866131e9565b90506134a860408301856132e0565b6134b560608301846131da565b95945050505050565b60006134c86134d9565b90506134d48282613645565b919050565b6000604051905090565b600067ffffffffffffffff8211156134fe576134fd61377b565b5b602082029050602081019050919050565b6000819050602082019050919050565b600081519050919050565b600081519050919050565b6000602082019050919050565b600082825260208201905092915050565b600082825260208201905092915050565b600061356f826135d6565b915061357a836135d6565b92508282101561358d5761358c6136bf565b5b828203905092915050565b60006135a3826135b6565b9050919050565b60008115159050919050565b600073ffffffffffffffffffffffffffffffffffffffff82169050919050565b6000819050919050565b60005b838110156135fe5780820151818401526020810190506135e3565b8381111561360d576000848401525b50505050565b6000600282049050600182168061362b57607f821691505b6020821081141561363f5761363e6136ee565b5b50919050565b61364e826137c3565b810181811067ffffffffffffffff8211171561366d5761366c61377b565b5b80604052505050565b6000613681826135d6565b91507fffffffffffffffffffffffffffffffffffffffffffffffffffffffffffffffff8214156136b4576136b36136bf565b5b600182019050919050565b7f4e487b7100000000000000000000000000000000000000000000000000000000600052601160045260246000fd5b7f4e487b7100000000000000000000000000000000000000000000000000000000600052602260045260246000fd5b7f4e487b7100000000000000000000000000000000000000000000000000000000600052603160045260246000fd5b7f4e487b7100000000000000000000000000000000000000000000000000000000600052603260045260246000fd5b7f4e487b7100000000000000000000000000000000000000000000000000000000600052604160045260246000fd5b600080fd5b600080fd5b600080fd5b600080fd5b600080fd5b6000601f19601f8301169050919050565b7f5768656e2073657474696e672074686520707265666572656e6365206c65766560008201527f6c206f6620636f75727365732c206974206973206e656365737361727920746f60208201527f206861766520616e20657175616c206e756d626572206f6620636f7572736573604082015250565b7f436f75727365206e6f7420666f756e6400000000000000000000000000000000600082015250565b7f6d7573742075706461746520616c6c20636f7572736520737569746162696c6960008201527f7479000000000000000000000000000000000000000000000000000000000000602082015250565b7f4f6e6c7920726567697374657265642074656163686572732063616e2063616c60008201527f6c20746869732066756e6374696f6e0000000000000000000000000000000000602082015250565b7f5768656e2073657474696e672074686520737569746162696c697479206c657660008201527f656c206f6620636f75727365732c206974206973206e6563657373617279207460208201527f6f206861766520616e20657175616c206e756d626572206f6620636f7572736560408201527f7300000000000000000000000000000000000000000000000000000000000000606082015250565b6139b481613598565b81146139bf57600080fd5b50565b6139cb816135aa565b81146139d657600080fd5b50565b6139e2816135d6565b81146139ed57600080fd5b5056fea2646970667358221220aea2755ab7aaf094304ddd62dba5d8e3d58e125f1b50b44331fb44b2aa01e95164736f6c63430008070033",
  "immutableReferences": {},
  "source": "// SPDX-License-Identifier: MIT\r\npragma solidity ^0.8.7;\r\n\r\ncontract ICourseAllocation {\r\n    // \r\n    struct Teacher {\r\n        uint256 id;\r\n        string name;\r\n        address addr;\r\n        uint256[] assignedCourses;\r\n        uint256[] reallyAssignedCourses;\r\n        uint256 suitabilityWeight;\r\n        uint256 value;\r\n        mapping(uint256 => uint256) courseSuitabilities;\r\n        mapping(uint256 => uint256) coursePreferences;\r\n    }\r\n\r\n    // \r\n    struct Agent {\r\n        uint256 id;\r\n        string name;\r\n        address addr;\r\n        uint256 value;\r\n        uint256[] assignedCourses;\r\n        mapping(uint256 => uint256) courseSuitabilities;\r\n    }\r\n\r\n    // \r\n    struct Course {\r\n        uint256 id;\r\n        string name;\r\n        uint256 importance;\r\n        uint256[] assignedTeacherId;\r\n        uint256[] assignedAgentId;\r\n        bool isAgentSuitable;\r\n    }\r\n\r\n    //  => ID\r\n    mapping(address => uint256) public addressToTeacherId;\r\n\r\n    //  => ID\r\n    mapping(address => uint256) public addressToAgentId;\r\n\r\n    //  => ID\r\n    mapping(address => uint256) public addressToClassId;\r\n\r\n    // ID => \r\n    mapping(uint256 => Teacher) public teachers;\r\n\r\n    // ID => \r\n    mapping(uint256 => Agent) public agents;\r\n\r\n    // ID => \r\n    mapping(uint256 => Course) public courses;\r\n\r\n    // ID\r\n    uint256 public teacherCount;\r\n\r\n    // ID\r\n    uint256 public agentCount;\r\n\r\n    // ID\r\n    uint256 public classCount;\r\n\r\n    // ID\r\n    uint256 public courseCount;\r\n\r\n    // ID\r\n    uint256[] public teacherIds;\r\n\r\n    // ID\r\n    uint256[] public agentIds;\r\n\r\n    // ID\r\n    uint256[] public courseIds;\r\n\r\n    // ID\r\n    uint256[] public classIds;\r\n\r\n    // \r\n    // event CourseImportanceSet(uint256 indexed courseId, uint256 importance);\r\n    // event SuitabilityUpdated(uint256 indexed courseId, uint256 suitability);\r\n    // event PreferenceUpdated(uint256 indexed teacherId, uint256 indexed courseId, uint256 preference);\r\n    // event ProposalCreated(uint256 proposalId, uint256 indexed courseId, uint256[] teacherIds); // \r\n    // event MachineProposal(uint256 proposalId, uint256 indexed courseId, uint256[] teacherIds, uint256[] teacherCounts); // \r\n    // event CourseAssignedToTeacher(uint256 indexed courseId, uint256 indexed teacherId); // \r\n\r\n    // \r\n    constructor() {}\r\n\r\n    // \r\n    modifier onlyTeacher() {\r\n        require(\r\n            addressToTeacherId[msg.sender] != 0,\r\n            \"Only registered teachers can call this function\"\r\n        );\r\n        _;\r\n    }\r\n\r\n    // ID\r\n    function setTeacherId(address teacherAddress, uint256 _TeacherId) public {\r\n        addressToTeacherId[teacherAddress] = _TeacherId;\r\n        teachers[_TeacherId].id = _TeacherId;\r\n        teacherIds.push(_TeacherId);\r\n    }\r\n\r\n    // \r\n    function removeTeacher(uint256 teacherId) public onlyTeacher {\r\n        teachers[teacherId].id = 0;\r\n        //  teacherIds  ID\r\n        for (uint256 i = 0; i < teacherIds.length; i++) {\r\n            if (teacherIds[i] == teacherId) {\r\n                //  ID \r\n                teacherIds[i] = teacherIds[teacherIds.length - 1];\r\n                // \r\n                teacherIds.pop();\r\n                break;\r\n            }\r\n        }\r\n    }\r\n\r\n    // \r\n    function setTeacherName(\r\n        uint256 teacherId,\r\n        string calldata _name\r\n    ) public onlyTeacher {\r\n        teachers[teacherId].name = _name;\r\n    }\r\n\r\n    // \r\n    function setTeacherAddress(\r\n        uint256 teacherId,\r\n        address _teacherAddress\r\n    ) public onlyTeacher {\r\n        teachers[teacherId].addr = _teacherAddress;\r\n    }\r\n\r\n    // \r\n    function addTeacherAssignedCourses(\r\n        uint256 teacherId,\r\n        uint256 _assignedCourses\r\n    ) public {\r\n        teachers[teacherId].assignedCourses.push(_assignedCourses);\r\n    }\r\n\r\n    // \r\n    function addTeacherReallyAssignedCourses(\r\n        uint256 teacherId,\r\n        uint256 _assignedCourses\r\n    ) public {\r\n        teachers[teacherId].reallyAssignedCourses.push(_assignedCourses);\r\n    }\r\n\r\n    // \r\n    function removeTeacherAssignedCourses(\r\n        uint256 teacherId,\r\n        uint256 _assignedCourses\r\n    ) public {\r\n        bool found = false;\r\n        uint256 indexToRemove;\r\n\r\n        //  ID \r\n        for (\r\n            uint256 i = 0;\r\n            i < teachers[teacherId].assignedCourses.length;\r\n            i++\r\n        ) {\r\n            if (teachers[teacherId].assignedCourses[i] == _assignedCourses) {\r\n                found = true;\r\n                indexToRemove = i;\r\n                break;\r\n            }\r\n        }\r\n\r\n        //  ID\r\n        if (found) {\r\n            // \r\n            teachers[teacherId].assignedCourses[indexToRemove] = teachers[\r\n                teacherId\r\n            ].assignedCourses[teachers[teacherId].assignedCourses.length - 1];\r\n            // \r\n            teachers[teacherId].assignedCourses.pop();\r\n        } else {\r\n            //  ID\r\n            revert(\"Course not found\");\r\n        }\r\n    }\r\n\r\n    // \r\n    function removeTeacherReallyAssignedCourses(\r\n        uint256 teacherId,\r\n        uint256 _assignedCourses\r\n    ) public {\r\n        bool found = false;\r\n        uint256 indexToRemove;\r\n\r\n        //  ID \r\n        for (\r\n            uint256 i = 0;\r\n            i < teachers[teacherId].reallyAssignedCourses.length;\r\n            i++\r\n        ) {\r\n            if (teachers[teacherId].reallyAssignedCourses[i] == _assignedCourses) {\r\n                found = true;\r\n                indexToRemove = i;\r\n                break;\r\n            }\r\n        }\r\n\r\n        //  ID\r\n        if (found) {\r\n            // \r\n            teachers[teacherId].reallyAssignedCourses[indexToRemove] = teachers[\r\n                teacherId\r\n            ].reallyAssignedCourses[teachers[teacherId].reallyAssignedCourses.length - 1];\r\n            // \r\n            teachers[teacherId].reallyAssignedCourses.pop();\r\n        } else {\r\n            //  ID\r\n            revert(\"Course not found\");\r\n        }\r\n    }\r\n\r\n    // \r\n    function setTeacherSuitabilityWeight(\r\n        uint256 teacherId,\r\n        uint256 _suitabilityWeight\r\n    ) public onlyTeacher {\r\n        teachers[teacherId].suitabilityWeight = _suitabilityWeight;\r\n    }\r\n\r\n    // \r\n    function setTeacherValue(\r\n        uint256 teacherId,\r\n        uint256 _value\r\n    ) public onlyTeacher {\r\n        teachers[teacherId].value = _value;\r\n    }\r\n\r\n    // \r\n    function setAgentValue(uint256 agentId, uint256 _value) public {\r\n        agents[agentId].value = _value;\r\n    }\r\n\r\n    // \r\n    function setAllTeacherCourseSuitability(\r\n        uint256 teacherId,\r\n        uint256[] calldata _suitabilities\r\n    ) public onlyTeacher {\r\n        require(\r\n            _suitabilities.length == courseIds.length,\r\n            \"When setting the suitability level of courses, it is necessary to have an equal number of courses\"\r\n        );\r\n        for (\r\n            uint256 courseIndex = 0;\r\n            courseIndex < courseIds.length;\r\n            courseIndex++\r\n        ) {\r\n            teachers[teacherId].courseSuitabilities[\r\n                courseIds[courseIndex]\r\n            ] = _suitabilities[courseIndex];\r\n        }\r\n    }\r\n\r\n    // \r\n    function setTeacherCourseSuitability(\r\n        uint256 teacherId,\r\n        uint256 courseId,\r\n        uint256 _suitability\r\n    ) public {\r\n        teachers[teacherId].courseSuitabilities[courseId] = _suitability;\r\n    }\r\n\r\n    // \r\n    function setAllTeacherCoursePreferences(\r\n        uint256 teacherId,\r\n        uint256[] calldata _preferences\r\n    ) public onlyTeacher {\r\n        require(\r\n            _preferences.length == courseIds.length,\r\n            \"When setting the preference level of courses, it is necessary to have an equal number of courses\"\r\n        );\r\n        for (\r\n            uint256 courseIndex = 0;\r\n            courseIndex < courseIds.length;\r\n            courseIndex++\r\n        ) {\r\n            teachers[teacherId].coursePreferences[\r\n                courseIds[courseIndex]\r\n            ] = _preferences[courseIndex];\r\n        }\r\n    }\r\n\r\n    // \r\n    function setTeacherCoursePreferences(\r\n        uint256 teacherId,\r\n        uint256 courseId,\r\n        uint256 _preference\r\n    ) public onlyTeacher {\r\n        teachers[teacherId].coursePreferences[courseId] = _preference;\r\n    }\r\n\r\n    // ID\r\n    function setAgentId(address agentAddress, uint256 _agentId) public {\r\n        addressToAgentId[agentAddress] = _agentId;\r\n        agents[_agentId].id = _agentId;\r\n        agentIds.push(_agentId);\r\n    }\r\n\r\n    // \r\n    function removeAgent(uint256 agentId) public {\r\n        agents[agentId].id = 0;\r\n        //  agentIds  ID\r\n        for (uint256 i = 0; i < agentIds.length; i++) {\r\n            if (agentIds[i] == agentId) {\r\n                //  ID \r\n                agentIds[i] = agentIds[agentIds.length - 1];\r\n                // \r\n                agentIds.pop();\r\n                break;\r\n            }\r\n        }\r\n    }\r\n\r\n    // \r\n    function setAgentName(uint256 agentId, string calldata _name) public {\r\n        agents[agentId].name = _name;\r\n    }\r\n\r\n    // \r\n    function setAgentAddress(uint256 agentId, address _agentAddress) public {\r\n        agents[agentId].addr = _agentAddress;\r\n    }\r\n\r\n    // \r\n    function addAgentAssignedCourses(\r\n        uint256 agentId,\r\n        uint256 _assignedCourses\r\n    ) public {\r\n        agents[agentId].assignedCourses.push(_assignedCourses);\r\n    }\r\n\r\n    // \r\n    function removeAgentAssignedCourses(\r\n        uint256 agentId,\r\n        uint256 _assignedCourses\r\n    ) public {\r\n        bool found = false;\r\n        uint256 indexToRemove;\r\n\r\n        //  ID \r\n        for (uint256 i = 0; i < agents[agentId].assignedCourses.length; i++) {\r\n            if (agents[agentId].assignedCourses[i] == _assignedCourses) {\r\n                found = true;\r\n                indexToRemove = i;\r\n                break;\r\n            }\r\n        }\r\n\r\n        //  ID\r\n        if (found) {\r\n            // \r\n            agents[agentId].assignedCourses[indexToRemove] = agents[agentId]\r\n                .assignedCourses[agents[agentId].assignedCourses.length - 1];\r\n            // \r\n            agents[agentId].assignedCourses.pop();\r\n        } else {\r\n            //  ID\r\n            revert(\"Course not found\");\r\n        }\r\n    }\r\n\r\n    // \r\n    function setAgentCourseSuitability(\r\n        uint256 agentId,\r\n        uint256 _courseId,\r\n        uint256 _suitability\r\n    ) public {\r\n        agents[agentId].courseSuitabilities[_courseId] = _suitability;\r\n    }\r\n\r\n    // \r\n    function setAllAgentCourseSuitability(\r\n        uint256 agentId,\r\n        uint256[] calldata _suitabilities\r\n    ) public {\r\n        require(\r\n            _suitabilities.length == courseIds.length,\r\n            \"When setting the suitability level of courses, it is necessary to have an equal number of courses\"\r\n        );\r\n        for (\r\n            uint256 courseIndex = 0;\r\n            courseIndex < courseIds.length;\r\n            courseIndex++\r\n        ) {\r\n            agents[agentId].courseSuitabilities[\r\n                courseIds[courseIndex]\r\n            ] = _suitabilities[courseIndex];\r\n        }\r\n    }\r\n\r\n    // ID\r\n    function setClassId(address classAddress, uint256 _id) public {\r\n        addressToClassId[classAddress] = _id;\r\n        classIds.push(_id);\r\n    }\r\n\r\n    // \r\n    function removeClass(uint256 classId) public {\r\n        //  classIds  ID\r\n        for (uint256 i = 0; i < classIds.length; i++) {\r\n            if (classIds[i] == classId) {\r\n                //  ID \r\n                classIds[i] = classIds[classIds.length - 1];\r\n                // \r\n                classIds.pop();\r\n                break;\r\n            }\r\n        }\r\n    }\r\n\r\n    // ID\r\n    function setCourseId(uint256 courseId) public {\r\n        courses[courseId].id = courseId;\r\n        courseIds.push(courseId);\r\n    }\r\n\r\n    // \r\n    function removeCourse(uint256 courseId) public {\r\n        //  classIds  ID\r\n        for (uint256 i = 0; i < courseIds.length; i++) {\r\n            if (courseIds[i] == courseId) {\r\n                //  ID \r\n                courseIds[i] = courseIds[courseIds.length - 1];\r\n                // \r\n                courseIds.pop();\r\n                break;\r\n            }\r\n        }\r\n    }\r\n\r\n    // \r\n    function setCourseName(uint256 courseId, string calldata _name) public {\r\n        courses[courseId].name = _name;\r\n    }\r\n\r\n    // \r\n    function setCourseImportance(uint256 courseId, uint256 _importance) public {\r\n        courses[courseId].importance = _importance;\r\n    }\r\n\r\n    // \r\n    function setAllCourseImportance(uint256[] memory _importances) public {\r\n        require(\r\n            _importances.length == courseIds.length,\r\n            \"must update all course suitability\"\r\n        );\r\n        // \r\n        for (\r\n            uint256 courseIndex = 0;\r\n            courseIndex < courseIds.length;\r\n            courseIndex++\r\n        ) {\r\n            courses[courseIds[courseIndex]].importance = _importances[\r\n                courseIndex\r\n            ];\r\n        }\r\n    }\r\n\r\n    // ID\r\n    function addCourseAssignedTeacherId(\r\n        uint256 courseId,\r\n        uint256 _teacherId\r\n    ) public {\r\n        courses[courseId].assignedTeacherId.push(_teacherId);\r\n    }\r\n\r\n    // ID\r\n    function addCourseAssignedAgentId(\r\n        uint256 courseId,\r\n        uint256 _agentId\r\n    ) public {\r\n        courses[courseId].assignedAgentId.push(_agentId);\r\n    }\r\n\r\n    // \r\n    function removeCourseAssignedTeacherId(\r\n        uint256 courseId,\r\n        uint256 _teacherId\r\n    ) public {\r\n        bool found = false;\r\n        uint256 indexToRemove;\r\n\r\n        //  ID \r\n        for (\r\n            uint256 i = 0;\r\n            i < courses[courseId].assignedTeacherId.length;\r\n            i++\r\n        ) {\r\n            if (courses[courseId].assignedTeacherId[i] == _teacherId) {\r\n                found = true;\r\n                indexToRemove = i;\r\n                break;\r\n            }\r\n        }\r\n\r\n        //  ID\r\n        if (found) {\r\n            // \r\n            courses[courseId].assignedTeacherId[indexToRemove] = courses[\r\n                courseId\r\n            ].assignedTeacherId[courses[courseId].assignedTeacherId.length - 1];\r\n            // \r\n            courses[courseId].assignedTeacherId.pop();\r\n        } else {\r\n            //  ID\r\n            revert(\"Course not found\");\r\n        }\r\n    }\r\n\r\n    // \r\n    function removeCourseAssignedAgentId(\r\n        uint256 courseId,\r\n        uint256 _agentId\r\n    ) public {\r\n        bool found = false;\r\n        uint256 indexToRemove;\r\n\r\n        //  ID \r\n        for (uint256 i = 0; i < courses[courseId].assignedAgentId.length; i++) {\r\n            if (courses[courseId].assignedAgentId[i] == _agentId) {\r\n                found = true;\r\n                indexToRemove = i;\r\n                break;\r\n            }\r\n        }\r\n\r\n        //  ID\r\n        if (found) {\r\n            // \r\n            courses[courseId].assignedAgentId[indexToRemove] = courses[courseId]\r\n                .assignedAgentId[courses[courseId].assignedAgentId.length - 1];\r\n            // \r\n            courses[courseId].assignedAgentId.pop();\r\n        } else {\r\n            //  ID\r\n            revert(\"Course not found\");\r\n        }\r\n    }\r\n\r\n    // \r\n    function setCourseIsAgentSuitable(\r\n        uint256 courseId,\r\n        bool _isAgentSuitable\r\n    ) public {\r\n        courses[courseId].isAgentSuitable = _isAgentSuitable;\r\n    }\r\n\r\n    // \r\n    function setTeacherCount(uint256 _teacherCount) public {\r\n        teacherCount = _teacherCount;\r\n    }\r\n\r\n    // \r\n    function setAgentCount(uint256 _agentCount) public {\r\n        agentCount = _agentCount;\r\n    }\r\n\r\n    // \r\n    function setClassCount(uint256 _classCount) public {\r\n        classCount = _classCount;\r\n    }\r\n\r\n    // \r\n    function setCourseCount(uint256 _courseCount) public {\r\n        courseCount = _courseCount;\r\n    }\r\n\r\n    // \r\n    function getTeacherSuitability(\r\n        uint256 _teacherId,\r\n        uint256 courseId\r\n    ) public view returns (uint256) {\r\n        return teachers[_teacherId].courseSuitabilities[courseId];\r\n    }\r\n\r\n    // \r\n    function getAgentSuitability(\r\n        uint256 _agentId,\r\n        uint256 courseId\r\n    ) public view returns (uint256) {\r\n        return agents[_agentId].courseSuitabilities[courseId];\r\n    }\r\n\r\n    // \r\n    function getPreference(\r\n        uint256 _teacherId,\r\n        uint256 courseId\r\n    ) public view returns (uint256) {\r\n        return teachers[_teacherId].coursePreferences[courseId];\r\n    }\r\n\r\n    // \r\n    function getTeacherAssignedCourses(\r\n        uint256 _teacherId\r\n    ) public view returns (uint256[] memory) {\r\n        return teachers[_teacherId].assignedCourses;\r\n    }\r\n\r\n    // \r\n    function getTeacherReallyAssignedCourses(\r\n        uint256 _teacherId\r\n    ) public view returns (uint256[] memory) {\r\n        return teachers[_teacherId].reallyAssignedCourses;\r\n    }\r\n\r\n    // \r\n    function getAgentAssignedCourses(\r\n        uint256 _agentId\r\n    ) public view returns (uint256[] memory) {\r\n        return agents[_agentId].assignedCourses;\r\n    }\r\n\r\n    // \r\n    function getCoursesAssignedTeacher(\r\n        uint256 _courseId\r\n    ) public view returns (uint256[] memory) {\r\n        return courses[_courseId].assignedTeacherId;\r\n    }\r\n\r\n    // \r\n    function getCoursesAssignedAgent(\r\n        uint256 _courseId\r\n    ) public view returns (uint256[] memory) {\r\n        return courses[_courseId].assignedAgentId;\r\n    }\r\n\r\n    function getTeacherIds() public view returns (uint256[] memory) {\r\n        return teacherIds;\r\n    }\r\n\r\n    function getAgentIds() public view returns (uint256[] memory) {\r\n        return agentIds;\r\n    }\r\n\r\n    function getCourseIds() public view returns (uint256[] memory) {\r\n        return courseIds;\r\n    }\r\n\r\n    function getClassIds() public view returns (uint256[] memory) {\r\n        return classIds;\r\n    }\r\n}\r\n",
  "sourcePath": "E:\\\\paper\\DAO\\git-DAO\\v1\\Course-allocation\\project\\contracts\\ICourseAllocation.sol",
  "compiler": {
    "name": "solc",
    "version": "0.8.7+commit.e28d00a7.Emscripten.clang"
  },
  "schemaVersion": "3.4.16",
  "updatedAt": "2025-03-31T08:42:35.669Z",
  "networkType": "ethereum",
  "devdoc": {
    "kind": "dev",
    "methods": {},
    "version": 1
  },
  "userdoc": {
    "kind": "user",
    "methods": {},
    "version": 1
  }
}