{
  "contractName": "ICourseAllocation",
  "abi": [
    {
      "inputs": [],
      "stateMutability": "nonpayable",
      "type": "constructor"
    },
    {
      "inputs": [
        {
          "internalType": "address",
          "name": "",
          "type": "address"
        }
      ],
      "name": "addressToAgentId",
      "outputs": [
        {
          "internalType": "uint256",
          "name": "",
          "type": "uint256"
        }
      ],
      "stateMutability": "view",
      "type": "function",
      "constant": true
    },
    {
      "inputs": [
        {
          "internalType": "address",
          "name": "",
          "type": "address"
        }
      ],
      "name": "addressToClassId",
      "outputs": [
        {
          "internalType": "uint256",
          "name": "",
          "type": "uint256"
        }
      ],
      "stateMutability": "view",
      "type": "function",
      "constant": true
    },
    {
      "inputs": [
        {
          "internalType": "address",
          "name": "",
          "type": "address"
        }
      ],
      "name": "addressToTeacherId",
      "outputs": [
        {
          "internalType": "uint256",
          "name": "",
          "type": "uint256"
        }
      ],
      "stateMutability": "view",
      "type": "function",
      "constant": true
    },
    {
      "inputs": [],
      "name": "agentCount",
      "outputs": [
        {
          "internalType": "uint256",
          "name": "",
          "type": "uint256"
        }
      ],
      "stateMutability": "view",
      "type": "function",
      "constant": true
    },
    {
      "inputs": [
        {
          "internalType": "uint256",
          "name": "",
          "type": "uint256"
        }
      ],
      "name": "agentIds",
      "outputs": [
        {
          "internalType": "uint256",
          "name": "",
          "type": "uint256"
        }
      ],
      "stateMutability": "view",
      "type": "function",
      "constant": true
    },
    {
      "inputs": [
        {
          "internalType": "uint256",
          "name": "",
          "type": "uint256"
        }
      ],
      "name": "agents",
      "outputs": [
        {
          "internalType": "uint256",
          "name": "id",
          "type": "uint256"
        },
        {
          "internalType": "string",
          "name": "name",
          "type": "string"
        },
        {
          "internalType": "address",
          "name": "addr",
          "type": "address"
        },
        {
          "internalType": "uint256",
          "name": "value",
          "type": "uint256"
        }
      ],
      "stateMutability": "view",
      "type": "function",
      "constant": true
    },
    {
      "inputs": [],
      "name": "classCount",
      "outputs": [
        {
          "internalType": "uint256",
          "name": "",
          "type": "uint256"
        }
      ],
      "stateMutability": "view",
      "type": "function",
      "constant": true
    },
    {
      "inputs": [
        {
          "internalType": "uint256",
          "name": "",
          "type": "uint256"
        }
      ],
      "name": "classIds",
      "outputs": [
        {
          "internalType": "uint256",
          "name": "",
          "type": "uint256"
        }
      ],
      "stateMutability": "view",
      "type": "function",
      "constant": true
    },
    {
      "inputs": [],
      "name": "courseCount",
      "outputs": [
        {
          "internalType": "uint256",
          "name": "",
          "type": "uint256"
        }
      ],
      "stateMutability": "view",
      "type": "function",
      "constant": true
    },
    {
      "inputs": [
        {
          "internalType": "uint256",
          "name": "",
          "type": "uint256"
        }
      ],
      "name": "courseIds",
      "outputs": [
        {
          "internalType": "uint256",
          "name": "",
          "type": "uint256"
        }
      ],
      "stateMutability": "view",
      "type": "function",
      "constant": true
    },
    {
      "inputs": [
        {
          "internalType": "uint256",
          "name": "",
          "type": "uint256"
        }
      ],
      "name": "courses",
      "outputs": [
        {
          "internalType": "uint256",
          "name": "id",
          "type": "uint256"
        },
        {
          "internalType": "string",
          "name": "name",
          "type": "string"
        },
        {
          "internalType": "uint256",
          "name": "importance",
          "type": "uint256"
        },
        {
          "internalType": "bool",
          "name": "isAgentSuitable",
          "type": "bool"
        }
      ],
      "stateMutability": "view",
      "type": "function",
      "constant": true
    },
    {
      "inputs": [],
      "name": "teacherCount",
      "outputs": [
        {
          "internalType": "uint256",
          "name": "",
          "type": "uint256"
        }
      ],
      "stateMutability": "view",
      "type": "function",
      "constant": true
    },
    {
      "inputs": [
        {
          "internalType": "uint256",
          "name": "",
          "type": "uint256"
        }
      ],
      "name": "teacherIds",
      "outputs": [
        {
          "internalType": "uint256",
          "name": "",
          "type": "uint256"
        }
      ],
      "stateMutability": "view",
      "type": "function",
      "constant": true
    },
    {
      "inputs": [
        {
          "internalType": "uint256",
          "name": "",
          "type": "uint256"
        }
      ],
      "name": "teachers",
      "outputs": [
        {
          "internalType": "uint256",
          "name": "id",
          "type": "uint256"
        },
        {
          "internalType": "string",
          "name": "name",
          "type": "string"
        },
        {
          "internalType": "address",
          "name": "addr",
          "type": "address"
        },
        {
          "internalType": "uint256",
          "name": "suitabilityWeight",
          "type": "uint256"
        },
        {
          "internalType": "uint256",
          "name": "transferCourseCoins",
          "type": "uint256"
        },
        {
          "internalType": "uint256",
          "name": "value",
          "type": "uint256"
        }
      ],
      "stateMutability": "view",
      "type": "function",
      "constant": true
    },
    {
      "inputs": [
        {
          "internalType": "address",
          "name": "teacherAddress",
          "type": "address"
        },
        {
          "internalType": "uint256",
          "name": "_TeacherId",
          "type": "uint256"
        }
      ],
      "name": "setTeacherId",
      "outputs": [],
      "stateMutability": "nonpayable",
      "type": "function"
    },
    {
      "inputs": [
        {
          "internalType": "uint256",
          "name": "teacherId",
          "type": "uint256"
        }
      ],
      "name": "removeTeacher",
      "outputs": [],
      "stateMutability": "nonpayable",
      "type": "function"
    },
    {
      "inputs": [
        {
          "internalType": "uint256",
          "name": "teacherId",
          "type": "uint256"
        },
        {
          "internalType": "string",
          "name": "_name",
          "type": "string"
        }
      ],
      "name": "setTeacherName",
      "outputs": [],
      "stateMutability": "nonpayable",
      "type": "function"
    },
    {
      "inputs": [
        {
          "internalType": "uint256",
          "name": "teacherId",
          "type": "uint256"
        },
        {
          "internalType": "address",
          "name": "_teacherAddress",
          "type": "address"
        }
      ],
      "name": "setTeacherAddress",
      "outputs": [],
      "stateMutability": "nonpayable",
      "type": "function"
    },
    {
      "inputs": [
        {
          "internalType": "uint256",
          "name": "teacherId",
          "type": "uint256"
        },
        {
          "internalType": "uint256",
          "name": "_assignedCourses",
          "type": "uint256"
        }
      ],
      "name": "addTeacherAssignedCourses",
      "outputs": [],
      "stateMutability": "nonpayable",
      "type": "function"
    },
    {
      "inputs": [
        {
          "internalType": "uint256",
          "name": "teacherId",
          "type": "uint256"
        },
        {
          "internalType": "uint256",
          "name": "_assignedCourses",
          "type": "uint256"
        }
      ],
      "name": "addTeacherReallyAssignedCourses",
      "outputs": [],
      "stateMutability": "nonpayable",
      "type": "function"
    },
    {
      "inputs": [
        {
          "internalType": "uint256",
          "name": "teacherId",
          "type": "uint256"
        },
        {
          "internalType": "uint256",
          "name": "_assignedCourses",
          "type": "uint256"
        }
      ],
      "name": "removeTeacherAssignedCourses",
      "outputs": [],
      "stateMutability": "nonpayable",
      "type": "function"
    },
    {
      "inputs": [
        {
          "internalType": "uint256",
          "name": "teacherId",
          "type": "uint256"
        },
        {
          "internalType": "uint256",
          "name": "_assignedCourses",
          "type": "uint256"
        }
      ],
      "name": "removeTeacherReallyAssignedCourses",
      "outputs": [],
      "stateMutability": "nonpayable",
      "type": "function"
    },
    {
      "inputs": [
        {
          "internalType": "uint256",
          "name": "teacherId",
          "type": "uint256"
        },
        {
          "internalType": "uint256",
          "name": "_suitabilityWeight",
          "type": "uint256"
        }
      ],
      "name": "setTeacherSuitabilityWeight",
      "outputs": [],
      "stateMutability": "nonpayable",
      "type": "function"
    },
    {
      "inputs": [
        {
          "internalType": "uint256",
          "name": "teacherId",
          "type": "uint256"
        },
        {
          "internalType": "uint256",
          "name": "_transferCourseCoins",
          "type": "uint256"
        }
      ],
      "name": "setTeacherTransferCourseCoins",
      "outputs": [],
      "stateMutability": "nonpayable",
      "type": "function"
    },
    {
      "inputs": [
        {
          "internalType": "uint256",
          "name": "teacherId",
          "type": "uint256"
        },
        {
          "internalType": "uint256",
          "name": "_value",
          "type": "uint256"
        }
      ],
      "name": "setTeacherValue",
      "outputs": [],
      "stateMutability": "nonpayable",
      "type": "function"
    },
    {
      "inputs": [
        {
          "internalType": "uint256",
          "name": "agentId",
          "type": "uint256"
        },
        {
          "internalType": "uint256",
          "name": "_value",
          "type": "uint256"
        }
      ],
      "name": "setAgentValue",
      "outputs": [],
      "stateMutability": "nonpayable",
      "type": "function"
    },
    {
      "inputs": [
        {
          "internalType": "uint256",
          "name": "teacherId",
          "type": "uint256"
        },
        {
          "internalType": "uint256[]",
          "name": "_suitabilities",
          "type": "uint256[]"
        }
      ],
      "name": "setAllTeacherCourseSuitability",
      "outputs": [],
      "stateMutability": "nonpayable",
      "type": "function"
    },
    {
      "inputs": [
        {
          "internalType": "uint256",
          "name": "teacherId",
          "type": "uint256"
        },
        {
          "internalType": "uint256",
          "name": "courseId",
          "type": "uint256"
        },
        {
          "internalType": "uint256",
          "name": "_suitability",
          "type": "uint256"
        }
      ],
      "name": "setTeacherCourseSuitability",
      "outputs": [],
      "stateMutability": "nonpayable",
      "type": "function"
    },
    {
      "inputs": [
        {
          "internalType": "uint256",
          "name": "teacherId",
          "type": "uint256"
        },
        {
          "internalType": "uint256[]",
          "name": "_preferences",
          "type": "uint256[]"
        }
      ],
      "name": "setAllTeacherCoursePreferences",
      "outputs": [],
      "stateMutability": "nonpayable",
      "type": "function"
    },
    {
      "inputs": [
        {
          "internalType": "uint256",
          "name": "teacherId",
          "type": "uint256"
        },
        {
          "internalType": "uint256",
          "name": "courseId",
          "type": "uint256"
        },
        {
          "internalType": "uint256",
          "name": "_preference",
          "type": "uint256"
        }
      ],
      "name": "setTeacherCoursePreferences",
      "outputs": [],
      "stateMutability": "nonpayable",
      "type": "function"
    },
    {
      "inputs": [
        {
          "internalType": "address",
          "name": "agentAddress",
          "type": "address"
        },
        {
          "internalType": "uint256",
          "name": "_agentId",
          "type": "uint256"
        }
      ],
      "name": "setAgentId",
      "outputs": [],
      "stateMutability": "nonpayable",
      "type": "function"
    },
    {
      "inputs": [
        {
          "internalType": "uint256",
          "name": "agentId",
          "type": "uint256"
        }
      ],
      "name": "removeAgent",
      "outputs": [],
      "stateMutability": "nonpayable",
      "type": "function"
    },
    {
      "inputs": [
        {
          "internalType": "uint256",
          "name": "agentId",
          "type": "uint256"
        },
        {
          "internalType": "string",
          "name": "_name",
          "type": "string"
        }
      ],
      "name": "setAgentName",
      "outputs": [],
      "stateMutability": "nonpayable",
      "type": "function"
    },
    {
      "inputs": [
        {
          "internalType": "uint256",
          "name": "agentId",
          "type": "uint256"
        },
        {
          "internalType": "address",
          "name": "_agentAddress",
          "type": "address"
        }
      ],
      "name": "setAgentAddress",
      "outputs": [],
      "stateMutability": "nonpayable",
      "type": "function"
    },
    {
      "inputs": [
        {
          "internalType": "uint256",
          "name": "agentId",
          "type": "uint256"
        },
        {
          "internalType": "uint256",
          "name": "_assignedCourses",
          "type": "uint256"
        }
      ],
      "name": "addAgentAssignedCourses",
      "outputs": [],
      "stateMutability": "nonpayable",
      "type": "function"
    },
    {
      "inputs": [
        {
          "internalType": "uint256",
          "name": "agentId",
          "type": "uint256"
        },
        {
          "internalType": "uint256",
          "name": "_assignedCourses",
          "type": "uint256"
        }
      ],
      "name": "removeAgentAssignedCourses",
      "outputs": [],
      "stateMutability": "nonpayable",
      "type": "function"
    },
    {
      "inputs": [
        {
          "internalType": "uint256",
          "name": "agentId",
          "type": "uint256"
        },
        {
          "internalType": "uint256",
          "name": "_courseId",
          "type": "uint256"
        },
        {
          "internalType": "uint256",
          "name": "_suitability",
          "type": "uint256"
        }
      ],
      "name": "setAgentCourseSuitability",
      "outputs": [],
      "stateMutability": "nonpayable",
      "type": "function"
    },
    {
      "inputs": [
        {
          "internalType": "uint256",
          "name": "agentId",
          "type": "uint256"
        },
        {
          "internalType": "uint256[]",
          "name": "_suitabilities",
          "type": "uint256[]"
        }
      ],
      "name": "setAllAgentCourseSuitability",
      "outputs": [],
      "stateMutability": "nonpayable",
      "type": "function"
    },
    {
      "inputs": [
        {
          "internalType": "address",
          "name": "classAddress",
          "type": "address"
        },
        {
          "internalType": "uint256",
          "name": "_id",
          "type": "uint256"
        }
      ],
      "name": "setClassId",
      "outputs": [],
      "stateMutability": "nonpayable",
      "type": "function"
    },
    {
      "inputs": [
        {
          "internalType": "uint256",
          "name": "classId",
          "type": "uint256"
        }
      ],
      "name": "removeClass",
      "outputs": [],
      "stateMutability": "nonpayable",
      "type": "function"
    },
    {
      "inputs": [
        {
          "internalType": "uint256",
          "name": "courseId",
          "type": "uint256"
        }
      ],
      "name": "setCourseId",
      "outputs": [],
      "stateMutability": "nonpayable",
      "type": "function"
    },
    {
      "inputs": [
        {
          "internalType": "uint256",
          "name": "courseId",
          "type": "uint256"
        }
      ],
      "name": "removeCourse",
      "outputs": [],
      "stateMutability": "nonpayable",
      "type": "function"
    },
    {
      "inputs": [
        {
          "internalType": "uint256",
          "name": "courseId",
          "type": "uint256"
        },
        {
          "internalType": "string",
          "name": "_name",
          "type": "string"
        }
      ],
      "name": "setCourseName",
      "outputs": [],
      "stateMutability": "nonpayable",
      "type": "function"
    },
    {
      "inputs": [
        {
          "internalType": "uint256",
          "name": "courseId",
          "type": "uint256"
        },
        {
          "internalType": "uint256",
          "name": "_importance",
          "type": "uint256"
        }
      ],
      "name": "setCourseImportance",
      "outputs": [],
      "stateMutability": "nonpayable",
      "type": "function"
    },
    {
      "inputs": [
        {
          "internalType": "uint256[]",
          "name": "_importances",
          "type": "uint256[]"
        }
      ],
      "name": "setAllCourseImportance",
      "outputs": [],
      "stateMutability": "nonpayable",
      "type": "function"
    },
    {
      "inputs": [
        {
          "internalType": "uint256",
          "name": "courseId",
          "type": "uint256"
        },
        {
          "internalType": "uint256",
          "name": "_teacherId",
          "type": "uint256"
        }
      ],
      "name": "addCourseAssignedTeacherId",
      "outputs": [],
      "stateMutability": "nonpayable",
      "type": "function"
    },
    {
      "inputs": [
        {
          "internalType": "uint256",
          "name": "courseId",
          "type": "uint256"
        },
        {
          "internalType": "uint256",
          "name": "_agentId",
          "type": "uint256"
        }
      ],
      "name": "addCourseAssignedAgentId",
      "outputs": [],
      "stateMutability": "nonpayable",
      "type": "function"
    },
    {
      "inputs": [
        {
          "internalType": "uint256",
          "name": "courseId",
          "type": "uint256"
        },
        {
          "internalType": "uint256",
          "name": "_teacherId",
          "type": "uint256"
        }
      ],
      "name": "removeCourseAssignedTeacherId",
      "outputs": [],
      "stateMutability": "nonpayable",
      "type": "function"
    },
    {
      "inputs": [
        {
          "internalType": "uint256",
          "name": "courseId",
          "type": "uint256"
        },
        {
          "internalType": "uint256",
          "name": "_agentId",
          "type": "uint256"
        }
      ],
      "name": "removeCourseAssignedAgentId",
      "outputs": [],
      "stateMutability": "nonpayable",
      "type": "function"
    },
    {
      "inputs": [
        {
          "internalType": "uint256",
          "name": "courseId",
          "type": "uint256"
        },
        {
          "internalType": "bool",
          "name": "_isAgentSuitable",
          "type": "bool"
        }
      ],
      "name": "setCourseIsAgentSuitable",
      "outputs": [],
      "stateMutability": "nonpayable",
      "type": "function"
    },
    {
      "inputs": [
        {
          "internalType": "uint256",
          "name": "_teacherCount",
          "type": "uint256"
        }
      ],
      "name": "setTeacherCount",
      "outputs": [],
      "stateMutability": "nonpayable",
      "type": "function"
    },
    {
      "inputs": [
        {
          "internalType": "uint256",
          "name": "_agentCount",
          "type": "uint256"
        }
      ],
      "name": "setAgentCount",
      "outputs": [],
      "stateMutability": "nonpayable",
      "type": "function"
    },
    {
      "inputs": [
        {
          "internalType": "uint256",
          "name": "_classCount",
          "type": "uint256"
        }
      ],
      "name": "setClassCount",
      "outputs": [],
      "stateMutability": "nonpayable",
      "type": "function"
    },
    {
      "inputs": [
        {
          "internalType": "uint256",
          "name": "_courseCount",
          "type": "uint256"
        }
      ],
      "name": "setCourseCount",
      "outputs": [],
      "stateMutability": "nonpayable",
      "type": "function"
    },
    {
      "inputs": [
        {
          "internalType": "uint256",
          "name": "_teacherId",
          "type": "uint256"
        },
        {
          "internalType": "uint256",
          "name": "courseId",
          "type": "uint256"
        }
      ],
      "name": "getTeacherSuitability",
      "outputs": [
        {
          "internalType": "uint256",
          "name": "",
          "type": "uint256"
        }
      ],
      "stateMutability": "view",
      "type": "function",
      "constant": true
    },
    {
      "inputs": [
        {
          "internalType": "uint256",
          "name": "_agentId",
          "type": "uint256"
        },
        {
          "internalType": "uint256",
          "name": "courseId",
          "type": "uint256"
        }
      ],
      "name": "getAgentSuitability",
      "outputs": [
        {
          "internalType": "uint256",
          "name": "",
          "type": "uint256"
        }
      ],
      "stateMutability": "view",
      "type": "function",
      "constant": true
    },
    {
      "inputs": [
        {
          "internalType": "uint256",
          "name": "_teacherId",
          "type": "uint256"
        },
        {
          "internalType": "uint256",
          "name": "courseId",
          "type": "uint256"
        }
      ],
      "name": "getPreference",
      "outputs": [
        {
          "internalType": "uint256",
          "name": "",
          "type": "uint256"
        }
      ],
      "stateMutability": "view",
      "type": "function",
      "constant": true
    },
    {
      "inputs": [
        {
          "internalType": "uint256",
          "name": "_teacherId",
          "type": "uint256"
        }
      ],
      "name": "getTeacherAssignedCourses",
      "outputs": [
        {
          "internalType": "uint256[]",
          "name": "",
          "type": "uint256[]"
        }
      ],
      "stateMutability": "view",
      "type": "function",
      "constant": true
    },
    {
      "inputs": [
        {
          "internalType": "uint256",
          "name": "_teacherId",
          "type": "uint256"
        }
      ],
      "name": "getTeacherReallyAssignedCourses",
      "outputs": [
        {
          "internalType": "uint256[]",
          "name": "",
          "type": "uint256[]"
        }
      ],
      "stateMutability": "view",
      "type": "function",
      "constant": true
    },
    {
      "inputs": [
        {
          "internalType": "uint256",
          "name": "_agentId",
          "type": "uint256"
        }
      ],
      "name": "getAgentAssignedCourses",
      "outputs": [
        {
          "internalType": "uint256[]",
          "name": "",
          "type": "uint256[]"
        }
      ],
      "stateMutability": "view",
      "type": "function",
      "constant": true
    },
    {
      "inputs": [
        {
          "internalType": "uint256",
          "name": "_courseId",
          "type": "uint256"
        }
      ],
      "name": "getCoursesAssignedTeacher",
      "outputs": [
        {
          "internalType": "uint256[]",
          "name": "",
          "type": "uint256[]"
        }
      ],
      "stateMutability": "view",
      "type": "function",
      "constant": true
    },
    {
      "inputs": [
        {
          "internalType": "uint256",
          "name": "_courseId",
          "type": "uint256"
        }
      ],
      "name": "getCoursesAssignedAgent",
      "outputs": [
        {
          "internalType": "uint256[]",
          "name": "",
          "type": "uint256[]"
        }
      ],
      "stateMutability": "view",
      "type": "function",
      "constant": true
    },
    {
      "inputs": [],
      "name": "getTeacherIds",
      "outputs": [
        {
          "internalType": "uint256[]",
          "name": "",
          "type": "uint256[]"
        }
      ],
      "stateMutability": "view",
      "type": "function",
      "constant": true
    },
    {
      "inputs": [],
      "name": "getAgentIds",
      "outputs": [
        {
          "internalType": "uint256[]",
          "name": "",
          "type": "uint256[]"
        }
      ],
      "stateMutability": "view",
      "type": "function",
      "constant": true
    },
    {
      "inputs": [],
      "name": "getCourseIds",
      "outputs": [
        {
          "internalType": "uint256[]",
          "name": "",
          "type": "uint256[]"
        }
      ],
      "stateMutability": "view",
      "type": "function",
      "constant": true
    },
    {
      "inputs": [],
      "name": "getClassIds",
      "outputs": [
        {
          "internalType": "uint256[]",
          "name": "",
          "type": "uint256[]"
        }
      ],
      "stateMutability": "view",
      "type": "function",
      "constant": true
    }
  ],
  "bytecode": "0x608060405234801561001057600080fd5b50613b03806100206000396000f3fe608060405234801561001057600080fd5b50600436106103e65760003560e01c806397e92d521161020a578063ce64bf9b11610125578063e40af036116100b8578063e8a2dc2f11610087578063e8a2dc2f14610bf2578063ebacebe414610c22578063ee196ee214610c52578063f0f2efd814610c6e578063fc09e9d014610c8a576103e6565b8063e40af03614610b6e578063e52505d814610b8a578063e637812f14610bba578063e7fa455714610bd6576103e6565b8063deb9f76a116100f4578063deb9f76a14610afe578063df3addfa14610b1a578063e204b10214610b36578063e20b340514610b52576103e6565b8063ce64bf9b14610a52578063d4e57ff014610a82578063dcfa705714610ab2578063dd03576514610ae2576103e6565b8063b7dc12841161019d578063bfb9d44c1161016c578063bfb9d44c146109e2578063c318fe5f146109fe578063cb85404514610a1a578063cddd6c6314610a36576103e6565b8063b7dc12841461095c578063bb69df721461097a578063bca24bd414610996578063bd1602d1146109c6576103e6565b8063ab996317116101d9578063ab996317146108e8578063ad3a6ad414610906578063b150876014610922578063b4da858414610940576103e6565b806397e92d52146108785780639e12237714610894578063a549e416146108b0578063a7ab8472146108cc576103e6565b80635953faff1161030557806372c30f4511610298578063851580a711610267578063851580a71461079957806386875ea8146107c957806391c89deb146107e557806396f979d2146108155780639709ee0114610848576103e6565b806372c30f45146107015780637fa7e04d1461071d578063827e57311461073957806382ff0a5a14610769576103e6565b80636e428d2d116102d45780636e428d2d146106915780636fcf4f96146106ad578063700ed28b146106c957806372ab4e96146106e5576103e6565b80635953faff1461061f5780635e383d461461063b57806366055159146106575780636798bad914610675576103e6565b80633abdb63d1161037d5780634d27e9121161034c5780634d27e912146105825780634d6523501461059e578063513856c8146105bc57806356e76058146105ef576103e6565b80633abdb63d146104fc57806346be313614610518578063494e2371146105365780634b974df714610566576103e6565b80631fe76a6c116103b95780631fe76a6c146104715780632359b7b81461048d5780632b0816ac146104ab57806334ac0b40146104c7576103e6565b80630f7f13cf146103eb5780630fa1c2711461041b57806318860d37146104375780631dd86f9014610455575b600080fd5b61040560048036038101906104009190612f6e565b610ca6565b6040516104129190613480565b60405180910390f35b61043560048036038101906104309190613191565b610cbe565b005b61043f610cff565b60405161044c91906133be565b60405180910390f35b61046f600480360381019061046a91906131d1565b610d57565b005b61048b600480360381019061048691906131d1565b610e0a565b005b610495610e3b565b6040516104a291906133be565b60405180910390f35b6104c560048036038101906104c09190613024565b610e93565b005b6104e160048036038101906104dc9190613024565b610eda565b6040516104f3969594939291906134e7565b60405180910390f35b61051660048036038101906105119190613024565b610fbe565b005b6105206110a6565b60405161052d9190613480565b60405180910390f35b610550600480360381019061054b9190613024565b6110ac565b60405161055d9190613480565b60405180910390f35b610580600480360381019061057b9190613191565b6110d0565b005b61059c600480360381019061059791906131d1565b61126a565b005b6105a661129b565b6040516105b391906133be565b60405180910390f35b6105d660048036038101906105d19190613024565b6112f3565b6040516105e6949392919061349b565b60405180910390f35b61060960048036038101906106049190613024565b6113cb565b6040516106169190613480565b60405180910390f35b61063960048036038101906106349190612fdb565b6113ef565b005b61065560048036038101906106509190612f9b565b6114b1565b005b61065f611522565b60405161066c9190613480565b60405180910390f35b61068f600480360381019061068a9190613024565b611528565b005b6106ab60048036038101906106a69190613191565b611532565b005b6106c760048036038101906106c29190613024565b6116cc565b005b6106e360048036038101906106de9190613191565b611836565b005b6106ff60048036038101906106fa9190613191565b611877565b005b61071b60048036038101906107169190613024565b6118b8565b005b61073760048036038101906107329190613131565b611984565b005b610753600480360381019061074e9190613024565b6119af565b60405161076091906133be565b60405180910390f35b610783600480360381019061077e9190613024565b611a1d565b60405161079091906133be565b60405180910390f35b6107b360048036038101906107ae9190613191565b611a8b565b6040516107c09190613480565b60405180910390f35b6107e360048036038101906107de9190613191565b611abd565b005b6107ff60048036038101906107fa9190613024565b611c57565b60405161080c91906133be565b60405180910390f35b61082f600480360381019061082a9190613024565b611cc5565b60405161083f949392919061354f565b60405180910390f35b610862600480360381019061085d9190613191565b611d8a565b60405161086f9190613480565b60405180910390f35b610892600480360381019061088d9190613091565b611dbc565b005b6108ae60048036038101906108a99190613131565b611f14565b005b6108ca60048036038101906108c59190612f9b565b611f3f565b005b6108e660048036038101906108e19190613131565b611fca565b005b6108f0612077565b6040516108fd9190613480565b60405180910390f35b610920600480360381019061091b9190613091565b61207d565b005b61092a6121d5565b60405161093791906133be565b60405180910390f35b61095a60048036038101906109559190613191565b61222d565b005b6109646122ce565b6040516109719190613480565b60405180910390f35b610994600480360381019061098f9190613191565b6122d4565b005b6109b060048036038101906109ab9190613024565b612375565b6040516109bd9190613480565b60405180910390f35b6109e060048036038101906109db9190613024565b612399565b005b6109fc60048036038101906109f79190612f9b565b6123a3565b005b610a186004803603810190610a139190613051565b61242f565b005b610a346004803603810190610a2f91906130f1565b61250a565b005b610a506004803603810190610a4b9190613051565b61253c565b005b610a6c6004803603810190610a679190613024565b612595565b604051610a7991906133be565b60405180910390f35b610a9c6004803603810190610a979190612f6e565b612603565b604051610aa99190613480565b60405180910390f35b610acc6004803603810190610ac79190613024565b61261b565b604051610ad99190613480565b60405180910390f35b610afc6004803603810190610af79190613024565b61263f565b005b610b186004803603810190610b139190613024565b612649565b005b610b346004803603810190610b2f9190613024565b612653565b005b610b506004803603810190610b4b9190613191565b61271f565b005b610b6c6004803603810190610b679190613191565b61273e565b005b610b886004803603810190610b839190613191565b6127df565b005b610ba46004803603810190610b9f9190613024565b612979565b604051610bb191906133be565b60405180910390f35b610bd46004803603810190610bcf9190613191565b6129e7565b005b610bf06004803603810190610beb9190613191565b612a28565b005b610c0c6004803603810190610c079190613191565b612bc2565b604051610c199190613480565b60405180910390f35b610c3c6004803603810190610c379190612f6e565b612bf4565b604051610c499190613480565b60405180910390f35b610c6c6004803603810190610c679190613191565b612c0c565b005b610c886004803603810190610c839190613091565b612c2b565b005b610ca46004803603810190610c9f9190613191565b612d01565b005b60006020528060005260406000206000915090505481565b600560008381526020019081526020016000206003018190806001815401808255809150506001900390600052602060002001600090919091909150555050565b6060600d805480602002602001604051908101604052809291908181526020018280548015610d4d57602002820191906000526020600020905b815481526020019060010190808311610d39575b5050505050905090565b60008060003373ffffffffffffffffffffffffffffffffffffffff1673ffffffffffffffffffffffffffffffffffffffff168152602001908152602001600020541415610dd9576040517f08c379a0000000000000000000000000000000000000000000000000000000008152600401610dd090613440565b60405180910390fd5b8060036000858152602001908152602001600020600901600084815260200190815260200160002081905550505050565b8060036000858152602001908152602001600020600801600084815260200190815260200160002081905550505050565b6060600c805480602002602001604051908101604052809291908181526020018280548015610e8957602002820191906000526020600020905b815481526020019060010190808311610e75575b5050505050905090565b806005600083815260200190815260200160002060000181905550600c81908060018154018082558091505060019003906000526020600020016000909190919091505550565b6003602052806000526040600020600091509050806000015490806001018054610f03906136f0565b80601f0160208091040260200160405190810160405280929190818152602001828054610f2f906136f0565b8015610f7c5780601f10610f5157610100808354040283529160200191610f7c565b820191906000526020600020905b815481529060010190602001808311610f5f57829003601f168201915b5050505050908060020160009054906101000a900473ffffffffffffffffffffffffffffffffffffffff16908060050154908060060154908060070154905086565b6000600460008381526020019081526020016000206000018190555060005b600b805490508110156110a25781600b8281548110610fff57610ffe613829565b5b9060005260206000200154141561108f57600b6001600b805490506110249190613641565b8154811061103557611034613829565b5b9060005260206000200154600b828154811061105457611053613829565b5b9060005260206000200181905550600b805480611074576110736137fa565b5b600190038181906000526020600020016000905590556110a2565b808061109a90613753565b915050610fdd565b5050565b60065481565b600c81815481106110bc57600080fd5b906000526020600020016000915090505481565b60008080600090505b6003600086815260200190815260200160002060030180549050811015611153578360036000878152602001908152602001600020600301828154811061112357611122613829565b5b906000526020600020015414156111405760019250809150611153565b808061114b90613753565b9150506110d9565b5081156112295760036000858152602001908152602001600020600301600160036000878152602001908152602001600020600301805490506111969190613641565b815481106111a7576111a6613829565b5b90600052602060002001546003600086815260200190815260200160002060030182815481106111da576111d9613829565b5b90600052602060002001819055506003600085815260200190815260200160002060030180548061120e5761120d6137fa565b5b60019003818190600052602060002001600090559055611264565b6040517f08c379a000000000000000000000000000000000000000000000000000000000815260040161125b90613400565b60405180910390fd5b50505050565b8060046000858152602001908152602001600020600501600084815260200190815260200160002081905550505050565b6060600a8054806020026020016040519081016040528092919081815260200182805480156112e957602002820191906000526020600020905b8154815260200190600101908083116112d5575b5050505050905090565b600460205280600052604060002060009150905080600001549080600101805461131c906136f0565b80601f0160208091040260200160405190810160405280929190818152602001828054611348906136f0565b80156113955780601f1061136a57610100808354040283529160200191611395565b820191906000526020600020905b81548152906001019060200180831161137857829003601f168201915b5050505050908060020160009054906101000a900473ffffffffffffffffffffffffffffffffffffffff16908060030154905084565b600b81815481106113db57600080fd5b906000526020600020016000915090505481565b600c80549050815114611437576040517f08c379a000000000000000000000000000000000000000000000000000000000815260040161142e90613420565b60405180910390fd5b60005b600c805490508110156114ad5781818151811061145a57611459613829565b5b602002602001015160056000600c848154811061147a57611479613829565b5b906000526020600020015481526020019081526020016000206002018190555080806114a590613753565b91505061143a565b5050565b80600260008473ffffffffffffffffffffffffffffffffffffffff1673ffffffffffffffffffffffffffffffffffffffff16815260200190815260200160002081905550600d8190806001815401808255809150506001900390600052602060002001600090919091909150555050565b60095481565b8060068190555050565b60008080600090505b60056000868152602001908152602001600020600301805490508110156115b5578360056000878152602001908152602001600020600301828154811061158557611584613829565b5b906000526020600020015414156115a257600192508091506115b5565b80806115ad90613753565b91505061153b565b50811561168b5760056000858152602001908152602001600020600301600160056000878152602001908152602001600020600301805490506115f89190613641565b8154811061160957611608613829565b5b906000526020600020015460056000868152602001908152602001600020600301828154811061163c5761163b613829565b5b9060005260206000200181905550600560008581526020019081526020016000206003018054806116705761166f6137fa565b5b600190038181906000526020600020016000905590556116c6565b6040517f08c379a00000000000000000000000000000000000000000000000000000000081526004016116bd90613400565b60405180910390fd5b50505050565b60008060003373ffffffffffffffffffffffffffffffffffffffff1673ffffffffffffffffffffffffffffffffffffffff16815260200190815260200160002054141561174e576040517f08c379a000000000000000000000000000000000000000000000000000000000815260040161174590613440565b60405180910390fd5b6000600360008381526020019081526020016000206000018190555060005b600a805490508110156118325781600a828154811061178f5761178e613829565b5b9060005260206000200154141561181f57600a6001600a805490506117b49190613641565b815481106117c5576117c4613829565b5b9060005260206000200154600a82815481106117e4576117e3613829565b5b9060005260206000200181905550600a805480611804576118036137fa565b5b60019003818190600052602060002001600090559055611832565b808061182a90613753565b91505061176d565b5050565b600360008381526020019081526020016000206003018190806001815401808255809150506001900390600052602060002001600090919091909150555050565b600460008381526020019081526020016000206004018190806001815401808255809150506001900390600052602060002001600090919091909150555050565b60005b600d805490508110156119805781600d82815481106118dd576118dc613829565b5b9060005260206000200154141561196d57600d6001600d805490506119029190613641565b8154811061191357611912613829565b5b9060005260206000200154600d828154811061193257611931613829565b5b9060005260206000200181905550600d805480611952576119516137fa565b5b60019003818190600052602060002001600090559055611980565b808061197890613753565b9150506118bb565b5050565b81816004600086815260200190815260200160002060010191906119a9929190612d42565b50505050565b606060036000838152602001908152602001600020600401805480602002602001604051908101604052809291908181526020018280548015611a1157602002820191906000526020600020905b8154815260200190600101908083116119fd575b50505050509050919050565b606060056000838152602001908152602001600020600301805480602002602001604051908101604052809291908181526020018280548015611a7f57602002820191906000526020600020905b815481526020019060010190808311611a6b575b50505050509050919050565b600060036000848152602001908152602001600020600901600083815260200190815260200160002054905092915050565b60008080600090505b6005600086815260200190815260200160002060040180549050811015611b405783600560008781526020019081526020016000206004018281548110611b1057611b0f613829565b5b90600052602060002001541415611b2d5760019250809150611b40565b8080611b3890613753565b915050611ac6565b508115611c16576005600085815260200190815260200160002060040160016005600087815260200190815260200160002060040180549050611b839190613641565b81548110611b9457611b93613829565b5b9060005260206000200154600560008681526020019081526020016000206004018281548110611bc757611bc6613829565b5b906000526020600020018190555060056000858152602001908152602001600020600401805480611bfb57611bfa6137fa565b5b60019003818190600052602060002001600090559055611c51565b6040517f08c379a0000000000000000000000000000000000000000000000000000000008152600401611c4890613400565b60405180910390fd5b50505050565b606060056000838152602001908152602001600020600401805480602002602001604051908101604052809291908181526020018280548015611cb957602002820191906000526020600020905b815481526020019060010190808311611ca5575b50505050509050919050565b6005602052806000526040600020600091509050806000015490806001018054611cee906136f0565b80601f0160208091040260200160405190810160405280929190818152602001828054611d1a906136f0565b8015611d675780601f10611d3c57610100808354040283529160200191611d67565b820191906000526020600020905b815481529060010190602001808311611d4a57829003601f168201915b5050505050908060020154908060050160009054906101000a900460ff16905084565b600060046000848152602001908152602001600020600501600083815260200190815260200160002054905092915050565b60008060003373ffffffffffffffffffffffffffffffffffffffff1673ffffffffffffffffffffffffffffffffffffffff168152602001908152602001600020541415611e3e576040517f08c379a0000000000000000000000000000000000000000000000000000000008152600401611e3590613440565b60405180910390fd5b600c805490508282905014611e88576040517f08c379a0000000000000000000000000000000000000000000000000000000008152600401611e7f90613460565b60405180910390fd5b60005b600c80549050811015611f0e57828282818110611eab57611eaa613829565b5b90506020020135600360008681526020019081526020016000206008016000600c8481548110611ede57611edd613829565b5b90600052602060002001548152602001908152602001600020819055508080611f0690613753565b915050611e8b565b50505050565b8181600560008681526020019081526020016000206001019190611f39929190612d42565b50505050565b806000808473ffffffffffffffffffffffffffffffffffffffff1673ffffffffffffffffffffffffffffffffffffffff16815260200190815260200160002081905550806003600083815260200190815260200160002060000181905550600a8190806001815401808255809150506001900390600052602060002001600090919091909150555050565b60008060003373ffffffffffffffffffffffffffffffffffffffff1673ffffffffffffffffffffffffffffffffffffffff16815260200190815260200160002054141561204c576040517f08c379a000000000000000000000000000000000000000000000000000000000815260040161204390613440565b60405180910390fd5b8181600360008681526020019081526020016000206001019190612071929190612d42565b50505050565b60085481565b60008060003373ffffffffffffffffffffffffffffffffffffffff1673ffffffffffffffffffffffffffffffffffffffff1681526020019081526020016000205414156120ff576040517f08c379a00000000000000000000000000000000000000000000000000000000081526004016120f690613440565b60405180910390fd5b600c805490508282905014612149576040517f08c379a0000000000000000000000000000000000000000000000000000000008152600401612140906133e0565b60405180910390fd5b60005b600c805490508110156121cf5782828281811061216c5761216b613829565b5b90506020020135600360008681526020019081526020016000206009016000600c848154811061219f5761219e613829565b5b906000526020600020015481526020019081526020016000208190555080806121c790613753565b91505061214c565b50505050565b6060600b80548060200260200160405190810160405280929190818152602001828054801561222357602002820191906000526020600020905b81548152602001906001019080831161220f575b5050505050905090565b60008060003373ffffffffffffffffffffffffffffffffffffffff1673ffffffffffffffffffffffffffffffffffffffff1681526020019081526020016000205414156122af576040517f08c379a00000000000000000000000000000000000000000000000000000000081526004016122a690613440565b60405180910390fd5b8060036000848152602001908152602001600020600601819055505050565b60075481565b60008060003373ffffffffffffffffffffffffffffffffffffffff1673ffffffffffffffffffffffffffffffffffffffff168152602001908152602001600020541415612356576040517f08c379a000000000000000000000000000000000000000000000000000000000815260040161234d90613440565b60405180910390fd5b8060036000848152602001908152602001600020600501819055505050565b600d818154811061238557600080fd5b906000526020600020016000915090505481565b8060098190555050565b80600160008473ffffffffffffffffffffffffffffffffffffffff1673ffffffffffffffffffffffffffffffffffffffff16815260200190815260200160002081905550806004600083815260200190815260200160002060000181905550600b8190806001815401808255809150506001900390600052602060002001600090919091909150555050565b60008060003373ffffffffffffffffffffffffffffffffffffffff1673ffffffffffffffffffffffffffffffffffffffff1681526020019081526020016000205414156124b1576040517f08c379a00000000000000000000000000000000000000000000000000000000081526004016124a890613440565b60405180910390fd5b806003600084815260200190815260200160002060020160006101000a81548173ffffffffffffffffffffffffffffffffffffffff021916908373ffffffffffffffffffffffffffffffffffffffff1602179055505050565b806005600084815260200190815260200160002060050160006101000a81548160ff0219169083151502179055505050565b806004600084815260200190815260200160002060020160006101000a81548173ffffffffffffffffffffffffffffffffffffffff021916908373ffffffffffffffffffffffffffffffffffffffff1602179055505050565b6060600460008381526020019081526020016000206004018054806020026020016040519081016040528092919081815260200182805480156125f757602002820191906000526020600020905b8154815260200190600101908083116125e3575b50505050509050919050565b60026020528060005260406000206000915090505481565b600a818154811061262b57600080fd5b906000526020600020016000915090505481565b8060088190555050565b8060078190555050565b60005b600c8054905081101561271b5781600c828154811061267857612677613829565b5b9060005260206000200154141561270857600c6001600c8054905061269d9190613641565b815481106126ae576126ad613829565b5b9060005260206000200154600c82815481106126cd576126cc613829565b5b9060005260206000200181905550600c8054806126ed576126ec6137fa565b5b6001900381819060005260206000200160009055905561271b565b808061271390613753565b915050612656565b5050565b8060056000848152602001908152602001600020600201819055505050565b60008060003373ffffffffffffffffffffffffffffffffffffffff1673ffffffffffffffffffffffffffffffffffffffff1681526020019081526020016000205414156127c0576040517f08c379a00000000000000000000000000000000000000000000000000000000081526004016127b790613440565b60405180910390fd5b8060036000848152602001908152602001600020600701819055505050565b60008080600090505b6004600086815260200190815260200160002060040180549050811015612862578360046000878152602001908152602001600020600401828154811061283257612831613829565b5b9060005260206000200154141561284f5760019250809150612862565b808061285a90613753565b9150506127e8565b5081156129385760046000858152602001908152602001600020600401600160046000878152602001908152602001600020600401805490506128a59190613641565b815481106128b6576128b5613829565b5b90600052602060002001546004600086815260200190815260200160002060040182815481106128e9576128e8613829565b5b90600052602060002001819055506004600085815260200190815260200160002060040180548061291d5761291c6137fa565b5b60019003818190600052602060002001600090559055612973565b6040517f08c379a000000000000000000000000000000000000000000000000000000000815260040161296a90613400565b60405180910390fd5b50505050565b6060600360008381526020019081526020016000206003018054806020026020016040519081016040528092919081815260200182805480156129db57602002820191906000526020600020905b8154815260200190600101908083116129c7575b50505050509050919050565b600360008381526020019081526020016000206004018190806001815401808255809150506001900390600052602060002001600090919091909150555050565b60008080600090505b6003600086815260200190815260200160002060040180549050811015612aab5783600360008781526020019081526020016000206004018281548110612a7b57612a7a613829565b5b90600052602060002001541415612a985760019250809150612aab565b8080612aa390613753565b915050612a31565b508115612b81576003600085815260200190815260200160002060040160016003600087815260200190815260200160002060040180549050612aee9190613641565b81548110612aff57612afe613829565b5b9060005260206000200154600360008681526020019081526020016000206004018281548110612b3257612b31613829565b5b906000526020600020018190555060036000858152602001908152602001600020600401805480612b6657612b656137fa565b5b60019003818190600052602060002001600090559055612bbc565b6040517f08c379a0000000000000000000000000000000000000000000000000000000008152600401612bb390613400565b60405180910390fd5b50505050565b600060036000848152602001908152602001600020600801600083815260200190815260200160002054905092915050565b60016020528060005260406000206000915090505481565b8060046000848152602001908152602001600020600301819055505050565b600c805490508282905014612c75576040517f08c379a0000000000000000000000000000000000000000000000000000000008152600401612c6c90613460565b60405180910390fd5b60005b600c80549050811015612cfb57828282818110612c9857612c97613829565b5b90506020020135600460008681526020019081526020016000206005016000600c8481548110612ccb57612cca613829565b5b90600052602060002001548152602001908152602001600020819055508080612cf390613753565b915050612c78565b50505050565b600560008381526020019081526020016000206004018190806001815401808255809150506001900390600052602060002001600090919091909150555050565b828054612d4e906136f0565b90600052602060002090601f016020900481019282612d705760008555612db7565b82601f10612d8957803560ff1916838001178555612db7565b82800160010185558215612db7579182015b82811115612db6578235825591602001919060010190612d9b565b5b509050612dc49190612dc8565b5090565b5b80821115612de1576000816000905550600101612dc9565b5090565b6000612df8612df3846135c0565b61359b565b90508083825260208201905082856020860282011115612e1b57612e1a613891565b5b60005b85811015612e4b5781612e318882612f59565b845260208401935060208301925050600181019050612e1e565b5050509392505050565b600081359050612e6481613a88565b92915050565b60008083601f840112612e8057612e7f61388c565b5b8235905067ffffffffffffffff811115612e9d57612e9c613887565b5b602083019150836020820283011115612eb957612eb8613891565b5b9250929050565b600082601f830112612ed557612ed461388c565b5b8135612ee5848260208601612de5565b91505092915050565b600081359050612efd81613a9f565b92915050565b60008083601f840112612f1957612f1861388c565b5b8235905067ffffffffffffffff811115612f3657612f35613887565b5b602083019150836001820283011115612f5257612f51613891565b5b9250929050565b600081359050612f6881613ab6565b92915050565b600060208284031215612f8457612f8361389b565b5b6000612f9284828501612e55565b91505092915050565b60008060408385031215612fb257612fb161389b565b5b6000612fc085828601612e55565b9250506020612fd185828601612f59565b9150509250929050565b600060208284031215612ff157612ff061389b565b5b600082013567ffffffffffffffff81111561300f5761300e613896565b5b61301b84828501612ec0565b91505092915050565b60006020828403121561303a5761303961389b565b5b600061304884828501612f59565b91505092915050565b600080604083850312156130685761306761389b565b5b600061307685828601612f59565b925050602061308785828601612e55565b9150509250929050565b6000806000604084860312156130aa576130a961389b565b5b60006130b886828701612f59565b935050602084013567ffffffffffffffff8111156130d9576130d8613896565b5b6130e586828701612e6a565b92509250509250925092565b600080604083850312156131085761310761389b565b5b600061311685828601612f59565b925050602061312785828601612eee565b9150509250929050565b60008060006040848603121561314a5761314961389b565b5b600061315886828701612f59565b935050602084013567ffffffffffffffff81111561317957613178613896565b5b61318586828701612f03565b92509250509250925092565b600080604083850312156131a8576131a761389b565b5b60006131b685828601612f59565b92505060206131c785828601612f59565b9150509250929050565b6000806000606084860312156131ea576131e961389b565b5b60006131f886828701612f59565b935050602061320986828701612f59565b925050604061321a86828701612f59565b9150509250925092565b600061323083836133a0565b60208301905092915050565b61324581613675565b82525050565b6000613256826135fc565b613260818561361f565b935061326b836135ec565b8060005b8381101561329c5781516132838882613224565b975061328e83613612565b92505060018101905061326f565b5085935050505092915050565b6132b281613687565b82525050565b60006132c382613607565b6132cd8185613630565b93506132dd8185602086016136bd565b6132e6816138a0565b840191505092915050565b60006132fe606083613630565b9150613309826138b1565b606082019050919050565b6000613321601083613630565b915061332c82613926565b602082019050919050565b6000613344602283613630565b915061334f8261394f565b604082019050919050565b6000613367602f83613630565b91506133728261399e565b604082019050919050565b600061338a606183613630565b9150613395826139ed565b608082019050919050565b6133a9816136b3565b82525050565b6133b8816136b3565b82525050565b600060208201905081810360008301526133d8818461324b565b905092915050565b600060208201905081810360008301526133f9816132f1565b9050919050565b6000602082019050818103600083015261341981613314565b9050919050565b6000602082019050818103600083015261343981613337565b9050919050565b600060208201905081810360008301526134598161335a565b9050919050565b600060208201905081810360008301526134798161337d565b9050919050565b600060208201905061349560008301846133af565b92915050565b60006080820190506134b060008301876133af565b81810360208301526134c281866132b8565b90506134d1604083018561323c565b6134de60608301846133af565b95945050505050565b600060c0820190506134fc60008301896133af565b818103602083015261350e81886132b8565b905061351d604083018761323c565b61352a60608301866133af565b61353760808301856133af565b61354460a08301846133af565b979650505050505050565b600060808201905061356460008301876133af565b818103602083015261357681866132b8565b905061358560408301856133af565b61359260608301846132a9565b95945050505050565b60006135a56135b6565b90506135b18282613722565b919050565b6000604051905090565b600067ffffffffffffffff8211156135db576135da613858565b5b602082029050602081019050919050565b6000819050602082019050919050565b600081519050919050565b600081519050919050565b6000602082019050919050565b600082825260208201905092915050565b600082825260208201905092915050565b600061364c826136b3565b9150613657836136b3565b92508282101561366a5761366961379c565b5b828203905092915050565b600061368082613693565b9050919050565b60008115159050919050565b600073ffffffffffffffffffffffffffffffffffffffff82169050919050565b6000819050919050565b60005b838110156136db5780820151818401526020810190506136c0565b838111156136ea576000848401525b50505050565b6000600282049050600182168061370857607f821691505b6020821081141561371c5761371b6137cb565b5b50919050565b61372b826138a0565b810181811067ffffffffffffffff8211171561374a57613749613858565b5b80604052505050565b600061375e826136b3565b91507fffffffffffffffffffffffffffffffffffffffffffffffffffffffffffffffff8214156137915761379061379c565b5b600182019050919050565b7f4e487b7100000000000000000000000000000000000000000000000000000000600052601160045260246000fd5b7f4e487b7100000000000000000000000000000000000000000000000000000000600052602260045260246000fd5b7f4e487b7100000000000000000000000000000000000000000000000000000000600052603160045260246000fd5b7f4e487b7100000000000000000000000000000000000000000000000000000000600052603260045260246000fd5b7f4e487b7100000000000000000000000000000000000000000000000000000000600052604160045260246000fd5b600080fd5b600080fd5b600080fd5b600080fd5b600080fd5b6000601f19601f8301169050919050565b7f5768656e2073657474696e672074686520707265666572656e6365206c65766560008201527f6c206f6620636f75727365732c206974206973206e656365737361727920746f60208201527f206861766520616e20657175616c206e756d626572206f6620636f7572736573604082015250565b7f436f75727365206e6f7420666f756e6400000000000000000000000000000000600082015250565b7f6d7573742075706461746520616c6c20636f7572736520737569746162696c6960008201527f7479000000000000000000000000000000000000000000000000000000000000602082015250565b7f4f6e6c7920726567697374657265642074656163686572732063616e2063616c60008201527f6c20746869732066756e6374696f6e0000000000000000000000000000000000602082015250565b7f5768656e2073657474696e672074686520737569746162696c697479206c657660008201527f656c206f6620636f75727365732c206974206973206e6563657373617279207460208201527f6f206861766520616e20657175616c206e756d626572206f6620636f7572736560408201527f7300000000000000000000000000000000000000000000000000000000000000606082015250565b613a9181613675565b8114613a9c57600080fd5b50565b613aa881613687565b8114613ab357600080fd5b50565b613abf816136b3565b8114613aca57600080fd5b5056fea26469706673582212206413ec1d5ac958fc9c64078e42858f276d4f3f5411528b335b6da784ddcc1e2d64736f6c63430008070033",
  "immutableReferences": {},
  "source": "// SPDX-License-Identifier: MIT\r\npragma solidity ^0.8.7;\r\n\r\ncontract ICourseAllocation {\r\n    // \r\n    struct Teacher {\r\n        uint256 id;\r\n        string name;\r\n        address addr;\r\n        uint256[] assignedCourses;\r\n        uint256[] reallyAssignedCourses;\r\n        uint256 suitabilityWeight;\r\n        uint256 transferCourseCoins;\r\n        uint256 value;\r\n        mapping(uint256 => uint256) courseSuitabilities;\r\n        mapping(uint256 => uint256) coursePreferences;\r\n    }\r\n\r\n    // \r\n    struct Agent {\r\n        uint256 id;\r\n        string name;\r\n        address addr;\r\n        uint256 value;\r\n        uint256[] assignedCourses;\r\n        mapping(uint256 => uint256) courseSuitabilities;\r\n    }\r\n\r\n    // \r\n    struct Course {\r\n        uint256 id;\r\n        string name;\r\n        uint256 importance;\r\n        uint256[] assignedTeacherId;\r\n        uint256[] assignedAgentId;\r\n        bool isAgentSuitable;\r\n    }\r\n\r\n    //  => ID\r\n    mapping(address => uint256) public addressToTeacherId;\r\n\r\n    //  => ID\r\n    mapping(address => uint256) public addressToAgentId;\r\n\r\n    //  => ID\r\n    mapping(address => uint256) public addressToClassId;\r\n\r\n    // ID => \r\n    mapping(uint256 => Teacher) public teachers;\r\n\r\n    // ID => \r\n    mapping(uint256 => Agent) public agents;\r\n\r\n    // ID => \r\n    mapping(uint256 => Course) public courses;\r\n\r\n    // ID\r\n    uint256 public teacherCount;\r\n\r\n    // ID\r\n    uint256 public agentCount;\r\n\r\n    // ID\r\n    uint256 public classCount;\r\n\r\n    // ID\r\n    uint256 public courseCount;\r\n\r\n    // ID\r\n    uint256[] public teacherIds;\r\n\r\n    // ID\r\n    uint256[] public agentIds;\r\n\r\n    // ID\r\n    uint256[] public courseIds;\r\n\r\n    // ID\r\n    uint256[] public classIds;\r\n\r\n    // \r\n    // event CourseImportanceSet(uint256 indexed courseId, uint256 importance);\r\n    // event SuitabilityUpdated(uint256 indexed courseId, uint256 suitability);\r\n    // event PreferenceUpdated(uint256 indexed teacherId, uint256 indexed courseId, uint256 preference);\r\n    // event ProposalCreated(uint256 proposalId, uint256 indexed courseId, uint256[] teacherIds); // \r\n    // event MachineProposal(uint256 proposalId, uint256 indexed courseId, uint256[] teacherIds, uint256[] teacherCounts); // \r\n    // event CourseAssignedToTeacher(uint256 indexed courseId, uint256 indexed teacherId); // \r\n\r\n    // \r\n    constructor() {}\r\n\r\n    // \r\n    modifier onlyTeacher() {\r\n        require(\r\n            addressToTeacherId[msg.sender] != 0,\r\n            \"Only registered teachers can call this function\"\r\n        );\r\n        _;\r\n    }\r\n\r\n    // ID\r\n    function setTeacherId(address teacherAddress, uint256 _TeacherId) public {\r\n        addressToTeacherId[teacherAddress] = _TeacherId;\r\n        teachers[_TeacherId].id = _TeacherId;\r\n        teacherIds.push(_TeacherId);\r\n    }\r\n\r\n    // \r\n    function removeTeacher(uint256 teacherId) public onlyTeacher {\r\n        teachers[teacherId].id = 0;\r\n        //  teacherIds  ID\r\n        for (uint256 i = 0; i < teacherIds.length; i++) {\r\n            if (teacherIds[i] == teacherId) {\r\n                //  ID \r\n                teacherIds[i] = teacherIds[teacherIds.length - 1];\r\n                // \r\n                teacherIds.pop();\r\n                break;\r\n            }\r\n        }\r\n    }\r\n\r\n    // \r\n    function setTeacherName(\r\n        uint256 teacherId,\r\n        string calldata _name\r\n    ) public onlyTeacher {\r\n        teachers[teacherId].name = _name;\r\n    }\r\n\r\n    // \r\n    function setTeacherAddress(\r\n        uint256 teacherId,\r\n        address _teacherAddress\r\n    ) public onlyTeacher {\r\n        teachers[teacherId].addr = _teacherAddress;\r\n    }\r\n\r\n    // \r\n    function addTeacherAssignedCourses(\r\n        uint256 teacherId,\r\n        uint256 _assignedCourses\r\n    ) public {\r\n        teachers[teacherId].assignedCourses.push(_assignedCourses);\r\n    }\r\n\r\n    // \r\n    function addTeacherReallyAssignedCourses(\r\n        uint256 teacherId,\r\n        uint256 _assignedCourses\r\n    ) public {\r\n        teachers[teacherId].reallyAssignedCourses.push(_assignedCourses);\r\n    }\r\n\r\n    // \r\n    function removeTeacherAssignedCourses(\r\n        uint256 teacherId,\r\n        uint256 _assignedCourses\r\n    ) public {\r\n        bool found = false;\r\n        uint256 indexToRemove;\r\n\r\n        //  ID \r\n        for (\r\n            uint256 i = 0;\r\n            i < teachers[teacherId].assignedCourses.length;\r\n            i++\r\n        ) {\r\n            if (teachers[teacherId].assignedCourses[i] == _assignedCourses) {\r\n                found = true;\r\n                indexToRemove = i;\r\n                break;\r\n            }\r\n        }\r\n\r\n        //  ID\r\n        if (found) {\r\n            // \r\n            teachers[teacherId].assignedCourses[indexToRemove] = teachers[\r\n                teacherId\r\n            ].assignedCourses[teachers[teacherId].assignedCourses.length - 1];\r\n            // \r\n            teachers[teacherId].assignedCourses.pop();\r\n        } else {\r\n            //  ID\r\n            revert(\"Course not found\");\r\n        }\r\n    }\r\n\r\n    // \r\n    function removeTeacherReallyAssignedCourses(\r\n        uint256 teacherId,\r\n        uint256 _assignedCourses\r\n    ) public {\r\n        bool found = false;\r\n        uint256 indexToRemove;\r\n\r\n        //  ID \r\n        for (\r\n            uint256 i = 0;\r\n            i < teachers[teacherId].reallyAssignedCourses.length;\r\n            i++\r\n        ) {\r\n            if (teachers[teacherId].reallyAssignedCourses[i] == _assignedCourses) {\r\n                found = true;\r\n                indexToRemove = i;\r\n                break;\r\n            }\r\n        }\r\n\r\n        //  ID\r\n        if (found) {\r\n            // \r\n            teachers[teacherId].reallyAssignedCourses[indexToRemove] = teachers[\r\n                teacherId\r\n            ].reallyAssignedCourses[teachers[teacherId].reallyAssignedCourses.length - 1];\r\n            // \r\n            teachers[teacherId].reallyAssignedCourses.pop();\r\n        } else {\r\n            //  ID\r\n            revert(\"Course not found\");\r\n        }\r\n    }\r\n\r\n    // \r\n    function setTeacherSuitabilityWeight(\r\n        uint256 teacherId,\r\n        uint256 _suitabilityWeight\r\n    ) public onlyTeacher {\r\n        teachers[teacherId].suitabilityWeight = _suitabilityWeight;\r\n    }\r\n\r\n    // \r\n    function setTeacherTransferCourseCoins(\r\n        uint256 teacherId,\r\n        uint256 _transferCourseCoins\r\n    ) public onlyTeacher {\r\n        teachers[teacherId].transferCourseCoins = _transferCourseCoins;\r\n    }\r\n\r\n    // \r\n    function setTeacherValue(\r\n        uint256 teacherId,\r\n        uint256 _value\r\n    ) public onlyTeacher {\r\n        teachers[teacherId].value = _value;\r\n    }\r\n\r\n    // \r\n    function setAgentValue(uint256 agentId, uint256 _value) public {\r\n        agents[agentId].value = _value;\r\n    }\r\n\r\n    // \r\n    function setAllTeacherCourseSuitability(\r\n        uint256 teacherId,\r\n        uint256[] calldata _suitabilities\r\n    ) public onlyTeacher {\r\n        require(\r\n            _suitabilities.length == courseIds.length,\r\n            \"When setting the suitability level of courses, it is necessary to have an equal number of courses\"\r\n        );\r\n        for (\r\n            uint256 courseIndex = 0;\r\n            courseIndex < courseIds.length;\r\n            courseIndex++\r\n        ) {\r\n            teachers[teacherId].courseSuitabilities[\r\n                courseIds[courseIndex]\r\n            ] = _suitabilities[courseIndex];\r\n        }\r\n    }\r\n\r\n    // \r\n    function setTeacherCourseSuitability(\r\n        uint256 teacherId,\r\n        uint256 courseId,\r\n        uint256 _suitability\r\n    ) public {\r\n        teachers[teacherId].courseSuitabilities[courseId] = _suitability;\r\n    }\r\n\r\n    // \r\n    function setAllTeacherCoursePreferences(\r\n        uint256 teacherId,\r\n        uint256[] calldata _preferences\r\n    ) public onlyTeacher {\r\n        require(\r\n            _preferences.length == courseIds.length,\r\n            \"When setting the preference level of courses, it is necessary to have an equal number of courses\"\r\n        );\r\n        for (\r\n            uint256 courseIndex = 0;\r\n            courseIndex < courseIds.length;\r\n            courseIndex++\r\n        ) {\r\n            teachers[teacherId].coursePreferences[\r\n                courseIds[courseIndex]\r\n            ] = _preferences[courseIndex];\r\n        }\r\n    }\r\n\r\n    // \r\n    function setTeacherCoursePreferences(\r\n        uint256 teacherId,\r\n        uint256 courseId,\r\n        uint256 _preference\r\n    ) public onlyTeacher {\r\n        teachers[teacherId].coursePreferences[courseId] = _preference;\r\n    }\r\n\r\n    // ID\r\n    function setAgentId(address agentAddress, uint256 _agentId) public {\r\n        addressToAgentId[agentAddress] = _agentId;\r\n        agents[_agentId].id = _agentId;\r\n        agentIds.push(_agentId);\r\n    }\r\n\r\n    // \r\n    function removeAgent(uint256 agentId) public {\r\n        agents[agentId].id = 0;\r\n        //  agentIds  ID\r\n        for (uint256 i = 0; i < agentIds.length; i++) {\r\n            if (agentIds[i] == agentId) {\r\n                //  ID \r\n                agentIds[i] = agentIds[agentIds.length - 1];\r\n                // \r\n                agentIds.pop();\r\n                break;\r\n            }\r\n        }\r\n    }\r\n\r\n    // \r\n    function setAgentName(uint256 agentId, string calldata _name) public {\r\n        agents[agentId].name = _name;\r\n    }\r\n\r\n    // \r\n    function setAgentAddress(uint256 agentId, address _agentAddress) public {\r\n        agents[agentId].addr = _agentAddress;\r\n    }\r\n\r\n    // \r\n    function addAgentAssignedCourses(\r\n        uint256 agentId,\r\n        uint256 _assignedCourses\r\n    ) public {\r\n        agents[agentId].assignedCourses.push(_assignedCourses);\r\n    }\r\n\r\n    // \r\n    function removeAgentAssignedCourses(\r\n        uint256 agentId,\r\n        uint256 _assignedCourses\r\n    ) public {\r\n        bool found = false;\r\n        uint256 indexToRemove;\r\n\r\n        //  ID \r\n        for (uint256 i = 0; i < agents[agentId].assignedCourses.length; i++) {\r\n            if (agents[agentId].assignedCourses[i] == _assignedCourses) {\r\n                found = true;\r\n                indexToRemove = i;\r\n                break;\r\n            }\r\n        }\r\n\r\n        //  ID\r\n        if (found) {\r\n            // \r\n            agents[agentId].assignedCourses[indexToRemove] = agents[agentId]\r\n                .assignedCourses[agents[agentId].assignedCourses.length - 1];\r\n            // \r\n            agents[agentId].assignedCourses.pop();\r\n        } else {\r\n            //  ID\r\n            revert(\"Course not found\");\r\n        }\r\n    }\r\n\r\n    // \r\n    function setAgentCourseSuitability(\r\n        uint256 agentId,\r\n        uint256 _courseId,\r\n        uint256 _suitability\r\n    ) public {\r\n        agents[agentId].courseSuitabilities[_courseId] = _suitability;\r\n    }\r\n\r\n    // \r\n    function setAllAgentCourseSuitability(\r\n        uint256 agentId,\r\n        uint256[] calldata _suitabilities\r\n    ) public {\r\n        require(\r\n            _suitabilities.length == courseIds.length,\r\n            \"When setting the suitability level of courses, it is necessary to have an equal number of courses\"\r\n        );\r\n        for (\r\n            uint256 courseIndex = 0;\r\n            courseIndex < courseIds.length;\r\n            courseIndex++\r\n        ) {\r\n            agents[agentId].courseSuitabilities[\r\n                courseIds[courseIndex]\r\n            ] = _suitabilities[courseIndex];\r\n        }\r\n    }\r\n\r\n    // ID\r\n    function setClassId(address classAddress, uint256 _id) public {\r\n        addressToClassId[classAddress] = _id;\r\n        classIds.push(_id);\r\n    }\r\n\r\n    // \r\n    function removeClass(uint256 classId) public {\r\n        //  classIds  ID\r\n        for (uint256 i = 0; i < classIds.length; i++) {\r\n            if (classIds[i] == classId) {\r\n                //  ID \r\n                classIds[i] = classIds[classIds.length - 1];\r\n                // \r\n                classIds.pop();\r\n                break;\r\n            }\r\n        }\r\n    }\r\n\r\n    // ID\r\n    function setCourseId(uint256 courseId) public {\r\n        courses[courseId].id = courseId;\r\n        courseIds.push(courseId);\r\n    }\r\n\r\n    // \r\n    function removeCourse(uint256 courseId) public {\r\n        //  classIds  ID\r\n        for (uint256 i = 0; i < courseIds.length; i++) {\r\n            if (courseIds[i] == courseId) {\r\n                //  ID \r\n                courseIds[i] = courseIds[courseIds.length - 1];\r\n                // \r\n                courseIds.pop();\r\n                break;\r\n            }\r\n        }\r\n    }\r\n\r\n    // \r\n    function setCourseName(uint256 courseId, string calldata _name) public {\r\n        courses[courseId].name = _name;\r\n    }\r\n\r\n    // \r\n    function setCourseImportance(uint256 courseId, uint256 _importance) public {\r\n        courses[courseId].importance = _importance;\r\n    }\r\n\r\n    // \r\n    function setAllCourseImportance(uint256[] memory _importances) public {\r\n        require(\r\n            _importances.length == courseIds.length,\r\n            \"must update all course suitability\"\r\n        );\r\n        // \r\n        for (\r\n            uint256 courseIndex = 0;\r\n            courseIndex < courseIds.length;\r\n            courseIndex++\r\n        ) {\r\n            courses[courseIds[courseIndex]].importance = _importances[\r\n                courseIndex\r\n            ];\r\n        }\r\n    }\r\n\r\n    // ID\r\n    function addCourseAssignedTeacherId(\r\n        uint256 courseId,\r\n        uint256 _teacherId\r\n    ) public {\r\n        courses[courseId].assignedTeacherId.push(_teacherId);\r\n    }\r\n\r\n    // ID\r\n    function addCourseAssignedAgentId(\r\n        uint256 courseId,\r\n        uint256 _agentId\r\n    ) public {\r\n        courses[courseId].assignedAgentId.push(_agentId);\r\n    }\r\n\r\n    // \r\n    function removeCourseAssignedTeacherId(\r\n        uint256 courseId,\r\n        uint256 _teacherId\r\n    ) public {\r\n        bool found = false;\r\n        uint256 indexToRemove;\r\n\r\n        //  ID \r\n        for (\r\n            uint256 i = 0;\r\n            i < courses[courseId].assignedTeacherId.length;\r\n            i++\r\n        ) {\r\n            if (courses[courseId].assignedTeacherId[i] == _teacherId) {\r\n                found = true;\r\n                indexToRemove = i;\r\n                break;\r\n            }\r\n        }\r\n\r\n        //  ID\r\n        if (found) {\r\n            // \r\n            courses[courseId].assignedTeacherId[indexToRemove] = courses[\r\n                courseId\r\n            ].assignedTeacherId[courses[courseId].assignedTeacherId.length - 1];\r\n            // \r\n            courses[courseId].assignedTeacherId.pop();\r\n        } else {\r\n            //  ID\r\n            revert(\"Course not found\");\r\n        }\r\n    }\r\n\r\n    // \r\n    function removeCourseAssignedAgentId(\r\n        uint256 courseId,\r\n        uint256 _agentId\r\n    ) public {\r\n        bool found = false;\r\n        uint256 indexToRemove;\r\n\r\n        //  ID \r\n        for (uint256 i = 0; i < courses[courseId].assignedAgentId.length; i++) {\r\n            if (courses[courseId].assignedAgentId[i] == _agentId) {\r\n                found = true;\r\n                indexToRemove = i;\r\n                break;\r\n            }\r\n        }\r\n\r\n        //  ID\r\n        if (found) {\r\n            // \r\n            courses[courseId].assignedAgentId[indexToRemove] = courses[courseId]\r\n                .assignedAgentId[courses[courseId].assignedAgentId.length - 1];\r\n            // \r\n            courses[courseId].assignedAgentId.pop();\r\n        } else {\r\n            //  ID\r\n            revert(\"Course not found\");\r\n        }\r\n    }\r\n\r\n    // \r\n    function setCourseIsAgentSuitable(\r\n        uint256 courseId,\r\n        bool _isAgentSuitable\r\n    ) public {\r\n        courses[courseId].isAgentSuitable = _isAgentSuitable;\r\n    }\r\n\r\n    // \r\n    function setTeacherCount(uint256 _teacherCount) public {\r\n        teacherCount = _teacherCount;\r\n    }\r\n\r\n    // \r\n    function setAgentCount(uint256 _agentCount) public {\r\n        agentCount = _agentCount;\r\n    }\r\n\r\n    // \r\n    function setClassCount(uint256 _classCount) public {\r\n        classCount = _classCount;\r\n    }\r\n\r\n    // \r\n    function setCourseCount(uint256 _courseCount) public {\r\n        courseCount = _courseCount;\r\n    }\r\n\r\n    // \r\n    function getTeacherSuitability(\r\n        uint256 _teacherId,\r\n        uint256 courseId\r\n    ) public view returns (uint256) {\r\n        return teachers[_teacherId].courseSuitabilities[courseId];\r\n    }\r\n\r\n    // \r\n    function getAgentSuitability(\r\n        uint256 _agentId,\r\n        uint256 courseId\r\n    ) public view returns (uint256) {\r\n        return agents[_agentId].courseSuitabilities[courseId];\r\n    }\r\n\r\n    // \r\n    function getPreference(\r\n        uint256 _teacherId,\r\n        uint256 courseId\r\n    ) public view returns (uint256) {\r\n        return teachers[_teacherId].coursePreferences[courseId];\r\n    }\r\n\r\n    // \r\n    function getTeacherAssignedCourses(\r\n        uint256 _teacherId\r\n    ) public view returns (uint256[] memory) {\r\n        return teachers[_teacherId].assignedCourses;\r\n    }\r\n\r\n    // \r\n    function getTeacherReallyAssignedCourses(\r\n        uint256 _teacherId\r\n    ) public view returns (uint256[] memory) {\r\n        return teachers[_teacherId].reallyAssignedCourses;\r\n    }\r\n\r\n    // \r\n    function getAgentAssignedCourses(\r\n        uint256 _agentId\r\n    ) public view returns (uint256[] memory) {\r\n        return agents[_agentId].assignedCourses;\r\n    }\r\n\r\n    // \r\n    function getCoursesAssignedTeacher(\r\n        uint256 _courseId\r\n    ) public view returns (uint256[] memory) {\r\n        return courses[_courseId].assignedTeacherId;\r\n    }\r\n\r\n    // \r\n    function getCoursesAssignedAgent(\r\n        uint256 _courseId\r\n    ) public view returns (uint256[] memory) {\r\n        return courses[_courseId].assignedAgentId;\r\n    }\r\n\r\n    function getTeacherIds() public view returns (uint256[] memory) {\r\n        return teacherIds;\r\n    }\r\n\r\n    function getAgentIds() public view returns (uint256[] memory) {\r\n        return agentIds;\r\n    }\r\n\r\n    function getCourseIds() public view returns (uint256[] memory) {\r\n        return courseIds;\r\n    }\r\n\r\n    function getClassIds() public view returns (uint256[] memory) {\r\n        return classIds;\r\n    }\r\n}\r\n",
  "sourcePath": "E:\\\\paper\\DAO\\git-DAO\\v1\\Course-allocation\\project\\contracts\\ICourseAllocation.sol",
  "compiler": {
    "name": "solc",
    "version": "0.8.7+commit.e28d00a7.Emscripten.clang"
  },
  "schemaVersion": "3.4.16",
  "updatedAt": "2025-04-02T06:49:40.891Z",
  "networkType": "ethereum",
  "devdoc": {
    "kind": "dev",
    "methods": {},
    "version": 1
  },
  "userdoc": {
    "kind": "user",
    "methods": {},
    "version": 1
  }
}