{
  "contractName": "ICourseAllocation",
  "abi": [
    {
      "inputs": [],
      "stateMutability": "nonpayable",
      "type": "constructor"
    },
    {
      "inputs": [
        {
          "internalType": "address",
          "name": "",
          "type": "address"
        }
      ],
      "name": "addressToAgentId",
      "outputs": [
        {
          "internalType": "uint256",
          "name": "",
          "type": "uint256"
        }
      ],
      "stateMutability": "view",
      "type": "function",
      "constant": true
    },
    {
      "inputs": [
        {
          "internalType": "address",
          "name": "",
          "type": "address"
        }
      ],
      "name": "addressToClassId",
      "outputs": [
        {
          "internalType": "uint256",
          "name": "",
          "type": "uint256"
        }
      ],
      "stateMutability": "view",
      "type": "function",
      "constant": true
    },
    {
      "inputs": [
        {
          "internalType": "address",
          "name": "",
          "type": "address"
        }
      ],
      "name": "addressToSupervisorId",
      "outputs": [
        {
          "internalType": "uint256",
          "name": "",
          "type": "uint256"
        }
      ],
      "stateMutability": "view",
      "type": "function",
      "constant": true
    },
    {
      "inputs": [
        {
          "internalType": "address",
          "name": "",
          "type": "address"
        }
      ],
      "name": "addressToTeacherId",
      "outputs": [
        {
          "internalType": "uint256",
          "name": "",
          "type": "uint256"
        }
      ],
      "stateMutability": "view",
      "type": "function",
      "constant": true
    },
    {
      "inputs": [],
      "name": "agentCount",
      "outputs": [
        {
          "internalType": "uint256",
          "name": "",
          "type": "uint256"
        }
      ],
      "stateMutability": "view",
      "type": "function",
      "constant": true
    },
    {
      "inputs": [
        {
          "internalType": "uint256",
          "name": "",
          "type": "uint256"
        }
      ],
      "name": "agentIds",
      "outputs": [
        {
          "internalType": "uint256",
          "name": "",
          "type": "uint256"
        }
      ],
      "stateMutability": "view",
      "type": "function",
      "constant": true
    },
    {
      "inputs": [
        {
          "internalType": "uint256",
          "name": "",
          "type": "uint256"
        }
      ],
      "name": "agents",
      "outputs": [
        {
          "internalType": "uint256",
          "name": "id",
          "type": "uint256"
        },
        {
          "internalType": "string",
          "name": "name",
          "type": "string"
        },
        {
          "internalType": "address",
          "name": "addr",
          "type": "address"
        },
        {
          "internalType": "uint256",
          "name": "value",
          "type": "uint256"
        }
      ],
      "stateMutability": "view",
      "type": "function",
      "constant": true
    },
    {
      "inputs": [],
      "name": "classCount",
      "outputs": [
        {
          "internalType": "uint256",
          "name": "",
          "type": "uint256"
        }
      ],
      "stateMutability": "view",
      "type": "function",
      "constant": true
    },
    {
      "inputs": [
        {
          "internalType": "uint256",
          "name": "",
          "type": "uint256"
        }
      ],
      "name": "classIds",
      "outputs": [
        {
          "internalType": "uint256",
          "name": "",
          "type": "uint256"
        }
      ],
      "stateMutability": "view",
      "type": "function",
      "constant": true
    },
    {
      "inputs": [],
      "name": "courseCount",
      "outputs": [
        {
          "internalType": "uint256",
          "name": "",
          "type": "uint256"
        }
      ],
      "stateMutability": "view",
      "type": "function",
      "constant": true
    },
    {
      "inputs": [
        {
          "internalType": "uint256",
          "name": "",
          "type": "uint256"
        }
      ],
      "name": "courseIds",
      "outputs": [
        {
          "internalType": "uint256",
          "name": "",
          "type": "uint256"
        }
      ],
      "stateMutability": "view",
      "type": "function",
      "constant": true
    },
    {
      "inputs": [
        {
          "internalType": "uint256",
          "name": "",
          "type": "uint256"
        }
      ],
      "name": "courseScores",
      "outputs": [
        {
          "internalType": "uint256",
          "name": "id",
          "type": "uint256"
        },
        {
          "internalType": "uint256",
          "name": "totalScore",
          "type": "uint256"
        }
      ],
      "stateMutability": "view",
      "type": "function",
      "constant": true
    },
    {
      "inputs": [
        {
          "internalType": "uint256",
          "name": "",
          "type": "uint256"
        }
      ],
      "name": "courses",
      "outputs": [
        {
          "internalType": "uint256",
          "name": "id",
          "type": "uint256"
        },
        {
          "internalType": "string",
          "name": "name",
          "type": "string"
        },
        {
          "internalType": "uint256",
          "name": "importance",
          "type": "uint256"
        },
        {
          "internalType": "bool",
          "name": "isAgentSuitable",
          "type": "bool"
        }
      ],
      "stateMutability": "view",
      "type": "function",
      "constant": true
    },
    {
      "inputs": [],
      "name": "supervisorCount",
      "outputs": [
        {
          "internalType": "uint256",
          "name": "",
          "type": "uint256"
        }
      ],
      "stateMutability": "view",
      "type": "function",
      "constant": true
    },
    {
      "inputs": [
        {
          "internalType": "uint256",
          "name": "",
          "type": "uint256"
        }
      ],
      "name": "supervisorIds",
      "outputs": [
        {
          "internalType": "uint256",
          "name": "",
          "type": "uint256"
        }
      ],
      "stateMutability": "view",
      "type": "function",
      "constant": true
    },
    {
      "inputs": [
        {
          "internalType": "uint256",
          "name": "",
          "type": "uint256"
        }
      ],
      "name": "supervisors",
      "outputs": [
        {
          "internalType": "uint256",
          "name": "id",
          "type": "uint256"
        },
        {
          "internalType": "string",
          "name": "name",
          "type": "string"
        },
        {
          "internalType": "address",
          "name": "addr",
          "type": "address"
        }
      ],
      "stateMutability": "view",
      "type": "function",
      "constant": true
    },
    {
      "inputs": [],
      "name": "teacherCount",
      "outputs": [
        {
          "internalType": "uint256",
          "name": "",
          "type": "uint256"
        }
      ],
      "stateMutability": "view",
      "type": "function",
      "constant": true
    },
    {
      "inputs": [
        {
          "internalType": "uint256",
          "name": "",
          "type": "uint256"
        }
      ],
      "name": "teacherIds",
      "outputs": [
        {
          "internalType": "uint256",
          "name": "",
          "type": "uint256"
        }
      ],
      "stateMutability": "view",
      "type": "function",
      "constant": true
    },
    {
      "inputs": [
        {
          "internalType": "uint256",
          "name": "",
          "type": "uint256"
        }
      ],
      "name": "teachers",
      "outputs": [
        {
          "internalType": "uint256",
          "name": "id",
          "type": "uint256"
        },
        {
          "internalType": "string",
          "name": "name",
          "type": "string"
        },
        {
          "internalType": "address",
          "name": "addr",
          "type": "address"
        },
        {
          "internalType": "uint256",
          "name": "suitabilityWeight",
          "type": "uint256"
        },
        {
          "internalType": "uint256",
          "name": "transferCourseCoins",
          "type": "uint256"
        },
        {
          "internalType": "uint256",
          "name": "value",
          "type": "uint256"
        }
      ],
      "stateMutability": "view",
      "type": "function",
      "constant": true
    },
    {
      "inputs": [],
      "name": "totalWeight",
      "outputs": [
        {
          "internalType": "uint256",
          "name": "",
          "type": "uint256"
        }
      ],
      "stateMutability": "view",
      "type": "function",
      "constant": true
    },
    {
      "inputs": [],
      "name": "transferCourseEndTime",
      "outputs": [
        {
          "internalType": "uint256",
          "name": "",
          "type": "uint256"
        }
      ],
      "stateMutability": "view",
      "type": "function",
      "constant": true
    },
    {
      "inputs": [],
      "name": "transferCourseNumbers",
      "outputs": [
        {
          "internalType": "uint256",
          "name": "",
          "type": "uint256"
        }
      ],
      "stateMutability": "view",
      "type": "function",
      "constant": true
    },
    {
      "inputs": [],
      "name": "transferCourseStartTime",
      "outputs": [
        {
          "internalType": "uint256",
          "name": "",
          "type": "uint256"
        }
      ],
      "stateMutability": "view",
      "type": "function",
      "constant": true
    },
    {
      "inputs": [
        {
          "internalType": "address",
          "name": "teacherAddress",
          "type": "address"
        },
        {
          "internalType": "uint256",
          "name": "_TeacherId",
          "type": "uint256"
        }
      ],
      "name": "setTeacherId",
      "outputs": [],
      "stateMutability": "nonpayable",
      "type": "function"
    },
    {
      "inputs": [
        {
          "internalType": "uint256",
          "name": "teacherId",
          "type": "uint256"
        }
      ],
      "name": "removeTeacher",
      "outputs": [],
      "stateMutability": "nonpayable",
      "type": "function"
    },
    {
      "inputs": [
        {
          "internalType": "uint256",
          "name": "teacherId",
          "type": "uint256"
        },
        {
          "internalType": "string",
          "name": "_name",
          "type": "string"
        }
      ],
      "name": "setTeacherName",
      "outputs": [],
      "stateMutability": "nonpayable",
      "type": "function"
    },
    {
      "inputs": [
        {
          "internalType": "uint256",
          "name": "teacherId",
          "type": "uint256"
        },
        {
          "internalType": "address",
          "name": "_teacherAddress",
          "type": "address"
        }
      ],
      "name": "setTeacherAddress",
      "outputs": [],
      "stateMutability": "nonpayable",
      "type": "function"
    },
    {
      "inputs": [
        {
          "internalType": "uint256",
          "name": "teacherId",
          "type": "uint256"
        },
        {
          "internalType": "uint256",
          "name": "_assignedCourses",
          "type": "uint256"
        }
      ],
      "name": "addTeacherAssignedCourses",
      "outputs": [],
      "stateMutability": "nonpayable",
      "type": "function"
    },
    {
      "inputs": [
        {
          "internalType": "uint256",
          "name": "teacherId",
          "type": "uint256"
        },
        {
          "internalType": "uint256",
          "name": "_assignedCourses",
          "type": "uint256"
        }
      ],
      "name": "addTeacherReallyAssignedCourses",
      "outputs": [],
      "stateMutability": "nonpayable",
      "type": "function"
    },
    {
      "inputs": [
        {
          "internalType": "uint256",
          "name": "teacherId",
          "type": "uint256"
        },
        {
          "internalType": "uint256",
          "name": "_assignedCourses",
          "type": "uint256"
        }
      ],
      "name": "removeTeacherAssignedCourses",
      "outputs": [],
      "stateMutability": "nonpayable",
      "type": "function"
    },
    {
      "inputs": [
        {
          "internalType": "uint256",
          "name": "teacherId",
          "type": "uint256"
        },
        {
          "internalType": "uint256",
          "name": "_assignedCourses",
          "type": "uint256"
        }
      ],
      "name": "removeTeacherReallyAssignedCourses",
      "outputs": [],
      "stateMutability": "nonpayable",
      "type": "function"
    },
    {
      "inputs": [
        {
          "internalType": "uint256",
          "name": "teacherId",
          "type": "uint256"
        },
        {
          "internalType": "uint256",
          "name": "_suitabilityWeight",
          "type": "uint256"
        }
      ],
      "name": "setTeacherSuitabilityWeight",
      "outputs": [],
      "stateMutability": "nonpayable",
      "type": "function"
    },
    {
      "inputs": [
        {
          "internalType": "uint256",
          "name": "teacherId",
          "type": "uint256"
        },
        {
          "internalType": "uint256",
          "name": "_transferCourseCoins",
          "type": "uint256"
        }
      ],
      "name": "setTeacherTransferCourseCoins",
      "outputs": [],
      "stateMutability": "nonpayable",
      "type": "function"
    },
    {
      "inputs": [
        {
          "internalType": "uint256",
          "name": "teacherId",
          "type": "uint256"
        },
        {
          "internalType": "uint256",
          "name": "_value",
          "type": "uint256"
        }
      ],
      "name": "setTeacherValue",
      "outputs": [],
      "stateMutability": "nonpayable",
      "type": "function"
    },
    {
      "inputs": [
        {
          "internalType": "uint256",
          "name": "agentId",
          "type": "uint256"
        },
        {
          "internalType": "uint256",
          "name": "_value",
          "type": "uint256"
        }
      ],
      "name": "setAgentValue",
      "outputs": [],
      "stateMutability": "nonpayable",
      "type": "function"
    },
    {
      "inputs": [
        {
          "internalType": "uint256",
          "name": "teacherId",
          "type": "uint256"
        },
        {
          "internalType": "uint256[]",
          "name": "_suitabilities",
          "type": "uint256[]"
        }
      ],
      "name": "setAllTeacherCourseSuitability",
      "outputs": [],
      "stateMutability": "nonpayable",
      "type": "function"
    },
    {
      "inputs": [
        {
          "internalType": "uint256",
          "name": "teacherId",
          "type": "uint256"
        },
        {
          "internalType": "uint256",
          "name": "courseId",
          "type": "uint256"
        },
        {
          "internalType": "uint256",
          "name": "_suitability",
          "type": "uint256"
        }
      ],
      "name": "setTeacherCourseSuitability",
      "outputs": [],
      "stateMutability": "nonpayable",
      "type": "function"
    },
    {
      "inputs": [
        {
          "internalType": "uint256",
          "name": "teacherId",
          "type": "uint256"
        },
        {
          "internalType": "uint256[]",
          "name": "_preferences",
          "type": "uint256[]"
        }
      ],
      "name": "setAllTeacherCoursePreferences",
      "outputs": [],
      "stateMutability": "nonpayable",
      "type": "function"
    },
    {
      "inputs": [
        {
          "internalType": "uint256",
          "name": "teacherId",
          "type": "uint256"
        },
        {
          "internalType": "uint256",
          "name": "courseId",
          "type": "uint256"
        },
        {
          "internalType": "uint256",
          "name": "_preference",
          "type": "uint256"
        }
      ],
      "name": "setTeacherCoursePreferences",
      "outputs": [],
      "stateMutability": "nonpayable",
      "type": "function"
    },
    {
      "inputs": [
        {
          "internalType": "address",
          "name": "agentAddress",
          "type": "address"
        },
        {
          "internalType": "uint256",
          "name": "_agentId",
          "type": "uint256"
        }
      ],
      "name": "setAgentId",
      "outputs": [],
      "stateMutability": "nonpayable",
      "type": "function"
    },
    {
      "inputs": [
        {
          "internalType": "uint256",
          "name": "agentId",
          "type": "uint256"
        }
      ],
      "name": "removeAgent",
      "outputs": [],
      "stateMutability": "nonpayable",
      "type": "function"
    },
    {
      "inputs": [
        {
          "internalType": "uint256",
          "name": "agentId",
          "type": "uint256"
        },
        {
          "internalType": "string",
          "name": "_name",
          "type": "string"
        }
      ],
      "name": "setAgentName",
      "outputs": [],
      "stateMutability": "nonpayable",
      "type": "function"
    },
    {
      "inputs": [
        {
          "internalType": "uint256",
          "name": "agentId",
          "type": "uint256"
        },
        {
          "internalType": "address",
          "name": "_agentAddress",
          "type": "address"
        }
      ],
      "name": "setAgentAddress",
      "outputs": [],
      "stateMutability": "nonpayable",
      "type": "function"
    },
    {
      "inputs": [
        {
          "internalType": "uint256",
          "name": "agentId",
          "type": "uint256"
        },
        {
          "internalType": "uint256",
          "name": "_assignedCourses",
          "type": "uint256"
        }
      ],
      "name": "addAgentAssignedCourses",
      "outputs": [],
      "stateMutability": "nonpayable",
      "type": "function"
    },
    {
      "inputs": [
        {
          "internalType": "uint256",
          "name": "agentId",
          "type": "uint256"
        },
        {
          "internalType": "uint256",
          "name": "_assignedCourses",
          "type": "uint256"
        }
      ],
      "name": "removeAgentAssignedCourses",
      "outputs": [],
      "stateMutability": "nonpayable",
      "type": "function"
    },
    {
      "inputs": [
        {
          "internalType": "uint256",
          "name": "agentId",
          "type": "uint256"
        },
        {
          "internalType": "uint256",
          "name": "_courseId",
          "type": "uint256"
        },
        {
          "internalType": "uint256",
          "name": "_suitability",
          "type": "uint256"
        }
      ],
      "name": "setAgentCourseSuitability",
      "outputs": [],
      "stateMutability": "nonpayable",
      "type": "function"
    },
    {
      "inputs": [
        {
          "internalType": "uint256",
          "name": "agentId",
          "type": "uint256"
        },
        {
          "internalType": "uint256[]",
          "name": "_suitabilities",
          "type": "uint256[]"
        }
      ],
      "name": "setAllAgentCourseSuitability",
      "outputs": [],
      "stateMutability": "nonpayable",
      "type": "function"
    },
    {
      "inputs": [
        {
          "internalType": "address",
          "name": "classAddress",
          "type": "address"
        },
        {
          "internalType": "uint256",
          "name": "_id",
          "type": "uint256"
        }
      ],
      "name": "setClassId",
      "outputs": [],
      "stateMutability": "nonpayable",
      "type": "function"
    },
    {
      "inputs": [
        {
          "internalType": "uint256",
          "name": "classId",
          "type": "uint256"
        }
      ],
      "name": "removeClass",
      "outputs": [],
      "stateMutability": "nonpayable",
      "type": "function"
    },
    {
      "inputs": [
        {
          "internalType": "uint256",
          "name": "courseId",
          "type": "uint256"
        }
      ],
      "name": "setCourseId",
      "outputs": [],
      "stateMutability": "nonpayable",
      "type": "function"
    },
    {
      "inputs": [
        {
          "internalType": "uint256",
          "name": "courseId",
          "type": "uint256"
        }
      ],
      "name": "removeCourse",
      "outputs": [],
      "stateMutability": "nonpayable",
      "type": "function"
    },
    {
      "inputs": [
        {
          "internalType": "uint256",
          "name": "courseId",
          "type": "uint256"
        },
        {
          "internalType": "string",
          "name": "_name",
          "type": "string"
        }
      ],
      "name": "setCourseName",
      "outputs": [],
      "stateMutability": "nonpayable",
      "type": "function"
    },
    {
      "inputs": [
        {
          "internalType": "uint256",
          "name": "courseId",
          "type": "uint256"
        },
        {
          "internalType": "uint256",
          "name": "_importance",
          "type": "uint256"
        }
      ],
      "name": "setCourseImportance",
      "outputs": [],
      "stateMutability": "nonpayable",
      "type": "function"
    },
    {
      "inputs": [
        {
          "internalType": "uint256[]",
          "name": "_importances",
          "type": "uint256[]"
        }
      ],
      "name": "setAllCourseImportance",
      "outputs": [],
      "stateMutability": "nonpayable",
      "type": "function"
    },
    {
      "inputs": [
        {
          "internalType": "uint256",
          "name": "courseId",
          "type": "uint256"
        },
        {
          "internalType": "uint256",
          "name": "_teacherId",
          "type": "uint256"
        }
      ],
      "name": "addCourseAssignedTeacherId",
      "outputs": [],
      "stateMutability": "nonpayable",
      "type": "function"
    },
    {
      "inputs": [
        {
          "internalType": "uint256",
          "name": "courseId",
          "type": "uint256"
        },
        {
          "internalType": "uint256",
          "name": "_agentId",
          "type": "uint256"
        }
      ],
      "name": "addCourseAssignedAgentId",
      "outputs": [],
      "stateMutability": "nonpayable",
      "type": "function"
    },
    {
      "inputs": [
        {
          "internalType": "uint256",
          "name": "courseId",
          "type": "uint256"
        },
        {
          "internalType": "uint256",
          "name": "_teacherId",
          "type": "uint256"
        }
      ],
      "name": "removeCourseAssignedTeacherId",
      "outputs": [],
      "stateMutability": "nonpayable",
      "type": "function"
    },
    {
      "inputs": [
        {
          "internalType": "uint256",
          "name": "courseId",
          "type": "uint256"
        },
        {
          "internalType": "uint256",
          "name": "_agentId",
          "type": "uint256"
        }
      ],
      "name": "removeCourseAssignedAgentId",
      "outputs": [],
      "stateMutability": "nonpayable",
      "type": "function"
    },
    {
      "inputs": [
        {
          "internalType": "uint256",
          "name": "courseId",
          "type": "uint256"
        },
        {
          "internalType": "bool",
          "name": "_isAgentSuitable",
          "type": "bool"
        }
      ],
      "name": "setCourseIsAgentSuitable",
      "outputs": [],
      "stateMutability": "nonpayable",
      "type": "function"
    },
    {
      "inputs": [
        {
          "internalType": "uint256",
          "name": "_teacherCount",
          "type": "uint256"
        }
      ],
      "name": "setTeacherCount",
      "outputs": [],
      "stateMutability": "nonpayable",
      "type": "function"
    },
    {
      "inputs": [
        {
          "internalType": "uint256",
          "name": "_agentCount",
          "type": "uint256"
        }
      ],
      "name": "setAgentCount",
      "outputs": [],
      "stateMutability": "nonpayable",
      "type": "function"
    },
    {
      "inputs": [
        {
          "internalType": "uint256",
          "name": "_classCount",
          "type": "uint256"
        }
      ],
      "name": "setClassCount",
      "outputs": [],
      "stateMutability": "nonpayable",
      "type": "function"
    },
    {
      "inputs": [
        {
          "internalType": "uint256",
          "name": "_courseCount",
          "type": "uint256"
        }
      ],
      "name": "setCourseCount",
      "outputs": [],
      "stateMutability": "nonpayable",
      "type": "function"
    },
    {
      "inputs": [
        {
          "internalType": "uint256",
          "name": "_teacherId",
          "type": "uint256"
        },
        {
          "internalType": "uint256",
          "name": "courseId",
          "type": "uint256"
        }
      ],
      "name": "getTeacherSuitability",
      "outputs": [
        {
          "internalType": "uint256",
          "name": "",
          "type": "uint256"
        }
      ],
      "stateMutability": "view",
      "type": "function",
      "constant": true
    },
    {
      "inputs": [
        {
          "internalType": "uint256",
          "name": "_agentId",
          "type": "uint256"
        },
        {
          "internalType": "uint256",
          "name": "courseId",
          "type": "uint256"
        }
      ],
      "name": "getAgentSuitability",
      "outputs": [
        {
          "internalType": "uint256",
          "name": "",
          "type": "uint256"
        }
      ],
      "stateMutability": "view",
      "type": "function",
      "constant": true
    },
    {
      "inputs": [
        {
          "internalType": "uint256",
          "name": "_teacherId",
          "type": "uint256"
        },
        {
          "internalType": "uint256",
          "name": "courseId",
          "type": "uint256"
        }
      ],
      "name": "getPreference",
      "outputs": [
        {
          "internalType": "uint256",
          "name": "",
          "type": "uint256"
        }
      ],
      "stateMutability": "view",
      "type": "function",
      "constant": true
    },
    {
      "inputs": [
        {
          "internalType": "uint256",
          "name": "_teacherId",
          "type": "uint256"
        }
      ],
      "name": "getTeacherAssignedCourses",
      "outputs": [
        {
          "internalType": "uint256[]",
          "name": "",
          "type": "uint256[]"
        }
      ],
      "stateMutability": "view",
      "type": "function",
      "constant": true
    },
    {
      "inputs": [
        {
          "internalType": "uint256",
          "name": "_teacherId",
          "type": "uint256"
        }
      ],
      "name": "getTeacherReallyAssignedCourses",
      "outputs": [
        {
          "internalType": "uint256[]",
          "name": "",
          "type": "uint256[]"
        }
      ],
      "stateMutability": "view",
      "type": "function",
      "constant": true
    },
    {
      "inputs": [
        {
          "internalType": "uint256",
          "name": "_agentId",
          "type": "uint256"
        }
      ],
      "name": "getAgentAssignedCourses",
      "outputs": [
        {
          "internalType": "uint256[]",
          "name": "",
          "type": "uint256[]"
        }
      ],
      "stateMutability": "view",
      "type": "function",
      "constant": true
    },
    {
      "inputs": [
        {
          "internalType": "uint256",
          "name": "_courseId",
          "type": "uint256"
        }
      ],
      "name": "getCoursesAssignedTeacher",
      "outputs": [
        {
          "internalType": "uint256[]",
          "name": "",
          "type": "uint256[]"
        }
      ],
      "stateMutability": "view",
      "type": "function",
      "constant": true
    },
    {
      "inputs": [
        {
          "internalType": "uint256",
          "name": "_courseId",
          "type": "uint256"
        }
      ],
      "name": "getCoursesAssignedAgent",
      "outputs": [
        {
          "internalType": "uint256[]",
          "name": "",
          "type": "uint256[]"
        }
      ],
      "stateMutability": "view",
      "type": "function",
      "constant": true
    },
    {
      "inputs": [
        {
          "internalType": "uint256",
          "name": "courseId",
          "type": "uint256"
        }
      ],
      "name": "getCourseImportance",
      "outputs": [
        {
          "internalType": "uint256",
          "name": "",
          "type": "uint256"
        }
      ],
      "stateMutability": "view",
      "type": "function",
      "constant": true
    },
    {
      "inputs": [
        {
          "internalType": "uint256",
          "name": "courseId",
          "type": "uint256"
        }
      ],
      "name": "getCourseIsAgentSuitable",
      "outputs": [
        {
          "internalType": "bool",
          "name": "",
          "type": "bool"
        }
      ],
      "stateMutability": "view",
      "type": "function",
      "constant": true
    },
    {
      "inputs": [],
      "name": "getTeacherIds",
      "outputs": [
        {
          "internalType": "uint256[]",
          "name": "",
          "type": "uint256[]"
        }
      ],
      "stateMutability": "view",
      "type": "function",
      "constant": true
    },
    {
      "inputs": [],
      "name": "getAgentIds",
      "outputs": [
        {
          "internalType": "uint256[]",
          "name": "",
          "type": "uint256[]"
        }
      ],
      "stateMutability": "view",
      "type": "function",
      "constant": true
    },
    {
      "inputs": [],
      "name": "getCourseIds",
      "outputs": [
        {
          "internalType": "uint256[]",
          "name": "",
          "type": "uint256[]"
        }
      ],
      "stateMutability": "view",
      "type": "function",
      "constant": true
    },
    {
      "inputs": [],
      "name": "getClassIds",
      "outputs": [
        {
          "internalType": "uint256[]",
          "name": "",
          "type": "uint256[]"
        }
      ],
      "stateMutability": "view",
      "type": "function",
      "constant": true
    },
    {
      "inputs": [
        {
          "internalType": "uint256",
          "name": "courseId",
          "type": "uint256"
        },
        {
          "internalType": "uint256",
          "name": "classId",
          "type": "uint256"
        },
        {
          "internalType": "uint256",
          "name": "score",
          "type": "uint256"
        }
      ],
      "name": "addCourseClassScores",
      "outputs": [],
      "stateMutability": "nonpayable",
      "type": "function"
    },
    {
      "inputs": [
        {
          "internalType": "uint256",
          "name": "courseId",
          "type": "uint256"
        },
        {
          "internalType": "uint256",
          "name": "classId",
          "type": "uint256"
        }
      ],
      "name": "getGiveScoreClassIdExists",
      "outputs": [
        {
          "internalType": "uint256",
          "name": "",
          "type": "uint256"
        }
      ],
      "stateMutability": "view",
      "type": "function",
      "constant": true
    },
    {
      "inputs": [
        {
          "internalType": "uint256",
          "name": "courseId",
          "type": "uint256"
        },
        {
          "internalType": "uint256[]",
          "name": "classIds_",
          "type": "uint256[]"
        }
      ],
      "name": "removeCourseClassScores",
      "outputs": [],
      "stateMutability": "nonpayable",
      "type": "function"
    },
    {
      "inputs": [
        {
          "internalType": "uint256",
          "name": "courseId",
          "type": "uint256"
        }
      ],
      "name": "getCourseClassScores",
      "outputs": [
        {
          "internalType": "uint256[]",
          "name": "",
          "type": "uint256[]"
        }
      ],
      "stateMutability": "view",
      "type": "function",
      "constant": true
    },
    {
      "inputs": [
        {
          "internalType": "uint256",
          "name": "courseId",
          "type": "uint256"
        },
        {
          "internalType": "uint256",
          "name": "teacherId",
          "type": "uint256"
        },
        {
          "internalType": "uint256",
          "name": "score",
          "type": "uint256"
        }
      ],
      "name": "addTeacherScores",
      "outputs": [],
      "stateMutability": "nonpayable",
      "type": "function"
    },
    {
      "inputs": [
        {
          "internalType": "uint256",
          "name": "courseId",
          "type": "uint256"
        },
        {
          "internalType": "uint256[]",
          "name": "teacherIds_",
          "type": "uint256[]"
        }
      ],
      "name": "removeTeacherScores",
      "outputs": [],
      "stateMutability": "nonpayable",
      "type": "function"
    },
    {
      "inputs": [
        {
          "internalType": "uint256",
          "name": "courseId",
          "type": "uint256"
        }
      ],
      "name": "getTeacherScores",
      "outputs": [
        {
          "internalType": "uint256[]",
          "name": "",
          "type": "uint256[]"
        }
      ],
      "stateMutability": "view",
      "type": "function",
      "constant": true
    },
    {
      "inputs": [
        {
          "internalType": "uint256",
          "name": "courseId",
          "type": "uint256"
        },
        {
          "internalType": "uint256",
          "name": "teacherId",
          "type": "uint256"
        }
      ],
      "name": "getGiveScoreTeacherIdExists",
      "outputs": [
        {
          "internalType": "uint256",
          "name": "",
          "type": "uint256"
        }
      ],
      "stateMutability": "view",
      "type": "function",
      "constant": true
    },
    {
      "inputs": [
        {
          "internalType": "uint256",
          "name": "courseId",
          "type": "uint256"
        },
        {
          "internalType": "uint256",
          "name": "score",
          "type": "uint256"
        }
      ],
      "name": "setCourseTotalScore",
      "outputs": [],
      "stateMutability": "nonpayable",
      "type": "function"
    },
    {
      "inputs": [
        {
          "internalType": "uint256",
          "name": "courseId",
          "type": "uint256"
        },
        {
          "internalType": "uint256",
          "name": "supervisorId",
          "type": "uint256"
        },
        {
          "internalType": "uint256",
          "name": "score",
          "type": "uint256"
        }
      ],
      "name": "addCourseSupervisorScores",
      "outputs": [],
      "stateMutability": "nonpayable",
      "type": "function"
    },
    {
      "inputs": [
        {
          "internalType": "uint256",
          "name": "courseId",
          "type": "uint256"
        },
        {
          "internalType": "uint256[]",
          "name": "supervisorIds_",
          "type": "uint256[]"
        }
      ],
      "name": "removeCourseSupervisorScores",
      "outputs": [],
      "stateMutability": "nonpayable",
      "type": "function"
    },
    {
      "inputs": [
        {
          "internalType": "uint256",
          "name": "courseId",
          "type": "uint256"
        },
        {
          "internalType": "uint256",
          "name": "supervisorId",
          "type": "uint256"
        }
      ],
      "name": "getGiveScoreSupervisorIdExists",
      "outputs": [
        {
          "internalType": "uint256",
          "name": "",
          "type": "uint256"
        }
      ],
      "stateMutability": "view",
      "type": "function",
      "constant": true
    },
    {
      "inputs": [
        {
          "internalType": "uint256",
          "name": "courseId",
          "type": "uint256"
        }
      ],
      "name": "getCourseSupervisorScores",
      "outputs": [
        {
          "internalType": "uint256[]",
          "name": "",
          "type": "uint256[]"
        }
      ],
      "stateMutability": "view",
      "type": "function",
      "constant": true
    },
    {
      "inputs": [
        {
          "internalType": "uint256",
          "name": "supervisorId",
          "type": "uint256"
        }
      ],
      "name": "addSupervisorId",
      "outputs": [],
      "stateMutability": "nonpayable",
      "type": "function"
    },
    {
      "inputs": [],
      "name": "getSupervisorIds",
      "outputs": [
        {
          "internalType": "uint256[]",
          "name": "",
          "type": "uint256[]"
        }
      ],
      "stateMutability": "view",
      "type": "function",
      "constant": true
    },
    {
      "inputs": [
        {
          "internalType": "address",
          "name": "supervisor",
          "type": "address"
        },
        {
          "internalType": "uint256",
          "name": "supervisorId",
          "type": "uint256"
        }
      ],
      "name": "setSupervisorId",
      "outputs": [],
      "stateMutability": "nonpayable",
      "type": "function"
    },
    {
      "inputs": [
        {
          "internalType": "uint256",
          "name": "supervisorId",
          "type": "uint256"
        },
        {
          "internalType": "string",
          "name": "_name",
          "type": "string"
        }
      ],
      "name": "setSupervisorName",
      "outputs": [],
      "stateMutability": "nonpayable",
      "type": "function"
    },
    {
      "inputs": [
        {
          "internalType": "uint256",
          "name": "supervisorId",
          "type": "uint256"
        },
        {
          "internalType": "uint256",
          "name": "courseId",
          "type": "uint256"
        },
        {
          "internalType": "uint256",
          "name": "score",
          "type": "uint256"
        }
      ],
      "name": "setSupervisorsCourseScore",
      "outputs": [],
      "stateMutability": "nonpayable",
      "type": "function"
    },
    {
      "inputs": [
        {
          "internalType": "uint256",
          "name": "_transferCourseNumbers",
          "type": "uint256"
        }
      ],
      "name": "settransferCourseNumbers",
      "outputs": [],
      "stateMutability": "nonpayable",
      "type": "function"
    },
    {
      "inputs": [
        {
          "internalType": "uint256",
          "name": "_transferCourseStartTime",
          "type": "uint256"
        }
      ],
      "name": "settransferCourseStartTime",
      "outputs": [],
      "stateMutability": "nonpayable",
      "type": "function"
    },
    {
      "inputs": [
        {
          "internalType": "uint256",
          "name": "_transferCourseEndTime",
          "type": "uint256"
        }
      ],
      "name": "settransferCourseEndTime",
      "outputs": [],
      "stateMutability": "nonpayable",
      "type": "function"
    }
  ],
  "bytecode": "0x608060405234801561001057600080fd5b50614d9a806100206000396000f3fe608060405234801561001057600080fd5b50600436106105665760003560e01c80639476cf9b116102ca578063ce64bf9b1161018d578063e637812f116100f4578063ee196ee2116100ad578063fa8f084d11610087578063fa8f084d14611233578063fc09e9d014611251578063fc2ddca51461126d578063fe8dc6a81461128957610566565b8063ee196ee2146111df578063f0f2efd8146111fb578063f31e14941461121757610566565b8063e637812f146110e6578063e7fa455714611102578063e8a2dc2f1461111e578063e90616571461114e578063ebacebe41461117e578063ebd1aac6146111ae57610566565b8063deb9f76a11610146578063deb9f76a1461102a578063df3addfa14611046578063e204b10214611062578063e20b34051461107e578063e40af0361461109a578063e52505d8146110b657610566565b8063ce64bf9b14610f1e578063d4e57ff014610f4e578063d95a61d514610f7e578063d96ce73f14610fae578063dcfa705714610fde578063dd0357651461100e57610566565b8063ad3a6ad411610231578063bca24bd4116101ea578063bca24bd414610e62578063bd1602d114610e92578063bfb9d44c14610eae578063c318fe5f14610eca578063cb85404514610ee6578063cddd6c6314610f0257610566565b8063ad3a6ad414610db6578063b150876014610dd2578063b373a43414610df0578063b4da858414610e0c578063b7dc128414610e28578063bb69df7214610e4657610566565b80639e122377116102835780639e12237714610d0a578063a549e41614610d26578063a7ab847214610d42578063aaa4b24e14610d5e578063ab7cee7714610d7a578063ab99631714610d9857610566565b80639476cf9b14610c1f578063951d5fee14610c4f57806396c82e5714610c6d57806396f979d214610c8b5780639709ee0114610cbe57806397e92d5214610cee57610566565b80635953faff1161042d578063700ed28b1161039457806382ff0a5a1161034d57806386875ea81161032757806386875ea814610b875780638b27e55214610ba35780638bbb3be114610bd357806391c89deb14610bef57610566565b806382ff0a5a14610af75780638377b69014610b27578063851580a714610b5757610566565b8063700ed28b14610a2557806372ab4e9614610a4157806372c30f4514610a5d5780637ce28bac14610a795780637fa7e04d14610aab578063827e573114610ac757610566565b80636798bad9116103e65780636798bad9146109695780636b792cc8146109855780636d889f84146109a15780636e428d2d146109bd5780636e9b0f8f146109d95780636fcf4f9614610a0957610566565b80635953faff146108ab5780635ca24db0146108c75780635e383d46146108f75780635f63efe214610913578063643d172c1461092f578063660551591461094b57610566565b806338f6a6bd116104d15780634b974df71161048a5780634b974df7146107d65780634d27e912146107f25780634d6523501461080e5780634dcb63661461082c578063513856c81461084857806356e760581461087b57610566565b806338f6a6bd146107045780633abdb63d14610720578063406143ae1461073c57806345073d5c1461076c57806346be313614610788578063494e2371146107a657610566565b80631928f3bc116105235780631928f3bc1461063f5780631dd86f901461065d5780631fe76a6c146106795780632359b7b8146106955780632b0816ac146106b357806334ac0b40146106cf57610566565b8063034f578e1461056b57806307061e011461058957806308a2037f146105b95780630f7f13cf146105d55780630fa1c2711461060557806318860d3714610621575b600080fd5b6105736112a5565b60405161058091906145df565b60405180910390f35b6105a3600480360381019061059e919061420c565b6112ab565b6040516105b091906145df565b60405180910390f35b6105d360048036038101906105ce91906141ac565b6112dd565b005b6105ef60048036038101906105ea9190613f8d565b611308565b6040516105fc91906145df565b60405180910390f35b61061f600480360381019061061a919061420c565b611320565b005b610629611361565b60405161063691906144a2565b60405180910390f35b6106476113b9565b60405161065491906145df565b60405180910390f35b6106776004803603810190610672919061424c565b6113bf565b005b610693600480360381019061068e919061424c565b611473565b005b61069d6114a4565b6040516106aa91906144a2565b60405180910390f35b6106cd60048036038101906106c89190614043565b6114fc565b005b6106e960048036038101906106e49190614043565b611543565b6040516106fb96959493929190614684565b60405180910390f35b61071e6004803603810190610719919061424c565b611627565b005b61073a60048036038101906107359190614043565b6116ff565b005b61075660048036038101906107519190614043565b6117e7565b60405161076391906144a2565b60405180910390f35b61078660048036038101906107819190614110565b611855565b005b6107906118e2565b60405161079d91906145df565b60405180910390f35b6107c060048036038101906107bb9190614043565b6118e8565b6040516107cd91906145df565b60405180910390f35b6107f060048036038101906107eb919061420c565b61190c565b005b61080c6004803603810190610807919061424c565b611aa6565b005b610816611ad7565b60405161082391906144a2565b60405180910390f35b61084660048036038101906108419190614110565b611b2f565b005b610862600480360381019061085d9190614043565b611bbc565b6040516108729493929190614638565b60405180910390f35b61089560048036038101906108909190614043565b611c94565b6040516108a291906145df565b60405180910390f35b6108c560048036038101906108c09190613ffa565b611cb8565b005b6108e160048036038101906108dc9190614043565b611d7a565b6040516108ee91906144a2565b60405180910390f35b610911600480360381019061090c9190613fba565b611de8565b005b61092d60048036038101906109289190614043565b611e59565b005b61094960048036038101906109449190614043565b611e63565b005b610953611ea7565b60405161096091906145df565b60405180910390f35b610983600480360381019061097e9190614043565b611ead565b005b61099f600480360381019061099a9190614043565b611eb7565b005b6109bb60048036038101906109b6919061424c565b611ec1565b005b6109d760048036038101906109d2919061420c565b611f99565b005b6109f360048036038101906109ee9190614043565b612133565b604051610a0091906145df565b60405180910390f35b610a236004803603810190610a1e9190614043565b612153565b005b610a3f6004803603810190610a3a919061420c565b6122be565b005b610a5b6004803603810190610a56919061420c565b6122ff565b005b610a776004803603810190610a729190614043565b612340565b005b610a936004803603810190610a8e9190614043565b61240c565b604051610aa2939291906145fa565b60405180910390f35b610ac56004803603810190610ac091906141ac565b6124de565b005b610ae16004803603810190610adc9190614043565b612509565b604051610aee91906144a2565b60405180910390f35b610b116004803603810190610b0c9190614043565b612577565b604051610b1e91906144a2565b60405180910390f35b610b416004803603810190610b3c919061420c565b6125e5565b604051610b4e91906145df565b60405180910390f35b610b716004803603810190610b6c919061420c565b612617565b604051610b7e91906145df565b60405180910390f35b610ba16004803603810190610b9c919061420c565b612649565b005b610bbd6004803603810190610bb89190614043565b6127e3565b604051610bca91906144c4565b60405180910390f35b610bed6004803603810190610be89190613fba565b612810565b005b610c096004803603810190610c049190614043565b6128c8565b604051610c1691906144a2565b60405180910390f35b610c396004803603810190610c349190614043565b612936565b604051610c4691906145df565b60405180910390f35b610c5761295a565b604051610c6491906145df565b60405180910390f35b610c75612960565b604051610c8291906145df565b60405180910390f35b610ca56004803603810190610ca09190614043565b612966565b604051610cb594939291906146ec565b60405180910390f35b610cd86004803603810190610cd3919061420c565b612a2b565b604051610ce591906145df565b60405180910390f35b610d086004803603810190610d0391906140b0565b612a5d565b005b610d246004803603810190610d1f91906141ac565b612bb6565b005b610d406004803603810190610d3b9190613fba565b612be1565b005b610d5c6004803603810190610d5791906141ac565b612c6d565b005b610d786004803603810190610d73919061420c565b612d1b565b005b610d82612d3a565b604051610d8f91906145df565b60405180910390f35b610da0612d40565b604051610dad91906145df565b60405180910390f35b610dd06004803603810190610dcb91906140b0565b612d46565b005b610dda612e9f565b604051610de791906144a2565b60405180910390f35b610e0a6004803603810190610e059190614043565b612ef7565b005b610e266004803603810190610e21919061420c565b612f01565b005b610e30612fa3565b604051610e3d91906145df565b60405180910390f35b610e606004803603810190610e5b919061420c565b612fa9565b005b610e7c6004803603810190610e779190614043565b6130a7565b604051610e8991906145df565b60405180910390f35b610eac6004803603810190610ea79190614043565b6130cb565b005b610ec86004803603810190610ec39190613fba565b6130d5565b005b610ee46004803603810190610edf9190614070565b613161565b005b610f006004803603810190610efb919061416c565b61323d565b005b610f1c6004803603810190610f179190614070565b61326f565b005b610f386004803603810190610f339190614043565b6132c8565b604051610f4591906144a2565b60405180910390f35b610f686004803603810190610f639190613f8d565b613336565b604051610f7591906145df565b60405180910390f35b610f986004803603810190610f939190613f8d565b61334e565b604051610fa591906145df565b60405180910390f35b610fc86004803603810190610fc39190614043565b613366565b604051610fd591906144a2565b60405180910390f35b610ff86004803603810190610ff39190614043565b6133d4565b60405161100591906145df565b60405180910390f35b61102860048036038101906110239190614043565b6133f8565b005b611044600480360381019061103f9190614043565b613402565b005b611060600480360381019061105b9190614043565b61340c565b005b61107c6004803603810190611077919061420c565b6134d8565b005b6110986004803603810190611093919061420c565b6134f7565b005b6110b460048036038101906110af919061420c565b613599565b005b6110d060048036038101906110cb9190614043565b613733565b6040516110dd91906144a2565b60405180910390f35b61110060048036038101906110fb919061420c565b6137a1565b005b61111c6004803603810190611117919061420c565b6137e2565b005b6111386004803603810190611133919061420c565b61397c565b60405161114591906145df565b60405180910390f35b6111686004803603810190611163919061420c565b6139ae565b60405161117591906145df565b60405180910390f35b61119860048036038101906111939190613f8d565b6139e0565b6040516111a591906145df565b60405180910390f35b6111c860048036038101906111c39190614043565b6139f8565b6040516111d6929190614738565b60405180910390f35b6111f960048036038101906111f4919061420c565b613a1c565b005b611215600480360381019061121091906140b0565b613a3b565b005b611231600480360381019061122c919061424c565b613b11565b005b61123b613be9565b60405161124891906144a2565b60405180910390f35b61126b6004803603810190611266919061420c565b613c41565b005b6112876004803603810190611282919061424c565b613c82565b005b6112a3600480360381019061129e9190614110565b613cb3565b005b60165481565b600060096000848152602001908152602001600020600501600083815260200190815260200160002054905092915050565b8181600760008681526020019081526020016000206001019190611302929190613d40565b50505050565b60016020528060005260406000206000915090505481565b600860008381526020019081526020016000206003018190806001815401808255809150506001900390600052602060002001600090919091909150555050565b606060128054806020026020016040519081016040528092919081815260200182805480156113af57602002820191906000526020600020905b81548152602001906001019080831161139b575b5050505050905090565b60155481565b6000600160003373ffffffffffffffffffffffffffffffffffffffff1673ffffffffffffffffffffffffffffffffffffffff168152602001908152602001600020541415611442576040517f08c379a00000000000000000000000000000000000000000000000000000000081526004016114399061459f565b60405180910390fd5b8060056000858152602001908152602001600020600901600084815260200190815260200160002081905550505050565b8060056000858152602001908152602001600020600801600084815260200190815260200160002081905550505050565b606060118054806020026020016040519081016040528092919081815260200182805480156114f257602002820191906000526020600020905b8154815260200190600101908083116114de575b5050505050905090565b806008600083815260200190815260200160002060000181905550601181908060018154018082558091505060019003906000526020600020016000909190919091505550565b600560205280600052604060002060009150905080600001549080600101805461156c9061490c565b80601f01602080910402602001604051908101604052809291908181526020018280546115989061490c565b80156115e55780601f106115ba576101008083540402835291602001916115e5565b820191906000526020600020905b8154815290600101906020018083116115c857829003601f168201915b5050505050908060020160009054906101000a900473ffffffffffffffffffffffffffffffffffffffff16908060050154908060060154908060070154905086565b60006009600085815260200190815260200160002060050160008481526020019081526020016000205414611691576040517f08c379a00000000000000000000000000000000000000000000000000000000081526004016116889061453f565b60405180910390fd5b806009600085815260200190815260200160002060050160008481526020019081526020016000208190555060096000848152602001908152602001600020600401819080600181540180825580915050600190039060005260206000200160009091909190915055505050565b6000600660008381526020019081526020016000206000018190555060005b6010805490508110156117e35781601082815481106117405761173f614a45565b5b906000526020600020015414156117d05760106001601080549050611765919061485d565b8154811061177657611775614a45565b5b90600052602060002001546010828154811061179557611794614a45565b5b906000526020600020018190555060108054806117b5576117b4614a16565b5b600190038181906000526020600020016000905590556117e3565b80806117db9061496f565b91505061171e565b5050565b60606009600083815260200190815260200160002060040180548060200260200160405190810160405280929190818152602001828054801561184957602002820191906000526020600020905b815481526020019060010190808311611835575b50505050509050919050565b60005b81518110156118bb57600060096000858152602001908152602001600020600301600084848151811061188e5761188d614a45565b5b602002602001015181526020019081526020016000208190555080806118b39061496f565b915050611858565b506009600083815260200190815260200160002060020160006118de9190613dc6565b5050565b600a5481565b601181815481106118f857600080fd5b906000526020600020016000915090505481565b60008080600090505b600560008681526020019081526020016000206003018054905081101561198f578360056000878152602001908152602001600020600301828154811061195f5761195e614a45565b5b9060005260206000200154141561197c576001925080915061198f565b80806119879061496f565b915050611915565b508115611a655760056000858152602001908152602001600020600301600160056000878152602001908152602001600020600301805490506119d2919061485d565b815481106119e3576119e2614a45565b5b9060005260206000200154600560008681526020019081526020016000206003018281548110611a1657611a15614a45565b5b906000526020600020018190555060056000858152602001908152602001600020600301805480611a4a57611a49614a16565b5b60019003818190600052602060002001600090559055611aa0565b6040517f08c379a0000000000000000000000000000000000000000000000000000000008152600401611a979061451f565b60405180910390fd5b50505050565b8060066000858152602001908152602001600020600501600084815260200190815260200160002081905550505050565b6060600f805480602002602001604051908101604052809291908181526020018280548015611b2557602002820191906000526020600020905b815481526020019060010190808311611b11575b5050505050905090565b60005b8151811015611b95576000600960008581526020019081526020016000206007016000848481518110611b6857611b67614a45565b5b60200260200101518152602001908152602001600020819055508080611b8d9061496f565b915050611b32565b50600960008381526020019081526020016000206006016000611bb89190613dc6565b5050565b6006602052806000526040600020600091509050806000015490806001018054611be59061490c565b80601f0160208091040260200160405190810160405280929190818152602001828054611c119061490c565b8015611c5e5780601f10611c3357610100808354040283529160200191611c5e565b820191906000526020600020905b815481529060010190602001808311611c4157829003601f168201915b5050505050908060020160009054906101000a900473ffffffffffffffffffffffffffffffffffffffff16908060030154905084565b60108181548110611ca457600080fd5b906000526020600020016000915090505481565b601180549050815114611d00576040517f08c379a0000000000000000000000000000000000000000000000000000000008152600401611cf79061455f565b60405180910390fd5b60005b601180549050811015611d7657818181518110611d2357611d22614a45565b5b60200260200101516008600060118481548110611d4357611d42614a45565b5b90600052602060002001548152602001908152602001600020600201819055508080611d6e9061496f565b915050611d03565b5050565b606060096000838152602001908152602001600020600201805480602002602001604051908101604052809291908181526020018280548015611ddc57602002820191906000526020600020905b815481526020019060010190808311611dc8575b50505050509050919050565b80600360008473ffffffffffffffffffffffffffffffffffffffff1673ffffffffffffffffffffffffffffffffffffffff1681526020019081526020016000208190555060128190806001815401808255809150506001900390600052602060002001600090919091909150555050565b8060158190555050565b6013819080600181540180825580915050600190039060005260206000200160009091909190915055600e6000815480929190611e9f9061496f565b919050555050565b600d5481565b80600a8190555050565b8060148190555050565b60006009600085815260200190815260200160002060030160008481526020019081526020016000205414611f2b576040517f08c379a0000000000000000000000000000000000000000000000000000000008152600401611f22906144ff565b60405180910390fd5b806009600085815260200190815260200160002060030160008481526020019081526020016000208190555060096000848152602001908152602001600020600201819080600181540180825580915050600190039060005260206000200160009091909190915055505050565b60008080600090505b600860008681526020019081526020016000206003018054905081101561201c5783600860008781526020019081526020016000206003018281548110611fec57611feb614a45565b5b90600052602060002001541415612009576001925080915061201c565b80806120149061496f565b915050611fa2565b5081156120f257600860008581526020019081526020016000206003016001600860008781526020019081526020016000206003018054905061205f919061485d565b815481106120705761206f614a45565b5b90600052602060002001546008600086815260200190815260200160002060030182815481106120a3576120a2614a45565b5b9060005260206000200181905550600860008581526020019081526020016000206003018054806120d7576120d6614a16565b5b6001900381819060005260206000200160009055905561212d565b6040517f08c379a00000000000000000000000000000000000000000000000000000000081526004016121249061451f565b60405180910390fd5b50505050565b600060086000838152602001908152602001600020600201549050919050565b6000600160003373ffffffffffffffffffffffffffffffffffffffff1673ffffffffffffffffffffffffffffffffffffffff1681526020019081526020016000205414156121d6576040517f08c379a00000000000000000000000000000000000000000000000000000000081526004016121cd9061459f565b60405180910390fd5b6000600560008381526020019081526020016000206000018190555060005b600f805490508110156122ba5781600f828154811061221757612216614a45565b5b906000526020600020015414156122a757600f6001600f8054905061223c919061485d565b8154811061224d5761224c614a45565b5b9060005260206000200154600f828154811061226c5761226b614a45565b5b9060005260206000200181905550600f80548061228c5761228b614a16565b5b600190038181906000526020600020016000905590556122ba565b80806122b29061496f565b9150506121f5565b5050565b600560008381526020019081526020016000206003018190806001815401808255809150506001900390600052602060002001600090919091909150555050565b600660008381526020019081526020016000206004018190806001815401808255809150506001900390600052602060002001600090919091909150555050565b60005b60128054905081101561240857816012828154811061236557612364614a45565b5b906000526020600020015414156123f5576012600160128054905061238a919061485d565b8154811061239b5761239a614a45565b5b9060005260206000200154601282815481106123ba576123b9614a45565b5b906000526020600020018190555060128054806123da576123d9614a16565b5b60019003818190600052602060002001600090559055612408565b80806124009061496f565b915050612343565b5050565b60076020528060005260406000206000915090508060000154908060010180546124359061490c565b80601f01602080910402602001604051908101604052809291908181526020018280546124619061490c565b80156124ae5780601f10612483576101008083540402835291602001916124ae565b820191906000526020600020905b81548152906001019060200180831161249157829003601f168201915b5050505050908060020160009054906101000a900473ffffffffffffffffffffffffffffffffffffffff16905083565b8181600660008681526020019081526020016000206001019190612503929190613d40565b50505050565b60606005600083815260200190815260200160002060040180548060200260200160405190810160405280929190818152602001828054801561256b57602002820191906000526020600020905b815481526020019060010190808311612557575b50505050509050919050565b6060600860008381526020019081526020016000206003018054806020026020016040519081016040528092919081815260200182805480156125d957602002820191906000526020600020905b8154815260200190600101908083116125c5575b50505050509050919050565b600060096000848152602001908152602001600020600301600083815260200190815260200160002054905092915050565b600060056000848152602001908152602001600020600901600083815260200190815260200160002054905092915050565b60008080600090505b60086000868152602001908152602001600020600401805490508110156126cc578360086000878152602001908152602001600020600401828154811061269c5761269b614a45565b5b906000526020600020015414156126b957600192508091506126cc565b80806126c49061496f565b915050612652565b5081156127a257600860008581526020019081526020016000206004016001600860008781526020019081526020016000206004018054905061270f919061485d565b815481106127205761271f614a45565b5b906000526020600020015460086000868152602001908152602001600020600401828154811061275357612752614a45565b5b90600052602060002001819055506008600085815260200190815260200160002060040180548061278757612786614a16565b5b600190038181906000526020600020016000905590556127dd565b6040517f08c379a00000000000000000000000000000000000000000000000000000000081526004016127d49061451f565b60405180910390fd5b50505050565b60006008600083815260200190815260200160002060050160009054906101000a900460ff169050919050565b80600460008473ffffffffffffffffffffffffffffffffffffffff1673ffffffffffffffffffffffffffffffffffffffff16815260200190815260200160002081905550806007600083815260200190815260200160002060000181905550816007600083815260200190815260200160002060020160006101000a81548173ffffffffffffffffffffffffffffffffffffffff021916908373ffffffffffffffffffffffffffffffffffffffff1602179055505050565b60606008600083815260200190815260200160002060040180548060200260200160405190810160405280929190818152602001828054801561292a57602002820191906000526020600020905b815481526020019060010190808311612916575b50505050509050919050565b6013818154811061294657600080fd5b906000526020600020016000915090505481565b60145481565b60005481565b600860205280600052604060002060009150905080600001549080600101805461298f9061490c565b80601f01602080910402602001604051908101604052809291908181526020018280546129bb9061490c565b8015612a085780601f106129dd57610100808354040283529160200191612a08565b820191906000526020600020905b8154815290600101906020018083116129eb57829003601f168201915b5050505050908060020154908060050160009054906101000a900460ff16905084565b600060066000848152602001908152602001600020600501600083815260200190815260200160002054905092915050565b6000600160003373ffffffffffffffffffffffffffffffffffffffff1673ffffffffffffffffffffffffffffffffffffffff168152602001908152602001600020541415612ae0576040517f08c379a0000000000000000000000000000000000000000000000000000000008152600401612ad79061459f565b60405180910390fd5b6011805490508282905014612b2a576040517f08c379a0000000000000000000000000000000000000000000000000000000008152600401612b21906145bf565b60405180910390fd5b60005b601180549050811015612bb057828282818110612b4d57612b4c614a45565b5b9050602002013560056000868152602001908152602001600020600801600060118481548110612b8057612b7f614a45565b5b90600052602060002001548152602001908152602001600020819055508080612ba89061496f565b915050612b2d565b50505050565b8181600860008681526020019081526020016000206001019190612bdb929190613d40565b50505050565b80600160008473ffffffffffffffffffffffffffffffffffffffff1673ffffffffffffffffffffffffffffffffffffffff16815260200190815260200160002081905550806005600083815260200190815260200160002060000181905550600f8190806001815401808255809150506001900390600052602060002001600090919091909150555050565b6000600160003373ffffffffffffffffffffffffffffffffffffffff1673ffffffffffffffffffffffffffffffffffffffff168152602001908152602001600020541415612cf0576040517f08c379a0000000000000000000000000000000000000000000000000000000008152600401612ce79061459f565b60405180910390fd5b8181600560008681526020019081526020016000206001019190612d15929190613d40565b50505050565b8060096000848152602001908152602001600020600101819055505050565b600e5481565b600c5481565b6000600160003373ffffffffffffffffffffffffffffffffffffffff1673ffffffffffffffffffffffffffffffffffffffff168152602001908152602001600020541415612dc9576040517f08c379a0000000000000000000000000000000000000000000000000000000008152600401612dc09061459f565b60405180910390fd5b6011805490508282905014612e13576040517f08c379a0000000000000000000000000000000000000000000000000000000008152600401612e0a906144df565b60405180910390fd5b60005b601180549050811015612e9957828282818110612e3657612e35614a45565b5b9050602002013560056000868152602001908152602001600020600901600060118481548110612e6957612e68614a45565b5b90600052602060002001548152602001908152602001600020819055508080612e919061496f565b915050612e16565b50505050565b60606010805480602002602001604051908101604052809291908181526020018280548015612eed57602002820191906000526020600020905b815481526020019060010190808311612ed9575b5050505050905090565b8060168190555050565b6000600160003373ffffffffffffffffffffffffffffffffffffffff1673ffffffffffffffffffffffffffffffffffffffff168152602001908152602001600020541415612f84576040517f08c379a0000000000000000000000000000000000000000000000000000000008152600401612f7b9061459f565b60405180910390fd5b8060056000848152602001908152602001600020600601819055505050565b600b5481565b6000600160003373ffffffffffffffffffffffffffffffffffffffff1673ffffffffffffffffffffffffffffffffffffffff16815260200190815260200160002054141561302c576040517f08c379a00000000000000000000000000000000000000000000000000000000081526004016130239061459f565b60405180910390fd5b6005600083815260200190815260200160002060050154600080828254613053919061485d565b92505081905550806005600084815260200190815260200160002060050181905550600560008381526020019081526020016000206005015460008082825461309c9190614807565b925050819055505050565b601281815481106130b757600080fd5b906000526020600020016000915090505481565b80600d8190555050565b80600260008473ffffffffffffffffffffffffffffffffffffffff1673ffffffffffffffffffffffffffffffffffffffff1681526020019081526020016000208190555080600660008381526020019081526020016000206000018190555060108190806001815401808255809150506001900390600052602060002001600090919091909150555050565b6000600160003373ffffffffffffffffffffffffffffffffffffffff1673ffffffffffffffffffffffffffffffffffffffff1681526020019081526020016000205414156131e4576040517f08c379a00000000000000000000000000000000000000000000000000000000081526004016131db9061459f565b60405180910390fd5b806005600084815260200190815260200160002060020160006101000a81548173ffffffffffffffffffffffffffffffffffffffff021916908373ffffffffffffffffffffffffffffffffffffffff1602179055505050565b806008600084815260200190815260200160002060050160006101000a81548160ff0219169083151502179055505050565b806006600084815260200190815260200160002060020160006101000a81548173ffffffffffffffffffffffffffffffffffffffff021916908373ffffffffffffffffffffffffffffffffffffffff1602179055505050565b60606006600083815260200190815260200160002060040180548060200260200160405190810160405280929190818152602001828054801561332a57602002820191906000526020600020905b815481526020019060010190808311613316575b50505050509050919050565b60036020528060005260406000206000915090505481565b60046020528060005260406000206000915090505481565b6060600960008381526020019081526020016000206006018054806020026020016040519081016040528092919081815260200182805480156133c857602002820191906000526020600020905b8154815260200190600101908083116133b4575b50505050509050919050565b600f81815481106133e457600080fd5b906000526020600020016000915090505481565b80600c8190555050565b80600b8190555050565b60005b6011805490508110156134d457816011828154811061343157613430614a45565b5b906000526020600020015414156134c15760116001601180549050613456919061485d565b8154811061346757613466614a45565b5b90600052602060002001546011828154811061348657613485614a45565b5b906000526020600020018190555060118054806134a6576134a5614a16565b5b600190038181906000526020600020016000905590556134d4565b80806134cc9061496f565b91505061340f565b5050565b8060086000848152602001908152602001600020600201819055505050565b6000600160003373ffffffffffffffffffffffffffffffffffffffff1673ffffffffffffffffffffffffffffffffffffffff16815260200190815260200160002054141561357a576040517f08c379a00000000000000000000000000000000000000000000000000000000081526004016135719061459f565b60405180910390fd5b8060056000848152602001908152602001600020600701819055505050565b60008080600090505b600660008681526020019081526020016000206004018054905081101561361c57836006600087815260200190815260200160002060040182815481106135ec576135eb614a45565b5b90600052602060002001541415613609576001925080915061361c565b80806136149061496f565b9150506135a2565b5081156136f257600660008581526020019081526020016000206004016001600660008781526020019081526020016000206004018054905061365f919061485d565b815481106136705761366f614a45565b5b90600052602060002001546006600086815260200190815260200160002060040182815481106136a3576136a2614a45565b5b9060005260206000200181905550600660008581526020019081526020016000206004018054806136d7576136d6614a16565b5b6001900381819060005260206000200160009055905561372d565b6040517f08c379a00000000000000000000000000000000000000000000000000000000081526004016137249061451f565b60405180910390fd5b50505050565b60606005600083815260200190815260200160002060030180548060200260200160405190810160405280929190818152602001828054801561379557602002820191906000526020600020905b815481526020019060010190808311613781575b50505050509050919050565b600560008381526020019081526020016000206004018190806001815401808255809150506001900390600052602060002001600090919091909150555050565b60008080600090505b6005600086815260200190815260200160002060040180549050811015613865578360056000878152602001908152602001600020600401828154811061383557613834614a45565b5b906000526020600020015414156138525760019250809150613865565b808061385d9061496f565b9150506137eb565b50811561393b5760056000858152602001908152602001600020600401600160056000878152602001908152602001600020600401805490506138a8919061485d565b815481106138b9576138b8614a45565b5b90600052602060002001546005600086815260200190815260200160002060040182815481106138ec576138eb614a45565b5b9060005260206000200181905550600560008581526020019081526020016000206004018054806139205761391f614a16565b5b60019003818190600052602060002001600090559055613976565b6040517f08c379a000000000000000000000000000000000000000000000000000000000815260040161396d9061451f565b60405180910390fd5b50505050565b600060056000848152602001908152602001600020600801600083815260200190815260200160002054905092915050565b600060096000848152602001908152602001600020600701600083815260200190815260200160002054905092915050565b60026020528060005260406000206000915090505481565b60096020528060005260406000206000915090508060000154908060010154905082565b8060066000848152602001908152602001600020600301819055505050565b6011805490508282905014613a85576040517f08c379a0000000000000000000000000000000000000000000000000000000008152600401613a7c906145bf565b60405180910390fd5b60005b601180549050811015613b0b57828282818110613aa857613aa7614a45565b5b9050602002013560066000868152602001908152602001600020600501600060118481548110613adb57613ada614a45565b5b90600052602060002001548152602001908152602001600020819055508080613b039061496f565b915050613a88565b50505050565b60006009600085815260200190815260200160002060070160008481526020019081526020016000205414613b7b576040517f08c379a0000000000000000000000000000000000000000000000000000000008152600401613b729061457f565b60405180910390fd5b806009600085815260200190815260200160002060070160008481526020019081526020016000208190555060096000848152602001908152602001600020600601819080600181540180825580915050600190039060005260206000200160009091909190915055505050565b60606013805480602002602001604051908101604052809291908181526020018280548015613c3757602002820191906000526020600020905b815481526020019060010190808311613c23575b5050505050905090565b600860008381526020019081526020016000206004018190806001815401808255809150506001900390600052602060002001600090919091909150555050565b8060076000858152602001908152602001600020600301600084815260200190815260200160002081905550505050565b60005b8151811015613d19576000600960008581526020019081526020016000206005016000848481518110613cec57613ceb614a45565b5b60200260200101518152602001908152602001600020819055508080613d119061496f565b915050613cb6565b50600960008381526020019081526020016000206004016000613d3c9190613dc6565b5050565b828054613d4c9061490c565b90600052602060002090601f016020900481019282613d6e5760008555613db5565b82601f10613d8757803560ff1916838001178555613db5565b82800160010185558215613db5579182015b82811115613db4578235825591602001919060010190613d99565b5b509050613dc29190613de7565b5090565b5080546000825590600052602060002090810190613de49190613de7565b50565b5b80821115613e00576000816000905550600101613de8565b5090565b6000613e17613e1284614786565b614761565b90508083825260208201905082856020860282011115613e3a57613e39614aad565b5b60005b85811015613e6a5781613e508882613f78565b845260208401935060208301925050600181019050613e3d565b5050509392505050565b600081359050613e8381614d1f565b92915050565b60008083601f840112613e9f57613e9e614aa8565b5b8235905067ffffffffffffffff811115613ebc57613ebb614aa3565b5b602083019150836020820283011115613ed857613ed7614aad565b5b9250929050565b600082601f830112613ef457613ef3614aa8565b5b8135613f04848260208601613e04565b91505092915050565b600081359050613f1c81614d36565b92915050565b60008083601f840112613f3857613f37614aa8565b5b8235905067ffffffffffffffff811115613f5557613f54614aa3565b5b602083019150836001820283011115613f7157613f70614aad565b5b9250929050565b600081359050613f8781614d4d565b92915050565b600060208284031215613fa357613fa2614ab7565b5b6000613fb184828501613e74565b91505092915050565b60008060408385031215613fd157613fd0614ab7565b5b6000613fdf85828601613e74565b9250506020613ff085828601613f78565b9150509250929050565b6000602082840312156140105761400f614ab7565b5b600082013567ffffffffffffffff81111561402e5761402d614ab2565b5b61403a84828501613edf565b91505092915050565b60006020828403121561405957614058614ab7565b5b600061406784828501613f78565b91505092915050565b6000806040838503121561408757614086614ab7565b5b600061409585828601613f78565b92505060206140a685828601613e74565b9150509250929050565b6000806000604084860312156140c9576140c8614ab7565b5b60006140d786828701613f78565b935050602084013567ffffffffffffffff8111156140f8576140f7614ab2565b5b61410486828701613e89565b92509250509250925092565b6000806040838503121561412757614126614ab7565b5b600061413585828601613f78565b925050602083013567ffffffffffffffff81111561415657614155614ab2565b5b61416285828601613edf565b9150509250929050565b6000806040838503121561418357614182614ab7565b5b600061419185828601613f78565b92505060206141a285828601613f0d565b9150509250929050565b6000806000604084860312156141c5576141c4614ab7565b5b60006141d386828701613f78565b935050602084013567ffffffffffffffff8111156141f4576141f3614ab2565b5b61420086828701613f22565b92509250509250925092565b6000806040838503121561422357614222614ab7565b5b600061423185828601613f78565b925050602061424285828601613f78565b9150509250929050565b60008060006060848603121561426557614264614ab7565b5b600061427386828701613f78565b935050602061428486828701613f78565b925050604061429586828701613f78565b9150509250925092565b60006142ab8383614484565b60208301905092915050565b6142c081614891565b82525050565b60006142d1826147c2565b6142db81856147e5565b93506142e6836147b2565b8060005b838110156143175781516142fe888261429f565b9750614309836147d8565b9250506001810190506142ea565b5085935050505092915050565b61432d816148a3565b82525050565b600061433e826147cd565b61434881856147f6565b93506143588185602086016148d9565b61436181614abc565b840191505092915050565b60006143796060836147f6565b915061438482614acd565b606082019050919050565b600061439c6015836147f6565b91506143a782614b42565b602082019050919050565b60006143bf6010836147f6565b91506143ca82614b6b565b602082019050919050565b60006143e26015836147f6565b91506143ed82614b94565b602082019050919050565b60006144056022836147f6565b915061441082614bbd565b604082019050919050565b60006144286015836147f6565b915061443382614c0c565b602082019050919050565b600061444b602f836147f6565b915061445682614c35565b604082019050919050565b600061446e6061836147f6565b915061447982614c84565b608082019050919050565b61448d816148cf565b82525050565b61449c816148cf565b82525050565b600060208201905081810360008301526144bc81846142c6565b905092915050565b60006020820190506144d96000830184614324565b92915050565b600060208201905081810360008301526144f88161436c565b9050919050565b600060208201905081810360008301526145188161438f565b9050919050565b60006020820190508181036000830152614538816143b2565b9050919050565b60006020820190508181036000830152614558816143d5565b9050919050565b60006020820190508181036000830152614578816143f8565b9050919050565b600060208201905081810360008301526145988161441b565b9050919050565b600060208201905081810360008301526145b88161443e565b9050919050565b600060208201905081810360008301526145d881614461565b9050919050565b60006020820190506145f46000830184614493565b92915050565b600060608201905061460f6000830186614493565b81810360208301526146218185614333565b905061463060408301846142b7565b949350505050565b600060808201905061464d6000830187614493565b818103602083015261465f8186614333565b905061466e60408301856142b7565b61467b6060830184614493565b95945050505050565b600060c0820190506146996000830189614493565b81810360208301526146ab8188614333565b90506146ba60408301876142b7565b6146c76060830186614493565b6146d46080830185614493565b6146e160a0830184614493565b979650505050505050565b60006080820190506147016000830187614493565b81810360208301526147138186614333565b90506147226040830185614493565b61472f6060830184614324565b95945050505050565b600060408201905061474d6000830185614493565b61475a6020830184614493565b9392505050565b600061476b61477c565b9050614777828261493e565b919050565b6000604051905090565b600067ffffffffffffffff8211156147a1576147a0614a74565b5b602082029050602081019050919050565b6000819050602082019050919050565b600081519050919050565b600081519050919050565b6000602082019050919050565b600082825260208201905092915050565b600082825260208201905092915050565b6000614812826148cf565b915061481d836148cf565b9250827fffffffffffffffffffffffffffffffffffffffffffffffffffffffffffffffff03821115614852576148516149b8565b5b828201905092915050565b6000614868826148cf565b9150614873836148cf565b925082821015614886576148856149b8565b5b828203905092915050565b600061489c826148af565b9050919050565b60008115159050919050565b600073ffffffffffffffffffffffffffffffffffffffff82169050919050565b6000819050919050565b60005b838110156148f75780820151818401526020810190506148dc565b83811115614906576000848401525b50505050565b6000600282049050600182168061492457607f821691505b60208210811415614938576149376149e7565b5b50919050565b61494782614abc565b810181811067ffffffffffffffff8211171561496657614965614a74565b5b80604052505050565b600061497a826148cf565b91507fffffffffffffffffffffffffffffffffffffffffffffffffffffffffffffffff8214156149ad576149ac6149b8565b5b600182019050919050565b7f4e487b7100000000000000000000000000000000000000000000000000000000600052601160045260246000fd5b7f4e487b7100000000000000000000000000000000000000000000000000000000600052602260045260246000fd5b7f4e487b7100000000000000000000000000000000000000000000000000000000600052603160045260246000fd5b7f4e487b7100000000000000000000000000000000000000000000000000000000600052603260045260246000fd5b7f4e487b7100000000000000000000000000000000000000000000000000000000600052604160045260246000fd5b600080fd5b600080fd5b600080fd5b600080fd5b600080fd5b6000601f19601f8301169050919050565b7f5768656e2073657474696e672074686520707265666572656e6365206c65766560008201527f6c206f6620636f75727365732c206974206973206e656365737361727920746f60208201527f206861766520616e20657175616c206e756d626572206f6620636f7572736573604082015250565b7fe8afa5e78fade7baa7e5b7b2e7bb8fe68993e588860000000000000000000000600082015250565b7f436f75727365206e6f7420666f756e6400000000000000000000000000000000600082015250565b7fe8afa5e88081e5b888e5b7b2e7bb8fe68993e588860000000000000000000000600082015250565b7f6d7573742075706461746520616c6c20636f7572736520737569746162696c6960008201527f7479000000000000000000000000000000000000000000000000000000000000602082015250565b7fe8afa5e79da3e5afbce5b7b2e7bb8fe8af84e588860000000000000000000000600082015250565b7f4f6e6c7920726567697374657265642074656163686572732063616e2063616c60008201527f6c20746869732066756e6374696f6e0000000000000000000000000000000000602082015250565b7f5768656e2073657474696e672074686520737569746162696c697479206c657660008201527f656c206f6620636f75727365732c206974206973206e6563657373617279207460208201527f6f206861766520616e20657175616c206e756d626572206f6620636f7572736560408201527f7300000000000000000000000000000000000000000000000000000000000000606082015250565b614d2881614891565b8114614d3357600080fd5b50565b614d3f816148a3565b8114614d4a57600080fd5b50565b614d56816148cf565b8114614d6157600080fd5b5056fea2646970667358221220d70e2684e15387b96382dfde8c0518c0cc768689e89ec945acecd0ff21538d4564736f6c63430008070033",
  "immutableReferences": {},
  "source": "// SPDX-License-Identifier: MIT\r\npragma solidity ^0.8.7;\r\n\r\ncontract ICourseAllocation {\r\n    // \r\n    struct Teacher {\r\n        uint256 id;\r\n        string name;\r\n        address addr;\r\n        uint256[] assignedCourses;\r\n        uint256[] reallyAssignedCourses;\r\n        uint256 suitabilityWeight;\r\n        uint256 transferCourseCoins;\r\n        uint256 value;\r\n        mapping(uint256 => uint256) courseSuitabilities;\r\n        mapping(uint256 => uint256) coursePreferences;\r\n    }\r\n\r\n    // \r\n    struct Agent {\r\n        uint256 id;\r\n        string name;\r\n        address addr;\r\n        uint256 value;\r\n        uint256[] assignedCourses;\r\n        mapping(uint256 => uint256) courseSuitabilities;\r\n    }\r\n\r\n    // \r\n    struct Supervisor {\r\n        uint256 id;\r\n        string name;\r\n        address addr;\r\n        mapping(uint256 => uint256) courseScores;\r\n    }\r\n\r\n    // \r\n    struct Course {\r\n        uint256 id;\r\n        string name;\r\n        uint256 importance;\r\n        uint256[] assignedTeacherId;\r\n        uint256[] assignedAgentId;\r\n        bool isAgentSuitable;\r\n    }\r\n\r\n    struct CourseScore {\r\n        uint256 id; // id\r\n        uint256 totalScore;\r\n        uint256[] classScores;\r\n        mapping(uint256 => uint256) giveScoreClassIdExists;\r\n        uint256[] teacherScores;\r\n        mapping(uint256 => uint256) giveScoreTeacherIdExists;\r\n        uint256[] supervisorScores;\r\n        mapping(uint256 => uint256) giveScoreSupervisorIdExists;\r\n    }\r\n\r\n    // \r\n    uint256 public totalWeight;\r\n\r\n    //  => ID\r\n    mapping(address => uint256) public addressToTeacherId;\r\n\r\n    //  => ID\r\n    mapping(address => uint256) public addressToAgentId;\r\n\r\n    //  => ID\r\n    mapping(address => uint256) public addressToClassId;\r\n\r\n    //  => ID\r\n    mapping(address => uint256) public addressToSupervisorId;\r\n\r\n    // ID => \r\n    mapping(uint256 => Teacher) public teachers;\r\n\r\n    // ID => \r\n    mapping(uint256 => Agent) public agents;\r\n\r\n    // ID => \r\n    mapping(uint256 => Supervisor) public supervisors;\r\n\r\n    // ID => \r\n    mapping(uint256 => Course) public courses;\r\n\r\n    // ID => \r\n    mapping(uint256 => CourseScore) public courseScores;\r\n\r\n    // ID\r\n    uint256 public teacherCount;\r\n\r\n    // ID\r\n    uint256 public agentCount;\r\n\r\n    // ID\r\n    uint256 public classCount;\r\n\r\n    // ID\r\n    uint256 public courseCount;\r\n\r\n    // ID\r\n    uint256 public supervisorCount;\r\n\r\n    // ID\r\n    uint256[] public teacherIds;\r\n\r\n    // ID\r\n    uint256[] public agentIds;\r\n\r\n    // ID\r\n    uint256[] public courseIds;\r\n\r\n    // ID\r\n    uint256[] public classIds;\r\n\r\n    // ID\r\n    uint256[] public supervisorIds;\r\n\r\n    // \r\n    uint256 public transferCourseNumbers;\r\n\r\n    // \r\n    uint256 public transferCourseStartTime;\r\n\r\n    // \r\n    uint256 public transferCourseEndTime;\r\n\r\n    // \r\n    // event CourseImportanceSet(uint256 indexed courseId, uint256 importance);\r\n    // event SuitabilityUpdated(uint256 indexed courseId, uint256 suitability);\r\n    // event PreferenceUpdated(uint256 indexed teacherId, uint256 indexed courseId, uint256 preference);\r\n    // event ProposalCreated(uint256 proposalId, uint256 indexed courseId, uint256[] teacherIds); // \r\n    // event MachineProposal(uint256 proposalId, uint256 indexed courseId, uint256[] teacherIds, uint256[] teacherCounts); // \r\n    // event CourseAssignedToTeacher(uint256 indexed courseId, uint256 indexed teacherId); // \r\n\r\n    // \r\n    constructor() {}\r\n\r\n    // \r\n    modifier onlyTeacher() {\r\n        require(\r\n            addressToTeacherId[msg.sender] != 0,\r\n            \"Only registered teachers can call this function\"\r\n        );\r\n        _;\r\n    }\r\n\r\n    // ID\r\n    function setTeacherId(address teacherAddress, uint256 _TeacherId) public {\r\n        addressToTeacherId[teacherAddress] = _TeacherId;\r\n        teachers[_TeacherId].id = _TeacherId;\r\n        teacherIds.push(_TeacherId);\r\n    }\r\n\r\n    // \r\n    function removeTeacher(uint256 teacherId) public onlyTeacher {\r\n        teachers[teacherId].id = 0;\r\n        //  teacherIds  ID\r\n        for (uint256 i = 0; i < teacherIds.length; i++) {\r\n            if (teacherIds[i] == teacherId) {\r\n                //  ID \r\n                teacherIds[i] = teacherIds[teacherIds.length - 1];\r\n                // \r\n                teacherIds.pop();\r\n                break;\r\n            }\r\n        }\r\n    }\r\n\r\n    // \r\n    function setTeacherName(\r\n        uint256 teacherId,\r\n        string calldata _name\r\n    ) public onlyTeacher {\r\n        teachers[teacherId].name = _name;\r\n    }\r\n\r\n    // \r\n    function setTeacherAddress(\r\n        uint256 teacherId,\r\n        address _teacherAddress\r\n    ) public onlyTeacher {\r\n        teachers[teacherId].addr = _teacherAddress;\r\n    }\r\n\r\n    // \r\n    function addTeacherAssignedCourses(\r\n        uint256 teacherId,\r\n        uint256 _assignedCourses\r\n    ) public {\r\n        teachers[teacherId].assignedCourses.push(_assignedCourses);\r\n    }\r\n\r\n    // \r\n    function addTeacherReallyAssignedCourses(\r\n        uint256 teacherId,\r\n        uint256 _assignedCourses\r\n    ) public {\r\n        teachers[teacherId].reallyAssignedCourses.push(_assignedCourses);\r\n    }\r\n\r\n    // \r\n    function removeTeacherAssignedCourses(\r\n        uint256 teacherId,\r\n        uint256 _assignedCourses\r\n    ) public {\r\n        bool found = false;\r\n        uint256 indexToRemove;\r\n\r\n        //  ID \r\n        for (\r\n            uint256 i = 0;\r\n            i < teachers[teacherId].assignedCourses.length;\r\n            i++\r\n        ) {\r\n            if (teachers[teacherId].assignedCourses[i] == _assignedCourses) {\r\n                found = true;\r\n                indexToRemove = i;\r\n                break;\r\n            }\r\n        }\r\n\r\n        //  ID\r\n        if (found) {\r\n            // \r\n            teachers[teacherId].assignedCourses[indexToRemove] = teachers[\r\n                teacherId\r\n            ].assignedCourses[teachers[teacherId].assignedCourses.length - 1];\r\n            // \r\n            teachers[teacherId].assignedCourses.pop();\r\n        } else {\r\n            //  ID\r\n            revert(\"Course not found\");\r\n        }\r\n    }\r\n\r\n    // \r\n    function removeTeacherReallyAssignedCourses(\r\n        uint256 teacherId,\r\n        uint256 _assignedCourses\r\n    ) public {\r\n        bool found = false;\r\n        uint256 indexToRemove;\r\n\r\n        //  ID \r\n        for (\r\n            uint256 i = 0;\r\n            i < teachers[teacherId].reallyAssignedCourses.length;\r\n            i++\r\n        ) {\r\n            if (\r\n                teachers[teacherId].reallyAssignedCourses[i] == _assignedCourses\r\n            ) {\r\n                found = true;\r\n                indexToRemove = i;\r\n                break;\r\n            }\r\n        }\r\n\r\n        //  ID\r\n        if (found) {\r\n            // \r\n            teachers[teacherId].reallyAssignedCourses[indexToRemove] = teachers[\r\n                teacherId\r\n            ].reallyAssignedCourses[\r\n                    teachers[teacherId].reallyAssignedCourses.length - 1\r\n                ];\r\n            // \r\n            teachers[teacherId].reallyAssignedCourses.pop();\r\n        } else {\r\n            //  ID\r\n            revert(\"Course not found\");\r\n        }\r\n    }\r\n\r\n    // \r\n    function setTeacherSuitabilityWeight(\r\n        uint256 teacherId,\r\n        uint256 _suitabilityWeight\r\n    ) public onlyTeacher {\r\n        totalWeight -= teachers[teacherId].suitabilityWeight;\r\n        teachers[teacherId].suitabilityWeight = _suitabilityWeight;\r\n        totalWeight += teachers[teacherId].suitabilityWeight;\r\n    }\r\n\r\n    // \r\n    function setTeacherTransferCourseCoins(\r\n        uint256 teacherId,\r\n        uint256 _transferCourseCoins\r\n    ) public onlyTeacher {\r\n        teachers[teacherId].transferCourseCoins = _transferCourseCoins;\r\n    }\r\n\r\n    // \r\n    function setTeacherValue(\r\n        uint256 teacherId,\r\n        uint256 _value\r\n    ) public onlyTeacher {\r\n        teachers[teacherId].value = _value;\r\n    }\r\n\r\n    // \r\n    function setAgentValue(uint256 agentId, uint256 _value) public {\r\n        agents[agentId].value = _value;\r\n    }\r\n\r\n    // \r\n    function setAllTeacherCourseSuitability(\r\n        uint256 teacherId,\r\n        uint256[] calldata _suitabilities\r\n    ) public onlyTeacher {\r\n        require(\r\n            _suitabilities.length == courseIds.length,\r\n            \"When setting the suitability level of courses, it is necessary to have an equal number of courses\"\r\n        );\r\n        for (\r\n            uint256 courseIndex = 0;\r\n            courseIndex < courseIds.length;\r\n            courseIndex++\r\n        ) {\r\n            teachers[teacherId].courseSuitabilities[\r\n                courseIds[courseIndex]\r\n            ] = _suitabilities[courseIndex];\r\n        }\r\n    }\r\n\r\n    // \r\n    function setTeacherCourseSuitability(\r\n        uint256 teacherId,\r\n        uint256 courseId,\r\n        uint256 _suitability\r\n    ) public {\r\n        teachers[teacherId].courseSuitabilities[courseId] = _suitability;\r\n    }\r\n\r\n    // \r\n    function setAllTeacherCoursePreferences(\r\n        uint256 teacherId,\r\n        uint256[] calldata _preferences\r\n    ) public onlyTeacher {\r\n        require(\r\n            _preferences.length == courseIds.length,\r\n            \"When setting the preference level of courses, it is necessary to have an equal number of courses\"\r\n        );\r\n        for (\r\n            uint256 courseIndex = 0;\r\n            courseIndex < courseIds.length;\r\n            courseIndex++\r\n        ) {\r\n            teachers[teacherId].coursePreferences[\r\n                courseIds[courseIndex]\r\n            ] = _preferences[courseIndex];\r\n        }\r\n    }\r\n\r\n    // \r\n    function setTeacherCoursePreferences(\r\n        uint256 teacherId,\r\n        uint256 courseId,\r\n        uint256 _preference\r\n    ) public onlyTeacher {\r\n        teachers[teacherId].coursePreferences[courseId] = _preference;\r\n    }\r\n\r\n    // ID\r\n    function setAgentId(address agentAddress, uint256 _agentId) public {\r\n        addressToAgentId[agentAddress] = _agentId;\r\n        agents[_agentId].id = _agentId;\r\n        agentIds.push(_agentId);\r\n    }\r\n\r\n    // \r\n    function removeAgent(uint256 agentId) public {\r\n        agents[agentId].id = 0;\r\n        //  agentIds  ID\r\n        for (uint256 i = 0; i < agentIds.length; i++) {\r\n            if (agentIds[i] == agentId) {\r\n                //  ID \r\n                agentIds[i] = agentIds[agentIds.length - 1];\r\n                // \r\n                agentIds.pop();\r\n                break;\r\n            }\r\n        }\r\n    }\r\n\r\n    // \r\n    function setAgentName(uint256 agentId, string calldata _name) public {\r\n        agents[agentId].name = _name;\r\n    }\r\n\r\n    // \r\n    function setAgentAddress(uint256 agentId, address _agentAddress) public {\r\n        agents[agentId].addr = _agentAddress;\r\n    }\r\n\r\n    // \r\n    function addAgentAssignedCourses(\r\n        uint256 agentId,\r\n        uint256 _assignedCourses\r\n    ) public {\r\n        agents[agentId].assignedCourses.push(_assignedCourses);\r\n    }\r\n\r\n    // \r\n    function removeAgentAssignedCourses(\r\n        uint256 agentId,\r\n        uint256 _assignedCourses\r\n    ) public {\r\n        bool found = false;\r\n        uint256 indexToRemove;\r\n\r\n        //  ID \r\n        for (uint256 i = 0; i < agents[agentId].assignedCourses.length; i++) {\r\n            if (agents[agentId].assignedCourses[i] == _assignedCourses) {\r\n                found = true;\r\n                indexToRemove = i;\r\n                break;\r\n            }\r\n        }\r\n\r\n        //  ID\r\n        if (found) {\r\n            // \r\n            agents[agentId].assignedCourses[indexToRemove] = agents[agentId]\r\n                .assignedCourses[agents[agentId].assignedCourses.length - 1];\r\n            // \r\n            agents[agentId].assignedCourses.pop();\r\n        } else {\r\n            //  ID\r\n            revert(\"Course not found\");\r\n        }\r\n    }\r\n\r\n    // \r\n    function setAgentCourseSuitability(\r\n        uint256 agentId,\r\n        uint256 _courseId,\r\n        uint256 _suitability\r\n    ) public {\r\n        agents[agentId].courseSuitabilities[_courseId] = _suitability;\r\n    }\r\n\r\n    // \r\n    function setAllAgentCourseSuitability(\r\n        uint256 agentId,\r\n        uint256[] calldata _suitabilities\r\n    ) public {\r\n        require(\r\n            _suitabilities.length == courseIds.length,\r\n            \"When setting the suitability level of courses, it is necessary to have an equal number of courses\"\r\n        );\r\n        for (\r\n            uint256 courseIndex = 0;\r\n            courseIndex < courseIds.length;\r\n            courseIndex++\r\n        ) {\r\n            agents[agentId].courseSuitabilities[\r\n                courseIds[courseIndex]\r\n            ] = _suitabilities[courseIndex];\r\n        }\r\n    }\r\n\r\n    // ID\r\n    function setClassId(address classAddress, uint256 _id) public {\r\n        addressToClassId[classAddress] = _id;\r\n        classIds.push(_id);\r\n    }\r\n\r\n    // \r\n    function removeClass(uint256 classId) public {\r\n        //  classIds  ID\r\n        for (uint256 i = 0; i < classIds.length; i++) {\r\n            if (classIds[i] == classId) {\r\n                //  ID \r\n                classIds[i] = classIds[classIds.length - 1];\r\n                // \r\n                classIds.pop();\r\n                break;\r\n            }\r\n        }\r\n    }\r\n\r\n    // ID\r\n    function setCourseId(uint256 courseId) public {\r\n        courses[courseId].id = courseId;\r\n        courseIds.push(courseId);\r\n    }\r\n\r\n    // \r\n    function removeCourse(uint256 courseId) public {\r\n        //  classIds  ID\r\n        for (uint256 i = 0; i < courseIds.length; i++) {\r\n            if (courseIds[i] == courseId) {\r\n                //  ID \r\n                courseIds[i] = courseIds[courseIds.length - 1];\r\n                // \r\n                courseIds.pop();\r\n                break;\r\n            }\r\n        }\r\n    }\r\n\r\n    // \r\n    function setCourseName(uint256 courseId, string calldata _name) public {\r\n        courses[courseId].name = _name;\r\n    }\r\n\r\n    // \r\n    function setCourseImportance(uint256 courseId, uint256 _importance) public {\r\n        courses[courseId].importance = _importance;\r\n    }\r\n\r\n    // \r\n    function setAllCourseImportance(uint256[] memory _importances) public {\r\n        require(\r\n            _importances.length == courseIds.length,\r\n            \"must update all course suitability\"\r\n        );\r\n        // \r\n        for (\r\n            uint256 courseIndex = 0;\r\n            courseIndex < courseIds.length;\r\n            courseIndex++\r\n        ) {\r\n            courses[courseIds[courseIndex]].importance = _importances[\r\n                courseIndex\r\n            ];\r\n        }\r\n    }\r\n\r\n    // ID\r\n    function addCourseAssignedTeacherId(\r\n        uint256 courseId,\r\n        uint256 _teacherId\r\n    ) public {\r\n        courses[courseId].assignedTeacherId.push(_teacherId);\r\n    }\r\n\r\n    // ID\r\n    function addCourseAssignedAgentId(\r\n        uint256 courseId,\r\n        uint256 _agentId\r\n    ) public {\r\n        courses[courseId].assignedAgentId.push(_agentId);\r\n    }\r\n\r\n    // \r\n    function removeCourseAssignedTeacherId(\r\n        uint256 courseId,\r\n        uint256 _teacherId\r\n    ) public {\r\n        bool found = false;\r\n        uint256 indexToRemove;\r\n\r\n        //  ID \r\n        for (\r\n            uint256 i = 0;\r\n            i < courses[courseId].assignedTeacherId.length;\r\n            i++\r\n        ) {\r\n            if (courses[courseId].assignedTeacherId[i] == _teacherId) {\r\n                found = true;\r\n                indexToRemove = i;\r\n                break;\r\n            }\r\n        }\r\n\r\n        //  ID\r\n        if (found) {\r\n            // \r\n            courses[courseId].assignedTeacherId[indexToRemove] = courses[\r\n                courseId\r\n            ].assignedTeacherId[courses[courseId].assignedTeacherId.length - 1];\r\n            // \r\n            courses[courseId].assignedTeacherId.pop();\r\n        } else {\r\n            //  ID\r\n            revert(\"Course not found\");\r\n        }\r\n    }\r\n\r\n    // \r\n    function removeCourseAssignedAgentId(\r\n        uint256 courseId,\r\n        uint256 _agentId\r\n    ) public {\r\n        bool found = false;\r\n        uint256 indexToRemove;\r\n\r\n        //  ID \r\n        for (uint256 i = 0; i < courses[courseId].assignedAgentId.length; i++) {\r\n            if (courses[courseId].assignedAgentId[i] == _agentId) {\r\n                found = true;\r\n                indexToRemove = i;\r\n                break;\r\n            }\r\n        }\r\n\r\n        //  ID\r\n        if (found) {\r\n            // \r\n            courses[courseId].assignedAgentId[indexToRemove] = courses[courseId]\r\n                .assignedAgentId[courses[courseId].assignedAgentId.length - 1];\r\n            // \r\n            courses[courseId].assignedAgentId.pop();\r\n        } else {\r\n            //  ID\r\n            revert(\"Course not found\");\r\n        }\r\n    }\r\n\r\n    // \r\n    function setCourseIsAgentSuitable(\r\n        uint256 courseId,\r\n        bool _isAgentSuitable\r\n    ) public {\r\n        courses[courseId].isAgentSuitable = _isAgentSuitable;\r\n    }\r\n\r\n    // \r\n    function setTeacherCount(uint256 _teacherCount) public {\r\n        teacherCount = _teacherCount;\r\n    }\r\n\r\n    // \r\n    function setAgentCount(uint256 _agentCount) public {\r\n        agentCount = _agentCount;\r\n    }\r\n\r\n    // \r\n    function setClassCount(uint256 _classCount) public {\r\n        classCount = _classCount;\r\n    }\r\n\r\n    // \r\n    function setCourseCount(uint256 _courseCount) public {\r\n        courseCount = _courseCount;\r\n    }\r\n\r\n    // \r\n    function getTeacherSuitability(\r\n        uint256 _teacherId,\r\n        uint256 courseId\r\n    ) public view returns (uint256) {\r\n        return teachers[_teacherId].courseSuitabilities[courseId];\r\n    }\r\n\r\n    // \r\n    function getAgentSuitability(\r\n        uint256 _agentId,\r\n        uint256 courseId\r\n    ) public view returns (uint256) {\r\n        return agents[_agentId].courseSuitabilities[courseId];\r\n    }\r\n\r\n    // \r\n    function getPreference(\r\n        uint256 _teacherId,\r\n        uint256 courseId\r\n    ) public view returns (uint256) {\r\n        return teachers[_teacherId].coursePreferences[courseId];\r\n    }\r\n\r\n    // \r\n    function getTeacherAssignedCourses(\r\n        uint256 _teacherId\r\n    ) public view returns (uint256[] memory) {\r\n        return teachers[_teacherId].assignedCourses;\r\n    }\r\n\r\n    // \r\n    function getTeacherReallyAssignedCourses(\r\n        uint256 _teacherId\r\n    ) public view returns (uint256[] memory) {\r\n        return teachers[_teacherId].reallyAssignedCourses;\r\n    }\r\n\r\n    // \r\n    function getAgentAssignedCourses(\r\n        uint256 _agentId\r\n    ) public view returns (uint256[] memory) {\r\n        return agents[_agentId].assignedCourses;\r\n    }\r\n\r\n    // \r\n    function getCoursesAssignedTeacher(\r\n        uint256 _courseId\r\n    ) public view returns (uint256[] memory) {\r\n        return courses[_courseId].assignedTeacherId;\r\n    }\r\n\r\n    // \r\n    function getCoursesAssignedAgent(\r\n        uint256 _courseId\r\n    ) public view returns (uint256[] memory) {\r\n        return courses[_courseId].assignedAgentId;\r\n    }\r\n\r\n    // \r\n    function getCourseImportance(uint courseId) external view returns (uint) {\r\n        return courses[courseId].importance;\r\n    }\r\n\r\n    // \r\n    function getCourseIsAgentSuitable(\r\n        uint courseId\r\n    ) external view returns (bool) {\r\n        return courses[courseId].isAgentSuitable;\r\n    }\r\n\r\n    function getTeacherIds() public view returns (uint256[] memory) {\r\n        return teacherIds;\r\n    }\r\n\r\n    function getAgentIds() public view returns (uint256[] memory) {\r\n        return agentIds;\r\n    }\r\n\r\n    function getCourseIds() public view returns (uint256[] memory) {\r\n        return courseIds;\r\n    }\r\n\r\n    function getClassIds() public view returns (uint256[] memory) {\r\n        return classIds;\r\n    }\r\n\r\n    function addCourseClassScores(\r\n        uint256 courseId,\r\n        uint256 classId,\r\n        uint256 score\r\n    ) public {\r\n        require(\r\n            courseScores[courseId].giveScoreClassIdExists[classId] == 0,\r\n            unicode\"\"\r\n        );\r\n        courseScores[courseId].giveScoreClassIdExists[classId] = score;\r\n        courseScores[courseId].classScores.push(score);\r\n    }\r\n\r\n    function getGiveScoreClassIdExists(\r\n        uint256 courseId,\r\n        uint256 classId\r\n    ) public view returns (uint256) {\r\n        return courseScores[courseId].giveScoreClassIdExists[classId];\r\n    }\r\n\r\n    // \r\n    function removeCourseClassScores(\r\n        uint256 courseId,\r\n        uint256[] memory classIds_\r\n    ) public {\r\n        for (uint256 i = 0; i < classIds_.length; i++) {\r\n            courseScores[courseId].giveScoreClassIdExists[classIds_[i]] = 0;\r\n        }\r\n        delete courseScores[courseId].classScores;\r\n    }\r\n\r\n    function getCourseClassScores(\r\n        uint256 courseId\r\n    ) public view returns (uint256[] memory) {\r\n        return courseScores[courseId].classScores;\r\n    }\r\n\r\n    function addTeacherScores(\r\n        uint256 courseId,\r\n        uint256 teacherId,\r\n        uint256 score\r\n    ) public {\r\n        require(\r\n            courseScores[courseId].giveScoreTeacherIdExists[teacherId] == 0,\r\n            unicode\"\"\r\n        );\r\n        courseScores[courseId].giveScoreTeacherIdExists[teacherId] = score;\r\n        courseScores[courseId].teacherScores.push(score);\r\n    }\r\n\r\n    function removeTeacherScores(\r\n        uint256 courseId,\r\n        uint256[] memory teacherIds_\r\n    ) public {\r\n        for (uint256 i = 0; i < teacherIds_.length; i++) {\r\n            courseScores[courseId].giveScoreTeacherIdExists[teacherIds_[i]] = 0;\r\n        }\r\n        delete courseScores[courseId].teacherScores;\r\n    }\r\n\r\n    function getTeacherScores(uint256 courseId) public view returns (uint256[] memory) {\r\n        return courseScores[courseId].teacherScores;\r\n    }\r\n\r\n    function getGiveScoreTeacherIdExists(\r\n        uint256 courseId,\r\n        uint256 teacherId \r\n    ) public view returns (uint256) {\r\n        return courseScores[courseId].giveScoreTeacherIdExists[teacherId]; \r\n    }\r\n\r\n    function setCourseTotalScore(uint256 courseId, uint256 score) public {\r\n        courseScores[courseId].totalScore = score;\r\n    }\r\n\r\n    function addCourseSupervisorScores(\r\n        uint256 courseId,\r\n        uint256 supervisorId,\r\n        uint256 score\r\n    ) public {\r\n        require(\r\n            courseScores[courseId].giveScoreSupervisorIdExists[supervisorId] ==\r\n                0,\r\n            unicode\"\"\r\n        );\r\n        courseScores[courseId].giveScoreSupervisorIdExists[\r\n            supervisorId\r\n        ] = score;\r\n        courseScores[courseId].supervisorScores.push(score);\r\n    }\r\n\r\n    function removeCourseSupervisorScores(\r\n        uint256 courseId,\r\n        uint256[] memory supervisorIds_ \r\n    ) public {\r\n        for (uint256 i = 0; i < supervisorIds_.length; i++) {\r\n            courseScores[courseId].giveScoreSupervisorIdExists[supervisorIds_[i]] = 0;\r\n        }\r\n        delete courseScores[courseId].supervisorScores;\r\n    }\r\n\r\n    function getGiveScoreSupervisorIdExists(\r\n        uint256 courseId,\r\n        uint256 supervisorId\r\n    ) public view returns (uint256) {\r\n        return courseScores[courseId].giveScoreSupervisorIdExists[supervisorId];\r\n    }\r\n\r\n    function getCourseSupervisorScores(\r\n        uint256 courseId\r\n    ) public view returns (uint256[] memory) {\r\n        return courseScores[courseId].supervisorScores;\r\n    }\r\n\r\n    function addSupervisorId(uint256 supervisorId) public {\r\n        supervisorIds.push(supervisorId);\r\n        supervisorCount++;\r\n    }\r\n\r\n    function getSupervisorIds() public view returns (uint256[] memory) {\r\n        return supervisorIds;\r\n    }\r\n\r\n    function setSupervisorId(address supervisor, uint256 supervisorId) public {\r\n        addressToSupervisorId[supervisor] = supervisorId;\r\n        supervisors[supervisorId].id = supervisorId;\r\n        supervisors[supervisorId].addr = supervisor;\r\n    }\r\n\r\n    function setSupervisorName(\r\n        uint256 supervisorId,\r\n        string calldata _name\r\n    ) public {\r\n        supervisors[supervisorId].name = _name;\r\n    }\r\n\r\n    function setSupervisorsCourseScore(\r\n        uint256 supervisorId,\r\n        uint256 courseId,\r\n        uint256 score\r\n    ) public {\r\n        supervisors[supervisorId].courseScores[courseId] = score;\r\n    }\r\n\r\n    function settransferCourseNumbers(uint256 _transferCourseNumbers) public {\r\n        transferCourseNumbers = _transferCourseNumbers;\r\n    }\r\n\r\n    function settransferCourseStartTime(\r\n        uint256 _transferCourseStartTime\r\n    ) public {\r\n        transferCourseStartTime = _transferCourseStartTime;\r\n    }\r\n\r\n    function settransferCourseEndTime(uint256 _transferCourseEndTime) public {\r\n        transferCourseEndTime = _transferCourseEndTime;\r\n    }\r\n}\r\n",
  "sourcePath": "D:\\vscode\\\\course\\project\\contracts\\ICourseAllocation.sol",
  "compiler": {
    "name": "solc",
    "version": "0.8.7+commit.e28d00a7.Emscripten.clang"
  },
  "schemaVersion": "3.4.16",
  "updatedAt": "2025-04-10T12:55:26.607Z",
  "networkType": "ethereum",
  "devdoc": {
    "kind": "dev",
    "methods": {},
    "version": 1
  },
  "userdoc": {
    "kind": "user",
    "methods": {},
    "version": 1
  }
}