{
  "contractName": "ICourseAllocation",
  "abi": [
    {
      "inputs": [],
      "stateMutability": "nonpayable",
      "type": "constructor"
    },
    {
      "inputs": [],
      "name": "ScoreTypeChioce",
      "outputs": [
        {
          "internalType": "string",
          "name": "",
          "type": "string"
        }
      ],
      "stateMutability": "view",
      "type": "function",
      "constant": true
    },
    {
      "inputs": [
        {
          "internalType": "address",
          "name": "",
          "type": "address"
        }
      ],
      "name": "addressToAgentId",
      "outputs": [
        {
          "internalType": "uint256",
          "name": "",
          "type": "uint256"
        }
      ],
      "stateMutability": "view",
      "type": "function",
      "constant": true
    },
    {
      "inputs": [
        {
          "internalType": "address",
          "name": "",
          "type": "address"
        }
      ],
      "name": "addressToClassId",
      "outputs": [
        {
          "internalType": "uint256",
          "name": "",
          "type": "uint256"
        }
      ],
      "stateMutability": "view",
      "type": "function",
      "constant": true
    },
    {
      "inputs": [
        {
          "internalType": "address",
          "name": "",
          "type": "address"
        }
      ],
      "name": "addressToSupervisorId",
      "outputs": [
        {
          "internalType": "uint256",
          "name": "",
          "type": "uint256"
        }
      ],
      "stateMutability": "view",
      "type": "function",
      "constant": true
    },
    {
      "inputs": [
        {
          "internalType": "address",
          "name": "",
          "type": "address"
        }
      ],
      "name": "addressToTeacherId",
      "outputs": [
        {
          "internalType": "uint256",
          "name": "",
          "type": "uint256"
        }
      ],
      "stateMutability": "view",
      "type": "function",
      "constant": true
    },
    {
      "inputs": [],
      "name": "agentCount",
      "outputs": [
        {
          "internalType": "uint256",
          "name": "",
          "type": "uint256"
        }
      ],
      "stateMutability": "view",
      "type": "function",
      "constant": true
    },
    {
      "inputs": [
        {
          "internalType": "uint256",
          "name": "",
          "type": "uint256"
        }
      ],
      "name": "agentIds",
      "outputs": [
        {
          "internalType": "uint256",
          "name": "",
          "type": "uint256"
        }
      ],
      "stateMutability": "view",
      "type": "function",
      "constant": true
    },
    {
      "inputs": [
        {
          "internalType": "uint256",
          "name": "",
          "type": "uint256"
        }
      ],
      "name": "agents",
      "outputs": [
        {
          "internalType": "uint256",
          "name": "id",
          "type": "uint256"
        },
        {
          "internalType": "string",
          "name": "name",
          "type": "string"
        },
        {
          "internalType": "address",
          "name": "addr",
          "type": "address"
        },
        {
          "internalType": "uint256",
          "name": "value",
          "type": "uint256"
        }
      ],
      "stateMutability": "view",
      "type": "function",
      "constant": true
    },
    {
      "inputs": [],
      "name": "classCount",
      "outputs": [
        {
          "internalType": "uint256",
          "name": "",
          "type": "uint256"
        }
      ],
      "stateMutability": "view",
      "type": "function",
      "constant": true
    },
    {
      "inputs": [
        {
          "internalType": "uint256",
          "name": "",
          "type": "uint256"
        }
      ],
      "name": "classIds",
      "outputs": [
        {
          "internalType": "uint256",
          "name": "",
          "type": "uint256"
        }
      ],
      "stateMutability": "view",
      "type": "function",
      "constant": true
    },
    {
      "inputs": [],
      "name": "courseCount",
      "outputs": [
        {
          "internalType": "uint256",
          "name": "",
          "type": "uint256"
        }
      ],
      "stateMutability": "view",
      "type": "function",
      "constant": true
    },
    {
      "inputs": [
        {
          "internalType": "uint256",
          "name": "",
          "type": "uint256"
        }
      ],
      "name": "courseIds",
      "outputs": [
        {
          "internalType": "uint256",
          "name": "",
          "type": "uint256"
        }
      ],
      "stateMutability": "view",
      "type": "function",
      "constant": true
    },
    {
      "inputs": [
        {
          "internalType": "uint256",
          "name": "",
          "type": "uint256"
        }
      ],
      "name": "courseScores",
      "outputs": [
        {
          "internalType": "uint256",
          "name": "id",
          "type": "uint256"
        },
        {
          "internalType": "uint256",
          "name": "totalScore",
          "type": "uint256"
        }
      ],
      "stateMutability": "view",
      "type": "function",
      "constant": true
    },
    {
      "inputs": [
        {
          "internalType": "uint256",
          "name": "",
          "type": "uint256"
        }
      ],
      "name": "courses",
      "outputs": [
        {
          "internalType": "uint256",
          "name": "id",
          "type": "uint256"
        },
        {
          "internalType": "string",
          "name": "name",
          "type": "string"
        },
        {
          "internalType": "uint256",
          "name": "importance",
          "type": "uint256"
        }
      ],
      "stateMutability": "view",
      "type": "function",
      "constant": true
    },
    {
      "inputs": [],
      "name": "supervisorCount",
      "outputs": [
        {
          "internalType": "uint256",
          "name": "",
          "type": "uint256"
        }
      ],
      "stateMutability": "view",
      "type": "function",
      "constant": true
    },
    {
      "inputs": [
        {
          "internalType": "uint256",
          "name": "",
          "type": "uint256"
        }
      ],
      "name": "supervisorIds",
      "outputs": [
        {
          "internalType": "uint256",
          "name": "",
          "type": "uint256"
        }
      ],
      "stateMutability": "view",
      "type": "function",
      "constant": true
    },
    {
      "inputs": [
        {
          "internalType": "uint256",
          "name": "",
          "type": "uint256"
        }
      ],
      "name": "supervisors",
      "outputs": [
        {
          "internalType": "uint256",
          "name": "id",
          "type": "uint256"
        },
        {
          "internalType": "string",
          "name": "name",
          "type": "string"
        },
        {
          "internalType": "address",
          "name": "addr",
          "type": "address"
        }
      ],
      "stateMutability": "view",
      "type": "function",
      "constant": true
    },
    {
      "inputs": [],
      "name": "teacherCount",
      "outputs": [
        {
          "internalType": "uint256",
          "name": "",
          "type": "uint256"
        }
      ],
      "stateMutability": "view",
      "type": "function",
      "constant": true
    },
    {
      "inputs": [
        {
          "internalType": "uint256",
          "name": "",
          "type": "uint256"
        }
      ],
      "name": "teacherIds",
      "outputs": [
        {
          "internalType": "uint256",
          "name": "",
          "type": "uint256"
        }
      ],
      "stateMutability": "view",
      "type": "function",
      "constant": true
    },
    {
      "inputs": [
        {
          "internalType": "uint256",
          "name": "",
          "type": "uint256"
        }
      ],
      "name": "teachers",
      "outputs": [
        {
          "internalType": "uint256",
          "name": "id",
          "type": "uint256"
        },
        {
          "internalType": "string",
          "name": "name",
          "type": "string"
        },
        {
          "internalType": "address",
          "name": "addr",
          "type": "address"
        },
        {
          "internalType": "uint256",
          "name": "suitabilityWeight",
          "type": "uint256"
        },
        {
          "internalType": "uint256",
          "name": "transferCourseCoins",
          "type": "uint256"
        },
        {
          "internalType": "uint256",
          "name": "value",
          "type": "uint256"
        }
      ],
      "stateMutability": "view",
      "type": "function",
      "constant": true
    },
    {
      "inputs": [],
      "name": "totalWeight",
      "outputs": [
        {
          "internalType": "uint256",
          "name": "",
          "type": "uint256"
        }
      ],
      "stateMutability": "view",
      "type": "function",
      "constant": true
    },
    {
      "inputs": [],
      "name": "transferCourseEndTime",
      "outputs": [
        {
          "internalType": "uint256",
          "name": "",
          "type": "uint256"
        }
      ],
      "stateMutability": "view",
      "type": "function",
      "constant": true
    },
    {
      "inputs": [],
      "name": "transferCourseNumbers",
      "outputs": [
        {
          "internalType": "uint256",
          "name": "",
          "type": "uint256"
        }
      ],
      "stateMutability": "view",
      "type": "function",
      "constant": true
    },
    {
      "inputs": [],
      "name": "transferCourseStartTime",
      "outputs": [
        {
          "internalType": "uint256",
          "name": "",
          "type": "uint256"
        }
      ],
      "stateMutability": "view",
      "type": "function",
      "constant": true
    },
    {
      "inputs": [
        {
          "internalType": "address",
          "name": "teacherAddress",
          "type": "address"
        },
        {
          "internalType": "uint256",
          "name": "_TeacherId",
          "type": "uint256"
        }
      ],
      "name": "setTeacherId",
      "outputs": [],
      "stateMutability": "nonpayable",
      "type": "function"
    },
    {
      "inputs": [
        {
          "internalType": "uint256",
          "name": "teacherId",
          "type": "uint256"
        }
      ],
      "name": "removeTeacher",
      "outputs": [],
      "stateMutability": "nonpayable",
      "type": "function"
    },
    {
      "inputs": [
        {
          "internalType": "uint256",
          "name": "teacherId",
          "type": "uint256"
        },
        {
          "internalType": "string",
          "name": "_name",
          "type": "string"
        }
      ],
      "name": "setTeacherName",
      "outputs": [],
      "stateMutability": "nonpayable",
      "type": "function"
    },
    {
      "inputs": [
        {
          "internalType": "uint256",
          "name": "teacherId",
          "type": "uint256"
        },
        {
          "internalType": "address",
          "name": "_teacherAddress",
          "type": "address"
        }
      ],
      "name": "setTeacherAddress",
      "outputs": [],
      "stateMutability": "nonpayable",
      "type": "function"
    },
    {
      "inputs": [
        {
          "internalType": "uint256",
          "name": "teacherId",
          "type": "uint256"
        },
        {
          "internalType": "uint256",
          "name": "_assignedCourses",
          "type": "uint256"
        }
      ],
      "name": "addTeacherAssignedCourses",
      "outputs": [],
      "stateMutability": "nonpayable",
      "type": "function"
    },
    {
      "inputs": [
        {
          "internalType": "uint256",
          "name": "teacherId",
          "type": "uint256"
        },
        {
          "internalType": "string",
          "name": "_researchDirection",
          "type": "string"
        }
      ],
      "name": "addTeacherResearchDirection",
      "outputs": [],
      "stateMutability": "nonpayable",
      "type": "function"
    },
    {
      "inputs": [
        {
          "internalType": "uint256",
          "name": "teacherId",
          "type": "uint256"
        },
        {
          "internalType": "uint256",
          "name": "_paperCount",
          "type": "uint256"
        }
      ],
      "name": "addTeacherPaperCount",
      "outputs": [],
      "stateMutability": "nonpayable",
      "type": "function"
    },
    {
      "inputs": [
        {
          "internalType": "uint256",
          "name": "teacherId",
          "type": "uint256"
        },
        {
          "internalType": "uint256",
          "name": "_assignedCourses",
          "type": "uint256"
        }
      ],
      "name": "addTeacherReallyAssignedCourses",
      "outputs": [],
      "stateMutability": "nonpayable",
      "type": "function"
    },
    {
      "inputs": [
        {
          "internalType": "uint256",
          "name": "teacherId",
          "type": "uint256"
        },
        {
          "internalType": "uint256",
          "name": "_assignedCourses",
          "type": "uint256"
        }
      ],
      "name": "removeTeacherAssignedCourses",
      "outputs": [],
      "stateMutability": "nonpayable",
      "type": "function"
    },
    {
      "inputs": [
        {
          "internalType": "uint256",
          "name": "teacherId",
          "type": "uint256"
        },
        {
          "internalType": "string",
          "name": "_researchDirection",
          "type": "string"
        }
      ],
      "name": "removeTeacherResearchDirection",
      "outputs": [],
      "stateMutability": "nonpayable",
      "type": "function"
    },
    {
      "inputs": [
        {
          "internalType": "uint256",
          "name": "teacherId",
          "type": "uint256"
        },
        {
          "internalType": "uint256",
          "name": "index",
          "type": "uint256"
        },
        {
          "internalType": "string",
          "name": "inputString",
          "type": "string"
        }
      ],
      "name": "compareStrings",
      "outputs": [
        {
          "internalType": "bool",
          "name": "",
          "type": "bool"
        }
      ],
      "stateMutability": "view",
      "type": "function",
      "constant": true
    },
    {
      "inputs": [
        {
          "internalType": "uint256",
          "name": "teacherId",
          "type": "uint256"
        },
        {
          "internalType": "uint256",
          "name": "_assignedCourses",
          "type": "uint256"
        }
      ],
      "name": "removeTeacherReallyAssignedCourses",
      "outputs": [],
      "stateMutability": "nonpayable",
      "type": "function"
    },
    {
      "inputs": [
        {
          "internalType": "uint256",
          "name": "teacherId",
          "type": "uint256"
        },
        {
          "internalType": "uint256",
          "name": "_suitabilityWeight",
          "type": "uint256"
        }
      ],
      "name": "setTeacherSuitabilityWeight",
      "outputs": [],
      "stateMutability": "nonpayable",
      "type": "function"
    },
    {
      "inputs": [
        {
          "internalType": "uint256",
          "name": "teacherId",
          "type": "uint256"
        },
        {
          "internalType": "uint256",
          "name": "_transferCourseCoins",
          "type": "uint256"
        }
      ],
      "name": "setTeacherTransferCourseCoins",
      "outputs": [],
      "stateMutability": "nonpayable",
      "type": "function"
    },
    {
      "inputs": [
        {
          "internalType": "uint256",
          "name": "teacherId",
          "type": "uint256"
        },
        {
          "internalType": "uint256",
          "name": "_value",
          "type": "uint256"
        }
      ],
      "name": "setTeacherValue",
      "outputs": [],
      "stateMutability": "nonpayable",
      "type": "function"
    },
    {
      "inputs": [
        {
          "internalType": "uint256",
          "name": "agentId",
          "type": "uint256"
        },
        {
          "internalType": "uint256",
          "name": "_value",
          "type": "uint256"
        }
      ],
      "name": "setAgentValue",
      "outputs": [],
      "stateMutability": "nonpayable",
      "type": "function"
    },
    {
      "inputs": [
        {
          "internalType": "uint256",
          "name": "teacherId",
          "type": "uint256"
        },
        {
          "internalType": "uint256[]",
          "name": "_suitabilities",
          "type": "uint256[]"
        }
      ],
      "name": "setAllTeacherCourseSuitability",
      "outputs": [],
      "stateMutability": "nonpayable",
      "type": "function"
    },
    {
      "inputs": [
        {
          "internalType": "uint256",
          "name": "teacherId",
          "type": "uint256"
        },
        {
          "internalType": "uint256",
          "name": "courseId",
          "type": "uint256"
        },
        {
          "internalType": "uint256",
          "name": "_suitability",
          "type": "uint256"
        }
      ],
      "name": "setTeacherCourseSuitability",
      "outputs": [],
      "stateMutability": "nonpayable",
      "type": "function"
    },
    {
      "inputs": [
        {
          "internalType": "uint256",
          "name": "teacherId",
          "type": "uint256"
        },
        {
          "internalType": "uint256[]",
          "name": "_preferences",
          "type": "uint256[]"
        }
      ],
      "name": "setAllTeacherCoursePreferences",
      "outputs": [],
      "stateMutability": "nonpayable",
      "type": "function"
    },
    {
      "inputs": [
        {
          "internalType": "uint256",
          "name": "teacherId",
          "type": "uint256"
        },
        {
          "internalType": "uint256",
          "name": "courseId",
          "type": "uint256"
        },
        {
          "internalType": "uint256",
          "name": "_preference",
          "type": "uint256"
        }
      ],
      "name": "setTeacherCoursePreferences",
      "outputs": [],
      "stateMutability": "nonpayable",
      "type": "function"
    },
    {
      "inputs": [
        {
          "internalType": "address",
          "name": "agentAddress",
          "type": "address"
        },
        {
          "internalType": "uint256",
          "name": "_agentId",
          "type": "uint256"
        }
      ],
      "name": "setAgentId",
      "outputs": [],
      "stateMutability": "nonpayable",
      "type": "function"
    },
    {
      "inputs": [
        {
          "internalType": "uint256",
          "name": "agentId",
          "type": "uint256"
        }
      ],
      "name": "removeAgent",
      "outputs": [],
      "stateMutability": "nonpayable",
      "type": "function"
    },
    {
      "inputs": [
        {
          "internalType": "uint256",
          "name": "agentId",
          "type": "uint256"
        },
        {
          "internalType": "string",
          "name": "_name",
          "type": "string"
        }
      ],
      "name": "setAgentName",
      "outputs": [],
      "stateMutability": "nonpayable",
      "type": "function"
    },
    {
      "inputs": [
        {
          "internalType": "uint256",
          "name": "agentId",
          "type": "uint256"
        },
        {
          "internalType": "address",
          "name": "_agentAddress",
          "type": "address"
        }
      ],
      "name": "setAgentAddress",
      "outputs": [],
      "stateMutability": "nonpayable",
      "type": "function"
    },
    {
      "inputs": [
        {
          "internalType": "uint256",
          "name": "agentId",
          "type": "uint256"
        },
        {
          "internalType": "uint256",
          "name": "_assignedCourses",
          "type": "uint256"
        }
      ],
      "name": "addAgentAssignedCourses",
      "outputs": [],
      "stateMutability": "nonpayable",
      "type": "function"
    },
    {
      "inputs": [
        {
          "internalType": "uint256",
          "name": "agentId",
          "type": "uint256"
        },
        {
          "internalType": "uint256",
          "name": "_assignedCourses",
          "type": "uint256"
        }
      ],
      "name": "removeAgentAssignedCourses",
      "outputs": [],
      "stateMutability": "nonpayable",
      "type": "function"
    },
    {
      "inputs": [
        {
          "internalType": "uint256",
          "name": "agentId",
          "type": "uint256"
        },
        {
          "internalType": "uint256",
          "name": "_courseId",
          "type": "uint256"
        },
        {
          "internalType": "uint256",
          "name": "_suitability",
          "type": "uint256"
        }
      ],
      "name": "setAgentCourseSuitability",
      "outputs": [],
      "stateMutability": "nonpayable",
      "type": "function"
    },
    {
      "inputs": [
        {
          "internalType": "uint256",
          "name": "agentId",
          "type": "uint256"
        },
        {
          "internalType": "uint256[]",
          "name": "_suitabilities",
          "type": "uint256[]"
        }
      ],
      "name": "setAllAgentCourseSuitability",
      "outputs": [],
      "stateMutability": "nonpayable",
      "type": "function"
    },
    {
      "inputs": [
        {
          "internalType": "address",
          "name": "classAddress",
          "type": "address"
        },
        {
          "internalType": "uint256",
          "name": "_id",
          "type": "uint256"
        }
      ],
      "name": "setClassId",
      "outputs": [],
      "stateMutability": "nonpayable",
      "type": "function"
    },
    {
      "inputs": [
        {
          "internalType": "uint256",
          "name": "classId",
          "type": "uint256"
        }
      ],
      "name": "removeClass",
      "outputs": [],
      "stateMutability": "nonpayable",
      "type": "function"
    },
    {
      "inputs": [
        {
          "internalType": "uint256",
          "name": "courseId",
          "type": "uint256"
        }
      ],
      "name": "setCourseId",
      "outputs": [],
      "stateMutability": "nonpayable",
      "type": "function"
    },
    {
      "inputs": [
        {
          "internalType": "uint256",
          "name": "courseId",
          "type": "uint256"
        }
      ],
      "name": "removeCourse",
      "outputs": [],
      "stateMutability": "nonpayable",
      "type": "function"
    },
    {
      "inputs": [
        {
          "internalType": "uint256",
          "name": "courseId",
          "type": "uint256"
        },
        {
          "internalType": "string",
          "name": "_name",
          "type": "string"
        }
      ],
      "name": "setCourseName",
      "outputs": [],
      "stateMutability": "nonpayable",
      "type": "function"
    },
    {
      "inputs": [
        {
          "internalType": "uint256",
          "name": "courseId",
          "type": "uint256"
        },
        {
          "internalType": "uint256",
          "name": "_importance",
          "type": "uint256"
        }
      ],
      "name": "setCourseImportance",
      "outputs": [],
      "stateMutability": "nonpayable",
      "type": "function"
    },
    {
      "inputs": [
        {
          "internalType": "uint256[]",
          "name": "_importances",
          "type": "uint256[]"
        }
      ],
      "name": "setAllCourseImportance",
      "outputs": [],
      "stateMutability": "nonpayable",
      "type": "function"
    },
    {
      "inputs": [
        {
          "internalType": "uint256",
          "name": "courseId",
          "type": "uint256"
        },
        {
          "internalType": "uint256",
          "name": "_teacherId",
          "type": "uint256"
        }
      ],
      "name": "addCourseAssignedTeacherId",
      "outputs": [],
      "stateMutability": "nonpayable",
      "type": "function"
    },
    {
      "inputs": [
        {
          "internalType": "uint256",
          "name": "courseId",
          "type": "uint256"
        },
        {
          "internalType": "uint256",
          "name": "_agentId",
          "type": "uint256"
        }
      ],
      "name": "addCourseAssignedAgentId",
      "outputs": [],
      "stateMutability": "nonpayable",
      "type": "function"
    },
    {
      "inputs": [
        {
          "internalType": "uint256",
          "name": "courseId",
          "type": "uint256"
        },
        {
          "internalType": "uint256",
          "name": "_teacherId",
          "type": "uint256"
        }
      ],
      "name": "removeCourseAssignedTeacherId",
      "outputs": [],
      "stateMutability": "nonpayable",
      "type": "function"
    },
    {
      "inputs": [
        {
          "internalType": "uint256",
          "name": "courseId",
          "type": "uint256"
        },
        {
          "internalType": "uint256",
          "name": "_agentId",
          "type": "uint256"
        }
      ],
      "name": "removeCourseAssignedAgentId",
      "outputs": [],
      "stateMutability": "nonpayable",
      "type": "function"
    },
    {
      "inputs": [
        {
          "internalType": "uint256",
          "name": "_teacherCount",
          "type": "uint256"
        }
      ],
      "name": "setTeacherCount",
      "outputs": [],
      "stateMutability": "nonpayable",
      "type": "function"
    },
    {
      "inputs": [
        {
          "internalType": "uint256",
          "name": "_agentCount",
          "type": "uint256"
        }
      ],
      "name": "setAgentCount",
      "outputs": [],
      "stateMutability": "nonpayable",
      "type": "function"
    },
    {
      "inputs": [
        {
          "internalType": "uint256",
          "name": "_classCount",
          "type": "uint256"
        }
      ],
      "name": "setClassCount",
      "outputs": [],
      "stateMutability": "nonpayable",
      "type": "function"
    },
    {
      "inputs": [
        {
          "internalType": "uint256",
          "name": "_courseCount",
          "type": "uint256"
        }
      ],
      "name": "setCourseCount",
      "outputs": [],
      "stateMutability": "nonpayable",
      "type": "function"
    },
    {
      "inputs": [
        {
          "internalType": "uint256",
          "name": "_teacherId",
          "type": "uint256"
        },
        {
          "internalType": "uint256",
          "name": "courseId",
          "type": "uint256"
        }
      ],
      "name": "getTeacherSuitability",
      "outputs": [
        {
          "internalType": "uint256",
          "name": "",
          "type": "uint256"
        }
      ],
      "stateMutability": "view",
      "type": "function",
      "constant": true
    },
    {
      "inputs": [
        {
          "internalType": "uint256",
          "name": "_agentId",
          "type": "uint256"
        },
        {
          "internalType": "uint256",
          "name": "courseId",
          "type": "uint256"
        }
      ],
      "name": "getAgentSuitability",
      "outputs": [
        {
          "internalType": "uint256",
          "name": "",
          "type": "uint256"
        }
      ],
      "stateMutability": "view",
      "type": "function",
      "constant": true
    },
    {
      "inputs": [
        {
          "internalType": "uint256",
          "name": "_teacherId",
          "type": "uint256"
        },
        {
          "internalType": "uint256",
          "name": "courseId",
          "type": "uint256"
        }
      ],
      "name": "getPreference",
      "outputs": [
        {
          "internalType": "uint256",
          "name": "",
          "type": "uint256"
        }
      ],
      "stateMutability": "view",
      "type": "function",
      "constant": true
    },
    {
      "inputs": [
        {
          "internalType": "uint256",
          "name": "_teacherId",
          "type": "uint256"
        }
      ],
      "name": "getTeacherAssignedCourses",
      "outputs": [
        {
          "internalType": "uint256[]",
          "name": "",
          "type": "uint256[]"
        }
      ],
      "stateMutability": "view",
      "type": "function",
      "constant": true
    },
    {
      "inputs": [
        {
          "internalType": "uint256",
          "name": "_teacherId",
          "type": "uint256"
        }
      ],
      "name": "getTeacherReallyAssignedCourses",
      "outputs": [
        {
          "internalType": "uint256[]",
          "name": "",
          "type": "uint256[]"
        }
      ],
      "stateMutability": "view",
      "type": "function",
      "constant": true
    },
    {
      "inputs": [
        {
          "internalType": "uint256",
          "name": "_teacherId",
          "type": "uint256"
        }
      ],
      "name": "getTeacherResearchDirection",
      "outputs": [
        {
          "internalType": "string[]",
          "name": "",
          "type": "string[]"
        }
      ],
      "stateMutability": "view",
      "type": "function",
      "constant": true
    },
    {
      "inputs": [
        {
          "internalType": "uint256",
          "name": "_teacherId",
          "type": "uint256"
        }
      ],
      "name": "getTeacherPaperCount",
      "outputs": [
        {
          "internalType": "uint256[]",
          "name": "",
          "type": "uint256[]"
        }
      ],
      "stateMutability": "view",
      "type": "function",
      "constant": true
    },
    {
      "inputs": [
        {
          "internalType": "uint256",
          "name": "_agentId",
          "type": "uint256"
        }
      ],
      "name": "getAgentAssignedCourses",
      "outputs": [
        {
          "internalType": "uint256[]",
          "name": "",
          "type": "uint256[]"
        }
      ],
      "stateMutability": "view",
      "type": "function",
      "constant": true
    },
    {
      "inputs": [
        {
          "internalType": "uint256",
          "name": "_courseId",
          "type": "uint256"
        }
      ],
      "name": "getCoursesAssignedTeacher",
      "outputs": [
        {
          "internalType": "uint256[]",
          "name": "",
          "type": "uint256[]"
        }
      ],
      "stateMutability": "view",
      "type": "function",
      "constant": true
    },
    {
      "inputs": [
        {
          "internalType": "uint256",
          "name": "_courseId",
          "type": "uint256"
        }
      ],
      "name": "getCoursesAssignedAgent",
      "outputs": [
        {
          "internalType": "uint256[]",
          "name": "",
          "type": "uint256[]"
        }
      ],
      "stateMutability": "view",
      "type": "function",
      "constant": true
    },
    {
      "inputs": [
        {
          "internalType": "uint256",
          "name": "courseId",
          "type": "uint256"
        }
      ],
      "name": "getCourseImportance",
      "outputs": [
        {
          "internalType": "uint256",
          "name": "",
          "type": "uint256"
        }
      ],
      "stateMutability": "view",
      "type": "function",
      "constant": true
    },
    {
      "inputs": [],
      "name": "getTeacherIds",
      "outputs": [
        {
          "internalType": "uint256[]",
          "name": "",
          "type": "uint256[]"
        }
      ],
      "stateMutability": "view",
      "type": "function",
      "constant": true
    },
    {
      "inputs": [],
      "name": "getAgentIds",
      "outputs": [
        {
          "internalType": "uint256[]",
          "name": "",
          "type": "uint256[]"
        }
      ],
      "stateMutability": "view",
      "type": "function",
      "constant": true
    },
    {
      "inputs": [],
      "name": "getCourseIds",
      "outputs": [
        {
          "internalType": "uint256[]",
          "name": "",
          "type": "uint256[]"
        }
      ],
      "stateMutability": "view",
      "type": "function",
      "constant": true
    },
    {
      "inputs": [],
      "name": "getClassIds",
      "outputs": [
        {
          "internalType": "uint256[]",
          "name": "",
          "type": "uint256[]"
        }
      ],
      "stateMutability": "view",
      "type": "function",
      "constant": true
    },
    {
      "inputs": [
        {
          "internalType": "uint256",
          "name": "courseId",
          "type": "uint256"
        },
        {
          "internalType": "uint256",
          "name": "classId",
          "type": "uint256"
        },
        {
          "internalType": "uint256",
          "name": "score",
          "type": "uint256"
        }
      ],
      "name": "addCourseClassScores",
      "outputs": [],
      "stateMutability": "nonpayable",
      "type": "function"
    },
    {
      "inputs": [
        {
          "internalType": "uint256",
          "name": "courseId",
          "type": "uint256"
        },
        {
          "internalType": "uint256",
          "name": "classId",
          "type": "uint256"
        }
      ],
      "name": "getGiveScoreClassIdExists",
      "outputs": [
        {
          "internalType": "uint256",
          "name": "",
          "type": "uint256"
        }
      ],
      "stateMutability": "view",
      "type": "function",
      "constant": true
    },
    {
      "inputs": [
        {
          "internalType": "uint256",
          "name": "courseId",
          "type": "uint256"
        },
        {
          "internalType": "uint256[]",
          "name": "classIds_",
          "type": "uint256[]"
        }
      ],
      "name": "removeCourseClassScores",
      "outputs": [],
      "stateMutability": "nonpayable",
      "type": "function"
    },
    {
      "inputs": [
        {
          "internalType": "uint256",
          "name": "courseId",
          "type": "uint256"
        }
      ],
      "name": "getCourseClassScores",
      "outputs": [
        {
          "internalType": "uint256[]",
          "name": "",
          "type": "uint256[]"
        }
      ],
      "stateMutability": "view",
      "type": "function",
      "constant": true
    },
    {
      "inputs": [
        {
          "internalType": "uint256",
          "name": "courseId",
          "type": "uint256"
        },
        {
          "internalType": "uint256",
          "name": "teacherId",
          "type": "uint256"
        },
        {
          "internalType": "uint256",
          "name": "score",
          "type": "uint256"
        }
      ],
      "name": "addTeacherScores",
      "outputs": [],
      "stateMutability": "nonpayable",
      "type": "function"
    },
    {
      "inputs": [
        {
          "internalType": "uint256",
          "name": "courseId",
          "type": "uint256"
        },
        {
          "internalType": "uint256[]",
          "name": "teacherIds_",
          "type": "uint256[]"
        }
      ],
      "name": "removeTeacherScores",
      "outputs": [],
      "stateMutability": "nonpayable",
      "type": "function"
    },
    {
      "inputs": [
        {
          "internalType": "uint256",
          "name": "courseId",
          "type": "uint256"
        }
      ],
      "name": "getTeacherScores",
      "outputs": [
        {
          "internalType": "uint256[]",
          "name": "",
          "type": "uint256[]"
        }
      ],
      "stateMutability": "view",
      "type": "function",
      "constant": true
    },
    {
      "inputs": [
        {
          "internalType": "uint256",
          "name": "courseId",
          "type": "uint256"
        },
        {
          "internalType": "uint256",
          "name": "teacherId",
          "type": "uint256"
        }
      ],
      "name": "getGiveScoreTeacherIdExists",
      "outputs": [
        {
          "internalType": "uint256",
          "name": "",
          "type": "uint256"
        }
      ],
      "stateMutability": "view",
      "type": "function",
      "constant": true
    },
    {
      "inputs": [
        {
          "internalType": "uint256",
          "name": "courseId",
          "type": "uint256"
        },
        {
          "internalType": "uint256",
          "name": "score",
          "type": "uint256"
        }
      ],
      "name": "setCourseTotalScore",
      "outputs": [],
      "stateMutability": "nonpayable",
      "type": "function"
    },
    {
      "inputs": [
        {
          "internalType": "uint256",
          "name": "courseId",
          "type": "uint256"
        },
        {
          "internalType": "uint256",
          "name": "supervisorId",
          "type": "uint256"
        },
        {
          "internalType": "uint256",
          "name": "score",
          "type": "uint256"
        }
      ],
      "name": "addCourseSupervisorScores",
      "outputs": [],
      "stateMutability": "nonpayable",
      "type": "function"
    },
    {
      "inputs": [
        {
          "internalType": "uint256",
          "name": "courseId",
          "type": "uint256"
        },
        {
          "internalType": "uint256[]",
          "name": "supervisorIds_",
          "type": "uint256[]"
        }
      ],
      "name": "removeCourseSupervisorScores",
      "outputs": [],
      "stateMutability": "nonpayable",
      "type": "function"
    },
    {
      "inputs": [
        {
          "internalType": "uint256",
          "name": "courseId",
          "type": "uint256"
        },
        {
          "internalType": "uint256",
          "name": "supervisorId",
          "type": "uint256"
        }
      ],
      "name": "getGiveScoreSupervisorIdExists",
      "outputs": [
        {
          "internalType": "uint256",
          "name": "",
          "type": "uint256"
        }
      ],
      "stateMutability": "view",
      "type": "function",
      "constant": true
    },
    {
      "inputs": [
        {
          "internalType": "uint256",
          "name": "courseId",
          "type": "uint256"
        }
      ],
      "name": "getCourseSupervisorScores",
      "outputs": [
        {
          "internalType": "uint256[]",
          "name": "",
          "type": "uint256[]"
        }
      ],
      "stateMutability": "view",
      "type": "function",
      "constant": true
    },
    {
      "inputs": [
        {
          "internalType": "uint256",
          "name": "supervisorId",
          "type": "uint256"
        }
      ],
      "name": "addSupervisorId",
      "outputs": [],
      "stateMutability": "nonpayable",
      "type": "function"
    },
    {
      "inputs": [],
      "name": "getSupervisorIds",
      "outputs": [
        {
          "internalType": "uint256[]",
          "name": "",
          "type": "uint256[]"
        }
      ],
      "stateMutability": "view",
      "type": "function",
      "constant": true
    },
    {
      "inputs": [
        {
          "internalType": "address",
          "name": "supervisor",
          "type": "address"
        },
        {
          "internalType": "uint256",
          "name": "supervisorId",
          "type": "uint256"
        }
      ],
      "name": "setSupervisorId",
      "outputs": [],
      "stateMutability": "nonpayable",
      "type": "function"
    },
    {
      "inputs": [
        {
          "internalType": "uint256",
          "name": "supervisorId",
          "type": "uint256"
        },
        {
          "internalType": "string",
          "name": "_name",
          "type": "string"
        }
      ],
      "name": "setSupervisorName",
      "outputs": [],
      "stateMutability": "nonpayable",
      "type": "function"
    },
    {
      "inputs": [
        {
          "internalType": "uint256",
          "name": "supervisorId",
          "type": "uint256"
        },
        {
          "internalType": "uint256",
          "name": "courseId",
          "type": "uint256"
        },
        {
          "internalType": "uint256",
          "name": "score",
          "type": "uint256"
        }
      ],
      "name": "setSupervisorsCourseScore",
      "outputs": [],
      "stateMutability": "nonpayable",
      "type": "function"
    },
    {
      "inputs": [
        {
          "internalType": "uint256",
          "name": "_transferCourseNumbers",
          "type": "uint256"
        }
      ],
      "name": "settransferCourseNumbers",
      "outputs": [],
      "stateMutability": "nonpayable",
      "type": "function"
    },
    {
      "inputs": [
        {
          "internalType": "uint256",
          "name": "_transferCourseStartTime",
          "type": "uint256"
        }
      ],
      "name": "settransferCourseStartTime",
      "outputs": [],
      "stateMutability": "nonpayable",
      "type": "function"
    },
    {
      "inputs": [
        {
          "internalType": "uint256",
          "name": "_transferCourseEndTime",
          "type": "uint256"
        }
      ],
      "name": "settransferCourseEndTime",
      "outputs": [],
      "stateMutability": "nonpayable",
      "type": "function"
    },
    {
      "inputs": [
        {
          "internalType": "string",
          "name": "option",
          "type": "string"
        }
      ],
      "name": "setScoreType",
      "outputs": [],
      "stateMutability": "nonpayable",
      "type": "function"
    }
  ],
  "bytecode": "0x608060405234801561001057600080fd5b506157f980620000216000396000f3fe608060405234801561001057600080fd5b50600436106106085760003560e01c8063951d5fee1161031b578063ce64bf9b116101a8578063e7fa4557116100f4578063f0f2efd8116100ad578063fa96bf9511610087578063fa96bf9514611394578063fc09e9d0146113c4578063fc2ddca5146113e0578063fe8dc6a8146113fc57610608565b8063f0f2efd81461133e578063f31e14941461135a578063fa8f084d1461137657610608565b8063e7fa455714611245578063e8a2dc2f14611261578063e906165714611291578063ebacebe4146112c1578063ebd1aac6146112f1578063ee196ee21461132257610608565b8063deb9f76a11610161578063e20b34051161013b578063e20b3405146111c1578063e40af036146111dd578063e52505d8146111f9578063e637812f1461122957610608565b8063deb9f76a1461116d578063df3addfa14611189578063e204b102146111a557610608565b8063ce64bf9b14611061578063d4e57ff014611091578063d95a61d5146110c1578063d96ce73f146110f1578063dcfa705714611121578063dd0357651461115157610608565b8063b150876011610267578063bd1602d111610220578063c0e0feb4116101fa578063c0e0feb414610fdd578063c2eca9bc14610ff9578063c318fe5f14611029578063cddd6c631461104557610608565b8063bd1602d114610f89578063bebfd76614610fa5578063bfb9d44c14610fc157610608565b8063b150876014610ec9578063b373a43414610ee7578063b4da858414610f03578063b7dc128414610f1f578063bb69df7214610f3d578063bca24bd414610f5957610608565b8063a549e416116102d4578063aaa4b24e116102ae578063aaa4b24e14610e55578063ab7cee7714610e71578063ab99631714610e8f578063ad3a6ad414610ead57610608565b8063a549e41614610e01578063a755ca5314610e1d578063a7ab847214610e3957610608565b8063951d5fee14610d2b57806396c82e5714610d4957806396f979d214610d675780639709ee0114610d9957806397e92d5214610dc95780639e12237714610de557610608565b80635ca24db01161049957806372c30f45116103e557806382ff0a5a1161039e57806386875ea81161037857806386875ea814610c935780638bbb3be114610caf57806391c89deb14610ccb5780639476cf9b14610cfb57610608565b806382ff0a5a14610c035780638377b69014610c33578063851580a714610c6357610608565b806372c30f4514610b1d5780637883467814610b395780637ce28bac14610b695780637e4d164114610b9b5780637fa7e04d14610bb7578063827e573114610bd357610608565b80636b792cc8116104525780636e9b0f8f1161042c5780636e9b0f8f14610a995780636fcf4f9614610ac9578063700ed28b14610ae557806372ab4e9614610b0157610608565b80636b792cc814610a455780636d889f8414610a615780636e428d2d14610a7d57610608565b80635ca24db0146109875780635e383d46146109b75780635f63efe2146109d3578063643d172c146109ef5780636605515914610a0b5780636798bad914610a2957610608565b80633abdb63d116105585780634b974df7116105115780634dcb6366116104eb5780634dcb6366146108ec578063513856c81461090857806356e760581461093b5780635953faff1461096b57610608565b80634b974df7146108965780634d27e912146108b25780634d652350146108ce57610608565b80633abdb63d146107c2578063406143ae146107de578063439fc3d11461080e57806345073d5c1461082c57806346be313614610848578063494e23711461086657610608565b80631928f3bc116105c55780632359b7b81161059f5780632359b7b8146107375780632b0816ac1461075557806334ac0b401461077157806338f6a6bd146107a657610608565b80631928f3bc146106e15780631dd86f90146106ff5780631fe76a6c1461071b57610608565b8063034f578e1461060d57806307061e011461062b57806308a2037f1461065b5780630f7f13cf146106775780630fa1c271146106a757806318860d37146106c3575b600080fd5b610615611418565b6040516106229190614fc1565b60405180910390f35b6106456004803603810190610640919061495d565b61141e565b6040516106529190614fc1565b60405180910390f35b610675600480360381019061067091906148fd565b611450565b005b610691600480360381019061068c91906146d1565b61147b565b60405161069e9190614fc1565b60405180910390f35b6106c160048036038101906106bc919061495d565b611493565b005b6106cb6114d4565b6040516106d89190614e42565b60405180910390f35b6106e961152c565b6040516106f69190614fc1565b60405180910390f35b61071960048036038101906107149190614a11565b611532565b005b61073560048036038101906107309190614a11565b6115e6565b005b61073f611617565b60405161074c9190614e42565b60405180910390f35b61076f600480360381019061076a91906147d4565b61166f565b005b61078b600480360381019061078691906147d4565b6116b6565b60405161079d96959493929190615066565b60405180910390f35b6107c060048036038101906107bb9190614a11565b61179a565b005b6107dc60048036038101906107d791906147d4565b611872565b005b6107f860048036038101906107f391906147d4565b61195a565b6040516108059190614e42565b60405180910390f35b6108166119c8565b6040516108239190614e7f565b60405180910390f35b610846600480360381019061084191906148a1565b611a56565b005b610850611ae3565b60405161085d9190614fc1565b60405180910390f35b610880600480360381019061087b91906147d4565b611ae9565b60405161088d9190614fc1565b60405180910390f35b6108b060048036038101906108ab919061495d565b611b0d565b005b6108cc60048036038101906108c79190614a11565b611ca7565b005b6108d6611cd8565b6040516108e39190614e42565b60405180910390f35b610906600480360381019061090191906148a1565b611d30565b005b610922600480360381019061091d91906147d4565b611dbd565b604051610932949392919061501a565b60405180910390f35b610955600480360381019061095091906147d4565b611e95565b6040516109629190614fc1565b60405180910390f35b6109856004803603810190610980919061473e565b611eb9565b005b6109a1600480360381019061099c91906147d4565b611f7b565b6040516109ae9190614e42565b60405180910390f35b6109d160048036038101906109cc91906146fe565b611fe9565b005b6109ed60048036038101906109e891906147d4565b61205a565b005b610a096004803603810190610a0491906147d4565b612064565b005b610a136120a8565b604051610a209190614fc1565b60405180910390f35b610a436004803603810190610a3e91906147d4565b6120ae565b005b610a5f6004803603810190610a5a91906147d4565b6120b8565b005b610a7b6004803603810190610a769190614a11565b6120c2565b005b610a976004803603810190610a92919061495d565b61219a565b005b610ab36004803603810190610aae91906147d4565b612334565b604051610ac09190614fc1565b60405180910390f35b610ae36004803603810190610ade91906147d4565b612354565b005b610aff6004803603810190610afa919061495d565b6124bf565b005b610b1b6004803603810190610b16919061495d565b612500565b005b610b376004803603810190610b3291906147d4565b612541565b005b610b536004803603810190610b4e91906147d4565b61260d565b604051610b609190614e20565b60405180910390f35b610b836004803603810190610b7e91906147d4565b6126fc565b604051610b9293929190614fdc565b60405180910390f35b610bb56004803603810190610bb09190614787565b6127ce565b005b610bd16004803603810190610bcc91906148fd565b6127e4565b005b610bed6004803603810190610be891906147d4565b61280f565b604051610bfa9190614e42565b60405180910390f35b610c1d6004803603810190610c1891906147d4565b61287d565b604051610c2a9190614e42565b60405180910390f35b610c4d6004803603810190610c48919061495d565b6128eb565b604051610c5a9190614fc1565b60405180910390f35b610c7d6004803603810190610c78919061495d565b61291d565b604051610c8a9190614fc1565b60405180910390f35b610cad6004803603810190610ca8919061495d565b61294f565b005b610cc96004803603810190610cc491906146fe565b612ae9565b005b610ce56004803603810190610ce091906147d4565b612ba1565b604051610cf29190614e42565b60405180910390f35b610d156004803603810190610d1091906147d4565b612c0f565b604051610d229190614fc1565b60405180910390f35b610d33612c33565b604051610d409190614fc1565b60405180910390f35b610d51612c39565b604051610d5e9190614fc1565b60405180910390f35b610d816004803603810190610d7c91906147d4565b612c3f565b604051610d90939291906150ce565b60405180910390f35b610db36004803603810190610dae919061495d565b612cf1565b604051610dc09190614fc1565b60405180910390f35b610de36004803603810190610dde9190614841565b612d23565b005b610dff6004803603810190610dfa91906148fd565b612e7c565b005b610e1b6004803603810190610e1691906146fe565b612ea7565b005b610e376004803603810190610e32919061495d565b612f33565b005b610e536004803603810190610e4e91906148fd565b612f74565b005b610e6f6004803603810190610e6a919061495d565b613022565b005b610e79613041565b604051610e869190614fc1565b60405180910390f35b610e97613047565b604051610ea49190614fc1565b60405180910390f35b610ec76004803603810190610ec29190614841565b61304d565b005b610ed16131a6565b604051610ede9190614e42565b60405180910390f35b610f016004803603810190610efc91906147d4565b6131fe565b005b610f1d6004803603810190610f18919061495d565b613208565b005b610f276132aa565b604051610f349190614fc1565b60405180910390f35b610f576004803603810190610f52919061495d565b6132b0565b005b610f736004803603810190610f6e91906147d4565b6133b0565b604051610f809190614fc1565b60405180910390f35b610fa36004803603810190610f9e91906147d4565b6133d4565b005b610fbf6004803603810190610fba91906148fd565b6133de565b005b610fdb6004803603810190610fd691906146fe565b613435565b005b610ff76004803603810190610ff291906148fd565b6134c1565b005b611013600480360381019061100e919061499d565b613718565b6040516110209190614e64565b60405180910390f35b611043600480360381019061103e9190614801565b6137b1565b005b61105f600480360381019061105a9190614801565b61388d565b005b61107b600480360381019061107691906147d4565b6138e6565b6040516110889190614e42565b60405180910390f35b6110ab60048036038101906110a691906146d1565b613954565b6040516110b89190614fc1565b60405180910390f35b6110db60048036038101906110d691906146d1565b61396c565b6040516110e89190614fc1565b60405180910390f35b61110b600480360381019061110691906147d4565b613984565b6040516111189190614e42565b60405180910390f35b61113b600480360381019061113691906147d4565b6139f2565b6040516111489190614fc1565b60405180910390f35b61116b600480360381019061116691906147d4565b613a16565b005b611187600480360381019061118291906147d4565b613a20565b005b6111a3600480360381019061119e91906147d4565b613a2a565b005b6111bf60048036038101906111ba919061495d565b613af6565b005b6111db60048036038101906111d6919061495d565b613b15565b005b6111f760048036038101906111f2919061495d565b613bb7565b005b611213600480360381019061120e91906147d4565b613d51565b6040516112209190614e42565b60405180910390f35b611243600480360381019061123e919061495d565b613dbf565b005b61125f600480360381019061125a919061495d565b613e00565b005b61127b6004803603810190611276919061495d565b613f9a565b6040516112889190614fc1565b60405180910390f35b6112ab60048036038101906112a6919061495d565b613fcc565b6040516112b89190614fc1565b60405180910390f35b6112db60048036038101906112d691906146d1565b613ffe565b6040516112e89190614fc1565b60405180910390f35b61130b600480360381019061130691906147d4565b614016565b60405161131992919061510c565b60405180910390f35b61133c6004803603810190611337919061495d565b61403a565b005b61135860048036038101906113539190614841565b614059565b005b611374600480360381019061136f9190614a11565b61412f565b005b61137e614207565b60405161138b9190614e42565b60405180910390f35b6113ae60048036038101906113a991906147d4565b61425f565b6040516113bb9190614e42565b60405180910390f35b6113de60048036038101906113d9919061495d565b6142cd565b005b6113fa60048036038101906113f59190614a11565b61430e565b005b611416600480360381019061141191906148a1565b61433f565b005b60175481565b6000600a6000848152602001908152602001600020600501600083815260200190815260200160002054905092915050565b81816008600086815260200190815260200160002060010191906114759291906143cc565b50505050565b60026020528060005260406000206000915090505481565b600960008381526020019081526020016000206003018190806001815401808255809150506001900390600052602060002001600090919091909150555050565b6060601380548060200260200160405190810160405280929190818152602001828054801561152257602002820191906000526020600020905b81548152602001906001019080831161150e575b5050505050905090565b60165481565b6000600260003373ffffffffffffffffffffffffffffffffffffffff1673ffffffffffffffffffffffffffffffffffffffff1681526020019081526020016000205414156115b5576040517f08c379a00000000000000000000000000000000000000000000000000000000081526004016115ac90614f81565b60405180910390fd5b8060066000858152602001908152602001600020600b01600084815260200190815260200160002081905550505050565b8060066000858152602001908152602001600020600a01600084815260200190815260200160002081905550505050565b6060601280548060200260200160405190810160405280929190818152602001828054801561166557602002820191906000526020600020905b815481526020019060010190808311611651575b5050505050905090565b806009600083815260200190815260200160002060000181905550601281908060018154018082558091505060019003906000526020600020016000909190919091505550565b60066020528060005260406000206000915090508060000154908060010180546116df90615359565b80601f016020809104026020016040519081016040528092919081815260200182805461170b90615359565b80156117585780601f1061172d57610100808354040283529160200191611758565b820191906000526020600020905b81548152906001019060200180831161173b57829003601f168201915b5050505050908060040160009054906101000a900473ffffffffffffffffffffffffffffffffffffffff16908060070154908060080154908060090154905086565b6000600a600085815260200190815260200160002060050160008481526020019081526020016000205414611804576040517f08c379a00000000000000000000000000000000000000000000000000000000081526004016117fb90614f01565b60405180910390fd5b80600a6000858152602001908152602001600020600501600084815260200190815260200160002081905550600a6000848152602001908152602001600020600401819080600181540180825580915050600190039060005260206000200160009091909190915055505050565b6000600760008381526020019081526020016000206000018190555060005b6011805490508110156119565781601182815481106118b3576118b2615492565b5b9060005260206000200154141561194357601160016011805490506118d8919061529b565b815481106118e9576118e8615492565b5b90600052602060002001546011828154811061190857611907615492565b5b9060005260206000200181905550601180548061192857611927615463565b5b60019003818190600052602060002001600090559055611956565b808061194e906153bc565b915050611891565b5050565b6060600a60008381526020019081526020016000206004018054806020026020016040519081016040528092919081815260200182805480156119bc57602002820191906000526020600020905b8154815260200190600101908083116119a8575b50505050509050919050565b600080546119d590615359565b80601f0160208091040260200160405190810160405280929190818152602001828054611a0190615359565b8015611a4e5780601f10611a2357610100808354040283529160200191611a4e565b820191906000526020600020905b815481529060010190602001808311611a3157829003601f168201915b505050505081565b60005b8151811015611abc576000600a60008581526020019081526020016000206003016000848481518110611a8f57611a8e615492565b5b60200260200101518152602001908152602001600020819055508080611ab4906153bc565b915050611a59565b50600a60008381526020019081526020016000206002016000611adf9190614452565b5050565b600b5481565b60128181548110611af957600080fd5b906000526020600020016000915090505481565b60008080600090505b6006600086815260200190815260200160002060050180549050811015611b905783600660008781526020019081526020016000206005018281548110611b6057611b5f615492565b5b90600052602060002001541415611b7d5760019250809150611b90565b8080611b88906153bc565b915050611b16565b508115611c66576006600085815260200190815260200160002060050160016006600087815260200190815260200160002060050180549050611bd3919061529b565b81548110611be457611be3615492565b5b9060005260206000200154600660008681526020019081526020016000206005018281548110611c1757611c16615492565b5b906000526020600020018190555060066000858152602001908152602001600020600501805480611c4b57611c4a615463565b5b60019003818190600052602060002001600090559055611ca1565b6040517f08c379a0000000000000000000000000000000000000000000000000000000008152600401611c9890614ee1565b60405180910390fd5b50505050565b8060076000858152602001908152602001600020600501600084815260200190815260200160002081905550505050565b60606010805480602002602001604051908101604052809291908181526020018280548015611d2657602002820191906000526020600020905b815481526020019060010190808311611d12575b5050505050905090565b60005b8151811015611d96576000600a60008581526020019081526020016000206007016000848481518110611d6957611d68615492565b5b60200260200101518152602001908152602001600020819055508080611d8e906153bc565b915050611d33565b50600a60008381526020019081526020016000206006016000611db99190614452565b5050565b6007602052806000526040600020600091509050806000015490806001018054611de690615359565b80601f0160208091040260200160405190810160405280929190818152602001828054611e1290615359565b8015611e5f5780601f10611e3457610100808354040283529160200191611e5f565b820191906000526020600020905b815481529060010190602001808311611e4257829003601f168201915b5050505050908060020160009054906101000a900473ffffffffffffffffffffffffffffffffffffffff16908060030154905084565b60118181548110611ea557600080fd5b906000526020600020016000915090505481565b601280549050815114611f01576040517f08c379a0000000000000000000000000000000000000000000000000000000008152600401611ef890614f21565b60405180910390fd5b60005b601280549050811015611f7757818181518110611f2457611f23615492565b5b60200260200101516009600060128481548110611f4457611f43615492565b5b90600052602060002001548152602001908152602001600020600201819055508080611f6f906153bc565b915050611f04565b5050565b6060600a6000838152602001908152602001600020600201805480602002602001604051908101604052809291908181526020018280548015611fdd57602002820191906000526020600020905b815481526020019060010190808311611fc9575b50505050509050919050565b80600460008473ffffffffffffffffffffffffffffffffffffffff1673ffffffffffffffffffffffffffffffffffffffff1681526020019081526020016000208190555060138190806001815401808255809150506001900390600052602060002001600090919091909150555050565b8060168190555050565b6014819080600181540180825580915050600190039060005260206000200160009091909190915055600f60008154809291906120a0906153bc565b919050555050565b600e5481565b80600b8190555050565b8060158190555050565b6000600a60008581526020019081526020016000206003016000848152602001908152602001600020541461212c576040517f08c379a000000000000000000000000000000000000000000000000000000000815260040161212390614ec1565b60405180910390fd5b80600a6000858152602001908152602001600020600301600084815260200190815260200160002081905550600a6000848152602001908152602001600020600201819080600181540180825580915050600190039060005260206000200160009091909190915055505050565b60008080600090505b600960008681526020019081526020016000206003018054905081101561221d57836009600087815260200190815260200160002060030182815481106121ed576121ec615492565b5b9060005260206000200154141561220a576001925080915061221d565b8080612215906153bc565b9150506121a3565b5081156122f3576009600085815260200190815260200160002060030160016009600087815260200190815260200160002060030180549050612260919061529b565b8154811061227157612270615492565b5b90600052602060002001546009600086815260200190815260200160002060030182815481106122a4576122a3615492565b5b9060005260206000200181905550600960008581526020019081526020016000206003018054806122d8576122d7615463565b5b6001900381819060005260206000200160009055905561232e565b6040517f08c379a000000000000000000000000000000000000000000000000000000000815260040161232590614ee1565b60405180910390fd5b50505050565b600060096000838152602001908152602001600020600201549050919050565b6000600260003373ffffffffffffffffffffffffffffffffffffffff1673ffffffffffffffffffffffffffffffffffffffff1681526020019081526020016000205414156123d7576040517f08c379a00000000000000000000000000000000000000000000000000000000081526004016123ce90614f81565b60405180910390fd5b6000600660008381526020019081526020016000206000018190555060005b6010805490508110156124bb57816010828154811061241857612417615492565b5b906000526020600020015414156124a8576010600160108054905061243d919061529b565b8154811061244e5761244d615492565b5b90600052602060002001546010828154811061246d5761246c615492565b5b9060005260206000200181905550601080548061248d5761248c615463565b5b600190038181906000526020600020016000905590556124bb565b80806124b3906153bc565b9150506123f6565b5050565b600660008381526020019081526020016000206005018190806001815401808255809150506001900390600052602060002001600090919091909150555050565b600760008381526020019081526020016000206004018190806001815401808255809150506001900390600052602060002001600090919091909150555050565b60005b60138054905081101561260957816013828154811061256657612565615492565b5b906000526020600020015414156125f6576013600160138054905061258b919061529b565b8154811061259c5761259b615492565b5b9060005260206000200154601382815481106125bb576125ba615492565b5b906000526020600020018190555060138054806125db576125da615463565b5b60019003818190600052602060002001600090559055612609565b8080612601906153bc565b915050612544565b5050565b606060066000838152602001908152602001600020600201805480602002602001604051908101604052809291908181526020016000905b828210156126f157838290600052602060002001805461266490615359565b80601f016020809104026020016040519081016040528092919081815260200182805461269090615359565b80156126dd5780601f106126b2576101008083540402835291602001916126dd565b820191906000526020600020905b8154815290600101906020018083116126c057829003601f168201915b505050505081526020019060010190612645565b505050509050919050565b600860205280600052604060002060009150905080600001549080600101805461272590615359565b80601f016020809104026020016040519081016040528092919081815260200182805461275190615359565b801561279e5780601f106127735761010080835404028352916020019161279e565b820191906000526020600020905b81548152906001019060200180831161278157829003601f168201915b5050505050908060020160009054906101000a900473ffffffffffffffffffffffffffffffffffffffff16905083565b8181600091906127df9291906143cc565b505050565b81816007600086815260200190815260200160002060010191906128099291906143cc565b50505050565b60606006600083815260200190815260200160002060060180548060200260200160405190810160405280929190818152602001828054801561287157602002820191906000526020600020905b81548152602001906001019080831161285d575b50505050509050919050565b6060600960008381526020019081526020016000206003018054806020026020016040519081016040528092919081815260200182805480156128df57602002820191906000526020600020905b8154815260200190600101908083116128cb575b50505050509050919050565b6000600a6000848152602001908152602001600020600301600083815260200190815260200160002054905092915050565b600060066000848152602001908152602001600020600b01600083815260200190815260200160002054905092915050565b60008080600090505b60096000868152602001908152602001600020600401805490508110156129d257836009600087815260200190815260200160002060040182815481106129a2576129a1615492565b5b906000526020600020015414156129bf57600192508091506129d2565b80806129ca906153bc565b915050612958565b508115612aa8576009600085815260200190815260200160002060040160016009600087815260200190815260200160002060040180549050612a15919061529b565b81548110612a2657612a25615492565b5b9060005260206000200154600960008681526020019081526020016000206004018281548110612a5957612a58615492565b5b906000526020600020018190555060096000858152602001908152602001600020600401805480612a8d57612a8c615463565b5b60019003818190600052602060002001600090559055612ae3565b6040517f08c379a0000000000000000000000000000000000000000000000000000000008152600401612ada90614ee1565b60405180910390fd5b50505050565b80600560008473ffffffffffffffffffffffffffffffffffffffff1673ffffffffffffffffffffffffffffffffffffffff16815260200190815260200160002081905550806008600083815260200190815260200160002060000181905550816008600083815260200190815260200160002060020160006101000a81548173ffffffffffffffffffffffffffffffffffffffff021916908373ffffffffffffffffffffffffffffffffffffffff1602179055505050565b606060096000838152602001908152602001600020600401805480602002602001604051908101604052809291908181526020018280548015612c0357602002820191906000526020600020905b815481526020019060010190808311612bef575b50505050509050919050565b60148181548110612c1f57600080fd5b906000526020600020016000915090505481565b60155481565b60015481565b6009602052806000526040600020600091509050806000015490806001018054612c6890615359565b80601f0160208091040260200160405190810160405280929190818152602001828054612c9490615359565b8015612ce15780601f10612cb657610100808354040283529160200191612ce1565b820191906000526020600020905b815481529060010190602001808311612cc457829003601f168201915b5050505050908060020154905083565b600060076000848152602001908152602001600020600501600083815260200190815260200160002054905092915050565b6000600260003373ffffffffffffffffffffffffffffffffffffffff1673ffffffffffffffffffffffffffffffffffffffff168152602001908152602001600020541415612da6576040517f08c379a0000000000000000000000000000000000000000000000000000000008152600401612d9d90614f81565b60405180910390fd5b6012805490508282905014612df0576040517f08c379a0000000000000000000000000000000000000000000000000000000008152600401612de790614fa1565b60405180910390fd5b60005b601280549050811015612e7657828282818110612e1357612e12615492565b5b9050602002013560066000868152602001908152602001600020600a01600060128481548110612e4657612e45615492565b5b90600052602060002001548152602001908152602001600020819055508080612e6e906153bc565b915050612df3565b50505050565b8181600960008681526020019081526020016000206001019190612ea19291906143cc565b50505050565b80600260008473ffffffffffffffffffffffffffffffffffffffff1673ffffffffffffffffffffffffffffffffffffffff1681526020019081526020016000208190555080600660008381526020019081526020016000206000018190555060108190806001815401808255809150506001900390600052602060002001600090919091909150555050565b600660008381526020019081526020016000206003018190806001815401808255809150506001900390600052602060002001600090919091909150555050565b6000600260003373ffffffffffffffffffffffffffffffffffffffff1673ffffffffffffffffffffffffffffffffffffffff168152602001908152602001600020541415612ff7576040517f08c379a0000000000000000000000000000000000000000000000000000000008152600401612fee90614f81565b60405180910390fd5b818160066000868152602001908152602001600020600101919061301c9291906143cc565b50505050565b80600a6000848152602001908152602001600020600101819055505050565b600f5481565b600d5481565b6000600260003373ffffffffffffffffffffffffffffffffffffffff1673ffffffffffffffffffffffffffffffffffffffff1681526020019081526020016000205414156130d0576040517f08c379a00000000000000000000000000000000000000000000000000000000081526004016130c790614f81565b60405180910390fd5b601280549050828290501461311a576040517f08c379a000000000000000000000000000000000000000000000000000000000815260040161311190614ea1565b60405180910390fd5b60005b6012805490508110156131a05782828281811061313d5761313c615492565b5b9050602002013560066000868152602001908152602001600020600b016000601284815481106131705761316f615492565b5b90600052602060002001548152602001908152602001600020819055508080613198906153bc565b91505061311d565b50505050565b606060118054806020026020016040519081016040528092919081815260200182805480156131f457602002820191906000526020600020905b8154815260200190600101908083116131e0575b5050505050905090565b8060178190555050565b6000600260003373ffffffffffffffffffffffffffffffffffffffff1673ffffffffffffffffffffffffffffffffffffffff16815260200190815260200160002054141561328b576040517f08c379a000000000000000000000000000000000000000000000000000000000815260040161328290614f81565b60405180910390fd5b8060066000848152602001908152602001600020600801819055505050565b600c5481565b6000600260003373ffffffffffffffffffffffffffffffffffffffff1673ffffffffffffffffffffffffffffffffffffffff168152602001908152602001600020541415613333576040517f08c379a000000000000000000000000000000000000000000000000000000000815260040161332a90614f81565b60405180910390fd5b60066000838152602001908152602001600020600701546001600082825461335b919061529b565b925050819055508060066000848152602001908152602001600020600701819055506006600083815260200190815260200160002060070154600160008282546133a59190615245565b925050819055505050565b601381815481106133c057600080fd5b906000526020600020016000915090505481565b80600e8190555050565b6006600084815260200190815260200160002060020182829091806001815401808255809150506001900390600052602060002001600090919290919290919290919250919061342f9291906143cc565b50505050565b80600360008473ffffffffffffffffffffffffffffffffffffffff1673ffffffffffffffffffffffffffffffffffffffff1681526020019081526020016000208190555080600760008381526020019081526020016000206000018190555060118190806001815401808255809150506001900390600052602060002001600090919091909150555050565b60008080600090505b600660008781526020019081526020016000206002018054905081101561351b576134f786828787613718565b15613508576001925080915061351b565b8080613513906153bc565b9150506134ca565b5081156136d657600660008681526020019081526020016000206002016001600660008881526020019081526020016000206002018054905061355e919061529b565b8154811061356f5761356e615492565b5b906000526020600020016006600087815260200190815260200160002060020182815481106135a1576135a0615492565b5b906000526020600020019080546135b790615359565b6135c2929190614473565b50600660008681526020019081526020016000206002018054806135e9576135e8615463565b5b6001900381819060005260206000200160006136059190614500565b90556006600086815260200190815260200160002060030160016006600088815260200190815260200160002060030180549050613643919061529b565b8154811061365457613653615492565b5b906000526020600020015460066000878152602001908152602001600020600301828154811061368757613686615492565b5b9060005260206000200181905550600660008681526020019081526020016000206003018054806136bb576136ba615463565b5b60019003818190600052602060002001600090559055613711565b6040517f08c379a000000000000000000000000000000000000000000000000000000000815260040161370890614f61565b60405180910390fd5b5050505050565b60008060066000878152602001908152602001600020600201858154811061374357613742615492565b5b9060005260206000200160405160200161375d9190614e09565b6040516020818303038152906040528051906020012090506000848460405160200161378a929190614df0565b60405160208183030381529060405280519060200120905080821492505050949350505050565b6000600260003373ffffffffffffffffffffffffffffffffffffffff1673ffffffffffffffffffffffffffffffffffffffff168152602001908152602001600020541415613834576040517f08c379a000000000000000000000000000000000000000000000000000000000815260040161382b90614f81565b60405180910390fd5b806006600084815260200190815260200160002060040160006101000a81548173ffffffffffffffffffffffffffffffffffffffff021916908373ffffffffffffffffffffffffffffffffffffffff1602179055505050565b806007600084815260200190815260200160002060020160006101000a81548173ffffffffffffffffffffffffffffffffffffffff021916908373ffffffffffffffffffffffffffffffffffffffff1602179055505050565b60606007600083815260200190815260200160002060040180548060200260200160405190810160405280929190818152602001828054801561394857602002820191906000526020600020905b815481526020019060010190808311613934575b50505050509050919050565b60046020528060005260406000206000915090505481565b60056020528060005260406000206000915090505481565b6060600a60008381526020019081526020016000206006018054806020026020016040519081016040528092919081815260200182805480156139e657602002820191906000526020600020905b8154815260200190600101908083116139d2575b50505050509050919050565b60108181548110613a0257600080fd5b906000526020600020016000915090505481565b80600d8190555050565b80600c8190555050565b60005b601280549050811015613af2578160128281548110613a4f57613a4e615492565b5b90600052602060002001541415613adf5760126001601280549050613a74919061529b565b81548110613a8557613a84615492565b5b906000526020600020015460128281548110613aa457613aa3615492565b5b90600052602060002001819055506012805480613ac457613ac3615463565b5b60019003818190600052602060002001600090559055613af2565b8080613aea906153bc565b915050613a2d565b5050565b8060096000848152602001908152602001600020600201819055505050565b6000600260003373ffffffffffffffffffffffffffffffffffffffff1673ffffffffffffffffffffffffffffffffffffffff168152602001908152602001600020541415613b98576040517f08c379a0000000000000000000000000000000000000000000000000000000008152600401613b8f90614f81565b60405180910390fd5b8060066000848152602001908152602001600020600901819055505050565b60008080600090505b6007600086815260200190815260200160002060040180549050811015613c3a5783600760008781526020019081526020016000206004018281548110613c0a57613c09615492565b5b90600052602060002001541415613c275760019250809150613c3a565b8080613c32906153bc565b915050613bc0565b508115613d10576007600085815260200190815260200160002060040160016007600087815260200190815260200160002060040180549050613c7d919061529b565b81548110613c8e57613c8d615492565b5b9060005260206000200154600760008681526020019081526020016000206004018281548110613cc157613cc0615492565b5b906000526020600020018190555060076000858152602001908152602001600020600401805480613cf557613cf4615463565b5b60019003818190600052602060002001600090559055613d4b565b6040517f08c379a0000000000000000000000000000000000000000000000000000000008152600401613d4290614ee1565b60405180910390fd5b50505050565b606060066000838152602001908152602001600020600501805480602002602001604051908101604052809291908181526020018280548015613db357602002820191906000526020600020905b815481526020019060010190808311613d9f575b50505050509050919050565b600660008381526020019081526020016000206006018190806001815401808255809150506001900390600052602060002001600090919091909150555050565b60008080600090505b6006600086815260200190815260200160002060060180549050811015613e835783600660008781526020019081526020016000206006018281548110613e5357613e52615492565b5b90600052602060002001541415613e705760019250809150613e83565b8080613e7b906153bc565b915050613e09565b508115613f59576006600085815260200190815260200160002060060160016006600087815260200190815260200160002060060180549050613ec6919061529b565b81548110613ed757613ed6615492565b5b9060005260206000200154600660008681526020019081526020016000206006018281548110613f0a57613f09615492565b5b906000526020600020018190555060066000858152602001908152602001600020600601805480613f3e57613f3d615463565b5b60019003818190600052602060002001600090559055613f94565b6040517f08c379a0000000000000000000000000000000000000000000000000000000008152600401613f8b90614ee1565b60405180910390fd5b50505050565b600060066000848152602001908152602001600020600a01600083815260200190815260200160002054905092915050565b6000600a6000848152602001908152602001600020600701600083815260200190815260200160002054905092915050565b60036020528060005260406000206000915090505481565b600a6020528060005260406000206000915090508060000154908060010154905082565b8060076000848152602001908152602001600020600301819055505050565b60128054905082829050146140a3576040517f08c379a000000000000000000000000000000000000000000000000000000000815260040161409a90614fa1565b60405180910390fd5b60005b601280549050811015614129578282828181106140c6576140c5615492565b5b90506020020135600760008681526020019081526020016000206005016000601284815481106140f9576140f8615492565b5b90600052602060002001548152602001908152602001600020819055508080614121906153bc565b9150506140a6565b50505050565b6000600a600085815260200190815260200160002060070160008481526020019081526020016000205414614199576040517f08c379a000000000000000000000000000000000000000000000000000000000815260040161419090614f41565b60405180910390fd5b80600a6000858152602001908152602001600020600701600084815260200190815260200160002081905550600a6000848152602001908152602001600020600601819080600181540180825580915050600190039060005260206000200160009091909190915055505050565b6060601480548060200260200160405190810160405280929190818152602001828054801561425557602002820191906000526020600020905b815481526020019060010190808311614241575b5050505050905090565b6060600660008381526020019081526020016000206003018054806020026020016040519081016040528092919081815260200182805480156142c157602002820191906000526020600020905b8154815260200190600101908083116142ad575b50505050509050919050565b600960008381526020019081526020016000206004018190806001815401808255809150506001900390600052602060002001600090919091909150555050565b8060086000858152602001908152602001600020600301600084815260200190815260200160002081905550505050565b60005b81518110156143a5576000600a6000858152602001908152602001600020600501600084848151811061437857614377615492565b5b6020026020010151815260200190815260200160002081905550808061439d906153bc565b915050614342565b50600a600083815260200190815260200160002060040160006143c89190614452565b5050565b8280546143d890615359565b90600052602060002090601f0160209004810192826143fa5760008555614441565b82601f1061441357803560ff1916838001178555614441565b82800160010185558215614441579182015b82811115614440578235825591602001919060010190614425565b5b50905061444e9190614540565b5090565b50805460008255906000526020600020908101906144709190614540565b50565b82805461447f90615359565b90600052602060002090601f0160209004810192826144a157600085556144ef565b82601f106144b257805485556144ef565b828001600101855582156144ef57600052602060002091601f016020900482015b828111156144ee5782548255916001019190600101906144d3565b5b5090506144fc9190614540565b5090565b50805461450c90615359565b6000825580601f1061451e575061453d565b601f01602090049060005260206000209081019061453c9190614540565b5b50565b5b80821115614559576000816000905550600101614541565b5090565b600061457061456b8461515a565b615135565b90508083825260208201905082856020860282011115614593576145926154fa565b5b60005b858110156145c357816145a988826146bc565b845260208401935060208301925050600181019050614596565b5050509392505050565b6000813590506145dc81615795565b92915050565b60008083601f8401126145f8576145f76154f5565b5b8235905067ffffffffffffffff811115614615576146146154f0565b5b602083019150836020820283011115614631576146306154fa565b5b9250929050565b600082601f83011261464d5761464c6154f5565b5b813561465d84826020860161455d565b91505092915050565b60008083601f84011261467c5761467b6154f5565b5b8235905067ffffffffffffffff811115614699576146986154f0565b5b6020830191508360018202830111156146b5576146b46154fa565b5b9250929050565b6000813590506146cb816157ac565b92915050565b6000602082840312156146e7576146e6615504565b5b60006146f5848285016145cd565b91505092915050565b6000806040838503121561471557614714615504565b5b6000614723858286016145cd565b9250506020614734858286016146bc565b9150509250929050565b60006020828403121561475457614753615504565b5b600082013567ffffffffffffffff811115614772576147716154ff565b5b61477e84828501614638565b91505092915050565b6000806020838503121561479e5761479d615504565b5b600083013567ffffffffffffffff8111156147bc576147bb6154ff565b5b6147c885828601614666565b92509250509250929050565b6000602082840312156147ea576147e9615504565b5b60006147f8848285016146bc565b91505092915050565b6000806040838503121561481857614817615504565b5b6000614826858286016146bc565b9250506020614837858286016145cd565b9150509250929050565b60008060006040848603121561485a57614859615504565b5b6000614868868287016146bc565b935050602084013567ffffffffffffffff811115614889576148886154ff565b5b614895868287016145e2565b92509250509250925092565b600080604083850312156148b8576148b7615504565b5b60006148c6858286016146bc565b925050602083013567ffffffffffffffff8111156148e7576148e66154ff565b5b6148f385828601614638565b9150509250929050565b60008060006040848603121561491657614915615504565b5b6000614924868287016146bc565b935050602084013567ffffffffffffffff811115614945576149446154ff565b5b61495186828701614666565b92509250509250925092565b6000806040838503121561497457614973615504565b5b6000614982858286016146bc565b9250506020614993858286016146bc565b9150509250929050565b600080600080606085870312156149b7576149b6615504565b5b60006149c5878288016146bc565b94505060206149d6878288016146bc565b935050604085013567ffffffffffffffff8111156149f7576149f66154ff565b5b614a0387828801614666565b925092505092959194509250565b600080600060608486031215614a2a57614a29615504565b5b6000614a38868287016146bc565b9350506020614a49868287016146bc565b9250506040614a5a868287016146bc565b9150509250925092565b6000614a708383614ba6565b905092915050565b6000614a848383614dd2565b60208301905092915050565b614a99816152cf565b82525050565b6000614aaa826151bb565b614ab481856151f6565b935083602082028501614ac685615186565b8060005b85811015614b025784840389528151614ae38582614a64565b9450614aee836151dc565b925060208a01995050600181019050614aca565b50829750879550505050505092915050565b6000614b1f826151c6565b614b298185615207565b9350614b3483615196565b8060005b83811015614b65578151614b4c8882614a78565b9750614b57836151e9565b925050600181019050614b38565b5085935050505092915050565b614b7b816152e1565b82525050565b6000614b8d838561523a565b9350614b9a838584615317565b82840190509392505050565b6000614bb1826151d1565b614bbb8185615218565b9350614bcb818560208601615326565b614bd481615509565b840191505092915050565b6000614bea826151d1565b614bf48185615229565b9350614c04818560208601615326565b614c0d81615509565b840191505092915050565b60008154614c2581615359565b614c2f818661523a565b94506001821660008114614c4a5760018114614c5b57614c8e565b60ff19831686528186019350614c8e565b614c64856151a6565b60005b83811015614c8657815481890152600182019150602081019050614c67565b838801955050505b50505092915050565b6000614ca4606083615229565b9150614caf8261551a565b606082019050919050565b6000614cc7601583615229565b9150614cd28261558f565b602082019050919050565b6000614cea601083615229565b9150614cf5826155b8565b602082019050919050565b6000614d0d601583615229565b9150614d18826155e1565b602082019050919050565b6000614d30602283615229565b9150614d3b8261560a565b604082019050919050565b6000614d53601583615229565b9150614d5e82615659565b602082019050919050565b6000614d76601b83615229565b9150614d8182615682565b602082019050919050565b6000614d99602f83615229565b9150614da4826156ab565b604082019050919050565b6000614dbc606183615229565b9150614dc7826156fa565b608082019050919050565b614ddb8161530d565b82525050565b614dea8161530d565b82525050565b6000614dfd828486614b81565b91508190509392505050565b6000614e158284614c18565b915081905092915050565b60006020820190508181036000830152614e3a8184614a9f565b905092915050565b60006020820190508181036000830152614e5c8184614b14565b905092915050565b6000602082019050614e796000830184614b72565b92915050565b60006020820190508181036000830152614e998184614bdf565b905092915050565b60006020820190508181036000830152614eba81614c97565b9050919050565b60006020820190508181036000830152614eda81614cba565b9050919050565b60006020820190508181036000830152614efa81614cdd565b9050919050565b60006020820190508181036000830152614f1a81614d00565b9050919050565b60006020820190508181036000830152614f3a81614d23565b9050919050565b60006020820190508181036000830152614f5a81614d46565b9050919050565b60006020820190508181036000830152614f7a81614d69565b9050919050565b60006020820190508181036000830152614f9a81614d8c565b9050919050565b60006020820190508181036000830152614fba81614daf565b9050919050565b6000602082019050614fd66000830184614de1565b92915050565b6000606082019050614ff16000830186614de1565b81810360208301526150038185614bdf565b90506150126040830184614a90565b949350505050565b600060808201905061502f6000830187614de1565b81810360208301526150418186614bdf565b90506150506040830185614a90565b61505d6060830184614de1565b95945050505050565b600060c08201905061507b6000830189614de1565b818103602083015261508d8188614bdf565b905061509c6040830187614a90565b6150a96060830186614de1565b6150b66080830185614de1565b6150c360a0830184614de1565b979650505050505050565b60006060820190506150e36000830186614de1565b81810360208301526150f58185614bdf565b90506151046040830184614de1565b949350505050565b60006040820190506151216000830185614de1565b61512e6020830184614de1565b9392505050565b600061513f615150565b905061514b828261538b565b919050565b6000604051905090565b600067ffffffffffffffff821115615175576151746154c1565b5b602082029050602081019050919050565b6000819050602082019050919050565b6000819050602082019050919050565b60008190508160005260206000209050919050565b600081519050919050565b600081519050919050565b600081519050919050565b6000602082019050919050565b6000602082019050919050565b600082825260208201905092915050565b600082825260208201905092915050565b600082825260208201905092915050565b600082825260208201905092915050565b600081905092915050565b60006152508261530d565b915061525b8361530d565b9250827fffffffffffffffffffffffffffffffffffffffffffffffffffffffffffffffff038211156152905761528f615405565b5b828201905092915050565b60006152a68261530d565b91506152b18361530d565b9250828210156152c4576152c3615405565b5b828203905092915050565b60006152da826152ed565b9050919050565b60008115159050919050565b600073ffffffffffffffffffffffffffffffffffffffff82169050919050565b6000819050919050565b82818337600083830152505050565b60005b83811015615344578082015181840152602081019050615329565b83811115615353576000848401525b50505050565b6000600282049050600182168061537157607f821691505b6020821081141561538557615384615434565b5b50919050565b61539482615509565b810181811067ffffffffffffffff821117156153b3576153b26154c1565b5b80604052505050565b60006153c78261530d565b91507fffffffffffffffffffffffffffffffffffffffffffffffffffffffffffffffff8214156153fa576153f9615405565b5b600182019050919050565b7f4e487b7100000000000000000000000000000000000000000000000000000000600052601160045260246000fd5b7f4e487b7100000000000000000000000000000000000000000000000000000000600052602260045260246000fd5b7f4e487b7100000000000000000000000000000000000000000000000000000000600052603160045260246000fd5b7f4e487b7100000000000000000000000000000000000000000000000000000000600052603260045260246000fd5b7f4e487b7100000000000000000000000000000000000000000000000000000000600052604160045260246000fd5b600080fd5b600080fd5b600080fd5b600080fd5b600080fd5b6000601f19601f8301169050919050565b7f5768656e2073657474696e672074686520707265666572656e6365206c65766560008201527f6c206f6620636f75727365732c206974206973206e656365737361727920746f60208201527f206861766520616e20657175616c206e756d626572206f6620636f7572736573604082015250565b7fe8afa5e78fade7baa7e5b7b2e7bb8fe68993e588860000000000000000000000600082015250565b7f436f75727365206e6f7420666f756e6400000000000000000000000000000000600082015250565b7fe8afa5e88081e5b888e5b7b2e7bb8fe68993e588860000000000000000000000600082015250565b7f6d7573742075706461746520616c6c20636f7572736520737569746162696c6960008201527f7479000000000000000000000000000000000000000000000000000000000000602082015250565b7fe8afa5e79da3e5afbce5b7b2e7bb8fe8af84e588860000000000000000000000600082015250565b7f5265616368657220446972656374696f6e206e6f7420666f756e640000000000600082015250565b7f4f6e6c7920726567697374657265642074656163686572732063616e2063616c60008201527f6c20746869732066756e6374696f6e0000000000000000000000000000000000602082015250565b7f5768656e2073657474696e672074686520737569746162696c697479206c657660008201527f656c206f6620636f75727365732c206974206973206e6563657373617279207460208201527f6f206861766520616e20657175616c206e756d626572206f6620636f7572736560408201527f7300000000000000000000000000000000000000000000000000000000000000606082015250565b61579e816152cf565b81146157a957600080fd5b50565b6157b58161530d565b81146157c057600080fd5b5056fea26469706673582212207bdaf21128aa593859501e68219d5d90112eccec78fd55e732c6fc2891686e4f64736f6c63430008070033",
  "immutableReferences": {},
  "source": "// SPDX-License-Identifier: MIT\r\npragma solidity ^0.8.7;\r\n\r\ncontract ICourseAllocation {\r\n    // \r\n    struct Teacher {\r\n        uint256 id;\r\n        string name;\r\n        string[] researchDrection;\r\n        uint256[] paperCount;\r\n        address addr;\r\n        uint256[] assignedCourses;\r\n        uint256[] reallyAssignedCourses;\r\n        uint256 suitabilityWeight;\r\n        uint256 transferCourseCoins;\r\n        uint256 value;\r\n        mapping(uint256 => uint256) courseSuitabilities;\r\n        mapping(uint256 => uint256) coursePreferences;\r\n    }\r\n\r\n    // \r\n    struct Agent {\r\n        uint256 id;\r\n        string name;\r\n        address addr;\r\n        uint256 value;\r\n        uint256[] assignedCourses;\r\n        mapping(uint256 => uint256) courseSuitabilities;\r\n    }\r\n\r\n    // \r\n    struct Supervisor {\r\n        uint256 id;\r\n        string name;\r\n        address addr;\r\n        mapping(uint256 => uint256) courseScores;\r\n    }\r\n\r\n    // \r\n    struct Course {\r\n        uint256 id;\r\n        string name;\r\n        uint256 importance;\r\n        uint256[] assignedTeacherId;\r\n        uint256[] assignedAgentId;\r\n    }\r\n\r\n    struct CourseScore {\r\n        uint256 id; // id\r\n        uint256 totalScore;\r\n        uint256[] classScores;\r\n        mapping(uint256 => uint256) giveScoreClassIdExists;\r\n        uint256[] teacherScores;\r\n        mapping(uint256 => uint256) giveScoreTeacherIdExists;\r\n        uint256[] supervisorScores;\r\n        mapping(uint256 => uint256) giveScoreSupervisorIdExists;\r\n    }\r\n    // \r\n    string public ScoreTypeChioce;\r\n\r\n    // \r\n    uint256 public totalWeight;\r\n\r\n    //  => ID\r\n    mapping(address => uint256) public addressToTeacherId;\r\n\r\n    //  => ID\r\n    mapping(address => uint256) public addressToAgentId;\r\n\r\n    //  => ID\r\n    mapping(address => uint256) public addressToClassId;\r\n\r\n    //  => ID\r\n    mapping(address => uint256) public addressToSupervisorId;\r\n\r\n    // ID => \r\n    mapping(uint256 => Teacher) public teachers;\r\n\r\n    // ID => \r\n    mapping(uint256 => Agent) public agents;\r\n\r\n    // ID => \r\n    mapping(uint256 => Supervisor) public supervisors;\r\n\r\n    // ID => \r\n    mapping(uint256 => Course) public courses;\r\n\r\n    // ID => \r\n    mapping(uint256 => CourseScore) public courseScores;\r\n\r\n    // ID\r\n    uint256 public teacherCount;\r\n\r\n    // ID\r\n    uint256 public agentCount;\r\n\r\n    // ID\r\n    uint256 public classCount;\r\n\r\n    // ID\r\n    uint256 public courseCount;\r\n\r\n    // ID\r\n    uint256 public supervisorCount;\r\n\r\n    // ID\r\n    uint256[] public teacherIds;\r\n\r\n    // ID\r\n    uint256[] public agentIds;\r\n\r\n    // ID\r\n    uint256[] public courseIds;\r\n\r\n    // ID\r\n    uint256[] public classIds;\r\n\r\n    // ID\r\n    uint256[] public supervisorIds;\r\n\r\n    // \r\n    uint256 public transferCourseNumbers;\r\n\r\n    // \r\n    uint256 public transferCourseStartTime;\r\n\r\n    // \r\n    uint256 public transferCourseEndTime;\r\n\r\n    // \r\n    // event CourseImportanceSet(uint256 indexed courseId, uint256 importance);\r\n    // event SuitabilityUpdated(uint256 indexed courseId, uint256 suitability);\r\n    // event PreferenceUpdated(uint256 indexed teacherId, uint256 indexed courseId, uint256 preference);\r\n    // event ProposalCreated(uint256 proposalId, uint256 indexed courseId, uint256[] teacherIds); // \r\n    // event MachineProposal(uint256 proposalId, uint256 indexed courseId, uint256[] teacherIds, uint256[] teacherCounts); // \r\n    // event CourseAssignedToTeacher(uint256 indexed courseId, uint256 indexed teacherId); // \r\n\r\n    // \r\n    constructor() {}\r\n\r\n    // \r\n    modifier onlyTeacher() {\r\n        require(\r\n            addressToTeacherId[msg.sender] != 0,\r\n            \"Only registered teachers can call this function\"\r\n        );\r\n        _;\r\n    }\r\n\r\n    // ID\r\n    function setTeacherId(address teacherAddress, uint256 _TeacherId) public {\r\n        addressToTeacherId[teacherAddress] = _TeacherId;\r\n        teachers[_TeacherId].id = _TeacherId;\r\n        teacherIds.push(_TeacherId);\r\n    }\r\n\r\n    // \r\n    function removeTeacher(uint256 teacherId) public onlyTeacher {\r\n        teachers[teacherId].id = 0;\r\n        //  teacherIds  ID\r\n        for (uint256 i = 0; i < teacherIds.length; i++) {\r\n            if (teacherIds[i] == teacherId) {\r\n                //  ID \r\n                teacherIds[i] = teacherIds[teacherIds.length - 1];\r\n                // \r\n                teacherIds.pop();\r\n                break;\r\n            }\r\n        }\r\n    }\r\n\r\n    // \r\n    function setTeacherName(\r\n        uint256 teacherId,\r\n        string calldata _name\r\n    ) public onlyTeacher {\r\n        teachers[teacherId].name = _name;\r\n    }\r\n\r\n    // \r\n    function setTeacherAddress(\r\n        uint256 teacherId,\r\n        address _teacherAddress\r\n    ) public onlyTeacher {\r\n        teachers[teacherId].addr = _teacherAddress;\r\n    }\r\n\r\n    // \r\n    function addTeacherAssignedCourses(\r\n        uint256 teacherId,\r\n        uint256 _assignedCourses\r\n    ) public {\r\n        teachers[teacherId].assignedCourses.push(_assignedCourses);\r\n    }\r\n\r\n    // \r\n    function addTeacherResearchDirection(\r\n        uint256 teacherId,\r\n        string calldata _researchDirection\r\n    ) public {\r\n        teachers[teacherId].researchDrection.push(_researchDirection);\r\n    }\r\n\r\n    // \r\n    function addTeacherPaperCount(\r\n        uint256 teacherId,\r\n        uint256 _paperCount\r\n    ) public {\r\n        teachers[teacherId].paperCount.push(_paperCount);\r\n    }\r\n\r\n    // \r\n    function addTeacherReallyAssignedCourses(\r\n        uint256 teacherId,\r\n        uint256 _assignedCourses\r\n    ) public {\r\n        teachers[teacherId].reallyAssignedCourses.push(_assignedCourses);\r\n    }\r\n\r\n    // \r\n    function removeTeacherAssignedCourses(\r\n        uint256 teacherId,\r\n        uint256 _assignedCourses\r\n    ) public {\r\n        bool found = false;\r\n        uint256 indexToRemove;\r\n\r\n        //  ID \r\n        for (\r\n            uint256 i = 0;\r\n            i < teachers[teacherId].assignedCourses.length;\r\n            i++\r\n        ) {\r\n            if (teachers[teacherId].assignedCourses[i] == _assignedCourses) {\r\n                found = true;\r\n                indexToRemove = i;\r\n                break;\r\n            }\r\n        }\r\n\r\n        //  ID\r\n        if (found) {\r\n            // \r\n            teachers[teacherId].assignedCourses[indexToRemove] = teachers[\r\n                teacherId\r\n            ].assignedCourses[teachers[teacherId].assignedCourses.length - 1];\r\n            // \r\n            teachers[teacherId].assignedCourses.pop();\r\n        } else {\r\n            //  ID\r\n            revert(\"Course not found\");\r\n        }\r\n    }\r\n\r\n    // \r\n    function removeTeacherResearchDirection(\r\n        uint256 teacherId,\r\n        string calldata _researchDirection\r\n    ) public {\r\n        bool found = false;\r\n        uint256 indexToRemove;\r\n\r\n        //  ID \r\n        for (\r\n            uint256 i = 0;\r\n            i < teachers[teacherId].researchDrection.length;\r\n            i++\r\n        ) {\r\n            if (compareStrings(teacherId, i , _researchDirection)) {\r\n                found = true;\r\n                indexToRemove = i;\r\n                break;\r\n            }\r\n        }\r\n\r\n        //  ID\r\n        if (found) {\r\n            // \r\n            teachers[teacherId].researchDrection[indexToRemove] = teachers[\r\n                teacherId\r\n            ].researchDrection[teachers[teacherId].researchDrection.length - 1];\r\n            // \r\n            teachers[teacherId].researchDrection.pop();\r\n\r\n            // \r\n            teachers[teacherId].paperCount[indexToRemove] = teachers[\r\n                teacherId\r\n            ].paperCount[teachers[teacherId].paperCount.length - 1];\r\n            // \r\n            teachers[teacherId].paperCount.pop();\r\n\r\n        } else {\r\n            //  ID\r\n            revert(\"Reacher Direction not found\");\r\n        }\r\n    }\r\n\r\n    // \r\n    function compareStrings(uint256 teacherId, uint256 index, string calldata inputString) public view returns (bool) {\r\n        //  storage  calldata  memory\r\n        bytes32 storedHash = keccak256(abi.encodePacked(teachers[teacherId].researchDrection[index]));\r\n        bytes32 inputHash = keccak256(abi.encodePacked(inputString));\r\n\r\n        // \r\n        return storedHash == inputHash;\r\n    }\r\n\r\n    // \r\n    function removeTeacherReallyAssignedCourses(\r\n        uint256 teacherId,\r\n        uint256 _assignedCourses\r\n    ) public {\r\n        bool found = false;\r\n        uint256 indexToRemove;\r\n\r\n        //  ID \r\n        for (\r\n            uint256 i = 0;\r\n            i < teachers[teacherId].reallyAssignedCourses.length;\r\n            i++\r\n        ) {\r\n            if (\r\n                teachers[teacherId].reallyAssignedCourses[i] == _assignedCourses\r\n            ) {\r\n                found = true;\r\n                indexToRemove = i;\r\n                break;\r\n            }\r\n        }\r\n\r\n        //  ID\r\n        if (found) {\r\n            // \r\n            teachers[teacherId].reallyAssignedCourses[indexToRemove] = teachers[\r\n                teacherId\r\n            ].reallyAssignedCourses[\r\n                    teachers[teacherId].reallyAssignedCourses.length - 1\r\n                ];\r\n            // \r\n            teachers[teacherId].reallyAssignedCourses.pop();\r\n        } else {\r\n            //  ID\r\n            revert(\"Course not found\");\r\n        }\r\n    }\r\n\r\n    // \r\n    function setTeacherSuitabilityWeight(\r\n        uint256 teacherId,\r\n        uint256 _suitabilityWeight\r\n    ) public onlyTeacher {\r\n        totalWeight -= teachers[teacherId].suitabilityWeight;\r\n        teachers[teacherId].suitabilityWeight = _suitabilityWeight;\r\n        totalWeight += teachers[teacherId].suitabilityWeight;\r\n    }\r\n\r\n    // \r\n    function setTeacherTransferCourseCoins(\r\n        uint256 teacherId,\r\n        uint256 _transferCourseCoins\r\n    ) public onlyTeacher {\r\n        teachers[teacherId].transferCourseCoins = _transferCourseCoins;\r\n    }\r\n\r\n    // \r\n    function setTeacherValue(\r\n        uint256 teacherId,\r\n        uint256 _value\r\n    ) public onlyTeacher {\r\n        teachers[teacherId].value = _value;\r\n    }\r\n\r\n    // \r\n    function setAgentValue(uint256 agentId, uint256 _value) public {\r\n        agents[agentId].value = _value;\r\n    }\r\n\r\n    // \r\n    function setAllTeacherCourseSuitability(\r\n        uint256 teacherId,\r\n        uint256[] calldata _suitabilities\r\n    ) public onlyTeacher {\r\n        require(\r\n            _suitabilities.length == courseIds.length,\r\n            \"When setting the suitability level of courses, it is necessary to have an equal number of courses\"\r\n        );\r\n        for (\r\n            uint256 courseIndex = 0;\r\n            courseIndex < courseIds.length;\r\n            courseIndex++\r\n        ) {\r\n            teachers[teacherId].courseSuitabilities[\r\n                courseIds[courseIndex]\r\n            ] = _suitabilities[courseIndex];\r\n        }\r\n    }\r\n\r\n    // \r\n    function setTeacherCourseSuitability(\r\n        uint256 teacherId,\r\n        uint256 courseId,\r\n        uint256 _suitability\r\n    ) public {\r\n        teachers[teacherId].courseSuitabilities[courseId] = _suitability;\r\n    }\r\n\r\n    // \r\n    function setAllTeacherCoursePreferences(\r\n        uint256 teacherId,\r\n        uint256[] calldata _preferences\r\n    ) public onlyTeacher {\r\n        require(\r\n            _preferences.length == courseIds.length,\r\n            \"When setting the preference level of courses, it is necessary to have an equal number of courses\"\r\n        );\r\n        for (\r\n            uint256 courseIndex = 0;\r\n            courseIndex < courseIds.length;\r\n            courseIndex++\r\n        ) {\r\n            teachers[teacherId].coursePreferences[\r\n                courseIds[courseIndex]\r\n            ] = _preferences[courseIndex];\r\n        }\r\n    }\r\n\r\n    // \r\n    function setTeacherCoursePreferences(\r\n        uint256 teacherId,\r\n        uint256 courseId,\r\n        uint256 _preference\r\n    ) public onlyTeacher {\r\n        teachers[teacherId].coursePreferences[courseId] = _preference;\r\n    }\r\n\r\n    // ID\r\n    function setAgentId(address agentAddress, uint256 _agentId) public {\r\n        addressToAgentId[agentAddress] = _agentId;\r\n        agents[_agentId].id = _agentId;\r\n        agentIds.push(_agentId);\r\n    }\r\n\r\n    // \r\n    function removeAgent(uint256 agentId) public {\r\n        agents[agentId].id = 0;\r\n        //  agentIds  ID\r\n        for (uint256 i = 0; i < agentIds.length; i++) {\r\n            if (agentIds[i] == agentId) {\r\n                //  ID \r\n                agentIds[i] = agentIds[agentIds.length - 1];\r\n                // \r\n                agentIds.pop();\r\n                break;\r\n            }\r\n        }\r\n    }\r\n\r\n    // \r\n    function setAgentName(uint256 agentId, string calldata _name) public {\r\n        agents[agentId].name = _name;\r\n    }\r\n\r\n    // \r\n    function setAgentAddress(uint256 agentId, address _agentAddress) public {\r\n        agents[agentId].addr = _agentAddress;\r\n    }\r\n\r\n    // \r\n    function addAgentAssignedCourses(\r\n        uint256 agentId,\r\n        uint256 _assignedCourses\r\n    ) public {\r\n        agents[agentId].assignedCourses.push(_assignedCourses);\r\n    }\r\n\r\n    // \r\n    function removeAgentAssignedCourses(\r\n        uint256 agentId,\r\n        uint256 _assignedCourses\r\n    ) public {\r\n        bool found = false;\r\n        uint256 indexToRemove;\r\n\r\n        //  ID \r\n        for (uint256 i = 0; i < agents[agentId].assignedCourses.length; i++) {\r\n            if (agents[agentId].assignedCourses[i] == _assignedCourses) {\r\n                found = true;\r\n                indexToRemove = i;\r\n                break;\r\n            }\r\n        }\r\n\r\n        //  ID\r\n        if (found) {\r\n            // \r\n            agents[agentId].assignedCourses[indexToRemove] = agents[agentId]\r\n                .assignedCourses[agents[agentId].assignedCourses.length - 1];\r\n            // \r\n            agents[agentId].assignedCourses.pop();\r\n        } else {\r\n            //  ID\r\n            revert(\"Course not found\");\r\n        }\r\n    }\r\n\r\n    // \r\n    function setAgentCourseSuitability(\r\n        uint256 agentId,\r\n        uint256 _courseId,\r\n        uint256 _suitability\r\n    ) public {\r\n        agents[agentId].courseSuitabilities[_courseId] = _suitability;\r\n    }\r\n\r\n    // \r\n    function setAllAgentCourseSuitability(\r\n        uint256 agentId,\r\n        uint256[] calldata _suitabilities\r\n    ) public {\r\n        require(\r\n            _suitabilities.length == courseIds.length,\r\n            \"When setting the suitability level of courses, it is necessary to have an equal number of courses\"\r\n        );\r\n        for (\r\n            uint256 courseIndex = 0;\r\n            courseIndex < courseIds.length;\r\n            courseIndex++\r\n        ) {\r\n            agents[agentId].courseSuitabilities[\r\n                courseIds[courseIndex]\r\n            ] = _suitabilities[courseIndex];\r\n        }\r\n    }\r\n\r\n    // ID\r\n    function setClassId(address classAddress, uint256 _id) public {\r\n        addressToClassId[classAddress] = _id;\r\n        classIds.push(_id);\r\n    }\r\n\r\n    // \r\n    function removeClass(uint256 classId) public {\r\n        //  classIds  ID\r\n        for (uint256 i = 0; i < classIds.length; i++) {\r\n            if (classIds[i] == classId) {\r\n                //  ID \r\n                classIds[i] = classIds[classIds.length - 1];\r\n                // \r\n                classIds.pop();\r\n                break;\r\n            }\r\n        }\r\n    }\r\n\r\n    // ID\r\n    function setCourseId(uint256 courseId) public {\r\n        courses[courseId].id = courseId;\r\n        courseIds.push(courseId);\r\n    }\r\n\r\n    // \r\n    function removeCourse(uint256 courseId) public {\r\n        //  classIds  ID\r\n        for (uint256 i = 0; i < courseIds.length; i++) {\r\n            if (courseIds[i] == courseId) {\r\n                //  ID \r\n                courseIds[i] = courseIds[courseIds.length - 1];\r\n                // \r\n                courseIds.pop();\r\n                break;\r\n            }\r\n        }\r\n    }\r\n\r\n    // \r\n    function setCourseName(uint256 courseId, string calldata _name) public {\r\n        courses[courseId].name = _name;\r\n    }\r\n\r\n    // \r\n    function setCourseImportance(uint256 courseId, uint256 _importance) public {\r\n        courses[courseId].importance = _importance;\r\n    }\r\n\r\n    // \r\n    function setAllCourseImportance(uint256[] memory _importances) public {\r\n        require(\r\n            _importances.length == courseIds.length,\r\n            \"must update all course suitability\"\r\n        );\r\n        // \r\n        for (\r\n            uint256 courseIndex = 0;\r\n            courseIndex < courseIds.length;\r\n            courseIndex++\r\n        ) {\r\n            courses[courseIds[courseIndex]].importance = _importances[\r\n                courseIndex\r\n            ];\r\n        }\r\n    }\r\n\r\n    // ID\r\n    function addCourseAssignedTeacherId(\r\n        uint256 courseId,\r\n        uint256 _teacherId\r\n    ) public {\r\n        courses[courseId].assignedTeacherId.push(_teacherId);\r\n    }\r\n\r\n    // ID\r\n    function addCourseAssignedAgentId(\r\n        uint256 courseId,\r\n        uint256 _agentId\r\n    ) public {\r\n        courses[courseId].assignedAgentId.push(_agentId);\r\n    }\r\n\r\n    // \r\n    function removeCourseAssignedTeacherId(\r\n        uint256 courseId,\r\n        uint256 _teacherId\r\n    ) public {\r\n        bool found = false;\r\n        uint256 indexToRemove;\r\n\r\n        //  ID \r\n        for (\r\n            uint256 i = 0;\r\n            i < courses[courseId].assignedTeacherId.length;\r\n            i++\r\n        ) {\r\n            if (courses[courseId].assignedTeacherId[i] == _teacherId) {\r\n                found = true;\r\n                indexToRemove = i;\r\n                break;\r\n            }\r\n        }\r\n\r\n        //  ID\r\n        if (found) {\r\n            // \r\n            courses[courseId].assignedTeacherId[indexToRemove] = courses[\r\n                courseId\r\n            ].assignedTeacherId[courses[courseId].assignedTeacherId.length - 1];\r\n            // \r\n            courses[courseId].assignedTeacherId.pop();\r\n        } else {\r\n            //  ID\r\n            revert(\"Course not found\");\r\n        }\r\n    }\r\n\r\n    // \r\n    function removeCourseAssignedAgentId(\r\n        uint256 courseId,\r\n        uint256 _agentId\r\n    ) public {\r\n        bool found = false;\r\n        uint256 indexToRemove;\r\n\r\n        //  ID \r\n        for (uint256 i = 0; i < courses[courseId].assignedAgentId.length; i++) {\r\n            if (courses[courseId].assignedAgentId[i] == _agentId) {\r\n                found = true;\r\n                indexToRemove = i;\r\n                break;\r\n            }\r\n        }\r\n\r\n        //  ID\r\n        if (found) {\r\n            // \r\n            courses[courseId].assignedAgentId[indexToRemove] = courses[courseId]\r\n                .assignedAgentId[courses[courseId].assignedAgentId.length - 1];\r\n            // \r\n            courses[courseId].assignedAgentId.pop();\r\n        } else {\r\n            //  ID\r\n            revert(\"Course not found\");\r\n        }\r\n    }\r\n\r\n    // // \r\n    // function setCourseIsAgentSuitable(\r\n    //     uint256 courseId,\r\n    //     bool _isAgentSuitable\r\n    // ) public {\r\n    //     courses[courseId].isAgentSuitable = _isAgentSuitable;\r\n    // }\r\n\r\n    // \r\n    function setTeacherCount(uint256 _teacherCount) public {\r\n        teacherCount = _teacherCount;\r\n    }\r\n\r\n    // \r\n    function setAgentCount(uint256 _agentCount) public {\r\n        agentCount = _agentCount;\r\n    }\r\n\r\n    // \r\n    function setClassCount(uint256 _classCount) public {\r\n        classCount = _classCount;\r\n    }\r\n\r\n    // \r\n    function setCourseCount(uint256 _courseCount) public {\r\n        courseCount = _courseCount;\r\n    }\r\n\r\n    // \r\n    function getTeacherSuitability(\r\n        uint256 _teacherId,\r\n        uint256 courseId\r\n    ) public view returns (uint256) {\r\n        return teachers[_teacherId].courseSuitabilities[courseId];\r\n    }\r\n\r\n    // \r\n    function getAgentSuitability(\r\n        uint256 _agentId,\r\n        uint256 courseId\r\n    ) public view returns (uint256) {\r\n        return agents[_agentId].courseSuitabilities[courseId];\r\n    }\r\n\r\n    // \r\n    function getPreference(\r\n        uint256 _teacherId,\r\n        uint256 courseId\r\n    ) public view returns (uint256) {\r\n        return teachers[_teacherId].coursePreferences[courseId];\r\n    }\r\n\r\n    // \r\n    function getTeacherAssignedCourses(\r\n        uint256 _teacherId\r\n    ) public view returns (uint256[] memory) {\r\n        return teachers[_teacherId].assignedCourses;\r\n    }\r\n\r\n    // \r\n    function getTeacherReallyAssignedCourses(\r\n        uint256 _teacherId\r\n    ) public view returns (uint256[] memory) {\r\n        return teachers[_teacherId].reallyAssignedCourses;\r\n    }\r\n\r\n    // \r\n    function getTeacherResearchDirection(\r\n        uint256 _teacherId\r\n    ) public view returns (string[] memory) {\r\n        return teachers[_teacherId].researchDrection;\r\n    }\r\n\r\n    // \r\n    function getTeacherPaperCount(\r\n        uint256 _teacherId\r\n    ) public view returns (uint256[] memory) {\r\n        return teachers[_teacherId].paperCount;\r\n    }\r\n\r\n    // \r\n    function getAgentAssignedCourses(\r\n        uint256 _agentId\r\n    ) public view returns (uint256[] memory) {\r\n        return agents[_agentId].assignedCourses;\r\n    }\r\n\r\n    // \r\n    function getCoursesAssignedTeacher(\r\n        uint256 _courseId\r\n    ) public view returns (uint256[] memory) {\r\n        return courses[_courseId].assignedTeacherId;\r\n    }\r\n\r\n    // \r\n    function getCoursesAssignedAgent(\r\n        uint256 _courseId\r\n    ) public view returns (uint256[] memory) {\r\n        return courses[_courseId].assignedAgentId;\r\n    }\r\n\r\n    // \r\n    function getCourseImportance(uint courseId) external view returns (uint) {\r\n        return courses[courseId].importance;\r\n    }\r\n\r\n    // // \r\n    // function getCourseIsAgentSuitable(\r\n    //     uint courseId\r\n    // ) external view returns (bool) {\r\n    //     return courses[courseId].isAgentSuitable;\r\n    // }\r\n\r\n    function getTeacherIds() public view returns (uint256[] memory) {\r\n        return teacherIds;\r\n    }\r\n\r\n    function getAgentIds() public view returns (uint256[] memory) {\r\n        return agentIds;\r\n    }\r\n\r\n    function getCourseIds() public view returns (uint256[] memory) {\r\n        return courseIds;\r\n    }\r\n\r\n    function getClassIds() public view returns (uint256[] memory) {\r\n        return classIds;\r\n    }\r\n\r\n    function addCourseClassScores(\r\n        uint256 courseId,\r\n        uint256 classId,\r\n        uint256 score\r\n    ) public {\r\n        require(\r\n            courseScores[courseId].giveScoreClassIdExists[classId] == 0,\r\n            unicode\"\"\r\n        );\r\n        courseScores[courseId].giveScoreClassIdExists[classId] = score;\r\n        courseScores[courseId].classScores.push(score);\r\n    }\r\n\r\n    function getGiveScoreClassIdExists(\r\n        uint256 courseId,\r\n        uint256 classId\r\n    ) public view returns (uint256) {\r\n        return courseScores[courseId].giveScoreClassIdExists[classId];\r\n    }\r\n\r\n    // \r\n    function removeCourseClassScores(\r\n        uint256 courseId,\r\n        uint256[] memory classIds_\r\n    ) public {\r\n        for (uint256 i = 0; i < classIds_.length; i++) {\r\n            courseScores[courseId].giveScoreClassIdExists[classIds_[i]] = 0;\r\n        }\r\n        delete courseScores[courseId].classScores;\r\n    }\r\n\r\n    function getCourseClassScores(\r\n        uint256 courseId\r\n    ) public view returns (uint256[] memory) {\r\n        return courseScores[courseId].classScores;\r\n    }\r\n\r\n    function addTeacherScores(\r\n        uint256 courseId,\r\n        uint256 teacherId,\r\n        uint256 score\r\n    ) public {\r\n        require(\r\n            courseScores[courseId].giveScoreTeacherIdExists[teacherId] == 0,\r\n            unicode\"\"\r\n        );\r\n        courseScores[courseId].giveScoreTeacherIdExists[teacherId] = score;\r\n        courseScores[courseId].teacherScores.push(score);\r\n    }\r\n\r\n    function removeTeacherScores(\r\n        uint256 courseId,\r\n        uint256[] memory teacherIds_\r\n    ) public {\r\n        for (uint256 i = 0; i < teacherIds_.length; i++) {\r\n            courseScores[courseId].giveScoreTeacherIdExists[teacherIds_[i]] = 0;\r\n        }\r\n        delete courseScores[courseId].teacherScores;\r\n    }\r\n\r\n    function getTeacherScores(uint256 courseId) public view returns (uint256[] memory) {\r\n        return courseScores[courseId].teacherScores;\r\n    }\r\n\r\n    function getGiveScoreTeacherIdExists(\r\n        uint256 courseId,\r\n        uint256 teacherId \r\n    ) public view returns (uint256) {\r\n        return courseScores[courseId].giveScoreTeacherIdExists[teacherId]; \r\n    }\r\n\r\n    function setCourseTotalScore(uint256 courseId, uint256 score) public {\r\n        courseScores[courseId].totalScore = score;\r\n    }\r\n\r\n    function addCourseSupervisorScores(\r\n        uint256 courseId,\r\n        uint256 supervisorId,\r\n        uint256 score\r\n    ) public {\r\n        require(\r\n            courseScores[courseId].giveScoreSupervisorIdExists[supervisorId] ==\r\n                0,\r\n            unicode\"\"\r\n        );\r\n        courseScores[courseId].giveScoreSupervisorIdExists[\r\n            supervisorId\r\n        ] = score;\r\n        courseScores[courseId].supervisorScores.push(score);\r\n    }\r\n\r\n    function removeCourseSupervisorScores(\r\n        uint256 courseId,\r\n        uint256[] memory supervisorIds_ \r\n    ) public {\r\n        for (uint256 i = 0; i < supervisorIds_.length; i++) {\r\n            courseScores[courseId].giveScoreSupervisorIdExists[supervisorIds_[i]] = 0;\r\n        }\r\n        delete courseScores[courseId].supervisorScores;\r\n    }\r\n\r\n    function getGiveScoreSupervisorIdExists(\r\n        uint256 courseId,\r\n        uint256 supervisorId\r\n    ) public view returns (uint256) {\r\n        return courseScores[courseId].giveScoreSupervisorIdExists[supervisorId];\r\n    }\r\n\r\n    function getCourseSupervisorScores(\r\n        uint256 courseId\r\n    ) public view returns (uint256[] memory) {\r\n        return courseScores[courseId].supervisorScores;\r\n    }\r\n\r\n    function addSupervisorId(uint256 supervisorId) public {\r\n        supervisorIds.push(supervisorId);\r\n        supervisorCount++;\r\n    }\r\n\r\n    function getSupervisorIds() public view returns (uint256[] memory) {\r\n        return supervisorIds;\r\n    }\r\n\r\n    function setSupervisorId(address supervisor, uint256 supervisorId) public {\r\n        addressToSupervisorId[supervisor] = supervisorId;\r\n        supervisors[supervisorId].id = supervisorId;\r\n        supervisors[supervisorId].addr = supervisor;\r\n    }\r\n\r\n    function setSupervisorName(\r\n        uint256 supervisorId,\r\n        string calldata _name\r\n    ) public {\r\n        supervisors[supervisorId].name = _name;\r\n    }\r\n\r\n    function setSupervisorsCourseScore(\r\n        uint256 supervisorId,\r\n        uint256 courseId,\r\n        uint256 score\r\n    ) public {\r\n        supervisors[supervisorId].courseScores[courseId] = score;\r\n    }\r\n\r\n    function settransferCourseNumbers(uint256 _transferCourseNumbers) public {\r\n        transferCourseNumbers = _transferCourseNumbers;\r\n    }\r\n\r\n    function settransferCourseStartTime(\r\n        uint256 _transferCourseStartTime\r\n    ) public {\r\n        transferCourseStartTime = _transferCourseStartTime;\r\n    }\r\n\r\n    function settransferCourseEndTime(uint256 _transferCourseEndTime) public {\r\n        transferCourseEndTime = _transferCourseEndTime;\r\n    }\r\n\r\n    function setScoreType(string calldata option) public {\r\n        ScoreTypeChioce = option;\r\n    }\r\n}\r\n",
  "sourcePath": "E:\\\\paper\\DAO\\git-DAO\\yzt\\Course-allocation\\project\\contracts\\ICourseAllocation.sol",
  "compiler": {
    "name": "solc",
    "version": "0.8.7+commit.e28d00a7.Emscripten.clang"
  },
  "schemaVersion": "3.4.16",
  "updatedAt": "2025-04-17T10:14:48.536Z",
  "networkType": "ethereum",
  "devdoc": {
    "kind": "dev",
    "methods": {},
    "version": 1
  },
  "userdoc": {
    "kind": "user",
    "methods": {},
    "version": 1
  }
}