{
  "contractName": "IStudentVote",
  "abi": [
    {
      "inputs": [
        {
          "internalType": "address",
          "name": "",
          "type": "address"
        }
      ],
      "name": "addressToClassId",
      "outputs": [
        {
          "internalType": "uint256",
          "name": "",
          "type": "uint256"
        }
      ],
      "stateMutability": "view",
      "type": "function",
      "constant": true
    },
    {
      "inputs": [
        {
          "internalType": "address",
          "name": "",
          "type": "address"
        }
      ],
      "name": "addressToStudentId",
      "outputs": [
        {
          "internalType": "uint256",
          "name": "",
          "type": "uint256"
        }
      ],
      "stateMutability": "view",
      "type": "function",
      "constant": true
    },
    {
      "inputs": [],
      "name": "classCount",
      "outputs": [
        {
          "internalType": "uint256",
          "name": "",
          "type": "uint256"
        }
      ],
      "stateMutability": "view",
      "type": "function",
      "constant": true
    },
    {
      "inputs": [
        {
          "internalType": "uint256",
          "name": "",
          "type": "uint256"
        }
      ],
      "name": "classIds",
      "outputs": [
        {
          "internalType": "uint256",
          "name": "",
          "type": "uint256"
        }
      ],
      "stateMutability": "view",
      "type": "function",
      "constant": true
    },
    {
      "inputs": [
        {
          "internalType": "uint256",
          "name": "",
          "type": "uint256"
        }
      ],
      "name": "classes",
      "outputs": [
        {
          "internalType": "address",
          "name": "addr",
          "type": "address"
        },
        {
          "internalType": "uint256",
          "name": "id",
          "type": "uint256"
        },
        {
          "internalType": "string",
          "name": "name",
          "type": "string"
        },
        {
          "internalType": "uint256",
          "name": "proposalCount",
          "type": "uint256"
        },
        {
          "internalType": "uint256",
          "name": "studentCount",
          "type": "uint256"
        },
        {
          "internalType": "uint256",
          "name": "weightForAutoVote",
          "type": "uint256"
        }
      ],
      "stateMutability": "view",
      "type": "function",
      "constant": true
    },
    {
      "inputs": [],
      "name": "studentCount",
      "outputs": [
        {
          "internalType": "uint256",
          "name": "",
          "type": "uint256"
        }
      ],
      "stateMutability": "view",
      "type": "function",
      "constant": true
    },
    {
      "inputs": [
        {
          "internalType": "uint256",
          "name": "",
          "type": "uint256"
        }
      ],
      "name": "studentIds",
      "outputs": [
        {
          "internalType": "uint256",
          "name": "",
          "type": "uint256"
        }
      ],
      "stateMutability": "view",
      "type": "function",
      "constant": true
    },
    {
      "inputs": [
        {
          "internalType": "uint256",
          "name": "",
          "type": "uint256"
        }
      ],
      "name": "students",
      "outputs": [
        {
          "internalType": "address",
          "name": "addr",
          "type": "address"
        },
        {
          "internalType": "uint256",
          "name": "id",
          "type": "uint256"
        },
        {
          "internalType": "string",
          "name": "name",
          "type": "string"
        },
        {
          "internalType": "uint256",
          "name": "classId",
          "type": "uint256"
        },
        {
          "internalType": "bool",
          "name": "isSetSuitability",
          "type": "bool"
        }
      ],
      "stateMutability": "view",
      "type": "function",
      "constant": true
    },
    {
      "inputs": [],
      "name": "getClassNum",
      "outputs": [
        {
          "internalType": "uint256",
          "name": "",
          "type": "uint256"
        }
      ],
      "stateMutability": "view",
      "type": "function",
      "constant": true
    },
    {
      "inputs": [],
      "name": "getClassWeight",
      "outputs": [
        {
          "internalType": "uint256",
          "name": "",
          "type": "uint256"
        }
      ],
      "stateMutability": "view",
      "type": "function",
      "constant": true
    },
    {
      "inputs": [
        {
          "internalType": "string",
          "name": "className",
          "type": "string"
        },
        {
          "internalType": "address",
          "name": "classAddress",
          "type": "address"
        }
      ],
      "name": "addClass",
      "outputs": [],
      "stateMutability": "nonpayable",
      "type": "function"
    },
    {
      "inputs": [
        {
          "internalType": "string",
          "name": "_name",
          "type": "string"
        }
      ],
      "name": "addStudentToClass",
      "outputs": [],
      "stateMutability": "nonpayable",
      "type": "function"
    },
    {
      "inputs": [
        {
          "internalType": "uint256",
          "name": "classId",
          "type": "uint256"
        },
        {
          "internalType": "string",
          "name": "_name",
          "type": "string"
        },
        {
          "internalType": "address",
          "name": "studentAddress",
          "type": "address"
        }
      ],
      "name": "registerStudent",
      "outputs": [],
      "stateMutability": "nonpayable",
      "type": "function"
    },
    {
      "inputs": [
        {
          "internalType": "string",
          "name": "_description",
          "type": "string"
        },
        {
          "internalType": "uint256",
          "name": "_voteforID",
          "type": "uint256"
        },
        {
          "internalType": "uint256[]",
          "name": "_votedIds",
          "type": "uint256[]"
        }
      ],
      "name": "createProposal",
      "outputs": [
        {
          "internalType": "uint256",
          "name": "",
          "type": "uint256"
        }
      ],
      "stateMutability": "nonpayable",
      "type": "function"
    },
    {
      "inputs": [
        {
          "internalType": "uint256",
          "name": "studentId",
          "type": "uint256"
        },
        {
          "internalType": "uint256",
          "name": "proposalId",
          "type": "uint256"
        },
        {
          "internalType": "uint256",
          "name": "optionId",
          "type": "uint256"
        }
      ],
      "name": "vote",
      "outputs": [],
      "stateMutability": "nonpayable",
      "type": "function"
    },
    {
      "inputs": [
        {
          "internalType": "uint256",
          "name": "studentId",
          "type": "uint256"
        },
        {
          "internalType": "uint256",
          "name": "proposalId",
          "type": "uint256"
        },
        {
          "internalType": "uint256",
          "name": "optionId",
          "type": "uint256"
        }
      ],
      "name": "studentVote",
      "outputs": [],
      "stateMutability": "nonpayable",
      "type": "function"
    },
    {
      "inputs": [
        {
          "internalType": "address",
          "name": "classAddress",
          "type": "address"
        },
        {
          "internalType": "uint256",
          "name": "proposalId",
          "type": "uint256"
        }
      ],
      "name": "getProposalResults",
      "outputs": [
        {
          "internalType": "uint256",
          "name": "winningOptionId",
          "type": "uint256"
        },
        {
          "internalType": "uint256",
          "name": "voteforID",
          "type": "uint256"
        }
      ],
      "stateMutability": "view",
      "type": "function",
      "constant": true
    },
    {
      "inputs": [],
      "name": "getStudents",
      "outputs": [
        {
          "internalType": "uint256[]",
          "name": "",
          "type": "uint256[]"
        }
      ],
      "stateMutability": "view",
      "type": "function",
      "constant": true
    },
    {
      "inputs": [
        {
          "internalType": "uint256",
          "name": "studentId",
          "type": "uint256"
        },
        {
          "internalType": "uint256[]",
          "name": "_suitabilities",
          "type": "uint256[]"
        },
        {
          "internalType": "uint256[]",
          "name": "courseIds",
          "type": "uint256[]"
        }
      ],
      "name": "setCourseSuitability",
      "outputs": [],
      "stateMutability": "nonpayable",
      "type": "function"
    },
    {
      "inputs": [
        {
          "internalType": "uint256[]",
          "name": "_suitabilities",
          "type": "uint256[]"
        },
        {
          "internalType": "uint256[]",
          "name": "courseIds",
          "type": "uint256[]"
        }
      ],
      "name": "studentSetCourseSuitability",
      "outputs": [],
      "stateMutability": "nonpayable",
      "type": "function"
    },
    {
      "inputs": [
        {
          "internalType": "uint256",
          "name": "studentId",
          "type": "uint256"
        },
        {
          "internalType": "uint256",
          "name": "courseId",
          "type": "uint256"
        }
      ],
      "name": "getStudentCourseSuitability",
      "outputs": [
        {
          "internalType": "uint256",
          "name": "",
          "type": "uint256"
        }
      ],
      "stateMutability": "view",
      "type": "function",
      "constant": true
    },
    {
      "inputs": [
        {
          "internalType": "uint256[]",
          "name": "courseIds",
          "type": "uint256[]"
        }
      ],
      "name": "getAverageSuitability",
      "outputs": [
        {
          "internalType": "uint256[]",
          "name": "",
          "type": "uint256[]"
        }
      ],
      "stateMutability": "view",
      "type": "function",
      "constant": true
    },
    {
      "inputs": [],
      "name": "getClassIds",
      "outputs": [
        {
          "internalType": "uint256[]",
          "name": "",
          "type": "uint256[]"
        }
      ],
      "stateMutability": "view",
      "type": "function",
      "constant": true
    },
    {
      "inputs": [],
      "name": "getStudentIds",
      "outputs": [
        {
          "internalType": "uint256[]",
          "name": "",
          "type": "uint256[]"
        }
      ],
      "stateMutability": "view",
      "type": "function",
      "constant": true
    },
    {
      "inputs": [
        {
          "internalType": "uint256",
          "name": "classId",
          "type": "uint256"
        },
        {
          "internalType": "uint256",
          "name": "proposalId",
          "type": "uint256"
        }
      ],
      "name": "getProposalInfo",
      "outputs": [
        {
          "internalType": "uint256[]",
          "name": "",
          "type": "uint256[]"
        },
        {
          "internalType": "uint256",
          "name": "",
          "type": "uint256"
        }
      ],
      "stateMutability": "view",
      "type": "function",
      "constant": true
    }
  ],
  "bytecode": "0x6080604052600a60085534801561001557600080fd5b50612e6c806100256000396000f3fe608060405234801561001057600080fd5b50600436106101735760003560e01c80638a6655d6116100de578063bca24bd411610097578063f1d064b311610071578063f1d064b31461048e578063f8fb3e62146104ac578063f9c229f2146104c8578063ffc35303146104f857610173565b8063bca24bd414610410578063d4e57ff014610440578063e581f9ee1461047057610173565b80638a6655d614610329578063945155ba14610345578063ab99631714610376578063af331f7914610394578063b18a993a146103b0578063b4e11343146103e057610173565b806350b384281161013057806350b384281461023c578063644915b21461025a5780636f28c35514610278578063817dbe9f146102a8578063824ec443146102dd57806386c34415146102f957610173565b806306ead22e146101785780631853699a146101ac57806318860d37146101c85780631b666d80146101e65780633560613d146102025780633b173bb31461021e575b600080fd5b610192600480360381019061018d91906122dc565b610529565b6040516101a3959493929190612699565b60405180910390f35b6101c660048036038101906101c19190612134565b610614565b005b6101d06107ce565b6040516101dd919061275b565b60405180910390f35b61020060048036038101906101fb91906121f5565b610826565b005b61021c60048036038101906102179190612309565b6109ca565b005b610226610afc565b60405161023391906128ad565b60405180910390f35b610244610b06565b60405161025191906128ad565b60405180910390f35b610262610b54565b60405161026f919061275b565b60405180910390f35b610292600480360381019061028d91906122dc565b610bac565b60405161029f91906128ad565b60405180910390f35b6102c260048036038101906102bd91906122dc565b610bd0565b6040516102d4969594939291906126f3565b60405180910390f35b6102f760048036038101906102f29190612443565b610cb4565b005b610313600480360381019061030e919061207e565b611057565b60405161032091906128ad565b60405180910390f35b610343600480360381019061033e9190612443565b61106f565b005b61035f600480360381019061035a9190612403565b61143b565b60405161036d92919061277d565b60405180910390f35b61037e6114ef565b60405161038b91906128ad565b60405180910390f35b6103ae60048036038101906103a99190612394565b6114f5565b005b6103ca60048036038101906103c59190612251565b61170b565b6040516103d791906128ad565b60405180910390f35b6103fa60048036038101906103f59190612403565b611882565b60405161040791906128ad565b60405180910390f35b61042a600480360381019061042591906122dc565b6118b9565b60405161043791906128ad565b60405180910390f35b61045a6004803603810190610455919061207e565b6118dd565b60405161046791906128ad565b60405180910390f35b6104786118f5565b60405161048591906128ad565b60405180910390f35b6104966118fb565b6040516104a3919061275b565b60405180910390f35b6104c660048036038101906104c191906121ac565b6119ab565b005b6104e260048036038101906104dd91906120eb565b611b67565b6040516104ef919061275b565b60405180910390f35b610512600480360381019061050d91906120ab565b611ce4565b6040516105209291906128c8565b60405180910390f35b60016020528060005260406000206000915090508060000160009054906101000a900473ffffffffffffffffffffffffffffffffffffffff169080600101549080600201805461057890612ad9565b80601f01602080910402602001604051908101604052809291908181526020018280546105a490612ad9565b80156105f15780601f106105c6576101008083540402835291602001916105f1565b820191906000526020600020905b8154815290600101906020018083116105d457829003601f168201915b5050505050908060030154908060040160009054906101000a900460ff16905085565b6000600360003373ffffffffffffffffffffffffffffffffffffffff1673ffffffffffffffffffffffffffffffffffffffff16815260200190815260200160002054905060075481111561069d576040517f08c379a00000000000000000000000000000000000000000000000000000000081526004016106949061286d565b60405180910390fd5b60008114156106e1576040517f08c379a00000000000000000000000000000000000000000000000000000000081526004016106d89061286d565b60405180910390fd5b600854835114610726576040517f08c379a000000000000000000000000000000000000000000000000000000000815260040161071d906127cd565b60405180910390fd5b600060016000838152602001908152602001600020905060018160040160006101000a81548160ff02191690831515021790555060005b84518110156107c75784818151811061077957610778612c12565b5b602002602001015182600501600086848151811061079a57610799612c12565b5b602002602001015181526020019081526020016000208190555080806107bf90612b3c565b91505061075d565b5050505050565b6060600480548060200260200160405190810160405280929190818152602001828054801561081c57602002820191906000526020600020905b815481526020019060010190808311610808575b5050505050905090565b6006600081548092919061083990612b3c565b9190505550600080600060065481526020019081526020016000206001015414610898576040517f08c379a000000000000000000000000000000000000000000000000000000000815260040161088f9061282d565b60405180910390fd5b600654600260008373ffffffffffffffffffffffffffffffffffffffff1673ffffffffffffffffffffffffffffffffffffffff1681526020019081526020016000208190555080600080600654815260200190815260200160002060000160006101000a81548173ffffffffffffffffffffffffffffffffffffffff021916908373ffffffffffffffffffffffffffffffffffffffff160217905550600654600080600654815260200190815260200160002060010181905550816000806006548152602001908152602001600020600201908051906020019061097d929190611ea3565b50600a600080600654815260200190815260200160002060070181905550600460065490806001815401808255809150506001900390600052602060002001600090919091909150555050565b600754831115610a0f576040517f08c379a0000000000000000000000000000000000000000000000000000000008152600401610a069061286d565b60405180910390fd5b600854825114610a54576040517f08c379a0000000000000000000000000000000000000000000000000000000008152600401610a4b906127cd565b60405180910390fd5b600060016000858152602001908152602001600020905060018160040160006101000a81548160ff02191690831515021790555060005b8351811015610af557838181518110610aa757610aa6612c12565b5b6020026020010151826005016000858481518110610ac857610ac7612c12565b5b60200260200101518152602001908152602001600020819055508080610aed90612b3c565b915050610a8b565b5050505050565b6000600654905090565b60008060005b600654811015610b4c576000808281526020019081526020016000206007015482610b3791906129c8565b91508080610b4490612b3c565b915050610b0c565b508091505090565b60606005805480602002602001604051908101604052809291908181526020018280548015610ba257602002820191906000526020600020905b815481526020019060010190808311610b8e575b5050505050905090565b60058181548110610bbc57600080fd5b906000526020600020016000915090505481565b60006020528060005260406000206000915090508060000160009054906101000a900473ffffffffffffffffffffffffffffffffffffffff1690806001015490806002018054610c1f90612ad9565b80601f0160208091040260200160405190810160405280929190818152602001828054610c4b90612ad9565b8015610c985780601f10610c6d57610100808354040283529160200191610c98565b820191906000526020600020905b815481529060010190602001808311610c7b57829003601f168201915b5050505050908060040154908060060154908060070154905086565b6000600160008581526020019081526020016000206003015490506000806000838152602001908152602001600020600101541415610d28576040517f08c379a0000000000000000000000000000000000000000000000000000000008152600401610d1f906127ed565b60405180910390fd5b60008060008381526020019081526020016000206003016000858152602001908152602001600020600001541415610d95576040517f08c379a0000000000000000000000000000000000000000000000000000000008152600401610d8c9061284d565b60405180910390fd5b600080600083815260200190815260200160002060030160008581526020019081526020016000206003018054905011610e04576040517f08c379a0000000000000000000000000000000000000000000000000000000008152600401610dfb9061280d565b60405180910390fd5b6000808281526020019081526020016000206003016000848152602001908152602001600020600501600085815260200190815260200160002060009054906101000a900460ff1615610e8c576040517f08c379a0000000000000000000000000000000000000000000000000000000008152600401610e839061288d565b60405180910390fd5b6000805b600080848152602001908152602001600020600301600086815260200190815260200160002060030180549050811015610f2d578360008085815260200190815260200160002060030160008781526020019081526020016000206003018281548110610f0057610eff612c12565b5b90600052602060002001541415610f1a5760019150610f2d565b8080610f2590612b3c565b915050610e90565b5080610f6e576040517f08c379a0000000000000000000000000000000000000000000000000000000008152600401610f65906127ad565b60405180910390fd5b600080838152602001908152602001600020600301600085815260200190815260200160002060040160008481526020019081526020016000206000815480929190610fb990612b3c565b919050555060016000808481526020019081526020016000206003016000868152602001908152602001600020600501600087815260200190815260200160002060006101000a81548160ff0219169083151502179055506000808381526020019081526020016000206003016000858152602001908152602001600020600601600081548092919061104b90612b3c565b91905055505050505050565b60036020528060005260406000206000915090505481565b6000600260003373ffffffffffffffffffffffffffffffffffffffff1673ffffffffffffffffffffffffffffffffffffffff168152602001908152602001600020549050600080600083815260200190815260200160002060010154141561110c576040517f08c379a0000000000000000000000000000000000000000000000000000000008152600401611103906127ed565b60405180910390fd5b60008060008381526020019081526020016000206003016000858152602001908152602001600020600001541415611179576040517f08c379a00000000000000000000000000000000000000000000000000000000081526004016111709061284d565b60405180910390fd5b6000806000838152602001908152602001600020600301600085815260200190815260200160002060030180549050116111e8576040517f08c379a00000000000000000000000000000000000000000000000000000000081526004016111df9061280d565b60405180910390fd5b6000808281526020019081526020016000206003016000848152602001908152602001600020600501600085815260200190815260200160002060009054906101000a900460ff1615611270576040517f08c379a00000000000000000000000000000000000000000000000000000000081526004016112679061288d565b60405180910390fd5b6000805b6000808481526020019081526020016000206003016000868152602001908152602001600020600301805490508110156113115783600080858152602001908152602001600020600301600087815260200190815260200160002060030182815481106112e4576112e3612c12565b5b906000526020600020015414156112fe5760019150611311565b808061130990612b3c565b915050611274565b5080611352576040517f08c379a0000000000000000000000000000000000000000000000000000000008152600401611349906127ad565b60405180910390fd5b60008083815260200190815260200160002060030160008581526020019081526020016000206004016000848152602001908152602001600020600081548092919061139d90612b3c565b919050555060016000808481526020019081526020016000206003016000868152602001908152602001600020600501600087815260200190815260200160002060006101000a81548160ff0219169083151502179055506000808381526020019081526020016000206003016000858152602001908152602001600020600601600081548092919061142f90612b3c565b91905055505050505050565b606060008060008581526020019081526020016000206003016000848152602001908152602001600020600301600080868152602001908152602001600020600301600085815260200190815260200160002060020154818054806020026020016040519081016040528092919081815260200182805480156114dd57602002820191906000526020600020905b8154815260200190600101908083116114c9575b50505050509150915091509250929050565b60065481565b600080600085815260200190815260200160002060010154141561154e576040517f08c379a0000000000000000000000000000000000000000000000000000000008152600401611545906127ed565b60405180910390fd5b6007600081548092919061156190612b3c565b9190505550600754600360008373ffffffffffffffffffffffffffffffffffffffff1673ffffffffffffffffffffffffffffffffffffffff168152602001908152602001600020819055508060016000600754815260200190815260200160002060000160006101000a81548173ffffffffffffffffffffffffffffffffffffffff021916908373ffffffffffffffffffffffffffffffffffffffff1602179055506007546001600060075481526020019081526020016000206001018190555081600160006007548152602001908152602001600020600201908051906020019061164e929190611ea3565b508260016000600754815260200190815260200160002060030181905550600060016000600754815260200190815260200160002060040160006101000a81548160ff021916908315150217905550600080848152602001908152602001600020600501600754908060018154018082558091505060019003906000526020600020016000909190919091505560056007549080600181540180825580915050600190039060005260206000200160009091909190915055505050565b600080600090506000600190505b6006548111611876576000806000838152602001908152602001600020905080600401600081548092919061174d90612b3c565b919050555060008160040154905080826003016000838152602001908152602001600020600001819055508782600301600083815260200190815260200160002060010190805190602001906117a4929190611ea3565b5060005b86518110156118405760008782815181106117c6576117c5612c12565b5b60200260200101511461182d578260030160008381526020019081526020016000206003018782815181106117fe576117fd612c12565b5b602002602001015190806001815401808255809150506001900390600052602060002001600090919091909150555b808061183890612b3c565b9150506117a8565b5086826003016000838152602001908152602001600020600201819055508093505050808061186e90612b3c565b915050611719565b50809150509392505050565b6000806001600085815260200190815260200160002090508060050160008481526020019081526020016000205491505092915050565b600481815481106118c957600080fd5b906000526020600020016000915090505481565b60026020528060005260406000206000915090505481565b60075481565b60606000600260003373ffffffffffffffffffffffffffffffffffffffff1673ffffffffffffffffffffffffffffffffffffffff1681526020019081526020016000205490506000808281526020019081526020016000206005018054806020026020016040519081016040528092919081815260200182805480156119a057602002820191906000526020600020905b81548152602001906001019080831161198c575b505050505091505090565b6000600260003373ffffffffffffffffffffffffffffffffffffffff1673ffffffffffffffffffffffffffffffffffffffff1681526020019081526020016000205490506000806000838152602001908152602001600020600101541415611a48576040517f08c379a0000000000000000000000000000000000000000000000000000000008152600401611a3f906127ed565b60405180910390fd5b60076000815480929190611a5b90612b3c565b919050555060075460016000600754815260200190815260200160002060010181905550816001600060075481526020019081526020016000206002019080519060200190611aab929190611ea3565b508060016000600754815260200190815260200160002060030181905550600060016000600754815260200190815260200160002060040160006101000a81548160ff0219169083151502179055506000808281526020019081526020016000206005016007549080600181540180825580915050600190039060005260206000200160009091909190915055600560075490806001815401808255809150506001900390600052602060002001600090919091909150555050565b6060600060085467ffffffffffffffff811115611b8757611b86612c41565b5b604051908082528060200260200182016040528015611bb55781602001602082028036833780820191505090505b5090506000600190505b6007548111611c7257600060016000838152602001908152602001600020905060005b600854811015611c5d57816005016000878381518110611c0557611c04612c12565b5b6020026020010151815260200190815260200160002054848281518110611c2f57611c2e612c12565b5b60200260200101818151611c4391906129c8565b915081815250508080611c5590612b3c565b915050611be2565b50508080611c6a90612b3c565b915050611bbf565b5060005b600854811015611cda57600754828281518110611c9657611c95612c12565b5b6020026020010151611ca89190612a1e565b828281518110611cbb57611cba612c12565b5b6020026020010181815250508080611cd290612b3c565b915050611c76565b5080915050919050565b6000806000600260008673ffffffffffffffffffffffffffffffffffffffff1673ffffffffffffffffffffffffffffffffffffffff1681526020019081526020016000205490506000806000838152602001908152602001600020600101541415611d84576040517f08c379a0000000000000000000000000000000000000000000000000000000008152600401611d7b906127ed565b60405180910390fd5b60008060008381526020019081526020016000206003016000868152602001908152602001600020600001541415611df1576040517f08c379a0000000000000000000000000000000000000000000000000000000008152600401611de89061284d565b60405180910390fd5b600080600083815260200190815260200160002060030160008681526020019081526020016000209050806002015492506000805b8260030180549050811015611e98576000836003018281548110611e4d57611e4c612c12565b5b90600052602060002001549050600084600401600083815260200190815260200160002054905083811115611e83578093508197505b50508080611e9090612b3c565b915050611e26565b505050509250929050565b828054611eaf90612ad9565b90600052602060002090601f016020900481019282611ed15760008555611f18565b82601f10611eea57805160ff1916838001178555611f18565b82800160010185558215611f18579182015b82811115611f17578251825591602001919060010190611efc565b5b509050611f259190611f29565b5090565b5b80821115611f42576000816000905550600101611f2a565b5090565b6000611f59611f5484612916565b6128f1565b90508083825260208201905082856020860282011115611f7c57611f7b612c75565b5b60005b85811015611fac5781611f928882612069565b845260208401935060208301925050600181019050611f7f565b5050509392505050565b6000611fc9611fc484612942565b6128f1565b905082815260208101848484011115611fe557611fe4612c7a565b5b611ff0848285612a97565b509392505050565b60008135905061200781612e08565b92915050565b600082601f83011261202257612021612c70565b5b8135612032848260208601611f46565b91505092915050565b600082601f8301126120505761204f612c70565b5b8135612060848260208601611fb6565b91505092915050565b60008135905061207881612e1f565b92915050565b60006020828403121561209457612093612c84565b5b60006120a284828501611ff8565b91505092915050565b600080604083850312156120c2576120c1612c84565b5b60006120d085828601611ff8565b92505060206120e185828601612069565b9150509250929050565b60006020828403121561210157612100612c84565b5b600082013567ffffffffffffffff81111561211f5761211e612c7f565b5b61212b8482850161200d565b91505092915050565b6000806040838503121561214b5761214a612c84565b5b600083013567ffffffffffffffff81111561216957612168612c7f565b5b6121758582860161200d565b925050602083013567ffffffffffffffff81111561219657612195612c7f565b5b6121a28582860161200d565b9150509250929050565b6000602082840312156121c2576121c1612c84565b5b600082013567ffffffffffffffff8111156121e0576121df612c7f565b5b6121ec8482850161203b565b91505092915050565b6000806040838503121561220c5761220b612c84565b5b600083013567ffffffffffffffff81111561222a57612229612c7f565b5b6122368582860161203b565b925050602061224785828601611ff8565b9150509250929050565b60008060006060848603121561226a57612269612c84565b5b600084013567ffffffffffffffff81111561228857612287612c7f565b5b6122948682870161203b565b93505060206122a586828701612069565b925050604084013567ffffffffffffffff8111156122c6576122c5612c7f565b5b6122d28682870161200d565b9150509250925092565b6000602082840312156122f2576122f1612c84565b5b600061230084828501612069565b91505092915050565b60008060006060848603121561232257612321612c84565b5b600061233086828701612069565b935050602084013567ffffffffffffffff81111561235157612350612c7f565b5b61235d8682870161200d565b925050604084013567ffffffffffffffff81111561237e5761237d612c7f565b5b61238a8682870161200d565b9150509250925092565b6000806000606084860312156123ad576123ac612c84565b5b60006123bb86828701612069565b935050602084013567ffffffffffffffff8111156123dc576123db612c7f565b5b6123e88682870161203b565b92505060406123f986828701611ff8565b9150509250925092565b6000806040838503121561241a57612419612c84565b5b600061242885828601612069565b925050602061243985828601612069565b9150509250929050565b60008060006060848603121561245c5761245b612c84565b5b600061246a86828701612069565b935050602061247b86828701612069565b925050604061248c86828701612069565b9150509250925092565b60006124a2838361267b565b60208301905092915050565b6124b781612a4f565b82525050565b60006124c882612983565b6124d281856129a6565b93506124dd83612973565b8060005b8381101561250e5781516124f58882612496565b975061250083612999565b9250506001810190506124e1565b5085935050505092915050565b61252481612a61565b82525050565b60006125358261298e565b61253f81856129b7565b935061254f818560208601612aa6565b61255881612c89565b840191505092915050565b60006125706011836129b7565b915061257b82612c9a565b602082019050919050565b60006125936021836129b7565b915061259e82612cc3565b604082019050919050565b60006125b66014836129b7565b91506125c182612d12565b602082019050919050565b60006125d96017836129b7565b91506125e482612d3b565b602082019050919050565b60006125fc6014836129b7565b915061260782612d64565b602082019050919050565b600061261f6017836129b7565b915061262a82612d8d565b602082019050919050565b60006126426016836129b7565b915061264d82612db6565b602082019050919050565b60006126656016836129b7565b915061267082612ddf565b602082019050919050565b61268481612a8d565b82525050565b61269381612a8d565b82525050565b600060a0820190506126ae60008301886124ae565b6126bb602083018761268a565b81810360408301526126cd818661252a565b90506126dc606083018561268a565b6126e9608083018461251b565b9695505050505050565b600060c08201905061270860008301896124ae565b612715602083018861268a565b8181036040830152612727818761252a565b9050612736606083018661268a565b612743608083018561268a565b61275060a083018461268a565b979650505050505050565b6000602082019050818103600083015261277581846124bd565b905092915050565b6000604082019050818103600083015261279781856124bd565b90506127a6602083018461268a565b9392505050565b600060208201905081810360008301526127c681612563565b9050919050565b600060208201905081810360008301526127e681612586565b9050919050565b60006020820190508181036000830152612806816125a9565b9050919050565b60006020820190508181036000830152612826816125cc565b9050919050565b60006020820190508181036000830152612846816125ef565b9050919050565b6000602082019050818103600083015261286681612612565b9050919050565b6000602082019050818103600083015261288681612635565b9050919050565b600060208201905081810360008301526128a681612658565b9050919050565b60006020820190506128c2600083018461268a565b92915050565b60006040820190506128dd600083018561268a565b6128ea602083018461268a565b9392505050565b60006128fb61290c565b90506129078282612b0b565b919050565b6000604051905090565b600067ffffffffffffffff82111561293157612930612c41565b5b602082029050602081019050919050565b600067ffffffffffffffff82111561295d5761295c612c41565b5b61296682612c89565b9050602081019050919050565b6000819050602082019050919050565b600081519050919050565b600081519050919050565b6000602082019050919050565b600082825260208201905092915050565b600082825260208201905092915050565b60006129d382612a8d565b91506129de83612a8d565b9250827fffffffffffffffffffffffffffffffffffffffffffffffffffffffffffffffff03821115612a1357612a12612b85565b5b828201905092915050565b6000612a2982612a8d565b9150612a3483612a8d565b925082612a4457612a43612bb4565b5b828204905092915050565b6000612a5a82612a6d565b9050919050565b60008115159050919050565b600073ffffffffffffffffffffffffffffffffffffffff82169050919050565b6000819050919050565b82818337600083830152505050565b60005b83811015612ac4578082015181840152602081019050612aa9565b83811115612ad3576000848401525b50505050565b60006002820490506001821680612af157607f821691505b60208210811415612b0557612b04612be3565b5b50919050565b612b1482612c89565b810181811067ffffffffffffffff82111715612b3357612b32612c41565b5b80604052505050565b6000612b4782612a8d565b91507fffffffffffffffffffffffffffffffffffffffffffffffffffffffffffffffff821415612b7a57612b79612b85565b5b600182019050919050565b7f4e487b7100000000000000000000000000000000000000000000000000000000600052601160045260246000fd5b7f4e487b7100000000000000000000000000000000000000000000000000000000600052601260045260246000fd5b7f4e487b7100000000000000000000000000000000000000000000000000000000600052602260045260246000fd5b7f4e487b7100000000000000000000000000000000000000000000000000000000600052603260045260246000fd5b7f4e487b7100000000000000000000000000000000000000000000000000000000600052604160045260246000fd5b600080fd5b600080fd5b600080fd5b600080fd5b600080fd5b6000601f19601f8301169050919050565b7f496e76616c6964206f7074696f6e204944000000000000000000000000000000600082015250565b7f537569746162696c697479206172726179206c656e677468206d69736d61746360008201527f6800000000000000000000000000000000000000000000000000000000000000602082015250565b7f436c61737320646f6573206e6f74206578697374000000000000000000000000600082015250565b7f50726f706f73616c20686173206e6f206f7074696f6e73000000000000000000600082015250565b7f436c61737320616c726561647920657869737473000000000000000000000000600082015250565b7f50726f706f73616c20646f6573206e6f74206578697374000000000000000000600082015250565b7f53747564656e7420646f6573206e6f7420657869737400000000000000000000600082015250565b7f596f75206861766520616c726561647920766f74656400000000000000000000600082015250565b612e1181612a4f565b8114612e1c57600080fd5b50565b612e2881612a8d565b8114612e3357600080fd5b5056fea2646970667358221220503f4086486a557b5b9637c601afe5c4b923a1afd7f577e11531618e22baab7764736f6c63430008070033",
  "immutableReferences": {},
  "source": "// SPDX-License-Identifier: MIT\r\npragma solidity ^0.8.7;\r\n\r\ninterface StudentVote {\r\n    function createProposal(string memory _description, uint256 _voteforID, uint256[] memory _votedIds) external returns (uint256);\r\n    function vote(uint256 studentId, uint256 proposalId, uint256 optionId) external;\r\n    function getProposalResults(address classAddress, uint256 proposalId) external view returns (uint256, uint256);\r\n    function getAverageSuitability(uint256[] memory courseIds) external view returns (uint256[] memory);\r\n    function getClassNum() external view returns (uint256);\r\n    function getClassWeight() external view returns (uint256);\r\n}\r\n\r\ncontract IStudentVote is StudentVote {\r\n    struct Student {\r\n        address addr;\r\n        uint256 id;\r\n        string name;\r\n        uint256 classId;\r\n        bool isSetSuitability;\r\n        mapping(uint256 => uint256) courseSuitability;\r\n    }\r\n\r\n    struct Class {\r\n        address addr;\r\n        uint256 id;\r\n        string name;\r\n        mapping(uint256 => Proposal) proposals;\r\n        uint256 proposalCount;\r\n        uint256[] studentsId;\r\n        uint256 studentCount;\r\n        uint256 weightForAutoVote;\r\n    }\r\n\r\n    struct Proposal {\r\n        uint256 id;\r\n        string description;\r\n        uint256 voteforID; // ID\r\n        uint256[] votedIds;\r\n        mapping(uint256 => uint256) voteIdToCount;\r\n        mapping(uint256 => bool) ifVote;\r\n        uint256 voteCount;\r\n    }\r\n\r\n    mapping(uint256 => Class) public classes;\r\n    mapping(uint256 => Student) public students;\r\n    mapping(address => uint256) public addressToClassId;\r\n    mapping(address => uint256) public addressToStudentId;\r\n    uint256[] public classIds;\r\n    uint256[] public studentIds;\r\n    uint256 public classCount;\r\n    uint256 public studentCount;\r\n    uint256 courseCount = 10;\r\n\r\n    function getClassNum() public view override returns(uint256) {\r\n        return classCount;\r\n    }\r\n\r\n    function getClassWeight() public view override returns(uint256) {\r\n        uint256 classWeights;\r\n        for(uint256 i = 0; i < classCount; i++){\r\n            classWeights += classes[i].weightForAutoVote;\r\n        }\r\n        return classWeights;\r\n    }\r\n\r\n    // \r\n    function addClass(string memory className, address classAddress) public {\r\n        classCount++;\r\n        require(classes[classCount].id == 0, \"Class already exists\");\r\n        addressToClassId[classAddress] = classCount;\r\n        classes[classCount].addr = classAddress;\r\n        classes[classCount].id = classCount;\r\n        classes[classCount].name = className;\r\n        classes[classCount].weightForAutoVote = 10;\r\n        classIds.push(classCount);\r\n    }\r\n\r\n    // \r\n    function addStudentToClass(string memory _name) public {\r\n        uint256 classId = addressToClassId[msg.sender];\r\n        require(classes[classId].id != 0, \"Class does not exist\");\r\n        studentCount++;\r\n        students[studentCount].id = studentCount;\r\n        students[studentCount].name = _name;\r\n        students[studentCount].classId = classId;\r\n        students[studentCount].isSetSuitability = false;\r\n        classes[classId].studentsId.push(studentCount);\r\n        studentIds.push(studentCount);\r\n    }\r\n\r\n    // \r\n    function registerStudent(uint256 classId, string memory _name, address studentAddress) public{\r\n        require(classes[classId].id != 0, \"Class does not exist\");\r\n        studentCount++;\r\n        addressToStudentId[studentAddress] = studentCount;\r\n        students[studentCount].addr = studentAddress;\r\n        students[studentCount].id = studentCount;\r\n        students[studentCount].name = _name;\r\n        students[studentCount].classId = classId;\r\n        students[studentCount].isSetSuitability = false;\r\n        classes[classId].studentsId.push(studentCount);\r\n        studentIds.push(studentCount);\r\n    }\r\n\r\n    // \r\n    function createProposal(string memory _description, uint256 _voteforID, uint256[] memory _votedIds) public override returns (uint256) {\r\n        uint256 newProposalID = 0;\r\n        for (uint256 i = 1; i <= classCount; i++) {\r\n            Class storage cls = classes[i];\r\n            cls.proposalCount++;\r\n            uint256 proposalId = cls.proposalCount;\r\n\r\n            cls.proposals[proposalId].id = proposalId;\r\n            cls.proposals[proposalId].description = _description;\r\n\r\n            for (uint256 j = 0; j < _votedIds.length; j++) {\r\n                if(_votedIds[j] != 0){\r\n                    cls.proposals[proposalId].votedIds.push(_votedIds[j]);\r\n                }\r\n            }\r\n\r\n            cls.proposals[proposalId].voteforID = _voteforID;\r\n            newProposalID = proposalId;\r\n        }\r\n        return newProposalID;\r\n    }\r\n\r\n    // \r\n    function vote(uint256 studentId, uint256 proposalId, uint256 optionId) public override {\r\n        uint256 classId = addressToClassId[msg.sender];\r\n        require(classes[classId].id != 0, \"Class does not exist\");\r\n        require(classes[classId].proposals[proposalId].id != 0, \"Proposal does not exist\");\r\n        require(classes[classId].proposals[proposalId].votedIds.length > 0, \"Proposal has no options\");\r\n        require(!classes[classId].proposals[proposalId].ifVote[studentId], \"You have already voted\");\r\n\r\n        bool optionExists = false;\r\n        for (uint256 i = 0; i < classes[classId].proposals[proposalId].votedIds.length; i++) {\r\n            if (classes[classId].proposals[proposalId].votedIds[i] == optionId) {\r\n                optionExists = true;\r\n                break;\r\n            }\r\n        }\r\n        require(optionExists, \"Invalid option ID\");\r\n\r\n        classes[classId].proposals[proposalId].voteIdToCount[optionId]++;\r\n        classes[classId].proposals[proposalId].ifVote[studentId] = true;\r\n        classes[classId].proposals[proposalId].voteCount++;\r\n    }\r\n\r\n    function studentVote(uint256 studentId, uint256 proposalId, uint256 optionId) public {\r\n        uint256 classId = students[studentId].classId;\r\n        require(classes[classId].id != 0, \"Class does not exist\");\r\n        require(classes[classId].proposals[proposalId].id != 0, \"Proposal does not exist\");\r\n        require(classes[classId].proposals[proposalId].votedIds.length > 0, \"Proposal has no options\");\r\n        require(!classes[classId].proposals[proposalId].ifVote[studentId], \"You have already voted\");\r\n\r\n        bool optionExists = false;\r\n        for (uint256 i = 0; i < classes[classId].proposals[proposalId].votedIds.length; i++) {\r\n            if (classes[classId].proposals[proposalId].votedIds[i] == optionId) {\r\n                optionExists = true;\r\n                break;\r\n            }\r\n        }\r\n        require(optionExists, \"Invalid option ID\");\r\n\r\n        classes[classId].proposals[proposalId].voteIdToCount[optionId]++;\r\n        classes[classId].proposals[proposalId].ifVote[studentId] = true;\r\n        classes[classId].proposals[proposalId].voteCount++;\r\n    }\r\n\r\n    // \r\n    function getProposalResults(address classAddress, uint256 proposalId) public view override returns (uint256 winningOptionId, uint256 voteforID) {\r\n        uint256 classId = addressToClassId[classAddress];\r\n        require(classes[classId].id != 0, \"Class does not exist\");\r\n        require(classes[classId].proposals[proposalId].id != 0, \"Proposal does not exist\");\r\n\r\n        Proposal storage proposal = classes[classId].proposals[proposalId];\r\n        voteforID = proposal.voteforID;\r\n\r\n        uint256 maxVoteCount = 0;\r\n        for (uint256 i = 0; i < proposal.votedIds.length; i++) {\r\n            uint256 optionId = proposal.votedIds[i];\r\n            uint256 voteCount = proposal.voteIdToCount[optionId];\r\n            if (voteCount > maxVoteCount) {\r\n                maxVoteCount = voteCount;\r\n                winningOptionId = optionId;\r\n            }\r\n        }\r\n    }\r\n\r\n    function getStudents() public view returns(uint256[] memory) {\r\n        uint classId = addressToClassId[msg.sender];\r\n        return classes[classId].studentsId;\r\n    }\r\n\r\n    // \r\n    function setCourseSuitability(uint256 studentId, uint256[] memory _suitabilities, uint256[] memory courseIds) public {\r\n        require(studentId <= studentCount, \"Student does not exist\");\r\n         // \r\n        require(_suitabilities.length == courseCount, \"Suitability array length mismatch\");\r\n        Student storage student = students[studentId];\r\n        student.isSetSuitability = true;\r\n        for(uint256 i = 0; i < _suitabilities.length; i++){\r\n            student.courseSuitability[courseIds[i]] =  _suitabilities[i] ;\r\n        }\r\n    }\r\n\r\n    function studentSetCourseSuitability(uint256[] memory _suitabilities, uint256[] memory courseIds) public {\r\n        uint256 studentId = addressToStudentId[msg.sender]; \r\n        require(studentId <= studentCount, \"Student does not exist\");\r\n        require(studentId != 0, \"Student does not exist\");\r\n         // \r\n        require(_suitabilities.length == courseCount, \"Suitability array length mismatch\");\r\n        Student storage student = students[studentId];\r\n        student.isSetSuitability = true;\r\n        for(uint256 i = 0; i < _suitabilities.length; i++){\r\n            student.courseSuitability[courseIds[i]] =  _suitabilities[i];\r\n        }\r\n    }\r\n\r\n    // \r\n    function getStudentCourseSuitability(uint256 studentId, uint256 courseId) public view returns(uint256) {\r\n        Student storage student = students[studentId];\r\n        return student.courseSuitability[courseId];\r\n    }\r\n\r\n    // \r\n    function getAverageSuitability(uint256[] memory courseIds) public view override returns(uint256[] memory) {\r\n        uint256[] memory totalCourseScore = new uint256[](courseCount);\r\n        for(uint256 i = 1; i <= studentCount; i++){\r\n            Student storage student = students[i];\r\n            for(uint256 j = 0; j < courseCount; j++){\r\n                totalCourseScore[j] += student.courseSuitability[courseIds[j]];\r\n            }\r\n        }\r\n        for(uint256 j = 0; j < courseCount; j++){\r\n                totalCourseScore[j] = totalCourseScore[j] / studentCount;\r\n        }\r\n        return totalCourseScore;\r\n    }\r\n\r\n    function getClassIds() public view returns(uint256[] memory) {\r\n        return classIds;\r\n    }\r\n\r\n    function getStudentIds() public view returns(uint256[] memory) {\r\n        return studentIds;\r\n    }\r\n\r\n    function getProposalInfo(uint256 classId, uint256 proposalId) public view returns(uint256[] memory, uint256) {\r\n        return (classes[classId].proposals[proposalId].votedIds, classes[classId].proposals[proposalId].voteforID);\r\n    } \r\n}",
  "sourcePath": "D:\\vscode\\\\course\\project\\contracts\\IStudentVote.sol",
  "compiler": {
    "name": "solc",
    "version": "0.8.7+commit.e28d00a7.Emscripten.clang"
  },
  "schemaVersion": "3.4.16",
  "updatedAt": "2025-04-06T06:35:00.384Z",
  "networkType": "ethereum",
  "devdoc": {
    "kind": "dev",
    "methods": {},
    "version": 1
  },
  "userdoc": {
    "kind": "user",
    "methods": {},
    "version": 1
  }
}