{
  "contractName": "IStudentVote",
  "abi": [
    {
      "inputs": [
        {
          "internalType": "address",
          "name": "",
          "type": "address"
        }
      ],
      "name": "addressToClassId",
      "outputs": [
        {
          "internalType": "uint256",
          "name": "",
          "type": "uint256"
        }
      ],
      "stateMutability": "view",
      "type": "function",
      "constant": true
    },
    {
      "inputs": [
        {
          "internalType": "address",
          "name": "",
          "type": "address"
        }
      ],
      "name": "addressToStudentId",
      "outputs": [
        {
          "internalType": "uint256",
          "name": "",
          "type": "uint256"
        }
      ],
      "stateMutability": "view",
      "type": "function",
      "constant": true
    },
    {
      "inputs": [],
      "name": "classCount",
      "outputs": [
        {
          "internalType": "uint256",
          "name": "",
          "type": "uint256"
        }
      ],
      "stateMutability": "view",
      "type": "function",
      "constant": true
    },
    {
      "inputs": [
        {
          "internalType": "uint256",
          "name": "",
          "type": "uint256"
        }
      ],
      "name": "classIds",
      "outputs": [
        {
          "internalType": "uint256",
          "name": "",
          "type": "uint256"
        }
      ],
      "stateMutability": "view",
      "type": "function",
      "constant": true
    },
    {
      "inputs": [
        {
          "internalType": "uint256",
          "name": "",
          "type": "uint256"
        }
      ],
      "name": "classes",
      "outputs": [
        {
          "internalType": "address",
          "name": "addr",
          "type": "address"
        },
        {
          "internalType": "uint256",
          "name": "id",
          "type": "uint256"
        },
        {
          "internalType": "string",
          "name": "name",
          "type": "string"
        },
        {
          "internalType": "uint256",
          "name": "proposalCount",
          "type": "uint256"
        },
        {
          "internalType": "uint256",
          "name": "studentCount",
          "type": "uint256"
        },
        {
          "internalType": "uint256",
          "name": "weightForAutoVote",
          "type": "uint256"
        }
      ],
      "stateMutability": "view",
      "type": "function",
      "constant": true
    },
    {
      "inputs": [],
      "name": "studentCount",
      "outputs": [
        {
          "internalType": "uint256",
          "name": "",
          "type": "uint256"
        }
      ],
      "stateMutability": "view",
      "type": "function",
      "constant": true
    },
    {
      "inputs": [
        {
          "internalType": "uint256",
          "name": "",
          "type": "uint256"
        }
      ],
      "name": "studentIds",
      "outputs": [
        {
          "internalType": "uint256",
          "name": "",
          "type": "uint256"
        }
      ],
      "stateMutability": "view",
      "type": "function",
      "constant": true
    },
    {
      "inputs": [
        {
          "internalType": "uint256",
          "name": "",
          "type": "uint256"
        }
      ],
      "name": "students",
      "outputs": [
        {
          "internalType": "address",
          "name": "addr",
          "type": "address"
        },
        {
          "internalType": "uint256",
          "name": "id",
          "type": "uint256"
        },
        {
          "internalType": "string",
          "name": "name",
          "type": "string"
        },
        {
          "internalType": "uint256",
          "name": "classId",
          "type": "uint256"
        },
        {
          "internalType": "bool",
          "name": "isSetSuitability",
          "type": "bool"
        }
      ],
      "stateMutability": "view",
      "type": "function",
      "constant": true
    },
    {
      "inputs": [],
      "name": "totalClassWeight",
      "outputs": [
        {
          "internalType": "uint256",
          "name": "",
          "type": "uint256"
        }
      ],
      "stateMutability": "view",
      "type": "function",
      "constant": true
    },
    {
      "inputs": [],
      "name": "getClassNum",
      "outputs": [
        {
          "internalType": "uint256",
          "name": "",
          "type": "uint256"
        }
      ],
      "stateMutability": "view",
      "type": "function",
      "constant": true
    },
    {
      "inputs": [],
      "name": "getClassWeight",
      "outputs": [
        {
          "internalType": "uint256",
          "name": "",
          "type": "uint256"
        }
      ],
      "stateMutability": "view",
      "type": "function",
      "constant": true
    },
    {
      "inputs": [],
      "name": "getStudentofClass",
      "outputs": [
        {
          "internalType": "uint256[]",
          "name": "",
          "type": "uint256[]"
        }
      ],
      "stateMutability": "view",
      "type": "function",
      "constant": true
    },
    {
      "inputs": [
        {
          "internalType": "string",
          "name": "className",
          "type": "string"
        },
        {
          "internalType": "address",
          "name": "classAddress",
          "type": "address"
        }
      ],
      "name": "addClass",
      "outputs": [],
      "stateMutability": "nonpayable",
      "type": "function"
    },
    {
      "inputs": [
        {
          "internalType": "string",
          "name": "_name",
          "type": "string"
        }
      ],
      "name": "addStudentToClass",
      "outputs": [],
      "stateMutability": "nonpayable",
      "type": "function"
    },
    {
      "inputs": [
        {
          "internalType": "uint256",
          "name": "classId",
          "type": "uint256"
        },
        {
          "internalType": "string",
          "name": "_name",
          "type": "string"
        },
        {
          "internalType": "address",
          "name": "studentAddress",
          "type": "address"
        }
      ],
      "name": "registerStudent",
      "outputs": [],
      "stateMutability": "nonpayable",
      "type": "function"
    },
    {
      "inputs": [
        {
          "internalType": "string",
          "name": "_description",
          "type": "string"
        },
        {
          "internalType": "uint256",
          "name": "_voteforID",
          "type": "uint256"
        },
        {
          "internalType": "uint256[]",
          "name": "_votedIds",
          "type": "uint256[]"
        }
      ],
      "name": "createProposal",
      "outputs": [
        {
          "internalType": "uint256",
          "name": "",
          "type": "uint256"
        }
      ],
      "stateMutability": "nonpayable",
      "type": "function"
    },
    {
      "inputs": [
        {
          "internalType": "uint256",
          "name": "studentId",
          "type": "uint256"
        },
        {
          "internalType": "uint256",
          "name": "proposalId",
          "type": "uint256"
        },
        {
          "internalType": "uint256",
          "name": "optionId",
          "type": "uint256"
        }
      ],
      "name": "vote",
      "outputs": [],
      "stateMutability": "nonpayable",
      "type": "function"
    },
    {
      "inputs": [
        {
          "internalType": "uint256",
          "name": "studentId",
          "type": "uint256"
        },
        {
          "internalType": "uint256",
          "name": "proposalId",
          "type": "uint256"
        },
        {
          "internalType": "uint256",
          "name": "optionId",
          "type": "uint256"
        }
      ],
      "name": "studentVote",
      "outputs": [],
      "stateMutability": "nonpayable",
      "type": "function"
    },
    {
      "inputs": [
        {
          "internalType": "address",
          "name": "classAddress",
          "type": "address"
        },
        {
          "internalType": "uint256",
          "name": "proposalId",
          "type": "uint256"
        }
      ],
      "name": "getProposalResults",
      "outputs": [
        {
          "internalType": "uint256",
          "name": "winningOptionId",
          "type": "uint256"
        },
        {
          "internalType": "uint256",
          "name": "voteforID",
          "type": "uint256"
        }
      ],
      "stateMutability": "view",
      "type": "function",
      "constant": true
    },
    {
      "inputs": [],
      "name": "getStudent",
      "outputs": [
        {
          "internalType": "uint256[]",
          "name": "",
          "type": "uint256[]"
        }
      ],
      "stateMutability": "view",
      "type": "function",
      "constant": true
    },
    {
      "inputs": [
        {
          "internalType": "uint256",
          "name": "studentId",
          "type": "uint256"
        },
        {
          "internalType": "uint256[]",
          "name": "_suitabilities",
          "type": "uint256[]"
        }
      ],
      "name": "setCourseSuitability",
      "outputs": [],
      "stateMutability": "nonpayable",
      "type": "function"
    },
    {
      "inputs": [
        {
          "internalType": "uint256[]",
          "name": "_suitabilities",
          "type": "uint256[]"
        }
      ],
      "name": "studentSetCourseSuitability",
      "outputs": [],
      "stateMutability": "nonpayable",
      "type": "function"
    },
    {
      "inputs": [
        {
          "internalType": "uint256",
          "name": "studentId",
          "type": "uint256"
        }
      ],
      "name": "getCourseSuitability",
      "outputs": [
        {
          "internalType": "uint256[]",
          "name": "",
          "type": "uint256[]"
        }
      ],
      "stateMutability": "view",
      "type": "function",
      "constant": true
    },
    {
      "inputs": [],
      "name": "getAverageSuitability",
      "outputs": [
        {
          "internalType": "uint256[]",
          "name": "",
          "type": "uint256[]"
        }
      ],
      "stateMutability": "view",
      "type": "function",
      "constant": true
    },
    {
      "inputs": [],
      "name": "getClassIds",
      "outputs": [
        {
          "internalType": "uint256[]",
          "name": "",
          "type": "uint256[]"
        }
      ],
      "stateMutability": "view",
      "type": "function",
      "constant": true
    },
    {
      "inputs": [],
      "name": "getStudentIds",
      "outputs": [
        {
          "internalType": "uint256[]",
          "name": "",
          "type": "uint256[]"
        }
      ],
      "stateMutability": "view",
      "type": "function",
      "constant": true
    },
    {
      "inputs": [
        {
          "internalType": "uint256",
          "name": "classId",
          "type": "uint256"
        },
        {
          "internalType": "uint256",
          "name": "proposalId",
          "type": "uint256"
        }
      ],
      "name": "getProposalInfo",
      "outputs": [
        {
          "internalType": "uint256[]",
          "name": "",
          "type": "uint256[]"
        },
        {
          "internalType": "uint256",
          "name": "",
          "type": "uint256"
        }
      ],
      "stateMutability": "view",
      "type": "function",
      "constant": true
    }
  ],
  "bytecode": "0x6080604052600a60095534801561001557600080fd5b50612ef2806100256000396000f3fe608060405234801561001057600080fd5b50600436106101a95760003560e01c806386c34415116100f9578063bca24bd411610097578063e581f9ee11610071578063e581f9ee14610500578063f1b2126b1461051e578063f8fb3e621461053c578063ffc3530314610558576101a9565b8063bca24bd414610482578063d4e57ff0146104b2578063d7b4135d146104e2576101a9565b8063ab996317116100d3578063ab996317146103fa578063af331f7914610418578063b18a993a14610434578063b439548d14610464576101a9565b806386c344151461037d5780638a6655d6146103ad578063945155ba146103c9576101a9565b80633d89c149116101665780636f28c355116101405780636f28c355146102e05780637456cf3e14610310578063817dbe9f1461032c578063824ec44314610361576101a9565b80633d89c1491461027457806350b38428146102a4578063644915b2146102c2576101a9565b806306ead22e146101ae57806318860d37146101e25780631b666d8014610200578063298c90f41461021c5780632a3cdb8f146102385780633b173bb314610256575b600080fd5b6101c860048036038101906101c39190612391565b610589565b6040516101d995949392919061271f565b60405180910390f35b6101ea610674565b6040516101f791906127e1565b60405180910390f35b61021a600480360381019061021591906122aa565b6106cc565b005b610236600480360381019061023191906123be565b610875565b005b61024061098c565b60405161024d91906127e1565b60405180910390f35b61025e610a3d565b60405161026b9190612933565b60405180910390f35b61028e60048036038101906102899190612391565b610a47565b60405161029b91906127e1565b60405180910390f35b6102ac610b09565b6040516102b99190612933565b60405180910390f35b6102ca610b58565b6040516102d791906127e1565b60405180910390f35b6102fa60048036038101906102f59190612391565b610bb0565b6040516103079190612933565b60405180910390f35b61032a60048036038101906103259190612218565b610bd4565b005b61034660048036038101906103419190612391565b610d2f565b60405161035896959493929190612779565b60405180910390f35b61037b600480360381019061037691906124c9565b610e13565b005b610397600480360381019061039291906121ab565b6111be565b6040516103a49190612933565b60405180910390f35b6103c760048036038101906103c291906124c9565b6111d6565b005b6103e360048036038101906103de9190612489565b6115aa565b6040516103f1929190612803565b60405180910390f35b610402611660565b60405161040f9190612933565b60405180910390f35b610432600480360381019061042d919061241a565b611666565b005b61044e60048036038101906104499190612306565b61187e565b60405161045b9190612933565b60405180910390f35b61046c6119f6565b60405161047991906127e1565b60405180910390f35b61049c60048036038101906104979190612391565b611aa7565b6040516104a99190612933565b60405180910390f35b6104cc60048036038101906104c791906121ab565b611acb565b6040516104d99190612933565b60405180910390f35b6104ea611ae3565b6040516104f79190612933565b60405180910390f35b610508611ae9565b6040516105159190612933565b60405180910390f35b610526611aef565b60405161053391906127e1565b60405180910390f35b61055660048036038101906105519190612261565b611c50565b005b610572600480360381019061056d91906121d8565b611e0e565b60405161058092919061294e565b60405180910390f35b60026020528060005260406000206000915090508060000160009054906101000a900473ffffffffffffffffffffffffffffffffffffffff16908060010154908060020180546105d890612b5f565b80601f016020809104026020016040519081016040528092919081815260200182805461060490612b5f565b80156106515780601f1061062657610100808354040283529160200191610651565b820191906000526020600020905b81548152906001019060200180831161063457829003601f168201915b5050505050908060030154908060040160009054906101000a900460ff16905085565b606060058054806020026020016040519081016040528092919081815260200182805480156106c257602002820191906000526020600020905b8154815260200190600101908083116106ae575b5050505050905090565b600760008154809291906106df90612bc2565b91905055506000600160006007548152602001908152602001600020600101541461073f576040517f08c379a0000000000000000000000000000000000000000000000000000000008152600401610736906128b3565b60405180910390fd5b600754600360008373ffffffffffffffffffffffffffffffffffffffff1673ffffffffffffffffffffffffffffffffffffffff168152602001908152602001600020819055508060016000600754815260200190815260200160002060000160006101000a81548173ffffffffffffffffffffffffffffffffffffffff021916908373ffffffffffffffffffffffffffffffffffffffff16021790555060075460016000600754815260200190815260200160002060010181905550816001600060075481526020019081526020016000206002019080519060200190610827929190611fd0565b50600a60016000600754815260200190815260200160002060070181905550600560075490806001815401808255809150506001900390600052602060002001600090919091909150555050565b6008548211156108ba576040517f08c379a00000000000000000000000000000000000000000000000000000000081526004016108b1906128f3565b60405180910390fd5b6009548151146108ff576040517f08c379a00000000000000000000000000000000000000000000000000000000081526004016108f690612853565b60405180910390fd5b600060026000848152602001908152602001600020905060018160040160006101000a81548160ff02191690831515021790555060005b82518110156109865782818151811061095257610951612c98565b5b602002602001015182600501600083815260200190815260200160002081905550808061097e90612bc2565b915050610936565b50505050565b60606000600360003373ffffffffffffffffffffffffffffffffffffffff1673ffffffffffffffffffffffffffffffffffffffff16815260200190815260200160002054905060016000828152602001908152602001600020600501805480602002602001604051908101604052809291908181526020018280548015610a3257602002820191906000526020600020905b815481526020019060010190808311610a1e575b505050505091505090565b6000600754905090565b6060600060095467ffffffffffffffff811115610a6757610a66612cc7565b5b604051908082528060200260200182016040528015610a955781602001602082028036833780820191505090505b50905060005b600954811015610aff5760026000858152602001908152602001600020600501600082815260200190815260200160002054828281518110610ae057610adf612c98565b5b6020026020010181815250508080610af790612bc2565b915050610a9b565b5080915050919050565b60008060005b600754811015610b5057600160008281526020019081526020016000206007015482610b3b9190612a4e565b91508080610b4890612bc2565b915050610b0f565b508091505090565b60606006805480602002602001604051908101604052809291908181526020018280548015610ba657602002820191906000526020600020905b815481526020019060010190808311610b92575b5050505050905090565b60068181548110610bc057600080fd5b906000526020600020016000915090505481565b6000600460003373ffffffffffffffffffffffffffffffffffffffff1673ffffffffffffffffffffffffffffffffffffffff168152602001908152602001600020549050600854811115610c5d576040517f08c379a0000000000000000000000000000000000000000000000000000000008152600401610c54906128f3565b60405180910390fd5b600954825114610ca2576040517f08c379a0000000000000000000000000000000000000000000000000000000008152600401610c9990612853565b60405180910390fd5b600060026000838152602001908152602001600020905060018160040160006101000a81548160ff02191690831515021790555060005b8351811015610d2957838181518110610cf557610cf4612c98565b5b6020026020010151826005016000838152602001908152602001600020819055508080610d2190612bc2565b915050610cd9565b50505050565b60016020528060005260406000206000915090508060000160009054906101000a900473ffffffffffffffffffffffffffffffffffffffff1690806001015490806002018054610d7e90612b5f565b80601f0160208091040260200160405190810160405280929190818152602001828054610daa90612b5f565b8015610df75780601f10610dcc57610100808354040283529160200191610df7565b820191906000526020600020905b815481529060010190602001808311610dda57829003601f168201915b5050505050908060040154908060060154908060070154905086565b600060026000858152602001908152602001600020600301549050600060016000838152602001908152602001600020600101541415610e88576040517f08c379a0000000000000000000000000000000000000000000000000000000008152600401610e7f90612873565b60405180910390fd5b6000600160008381526020019081526020016000206003016000858152602001908152602001600020600001541415610ef6576040517f08c379a0000000000000000000000000000000000000000000000000000000008152600401610eed906128d3565b60405180910390fd5b60006001600083815260200190815260200160002060030160008581526020019081526020016000206003018054905011610f66576040517f08c379a0000000000000000000000000000000000000000000000000000000008152600401610f5d90612893565b60405180910390fd5b600160008281526020019081526020016000206003016000848152602001908152602001600020600501600085815260200190815260200160002060009054906101000a900460ff1615610fef576040517f08c379a0000000000000000000000000000000000000000000000000000000008152600401610fe690612913565b60405180910390fd5b6000805b600160008481526020019081526020016000206003016000868152602001908152602001600020600301805490508110156110925783600160008581526020019081526020016000206003016000878152602001908152602001600020600301828154811061106557611064612c98565b5b9060005260206000200154141561107f5760019150611092565b808061108a90612bc2565b915050610ff3565b50806110d3576040517f08c379a00000000000000000000000000000000000000000000000000000000081526004016110ca90612833565b60405180910390fd5b6001600083815260200190815260200160002060030160008581526020019081526020016000206004016000848152602001908152602001600020600081548092919061111f90612bc2565b919050555060018060008481526020019081526020016000206003016000868152602001908152602001600020600501600087815260200190815260200160002060006101000a81548160ff02191690831515021790555060016000838152602001908152602001600020600301600085815260200190815260200160002060060160008154809291906111b290612bc2565b91905055505050505050565b60046020528060005260406000206000915090505481565b6000600360003373ffffffffffffffffffffffffffffffffffffffff1673ffffffffffffffffffffffffffffffffffffffff168152602001908152602001600020549050600060016000838152602001908152602001600020600101541415611274576040517f08c379a000000000000000000000000000000000000000000000000000000000815260040161126b90612873565b60405180910390fd5b60006001600083815260200190815260200160002060030160008581526020019081526020016000206000015414156112e2576040517f08c379a00000000000000000000000000000000000000000000000000000000081526004016112d9906128d3565b60405180910390fd5b60006001600083815260200190815260200160002060030160008581526020019081526020016000206003018054905011611352576040517f08c379a000000000000000000000000000000000000000000000000000000000815260040161134990612893565b60405180910390fd5b600160008281526020019081526020016000206003016000848152602001908152602001600020600501600085815260200190815260200160002060009054906101000a900460ff16156113db576040517f08c379a00000000000000000000000000000000000000000000000000000000081526004016113d290612913565b60405180910390fd5b6000805b6001600084815260200190815260200160002060030160008681526020019081526020016000206003018054905081101561147e5783600160008581526020019081526020016000206003016000878152602001908152602001600020600301828154811061145157611450612c98565b5b9060005260206000200154141561146b576001915061147e565b808061147690612bc2565b9150506113df565b50806114bf576040517f08c379a00000000000000000000000000000000000000000000000000000000081526004016114b690612833565b60405180910390fd5b6001600083815260200190815260200160002060030160008581526020019081526020016000206004016000848152602001908152602001600020600081548092919061150b90612bc2565b919050555060018060008481526020019081526020016000206003016000868152602001908152602001600020600501600087815260200190815260200160002060006101000a81548160ff021916908315150217905550600160008381526020019081526020016000206003016000858152602001908152602001600020600601600081548092919061159e90612bc2565b91905055505050505050565b60606000600160008581526020019081526020016000206003016000848152602001908152602001600020600301600160008681526020019081526020016000206003016000858152602001908152602001600020600201548180548060200260200160405190810160405280929190818152602001828054801561164e57602002820191906000526020600020905b81548152602001906001019080831161163a575b50505050509150915091509250929050565b60075481565b6000600160008581526020019081526020016000206001015414156116c0576040517f08c379a00000000000000000000000000000000000000000000000000000000081526004016116b790612873565b60405180910390fd5b600860008154809291906116d390612bc2565b9190505550600854600460008373ffffffffffffffffffffffffffffffffffffffff1673ffffffffffffffffffffffffffffffffffffffff168152602001908152602001600020819055508060026000600854815260200190815260200160002060000160006101000a81548173ffffffffffffffffffffffffffffffffffffffff021916908373ffffffffffffffffffffffffffffffffffffffff160217905550600854600260006008548152602001908152602001600020600101819055508160026000600854815260200190815260200160002060020190805190602001906117c0929190611fd0565b508260026000600854815260200190815260200160002060030181905550600060026000600854815260200190815260200160002060040160006101000a81548160ff02191690831515021790555060016000848152602001908152602001600020600501600854908060018154018082558091505060019003906000526020600020016000909190919091505560066008549080600181540180825580915050600190039060005260206000200160009091909190915055505050565b600080600090506000600190505b60075481116119ea5760006001600083815260200190815260200160002090508060040160008154809291906118c190612bc2565b91905055506000816004015490508082600301600083815260200190815260200160002060000181905550878260030160008381526020019081526020016000206001019080519060200190611918929190611fd0565b5060005b86518110156119b457600087828151811061193a57611939612c98565b5b6020026020010151146119a15782600301600083815260200190815260200160002060030187828151811061197257611971612c98565b5b602002602001015190806001815401808255809150506001900390600052602060002001600090919091909150555b80806119ac90612bc2565b91505061191c565b508682600301600083815260200190815260200160002060020181905550809350505080806119e290612bc2565b91505061188c565b50809150509392505050565b60606000600360003373ffffffffffffffffffffffffffffffffffffffff1673ffffffffffffffffffffffffffffffffffffffff16815260200190815260200160002054905060016000828152602001908152602001600020600501805480602002602001604051908101604052809291908181526020018280548015611a9c57602002820191906000526020600020905b815481526020019060010190808311611a88575b505050505091505090565b60058181548110611ab757600080fd5b906000526020600020016000915090505481565b60036020528060005260406000206000915090505481565b60005481565b60085481565b6060600060095467ffffffffffffffff811115611b0f57611b0e612cc7565b5b604051908082528060200260200182016040528015611b3d5781602001602082028036833780820191505090505b5090506000600190505b6008548111611be057600060026000838152602001908152602001600020905060005b600954811015611bcb5781600501600082815260200190815260200160002054848281518110611b9d57611b9c612c98565b5b60200260200101818151611bb19190612a4e565b915081815250508080611bc390612bc2565b915050611b6a565b50508080611bd890612bc2565b915050611b47565b5060005b600954811015611c4857600854828281518110611c0457611c03612c98565b5b6020026020010151611c169190612aa4565b828281518110611c2957611c28612c98565b5b6020026020010181815250508080611c4090612bc2565b915050611be4565b508091505090565b6000600360003373ffffffffffffffffffffffffffffffffffffffff1673ffffffffffffffffffffffffffffffffffffffff168152602001908152602001600020549050600060016000838152602001908152602001600020600101541415611cee576040517f08c379a0000000000000000000000000000000000000000000000000000000008152600401611ce590612873565b60405180910390fd5b60086000815480929190611d0190612bc2565b919050555060085460026000600854815260200190815260200160002060010181905550816002600060085481526020019081526020016000206002019080519060200190611d51929190611fd0565b508060026000600854815260200190815260200160002060030181905550600060026000600854815260200190815260200160002060040160006101000a81548160ff021916908315150217905550600160008281526020019081526020016000206005016008549080600181540180825580915050600190039060005260206000200160009091909190915055600660085490806001815401808255809150506001900390600052602060002001600090919091909150555050565b6000806000600360008673ffffffffffffffffffffffffffffffffffffffff1673ffffffffffffffffffffffffffffffffffffffff168152602001908152602001600020549050600060016000838152602001908152602001600020600101541415611eaf576040517f08c379a0000000000000000000000000000000000000000000000000000000008152600401611ea690612873565b60405180910390fd5b6000600160008381526020019081526020016000206003016000868152602001908152602001600020600001541415611f1d576040517f08c379a0000000000000000000000000000000000000000000000000000000008152600401611f14906128d3565b60405180910390fd5b60006001600083815260200190815260200160002060030160008681526020019081526020016000209050806002015492506000805b8260030180549050811015611fc5576000836003018281548110611f7a57611f79612c98565b5b90600052602060002001549050600084600401600083815260200190815260200160002054905083811115611fb0578093508197505b50508080611fbd90612bc2565b915050611f53565b505050509250929050565b828054611fdc90612b5f565b90600052602060002090601f016020900481019282611ffe5760008555612045565b82601f1061201757805160ff1916838001178555612045565b82800160010185558215612045579182015b82811115612044578251825591602001919060010190612029565b5b5090506120529190612056565b5090565b5b8082111561206f576000816000905550600101612057565b5090565b60006120866120818461299c565b612977565b905080838252602082019050828560208602820111156120a9576120a8612cfb565b5b60005b858110156120d957816120bf8882612196565b8452602084019350602083019250506001810190506120ac565b5050509392505050565b60006120f66120f1846129c8565b612977565b90508281526020810184848401111561211257612111612d00565b5b61211d848285612b1d565b509392505050565b60008135905061213481612e8e565b92915050565b600082601f83011261214f5761214e612cf6565b5b813561215f848260208601612073565b91505092915050565b600082601f83011261217d5761217c612cf6565b5b813561218d8482602086016120e3565b91505092915050565b6000813590506121a581612ea5565b92915050565b6000602082840312156121c1576121c0612d0a565b5b60006121cf84828501612125565b91505092915050565b600080604083850312156121ef576121ee612d0a565b5b60006121fd85828601612125565b925050602061220e85828601612196565b9150509250929050565b60006020828403121561222e5761222d612d0a565b5b600082013567ffffffffffffffff81111561224c5761224b612d05565b5b6122588482850161213a565b91505092915050565b60006020828403121561227757612276612d0a565b5b600082013567ffffffffffffffff81111561229557612294612d05565b5b6122a184828501612168565b91505092915050565b600080604083850312156122c1576122c0612d0a565b5b600083013567ffffffffffffffff8111156122df576122de612d05565b5b6122eb85828601612168565b92505060206122fc85828601612125565b9150509250929050565b60008060006060848603121561231f5761231e612d0a565b5b600084013567ffffffffffffffff81111561233d5761233c612d05565b5b61234986828701612168565b935050602061235a86828701612196565b925050604084013567ffffffffffffffff81111561237b5761237a612d05565b5b6123878682870161213a565b9150509250925092565b6000602082840312156123a7576123a6612d0a565b5b60006123b584828501612196565b91505092915050565b600080604083850312156123d5576123d4612d0a565b5b60006123e385828601612196565b925050602083013567ffffffffffffffff81111561240457612403612d05565b5b6124108582860161213a565b9150509250929050565b60008060006060848603121561243357612432612d0a565b5b600061244186828701612196565b935050602084013567ffffffffffffffff81111561246257612461612d05565b5b61246e86828701612168565b925050604061247f86828701612125565b9150509250925092565b600080604083850312156124a05761249f612d0a565b5b60006124ae85828601612196565b92505060206124bf85828601612196565b9150509250929050565b6000806000606084860312156124e2576124e1612d0a565b5b60006124f086828701612196565b935050602061250186828701612196565b925050604061251286828701612196565b9150509250925092565b60006125288383612701565b60208301905092915050565b61253d81612ad5565b82525050565b600061254e82612a09565b6125588185612a2c565b9350612563836129f9565b8060005b8381101561259457815161257b888261251c565b975061258683612a1f565b925050600181019050612567565b5085935050505092915050565b6125aa81612ae7565b82525050565b60006125bb82612a14565b6125c58185612a3d565b93506125d5818560208601612b2c565b6125de81612d0f565b840191505092915050565b60006125f6601183612a3d565b915061260182612d20565b602082019050919050565b6000612619602183612a3d565b915061262482612d49565b604082019050919050565b600061263c601483612a3d565b915061264782612d98565b602082019050919050565b600061265f601783612a3d565b915061266a82612dc1565b602082019050919050565b6000612682601483612a3d565b915061268d82612dea565b602082019050919050565b60006126a5601783612a3d565b91506126b082612e13565b602082019050919050565b60006126c8601683612a3d565b91506126d382612e3c565b602082019050919050565b60006126eb601683612a3d565b91506126f682612e65565b602082019050919050565b61270a81612b13565b82525050565b61271981612b13565b82525050565b600060a0820190506127346000830188612534565b6127416020830187612710565b818103604083015261275381866125b0565b90506127626060830185612710565b61276f60808301846125a1565b9695505050505050565b600060c08201905061278e6000830189612534565b61279b6020830188612710565b81810360408301526127ad81876125b0565b90506127bc6060830186612710565b6127c96080830185612710565b6127d660a0830184612710565b979650505050505050565b600060208201905081810360008301526127fb8184612543565b905092915050565b6000604082019050818103600083015261281d8185612543565b905061282c6020830184612710565b9392505050565b6000602082019050818103600083015261284c816125e9565b9050919050565b6000602082019050818103600083015261286c8161260c565b9050919050565b6000602082019050818103600083015261288c8161262f565b9050919050565b600060208201905081810360008301526128ac81612652565b9050919050565b600060208201905081810360008301526128cc81612675565b9050919050565b600060208201905081810360008301526128ec81612698565b9050919050565b6000602082019050818103600083015261290c816126bb565b9050919050565b6000602082019050818103600083015261292c816126de565b9050919050565b60006020820190506129486000830184612710565b92915050565b60006040820190506129636000830185612710565b6129706020830184612710565b9392505050565b6000612981612992565b905061298d8282612b91565b919050565b6000604051905090565b600067ffffffffffffffff8211156129b7576129b6612cc7565b5b602082029050602081019050919050565b600067ffffffffffffffff8211156129e3576129e2612cc7565b5b6129ec82612d0f565b9050602081019050919050565b6000819050602082019050919050565b600081519050919050565b600081519050919050565b6000602082019050919050565b600082825260208201905092915050565b600082825260208201905092915050565b6000612a5982612b13565b9150612a6483612b13565b9250827fffffffffffffffffffffffffffffffffffffffffffffffffffffffffffffffff03821115612a9957612a98612c0b565b5b828201905092915050565b6000612aaf82612b13565b9150612aba83612b13565b925082612aca57612ac9612c3a565b5b828204905092915050565b6000612ae082612af3565b9050919050565b60008115159050919050565b600073ffffffffffffffffffffffffffffffffffffffff82169050919050565b6000819050919050565b82818337600083830152505050565b60005b83811015612b4a578082015181840152602081019050612b2f565b83811115612b59576000848401525b50505050565b60006002820490506001821680612b7757607f821691505b60208210811415612b8b57612b8a612c69565b5b50919050565b612b9a82612d0f565b810181811067ffffffffffffffff82111715612bb957612bb8612cc7565b5b80604052505050565b6000612bcd82612b13565b91507fffffffffffffffffffffffffffffffffffffffffffffffffffffffffffffffff821415612c0057612bff612c0b565b5b600182019050919050565b7f4e487b7100000000000000000000000000000000000000000000000000000000600052601160045260246000fd5b7f4e487b7100000000000000000000000000000000000000000000000000000000600052601260045260246000fd5b7f4e487b7100000000000000000000000000000000000000000000000000000000600052602260045260246000fd5b7f4e487b7100000000000000000000000000000000000000000000000000000000600052603260045260246000fd5b7f4e487b7100000000000000000000000000000000000000000000000000000000600052604160045260246000fd5b600080fd5b600080fd5b600080fd5b600080fd5b600080fd5b6000601f19601f8301169050919050565b7f496e76616c6964206f7074696f6e204944000000000000000000000000000000600082015250565b7f537569746162696c697479206172726179206c656e677468206d69736d61746360008201527f6800000000000000000000000000000000000000000000000000000000000000602082015250565b7f436c61737320646f6573206e6f74206578697374000000000000000000000000600082015250565b7f50726f706f73616c20686173206e6f206f7074696f6e73000000000000000000600082015250565b7f436c61737320616c726561647920657869737473000000000000000000000000600082015250565b7f50726f706f73616c20646f6573206e6f74206578697374000000000000000000600082015250565b7f53747564656e7420646f6573206e6f7420657869737400000000000000000000600082015250565b7f596f75206861766520616c726561647920766f74656400000000000000000000600082015250565b612e9781612ad5565b8114612ea257600080fd5b50565b612eae81612b13565b8114612eb957600080fd5b5056fea264697066735822122072e0ca458f0543c66c473ea10960a9dffe123b3f1217d377fe6b387d6ed3feba64736f6c63430008070033",
  "immutableReferences": {},
  "source": "// SPDX-License-Identifier: MIT\r\npragma solidity ^0.8.7;\r\n\r\ninterface StudentVote {\r\n    function createProposal(string memory _description, uint256 _voteforID, uint256[] memory _votedIds) external returns (uint256);\r\n    function vote(uint256 studentId, uint256 proposalId, uint256 optionId) external;\r\n    function getProposalResults(address classAddress, uint256 proposalId) external view returns (uint256, uint256);\r\n    function getAverageSuitability() external view returns (uint256[] memory);\r\n    function getClassNum() external view returns (uint256);\r\n    function getClassWeight() external view returns (uint256);\r\n}\r\n\r\ncontract IStudentVote is StudentVote {\r\n    struct Student {\r\n        address addr;\r\n        uint256 id;\r\n        string name;\r\n        uint256 classId;\r\n        bool isSetSuitability;\r\n        mapping(uint256 => uint256) courseSuitability;\r\n    }\r\n\r\n    struct Class {\r\n        address addr;\r\n        uint256 id;\r\n        string name;\r\n        mapping(uint256 => Proposal) proposals;\r\n        uint256 proposalCount;\r\n        uint256[] studentsId;\r\n        uint256 studentCount;\r\n        uint256 weightForAutoVote;\r\n    }\r\n\r\n    struct Proposal {\r\n        uint256 id;\r\n        string description;\r\n        uint256 voteforID; // ID\r\n        uint256[] votedIds;\r\n        mapping(uint256 => uint256) voteIdToCount;\r\n        mapping(uint256 => bool) ifVote;\r\n        uint256 voteCount;\r\n    }\r\n\r\n    uint256 public totalClassWeight;\r\n    mapping(uint256 => Class) public classes;\r\n    mapping(uint256 => Student) public students;\r\n    mapping(address => uint256) public addressToClassId;\r\n    mapping(address => uint256) public addressToStudentId;\r\n    uint256[] public classIds;\r\n    uint256[] public studentIds;\r\n    uint256 public classCount;\r\n    uint256 public studentCount;\r\n    uint256 courseCount = 10;\r\n\r\n    function getClassNum() public view override returns(uint256) {\r\n        return classCount;\r\n    }\r\n\r\n    function getClassWeight() public view override returns(uint256) {\r\n        uint256 classWeights;\r\n        for(uint256 i = 0; i < classCount; i++){\r\n            classWeights += classes[i].weightForAutoVote;\r\n        }\r\n        return classWeights;\r\n    }\r\n\r\n    function getStudentofClass() public view returns(uint256[] memory) {\r\n        uint256 classId = addressToClassId[msg.sender];\r\n        return classes[classId].studentsId;\r\n    }\r\n\r\n    // \r\n    function addClass(string memory className, address classAddress) public {\r\n        classCount++;\r\n        require(classes[classCount].id == 0, \"Class already exists\");\r\n        addressToClassId[classAddress] = classCount;\r\n        classes[classCount].addr = classAddress;\r\n        classes[classCount].id = classCount;\r\n        classes[classCount].name = className;\r\n        classes[classCount].weightForAutoVote = 10;\r\n        classIds.push(classCount);\r\n    }\r\n\r\n    // \r\n    function addStudentToClass(string memory _name) public {\r\n        uint256 classId = addressToClassId[msg.sender];\r\n        require(classes[classId].id != 0, \"Class does not exist\");\r\n        studentCount++;\r\n        students[studentCount].id = studentCount;\r\n        students[studentCount].name = _name;\r\n        students[studentCount].classId = classId;\r\n        students[studentCount].isSetSuitability = false;\r\n        classes[classId].studentsId.push(studentCount);\r\n        studentIds.push(studentCount);\r\n    }\r\n\r\n    // \r\n    function registerStudent(uint256 classId, string memory _name, address studentAddress) public{\r\n        require(classes[classId].id != 0, \"Class does not exist\");\r\n        studentCount++;\r\n        addressToStudentId[studentAddress] = studentCount;\r\n        students[studentCount].addr = studentAddress;\r\n        students[studentCount].id = studentCount;\r\n        students[studentCount].name = _name;\r\n        students[studentCount].classId = classId;\r\n        students[studentCount].isSetSuitability = false;\r\n        classes[classId].studentsId.push(studentCount);\r\n        studentIds.push(studentCount);\r\n    }\r\n\r\n    // \r\n    function createProposal(string memory _description, uint256 _voteforID, uint256[] memory _votedIds) public override returns (uint256) {\r\n        uint256 newProposalID = 0;\r\n        for (uint256 i = 1; i <= classCount; i++) {\r\n            Class storage cls = classes[i];\r\n            cls.proposalCount++;\r\n            uint256 proposalId = cls.proposalCount;\r\n\r\n            cls.proposals[proposalId].id = proposalId;\r\n            cls.proposals[proposalId].description = _description;\r\n\r\n            for (uint256 j = 0; j < _votedIds.length; j++) {\r\n                if(_votedIds[j] != 0){\r\n                    cls.proposals[proposalId].votedIds.push(_votedIds[j]);\r\n                }\r\n            }\r\n\r\n            cls.proposals[proposalId].voteforID = _voteforID;\r\n            newProposalID = proposalId;\r\n        }\r\n        return newProposalID;\r\n    }\r\n\r\n    // \r\n    function vote(uint256 studentId, uint256 proposalId, uint256 optionId) public override {\r\n        uint256 classId = addressToClassId[msg.sender];\r\n        require(classes[classId].id != 0, \"Class does not exist\");\r\n        require(classes[classId].proposals[proposalId].id != 0, \"Proposal does not exist\");\r\n        require(classes[classId].proposals[proposalId].votedIds.length > 0, \"Proposal has no options\");\r\n        require(!classes[classId].proposals[proposalId].ifVote[studentId], \"You have already voted\");\r\n\r\n        bool optionExists = false;\r\n        for (uint256 i = 0; i < classes[classId].proposals[proposalId].votedIds.length; i++) {\r\n            if (classes[classId].proposals[proposalId].votedIds[i] == optionId) {\r\n                optionExists = true;\r\n                break;\r\n            }\r\n        }\r\n        require(optionExists, \"Invalid option ID\");\r\n\r\n        classes[classId].proposals[proposalId].voteIdToCount[optionId]++;\r\n        classes[classId].proposals[proposalId].ifVote[studentId] = true;\r\n        classes[classId].proposals[proposalId].voteCount++;\r\n    }\r\n\r\n    function studentVote(uint256 studentId, uint256 proposalId, uint256 optionId) public {\r\n        uint256 classId = students[studentId].classId;\r\n        require(classes[classId].id != 0, \"Class does not exist\");\r\n        require(classes[classId].proposals[proposalId].id != 0, \"Proposal does not exist\");\r\n        require(classes[classId].proposals[proposalId].votedIds.length > 0, \"Proposal has no options\");\r\n        require(!classes[classId].proposals[proposalId].ifVote[studentId], \"You have already voted\");\r\n\r\n        bool optionExists = false;\r\n        for (uint256 i = 0; i < classes[classId].proposals[proposalId].votedIds.length; i++) {\r\n            if (classes[classId].proposals[proposalId].votedIds[i] == optionId) {\r\n                optionExists = true;\r\n                break;\r\n            }\r\n        }\r\n        require(optionExists, \"Invalid option ID\");\r\n\r\n        classes[classId].proposals[proposalId].voteIdToCount[optionId]++;\r\n        classes[classId].proposals[proposalId].ifVote[studentId] = true;\r\n        classes[classId].proposals[proposalId].voteCount++;\r\n    }\r\n\r\n    // \r\n    function getProposalResults(address classAddress, uint256 proposalId) public view override returns (uint256 winningOptionId, uint256 voteforID) {\r\n        uint256 classId = addressToClassId[classAddress];\r\n        require(classes[classId].id != 0, \"Class does not exist\");\r\n        require(classes[classId].proposals[proposalId].id != 0, \"Proposal does not exist\");\r\n\r\n        Proposal storage proposal = classes[classId].proposals[proposalId];\r\n        voteforID = proposal.voteforID;\r\n\r\n        uint256 maxVoteCount = 0;\r\n        for (uint256 i = 0; i < proposal.votedIds.length; i++) {\r\n            uint256 optionId = proposal.votedIds[i];\r\n            uint256 voteCount = proposal.voteIdToCount[optionId];\r\n            if (voteCount > maxVoteCount) {\r\n                maxVoteCount = voteCount;\r\n                winningOptionId = optionId;\r\n            }\r\n        }\r\n    }\r\n\r\n    function getStudent() public view returns(uint256[] memory) {\r\n        uint classId = addressToClassId[msg.sender];\r\n        return classes[classId].studentsId;\r\n    }\r\n\r\n    // \r\n    function setCourseSuitability(uint256 studentId, uint256[] memory _suitabilities) public {\r\n        require(studentId <= studentCount, \"Student does not exist\");\r\n         // \r\n        require(_suitabilities.length == courseCount, \"Suitability array length mismatch\");\r\n        Student storage student = students[studentId];\r\n        student.isSetSuitability = true;\r\n        for(uint256 i = 0; i < _suitabilities.length; i++){\r\n            student.courseSuitability[i] =  _suitabilities[i] ;\r\n        }\r\n    }\r\n\r\n    function studentSetCourseSuitability(uint256[] memory _suitabilities) public {\r\n        uint256 studentId = addressToStudentId[msg.sender]; \r\n        require(studentId <= studentCount, \"Student does not exist\");\r\n         // \r\n        require(_suitabilities.length == courseCount, \"Suitability array length mismatch\");\r\n        Student storage student = students[studentId];\r\n        student.isSetSuitability = true;\r\n        for(uint256 i = 0; i < _suitabilities.length; i++){\r\n            student.courseSuitability[i] =  _suitabilities[i] ;\r\n        }\r\n    }\r\n\r\n    // \r\n    function getCourseSuitability(uint256 studentId) public view returns(uint256[] memory) {\r\n        uint256[] memory _suitabilities = new uint256[](courseCount);\r\n        for(uint256 i = 0; i < courseCount; i++){\r\n            _suitabilities[i] = students[studentId].courseSuitability[i];\r\n        }\r\n        return _suitabilities;\r\n    }\r\n\r\n    // \r\n    function getAverageSuitability() public view override returns(uint256[] memory) {\r\n        uint256[] memory totalCourseScore = new uint256[](courseCount);\r\n        for(uint256 i = 1; i <= studentCount; i++){\r\n            Student storage student = students[i];\r\n            for(uint256 j = 0; j < courseCount; j++){\r\n                totalCourseScore[j] += student.courseSuitability[j];\r\n            }\r\n        }\r\n        for(uint256 j = 0; j < courseCount; j++){\r\n                totalCourseScore[j] = totalCourseScore[j] / studentCount;\r\n        }\r\n        return totalCourseScore;\r\n    }\r\n\r\n    function getClassIds() public view returns(uint256[] memory) {\r\n        return classIds;\r\n    }\r\n\r\n    function getStudentIds() public view returns(uint256[] memory) {\r\n        return studentIds;\r\n    }\r\n\r\n    function getProposalInfo(uint256 classId, uint256 proposalId) public view returns(uint256[] memory, uint256) {\r\n        return (classes[classId].proposals[proposalId].votedIds, classes[classId].proposals[proposalId].voteforID);\r\n    } \r\n}",
  "sourcePath": "E:\\\\paper\\DAO\\git-DAO\\v1\\Course-allocation\\project\\contracts\\IStudentVote.sol",
  "compiler": {
    "name": "solc",
    "version": "0.8.7+commit.e28d00a7.Emscripten.clang"
  },
  "schemaVersion": "3.4.16",
  "updatedAt": "2025-04-02T13:26:40.827Z",
  "networkType": "ethereum",
  "devdoc": {
    "kind": "dev",
    "methods": {},
    "version": 1
  },
  "userdoc": {
    "kind": "user",
    "methods": {},
    "version": 1
  }
}