{
  "contractName": "IStudentVote",
  "abi": [
    {
      "inputs": [
        {
          "internalType": "address",
          "name": "",
          "type": "address"
        }
      ],
      "name": "addressToClassId",
      "outputs": [
        {
          "internalType": "uint256",
          "name": "",
          "type": "uint256"
        }
      ],
      "stateMutability": "view",
      "type": "function",
      "constant": true
    },
    {
      "inputs": [
        {
          "internalType": "address",
          "name": "",
          "type": "address"
        }
      ],
      "name": "addressToStudentId",
      "outputs": [
        {
          "internalType": "uint256",
          "name": "",
          "type": "uint256"
        }
      ],
      "stateMutability": "view",
      "type": "function",
      "constant": true
    },
    {
      "inputs": [],
      "name": "classCount",
      "outputs": [
        {
          "internalType": "uint256",
          "name": "",
          "type": "uint256"
        }
      ],
      "stateMutability": "view",
      "type": "function",
      "constant": true
    },
    {
      "inputs": [
        {
          "internalType": "uint256",
          "name": "",
          "type": "uint256"
        }
      ],
      "name": "classes",
      "outputs": [
        {
          "internalType": "address",
          "name": "classAddress",
          "type": "address"
        },
        {
          "internalType": "uint256",
          "name": "id",
          "type": "uint256"
        },
        {
          "internalType": "string",
          "name": "name",
          "type": "string"
        },
        {
          "internalType": "uint256",
          "name": "proposalCount",
          "type": "uint256"
        },
        {
          "internalType": "uint256",
          "name": "studentCount",
          "type": "uint256"
        },
        {
          "internalType": "uint256",
          "name": "weightForAutoVote",
          "type": "uint256"
        }
      ],
      "stateMutability": "view",
      "type": "function",
      "constant": true
    },
    {
      "inputs": [],
      "name": "studentCount",
      "outputs": [
        {
          "internalType": "uint256",
          "name": "",
          "type": "uint256"
        }
      ],
      "stateMutability": "view",
      "type": "function",
      "constant": true
    },
    {
      "inputs": [
        {
          "internalType": "uint256",
          "name": "",
          "type": "uint256"
        }
      ],
      "name": "students",
      "outputs": [
        {
          "internalType": "address",
          "name": "studentAddress",
          "type": "address"
        },
        {
          "internalType": "uint256",
          "name": "id",
          "type": "uint256"
        },
        {
          "internalType": "string",
          "name": "name",
          "type": "string"
        },
        {
          "internalType": "uint256",
          "name": "classId",
          "type": "uint256"
        },
        {
          "internalType": "bool",
          "name": "isSetSuitability",
          "type": "bool"
        }
      ],
      "stateMutability": "view",
      "type": "function",
      "constant": true
    },
    {
      "inputs": [],
      "name": "getClassNum",
      "outputs": [
        {
          "internalType": "uint256",
          "name": "",
          "type": "uint256"
        }
      ],
      "stateMutability": "view",
      "type": "function",
      "constant": true
    },
    {
      "inputs": [],
      "name": "getClassWeight",
      "outputs": [
        {
          "internalType": "uint256",
          "name": "",
          "type": "uint256"
        }
      ],
      "stateMutability": "view",
      "type": "function",
      "constant": true
    },
    {
      "inputs": [],
      "name": "getStudentofClass",
      "outputs": [
        {
          "internalType": "uint256[]",
          "name": "",
          "type": "uint256[]"
        }
      ],
      "stateMutability": "view",
      "type": "function",
      "constant": true
    },
    {
      "inputs": [
        {
          "internalType": "string",
          "name": "className",
          "type": "string"
        }
      ],
      "name": "addClass",
      "outputs": [],
      "stateMutability": "nonpayable",
      "type": "function"
    },
    {
      "inputs": [
        {
          "internalType": "string",
          "name": "_name",
          "type": "string"
        }
      ],
      "name": "addStudentToClass",
      "outputs": [],
      "stateMutability": "nonpayable",
      "type": "function"
    },
    {
      "inputs": [
        {
          "internalType": "uint256",
          "name": "classId",
          "type": "uint256"
        },
        {
          "internalType": "string",
          "name": "_name",
          "type": "string"
        }
      ],
      "name": "registerStudent",
      "outputs": [],
      "stateMutability": "nonpayable",
      "type": "function"
    },
    {
      "inputs": [
        {
          "internalType": "string",
          "name": "_description",
          "type": "string"
        },
        {
          "internalType": "uint256",
          "name": "_voteforID",
          "type": "uint256"
        },
        {
          "internalType": "uint256[]",
          "name": "_votedIds",
          "type": "uint256[]"
        }
      ],
      "name": "createProposal",
      "outputs": [
        {
          "internalType": "uint256",
          "name": "",
          "type": "uint256"
        }
      ],
      "stateMutability": "nonpayable",
      "type": "function"
    },
    {
      "inputs": [
        {
          "internalType": "uint256",
          "name": "studentId",
          "type": "uint256"
        },
        {
          "internalType": "uint256",
          "name": "proposalId",
          "type": "uint256"
        },
        {
          "internalType": "uint256",
          "name": "optionId",
          "type": "uint256"
        }
      ],
      "name": "vote",
      "outputs": [],
      "stateMutability": "nonpayable",
      "type": "function"
    },
    {
      "inputs": [
        {
          "internalType": "uint256",
          "name": "proposalId",
          "type": "uint256"
        },
        {
          "internalType": "uint256",
          "name": "optionId",
          "type": "uint256"
        }
      ],
      "name": "studentVote",
      "outputs": [],
      "stateMutability": "nonpayable",
      "type": "function"
    },
    {
      "inputs": [
        {
          "internalType": "address",
          "name": "classAddress",
          "type": "address"
        },
        {
          "internalType": "uint256",
          "name": "proposalId",
          "type": "uint256"
        }
      ],
      "name": "getProposalResults",
      "outputs": [
        {
          "internalType": "uint256",
          "name": "winningOptionId",
          "type": "uint256"
        },
        {
          "internalType": "uint256",
          "name": "voteforID",
          "type": "uint256"
        }
      ],
      "stateMutability": "view",
      "type": "function",
      "constant": true
    },
    {
      "inputs": [],
      "name": "getStudent",
      "outputs": [
        {
          "internalType": "uint256[]",
          "name": "",
          "type": "uint256[]"
        }
      ],
      "stateMutability": "view",
      "type": "function",
      "constant": true
    },
    {
      "inputs": [
        {
          "internalType": "uint256",
          "name": "studentId",
          "type": "uint256"
        },
        {
          "internalType": "uint256[]",
          "name": "_suitabilities",
          "type": "uint256[]"
        }
      ],
      "name": "setCourseSuitability",
      "outputs": [],
      "stateMutability": "nonpayable",
      "type": "function"
    },
    {
      "inputs": [
        {
          "internalType": "uint256[]",
          "name": "_suitabilities",
          "type": "uint256[]"
        }
      ],
      "name": "studentSetCourseSuitability",
      "outputs": [],
      "stateMutability": "nonpayable",
      "type": "function"
    },
    {
      "inputs": [
        {
          "internalType": "uint256",
          "name": "studentId",
          "type": "uint256"
        }
      ],
      "name": "getCourseSuitability",
      "outputs": [
        {
          "internalType": "uint256[]",
          "name": "",
          "type": "uint256[]"
        }
      ],
      "stateMutability": "view",
      "type": "function",
      "constant": true
    },
    {
      "inputs": [],
      "name": "getAverageSuitability",
      "outputs": [
        {
          "internalType": "uint256[]",
          "name": "",
          "type": "uint256[]"
        }
      ],
      "stateMutability": "view",
      "type": "function",
      "constant": true
    }
  ],
  "bytecode": "0x6080604052600a60065534801561001557600080fd5b50612ae3806100256000396000f3fe608060405234801561001057600080fd5b50600436106101375760003560e01c806386c34415116100b8578063c2abb40a1161007c578063c2abb40a14610357578063d4e57ff014610373578063e581f9ee146103a3578063f1b2126b146103c1578063f8fb3e62146103df578063ffc35303146103fb57610137565b806386c344151461029f5780638a6655d6146102cf578063ab996317146102eb578063b18a993a14610309578063b439548d1461033957610137565b80633d89c149116100ff5780633d89c149146101e45780633f9586d41461021457806350b38428146102305780637456cf3e1461024e578063817dbe9f1461026a57610137565b806306ead22e1461013c57806321489c5514610170578063298c90f41461018c5780632a3cdb8f146101a85780633b173bb3146101c6575b600080fd5b61015660048036038101906101519190611fc5565b61042c565b604051610167959493929190612340565b60405180910390f35b61018a600480360381019061018591906120aa565b610517565b005b6101a660048036038101906101a19190611ff2565b6108fe565b005b6101b0610a15565b6040516101bd9190612402565b60405180910390f35b6101ce610ac5565b6040516101db9190612524565b60405180910390f35b6101fe60048036038101906101f99190611fc5565b610acf565b60405161020b9190612402565b60405180910390f35b61022e6004803603810190610229919061204e565b610b91565b005b610238610d7b565b6040516102459190612524565b60405180910390f35b61026860048036038101906102639190611ea8565b610dc9565b005b610284600480360381019061027f9190611fc5565b610f24565b6040516102969695949392919061239a565b60405180910390f35b6102b960048036038101906102b49190611e3b565b611008565b6040516102c69190612524565b60405180910390f35b6102e960048036038101906102e491906120ea565b611020565b005b6102f36113ec565b6040516103009190612524565b60405180910390f35b610323600480360381019061031e9190611f3a565b6113f2565b6040516103309190612524565b60405180910390f35b610341611569565b60405161034e9190612402565b60405180910390f35b610371600480360381019061036c9190611ef1565b611619565b005b61038d60048036038101906103889190611e3b565b611791565b60405161039a9190612524565b60405180910390f35b6103ab6117a9565b6040516103b89190612524565b60405180910390f35b6103c96117af565b6040516103d69190612402565b60405180910390f35b6103f960048036038101906103f49190611ef1565b611910565b005b61041560048036038101906104109190611e68565b611aa1565b60405161042392919061253f565b60405180910390f35b60016020528060005260406000206000915090508060000160009054906101000a900473ffffffffffffffffffffffffffffffffffffffff169080600101549080600201805461047b90612750565b80601f01602080910402602001604051908101604052809291908181526020018280546104a790612750565b80156104f45780601f106104c9576101008083540402835291602001916104f4565b820191906000526020600020905b8154815290600101906020018083116104d757829003601f168201915b5050505050908060030154908060040160009054906101000a900460ff16905085565b6000600360003373ffffffffffffffffffffffffffffffffffffffff1673ffffffffffffffffffffffffffffffffffffffff16815260200190815260200160002054905060006001600083815260200190815260200160002060030154905060008060008381526020019081526020016000206001015414156105cf576040517f08c379a00000000000000000000000000000000000000000000000000000000081526004016105c690612464565b60405180910390fd5b6000806000838152602001908152602001600020600301600086815260200190815260200160002060000154141561063c576040517f08c379a0000000000000000000000000000000000000000000000000000000008152600401610633906124c4565b60405180910390fd5b6000806000838152602001908152602001600020600301600086815260200190815260200160002060030180549050116106ab576040517f08c379a00000000000000000000000000000000000000000000000000000000081526004016106a290612484565b60405180910390fd5b6000808281526020019081526020016000206003016000858152602001908152602001600020600501600083815260200190815260200160002060009054906101000a900460ff1615610733576040517f08c379a000000000000000000000000000000000000000000000000000000000815260040161072a90612504565b60405180910390fd5b6000805b6000808481526020019081526020016000206003016000878152602001908152602001600020600301805490508110156107d45784600080858152602001908152602001600020600301600088815260200190815260200160002060030182815481106107a7576107a6612889565b5b906000526020600020015414156107c157600191506107d4565b80806107cc906127b3565b915050610737565b5080610815576040517f08c379a000000000000000000000000000000000000000000000000000000000815260040161080c90612424565b60405180910390fd5b600080838152602001908152602001600020600301600086815260200190815260200160002060040160008581526020019081526020016000206000815480929190610860906127b3565b919050555060016000808481526020019081526020016000206003016000878152602001908152602001600020600501600085815260200190815260200160002060006101000a81548160ff021916908315150217905550600080838152602001908152602001600020600301600086815260200190815260200160002060060160008154809291906108f2906127b3565b91905055505050505050565b600554821115610943576040517f08c379a000000000000000000000000000000000000000000000000000000000815260040161093a906124e4565b60405180910390fd5b600654815114610988576040517f08c379a000000000000000000000000000000000000000000000000000000000815260040161097f90612444565b60405180910390fd5b600060016000848152602001908152602001600020905060018160040160006101000a81548160ff02191690831515021790555060005b8251811015610a0f578281815181106109db576109da612889565b5b6020026020010151826005016000838152602001908152602001600020819055508080610a07906127b3565b9150506109bf565b50505050565b60606000600260003373ffffffffffffffffffffffffffffffffffffffff1673ffffffffffffffffffffffffffffffffffffffff168152602001908152602001600020549050600080828152602001908152602001600020600501805480602002602001604051908101604052809291908181526020018280548015610aba57602002820191906000526020600020905b815481526020019060010190808311610aa6575b505050505091505090565b6000600454905090565b6060600060065467ffffffffffffffff811115610aef57610aee6128b8565b5b604051908082528060200260200182016040528015610b1d5781602001602082028036833780820191505090505b50905060005b600654811015610b875760016000858152602001908152602001600020600501600082815260200190815260200160002054828281518110610b6857610b67612889565b5b6020026020010181815250508080610b7f906127b3565b915050610b23565b5080915050919050565b6000806000848152602001908152602001600020600101541415610bea576040517f08c379a0000000000000000000000000000000000000000000000000000000008152600401610be190612464565b60405180910390fd5b60056000815480929190610bfd906127b3565b9190505550600554600360003373ffffffffffffffffffffffffffffffffffffffff1673ffffffffffffffffffffffffffffffffffffffff168152602001908152602001600020819055503360016000600554815260200190815260200160002060000160006101000a81548173ffffffffffffffffffffffffffffffffffffffff021916908373ffffffffffffffffffffffffffffffffffffffff16021790555060055460016000600554815260200190815260200160002060010181905550806001600060055481526020019081526020016000206002019080519060200190610cea929190611c60565b508160016000600554815260200190815260200160002060030181905550600060016000600554815260200190815260200160002060040160006101000a81548160ff02191690831515021790555060008083815260200190815260200160002060050160055490806001815401808255809150506001900390600052602060002001600090919091909150555050565b60008060005b600454811015610dc1576000808281526020019081526020016000206007015482610dac919061263f565b91508080610db9906127b3565b915050610d81565b508091505090565b6000600360003373ffffffffffffffffffffffffffffffffffffffff1673ffffffffffffffffffffffffffffffffffffffff168152602001908152602001600020549050600554811115610e52576040517f08c379a0000000000000000000000000000000000000000000000000000000008152600401610e49906124e4565b60405180910390fd5b600654825114610e97576040517f08c379a0000000000000000000000000000000000000000000000000000000008152600401610e8e90612444565b60405180910390fd5b600060016000838152602001908152602001600020905060018160040160006101000a81548160ff02191690831515021790555060005b8351811015610f1e57838181518110610eea57610ee9612889565b5b6020026020010151826005016000838152602001908152602001600020819055508080610f16906127b3565b915050610ece565b50505050565b60006020528060005260406000206000915090508060000160009054906101000a900473ffffffffffffffffffffffffffffffffffffffff1690806001015490806002018054610f7390612750565b80601f0160208091040260200160405190810160405280929190818152602001828054610f9f90612750565b8015610fec5780601f10610fc157610100808354040283529160200191610fec565b820191906000526020600020905b815481529060010190602001808311610fcf57829003601f168201915b5050505050908060040154908060060154908060070154905086565b60036020528060005260406000206000915090505481565b6000600260003373ffffffffffffffffffffffffffffffffffffffff1673ffffffffffffffffffffffffffffffffffffffff16815260200190815260200160002054905060008060008381526020019081526020016000206001015414156110bd576040517f08c379a00000000000000000000000000000000000000000000000000000000081526004016110b490612464565b60405180910390fd5b6000806000838152602001908152602001600020600301600085815260200190815260200160002060000154141561112a576040517f08c379a0000000000000000000000000000000000000000000000000000000008152600401611121906124c4565b60405180910390fd5b600080600083815260200190815260200160002060030160008581526020019081526020016000206003018054905011611199576040517f08c379a000000000000000000000000000000000000000000000000000000000815260040161119090612484565b60405180910390fd5b6000808281526020019081526020016000206003016000848152602001908152602001600020600501600085815260200190815260200160002060009054906101000a900460ff1615611221576040517f08c379a000000000000000000000000000000000000000000000000000000000815260040161121890612504565b60405180910390fd5b6000805b6000808481526020019081526020016000206003016000868152602001908152602001600020600301805490508110156112c257836000808581526020019081526020016000206003016000878152602001908152602001600020600301828154811061129557611294612889565b5b906000526020600020015414156112af57600191506112c2565b80806112ba906127b3565b915050611225565b5080611303576040517f08c379a00000000000000000000000000000000000000000000000000000000081526004016112fa90612424565b60405180910390fd5b60008083815260200190815260200160002060030160008581526020019081526020016000206004016000848152602001908152602001600020600081548092919061134e906127b3565b919050555060016000808481526020019081526020016000206003016000868152602001908152602001600020600501600087815260200190815260200160002060006101000a81548160ff021916908315150217905550600080838152602001908152602001600020600301600085815260200190815260200160002060060160008154809291906113e0906127b3565b91905055505050505050565b60045481565b600080600090506000600190505b600454811161155d5760008060008381526020019081526020016000209050806004016000815480929190611434906127b3565b9190505550600081600401549050808260030160008381526020019081526020016000206000018190555087826003016000838152602001908152602001600020600101908051906020019061148b929190611c60565b5060005b86518110156115275760008782815181106114ad576114ac612889565b5b602002602001015114611514578260030160008381526020019081526020016000206003018782815181106114e5576114e4612889565b5b602002602001015190806001815401808255809150506001900390600052602060002001600090919091909150555b808061151f906127b3565b91505061148f565b50868260030160008381526020019081526020016000206002018190555080935050508080611555906127b3565b915050611400565b50809150509392505050565b60606000600260003373ffffffffffffffffffffffffffffffffffffffff1673ffffffffffffffffffffffffffffffffffffffff16815260200190815260200160002054905060008082815260200190815260200160002060050180548060200260200160405190810160405280929190818152602001828054801561160e57602002820191906000526020600020905b8154815260200190600101908083116115fa575b505050505091505090565b6004600081548092919061162c906127b3565b919050555060008060006004548152602001908152602001600020600101541461168b576040517f08c379a0000000000000000000000000000000000000000000000000000000008152600401611682906124a4565b60405180910390fd5b600454600260003373ffffffffffffffffffffffffffffffffffffffff1673ffffffffffffffffffffffffffffffffffffffff1681526020019081526020016000208190555033600080600454815260200190815260200160002060000160006101000a81548173ffffffffffffffffffffffffffffffffffffffff021916908373ffffffffffffffffffffffffffffffffffffffff1602179055506004546000806004548152602001908152602001600020600101819055508060008060045481526020019081526020016000206002019080519060200190611770929190611c60565b50600a60008060045481526020019081526020016000206007018190555050565b60026020528060005260406000206000915090505481565b60055481565b6060600060065467ffffffffffffffff8111156117cf576117ce6128b8565b5b6040519080825280602002602001820160405280156117fd5781602001602082028036833780820191505090505b5090506000600190505b60055481116118a057600060016000838152602001908152602001600020905060005b60065481101561188b578160050160008281526020019081526020016000205484828151811061185d5761185c612889565b5b60200260200101818151611871919061263f565b915081815250508080611883906127b3565b91505061182a565b50508080611898906127b3565b915050611807565b5060005b600654811015611908576005548282815181106118c4576118c3612889565b5b60200260200101516118d69190612695565b8282815181106118e9576118e8612889565b5b6020026020010181815250508080611900906127b3565b9150506118a4565b508091505090565b6000600260003373ffffffffffffffffffffffffffffffffffffffff1673ffffffffffffffffffffffffffffffffffffffff16815260200190815260200160002054905060008060008381526020019081526020016000206001015414156119ad576040517f08c379a00000000000000000000000000000000000000000000000000000000081526004016119a490612464565b60405180910390fd5b600560008154809291906119c0906127b3565b919050555060055460016000600554815260200190815260200160002060010181905550816001600060055481526020019081526020016000206002019080519060200190611a10929190611c60565b508060016000600554815260200190815260200160002060030181905550600060016000600554815260200190815260200160002060040160006101000a81548160ff02191690831515021790555060008082815260200190815260200160002060050160055490806001815401808255809150506001900390600052602060002001600090919091909150555050565b6000806000600260008673ffffffffffffffffffffffffffffffffffffffff1673ffffffffffffffffffffffffffffffffffffffff1681526020019081526020016000205490506000806000838152602001908152602001600020600101541415611b41576040517f08c379a0000000000000000000000000000000000000000000000000000000008152600401611b3890612464565b60405180910390fd5b60008060008381526020019081526020016000206003016000868152602001908152602001600020600001541415611bae576040517f08c379a0000000000000000000000000000000000000000000000000000000008152600401611ba5906124c4565b60405180910390fd5b600080600083815260200190815260200160002060030160008681526020019081526020016000209050806002015492506000805b8260030180549050811015611c55576000836003018281548110611c0a57611c09612889565b5b90600052602060002001549050600084600401600083815260200190815260200160002054905083811115611c40578093508197505b50508080611c4d906127b3565b915050611be3565b505050509250929050565b828054611c6c90612750565b90600052602060002090601f016020900481019282611c8e5760008555611cd5565b82601f10611ca757805160ff1916838001178555611cd5565b82800160010185558215611cd5579182015b82811115611cd4578251825591602001919060010190611cb9565b5b509050611ce29190611ce6565b5090565b5b80821115611cff576000816000905550600101611ce7565b5090565b6000611d16611d118461258d565b612568565b90508083825260208201905082856020860282011115611d3957611d386128ec565b5b60005b85811015611d695781611d4f8882611e26565b845260208401935060208301925050600181019050611d3c565b5050509392505050565b6000611d86611d81846125b9565b612568565b905082815260208101848484011115611da257611da16128f1565b5b611dad84828561270e565b509392505050565b600081359050611dc481612a7f565b92915050565b600082601f830112611ddf57611dde6128e7565b5b8135611def848260208601611d03565b91505092915050565b600082601f830112611e0d57611e0c6128e7565b5b8135611e1d848260208601611d73565b91505092915050565b600081359050611e3581612a96565b92915050565b600060208284031215611e5157611e506128fb565b5b6000611e5f84828501611db5565b91505092915050565b60008060408385031215611e7f57611e7e6128fb565b5b6000611e8d85828601611db5565b9250506020611e9e85828601611e26565b9150509250929050565b600060208284031215611ebe57611ebd6128fb565b5b600082013567ffffffffffffffff811115611edc57611edb6128f6565b5b611ee884828501611dca565b91505092915050565b600060208284031215611f0757611f066128fb565b5b600082013567ffffffffffffffff811115611f2557611f246128f6565b5b611f3184828501611df8565b91505092915050565b600080600060608486031215611f5357611f526128fb565b5b600084013567ffffffffffffffff811115611f7157611f706128f6565b5b611f7d86828701611df8565b9350506020611f8e86828701611e26565b925050604084013567ffffffffffffffff811115611faf57611fae6128f6565b5b611fbb86828701611dca565b9150509250925092565b600060208284031215611fdb57611fda6128fb565b5b6000611fe984828501611e26565b91505092915050565b60008060408385031215612009576120086128fb565b5b600061201785828601611e26565b925050602083013567ffffffffffffffff811115612038576120376128f6565b5b61204485828601611dca565b9150509250929050565b60008060408385031215612065576120646128fb565b5b600061207385828601611e26565b925050602083013567ffffffffffffffff811115612094576120936128f6565b5b6120a085828601611df8565b9150509250929050565b600080604083850312156120c1576120c06128fb565b5b60006120cf85828601611e26565b92505060206120e085828601611e26565b9150509250929050565b600080600060608486031215612103576121026128fb565b5b600061211186828701611e26565b935050602061212286828701611e26565b925050604061213386828701611e26565b9150509250925092565b60006121498383612322565b60208301905092915050565b61215e816126c6565b82525050565b600061216f826125fa565b612179818561261d565b9350612184836125ea565b8060005b838110156121b557815161219c888261213d565b97506121a783612610565b925050600181019050612188565b5085935050505092915050565b6121cb816126d8565b82525050565b60006121dc82612605565b6121e6818561262e565b93506121f681856020860161271d565b6121ff81612900565b840191505092915050565b600061221760118361262e565b915061222282612911565b602082019050919050565b600061223a60218361262e565b91506122458261293a565b604082019050919050565b600061225d60148361262e565b915061226882612989565b602082019050919050565b600061228060178361262e565b915061228b826129b2565b602082019050919050565b60006122a360148361262e565b91506122ae826129db565b602082019050919050565b60006122c660178361262e565b91506122d182612a04565b602082019050919050565b60006122e960168361262e565b91506122f482612a2d565b602082019050919050565b600061230c60168361262e565b915061231782612a56565b602082019050919050565b61232b81612704565b82525050565b61233a81612704565b82525050565b600060a0820190506123556000830188612155565b6123626020830187612331565b818103604083015261237481866121d1565b90506123836060830185612331565b61239060808301846121c2565b9695505050505050565b600060c0820190506123af6000830189612155565b6123bc6020830188612331565b81810360408301526123ce81876121d1565b90506123dd6060830186612331565b6123ea6080830185612331565b6123f760a0830184612331565b979650505050505050565b6000602082019050818103600083015261241c8184612164565b905092915050565b6000602082019050818103600083015261243d8161220a565b9050919050565b6000602082019050818103600083015261245d8161222d565b9050919050565b6000602082019050818103600083015261247d81612250565b9050919050565b6000602082019050818103600083015261249d81612273565b9050919050565b600060208201905081810360008301526124bd81612296565b9050919050565b600060208201905081810360008301526124dd816122b9565b9050919050565b600060208201905081810360008301526124fd816122dc565b9050919050565b6000602082019050818103600083015261251d816122ff565b9050919050565b60006020820190506125396000830184612331565b92915050565b60006040820190506125546000830185612331565b6125616020830184612331565b9392505050565b6000612572612583565b905061257e8282612782565b919050565b6000604051905090565b600067ffffffffffffffff8211156125a8576125a76128b8565b5b602082029050602081019050919050565b600067ffffffffffffffff8211156125d4576125d36128b8565b5b6125dd82612900565b9050602081019050919050565b6000819050602082019050919050565b600081519050919050565b600081519050919050565b6000602082019050919050565b600082825260208201905092915050565b600082825260208201905092915050565b600061264a82612704565b915061265583612704565b9250827fffffffffffffffffffffffffffffffffffffffffffffffffffffffffffffffff0382111561268a576126896127fc565b5b828201905092915050565b60006126a082612704565b91506126ab83612704565b9250826126bb576126ba61282b565b5b828204905092915050565b60006126d1826126e4565b9050919050565b60008115159050919050565b600073ffffffffffffffffffffffffffffffffffffffff82169050919050565b6000819050919050565b82818337600083830152505050565b60005b8381101561273b578082015181840152602081019050612720565b8381111561274a576000848401525b50505050565b6000600282049050600182168061276857607f821691505b6020821081141561277c5761277b61285a565b5b50919050565b61278b82612900565b810181811067ffffffffffffffff821117156127aa576127a96128b8565b5b80604052505050565b60006127be82612704565b91507fffffffffffffffffffffffffffffffffffffffffffffffffffffffffffffffff8214156127f1576127f06127fc565b5b600182019050919050565b7f4e487b7100000000000000000000000000000000000000000000000000000000600052601160045260246000fd5b7f4e487b7100000000000000000000000000000000000000000000000000000000600052601260045260246000fd5b7f4e487b7100000000000000000000000000000000000000000000000000000000600052602260045260246000fd5b7f4e487b7100000000000000000000000000000000000000000000000000000000600052603260045260246000fd5b7f4e487b7100000000000000000000000000000000000000000000000000000000600052604160045260246000fd5b600080fd5b600080fd5b600080fd5b600080fd5b600080fd5b6000601f19601f8301169050919050565b7f496e76616c6964206f7074696f6e204944000000000000000000000000000000600082015250565b7f537569746162696c697479206172726179206c656e677468206d69736d61746360008201527f6800000000000000000000000000000000000000000000000000000000000000602082015250565b7f436c61737320646f6573206e6f74206578697374000000000000000000000000600082015250565b7f50726f706f73616c20686173206e6f206f7074696f6e73000000000000000000600082015250565b7f436c61737320616c726561647920657869737473000000000000000000000000600082015250565b7f50726f706f73616c20646f6573206e6f74206578697374000000000000000000600082015250565b7f53747564656e7420646f6573206e6f7420657869737400000000000000000000600082015250565b7f596f75206861766520616c726561647920766f74656400000000000000000000600082015250565b612a88816126c6565b8114612a9357600080fd5b50565b612a9f81612704565b8114612aaa57600080fd5b5056fea264697066735822122029b5a6ac3fc5e2c6a42e540eb735d1ea969d101ab63d2ec935d1ec3842ebdb0664736f6c63430008070033",
  "immutableReferences": {},
  "source": "// SPDX-License-Identifier: MIT\r\npragma solidity ^0.8.7;\r\n\r\ninterface StudentVote {\r\n    function createProposal(string memory _description, uint256 _voteforID, uint256[] memory _votedIds) external returns (uint256);\r\n    function vote(uint256 studentId, uint256 proposalId, uint256 optionId) external;\r\n    function getProposalResults(address classAddress, uint256 proposalId) external view returns (uint256, uint256);\r\n    function getAverageSuitability() external view returns (uint256[] memory);\r\n    function getClassNum() external view returns (uint256);\r\n    function getClassWeight() external view returns (uint256);\r\n}\r\n\r\ncontract IStudentVote is StudentVote {\r\n    struct Student {\r\n        address studentAddress;\r\n        uint256 id;\r\n        string name;\r\n        uint256 classId;\r\n        bool isSetSuitability;\r\n        mapping(uint256 => uint256) courseSuitability;\r\n    }\r\n\r\n    struct Class {\r\n        address classAddress;\r\n        uint256 id;\r\n        string name;\r\n        mapping(uint256 => Proposal) proposals;\r\n        uint256 proposalCount;\r\n        uint256[] studentsId;\r\n        uint256 studentCount;\r\n        uint256 weightForAutoVote;\r\n    }\r\n\r\n    struct Proposal {\r\n        uint256 id;\r\n        string description;\r\n        uint256 voteforID; // ID\r\n        uint256[] votedIds;\r\n        mapping(uint256 => uint256) voteIdToCount;\r\n        mapping(uint256 => bool) ifVote;\r\n        uint256 voteCount;\r\n    }\r\n\r\n    mapping(uint256 => Class) public classes;\r\n    mapping(uint256 => Student) public students;\r\n    mapping(address => uint256) public addressToClassId;\r\n    mapping(address => uint256) public addressToStudentId;\r\n    uint256 public classCount;\r\n    uint256 public studentCount;\r\n    uint256 courseCount = 10;\r\n\r\n    function getClassNum() public view override returns(uint256) {\r\n        return classCount;\r\n    }\r\n\r\n    function getClassWeight() public view override returns(uint256) {\r\n        uint256 classWeights;\r\n        for(uint256 i = 0; i < classCount; i++){\r\n            classWeights += classes[i].weightForAutoVote;\r\n        }\r\n        return classWeights;\r\n    }\r\n\r\n    function getStudentofClass() public view returns(uint256[] memory) {\r\n        uint256 classId = addressToClassId[msg.sender];\r\n        return classes[classId].studentsId;\r\n    }\r\n\r\n    // \r\n    function addClass(string memory className) public {\r\n        classCount++;\r\n        require(classes[classCount].id == 0, \"Class already exists\");\r\n        addressToClassId[msg.sender] = classCount;\r\n        classes[classCount].classAddress = msg.sender;\r\n        classes[classCount].id = classCount;\r\n        classes[classCount].name = className;\r\n        classes[classCount].weightForAutoVote = 10;\r\n    }\r\n\r\n    // \r\n    function addStudentToClass(string memory _name) public {\r\n        uint256 classId = addressToClassId[msg.sender];\r\n        require(classes[classId].id != 0, \"Class does not exist\");\r\n        studentCount++;\r\n        students[studentCount].id = studentCount;\r\n        students[studentCount].name = _name;\r\n        students[studentCount].classId = classId;\r\n        students[studentCount].isSetSuitability = false;\r\n        classes[classId].studentsId.push(studentCount);\r\n    }\r\n\r\n    // \r\n    function registerStudent(uint256 classId, string memory _name) public{\r\n        require(classes[classId].id != 0, \"Class does not exist\");\r\n        studentCount++;\r\n        addressToStudentId[msg.sender] = studentCount;\r\n        students[studentCount].studentAddress = msg.sender;\r\n        students[studentCount].id = studentCount;\r\n        students[studentCount].name = _name;\r\n        students[studentCount].classId = classId;\r\n        students[studentCount].isSetSuitability = false;\r\n        classes[classId].studentsId.push(studentCount);\r\n    }\r\n\r\n    // \r\n    function createProposal(string memory _description, uint256 _voteforID, uint256[] memory _votedIds) public override returns (uint256) {\r\n        uint256 newProposalID = 0;\r\n        for (uint256 i = 1; i <= classCount; i++) {\r\n            Class storage cls = classes[i];\r\n            cls.proposalCount++;\r\n            uint256 proposalId = cls.proposalCount;\r\n\r\n            cls.proposals[proposalId].id = proposalId;\r\n            cls.proposals[proposalId].description = _description;\r\n\r\n            for (uint256 j = 0; j < _votedIds.length; j++) {\r\n                if(_votedIds[j] != 0){\r\n                    cls.proposals[proposalId].votedIds.push(_votedIds[j]);\r\n                }\r\n            }\r\n\r\n            cls.proposals[proposalId].voteforID = _voteforID;\r\n            newProposalID = proposalId;\r\n        }\r\n        return newProposalID;\r\n    }\r\n\r\n    // \r\n    function vote(uint256 studentId, uint256 proposalId, uint256 optionId) public override {\r\n        uint256 classId = addressToClassId[msg.sender];\r\n        require(classes[classId].id != 0, \"Class does not exist\");\r\n        require(classes[classId].proposals[proposalId].id != 0, \"Proposal does not exist\");\r\n        require(classes[classId].proposals[proposalId].votedIds.length > 0, \"Proposal has no options\");\r\n        require(!classes[classId].proposals[proposalId].ifVote[studentId], \"You have already voted\");\r\n\r\n        bool optionExists = false;\r\n        for (uint256 i = 0; i < classes[classId].proposals[proposalId].votedIds.length; i++) {\r\n            if (classes[classId].proposals[proposalId].votedIds[i] == optionId) {\r\n                optionExists = true;\r\n                break;\r\n            }\r\n        }\r\n        require(optionExists, \"Invalid option ID\");\r\n\r\n        classes[classId].proposals[proposalId].voteIdToCount[optionId]++;\r\n        classes[classId].proposals[proposalId].ifVote[studentId] = true;\r\n        classes[classId].proposals[proposalId].voteCount++;\r\n    }\r\n\r\n    function studentVote(uint256 proposalId, uint256 optionId) public {\r\n        uint256 studentId = addressToStudentId[msg.sender];\r\n        uint256 classId = students[studentId].classId;\r\n        require(classes[classId].id != 0, \"Class does not exist\");\r\n        require(classes[classId].proposals[proposalId].id != 0, \"Proposal does not exist\");\r\n        require(classes[classId].proposals[proposalId].votedIds.length > 0, \"Proposal has no options\");\r\n        require(!classes[classId].proposals[proposalId].ifVote[studentId], \"You have already voted\");\r\n\r\n        bool optionExists = false;\r\n        for (uint256 i = 0; i < classes[classId].proposals[proposalId].votedIds.length; i++) {\r\n            if (classes[classId].proposals[proposalId].votedIds[i] == optionId) {\r\n                optionExists = true;\r\n                break;\r\n            }\r\n        }\r\n        require(optionExists, \"Invalid option ID\");\r\n\r\n        classes[classId].proposals[proposalId].voteIdToCount[optionId]++;\r\n        classes[classId].proposals[proposalId].ifVote[studentId] = true;\r\n        classes[classId].proposals[proposalId].voteCount++;\r\n    }\r\n\r\n    // \r\n    function getProposalResults(address classAddress, uint256 proposalId) public view override returns (uint256 winningOptionId, uint256 voteforID) {\r\n        uint256 classId = addressToClassId[classAddress];\r\n        require(classes[classId].id != 0, \"Class does not exist\");\r\n        require(classes[classId].proposals[proposalId].id != 0, \"Proposal does not exist\");\r\n\r\n        Proposal storage proposal = classes[classId].proposals[proposalId];\r\n        voteforID = proposal.voteforID;\r\n\r\n        uint256 maxVoteCount = 0;\r\n        for (uint256 i = 0; i < proposal.votedIds.length; i++) {\r\n            uint256 optionId = proposal.votedIds[i];\r\n            uint256 voteCount = proposal.voteIdToCount[optionId];\r\n            if (voteCount > maxVoteCount) {\r\n                maxVoteCount = voteCount;\r\n                winningOptionId = optionId;\r\n            }\r\n        }\r\n    }\r\n\r\n    function getStudent() public view returns(uint256[] memory) {\r\n        uint classId = addressToClassId[msg.sender];\r\n        return classes[classId].studentsId;\r\n    }\r\n\r\n    // \r\n    function setCourseSuitability(uint256 studentId, uint256[] memory _suitabilities) public {\r\n        require(studentId <= studentCount, \"Student does not exist\");\r\n         // \r\n        require(_suitabilities.length == courseCount, \"Suitability array length mismatch\");\r\n        Student storage student = students[studentId];\r\n        student.isSetSuitability = true;\r\n        for(uint256 i = 0; i < _suitabilities.length; i++){\r\n            student.courseSuitability[i] =  _suitabilities[i] ;\r\n        }\r\n    }\r\n\r\n    function studentSetCourseSuitability(uint256[] memory _suitabilities) public {\r\n        uint256 studentId = addressToStudentId[msg.sender]; \r\n        require(studentId <= studentCount, \"Student does not exist\");\r\n         // \r\n        require(_suitabilities.length == courseCount, \"Suitability array length mismatch\");\r\n        Student storage student = students[studentId];\r\n        student.isSetSuitability = true;\r\n        for(uint256 i = 0; i < _suitabilities.length; i++){\r\n            student.courseSuitability[i] =  _suitabilities[i] ;\r\n        }\r\n    }\r\n\r\n    // \r\n    function getCourseSuitability(uint256 studentId) public view returns(uint256[] memory) {\r\n        uint256[] memory _suitabilities = new uint256[](courseCount);\r\n        for(uint256 i = 0; i < courseCount; i++){\r\n            _suitabilities[i] = students[studentId].courseSuitability[i];\r\n        }\r\n        return _suitabilities;\r\n    }\r\n\r\n    // \r\n    function getAverageSuitability() public view override returns(uint256[] memory) {\r\n        uint256[] memory totalCourseScore = new uint256[](courseCount);\r\n        for(uint256 i = 1; i <= studentCount; i++){\r\n            Student storage student = students[i];\r\n            for(uint256 j = 0; j < courseCount; j++){\r\n                totalCourseScore[j] += student.courseSuitability[j];\r\n            }\r\n        }\r\n        for(uint256 j = 0; j < courseCount; j++){\r\n                totalCourseScore[j] = totalCourseScore[j] / studentCount;\r\n        }\r\n        return totalCourseScore;\r\n    }\r\n}",
  "sourcePath": "E:\\dao\\327\\Course-allocation\\project\\contracts\\IStudentVote.sol",
  "compiler": {
    "name": "solc",
    "version": "0.8.7+commit.e28d00a7.Emscripten.clang"
  },
  "schemaVersion": "3.4.16",
  "updatedAt": "2025-03-29T14:30:37.366Z",
  "networkType": "ethereum",
  "devdoc": {
    "kind": "dev",
    "methods": {},
    "version": 1
  },
  "userdoc": {
    "kind": "user",
    "methods": {},
    "version": 1
  }
}