{
  "contractName": "IStudentVote",
  "abi": [
    {
      "inputs": [
        {
          "internalType": "address",
          "name": "",
          "type": "address"
        }
      ],
      "name": "addressToClassId",
      "outputs": [
        {
          "internalType": "uint256",
          "name": "",
          "type": "uint256"
        }
      ],
      "stateMutability": "view",
      "type": "function",
      "constant": true
    },
    {
      "inputs": [
        {
          "internalType": "address",
          "name": "",
          "type": "address"
        }
      ],
      "name": "addressToStudentId",
      "outputs": [
        {
          "internalType": "uint256",
          "name": "",
          "type": "uint256"
        }
      ],
      "stateMutability": "view",
      "type": "function",
      "constant": true
    },
    {
      "inputs": [],
      "name": "classCount",
      "outputs": [
        {
          "internalType": "uint256",
          "name": "",
          "type": "uint256"
        }
      ],
      "stateMutability": "view",
      "type": "function",
      "constant": true
    },
    {
      "inputs": [
        {
          "internalType": "uint256",
          "name": "",
          "type": "uint256"
        }
      ],
      "name": "classIds",
      "outputs": [
        {
          "internalType": "uint256",
          "name": "",
          "type": "uint256"
        }
      ],
      "stateMutability": "view",
      "type": "function",
      "constant": true
    },
    {
      "inputs": [
        {
          "internalType": "uint256",
          "name": "",
          "type": "uint256"
        }
      ],
      "name": "classes",
      "outputs": [
        {
          "internalType": "address",
          "name": "addr",
          "type": "address"
        },
        {
          "internalType": "uint256",
          "name": "id",
          "type": "uint256"
        },
        {
          "internalType": "string",
          "name": "name",
          "type": "string"
        },
        {
          "internalType": "uint256",
          "name": "proposalCount",
          "type": "uint256"
        },
        {
          "internalType": "uint256",
          "name": "studentCount",
          "type": "uint256"
        },
        {
          "internalType": "uint256",
          "name": "weightForAutoVote",
          "type": "uint256"
        }
      ],
      "stateMutability": "view",
      "type": "function",
      "constant": true
    },
    {
      "inputs": [],
      "name": "studentCount",
      "outputs": [
        {
          "internalType": "uint256",
          "name": "",
          "type": "uint256"
        }
      ],
      "stateMutability": "view",
      "type": "function",
      "constant": true
    },
    {
      "inputs": [
        {
          "internalType": "uint256",
          "name": "",
          "type": "uint256"
        }
      ],
      "name": "studentIds",
      "outputs": [
        {
          "internalType": "uint256",
          "name": "",
          "type": "uint256"
        }
      ],
      "stateMutability": "view",
      "type": "function",
      "constant": true
    },
    {
      "inputs": [
        {
          "internalType": "uint256",
          "name": "",
          "type": "uint256"
        }
      ],
      "name": "students",
      "outputs": [
        {
          "internalType": "address",
          "name": "addr",
          "type": "address"
        },
        {
          "internalType": "uint256",
          "name": "id",
          "type": "uint256"
        },
        {
          "internalType": "string",
          "name": "name",
          "type": "string"
        },
        {
          "internalType": "uint256",
          "name": "classId",
          "type": "uint256"
        },
        {
          "internalType": "bool",
          "name": "isSetSuitability",
          "type": "bool"
        }
      ],
      "stateMutability": "view",
      "type": "function",
      "constant": true
    },
    {
      "inputs": [],
      "name": "getClassNum",
      "outputs": [
        {
          "internalType": "uint256",
          "name": "",
          "type": "uint256"
        }
      ],
      "stateMutability": "view",
      "type": "function",
      "constant": true
    },
    {
      "inputs": [],
      "name": "getClassWeight",
      "outputs": [
        {
          "internalType": "uint256",
          "name": "",
          "type": "uint256"
        }
      ],
      "stateMutability": "view",
      "type": "function",
      "constant": true
    },
    {
      "inputs": [
        {
          "internalType": "string",
          "name": "className",
          "type": "string"
        },
        {
          "internalType": "address",
          "name": "classAddress",
          "type": "address"
        }
      ],
      "name": "addClass",
      "outputs": [],
      "stateMutability": "nonpayable",
      "type": "function"
    },
    {
      "inputs": [
        {
          "internalType": "string",
          "name": "_name",
          "type": "string"
        }
      ],
      "name": "addStudentToClass",
      "outputs": [],
      "stateMutability": "nonpayable",
      "type": "function"
    },
    {
      "inputs": [
        {
          "internalType": "uint256",
          "name": "classId",
          "type": "uint256"
        },
        {
          "internalType": "string",
          "name": "_name",
          "type": "string"
        },
        {
          "internalType": "address",
          "name": "studentAddress",
          "type": "address"
        }
      ],
      "name": "registerStudent",
      "outputs": [],
      "stateMutability": "nonpayable",
      "type": "function"
    },
    {
      "inputs": [
        {
          "internalType": "string",
          "name": "_description",
          "type": "string"
        },
        {
          "internalType": "uint256",
          "name": "_voteforID",
          "type": "uint256"
        },
        {
          "internalType": "uint256[]",
          "name": "_votedIds",
          "type": "uint256[]"
        }
      ],
      "name": "createProposal",
      "outputs": [
        {
          "internalType": "uint256",
          "name": "",
          "type": "uint256"
        }
      ],
      "stateMutability": "nonpayable",
      "type": "function"
    },
    {
      "inputs": [
        {
          "internalType": "uint256",
          "name": "studentId",
          "type": "uint256"
        },
        {
          "internalType": "uint256",
          "name": "proposalId",
          "type": "uint256"
        },
        {
          "internalType": "uint256",
          "name": "optionId",
          "type": "uint256"
        }
      ],
      "name": "vote",
      "outputs": [],
      "stateMutability": "nonpayable",
      "type": "function"
    },
    {
      "inputs": [
        {
          "internalType": "uint256",
          "name": "studentId",
          "type": "uint256"
        },
        {
          "internalType": "uint256",
          "name": "proposalId",
          "type": "uint256"
        },
        {
          "internalType": "uint256",
          "name": "optionId",
          "type": "uint256"
        }
      ],
      "name": "studentVote",
      "outputs": [],
      "stateMutability": "nonpayable",
      "type": "function"
    },
    {
      "inputs": [
        {
          "internalType": "address",
          "name": "classAddress",
          "type": "address"
        },
        {
          "internalType": "uint256",
          "name": "proposalId",
          "type": "uint256"
        }
      ],
      "name": "getProposalResults",
      "outputs": [
        {
          "internalType": "uint256",
          "name": "winningOptionId",
          "type": "uint256"
        },
        {
          "internalType": "uint256",
          "name": "voteforID",
          "type": "uint256"
        }
      ],
      "stateMutability": "view",
      "type": "function",
      "constant": true
    },
    {
      "inputs": [],
      "name": "getStudent",
      "outputs": [
        {
          "internalType": "uint256[]",
          "name": "",
          "type": "uint256[]"
        }
      ],
      "stateMutability": "view",
      "type": "function",
      "constant": true
    },
    {
      "inputs": [
        {
          "internalType": "uint256",
          "name": "studentId",
          "type": "uint256"
        },
        {
          "internalType": "uint256[]",
          "name": "_suitabilities",
          "type": "uint256[]"
        }
      ],
      "name": "setCourseSuitability",
      "outputs": [],
      "stateMutability": "nonpayable",
      "type": "function"
    },
    {
      "inputs": [
        {
          "internalType": "uint256[]",
          "name": "_suitabilities",
          "type": "uint256[]"
        }
      ],
      "name": "studentSetCourseSuitability",
      "outputs": [],
      "stateMutability": "nonpayable",
      "type": "function"
    },
    {
      "inputs": [
        {
          "internalType": "uint256",
          "name": "studentId",
          "type": "uint256"
        }
      ],
      "name": "getCourseSuitability",
      "outputs": [
        {
          "internalType": "uint256[]",
          "name": "",
          "type": "uint256[]"
        }
      ],
      "stateMutability": "view",
      "type": "function",
      "constant": true
    },
    {
      "inputs": [],
      "name": "getAverageSuitability",
      "outputs": [
        {
          "internalType": "uint256[]",
          "name": "",
          "type": "uint256[]"
        }
      ],
      "stateMutability": "view",
      "type": "function",
      "constant": true
    },
    {
      "inputs": [],
      "name": "getClassIds",
      "outputs": [
        {
          "internalType": "uint256[]",
          "name": "",
          "type": "uint256[]"
        }
      ],
      "stateMutability": "view",
      "type": "function",
      "constant": true
    },
    {
      "inputs": [],
      "name": "getStudentIds",
      "outputs": [
        {
          "internalType": "uint256[]",
          "name": "",
          "type": "uint256[]"
        }
      ],
      "stateMutability": "view",
      "type": "function",
      "constant": true
    },
    {
      "inputs": [
        {
          "internalType": "uint256",
          "name": "classId",
          "type": "uint256"
        },
        {
          "internalType": "uint256",
          "name": "proposalId",
          "type": "uint256"
        }
      ],
      "name": "getProposalInfo",
      "outputs": [
        {
          "internalType": "uint256[]",
          "name": "",
          "type": "uint256[]"
        },
        {
          "internalType": "uint256",
          "name": "",
          "type": "uint256"
        }
      ],
      "stateMutability": "view",
      "type": "function",
      "constant": true
    }
  ],
  "bytecode": "0x6080604052600a60085534801561001557600080fd5b50612da8806100256000396000f3fe608060405234801561001057600080fd5b50600436106101735760003560e01c806386c34415116100de578063b439548d11610097578063e581f9ee11610071578063e581f9ee1461048e578063f1b2126b146104ac578063f8fb3e62146104ca578063ffc35303146104e657610173565b8063b439548d14610410578063bca24bd41461042e578063d4e57ff01461045e57610173565b806386c34415146103295780638a6655d614610359578063945155ba14610375578063ab996317146103a6578063af331f79146103c4578063b18a993a146103e057610173565b806350b384281161013057806350b3842814610250578063644915b21461026e5780636f28c3551461028c5780637456cf3e146102bc578063817dbe9f146102d8578063824ec4431461030d57610173565b806306ead22e1461017857806318860d37146101ac5780631b666d80146101ca578063298c90f4146101e65780633b173bb3146102025780633d89c14914610220575b600080fd5b610192600480360381019061018d9190612247565b610517565b6040516101a39594939291906125d5565b60405180910390f35b6101b4610602565b6040516101c19190612697565b60405180910390f35b6101e460048036038101906101df9190612160565b61065a565b005b61020060048036038101906101fb9190612274565b6107fe565b005b61020a610915565b60405161021791906127e9565b60405180910390f35b61023a60048036038101906102359190612247565b61091f565b6040516102479190612697565b60405180910390f35b6102586109e1565b60405161026591906127e9565b60405180910390f35b610276610a2f565b6040516102839190612697565b60405180910390f35b6102a660048036038101906102a19190612247565b610a87565b6040516102b391906127e9565b60405180910390f35b6102d660048036038101906102d191906120ce565b610aab565b005b6102f260048036038101906102ed9190612247565b610c06565b6040516103049695949392919061262f565b60405180910390f35b6103276004803603810190610322919061237f565b610cea565b005b610343600480360381019061033e9190612061565b61108d565b60405161035091906127e9565b60405180910390f35b610373600480360381019061036e919061237f565b6110a5565b005b61038f600480360381019061038a919061233f565b611471565b60405161039d9291906126b9565b60405180910390f35b6103ae611525565b6040516103bb91906127e9565b60405180910390f35b6103de60048036038101906103d991906122d0565b61152b565b005b6103fa60048036038101906103f591906121bc565b611741565b60405161040791906127e9565b60405180910390f35b6104186118b8565b6040516104259190612697565b60405180910390f35b61044860048036038101906104439190612247565b611968565b60405161045591906127e9565b60405180910390f35b61047860048036038101906104739190612061565b61198c565b60405161048591906127e9565b60405180910390f35b6104966119a4565b6040516104a391906127e9565b60405180910390f35b6104b46119aa565b6040516104c19190612697565b60405180910390f35b6104e460048036038101906104df9190612117565b611b0b565b005b61050060048036038101906104fb919061208e565b611cc7565b60405161050e929190612804565b60405180910390f35b60016020528060005260406000206000915090508060000160009054906101000a900473ffffffffffffffffffffffffffffffffffffffff169080600101549080600201805461056690612a15565b80601f016020809104026020016040519081016040528092919081815260200182805461059290612a15565b80156105df5780601f106105b4576101008083540402835291602001916105df565b820191906000526020600020905b8154815290600101906020018083116105c257829003601f168201915b5050505050908060030154908060040160009054906101000a900460ff16905085565b6060600480548060200260200160405190810160405280929190818152602001828054801561065057602002820191906000526020600020905b81548152602001906001019080831161063c575b5050505050905090565b6006600081548092919061066d90612a78565b91905055506000806000600654815260200190815260200160002060010154146106cc576040517f08c379a00000000000000000000000000000000000000000000000000000000081526004016106c390612769565b60405180910390fd5b600654600260008373ffffffffffffffffffffffffffffffffffffffff1673ffffffffffffffffffffffffffffffffffffffff1681526020019081526020016000208190555080600080600654815260200190815260200160002060000160006101000a81548173ffffffffffffffffffffffffffffffffffffffff021916908373ffffffffffffffffffffffffffffffffffffffff16021790555060065460008060065481526020019081526020016000206001018190555081600080600654815260200190815260200160002060020190805190602001906107b1929190611e86565b50600a600080600654815260200190815260200160002060070181905550600460065490806001815401808255809150506001900390600052602060002001600090919091909150555050565b600754821115610843576040517f08c379a000000000000000000000000000000000000000000000000000000000815260040161083a906127a9565b60405180910390fd5b600854815114610888576040517f08c379a000000000000000000000000000000000000000000000000000000000815260040161087f90612709565b60405180910390fd5b600060016000848152602001908152602001600020905060018160040160006101000a81548160ff02191690831515021790555060005b825181101561090f578281815181106108db576108da612b4e565b5b602002602001015182600501600083815260200190815260200160002081905550808061090790612a78565b9150506108bf565b50505050565b6000600654905090565b6060600060085467ffffffffffffffff81111561093f5761093e612b7d565b5b60405190808252806020026020018201604052801561096d5781602001602082028036833780820191505090505b50905060005b6008548110156109d757600160008581526020019081526020016000206005016000828152602001908152602001600020548282815181106109b8576109b7612b4e565b5b60200260200101818152505080806109cf90612a78565b915050610973565b5080915050919050565b60008060005b600654811015610a27576000808281526020019081526020016000206007015482610a129190612904565b91508080610a1f90612a78565b9150506109e7565b508091505090565b60606005805480602002602001604051908101604052809291908181526020018280548015610a7d57602002820191906000526020600020905b815481526020019060010190808311610a69575b5050505050905090565b60058181548110610a9757600080fd5b906000526020600020016000915090505481565b6000600360003373ffffffffffffffffffffffffffffffffffffffff1673ffffffffffffffffffffffffffffffffffffffff168152602001908152602001600020549050600754811115610b34576040517f08c379a0000000000000000000000000000000000000000000000000000000008152600401610b2b906127a9565b60405180910390fd5b600854825114610b79576040517f08c379a0000000000000000000000000000000000000000000000000000000008152600401610b7090612709565b60405180910390fd5b600060016000838152602001908152602001600020905060018160040160006101000a81548160ff02191690831515021790555060005b8351811015610c0057838181518110610bcc57610bcb612b4e565b5b6020026020010151826005016000838152602001908152602001600020819055508080610bf890612a78565b915050610bb0565b50505050565b60006020528060005260406000206000915090508060000160009054906101000a900473ffffffffffffffffffffffffffffffffffffffff1690806001015490806002018054610c5590612a15565b80601f0160208091040260200160405190810160405280929190818152602001828054610c8190612a15565b8015610cce5780601f10610ca357610100808354040283529160200191610cce565b820191906000526020600020905b815481529060010190602001808311610cb157829003601f168201915b5050505050908060040154908060060154908060070154905086565b6000600160008581526020019081526020016000206003015490506000806000838152602001908152602001600020600101541415610d5e576040517f08c379a0000000000000000000000000000000000000000000000000000000008152600401610d5590612729565b60405180910390fd5b60008060008381526020019081526020016000206003016000858152602001908152602001600020600001541415610dcb576040517f08c379a0000000000000000000000000000000000000000000000000000000008152600401610dc290612789565b60405180910390fd5b600080600083815260200190815260200160002060030160008581526020019081526020016000206003018054905011610e3a576040517f08c379a0000000000000000000000000000000000000000000000000000000008152600401610e3190612749565b60405180910390fd5b6000808281526020019081526020016000206003016000848152602001908152602001600020600501600085815260200190815260200160002060009054906101000a900460ff1615610ec2576040517f08c379a0000000000000000000000000000000000000000000000000000000008152600401610eb9906127c9565b60405180910390fd5b6000805b600080848152602001908152602001600020600301600086815260200190815260200160002060030180549050811015610f63578360008085815260200190815260200160002060030160008781526020019081526020016000206003018281548110610f3657610f35612b4e565b5b90600052602060002001541415610f505760019150610f63565b8080610f5b90612a78565b915050610ec6565b5080610fa4576040517f08c379a0000000000000000000000000000000000000000000000000000000008152600401610f9b906126e9565b60405180910390fd5b600080838152602001908152602001600020600301600085815260200190815260200160002060040160008481526020019081526020016000206000815480929190610fef90612a78565b919050555060016000808481526020019081526020016000206003016000868152602001908152602001600020600501600087815260200190815260200160002060006101000a81548160ff0219169083151502179055506000808381526020019081526020016000206003016000858152602001908152602001600020600601600081548092919061108190612a78565b91905055505050505050565b60036020528060005260406000206000915090505481565b6000600260003373ffffffffffffffffffffffffffffffffffffffff1673ffffffffffffffffffffffffffffffffffffffff1681526020019081526020016000205490506000806000838152602001908152602001600020600101541415611142576040517f08c379a000000000000000000000000000000000000000000000000000000000815260040161113990612729565b60405180910390fd5b600080600083815260200190815260200160002060030160008581526020019081526020016000206000015414156111af576040517f08c379a00000000000000000000000000000000000000000000000000000000081526004016111a690612789565b60405180910390fd5b60008060008381526020019081526020016000206003016000858152602001908152602001600020600301805490501161121e576040517f08c379a000000000000000000000000000000000000000000000000000000000815260040161121590612749565b60405180910390fd5b6000808281526020019081526020016000206003016000848152602001908152602001600020600501600085815260200190815260200160002060009054906101000a900460ff16156112a6576040517f08c379a000000000000000000000000000000000000000000000000000000000815260040161129d906127c9565b60405180910390fd5b6000805b60008084815260200190815260200160002060030160008681526020019081526020016000206003018054905081101561134757836000808581526020019081526020016000206003016000878152602001908152602001600020600301828154811061131a57611319612b4e565b5b906000526020600020015414156113345760019150611347565b808061133f90612a78565b9150506112aa565b5080611388576040517f08c379a000000000000000000000000000000000000000000000000000000000815260040161137f906126e9565b60405180910390fd5b6000808381526020019081526020016000206003016000858152602001908152602001600020600401600084815260200190815260200160002060008154809291906113d390612a78565b919050555060016000808481526020019081526020016000206003016000868152602001908152602001600020600501600087815260200190815260200160002060006101000a81548160ff0219169083151502179055506000808381526020019081526020016000206003016000858152602001908152602001600020600601600081548092919061146590612a78565b91905055505050505050565b6060600080600085815260200190815260200160002060030160008481526020019081526020016000206003016000808681526020019081526020016000206003016000858152602001908152602001600020600201548180548060200260200160405190810160405280929190818152602001828054801561151357602002820191906000526020600020905b8154815260200190600101908083116114ff575b50505050509150915091509250929050565b60065481565b6000806000858152602001908152602001600020600101541415611584576040517f08c379a000000000000000000000000000000000000000000000000000000000815260040161157b90612729565b60405180910390fd5b6007600081548092919061159790612a78565b9190505550600754600360008373ffffffffffffffffffffffffffffffffffffffff1673ffffffffffffffffffffffffffffffffffffffff168152602001908152602001600020819055508060016000600754815260200190815260200160002060000160006101000a81548173ffffffffffffffffffffffffffffffffffffffff021916908373ffffffffffffffffffffffffffffffffffffffff16021790555060075460016000600754815260200190815260200160002060010181905550816001600060075481526020019081526020016000206002019080519060200190611684929190611e86565b508260016000600754815260200190815260200160002060030181905550600060016000600754815260200190815260200160002060040160006101000a81548160ff021916908315150217905550600080848152602001908152602001600020600501600754908060018154018082558091505060019003906000526020600020016000909190919091505560056007549080600181540180825580915050600190039060005260206000200160009091909190915055505050565b600080600090506000600190505b60065481116118ac576000806000838152602001908152602001600020905080600401600081548092919061178390612a78565b919050555060008160040154905080826003016000838152602001908152602001600020600001819055508782600301600083815260200190815260200160002060010190805190602001906117da929190611e86565b5060005b86518110156118765760008782815181106117fc576117fb612b4e565b5b6020026020010151146118635782600301600083815260200190815260200160002060030187828151811061183457611833612b4e565b5b602002602001015190806001815401808255809150506001900390600052602060002001600090919091909150555b808061186e90612a78565b9150506117de565b508682600301600083815260200190815260200160002060020181905550809350505080806118a490612a78565b91505061174f565b50809150509392505050565b60606000600260003373ffffffffffffffffffffffffffffffffffffffff1673ffffffffffffffffffffffffffffffffffffffff16815260200190815260200160002054905060008082815260200190815260200160002060050180548060200260200160405190810160405280929190818152602001828054801561195d57602002820191906000526020600020905b815481526020019060010190808311611949575b505050505091505090565b6004818154811061197857600080fd5b906000526020600020016000915090505481565b60026020528060005260406000206000915090505481565b60075481565b6060600060085467ffffffffffffffff8111156119ca576119c9612b7d565b5b6040519080825280602002602001820160405280156119f85781602001602082028036833780820191505090505b5090506000600190505b6007548111611a9b57600060016000838152602001908152602001600020905060005b600854811015611a865781600501600082815260200190815260200160002054848281518110611a5857611a57612b4e565b5b60200260200101818151611a6c9190612904565b915081815250508080611a7e90612a78565b915050611a25565b50508080611a9390612a78565b915050611a02565b5060005b600854811015611b0357600754828281518110611abf57611abe612b4e565b5b6020026020010151611ad1919061295a565b828281518110611ae457611ae3612b4e565b5b6020026020010181815250508080611afb90612a78565b915050611a9f565b508091505090565b6000600260003373ffffffffffffffffffffffffffffffffffffffff1673ffffffffffffffffffffffffffffffffffffffff1681526020019081526020016000205490506000806000838152602001908152602001600020600101541415611ba8576040517f08c379a0000000000000000000000000000000000000000000000000000000008152600401611b9f90612729565b60405180910390fd5b60076000815480929190611bbb90612a78565b919050555060075460016000600754815260200190815260200160002060010181905550816001600060075481526020019081526020016000206002019080519060200190611c0b929190611e86565b508060016000600754815260200190815260200160002060030181905550600060016000600754815260200190815260200160002060040160006101000a81548160ff0219169083151502179055506000808281526020019081526020016000206005016007549080600181540180825580915050600190039060005260206000200160009091909190915055600560075490806001815401808255809150506001900390600052602060002001600090919091909150555050565b6000806000600260008673ffffffffffffffffffffffffffffffffffffffff1673ffffffffffffffffffffffffffffffffffffffff1681526020019081526020016000205490506000806000838152602001908152602001600020600101541415611d67576040517f08c379a0000000000000000000000000000000000000000000000000000000008152600401611d5e90612729565b60405180910390fd5b60008060008381526020019081526020016000206003016000868152602001908152602001600020600001541415611dd4576040517f08c379a0000000000000000000000000000000000000000000000000000000008152600401611dcb90612789565b60405180910390fd5b600080600083815260200190815260200160002060030160008681526020019081526020016000209050806002015492506000805b8260030180549050811015611e7b576000836003018281548110611e3057611e2f612b4e565b5b90600052602060002001549050600084600401600083815260200190815260200160002054905083811115611e66578093508197505b50508080611e7390612a78565b915050611e09565b505050509250929050565b828054611e9290612a15565b90600052602060002090601f016020900481019282611eb45760008555611efb565b82601f10611ecd57805160ff1916838001178555611efb565b82800160010185558215611efb579182015b82811115611efa578251825591602001919060010190611edf565b5b509050611f089190611f0c565b5090565b5b80821115611f25576000816000905550600101611f0d565b5090565b6000611f3c611f3784612852565b61282d565b90508083825260208201905082856020860282011115611f5f57611f5e612bb1565b5b60005b85811015611f8f5781611f75888261204c565b845260208401935060208301925050600181019050611f62565b5050509392505050565b6000611fac611fa78461287e565b61282d565b905082815260208101848484011115611fc857611fc7612bb6565b5b611fd38482856129d3565b509392505050565b600081359050611fea81612d44565b92915050565b600082601f83011261200557612004612bac565b5b8135612015848260208601611f29565b91505092915050565b600082601f83011261203357612032612bac565b5b8135612043848260208601611f99565b91505092915050565b60008135905061205b81612d5b565b92915050565b60006020828403121561207757612076612bc0565b5b600061208584828501611fdb565b91505092915050565b600080604083850312156120a5576120a4612bc0565b5b60006120b385828601611fdb565b92505060206120c48582860161204c565b9150509250929050565b6000602082840312156120e4576120e3612bc0565b5b600082013567ffffffffffffffff81111561210257612101612bbb565b5b61210e84828501611ff0565b91505092915050565b60006020828403121561212d5761212c612bc0565b5b600082013567ffffffffffffffff81111561214b5761214a612bbb565b5b6121578482850161201e565b91505092915050565b6000806040838503121561217757612176612bc0565b5b600083013567ffffffffffffffff81111561219557612194612bbb565b5b6121a18582860161201e565b92505060206121b285828601611fdb565b9150509250929050565b6000806000606084860312156121d5576121d4612bc0565b5b600084013567ffffffffffffffff8111156121f3576121f2612bbb565b5b6121ff8682870161201e565b93505060206122108682870161204c565b925050604084013567ffffffffffffffff81111561223157612230612bbb565b5b61223d86828701611ff0565b9150509250925092565b60006020828403121561225d5761225c612bc0565b5b600061226b8482850161204c565b91505092915050565b6000806040838503121561228b5761228a612bc0565b5b60006122998582860161204c565b925050602083013567ffffffffffffffff8111156122ba576122b9612bbb565b5b6122c685828601611ff0565b9150509250929050565b6000806000606084860312156122e9576122e8612bc0565b5b60006122f78682870161204c565b935050602084013567ffffffffffffffff81111561231857612317612bbb565b5b6123248682870161201e565b925050604061233586828701611fdb565b9150509250925092565b6000806040838503121561235657612355612bc0565b5b60006123648582860161204c565b92505060206123758582860161204c565b9150509250929050565b60008060006060848603121561239857612397612bc0565b5b60006123a68682870161204c565b93505060206123b78682870161204c565b92505060406123c88682870161204c565b9150509250925092565b60006123de83836125b7565b60208301905092915050565b6123f38161298b565b82525050565b6000612404826128bf565b61240e81856128e2565b9350612419836128af565b8060005b8381101561244a57815161243188826123d2565b975061243c836128d5565b92505060018101905061241d565b5085935050505092915050565b6124608161299d565b82525050565b6000612471826128ca565b61247b81856128f3565b935061248b8185602086016129e2565b61249481612bc5565b840191505092915050565b60006124ac6011836128f3565b91506124b782612bd6565b602082019050919050565b60006124cf6021836128f3565b91506124da82612bff565b604082019050919050565b60006124f26014836128f3565b91506124fd82612c4e565b602082019050919050565b60006125156017836128f3565b915061252082612c77565b602082019050919050565b60006125386014836128f3565b915061254382612ca0565b602082019050919050565b600061255b6017836128f3565b915061256682612cc9565b602082019050919050565b600061257e6016836128f3565b915061258982612cf2565b602082019050919050565b60006125a16016836128f3565b91506125ac82612d1b565b602082019050919050565b6125c0816129c9565b82525050565b6125cf816129c9565b82525050565b600060a0820190506125ea60008301886123ea565b6125f760208301876125c6565b81810360408301526126098186612466565b905061261860608301856125c6565b6126256080830184612457565b9695505050505050565b600060c08201905061264460008301896123ea565b61265160208301886125c6565b81810360408301526126638187612466565b905061267260608301866125c6565b61267f60808301856125c6565b61268c60a08301846125c6565b979650505050505050565b600060208201905081810360008301526126b181846123f9565b905092915050565b600060408201905081810360008301526126d381856123f9565b90506126e260208301846125c6565b9392505050565b600060208201905081810360008301526127028161249f565b9050919050565b60006020820190508181036000830152612722816124c2565b9050919050565b60006020820190508181036000830152612742816124e5565b9050919050565b6000602082019050818103600083015261276281612508565b9050919050565b600060208201905081810360008301526127828161252b565b9050919050565b600060208201905081810360008301526127a28161254e565b9050919050565b600060208201905081810360008301526127c281612571565b9050919050565b600060208201905081810360008301526127e281612594565b9050919050565b60006020820190506127fe60008301846125c6565b92915050565b600060408201905061281960008301856125c6565b61282660208301846125c6565b9392505050565b6000612837612848565b90506128438282612a47565b919050565b6000604051905090565b600067ffffffffffffffff82111561286d5761286c612b7d565b5b602082029050602081019050919050565b600067ffffffffffffffff82111561289957612898612b7d565b5b6128a282612bc5565b9050602081019050919050565b6000819050602082019050919050565b600081519050919050565b600081519050919050565b6000602082019050919050565b600082825260208201905092915050565b600082825260208201905092915050565b600061290f826129c9565b915061291a836129c9565b9250827fffffffffffffffffffffffffffffffffffffffffffffffffffffffffffffffff0382111561294f5761294e612ac1565b5b828201905092915050565b6000612965826129c9565b9150612970836129c9565b9250826129805761297f612af0565b5b828204905092915050565b6000612996826129a9565b9050919050565b60008115159050919050565b600073ffffffffffffffffffffffffffffffffffffffff82169050919050565b6000819050919050565b82818337600083830152505050565b60005b83811015612a005780820151818401526020810190506129e5565b83811115612a0f576000848401525b50505050565b60006002820490506001821680612a2d57607f821691505b60208210811415612a4157612a40612b1f565b5b50919050565b612a5082612bc5565b810181811067ffffffffffffffff82111715612a6f57612a6e612b7d565b5b80604052505050565b6000612a83826129c9565b91507fffffffffffffffffffffffffffffffffffffffffffffffffffffffffffffffff821415612ab657612ab5612ac1565b5b600182019050919050565b7f4e487b7100000000000000000000000000000000000000000000000000000000600052601160045260246000fd5b7f4e487b7100000000000000000000000000000000000000000000000000000000600052601260045260246000fd5b7f4e487b7100000000000000000000000000000000000000000000000000000000600052602260045260246000fd5b7f4e487b7100000000000000000000000000000000000000000000000000000000600052603260045260246000fd5b7f4e487b7100000000000000000000000000000000000000000000000000000000600052604160045260246000fd5b600080fd5b600080fd5b600080fd5b600080fd5b600080fd5b6000601f19601f8301169050919050565b7f496e76616c6964206f7074696f6e204944000000000000000000000000000000600082015250565b7f537569746162696c697479206172726179206c656e677468206d69736d61746360008201527f6800000000000000000000000000000000000000000000000000000000000000602082015250565b7f436c61737320646f6573206e6f74206578697374000000000000000000000000600082015250565b7f50726f706f73616c20686173206e6f206f7074696f6e73000000000000000000600082015250565b7f436c61737320616c726561647920657869737473000000000000000000000000600082015250565b7f50726f706f73616c20646f6573206e6f74206578697374000000000000000000600082015250565b7f53747564656e7420646f6573206e6f7420657869737400000000000000000000600082015250565b7f596f75206861766520616c726561647920766f74656400000000000000000000600082015250565b612d4d8161298b565b8114612d5857600080fd5b50565b612d64816129c9565b8114612d6f57600080fd5b5056fea2646970667358221220f7d942a00746553a63616d4f556bcdd407f11f2acfeabc7cc476e23eddac443764736f6c63430008070033",
  "immutableReferences": {},
  "source": "// SPDX-License-Identifier: MIT\r\npragma solidity ^0.8.7;\r\n\r\ninterface StudentVote {\r\n    function createProposal(\r\n        string memory _description,\r\n        uint256 _voteforID,\r\n        uint256[] memory _votedIds\r\n    ) external returns (uint256);\r\n\r\n    function vote(\r\n        uint256 studentId,\r\n        uint256 proposalId,\r\n        uint256 optionId\r\n    ) external;\r\n\r\n    function getProposalResults(\r\n        address classAddress,\r\n        uint256 proposalId\r\n    ) external view returns (uint256, uint256);\r\n\r\n    function getAverageSuitability() external view returns (uint256[] memory);\r\n\r\n    function getClassNum() external view returns (uint256);\r\n\r\n    function getClassWeight() external view returns (uint256);\r\n}\r\n\r\ncontract IStudentVote is StudentVote {\r\n    struct Student {\r\n        address addr;\r\n        uint256 id;\r\n        string name;\r\n        uint256 classId;\r\n        bool isSetSuitability;\r\n        mapping(uint256 => uint256) courseSuitability;\r\n    }\r\n\r\n    struct Class {\r\n        address addr;\r\n        uint256 id;\r\n        string name;\r\n        mapping(uint256 => Proposal) proposals;\r\n        uint256 proposalCount;\r\n        uint256[] studentsId;\r\n        uint256 studentCount;\r\n        uint256 weightForAutoVote;\r\n    }\r\n\r\n    struct Proposal {\r\n        uint256 id;\r\n        string description;\r\n        uint256 voteforID; // ID\r\n        uint256[] votedIds;\r\n        mapping(uint256 => uint256) voteIdToCount;\r\n        mapping(uint256 => bool) ifVote;\r\n        uint256 voteCount;\r\n    }\r\n\r\n    mapping(uint256 => Class) public classes;\r\n    mapping(uint256 => Student) public students;\r\n    mapping(address => uint256) public addressToClassId;\r\n    mapping(address => uint256) public addressToStudentId;\r\n    uint256[] public classIds;\r\n    uint256[] public studentIds;\r\n    uint256 public classCount;\r\n    uint256 public studentCount;\r\n    uint256 courseCount = 10;\r\n\r\n    function getClassNum() public view override returns (uint256) {\r\n        return classCount;\r\n    }\r\n\r\n    function getClassWeight() public view override returns (uint256) {\r\n        uint256 classWeights;\r\n        for (uint256 i = 0; i < classCount; i++) {\r\n            classWeights += classes[i].weightForAutoVote;\r\n        }\r\n        return classWeights;\r\n    }\r\n\r\n    // \r\n    function addClass(string memory className, address classAddress) public {\r\n        classCount++;\r\n        require(classes[classCount].id == 0, \"Class already exists\");\r\n        addressToClassId[classAddress] = classCount;\r\n        classes[classCount].addr = classAddress;\r\n        classes[classCount].id = classCount;\r\n        classes[classCount].name = className;\r\n        classes[classCount].weightForAutoVote = 10;\r\n        classIds.push(classCount);\r\n    }\r\n\r\n    // \r\n    function addStudentToClass(string memory _name) public {\r\n        uint256 classId = addressToClassId[msg.sender];\r\n        require(classes[classId].id != 0, \"Class does not exist\");\r\n        studentCount++;\r\n        students[studentCount].id = studentCount;\r\n        students[studentCount].name = _name;\r\n        students[studentCount].classId = classId;\r\n        students[studentCount].isSetSuitability = false;\r\n        classes[classId].studentsId.push(studentCount);\r\n        studentIds.push(studentCount);\r\n    }\r\n\r\n    // \r\n    function registerStudent(\r\n        uint256 classId,\r\n        string memory _name,\r\n        address studentAddress\r\n    ) public {\r\n        require(classes[classId].id != 0, \"Class does not exist\");\r\n        studentCount++;\r\n        addressToStudentId[studentAddress] = studentCount;\r\n        students[studentCount].addr = studentAddress;\r\n        students[studentCount].id = studentCount;\r\n        students[studentCount].name = _name;\r\n        students[studentCount].classId = classId;\r\n        students[studentCount].isSetSuitability = false;\r\n        classes[classId].studentsId.push(studentCount);\r\n        studentIds.push(studentCount);\r\n    }\r\n\r\n    // \r\n    function createProposal(\r\n        string memory _description,\r\n        uint256 _voteforID,\r\n        uint256[] memory _votedIds\r\n    ) public override returns (uint256) {\r\n        uint256 newProposalID = 0;\r\n        for (uint256 i = 1; i <= classCount; i++) {\r\n            Class storage cls = classes[i];\r\n            cls.proposalCount++;\r\n            uint256 proposalId = cls.proposalCount;\r\n\r\n            cls.proposals[proposalId].id = proposalId;\r\n            cls.proposals[proposalId].description = _description;\r\n\r\n            for (uint256 j = 0; j < _votedIds.length; j++) {\r\n                if (_votedIds[j] != 0) {\r\n                    cls.proposals[proposalId].votedIds.push(_votedIds[j]);\r\n                }\r\n            }\r\n\r\n            cls.proposals[proposalId].voteforID = _voteforID;\r\n            newProposalID = proposalId;\r\n        }\r\n        return newProposalID;\r\n    }\r\n\r\n    // \r\n    function vote(\r\n        uint256 studentId,\r\n        uint256 proposalId,\r\n        uint256 optionId\r\n    ) public override {\r\n        uint256 classId = addressToClassId[msg.sender];\r\n        require(classes[classId].id != 0, \"Class does not exist\");\r\n        require(\r\n            classes[classId].proposals[proposalId].id != 0,\r\n            \"Proposal does not exist\"\r\n        );\r\n        require(\r\n            classes[classId].proposals[proposalId].votedIds.length > 0,\r\n            \"Proposal has no options\"\r\n        );\r\n        require(\r\n            !classes[classId].proposals[proposalId].ifVote[studentId],\r\n            \"You have already voted\"\r\n        );\r\n\r\n        bool optionExists = false;\r\n        for (\r\n            uint256 i = 0;\r\n            i < classes[classId].proposals[proposalId].votedIds.length;\r\n            i++\r\n        ) {\r\n            if (\r\n                classes[classId].proposals[proposalId].votedIds[i] == optionId\r\n            ) {\r\n                optionExists = true;\r\n                break;\r\n            }\r\n        }\r\n        require(optionExists, \"Invalid option ID\");\r\n\r\n        classes[classId].proposals[proposalId].voteIdToCount[optionId]++;\r\n        classes[classId].proposals[proposalId].ifVote[studentId] = true;\r\n        classes[classId].proposals[proposalId].voteCount++;\r\n    }\r\n\r\n    function studentVote(\r\n        uint256 studentId,\r\n        uint256 proposalId,\r\n        uint256 optionId\r\n    ) public {\r\n        uint256 classId = students[studentId].classId;\r\n        require(classes[classId].id != 0, \"Class does not exist\");\r\n        require(\r\n            classes[classId].proposals[proposalId].id != 0,\r\n            \"Proposal does not exist\"\r\n        );\r\n        require(\r\n            classes[classId].proposals[proposalId].votedIds.length > 0,\r\n            \"Proposal has no options\"\r\n        );\r\n        require(\r\n            !classes[classId].proposals[proposalId].ifVote[studentId],\r\n            \"You have already voted\"\r\n        );\r\n\r\n        bool optionExists = false;\r\n        for (\r\n            uint256 i = 0;\r\n            i < classes[classId].proposals[proposalId].votedIds.length;\r\n            i++\r\n        ) {\r\n            if (\r\n                classes[classId].proposals[proposalId].votedIds[i] == optionId\r\n            ) {\r\n                optionExists = true;\r\n                break;\r\n            }\r\n        }\r\n        require(optionExists, \"Invalid option ID\");\r\n\r\n        classes[classId].proposals[proposalId].voteIdToCount[optionId]++;\r\n        classes[classId].proposals[proposalId].ifVote[studentId] = true;\r\n        classes[classId].proposals[proposalId].voteCount++;\r\n    }\r\n\r\n    // \r\n    function getProposalResults(\r\n        address classAddress,\r\n        uint256 proposalId\r\n    )\r\n        public\r\n        view\r\n        override\r\n        returns (uint256 winningOptionId, uint256 voteforID)\r\n    {\r\n        uint256 classId = addressToClassId[classAddress];\r\n        require(classes[classId].id != 0, \"Class does not exist\");\r\n        require(\r\n            classes[classId].proposals[proposalId].id != 0,\r\n            \"Proposal does not exist\"\r\n        );\r\n\r\n        Proposal storage proposal = classes[classId].proposals[proposalId];\r\n        voteforID = proposal.voteforID;\r\n\r\n        uint256 maxVoteCount = 0;\r\n        for (uint256 i = 0; i < proposal.votedIds.length; i++) {\r\n            uint256 optionId = proposal.votedIds[i];\r\n            uint256 voteCount = proposal.voteIdToCount[optionId];\r\n            if (voteCount > maxVoteCount) {\r\n                maxVoteCount = voteCount;\r\n                winningOptionId = optionId;\r\n            }\r\n        }\r\n    }\r\n\r\n    function getStudent() public view returns (uint256[] memory) {\r\n        uint classId = addressToClassId[msg.sender];\r\n        return classes[classId].studentsId;\r\n    }\r\n\r\n    // \r\n    function setCourseSuitability(\r\n        uint256 studentId,\r\n        uint256[] memory _suitabilities\r\n    ) public {\r\n        require(studentId <= studentCount, \"Student does not exist\");\r\n        // \r\n        require(\r\n            _suitabilities.length == courseCount,\r\n            \"Suitability array length mismatch\"\r\n        );\r\n        Student storage student = students[studentId];\r\n        student.isSetSuitability = true;\r\n        for (uint256 i = 0; i < _suitabilities.length; i++) {\r\n            student.courseSuitability[i] = _suitabilities[i];\r\n        }\r\n    }\r\n\r\n    function studentSetCourseSuitability(\r\n        uint256[] memory _suitabilities\r\n    ) public {\r\n        uint256 studentId = addressToStudentId[msg.sender];\r\n        require(studentId <= studentCount, \"Student does not exist\");\r\n        // \r\n        require(\r\n            _suitabilities.length == courseCount,\r\n            \"Suitability array length mismatch\"\r\n        );\r\n        Student storage student = students[studentId];\r\n        student.isSetSuitability = true;\r\n        for (uint256 i = 0; i < _suitabilities.length; i++) {\r\n            student.courseSuitability[i] = _suitabilities[i];\r\n        }\r\n    }\r\n\r\n    // \r\n    function getCourseSuitability(\r\n        uint256 studentId\r\n    ) public view returns (uint256[] memory) {\r\n        uint256[] memory _suitabilities = new uint256[](courseCount);\r\n        for (uint256 i = 0; i < courseCount; i++) {\r\n            _suitabilities[i] = students[studentId].courseSuitability[i];\r\n        }\r\n        return _suitabilities;\r\n    }\r\n\r\n    // \r\n    function getAverageSuitability()\r\n        public\r\n        view\r\n        override\r\n        returns (uint256[] memory)\r\n    {\r\n        uint256[] memory totalCourseScore = new uint256[](courseCount);\r\n        for (uint256 i = 1; i <= studentCount; i++) {\r\n            Student storage student = students[i];\r\n            for (uint256 j = 0; j < courseCount; j++) {\r\n                totalCourseScore[j] += student.courseSuitability[j];\r\n            }\r\n        }\r\n        for (uint256 j = 0; j < courseCount; j++) {\r\n            totalCourseScore[j] = totalCourseScore[j] / studentCount;\r\n        }\r\n        return totalCourseScore;\r\n    }\r\n\r\n    function getClassIds() public view returns (uint256[] memory) {\r\n        return classIds;\r\n    }\r\n\r\n    function getStudentIds() public view returns (uint256[] memory) {\r\n        return studentIds;\r\n    }\r\n\r\n    function getProposalInfo(\r\n        uint256 classId,\r\n        uint256 proposalId\r\n    ) public view returns (uint256[] memory, uint256) {\r\n        return (\r\n            classes[classId].proposals[proposalId].votedIds,\r\n            classes[classId].proposals[proposalId].voteforID\r\n        );\r\n    }\r\n}\r\n",
  "sourcePath": "E:\\\\paper\\DAO\\git-DAO\\lishuai\\Course-allocation\\project\\contracts\\IStudentVote.sol",
  "compiler": {
    "name": "solc",
    "version": "0.8.7+commit.e28d00a7.Emscripten.clang"
  },
  "schemaVersion": "3.4.16",
  "updatedAt": "2025-04-06T08:49:20.103Z",
  "networkType": "ethereum",
  "devdoc": {
    "kind": "dev",
    "methods": {},
    "version": 1
  },
  "userdoc": {
    "kind": "user",
    "methods": {},
    "version": 1
  }
}