{
  "contractName": "IStudentVote",
  "abi": [
    {
      "inputs": [
        {
          "internalType": "address",
          "name": "",
          "type": "address"
        }
      ],
      "name": "addressToClassId",
      "outputs": [
        {
          "internalType": "uint256",
          "name": "",
          "type": "uint256"
        }
      ],
      "stateMutability": "view",
      "type": "function",
      "constant": true
    },
    {
      "inputs": [
        {
          "internalType": "address",
          "name": "",
          "type": "address"
        }
      ],
      "name": "addressToStudentId",
      "outputs": [
        {
          "internalType": "uint256",
          "name": "",
          "type": "uint256"
        }
      ],
      "stateMutability": "view",
      "type": "function",
      "constant": true
    },
    {
      "inputs": [],
      "name": "classCount",
      "outputs": [
        {
          "internalType": "uint256",
          "name": "",
          "type": "uint256"
        }
      ],
      "stateMutability": "view",
      "type": "function",
      "constant": true
    },
    {
      "inputs": [
        {
          "internalType": "uint256",
          "name": "",
          "type": "uint256"
        }
      ],
      "name": "classIds",
      "outputs": [
        {
          "internalType": "uint256",
          "name": "",
          "type": "uint256"
        }
      ],
      "stateMutability": "view",
      "type": "function",
      "constant": true
    },
    {
      "inputs": [
        {
          "internalType": "uint256",
          "name": "",
          "type": "uint256"
        }
      ],
      "name": "classes",
      "outputs": [
        {
          "internalType": "address",
          "name": "addr",
          "type": "address"
        },
        {
          "internalType": "uint256",
          "name": "id",
          "type": "uint256"
        },
        {
          "internalType": "string",
          "name": "name",
          "type": "string"
        },
        {
          "internalType": "uint256",
          "name": "proposalCount",
          "type": "uint256"
        },
        {
          "internalType": "uint256",
          "name": "studentCount",
          "type": "uint256"
        },
        {
          "internalType": "uint256",
          "name": "weightForAutoVote",
          "type": "uint256"
        }
      ],
      "stateMutability": "view",
      "type": "function",
      "constant": true
    },
    {
      "inputs": [],
      "name": "studentCount",
      "outputs": [
        {
          "internalType": "uint256",
          "name": "",
          "type": "uint256"
        }
      ],
      "stateMutability": "view",
      "type": "function",
      "constant": true
    },
    {
      "inputs": [
        {
          "internalType": "uint256",
          "name": "",
          "type": "uint256"
        }
      ],
      "name": "studentIds",
      "outputs": [
        {
          "internalType": "uint256",
          "name": "",
          "type": "uint256"
        }
      ],
      "stateMutability": "view",
      "type": "function",
      "constant": true
    },
    {
      "inputs": [
        {
          "internalType": "uint256",
          "name": "",
          "type": "uint256"
        }
      ],
      "name": "students",
      "outputs": [
        {
          "internalType": "address",
          "name": "addr",
          "type": "address"
        },
        {
          "internalType": "uint256",
          "name": "id",
          "type": "uint256"
        },
        {
          "internalType": "string",
          "name": "name",
          "type": "string"
        },
        {
          "internalType": "uint256",
          "name": "classId",
          "type": "uint256"
        },
        {
          "internalType": "bool",
          "name": "isSetSuitability",
          "type": "bool"
        }
      ],
      "stateMutability": "view",
      "type": "function",
      "constant": true
    },
    {
      "inputs": [],
      "name": "getClassNum",
      "outputs": [
        {
          "internalType": "uint256",
          "name": "",
          "type": "uint256"
        }
      ],
      "stateMutability": "view",
      "type": "function",
      "constant": true
    },
    {
      "inputs": [],
      "name": "getClassWeight",
      "outputs": [
        {
          "internalType": "uint256",
          "name": "",
          "type": "uint256"
        }
      ],
      "stateMutability": "view",
      "type": "function",
      "constant": true
    },
    {
      "inputs": [
        {
          "internalType": "string",
          "name": "className",
          "type": "string"
        },
        {
          "internalType": "address",
          "name": "classAddress",
          "type": "address"
        }
      ],
      "name": "addClass",
      "outputs": [],
      "stateMutability": "nonpayable",
      "type": "function"
    },
    {
      "inputs": [
        {
          "internalType": "string",
          "name": "_name",
          "type": "string"
        }
      ],
      "name": "addStudentToClass",
      "outputs": [],
      "stateMutability": "nonpayable",
      "type": "function"
    },
    {
      "inputs": [
        {
          "internalType": "uint256",
          "name": "classId",
          "type": "uint256"
        },
        {
          "internalType": "string",
          "name": "_name",
          "type": "string"
        },
        {
          "internalType": "address",
          "name": "studentAddress",
          "type": "address"
        }
      ],
      "name": "registerStudent",
      "outputs": [],
      "stateMutability": "nonpayable",
      "type": "function"
    },
    {
      "inputs": [
        {
          "internalType": "string",
          "name": "_description",
          "type": "string"
        },
        {
          "internalType": "uint256",
          "name": "_voteforID",
          "type": "uint256"
        },
        {
          "internalType": "uint256[]",
          "name": "_votedIds",
          "type": "uint256[]"
        }
      ],
      "name": "createProposal",
      "outputs": [
        {
          "internalType": "uint256",
          "name": "",
          "type": "uint256"
        }
      ],
      "stateMutability": "nonpayable",
      "type": "function"
    },
    {
      "inputs": [
        {
          "internalType": "uint256",
          "name": "studentId",
          "type": "uint256"
        },
        {
          "internalType": "uint256",
          "name": "proposalId",
          "type": "uint256"
        },
        {
          "internalType": "uint256",
          "name": "optionId",
          "type": "uint256"
        }
      ],
      "name": "vote",
      "outputs": [],
      "stateMutability": "nonpayable",
      "type": "function"
    },
    {
      "inputs": [
        {
          "internalType": "uint256",
          "name": "studentId",
          "type": "uint256"
        },
        {
          "internalType": "uint256",
          "name": "proposalId",
          "type": "uint256"
        },
        {
          "internalType": "uint256",
          "name": "optionId",
          "type": "uint256"
        }
      ],
      "name": "studentVote",
      "outputs": [],
      "stateMutability": "nonpayable",
      "type": "function"
    },
    {
      "inputs": [
        {
          "internalType": "address",
          "name": "classAddress",
          "type": "address"
        },
        {
          "internalType": "uint256",
          "name": "proposalId",
          "type": "uint256"
        }
      ],
      "name": "getProposalResults",
      "outputs": [
        {
          "internalType": "uint256",
          "name": "",
          "type": "uint256"
        },
        {
          "internalType": "uint256",
          "name": "",
          "type": "uint256"
        },
        {
          "internalType": "uint256[]",
          "name": "",
          "type": "uint256[]"
        },
        {
          "internalType": "uint256[]",
          "name": "",
          "type": "uint256[]"
        }
      ],
      "stateMutability": "view",
      "type": "function",
      "constant": true
    },
    {
      "inputs": [],
      "name": "getStudents",
      "outputs": [
        {
          "internalType": "uint256[]",
          "name": "",
          "type": "uint256[]"
        }
      ],
      "stateMutability": "view",
      "type": "function",
      "constant": true
    },
    {
      "inputs": [
        {
          "internalType": "uint256",
          "name": "studentId",
          "type": "uint256"
        },
        {
          "internalType": "uint256[]",
          "name": "_suitabilities",
          "type": "uint256[]"
        },
        {
          "internalType": "uint256[]",
          "name": "courseIds",
          "type": "uint256[]"
        }
      ],
      "name": "setCourseSuitability",
      "outputs": [],
      "stateMutability": "nonpayable",
      "type": "function"
    },
    {
      "inputs": [
        {
          "internalType": "uint256[]",
          "name": "_suitabilities",
          "type": "uint256[]"
        },
        {
          "internalType": "uint256[]",
          "name": "courseIds",
          "type": "uint256[]"
        }
      ],
      "name": "studentSetCourseSuitability",
      "outputs": [],
      "stateMutability": "nonpayable",
      "type": "function"
    },
    {
      "inputs": [
        {
          "internalType": "uint256",
          "name": "studentId",
          "type": "uint256"
        },
        {
          "internalType": "uint256",
          "name": "courseId",
          "type": "uint256"
        }
      ],
      "name": "getStudentCourseSuitability",
      "outputs": [
        {
          "internalType": "uint256",
          "name": "",
          "type": "uint256"
        }
      ],
      "stateMutability": "view",
      "type": "function",
      "constant": true
    },
    {
      "inputs": [
        {
          "internalType": "uint256[]",
          "name": "courseIds",
          "type": "uint256[]"
        }
      ],
      "name": "getAverageSuitability",
      "outputs": [
        {
          "internalType": "uint256[]",
          "name": "",
          "type": "uint256[]"
        }
      ],
      "stateMutability": "view",
      "type": "function",
      "constant": true
    },
    {
      "inputs": [],
      "name": "getClassIds",
      "outputs": [
        {
          "internalType": "uint256[]",
          "name": "",
          "type": "uint256[]"
        }
      ],
      "stateMutability": "view",
      "type": "function",
      "constant": true
    },
    {
      "inputs": [],
      "name": "getStudentIds",
      "outputs": [
        {
          "internalType": "uint256[]",
          "name": "",
          "type": "uint256[]"
        }
      ],
      "stateMutability": "view",
      "type": "function",
      "constant": true
    },
    {
      "inputs": [
        {
          "internalType": "uint256",
          "name": "classId",
          "type": "uint256"
        },
        {
          "internalType": "uint256",
          "name": "proposalId",
          "type": "uint256"
        }
      ],
      "name": "getProposalInfo",
      "outputs": [
        {
          "internalType": "uint256[]",
          "name": "",
          "type": "uint256[]"
        },
        {
          "internalType": "uint256",
          "name": "",
          "type": "uint256"
        }
      ],
      "stateMutability": "view",
      "type": "function",
      "constant": true
    }
  ],
  "bytecode": "0x6080604052600a60085534801561001557600080fd5b50612f78806100256000396000f3fe608060405234801561001057600080fd5b50600436106101735760003560e01c80638a6655d6116100de578063bca24bd411610097578063f1d064b311610071578063f1d064b31461048e578063f8fb3e62146104ac578063f9c229f2146104c8578063ffc35303146104f857610173565b8063bca24bd414610410578063d4e57ff014610440578063e581f9ee1461047057610173565b80638a6655d614610329578063945155ba14610345578063ab99631714610376578063af331f7914610394578063b18a993a146103b0578063b4e11343146103e057610173565b806350b384281161013057806350b384281461023c578063644915b21461025a5780636f28c35514610278578063817dbe9f146102a8578063824ec443146102dd57806386c34415146102f957610173565b806306ead22e146101785780631853699a146101ac57806318860d37146101c85780631b666d80146101e65780633560613d146102025780633b173bb31461021e575b600080fd5b610192600480360381019061018d91906123be565b61052b565b6040516101a395949392919061277b565b60405180910390f35b6101c660048036038101906101c19190612216565b610616565b005b6101d06107d0565b6040516101dd919061283d565b60405180910390f35b61020060048036038101906101fb91906122d7565b610828565b005b61021c600480360381019061021791906123eb565b6109cc565b005b610226610afe565b604051610233919061298f565b60405180910390f35b610244610b08565b604051610251919061298f565b60405180910390f35b610262610b56565b60405161026f919061283d565b60405180910390f35b610292600480360381019061028d91906123be565b610bae565b60405161029f919061298f565b60405180910390f35b6102c260048036038101906102bd91906123be565b610bd2565b6040516102d4969594939291906127d5565b60405180910390f35b6102f760048036038101906102f29190612525565b610cb6565b005b610313600480360381019061030e9190612160565b611059565b604051610320919061298f565b60405180910390f35b610343600480360381019061033e9190612525565b611071565b005b61035f600480360381019061035a91906124e5565b61143d565b60405161036d92919061285f565b60405180910390f35b61037e6114f1565b60405161038b919061298f565b60405180910390f35b6103ae60048036038101906103a99190612476565b6114f7565b005b6103ca60048036038101906103c59190612333565b61170d565b6040516103d7919061298f565b60405180910390f35b6103fa60048036038101906103f591906124e5565b611884565b604051610407919061298f565b60405180910390f35b61042a600480360381019061042591906123be565b6118bb565b604051610437919061298f565b60405180910390f35b61045a60048036038101906104559190612160565b6118df565b604051610467919061298f565b60405180910390f35b6104786118f7565b604051610485919061298f565b60405180910390f35b6104966118fd565b6040516104a3919061283d565b60405180910390f35b6104c660048036038101906104c1919061228e565b6119ad565b005b6104e260048036038101906104dd91906121cd565b611b69565b6040516104ef919061283d565b60405180910390f35b610512600480360381019061050d919061218d565b611ce6565b60405161052294939291906129aa565b60405180910390f35b60016020528060005260406000206000915090508060000160009054906101000a900473ffffffffffffffffffffffffffffffffffffffff169080600101549080600201805461057a90612be5565b80601f01602080910402602001604051908101604052809291908181526020018280546105a690612be5565b80156105f35780601f106105c8576101008083540402835291602001916105f3565b820191906000526020600020905b8154815290600101906020018083116105d657829003601f168201915b5050505050908060030154908060040160009054906101000a900460ff16905085565b6000600360003373ffffffffffffffffffffffffffffffffffffffff1673ffffffffffffffffffffffffffffffffffffffff16815260200190815260200160002054905060075481111561069f576040517f08c379a00000000000000000000000000000000000000000000000000000000081526004016106969061294f565b60405180910390fd5b60008114156106e3576040517f08c379a00000000000000000000000000000000000000000000000000000000081526004016106da9061294f565b60405180910390fd5b600854835114610728576040517f08c379a000000000000000000000000000000000000000000000000000000000815260040161071f906128af565b60405180910390fd5b600060016000838152602001908152602001600020905060018160040160006101000a81548160ff02191690831515021790555060005b84518110156107c95784818151811061077b5761077a612d1e565b5b602002602001015182600501600086848151811061079c5761079b612d1e565b5b602002602001015181526020019081526020016000208190555080806107c190612c48565b91505061075f565b5050505050565b6060600480548060200260200160405190810160405280929190818152602001828054801561081e57602002820191906000526020600020905b81548152602001906001019080831161080a575b5050505050905090565b6006600081548092919061083b90612c48565b919050555060008060006006548152602001908152602001600020600101541461089a576040517f08c379a00000000000000000000000000000000000000000000000000000000081526004016108919061290f565b60405180910390fd5b600654600260008373ffffffffffffffffffffffffffffffffffffffff1673ffffffffffffffffffffffffffffffffffffffff1681526020019081526020016000208190555080600080600654815260200190815260200160002060000160006101000a81548173ffffffffffffffffffffffffffffffffffffffff021916908373ffffffffffffffffffffffffffffffffffffffff160217905550600654600080600654815260200190815260200160002060010181905550816000806006548152602001908152602001600020600201908051906020019061097f929190611f85565b50600a600080600654815260200190815260200160002060070181905550600460065490806001815401808255809150506001900390600052602060002001600090919091909150555050565b600754831115610a11576040517f08c379a0000000000000000000000000000000000000000000000000000000008152600401610a089061294f565b60405180910390fd5b600854825114610a56576040517f08c379a0000000000000000000000000000000000000000000000000000000008152600401610a4d906128af565b60405180910390fd5b600060016000858152602001908152602001600020905060018160040160006101000a81548160ff02191690831515021790555060005b8351811015610af757838181518110610aa957610aa8612d1e565b5b6020026020010151826005016000858481518110610aca57610ac9612d1e565b5b60200260200101518152602001908152602001600020819055508080610aef90612c48565b915050610a8d565b5050505050565b6000600654905090565b60008060005b600654811015610b4e576000808281526020019081526020016000206007015482610b399190612ad4565b91508080610b4690612c48565b915050610b0e565b508091505090565b60606005805480602002602001604051908101604052809291908181526020018280548015610ba457602002820191906000526020600020905b815481526020019060010190808311610b90575b5050505050905090565b60058181548110610bbe57600080fd5b906000526020600020016000915090505481565b60006020528060005260406000206000915090508060000160009054906101000a900473ffffffffffffffffffffffffffffffffffffffff1690806001015490806002018054610c2190612be5565b80601f0160208091040260200160405190810160405280929190818152602001828054610c4d90612be5565b8015610c9a5780601f10610c6f57610100808354040283529160200191610c9a565b820191906000526020600020905b815481529060010190602001808311610c7d57829003601f168201915b5050505050908060040154908060060154908060070154905086565b6000600160008581526020019081526020016000206003015490506000806000838152602001908152602001600020600101541415610d2a576040517f08c379a0000000000000000000000000000000000000000000000000000000008152600401610d21906128cf565b60405180910390fd5b60008060008381526020019081526020016000206003016000858152602001908152602001600020600001541415610d97576040517f08c379a0000000000000000000000000000000000000000000000000000000008152600401610d8e9061292f565b60405180910390fd5b600080600083815260200190815260200160002060030160008581526020019081526020016000206003018054905011610e06576040517f08c379a0000000000000000000000000000000000000000000000000000000008152600401610dfd906128ef565b60405180910390fd5b6000808281526020019081526020016000206003016000848152602001908152602001600020600501600085815260200190815260200160002060009054906101000a900460ff1615610e8e576040517f08c379a0000000000000000000000000000000000000000000000000000000008152600401610e859061296f565b60405180910390fd5b6000805b600080848152602001908152602001600020600301600086815260200190815260200160002060030180549050811015610f2f578360008085815260200190815260200160002060030160008781526020019081526020016000206003018281548110610f0257610f01612d1e565b5b90600052602060002001541415610f1c5760019150610f2f565b8080610f2790612c48565b915050610e92565b5080610f70576040517f08c379a0000000000000000000000000000000000000000000000000000000008152600401610f679061288f565b60405180910390fd5b600080838152602001908152602001600020600301600085815260200190815260200160002060040160008481526020019081526020016000206000815480929190610fbb90612c48565b919050555060016000808481526020019081526020016000206003016000868152602001908152602001600020600501600087815260200190815260200160002060006101000a81548160ff0219169083151502179055506000808381526020019081526020016000206003016000858152602001908152602001600020600601600081548092919061104d90612c48565b91905055505050505050565b60036020528060005260406000206000915090505481565b6000600260003373ffffffffffffffffffffffffffffffffffffffff1673ffffffffffffffffffffffffffffffffffffffff168152602001908152602001600020549050600080600083815260200190815260200160002060010154141561110e576040517f08c379a0000000000000000000000000000000000000000000000000000000008152600401611105906128cf565b60405180910390fd5b6000806000838152602001908152602001600020600301600085815260200190815260200160002060000154141561117b576040517f08c379a00000000000000000000000000000000000000000000000000000000081526004016111729061292f565b60405180910390fd5b6000806000838152602001908152602001600020600301600085815260200190815260200160002060030180549050116111ea576040517f08c379a00000000000000000000000000000000000000000000000000000000081526004016111e1906128ef565b60405180910390fd5b6000808281526020019081526020016000206003016000848152602001908152602001600020600501600085815260200190815260200160002060009054906101000a900460ff1615611272576040517f08c379a00000000000000000000000000000000000000000000000000000000081526004016112699061296f565b60405180910390fd5b6000805b6000808481526020019081526020016000206003016000868152602001908152602001600020600301805490508110156113135783600080858152602001908152602001600020600301600087815260200190815260200160002060030182815481106112e6576112e5612d1e565b5b906000526020600020015414156113005760019150611313565b808061130b90612c48565b915050611276565b5080611354576040517f08c379a000000000000000000000000000000000000000000000000000000000815260040161134b9061288f565b60405180910390fd5b60008083815260200190815260200160002060030160008581526020019081526020016000206004016000848152602001908152602001600020600081548092919061139f90612c48565b919050555060016000808481526020019081526020016000206003016000868152602001908152602001600020600501600087815260200190815260200160002060006101000a81548160ff0219169083151502179055506000808381526020019081526020016000206003016000858152602001908152602001600020600601600081548092919061143190612c48565b91905055505050505050565b606060008060008581526020019081526020016000206003016000848152602001908152602001600020600301600080868152602001908152602001600020600301600085815260200190815260200160002060020154818054806020026020016040519081016040528092919081815260200182805480156114df57602002820191906000526020600020905b8154815260200190600101908083116114cb575b50505050509150915091509250929050565b60065481565b6000806000858152602001908152602001600020600101541415611550576040517f08c379a0000000000000000000000000000000000000000000000000000000008152600401611547906128cf565b60405180910390fd5b6007600081548092919061156390612c48565b9190505550600754600360008373ffffffffffffffffffffffffffffffffffffffff1673ffffffffffffffffffffffffffffffffffffffff168152602001908152602001600020819055508060016000600754815260200190815260200160002060000160006101000a81548173ffffffffffffffffffffffffffffffffffffffff021916908373ffffffffffffffffffffffffffffffffffffffff16021790555060075460016000600754815260200190815260200160002060010181905550816001600060075481526020019081526020016000206002019080519060200190611650929190611f85565b508260016000600754815260200190815260200160002060030181905550600060016000600754815260200190815260200160002060040160006101000a81548160ff021916908315150217905550600080848152602001908152602001600020600501600754908060018154018082558091505060019003906000526020600020016000909190919091505560056007549080600181540180825580915050600190039060005260206000200160009091909190915055505050565b600080600090506000600190505b6006548111611878576000806000838152602001908152602001600020905080600401600081548092919061174f90612c48565b919050555060008160040154905080826003016000838152602001908152602001600020600001819055508782600301600083815260200190815260200160002060010190805190602001906117a6929190611f85565b5060005b86518110156118425760008782815181106117c8576117c7612d1e565b5b60200260200101511461182f57826003016000838152602001908152602001600020600301878281518110611800576117ff612d1e565b5b602002602001015190806001815401808255809150506001900390600052602060002001600090919091909150555b808061183a90612c48565b9150506117aa565b5086826003016000838152602001908152602001600020600201819055508093505050808061187090612c48565b91505061171b565b50809150509392505050565b6000806001600085815260200190815260200160002090508060050160008481526020019081526020016000205491505092915050565b600481815481106118cb57600080fd5b906000526020600020016000915090505481565b60026020528060005260406000206000915090505481565b60075481565b60606000600260003373ffffffffffffffffffffffffffffffffffffffff1673ffffffffffffffffffffffffffffffffffffffff1681526020019081526020016000205490506000808281526020019081526020016000206005018054806020026020016040519081016040528092919081815260200182805480156119a257602002820191906000526020600020905b81548152602001906001019080831161198e575b505050505091505090565b6000600260003373ffffffffffffffffffffffffffffffffffffffff1673ffffffffffffffffffffffffffffffffffffffff1681526020019081526020016000205490506000806000838152602001908152602001600020600101541415611a4a576040517f08c379a0000000000000000000000000000000000000000000000000000000008152600401611a41906128cf565b60405180910390fd5b60076000815480929190611a5d90612c48565b919050555060075460016000600754815260200190815260200160002060010181905550816001600060075481526020019081526020016000206002019080519060200190611aad929190611f85565b508060016000600754815260200190815260200160002060030181905550600060016000600754815260200190815260200160002060040160006101000a81548160ff0219169083151502179055506000808281526020019081526020016000206005016007549080600181540180825580915050600190039060005260206000200160009091909190915055600560075490806001815401808255809150506001900390600052602060002001600090919091909150555050565b6060600060085467ffffffffffffffff811115611b8957611b88612d4d565b5b604051908082528060200260200182016040528015611bb75781602001602082028036833780820191505090505b5090506000600190505b6007548111611c7457600060016000838152602001908152602001600020905060005b600854811015611c5f57816005016000878381518110611c0757611c06612d1e565b5b6020026020010151815260200190815260200160002054848281518110611c3157611c30612d1e565b5b60200260200101818151611c459190612ad4565b915081815250508080611c5790612c48565b915050611be4565b50508080611c6c90612c48565b915050611bc1565b5060005b600854811015611cdc57600754828281518110611c9857611c97612d1e565b5b6020026020010151611caa9190612b2a565b828281518110611cbd57611cbc612d1e565b5b6020026020010181815250508080611cd490612c48565b915050611c78565b5080915050919050565b6000806060806000600260008873ffffffffffffffffffffffffffffffffffffffff1673ffffffffffffffffffffffffffffffffffffffff1681526020019081526020016000205490506000806000838152602001908152602001600020600101541415611d89576040517f08c379a0000000000000000000000000000000000000000000000000000000008152600401611d80906128cf565b60405180910390fd5b60008060008381526020019081526020016000206003016000888152602001908152602001600020600001541415611df6576040517f08c379a0000000000000000000000000000000000000000000000000000000008152600401611ded9061292f565b60405180910390fd5b600080600080600085815260200190815260200160002060030160008a815260200190815260200160002090506000816003018054905067ffffffffffffffff811115611e4657611e45612d4d565b5b604051908082528060200260200182016040528015611e745781602001602082028036833780820191505090505b509050816002015492506000805b8360030180549050811015611f14576000846003018281548110611ea957611ea8612d1e565b5b90600052602060002001549050600085600401600083815260200190815260200160002054905080858481518110611ee457611ee3612d1e565b5b60200260200101818152505083811115611eff578093508197505b50508080611f0c90612c48565b915050611e82565b508484846003018481805480602002602001604051908101604052809291908181526020018280548015611f6757602002820191906000526020600020905b815481526020019060010190808311611f53575b50505050509150995099509950995050505050505092959194509250565b828054611f9190612be5565b90600052602060002090601f016020900481019282611fb35760008555611ffa565b82601f10611fcc57805160ff1916838001178555611ffa565b82800160010185558215611ffa579182015b82811115611ff9578251825591602001919060010190611fde565b5b509050612007919061200b565b5090565b5b8082111561202457600081600090555060010161200c565b5090565b600061203b61203684612a22565b6129fd565b9050808382526020820190508285602086028201111561205e5761205d612d81565b5b60005b8581101561208e5781612074888261214b565b845260208401935060208301925050600181019050612061565b5050509392505050565b60006120ab6120a684612a4e565b6129fd565b9050828152602081018484840111156120c7576120c6612d86565b5b6120d2848285612ba3565b509392505050565b6000813590506120e981612f14565b92915050565b600082601f83011261210457612103612d7c565b5b8135612114848260208601612028565b91505092915050565b600082601f83011261213257612131612d7c565b5b8135612142848260208601612098565b91505092915050565b60008135905061215a81612f2b565b92915050565b60006020828403121561217657612175612d90565b5b6000612184848285016120da565b91505092915050565b600080604083850312156121a4576121a3612d90565b5b60006121b2858286016120da565b92505060206121c38582860161214b565b9150509250929050565b6000602082840312156121e3576121e2612d90565b5b600082013567ffffffffffffffff81111561220157612200612d8b565b5b61220d848285016120ef565b91505092915050565b6000806040838503121561222d5761222c612d90565b5b600083013567ffffffffffffffff81111561224b5761224a612d8b565b5b612257858286016120ef565b925050602083013567ffffffffffffffff81111561227857612277612d8b565b5b612284858286016120ef565b9150509250929050565b6000602082840312156122a4576122a3612d90565b5b600082013567ffffffffffffffff8111156122c2576122c1612d8b565b5b6122ce8482850161211d565b91505092915050565b600080604083850312156122ee576122ed612d90565b5b600083013567ffffffffffffffff81111561230c5761230b612d8b565b5b6123188582860161211d565b9250506020612329858286016120da565b9150509250929050565b60008060006060848603121561234c5761234b612d90565b5b600084013567ffffffffffffffff81111561236a57612369612d8b565b5b6123768682870161211d565b93505060206123878682870161214b565b925050604084013567ffffffffffffffff8111156123a8576123a7612d8b565b5b6123b4868287016120ef565b9150509250925092565b6000602082840312156123d4576123d3612d90565b5b60006123e28482850161214b565b91505092915050565b60008060006060848603121561240457612403612d90565b5b60006124128682870161214b565b935050602084013567ffffffffffffffff81111561243357612432612d8b565b5b61243f868287016120ef565b925050604084013567ffffffffffffffff8111156124605761245f612d8b565b5b61246c868287016120ef565b9150509250925092565b60008060006060848603121561248f5761248e612d90565b5b600061249d8682870161214b565b935050602084013567ffffffffffffffff8111156124be576124bd612d8b565b5b6124ca8682870161211d565b92505060406124db868287016120da565b9150509250925092565b600080604083850312156124fc576124fb612d90565b5b600061250a8582860161214b565b925050602061251b8582860161214b565b9150509250929050565b60008060006060848603121561253e5761253d612d90565b5b600061254c8682870161214b565b935050602061255d8682870161214b565b925050604061256e8682870161214b565b9150509250925092565b6000612584838361275d565b60208301905092915050565b61259981612b5b565b82525050565b60006125aa82612a8f565b6125b48185612ab2565b93506125bf83612a7f565b8060005b838110156125f05781516125d78882612578565b97506125e283612aa5565b9250506001810190506125c3565b5085935050505092915050565b61260681612b6d565b82525050565b600061261782612a9a565b6126218185612ac3565b9350612631818560208601612bb2565b61263a81612d95565b840191505092915050565b6000612652601183612ac3565b915061265d82612da6565b602082019050919050565b6000612675602183612ac3565b915061268082612dcf565b604082019050919050565b6000612698601483612ac3565b91506126a382612e1e565b602082019050919050565b60006126bb601783612ac3565b91506126c682612e47565b602082019050919050565b60006126de601483612ac3565b91506126e982612e70565b602082019050919050565b6000612701601783612ac3565b915061270c82612e99565b602082019050919050565b6000612724601683612ac3565b915061272f82612ec2565b602082019050919050565b6000612747601683612ac3565b915061275282612eeb565b602082019050919050565b61276681612b99565b82525050565b61277581612b99565b82525050565b600060a0820190506127906000830188612590565b61279d602083018761276c565b81810360408301526127af818661260c565b90506127be606083018561276c565b6127cb60808301846125fd565b9695505050505050565b600060c0820190506127ea6000830189612590565b6127f7602083018861276c565b8181036040830152612809818761260c565b9050612818606083018661276c565b612825608083018561276c565b61283260a083018461276c565b979650505050505050565b60006020820190508181036000830152612857818461259f565b905092915050565b60006040820190508181036000830152612879818561259f565b9050612888602083018461276c565b9392505050565b600060208201905081810360008301526128a881612645565b9050919050565b600060208201905081810360008301526128c881612668565b9050919050565b600060208201905081810360008301526128e88161268b565b9050919050565b60006020820190508181036000830152612908816126ae565b9050919050565b60006020820190508181036000830152612928816126d1565b9050919050565b60006020820190508181036000830152612948816126f4565b9050919050565b6000602082019050818103600083015261296881612717565b9050919050565b600060208201905081810360008301526129888161273a565b9050919050565b60006020820190506129a4600083018461276c565b92915050565b60006080820190506129bf600083018761276c565b6129cc602083018661276c565b81810360408301526129de818561259f565b905081810360608301526129f2818461259f565b905095945050505050565b6000612a07612a18565b9050612a138282612c17565b919050565b6000604051905090565b600067ffffffffffffffff821115612a3d57612a3c612d4d565b5b602082029050602081019050919050565b600067ffffffffffffffff821115612a6957612a68612d4d565b5b612a7282612d95565b9050602081019050919050565b6000819050602082019050919050565b600081519050919050565b600081519050919050565b6000602082019050919050565b600082825260208201905092915050565b600082825260208201905092915050565b6000612adf82612b99565b9150612aea83612b99565b9250827fffffffffffffffffffffffffffffffffffffffffffffffffffffffffffffffff03821115612b1f57612b1e612c91565b5b828201905092915050565b6000612b3582612b99565b9150612b4083612b99565b925082612b5057612b4f612cc0565b5b828204905092915050565b6000612b6682612b79565b9050919050565b60008115159050919050565b600073ffffffffffffffffffffffffffffffffffffffff82169050919050565b6000819050919050565b82818337600083830152505050565b60005b83811015612bd0578082015181840152602081019050612bb5565b83811115612bdf576000848401525b50505050565b60006002820490506001821680612bfd57607f821691505b60208210811415612c1157612c10612cef565b5b50919050565b612c2082612d95565b810181811067ffffffffffffffff82111715612c3f57612c3e612d4d565b5b80604052505050565b6000612c5382612b99565b91507fffffffffffffffffffffffffffffffffffffffffffffffffffffffffffffffff821415612c8657612c85612c91565b5b600182019050919050565b7f4e487b7100000000000000000000000000000000000000000000000000000000600052601160045260246000fd5b7f4e487b7100000000000000000000000000000000000000000000000000000000600052601260045260246000fd5b7f4e487b7100000000000000000000000000000000000000000000000000000000600052602260045260246000fd5b7f4e487b7100000000000000000000000000000000000000000000000000000000600052603260045260246000fd5b7f4e487b7100000000000000000000000000000000000000000000000000000000600052604160045260246000fd5b600080fd5b600080fd5b600080fd5b600080fd5b600080fd5b6000601f19601f8301169050919050565b7f496e76616c6964206f7074696f6e204944000000000000000000000000000000600082015250565b7f537569746162696c697479206172726179206c656e677468206d69736d61746360008201527f6800000000000000000000000000000000000000000000000000000000000000602082015250565b7f436c61737320646f6573206e6f74206578697374000000000000000000000000600082015250565b7f50726f706f73616c20686173206e6f206f7074696f6e73000000000000000000600082015250565b7f436c61737320616c726561647920657869737473000000000000000000000000600082015250565b7f50726f706f73616c20646f6573206e6f74206578697374000000000000000000600082015250565b7f53747564656e7420646f6573206e6f7420657869737400000000000000000000600082015250565b7f596f75206861766520616c726561647920766f74656400000000000000000000600082015250565b612f1d81612b5b565b8114612f2857600080fd5b50565b612f3481612b99565b8114612f3f57600080fd5b5056fea2646970667358221220f0e31ef621633449eb91c79350d5c07d1802c86d6ef66f75113c3e9a861c935364736f6c63430008070033",
  "immutableReferences": {},
  "source": "// SPDX-License-Identifier: MIT\r\npragma solidity ^0.8.7;\r\n\r\ninterface StudentVote {\r\n    function createProposal(\r\n        string memory _description,\r\n        uint256 _voteforID,\r\n        uint256[] memory _votedIds\r\n    ) external returns (uint256);\r\n\r\n    function vote(\r\n        uint256 studentId,\r\n        uint256 proposalId,\r\n        uint256 optionId\r\n    ) external;\r\n\r\n    function getProposalResults(\r\n        address classAddress,\r\n        uint256 proposalId\r\n    ) external view returns (uint256, uint256, uint256[] memory, uint256[] memory);\r\n\r\n    function getAverageSuitability(uint256[] memory courseIds) external view returns (uint256[] memory);\r\n\r\n    function getClassNum() external view returns (uint256);\r\n\r\n    function getClassWeight() external view returns (uint256);\r\n}\r\n\r\ncontract IStudentVote is StudentVote {\r\n    struct Student {\r\n        address addr;\r\n        uint256 id;\r\n        string name;\r\n        uint256 classId;\r\n        bool isSetSuitability;\r\n        mapping(uint256 => uint256) courseSuitability;\r\n    }\r\n\r\n    struct Class {\r\n        address addr;\r\n        uint256 id;\r\n        string name;\r\n        mapping(uint256 => Proposal) proposals;\r\n        uint256 proposalCount;\r\n        uint256[] studentsId;\r\n        uint256 studentCount;\r\n        uint256 weightForAutoVote;\r\n    }\r\n\r\n    struct Proposal {\r\n        uint256 id;\r\n        string description;\r\n        uint256 voteforID; // ID\r\n        uint256[] votedIds;\r\n        mapping(uint256 => uint256) voteIdToCount;\r\n        mapping(uint256 => bool) ifVote;\r\n        uint256 voteCount;\r\n    }\r\n\r\n    mapping(uint256 => Class) public classes;\r\n    mapping(uint256 => Student) public students;\r\n    mapping(address => uint256) public addressToClassId;\r\n    mapping(address => uint256) public addressToStudentId;\r\n    uint256[] public classIds;\r\n    uint256[] public studentIds;\r\n    uint256 public classCount;\r\n    uint256 public studentCount;\r\n    uint256 courseCount = 10;\r\n\r\n    function getClassNum() public view override returns (uint256) {\r\n        return classCount;\r\n    }\r\n\r\n    function getClassWeight() public view override returns (uint256) {\r\n        uint256 classWeights;\r\n        for (uint256 i = 0; i < classCount; i++) {\r\n            classWeights += classes[i].weightForAutoVote;\r\n        }\r\n        return classWeights;\r\n    }\r\n\r\n    // \r\n    function addClass(string memory className, address classAddress) public {\r\n        classCount++;\r\n        require(classes[classCount].id == 0, \"Class already exists\");\r\n        addressToClassId[classAddress] = classCount;\r\n        classes[classCount].addr = classAddress;\r\n        classes[classCount].id = classCount;\r\n        classes[classCount].name = className;\r\n        classes[classCount].weightForAutoVote = 10;\r\n        classIds.push(classCount);\r\n    }\r\n\r\n    // \r\n    function addStudentToClass(string memory _name) public {\r\n        uint256 classId = addressToClassId[msg.sender];\r\n        require(classes[classId].id != 0, \"Class does not exist\");\r\n        studentCount++;\r\n        students[studentCount].id = studentCount;\r\n        students[studentCount].name = _name;\r\n        students[studentCount].classId = classId;\r\n        students[studentCount].isSetSuitability = false;\r\n        classes[classId].studentsId.push(studentCount);\r\n        studentIds.push(studentCount);\r\n    }\r\n\r\n    // \r\n    function registerStudent(\r\n        uint256 classId,\r\n        string memory _name,\r\n        address studentAddress\r\n    ) public {\r\n        require(classes[classId].id != 0, \"Class does not exist\");\r\n        studentCount++;\r\n        addressToStudentId[studentAddress] = studentCount;\r\n        students[studentCount].addr = studentAddress;\r\n        students[studentCount].id = studentCount;\r\n        students[studentCount].name = _name;\r\n        students[studentCount].classId = classId;\r\n        students[studentCount].isSetSuitability = false;\r\n        classes[classId].studentsId.push(studentCount);\r\n        studentIds.push(studentCount);\r\n    }\r\n\r\n    // \r\n    function createProposal(\r\n        string memory _description,\r\n        uint256 _voteforID,\r\n        uint256[] memory _votedIds\r\n    ) public override returns (uint256) {\r\n        uint256 newProposalID = 0;\r\n        for (uint256 i = 1; i <= classCount; i++) {\r\n            Class storage cls = classes[i];\r\n            cls.proposalCount++;\r\n            uint256 proposalId = cls.proposalCount;\r\n\r\n            cls.proposals[proposalId].id = proposalId;\r\n            cls.proposals[proposalId].description = _description;\r\n\r\n            for (uint256 j = 0; j < _votedIds.length; j++) {\r\n                if (_votedIds[j] != 0) {\r\n                    cls.proposals[proposalId].votedIds.push(_votedIds[j]);\r\n                }\r\n            }\r\n\r\n            cls.proposals[proposalId].voteforID = _voteforID;\r\n            newProposalID = proposalId;\r\n        }\r\n        return newProposalID;\r\n    }\r\n\r\n    // \r\n    function vote(\r\n        uint256 studentId,\r\n        uint256 proposalId,\r\n        uint256 optionId\r\n    ) public override {\r\n        uint256 classId = addressToClassId[msg.sender];\r\n        require(classes[classId].id != 0, \"Class does not exist\");\r\n        require(\r\n            classes[classId].proposals[proposalId].id != 0,\r\n            \"Proposal does not exist\"\r\n        );\r\n        require(\r\n            classes[classId].proposals[proposalId].votedIds.length > 0,\r\n            \"Proposal has no options\"\r\n        );\r\n        require(\r\n            !classes[classId].proposals[proposalId].ifVote[studentId],\r\n            \"You have already voted\"\r\n        );\r\n\r\n        bool optionExists = false;\r\n        for (\r\n            uint256 i = 0;\r\n            i < classes[classId].proposals[proposalId].votedIds.length;\r\n            i++\r\n        ) {\r\n            if (\r\n                classes[classId].proposals[proposalId].votedIds[i] == optionId\r\n            ) {\r\n                optionExists = true;\r\n                break;\r\n            }\r\n        }\r\n        require(optionExists, \"Invalid option ID\");\r\n\r\n        classes[classId].proposals[proposalId].voteIdToCount[optionId]++;\r\n        classes[classId].proposals[proposalId].ifVote[studentId] = true;\r\n        classes[classId].proposals[proposalId].voteCount++;\r\n    }\r\n\r\n    function studentVote(\r\n        uint256 studentId,\r\n        uint256 proposalId,\r\n        uint256 optionId\r\n    ) public {\r\n        uint256 classId = students[studentId].classId;\r\n        require(classes[classId].id != 0, \"Class does not exist\");\r\n        require(\r\n            classes[classId].proposals[proposalId].id != 0,\r\n            \"Proposal does not exist\"\r\n        );\r\n        require(\r\n            classes[classId].proposals[proposalId].votedIds.length > 0,\r\n            \"Proposal has no options\"\r\n        );\r\n        require(\r\n            !classes[classId].proposals[proposalId].ifVote[studentId],\r\n            \"You have already voted\"\r\n        );\r\n\r\n        bool optionExists = false;\r\n        for (\r\n            uint256 i = 0;\r\n            i < classes[classId].proposals[proposalId].votedIds.length;\r\n            i++\r\n        ) {\r\n            if (\r\n                classes[classId].proposals[proposalId].votedIds[i] == optionId\r\n            ) {\r\n                optionExists = true;\r\n                break;\r\n            }\r\n        }\r\n        require(optionExists, \"Invalid option ID\");\r\n\r\n        classes[classId].proposals[proposalId].voteIdToCount[optionId]++;\r\n        classes[classId].proposals[proposalId].ifVote[studentId] = true;\r\n        classes[classId].proposals[proposalId].voteCount++;\r\n    }\r\n\r\n    // \r\n    function getProposalResults(\r\n        address classAddress,\r\n        uint256 proposalId\r\n    )\r\n        public\r\n        view\r\n        override\r\n        returns (uint256, uint256, uint256[] memory ,uint256[] memory)\r\n    {\r\n        uint256 classId = addressToClassId[classAddress];\r\n        require(classes[classId].id != 0, \"Class does not exist\");\r\n        require(\r\n            classes[classId].proposals[proposalId].id != 0,\r\n            \"Proposal does not exist\"\r\n        );\r\n        uint256 winningOptionId;\r\n        uint256 voteforID;\r\n        \r\n        Proposal storage proposal = classes[classId].proposals[proposalId];\r\n        uint256[] memory teacherVoteCounts = new uint256[](proposal.votedIds.length);\r\n        voteforID = proposal.voteforID;\r\n        uint256 maxVoteCount = 0;\r\n        for (uint256 i = 0; i < proposal.votedIds.length; i++) {\r\n            uint256 optionId = proposal.votedIds[i];\r\n            uint256 voteCount = proposal.voteIdToCount[optionId];\r\n            teacherVoteCounts[i] = voteCount;\r\n            if (voteCount > maxVoteCount) {\r\n                maxVoteCount = voteCount;\r\n                winningOptionId = optionId;\r\n            }\r\n        }\r\n        return (winningOptionId, voteforID, proposal.votedIds,teacherVoteCounts);\r\n    }\r\n\r\n    function getStudents() public view returns(uint256[] memory) {\r\n        uint classId = addressToClassId[msg.sender];\r\n        return classes[classId].studentsId;\r\n    }\r\n\r\n    // \r\n    function setCourseSuitability(uint256 studentId, uint256[] memory _suitabilities, uint256[] memory courseIds) public {\r\n        require(studentId <= studentCount, \"Student does not exist\");\r\n        // \r\n        require(\r\n            _suitabilities.length == courseCount,\r\n            \"Suitability array length mismatch\"\r\n        );\r\n        Student storage student = students[studentId];\r\n        student.isSetSuitability = true;\r\n        for(uint256 i = 0; i < _suitabilities.length; i++){\r\n            student.courseSuitability[courseIds[i]] =  _suitabilities[i] ;\r\n        }\r\n    }\r\n\r\n    function studentSetCourseSuitability(uint256[] memory _suitabilities, uint256[] memory courseIds) public {\r\n        uint256 studentId = addressToStudentId[msg.sender]; \r\n        require(studentId <= studentCount, \"Student does not exist\");\r\n        require(studentId != 0, \"Student does not exist\");\r\n         // \r\n        require(_suitabilities.length == courseCount, \"Suitability array length mismatch\");\r\n        Student storage student = students[studentId];\r\n        student.isSetSuitability = true;\r\n        for(uint256 i = 0; i < _suitabilities.length; i++){\r\n            student.courseSuitability[courseIds[i]] =  _suitabilities[i];\r\n        }\r\n    }\r\n\r\n    // \r\n    function getStudentCourseSuitability(uint256 studentId, uint256 courseId) public view returns(uint256) {\r\n        Student storage student = students[studentId];\r\n        return student.courseSuitability[courseId];\r\n    }\r\n\r\n    // \r\n    function getAverageSuitability(uint256[] memory courseIds) public view override returns(uint256[] memory) {\r\n        uint256[] memory totalCourseScore = new uint256[](courseCount);\r\n        for (uint256 i = 1; i <= studentCount; i++) {\r\n            Student storage student = students[i];\r\n            for(uint256 j = 0; j < courseCount; j++){\r\n                totalCourseScore[j] += student.courseSuitability[courseIds[j]];\r\n            }\r\n        }\r\n        for (uint256 j = 0; j < courseCount; j++) {\r\n            totalCourseScore[j] = totalCourseScore[j] / studentCount;\r\n        }\r\n        return totalCourseScore;\r\n    }\r\n\r\n    function getClassIds() public view returns (uint256[] memory) {\r\n        return classIds;\r\n    }\r\n\r\n    function getStudentIds() public view returns (uint256[] memory) {\r\n        return studentIds;\r\n    }\r\n\r\n    function getProposalInfo(\r\n        uint256 classId,\r\n        uint256 proposalId\r\n    ) public view returns (uint256[] memory, uint256) {\r\n        return (\r\n            classes[classId].proposals[proposalId].votedIds,\r\n            classes[classId].proposals[proposalId].voteforID\r\n        );\r\n    }\r\n}\r\n",
  "sourcePath": "D:\\vscode\\\\course\\project\\contracts\\IStudentVote.sol",
  "compiler": {
    "name": "solc",
    "version": "0.8.7+commit.e28d00a7.Emscripten.clang"
  },
  "schemaVersion": "3.4.16",
  "updatedAt": "2025-04-07T15:13:43.965Z",
  "networkType": "ethereum",
  "devdoc": {
    "kind": "dev",
    "methods": {},
    "version": 1
  },
  "userdoc": {
    "kind": "user",
    "methods": {},
    "version": 1
  }
}