{
  "contractName": "IStudentVote",
  "abi": [
    {
      "anonymous": false,
      "inputs": [
        {
          "indexed": false,
          "internalType": "uint256",
          "name": "classProposalId",
          "type": "uint256"
        },
        {
          "indexed": false,
          "internalType": "string",
          "name": "description",
          "type": "string"
        }
      ],
      "name": "ProposalCreated",
      "type": "event"
    },
    {
      "inputs": [
        {
          "internalType": "address",
          "name": "",
          "type": "address"
        }
      ],
      "name": "addressToClassId",
      "outputs": [
        {
          "internalType": "uint256",
          "name": "",
          "type": "uint256"
        }
      ],
      "stateMutability": "view",
      "type": "function",
      "constant": true
    },
    {
      "inputs": [
        {
          "internalType": "address",
          "name": "",
          "type": "address"
        }
      ],
      "name": "addressToStudentId",
      "outputs": [
        {
          "internalType": "uint256",
          "name": "",
          "type": "uint256"
        }
      ],
      "stateMutability": "view",
      "type": "function",
      "constant": true
    },
    {
      "inputs": [],
      "name": "classCount",
      "outputs": [
        {
          "internalType": "uint256",
          "name": "",
          "type": "uint256"
        }
      ],
      "stateMutability": "view",
      "type": "function",
      "constant": true
    },
    {
      "inputs": [
        {
          "internalType": "uint256",
          "name": "",
          "type": "uint256"
        }
      ],
      "name": "classIds",
      "outputs": [
        {
          "internalType": "uint256",
          "name": "",
          "type": "uint256"
        }
      ],
      "stateMutability": "view",
      "type": "function",
      "constant": true
    },
    {
      "inputs": [
        {
          "internalType": "uint256",
          "name": "",
          "type": "uint256"
        }
      ],
      "name": "classes",
      "outputs": [
        {
          "internalType": "address",
          "name": "addr",
          "type": "address"
        },
        {
          "internalType": "uint256",
          "name": "id",
          "type": "uint256"
        },
        {
          "internalType": "string",
          "name": "name",
          "type": "string"
        },
        {
          "internalType": "uint256",
          "name": "proposalCount",
          "type": "uint256"
        },
        {
          "internalType": "uint256",
          "name": "studentCount",
          "type": "uint256"
        },
        {
          "internalType": "uint256",
          "name": "weightForAutoVote",
          "type": "uint256"
        }
      ],
      "stateMutability": "view",
      "type": "function",
      "constant": true
    },
    {
      "inputs": [],
      "name": "studentCount",
      "outputs": [
        {
          "internalType": "uint256",
          "name": "",
          "type": "uint256"
        }
      ],
      "stateMutability": "view",
      "type": "function",
      "constant": true
    },
    {
      "inputs": [
        {
          "internalType": "uint256",
          "name": "",
          "type": "uint256"
        }
      ],
      "name": "studentIds",
      "outputs": [
        {
          "internalType": "uint256",
          "name": "",
          "type": "uint256"
        }
      ],
      "stateMutability": "view",
      "type": "function",
      "constant": true
    },
    {
      "inputs": [
        {
          "internalType": "uint256",
          "name": "",
          "type": "uint256"
        }
      ],
      "name": "students",
      "outputs": [
        {
          "internalType": "address",
          "name": "addr",
          "type": "address"
        },
        {
          "internalType": "uint256",
          "name": "id",
          "type": "uint256"
        },
        {
          "internalType": "string",
          "name": "name",
          "type": "string"
        },
        {
          "internalType": "uint256",
          "name": "classId",
          "type": "uint256"
        },
        {
          "internalType": "bool",
          "name": "isSetSuitability",
          "type": "bool"
        }
      ],
      "stateMutability": "view",
      "type": "function",
      "constant": true
    },
    {
      "inputs": [],
      "name": "getClassNum",
      "outputs": [
        {
          "internalType": "uint256",
          "name": "",
          "type": "uint256"
        }
      ],
      "stateMutability": "view",
      "type": "function",
      "constant": true
    },
    {
      "inputs": [],
      "name": "getClassWeight",
      "outputs": [
        {
          "internalType": "uint256",
          "name": "",
          "type": "uint256"
        }
      ],
      "stateMutability": "view",
      "type": "function",
      "constant": true
    },
    {
      "inputs": [
        {
          "internalType": "string",
          "name": "className",
          "type": "string"
        },
        {
          "internalType": "address",
          "name": "classAddress",
          "type": "address"
        }
      ],
      "name": "addClass",
      "outputs": [],
      "stateMutability": "nonpayable",
      "type": "function"
    },
    {
      "inputs": [
        {
          "internalType": "uint256",
          "name": "classId",
          "type": "uint256"
        },
        {
          "internalType": "string",
          "name": "_name",
          "type": "string"
        },
        {
          "internalType": "address",
          "name": "studentAddress",
          "type": "address"
        }
      ],
      "name": "registerStudent",
      "outputs": [],
      "stateMutability": "nonpayable",
      "type": "function"
    },
    {
      "inputs": [
        {
          "internalType": "string",
          "name": "_description",
          "type": "string"
        },
        {
          "internalType": "uint256",
          "name": "_voteforID",
          "type": "uint256"
        },
        {
          "internalType": "uint256[]",
          "name": "_votedIds",
          "type": "uint256[]"
        }
      ],
      "name": "createProposal",
      "outputs": [
        {
          "internalType": "uint256",
          "name": "",
          "type": "uint256"
        }
      ],
      "stateMutability": "nonpayable",
      "type": "function"
    },
    {
      "inputs": [
        {
          "internalType": "uint256",
          "name": "studentId",
          "type": "uint256"
        },
        {
          "internalType": "uint256",
          "name": "proposalId",
          "type": "uint256"
        },
        {
          "internalType": "uint256",
          "name": "optionId",
          "type": "uint256"
        }
      ],
      "name": "vote",
      "outputs": [],
      "stateMutability": "nonpayable",
      "type": "function"
    },
    {
      "inputs": [
        {
          "internalType": "uint256",
          "name": "studentId",
          "type": "uint256"
        },
        {
          "internalType": "uint256",
          "name": "proposalId",
          "type": "uint256"
        },
        {
          "internalType": "uint256",
          "name": "optionId",
          "type": "uint256"
        }
      ],
      "name": "studentVote",
      "outputs": [],
      "stateMutability": "nonpayable",
      "type": "function"
    },
    {
      "inputs": [
        {
          "internalType": "address",
          "name": "classAddress",
          "type": "address"
        },
        {
          "internalType": "uint256",
          "name": "proposalId",
          "type": "uint256"
        }
      ],
      "name": "getProposalResults",
      "outputs": [
        {
          "internalType": "uint256",
          "name": "",
          "type": "uint256"
        },
        {
          "internalType": "uint256",
          "name": "",
          "type": "uint256"
        },
        {
          "internalType": "uint256[]",
          "name": "",
          "type": "uint256[]"
        },
        {
          "internalType": "uint256[]",
          "name": "",
          "type": "uint256[]"
        }
      ],
      "stateMutability": "view",
      "type": "function",
      "constant": true
    },
    {
      "inputs": [],
      "name": "getStudents",
      "outputs": [
        {
          "internalType": "uint256[]",
          "name": "",
          "type": "uint256[]"
        }
      ],
      "stateMutability": "view",
      "type": "function",
      "constant": true
    },
    {
      "inputs": [
        {
          "internalType": "uint256",
          "name": "studentId",
          "type": "uint256"
        },
        {
          "internalType": "uint256[]",
          "name": "_suitabilities",
          "type": "uint256[]"
        },
        {
          "internalType": "uint256[]",
          "name": "courseIds",
          "type": "uint256[]"
        }
      ],
      "name": "setCourseSuitability",
      "outputs": [],
      "stateMutability": "nonpayable",
      "type": "function"
    },
    {
      "inputs": [
        {
          "internalType": "uint256[]",
          "name": "_suitabilities",
          "type": "uint256[]"
        },
        {
          "internalType": "uint256[]",
          "name": "courseIds",
          "type": "uint256[]"
        }
      ],
      "name": "studentSetCourseSuitability",
      "outputs": [],
      "stateMutability": "nonpayable",
      "type": "function"
    },
    {
      "inputs": [
        {
          "internalType": "uint256",
          "name": "studentId",
          "type": "uint256"
        },
        {
          "internalType": "uint256",
          "name": "courseId",
          "type": "uint256"
        }
      ],
      "name": "getStudentCourseSuitability",
      "outputs": [
        {
          "internalType": "uint256",
          "name": "",
          "type": "uint256"
        }
      ],
      "stateMutability": "view",
      "type": "function",
      "constant": true
    },
    {
      "inputs": [
        {
          "internalType": "uint256",
          "name": "studentId",
          "type": "uint256"
        },
        {
          "internalType": "uint256",
          "name": "courseId",
          "type": "uint256"
        }
      ],
      "name": "getStudentCourseScore",
      "outputs": [
        {
          "internalType": "uint256",
          "name": "",
          "type": "uint256"
        }
      ],
      "stateMutability": "view",
      "type": "function",
      "constant": true
    },
    {
      "inputs": [
        {
          "internalType": "uint256",
          "name": "studentId",
          "type": "uint256"
        },
        {
          "internalType": "uint256",
          "name": "courseId",
          "type": "uint256"
        },
        {
          "internalType": "uint256",
          "name": "score",
          "type": "uint256"
        }
      ],
      "name": "setStudentCourseScore",
      "outputs": [],
      "stateMutability": "nonpayable",
      "type": "function"
    },
    {
      "inputs": [
        {
          "internalType": "uint256[]",
          "name": "courseIds",
          "type": "uint256[]"
        }
      ],
      "name": "getAverageSuitability",
      "outputs": [
        {
          "internalType": "uint256[]",
          "name": "",
          "type": "uint256[]"
        }
      ],
      "stateMutability": "view",
      "type": "function",
      "constant": true
    },
    {
      "inputs": [],
      "name": "getClassIds",
      "outputs": [
        {
          "internalType": "uint256[]",
          "name": "",
          "type": "uint256[]"
        }
      ],
      "stateMutability": "view",
      "type": "function",
      "constant": true
    },
    {
      "inputs": [],
      "name": "getStudentIds",
      "outputs": [
        {
          "internalType": "uint256[]",
          "name": "",
          "type": "uint256[]"
        }
      ],
      "stateMutability": "view",
      "type": "function",
      "constant": true
    },
    {
      "inputs": [
        {
          "internalType": "uint256",
          "name": "classId",
          "type": "uint256"
        },
        {
          "internalType": "uint256",
          "name": "proposalId",
          "type": "uint256"
        }
      ],
      "name": "getProposalInfo",
      "outputs": [
        {
          "internalType": "uint256[]",
          "name": "",
          "type": "uint256[]"
        },
        {
          "internalType": "uint256",
          "name": "",
          "type": "uint256"
        }
      ],
      "stateMutability": "view",
      "type": "function",
      "constant": true
    }
  ],
  "bytecode": "0x6080604052600a60085534801561001557600080fd5b50612f4f806100256000396000f3fe608060405234801561001057600080fd5b506004361061018e5760003560e01c80638a6655d6116100de578063bca24bd411610097578063e581f9ee11610071578063e581f9ee146104d7578063f1d064b3146104f5578063f9c229f214610513578063ffc35303146105435761018e565b8063bca24bd414610447578063d4e57ff014610477578063d715cced146104a75761018e565b80638a6655d614610360578063945155ba1461037c578063ab996317146103ad578063af331f79146103cb578063b18a993a146103e7578063b4e11343146104175761018e565b80634603631d1161014b5780636f28c355116101255780636f28c355146102af578063817dbe9f146102df578063824ec4431461031457806386c34415146103305761018e565b80634603631d1461025757806350b3842814610273578063644915b2146102915761018e565b806306ead22e146101935780631853699a146101c757806318860d37146101e35780631b666d80146102015780633560613d1461021d5780633b173bb314610239575b600080fd5b6101ad60048036038101906101a891906122f9565b610576565b6040516101be9594939291906126d9565b60405180910390f35b6101e160048036038101906101dc919061219a565b610661565b005b6101eb61081b565b6040516101f8919061279b565b60405180910390f35b61021b60048036038101906102169190612212565b610873565b005b61023760048036038101906102329190612326565b610a17565b005b610241610b49565b60405161024e919061290d565b60405180910390f35b610271600480360381019061026c9190612460565b610b53565b005b61027b610b84565b604051610288919061290d565b60405180910390f35b610299610bd2565b6040516102a6919061279b565b60405180910390f35b6102c960048036038101906102c491906122f9565b610c2a565b6040516102d6919061290d565b60405180910390f35b6102f960048036038101906102f491906122f9565b610c4e565b60405161030b96959493929190612733565b60405180910390f35b61032e60048036038101906103299190612460565b610d32565b005b61034a600480360381019061034591906120e4565b6110d5565b604051610357919061290d565b60405180910390f35b61037a60048036038101906103759190612460565b6110ed565b005b61039660048036038101906103919190612420565b6114b9565b6040516103a49291906127bd565b60405180910390f35b6103b561156d565b6040516103c2919061290d565b60405180910390f35b6103e560048036038101906103e091906123b1565b611573565b005b61040160048036038101906103fc919061226e565b611789565b60405161040e919061290d565b60405180910390f35b610431600480360381019061042c9190612420565b611939565b60405161043e919061290d565b60405180910390f35b610461600480360381019061045c91906122f9565b611970565b60405161046e919061290d565b60405180910390f35b610491600480360381019061048c91906120e4565b611994565b60405161049e919061290d565b60405180910390f35b6104c160048036038101906104bc9190612420565b6119ac565b6040516104ce919061290d565b60405180910390f35b6104df6119de565b6040516104ec919061290d565b60405180910390f35b6104fd6119e4565b60405161050a919061279b565b60405180910390f35b61052d60048036038101906105289190612151565b611aed565b60405161053a919061279b565b60405180910390f35b61055d60048036038101906105589190612111565b611c6a565b60405161056d9493929190612958565b60405180910390f35b60016020528060005260406000206000915090508060000160009054906101000a900473ffffffffffffffffffffffffffffffffffffffff16908060010154908060020180546105c590612b93565b80601f01602080910402602001604051908101604052809291908181526020018280546105f190612b93565b801561063e5780601f106106135761010080835404028352916020019161063e565b820191906000526020600020905b81548152906001019060200180831161062157829003601f168201915b5050505050908060030154908060040160009054906101000a900460ff16905085565b6000600360003373ffffffffffffffffffffffffffffffffffffffff1673ffffffffffffffffffffffffffffffffffffffff1681526020019081526020016000205490506007548111156106ea576040517f08c379a00000000000000000000000000000000000000000000000000000000081526004016106e1906128ad565b60405180910390fd5b600081141561072e576040517f08c379a0000000000000000000000000000000000000000000000000000000008152600401610725906128ad565b60405180910390fd5b600854835114610773576040517f08c379a000000000000000000000000000000000000000000000000000000000815260040161076a9061280d565b60405180910390fd5b600060016000838152602001908152602001600020905060018160040160006101000a81548160ff02191690831515021790555060005b8451811015610814578481815181106107c6576107c5612ccc565b5b60200260200101518260050160008684815181106107e7576107e6612ccc565b5b6020026020010151815260200190815260200160002081905550808061080c90612bf6565b9150506107aa565b5050505050565b6060600480548060200260200160405190810160405280929190818152602001828054801561086957602002820191906000526020600020905b815481526020019060010190808311610855575b5050505050905090565b6006600081548092919061088690612bf6565b91905055506000806000600654815260200190815260200160002060010154146108e5576040517f08c379a00000000000000000000000000000000000000000000000000000000081526004016108dc9061286d565b60405180910390fd5b600654600260008373ffffffffffffffffffffffffffffffffffffffff1673ffffffffffffffffffffffffffffffffffffffff1681526020019081526020016000208190555080600080600654815260200190815260200160002060000160006101000a81548173ffffffffffffffffffffffffffffffffffffffff021916908373ffffffffffffffffffffffffffffffffffffffff16021790555060065460008060065481526020019081526020016000206001018190555081600080600654815260200190815260200160002060020190805190602001906109ca929190611f09565b50600a600080600654815260200190815260200160002060070181905550600460065490806001815401808255809150506001900390600052602060002001600090919091909150555050565b600754831115610a5c576040517f08c379a0000000000000000000000000000000000000000000000000000000008152600401610a53906128ad565b60405180910390fd5b600854825114610aa1576040517f08c379a0000000000000000000000000000000000000000000000000000000008152600401610a989061280d565b60405180910390fd5b600060016000858152602001908152602001600020905060018160040160006101000a81548160ff02191690831515021790555060005b8351811015610b4257838181518110610af457610af3612ccc565b5b6020026020010151826005016000858481518110610b1557610b14612ccc565b5b60200260200101518152602001908152602001600020819055508080610b3a90612bf6565b915050610ad8565b5050505050565b6000600654905090565b8060016000858152602001908152602001600020600601600084815260200190815260200160002081905550505050565b60008060005b600654811015610bca576000808281526020019081526020016000206007015482610bb59190612a82565b91508080610bc290612bf6565b915050610b8a565b508091505090565b60606005805480602002602001604051908101604052809291908181526020018280548015610c2057602002820191906000526020600020905b815481526020019060010190808311610c0c575b5050505050905090565b60058181548110610c3a57600080fd5b906000526020600020016000915090505481565b60006020528060005260406000206000915090508060000160009054906101000a900473ffffffffffffffffffffffffffffffffffffffff1690806001015490806002018054610c9d90612b93565b80601f0160208091040260200160405190810160405280929190818152602001828054610cc990612b93565b8015610d165780601f10610ceb57610100808354040283529160200191610d16565b820191906000526020600020905b815481529060010190602001808311610cf957829003601f168201915b5050505050908060040154908060060154908060070154905086565b6000600160008581526020019081526020016000206003015490506000806000838152602001908152602001600020600101541415610da6576040517f08c379a0000000000000000000000000000000000000000000000000000000008152600401610d9d9061282d565b60405180910390fd5b60008060008381526020019081526020016000206003016000858152602001908152602001600020600001541415610e13576040517f08c379a0000000000000000000000000000000000000000000000000000000008152600401610e0a9061288d565b60405180910390fd5b600080600083815260200190815260200160002060030160008581526020019081526020016000206003018054905011610e82576040517f08c379a0000000000000000000000000000000000000000000000000000000008152600401610e799061284d565b60405180910390fd5b6000808281526020019081526020016000206003016000848152602001908152602001600020600501600085815260200190815260200160002060009054906101000a900460ff1615610f0a576040517f08c379a0000000000000000000000000000000000000000000000000000000008152600401610f01906128ed565b60405180910390fd5b6000805b600080848152602001908152602001600020600301600086815260200190815260200160002060030180549050811015610fab578360008085815260200190815260200160002060030160008781526020019081526020016000206003018281548110610f7e57610f7d612ccc565b5b90600052602060002001541415610f985760019150610fab565b8080610fa390612bf6565b915050610f0e565b5080610fec576040517f08c379a0000000000000000000000000000000000000000000000000000000008152600401610fe3906127ed565b60405180910390fd5b60008083815260200190815260200160002060030160008581526020019081526020016000206004016000848152602001908152602001600020600081548092919061103790612bf6565b919050555060016000808481526020019081526020016000206003016000868152602001908152602001600020600501600087815260200190815260200160002060006101000a81548160ff021916908315150217905550600080838152602001908152602001600020600301600085815260200190815260200160002060060160008154809291906110c990612bf6565b91905055505050505050565b60036020528060005260406000206000915090505481565b6000600260003373ffffffffffffffffffffffffffffffffffffffff1673ffffffffffffffffffffffffffffffffffffffff168152602001908152602001600020549050600080600083815260200190815260200160002060010154141561118a576040517f08c379a00000000000000000000000000000000000000000000000000000000081526004016111819061282d565b60405180910390fd5b600080600083815260200190815260200160002060030160008581526020019081526020016000206000015414156111f7576040517f08c379a00000000000000000000000000000000000000000000000000000000081526004016111ee9061288d565b60405180910390fd5b600080600083815260200190815260200160002060030160008581526020019081526020016000206003018054905011611266576040517f08c379a000000000000000000000000000000000000000000000000000000000815260040161125d9061284d565b60405180910390fd5b6000808281526020019081526020016000206003016000848152602001908152602001600020600501600085815260200190815260200160002060009054906101000a900460ff16156112ee576040517f08c379a00000000000000000000000000000000000000000000000000000000081526004016112e5906128ed565b60405180910390fd5b6000805b60008084815260200190815260200160002060030160008681526020019081526020016000206003018054905081101561138f57836000808581526020019081526020016000206003016000878152602001908152602001600020600301828154811061136257611361612ccc565b5b9060005260206000200154141561137c576001915061138f565b808061138790612bf6565b9150506112f2565b50806113d0576040517f08c379a00000000000000000000000000000000000000000000000000000000081526004016113c7906127ed565b60405180910390fd5b60008083815260200190815260200160002060030160008581526020019081526020016000206004016000848152602001908152602001600020600081548092919061141b90612bf6565b919050555060016000808481526020019081526020016000206003016000868152602001908152602001600020600501600087815260200190815260200160002060006101000a81548160ff021916908315150217905550600080838152602001908152602001600020600301600085815260200190815260200160002060060160008154809291906114ad90612bf6565b91905055505050505050565b6060600080600085815260200190815260200160002060030160008481526020019081526020016000206003016000808681526020019081526020016000206003016000858152602001908152602001600020600201548180548060200260200160405190810160405280929190818152602001828054801561155b57602002820191906000526020600020905b815481526020019060010190808311611547575b50505050509150915091509250929050565b60065481565b60008060008581526020019081526020016000206001015414156115cc576040517f08c379a00000000000000000000000000000000000000000000000000000000081526004016115c39061282d565b60405180910390fd5b600760008154809291906115df90612bf6565b9190505550600754600360008373ffffffffffffffffffffffffffffffffffffffff1673ffffffffffffffffffffffffffffffffffffffff168152602001908152602001600020819055508060016000600754815260200190815260200160002060000160006101000a81548173ffffffffffffffffffffffffffffffffffffffff021916908373ffffffffffffffffffffffffffffffffffffffff160217905550600754600160006007548152602001908152602001600020600101819055508160016000600754815260200190815260200160002060020190805190602001906116cc929190611f09565b508260016000600754815260200190815260200160002060030181905550600060016000600754815260200190815260200160002060040160006101000a81548160ff021916908315150217905550600080848152602001908152602001600020600501600754908060018154018082558091505060019003906000526020600020016000909190919091505560056007549080600181540180825580915050600190039060005260206000200160009091909190915055505050565b600080600090506000600190505b60065481116118f457600080600083815260200190815260200160002090508060040160008154809291906117cb90612bf6565b91905055506000816004015490508082600301600083815260200190815260200160002060000181905550878260030160008381526020019081526020016000206001019080519060200190611822929190611f09565b5060005b86518110156118be57600087828151811061184457611843612ccc565b5b6020026020010151146118ab5782600301600083815260200190815260200160002060030187828151811061187c5761187b612ccc565b5b602002602001015190806001815401808255809150506001900390600052602060002001600090919091909150555b80806118b690612bf6565b915050611826565b508682600301600083815260200190815260200160002060020181905550809350505080806118ec90612bf6565b915050611797565b507f9c770c289ab5bf7e57cb1d23c8ceae993aea46eb64847072fd3d78ca60d3e4328186604051611926929190612928565b60405180910390a1809150509392505050565b6000806001600085815260200190815260200160002090508060050160008481526020019081526020016000205491505092915050565b6004818154811061198057600080fd5b906000526020600020016000915090505481565b60026020528060005260406000206000915090505481565b600060016000848152602001908152602001600020600601600083815260200190815260200160002054905092915050565b60075481565b60606000600260003373ffffffffffffffffffffffffffffffffffffffff1673ffffffffffffffffffffffffffffffffffffffff1681526020019081526020016000205490506000806000838152602001908152602001600020600101541415611a83576040517f08c379a0000000000000000000000000000000000000000000000000000000008152600401611a7a906128cd565b60405180910390fd5b600080828152602001908152602001600020600501805480602002602001604051908101604052809291908181526020018280548015611ae257602002820191906000526020600020905b815481526020019060010190808311611ace575b505050505091505090565b6060600060085467ffffffffffffffff811115611b0d57611b0c612cfb565b5b604051908082528060200260200182016040528015611b3b5781602001602082028036833780820191505090505b5090506000600190505b6007548111611bf857600060016000838152602001908152602001600020905060005b600854811015611be357816005016000878381518110611b8b57611b8a612ccc565b5b6020026020010151815260200190815260200160002054848281518110611bb557611bb4612ccc565b5b60200260200101818151611bc99190612a82565b915081815250508080611bdb90612bf6565b915050611b68565b50508080611bf090612bf6565b915050611b45565b5060005b600854811015611c6057600754828281518110611c1c57611c1b612ccc565b5b6020026020010151611c2e9190612ad8565b828281518110611c4157611c40612ccc565b5b6020026020010181815250508080611c5890612bf6565b915050611bfc565b5080915050919050565b6000806060806000600260008873ffffffffffffffffffffffffffffffffffffffff1673ffffffffffffffffffffffffffffffffffffffff1681526020019081526020016000205490506000806000838152602001908152602001600020600101541415611d0d576040517f08c379a0000000000000000000000000000000000000000000000000000000008152600401611d049061282d565b60405180910390fd5b60008060008381526020019081526020016000206003016000888152602001908152602001600020600001541415611d7a576040517f08c379a0000000000000000000000000000000000000000000000000000000008152600401611d719061288d565b60405180910390fd5b600080600080600085815260200190815260200160002060030160008a815260200190815260200160002090506000816003018054905067ffffffffffffffff811115611dca57611dc9612cfb565b5b604051908082528060200260200182016040528015611df85781602001602082028036833780820191505090505b509050816002015492506000805b8360030180549050811015611e98576000846003018281548110611e2d57611e2c612ccc565b5b90600052602060002001549050600085600401600083815260200190815260200160002054905080858481518110611e6857611e67612ccc565b5b60200260200101818152505083811115611e83578093508197505b50508080611e9090612bf6565b915050611e06565b508484846003018481805480602002602001604051908101604052809291908181526020018280548015611eeb57602002820191906000526020600020905b815481526020019060010190808311611ed7575b50505050509150995099509950995050505050505092959194509250565b828054611f1590612b93565b90600052602060002090601f016020900481019282611f375760008555611f7e565b82601f10611f5057805160ff1916838001178555611f7e565b82800160010185558215611f7e579182015b82811115611f7d578251825591602001919060010190611f62565b5b509050611f8b9190611f8f565b5090565b5b80821115611fa8576000816000905550600101611f90565b5090565b6000611fbf611fba846129d0565b6129ab565b90508083825260208201905082856020860282011115611fe257611fe1612d2f565b5b60005b858110156120125781611ff888826120cf565b845260208401935060208301925050600181019050611fe5565b5050509392505050565b600061202f61202a846129fc565b6129ab565b90508281526020810184848401111561204b5761204a612d34565b5b612056848285612b51565b509392505050565b60008135905061206d81612eeb565b92915050565b600082601f83011261208857612087612d2a565b5b8135612098848260208601611fac565b91505092915050565b600082601f8301126120b6576120b5612d2a565b5b81356120c684826020860161201c565b91505092915050565b6000813590506120de81612f02565b92915050565b6000602082840312156120fa576120f9612d3e565b5b60006121088482850161205e565b91505092915050565b6000806040838503121561212857612127612d3e565b5b60006121368582860161205e565b9250506020612147858286016120cf565b9150509250929050565b60006020828403121561216757612166612d3e565b5b600082013567ffffffffffffffff81111561218557612184612d39565b5b61219184828501612073565b91505092915050565b600080604083850312156121b1576121b0612d3e565b5b600083013567ffffffffffffffff8111156121cf576121ce612d39565b5b6121db85828601612073565b925050602083013567ffffffffffffffff8111156121fc576121fb612d39565b5b61220885828601612073565b9150509250929050565b6000806040838503121561222957612228612d3e565b5b600083013567ffffffffffffffff81111561224757612246612d39565b5b612253858286016120a1565b92505060206122648582860161205e565b9150509250929050565b60008060006060848603121561228757612286612d3e565b5b600084013567ffffffffffffffff8111156122a5576122a4612d39565b5b6122b1868287016120a1565b93505060206122c2868287016120cf565b925050604084013567ffffffffffffffff8111156122e3576122e2612d39565b5b6122ef86828701612073565b9150509250925092565b60006020828403121561230f5761230e612d3e565b5b600061231d848285016120cf565b91505092915050565b60008060006060848603121561233f5761233e612d3e565b5b600061234d868287016120cf565b935050602084013567ffffffffffffffff81111561236e5761236d612d39565b5b61237a86828701612073565b925050604084013567ffffffffffffffff81111561239b5761239a612d39565b5b6123a786828701612073565b9150509250925092565b6000806000606084860312156123ca576123c9612d3e565b5b60006123d8868287016120cf565b935050602084013567ffffffffffffffff8111156123f9576123f8612d39565b5b612405868287016120a1565b92505060406124168682870161205e565b9150509250925092565b6000806040838503121561243757612436612d3e565b5b6000612445858286016120cf565b9250506020612456858286016120cf565b9150509250929050565b60008060006060848603121561247957612478612d3e565b5b6000612487868287016120cf565b9350506020612498868287016120cf565b92505060406124a9868287016120cf565b9150509250925092565b60006124bf83836126bb565b60208301905092915050565b6124d481612b09565b82525050565b60006124e582612a3d565b6124ef8185612a60565b93506124fa83612a2d565b8060005b8381101561252b57815161251288826124b3565b975061251d83612a53565b9250506001810190506124fe565b5085935050505092915050565b61254181612b1b565b82525050565b600061255282612a48565b61255c8185612a71565b935061256c818560208601612b60565b61257581612d43565b840191505092915050565b600061258d601183612a71565b915061259882612d54565b602082019050919050565b60006125b0602183612a71565b91506125bb82612d7d565b604082019050919050565b60006125d3601483612a71565b91506125de82612dcc565b602082019050919050565b60006125f6601783612a71565b915061260182612df5565b602082019050919050565b6000612619601483612a71565b915061262482612e1e565b602082019050919050565b600061263c601783612a71565b915061264782612e47565b602082019050919050565b600061265f601683612a71565b915061266a82612e70565b602082019050919050565b6000612682601883612a71565b915061268d82612e99565b602082019050919050565b60006126a5601683612a71565b91506126b082612ec2565b602082019050919050565b6126c481612b47565b82525050565b6126d381612b47565b82525050565b600060a0820190506126ee60008301886124cb565b6126fb60208301876126ca565b818103604083015261270d8186612547565b905061271c60608301856126ca565b6127296080830184612538565b9695505050505050565b600060c08201905061274860008301896124cb565b61275560208301886126ca565b81810360408301526127678187612547565b905061277660608301866126ca565b61278360808301856126ca565b61279060a08301846126ca565b979650505050505050565b600060208201905081810360008301526127b581846124da565b905092915050565b600060408201905081810360008301526127d781856124da565b90506127e660208301846126ca565b9392505050565b6000602082019050818103600083015261280681612580565b9050919050565b60006020820190508181036000830152612826816125a3565b9050919050565b60006020820190508181036000830152612846816125c6565b9050919050565b60006020820190508181036000830152612866816125e9565b9050919050565b600060208201905081810360008301526128868161260c565b9050919050565b600060208201905081810360008301526128a68161262f565b9050919050565b600060208201905081810360008301526128c681612652565b9050919050565b600060208201905081810360008301526128e681612675565b9050919050565b6000602082019050818103600083015261290681612698565b9050919050565b600060208201905061292260008301846126ca565b92915050565b600060408201905061293d60008301856126ca565b818103602083015261294f8184612547565b90509392505050565b600060808201905061296d60008301876126ca565b61297a60208301866126ca565b818103604083015261298c81856124da565b905081810360608301526129a081846124da565b905095945050505050565b60006129b56129c6565b90506129c18282612bc5565b919050565b6000604051905090565b600067ffffffffffffffff8211156129eb576129ea612cfb565b5b602082029050602081019050919050565b600067ffffffffffffffff821115612a1757612a16612cfb565b5b612a2082612d43565b9050602081019050919050565b6000819050602082019050919050565b600081519050919050565b600081519050919050565b6000602082019050919050565b600082825260208201905092915050565b600082825260208201905092915050565b6000612a8d82612b47565b9150612a9883612b47565b9250827fffffffffffffffffffffffffffffffffffffffffffffffffffffffffffffffff03821115612acd57612acc612c3f565b5b828201905092915050565b6000612ae382612b47565b9150612aee83612b47565b925082612afe57612afd612c6e565b5b828204905092915050565b6000612b1482612b27565b9050919050565b60008115159050919050565b600073ffffffffffffffffffffffffffffffffffffffff82169050919050565b6000819050919050565b82818337600083830152505050565b60005b83811015612b7e578082015181840152602081019050612b63565b83811115612b8d576000848401525b50505050565b60006002820490506001821680612bab57607f821691505b60208210811415612bbf57612bbe612c9d565b5b50919050565b612bce82612d43565b810181811067ffffffffffffffff82111715612bed57612bec612cfb565b5b80604052505050565b6000612c0182612b47565b91507fffffffffffffffffffffffffffffffffffffffffffffffffffffffffffffffff821415612c3457612c33612c3f565b5b600182019050919050565b7f4e487b7100000000000000000000000000000000000000000000000000000000600052601160045260246000fd5b7f4e487b7100000000000000000000000000000000000000000000000000000000600052601260045260246000fd5b7f4e487b7100000000000000000000000000000000000000000000000000000000600052602260045260246000fd5b7f4e487b7100000000000000000000000000000000000000000000000000000000600052603260045260246000fd5b7f4e487b7100000000000000000000000000000000000000000000000000000000600052604160045260246000fd5b600080fd5b600080fd5b600080fd5b600080fd5b600080fd5b6000601f19601f8301169050919050565b7f496e76616c6964206f7074696f6e204944000000000000000000000000000000600082015250565b7f537569746162696c697479206172726179206c656e677468206d69736d61746360008201527f6800000000000000000000000000000000000000000000000000000000000000602082015250565b7f436c61737320646f6573206e6f74206578697374000000000000000000000000600082015250565b7f50726f706f73616c20686173206e6f206f7074696f6e73000000000000000000600082015250565b7f436c61737320616c726561647920657869737473000000000000000000000000600082015250565b7f50726f706f73616c20646f6573206e6f74206578697374000000000000000000600082015250565b7f53747564656e7420646f6573206e6f7420657869737400000000000000000000600082015250565b7fe5bd93e5898de8b4a6e688b7e4b88de698afe78fade7baa70000000000000000600082015250565b7f596f75206861766520616c726561647920766f74656400000000000000000000600082015250565b612ef481612b09565b8114612eff57600080fd5b50565b612f0b81612b47565b8114612f1657600080fd5b5056fea26469706673582212206122e4c682be400a7cfb2bd8621ea995e03d9e9337cf7adfb27999f9b1c52d1164736f6c63430008070033",
  "immutableReferences": {},
  "source": "// SPDX-License-Identifier: MIT\r\npragma solidity ^0.8.7;\r\n\r\ninterface StudentVote {\r\n    function createProposal(\r\n        string memory _description,\r\n        uint256 _voteforID,\r\n        uint256[] memory _votedIds\r\n    ) external returns (uint256);\r\n\r\n    function vote(\r\n        uint256 studentId,\r\n        uint256 proposalId,\r\n        uint256 optionId\r\n    ) external;\r\n\r\n    function getProposalResults(\r\n        address classAddress,\r\n        uint256 proposalId\r\n    ) external view returns (uint256, uint256, uint256[] memory, uint256[] memory);\r\n\r\n    function getAverageSuitability(uint256[] memory courseIds) external view returns (uint256[] memory);\r\n\r\n    function getClassNum() external view returns (uint256);\r\n\r\n    function getClassWeight() external view returns (uint256);\r\n}\r\n\r\ncontract IStudentVote is StudentVote {\r\n    struct Student {\r\n        address addr;\r\n        uint256 id;\r\n        string name;\r\n        uint256 classId;\r\n        bool isSetSuitability;\r\n        mapping(uint256 => uint256) courseSuitability;\r\n        mapping(uint256 => uint256) courseScores;\r\n    }\r\n\r\n    struct Class {\r\n        address addr;\r\n        uint256 id;\r\n        string name;\r\n        mapping(uint256 => Proposal) proposals;\r\n        uint256 proposalCount;\r\n        uint256[] studentsId;\r\n        uint256 studentCount;\r\n        uint256 weightForAutoVote;\r\n    }\r\n\r\n    struct Proposal {\r\n        uint256 id;\r\n        string description;\r\n        uint256 voteforID; // ID\r\n        uint256[] votedIds;\r\n        mapping(uint256 => uint256) voteIdToCount;\r\n        mapping(uint256 => bool) ifVote;\r\n        uint256 voteCount;\r\n    }\r\n\r\n    mapping(uint256 => Class) public classes;\r\n    mapping(uint256 => Student) public students;\r\n    mapping(address => uint256) public addressToClassId;\r\n    mapping(address => uint256) public addressToStudentId;\r\n    uint256[] public classIds;\r\n    uint256[] public studentIds;\r\n    uint256 public classCount;\r\n    uint256 public studentCount;\r\n    uint256 courseCount = 10;\r\n\r\n    \r\n\r\n    function getClassNum() public view override returns (uint256) {\r\n        return classCount;\r\n    }\r\n\r\n    function getClassWeight() public view override returns (uint256) {\r\n        uint256 classWeights;\r\n        for (uint256 i = 0; i < classCount; i++) {\r\n            classWeights += classes[i].weightForAutoVote;\r\n        }\r\n        return classWeights;\r\n    }\r\n\r\n    // \r\n    function addClass(string memory className, address classAddress) public {\r\n        classCount++;\r\n        require(classes[classCount].id == 0, \"Class already exists\");\r\n        addressToClassId[classAddress] = classCount;\r\n        classes[classCount].addr = classAddress;\r\n        classes[classCount].id = classCount;\r\n        classes[classCount].name = className;\r\n        classes[classCount].weightForAutoVote = 10;\r\n        classIds.push(classCount);\r\n    }\r\n\r\n    // \r\n    function registerStudent(\r\n        uint256 classId,\r\n        string memory _name,\r\n        address studentAddress\r\n    ) public {\r\n        require(classes[classId].id != 0, \"Class does not exist\");\r\n        studentCount++;\r\n        addressToStudentId[studentAddress] = studentCount;\r\n        students[studentCount].addr = studentAddress;\r\n        students[studentCount].id = studentCount;\r\n        students[studentCount].name = _name;\r\n        students[studentCount].classId = classId;\r\n        students[studentCount].isSetSuitability = false;\r\n        classes[classId].studentsId.push(studentCount);\r\n        studentIds.push(studentCount);\r\n    }\r\n    // \r\n    event ProposalCreated(uint256 classProposalId, string description);\r\n    // \r\n    function createProposal(\r\n        string memory _description,\r\n        uint256 _voteforID,\r\n        uint256[] memory _votedIds\r\n    ) public override returns (uint256) {\r\n        uint256 newProposalID = 0;\r\n        for (uint256 i = 1; i <= classCount; i++) {\r\n            Class storage cls = classes[i];\r\n            cls.proposalCount++;\r\n            uint256 proposalId = cls.proposalCount;\r\n\r\n            cls.proposals[proposalId].id = proposalId;\r\n            cls.proposals[proposalId].description = _description;\r\n\r\n            for (uint256 j = 0; j < _votedIds.length; j++) {\r\n                if (_votedIds[j] != 0) {\r\n                    cls.proposals[proposalId].votedIds.push(_votedIds[j]);\r\n                }\r\n            }\r\n\r\n            cls.proposals[proposalId].voteforID = _voteforID;\r\n            newProposalID = proposalId;\r\n        }\r\n        emit ProposalCreated(newProposalID, _description);\r\n        return newProposalID;\r\n    }\r\n\r\n    // \r\n    function vote(\r\n        uint256 studentId,\r\n        uint256 proposalId,\r\n        uint256 optionId\r\n    ) public override {\r\n        uint256 classId = addressToClassId[msg.sender];\r\n        require(classes[classId].id != 0, \"Class does not exist\");\r\n        require(\r\n            classes[classId].proposals[proposalId].id != 0,\r\n            \"Proposal does not exist\"\r\n        );\r\n        require(\r\n            classes[classId].proposals[proposalId].votedIds.length > 0,\r\n            \"Proposal has no options\"\r\n        );\r\n        require(\r\n            !classes[classId].proposals[proposalId].ifVote[studentId],\r\n            \"You have already voted\"\r\n        );\r\n\r\n        bool optionExists = false;\r\n        for (\r\n            uint256 i = 0;\r\n            i < classes[classId].proposals[proposalId].votedIds.length;\r\n            i++\r\n        ) {\r\n            if (\r\n                classes[classId].proposals[proposalId].votedIds[i] == optionId\r\n            ) {\r\n                optionExists = true;\r\n                break;\r\n            }\r\n        }\r\n        require(optionExists, \"Invalid option ID\");\r\n\r\n        classes[classId].proposals[proposalId].voteIdToCount[optionId]++;\r\n        classes[classId].proposals[proposalId].ifVote[studentId] = true;\r\n        classes[classId].proposals[proposalId].voteCount++;\r\n    }\r\n\r\n    function studentVote(\r\n        uint256 studentId,\r\n        uint256 proposalId,\r\n        uint256 optionId\r\n    ) public {\r\n        uint256 classId = students[studentId].classId;\r\n        require(classes[classId].id != 0, \"Class does not exist\");\r\n        require(\r\n            classes[classId].proposals[proposalId].id != 0,\r\n            \"Proposal does not exist\"\r\n        );\r\n        require(\r\n            classes[classId].proposals[proposalId].votedIds.length > 0,\r\n            \"Proposal has no options\"\r\n        );\r\n        require(\r\n            !classes[classId].proposals[proposalId].ifVote[studentId],\r\n            \"You have already voted\"\r\n        );\r\n\r\n        bool optionExists = false;\r\n        for (\r\n            uint256 i = 0;\r\n            i < classes[classId].proposals[proposalId].votedIds.length;\r\n            i++\r\n        ) {\r\n            if (\r\n                classes[classId].proposals[proposalId].votedIds[i] == optionId\r\n            ) {\r\n                optionExists = true;\r\n                break;\r\n            }\r\n        }\r\n        require(optionExists, \"Invalid option ID\");\r\n\r\n        classes[classId].proposals[proposalId].voteIdToCount[optionId]++;\r\n        classes[classId].proposals[proposalId].ifVote[studentId] = true;\r\n        classes[classId].proposals[proposalId].voteCount++;\r\n    }\r\n\r\n    // \r\n    function getProposalResults(\r\n        address classAddress,\r\n        uint256 proposalId\r\n    )\r\n        public\r\n        view\r\n        override\r\n        returns (uint256, uint256, uint256[] memory ,uint256[] memory)\r\n    {\r\n        uint256 classId = addressToClassId[classAddress];\r\n        require(classes[classId].id != 0, \"Class does not exist\");\r\n        require(\r\n            classes[classId].proposals[proposalId].id != 0,\r\n            \"Proposal does not exist\"\r\n        );\r\n        uint256 winningOptionId;\r\n        uint256 voteforID;\r\n        \r\n        Proposal storage proposal = classes[classId].proposals[proposalId];\r\n        uint256[] memory teacherVoteCounts = new uint256[](proposal.votedIds.length);\r\n        voteforID = proposal.voteforID;\r\n        uint256 maxVoteCount = 0;\r\n        for (uint256 i = 0; i < proposal.votedIds.length; i++) {\r\n            uint256 optionId = proposal.votedIds[i];\r\n            uint256 voteCount = proposal.voteIdToCount[optionId];\r\n            teacherVoteCounts[i] = voteCount;\r\n            if (voteCount > maxVoteCount) {\r\n                maxVoteCount = voteCount;\r\n                winningOptionId = optionId;\r\n            }\r\n        }\r\n        return (winningOptionId, voteforID, proposal.votedIds,teacherVoteCounts);\r\n    }\r\n\r\n    function getStudents() public view returns(uint256[] memory) {\r\n        uint classId = addressToClassId[msg.sender];\r\n        require(classes[classId].id!= 0, unicode\"\");\r\n        return classes[classId].studentsId;\r\n    }\r\n\r\n    // \r\n    function setCourseSuitability(uint256 studentId, uint256[] memory _suitabilities, uint256[] memory courseIds) public {\r\n        require(studentId <= studentCount, \"Student does not exist\");\r\n        // \r\n        require(\r\n            _suitabilities.length == courseCount,\r\n            \"Suitability array length mismatch\"\r\n        );\r\n        Student storage student = students[studentId];\r\n        student.isSetSuitability = true;\r\n        for(uint256 i = 0; i < _suitabilities.length; i++){\r\n            student.courseSuitability[courseIds[i]] =  _suitabilities[i] ;\r\n        }\r\n    }\r\n\r\n    function studentSetCourseSuitability(uint256[] memory _suitabilities, uint256[] memory courseIds) public {\r\n        uint256 studentId = addressToStudentId[msg.sender]; \r\n        require(studentId <= studentCount, \"Student does not exist\");\r\n        require(studentId != 0, \"Student does not exist\");\r\n         // \r\n        require(_suitabilities.length == courseCount, \"Suitability array length mismatch\");\r\n        Student storage student = students[studentId];\r\n        student.isSetSuitability = true;\r\n        for(uint256 i = 0; i < _suitabilities.length; i++){\r\n            student.courseSuitability[courseIds[i]] =  _suitabilities[i];\r\n        }\r\n    }\r\n\r\n    // \r\n    function getStudentCourseSuitability(uint256 studentId, uint256 courseId) public view returns(uint256) {\r\n        Student storage student = students[studentId];\r\n        return student.courseSuitability[courseId];\r\n    }\r\n\r\n    // \r\n    function getStudentCourseScore(uint256 studentId, uint256 courseId) public view returns (uint256) {\r\n        return students[studentId].courseScores[courseId];\r\n    }\r\n    // \r\n    function setStudentCourseScore(uint256 studentId, uint256 courseId, uint256 score) public {\r\n        students[studentId].courseScores[courseId] = score;\r\n    }\r\n\r\n    // \r\n    function getAverageSuitability(uint256[] memory courseIds) public view override returns(uint256[] memory) {\r\n        uint256[] memory totalCourseScore = new uint256[](courseCount);\r\n        for (uint256 i = 1; i <= studentCount; i++) {\r\n            Student storage student = students[i];\r\n            for(uint256 j = 0; j < courseCount; j++){\r\n                totalCourseScore[j] += student.courseSuitability[courseIds[j]];\r\n            }\r\n        }\r\n        for (uint256 j = 0; j < courseCount; j++) {\r\n            totalCourseScore[j] = totalCourseScore[j] / studentCount;\r\n        }\r\n        return totalCourseScore;\r\n    }\r\n\r\n    function getClassIds() public view returns (uint256[] memory) {\r\n        return classIds;\r\n    }\r\n\r\n    function getStudentIds() public view returns (uint256[] memory) {\r\n        return studentIds;\r\n    }\r\n\r\n    function getProposalInfo(\r\n        uint256 classId,\r\n        uint256 proposalId\r\n    ) public view returns (uint256[] memory, uint256) {\r\n        return (\r\n            classes[classId].proposals[proposalId].votedIds,\r\n            classes[classId].proposals[proposalId].voteforID\r\n        );\r\n    }\r\n}\r\n",
  "sourcePath": "E:\\dao\\327\\Course-allocation\\project\\contracts\\IStudentVote.sol",
  "compiler": {
    "name": "solc",
    "version": "0.8.7+commit.e28d00a7.Emscripten.clang"
  },
  "schemaVersion": "3.4.16",
  "updatedAt": "2025-04-14T12:11:30.384Z",
  "networkType": "ethereum",
  "devdoc": {
    "kind": "dev",
    "methods": {},
    "version": 1
  },
  "userdoc": {
    "kind": "user",
    "methods": {},
    "version": 1
  }
}