{
  "contractName": "IStudentVote",
  "abi": [
    {
      "inputs": [
        {
          "internalType": "address",
          "name": "",
          "type": "address"
        }
      ],
      "name": "addressToClassId",
      "outputs": [
        {
          "internalType": "uint256",
          "name": "",
          "type": "uint256"
        }
      ],
      "stateMutability": "view",
      "type": "function",
      "constant": true
    },
    {
      "inputs": [
        {
          "internalType": "address",
          "name": "",
          "type": "address"
        }
      ],
      "name": "addressToStudentId",
      "outputs": [
        {
          "internalType": "uint256",
          "name": "",
          "type": "uint256"
        }
      ],
      "stateMutability": "view",
      "type": "function",
      "constant": true
    },
    {
      "inputs": [],
      "name": "classCount",
      "outputs": [
        {
          "internalType": "uint256",
          "name": "",
          "type": "uint256"
        }
      ],
      "stateMutability": "view",
      "type": "function",
      "constant": true
    },
    {
      "inputs": [
        {
          "internalType": "uint256",
          "name": "",
          "type": "uint256"
        }
      ],
      "name": "classIds",
      "outputs": [
        {
          "internalType": "uint256",
          "name": "",
          "type": "uint256"
        }
      ],
      "stateMutability": "view",
      "type": "function",
      "constant": true
    },
    {
      "inputs": [
        {
          "internalType": "uint256",
          "name": "",
          "type": "uint256"
        }
      ],
      "name": "classes",
      "outputs": [
        {
          "internalType": "address",
          "name": "classAddress",
          "type": "address"
        },
        {
          "internalType": "uint256",
          "name": "id",
          "type": "uint256"
        },
        {
          "internalType": "string",
          "name": "name",
          "type": "string"
        },
        {
          "internalType": "uint256",
          "name": "proposalCount",
          "type": "uint256"
        },
        {
          "internalType": "uint256",
          "name": "studentCount",
          "type": "uint256"
        },
        {
          "internalType": "uint256",
          "name": "weightForAutoVote",
          "type": "uint256"
        }
      ],
      "stateMutability": "view",
      "type": "function",
      "constant": true
    },
    {
      "inputs": [],
      "name": "studentCount",
      "outputs": [
        {
          "internalType": "uint256",
          "name": "",
          "type": "uint256"
        }
      ],
      "stateMutability": "view",
      "type": "function",
      "constant": true
    },
    {
      "inputs": [
        {
          "internalType": "uint256",
          "name": "",
          "type": "uint256"
        }
      ],
      "name": "studentIds",
      "outputs": [
        {
          "internalType": "uint256",
          "name": "",
          "type": "uint256"
        }
      ],
      "stateMutability": "view",
      "type": "function",
      "constant": true
    },
    {
      "inputs": [
        {
          "internalType": "uint256",
          "name": "",
          "type": "uint256"
        }
      ],
      "name": "students",
      "outputs": [
        {
          "internalType": "address",
          "name": "studentAddress",
          "type": "address"
        },
        {
          "internalType": "uint256",
          "name": "id",
          "type": "uint256"
        },
        {
          "internalType": "string",
          "name": "name",
          "type": "string"
        },
        {
          "internalType": "uint256",
          "name": "classId",
          "type": "uint256"
        },
        {
          "internalType": "bool",
          "name": "isSetSuitability",
          "type": "bool"
        }
      ],
      "stateMutability": "view",
      "type": "function",
      "constant": true
    },
    {
      "inputs": [],
      "name": "getClassNum",
      "outputs": [
        {
          "internalType": "uint256",
          "name": "",
          "type": "uint256"
        }
      ],
      "stateMutability": "view",
      "type": "function",
      "constant": true
    },
    {
      "inputs": [],
      "name": "getClassWeight",
      "outputs": [
        {
          "internalType": "uint256",
          "name": "",
          "type": "uint256"
        }
      ],
      "stateMutability": "view",
      "type": "function",
      "constant": true
    },
    {
      "inputs": [],
      "name": "getStudentofClass",
      "outputs": [
        {
          "internalType": "uint256[]",
          "name": "",
          "type": "uint256[]"
        }
      ],
      "stateMutability": "view",
      "type": "function",
      "constant": true
    },
    {
      "inputs": [
        {
          "internalType": "string",
          "name": "className",
          "type": "string"
        }
      ],
      "name": "addClass",
      "outputs": [],
      "stateMutability": "nonpayable",
      "type": "function"
    },
    {
      "inputs": [
        {
          "internalType": "string",
          "name": "_name",
          "type": "string"
        }
      ],
      "name": "addStudentToClass",
      "outputs": [],
      "stateMutability": "nonpayable",
      "type": "function"
    },
    {
      "inputs": [
        {
          "internalType": "uint256",
          "name": "classId",
          "type": "uint256"
        },
        {
          "internalType": "string",
          "name": "_name",
          "type": "string"
        }
      ],
      "name": "registerStudent",
      "outputs": [],
      "stateMutability": "nonpayable",
      "type": "function"
    },
    {
      "inputs": [
        {
          "internalType": "string",
          "name": "_description",
          "type": "string"
        },
        {
          "internalType": "uint256",
          "name": "_voteforID",
          "type": "uint256"
        },
        {
          "internalType": "uint256[]",
          "name": "_votedIds",
          "type": "uint256[]"
        }
      ],
      "name": "createProposal",
      "outputs": [
        {
          "internalType": "uint256",
          "name": "",
          "type": "uint256"
        }
      ],
      "stateMutability": "nonpayable",
      "type": "function"
    },
    {
      "inputs": [
        {
          "internalType": "uint256",
          "name": "studentId",
          "type": "uint256"
        },
        {
          "internalType": "uint256",
          "name": "proposalId",
          "type": "uint256"
        },
        {
          "internalType": "uint256",
          "name": "optionId",
          "type": "uint256"
        }
      ],
      "name": "vote",
      "outputs": [],
      "stateMutability": "nonpayable",
      "type": "function"
    },
    {
      "inputs": [
        {
          "internalType": "uint256",
          "name": "proposalId",
          "type": "uint256"
        },
        {
          "internalType": "uint256",
          "name": "optionId",
          "type": "uint256"
        }
      ],
      "name": "studentVote",
      "outputs": [],
      "stateMutability": "nonpayable",
      "type": "function"
    },
    {
      "inputs": [
        {
          "internalType": "address",
          "name": "classAddress",
          "type": "address"
        },
        {
          "internalType": "uint256",
          "name": "proposalId",
          "type": "uint256"
        }
      ],
      "name": "getProposalResults",
      "outputs": [
        {
          "internalType": "uint256",
          "name": "winningOptionId",
          "type": "uint256"
        },
        {
          "internalType": "uint256",
          "name": "voteforID",
          "type": "uint256"
        }
      ],
      "stateMutability": "view",
      "type": "function",
      "constant": true
    },
    {
      "inputs": [],
      "name": "getStudent",
      "outputs": [
        {
          "internalType": "uint256[]",
          "name": "",
          "type": "uint256[]"
        }
      ],
      "stateMutability": "view",
      "type": "function",
      "constant": true
    },
    {
      "inputs": [
        {
          "internalType": "uint256",
          "name": "studentId",
          "type": "uint256"
        },
        {
          "internalType": "uint256[]",
          "name": "_suitabilities",
          "type": "uint256[]"
        }
      ],
      "name": "setCourseSuitability",
      "outputs": [],
      "stateMutability": "nonpayable",
      "type": "function"
    },
    {
      "inputs": [
        {
          "internalType": "uint256[]",
          "name": "_suitabilities",
          "type": "uint256[]"
        }
      ],
      "name": "studentSetCourseSuitability",
      "outputs": [],
      "stateMutability": "nonpayable",
      "type": "function"
    },
    {
      "inputs": [
        {
          "internalType": "uint256",
          "name": "studentId",
          "type": "uint256"
        }
      ],
      "name": "getCourseSuitability",
      "outputs": [
        {
          "internalType": "uint256[]",
          "name": "",
          "type": "uint256[]"
        }
      ],
      "stateMutability": "view",
      "type": "function",
      "constant": true
    },
    {
      "inputs": [],
      "name": "getAverageSuitability",
      "outputs": [
        {
          "internalType": "uint256[]",
          "name": "",
          "type": "uint256[]"
        }
      ],
      "stateMutability": "view",
      "type": "function",
      "constant": true
    },
    {
      "inputs": [],
      "name": "getClassIds",
      "outputs": [
        {
          "internalType": "uint256[]",
          "name": "",
          "type": "uint256[]"
        }
      ],
      "stateMutability": "view",
      "type": "function",
      "constant": true
    },
    {
      "inputs": [],
      "name": "getStudentIds",
      "outputs": [
        {
          "internalType": "uint256[]",
          "name": "",
          "type": "uint256[]"
        }
      ],
      "stateMutability": "view",
      "type": "function",
      "constant": true
    }
  ],
  "bytecode": "0x6080604052600a60085534801561001557600080fd5b50612d34806100256000396000f3fe608060405234801561001057600080fd5b50600436106101735760003560e01c8063817dbe9f116100de578063bca24bd411610097578063e581f9ee11610071578063e581f9ee1461047b578063f1b2126b14610499578063f8fb3e62146104b7578063ffc35303146104d357610173565b8063bca24bd4146103ff578063c2abb40a1461042f578063d4e57ff01461044b57610173565b8063817dbe9f1461031257806386c34415146103475780638a6655d614610377578063ab99631714610393578063b18a993a146103b1578063b439548d146103e157610173565b80633d89c149116101305780633d89c1491461023e5780633f9586d41461026e57806350b384281461028a578063644915b2146102a85780636f28c355146102c65780637456cf3e146102f657610173565b806306ead22e1461017857806318860d37146101ac57806321489c55146101ca578063298c90f4146101e65780632a3cdb8f146102025780633b173bb314610220575b600080fd5b610192600480360381019061018d9190612216565b610504565b6040516101a3959493929190612591565b60405180910390f35b6101b46105ef565b6040516101c19190612653565b60405180910390f35b6101e460048036038101906101df91906122fb565b610647565b005b61020060048036038101906101fb9190612243565b610a2e565b005b61020a610b45565b6040516102179190612653565b60405180910390f35b610228610bf5565b6040516102359190612775565b60405180910390f35b61025860048036038101906102539190612216565b610bff565b6040516102659190612653565b60405180910390f35b6102886004803603810190610283919061229f565b610cc1565b005b610292610ed6565b60405161029f9190612775565b60405180910390f35b6102b0610f24565b6040516102bd9190612653565b60405180910390f35b6102e060048036038101906102db9190612216565b610f7c565b6040516102ed9190612775565b60405180910390f35b610310600480360381019061030b91906120f9565b610fa0565b005b61032c60048036038101906103279190612216565b6110fb565b60405161033e969594939291906125eb565b60405180910390f35b610361600480360381019061035c919061208c565b6111df565b60405161036e9190612775565b60405180910390f35b610391600480360381019061038c919061233b565b6111f7565b005b61039b6115c3565b6040516103a89190612775565b60405180910390f35b6103cb60048036038101906103c6919061218b565b6115c9565b6040516103d89190612775565b60405180910390f35b6103e9611740565b6040516103f69190612653565b60405180910390f35b61041960048036038101906104149190612216565b6117f0565b6040516104269190612775565b60405180910390f35b61044960048036038101906104449190612142565b611814565b005b6104656004803603810190610460919061208c565b6119b7565b6040516104729190612775565b60405180910390f35b6104836119cf565b6040516104909190612775565b60405180910390f35b6104a16119d5565b6040516104ae9190612653565b60405180910390f35b6104d160048036038101906104cc9190612142565b611b36565b005b6104ed60048036038101906104e891906120b9565b611cf2565b6040516104fb929190612790565b60405180910390f35b60016020528060005260406000206000915090508060000160009054906101000a900473ffffffffffffffffffffffffffffffffffffffff1690806001015490806002018054610553906129a1565b80601f016020809104026020016040519081016040528092919081815260200182805461057f906129a1565b80156105cc5780601f106105a1576101008083540402835291602001916105cc565b820191906000526020600020905b8154815290600101906020018083116105af57829003601f168201915b5050505050908060030154908060040160009054906101000a900460ff16905085565b6060600480548060200260200160405190810160405280929190818152602001828054801561063d57602002820191906000526020600020905b815481526020019060010190808311610629575b5050505050905090565b6000600360003373ffffffffffffffffffffffffffffffffffffffff1673ffffffffffffffffffffffffffffffffffffffff16815260200190815260200160002054905060006001600083815260200190815260200160002060030154905060008060008381526020019081526020016000206001015414156106ff576040517f08c379a00000000000000000000000000000000000000000000000000000000081526004016106f6906126b5565b60405180910390fd5b6000806000838152602001908152602001600020600301600086815260200190815260200160002060000154141561076c576040517f08c379a000000000000000000000000000000000000000000000000000000000815260040161076390612715565b60405180910390fd5b6000806000838152602001908152602001600020600301600086815260200190815260200160002060030180549050116107db576040517f08c379a00000000000000000000000000000000000000000000000000000000081526004016107d2906126d5565b60405180910390fd5b6000808281526020019081526020016000206003016000858152602001908152602001600020600501600083815260200190815260200160002060009054906101000a900460ff1615610863576040517f08c379a000000000000000000000000000000000000000000000000000000000815260040161085a90612755565b60405180910390fd5b6000805b6000808481526020019081526020016000206003016000878152602001908152602001600020600301805490508110156109045784600080858152602001908152602001600020600301600088815260200190815260200160002060030182815481106108d7576108d6612ada565b5b906000526020600020015414156108f15760019150610904565b80806108fc90612a04565b915050610867565b5080610945576040517f08c379a000000000000000000000000000000000000000000000000000000000815260040161093c90612675565b60405180910390fd5b60008083815260200190815260200160002060030160008681526020019081526020016000206004016000858152602001908152602001600020600081548092919061099090612a04565b919050555060016000808481526020019081526020016000206003016000878152602001908152602001600020600501600085815260200190815260200160002060006101000a81548160ff02191690831515021790555060008083815260200190815260200160002060030160008681526020019081526020016000206006016000815480929190610a2290612a04565b91905055505050505050565b600754821115610a73576040517f08c379a0000000000000000000000000000000000000000000000000000000008152600401610a6a90612735565b60405180910390fd5b600854815114610ab8576040517f08c379a0000000000000000000000000000000000000000000000000000000008152600401610aaf90612695565b60405180910390fd5b600060016000848152602001908152602001600020905060018160040160006101000a81548160ff02191690831515021790555060005b8251811015610b3f57828181518110610b0b57610b0a612ada565b5b6020026020010151826005016000838152602001908152602001600020819055508080610b3790612a04565b915050610aef565b50505050565b60606000600260003373ffffffffffffffffffffffffffffffffffffffff1673ffffffffffffffffffffffffffffffffffffffff168152602001908152602001600020549050600080828152602001908152602001600020600501805480602002602001604051908101604052809291908181526020018280548015610bea57602002820191906000526020600020905b815481526020019060010190808311610bd6575b505050505091505090565b6000600654905090565b6060600060085467ffffffffffffffff811115610c1f57610c1e612b09565b5b604051908082528060200260200182016040528015610c4d5781602001602082028036833780820191505090505b50905060005b600854811015610cb75760016000858152602001908152602001600020600501600082815260200190815260200160002054828281518110610c9857610c97612ada565b5b6020026020010181815250508080610caf90612a04565b915050610c53565b5080915050919050565b6000806000848152602001908152602001600020600101541415610d1a576040517f08c379a0000000000000000000000000000000000000000000000000000000008152600401610d11906126b5565b60405180910390fd5b60076000815480929190610d2d90612a04565b9190505550600754600360003373ffffffffffffffffffffffffffffffffffffffff1673ffffffffffffffffffffffffffffffffffffffff168152602001908152602001600020819055503360016000600754815260200190815260200160002060000160006101000a81548173ffffffffffffffffffffffffffffffffffffffff021916908373ffffffffffffffffffffffffffffffffffffffff16021790555060075460016000600754815260200190815260200160002060010181905550806001600060075481526020019081526020016000206002019080519060200190610e1a929190611eb1565b508160016000600754815260200190815260200160002060030181905550600060016000600754815260200190815260200160002060040160006101000a81548160ff0219169083151502179055506000808381526020019081526020016000206005016007549080600181540180825580915050600190039060005260206000200160009091909190915055600560075490806001815401808255809150506001900390600052602060002001600090919091909150555050565b60008060005b600654811015610f1c576000808281526020019081526020016000206007015482610f079190612890565b91508080610f1490612a04565b915050610edc565b508091505090565b60606005805480602002602001604051908101604052809291908181526020018280548015610f7257602002820191906000526020600020905b815481526020019060010190808311610f5e575b5050505050905090565b60058181548110610f8c57600080fd5b906000526020600020016000915090505481565b6000600360003373ffffffffffffffffffffffffffffffffffffffff1673ffffffffffffffffffffffffffffffffffffffff168152602001908152602001600020549050600754811115611029576040517f08c379a000000000000000000000000000000000000000000000000000000000815260040161102090612735565b60405180910390fd5b60085482511461106e576040517f08c379a000000000000000000000000000000000000000000000000000000000815260040161106590612695565b60405180910390fd5b600060016000838152602001908152602001600020905060018160040160006101000a81548160ff02191690831515021790555060005b83518110156110f5578381815181106110c1576110c0612ada565b5b60200260200101518260050160008381526020019081526020016000208190555080806110ed90612a04565b9150506110a5565b50505050565b60006020528060005260406000206000915090508060000160009054906101000a900473ffffffffffffffffffffffffffffffffffffffff169080600101549080600201805461114a906129a1565b80601f0160208091040260200160405190810160405280929190818152602001828054611176906129a1565b80156111c35780601f10611198576101008083540402835291602001916111c3565b820191906000526020600020905b8154815290600101906020018083116111a657829003601f168201915b5050505050908060040154908060060154908060070154905086565b60036020528060005260406000206000915090505481565b6000600260003373ffffffffffffffffffffffffffffffffffffffff1673ffffffffffffffffffffffffffffffffffffffff1681526020019081526020016000205490506000806000838152602001908152602001600020600101541415611294576040517f08c379a000000000000000000000000000000000000000000000000000000000815260040161128b906126b5565b60405180910390fd5b60008060008381526020019081526020016000206003016000858152602001908152602001600020600001541415611301576040517f08c379a00000000000000000000000000000000000000000000000000000000081526004016112f890612715565b60405180910390fd5b600080600083815260200190815260200160002060030160008581526020019081526020016000206003018054905011611370576040517f08c379a0000000000000000000000000000000000000000000000000000000008152600401611367906126d5565b60405180910390fd5b6000808281526020019081526020016000206003016000848152602001908152602001600020600501600085815260200190815260200160002060009054906101000a900460ff16156113f8576040517f08c379a00000000000000000000000000000000000000000000000000000000081526004016113ef90612755565b60405180910390fd5b6000805b60008084815260200190815260200160002060030160008681526020019081526020016000206003018054905081101561149957836000808581526020019081526020016000206003016000878152602001908152602001600020600301828154811061146c5761146b612ada565b5b906000526020600020015414156114865760019150611499565b808061149190612a04565b9150506113fc565b50806114da576040517f08c379a00000000000000000000000000000000000000000000000000000000081526004016114d190612675565b60405180910390fd5b60008083815260200190815260200160002060030160008581526020019081526020016000206004016000848152602001908152602001600020600081548092919061152590612a04565b919050555060016000808481526020019081526020016000206003016000868152602001908152602001600020600501600087815260200190815260200160002060006101000a81548160ff021916908315150217905550600080838152602001908152602001600020600301600085815260200190815260200160002060060160008154809291906115b790612a04565b91905055505050505050565b60065481565b600080600090506000600190505b6006548111611734576000806000838152602001908152602001600020905080600401600081548092919061160b90612a04565b91905055506000816004015490508082600301600083815260200190815260200160002060000181905550878260030160008381526020019081526020016000206001019080519060200190611662929190611eb1565b5060005b86518110156116fe57600087828151811061168457611683612ada565b5b6020026020010151146116eb578260030160008381526020019081526020016000206003018782815181106116bc576116bb612ada565b5b602002602001015190806001815401808255809150506001900390600052602060002001600090919091909150555b80806116f690612a04565b915050611666565b5086826003016000838152602001908152602001600020600201819055508093505050808061172c90612a04565b9150506115d7565b50809150509392505050565b60606000600260003373ffffffffffffffffffffffffffffffffffffffff1673ffffffffffffffffffffffffffffffffffffffff1681526020019081526020016000205490506000808281526020019081526020016000206005018054806020026020016040519081016040528092919081815260200182805480156117e557602002820191906000526020600020905b8154815260200190600101908083116117d1575b505050505091505090565b6004818154811061180057600080fd5b906000526020600020016000915090505481565b6006600081548092919061182790612a04565b9190505550600080600060065481526020019081526020016000206001015414611886576040517f08c379a000000000000000000000000000000000000000000000000000000000815260040161187d906126f5565b60405180910390fd5b600654600260003373ffffffffffffffffffffffffffffffffffffffff1673ffffffffffffffffffffffffffffffffffffffff1681526020019081526020016000208190555033600080600654815260200190815260200160002060000160006101000a81548173ffffffffffffffffffffffffffffffffffffffff021916908373ffffffffffffffffffffffffffffffffffffffff160217905550600654600080600654815260200190815260200160002060010181905550806000806006548152602001908152602001600020600201908051906020019061196b929190611eb1565b50600a6000806006548152602001908152602001600020600701819055506004600654908060018154018082558091505060019003906000526020600020016000909190919091505550565b60026020528060005260406000206000915090505481565b60075481565b6060600060085467ffffffffffffffff8111156119f5576119f4612b09565b5b604051908082528060200260200182016040528015611a235781602001602082028036833780820191505090505b5090506000600190505b6007548111611ac657600060016000838152602001908152602001600020905060005b600854811015611ab15781600501600082815260200190815260200160002054848281518110611a8357611a82612ada565b5b60200260200101818151611a979190612890565b915081815250508080611aa990612a04565b915050611a50565b50508080611abe90612a04565b915050611a2d565b5060005b600854811015611b2e57600754828281518110611aea57611ae9612ada565b5b6020026020010151611afc91906128e6565b828281518110611b0f57611b0e612ada565b5b6020026020010181815250508080611b2690612a04565b915050611aca565b508091505090565b6000600260003373ffffffffffffffffffffffffffffffffffffffff1673ffffffffffffffffffffffffffffffffffffffff1681526020019081526020016000205490506000806000838152602001908152602001600020600101541415611bd3576040517f08c379a0000000000000000000000000000000000000000000000000000000008152600401611bca906126b5565b60405180910390fd5b60076000815480929190611be690612a04565b919050555060075460016000600754815260200190815260200160002060010181905550816001600060075481526020019081526020016000206002019080519060200190611c36929190611eb1565b508060016000600754815260200190815260200160002060030181905550600060016000600754815260200190815260200160002060040160006101000a81548160ff0219169083151502179055506000808281526020019081526020016000206005016007549080600181540180825580915050600190039060005260206000200160009091909190915055600560075490806001815401808255809150506001900390600052602060002001600090919091909150555050565b6000806000600260008673ffffffffffffffffffffffffffffffffffffffff1673ffffffffffffffffffffffffffffffffffffffff1681526020019081526020016000205490506000806000838152602001908152602001600020600101541415611d92576040517f08c379a0000000000000000000000000000000000000000000000000000000008152600401611d89906126b5565b60405180910390fd5b60008060008381526020019081526020016000206003016000868152602001908152602001600020600001541415611dff576040517f08c379a0000000000000000000000000000000000000000000000000000000008152600401611df690612715565b60405180910390fd5b600080600083815260200190815260200160002060030160008681526020019081526020016000209050806002015492506000805b8260030180549050811015611ea6576000836003018281548110611e5b57611e5a612ada565b5b90600052602060002001549050600084600401600083815260200190815260200160002054905083811115611e91578093508197505b50508080611e9e90612a04565b915050611e34565b505050509250929050565b828054611ebd906129a1565b90600052602060002090601f016020900481019282611edf5760008555611f26565b82601f10611ef857805160ff1916838001178555611f26565b82800160010185558215611f26579182015b82811115611f25578251825591602001919060010190611f0a565b5b509050611f339190611f37565b5090565b5b80821115611f50576000816000905550600101611f38565b5090565b6000611f67611f62846127de565b6127b9565b90508083825260208201905082856020860282011115611f8a57611f89612b3d565b5b60005b85811015611fba5781611fa08882612077565b845260208401935060208301925050600181019050611f8d565b5050509392505050565b6000611fd7611fd28461280a565b6127b9565b905082815260208101848484011115611ff357611ff2612b42565b5b611ffe84828561295f565b509392505050565b60008135905061201581612cd0565b92915050565b600082601f8301126120305761202f612b38565b5b8135612040848260208601611f54565b91505092915050565b600082601f83011261205e5761205d612b38565b5b813561206e848260208601611fc4565b91505092915050565b60008135905061208681612ce7565b92915050565b6000602082840312156120a2576120a1612b4c565b5b60006120b084828501612006565b91505092915050565b600080604083850312156120d0576120cf612b4c565b5b60006120de85828601612006565b92505060206120ef85828601612077565b9150509250929050565b60006020828403121561210f5761210e612b4c565b5b600082013567ffffffffffffffff81111561212d5761212c612b47565b5b6121398482850161201b565b91505092915050565b60006020828403121561215857612157612b4c565b5b600082013567ffffffffffffffff81111561217657612175612b47565b5b61218284828501612049565b91505092915050565b6000806000606084860312156121a4576121a3612b4c565b5b600084013567ffffffffffffffff8111156121c2576121c1612b47565b5b6121ce86828701612049565b93505060206121df86828701612077565b925050604084013567ffffffffffffffff811115612200576121ff612b47565b5b61220c8682870161201b565b9150509250925092565b60006020828403121561222c5761222b612b4c565b5b600061223a84828501612077565b91505092915050565b6000806040838503121561225a57612259612b4c565b5b600061226885828601612077565b925050602083013567ffffffffffffffff81111561228957612288612b47565b5b6122958582860161201b565b9150509250929050565b600080604083850312156122b6576122b5612b4c565b5b60006122c485828601612077565b925050602083013567ffffffffffffffff8111156122e5576122e4612b47565b5b6122f185828601612049565b9150509250929050565b6000806040838503121561231257612311612b4c565b5b600061232085828601612077565b925050602061233185828601612077565b9150509250929050565b60008060006060848603121561235457612353612b4c565b5b600061236286828701612077565b935050602061237386828701612077565b925050604061238486828701612077565b9150509250925092565b600061239a8383612573565b60208301905092915050565b6123af81612917565b82525050565b60006123c08261284b565b6123ca818561286e565b93506123d58361283b565b8060005b838110156124065781516123ed888261238e565b97506123f883612861565b9250506001810190506123d9565b5085935050505092915050565b61241c81612929565b82525050565b600061242d82612856565b612437818561287f565b935061244781856020860161296e565b61245081612b51565b840191505092915050565b600061246860118361287f565b915061247382612b62565b602082019050919050565b600061248b60218361287f565b915061249682612b8b565b604082019050919050565b60006124ae60148361287f565b91506124b982612bda565b602082019050919050565b60006124d160178361287f565b91506124dc82612c03565b602082019050919050565b60006124f460148361287f565b91506124ff82612c2c565b602082019050919050565b600061251760178361287f565b915061252282612c55565b602082019050919050565b600061253a60168361287f565b915061254582612c7e565b602082019050919050565b600061255d60168361287f565b915061256882612ca7565b602082019050919050565b61257c81612955565b82525050565b61258b81612955565b82525050565b600060a0820190506125a660008301886123a6565b6125b36020830187612582565b81810360408301526125c58186612422565b90506125d46060830185612582565b6125e16080830184612413565b9695505050505050565b600060c08201905061260060008301896123a6565b61260d6020830188612582565b818103604083015261261f8187612422565b905061262e6060830186612582565b61263b6080830185612582565b61264860a0830184612582565b979650505050505050565b6000602082019050818103600083015261266d81846123b5565b905092915050565b6000602082019050818103600083015261268e8161245b565b9050919050565b600060208201905081810360008301526126ae8161247e565b9050919050565b600060208201905081810360008301526126ce816124a1565b9050919050565b600060208201905081810360008301526126ee816124c4565b9050919050565b6000602082019050818103600083015261270e816124e7565b9050919050565b6000602082019050818103600083015261272e8161250a565b9050919050565b6000602082019050818103600083015261274e8161252d565b9050919050565b6000602082019050818103600083015261276e81612550565b9050919050565b600060208201905061278a6000830184612582565b92915050565b60006040820190506127a56000830185612582565b6127b26020830184612582565b9392505050565b60006127c36127d4565b90506127cf82826129d3565b919050565b6000604051905090565b600067ffffffffffffffff8211156127f9576127f8612b09565b5b602082029050602081019050919050565b600067ffffffffffffffff82111561282557612824612b09565b5b61282e82612b51565b9050602081019050919050565b6000819050602082019050919050565b600081519050919050565b600081519050919050565b6000602082019050919050565b600082825260208201905092915050565b600082825260208201905092915050565b600061289b82612955565b91506128a683612955565b9250827fffffffffffffffffffffffffffffffffffffffffffffffffffffffffffffffff038211156128db576128da612a4d565b5b828201905092915050565b60006128f182612955565b91506128fc83612955565b92508261290c5761290b612a7c565b5b828204905092915050565b600061292282612935565b9050919050565b60008115159050919050565b600073ffffffffffffffffffffffffffffffffffffffff82169050919050565b6000819050919050565b82818337600083830152505050565b60005b8381101561298c578082015181840152602081019050612971565b8381111561299b576000848401525b50505050565b600060028204905060018216806129b957607f821691505b602082108114156129cd576129cc612aab565b5b50919050565b6129dc82612b51565b810181811067ffffffffffffffff821117156129fb576129fa612b09565b5b80604052505050565b6000612a0f82612955565b91507fffffffffffffffffffffffffffffffffffffffffffffffffffffffffffffffff821415612a4257612a41612a4d565b5b600182019050919050565b7f4e487b7100000000000000000000000000000000000000000000000000000000600052601160045260246000fd5b7f4e487b7100000000000000000000000000000000000000000000000000000000600052601260045260246000fd5b7f4e487b7100000000000000000000000000000000000000000000000000000000600052602260045260246000fd5b7f4e487b7100000000000000000000000000000000000000000000000000000000600052603260045260246000fd5b7f4e487b7100000000000000000000000000000000000000000000000000000000600052604160045260246000fd5b600080fd5b600080fd5b600080fd5b600080fd5b600080fd5b6000601f19601f8301169050919050565b7f496e76616c6964206f7074696f6e204944000000000000000000000000000000600082015250565b7f537569746162696c697479206172726179206c656e677468206d69736d61746360008201527f6800000000000000000000000000000000000000000000000000000000000000602082015250565b7f436c61737320646f6573206e6f74206578697374000000000000000000000000600082015250565b7f50726f706f73616c20686173206e6f206f7074696f6e73000000000000000000600082015250565b7f436c61737320616c726561647920657869737473000000000000000000000000600082015250565b7f50726f706f73616c20646f6573206e6f74206578697374000000000000000000600082015250565b7f53747564656e7420646f6573206e6f7420657869737400000000000000000000600082015250565b7f596f75206861766520616c726561647920766f74656400000000000000000000600082015250565b612cd981612917565b8114612ce457600080fd5b50565b612cf081612955565b8114612cfb57600080fd5b5056fea2646970667358221220b6d2b93a4723dc9d9da6e58668ad5fa937dc03f465ddd65705586566adfbc86564736f6c63430008070033",
  "immutableReferences": {},
  "source": "// SPDX-License-Identifier: MIT\r\npragma solidity ^0.8.7;\r\n\r\ninterface StudentVote {\r\n    function createProposal(string memory _description, uint256 _voteforID, uint256[] memory _votedIds) external returns (uint256);\r\n    function vote(uint256 studentId, uint256 proposalId, uint256 optionId) external;\r\n    function getProposalResults(address classAddress, uint256 proposalId) external view returns (uint256, uint256);\r\n    function getAverageSuitability() external view returns (uint256[] memory);\r\n    function getClassNum() external view returns (uint256);\r\n    function getClassWeight() external view returns (uint256);\r\n}\r\n\r\ncontract IStudentVote is StudentVote {\r\n    struct Student {\r\n        address studentAddress;\r\n        uint256 id;\r\n        string name;\r\n        uint256 classId;\r\n        bool isSetSuitability;\r\n        mapping(uint256 => uint256) courseSuitability;\r\n    }\r\n\r\n    struct Class {\r\n        address classAddress;\r\n        uint256 id;\r\n        string name;\r\n        mapping(uint256 => Proposal) proposals;\r\n        uint256 proposalCount;\r\n        uint256[] studentsId;\r\n        uint256 studentCount;\r\n        uint256 weightForAutoVote;\r\n    }\r\n\r\n    struct Proposal {\r\n        uint256 id;\r\n        string description;\r\n        uint256 voteforID; // ID\r\n        uint256[] votedIds;\r\n        mapping(uint256 => uint256) voteIdToCount;\r\n        mapping(uint256 => bool) ifVote;\r\n        uint256 voteCount;\r\n    }\r\n\r\n    mapping(uint256 => Class) public classes;\r\n    mapping(uint256 => Student) public students;\r\n    mapping(address => uint256) public addressToClassId;\r\n    mapping(address => uint256) public addressToStudentId;\r\n    uint256[] public classIds;\r\n    uint256[] public studentIds;\r\n    uint256 public classCount;\r\n    uint256 public studentCount;\r\n    uint256 courseCount = 10;\r\n\r\n    function getClassNum() public view override returns(uint256) {\r\n        return classCount;\r\n    }\r\n\r\n    function getClassWeight() public view override returns(uint256) {\r\n        uint256 classWeights;\r\n        for(uint256 i = 0; i < classCount; i++){\r\n            classWeights += classes[i].weightForAutoVote;\r\n        }\r\n        return classWeights;\r\n    }\r\n\r\n    function getStudentofClass() public view returns(uint256[] memory) {\r\n        uint256 classId = addressToClassId[msg.sender];\r\n        return classes[classId].studentsId;\r\n    }\r\n\r\n    // \r\n    function addClass(string memory className) public {\r\n        classCount++;\r\n        require(classes[classCount].id == 0, \"Class already exists\");\r\n        addressToClassId[msg.sender] = classCount;\r\n        classes[classCount].classAddress = msg.sender;\r\n        classes[classCount].id = classCount;\r\n        classes[classCount].name = className;\r\n        classes[classCount].weightForAutoVote = 10;\r\n        classIds.push(classCount);\r\n    }\r\n\r\n    // \r\n    function addStudentToClass(string memory _name) public {\r\n        uint256 classId = addressToClassId[msg.sender];\r\n        require(classes[classId].id != 0, \"Class does not exist\");\r\n        studentCount++;\r\n        students[studentCount].id = studentCount;\r\n        students[studentCount].name = _name;\r\n        students[studentCount].classId = classId;\r\n        students[studentCount].isSetSuitability = false;\r\n        classes[classId].studentsId.push(studentCount);\r\n        studentIds.push(studentCount);\r\n    }\r\n\r\n    // \r\n    function registerStudent(uint256 classId, string memory _name) public{\r\n        require(classes[classId].id != 0, \"Class does not exist\");\r\n        studentCount++;\r\n        addressToStudentId[msg.sender] = studentCount;\r\n        students[studentCount].studentAddress = msg.sender;\r\n        students[studentCount].id = studentCount;\r\n        students[studentCount].name = _name;\r\n        students[studentCount].classId = classId;\r\n        students[studentCount].isSetSuitability = false;\r\n        classes[classId].studentsId.push(studentCount);\r\n        studentIds.push(studentCount);\r\n    }\r\n\r\n    // \r\n    function createProposal(string memory _description, uint256 _voteforID, uint256[] memory _votedIds) public override returns (uint256) {\r\n        uint256 newProposalID = 0;\r\n        for (uint256 i = 1; i <= classCount; i++) {\r\n            Class storage cls = classes[i];\r\n            cls.proposalCount++;\r\n            uint256 proposalId = cls.proposalCount;\r\n\r\n            cls.proposals[proposalId].id = proposalId;\r\n            cls.proposals[proposalId].description = _description;\r\n\r\n            for (uint256 j = 0; j < _votedIds.length; j++) {\r\n                if(_votedIds[j] != 0){\r\n                    cls.proposals[proposalId].votedIds.push(_votedIds[j]);\r\n                }\r\n            }\r\n\r\n            cls.proposals[proposalId].voteforID = _voteforID;\r\n            newProposalID = proposalId;\r\n        }\r\n        return newProposalID;\r\n    }\r\n\r\n    // \r\n    function vote(uint256 studentId, uint256 proposalId, uint256 optionId) public override {\r\n        uint256 classId = addressToClassId[msg.sender];\r\n        require(classes[classId].id != 0, \"Class does not exist\");\r\n        require(classes[classId].proposals[proposalId].id != 0, \"Proposal does not exist\");\r\n        require(classes[classId].proposals[proposalId].votedIds.length > 0, \"Proposal has no options\");\r\n        require(!classes[classId].proposals[proposalId].ifVote[studentId], \"You have already voted\");\r\n\r\n        bool optionExists = false;\r\n        for (uint256 i = 0; i < classes[classId].proposals[proposalId].votedIds.length; i++) {\r\n            if (classes[classId].proposals[proposalId].votedIds[i] == optionId) {\r\n                optionExists = true;\r\n                break;\r\n            }\r\n        }\r\n        require(optionExists, \"Invalid option ID\");\r\n\r\n        classes[classId].proposals[proposalId].voteIdToCount[optionId]++;\r\n        classes[classId].proposals[proposalId].ifVote[studentId] = true;\r\n        classes[classId].proposals[proposalId].voteCount++;\r\n    }\r\n\r\n    function studentVote(uint256 proposalId, uint256 optionId) public {\r\n        uint256 studentId = addressToStudentId[msg.sender];\r\n        uint256 classId = students[studentId].classId;\r\n        require(classes[classId].id != 0, \"Class does not exist\");\r\n        require(classes[classId].proposals[proposalId].id != 0, \"Proposal does not exist\");\r\n        require(classes[classId].proposals[proposalId].votedIds.length > 0, \"Proposal has no options\");\r\n        require(!classes[classId].proposals[proposalId].ifVote[studentId], \"You have already voted\");\r\n\r\n        bool optionExists = false;\r\n        for (uint256 i = 0; i < classes[classId].proposals[proposalId].votedIds.length; i++) {\r\n            if (classes[classId].proposals[proposalId].votedIds[i] == optionId) {\r\n                optionExists = true;\r\n                break;\r\n            }\r\n        }\r\n        require(optionExists, \"Invalid option ID\");\r\n\r\n        classes[classId].proposals[proposalId].voteIdToCount[optionId]++;\r\n        classes[classId].proposals[proposalId].ifVote[studentId] = true;\r\n        classes[classId].proposals[proposalId].voteCount++;\r\n    }\r\n\r\n    // \r\n    function getProposalResults(address classAddress, uint256 proposalId) public view override returns (uint256 winningOptionId, uint256 voteforID) {\r\n        uint256 classId = addressToClassId[classAddress];\r\n        require(classes[classId].id != 0, \"Class does not exist\");\r\n        require(classes[classId].proposals[proposalId].id != 0, \"Proposal does not exist\");\r\n\r\n        Proposal storage proposal = classes[classId].proposals[proposalId];\r\n        voteforID = proposal.voteforID;\r\n\r\n        uint256 maxVoteCount = 0;\r\n        for (uint256 i = 0; i < proposal.votedIds.length; i++) {\r\n            uint256 optionId = proposal.votedIds[i];\r\n            uint256 voteCount = proposal.voteIdToCount[optionId];\r\n            if (voteCount > maxVoteCount) {\r\n                maxVoteCount = voteCount;\r\n                winningOptionId = optionId;\r\n            }\r\n        }\r\n    }\r\n\r\n    function getStudent() public view returns(uint256[] memory) {\r\n        uint classId = addressToClassId[msg.sender];\r\n        return classes[classId].studentsId;\r\n    }\r\n\r\n    // \r\n    function setCourseSuitability(uint256 studentId, uint256[] memory _suitabilities) public {\r\n        require(studentId <= studentCount, \"Student does not exist\");\r\n         // \r\n        require(_suitabilities.length == courseCount, \"Suitability array length mismatch\");\r\n        Student storage student = students[studentId];\r\n        student.isSetSuitability = true;\r\n        for(uint256 i = 0; i < _suitabilities.length; i++){\r\n            student.courseSuitability[i] =  _suitabilities[i] ;\r\n        }\r\n    }\r\n\r\n    function studentSetCourseSuitability(uint256[] memory _suitabilities) public {\r\n        uint256 studentId = addressToStudentId[msg.sender]; \r\n        require(studentId <= studentCount, \"Student does not exist\");\r\n         // \r\n        require(_suitabilities.length == courseCount, \"Suitability array length mismatch\");\r\n        Student storage student = students[studentId];\r\n        student.isSetSuitability = true;\r\n        for(uint256 i = 0; i < _suitabilities.length; i++){\r\n            student.courseSuitability[i] =  _suitabilities[i] ;\r\n        }\r\n    }\r\n\r\n    // \r\n    function getCourseSuitability(uint256 studentId) public view returns(uint256[] memory) {\r\n        uint256[] memory _suitabilities = new uint256[](courseCount);\r\n        for(uint256 i = 0; i < courseCount; i++){\r\n            _suitabilities[i] = students[studentId].courseSuitability[i];\r\n        }\r\n        return _suitabilities;\r\n    }\r\n\r\n    // \r\n    function getAverageSuitability() public view override returns(uint256[] memory) {\r\n        uint256[] memory totalCourseScore = new uint256[](courseCount);\r\n        for(uint256 i = 1; i <= studentCount; i++){\r\n            Student storage student = students[i];\r\n            for(uint256 j = 0; j < courseCount; j++){\r\n                totalCourseScore[j] += student.courseSuitability[j];\r\n            }\r\n        }\r\n        for(uint256 j = 0; j < courseCount; j++){\r\n                totalCourseScore[j] = totalCourseScore[j] / studentCount;\r\n        }\r\n        return totalCourseScore;\r\n    }\r\n\r\n    function getClassIds() public view returns(uint256[] memory) {\r\n        return classIds;\r\n    }\r\n\r\n    function getStudentIds() public view returns(uint256[] memory) {\r\n        return studentIds;\r\n    }\r\n}",
  "sourcePath": "E:\\\\paper\\DAO\\git-DAO\\v1\\Course-allocation\\project\\contracts\\IStudentVote.sol",
  "compiler": {
    "name": "solc",
    "version": "0.8.7+commit.e28d00a7.Emscripten.clang"
  },
  "schemaVersion": "3.4.16",
  "updatedAt": "2025-03-31T06:36:50.009Z",
  "networkType": "ethereum",
  "devdoc": {
    "kind": "dev",
    "methods": {},
    "version": 1
  },
  "userdoc": {
    "kind": "user",
    "methods": {},
    "version": 1
  }
}