{
  "contractName": "IStudentVote",
  "abi": [
    {
      "anonymous": false,
      "inputs": [
        {
          "indexed": false,
          "internalType": "uint256",
          "name": "classProposalId",
          "type": "uint256"
        },
        {
          "indexed": false,
          "internalType": "string",
          "name": "description",
          "type": "string"
        }
      ],
      "name": "ProposalCreated",
      "type": "event"
    },
    {
      "inputs": [
        {
          "internalType": "address",
          "name": "",
          "type": "address"
        }
      ],
      "name": "addressToClassId",
      "outputs": [
        {
          "internalType": "uint256",
          "name": "",
          "type": "uint256"
        }
      ],
      "stateMutability": "view",
      "type": "function",
      "constant": true
    },
    {
      "inputs": [
        {
          "internalType": "address",
          "name": "",
          "type": "address"
        }
      ],
      "name": "addressToStudentId",
      "outputs": [
        {
          "internalType": "uint256",
          "name": "",
          "type": "uint256"
        }
      ],
      "stateMutability": "view",
      "type": "function",
      "constant": true
    },
    {
      "inputs": [],
      "name": "classCount",
      "outputs": [
        {
          "internalType": "uint256",
          "name": "",
          "type": "uint256"
        }
      ],
      "stateMutability": "view",
      "type": "function",
      "constant": true
    },
    {
      "inputs": [
        {
          "internalType": "uint256",
          "name": "",
          "type": "uint256"
        }
      ],
      "name": "classIds",
      "outputs": [
        {
          "internalType": "uint256",
          "name": "",
          "type": "uint256"
        }
      ],
      "stateMutability": "view",
      "type": "function",
      "constant": true
    },
    {
      "inputs": [
        {
          "internalType": "uint256",
          "name": "",
          "type": "uint256"
        }
      ],
      "name": "classes",
      "outputs": [
        {
          "internalType": "address",
          "name": "addr",
          "type": "address"
        },
        {
          "internalType": "uint256",
          "name": "id",
          "type": "uint256"
        },
        {
          "internalType": "string",
          "name": "name",
          "type": "string"
        },
        {
          "internalType": "uint256",
          "name": "proposalCount",
          "type": "uint256"
        },
        {
          "internalType": "uint256",
          "name": "studentCount",
          "type": "uint256"
        },
        {
          "internalType": "uint256",
          "name": "weightForAutoVote",
          "type": "uint256"
        }
      ],
      "stateMutability": "view",
      "type": "function",
      "constant": true
    },
    {
      "inputs": [],
      "name": "studentCount",
      "outputs": [
        {
          "internalType": "uint256",
          "name": "",
          "type": "uint256"
        }
      ],
      "stateMutability": "view",
      "type": "function",
      "constant": true
    },
    {
      "inputs": [
        {
          "internalType": "uint256",
          "name": "",
          "type": "uint256"
        }
      ],
      "name": "studentIds",
      "outputs": [
        {
          "internalType": "uint256",
          "name": "",
          "type": "uint256"
        }
      ],
      "stateMutability": "view",
      "type": "function",
      "constant": true
    },
    {
      "inputs": [
        {
          "internalType": "uint256",
          "name": "",
          "type": "uint256"
        }
      ],
      "name": "students",
      "outputs": [
        {
          "internalType": "address",
          "name": "addr",
          "type": "address"
        },
        {
          "internalType": "uint256",
          "name": "id",
          "type": "uint256"
        },
        {
          "internalType": "string",
          "name": "name",
          "type": "string"
        },
        {
          "internalType": "uint256",
          "name": "classId",
          "type": "uint256"
        },
        {
          "internalType": "bool",
          "name": "isSetSuitability",
          "type": "bool"
        }
      ],
      "stateMutability": "view",
      "type": "function",
      "constant": true
    },
    {
      "inputs": [],
      "name": "getClassNum",
      "outputs": [
        {
          "internalType": "uint256",
          "name": "",
          "type": "uint256"
        }
      ],
      "stateMutability": "view",
      "type": "function",
      "constant": true
    },
    {
      "inputs": [],
      "name": "getClassWeight",
      "outputs": [
        {
          "internalType": "uint256",
          "name": "",
          "type": "uint256"
        }
      ],
      "stateMutability": "view",
      "type": "function",
      "constant": true
    },
    {
      "inputs": [
        {
          "internalType": "string",
          "name": "className",
          "type": "string"
        },
        {
          "internalType": "address",
          "name": "classAddress",
          "type": "address"
        }
      ],
      "name": "addClass",
      "outputs": [],
      "stateMutability": "nonpayable",
      "type": "function"
    },
    {
      "inputs": [
        {
          "internalType": "uint256",
          "name": "classId",
          "type": "uint256"
        },
        {
          "internalType": "string",
          "name": "_name",
          "type": "string"
        },
        {
          "internalType": "address",
          "name": "studentAddress",
          "type": "address"
        }
      ],
      "name": "registerStudent",
      "outputs": [],
      "stateMutability": "nonpayable",
      "type": "function"
    },
    {
      "inputs": [
        {
          "internalType": "string",
          "name": "_description",
          "type": "string"
        },
        {
          "internalType": "uint256",
          "name": "_voteforID",
          "type": "uint256"
        },
        {
          "internalType": "uint256[]",
          "name": "_votedIds",
          "type": "uint256[]"
        },
        {
          "internalType": "uint256",
          "name": "_teacherProposalId",
          "type": "uint256"
        }
      ],
      "name": "createProposal",
      "outputs": [
        {
          "internalType": "uint256",
          "name": "",
          "type": "uint256"
        }
      ],
      "stateMutability": "nonpayable",
      "type": "function"
    },
    {
      "inputs": [
        {
          "internalType": "uint256",
          "name": "studentId",
          "type": "uint256"
        },
        {
          "internalType": "uint256",
          "name": "proposalId",
          "type": "uint256"
        },
        {
          "internalType": "uint256",
          "name": "optionId",
          "type": "uint256"
        }
      ],
      "name": "vote",
      "outputs": [],
      "stateMutability": "nonpayable",
      "type": "function"
    },
    {
      "inputs": [
        {
          "internalType": "uint256",
          "name": "studentId",
          "type": "uint256"
        },
        {
          "internalType": "uint256",
          "name": "proposalId",
          "type": "uint256"
        },
        {
          "internalType": "uint256",
          "name": "optionId",
          "type": "uint256"
        }
      ],
      "name": "studentVote",
      "outputs": [],
      "stateMutability": "nonpayable",
      "type": "function"
    },
    {
      "inputs": [
        {
          "internalType": "address",
          "name": "classAddress",
          "type": "address"
        },
        {
          "internalType": "uint256",
          "name": "proposalId",
          "type": "uint256"
        }
      ],
      "name": "getProposalResults",
      "outputs": [
        {
          "internalType": "uint256",
          "name": "",
          "type": "uint256"
        },
        {
          "internalType": "uint256",
          "name": "",
          "type": "uint256"
        },
        {
          "internalType": "uint256[]",
          "name": "",
          "type": "uint256[]"
        },
        {
          "internalType": "uint256[]",
          "name": "",
          "type": "uint256[]"
        }
      ],
      "stateMutability": "view",
      "type": "function",
      "constant": true
    },
    {
      "inputs": [],
      "name": "getStudents",
      "outputs": [
        {
          "internalType": "uint256[]",
          "name": "",
          "type": "uint256[]"
        }
      ],
      "stateMutability": "view",
      "type": "function",
      "constant": true
    },
    {
      "inputs": [
        {
          "internalType": "uint256",
          "name": "studentId",
          "type": "uint256"
        },
        {
          "internalType": "uint256[]",
          "name": "_suitabilities",
          "type": "uint256[]"
        },
        {
          "internalType": "uint256[]",
          "name": "courseIds",
          "type": "uint256[]"
        }
      ],
      "name": "setCourseSuitability",
      "outputs": [],
      "stateMutability": "nonpayable",
      "type": "function"
    },
    {
      "inputs": [
        {
          "internalType": "uint256[]",
          "name": "_suitabilities",
          "type": "uint256[]"
        },
        {
          "internalType": "uint256[]",
          "name": "courseIds",
          "type": "uint256[]"
        }
      ],
      "name": "studentSetCourseSuitability",
      "outputs": [],
      "stateMutability": "nonpayable",
      "type": "function"
    },
    {
      "inputs": [
        {
          "internalType": "uint256",
          "name": "studentId",
          "type": "uint256"
        },
        {
          "internalType": "uint256",
          "name": "courseId",
          "type": "uint256"
        }
      ],
      "name": "getStudentCourseSuitability",
      "outputs": [
        {
          "internalType": "uint256",
          "name": "",
          "type": "uint256"
        }
      ],
      "stateMutability": "view",
      "type": "function",
      "constant": true
    },
    {
      "inputs": [
        {
          "internalType": "uint256",
          "name": "studentId",
          "type": "uint256"
        },
        {
          "internalType": "uint256",
          "name": "courseId",
          "type": "uint256"
        }
      ],
      "name": "getStudentCourseScore",
      "outputs": [
        {
          "internalType": "uint256",
          "name": "",
          "type": "uint256"
        }
      ],
      "stateMutability": "view",
      "type": "function",
      "constant": true
    },
    {
      "inputs": [
        {
          "internalType": "uint256",
          "name": "studentId",
          "type": "uint256"
        },
        {
          "internalType": "uint256",
          "name": "courseId",
          "type": "uint256"
        },
        {
          "internalType": "uint256",
          "name": "score",
          "type": "uint256"
        }
      ],
      "name": "setStudentCourseScore",
      "outputs": [],
      "stateMutability": "nonpayable",
      "type": "function"
    },
    {
      "inputs": [
        {
          "internalType": "uint256[]",
          "name": "courseIds",
          "type": "uint256[]"
        }
      ],
      "name": "getAverageSuitability",
      "outputs": [
        {
          "internalType": "uint256[]",
          "name": "",
          "type": "uint256[]"
        }
      ],
      "stateMutability": "view",
      "type": "function",
      "constant": true
    },
    {
      "inputs": [],
      "name": "getClassIds",
      "outputs": [
        {
          "internalType": "uint256[]",
          "name": "",
          "type": "uint256[]"
        }
      ],
      "stateMutability": "view",
      "type": "function",
      "constant": true
    },
    {
      "inputs": [],
      "name": "getStudentIds",
      "outputs": [
        {
          "internalType": "uint256[]",
          "name": "",
          "type": "uint256[]"
        }
      ],
      "stateMutability": "view",
      "type": "function",
      "constant": true
    },
    {
      "inputs": [
        {
          "internalType": "uint256",
          "name": "classId",
          "type": "uint256"
        },
        {
          "internalType": "uint256",
          "name": "proposalId",
          "type": "uint256"
        }
      ],
      "name": "getProposalInfo",
      "outputs": [
        {
          "internalType": "uint256[]",
          "name": "",
          "type": "uint256[]"
        },
        {
          "internalType": "uint256",
          "name": "",
          "type": "uint256"
        }
      ],
      "stateMutability": "view",
      "type": "function",
      "constant": true
    },
    {
      "inputs": [
        {
          "internalType": "uint256",
          "name": "classId",
          "type": "uint256"
        },
        {
          "internalType": "uint256",
          "name": "proposalId",
          "type": "uint256"
        }
      ],
      "name": "getTeacherProposalId",
      "outputs": [
        {
          "internalType": "uint256",
          "name": "",
          "type": "uint256"
        }
      ],
      "stateMutability": "view",
      "type": "function",
      "constant": true
    }
  ],
  "bytecode": "0x6080604052600a60085534801561001557600080fd5b50613000806100256000396000f3fe608060405234801561001057600080fd5b50600436106101a95760003560e01c8063824ec443116100f9578063bca24bd411610097578063e581f9ee11610071578063e581f9ee14610522578063f1d064b314610540578063f9c229f21461055e578063ffc353031461058e576101a9565b8063bca24bd414610492578063d4e57ff0146104c2578063d715cced146104f2576101a9565b8063945155ba116100d3578063945155ba146103f7578063ab99631714610428578063af331f7914610446578063b4e1134314610462576101a9565b8063824ec4431461038f57806386c34415146103ab5780638a6655d6146103db576101a9565b80634603631d11610166578063644915b211610140578063644915b2146102dc5780636f28c355146102fa578063782442571461032a578063817dbe9f1461035a576101a9565b80634603631d1461027257806346df6f521461028e57806350b38428146102be576101a9565b806306ead22e146101ae5780631853699a146101e257806318860d37146101fe5780631b666d801461021c5780633560613d146102385780633b173bb314610254575b600080fd5b6101c860048036038101906101c391906123aa565b6105c1565b6040516101d995949392919061278a565b60405180910390f35b6101fc60048036038101906101f79190612237565b6106ac565b005b610206610866565b604051610213919061284c565b60405180910390f35b610236600480360381019061023191906122af565b6108be565b005b610252600480360381019061024d91906123d7565b610a62565b005b61025c610b94565b60405161026991906129be565b60405180910390f35b61028c60048036038101906102879190612511565b610b9e565b005b6102a860048036038101906102a391906124d1565b610bcf565b6040516102b591906129be565b60405180910390f35b6102c6610c03565b6040516102d391906129be565b60405180910390f35b6102e4610c51565b6040516102f1919061284c565b60405180910390f35b610314600480360381019061030f91906123aa565b610ca9565b60405161032191906129be565b60405180910390f35b610344600480360381019061033f919061230b565b610ccd565b60405161035191906129be565b60405180910390f35b610374600480360381019061036f91906123aa565b610e9b565b604051610386969594939291906127e4565b60405180910390f35b6103a960048036038101906103a49190612511565b610f7f565b005b6103c560048036038101906103c09190612181565b611322565b6040516103d291906129be565b60405180910390f35b6103f560048036038101906103f09190612511565b61133a565b005b610411600480360381019061040c91906124d1565b611706565b60405161041f92919061286e565b60405180910390f35b6104306117ba565b60405161043d91906129be565b60405180910390f35b610460600480360381019061045b9190612462565b6117c0565b005b61047c600480360381019061047791906124d1565b6119d6565b60405161048991906129be565b60405180910390f35b6104ac60048036038101906104a791906123aa565b611a0d565b6040516104b991906129be565b60405180910390f35b6104dc60048036038101906104d79190612181565b611a31565b6040516104e991906129be565b60405180910390f35b61050c600480360381019061050791906124d1565b611a49565b60405161051991906129be565b60405180910390f35b61052a611a7b565b60405161053791906129be565b60405180910390f35b610548611a81565b604051610555919061284c565b60405180910390f35b610578600480360381019061057391906121ee565b611b8a565b604051610585919061284c565b60405180910390f35b6105a860048036038101906105a391906121ae565b611d07565b6040516105b89493929190612a09565b60405180910390f35b60016020528060005260406000206000915090508060000160009054906101000a900473ffffffffffffffffffffffffffffffffffffffff169080600101549080600201805461061090612c44565b80601f016020809104026020016040519081016040528092919081815260200182805461063c90612c44565b80156106895780601f1061065e57610100808354040283529160200191610689565b820191906000526020600020905b81548152906001019060200180831161066c57829003601f168201915b5050505050908060030154908060040160009054906101000a900460ff16905085565b6000600360003373ffffffffffffffffffffffffffffffffffffffff1673ffffffffffffffffffffffffffffffffffffffff168152602001908152602001600020549050600754811115610735576040517f08c379a000000000000000000000000000000000000000000000000000000000815260040161072c9061295e565b60405180910390fd5b6000811415610779576040517f08c379a00000000000000000000000000000000000000000000000000000000081526004016107709061295e565b60405180910390fd5b6008548351146107be576040517f08c379a00000000000000000000000000000000000000000000000000000000081526004016107b5906128be565b60405180910390fd5b600060016000838152602001908152602001600020905060018160040160006101000a81548160ff02191690831515021790555060005b845181101561085f5784818151811061081157610810612d7d565b5b602002602001015182600501600086848151811061083257610831612d7d565b5b6020026020010151815260200190815260200160002081905550808061085790612ca7565b9150506107f5565b5050505050565b606060048054806020026020016040519081016040528092919081815260200182805480156108b457602002820191906000526020600020905b8154815260200190600101908083116108a0575b5050505050905090565b600660008154809291906108d190612ca7565b9190505550600080600060065481526020019081526020016000206001015414610930576040517f08c379a00000000000000000000000000000000000000000000000000000000081526004016109279061291e565b60405180910390fd5b600654600260008373ffffffffffffffffffffffffffffffffffffffff1673ffffffffffffffffffffffffffffffffffffffff1681526020019081526020016000208190555080600080600654815260200190815260200160002060000160006101000a81548173ffffffffffffffffffffffffffffffffffffffff021916908373ffffffffffffffffffffffffffffffffffffffff1602179055506006546000806006548152602001908152602001600020600101819055508160008060065481526020019081526020016000206002019080519060200190610a15929190611fa6565b50600a600080600654815260200190815260200160002060070181905550600460065490806001815401808255809150506001900390600052602060002001600090919091909150555050565b600754831115610aa7576040517f08c379a0000000000000000000000000000000000000000000000000000000008152600401610a9e9061295e565b60405180910390fd5b600854825114610aec576040517f08c379a0000000000000000000000000000000000000000000000000000000008152600401610ae3906128be565b60405180910390fd5b600060016000858152602001908152602001600020905060018160040160006101000a81548160ff02191690831515021790555060005b8351811015610b8d57838181518110610b3f57610b3e612d7d565b5b6020026020010151826005016000858481518110610b6057610b5f612d7d565b5b60200260200101518152602001908152602001600020819055508080610b8590612ca7565b915050610b23565b5050505050565b6000600654905090565b8060016000858152602001908152602001600020600601600084815260200190815260200160002081905550505050565b6000806000848152602001908152602001600020600301600083815260200190815260200160002060010154905092915050565b60008060005b600654811015610c49576000808281526020019081526020016000206007015482610c349190612b33565b91508080610c4190612ca7565b915050610c09565b508091505090565b60606005805480602002602001604051908101604052809291908181526020018280548015610c9f57602002820191906000526020600020905b815481526020019060010190808311610c8b575b5050505050905090565b60058181548110610cb957600080fd5b906000526020600020016000915090505481565b600080600090506000600190505b6006548111610e555760008060008381526020019081526020016000209050806004016000815480929190610d0f90612ca7565b91905055506000816004015490508082600301600083815260200190815260200160002060000181905550888260030160008381526020019081526020016000206002019080519060200190610d66929190611fa6565b50858260030160008381526020019081526020016000206001018190555060005b8751811015610e1f576000888281518110610da557610da4612d7d565b5b602002602001015114610e0c57826003016000838152602001908152602001600020600401888281518110610ddd57610ddc612d7d565b5b602002602001015190806001815401808255809150506001900390600052602060002001600090919091909150555b8080610e1790612ca7565b915050610d87565b50878260030160008381526020019081526020016000206003018190555080935050508080610e4d90612ca7565b915050610cdb565b507f9c770c289ab5bf7e57cb1d23c8ceae993aea46eb64847072fd3d78ca60d3e4328187604051610e879291906129d9565b60405180910390a180915050949350505050565b60006020528060005260406000206000915090508060000160009054906101000a900473ffffffffffffffffffffffffffffffffffffffff1690806001015490806002018054610eea90612c44565b80601f0160208091040260200160405190810160405280929190818152602001828054610f1690612c44565b8015610f635780601f10610f3857610100808354040283529160200191610f63565b820191906000526020600020905b815481529060010190602001808311610f4657829003601f168201915b5050505050908060040154908060060154908060070154905086565b6000600160008581526020019081526020016000206003015490506000806000838152602001908152602001600020600101541415610ff3576040517f08c379a0000000000000000000000000000000000000000000000000000000008152600401610fea906128de565b60405180910390fd5b60008060008381526020019081526020016000206003016000858152602001908152602001600020600001541415611060576040517f08c379a00000000000000000000000000000000000000000000000000000000081526004016110579061293e565b60405180910390fd5b6000806000838152602001908152602001600020600301600085815260200190815260200160002060040180549050116110cf576040517f08c379a00000000000000000000000000000000000000000000000000000000081526004016110c6906128fe565b60405180910390fd5b6000808281526020019081526020016000206003016000848152602001908152602001600020600601600085815260200190815260200160002060009054906101000a900460ff1615611157576040517f08c379a000000000000000000000000000000000000000000000000000000000815260040161114e9061299e565b60405180910390fd5b6000805b6000808481526020019081526020016000206003016000868152602001908152602001600020600401805490508110156111f85783600080858152602001908152602001600020600301600087815260200190815260200160002060040182815481106111cb576111ca612d7d565b5b906000526020600020015414156111e557600191506111f8565b80806111f090612ca7565b91505061115b565b5080611239576040517f08c379a00000000000000000000000000000000000000000000000000000000081526004016112309061289e565b60405180910390fd5b60008083815260200190815260200160002060030160008581526020019081526020016000206005016000848152602001908152602001600020600081548092919061128490612ca7565b919050555060016000808481526020019081526020016000206003016000868152602001908152602001600020600601600087815260200190815260200160002060006101000a81548160ff0219169083151502179055506000808381526020019081526020016000206003016000858152602001908152602001600020600701600081548092919061131690612ca7565b91905055505050505050565b60036020528060005260406000206000915090505481565b6000600260003373ffffffffffffffffffffffffffffffffffffffff1673ffffffffffffffffffffffffffffffffffffffff16815260200190815260200160002054905060008060008381526020019081526020016000206001015414156113d7576040517f08c379a00000000000000000000000000000000000000000000000000000000081526004016113ce906128de565b60405180910390fd5b60008060008381526020019081526020016000206003016000858152602001908152602001600020600001541415611444576040517f08c379a000000000000000000000000000000000000000000000000000000000815260040161143b9061293e565b60405180910390fd5b6000806000838152602001908152602001600020600301600085815260200190815260200160002060040180549050116114b3576040517f08c379a00000000000000000000000000000000000000000000000000000000081526004016114aa906128fe565b60405180910390fd5b6000808281526020019081526020016000206003016000848152602001908152602001600020600601600085815260200190815260200160002060009054906101000a900460ff161561153b576040517f08c379a00000000000000000000000000000000000000000000000000000000081526004016115329061299e565b60405180910390fd5b6000805b6000808481526020019081526020016000206003016000868152602001908152602001600020600401805490508110156115dc5783600080858152602001908152602001600020600301600087815260200190815260200160002060040182815481106115af576115ae612d7d565b5b906000526020600020015414156115c957600191506115dc565b80806115d490612ca7565b91505061153f565b508061161d576040517f08c379a00000000000000000000000000000000000000000000000000000000081526004016116149061289e565b60405180910390fd5b60008083815260200190815260200160002060030160008581526020019081526020016000206005016000848152602001908152602001600020600081548092919061166890612ca7565b919050555060016000808481526020019081526020016000206003016000868152602001908152602001600020600601600087815260200190815260200160002060006101000a81548160ff021916908315150217905550600080838152602001908152602001600020600301600085815260200190815260200160002060070160008154809291906116fa90612ca7565b91905055505050505050565b606060008060008581526020019081526020016000206003016000848152602001908152602001600020600401600080868152602001908152602001600020600301600085815260200190815260200160002060030154818054806020026020016040519081016040528092919081815260200182805480156117a857602002820191906000526020600020905b815481526020019060010190808311611794575b50505050509150915091509250929050565b60065481565b6000806000858152602001908152602001600020600101541415611819576040517f08c379a0000000000000000000000000000000000000000000000000000000008152600401611810906128de565b60405180910390fd5b6007600081548092919061182c90612ca7565b9190505550600754600360008373ffffffffffffffffffffffffffffffffffffffff1673ffffffffffffffffffffffffffffffffffffffff168152602001908152602001600020819055508060016000600754815260200190815260200160002060000160006101000a81548173ffffffffffffffffffffffffffffffffffffffff021916908373ffffffffffffffffffffffffffffffffffffffff16021790555060075460016000600754815260200190815260200160002060010181905550816001600060075481526020019081526020016000206002019080519060200190611919929190611fa6565b508260016000600754815260200190815260200160002060030181905550600060016000600754815260200190815260200160002060040160006101000a81548160ff021916908315150217905550600080848152602001908152602001600020600501600754908060018154018082558091505060019003906000526020600020016000909190919091505560056007549080600181540180825580915050600190039060005260206000200160009091909190915055505050565b6000806001600085815260200190815260200160002090508060050160008481526020019081526020016000205491505092915050565b60048181548110611a1d57600080fd5b906000526020600020016000915090505481565b60026020528060005260406000206000915090505481565b600060016000848152602001908152602001600020600601600083815260200190815260200160002054905092915050565b60075481565b60606000600260003373ffffffffffffffffffffffffffffffffffffffff1673ffffffffffffffffffffffffffffffffffffffff1681526020019081526020016000205490506000806000838152602001908152602001600020600101541415611b20576040517f08c379a0000000000000000000000000000000000000000000000000000000008152600401611b179061297e565b60405180910390fd5b600080828152602001908152602001600020600501805480602002602001604051908101604052809291908181526020018280548015611b7f57602002820191906000526020600020905b815481526020019060010190808311611b6b575b505050505091505090565b6060600060085467ffffffffffffffff811115611baa57611ba9612dac565b5b604051908082528060200260200182016040528015611bd85781602001602082028036833780820191505090505b5090506000600190505b6007548111611c9557600060016000838152602001908152602001600020905060005b600854811015611c8057816005016000878381518110611c2857611c27612d7d565b5b6020026020010151815260200190815260200160002054848281518110611c5257611c51612d7d565b5b60200260200101818151611c669190612b33565b915081815250508080611c7890612ca7565b915050611c05565b50508080611c8d90612ca7565b915050611be2565b5060005b600854811015611cfd57600754828281518110611cb957611cb8612d7d565b5b6020026020010151611ccb9190612b89565b828281518110611cde57611cdd612d7d565b5b6020026020010181815250508080611cf590612ca7565b915050611c99565b5080915050919050565b6000806060806000600260008873ffffffffffffffffffffffffffffffffffffffff1673ffffffffffffffffffffffffffffffffffffffff1681526020019081526020016000205490506000806000838152602001908152602001600020600101541415611daa576040517f08c379a0000000000000000000000000000000000000000000000000000000008152600401611da1906128de565b60405180910390fd5b60008060008381526020019081526020016000206003016000888152602001908152602001600020600001541415611e17576040517f08c379a0000000000000000000000000000000000000000000000000000000008152600401611e0e9061293e565b60405180910390fd5b600080600080600085815260200190815260200160002060030160008a815260200190815260200160002090506000816004018054905067ffffffffffffffff811115611e6757611e66612dac565b5b604051908082528060200260200182016040528015611e955781602001602082028036833780820191505090505b509050816003015492506000805b8360040180549050811015611f35576000846004018281548110611eca57611ec9612d7d565b5b90600052602060002001549050600085600501600083815260200190815260200160002054905080858481518110611f0557611f04612d7d565b5b60200260200101818152505083811115611f20578093508197505b50508080611f2d90612ca7565b915050611ea3565b508484846004018481805480602002602001604051908101604052809291908181526020018280548015611f8857602002820191906000526020600020905b815481526020019060010190808311611f74575b50505050509150995099509950995050505050505092959194509250565b828054611fb290612c44565b90600052602060002090601f016020900481019282611fd4576000855561201b565b82601f10611fed57805160ff191683800117855561201b565b8280016001018555821561201b579182015b8281111561201a578251825591602001919060010190611fff565b5b509050612028919061202c565b5090565b5b8082111561204557600081600090555060010161202d565b5090565b600061205c61205784612a81565b612a5c565b9050808382526020820190508285602086028201111561207f5761207e612de0565b5b60005b858110156120af5781612095888261216c565b845260208401935060208301925050600181019050612082565b5050509392505050565b60006120cc6120c784612aad565b612a5c565b9050828152602081018484840111156120e8576120e7612de5565b5b6120f3848285612c02565b509392505050565b60008135905061210a81612f9c565b92915050565b600082601f83011261212557612124612ddb565b5b8135612135848260208601612049565b91505092915050565b600082601f83011261215357612152612ddb565b5b81356121638482602086016120b9565b91505092915050565b60008135905061217b81612fb3565b92915050565b60006020828403121561219757612196612def565b5b60006121a5848285016120fb565b91505092915050565b600080604083850312156121c5576121c4612def565b5b60006121d3858286016120fb565b92505060206121e48582860161216c565b9150509250929050565b60006020828403121561220457612203612def565b5b600082013567ffffffffffffffff81111561222257612221612dea565b5b61222e84828501612110565b91505092915050565b6000806040838503121561224e5761224d612def565b5b600083013567ffffffffffffffff81111561226c5761226b612dea565b5b61227885828601612110565b925050602083013567ffffffffffffffff81111561229957612298612dea565b5b6122a585828601612110565b9150509250929050565b600080604083850312156122c6576122c5612def565b5b600083013567ffffffffffffffff8111156122e4576122e3612dea565b5b6122f08582860161213e565b9250506020612301858286016120fb565b9150509250929050565b6000806000806080858703121561232557612324612def565b5b600085013567ffffffffffffffff81111561234357612342612dea565b5b61234f8782880161213e565b94505060206123608782880161216c565b935050604085013567ffffffffffffffff81111561238157612380612dea565b5b61238d87828801612110565b925050606061239e8782880161216c565b91505092959194509250565b6000602082840312156123c0576123bf612def565b5b60006123ce8482850161216c565b91505092915050565b6000806000606084860312156123f0576123ef612def565b5b60006123fe8682870161216c565b935050602084013567ffffffffffffffff81111561241f5761241e612dea565b5b61242b86828701612110565b925050604084013567ffffffffffffffff81111561244c5761244b612dea565b5b61245886828701612110565b9150509250925092565b60008060006060848603121561247b5761247a612def565b5b60006124898682870161216c565b935050602084013567ffffffffffffffff8111156124aa576124a9612dea565b5b6124b68682870161213e565b92505060406124c7868287016120fb565b9150509250925092565b600080604083850312156124e8576124e7612def565b5b60006124f68582860161216c565b92505060206125078582860161216c565b9150509250929050565b60008060006060848603121561252a57612529612def565b5b60006125388682870161216c565b93505060206125498682870161216c565b925050604061255a8682870161216c565b9150509250925092565b6000612570838361276c565b60208301905092915050565b61258581612bba565b82525050565b600061259682612aee565b6125a08185612b11565b93506125ab83612ade565b8060005b838110156125dc5781516125c38882612564565b97506125ce83612b04565b9250506001810190506125af565b5085935050505092915050565b6125f281612bcc565b82525050565b600061260382612af9565b61260d8185612b22565b935061261d818560208601612c11565b61262681612df4565b840191505092915050565b600061263e601183612b22565b915061264982612e05565b602082019050919050565b6000612661602183612b22565b915061266c82612e2e565b604082019050919050565b6000612684601483612b22565b915061268f82612e7d565b602082019050919050565b60006126a7601783612b22565b91506126b282612ea6565b602082019050919050565b60006126ca601483612b22565b91506126d582612ecf565b602082019050919050565b60006126ed601783612b22565b91506126f882612ef8565b602082019050919050565b6000612710601683612b22565b915061271b82612f21565b602082019050919050565b6000612733601883612b22565b915061273e82612f4a565b602082019050919050565b6000612756601683612b22565b915061276182612f73565b602082019050919050565b61277581612bf8565b82525050565b61278481612bf8565b82525050565b600060a08201905061279f600083018861257c565b6127ac602083018761277b565b81810360408301526127be81866125f8565b90506127cd606083018561277b565b6127da60808301846125e9565b9695505050505050565b600060c0820190506127f9600083018961257c565b612806602083018861277b565b818103604083015261281881876125f8565b9050612827606083018661277b565b612834608083018561277b565b61284160a083018461277b565b979650505050505050565b60006020820190508181036000830152612866818461258b565b905092915050565b60006040820190508181036000830152612888818561258b565b9050612897602083018461277b565b9392505050565b600060208201905081810360008301526128b781612631565b9050919050565b600060208201905081810360008301526128d781612654565b9050919050565b600060208201905081810360008301526128f781612677565b9050919050565b600060208201905081810360008301526129178161269a565b9050919050565b60006020820190508181036000830152612937816126bd565b9050919050565b60006020820190508181036000830152612957816126e0565b9050919050565b6000602082019050818103600083015261297781612703565b9050919050565b6000602082019050818103600083015261299781612726565b9050919050565b600060208201905081810360008301526129b781612749565b9050919050565b60006020820190506129d3600083018461277b565b92915050565b60006040820190506129ee600083018561277b565b8181036020830152612a0081846125f8565b90509392505050565b6000608082019050612a1e600083018761277b565b612a2b602083018661277b565b8181036040830152612a3d818561258b565b90508181036060830152612a51818461258b565b905095945050505050565b6000612a66612a77565b9050612a728282612c76565b919050565b6000604051905090565b600067ffffffffffffffff821115612a9c57612a9b612dac565b5b602082029050602081019050919050565b600067ffffffffffffffff821115612ac857612ac7612dac565b5b612ad182612df4565b9050602081019050919050565b6000819050602082019050919050565b600081519050919050565b600081519050919050565b6000602082019050919050565b600082825260208201905092915050565b600082825260208201905092915050565b6000612b3e82612bf8565b9150612b4983612bf8565b9250827fffffffffffffffffffffffffffffffffffffffffffffffffffffffffffffffff03821115612b7e57612b7d612cf0565b5b828201905092915050565b6000612b9482612bf8565b9150612b9f83612bf8565b925082612baf57612bae612d1f565b5b828204905092915050565b6000612bc582612bd8565b9050919050565b60008115159050919050565b600073ffffffffffffffffffffffffffffffffffffffff82169050919050565b6000819050919050565b82818337600083830152505050565b60005b83811015612c2f578082015181840152602081019050612c14565b83811115612c3e576000848401525b50505050565b60006002820490506001821680612c5c57607f821691505b60208210811415612c7057612c6f612d4e565b5b50919050565b612c7f82612df4565b810181811067ffffffffffffffff82111715612c9e57612c9d612dac565b5b80604052505050565b6000612cb282612bf8565b91507fffffffffffffffffffffffffffffffffffffffffffffffffffffffffffffffff821415612ce557612ce4612cf0565b5b600182019050919050565b7f4e487b7100000000000000000000000000000000000000000000000000000000600052601160045260246000fd5b7f4e487b7100000000000000000000000000000000000000000000000000000000600052601260045260246000fd5b7f4e487b7100000000000000000000000000000000000000000000000000000000600052602260045260246000fd5b7f4e487b7100000000000000000000000000000000000000000000000000000000600052603260045260246000fd5b7f4e487b7100000000000000000000000000000000000000000000000000000000600052604160045260246000fd5b600080fd5b600080fd5b600080fd5b600080fd5b600080fd5b6000601f19601f8301169050919050565b7f496e76616c6964206f7074696f6e204944000000000000000000000000000000600082015250565b7f537569746162696c697479206172726179206c656e677468206d69736d61746360008201527f6800000000000000000000000000000000000000000000000000000000000000602082015250565b7f436c61737320646f6573206e6f74206578697374000000000000000000000000600082015250565b7f50726f706f73616c20686173206e6f206f7074696f6e73000000000000000000600082015250565b7f436c61737320616c726561647920657869737473000000000000000000000000600082015250565b7f50726f706f73616c20646f6573206e6f74206578697374000000000000000000600082015250565b7f53747564656e7420646f6573206e6f7420657869737400000000000000000000600082015250565b7fe5bd93e5898de8b4a6e688b7e4b88de698afe78fade7baa70000000000000000600082015250565b7f596f75206861766520616c726561647920766f74656400000000000000000000600082015250565b612fa581612bba565b8114612fb057600080fd5b50565b612fbc81612bf8565b8114612fc757600080fd5b5056fea26469706673582212205ef216bb2cfe125018f6cfab31c1ce8ddb8ec89d566768b68bd8a11ea9bff1a964736f6c63430008070033",
  "immutableReferences": {},
  "source": "// SPDX-License-Identifier: MIT\r\npragma solidity ^0.8.7;\r\n\r\ninterface StudentVote {\r\n    function createProposal(\r\n        string memory _description,\r\n        uint256 _voteforID,\r\n        uint256[] memory _votedIds,\r\n        uint256 _teacherProposalId\r\n    ) external returns (uint256);\r\n\r\n    function vote(\r\n        uint256 studentId,\r\n        uint256 proposalId,\r\n        uint256 optionId\r\n    ) external;\r\n\r\n    function getProposalResults(\r\n        address classAddress,\r\n        uint256 proposalId\r\n    )\r\n        external\r\n        view\r\n        returns (uint256, uint256, uint256[] memory, uint256[] memory);\r\n\r\n    function getAverageSuitability(\r\n        uint256[] memory courseIds\r\n    ) external view returns (uint256[] memory);\r\n\r\n    function getClassNum() external view returns (uint256);\r\n\r\n    function getClassWeight() external view returns (uint256);\r\n}\r\n\r\ncontract IStudentVote is StudentVote {\r\n    struct Student {\r\n        address addr;\r\n        uint256 id;\r\n        string name;\r\n        uint256 classId;\r\n        bool isSetSuitability;\r\n        mapping(uint256 => uint256) courseSuitability;\r\n        mapping(uint256 => uint256) courseScores;\r\n    }\r\n\r\n    struct Class {\r\n        address addr;\r\n        uint256 id;\r\n        string name;\r\n        mapping(uint256 => Proposal) proposals;\r\n        uint256 proposalCount;\r\n        uint256[] studentsId;\r\n        uint256 studentCount;\r\n        uint256 weightForAutoVote;\r\n    }\r\n\r\n    struct Proposal {\r\n        uint256 id;\r\n        uint256 teacherProposalId;\r\n        string description;\r\n        uint256 voteforID; // ID\r\n        uint256[] votedIds;\r\n        mapping(uint256 => uint256) voteIdToCount;\r\n        mapping(uint256 => bool) ifVote;\r\n        uint256 voteCount;\r\n    }\r\n\r\n    mapping(uint256 => Class) public classes;\r\n    mapping(uint256 => Student) public students;\r\n    mapping(address => uint256) public addressToClassId;\r\n    mapping(address => uint256) public addressToStudentId;\r\n    uint256[] public classIds;\r\n    uint256[] public studentIds;\r\n    uint256 public classCount;\r\n    uint256 public studentCount;\r\n    uint256 courseCount = 10;\r\n\r\n    function getClassNum() public view override returns (uint256) {\r\n        return classCount;\r\n    }\r\n\r\n    function getClassWeight() public view override returns (uint256) {\r\n        uint256 classWeights;\r\n        for (uint256 i = 0; i < classCount; i++) {\r\n            classWeights += classes[i].weightForAutoVote;\r\n        }\r\n        return classWeights;\r\n    }\r\n\r\n    // \r\n    function addClass(string memory className, address classAddress) public {\r\n        classCount++;\r\n        require(classes[classCount].id == 0, \"Class already exists\");\r\n        addressToClassId[classAddress] = classCount;\r\n        classes[classCount].addr = classAddress;\r\n        classes[classCount].id = classCount;\r\n        classes[classCount].name = className;\r\n        classes[classCount].weightForAutoVote = 10;\r\n        classIds.push(classCount);\r\n    }\r\n\r\n    // \r\n    function registerStudent(\r\n        uint256 classId,\r\n        string memory _name,\r\n        address studentAddress\r\n    ) public {\r\n        require(classes[classId].id != 0, \"Class does not exist\");\r\n        studentCount++;\r\n        addressToStudentId[studentAddress] = studentCount;\r\n        students[studentCount].addr = studentAddress;\r\n        students[studentCount].id = studentCount;\r\n        students[studentCount].name = _name;\r\n        students[studentCount].classId = classId;\r\n        students[studentCount].isSetSuitability = false;\r\n        classes[classId].studentsId.push(studentCount);\r\n        studentIds.push(studentCount);\r\n    }\r\n\r\n    // \r\n    event ProposalCreated(uint256 classProposalId, string description);\r\n\r\n    // \r\n    function createProposal(\r\n        string memory _description,\r\n        uint256 _voteforID,\r\n        uint256[] memory _votedIds,\r\n        uint256 _teacherProposalId\r\n    ) public override returns (uint256) {\r\n        uint256 newProposalID = 0;\r\n        for (uint256 i = 1; i <= classCount; i++) {\r\n            Class storage cls = classes[i];\r\n            cls.proposalCount++;\r\n            uint256 proposalId = cls.proposalCount;\r\n\r\n            cls.proposals[proposalId].id = proposalId;\r\n            cls.proposals[proposalId].description = _description;\r\n            cls.proposals[proposalId].teacherProposalId = _teacherProposalId;\r\n            for (uint256 j = 0; j < _votedIds.length; j++) {\r\n                if (_votedIds[j] != 0) {\r\n                    cls.proposals[proposalId].votedIds.push(_votedIds[j]);\r\n                }\r\n            }\r\n\r\n            cls.proposals[proposalId].voteforID = _voteforID;\r\n            newProposalID = proposalId;\r\n        }\r\n        emit ProposalCreated(newProposalID, _description);\r\n        return newProposalID;\r\n    }\r\n\r\n    // \r\n    function vote(\r\n        uint256 studentId,\r\n        uint256 proposalId,\r\n        uint256 optionId\r\n    ) public override {\r\n        uint256 classId = addressToClassId[msg.sender];\r\n        require(classes[classId].id != 0, \"Class does not exist\");\r\n        require(\r\n            classes[classId].proposals[proposalId].id != 0,\r\n            \"Proposal does not exist\"\r\n        );\r\n        require(\r\n            classes[classId].proposals[proposalId].votedIds.length > 0,\r\n            \"Proposal has no options\"\r\n        );\r\n        require(\r\n            !classes[classId].proposals[proposalId].ifVote[studentId],\r\n            \"You have already voted\"\r\n        );\r\n\r\n        bool optionExists = false;\r\n        for (\r\n            uint256 i = 0;\r\n            i < classes[classId].proposals[proposalId].votedIds.length;\r\n            i++\r\n        ) {\r\n            if (\r\n                classes[classId].proposals[proposalId].votedIds[i] == optionId\r\n            ) {\r\n                optionExists = true;\r\n                break;\r\n            }\r\n        }\r\n        require(optionExists, \"Invalid option ID\");\r\n\r\n        classes[classId].proposals[proposalId].voteIdToCount[optionId]++;\r\n        classes[classId].proposals[proposalId].ifVote[studentId] = true;\r\n        classes[classId].proposals[proposalId].voteCount++;\r\n    }\r\n\r\n    function studentVote(\r\n        uint256 studentId,\r\n        uint256 proposalId,\r\n        uint256 optionId\r\n    ) public {\r\n        uint256 classId = students[studentId].classId;\r\n        require(classes[classId].id != 0, \"Class does not exist\");\r\n        require(\r\n            classes[classId].proposals[proposalId].id != 0,\r\n            \"Proposal does not exist\"\r\n        );\r\n        require(\r\n            classes[classId].proposals[proposalId].votedIds.length > 0,\r\n            \"Proposal has no options\"\r\n        );\r\n        require(\r\n            !classes[classId].proposals[proposalId].ifVote[studentId],\r\n            \"You have already voted\"\r\n        );\r\n\r\n        bool optionExists = false;\r\n        for (\r\n            uint256 i = 0;\r\n            i < classes[classId].proposals[proposalId].votedIds.length;\r\n            i++\r\n        ) {\r\n            if (\r\n                classes[classId].proposals[proposalId].votedIds[i] == optionId\r\n            ) {\r\n                optionExists = true;\r\n                break;\r\n            }\r\n        }\r\n        require(optionExists, \"Invalid option ID\");\r\n\r\n        classes[classId].proposals[proposalId].voteIdToCount[optionId]++;\r\n        classes[classId].proposals[proposalId].ifVote[studentId] = true;\r\n        classes[classId].proposals[proposalId].voteCount++;\r\n    }\r\n\r\n    // \r\n    function getProposalResults(\r\n        address classAddress,\r\n        uint256 proposalId\r\n    )\r\n        public\r\n        view\r\n        override\r\n        returns (uint256, uint256, uint256[] memory, uint256[] memory)\r\n    {\r\n        uint256 classId = addressToClassId[classAddress];\r\n        require(classes[classId].id != 0, \"Class does not exist\");\r\n        require(\r\n            classes[classId].proposals[proposalId].id != 0,\r\n            \"Proposal does not exist\"\r\n        );\r\n        uint256 winningOptionId;\r\n        uint256 voteforID;\r\n\r\n        Proposal storage proposal = classes[classId].proposals[proposalId];\r\n        uint256[] memory teacherVoteCounts = new uint256[](\r\n            proposal.votedIds.length\r\n        );\r\n        voteforID = proposal.voteforID;\r\n        uint256 maxVoteCount = 0;\r\n        for (uint256 i = 0; i < proposal.votedIds.length; i++) {\r\n            uint256 optionId = proposal.votedIds[i];\r\n            uint256 voteCount = proposal.voteIdToCount[optionId];\r\n            teacherVoteCounts[i] = voteCount;\r\n            if (voteCount > maxVoteCount) {\r\n                maxVoteCount = voteCount;\r\n                winningOptionId = optionId;\r\n            }\r\n        }\r\n        return (\r\n            winningOptionId,\r\n            voteforID,\r\n            proposal.votedIds,\r\n            teacherVoteCounts\r\n        );\r\n    }\r\n\r\n    function getStudents() public view returns (uint256[] memory) {\r\n        uint classId = addressToClassId[msg.sender];\r\n        require(classes[classId].id != 0, unicode\"\");\r\n        return classes[classId].studentsId;\r\n    }\r\n\r\n    // \r\n    function setCourseSuitability(\r\n        uint256 studentId,\r\n        uint256[] memory _suitabilities,\r\n        uint256[] memory courseIds\r\n    ) public {\r\n        require(studentId <= studentCount, \"Student does not exist\");\r\n        // \r\n        require(\r\n            _suitabilities.length == courseCount,\r\n            \"Suitability array length mismatch\"\r\n        );\r\n        Student storage student = students[studentId];\r\n        student.isSetSuitability = true;\r\n        for (uint256 i = 0; i < _suitabilities.length; i++) {\r\n            student.courseSuitability[courseIds[i]] = _suitabilities[i];\r\n        }\r\n    }\r\n\r\n    function studentSetCourseSuitability(\r\n        uint256[] memory _suitabilities,\r\n        uint256[] memory courseIds\r\n    ) public {\r\n        uint256 studentId = addressToStudentId[msg.sender];\r\n        require(studentId <= studentCount, \"Student does not exist\");\r\n        require(studentId != 0, \"Student does not exist\");\r\n        // \r\n        require(\r\n            _suitabilities.length == courseCount,\r\n            \"Suitability array length mismatch\"\r\n        );\r\n        Student storage student = students[studentId];\r\n        student.isSetSuitability = true;\r\n        for (uint256 i = 0; i < _suitabilities.length; i++) {\r\n            student.courseSuitability[courseIds[i]] = _suitabilities[i];\r\n        }\r\n    }\r\n\r\n    // \r\n    function getStudentCourseSuitability(\r\n        uint256 studentId,\r\n        uint256 courseId\r\n    ) public view returns (uint256) {\r\n        Student storage student = students[studentId];\r\n        return student.courseSuitability[courseId];\r\n    }\r\n\r\n    // \r\n    function getStudentCourseScore(\r\n        uint256 studentId,\r\n        uint256 courseId\r\n    ) public view returns (uint256) {\r\n        return students[studentId].courseScores[courseId];\r\n    }\r\n\r\n    // \r\n    function setStudentCourseScore(\r\n        uint256 studentId,\r\n        uint256 courseId,\r\n        uint256 score\r\n    ) public {\r\n        students[studentId].courseScores[courseId] = score;\r\n    }\r\n\r\n    // \r\n    function getAverageSuitability(\r\n        uint256[] memory courseIds\r\n    ) public view override returns (uint256[] memory) {\r\n        uint256[] memory totalCourseScore = new uint256[](courseCount);\r\n        for (uint256 i = 1; i <= studentCount; i++) {\r\n            Student storage student = students[i];\r\n            for (uint256 j = 0; j < courseCount; j++) {\r\n                totalCourseScore[j] += student.courseSuitability[courseIds[j]];\r\n            }\r\n        }\r\n        for (uint256 j = 0; j < courseCount; j++) {\r\n            totalCourseScore[j] = totalCourseScore[j] / studentCount;\r\n        }\r\n        return totalCourseScore;\r\n    }\r\n\r\n    function getClassIds() public view returns (uint256[] memory) {\r\n        return classIds;\r\n    }\r\n\r\n    function getStudentIds() public view returns (uint256[] memory) {\r\n        return studentIds;\r\n    }\r\n\r\n    function getProposalInfo(\r\n        uint256 classId,\r\n        uint256 proposalId\r\n    ) public view returns (uint256[] memory, uint256) {\r\n        return (\r\n            classes[classId].proposals[proposalId].votedIds,\r\n            classes[classId].proposals[proposalId].voteforID\r\n        );\r\n    }\r\n\r\n    function getTeacherProposalId(        \r\n        uint256 classId,\r\n        uint256 proposalId\r\n    ) public view returns (uint256){\r\n        return classes[classId].proposals[proposalId].teacherProposalId;\r\n    }\r\n}\r\n",
  "sourcePath": "E:\\\\paper\\DAO\\git-DAO\\yzt\\Course-allocation\\project\\contracts\\IStudentVote.sol",
  "compiler": {
    "name": "solc",
    "version": "0.8.7+commit.e28d00a7.Emscripten.clang"
  },
  "schemaVersion": "3.4.16",
  "updatedAt": "2025-04-22T06:56:00.347Z",
  "networkType": "ethereum",
  "devdoc": {
    "kind": "dev",
    "methods": {},
    "version": 1
  },
  "userdoc": {
    "kind": "user",
    "methods": {},
    "version": 1
  }
}