{
  "contractName": "IStudentVote",
  "abi": [
    {
      "inputs": [
        {
          "internalType": "address",
          "name": "",
          "type": "address"
        }
      ],
      "name": "addressToClassId",
      "outputs": [
        {
          "internalType": "uint256",
          "name": "",
          "type": "uint256"
        }
      ],
      "stateMutability": "view",
      "type": "function",
      "constant": true
    },
    {
      "inputs": [
        {
          "internalType": "address",
          "name": "",
          "type": "address"
        }
      ],
      "name": "addressToStudentId",
      "outputs": [
        {
          "internalType": "uint256",
          "name": "",
          "type": "uint256"
        }
      ],
      "stateMutability": "view",
      "type": "function",
      "constant": true
    },
    {
      "inputs": [],
      "name": "classCount",
      "outputs": [
        {
          "internalType": "uint256",
          "name": "",
          "type": "uint256"
        }
      ],
      "stateMutability": "view",
      "type": "function",
      "constant": true
    },
    {
      "inputs": [
        {
          "internalType": "uint256",
          "name": "",
          "type": "uint256"
        }
      ],
      "name": "classIds",
      "outputs": [
        {
          "internalType": "uint256",
          "name": "",
          "type": "uint256"
        }
      ],
      "stateMutability": "view",
      "type": "function",
      "constant": true
    },
    {
      "inputs": [
        {
          "internalType": "uint256",
          "name": "",
          "type": "uint256"
        }
      ],
      "name": "classes",
      "outputs": [
        {
          "internalType": "address",
          "name": "classAddress",
          "type": "address"
        },
        {
          "internalType": "uint256",
          "name": "id",
          "type": "uint256"
        },
        {
          "internalType": "string",
          "name": "name",
          "type": "string"
        },
        {
          "internalType": "uint256",
          "name": "proposalCount",
          "type": "uint256"
        },
        {
          "internalType": "uint256",
          "name": "studentCount",
          "type": "uint256"
        },
        {
          "internalType": "uint256",
          "name": "weightForAutoVote",
          "type": "uint256"
        }
      ],
      "stateMutability": "view",
      "type": "function",
      "constant": true
    },
    {
      "inputs": [],
      "name": "studentCount",
      "outputs": [
        {
          "internalType": "uint256",
          "name": "",
          "type": "uint256"
        }
      ],
      "stateMutability": "view",
      "type": "function",
      "constant": true
    },
    {
      "inputs": [
        {
          "internalType": "uint256",
          "name": "",
          "type": "uint256"
        }
      ],
      "name": "studentIds",
      "outputs": [
        {
          "internalType": "uint256",
          "name": "",
          "type": "uint256"
        }
      ],
      "stateMutability": "view",
      "type": "function",
      "constant": true
    },
    {
      "inputs": [
        {
          "internalType": "uint256",
          "name": "",
          "type": "uint256"
        }
      ],
      "name": "students",
      "outputs": [
        {
          "internalType": "address",
          "name": "studentAddress",
          "type": "address"
        },
        {
          "internalType": "uint256",
          "name": "id",
          "type": "uint256"
        },
        {
          "internalType": "string",
          "name": "name",
          "type": "string"
        },
        {
          "internalType": "uint256",
          "name": "classId",
          "type": "uint256"
        },
        {
          "internalType": "bool",
          "name": "isSetSuitability",
          "type": "bool"
        }
      ],
      "stateMutability": "view",
      "type": "function",
      "constant": true
    },
    {
      "inputs": [],
      "name": "getClassNum",
      "outputs": [
        {
          "internalType": "uint256",
          "name": "",
          "type": "uint256"
        }
      ],
      "stateMutability": "view",
      "type": "function",
      "constant": true
    },
    {
      "inputs": [],
      "name": "getClassWeight",
      "outputs": [
        {
          "internalType": "uint256",
          "name": "",
          "type": "uint256"
        }
      ],
      "stateMutability": "view",
      "type": "function",
      "constant": true
    },
    {
      "inputs": [],
      "name": "getStudentofClass",
      "outputs": [
        {
          "internalType": "uint256[]",
          "name": "",
          "type": "uint256[]"
        }
      ],
      "stateMutability": "view",
      "type": "function",
      "constant": true
    },
    {
      "inputs": [
        {
          "internalType": "string",
          "name": "className",
          "type": "string"
        },
        {
          "internalType": "address",
          "name": "classAddress",
          "type": "address"
        }
      ],
      "name": "addClass",
      "outputs": [],
      "stateMutability": "nonpayable",
      "type": "function"
    },
    {
      "inputs": [
        {
          "internalType": "string",
          "name": "_name",
          "type": "string"
        }
      ],
      "name": "addStudentToClass",
      "outputs": [],
      "stateMutability": "nonpayable",
      "type": "function"
    },
    {
      "inputs": [
        {
          "internalType": "uint256",
          "name": "classId",
          "type": "uint256"
        },
        {
          "internalType": "string",
          "name": "_name",
          "type": "string"
        },
        {
          "internalType": "address",
          "name": "studentAddress",
          "type": "address"
        }
      ],
      "name": "registerStudent",
      "outputs": [],
      "stateMutability": "nonpayable",
      "type": "function"
    },
    {
      "inputs": [
        {
          "internalType": "string",
          "name": "_description",
          "type": "string"
        },
        {
          "internalType": "uint256",
          "name": "_voteforID",
          "type": "uint256"
        },
        {
          "internalType": "uint256[]",
          "name": "_votedIds",
          "type": "uint256[]"
        }
      ],
      "name": "createProposal",
      "outputs": [
        {
          "internalType": "uint256",
          "name": "",
          "type": "uint256"
        }
      ],
      "stateMutability": "nonpayable",
      "type": "function"
    },
    {
      "inputs": [
        {
          "internalType": "uint256",
          "name": "studentId",
          "type": "uint256"
        },
        {
          "internalType": "uint256",
          "name": "proposalId",
          "type": "uint256"
        },
        {
          "internalType": "uint256",
          "name": "optionId",
          "type": "uint256"
        }
      ],
      "name": "vote",
      "outputs": [],
      "stateMutability": "nonpayable",
      "type": "function"
    },
    {
      "inputs": [
        {
          "internalType": "uint256",
          "name": "studentId",
          "type": "uint256"
        },
        {
          "internalType": "uint256",
          "name": "proposalId",
          "type": "uint256"
        },
        {
          "internalType": "uint256",
          "name": "optionId",
          "type": "uint256"
        }
      ],
      "name": "studentVote",
      "outputs": [],
      "stateMutability": "nonpayable",
      "type": "function"
    },
    {
      "inputs": [
        {
          "internalType": "address",
          "name": "classAddress",
          "type": "address"
        },
        {
          "internalType": "uint256",
          "name": "proposalId",
          "type": "uint256"
        }
      ],
      "name": "getProposalResults",
      "outputs": [
        {
          "internalType": "uint256",
          "name": "winningOptionId",
          "type": "uint256"
        },
        {
          "internalType": "uint256",
          "name": "voteforID",
          "type": "uint256"
        }
      ],
      "stateMutability": "view",
      "type": "function",
      "constant": true
    },
    {
      "inputs": [],
      "name": "getStudent",
      "outputs": [
        {
          "internalType": "uint256[]",
          "name": "",
          "type": "uint256[]"
        }
      ],
      "stateMutability": "view",
      "type": "function",
      "constant": true
    },
    {
      "inputs": [
        {
          "internalType": "uint256",
          "name": "studentId",
          "type": "uint256"
        },
        {
          "internalType": "uint256[]",
          "name": "_suitabilities",
          "type": "uint256[]"
        }
      ],
      "name": "setCourseSuitability",
      "outputs": [],
      "stateMutability": "nonpayable",
      "type": "function"
    },
    {
      "inputs": [
        {
          "internalType": "uint256[]",
          "name": "_suitabilities",
          "type": "uint256[]"
        }
      ],
      "name": "studentSetCourseSuitability",
      "outputs": [],
      "stateMutability": "nonpayable",
      "type": "function"
    },
    {
      "inputs": [
        {
          "internalType": "uint256",
          "name": "studentId",
          "type": "uint256"
        }
      ],
      "name": "getCourseSuitability",
      "outputs": [
        {
          "internalType": "uint256[]",
          "name": "",
          "type": "uint256[]"
        }
      ],
      "stateMutability": "view",
      "type": "function",
      "constant": true
    },
    {
      "inputs": [],
      "name": "getAverageSuitability",
      "outputs": [
        {
          "internalType": "uint256[]",
          "name": "",
          "type": "uint256[]"
        }
      ],
      "stateMutability": "view",
      "type": "function",
      "constant": true
    },
    {
      "inputs": [],
      "name": "getClassIds",
      "outputs": [
        {
          "internalType": "uint256[]",
          "name": "",
          "type": "uint256[]"
        }
      ],
      "stateMutability": "view",
      "type": "function",
      "constant": true
    },
    {
      "inputs": [],
      "name": "getStudentIds",
      "outputs": [
        {
          "internalType": "uint256[]",
          "name": "",
          "type": "uint256[]"
        }
      ],
      "stateMutability": "view",
      "type": "function",
      "constant": true
    },
    {
      "inputs": [
        {
          "internalType": "uint256",
          "name": "classId",
          "type": "uint256"
        },
        {
          "internalType": "uint256",
          "name": "proposalId",
          "type": "uint256"
        }
      ],
      "name": "getProposalInfo",
      "outputs": [
        {
          "internalType": "uint256[]",
          "name": "",
          "type": "uint256[]"
        },
        {
          "internalType": "uint256",
          "name": "",
          "type": "uint256"
        }
      ],
      "stateMutability": "view",
      "type": "function",
      "constant": true
    }
  ],
  "bytecode": "0x6080604052600a60085534801561001557600080fd5b50612e91806100256000396000f3fe608060405234801561001057600080fd5b506004361061018e5760003560e01c806386c34415116100de578063b439548d11610097578063e581f9ee11610071578063e581f9ee146104c7578063f1b2126b146104e5578063f8fb3e6214610503578063ffc353031461051f5761018e565b8063b439548d14610449578063bca24bd414610467578063d4e57ff0146104975761018e565b806386c34415146103625780638a6655d614610392578063945155ba146103ae578063ab996317146103df578063af331f79146103fd578063b18a993a146104195761018e565b80633d89c1491161014b5780636f28c355116101255780636f28c355146102c55780637456cf3e146102f5578063817dbe9f14610311578063824ec443146103465761018e565b80633d89c1491461025957806350b3842814610289578063644915b2146102a75761018e565b806306ead22e1461019357806318860d37146101c75780631b666d80146101e5578063298c90f4146102015780632a3cdb8f1461021d5780633b173bb31461023b575b600080fd5b6101ad60048036038101906101a89190612330565b610550565b6040516101be9594939291906126be565b60405180910390f35b6101cf61063b565b6040516101dc9190612780565b60405180910390f35b6101ff60048036038101906101fa9190612249565b610693565b005b61021b6004803603810190610216919061235d565b610837565b005b61022561094e565b6040516102329190612780565b60405180910390f35b6102436109fe565b60405161025091906128d2565b60405180910390f35b610273600480360381019061026e9190612330565b610a08565b6040516102809190612780565b60405180910390f35b610291610aca565b60405161029e91906128d2565b60405180910390f35b6102af610b18565b6040516102bc9190612780565b60405180910390f35b6102df60048036038101906102da9190612330565b610b70565b6040516102ec91906128d2565b60405180910390f35b61030f600480360381019061030a91906121b7565b610b94565b005b61032b60048036038101906103269190612330565b610cef565b60405161033d96959493929190612718565b60405180910390f35b610360600480360381019061035b9190612468565b610dd3565b005b61037c6004803603810190610377919061214a565b611176565b60405161038991906128d2565b60405180910390f35b6103ac60048036038101906103a79190612468565b61118e565b005b6103c860048036038101906103c39190612428565b61155a565b6040516103d69291906127a2565b60405180910390f35b6103e761160e565b6040516103f491906128d2565b60405180910390f35b610417600480360381019061041291906123b9565b611614565b005b610433600480360381019061042e91906122a5565b61182a565b60405161044091906128d2565b60405180910390f35b6104516119a1565b60405161045e9190612780565b60405180910390f35b610481600480360381019061047c9190612330565b611a51565b60405161048e91906128d2565b60405180910390f35b6104b160048036038101906104ac919061214a565b611a75565b6040516104be91906128d2565b60405180910390f35b6104cf611a8d565b6040516104dc91906128d2565b60405180910390f35b6104ed611a93565b6040516104fa9190612780565b60405180910390f35b61051d60048036038101906105189190612200565b611bf4565b005b61053960048036038101906105349190612177565b611db0565b6040516105479291906128ed565b60405180910390f35b60016020528060005260406000206000915090508060000160009054906101000a900473ffffffffffffffffffffffffffffffffffffffff169080600101549080600201805461059f90612afe565b80601f01602080910402602001604051908101604052809291908181526020018280546105cb90612afe565b80156106185780601f106105ed57610100808354040283529160200191610618565b820191906000526020600020905b8154815290600101906020018083116105fb57829003601f168201915b5050505050908060030154908060040160009054906101000a900460ff16905085565b6060600480548060200260200160405190810160405280929190818152602001828054801561068957602002820191906000526020600020905b815481526020019060010190808311610675575b5050505050905090565b600660008154809291906106a690612b61565b9190505550600080600060065481526020019081526020016000206001015414610705576040517f08c379a00000000000000000000000000000000000000000000000000000000081526004016106fc90612852565b60405180910390fd5b600654600260008373ffffffffffffffffffffffffffffffffffffffff1673ffffffffffffffffffffffffffffffffffffffff1681526020019081526020016000208190555080600080600654815260200190815260200160002060000160006101000a81548173ffffffffffffffffffffffffffffffffffffffff021916908373ffffffffffffffffffffffffffffffffffffffff16021790555060065460008060065481526020019081526020016000206001018190555081600080600654815260200190815260200160002060020190805190602001906107ea929190611f6f565b50600a600080600654815260200190815260200160002060070181905550600460065490806001815401808255809150506001900390600052602060002001600090919091909150555050565b60075482111561087c576040517f08c379a000000000000000000000000000000000000000000000000000000000815260040161087390612892565b60405180910390fd5b6008548151146108c1576040517f08c379a00000000000000000000000000000000000000000000000000000000081526004016108b8906127f2565b60405180910390fd5b600060016000848152602001908152602001600020905060018160040160006101000a81548160ff02191690831515021790555060005b82518110156109485782818151811061091457610913612c37565b5b602002602001015182600501600083815260200190815260200160002081905550808061094090612b61565b9150506108f8565b50505050565b60606000600260003373ffffffffffffffffffffffffffffffffffffffff1673ffffffffffffffffffffffffffffffffffffffff1681526020019081526020016000205490506000808281526020019081526020016000206005018054806020026020016040519081016040528092919081815260200182805480156109f357602002820191906000526020600020905b8154815260200190600101908083116109df575b505050505091505090565b6000600654905090565b6060600060085467ffffffffffffffff811115610a2857610a27612c66565b5b604051908082528060200260200182016040528015610a565781602001602082028036833780820191505090505b50905060005b600854811015610ac05760016000858152602001908152602001600020600501600082815260200190815260200160002054828281518110610aa157610aa0612c37565b5b6020026020010181815250508080610ab890612b61565b915050610a5c565b5080915050919050565b60008060005b600654811015610b10576000808281526020019081526020016000206007015482610afb91906129ed565b91508080610b0890612b61565b915050610ad0565b508091505090565b60606005805480602002602001604051908101604052809291908181526020018280548015610b6657602002820191906000526020600020905b815481526020019060010190808311610b52575b5050505050905090565b60058181548110610b8057600080fd5b906000526020600020016000915090505481565b6000600360003373ffffffffffffffffffffffffffffffffffffffff1673ffffffffffffffffffffffffffffffffffffffff168152602001908152602001600020549050600754811115610c1d576040517f08c379a0000000000000000000000000000000000000000000000000000000008152600401610c1490612892565b60405180910390fd5b600854825114610c62576040517f08c379a0000000000000000000000000000000000000000000000000000000008152600401610c59906127f2565b60405180910390fd5b600060016000838152602001908152602001600020905060018160040160006101000a81548160ff02191690831515021790555060005b8351811015610ce957838181518110610cb557610cb4612c37565b5b6020026020010151826005016000838152602001908152602001600020819055508080610ce190612b61565b915050610c99565b50505050565b60006020528060005260406000206000915090508060000160009054906101000a900473ffffffffffffffffffffffffffffffffffffffff1690806001015490806002018054610d3e90612afe565b80601f0160208091040260200160405190810160405280929190818152602001828054610d6a90612afe565b8015610db75780601f10610d8c57610100808354040283529160200191610db7565b820191906000526020600020905b815481529060010190602001808311610d9a57829003601f168201915b5050505050908060040154908060060154908060070154905086565b6000600160008581526020019081526020016000206003015490506000806000838152602001908152602001600020600101541415610e47576040517f08c379a0000000000000000000000000000000000000000000000000000000008152600401610e3e90612812565b60405180910390fd5b60008060008381526020019081526020016000206003016000858152602001908152602001600020600001541415610eb4576040517f08c379a0000000000000000000000000000000000000000000000000000000008152600401610eab90612872565b60405180910390fd5b600080600083815260200190815260200160002060030160008581526020019081526020016000206003018054905011610f23576040517f08c379a0000000000000000000000000000000000000000000000000000000008152600401610f1a90612832565b60405180910390fd5b6000808281526020019081526020016000206003016000848152602001908152602001600020600501600085815260200190815260200160002060009054906101000a900460ff1615610fab576040517f08c379a0000000000000000000000000000000000000000000000000000000008152600401610fa2906128b2565b60405180910390fd5b6000805b60008084815260200190815260200160002060030160008681526020019081526020016000206003018054905081101561104c57836000808581526020019081526020016000206003016000878152602001908152602001600020600301828154811061101f5761101e612c37565b5b90600052602060002001541415611039576001915061104c565b808061104490612b61565b915050610faf565b508061108d576040517f08c379a0000000000000000000000000000000000000000000000000000000008152600401611084906127d2565b60405180910390fd5b6000808381526020019081526020016000206003016000858152602001908152602001600020600401600084815260200190815260200160002060008154809291906110d890612b61565b919050555060016000808481526020019081526020016000206003016000868152602001908152602001600020600501600087815260200190815260200160002060006101000a81548160ff0219169083151502179055506000808381526020019081526020016000206003016000858152602001908152602001600020600601600081548092919061116a90612b61565b91905055505050505050565b60036020528060005260406000206000915090505481565b6000600260003373ffffffffffffffffffffffffffffffffffffffff1673ffffffffffffffffffffffffffffffffffffffff168152602001908152602001600020549050600080600083815260200190815260200160002060010154141561122b576040517f08c379a000000000000000000000000000000000000000000000000000000000815260040161122290612812565b60405180910390fd5b60008060008381526020019081526020016000206003016000858152602001908152602001600020600001541415611298576040517f08c379a000000000000000000000000000000000000000000000000000000000815260040161128f90612872565b60405180910390fd5b600080600083815260200190815260200160002060030160008581526020019081526020016000206003018054905011611307576040517f08c379a00000000000000000000000000000000000000000000000000000000081526004016112fe90612832565b60405180910390fd5b6000808281526020019081526020016000206003016000848152602001908152602001600020600501600085815260200190815260200160002060009054906101000a900460ff161561138f576040517f08c379a0000000000000000000000000000000000000000000000000000000008152600401611386906128b2565b60405180910390fd5b6000805b60008084815260200190815260200160002060030160008681526020019081526020016000206003018054905081101561143057836000808581526020019081526020016000206003016000878152602001908152602001600020600301828154811061140357611402612c37565b5b9060005260206000200154141561141d5760019150611430565b808061142890612b61565b915050611393565b5080611471576040517f08c379a0000000000000000000000000000000000000000000000000000000008152600401611468906127d2565b60405180910390fd5b6000808381526020019081526020016000206003016000858152602001908152602001600020600401600084815260200190815260200160002060008154809291906114bc90612b61565b919050555060016000808481526020019081526020016000206003016000868152602001908152602001600020600501600087815260200190815260200160002060006101000a81548160ff0219169083151502179055506000808381526020019081526020016000206003016000858152602001908152602001600020600601600081548092919061154e90612b61565b91905055505050505050565b606060008060008581526020019081526020016000206003016000848152602001908152602001600020600301600080868152602001908152602001600020600301600085815260200190815260200160002060020154818054806020026020016040519081016040528092919081815260200182805480156115fc57602002820191906000526020600020905b8154815260200190600101908083116115e8575b50505050509150915091509250929050565b60065481565b600080600085815260200190815260200160002060010154141561166d576040517f08c379a000000000000000000000000000000000000000000000000000000000815260040161166490612812565b60405180910390fd5b6007600081548092919061168090612b61565b9190505550600754600360008373ffffffffffffffffffffffffffffffffffffffff1673ffffffffffffffffffffffffffffffffffffffff168152602001908152602001600020819055508060016000600754815260200190815260200160002060000160006101000a81548173ffffffffffffffffffffffffffffffffffffffff021916908373ffffffffffffffffffffffffffffffffffffffff1602179055506007546001600060075481526020019081526020016000206001018190555081600160006007548152602001908152602001600020600201908051906020019061176d929190611f6f565b508260016000600754815260200190815260200160002060030181905550600060016000600754815260200190815260200160002060040160006101000a81548160ff021916908315150217905550600080848152602001908152602001600020600501600754908060018154018082558091505060019003906000526020600020016000909190919091505560056007549080600181540180825580915050600190039060005260206000200160009091909190915055505050565b600080600090506000600190505b6006548111611995576000806000838152602001908152602001600020905080600401600081548092919061186c90612b61565b919050555060008160040154905080826003016000838152602001908152602001600020600001819055508782600301600083815260200190815260200160002060010190805190602001906118c3929190611f6f565b5060005b865181101561195f5760008782815181106118e5576118e4612c37565b5b60200260200101511461194c5782600301600083815260200190815260200160002060030187828151811061191d5761191c612c37565b5b602002602001015190806001815401808255809150506001900390600052602060002001600090919091909150555b808061195790612b61565b9150506118c7565b5086826003016000838152602001908152602001600020600201819055508093505050808061198d90612b61565b915050611838565b50809150509392505050565b60606000600260003373ffffffffffffffffffffffffffffffffffffffff1673ffffffffffffffffffffffffffffffffffffffff168152602001908152602001600020549050600080828152602001908152602001600020600501805480602002602001604051908101604052809291908181526020018280548015611a4657602002820191906000526020600020905b815481526020019060010190808311611a32575b505050505091505090565b60048181548110611a6157600080fd5b906000526020600020016000915090505481565b60026020528060005260406000206000915090505481565b60075481565b6060600060085467ffffffffffffffff811115611ab357611ab2612c66565b5b604051908082528060200260200182016040528015611ae15781602001602082028036833780820191505090505b5090506000600190505b6007548111611b8457600060016000838152602001908152602001600020905060005b600854811015611b6f5781600501600082815260200190815260200160002054848281518110611b4157611b40612c37565b5b60200260200101818151611b5591906129ed565b915081815250508080611b6790612b61565b915050611b0e565b50508080611b7c90612b61565b915050611aeb565b5060005b600854811015611bec57600754828281518110611ba857611ba7612c37565b5b6020026020010151611bba9190612a43565b828281518110611bcd57611bcc612c37565b5b6020026020010181815250508080611be490612b61565b915050611b88565b508091505090565b6000600260003373ffffffffffffffffffffffffffffffffffffffff1673ffffffffffffffffffffffffffffffffffffffff1681526020019081526020016000205490506000806000838152602001908152602001600020600101541415611c91576040517f08c379a0000000000000000000000000000000000000000000000000000000008152600401611c8890612812565b60405180910390fd5b60076000815480929190611ca490612b61565b919050555060075460016000600754815260200190815260200160002060010181905550816001600060075481526020019081526020016000206002019080519060200190611cf4929190611f6f565b508060016000600754815260200190815260200160002060030181905550600060016000600754815260200190815260200160002060040160006101000a81548160ff0219169083151502179055506000808281526020019081526020016000206005016007549080600181540180825580915050600190039060005260206000200160009091909190915055600560075490806001815401808255809150506001900390600052602060002001600090919091909150555050565b6000806000600260008673ffffffffffffffffffffffffffffffffffffffff1673ffffffffffffffffffffffffffffffffffffffff1681526020019081526020016000205490506000806000838152602001908152602001600020600101541415611e50576040517f08c379a0000000000000000000000000000000000000000000000000000000008152600401611e4790612812565b60405180910390fd5b60008060008381526020019081526020016000206003016000868152602001908152602001600020600001541415611ebd576040517f08c379a0000000000000000000000000000000000000000000000000000000008152600401611eb490612872565b60405180910390fd5b600080600083815260200190815260200160002060030160008681526020019081526020016000209050806002015492506000805b8260030180549050811015611f64576000836003018281548110611f1957611f18612c37565b5b90600052602060002001549050600084600401600083815260200190815260200160002054905083811115611f4f578093508197505b50508080611f5c90612b61565b915050611ef2565b505050509250929050565b828054611f7b90612afe565b90600052602060002090601f016020900481019282611f9d5760008555611fe4565b82601f10611fb657805160ff1916838001178555611fe4565b82800160010185558215611fe4579182015b82811115611fe3578251825591602001919060010190611fc8565b5b509050611ff19190611ff5565b5090565b5b8082111561200e576000816000905550600101611ff6565b5090565b60006120256120208461293b565b612916565b9050808382526020820190508285602086028201111561204857612047612c9a565b5b60005b85811015612078578161205e8882612135565b84526020840193506020830192505060018101905061204b565b5050509392505050565b600061209561209084612967565b612916565b9050828152602081018484840111156120b1576120b0612c9f565b5b6120bc848285612abc565b509392505050565b6000813590506120d381612e2d565b92915050565b600082601f8301126120ee576120ed612c95565b5b81356120fe848260208601612012565b91505092915050565b600082601f83011261211c5761211b612c95565b5b813561212c848260208601612082565b91505092915050565b60008135905061214481612e44565b92915050565b6000602082840312156121605761215f612ca9565b5b600061216e848285016120c4565b91505092915050565b6000806040838503121561218e5761218d612ca9565b5b600061219c858286016120c4565b92505060206121ad85828601612135565b9150509250929050565b6000602082840312156121cd576121cc612ca9565b5b600082013567ffffffffffffffff8111156121eb576121ea612ca4565b5b6121f7848285016120d9565b91505092915050565b60006020828403121561221657612215612ca9565b5b600082013567ffffffffffffffff81111561223457612233612ca4565b5b61224084828501612107565b91505092915050565b600080604083850312156122605761225f612ca9565b5b600083013567ffffffffffffffff81111561227e5761227d612ca4565b5b61228a85828601612107565b925050602061229b858286016120c4565b9150509250929050565b6000806000606084860312156122be576122bd612ca9565b5b600084013567ffffffffffffffff8111156122dc576122db612ca4565b5b6122e886828701612107565b93505060206122f986828701612135565b925050604084013567ffffffffffffffff81111561231a57612319612ca4565b5b612326868287016120d9565b9150509250925092565b60006020828403121561234657612345612ca9565b5b600061235484828501612135565b91505092915050565b6000806040838503121561237457612373612ca9565b5b600061238285828601612135565b925050602083013567ffffffffffffffff8111156123a3576123a2612ca4565b5b6123af858286016120d9565b9150509250929050565b6000806000606084860312156123d2576123d1612ca9565b5b60006123e086828701612135565b935050602084013567ffffffffffffffff81111561240157612400612ca4565b5b61240d86828701612107565b925050604061241e868287016120c4565b9150509250925092565b6000806040838503121561243f5761243e612ca9565b5b600061244d85828601612135565b925050602061245e85828601612135565b9150509250929050565b60008060006060848603121561248157612480612ca9565b5b600061248f86828701612135565b93505060206124a086828701612135565b92505060406124b186828701612135565b9150509250925092565b60006124c783836126a0565b60208301905092915050565b6124dc81612a74565b82525050565b60006124ed826129a8565b6124f781856129cb565b935061250283612998565b8060005b8381101561253357815161251a88826124bb565b9750612525836129be565b925050600181019050612506565b5085935050505092915050565b61254981612a86565b82525050565b600061255a826129b3565b61256481856129dc565b9350612574818560208601612acb565b61257d81612cae565b840191505092915050565b60006125956011836129dc565b91506125a082612cbf565b602082019050919050565b60006125b86021836129dc565b91506125c382612ce8565b604082019050919050565b60006125db6014836129dc565b91506125e682612d37565b602082019050919050565b60006125fe6017836129dc565b915061260982612d60565b602082019050919050565b60006126216014836129dc565b915061262c82612d89565b602082019050919050565b60006126446017836129dc565b915061264f82612db2565b602082019050919050565b60006126676016836129dc565b915061267282612ddb565b602082019050919050565b600061268a6016836129dc565b915061269582612e04565b602082019050919050565b6126a981612ab2565b82525050565b6126b881612ab2565b82525050565b600060a0820190506126d360008301886124d3565b6126e060208301876126af565b81810360408301526126f2818661254f565b905061270160608301856126af565b61270e6080830184612540565b9695505050505050565b600060c08201905061272d60008301896124d3565b61273a60208301886126af565b818103604083015261274c818761254f565b905061275b60608301866126af565b61276860808301856126af565b61277560a08301846126af565b979650505050505050565b6000602082019050818103600083015261279a81846124e2565b905092915050565b600060408201905081810360008301526127bc81856124e2565b90506127cb60208301846126af565b9392505050565b600060208201905081810360008301526127eb81612588565b9050919050565b6000602082019050818103600083015261280b816125ab565b9050919050565b6000602082019050818103600083015261282b816125ce565b9050919050565b6000602082019050818103600083015261284b816125f1565b9050919050565b6000602082019050818103600083015261286b81612614565b9050919050565b6000602082019050818103600083015261288b81612637565b9050919050565b600060208201905081810360008301526128ab8161265a565b9050919050565b600060208201905081810360008301526128cb8161267d565b9050919050565b60006020820190506128e760008301846126af565b92915050565b600060408201905061290260008301856126af565b61290f60208301846126af565b9392505050565b6000612920612931565b905061292c8282612b30565b919050565b6000604051905090565b600067ffffffffffffffff82111561295657612955612c66565b5b602082029050602081019050919050565b600067ffffffffffffffff82111561298257612981612c66565b5b61298b82612cae565b9050602081019050919050565b6000819050602082019050919050565b600081519050919050565b600081519050919050565b6000602082019050919050565b600082825260208201905092915050565b600082825260208201905092915050565b60006129f882612ab2565b9150612a0383612ab2565b9250827fffffffffffffffffffffffffffffffffffffffffffffffffffffffffffffffff03821115612a3857612a37612baa565b5b828201905092915050565b6000612a4e82612ab2565b9150612a5983612ab2565b925082612a6957612a68612bd9565b5b828204905092915050565b6000612a7f82612a92565b9050919050565b60008115159050919050565b600073ffffffffffffffffffffffffffffffffffffffff82169050919050565b6000819050919050565b82818337600083830152505050565b60005b83811015612ae9578082015181840152602081019050612ace565b83811115612af8576000848401525b50505050565b60006002820490506001821680612b1657607f821691505b60208210811415612b2a57612b29612c08565b5b50919050565b612b3982612cae565b810181811067ffffffffffffffff82111715612b5857612b57612c66565b5b80604052505050565b6000612b6c82612ab2565b91507fffffffffffffffffffffffffffffffffffffffffffffffffffffffffffffffff821415612b9f57612b9e612baa565b5b600182019050919050565b7f4e487b7100000000000000000000000000000000000000000000000000000000600052601160045260246000fd5b7f4e487b7100000000000000000000000000000000000000000000000000000000600052601260045260246000fd5b7f4e487b7100000000000000000000000000000000000000000000000000000000600052602260045260246000fd5b7f4e487b7100000000000000000000000000000000000000000000000000000000600052603260045260246000fd5b7f4e487b7100000000000000000000000000000000000000000000000000000000600052604160045260246000fd5b600080fd5b600080fd5b600080fd5b600080fd5b600080fd5b6000601f19601f8301169050919050565b7f496e76616c6964206f7074696f6e204944000000000000000000000000000000600082015250565b7f537569746162696c697479206172726179206c656e677468206d69736d61746360008201527f6800000000000000000000000000000000000000000000000000000000000000602082015250565b7f436c61737320646f6573206e6f74206578697374000000000000000000000000600082015250565b7f50726f706f73616c20686173206e6f206f7074696f6e73000000000000000000600082015250565b7f436c61737320616c726561647920657869737473000000000000000000000000600082015250565b7f50726f706f73616c20646f6573206e6f74206578697374000000000000000000600082015250565b7f53747564656e7420646f6573206e6f7420657869737400000000000000000000600082015250565b7f596f75206861766520616c726561647920766f74656400000000000000000000600082015250565b612e3681612a74565b8114612e4157600080fd5b50565b612e4d81612ab2565b8114612e5857600080fd5b5056fea2646970667358221220c022fd0703047c75079ef5ae90f664dccafd7dc2f6c653d4868b82657949a36664736f6c63430008070033",
  "immutableReferences": {},
  "source": "// SPDX-License-Identifier: MIT\r\npragma solidity ^0.8.7;\r\n\r\ninterface StudentVote {\r\n    function createProposal(string memory _description, uint256 _voteforID, uint256[] memory _votedIds) external returns (uint256);\r\n    function vote(uint256 studentId, uint256 proposalId, uint256 optionId) external;\r\n    function getProposalResults(address classAddress, uint256 proposalId) external view returns (uint256, uint256);\r\n    function getAverageSuitability() external view returns (uint256[] memory);\r\n    function getClassNum() external view returns (uint256);\r\n    function getClassWeight() external view returns (uint256);\r\n}\r\n\r\ncontract IStudentVote is StudentVote {\r\n    struct Student {\r\n        address studentAddress;\r\n        uint256 id;\r\n        string name;\r\n        uint256 classId;\r\n        bool isSetSuitability;\r\n        mapping(uint256 => uint256) courseSuitability;\r\n    }\r\n\r\n    struct Class {\r\n        address classAddress;\r\n        uint256 id;\r\n        string name;\r\n        mapping(uint256 => Proposal) proposals;\r\n        uint256 proposalCount;\r\n        uint256[] studentsId;\r\n        uint256 studentCount;\r\n        uint256 weightForAutoVote;\r\n    }\r\n\r\n    struct Proposal {\r\n        uint256 id;\r\n        string description;\r\n        uint256 voteforID; // ID\r\n        uint256[] votedIds;\r\n        mapping(uint256 => uint256) voteIdToCount;\r\n        mapping(uint256 => bool) ifVote;\r\n        uint256 voteCount;\r\n    }\r\n\r\n    mapping(uint256 => Class) public classes;\r\n    mapping(uint256 => Student) public students;\r\n    mapping(address => uint256) public addressToClassId;\r\n    mapping(address => uint256) public addressToStudentId;\r\n    uint256[] public classIds;\r\n    uint256[] public studentIds;\r\n    uint256 public classCount;\r\n    uint256 public studentCount;\r\n    uint256 courseCount = 10;\r\n\r\n    function getClassNum() public view override returns(uint256) {\r\n        return classCount;\r\n    }\r\n\r\n    function getClassWeight() public view override returns(uint256) {\r\n        uint256 classWeights;\r\n        for(uint256 i = 0; i < classCount; i++){\r\n            classWeights += classes[i].weightForAutoVote;\r\n        }\r\n        return classWeights;\r\n    }\r\n\r\n    function getStudentofClass() public view returns(uint256[] memory) {\r\n        uint256 classId = addressToClassId[msg.sender];\r\n        return classes[classId].studentsId;\r\n    }\r\n\r\n    // \r\n    function addClass(string memory className, address classAddress) public {\r\n        classCount++;\r\n        require(classes[classCount].id == 0, \"Class already exists\");\r\n        addressToClassId[classAddress] = classCount;\r\n        classes[classCount].classAddress = classAddress;\r\n        classes[classCount].id = classCount;\r\n        classes[classCount].name = className;\r\n        classes[classCount].weightForAutoVote = 10;\r\n        classIds.push(classCount);\r\n    }\r\n\r\n    // \r\n    function addStudentToClass(string memory _name) public {\r\n        uint256 classId = addressToClassId[msg.sender];\r\n        require(classes[classId].id != 0, \"Class does not exist\");\r\n        studentCount++;\r\n        students[studentCount].id = studentCount;\r\n        students[studentCount].name = _name;\r\n        students[studentCount].classId = classId;\r\n        students[studentCount].isSetSuitability = false;\r\n        classes[classId].studentsId.push(studentCount);\r\n        studentIds.push(studentCount);\r\n    }\r\n\r\n    // \r\n    function registerStudent(uint256 classId, string memory _name, address studentAddress) public{\r\n        require(classes[classId].id != 0, \"Class does not exist\");\r\n        studentCount++;\r\n        addressToStudentId[studentAddress] = studentCount;\r\n        students[studentCount].studentAddress = studentAddress;\r\n        students[studentCount].id = studentCount;\r\n        students[studentCount].name = _name;\r\n        students[studentCount].classId = classId;\r\n        students[studentCount].isSetSuitability = false;\r\n        classes[classId].studentsId.push(studentCount);\r\n        studentIds.push(studentCount);\r\n    }\r\n\r\n    // \r\n    function createProposal(string memory _description, uint256 _voteforID, uint256[] memory _votedIds) public override returns (uint256) {\r\n        uint256 newProposalID = 0;\r\n        for (uint256 i = 1; i <= classCount; i++) {\r\n            Class storage cls = classes[i];\r\n            cls.proposalCount++;\r\n            uint256 proposalId = cls.proposalCount;\r\n\r\n            cls.proposals[proposalId].id = proposalId;\r\n            cls.proposals[proposalId].description = _description;\r\n\r\n            for (uint256 j = 0; j < _votedIds.length; j++) {\r\n                if(_votedIds[j] != 0){\r\n                    cls.proposals[proposalId].votedIds.push(_votedIds[j]);\r\n                }\r\n            }\r\n\r\n            cls.proposals[proposalId].voteforID = _voteforID;\r\n            newProposalID = proposalId;\r\n        }\r\n        return newProposalID;\r\n    }\r\n\r\n    // \r\n    function vote(uint256 studentId, uint256 proposalId, uint256 optionId) public override {\r\n        uint256 classId = addressToClassId[msg.sender];\r\n        require(classes[classId].id != 0, \"Class does not exist\");\r\n        require(classes[classId].proposals[proposalId].id != 0, \"Proposal does not exist\");\r\n        require(classes[classId].proposals[proposalId].votedIds.length > 0, \"Proposal has no options\");\r\n        require(!classes[classId].proposals[proposalId].ifVote[studentId], \"You have already voted\");\r\n\r\n        bool optionExists = false;\r\n        for (uint256 i = 0; i < classes[classId].proposals[proposalId].votedIds.length; i++) {\r\n            if (classes[classId].proposals[proposalId].votedIds[i] == optionId) {\r\n                optionExists = true;\r\n                break;\r\n            }\r\n        }\r\n        require(optionExists, \"Invalid option ID\");\r\n\r\n        classes[classId].proposals[proposalId].voteIdToCount[optionId]++;\r\n        classes[classId].proposals[proposalId].ifVote[studentId] = true;\r\n        classes[classId].proposals[proposalId].voteCount++;\r\n    }\r\n\r\n    function studentVote(uint256 studentId, uint256 proposalId, uint256 optionId) public {\r\n        uint256 classId = students[studentId].classId;\r\n        require(classes[classId].id != 0, \"Class does not exist\");\r\n        require(classes[classId].proposals[proposalId].id != 0, \"Proposal does not exist\");\r\n        require(classes[classId].proposals[proposalId].votedIds.length > 0, \"Proposal has no options\");\r\n        require(!classes[classId].proposals[proposalId].ifVote[studentId], \"You have already voted\");\r\n\r\n        bool optionExists = false;\r\n        for (uint256 i = 0; i < classes[classId].proposals[proposalId].votedIds.length; i++) {\r\n            if (classes[classId].proposals[proposalId].votedIds[i] == optionId) {\r\n                optionExists = true;\r\n                break;\r\n            }\r\n        }\r\n        require(optionExists, \"Invalid option ID\");\r\n\r\n        classes[classId].proposals[proposalId].voteIdToCount[optionId]++;\r\n        classes[classId].proposals[proposalId].ifVote[studentId] = true;\r\n        classes[classId].proposals[proposalId].voteCount++;\r\n    }\r\n\r\n    // \r\n    function getProposalResults(address classAddress, uint256 proposalId) public view override returns (uint256 winningOptionId, uint256 voteforID) {\r\n        uint256 classId = addressToClassId[classAddress];\r\n        require(classes[classId].id != 0, \"Class does not exist\");\r\n        require(classes[classId].proposals[proposalId].id != 0, \"Proposal does not exist\");\r\n\r\n        Proposal storage proposal = classes[classId].proposals[proposalId];\r\n        voteforID = proposal.voteforID;\r\n\r\n        uint256 maxVoteCount = 0;\r\n        for (uint256 i = 0; i < proposal.votedIds.length; i++) {\r\n            uint256 optionId = proposal.votedIds[i];\r\n            uint256 voteCount = proposal.voteIdToCount[optionId];\r\n            if (voteCount > maxVoteCount) {\r\n                maxVoteCount = voteCount;\r\n                winningOptionId = optionId;\r\n            }\r\n        }\r\n    }\r\n\r\n    function getStudent() public view returns(uint256[] memory) {\r\n        uint classId = addressToClassId[msg.sender];\r\n        return classes[classId].studentsId;\r\n    }\r\n\r\n    // \r\n    function setCourseSuitability(uint256 studentId, uint256[] memory _suitabilities) public {\r\n        require(studentId <= studentCount, \"Student does not exist\");\r\n         // \r\n        require(_suitabilities.length == courseCount, \"Suitability array length mismatch\");\r\n        Student storage student = students[studentId];\r\n        student.isSetSuitability = true;\r\n        for(uint256 i = 0; i < _suitabilities.length; i++){\r\n            student.courseSuitability[i] =  _suitabilities[i] ;\r\n        }\r\n    }\r\n\r\n    function studentSetCourseSuitability(uint256[] memory _suitabilities) public {\r\n        uint256 studentId = addressToStudentId[msg.sender]; \r\n        require(studentId <= studentCount, \"Student does not exist\");\r\n         // \r\n        require(_suitabilities.length == courseCount, \"Suitability array length mismatch\");\r\n        Student storage student = students[studentId];\r\n        student.isSetSuitability = true;\r\n        for(uint256 i = 0; i < _suitabilities.length; i++){\r\n            student.courseSuitability[i] =  _suitabilities[i] ;\r\n        }\r\n    }\r\n\r\n    // \r\n    function getCourseSuitability(uint256 studentId) public view returns(uint256[] memory) {\r\n        uint256[] memory _suitabilities = new uint256[](courseCount);\r\n        for(uint256 i = 0; i < courseCount; i++){\r\n            _suitabilities[i] = students[studentId].courseSuitability[i];\r\n        }\r\n        return _suitabilities;\r\n    }\r\n\r\n    // \r\n    function getAverageSuitability() public view override returns(uint256[] memory) {\r\n        uint256[] memory totalCourseScore = new uint256[](courseCount);\r\n        for(uint256 i = 1; i <= studentCount; i++){\r\n            Student storage student = students[i];\r\n            for(uint256 j = 0; j < courseCount; j++){\r\n                totalCourseScore[j] += student.courseSuitability[j];\r\n            }\r\n        }\r\n        for(uint256 j = 0; j < courseCount; j++){\r\n                totalCourseScore[j] = totalCourseScore[j] / studentCount;\r\n        }\r\n        return totalCourseScore;\r\n    }\r\n\r\n    function getClassIds() public view returns(uint256[] memory) {\r\n        return classIds;\r\n    }\r\n\r\n    function getStudentIds() public view returns(uint256[] memory) {\r\n        return studentIds;\r\n    }\r\n\r\n    function getProposalInfo(uint256 classId, uint256 proposalId) public view returns(uint256[] memory, uint256) {\r\n        return (classes[classId].proposals[proposalId].votedIds, classes[classId].proposals[proposalId].voteforID);\r\n    } \r\n    \r\n}",
  "sourcePath": "E:\\\\paper\\DAO\\git-DAO\\v1\\Course-allocation\\project\\contracts\\IStudentVote.sol",
  "compiler": {
    "name": "solc",
    "version": "0.8.7+commit.e28d00a7.Emscripten.clang"
  },
  "schemaVersion": "3.4.16",
  "updatedAt": "2025-03-31T08:42:35.690Z",
  "networkType": "ethereum",
  "devdoc": {
    "kind": "dev",
    "methods": {},
    "version": 1
  },
  "userdoc": {
    "kind": "user",
    "methods": {},
    "version": 1
  }
}