{
  "contractName": "Myballot",
  "abi": [
    {
      "inputs": [
        {
          "internalType": "address[]",
          "name": "voteAddressList",
          "type": "address[]"
        }
      ],
      "stateMutability": "payable",
      "type": "constructor"
    },
    {
      "inputs": [
        {
          "internalType": "uint256",
          "name": "",
          "type": "uint256"
        }
      ],
      "name": "add_contrast_adress",
      "outputs": [
        {
          "internalType": "address",
          "name": "",
          "type": "address"
        }
      ],
      "stateMutability": "view",
      "type": "function"
    },
    {
      "inputs": [
        {
          "internalType": "uint256",
          "name": "",
          "type": "uint256"
        }
      ],
      "name": "proposals",
      "outputs": [
        {
          "internalType": "contract baseproposal",
          "name": "",
          "type": "address"
        }
      ],
      "stateMutability": "view",
      "type": "function"
    },
    {
      "inputs": [
        {
          "internalType": "uint256",
          "name": "",
          "type": "uint256"
        }
      ],
      "name": "voter_address",
      "outputs": [
        {
          "internalType": "address",
          "name": "",
          "type": "address"
        }
      ],
      "stateMutability": "view",
      "type": "function"
    },
    {
      "inputs": [
        {
          "internalType": "address",
          "name": "",
          "type": "address"
        }
      ],
      "name": "voters",
      "outputs": [
        {
          "internalType": "uint256",
          "name": "weight",
          "type": "uint256"
        },
        {
          "internalType": "address",
          "name": "delegate",
          "type": "address"
        }
      ],
      "stateMutability": "view",
      "type": "function"
    },
    {
      "inputs": [],
      "name": "proposalList",
      "outputs": [
        {
          "internalType": "contract baseproposal[]",
          "name": "",
          "type": "address[]"
        }
      ],
      "stateMutability": "view",
      "type": "function"
    },
    {
      "inputs": [
        {
          "internalType": "string",
          "name": "_name",
          "type": "string"
        },
        {
          "internalType": "string",
          "name": "_discription",
          "type": "string"
        },
        {
          "internalType": "uint8",
          "name": "_proposalKind",
          "type": "uint8"
        },
        {
          "internalType": "uint8",
          "name": "_proposalStatus",
          "type": "uint8"
        },
        {
          "internalType": "uint256",
          "name": "_startTime",
          "type": "uint256"
        },
        {
          "internalType": "uint256",
          "name": "_endTime",
          "type": "uint256"
        }
      ],
      "name": "createProposal",
      "outputs": [],
      "stateMutability": "nonpayable",
      "type": "function"
    },
    {
      "inputs": [
        {
          "internalType": "uint256",
          "name": "idx",
          "type": "uint256"
        },
        {
          "internalType": "enum Myballot.VoteChoice",
          "name": "chioce",
          "type": "uint8"
        }
      ],
      "name": "vote",
      "outputs": [],
      "stateMutability": "nonpayable",
      "type": "function"
    },
    {
      "inputs": [
        {
          "internalType": "uint256",
          "name": "idx",
          "type": "uint256"
        },
        {
          "internalType": "uint256",
          "name": "_allowFailureMap",
          "type": "uint256"
        }
      ],
      "name": "proposal_execute",
      "outputs": [
        {
          "internalType": "bytes[]",
          "name": "execResults",
          "type": "bytes[]"
        },
        {
          "internalType": "uint256",
          "name": "failureMap",
          "type": "uint256"
        }
      ],
      "stateMutability": "nonpayable",
      "type": "function"
    },
    {
      "inputs": [
        {
          "internalType": "uint256",
          "name": "idx",
          "type": "uint256"
        },
        {
          "internalType": "address",
          "name": "fuction_address",
          "type": "address"
        },
        {
          "internalType": "uint256",
          "name": "money",
          "type": "uint256"
        },
        {
          "internalType": "bytes",
          "name": "_data",
          "type": "bytes"
        }
      ],
      "name": "set_proposal_actions",
      "outputs": [],
      "stateMutability": "nonpayable",
      "type": "function"
    }
  ],
  "bytecode": "0x6080604052604051620049bf380380620049bf833981810160405281019062000029919062000245565b806001908051906020019062000041929190620000d2565b5060005b8151811015620000ca576001600260008484815181106200006b576200006a620003df565b5b602002602001015173ffffffffffffffffffffffffffffffffffffffff1673ffffffffffffffffffffffffffffffffffffffff168152602001908152602001600020600001819055508080620000c19062000362565b91505062000045565b50506200047c565b8280548282559060005260206000209081019282156200014e579160200282015b828111156200014d5782518260006101000a81548173ffffffffffffffffffffffffffffffffffffffff021916908373ffffffffffffffffffffffffffffffffffffffff16021790555091602001919060010190620000f3565b5b5090506200015d919062000161565b5090565b5b808211156200017c57600081600090555060010162000162565b5090565b6000620001976200019184620002bf565b62000296565b90508083825260208201905082856020860282011115620001bd57620001bc62000442565b5b60005b85811015620001f15781620001d68882620001fb565b845260208401935060208301925050600181019050620001c0565b5050509392505050565b6000815190506200020c8162000462565b92915050565b600082601f8301126200022a57620002296200043d565b5b81516200023c84826020860162000180565b91505092915050565b6000602082840312156200025e576200025d6200044c565b5b600082015167ffffffffffffffff8111156200027f576200027e62000447565b5b6200028d8482850162000212565b91505092915050565b6000620002a2620002b5565b9050620002b082826200032c565b919050565b6000604051905090565b600067ffffffffffffffff821115620002dd57620002dc6200040e565b5b602082029050602081019050919050565b6000620002fb8262000302565b9050919050565b600073ffffffffffffffffffffffffffffffffffffffff82169050919050565b6000819050919050565b620003378262000451565b810181811067ffffffffffffffff821117156200035957620003586200040e565b5b80604052505050565b60006200036f8262000322565b91507fffffffffffffffffffffffffffffffffffffffffffffffffffffffffffffffff821415620003a557620003a4620003b0565b5b600182019050919050565b7f4e487b7100000000000000000000000000000000000000000000000000000000600052601160045260246000fd5b7f4e487b7100000000000000000000000000000000000000000000000000000000600052603260045260246000fd5b7f4e487b7100000000000000000000000000000000000000000000000000000000600052604160045260246000fd5b600080fd5b600080fd5b600080fd5b600080fd5b6000601f19601f8301169050919050565b6200046d81620002ee565b81146200047957600080fd5b50565b614533806200048c6000396000f3fe60806040523480156200001157600080fd5b5060043610620000a05760003560e01c8063976a48e9116200006f578063976a48e9146200013d578063a3ec138d1462000173578063c6de0bc914620001aa578063e4804c7214620001e1578063fe130ad2146200021757620000a0565b8063013cf08b14620000a5578063042f0b9014620000db5780634438952414620000fb578063943e8216146200011d575b600080fd5b620000c36004803603810190620000bd91906200120b565b62000237565b604051620000d2919062001744565b60405180910390f35b620000f96004803603810190620000f3919062001131565b62000277565b005b620001056200041e565b60405162000114919062001720565b60405180910390f35b6200013b6004803603810190620001359190620012ce565b620004ae565b005b6200015b60048036038101906200015591906200120b565b62000b39565b6040516200016a9190620015e8565b60405180910390f35b6200019160048036038101906200018b919062001099565b62000b79565b604051620001a19291906200181d565b60405180910390f35b620001c86004803603810190620001c2919062001315565b62000bbd565b604051620001d8929190620016ec565b60405180910390f35b620001ff6004803603810190620001f991906200120b565b62000ca3565b6040516200020e9190620015e8565b60405180910390f35b6200023560048036038101906200022f91906200123d565b62000ce3565b005b600381815481106200024857600080fd5b906000526020600020016000915054906101000a900473ffffffffffffffffffffffffffffffffffffffff1681565b60008686868686866040516200028d9062000dcf565b6200029e9695949392919062001761565b604051809103906000f080158015620002bb573d6000803e3d6000fd5b5090506003819080600181540180825580915050600190039060005260206000200160009091909190916101000a81548173ffffffffffffffffffffffffffffffffffffffff021916908373ffffffffffffffffffffffffffffffffffffffff16021790555060005b60018054905081101562000414576000600182815481106200034b576200034a62001b8e565b5b9060005260206000200160009054906101000a900473ffffffffffffffffffffffffffffffffffffffff169050600260008273ffffffffffffffffffffffffffffffffffffffff1673ffffffffffffffffffffffffffffffffffffffff168152602001908152602001600020600101600090806001815401808255809150506001900390600052602060002090602091828204019190069091909190916101000a81548160ff0219169083151502179055505080806200040b9062001ae2565b91505062000324565b5050505050505050565b60606003805480602002602001604051908101604052809291908181526020018280548015620004a457602002820191906000526020600020905b8160009054906101000a900473ffffffffffffffffffffffffffffffffffffffff1673ffffffffffffffffffffffffffffffffffffffff168152602001906001019080831162000459575b5050505050905090565b60003390506001600260008373ffffffffffffffffffffffffffffffffffffffff1673ffffffffffffffffffffffffffffffffffffffff16815260200190815260200160002060010184815481106200050c576200050b62001b8e565b5b90600052602060002090602091828204019190066101000a81548160ff0219169083151502179055506000600260008373ffffffffffffffffffffffffffffffffffffffff1673ffffffffffffffffffffffffffffffffffffffff1681526020019081526020016000206000015490506003848154811062000593576200059262001b8e565b5b9060005260206000200160009054906101000a900473ffffffffffffffffffffffffffffffffffffffff1673ffffffffffffffffffffffffffffffffffffffff16631ea62323826040518263ffffffff1660e01b8152600401620005f8919062001800565b600060405180830381600087803b1580156200061357600080fd5b505af115801562000628573d6000803e3d6000fd5b505050506000600281111562000643576200064262001b5f565b5b83600281111562000659576200065862001b5f565b5b1415620007ae576003848154811062000677576200067662001b8e565b5b9060005260206000200160009054906101000a900473ffffffffffffffffffffffffffffffffffffffff1673ffffffffffffffffffffffffffffffffffffffff166379d623df8360016000806040518563ffffffff1660e01b8152600401620006e494939291906200169f565b600060405180830381600087803b158015620006ff57600080fd5b505af115801562000714573d6000803e3d6000fd5b505050506000600260008473ffffffffffffffffffffffffffffffffffffffff1673ffffffffffffffffffffffffffffffffffffffff168152602001908152602001600020600301858154811062000771576200077062001b8e565b5b90600052602060002090602091828204019190066101000a81548160ff02191690836002811115620007a857620007a762001b5f565b5b02179055505b60016002811115620007c557620007c462001b5f565b5b836002811115620007db57620007da62001b5f565b5b1415620009315760038481548110620007f957620007f862001b8e565b5b9060005260206000200160009054906101000a900473ffffffffffffffffffffffffffffffffffffffff1673ffffffffffffffffffffffffffffffffffffffff166379d623df836000600160006040518563ffffffff1660e01b815260040162000867949392919062001652565b600060405180830381600087803b1580156200088257600080fd5b505af115801562000897573d6000803e3d6000fd5b505050506001600260008473ffffffffffffffffffffffffffffffffffffffff1673ffffffffffffffffffffffffffffffffffffffff1681526020019081526020016000206003018581548110620008f457620008f362001b8e565b5b90600052602060002090602091828204019190066101000a81548160ff021916908360028111156200092b576200092a62001b5f565b5b02179055505b60028081111562000947576200094662001b5f565b5b8360028111156200095d576200095c62001b5f565b5b141562000ab157600384815481106200097b576200097a62001b8e565b5b9060005260206000200160009054906101000a900473ffffffffffffffffffffffffffffffffffffffff1673ffffffffffffffffffffffffffffffffffffffff166379d623df8360008060016040518563ffffffff1660e01b8152600401620009e8949392919062001605565b600060405180830381600087803b15801562000a0357600080fd5b505af115801562000a18573d6000803e3d6000fd5b5050505060028060008473ffffffffffffffffffffffffffffffffffffffff1673ffffffffffffffffffffffffffffffffffffffff168152602001908152602001600020600301858154811062000a745762000a7362001b8e565b5b90600052602060002090602091828204019190066101000a81548160ff0219169083600281111562000aab5762000aaa62001b5f565b5b02179055505b6001600260008473ffffffffffffffffffffffffffffffffffffffff1673ffffffffffffffffffffffffffffffffffffffff168152602001908152602001600020600101858154811062000b0a5762000b0962001b8e565b5b90600052602060002090602091828204019190066101000a81548160ff02191690831515021790555050505050565b6001818154811062000b4a57600080fd5b906000526020600020016000915054906101000a900473ffffffffffffffffffffffffffffffffffffffff1681565b60026020528060005260406000206000915090508060000154908060020160009054906101000a900473ffffffffffffffffffffffffffffffffffffffff16905082565b606060006003848154811062000bd85762000bd762001b8e565b5b9060005260206000200160009054906101000a900473ffffffffffffffffffffffffffffffffffffffff1673ffffffffffffffffffffffffffffffffffffffff166330ad2bc3846040518263ffffffff1660e01b815260040162000c3d919062001800565b600060405180830381600087803b15801562000c5857600080fd5b505af115801562000c6d573d6000803e3d6000fd5b505050506040513d6000823e3d601f19601f8201168201806040525081019062000c989190620010cb565b915091509250929050565b6000818154811062000cb457600080fd5b906000526020600020016000915054906101000a900473ffffffffffffffffffffffffffffffffffffffff1681565b600060405180606001604052808573ffffffffffffffffffffffffffffffffffffffff1681526020018481526020018381525090506003858154811062000d2f5762000d2e62001b8e565b5b9060005260206000200160009054906101000a900473ffffffffffffffffffffffffffffffffffffffff1673ffffffffffffffffffffffffffffffffffffffff1663367c317c826040518263ffffffff1660e01b815260040162000d949190620017dc565b600060405180830381600087803b15801562000daf57600080fd5b505af115801562000dc4573d6000803e3d6000fd5b505050505050505050565b6128888062001c7683390190565b600062000df462000dee8462001873565b6200184a565b9050808382526020820190508285602086028201111562000e1a5762000e1962001bf1565b5b60005b8581101562000e6f57815167ffffffffffffffff81111562000e445762000e4362001bec565b5b80860162000e53898262000fd7565b8552602085019450602084019350505060018101905062000e1d565b5050509392505050565b600062000e9062000e8a84620018a2565b6200184a565b90508281526020810184848401111562000eaf5762000eae62001bf6565b5b62000ebc84828562001a67565b509392505050565b600062000edb62000ed584620018a2565b6200184a565b90508281526020810184848401111562000efa5762000ef962001bf6565b5b62000f0784828562001a76565b509392505050565b600062000f2662000f2084620018d8565b6200184a565b90508281526020810184848401111562000f455762000f4462001bf6565b5b62000f5284828562001a67565b509392505050565b60008135905062000f6b8162001c16565b92915050565b600082601f83011262000f895762000f8862001bec565b5b815162000f9b84826020860162000ddd565b91505092915050565b600082601f83011262000fbc5762000fbb62001bec565b5b813562000fce84826020860162000e79565b91505092915050565b600082601f83011262000fef5762000fee62001bec565b5b81516200100184826020860162000ec4565b91505092915050565b6000813590506200101b8162001c30565b92915050565b600082601f83011262001039576200103862001bec565b5b81356200104b84826020860162000f0f565b91505092915050565b600081359050620010658162001c41565b92915050565b6000815190506200107c8162001c41565b92915050565b600081359050620010938162001c5b565b92915050565b600060208284031215620010b257620010b162001c00565b5b6000620010c28482850162000f5a565b91505092915050565b60008060408385031215620010e557620010e462001c00565b5b600083015167ffffffffffffffff81111562001106576200110562001bfb565b5b620011148582860162000f71565b925050602062001127858286016200106b565b9150509250929050565b60008060008060008060c0878903121562001151576200115062001c00565b5b600087013567ffffffffffffffff81111562001172576200117162001bfb565b5b6200118089828a0162001021565b965050602087013567ffffffffffffffff811115620011a457620011a362001bfb565b5b620011b289828a0162001021565b9550506040620011c589828a0162001082565b9450506060620011d889828a0162001082565b9350506080620011eb89828a0162001054565b92505060a0620011fe89828a0162001054565b9150509295509295509295565b60006020828403121562001224576200122362001c00565b5b6000620012348482850162001054565b91505092915050565b600080600080608085870312156200125a576200125962001c00565b5b60006200126a8782880162001054565b94505060206200127d8782880162000f5a565b9350506040620012908782880162001054565b925050606085013567ffffffffffffffff811115620012b457620012b362001bfb565b5b620012c28782880162000fa4565b91505092959194509250565b60008060408385031215620012e857620012e762001c00565b5b6000620012f88582860162001054565b92505060206200130b858286016200100a565b9150509250929050565b600080604083850312156200132f576200132e62001c00565b5b60006200133f8582860162001054565b9250506020620013528582860162001054565b9150509250929050565b60006200136a838362001499565b905092915050565b6000620013808383620014da565b60208301905092915050565b6200139781620019b8565b82525050565b620013a881620019b8565b82525050565b6000620013bb826200192e565b620013c7818562001985565b935083602082028501620013db856200190e565b8060005b858110156200141d5784840389528151620013fb85826200135c565b945062001408836200195a565b925060208a01995050600181019050620013df565b50829750879550505050505092915050565b60006200143c8262001939565b62001448818562001974565b935062001455836200191e565b8060005b838110156200148c57815162001470888262001372565b97506200147d8362001967565b92505060018101905062001459565b5085935050505092915050565b6000620014a68262001944565b620014b2818562001996565b9350620014c481856020860162001a76565b620014cf8162001c05565b840191505092915050565b620014e58162001a03565b82525050565b620014f68162001a03565b82525050565b620015078162001a17565b82525050565b620015188162001a2b565b82525050565b60006200152b826200194f565b620015378185620019a7565b93506200154981856020860162001a76565b620015548162001c05565b840191505092915050565b60006060830160008301516200157960008601826200138c565b5060208301516200158e6020860182620015b5565b5060408301518482036040860152620015a8828262001499565b9150508091505092915050565b620015c081620019ec565b82525050565b620015d181620019ec565b82525050565b620015e281620019f6565b82525050565b6000602082019050620015ff60008301846200139d565b92915050565b60006080820190506200161c60008301876200139d565b6200162b6020830186620014fc565b6200163a6040830185620014fc565b6200164960608301846200150d565b95945050505050565b60006080820190506200166960008301876200139d565b620016786020830186620014fc565b6200168760408301856200150d565b620016966060830184620014fc565b95945050505050565b6000608082019050620016b660008301876200139d565b620016c560208301866200150d565b620016d46040830185620014fc565b620016e36060830184620014fc565b95945050505050565b60006040820190508181036000830152620017088185620013ae565b9050620017196020830184620015c6565b9392505050565b600060208201905081810360008301526200173c81846200142f565b905092915050565b60006020820190506200175b6000830184620014eb565b92915050565b600060c08201905081810360008301526200177d81896200151e565b905081810360208301526200179381886200151e565b9050620017a46040830187620015d7565b620017b36060830186620015d7565b620017c26080830185620015c6565b620017d160a0830184620015c6565b979650505050505050565b60006020820190508181036000830152620017f881846200155f565b905092915050565b6000602082019050620018176000830184620015c6565b92915050565b6000604082019050620018346000830185620015c6565b6200184360208301846200139d565b9392505050565b60006200185662001869565b905062001864828262001aac565b919050565b6000604051905090565b600067ffffffffffffffff82111562001891576200189062001bbd565b5b602082029050602081019050919050565b600067ffffffffffffffff821115620018c057620018bf62001bbd565b5b620018cb8262001c05565b9050602081019050919050565b600067ffffffffffffffff821115620018f657620018f562001bbd565b5b620019018262001c05565b9050602081019050919050565b6000819050602082019050919050565b6000819050602082019050919050565b600081519050919050565b600081519050919050565b600081519050919050565b600081519050919050565b6000602082019050919050565b6000602082019050919050565b600082825260208201905092915050565b600082825260208201905092915050565b600082825260208201905092915050565b600082825260208201905092915050565b6000620019c582620019cc565b9050919050565b600073ffffffffffffffffffffffffffffffffffffffff82169050919050565b6000819050919050565b600060ff82169050919050565b600062001a108262001a3f565b9050919050565b600062001a2482620019f6565b9050919050565b600062001a3882620019f6565b9050919050565b600062001a4c8262001a53565b9050919050565b600062001a6082620019cc565b9050919050565b82818337600083830152505050565b60005b8381101562001a9657808201518184015260208101905062001a79565b8381111562001aa6576000848401525b50505050565b62001ab78262001c05565b810181811067ffffffffffffffff8211171562001ad95762001ad862001bbd565b5b80604052505050565b600062001aef82620019ec565b91507fffffffffffffffffffffffffffffffffffffffffffffffffffffffffffffffff82141562001b255762001b2462001b30565b5b600182019050919050565b7f4e487b7100000000000000000000000000000000000000000000000000000000600052601160045260246000fd5b7f4e487b7100000000000000000000000000000000000000000000000000000000600052602160045260246000fd5b7f4e487b7100000000000000000000000000000000000000000000000000000000600052603260045260246000fd5b7f4e487b7100000000000000000000000000000000000000000000000000000000600052604160045260246000fd5b600080fd5b600080fd5b600080fd5b600080fd5b600080fd5b6000601f19601f8301169050919050565b62001c2181620019b8565b811462001c2d57600080fd5b50565b6003811062001c3e57600080fd5b50565b62001c4c81620019ec565b811462001c5857600080fd5b50565b62001c6681620019f6565b811462001c7257600080fd5b5056fe60806040523480156200001157600080fd5b5060405162002888380380620028888339818101604052810190620000379190620002b4565b336000806101000a81548173ffffffffffffffffffffffffffffffffffffffff021916908373ffffffffffffffffffffffffffffffffffffffff16021790555085600190805190602001906200008f92919062000158565b508460029080519060200190620000a892919062000158565b508360ff166002811115620000c257620000c1620004a6565b5b600860016101000a81548160ff02191690836002811115620000e957620000e8620004a6565b5b02179055508260ff166006811115620001075762000106620004a6565b5b600860006101000a81548160ff021916908360068111156200012e576200012d620004a6565b5b0217905550816003819055508060048190555063ffffffff6007819055505050505050506200058c565b82805462000166906200043a565b90600052602060002090601f0160209004810192826200018a5760008555620001d6565b82601f10620001a557805160ff1916838001178555620001d6565b82800160010185558215620001d6579182015b82811115620001d5578251825591602001919060010190620001b8565b5b509050620001e59190620001e9565b5090565b5b8082111562000204576000816000905550600101620001ea565b5090565b60006200021f6200021984620003b7565b6200038e565b9050828152602081018484840111156200023e576200023d62000538565b5b6200024b84828562000404565b509392505050565b600082601f8301126200026b576200026a62000533565b5b81516200027d84826020860162000208565b91505092915050565b600081519050620002978162000558565b92915050565b600081519050620002ae8162000572565b92915050565b60008060008060008060c08789031215620002d457620002d362000542565b5b600087015167ffffffffffffffff811115620002f557620002f46200053d565b5b6200030389828a0162000253565b965050602087015167ffffffffffffffff8111156200032757620003266200053d565b5b6200033589828a0162000253565b95505060406200034889828a016200029d565b94505060606200035b89828a016200029d565b93505060806200036e89828a0162000286565b92505060a06200038189828a0162000286565b9150509295509295509295565b60006200039a620003ad565b9050620003a8828262000470565b919050565b6000604051905090565b600067ffffffffffffffff821115620003d557620003d462000504565b5b620003e08262000547565b9050602081019050919050565b6000819050919050565b600060ff82169050919050565b60005b838110156200042457808201518184015260208101905062000407565b8381111562000434576000848401525b50505050565b600060028204905060018216806200045357607f821691505b602082108114156200046a5762000469620004d5565b5b50919050565b6200047b8262000547565b810181811067ffffffffffffffff821117156200049d576200049c62000504565b5b80604052505050565b7f4e487b7100000000000000000000000000000000000000000000000000000000600052602160045260246000fd5b7f4e487b7100000000000000000000000000000000000000000000000000000000600052602260045260246000fd5b7f4e487b7100000000000000000000000000000000000000000000000000000000600052604160045260246000fd5b600080fd5b600080fd5b600080fd5b600080fd5b6000601f19601f8301169050919050565b6200056381620003ed565b81146200056f57600080fd5b50565b6200057d81620003f7565b81146200058957600080fd5b50565b6122ec806200059c6000396000f3fe608060405234801561001057600080fd5b50600436106101215760003560e01c80633ab37ba0116100ad578063a9b0446011610071578063a9b04460146102f8578063aea5df1614610314578063e53240b614610332578063ee1ef2b214610350578063f83eb3951461036c57610121565b80633ab37ba01461023f5780636dd7d8ea1461027057806378e97925146102a257806379d623df146102c05780638b2bd4a6146102dc57610121565b80632cefeb07116100f45780632cefeb071461019c57806330ad2bc3146101b85780633197cbb6146101e95780633329821714610207578063367c317c1461022357610121565b806302d05d3f1461012657806306fdde03146101445780630f01870b146101625780631ea6232314610180575b600080fd5b61012e610388565b60405161013b9190611b4e565b60405180910390f35b61014c6103ac565b6040516101599190611c7d565b60405180910390f35b61016a61043a565b6040516101779190611cdf565b60405180910390f35b61019a60048036038101906101959190611637565b610440565b005b6101b660048036038101906101b191906115a5565b61044a565b005b6101d260048036038101906101cd9190611637565b610464565b6040516101e0929190611c2b565b60405180910390f35b6101f161071e565b6040516101fe9190611cdf565b60405180910390f35b610221600480360381019061021c919061154b565b610724565b005b61023d600480360381019061023891906115ee565b610751565b005b610259600480360381019061025491906114ef565b6107f0565b604051610267929190611c2b565b60405180910390f35b61028a600480360381019061028591906113ac565b610a6f565b60405161029993929190611cfa565b60405180910390f35b6102aa610ac0565b6040516102b79190611cdf565b60405180910390f35b6102da60048036038101906102d59190611488565b610ac6565b005b6102f660048036038101906102f19190611578565b610bdd565b005b610312600480360381019061030d91906113d9565b610c0a565b005b61031c610cfe565b6040516103299190611c5b565b60405180910390f35b61033a610e4f565b6040516103479190611c7d565b60405180910390f35b61036a600480360381019061036591906115a5565b610edd565b005b61038660048036038101906103819190611419565b610ef7565b005b60008054906101000a900473ffffffffffffffffffffffffffffffffffffffff1681565b600180546103b990611fc1565b80601f01602080910402602001604051908101604052809291908181526020018280546103e590611fc1565b80156104325780601f1061040757610100808354040283529160200191610432565b820191906000526020600020905b81548152906001019060200180831161041557829003601f168201915b505050505081565b60055481565b8060058190555050565b8060019080519060200190610460929190610ffe565b5050565b6060600060068054905067ffffffffffffffff8111156104875761048661218c565b5b6040519080825280602002602001820160405280156104ba57816020015b60608152602001906001900390816104a55790505b50915060008060005b6006805490508110156106b6575a9250600080600683815481106104ea576104e961215d565b5b906000526020600020906003020160000160009054906101000a900473ffffffffffffffffffffffffffffffffffffffff1673ffffffffffffffffffffffffffffffffffffffff16600684815481106105465761054561215d565b5b9060005260206000209060030201600101546006858154811061056c5761056b61215d565b5b906000526020600020906003020160020160405161058a9190611b22565b60006040518083038185875af1925050503d80600081146105c7576040519150601f19603f3d011682016040523d82523d6000602084013e6105cc565b606091505b50915091505a93506105de8884610fce565b610629578161062457826040517fa6a7dbbd00000000000000000000000000000000000000000000000000000000815260040161061b9190611cdf565b60405180910390fd5b610682565b816106815760408561063b9190611edb565b841015610674576040517f1c26714c00000000000000000000000000000000000000000000000000000000815260040160405180910390fd5b61067e8684610fea565b95505b5b808784815181106106965761069561215d565b5b6020026020010181905250505080806106ae90612058565b9150506104c3565b507fdf4eb9388a298d4ffcfdf7f0c74dc60f7dbf6481fd0f774fae678d0ad102c24e60008054906101000a900473ffffffffffffffffffffffffffffffffffffffff16600687868860405161070f959493929190611bca565b60405180910390a15050915091565b60045481565b80600860016101000a81548160ff02191690836002811115610749576107486120ff565b5b021790555050565b600681908060018154018082558091505060019003906000526020600020906003020160009091909190915060008201518160000160006101000a81548173ffffffffffffffffffffffffffffffffffffffff021916908373ffffffffffffffffffffffffffffffffffffffff1602179055506020820151816001015560408201518160020190805190602001906107ea929190611084565b50505050565b60606000835167ffffffffffffffff81111561080f5761080e61218c565b5b60405190808252806020026020018201604052801561084257816020015b606081526020019060019003908161082d5790505b50915060008060005b8651811015610a06575a925060008088838151811061086d5761086c61215d565b5b60200260200101516000015173ffffffffffffffffffffffffffffffffffffffff168984815181106108a2576108a161215d565b5b6020026020010151602001518a85815181106108c1576108c061215d565b5b6020026020010151604001516040516108da9190611b0b565b60006040518083038185875af1925050503d8060008114610917576040519150601f19603f3d011682016040523d82523d6000602084013e61091c565b606091505b50915091505a935061092e8884610fce565b610979578161097457826040517fa6a7dbbd00000000000000000000000000000000000000000000000000000000815260040161096b9190611cdf565b60405180910390fd5b6109d2565b816109d15760408561098b9190611edb565b8410156109c4576040517f1c26714c00000000000000000000000000000000000000000000000000000000815260040160405180910390fd5b6109ce8684610fea565b95505b5b808784815181106109e6576109e561215d565b5b6020026020010181905250505080806109fe90612058565b91505061084b565b507fdf4eb9388a298d4ffcfdf7f0c74dc60f7dbf6481fd0f774fae678d0ad102c24e60008054906101000a900473ffffffffffffffffffffffffffffffffffffffff1687878688604051610a5e959493929190611b69565b60405180910390a150509250929050565b60096020528060005260406000206000915090508060000160009054906101000a900460ff16908060000160019054906101000a900460ff16908060000160029054906101000a900460ff16905083565b60035481565b82600960008673ffffffffffffffffffffffffffffffffffffffff1673ffffffffffffffffffffffffffffffffffffffff16815260200190815260200160002060000160006101000a81548160ff021916908360ff16021790555081600960008673ffffffffffffffffffffffffffffffffffffffff1673ffffffffffffffffffffffffffffffffffffffff16815260200190815260200160002060000160016101000a81548160ff021916908360ff16021790555080600960008673ffffffffffffffffffffffffffffffffffffffff1673ffffffffffffffffffffffffffffffffffffffff16815260200190815260200160002060000160026101000a81548160ff021916908360ff16021790555050505050565b80600860006101000a81548160ff02191690836006811115610c0257610c016120ff565b5b021790555050565b80471015610c4d576040517f08c379a0000000000000000000000000000000000000000000000000000000008152600401610c4490611cbf565b60405180910390fd5b60008273ffffffffffffffffffffffffffffffffffffffff1682604051610c7390611b39565b60006040518083038185875af1925050503d8060008114610cb0576040519150601f19603f3d011682016040523d82523d6000602084013e610cb5565b606091505b5050905080610cf9576040517f08c379a0000000000000000000000000000000000000000000000000000000008152600401610cf090611c9f565b60405180910390fd5b505050565b60606006805480602002602001604051908101604052809291908181526020016000905b82821015610e4657838290600052602060002090600302016040518060600160405290816000820160009054906101000a900473ffffffffffffffffffffffffffffffffffffffff1673ffffffffffffffffffffffffffffffffffffffff1673ffffffffffffffffffffffffffffffffffffffff16815260200160018201548152602001600282018054610db590611fc1565b80601f0160208091040260200160405190810160405280929190818152602001828054610de190611fc1565b8015610e2e5780601f10610e0357610100808354040283529160200191610e2e565b820191906000526020600020905b815481529060010190602001808311610e1157829003601f168201915b50505050508152505081526020019060010190610d22565b50505050905090565b60028054610e5c90611fc1565b80601f0160208091040260200160405190810160405280929190818152602001828054610e8890611fc1565b8015610ed55780601f10610eaa57610100808354040283529160200191610ed5565b820191906000526020600020905b815481529060010190602001808311610eb857829003601f168201915b505050505081565b8060029080519060200190610ef3929190610ffe565b5050565b600060405180606001604052808573ffffffffffffffffffffffffffffffffffffffff168152602001848152602001838152509050600681908060018154018082558091505060019003906000526020600020906003020160009091909190915060008201518160000160006101000a81548173ffffffffffffffffffffffffffffffffffffffff021916908373ffffffffffffffffffffffffffffffffffffffff160217905550602082015181600101556040820151816002019080519060200190610fc5929190611084565b50505050505050565b6000808260ff166001901b841690506000811191505092915050565b60008160ff166001901b8318905092915050565b82805461100a90611fc1565b90600052602060002090601f01602090048101928261102c5760008555611073565b82601f1061104557805160ff1916838001178555611073565b82800160010185558215611073579182015b82811115611072578251825591602001919060010190611057565b5b509050611080919061110a565b5090565b82805461109090611fc1565b90600052602060002090601f0160209004810192826110b257600085556110f9565b82601f106110cb57805160ff19168380011785556110f9565b828001600101855582156110f9579182015b828111156110f85782518255916020019190600101906110dd565b5b509050611106919061110a565b5090565b5b8082111561112357600081600090555060010161110b565b5090565b600061113a61113584611d56565b611d31565b9050808382526020820190508285602086028201111561115d5761115c6121ca565b5b60005b858110156111ab57813567ffffffffffffffff811115611183576111826121bb565b5b8086016111908982611302565b85526020850194506020840193505050600181019050611160565b5050509392505050565b60006111c86111c384611d82565b611d31565b9050828152602081018484840111156111e4576111e36121cf565b5b6111ef848285611f7f565b509392505050565b600061120a61120584611db3565b611d31565b905082815260208101848484011115611226576112256121cf565b5b611231848285611f7f565b509392505050565b60008135905061124881612251565b92915050565b600082601f830112611263576112626121bb565b5b8135611273848260208601611127565b91505092915050565b600082601f830112611291576112906121bb565b5b81356112a18482602086016111b5565b91505092915050565b6000813590506112b981612268565b92915050565b6000813590506112ce81612278565b92915050565b600082601f8301126112e9576112e86121bb565b5b81356112f98482602086016111f7565b91505092915050565b600060608284031215611318576113176121c0565b5b6113226060611d31565b9050600061133284828501611239565b600083015250602061134684828501611382565b602083015250604082013567ffffffffffffffff81111561136a576113696121c5565b5b6113768482850161127c565b60408301525092915050565b60008135905061139181612288565b92915050565b6000813590506113a68161229f565b92915050565b6000602082840312156113c2576113c16121d9565b5b60006113d084828501611239565b91505092915050565b600080604083850312156113f0576113ef6121d9565b5b60006113fe85828601611239565b925050602061140f85828601611382565b9150509250929050565b600080600060608486031215611432576114316121d9565b5b600061144086828701611239565b935050602061145186828701611382565b925050604084013567ffffffffffffffff811115611472576114716121d4565b5b61147e8682870161127c565b9150509250925092565b600080600080608085870312156114a2576114a16121d9565b5b60006114b087828801611239565b94505060206114c187828801611397565b93505060406114d287828801611397565b92505060606114e387828801611397565b91505092959194509250565b60008060408385031215611506576115056121d9565b5b600083013567ffffffffffffffff811115611524576115236121d4565b5b6115308582860161124e565b925050602061154185828601611382565b9150509250929050565b600060208284031215611561576115606121d9565b5b600061156f848285016112aa565b91505092915050565b60006020828403121561158e5761158d6121d9565b5b600061159c848285016112bf565b91505092915050565b6000602082840312156115bb576115ba6121d9565b5b600082013567ffffffffffffffff8111156115d9576115d86121d4565b5b6115e5848285016112d4565b91505092915050565b600060208284031215611604576116036121d9565b5b600082013567ffffffffffffffff811115611622576116216121d4565b5b61162e84828501611302565b91505092915050565b60006020828403121561164d5761164c6121d9565b5b600061165b84828501611382565b91505092915050565b6000611670838361181c565b905092915050565b60006116848383611a27565b905092915050565b60006116988383611a77565b905092915050565b6116a981611f36565b82525050565b6116b881611f36565b82525050565b60006116c982611e2e565b6116d38185611e8c565b9350836020820285016116e585611de4565b8060005b8581101561172157848403895281516117028582611664565b945061170d83611e65565b925060208a019950506001810190506116e9565b50829750879550505050505092915050565b600061173e82611e39565b6117488185611e9d565b93508360208202850161175a85611df4565b8060005b8581101561179657848403895281516117778582611678565b945061178283611e72565b925060208a0199505060018101905061175e565b50829750879550505050505092915050565b60006117b382611e44565b6117bd8185611e9d565b9350836020820285016117cf85611e04565b8060005b8581101561180a578484038952816117eb858261168c565b94506117f683611e7f565b925060208a019950506001810190506117d3565b50829750879550505050505092915050565b600061182782611e4f565b6118318185611eae565b9350611841818560208601611f8e565b61184a816121de565b840191505092915050565b600061186082611e4f565b61186a8185611ebf565b935061187a818560208601611f8e565b80840191505092915050565b6000815461189381611fc1565b61189d8186611eae565b945060018216600081146118b857600181146118ca576118fd565b60ff19831686526020860193506118fd565b6118d385611e19565b60005b838110156118f5578154818901526001820191506020810190506118d6565b808801955050505b50505092915050565b6000815461191381611fc1565b61191d8186611ebf565b9450600182166000811461193857600181146119495761197c565b60ff1983168652818601935061197c565b61195285611e19565b60005b8381101561197457815481890152600182019150602081019050611955565b838801955050505b50505092915050565b600061199082611e5a565b61199a8185611eca565b93506119aa818560208601611f8e565b6119b3816121de565b840191505092915050565b60006119cb600f83611eca565b91506119d6826121fc565b602082019050919050565b60006119ee600083611ebf565b91506119f982612225565b600082019050919050565b6000611a11601d83611eca565b9150611a1c82612228565b602082019050919050565b6000606083016000830151611a3f60008601826116a0565b506020830151611a526020860182611ade565b5060408301518482036040860152611a6a828261181c565b9150508091505092915050565b6000606083016000808401549050611a8e81611ff3565b611a9b60008701826116a0565b5060018401549050611aac8161200d565b611ab96020870182611ade565b50600284018583036040870152611ad08382611886565b925050819250505092915050565b611ae781611f68565b82525050565b611af681611f68565b82525050565b611b0581611f72565b82525050565b6000611b178284611855565b915081905092915050565b6000611b2e8284611906565b915081905092915050565b6000611b44826119e1565b9150819050919050565b6000602082019050611b6360008301846116af565b92915050565b600060a082019050611b7e60008301886116af565b8181036020830152611b908187611733565b9050611b9f6040830186611aed565b611bac6060830185611aed565b8181036080830152611bbe81846116be565b90509695505050505050565b600060a082019050611bdf60008301886116af565b8181036020830152611bf181876117a8565b9050611c006040830186611aed565b611c0d6060830185611aed565b8181036080830152611c1f81846116be565b90509695505050505050565b60006040820190508181036000830152611c4581856116be565b9050611c546020830184611aed565b9392505050565b60006020820190508181036000830152611c758184611733565b905092915050565b60006020820190508181036000830152611c978184611985565b905092915050565b60006020820190508181036000830152611cb8816119be565b9050919050565b60006020820190508181036000830152611cd881611a04565b9050919050565b6000602082019050611cf46000830184611aed565b92915050565b6000606082019050611d0f6000830186611afc565b611d1c6020830185611afc565b611d296040830184611afc565b949350505050565b6000611d3b611d4c565b9050611d478282612027565b919050565b6000604051905090565b600067ffffffffffffffff821115611d7157611d7061218c565b5b602082029050602081019050919050565b600067ffffffffffffffff821115611d9d57611d9c61218c565b5b611da6826121de565b9050602081019050919050565b600067ffffffffffffffff821115611dce57611dcd61218c565b5b611dd7826121de565b9050602081019050919050565b6000819050602082019050919050565b6000819050602082019050919050565b60008190508160005260206000209050919050565b60008190508160005260206000209050919050565b600081519050919050565b600081519050919050565b600081549050919050565b600081519050919050565b600081519050919050565b6000602082019050919050565b6000602082019050919050565b6000600382019050919050565b600082825260208201905092915050565b600082825260208201905092915050565b600082825260208201905092915050565b600081905092915050565b600082825260208201905092915050565b6000611ee682611f68565b9150611ef183611f68565b925082611f0157611f006120d0565b5b828204905092915050565b600073ffffffffffffffffffffffffffffffffffffffff82169050919050565b6000819050919050565b6000611f4182611f48565b9050919050565b600073ffffffffffffffffffffffffffffffffffffffff82169050919050565b6000819050919050565b600060ff82169050919050565b82818337600083830152505050565b60005b83811015611fac578082015181840152602081019050611f91565b83811115611fbb576000848401525b50505050565b60006002820490506001821680611fd957607f821691505b60208210811415611fed57611fec61212e565b5b50919050565b6000612006612001836121ef565b611f0c565b9050919050565b600061202061201b836121ef565b611f2c565b9050919050565b612030826121de565b810181811067ffffffffffffffff8211171561204f5761204e61218c565b5b80604052505050565b600061206382611f68565b91507fffffffffffffffffffffffffffffffffffffffffffffffffffffffffffffffff821415612096576120956120a1565b5b600182019050919050565b7f4e487b7100000000000000000000000000000000000000000000000000000000600052601160045260246000fd5b7f4e487b7100000000000000000000000000000000000000000000000000000000600052601260045260246000fd5b7f4e487b7100000000000000000000000000000000000000000000000000000000600052602160045260246000fd5b7f4e487b7100000000000000000000000000000000000000000000000000000000600052602260045260246000fd5b7f4e487b7100000000000000000000000000000000000000000000000000000000600052603260045260246000fd5b7f4e487b7100000000000000000000000000000000000000000000000000000000600052604160045260246000fd5b600080fd5b600080fd5b600080fd5b600080fd5b600080fd5b600080fd5b600080fd5b6000601f19601f8301169050919050565b60008160001c9050919050565b7f5472616e73666572206661696c65640000000000000000000000000000000000600082015250565b50565b7f496e73756666696369656e7420636f6e74726163742062616c616e6365000000600082015250565b61225a81611f36565b811461226557600080fd5b50565b6003811061227557600080fd5b50565b6007811061228557600080fd5b50565b61229181611f68565b811461229c57600080fd5b50565b6122a881611f72565b81146122b357600080fd5b5056fea26469706673582212205745e7f3f74ecdd916ca00be51572514e402899429f3b6b4186eb11b772a355d64736f6c63430008070033a264697066735822122052d9e3a54d1a1bccf479aa698ee273c61c66594557de83577249a359f9b72fa264736f6c63430008070033",
  "immutableReferences": {},
  "source": "// \r\n// SPDX-License-Identifier: GPL-3.0-or-later\r\n\r\n// \r\npragma solidity ^0.8.7;\r\nimport {Action,baseproposal} from \"./newContrasts/baseproposal.sol\";\r\nimport \"./Finance/finance.sol\";\r\n\r\ncontract Myballot {\r\n\r\n    // \r\n    struct Voter {\r\n        uint256 weight; // \r\n        bool[] voted; // \r\n        address delegate; //\r\n        VoteChoice[] choice; // \r\n    }\r\n\r\n    enum VoteChoice {\r\n        Approval,\r\n        Reject,\r\n        abstain\r\n    }\r\n\r\n    //  \r\n    address[] public add_contrast_adress;\r\n    // \r\n    address[] public voter_address;\r\n    mapping(address => Voter) public voters;\r\n    // \r\n    baseproposal[] public proposals;\r\n\r\n    // \r\n    constructor(address[] memory voteAddressList) payable {\r\n        // chairperson = msg.sender;\r\n        // \r\n        // voters[chairperson].weight = 1;\r\n        voter_address = voteAddressList;\r\n        for (uint256 i = 0; i < voteAddressList.length; i++) {\r\n            //   \r\n            voters[voteAddressList[i]].weight = 1;\r\n        }\r\n    }\r\n\r\n    // \r\n    function proposalList() public view returns (baseproposal[] memory) {\r\n        return proposals;\r\n    }\r\n\r\n    function createProposal(\r\n        string memory _name, \r\n        string memory _discription,\r\n        uint8 _proposalKind,\r\n        uint8 _proposalStatus,\r\n        uint _startTime,\r\n        uint _endTime\r\n    ) public {\r\n        baseproposal new_proposal = new baseproposal(\r\n            _name, _discription, _proposalKind, _proposalStatus, _startTime, _endTime\r\n        );\r\n        proposals.push(new_proposal);\r\n        for (uint256 i = 0; i < voter_address.length; i++) {\r\n            //   \r\n            address now_address = voter_address[i];\r\n            voters[now_address].voted.push(false);\r\n        }\r\n    }\r\n\r\n    function vote(uint256 idx, VoteChoice chioce) public{\r\n        address now_address = msg.sender;\r\n        voters[now_address].voted[idx] = true;\r\n        uint256 now_weight = voters[now_address].weight;\r\n        proposals[idx].setvoteCounts(now_weight);\r\n        if(chioce == VoteChoice.Approval){\r\n            proposals[idx].setvote(now_address,1,0,0);\r\n            voters[now_address].choice[idx] = VoteChoice.Approval;\r\n        }\r\n        if(chioce == VoteChoice.Reject){\r\n            proposals[idx].setvote(now_address,0,1,0);\r\n            voters[now_address].choice[idx] = VoteChoice.Reject;\r\n        }\r\n        if(chioce == VoteChoice.abstain){\r\n            proposals[idx].setvote(now_address,0,0,1);\r\n            voters[now_address].choice[idx] = VoteChoice.abstain;\r\n        }\r\n        voters[now_address].voted[idx] = true;\r\n    }\r\n\r\n    function proposal_execute(\r\n        uint256 idx,\r\n        uint256 _allowFailureMap\r\n    )public returns(bytes[] memory execResults, uint256 failureMap){\r\n        return proposals[idx].execute_actions(_allowFailureMap);\r\n    }\r\n\r\n        function set_proposal_actions(\r\n        uint256 idx,\r\n        address fuction_address, \r\n        uint256 money,\r\n        bytes memory _data // abi encode ) public{\r\n    )public{\r\n        Action memory action = Action({\r\n            to: fuction_address,\r\n            value: money,\r\n            data: _data\r\n        });\r\n        proposals[idx].addactions(action);\r\n    }\r\n}\r\n/*\r\n\r\nMyballot.deployed().then(instance => {console.log(instance.address) });\r\n\r\n['0x1EE2795f42BD4CD585DF085Bd307738ADe8A4Ed8', '0xECAe3e72a037485B6CC9c457DAC623CEC627BDae', '0xEEc343857BbC1A64e992A8F7598E052847E7c51E']\r\n\r\n*/",
  "sourcePath": "E:\\\\paper\\DAO\\test\\project\\contracts\\Myballot.sol",
  "compiler": {
    "name": "solc",
    "version": "0.8.7+commit.e28d00a7.Emscripten.clang"
  },
  "schemaVersion": "3.4.16",
  "updatedAt": "2025-03-10T08:20:52.130Z",
  "devdoc": {
    "kind": "dev",
    "methods": {},
    "version": 1
  },
  "userdoc": {
    "kind": "user",
    "methods": {},
    "version": 1
  }
}