{
  "contractName": "MyToken",
  "abi": [
    {
      "inputs": [
        {
          "internalType": "address",
          "name": "initialMinter",
          "type": "address"
        }
      ],
      "stateMutability": "nonpayable",
      "type": "constructor"
    },
    {
      "anonymous": false,
      "inputs": [
        {
          "indexed": true,
          "internalType": "address",
          "name": "owner",
          "type": "address"
        },
        {
          "indexed": true,
          "internalType": "address",
          "name": "spender",
          "type": "address"
        },
        {
          "indexed": false,
          "internalType": "uint256",
          "name": "value",
          "type": "uint256"
        }
      ],
      "name": "Approval",
      "type": "event"
    },
    {
      "anonymous": false,
      "inputs": [
        {
          "indexed": true,
          "internalType": "address",
          "name": "from",
          "type": "address"
        },
        {
          "indexed": true,
          "internalType": "address",
          "name": "to",
          "type": "address"
        },
        {
          "indexed": false,
          "internalType": "uint256",
          "name": "value",
          "type": "uint256"
        }
      ],
      "name": "Transfer",
      "type": "event"
    },
    {
      "inputs": [
        {
          "internalType": "address",
          "name": "",
          "type": "address"
        },
        {
          "internalType": "address",
          "name": "",
          "type": "address"
        }
      ],
      "name": "allowance",
      "outputs": [
        {
          "internalType": "uint256",
          "name": "",
          "type": "uint256"
        }
      ],
      "stateMutability": "view",
      "type": "function"
    },
    {
      "inputs": [
        {
          "internalType": "address",
          "name": "",
          "type": "address"
        }
      ],
      "name": "balanceOf",
      "outputs": [
        {
          "internalType": "uint256",
          "name": "",
          "type": "uint256"
        }
      ],
      "stateMutability": "view",
      "type": "function"
    },
    {
      "inputs": [],
      "name": "name",
      "outputs": [
        {
          "internalType": "string",
          "name": "",
          "type": "string"
        }
      ],
      "stateMutability": "view",
      "type": "function"
    },
    {
      "inputs": [],
      "name": "symbol",
      "outputs": [
        {
          "internalType": "string",
          "name": "",
          "type": "string"
        }
      ],
      "stateMutability": "view",
      "type": "function"
    },
    {
      "inputs": [],
      "name": "totalSupply",
      "outputs": [
        {
          "internalType": "uint256",
          "name": "",
          "type": "uint256"
        }
      ],
      "stateMutability": "view",
      "type": "function"
    },
    {
      "inputs": [],
      "name": "getChainId",
      "outputs": [
        {
          "internalType": "uint256",
          "name": "chainId",
          "type": "uint256"
        }
      ],
      "stateMutability": "view",
      "type": "function"
    },
    {
      "inputs": [
        {
          "internalType": "address",
          "name": "to",
          "type": "address"
        },
        {
          "internalType": "uint256",
          "name": "value",
          "type": "uint256"
        }
      ],
      "name": "mint",
      "outputs": [
        {
          "internalType": "bool",
          "name": "",
          "type": "bool"
        }
      ],
      "stateMutability": "nonpayable",
      "type": "function"
    },
    {
      "inputs": [
        {
          "internalType": "uint256",
          "name": "value",
          "type": "uint256"
        }
      ],
      "name": "burn",
      "outputs": [
        {
          "internalType": "bool",
          "name": "",
          "type": "bool"
        }
      ],
      "stateMutability": "nonpayable",
      "type": "function"
    },
    {
      "inputs": [
        {
          "internalType": "address",
          "name": "spender",
          "type": "address"
        },
        {
          "internalType": "uint256",
          "name": "value",
          "type": "uint256"
        }
      ],
      "name": "approve",
      "outputs": [
        {
          "internalType": "bool",
          "name": "",
          "type": "bool"
        }
      ],
      "stateMutability": "nonpayable",
      "type": "function"
    },
    {
      "inputs": [
        {
          "internalType": "address",
          "name": "to",
          "type": "address"
        },
        {
          "internalType": "uint256",
          "name": "value",
          "type": "uint256"
        }
      ],
      "name": "transfer",
      "outputs": [
        {
          "internalType": "bool",
          "name": "",
          "type": "bool"
        }
      ],
      "stateMutability": "nonpayable",
      "type": "function"
    },
    {
      "inputs": [
        {
          "internalType": "address",
          "name": "from",
          "type": "address"
        },
        {
          "internalType": "address",
          "name": "to",
          "type": "address"
        },
        {
          "internalType": "uint256",
          "name": "value",
          "type": "uint256"
        }
      ],
      "name": "transferFrom",
      "outputs": [
        {
          "internalType": "bool",
          "name": "",
          "type": "bool"
        }
      ],
      "stateMutability": "nonpayable",
      "type": "function"
    }
  ],
  "bytecode": "0x60806040523480156200001157600080fd5b50604051620010eb380380620010eb833981810160405281019062000037919062000055565b50620000da565b6000815190506200004f81620000c0565b92915050565b6000602082840312156200006e576200006d620000bb565b5b60006200007e848285016200003e565b91505092915050565b600062000094826200009b565b9050919050565b600073ffffffffffffffffffffffffffffffffffffffff82169050919050565b600080fd5b620000cb8162000087565b8114620000d757600080fd5b50565b61100180620000ea6000396000f3fe608060405234801561001057600080fd5b50600436106100a95760003560e01c806340c10f191161007157806340c10f191461016857806342966c681461019857806370a08231146101c857806395d89b41146101f8578063a9059cbb14610216578063dd62ed3e14610246576100a9565b806306fdde03146100ae578063095ea7b3146100cc57806318160ddd146100fc57806323b872dd1461011a5780633408e4701461014a575b600080fd5b6100b6610276565b6040516100c39190610d1f565b60405180910390f35b6100e660048036038101906100e19190610bd7565b6102af565b6040516100f39190610d04565b60405180910390f35b6101046102c6565b6040516101119190610da1565b60405180910390f35b610134600480360381019061012f9190610b84565b6102cc565b6040516101419190610d04565b60405180910390f35b610152610420565b60405161015f9190610da1565b60405180910390f35b610182600480360381019061017d9190610bd7565b610428565b60405161018f9190610d04565b60405180910390f35b6101b260048036038101906101ad9190610c17565b61043e565b6040516101bf9190610d04565b60405180910390f35b6101e260048036038101906101dd9190610b17565b610453565b6040516101ef9190610da1565b60405180910390f35b61020061046b565b60405161020d9190610d1f565b60405180910390f35b610230600480360381019061022b9190610bd7565b6104a4565b60405161023d9190610d04565b60405180910390f35b610260600480360381019061025b9190610b44565b6104bb565b60405161026d9190610da1565b60405180910390f35b6040518060400160405280601481526020017f417261676f6e204e6574776f726b20546f6b656e00000000000000000000000081525081565b60006102bc3384846104e0565b6001905092915050565b60005481565b600080600260008673ffffffffffffffffffffffffffffffffffffffff1673ffffffffffffffffffffffffffffffffffffffff16815260200190815260200160002060003373ffffffffffffffffffffffffffffffffffffffff1673ffffffffffffffffffffffffffffffffffffffff1681526020019081526020016000205490507fffffffffffffffffffffffffffffffffffffffffffffffffffffffffffffffff81146104095761038883826105cb90919063ffffffff16565b600260008773ffffffffffffffffffffffffffffffffffffffff1673ffffffffffffffffffffffffffffffffffffffff16815260200190815260200160002060003373ffffffffffffffffffffffffffffffffffffffff1673ffffffffffffffffffffffffffffffffffffffff168152602001908152602001600020819055505b610414858585610624565b60019150509392505050565b600046905090565b60006104348383610860565b6001905092915050565b600061044a338361097a565b60019050919050565b60016020528060005260406000206000915090505481565b6040518060400160405280600381526020017f414e54000000000000000000000000000000000000000000000000000000000081525081565b60006104b1338484610624565b6001905092915050565b6002602052816000526040600020602052806000526040600020600091509150505481565b80600260008573ffffffffffffffffffffffffffffffffffffffff1673ffffffffffffffffffffffffffffffffffffffff16815260200190815260200160002060008473ffffffffffffffffffffffffffffffffffffffff1673ffffffffffffffffffffffffffffffffffffffff168152602001908152602001600020819055508173ffffffffffffffffffffffffffffffffffffffff168373ffffffffffffffffffffffffffffffffffffffff167f8c5be1e5ebec7d5bd14f71427d1e84f3dd0314c0f7b2291e5b200ac8c7c3b925836040516105be9190610da1565b60405180910390a3505050565b60008282846105da9190610e2e565b915081111561061e576040517f08c379a000000000000000000000000000000000000000000000000000000000815260040161061590610d61565b60405180910390fd5b92915050565b3073ffffffffffffffffffffffffffffffffffffffff168273ffffffffffffffffffffffffffffffffffffffff161415801561068d5750600073ffffffffffffffffffffffffffffffffffffffff168273ffffffffffffffffffffffffffffffffffffffff1614155b6106cc576040517f08c379a00000000000000000000000000000000000000000000000000000000081526004016106c390610d81565b60405180910390fd5b61071e81600160008673ffffffffffffffffffffffffffffffffffffffff1673ffffffffffffffffffffffffffffffffffffffff168152602001908152602001600020546105cb90919063ffffffff16565b600160008573ffffffffffffffffffffffffffffffffffffffff1673ffffffffffffffffffffffffffffffffffffffff168152602001908152602001600020819055506107b381600160008573ffffffffffffffffffffffffffffffffffffffff1673ffffffffffffffffffffffffffffffffffffffff16815260200190815260200160002054610a9490919063ffffffff16565b600160008473ffffffffffffffffffffffffffffffffffffffff1673ffffffffffffffffffffffffffffffffffffffff168152602001908152602001600020819055508173ffffffffffffffffffffffffffffffffffffffff168373ffffffffffffffffffffffffffffffffffffffff167fddf252ad1be2c89b69c2b068fc378daa952ba7f163c4a11628f55a4df523b3ef836040516108539190610da1565b60405180910390a3505050565b61087581600054610a9490919063ffffffff16565b6000819055506108cd81600160008573ffffffffffffffffffffffffffffffffffffffff1673ffffffffffffffffffffffffffffffffffffffff16815260200190815260200160002054610a9490919063ffffffff16565b600160008473ffffffffffffffffffffffffffffffffffffffff1673ffffffffffffffffffffffffffffffffffffffff168152602001908152602001600020819055508173ffffffffffffffffffffffffffffffffffffffff16600073ffffffffffffffffffffffffffffffffffffffff167fddf252ad1be2c89b69c2b068fc378daa952ba7f163c4a11628f55a4df523b3ef8360405161096e9190610da1565b60405180910390a35050565b6109cc81600160008573ffffffffffffffffffffffffffffffffffffffff1673ffffffffffffffffffffffffffffffffffffffff168152602001908152602001600020546105cb90919063ffffffff16565b600160008473ffffffffffffffffffffffffffffffffffffffff1673ffffffffffffffffffffffffffffffffffffffff16815260200190815260200160002081905550610a24816000546105cb90919063ffffffff16565b600081905550600073ffffffffffffffffffffffffffffffffffffffff168273ffffffffffffffffffffffffffffffffffffffff167fddf252ad1be2c89b69c2b068fc378daa952ba7f163c4a11628f55a4df523b3ef83604051610a889190610da1565b60405180910390a35050565b6000828284610aa39190610dd8565b9150811015610ae7576040517f08c379a0000000000000000000000000000000000000000000000000000000008152600401610ade90610d41565b60405180910390fd5b92915050565b600081359050610afc81610f9d565b92915050565b600081359050610b1181610fb4565b92915050565b600060208284031215610b2d57610b2c610f0c565b5b6000610b3b84828501610aed565b91505092915050565b60008060408385031215610b5b57610b5a610f0c565b5b6000610b6985828601610aed565b9250506020610b7a85828601610aed565b9150509250929050565b600080600060608486031215610b9d57610b9c610f0c565b5b6000610bab86828701610aed565b9350506020610bbc86828701610aed565b9250506040610bcd86828701610b02565b9150509250925092565b60008060408385031215610bee57610bed610f0c565b5b6000610bfc85828601610aed565b9250506020610c0d85828601610b02565b9150509250929050565b600060208284031215610c2d57610c2c610f0c565b5b6000610c3b84828501610b02565b91505092915050565b610c4d81610e74565b82525050565b6000610c5e82610dbc565b610c688185610dc7565b9350610c78818560208601610eaa565b610c8181610f11565b840191505092915050565b6000610c99601183610dc7565b9150610ca482610f22565b602082019050919050565b6000610cbc601283610dc7565b9150610cc782610f4b565b602082019050919050565b6000610cdf601f83610dc7565b9150610cea82610f74565b602082019050919050565b610cfe81610ea0565b82525050565b6000602082019050610d196000830184610c44565b92915050565b60006020820190508181036000830152610d398184610c53565b905092915050565b60006020820190508181036000830152610d5a81610c8c565b9050919050565b60006020820190508181036000830152610d7a81610caf565b9050919050565b60006020820190508181036000830152610d9a81610cd2565b9050919050565b6000602082019050610db66000830184610cf5565b92915050565b600081519050919050565b600082825260208201905092915050565b6000610de382610ea0565b9150610dee83610ea0565b9250827fffffffffffffffffffffffffffffffffffffffffffffffffffffffffffffffff03821115610e2357610e22610edd565b5b828201905092915050565b6000610e3982610ea0565b9150610e4483610ea0565b925082821015610e5757610e56610edd565b5b828203905092915050565b6000610e6d82610e80565b9050919050565b60008115159050919050565b600073ffffffffffffffffffffffffffffffffffffffff82169050919050565b6000819050919050565b60005b83811015610ec8578082015181840152602081019050610ead565b83811115610ed7576000848401525b50505050565b7f4e487b7100000000000000000000000000000000000000000000000000000000600052601160045260246000fd5b600080fd5b6000601f19601f8301169050919050565b7f4d4154483a4144445f4f564552464c4f57000000000000000000000000000000600082015250565b7f4d4154483a5355425f554e444552464c4f570000000000000000000000000000600082015250565b7f414e5456323a52454345495645525f49535f544f4b454e5f4f525f5a45524f00600082015250565b610fa681610e62565b8114610fb157600080fd5b50565b610fbd81610ea0565b8114610fc857600080fd5b5056fea2646970667358221220ad6b5aac800c4d8a479326e168830e8cd86952c9ecea1cf575de9e02aa1cc9f764736f6c63430008070033",
  "immutableReferences": {},
  "source": "// \r\n// SPDX-License-Identifier: GPL-3.0-or-later\r\n\r\n// \r\npragma solidity ^0.8.7;\r\n\r\nimport './libraries/SafeMath.sol';\r\n\r\ncontract MyToken {\r\n    using SafeMath for uint256;\r\n\r\n    string public constant name = \"Aragon Network Token\";\r\n    string public constant symbol = \"ANT\";\r\n\r\n    // address public minter;\r\n    uint256 public totalSupply;\r\n    mapping (address => uint256) public balanceOf;\r\n    mapping (address => mapping (address => uint256)) public allowance;\r\n\r\n    uint256 constant MAX_UINT256 = type(uint256).max;\r\n\r\n    event Approval(address indexed owner, address indexed spender, uint256 value);\r\n    event Transfer(address indexed from, address indexed to, uint256 value);\r\n    // modifier onlyMinter {\r\n    //     require(msg.sender == minter, \"ANTV2:NOT_MINTER\");\r\n    //     _;\r\n    // }\r\n\r\n    constructor(address initialMinter){\r\n    }\r\n\r\n    // function _changeMinter(address newMinter) internal {\r\n    //     minter = newMinter;\r\n    //     emit ChangeMinter(newMinter);\r\n    // }\r\n\r\n    function _mint(address to, uint256 value) internal {\r\n        totalSupply = totalSupply.add(value);\r\n        balanceOf[to] = balanceOf[to].add(value);\r\n        emit Transfer(address(0), to, value);\r\n    }\r\n\r\n    function _burn(address from, uint value) internal {\r\n        // Balance is implicitly checked with SafeMath's underflow protection\r\n        balanceOf[from] = balanceOf[from].sub(value);\r\n        totalSupply = totalSupply.sub(value);\r\n        emit Transfer(from, address(0), value);\r\n    }\r\n\r\n    function _approve(address owner, address spender, uint256 value) private {\r\n        allowance[owner][spender] = value;\r\n        emit Approval(owner, spender, value);\r\n    }\r\n\r\n    function _transfer(address from, address to, uint256 value) private {\r\n        require(to != address(this) && to != address(0), \"ANTV2:RECEIVER_IS_TOKEN_OR_ZERO\");\r\n\r\n        // Balance is implicitly checked with SafeMath's underflow protection\r\n        balanceOf[from] = balanceOf[from].sub(value);\r\n        balanceOf[to] = balanceOf[to].add(value);\r\n        emit Transfer(from, to, value);\r\n    }\r\n\r\n    function getChainId() public view returns (uint256 chainId) {\r\n        assembly { chainId := chainid() }\r\n    }\r\n\r\n    function mint(address to, uint256 value) external returns (bool) {\r\n        _mint(to, value);\r\n        return true;\r\n    }\r\n\r\n    // function changeMinter(address newMinter) external onlyMinter {\r\n    //     _changeMinter(newMinter);\r\n    // }\r\n\r\n    function burn(uint256 value) external returns (bool) {\r\n        _burn(msg.sender, value);\r\n        return true;\r\n    }\r\n\r\n    function approve(address spender, uint256 value) external returns (bool) {\r\n        _approve(msg.sender, spender, value);\r\n        return true;\r\n    }\r\n\r\n    function transfer(address to, uint256 value) external returns (bool) {\r\n        _transfer(msg.sender, to, value);\r\n        return true;\r\n    }\r\n\r\n    function transferFrom(address from, address to, uint256 value) external returns (bool) {\r\n        uint256 fromAllowance = allowance[from][msg.sender];\r\n        if (fromAllowance != MAX_UINT256) {\r\n            // Allowance is implicitly checked with SafeMath's underflow protection\r\n            allowance[from][msg.sender] = fromAllowance.sub(value);\r\n        }\r\n        _transfer(from, to, value);\r\n        return true;\r\n    }\r\n\r\n}",
  "sourcePath": "E:\\\\paper\\DAO\\test\\project\\contracts\\Token\\MyToken.sol",
  "compiler": {
    "name": "solc",
    "version": "0.8.7+commit.e28d00a7.Emscripten.clang"
  },
  "schemaVersion": "3.4.16",
  "updatedAt": "2025-03-10T08:22:31.348Z",
  "devdoc": {
    "kind": "dev",
    "methods": {},
    "version": 1
  },
  "userdoc": {
    "kind": "user",
    "methods": {},
    "version": 1
  }
}