{
  "contractName": "PunchCard",
  "abi": [
    {
      "inputs": [],
      "stateMutability": "nonpayable",
      "type": "constructor"
    },
    {
      "inputs": [
        {
          "internalType": "uint256",
          "name": "",
          "type": "uint256"
        }
      ],
      "name": "achievers",
      "outputs": [
        {
          "internalType": "address",
          "name": "addr",
          "type": "address"
        },
        {
          "internalType": "address payable",
          "name": "sender",
          "type": "address"
        },
        {
          "internalType": "uint256",
          "name": "money",
          "type": "uint256"
        }
      ],
      "stateMutability": "view",
      "type": "function"
    },
    {
      "inputs": [],
      "name": "beginTime",
      "outputs": [
        {
          "internalType": "uint256",
          "name": "",
          "type": "uint256"
        }
      ],
      "stateMutability": "view",
      "type": "function"
    },
    {
      "inputs": [
        {
          "internalType": "address",
          "name": "",
          "type": "address"
        }
      ],
      "name": "participators",
      "outputs": [
        {
          "internalType": "uint256",
          "name": "beginTime",
          "type": "uint256"
        },
        {
          "internalType": "uint256",
          "name": "money",
          "type": "uint256"
        },
        {
          "internalType": "uint256",
          "name": "punchTimes",
          "type": "uint256"
        }
      ],
      "stateMutability": "view",
      "type": "function"
    },
    {
      "inputs": [],
      "name": "succeedAmount",
      "outputs": [
        {
          "internalType": "uint256",
          "name": "",
          "type": "uint256"
        }
      ],
      "stateMutability": "view",
      "type": "function"
    },
    {
      "inputs": [],
      "name": "sumOfMoneyOfpunched",
      "outputs": [
        {
          "internalType": "uint256",
          "name": "",
          "type": "uint256"
        }
      ],
      "stateMutability": "view",
      "type": "function"
    },
    {
      "inputs": [],
      "name": "week",
      "outputs": [
        {
          "internalType": "uint256",
          "name": "",
          "type": "uint256"
        }
      ],
      "stateMutability": "view",
      "type": "function"
    },
    {
      "inputs": [],
      "name": "join",
      "outputs": [],
      "stateMutability": "payable",
      "type": "function"
    },
    {
      "inputs": [],
      "name": "punchIn",
      "outputs": [],
      "stateMutability": "nonpayable",
      "type": "function"
    },
    {
      "inputs": [],
      "name": "reset",
      "outputs": [],
      "stateMutability": "nonpayable",
      "type": "function"
    },
    {
      "inputs": [
        {
          "internalType": "uint256",
          "name": "i",
          "type": "uint256"
        }
      ],
      "name": "ifPunched",
      "outputs": [
        {
          "internalType": "bool",
          "name": "",
          "type": "bool"
        }
      ],
      "stateMutability": "view",
      "type": "function"
    },
    {
      "inputs": [],
      "name": "getCurrentTime",
      "outputs": [
        {
          "internalType": "uint256",
          "name": "",
          "type": "uint256"
        }
      ],
      "stateMutability": "view",
      "type": "function"
    }
  ],
  "bytecode": "0x60806040526000600355600060045534801561001a57600080fd5b50426000819055506115c4806100316000396000f3fe60806040526004361061009c5760003560e01c806368c22da41161006457806368c22da41461018c5780636ca7f2fe146101c957806388149fb9146101e0578063b688a3631461020b578063d2e5cff014610215578063d826f88f146102545761009c565b806325993370146100a157806329cb924d146100cc5780632d38bacf146100f75780633a372c94146101225780634995b45814610161575b600080fd5b3480156100ad57600080fd5b506100b661026b565b6040516100c3919061110e565b60405180910390f35b3480156100d857600080fd5b506100e1610271565b6040516100ee919061110e565b60405180910390f35b34801561010357600080fd5b5061010c610279565b604051610119919061110e565b60405180910390f35b34801561012e57600080fd5b5061014960048036038101906101449190610e51565b61027f565b60405161015893929190611129565b60405180910390f35b34801561016d57600080fd5b506101766102a9565b604051610183919061110e565b60405180910390f35b34801561019857600080fd5b506101b360048036038101906101ae9190610e7e565b6102af565b6040516101c09190611013565b60405180910390f35b3480156101d557600080fd5b506101de610322565b005b3480156101ec57600080fd5b506101f56108a0565b604051610202919061110e565b60405180910390f35b6102136108a6565b005b34801561022157600080fd5b5061023c60048036038101906102379190610e7e565b610a95565b60405161024b93929190610fdc565b60405180910390f35b34801561026057600080fd5b50610269610b0f565b005b60045481565b600042905090565b60035481565b60016020528060005260406000206000915090508060000154908060010154908060020154905083565b60055481565b6000600160003373ffffffffffffffffffffffffffffffffffffffff1673ffffffffffffffffffffffffffffffffffffffff1681526020019081526020016000206003018260078110610305576103046113e7565b5b602091828204019190069054906101000a900460ff169050919050565b601e603c600054426103349190611252565b61033e9190611329565b1161037e576040517f08c379a0000000000000000000000000000000000000000000000000000000008152600401610375906110ae565b60405180910390fd5b6101a46000544261038f9190611252565b11156103d0576040517f08c379a00000000000000000000000000000000000000000000000000000000081526004016103c7906110ce565b60405180910390fd5b600054600160003373ffffffffffffffffffffffffffffffffffffffff1673ffffffffffffffffffffffffffffffffffffffff1681526020019081526020016000206000015414610456576040517f08c379a000000000000000000000000000000000000000000000000000000000815260040161044d9061102e565b60405180910390fd5b6000429050603c6000548261046b9190611252565b61047591906111c7565b600581905550600160003373ffffffffffffffffffffffffffffffffffffffff1673ffffffffffffffffffffffffffffffffffffffff168152602001908152602001600020600301600554600781106104d1576104d06113e7565b5b602091828204019190069054906101000a900460ff1615610527576040517f08c379a000000000000000000000000000000000000000000000000000000000815260040161051e9061106e565b60405180910390fd5b60018060003373ffffffffffffffffffffffffffffffffffffffff1673ffffffffffffffffffffffffffffffffffffffff1681526020019081526020016000206003016005546007811061057e5761057d6113e7565b5b602091828204019190066101000a81548160ff021916908315150217905550600160003373ffffffffffffffffffffffffffffffffffffffff1673ffffffffffffffffffffffffffffffffffffffff16815260200190815260200160002060020160008154809291906105f0906112e0565b919050555060003390508073ffffffffffffffffffffffffffffffffffffffff166108fc6007600160003373ffffffffffffffffffffffffffffffffffffffff1673ffffffffffffffffffffffffffffffffffffffff1681526020019081526020016000206001015461066391906111c7565b9081150290604051600060405180830381858888f1935050505015801561068e573d6000803e3d6000fd5b506007600160003373ffffffffffffffffffffffffffffffffffffffff1673ffffffffffffffffffffffffffffffffffffffff16815260200190815260200160002060020154141561089c57600360008154809291906106ed906112e0565b9190505550600160003373ffffffffffffffffffffffffffffffffffffffff1673ffffffffffffffffffffffffffffffffffffffff16815260200190815260200160002060010154600460008282546107469190611171565b92505081905550600260405180606001604052803373ffffffffffffffffffffffffffffffffffffffff1681526020013373ffffffffffffffffffffffffffffffffffffffff168152602001600160003373ffffffffffffffffffffffffffffffffffffffff1673ffffffffffffffffffffffffffffffffffffffff16815260200190815260200160002060010154815250908060018154018082558091505060019003906000526020600020906003020160009091909190915060008201518160000160006101000a81548173ffffffffffffffffffffffffffffffffffffffff021916908373ffffffffffffffffffffffffffffffffffffffff16021790555060208201518160010160006101000a81548173ffffffffffffffffffffffffffffffffffffffff021916908373ffffffffffffffffffffffffffffffffffffffff1602179055506040820151816002015550505b5050565b60005481565b6101a46000546108b69190611171565b42106108f7576040517f08c379a00000000000000000000000000000000000000000000000000000000081526004016108ee906110ee565b60405180910390fd5b600054600160003373ffffffffffffffffffffffffffffffffffffffff1673ffffffffffffffffffffffffffffffffffffffff16815260200190815260200160002060000154141561097e576040517f08c379a00000000000000000000000000000000000000000000000000000000081526004016109759061104e565b60405180910390fd5b6000678ac7230489e80000341061099d57678ac7230489e8000061099f565b345b905060405180608001604052806000548152602001828152602001600081526020016040518060e00160405280600015151515815260200160001515151581526020016000151515158152602001600015151515815260200160001515151581526020016000151515158152602001600015151515815250815250600160003373ffffffffffffffffffffffffffffffffffffffff1673ffffffffffffffffffffffffffffffffffffffff168152602001908152602001600020600082015181600001556020820151816001015560408201518160020155606082015181600301906007610a8e929190610d71565b5090505050565b60028181548110610aa557600080fd5b90600052602060002090600302016000915090508060000160009054906101000a900473ffffffffffffffffffffffffffffffffffffffff16908060010160009054906101000a900473ffffffffffffffffffffffffffffffffffffffff16908060020154905083565b6101a460005442610b209190611252565b11610b60576040517f08c379a0000000000000000000000000000000000000000000000000000000008152600401610b579061108e565b60405180910390fd5b600047905060003390508073ffffffffffffffffffffffffffffffffffffffff166108fc600a84610b9191906111c7565b9081150290604051600060405180830381858888f19350505050158015610bbc573d6000803e3d6000fd5b50600a82610bca91906111c7565b82610bd59190611252565b915060005b600354811015610cc05760028181548110610bf857610bf76113e7565b5b906000526020600020906003020160010160009054906101000a900473ffffffffffffffffffffffffffffffffffffffff1673ffffffffffffffffffffffffffffffffffffffff166108fc6004548560028581548110610c5b57610c5a6113e7565b5b906000526020600020906003020160020154610c7791906111f8565b610c8191906111c7565b9081150290604051600060405180830381858888f19350505050158015610cac573d6000803e3d6000fd5b508080610cb8906112e0565b915050610bda565b505b60006002805490501115610d56576002805480610ce257610ce16113b8565b5b6001900381819060005260206000209060030201600080820160006101000a81549073ffffffffffffffffffffffffffffffffffffffff02191690556001820160006101000a81549073ffffffffffffffffffffffffffffffffffffffff0219169055600282016000905550509055610cc2565b60006003819055506000600481905550426000819055505050565b826007601f01602090048101928215610df95791602002820160005b83821115610dca57835183826101000a81548160ff0219169083151502179055509260200192600101602081600001049283019260010302610d8d565b8015610df75782816101000a81549060ff0219169055600101602081600001049283019260010302610dca565b505b509050610e069190610e0a565b5090565b5b80821115610e23576000816000905550600101610e0b565b5090565b600081359050610e3681611560565b92915050565b600081359050610e4b81611577565b92915050565b600060208284031215610e6757610e66611416565b5b6000610e7584828501610e27565b91505092915050565b600060208284031215610e9457610e93611416565b5b6000610ea284828501610e3c565b91505092915050565b610eb481611298565b82525050565b610ec381611286565b82525050565b610ed2816112aa565b82525050565b6000610ee5601b83611160565b9150610ef08261141b565b602082019050919050565b6000610f08601b83611160565b9150610f1382611444565b602082019050919050565b6000610f2b600d83611160565b9150610f368261146d565b602082019050919050565b6000610f4e601b83611160565b9150610f5982611496565b602082019050919050565b6000610f71601b83611160565b9150610f7c826114bf565b602082019050919050565b6000610f94601b83611160565b9150610f9f826114e8565b602082019050919050565b6000610fb7602783611160565b9150610fc282611511565b604082019050919050565b610fd6816112d6565b82525050565b6000606082019050610ff16000830186610eba565b610ffe6020830185610eab565b61100b6040830184610fcd565b949350505050565b60006020820190506110286000830184610ec9565b92915050565b6000602082019050818103600083015261104781610ed8565b9050919050565b6000602082019050818103600083015261106781610efb565b9050919050565b6000602082019050818103600083015261108781610f1e565b9050919050565b600060208201905081810360008301526110a781610f41565b9050919050565b600060208201905081810360008301526110c781610f64565b9050919050565b600060208201905081810360008301526110e781610f87565b9050919050565b6000602082019050818103600083015261110781610faa565b9050919050565b60006020820190506111236000830184610fcd565b92915050565b600060608201905061113e6000830186610fcd565b61114b6020830185610fcd565b6111586040830184610fcd565b949350505050565b600082825260208201905092915050565b600061117c826112d6565b9150611187836112d6565b9250827fffffffffffffffffffffffffffffffffffffffffffffffffffffffffffffffff038211156111bc576111bb61135a565b5b828201905092915050565b60006111d2826112d6565b91506111dd836112d6565b9250826111ed576111ec611389565b5b828204905092915050565b6000611203826112d6565b915061120e836112d6565b9250817fffffffffffffffffffffffffffffffffffffffffffffffffffffffffffffffff04831182151516156112475761124661135a565b5b828202905092915050565b600061125d826112d6565b9150611268836112d6565b92508282101561127b5761127a61135a565b5b828203905092915050565b6000611291826112b6565b9050919050565b60006112a3826112b6565b9050919050565b60008115159050919050565b600073ffffffffffffffffffffffffffffffffffffffff82169050919050565b6000819050919050565b60006112eb826112d6565b91507fffffffffffffffffffffffffffffffffffffffffffffffffffffffffffffffff82141561131e5761131d61135a565b5b600182019050919050565b6000611334826112d6565b915061133f836112d6565b92508261134f5761134e611389565b5b828206905092915050565b7f4e487b7100000000000000000000000000000000000000000000000000000000600052601160045260246000fd5b7f4e487b7100000000000000000000000000000000000000000000000000000000600052601260045260246000fd5b7f4e487b7100000000000000000000000000000000000000000000000000000000600052603160045260246000fd5b7f4e487b7100000000000000000000000000000000000000000000000000000000600052603260045260246000fd5b600080fd5b7fe69caae58aa0e585a5e69cace591a8e68993e58da1e9a1b9e79bae0000000000600082015250565b7fe5b7b2e58aa0e585a5e69cace591a8e68993e58da1e9a1b9e79bae0000000000600082015250565b7fe9878de5a48de68993e58da12e00000000000000000000000000000000000000600082015250565b7fe69cace8bdaee68993e58da1e9a1b9e79baee69caae7bb93e69d9f0000000000600082015250565b7fe5b7b2e99499e8bf87e4bb8ae697a5e68993e58da1e697b6e997b40000000000600082015250565b7fe69cace8bdaee68993e58da1e9a1b9e79baee5b7b2e7bb93e69d9f0000000000600082015250565b7fe5b7b2e99499e8bf87e69cace8bdaee68993e58da1e9a1b9e79baee58aa0e58560008201527fa5e697b6e997b400000000000000000000000000000000000000000000000000602082015250565b61156981611286565b811461157457600080fd5b50565b611580816112d6565b811461158b57600080fd5b5056fea26469706673582212208e4d3261a65f169406d47613c6a8d0d98d260fcfea9b969b9fc712e7a6d00be164736f6c63430008070033",
  "immutableReferences": {},
  "source": "// \r\n// SPDX-License-Identifier: GPL-3.0-or-later\r\n\r\n// \r\npragma solidity ^0.8.7;\r\n\r\ncontract PunchCard {\r\n\r\n\tstruct participator {\r\n\t\tuint256 beginTime;\t//\r\n\t\tuint256 money;\t//\r\n\t\tuint256 punchTimes; //\r\n\t\tbool[7] punch; //\r\n\t}\r\n\r\n\tstruct achiever {\r\n\t\taddress addr;\r\n\t\taddress payable sender;\r\n\t\tuint256 money;\r\n\t}\r\n\t\r\n\tuint256 public beginTime;\t\t\t//\r\n\tmapping(address => participator) public participators;\t//\r\n\tachiever[] public achievers;\t//7\r\n\tuint256 public succeedAmount = 0;\t\t//7\r\n\tuint256 public sumOfMoneyOfpunched = 0;\t//7\r\n\tuint256 public week;\t\t\t\t//\r\n\r\n    constructor(){\r\n\t\tbeginTime = block.timestamp;\r\n    }\r\n\r\n\tmodifier onlyJointime { \r\n\t\t//724\r\n\t\trequire(\r\n\t\t\tblock.timestamp < beginTime + 7 minutes,\r\n\t\t\tunicode\"\"\r\n\t\t);\r\n\t\t_; \r\n\t}\r\n\r\n\tmodifier onlyEarlyMorning { \r\n\t\t//beginTime7565959\r\n\t\trequire(\r\n\t\t\t(block.timestamp - beginTime) % (1 minutes) > 30 seconds,\r\n\t\t\tunicode\"\"\r\n\t\t);\r\n\t\t_; \r\n\t}\r\n\r\n\tmodifier onlyEnd { \r\n\t\t//7\r\n\t\trequire(\r\n\t\t\t(block.timestamp - beginTime) > 7 minutes,\r\n\t\t\tunicode\"\"\r\n\t\t);\r\n\t\t_; \r\n\t}\r\n\r\n\tmodifier onlyNotEnd { \r\n\t\trequire(\r\n\t\t\t(block.timestamp - beginTime) <= 7 minutes,\r\n\t\t\tunicode\"\"\r\n\t\t);\r\n\t\t_; \r\n\t}\r\n\r\n\tmodifier onlyUnjoined { \r\n\t\trequire(\r\n\t\t\tparticipators[msg.sender].beginTime != beginTime,\r\n\t\t\tunicode\"\"\r\n\t\t);\r\n\t\t_; \r\n\t}\r\n\r\n\tmodifier onlyJoined { \r\n\t\trequire(\r\n\t\t\tparticipators[msg.sender].beginTime == beginTime,\r\n\t\t\tunicode\"\"\r\n\t\t);\r\n\t\t_; \r\n\t}\r\n\r\n\t    //\r\n\tfunction join() public payable onlyJointime onlyUnjoined{\r\n\t\tuint256 money = msg.value < 10 ether ? msg.value : 10**19;\t//10 ether \r\n\t\tparticipators[msg.sender] = participator(beginTime, money, 0, [false, false, false, false, false, false, false]);\r\n\t}\r\n\r\n\t//\r\n\tfunction punchIn() public onlyEarlyMorning onlyNotEnd onlyJoined{\r\n\t\tuint nowtime = block.timestamp;\r\n\t\tweek = (nowtime - beginTime) / 1 minutes;\r\n\t\t//\r\n\t\trequire(\r\n\t\t\t!participators[msg.sender].punch[week],\r\n\t\t\tunicode\".\"\r\n\t\t); \r\n\t\tparticipators[msg.sender].punch[week] = true;\r\n\t\tparticipators[msg.sender].punchTimes++;\r\n\t\taddress payable sender = payable(msg.sender);\r\n\t\tsender.transfer(participators[msg.sender].money / 7);\r\n\t\tif (participators[msg.sender].punchTimes == 7) {\r\n\t\t\tsucceedAmount++;\r\n\t\t\tsumOfMoneyOfpunched += participators[msg.sender].money;\r\n\t\t\tachievers.push(achiever(msg.sender, payable(msg.sender), participators[msg.sender].money));\r\n\t\t}\r\n\t}\r\n\r\n\t//\r\n\tfunction reset() public onlyEnd {\r\n\t\tuint256 balance = address(this).balance;\r\n\t\t//10%gas\r\n\t\taddress payable sender = payable(msg.sender);\r\n\t\tsender.transfer(balance / 10);\r\n\t\tbalance = balance - balance / 10;\r\n\t\tfor (uint256 i = 0; i < succeedAmount; i++) {\r\n\t\t\tachievers[i].sender.transfer(achievers[i].money * balance / sumOfMoneyOfpunched);\r\n\t\t}\r\n\t\twhile (achievers.length > 0) {\r\n\t\t\tachievers.pop();\r\n\t\t}\r\n\t\tsucceedAmount = 0;\r\n\t\tsumOfMoneyOfpunched = 0;\r\n\t\tbeginTime = block.timestamp;\r\n\t}\r\n\r\n\tfunction ifPunched(uint i) public view returns(bool) {\r\n\t\treturn participators[msg.sender].punch[i];\r\n\t}\r\n\r\n\tfunction getCurrentTime() public view returns (uint256) {\r\n        return block.timestamp; // \r\n    }\r\n}\r\n",
  "sourcePath": "E:\\\\paper\\DAO\\test\\project\\contracts\\newContrasts\\PunchCard.sol",
  "compiler": {
    "name": "solc",
    "version": "0.8.7+commit.e28d00a7.Emscripten.clang"
  },
  "schemaVersion": "3.4.16",
  "updatedAt": "2025-03-10T08:21:14.246Z",
  "devdoc": {
    "kind": "dev",
    "methods": {},
    "version": 1
  },
  "userdoc": {
    "kind": "user",
    "methods": {},
    "version": 1
  }
}