{
  "contractName": "TeacherVote",
  "abi": [
    {
      "inputs": [
        {
          "internalType": "address",
          "name": "_courseAllocationAddress",
          "type": "address"
        }
      ],
      "stateMutability": "nonpayable",
      "type": "constructor"
    },
    {
      "anonymous": false,
      "inputs": [
        {
          "indexed": true,
          "internalType": "uint256",
          "name": "proposalId",
          "type": "uint256"
        },
        {
          "indexed": true,
          "internalType": "uint256",
          "name": "courseId",
          "type": "uint256"
        }
      ],
      "name": "NewRatingProposal",
      "type": "event"
    },
    {
      "anonymous": false,
      "inputs": [
        {
          "indexed": false,
          "internalType": "uint256",
          "name": "proposalId",
          "type": "uint256"
        },
        {
          "indexed": false,
          "internalType": "string",
          "name": "description",
          "type": "string"
        }
      ],
      "name": "ProposalCreated",
      "type": "event"
    },
    {
      "anonymous": false,
      "inputs": [
        {
          "indexed": true,
          "internalType": "uint256",
          "name": "proposalId",
          "type": "uint256"
        },
        {
          "indexed": false,
          "internalType": "uint256",
          "name": "avgImportance",
          "type": "uint256"
        },
        {
          "indexed": false,
          "internalType": "bool",
          "name": "isAgentSuitable",
          "type": "bool"
        }
      ],
      "name": "ProposalExecuted",
      "type": "event"
    },
    {
      "inputs": [],
      "name": "courseAllocation",
      "outputs": [
        {
          "internalType": "contract CourseAllocation",
          "name": "",
          "type": "address"
        }
      ],
      "stateMutability": "view",
      "type": "function",
      "constant": true
    },
    {
      "inputs": [
        {
          "internalType": "string",
          "name": "_description",
          "type": "string"
        },
        {
          "internalType": "uint256",
          "name": "_voteforID",
          "type": "uint256"
        },
        {
          "internalType": "uint256[]",
          "name": "_votedIds",
          "type": "uint256[]"
        },
        {
          "internalType": "uint256",
          "name": "_totalVote",
          "type": "uint256"
        }
      ],
      "name": "createChooseCourseProposal",
      "outputs": [
        {
          "internalType": "uint256",
          "name": "",
          "type": "uint256"
        }
      ],
      "stateMutability": "nonpayable",
      "type": "function"
    },
    {
      "inputs": [
        {
          "internalType": "string",
          "name": "_description",
          "type": "string"
        },
        {
          "internalType": "uint256",
          "name": "_voteforID",
          "type": "uint256"
        },
        {
          "internalType": "uint256[]",
          "name": "_votedIds",
          "type": "uint256[]"
        },
        {
          "internalType": "uint256",
          "name": "_totalVote",
          "type": "uint256"
        }
      ],
      "name": "createChooseTeacherProposal",
      "outputs": [
        {
          "internalType": "uint256",
          "name": "",
          "type": "uint256"
        }
      ],
      "stateMutability": "nonpayable",
      "type": "function"
    },
    {
      "inputs": [
        {
          "internalType": "string",
          "name": "_description",
          "type": "string"
        },
        {
          "internalType": "uint256",
          "name": "_voteforID",
          "type": "uint256"
        },
        {
          "internalType": "uint256[]",
          "name": "_votedIds",
          "type": "uint256[]"
        },
        {
          "internalType": "uint256[]",
          "name": "_votedCounts",
          "type": "uint256[]"
        },
        {
          "internalType": "uint256",
          "name": "_totalVote",
          "type": "uint256"
        }
      ],
      "name": "createMachineProposal",
      "outputs": [
        {
          "internalType": "uint256",
          "name": "",
          "type": "uint256"
        }
      ],
      "stateMutability": "nonpayable",
      "type": "function"
    },
    {
      "inputs": [
        {
          "internalType": "string",
          "name": "_description",
          "type": "string"
        },
        {
          "internalType": "uint256",
          "name": "_voteforID",
          "type": "uint256"
        },
        {
          "internalType": "uint256[]",
          "name": "_votedIds",
          "type": "uint256[]"
        },
        {
          "internalType": "uint256[]",
          "name": "_votedCounts",
          "type": "uint256[]"
        }
      ],
      "name": "createMachineVoteProposal",
      "outputs": [
        {
          "internalType": "uint256",
          "name": "",
          "type": "uint256"
        }
      ],
      "stateMutability": "nonpayable",
      "type": "function"
    },
    {
      "inputs": [
        {
          "internalType": "string",
          "name": "_description",
          "type": "string"
        },
        {
          "internalType": "uint256",
          "name": "_voteforID",
          "type": "uint256"
        },
        {
          "internalType": "uint256[]",
          "name": "_votedIds",
          "type": "uint256[]"
        },
        {
          "internalType": "uint256",
          "name": "_totalVote",
          "type": "uint256"
        }
      ],
      "name": "createProposalMultiple",
      "outputs": [
        {
          "internalType": "uint256",
          "name": "",
          "type": "uint256"
        }
      ],
      "stateMutability": "nonpayable",
      "type": "function"
    },
    {
      "inputs": [
        {
          "internalType": "uint256",
          "name": "_proposalId",
          "type": "uint256"
        }
      ],
      "name": "endVoteChooseCourse",
      "outputs": [
        {
          "internalType": "uint256",
          "name": "",
          "type": "uint256"
        },
        {
          "internalType": "uint256",
          "name": "",
          "type": "uint256"
        }
      ],
      "stateMutability": "view",
      "type": "function",
      "constant": true
    },
    {
      "inputs": [
        {
          "internalType": "uint256",
          "name": "_proposalId",
          "type": "uint256"
        }
      ],
      "name": "endVoteChooseTeacher",
      "outputs": [
        {
          "internalType": "uint256",
          "name": "",
          "type": "uint256"
        },
        {
          "internalType": "uint256",
          "name": "",
          "type": "uint256"
        }
      ],
      "stateMutability": "view",
      "type": "function",
      "constant": true
    },
    {
      "inputs": [
        {
          "internalType": "uint256",
          "name": "_proposalId",
          "type": "uint256"
        }
      ],
      "name": "endVoteMultiple",
      "outputs": [
        {
          "internalType": "uint256",
          "name": "",
          "type": "uint256"
        },
        {
          "internalType": "uint256",
          "name": "",
          "type": "uint256"
        }
      ],
      "stateMutability": "view",
      "type": "function",
      "constant": true
    },
    {
      "inputs": [
        {
          "internalType": "uint256",
          "name": "_proposalId",
          "type": "uint256"
        },
        {
          "internalType": "uint256",
          "name": "_voteId",
          "type": "uint256"
        }
      ],
      "name": "getVoteIdToCount",
      "outputs": [
        {
          "internalType": "uint256",
          "name": "",
          "type": "uint256"
        }
      ],
      "stateMutability": "view",
      "type": "function",
      "constant": true
    },
    {
      "inputs": [
        {
          "internalType": "uint256",
          "name": "_proposalId",
          "type": "uint256"
        }
      ],
      "name": "getVotedIds",
      "outputs": [
        {
          "internalType": "uint256[]",
          "name": "",
          "type": "uint256[]"
        },
        {
          "internalType": "uint256",
          "name": "",
          "type": "uint256"
        }
      ],
      "stateMutability": "view",
      "type": "function",
      "constant": true
    },
    {
      "inputs": [],
      "name": "proposalCount",
      "outputs": [
        {
          "internalType": "uint256",
          "name": "",
          "type": "uint256"
        }
      ],
      "stateMutability": "view",
      "type": "function",
      "constant": true
    },
    {
      "inputs": [
        {
          "internalType": "uint256",
          "name": "",
          "type": "uint256"
        }
      ],
      "name": "proposalMultipleIds",
      "outputs": [
        {
          "internalType": "uint256",
          "name": "",
          "type": "uint256"
        }
      ],
      "stateMutability": "view",
      "type": "function",
      "constant": true
    },
    {
      "inputs": [
        {
          "internalType": "uint256",
          "name": "",
          "type": "uint256"
        }
      ],
      "name": "proposalMultiples",
      "outputs": [
        {
          "internalType": "uint256",
          "name": "id",
          "type": "uint256"
        },
        {
          "internalType": "string",
          "name": "description",
          "type": "string"
        },
        {
          "internalType": "uint256",
          "name": "voteforID",
          "type": "uint256"
        },
        {
          "internalType": "uint256",
          "name": "voteCount",
          "type": "uint256"
        },
        {
          "internalType": "uint256",
          "name": "totalVote",
          "type": "uint256"
        }
      ],
      "stateMutability": "view",
      "type": "function",
      "constant": true
    },
    {
      "inputs": [
        {
          "internalType": "uint256",
          "name": "",
          "type": "uint256"
        }
      ],
      "name": "proposals",
      "outputs": [
        {
          "internalType": "uint256",
          "name": "courseId",
          "type": "uint256"
        },
        {
          "internalType": "uint256",
          "name": "totalRating",
          "type": "uint256"
        },
        {
          "internalType": "uint256",
          "name": "raterCount",
          "type": "uint256"
        },
        {
          "internalType": "uint256",
          "name": "suitabilityProposalId",
          "type": "uint256"
        },
        {
          "internalType": "bool",
          "name": "executed",
          "type": "bool"
        },
        {
          "internalType": "bool",
          "name": "finalSuitability",
          "type": "bool"
        }
      ],
      "stateMutability": "view",
      "type": "function",
      "constant": true
    },
    {
      "inputs": [
        {
          "internalType": "address",
          "name": "_voter",
          "type": "address"
        }
      ],
      "name": "registerVoter",
      "outputs": [],
      "stateMutability": "nonpayable",
      "type": "function"
    },
    {
      "inputs": [
        {
          "internalType": "address",
          "name": "voterAddress",
          "type": "address"
        },
        {
          "internalType": "uint256",
          "name": "_proposalId",
          "type": "uint256"
        },
        {
          "internalType": "uint256",
          "name": "_voteId",
          "type": "uint256"
        }
      ],
      "name": "voteChooseCourse",
      "outputs": [],
      "stateMutability": "nonpayable",
      "type": "function"
    },
    {
      "inputs": [
        {
          "internalType": "address",
          "name": "voterAddress",
          "type": "address"
        },
        {
          "internalType": "uint256",
          "name": "_proposalId",
          "type": "uint256"
        },
        {
          "internalType": "uint256",
          "name": "_voteId",
          "type": "uint256"
        }
      ],
      "name": "voteChooseTeacher",
      "outputs": [],
      "stateMutability": "nonpayable",
      "type": "function"
    },
    {
      "inputs": [
        {
          "internalType": "address",
          "name": "voter",
          "type": "address"
        },
        {
          "internalType": "uint256",
          "name": "_proposalId",
          "type": "uint256"
        },
        {
          "internalType": "uint256",
          "name": "_voteId",
          "type": "uint256"
        }
      ],
      "name": "voteMultiple",
      "outputs": [],
      "stateMutability": "nonpayable",
      "type": "function"
    },
    {
      "inputs": [
        {
          "internalType": "address",
          "name": "",
          "type": "address"
        }
      ],
      "name": "voters",
      "outputs": [
        {
          "internalType": "uint256",
          "name": "id",
          "type": "uint256"
        },
        {
          "internalType": "address",
          "name": "voter",
          "type": "address"
        },
        {
          "internalType": "uint256",
          "name": "weight",
          "type": "uint256"
        }
      ],
      "stateMutability": "view",
      "type": "function",
      "constant": true
    },
    {
      "inputs": [
        {
          "internalType": "uint256",
          "name": "",
          "type": "uint256"
        }
      ],
      "name": "votersAddress",
      "outputs": [
        {
          "internalType": "address",
          "name": "",
          "type": "address"
        }
      ],
      "stateMutability": "view",
      "type": "function",
      "constant": true
    },
    {
      "inputs": [
        {
          "internalType": "uint256",
          "name": "courseId",
          "type": "uint256"
        }
      ],
      "name": "createRatingProposal",
      "outputs": [
        {
          "internalType": "uint256",
          "name": "",
          "type": "uint256"
        }
      ],
      "stateMutability": "nonpayable",
      "type": "function"
    },
    {
      "inputs": [
        {
          "internalType": "uint256",
          "name": "suitabilityProposalId",
          "type": "uint256"
        },
        {
          "internalType": "uint256",
          "name": "optionId",
          "type": "uint256"
        }
      ],
      "name": "voteForSuitability",
      "outputs": [],
      "stateMutability": "nonpayable",
      "type": "function"
    },
    {
      "inputs": [
        {
          "internalType": "uint256",
          "name": "proposalId",
          "type": "uint256"
        },
        {
          "internalType": "uint256",
          "name": "rating",
          "type": "uint256"
        }
      ],
      "name": "submitRating",
      "outputs": [],
      "stateMutability": "nonpayable",
      "type": "function"
    },
    {
      "inputs": [
        {
          "internalType": "uint256",
          "name": "ratingProposalId",
          "type": "uint256"
        }
      ],
      "name": "executeProposal",
      "outputs": [],
      "stateMutability": "nonpayable",
      "type": "function"
    },
    {
      "inputs": [
        {
          "internalType": "uint256",
          "name": "proposalId",
          "type": "uint256"
        },
        {
          "internalType": "uint256",
          "name": "teacherId",
          "type": "uint256"
        }
      ],
      "name": "getTeacherRating",
      "outputs": [
        {
          "internalType": "uint256",
          "name": "",
          "type": "uint256"
        }
      ],
      "stateMutability": "view",
      "type": "function",
      "constant": true
    }
  ],
  "bytecode": "0x60806040523480156200001157600080fd5b50604051620033a5380380620033a5833981810160405281019062000037919062000096565b80600460006101000a81548173ffffffffffffffffffffffffffffffffffffffff021916908373ffffffffffffffffffffffffffffffffffffffff160217905550506200011b565b600081519050620000908162000101565b92915050565b600060208284031215620000af57620000ae620000fc565b5b6000620000bf848285016200007f565b91505092915050565b6000620000d582620000dc565b9050919050565b600073ffffffffffffffffffffffffffffffffffffffff82169050919050565b600080fd5b6200010c81620000c8565b81146200011857600080fd5b50565b61327a806200012b6000396000f3fe608060405234801561001057600080fd5b506004361061018e5760003560e01c806370bfc2d7116100de578063b2af0cc511610097578063bc9cad8a11610071578063bc9cad8a14610524578063c845c19814610554578063da35c66414610584578063fe8d724c146105a25761018e565b8063b2af0cc5146104a8578063b79a1bd6146104d8578063bc8c24d9146105085761018e565b806370bfc2d7146103ad57806376ce93f7146103c9578063777ea2c9146103fa57806388462f2c1461042a578063a3ec138d14610446578063b201539f146104785761018e565b80632b6b189b1161014b57806343242daa1161012557806343242daa1461031257806345f509961461034257806355d2f08e1461036057806370851171146103915761018e565b80632b6b189b146102a9578063361d5b79146102c557806338db6dd3146102f65761018e565b8063013cf08b146101935780630202f847146101c85780630d61b519146101f85780630f0626b514610214578063148f8e4f14610244578063162b040d14610278575b600080fd5b6101ad60048036038101906101a89190612385565b6105d2565b6040516101bf96959493929190612b31565b60405180910390f35b6101e260048036038101906101dd91906122e6565b610628565b6040516101ef91906129cc565b60405180910390f35b610212600480360381019061020d9190612385565b610640565b005b61022e60048036038101906102299190612385565b61085a565b60405161023b91906129cc565b60405180910390f35b61025e60048036038101906102599190612385565b61087e565b60405161026f959493929190612a77565b60405180910390f35b610292600480360381019061028d9190612385565b61093c565b6040516102a0929190612ad1565b60405180910390f35b6102c360048036038101906102be9190612109565b610aa0565b005b6102df60048036038101906102da9190612385565b610f9d565b6040516102ed929190612ad1565b60405180910390f35b610310600480360381019061030b91906120dc565b610fb2565b005b61032c60048036038101906103279190612385565b6111c6565b6040516103399190612786565b60405180910390f35b61034a611205565b60405161035791906127d1565b60405180910390f35b61037a60048036038101906103759190612385565b61122b565b604051610388929190612ad1565b60405180910390f35b6103ab60048036038101906103a691906123df565b611240565b005b6103c760048036038101906103c291906123df565b61153a565b005b6103e360048036038101906103de9190612385565b611685565b6040516103f19291906127a1565b60405180910390f35b610414600480360381019061040f91906122e6565b611711565b60405161042191906129cc565b60405180910390f35b610444600480360381019061043f9190612109565b611729565b005b610460600480360381019061045b91906120dc565b611739565b60405161046f939291906129e7565b60405180910390f35b610492600480360381019061048d9190612217565b611783565b60405161049f91906129cc565b60405180910390f35b6104c260048036038101906104bd91906122e6565b61197f565b6040516104cf91906129cc565b60405180910390f35b6104f260048036038101906104ed9190612385565b611b1a565b6040516104ff91906129cc565b60405180910390f35b610522600480360381019061051d9190612109565b611e58565b005b61053e6004803603810190610539919061215c565b611e68565b60405161054b91906129cc565b60405180910390f35b61056e600480360381019061056991906123df565b611e82565b60405161057b91906129cc565b60405180910390f35b61058c611eb4565b60405161059991906129cc565b60405180910390f35b6105bc60048036038101906105b791906123df565b611eba565b6040516105c991906129cc565b60405180910390f35b60056020528060005260406000206000915090508060000154908060010154908060020154908060030154908060040160009054906101000a900460ff16908060060160009054906101000a900460ff16905086565b60006106368585858561197f565b9050949350505050565b60006005600083815260200190815260200160002090508060040160009054906101000a900460ff16156106a9576040517f08c379a00000000000000000000000000000000000000000000000000000000081526004016106a09061282c565b60405180910390fd5b60008160020154116106f0576040517f08c379a00000000000000000000000000000000000000000000000000000000081526004016106e79061284c565b60405180910390fd5b60006106ff826003015461122b565b509050600281148260060160006101000a81548160ff021916908315150217905550600460009054906101000a900473ffffffffffffffffffffffffffffffffffffffff1673ffffffffffffffffffffffffffffffffffffffff16630dbd6b908360000154846002015485600101546107789190612cca565b8560060160009054906101000a900460ff166040518463ffffffff1660e01b81526004016107a893929190612afa565b600060405180830381600087803b1580156107c257600080fd5b505af11580156107d6573d6000803e3d6000fd5b5050505060018260040160006101000a81548160ff021916908315150217905550827f675c71fb6cbf880ec8fed9c345ef0bb3019cc44b99708edb402b85a7535d7d198360020154846001015461082d9190612cca565b8460060160009054906101000a900460ff1660405161084d929190612a1e565b60405180910390a2505050565b6003818154811061086a57600080fd5b906000526020600020016000915090505481565b60026020528060005260406000206000915090508060000154908060010180546108a790612dbb565b80601f01602080910402602001604051908101604052809291908181526020018280546108d390612dbb565b80156109205780601f106108f557610100808354040283529160200191610920565b820191906000526020600020905b81548152906001019060200180831161090357829003601f168201915b5050505050908060020154908060060154908060070154905085565b6000806000806000600260008781526020019081526020016000206003018054806020026020016040519081016040528092919081815260200182805480156109a457602002820191906000526020600020905b815481526020019060010190808311610990575b5050505050905060006002600088815260200190815260200160002060020154905060005b8251811015610a905784600260008a815260200190815260200160002060040160008584815181106109fe576109fd612efe565b5b60200260200101518152602001908152602001600020541115610a7d57600260008981526020019081526020016000206004016000848381518110610a4657610a45612efe565b5b60200260200101518152602001908152602001600020549450828181518110610a7257610a71612efe565b5b602002602001015193505b8080610a8890612e1e565b9150506109c9565b5082819550955050505050915091565b3073ffffffffffffffffffffffffffffffffffffffff163373ffffffffffffffffffffffffffffffffffffffff161480610b0557508273ffffffffffffffffffffffffffffffffffffffff163373ffffffffffffffffffffffffffffffffffffffff16145b610b44576040517f08c379a0000000000000000000000000000000000000000000000000000000008152600401610b3b906128ec565b60405180910390fd5b600073ffffffffffffffffffffffffffffffffffffffff166000808573ffffffffffffffffffffffffffffffffffffffff1673ffffffffffffffffffffffffffffffffffffffff16815260200190815260200160002060010160009054906101000a900473ffffffffffffffffffffffffffffffffffffffff1673ffffffffffffffffffffffffffffffffffffffff161415610c15576040517f08c379a0000000000000000000000000000000000000000000000000000000008152600401610c0c9061286c565b60405180910390fd5b600073ffffffffffffffffffffffffffffffffffffffff166000808573ffffffffffffffffffffffffffffffffffffffff1673ffffffffffffffffffffffffffffffffffffffff16815260200190815260200160002060010160009054906101000a900473ffffffffffffffffffffffffffffffffffffffff1673ffffffffffffffffffffffffffffffffffffffff161415610ce6576040517f08c379a0000000000000000000000000000000000000000000000000000000008152600401610cdd9061288c565b60405180910390fd5b600015156002600084815260200190815260200160002060050160008573ffffffffffffffffffffffffffffffffffffffff1673ffffffffffffffffffffffffffffffffffffffff16815260200190815260200160002060009054906101000a900460ff16151514610d8d576040517f08c379a0000000000000000000000000000000000000000000000000000000008152600401610d849061292c565b60405180910390fd5b6002600083815260200190815260200160002060070154600260008481526020019081526020016000206006015410610dfb576040517f08c379a0000000000000000000000000000000000000000000000000000000008152600401610df29061296c565b60405180910390fd5b6000805b6002600085815260200190815260200160002060030180549050811015610f4f5782600260008681526020019081526020016000206003018281548110610e4957610e48612efe565b5b90600052602060002001541415610f3c5760016002600086815260200190815260200160002060040160008581526020019081526020016000206000828254610e929190612c74565b925050819055506001600260008681526020019081526020016000206006016000828254610ec09190612c74565b9250508190555060016002600086815260200190815260200160002060050160008773ffffffffffffffffffffffffffffffffffffffff1673ffffffffffffffffffffffffffffffffffffffff16815260200190815260200160002060006101000a81548160ff02191690831515021790555060019150610f4f565b8080610f4790612e1e565b915050610dff565b506001151581151514610f97576040517f08c379a0000000000000000000000000000000000000000000000000000000008152600401610f8e906127ec565b60405180910390fd5b50505050565b600080610fa98361093c565b91509150915091565b600073ffffffffffffffffffffffffffffffffffffffff166000808373ffffffffffffffffffffffffffffffffffffffff1673ffffffffffffffffffffffffffffffffffffffff16815260200190815260200160002060010160009054906101000a900473ffffffffffffffffffffffffffffffffffffffff1673ffffffffffffffffffffffffffffffffffffffff1614611082576040517f08c379a00000000000000000000000000000000000000000000000000000000081526004016110799061298c565b60405180910390fd5b60405180606001604052806001808054905061109e9190612c74565b81526020018273ffffffffffffffffffffffffffffffffffffffff16815260200160018152506000808373ffffffffffffffffffffffffffffffffffffffff1673ffffffffffffffffffffffffffffffffffffffff1681526020019081526020016000206000820151816000015560208201518160010160006101000a81548173ffffffffffffffffffffffffffffffffffffffff021916908373ffffffffffffffffffffffffffffffffffffffff160217905550604082015181600201559050506001819080600181540180825580915050600190039060005260206000200160009091909190916101000a81548173ffffffffffffffffffffffffffffffffffffffff021916908373ffffffffffffffffffffffffffffffffffffffff16021790555050565b600181815481106111d657600080fd5b906000526020600020016000915054906101000a900473ffffffffffffffffffffffffffffffffffffffff1681565b600460009054906101000a900473ffffffffffffffffffffffffffffffffffffffff1681565b6000806112378361093c565b91509150915091565b6000600460009054906101000a900473ffffffffffffffffffffffffffffffffffffffff1673ffffffffffffffffffffffffffffffffffffffff16630f7f13cf336040518263ffffffff1660e01b815260040161129d9190612786565b60206040518083038186803b1580156112b557600080fd5b505afa1580156112c9573d6000803e3d6000fd5b505050506040513d601f19601f820116820180604052508101906112ed91906123b2565b141561132e576040517f08c379a0000000000000000000000000000000000000000000000000000000008152600401611325906128ac565b60405180910390fd5b600060056000848152602001908152602001600020905060008160000154141561138d576040517f08c379a0000000000000000000000000000000000000000000000000000000008152600401611384906129ac565b60405180910390fd5b6001821015801561139f5750600a8211155b6113de576040517f08c379a00000000000000000000000000000000000000000000000000000000081526004016113d59061290c565b60405180910390fd5b6000600460009054906101000a900473ffffffffffffffffffffffffffffffffffffffff1673ffffffffffffffffffffffffffffffffffffffff16630f7f13cf336040518263ffffffff1660e01b815260040161143b9190612786565b60206040518083038186803b15801561145357600080fd5b505afa158015611467573d6000803e3d6000fd5b505050506040513d601f19601f8201168201806040525081019061148b91906123b2565b9050600082600501600083815260200190815260200160002054146114e5576040517f08c379a00000000000000000000000000000000000000000000000000000000081526004016114dc9061294c565b60405180910390fd5b8282600501600083815260200190815260200160002081905550828260010160008282546115139190612c74565b9250508190555081600201600081548092919061152f90612e1e565b919050555050505050565b6000600460009054906101000a900473ffffffffffffffffffffffffffffffffffffffff1673ffffffffffffffffffffffffffffffffffffffff16630f7f13cf336040518263ffffffff1660e01b81526004016115979190612786565b60206040518083038186803b1580156115af57600080fd5b505afa1580156115c3573d6000803e3d6000fd5b505050506040513d601f19601f820116820180604052508101906115e791906123b2565b1415611628576040517f08c379a000000000000000000000000000000000000000000000000000000000815260040161161f906128ac565b60405180910390fd5b60018114806116375750600281145b611676576040517f08c379a000000000000000000000000000000000000000000000000000000000815260040161166d9061280c565b60405180910390fd5b611681338383611e58565b5050565b606060006002600084815260200190815260200160002060030160026000858152602001908152602001600020600201548180548060200260200160405190810160405280929190818152602001828054801561170157602002820191906000526020600020905b8154815260200190600101908083116116ed575b5050505050915091509150915091565b600061171f8585858561197f565b9050949350505050565b611734838383610aa0565b505050565b60006020528060005260406000206000915090508060000154908060010160009054906101000a900473ffffffffffffffffffffffffffffffffffffffff16908060020154905083565b60008060016003805490506117989190612c74565b9050806002600083815260200190815260200160002060000181905550866002600083815260200190815260200160002060010190805190602001906117df929190611eec565b5060005b85518110156118d957600086828151811061180157611800612efe565b5b6020026020010151146118c6576002600083815260200190815260200160002060030186828151811061183757611836612efe565b5b6020026020010151908060018154018082558091505060019003906000526020600020016000909190919091505584818151811061187857611877612efe565b5b60200260200101516002600084815260200190815260200160002060040160008884815181106118ab576118aa612efe565b5b60200260200101518152602001908152602001600020819055505b80806118d190612e1e565b9150506117e3565b5082600260008381526020019081526020016000206007018190555085600260008381526020019081526020016000206002018190555060038190806001815401808255809150506001900390600052602060002001600090919091909150557f9c770c289ab5bf7e57cb1d23c8ceae993aea46eb64847072fd3d78ca60d3e432818860405161196a929190612a47565b60405180910390a18091505095945050505050565b60008060016003805490506119949190612c74565b9050806002600083815260200190815260200160002060000181905550856002600083815260200190815260200160002060010190805190602001906119db929190611eec565b5060005b8451811015611a755760008582815181106119fd576119fc612efe565b5b602002602001015114611a625760026000838152602001908152602001600020600301858281518110611a3357611a32612efe565b5b602002602001015190806001815401808255809150506001900390600052602060002001600090919091909150555b8080611a6d90612e1e565b9150506119df565b5082600260008381526020019081526020016000206007018190555084600260008381526020019081526020016000206002018190555060038190806001815401808255809150506001900390600052602060002001600090919091909150557f9c770c289ab5bf7e57cb1d23c8ceae993aea46eb64847072fd3d78ca60d3e4328187604051611b06929190612a47565b60405180910390a180915050949350505050565b600080600460009054906101000a900473ffffffffffffffffffffffffffffffffffffffff1673ffffffffffffffffffffffffffffffffffffffff16630f7f13cf336040518263ffffffff1660e01b8152600401611b789190612786565b60206040518083038186803b158015611b9057600080fd5b505afa158015611ba4573d6000803e3d6000fd5b505050506040513d601f19601f82011682018060405250810190611bc891906123b2565b1415611c09576040517f08c379a0000000000000000000000000000000000000000000000000000000008152600401611c00906128ac565b60405180910390fd5b6000600460009054906101000a900473ffffffffffffffffffffffffffffffffffffffff1673ffffffffffffffffffffffffffffffffffffffff16630f7f13cf336040518263ffffffff1660e01b8152600401611c669190612786565b60206040518083038186803b158015611c7e57600080fd5b505afa158015611c92573d6000803e3d6000fd5b505050506040513d601f19601f82011682018060405250810190611cb691906123b2565b1415611cf7576040517f08c379a0000000000000000000000000000000000000000000000000000000008152600401611cee906128cc565b60405180910390fd5b6000600267ffffffffffffffff811115611d1457611d13612f2d565b5b604051908082528060200260200182016040528015611d425781602001602082028036833780820191505090505b509050600181600081518110611d5b57611d5a612efe565b5b602002602001018181525050600281600181518110611d7d57611d7c612efe565b5b6020026020010181815250506000611dd684604051602001611d9f9190612760565b60405160208183030381529060405285847fffffffffffffffffffffffffffffffffffffffffffffffffffffffffffffffff610628565b905060066000815480929190611deb90612e1e565b919050555060006005600060065481526020019081526020016000209050848160000181905550818160030181905550846006547f2ecac54f4e0c294257c2927d07bb4a88af044bf272ca05ee184631007489a5cf60405160405180910390a36006549350505050919050565b611e63838383610aa0565b505050565b6000611e78858585856007611783565b9050949350505050565b600060056000848152602001908152602001600020600501600083815260200190815260200160002054905092915050565b60065481565b600060026000848152602001908152602001600020600401600083815260200190815260200160002054905092915050565b828054611ef890612dbb565b90600052602060002090601f016020900481019282611f1a5760008555611f61565b82601f10611f3357805160ff1916838001178555611f61565b82800160010185558215611f61579182015b82811115611f60578251825591602001919060010190611f45565b5b509050611f6e9190611f72565b5090565b5b80821115611f8b576000816000905550600101611f73565b5090565b6000611fa2611f9d84612bb7565b612b92565b90508083825260208201905082856020860282011115611fc557611fc4612f61565b5b60005b85811015611ff55781611fdb88826120b2565b845260208401935060208301925050600181019050611fc8565b5050509392505050565b600061201261200d84612be3565b612b92565b90508281526020810184848401111561202e5761202d612f66565b5b612039848285612d79565b509392505050565b60008135905061205081613216565b92915050565b600082601f83011261206b5761206a612f5c565b5b813561207b848260208601611f8f565b91505092915050565b600082601f83011261209957612098612f5c565b5b81356120a9848260208601611fff565b91505092915050565b6000813590506120c18161322d565b92915050565b6000815190506120d68161322d565b92915050565b6000602082840312156120f2576120f1612f70565b5b600061210084828501612041565b91505092915050565b60008060006060848603121561212257612121612f70565b5b600061213086828701612041565b9350506020612141868287016120b2565b9250506040612152868287016120b2565b9150509250925092565b6000806000806080858703121561217657612175612f70565b5b600085013567ffffffffffffffff81111561219457612193612f6b565b5b6121a087828801612084565b94505060206121b1878288016120b2565b935050604085013567ffffffffffffffff8111156121d2576121d1612f6b565b5b6121de87828801612056565b925050606085013567ffffffffffffffff8111156121ff576121fe612f6b565b5b61220b87828801612056565b91505092959194509250565b600080600080600060a0868803121561223357612232612f70565b5b600086013567ffffffffffffffff81111561225157612250612f6b565b5b61225d88828901612084565b955050602061226e888289016120b2565b945050604086013567ffffffffffffffff81111561228f5761228e612f6b565b5b61229b88828901612056565b935050606086013567ffffffffffffffff8111156122bc576122bb612f6b565b5b6122c888828901612056565b92505060806122d9888289016120b2565b9150509295509295909350565b60008060008060808587031215612300576122ff612f70565b5b600085013567ffffffffffffffff81111561231e5761231d612f6b565b5b61232a87828801612084565b945050602061233b878288016120b2565b935050604085013567ffffffffffffffff81111561235c5761235b612f6b565b5b61236887828801612056565b9250506060612379878288016120b2565b91505092959194509250565b60006020828403121561239b5761239a612f70565b5b60006123a9848285016120b2565b91505092915050565b6000602082840312156123c8576123c7612f70565b5b60006123d6848285016120c7565b91505092915050565b600080604083850312156123f6576123f5612f70565b5b6000612404858286016120b2565b9250506020612415858286016120b2565b9150509250929050565b600061242b838361272b565b60208301905092915050565b61244081612cfb565b82525050565b600061245182612c24565b61245b8185612c47565b935061246683612c14565b8060005b8381101561249757815161247e888261241f565b975061248983612c3a565b92505060018101905061246a565b5085935050505092915050565b6124ad81612d0d565b82525050565b6124bc81612d43565b82525050565b60006124cd82612c2f565b6124d78185612c58565b93506124e7818560208601612d88565b6124f081612f75565b840191505092915050565b6000612508601883612c58565b915061251382612f86565b602082019050919050565b600061252b601d83612c69565b915061253682612faf565b601d82019050919050565b600061254e600e83612c58565b915061255982612fd8565b602082019050919050565b6000612571601083612c58565b915061257c82613001565b602082019050919050565b6000612594601483612c58565b915061259f8261302a565b602082019050919050565b60006125b7601483612c58565b91506125c282613053565b602082019050919050565b60006125da600f83612c58565b91506125e58261307c565b602082019050919050565b60006125fd601b83612c58565b9150612608826130a5565b602082019050919050565b6000612620600f83612c58565b915061262b826130ce565b602082019050919050565b6000612643602083612c58565b915061264e826130f7565b602082019050919050565b6000612666601083612c58565b915061267182613120565b602082019050919050565b6000612689600c83612c58565b915061269482613149565b602082019050919050565b60006126ac600d83612c58565b91506126b782613172565b602082019050919050565b60006126cf601283612c58565b91506126da8261319b565b602082019050919050565b60006126f2600f83612c58565b91506126fd826131c4565b602082019050919050565b6000612715601083612c58565b9150612720826131ed565b602082019050919050565b61273481612d39565b82525050565b61274381612d39565b82525050565b61275a61275582612d39565b612e67565b82525050565b600061276b8261251e565b91506127778284612749565b60208201915081905092915050565b600060208201905061279b6000830184612437565b92915050565b600060408201905081810360008301526127bb8185612446565b90506127ca602083018461273a565b9392505050565b60006020820190506127e660008301846124b3565b92915050565b60006020820190508181036000830152612805816124fb565b9050919050565b6000602082019050818103600083015261282581612541565b9050919050565b6000602082019050818103600083015261284581612564565b9050919050565b6000602082019050818103600083015261286581612587565b9050919050565b60006020820190508181036000830152612885816125aa565b9050919050565b600060208201905081810360008301526128a5816125cd565b9050919050565b600060208201905081810360008301526128c5816125f0565b9050919050565b600060208201905081810360008301526128e581612613565b9050919050565b6000602082019050818103600083015261290581612636565b9050919050565b6000602082019050818103600083015261292581612659565b9050919050565b600060208201905081810360008301526129458161267c565b9050919050565b600060208201905081810360008301526129658161269f565b9050919050565b60006020820190508181036000830152612985816126c2565b9050919050565b600060208201905081810360008301526129a5816126e5565b9050919050565b600060208201905081810360008301526129c581612708565b9050919050565b60006020820190506129e1600083018461273a565b92915050565b60006060820190506129fc600083018661273a565b612a096020830185612437565b612a16604083018461273a565b949350505050565b6000604082019050612a33600083018561273a565b612a4060208301846124a4565b9392505050565b6000604082019050612a5c600083018561273a565b8181036020830152612a6e81846124c2565b90509392505050565b600060a082019050612a8c600083018861273a565b8181036020830152612a9e81876124c2565b9050612aad604083018661273a565b612aba606083018561273a565b612ac7608083018461273a565b9695505050505050565b6000604082019050612ae6600083018561273a565b612af3602083018461273a565b9392505050565b6000606082019050612b0f600083018661273a565b612b1c602083018561273a565b612b2960408301846124a4565b949350505050565b600060c082019050612b46600083018961273a565b612b53602083018861273a565b612b60604083018761273a565b612b6d606083018661273a565b612b7a60808301856124a4565b612b8760a08301846124a4565b979650505050505050565b6000612b9c612bad565b9050612ba88282612ded565b919050565b6000604051905090565b600067ffffffffffffffff821115612bd257612bd1612f2d565b5b602082029050602081019050919050565b600067ffffffffffffffff821115612bfe57612bfd612f2d565b5b612c0782612f75565b9050602081019050919050565b6000819050602082019050919050565b600081519050919050565b600081519050919050565b6000602082019050919050565b600082825260208201905092915050565b600082825260208201905092915050565b600081905092915050565b6000612c7f82612d39565b9150612c8a83612d39565b9250827fffffffffffffffffffffffffffffffffffffffffffffffffffffffffffffffff03821115612cbf57612cbe612e71565b5b828201905092915050565b6000612cd582612d39565b9150612ce083612d39565b925082612cf057612cef612ea0565b5b828204905092915050565b6000612d0682612d19565b9050919050565b60008115159050919050565b600073ffffffffffffffffffffffffffffffffffffffff82169050919050565b6000819050919050565b6000612d4e82612d55565b9050919050565b6000612d6082612d67565b9050919050565b6000612d7282612d19565b9050919050565b82818337600083830152505050565b60005b83811015612da6578082015181840152602081019050612d8b565b83811115612db5576000848401525b50505050565b60006002820490506001821680612dd357607f821691505b60208210811415612de757612de6612ecf565b5b50919050565b612df682612f75565b810181811067ffffffffffffffff82111715612e1557612e14612f2d565b5b80604052505050565b6000612e2982612d39565b91507fffffffffffffffffffffffffffffffffffffffffffffffffffffffffffffffff821415612e5c57612e5b612e71565b5b600182019050919050565b6000819050919050565b7f4e487b7100000000000000000000000000000000000000000000000000000000600052601160045260246000fd5b7f4e487b7100000000000000000000000000000000000000000000000000000000600052601260045260246000fd5b7f4e487b7100000000000000000000000000000000000000000000000000000000600052602260045260246000fd5b7f4e487b7100000000000000000000000000000000000000000000000000000000600052603260045260246000fd5b7f4e487b7100000000000000000000000000000000000000000000000000000000600052604160045260246000fd5b600080fd5b600080fd5b600080fd5b600080fd5b600080fd5b6000601f19601f8301169050919050565b7fe68a95e7a5a8e79a84e98089e9a1b9e4b88de5ad98e59ca80000000000000000600082015250565b7f4167656e7420537569746162696c69747920666f7220436f7572736520000000600082015250565b7f496e76616c6964206f7074696f6e000000000000000000000000000000000000600082015250565b7f416c726561647920657865637574656400000000000000000000000000000000600082015250565b7f4e6f20726174696e6773207375626d6974746564000000000000000000000000600082015250565b7f566f746572206e6f742072656769737465726564000000000000000000000000600082015250565b7fe8b4a6e688b7e69caae6b3a8e5868c0000000000000000000000000000000000600082015250565b7f4f6e6c792074656163686572732063616e2063616c6c20746869730000000000600082015250565b7f496e76616c696420746561636865720000000000000000000000000000000000600082015250565b7f43616c6c6572206d75737420626520636f6e7472616374206f7220766f746572600082015250565b7f526174696e6720312d3130206f6e6c7900000000000000000000000000000000600082015250565b7fe682a8e5b7b2e68a95e7a5a80000000000000000000000000000000000000000600082015250565b7f416c726561647920726174656400000000000000000000000000000000000000600082015250565b7fe68a95e7a5a8e4babae695b0e5b7b2e6bba10000000000000000000000000000600082015250565b7fe8b4a6e688b7e5b7b2e6b3a8e5868c0000000000000000000000000000000000600082015250565b7f496e76616c69642070726f706f73616c00000000000000000000000000000000600082015250565b61321f81612cfb565b811461322a57600080fd5b50565b61323681612d39565b811461324157600080fd5b5056fea2646970667358221220ddaca1196641f9cb6cfaace48ac77ba09966da2261d18a302d89c4a6d288fe4364736f6c63430008070033",
  "immutableReferences": {},
  "source": "// SPDX-License-Identifier: MIT\r\npragma solidity ^0.8.7;\r\n\r\nimport \"./Vote.sol\";\r\nimport \"./CourseAllocation.sol\";\r\n\r\ncontract TeacherVote is Vote {\r\n    CourseAllocation public courseAllocation;\r\n\r\n    constructor(address _courseAllocationAddress) {\r\n        courseAllocation = CourseAllocation(_courseAllocationAddress);\r\n    }\r\n\r\n    // 课程评分提案结构\r\n    struct CourseRatingProposal {\r\n        uint256 courseId;\r\n        uint256 totalRating;\r\n        uint256 raterCount;\r\n        uint256 suitabilityProposalId; // 关键修改：存储关联的投票提案ID\r\n        bool executed;\r\n        mapping(uint256 => uint256) teacherRatings;\r\n        bool finalSuitability;\r\n    }\r\n\r\n    mapping(uint256 => CourseRatingProposal) public proposals;\r\n    uint256 public proposalCount;\r\n\r\n    event NewRatingProposal(\r\n        uint256 indexed proposalId,\r\n        uint256 indexed courseId\r\n    );\r\n    event ProposalExecuted(\r\n        uint256 indexed proposalId,\r\n        uint256 avgImportance,\r\n        bool isAgentSuitable\r\n    );\r\n\r\n    modifier onlyTeacher() {\r\n        require(\r\n            courseAllocation.addressToTeacherId(msg.sender) != 0,\r\n            \"Only teachers can call this\"\r\n        );\r\n        _;\r\n    }\r\n\r\n    // 创建新课程评分提案\r\n    function createRatingProposal(\r\n        uint256 courseId\r\n    ) external onlyTeacher returns (uint256) {\r\n        require(\r\n            courseAllocation.addressToTeacherId(msg.sender) != 0,\r\n            \"Invalid teacher\"\r\n        );\r\n\r\n        // 创建二元选择投票提案\r\n        uint256[] memory options = new uint256[](2);\r\n        options[0] = 1; // 反对\r\n        options[1] = 2; // 赞成\r\n\r\n        uint256 suitabilityProposalId = createChooseTeacherProposal(\r\n            string(abi.encodePacked(\"Agent Suitability for Course \", courseId)),\r\n            courseId,\r\n            options,\r\n            type(uint256).max // 需要全体教师投票\r\n        );\r\n\r\n        proposalCount++;\r\n        CourseRatingProposal storage p = proposals[proposalCount];\r\n        p.courseId = courseId;\r\n        p.suitabilityProposalId = suitabilityProposalId; // 存储关联的投票提案ID\r\n\r\n        emit NewRatingProposal(proposalCount, courseId);\r\n        return proposalCount;\r\n    }\r\n\r\n    // 新增：教师投票接口\r\n    function voteForSuitability(\r\n        uint256 suitabilityProposalId,\r\n        uint256 optionId\r\n    ) external onlyTeacher {\r\n        require(optionId == 1 || optionId == 2, \"Invalid option\");\r\n        super.voteChooseTeacher(msg.sender, suitabilityProposalId, optionId);\r\n    }\r\n\r\n    // 提交评分\r\n    function submitRating(\r\n        uint256 proposalId,\r\n        uint256 rating\r\n    ) external onlyTeacher {\r\n        CourseRatingProposal storage p = proposals[proposalId];\r\n        require(p.courseId != 0, \"Invalid proposal\");\r\n        require(rating >= 1 && rating <= 10, \"Rating 1-10 only\");\r\n\r\n        uint256 teacherId = courseAllocation.addressToTeacherId(msg.sender);\r\n        require(p.teacherRatings[teacherId] == 0, \"Already rated\");\r\n\r\n        p.teacherRatings[teacherId] = rating;\r\n        p.totalRating += rating;\r\n        p.raterCount++;\r\n    }\r\n\r\n    // 执行提案\r\n    function executeProposal(uint256 ratingProposalId) external {\r\n        CourseRatingProposal storage p = proposals[ratingProposalId];\r\n        require(!p.executed, \"Already executed\");\r\n        require(p.raterCount > 0, \"No ratings submitted\");\r\n\r\n        // 获取投票结果\r\n        (uint256 voteResult, ) = endVoteChooseTeacher(p.suitabilityProposalId);\r\n        p.finalSuitability = (voteResult == 2);\r\n\r\n        // 更新课程属性\r\n        courseAllocation.setCourseProperties(\r\n            p.courseId,\r\n            p.totalRating / p.raterCount,\r\n            p.finalSuitability\r\n        );\r\n\r\n        p.executed = true;\r\n        emit ProposalExecuted(\r\n            ratingProposalId,\r\n            p.totalRating / p.raterCount,\r\n            p.finalSuitability\r\n        );\r\n    }\r\n\r\n    // 获取评分\r\n    function getTeacherRating(\r\n        uint256 proposalId,\r\n        uint256 teacherId\r\n    ) public view returns (uint256) {\r\n        return proposals[proposalId].teacherRatings[teacherId];\r\n    }\r\n}\r\n",
  "sourcePath": "E:\\dao\\327\\Course-allocation\\project\\contracts\\TeacherVote.sol",
  "compiler": {
    "name": "solc",
    "version": "0.8.7+commit.e28d00a7.Emscripten.clang"
  },
  "schemaVersion": "3.4.16",
  "updatedAt": "2025-04-03T07:44:04.157Z",
  "networkType": "ethereum",
  "devdoc": {
    "kind": "dev",
    "methods": {},
    "version": 1
  },
  "userdoc": {
    "kind": "user",
    "methods": {},
    "version": 1
  }
}