{
  "contractName": "TeacherVote",
  "abi": [
    {
      "inputs": [
        {
          "internalType": "address",
          "name": "_courseAllocationAddress",
          "type": "address"
        }
      ],
      "stateMutability": "nonpayable",
      "type": "constructor"
    },
    {
      "anonymous": false,
      "inputs": [
        {
          "indexed": true,
          "internalType": "uint256",
          "name": "proposalId",
          "type": "uint256"
        },
        {
          "indexed": true,
          "internalType": "uint256",
          "name": "courseId",
          "type": "uint256"
        },
        {
          "indexed": false,
          "internalType": "uint256",
          "name": "suitabilityProposalId",
          "type": "uint256"
        }
      ],
      "name": "NewCombinedProposal",
      "type": "event"
    },
    {
      "anonymous": false,
      "inputs": [
        {
          "indexed": false,
          "internalType": "uint256",
          "name": "proposalId",
          "type": "uint256"
        },
        {
          "indexed": false,
          "internalType": "string",
          "name": "description",
          "type": "string"
        }
      ],
      "name": "ProposalCreated",
      "type": "event"
    },
    {
      "anonymous": false,
      "inputs": [
        {
          "indexed": true,
          "internalType": "uint256",
          "name": "proposalId",
          "type": "uint256"
        },
        {
          "indexed": false,
          "internalType": "uint256",
          "name": "avgImportance",
          "type": "uint256"
        },
        {
          "indexed": false,
          "internalType": "bool",
          "name": "isAgentSuitable",
          "type": "bool"
        }
      ],
      "name": "ProposalExecuted",
      "type": "event"
    },
    {
      "inputs": [],
      "name": "courseAllocation",
      "outputs": [
        {
          "internalType": "contract ICourseAllocation",
          "name": "",
          "type": "address"
        }
      ],
      "stateMutability": "view",
      "type": "function",
      "constant": true
    },
    {
      "inputs": [
        {
          "internalType": "string",
          "name": "_description",
          "type": "string"
        },
        {
          "internalType": "uint256",
          "name": "_voteforID",
          "type": "uint256"
        },
        {
          "internalType": "uint256[]",
          "name": "_votedIds",
          "type": "uint256[]"
        },
        {
          "internalType": "uint256",
          "name": "_totalVote",
          "type": "uint256"
        }
      ],
      "name": "createChooseCourseProposal",
      "outputs": [
        {
          "internalType": "uint256",
          "name": "",
          "type": "uint256"
        }
      ],
      "stateMutability": "nonpayable",
      "type": "function"
    },
    {
      "inputs": [
        {
          "internalType": "string",
          "name": "_description",
          "type": "string"
        },
        {
          "internalType": "uint256",
          "name": "_voteforID",
          "type": "uint256"
        },
        {
          "internalType": "uint256[]",
          "name": "_votedIds",
          "type": "uint256[]"
        },
        {
          "internalType": "uint256",
          "name": "_totalVote",
          "type": "uint256"
        }
      ],
      "name": "createChooseTeacherProposal",
      "outputs": [
        {
          "internalType": "uint256",
          "name": "",
          "type": "uint256"
        }
      ],
      "stateMutability": "nonpayable",
      "type": "function"
    },
    {
      "inputs": [
        {
          "internalType": "string",
          "name": "_description",
          "type": "string"
        },
        {
          "internalType": "uint256",
          "name": "_voteforID",
          "type": "uint256"
        },
        {
          "internalType": "uint256[]",
          "name": "_votedIds",
          "type": "uint256[]"
        },
        {
          "internalType": "uint256[]",
          "name": "_votedCounts",
          "type": "uint256[]"
        },
        {
          "internalType": "uint256",
          "name": "_totalVote",
          "type": "uint256"
        }
      ],
      "name": "createMachineProposal",
      "outputs": [
        {
          "internalType": "uint256",
          "name": "",
          "type": "uint256"
        }
      ],
      "stateMutability": "nonpayable",
      "type": "function"
    },
    {
      "inputs": [
        {
          "internalType": "string",
          "name": "_description",
          "type": "string"
        },
        {
          "internalType": "uint256",
          "name": "_voteforID",
          "type": "uint256"
        },
        {
          "internalType": "uint256[]",
          "name": "_votedIds",
          "type": "uint256[]"
        },
        {
          "internalType": "uint256[]",
          "name": "_votedCounts",
          "type": "uint256[]"
        }
      ],
      "name": "createMachineVoteProposal",
      "outputs": [
        {
          "internalType": "uint256",
          "name": "",
          "type": "uint256"
        }
      ],
      "stateMutability": "nonpayable",
      "type": "function"
    },
    {
      "inputs": [
        {
          "internalType": "string",
          "name": "_description",
          "type": "string"
        },
        {
          "internalType": "uint256",
          "name": "_voteforID",
          "type": "uint256"
        },
        {
          "internalType": "uint256[]",
          "name": "_votedIds",
          "type": "uint256[]"
        },
        {
          "internalType": "uint256",
          "name": "_totalVote",
          "type": "uint256"
        }
      ],
      "name": "createProposalMultiple",
      "outputs": [
        {
          "internalType": "uint256",
          "name": "",
          "type": "uint256"
        }
      ],
      "stateMutability": "nonpayable",
      "type": "function"
    },
    {
      "inputs": [
        {
          "internalType": "uint256",
          "name": "_proposalId",
          "type": "uint256"
        }
      ],
      "name": "endVoteChooseCourse",
      "outputs": [
        {
          "internalType": "uint256",
          "name": "",
          "type": "uint256"
        },
        {
          "internalType": "uint256",
          "name": "",
          "type": "uint256"
        },
        {
          "internalType": "uint256[]",
          "name": "",
          "type": "uint256[]"
        },
        {
          "internalType": "uint256[]",
          "name": "",
          "type": "uint256[]"
        }
      ],
      "stateMutability": "view",
      "type": "function",
      "constant": true
    },
    {
      "inputs": [
        {
          "internalType": "uint256",
          "name": "_proposalId",
          "type": "uint256"
        }
      ],
      "name": "endVoteChooseTeacher",
      "outputs": [
        {
          "internalType": "uint256",
          "name": "",
          "type": "uint256"
        },
        {
          "internalType": "uint256",
          "name": "",
          "type": "uint256"
        },
        {
          "internalType": "uint256[]",
          "name": "",
          "type": "uint256[]"
        },
        {
          "internalType": "uint256[]",
          "name": "",
          "type": "uint256[]"
        }
      ],
      "stateMutability": "view",
      "type": "function",
      "constant": true
    },
    {
      "inputs": [
        {
          "internalType": "uint256",
          "name": "_proposalId",
          "type": "uint256"
        }
      ],
      "name": "endVoteMultiple",
      "outputs": [
        {
          "internalType": "uint256",
          "name": "",
          "type": "uint256"
        },
        {
          "internalType": "uint256",
          "name": "",
          "type": "uint256"
        },
        {
          "internalType": "uint256[]",
          "name": "",
          "type": "uint256[]"
        },
        {
          "internalType": "uint256[]",
          "name": "",
          "type": "uint256[]"
        }
      ],
      "stateMutability": "view",
      "type": "function",
      "constant": true
    },
    {
      "inputs": [
        {
          "internalType": "uint256",
          "name": "_proposalId",
          "type": "uint256"
        },
        {
          "internalType": "uint256",
          "name": "_voteId",
          "type": "uint256"
        }
      ],
      "name": "getVoteIdToCount",
      "outputs": [
        {
          "internalType": "uint256",
          "name": "",
          "type": "uint256"
        }
      ],
      "stateMutability": "view",
      "type": "function",
      "constant": true
    },
    {
      "inputs": [
        {
          "internalType": "uint256",
          "name": "_proposalId",
          "type": "uint256"
        }
      ],
      "name": "getVotedIds",
      "outputs": [
        {
          "internalType": "uint256[]",
          "name": "",
          "type": "uint256[]"
        },
        {
          "internalType": "uint256",
          "name": "",
          "type": "uint256"
        }
      ],
      "stateMutability": "view",
      "type": "function",
      "constant": true
    },
    {
      "inputs": [],
      "name": "proposalCount",
      "outputs": [
        {
          "internalType": "uint256",
          "name": "",
          "type": "uint256"
        }
      ],
      "stateMutability": "view",
      "type": "function",
      "constant": true
    },
    {
      "inputs": [
        {
          "internalType": "uint256",
          "name": "",
          "type": "uint256"
        }
      ],
      "name": "proposalMultipleIds",
      "outputs": [
        {
          "internalType": "uint256",
          "name": "",
          "type": "uint256"
        }
      ],
      "stateMutability": "view",
      "type": "function",
      "constant": true
    },
    {
      "inputs": [
        {
          "internalType": "uint256",
          "name": "",
          "type": "uint256"
        }
      ],
      "name": "proposalMultiples",
      "outputs": [
        {
          "internalType": "uint256",
          "name": "id",
          "type": "uint256"
        },
        {
          "internalType": "string",
          "name": "description",
          "type": "string"
        },
        {
          "internalType": "uint256",
          "name": "voteforID",
          "type": "uint256"
        },
        {
          "internalType": "uint256",
          "name": "voteCount",
          "type": "uint256"
        },
        {
          "internalType": "uint256",
          "name": "totalVote",
          "type": "uint256"
        }
      ],
      "stateMutability": "view",
      "type": "function",
      "constant": true
    },
    {
      "inputs": [
        {
          "internalType": "uint256",
          "name": "",
          "type": "uint256"
        }
      ],
      "name": "proposals",
      "outputs": [
        {
          "internalType": "uint256",
          "name": "courseId",
          "type": "uint256"
        },
        {
          "internalType": "uint256",
          "name": "totalRating",
          "type": "uint256"
        },
        {
          "internalType": "uint256",
          "name": "raterCount",
          "type": "uint256"
        },
        {
          "internalType": "uint256",
          "name": "suitabilityProposalId",
          "type": "uint256"
        },
        {
          "internalType": "bool",
          "name": "executed",
          "type": "bool"
        },
        {
          "internalType": "uint256",
          "name": "agreeCount",
          "type": "uint256"
        },
        {
          "internalType": "uint256",
          "name": "disagreeCount",
          "type": "uint256"
        }
      ],
      "stateMutability": "view",
      "type": "function",
      "constant": true
    },
    {
      "inputs": [
        {
          "internalType": "address",
          "name": "_voter",
          "type": "address"
        }
      ],
      "name": "registerVoter",
      "outputs": [],
      "stateMutability": "nonpayable",
      "type": "function"
    },
    {
      "inputs": [
        {
          "internalType": "uint256",
          "name": "",
          "type": "uint256"
        },
        {
          "internalType": "address",
          "name": "",
          "type": "address"
        }
      ],
      "name": "suitabilityVotes",
      "outputs": [
        {
          "internalType": "bool",
          "name": "",
          "type": "bool"
        }
      ],
      "stateMutability": "view",
      "type": "function",
      "constant": true
    },
    {
      "inputs": [
        {
          "internalType": "uint256",
          "name": "",
          "type": "uint256"
        },
        {
          "internalType": "uint256",
          "name": "",
          "type": "uint256"
        }
      ],
      "name": "teacherRatings",
      "outputs": [
        {
          "internalType": "uint256",
          "name": "rating",
          "type": "uint256"
        },
        {
          "internalType": "bool",
          "name": "hasRated",
          "type": "bool"
        }
      ],
      "stateMutability": "view",
      "type": "function",
      "constant": true
    },
    {
      "inputs": [
        {
          "internalType": "address",
          "name": "voterAddress",
          "type": "address"
        },
        {
          "internalType": "uint256",
          "name": "_proposalId",
          "type": "uint256"
        },
        {
          "internalType": "uint256",
          "name": "_voteId",
          "type": "uint256"
        }
      ],
      "name": "voteChooseCourse",
      "outputs": [],
      "stateMutability": "nonpayable",
      "type": "function"
    },
    {
      "inputs": [
        {
          "internalType": "address",
          "name": "voterAddress",
          "type": "address"
        },
        {
          "internalType": "uint256",
          "name": "_proposalId",
          "type": "uint256"
        },
        {
          "internalType": "uint256",
          "name": "_voteId",
          "type": "uint256"
        }
      ],
      "name": "voteChooseTeacher",
      "outputs": [],
      "stateMutability": "nonpayable",
      "type": "function"
    },
    {
      "inputs": [
        {
          "internalType": "address",
          "name": "voter",
          "type": "address"
        },
        {
          "internalType": "uint256",
          "name": "_proposalId",
          "type": "uint256"
        },
        {
          "internalType": "uint256",
          "name": "_voteId",
          "type": "uint256"
        }
      ],
      "name": "voteMultiple",
      "outputs": [],
      "stateMutability": "nonpayable",
      "type": "function"
    },
    {
      "inputs": [
        {
          "internalType": "address",
          "name": "",
          "type": "address"
        }
      ],
      "name": "voters",
      "outputs": [
        {
          "internalType": "uint256",
          "name": "id",
          "type": "uint256"
        },
        {
          "internalType": "address",
          "name": "voter",
          "type": "address"
        },
        {
          "internalType": "uint256",
          "name": "weight",
          "type": "uint256"
        }
      ],
      "stateMutability": "view",
      "type": "function",
      "constant": true
    },
    {
      "inputs": [
        {
          "internalType": "uint256",
          "name": "",
          "type": "uint256"
        }
      ],
      "name": "votersAddress",
      "outputs": [
        {
          "internalType": "address",
          "name": "",
          "type": "address"
        }
      ],
      "stateMutability": "view",
      "type": "function",
      "constant": true
    },
    {
      "inputs": [
        {
          "internalType": "address",
          "name": "_addr",
          "type": "address"
        }
      ],
      "name": "setCourseAllocation",
      "outputs": [],
      "stateMutability": "nonpayable",
      "type": "function"
    },
    {
      "inputs": [
        {
          "internalType": "uint256",
          "name": "courseId",
          "type": "uint256"
        }
      ],
      "name": "createCombinedProposal",
      "outputs": [
        {
          "internalType": "uint256",
          "name": "",
          "type": "uint256"
        }
      ],
      "stateMutability": "nonpayable",
      "type": "function"
    },
    {
      "inputs": [
        {
          "internalType": "uint256",
          "name": "proposalId",
          "type": "uint256"
        },
        {
          "internalType": "uint256",
          "name": "rating",
          "type": "uint256"
        },
        {
          "internalType": "uint256",
          "name": "suitabilityOptionIndex",
          "type": "uint256"
        }
      ],
      "name": "submitCombinedVote",
      "outputs": [],
      "stateMutability": "nonpayable",
      "type": "function"
    },
    {
      "inputs": [
        {
          "internalType": "uint256",
          "name": "proposalId",
          "type": "uint256"
        }
      ],
      "name": "executeProposal",
      "outputs": [],
      "stateMutability": "nonpayable",
      "type": "function"
    },
    {
      "inputs": [
        {
          "internalType": "uint256",
          "name": "_proposalId",
          "type": "uint256"
        }
      ],
      "name": "endVote",
      "outputs": [
        {
          "internalType": "uint256",
          "name": "",
          "type": "uint256"
        },
        {
          "internalType": "uint256",
          "name": "",
          "type": "uint256"
        }
      ],
      "stateMutability": "view",
      "type": "function",
      "constant": true
    },
    {
      "inputs": [
        {
          "internalType": "uint256",
          "name": "proposalId",
          "type": "uint256"
        }
      ],
      "name": "getVoteDetails",
      "outputs": [
        {
          "internalType": "uint256",
          "name": "agree",
          "type": "uint256"
        },
        {
          "internalType": "uint256",
          "name": "disagree",
          "type": "uint256"
        },
        {
          "internalType": "uint256",
          "name": "totalRatings",
          "type": "uint256"
        },
        {
          "internalType": "uint256",
          "name": "courseId",
          "type": "uint256"
        }
      ],
      "stateMutability": "view",
      "type": "function",
      "constant": true
    },
    {
      "inputs": [
        {
          "internalType": "uint256",
          "name": "proposalId",
          "type": "uint256"
        },
        {
          "internalType": "uint256",
          "name": "teacherId",
          "type": "uint256"
        }
      ],
      "name": "getTeacherRating",
      "outputs": [
        {
          "internalType": "uint256",
          "name": "",
          "type": "uint256"
        }
      ],
      "stateMutability": "view",
      "type": "function",
      "constant": true
    }
  ],
  "bytecode": "0x60806040523480156200001157600080fd5b506040516200383e3803806200383e833981810160405281019062000037919062000096565b80600460006101000a81548173ffffffffffffffffffffffffffffffffffffffff021916908373ffffffffffffffffffffffffffffffffffffffff160217905550506200011b565b600081519050620000908162000101565b92915050565b600060208284031215620000af57620000ae620000fc565b5b6000620000bf848285016200007f565b91505092915050565b6000620000d582620000dc565b9050919050565b600073ffffffffffffffffffffffffffffffffffffffff82169050919050565b600080fd5b6200010c81620000c8565b81146200011857600080fd5b50565b613713806200012b6000396000f3fe608060405234801561001057600080fd5b50600436106101da5760003560e01c806376ce93f711610104578063b2af0cc5116100a2578063c845c19811610071578063c845c19814610650578063da35c66414610680578063e20e71f91461069e578063fe8d724c146106ba576101da565b8063b2af0cc5146105b8578063b9002f3d146105e8578063bc8c24d914610604578063bc9cad8a14610620576101da565b806388462f2c116100de57806388462f2c1461050a5780638984e99314610526578063a3ec138d14610556578063b201539f14610588576101da565b806376ce93f714610478578063777ea2c9146104a9578063865df0ad146104d9576101da565b8063361d5b791161017c57806346c7e2a91161014b57806346c7e2a9146103b157806354a1b431146103e257806355d2f08e146104155780636d1efef014610448576101da565b8063361d5b791461031457806338db6dd31461034757806343242daa1461036357806345f5099614610393576101da565b80630f0626b5116101b85780630f0626b514610261578063148f8e4f14610291578063162b040d146102c55780632b6b189b146102f8576101da565b8063013cf08b146101df5780630202f847146102155780630d61b51914610245575b600080fd5b6101f960048036038101906101f49190612701565b6106ea565b60405161020c9796959493929190612fbc565b60405180910390f35b61022f600480360381019061022a9190612662565b610739565b60405161023c9190612df6565b60405180910390f35b61025f600480360381019061025a9190612701565b610751565b005b61027b60048036038101906102769190612701565b61096c565b6040516102889190612df6565b60405180910390f35b6102ab60048036038101906102a69190612701565b610990565b6040516102bc959493929190612ea1565b60405180910390f35b6102df60048036038101906102da9190612701565b610a4e565b6040516102ef9493929190612f24565b60405180910390f35b610312600480360381019061030d9190612485565b610c6d565b005b61032e60048036038101906103299190612701565b610ff5565b60405161033e9493929190612f24565b60405180910390f35b610361600480360381019061035c9190612458565b611013565b005b61037d60048036038101906103789190612701565b611227565b60405161038a9190612b95565b60405180910390f35b61039b611266565b6040516103a89190612bfb565b60405180910390f35b6103cb60048036038101906103c6919061279b565b61128c565b6040516103d9929190612e48565b60405180910390f35b6103fc60048036038101906103f79190612701565b6112ca565b60405161040c9493929190612f77565b60405180910390f35b61042f600480360381019061042a9190612701565b61136d565b60405161043f9493929190612f24565b60405180910390f35b610462600480360381019061045d919061275b565b61138b565b60405161046f9190612be0565b60405180910390f35b610492600480360381019061048d9190612701565b6113ba565b6040516104a0929190612bb0565b60405180910390f35b6104c360048036038101906104be9190612662565b611446565b6040516104d09190612df6565b60405180910390f35b6104f360048036038101906104ee9190612701565b61145e565b604051610501929190612efb565b60405180910390f35b610524600480360381019061051f9190612485565b6114b8565b005b610540600480360381019061053b9190612701565b6114c8565b60405161054d9190612df6565b60405180910390f35b610570600480360381019061056b9190612458565b6117cd565b60405161057f93929190612e11565b60405180910390f35b6105a2600480360381019061059d9190612593565b611817565b6040516105af9190612df6565b60405180910390f35b6105d260048036038101906105cd9190612662565b611a13565b6040516105df9190612df6565b60405180910390f35b61060260048036038101906105fd91906127db565b611bae565b005b61061e60048036038101906106199190612485565b612143565b005b61063a600480360381019061063591906124d8565b612153565b6040516106479190612df6565b60405180910390f35b61066a6004803603810190610665919061279b565b61216d565b6040516106779190612df6565b60405180910390f35b61068861219f565b6040516106959190612df6565b60405180910390f35b6106b860048036038101906106b39190612458565b6121a5565b005b6106d460048036038101906106cf919061279b565b6121e9565b6040516106e19190612df6565b60405180910390f35b60066020528060005260406000206000915090508060000154908060010154908060020154908060030154908060040160009054906101000a900460ff16908060050154908060060154905087565b600061074785858585611a13565b9050949350505050565b60006006600083815260200190815260200160002090506000816000015414156107b0576040517f08c379a00000000000000000000000000000000000000000000000000000000081526004016107a790612dd6565b60405180910390fd5b8060040160009054906101000a900460ff1615610802576040517f08c379a00000000000000000000000000000000000000000000000000000000081526004016107f990612c76565b60405180910390fd5b6000816002015411610849576040517f08c379a000000000000000000000000000000000000000000000000000000000815260040161084090612c96565b60405180910390fd5b60008160020154826001015461085f9190613163565b90506000610870836003015461145e565b5090506000600282149050600460009054906101000a900473ffffffffffffffffffffffffffffffffffffffff1673ffffffffffffffffffffffffffffffffffffffff1663e204b1028560000154856040518363ffffffff1660e01b81526004016108dc929190612efb565b600060405180830381600087803b1580156108f657600080fd5b505af115801561090a573d6000803e3d6000fd5b5050505060018460040160006101000a81548160ff021916908315150217905550847f675c71fb6cbf880ec8fed9c345ef0bb3019cc44b99708edb402b85a7535d7d19848360405161095d929190612e48565b60405180910390a25050505050565b6003818154811061097c57600080fd5b906000526020600020016000915090505481565b60026020528060005260406000206000915090508060000154908060010180546109b990613254565b80601f01602080910402602001604051908101604052809291908181526020018280546109e590613254565b8015610a325780601f10610a0757610100808354040283529160200191610a32565b820191906000526020600020905b815481529060010190602001808311610a1557829003601f168201915b5050505050908060020154908060060154908060070154905085565b600080606080600080600060026000898152602001908152602001600020600301805480602002602001604051908101604052809291908181526020018280548015610ab957602002820191906000526020600020905b815481526020019060010190808311610aa5575b505050505090506000600260008a81526020019081526020016000206002015490506000825167ffffffffffffffff811115610af857610af76133c6565b5b604051908082528060200260200182016040528015610b265781602001602082028036833780820191505090505b50905060005b8351811015610c545785600260008d81526020019081526020016000206004016000868481518110610b6157610b60613397565b5b60200260200101518152602001908152602001600020541115610be057600260008c81526020019081526020016000206004016000858381518110610ba957610ba8613397565b5b60200260200101518152602001908152602001600020549550838181518110610bd557610bd4613397565b5b602002602001015194505b600260008c81526020019081526020016000206004016000858381518110610c0b57610c0a613397565b5b6020026020010151815260200190815260200160002054828281518110610c3557610c34613397565b5b6020026020010181815250508080610c4c906132b7565b915050610b2c565b5083828483985098509850985050505050509193509193565b600073ffffffffffffffffffffffffffffffffffffffff166000808573ffffffffffffffffffffffffffffffffffffffff1673ffffffffffffffffffffffffffffffffffffffff16815260200190815260200160002060010160009054906101000a900473ffffffffffffffffffffffffffffffffffffffff1673ffffffffffffffffffffffffffffffffffffffff161415610d3e576040517f08c379a0000000000000000000000000000000000000000000000000000000008152600401610d3590612cb6565b60405180910390fd5b600015156002600084815260200190815260200160002060050160008573ffffffffffffffffffffffffffffffffffffffff1673ffffffffffffffffffffffffffffffffffffffff16815260200190815260200160002060009054906101000a900460ff16151514610de5576040517f08c379a0000000000000000000000000000000000000000000000000000000008152600401610ddc90612d16565b60405180910390fd5b6002600083815260200190815260200160002060070154600260008481526020019081526020016000206006015410610e53576040517f08c379a0000000000000000000000000000000000000000000000000000000008152600401610e4a90612d76565b60405180910390fd5b6000805b6002600085815260200190815260200160002060030180549050811015610fa75782600260008681526020019081526020016000206003018281548110610ea157610ea0613397565b5b90600052602060002001541415610f945760016002600086815260200190815260200160002060040160008581526020019081526020016000206000828254610eea919061310d565b925050819055506001600260008681526020019081526020016000206006016000828254610f18919061310d565b9250508190555060016002600086815260200190815260200160002060050160008773ffffffffffffffffffffffffffffffffffffffff1673ffffffffffffffffffffffffffffffffffffffff16815260200190815260200160002060006101000a81548160ff02191690831515021790555060019150610fa7565b8080610f9f906132b7565b915050610e57565b506001151581151514610fef576040517f08c379a0000000000000000000000000000000000000000000000000000000008152600401610fe690612c16565b60405180910390fd5b50505050565b60008060608061100485610a4e565b93509350935093509193509193565b600073ffffffffffffffffffffffffffffffffffffffff166000808373ffffffffffffffffffffffffffffffffffffffff1673ffffffffffffffffffffffffffffffffffffffff16815260200190815260200160002060010160009054906101000a900473ffffffffffffffffffffffffffffffffffffffff1673ffffffffffffffffffffffffffffffffffffffff16146110e3576040517f08c379a00000000000000000000000000000000000000000000000000000000081526004016110da90612db6565b60405180910390fd5b6040518060600160405280600180805490506110ff919061310d565b81526020018273ffffffffffffffffffffffffffffffffffffffff16815260200160018152506000808373ffffffffffffffffffffffffffffffffffffffff1673ffffffffffffffffffffffffffffffffffffffff1681526020019081526020016000206000820151816000015560208201518160010160006101000a81548173ffffffffffffffffffffffffffffffffffffffff021916908373ffffffffffffffffffffffffffffffffffffffff160217905550604082015181600201559050506001819080600181540180825580915050600190039060005260206000200160009091909190916101000a81548173ffffffffffffffffffffffffffffffffffffffff021916908373ffffffffffffffffffffffffffffffffffffffff16021790555050565b6001818154811061123757600080fd5b906000526020600020016000915054906101000a900473ffffffffffffffffffffffffffffffffffffffff1681565b600460009054906101000a900473ffffffffffffffffffffffffffffffffffffffff1681565b6007602052816000526040600020602052806000526040600020600091509150508060000154908060010160009054906101000a900460ff16905082565b6000806000806000600660008781526020019081526020016000206040518060e0016040529081600082015481526020016001820154815260200160028201548152602001600382015481526020016004820160009054906101000a900460ff161515151581526020016005820154815260200160068201548152505090508060a001518160c00151826040015183600001519450945094509450509193509193565b60008060608061137c85610a4e565b93509350935093509193509193565b60086020528160005260406000206020528060005260406000206000915091509054906101000a900460ff1681565b606060006002600084815260200190815260200160002060030160026000858152602001908152602001600020600201548180548060200260200160405190810160405280929190818152602001828054801561143657602002820191906000526020600020905b815481526020019060010190808311611422575b5050505050915091509150915091565b600061145485858585611a13565b9050949350505050565b600080600060066000858152602001908152602001600020905060008160060154826005015411611490576001611493565b60025b60ff16905080826006015483600501546114ad919061310d565b935093505050915091565b6114c3838383610c6d565b505050565b600080600460009054906101000a900473ffffffffffffffffffffffffffffffffffffffff1673ffffffffffffffffffffffffffffffffffffffff16630f7f13cf336040518263ffffffff1660e01b81526004016115269190612b95565b60206040518083038186803b15801561153e57600080fd5b505afa158015611552573d6000803e3d6000fd5b505050506040513d601f19601f82011682018060405250810190611576919061272e565b14156115b7576040517f08c379a00000000000000000000000000000000000000000000000000000000081526004016115ae90612cd6565b60405180910390fd5b6000600267ffffffffffffffff8111156115d4576115d36133c6565b5b6040519080825280602002602001820160405280156116025781602001602082028036833780820191505090505b50905060018160008151811061161b5761161a613397565b5b60200260200101818152505060028160018151811061163d5761163c613397565b5b60200260200101818152505060006116968460405160200161165f9190612b6f565b60405160208183030381529060405285847fffffffffffffffffffffffffffffffffffffffffffffffffffffffffffffffff610739565b9050816005600083815260200190815260200160002090805190602001906116bf92919061221b565b50600960008154809291906116d3906132b7565b91905055506040518060e0016040528085815260200160008152602001600081526020018281526020016000151581526020016000815260200160008152506006600060095481526020019081526020016000206000820151816000015560208201518160010155604082015181600201556060820151816003015560808201518160040160006101000a81548160ff02191690831515021790555060a0820151816005015560c08201518160060155905050836009547f588dccb0986c4198655070050849469a27cde1cecc8e248546bbfaf007188c65836040516117b99190612df6565b60405180910390a360095492505050919050565b60006020528060005260406000206000915090508060000154908060010160009054906101000a900473ffffffffffffffffffffffffffffffffffffffff16908060020154905083565b600080600160038054905061182c919061310d565b905080600260008381526020019081526020016000206000018190555086600260008381526020019081526020016000206001019080519060200190611873929190612268565b5060005b855181101561196d57600086828151811061189557611894613397565b5b60200260200101511461195a57600260008381526020019081526020016000206003018682815181106118cb576118ca613397565b5b6020026020010151908060018154018082558091505060019003906000526020600020016000909190919091505584818151811061190c5761190b613397565b5b602002602001015160026000848152602001908152602001600020600401600088848151811061193f5761193e613397565b5b60200260200101518152602001908152602001600020819055505b8080611965906132b7565b915050611877565b5082600260008381526020019081526020016000206007018190555085600260008381526020019081526020016000206002018190555060038190806001815401808255809150506001900390600052602060002001600090919091909150557f9c770c289ab5bf7e57cb1d23c8ceae993aea46eb64847072fd3d78ca60d3e43281886040516119fe929190612e71565b60405180910390a18091505095945050505050565b6000806001600380549050611a28919061310d565b905080600260008381526020019081526020016000206000018190555085600260008381526020019081526020016000206001019080519060200190611a6f929190612268565b5060005b8451811015611b09576000858281518110611a9157611a90613397565b5b602002602001015114611af65760026000838152602001908152602001600020600301858281518110611ac757611ac6613397565b5b602002602001015190806001815401808255809150506001900390600052602060002001600090919091909150555b8080611b01906132b7565b915050611a73565b5082600260008381526020019081526020016000206007018190555084600260008381526020019081526020016000206002018190555060038190806001815401808255809150506001900390600052602060002001600090919091909150557f9c770c289ab5bf7e57cb1d23c8ceae993aea46eb64847072fd3d78ca60d3e4328187604051611b9a929190612e71565b60405180910390a180915050949350505050565b6000600460009054906101000a900473ffffffffffffffffffffffffffffffffffffffff1673ffffffffffffffffffffffffffffffffffffffff16630f7f13cf336040518263ffffffff1660e01b8152600401611c0b9190612b95565b60206040518083038186803b158015611c2357600080fd5b505afa158015611c37573d6000803e3d6000fd5b505050506040513d601f19601f82011682018060405250810190611c5b919061272e565b1415611c9c576040517f08c379a0000000000000000000000000000000000000000000000000000000008152600401611c9390612cd6565b60405180910390fd5b6000600660008581526020019081526020016000209050600081600001541415611cfb576040517f08c379a0000000000000000000000000000000000000000000000000000000008152600401611cf290612dd6565b60405180910390fd5b8060040160009054906101000a900460ff1615611d4d576040517f08c379a0000000000000000000000000000000000000000000000000000000008152600401611d4490612d36565b60405180910390fd5b6000600460009054906101000a900473ffffffffffffffffffffffffffffffffffffffff1673ffffffffffffffffffffffffffffffffffffffff16630f7f13cf336040518263ffffffff1660e01b8152600401611daa9190612b95565b60206040518083038186803b158015611dc257600080fd5b505afa158015611dd6573d6000803e3d6000fd5b505050506040513d601f19601f82011682018060405250810190611dfa919061272e565b90506000811415611e40576040517f08c379a0000000000000000000000000000000000000000000000000000000008152600401611e3790612c36565b60405180910390fd5b60018410158015611e525750600a8411155b611e91576040517f08c379a0000000000000000000000000000000000000000000000000000000008152600401611e8890612cf6565b60405180910390fd5b600060076000878152602001908152602001600020600083815260200190815260200160002090508060010160009054906101000a900460ff1615611f0b576040517f08c379a0000000000000000000000000000000000000000000000000000000008152600401611f0290612d56565b60405180910390fd5b84816000018190555060018160010160006101000a81548160ff02191690831515021790555084836001016000828254611f45919061310d565b92505081905550826002016000815480929190611f61906132b7565b919050555060028410611fa9576040517f08c379a0000000000000000000000000000000000000000000000000000000008152600401611fa090612d96565b60405180910390fd5b6008600087815260200190815260200160002060003373ffffffffffffffffffffffffffffffffffffffff1673ffffffffffffffffffffffffffffffffffffffff16815260200190815260200160002060009054906101000a900460ff1615612047576040517f08c379a000000000000000000000000000000000000000000000000000000000815260040161203e90612c56565b60405180910390fd5b600184141561206f57826005016000815480929190612065906132b7565b919050555061208a565b826006016000815480929190612084906132b7565b91905055505b60016008600088815260200190815260200160002060003373ffffffffffffffffffffffffffffffffffffffff1673ffffffffffffffffffffffffffffffffffffffff16815260200190815260200160002060006101000a81548160ff02191690831515021790555060006005600085600301548152602001908152602001600020858154811061211e5761211d613397565b5b9060005260206000200154905061213a33856003015483612143565b50505050505050565b61214e838383610c6d565b505050565b6000612163858585856007611817565b9050949350505050565b600060076000848152602001908152602001600020600083815260200190815260200160002060000154905092915050565b60095481565b80600460006101000a81548173ffffffffffffffffffffffffffffffffffffffff021916908373ffffffffffffffffffffffffffffffffffffffff16021790555050565b600060026000848152602001908152602001600020600401600083815260200190815260200160002054905092915050565b828054828255906000526020600020908101928215612257579160200282015b8281111561225657825182559160200191906001019061223b565b5b50905061226491906122ee565b5090565b82805461227490613254565b90600052602060002090601f01602090048101928261229657600085556122dd565b82601f106122af57805160ff19168380011785556122dd565b828001600101855582156122dd579182015b828111156122dc5782518255916020019190600101906122c1565b5b5090506122ea91906122ee565b5090565b5b808211156123075760008160009055506001016122ef565b5090565b600061231e61231984613050565b61302b565b90508083825260208201905082856020860282011115612341576123406133fa565b5b60005b858110156123715781612357888261242e565b845260208401935060208301925050600181019050612344565b5050509392505050565b600061238e6123898461307c565b61302b565b9050828152602081018484840111156123aa576123a96133ff565b5b6123b5848285613212565b509392505050565b6000813590506123cc816136af565b92915050565b600082601f8301126123e7576123e66133f5565b5b81356123f784826020860161230b565b91505092915050565b600082601f830112612415576124146133f5565b5b813561242584826020860161237b565b91505092915050565b60008135905061243d816136c6565b92915050565b600081519050612452816136c6565b92915050565b60006020828403121561246e5761246d613409565b5b600061247c848285016123bd565b91505092915050565b60008060006060848603121561249e5761249d613409565b5b60006124ac868287016123bd565b93505060206124bd8682870161242e565b92505060406124ce8682870161242e565b9150509250925092565b600080600080608085870312156124f2576124f1613409565b5b600085013567ffffffffffffffff8111156125105761250f613404565b5b61251c87828801612400565b945050602061252d8782880161242e565b935050604085013567ffffffffffffffff81111561254e5761254d613404565b5b61255a878288016123d2565b925050606085013567ffffffffffffffff81111561257b5761257a613404565b5b612587878288016123d2565b91505092959194509250565b600080600080600060a086880312156125af576125ae613409565b5b600086013567ffffffffffffffff8111156125cd576125cc613404565b5b6125d988828901612400565b95505060206125ea8882890161242e565b945050604086013567ffffffffffffffff81111561260b5761260a613404565b5b612617888289016123d2565b935050606086013567ffffffffffffffff81111561263857612637613404565b5b612644888289016123d2565b92505060806126558882890161242e565b9150509295509295909350565b6000806000806080858703121561267c5761267b613409565b5b600085013567ffffffffffffffff81111561269a57612699613404565b5b6126a687828801612400565b94505060206126b78782880161242e565b935050604085013567ffffffffffffffff8111156126d8576126d7613404565b5b6126e4878288016123d2565b92505060606126f58782880161242e565b91505092959194509250565b60006020828403121561271757612716613409565b5b60006127258482850161242e565b91505092915050565b60006020828403121561274457612743613409565b5b600061275284828501612443565b91505092915050565b6000806040838503121561277257612771613409565b5b60006127808582860161242e565b9250506020612791858286016123bd565b9150509250929050565b600080604083850312156127b2576127b1613409565b5b60006127c08582860161242e565b92505060206127d18582860161242e565b9150509250929050565b6000806000606084860312156127f4576127f3613409565b5b60006128028682870161242e565b93505060206128138682870161242e565b92505060406128248682870161242e565b9150509250925092565b600061283a8383612b3a565b60208301905092915050565b61284f81613194565b82525050565b6000612860826130bd565b61286a81856130e0565b9350612875836130ad565b8060005b838110156128a657815161288d888261282e565b9750612898836130d3565b925050600181019050612879565b5085935050505092915050565b6128bc816131a6565b82525050565b6128cb816131dc565b82525050565b60006128dc826130c8565b6128e681856130f1565b93506128f6818560208601613221565b6128ff8161340e565b840191505092915050565b60006129176018836130f1565b91506129228261341f565b602082019050919050565b600061293a600783613102565b915061294582613448565b600782019050919050565b600061295d6014836130f1565b915061296882613471565b602082019050919050565b6000612980600d836130f1565b915061298b8261349a565b602082019050919050565b60006129a36010836130f1565b91506129ae826134c3565b602082019050919050565b60006129c66014836130f1565b91506129d1826134ec565b602082019050919050565b60006129e9600f836130f1565b91506129f482613515565b602082019050919050565b6000612a0c601b836130f1565b9150612a178261353e565b602082019050919050565b6000612a2f6015836130f1565b9150612a3a82613567565b602082019050919050565b6000612a52600c836130f1565b9150612a5d82613590565b602082019050919050565b6000612a756011836130f1565b9150612a80826135b9565b602082019050919050565b6000612a98600d836130f1565b9150612aa3826135e2565b602082019050919050565b6000612abb6012836130f1565b9150612ac68261360b565b602082019050919050565b6000612ade601a836130f1565b9150612ae982613634565b602082019050919050565b6000612b01600f836130f1565b9150612b0c8261365d565b602082019050919050565b6000612b246010836130f1565b9150612b2f82613686565b602082019050919050565b612b43816131d2565b82525050565b612b52816131d2565b82525050565b612b69612b64826131d2565b613300565b82525050565b6000612b7a8261292d565b9150612b868284612b58565b60208201915081905092915050565b6000602082019050612baa6000830184612846565b92915050565b60006040820190508181036000830152612bca8185612855565b9050612bd96020830184612b49565b9392505050565b6000602082019050612bf560008301846128b3565b92915050565b6000602082019050612c1060008301846128c2565b92915050565b60006020820190508181036000830152612c2f8161290a565b9050919050565b60006020820190508181036000830152612c4f81612950565b9050919050565b60006020820190508181036000830152612c6f81612973565b9050919050565b60006020820190508181036000830152612c8f81612996565b9050919050565b60006020820190508181036000830152612caf816129b9565b9050919050565b60006020820190508181036000830152612ccf816129dc565b9050919050565b60006020820190508181036000830152612cef816129ff565b9050919050565b60006020820190508181036000830152612d0f81612a22565b9050919050565b60006020820190508181036000830152612d2f81612a45565b9050919050565b60006020820190508181036000830152612d4f81612a68565b9050919050565b60006020820190508181036000830152612d6f81612a8b565b9050919050565b60006020820190508181036000830152612d8f81612aae565b9050919050565b60006020820190508181036000830152612daf81612ad1565b9050919050565b60006020820190508181036000830152612dcf81612af4565b9050919050565b60006020820190508181036000830152612def81612b17565b9050919050565b6000602082019050612e0b6000830184612b49565b92915050565b6000606082019050612e266000830186612b49565b612e336020830185612846565b612e406040830184612b49565b949350505050565b6000604082019050612e5d6000830185612b49565b612e6a60208301846128b3565b9392505050565b6000604082019050612e866000830185612b49565b8181036020830152612e9881846128d1565b90509392505050565b600060a082019050612eb66000830188612b49565b8181036020830152612ec881876128d1565b9050612ed76040830186612b49565b612ee46060830185612b49565b612ef16080830184612b49565b9695505050505050565b6000604082019050612f106000830185612b49565b612f1d6020830184612b49565b9392505050565b6000608082019050612f396000830187612b49565b612f466020830186612b49565b8181036040830152612f588185612855565b90508181036060830152612f6c8184612855565b905095945050505050565b6000608082019050612f8c6000830187612b49565b612f996020830186612b49565b612fa66040830185612b49565b612fb36060830184612b49565b95945050505050565b600060e082019050612fd1600083018a612b49565b612fde6020830189612b49565b612feb6040830188612b49565b612ff86060830187612b49565b61300560808301866128b3565b61301260a0830185612b49565b61301f60c0830184612b49565b98975050505050505050565b6000613035613046565b90506130418282613286565b919050565b6000604051905090565b600067ffffffffffffffff82111561306b5761306a6133c6565b5b602082029050602081019050919050565b600067ffffffffffffffff821115613097576130966133c6565b5b6130a08261340e565b9050602081019050919050565b6000819050602082019050919050565b600081519050919050565b600081519050919050565b6000602082019050919050565b600082825260208201905092915050565b600082825260208201905092915050565b600081905092915050565b6000613118826131d2565b9150613123836131d2565b9250827fffffffffffffffffffffffffffffffffffffffffffffffffffffffffffffffff038211156131585761315761330a565b5b828201905092915050565b600061316e826131d2565b9150613179836131d2565b92508261318957613188613339565b5b828204905092915050565b600061319f826131b2565b9050919050565b60008115159050919050565b600073ffffffffffffffffffffffffffffffffffffffff82169050919050565b6000819050919050565b60006131e7826131ee565b9050919050565b60006131f982613200565b9050919050565b600061320b826131b2565b9050919050565b82818337600083830152505050565b60005b8381101561323f578082015181840152602081019050613224565b8381111561324e576000848401525b50505050565b6000600282049050600182168061326c57607f821691505b602082108114156132805761327f613368565b5b50919050565b61328f8261340e565b810181811067ffffffffffffffff821117156132ae576132ad6133c6565b5b80604052505050565b60006132c2826131d2565b91507fffffffffffffffffffffffffffffffffffffffffffffffffffffffffffffffff8214156132f5576132f461330a565b5b600182019050919050565b6000819050919050565b7f4e487b7100000000000000000000000000000000000000000000000000000000600052601160045260246000fd5b7f4e487b7100000000000000000000000000000000000000000000000000000000600052601260045260246000fd5b7f4e487b7100000000000000000000000000000000000000000000000000000000600052602260045260246000fd5b7f4e487b7100000000000000000000000000000000000000000000000000000000600052603260045260246000fd5b7f4e487b7100000000000000000000000000000000000000000000000000000000600052604160045260246000fd5b600080fd5b600080fd5b600080fd5b600080fd5b600080fd5b6000601f19601f8301169050919050565b7fe68a95e7a5a8e79a84e98089e9a1b9e4b88de5ad98e59ca80000000000000000600082015250565b7f436f757273652000000000000000000000000000000000000000000000000000600082015250565b7f556e726567697374657265642074656163686572000000000000000000000000600082015250565b7f416c726561647920766f74656400000000000000000000000000000000000000600082015250565b7f416c726561647920657865637574656400000000000000000000000000000000600082015250565b7f4e6f20726174696e6773207375626d6974746564000000000000000000000000600082015250565b7fe8b4a6e688b7e69caae6b3a8e5868c0000000000000000000000000000000000600082015250565b7f4f6e6c792074656163686572732063616e2063616c6c20746869730000000000600082015250565b7f496e76616c696420726174696e672028312d3130290000000000000000000000600082015250565b7fe682a8e5b7b2e68a95e7a5a80000000000000000000000000000000000000000600082015250565b7f50726f706f73616c206578656375746564000000000000000000000000000000600082015250565b7f416c726561647920726174656400000000000000000000000000000000000000600082015250565b7fe68a95e7a5a8e4babae695b0e5b7b2e6bba10000000000000000000000000000600082015250565b7f496e76616c6964206f7074696f6e20696e6465782028302d3129000000000000600082015250565b7fe8b4a6e688b7e5b7b2e6b3a8e5868c0000000000000000000000000000000000600082015250565b7f496e76616c69642070726f706f73616c00000000000000000000000000000000600082015250565b6136b881613194565b81146136c357600080fd5b50565b6136cf816131d2565b81146136da57600080fd5b5056fea2646970667358221220b1b77421df151fafa3752a09f1137b060076bb6d30b7169effffb0588009c66b64736f6c63430008070033",
  "immutableReferences": {},
  "source": "// SPDX-License-Identifier: MIT\r\npragma solidity ^0.8.7;\r\n\r\nimport \"./Vote.sol\";\r\nimport \"./ICourseAllocation.sol\";\r\n\r\ncontract TeacherVote is Vote {\r\n    ICourseAllocation public courseAllocation;\r\n\r\n    // // \r\n    // mapping(uint256 => mapping(uint256 => mapping(uint256 => uint256))) public teacherAgentSuitability;\r\n\r\n    // \r\n    mapping(uint256 => uint256[]) private _proposalOptions; //\r\n\r\n    struct ProposalBase {\r\n        uint256 courseId;\r\n        uint256 totalRating;\r\n        uint256 raterCount;\r\n        uint256 suitabilityProposalId;\r\n        bool executed;\r\n        uint256 agreeCount;\r\n        uint256 disagreeCount;\r\n    }\r\n\r\n    struct TeacherRating {\r\n        uint256 rating;\r\n        bool hasRated;\r\n    }\r\n\r\n    mapping(uint256 => ProposalBase) public proposals;\r\n    mapping(uint256 => mapping(uint256 => TeacherRating)) public teacherRatings;\r\n    mapping(uint256 => mapping(address => bool)) public suitabilityVotes;\r\n    // mapping(uint256 => mapping(uint256 => uint256[])) public teacherScores;        // \r\n\r\n    uint256 public proposalCount;\r\n\r\n    event NewCombinedProposal(\r\n        uint256 indexed proposalId,\r\n        uint256 indexed courseId,\r\n        uint256 suitabilityProposalId\r\n    );\r\n    event ProposalExecuted(\r\n        uint256 indexed proposalId,\r\n        uint256 avgImportance,\r\n        bool isAgentSuitable\r\n    );\r\n\r\n    modifier onlyTeacher() {\r\n        require(\r\n            courseAllocation.addressToTeacherId(msg.sender) != 0,\r\n            \"Only teachers can call this\"\r\n        );\r\n        _;\r\n    }\r\n\r\n    constructor(address _courseAllocationAddress) Vote() {\r\n        courseAllocation = ICourseAllocation(_courseAllocationAddress);\r\n    }\r\n\r\n    function setCourseAllocation(address _addr) external {\r\n        courseAllocation = ICourseAllocation(_addr);\r\n    }\r\n\r\n    function createCombinedProposal(\r\n        uint256 courseId\r\n    ) external onlyTeacher returns (uint256) {\r\n        // \r\n        uint256[] memory options = new uint256[](2);\r\n        options[0] = 1; // \r\n        options[1] = 2; // \r\n\r\n        // \r\n        uint256 suitabilityProposalId = createChooseTeacherProposal(\r\n            string(abi.encodePacked(\"Course \", courseId)),\r\n            courseId,\r\n            options,\r\n            type(uint256).max\r\n        );\r\n\r\n        // \r\n        _proposalOptions[suitabilityProposalId] = options;\r\n\r\n        // \r\n        proposalCount++;\r\n        proposals[proposalCount] = ProposalBase({\r\n            courseId: courseId,\r\n            totalRating: 0,\r\n            raterCount: 0,\r\n            suitabilityProposalId: suitabilityProposalId,\r\n            executed: false,\r\n            agreeCount: 0,\r\n            disagreeCount: 0\r\n        });\r\n\r\n        emit NewCombinedProposal(\r\n            proposalCount,\r\n            courseId,\r\n            suitabilityProposalId\r\n        );\r\n        return proposalCount;\r\n    }\r\n\r\n    function submitCombinedVote(\r\n        uint256 proposalId,\r\n        uint256 rating,\r\n        uint256 suitabilityOptionIndex\r\n    ) external onlyTeacher {\r\n        ProposalBase storage p = proposals[proposalId];\r\n        require(p.courseId != 0, \"Invalid proposal\");\r\n        require(!p.executed, \"Proposal executed\");\r\n\r\n        // \r\n        uint256 teacherId = courseAllocation.addressToTeacherId(msg.sender);\r\n        require(teacherId != 0, \"Unregistered teacher\");\r\n\r\n        // \r\n        require(rating >= 1 && rating <= 10, \"Invalid rating (1-10)\");\r\n        TeacherRating storage tr = teacherRatings[proposalId][teacherId];\r\n        require(!tr.hasRated, \"Already rated\");\r\n\r\n        tr.rating = rating;\r\n        tr.hasRated = true;\r\n        p.totalRating += rating;\r\n        p.raterCount++;\r\n\r\n        // \r\n        require(suitabilityOptionIndex < 2, \"Invalid option index (0-1)\");\r\n        require(!suitabilityVotes[proposalId][msg.sender], \"Already voted\");\r\n\r\n        if (suitabilityOptionIndex == 1) {\r\n            p.agreeCount++;\r\n        } else {\r\n            p.disagreeCount++;\r\n        }\r\n        suitabilityVotes[proposalId][msg.sender] = true;\r\n\r\n        // \r\n        uint256 optionValue = _proposalOptions[p.suitabilityProposalId][\r\n            suitabilityOptionIndex\r\n        ];\r\n\r\n        // \r\n        super.voteChooseTeacher(\r\n            msg.sender,\r\n            p.suitabilityProposalId,\r\n            optionValue\r\n        );\r\n    }\r\n\r\n    // // \r\n    // function setTeacherSuitabilityForAllCourses(\r\n    //     uint256 _teacherId,\r\n    //     uint256 _agentId,\r\n    //     uint256[] memory _courseIds,  //  ID \r\n    //     uint256[] memory _suitabilities  // \r\n    // ) public {\r\n    //     require(_courseIds.length == _suitabilities.length, unicode\"\");\r\n\r\n    //     // \r\n    //     for (uint256 i = 0; i < _courseIds.length; i++) {\r\n    //         uint256 suitability = _suitabilities[i];\r\n\r\n    //         // 0100\r\n    //         require(suitability >= 0 && suitability <= 100, unicode\"\");\r\n\r\n    //         //  teacherScores \r\n    //         teacherScores[_teacherId][_agentId].push(suitability);\r\n    //     }\r\n    // }\r\n\r\n    // // \r\n    // function saveAverageSuitability(uint256 _agentId, uint256[] memory _courseIds) public {\r\n    //     uint256 numTeachers = 5;  // \r\n    //     uint256[] memory averageSuitabilities = new uint256[](_courseIds.length);\r\n\r\n    //     // \r\n    //     for (uint256 j = 0; j < _courseIds.length; j++) {\r\n    //         uint256 totalSuitability = 0;\r\n\r\n    //         for (uint256 teacherId = 0; teacherId < numTeachers; teacherId++) {\r\n    //             uint256[] memory scores = teacherScores[teacherId][_agentId];\r\n    //             totalSuitability += scores[j];  // \r\n    //         }\r\n\r\n    //         // \r\n    //         uint256 averageSuitability = totalSuitability / numTeachers;\r\n    //         averageSuitabilities[j] = averageSuitability;\r\n    //     }\r\n\r\n    //     //  setAllAgentCourseSuitability \r\n    //     courseAllocation.setAllAgentCourseSuitability(_agentId, averageSuitabilities);\r\n    // }\r\n\r\n    function executeProposal(uint256 proposalId) external {\r\n        ProposalBase storage p = proposals[proposalId];\r\n        require(p.courseId != 0, \"Invalid proposal\");\r\n        require(!p.executed, \"Already executed\");\r\n        require(p.raterCount > 0, \"No ratings submitted\");\r\n\r\n        // \r\n        uint256 avgRating = p.totalRating / p.raterCount;\r\n\r\n        // \r\n        (uint256 winningOption, ) = endVote(p.suitabilityProposalId);\r\n        bool isSuitable = (winningOption == 2); // 2\r\n\r\n        // \r\n        courseAllocation.setCourseImportance(p.courseId, avgRating);\r\n        //courseAllocation.setCourseIsAgentSuitable(p.courseId, isSuitable);\r\n\r\n        p.executed = true;\r\n        emit ProposalExecuted(proposalId, avgRating, isSuitable);\r\n    }\r\n\r\n    function endVote(\r\n        uint256 _proposalId\r\n    ) public view returns (uint256, uint256) {\r\n        ProposalBase storage p = proposals[_proposalId];\r\n\r\n        //  \"\"\r\n        uint256 winningOption = (p.agreeCount > p.disagreeCount) ? 2 : 1; // 2 1 \r\n        return (winningOption, p.agreeCount + p.disagreeCount); // \r\n    }\r\n\r\n    function getVoteDetails(\r\n        uint256 proposalId\r\n    )\r\n        external\r\n        view\r\n        returns (\r\n            uint256 agree,\r\n            uint256 disagree,\r\n            uint256 totalRatings,\r\n            uint256 courseId\r\n        )\r\n    {\r\n        ProposalBase memory p = proposals[proposalId];\r\n        return (p.agreeCount, p.disagreeCount, p.raterCount, p.courseId);\r\n    }\r\n\r\n    function getTeacherRating(\r\n        uint256 proposalId,\r\n        uint256 teacherId\r\n    ) public view returns (uint256) {\r\n        return teacherRatings[proposalId][teacherId].rating;\r\n    }\r\n}\r\n",
  "sourcePath": "E:\\dao\\327\\Course-allocation\\project\\contracts\\TeacherVote.sol",
  "compiler": {
    "name": "solc",
    "version": "0.8.7+commit.e28d00a7.Emscripten.clang"
  },
  "schemaVersion": "3.4.16",
  "updatedAt": "2025-04-10T04:35:50.460Z",
  "networkType": "ethereum",
  "devdoc": {
    "kind": "dev",
    "methods": {},
    "version": 1
  },
  "userdoc": {
    "kind": "user",
    "methods": {},
    "version": 1
  }
}