{
  "contractName": "TeacherVote",
  "abi": [
    {
      "inputs": [
        {
          "internalType": "address",
          "name": "_courseAllocationAddress",
          "type": "address"
        }
      ],
      "stateMutability": "nonpayable",
      "type": "constructor"
    },
    {
      "anonymous": false,
      "inputs": [
        {
          "indexed": true,
          "internalType": "uint256",
          "name": "proposalId",
          "type": "uint256"
        },
        {
          "indexed": true,
          "internalType": "uint256",
          "name": "courseId",
          "type": "uint256"
        },
        {
          "indexed": false,
          "internalType": "uint256",
          "name": "suitabilityProposalId",
          "type": "uint256"
        }
      ],
      "name": "NewCombinedProposal",
      "type": "event"
    },
    {
      "anonymous": false,
      "inputs": [
        {
          "indexed": false,
          "internalType": "uint256",
          "name": "proposalId",
          "type": "uint256"
        },
        {
          "indexed": false,
          "internalType": "string",
          "name": "description",
          "type": "string"
        }
      ],
      "name": "ProposalCreated",
      "type": "event"
    },
    {
      "anonymous": false,
      "inputs": [
        {
          "indexed": true,
          "internalType": "uint256",
          "name": "proposalId",
          "type": "uint256"
        },
        {
          "indexed": false,
          "internalType": "uint256",
          "name": "avgImportance",
          "type": "uint256"
        },
        {
          "indexed": false,
          "internalType": "bool",
          "name": "isAgentSuitable",
          "type": "bool"
        }
      ],
      "name": "ProposalExecuted",
      "type": "event"
    },
    {
      "inputs": [],
      "name": "courseAllocation",
      "outputs": [
        {
          "internalType": "contract CourseAllocation",
          "name": "",
          "type": "address"
        }
      ],
      "stateMutability": "view",
      "type": "function",
      "constant": true
    },
    {
      "inputs": [
        {
          "internalType": "string",
          "name": "_description",
          "type": "string"
        },
        {
          "internalType": "uint256",
          "name": "_voteforID",
          "type": "uint256"
        },
        {
          "internalType": "uint256[]",
          "name": "_votedIds",
          "type": "uint256[]"
        },
        {
          "internalType": "uint256",
          "name": "_totalVote",
          "type": "uint256"
        }
      ],
      "name": "createChooseCourseProposal",
      "outputs": [
        {
          "internalType": "uint256",
          "name": "",
          "type": "uint256"
        }
      ],
      "stateMutability": "nonpayable",
      "type": "function"
    },
    {
      "inputs": [
        {
          "internalType": "string",
          "name": "_description",
          "type": "string"
        },
        {
          "internalType": "uint256",
          "name": "_voteforID",
          "type": "uint256"
        },
        {
          "internalType": "uint256[]",
          "name": "_votedIds",
          "type": "uint256[]"
        },
        {
          "internalType": "uint256",
          "name": "_totalVote",
          "type": "uint256"
        }
      ],
      "name": "createChooseTeacherProposal",
      "outputs": [
        {
          "internalType": "uint256",
          "name": "",
          "type": "uint256"
        }
      ],
      "stateMutability": "nonpayable",
      "type": "function"
    },
    {
      "inputs": [
        {
          "internalType": "string",
          "name": "_description",
          "type": "string"
        },
        {
          "internalType": "uint256",
          "name": "_voteforID",
          "type": "uint256"
        },
        {
          "internalType": "uint256[]",
          "name": "_votedIds",
          "type": "uint256[]"
        },
        {
          "internalType": "uint256[]",
          "name": "_votedCounts",
          "type": "uint256[]"
        },
        {
          "internalType": "uint256",
          "name": "_totalVote",
          "type": "uint256"
        }
      ],
      "name": "createMachineProposal",
      "outputs": [
        {
          "internalType": "uint256",
          "name": "",
          "type": "uint256"
        }
      ],
      "stateMutability": "nonpayable",
      "type": "function"
    },
    {
      "inputs": [
        {
          "internalType": "string",
          "name": "_description",
          "type": "string"
        },
        {
          "internalType": "uint256",
          "name": "_voteforID",
          "type": "uint256"
        },
        {
          "internalType": "uint256[]",
          "name": "_votedIds",
          "type": "uint256[]"
        },
        {
          "internalType": "uint256[]",
          "name": "_votedCounts",
          "type": "uint256[]"
        }
      ],
      "name": "createMachineVoteProposal",
      "outputs": [
        {
          "internalType": "uint256",
          "name": "",
          "type": "uint256"
        }
      ],
      "stateMutability": "nonpayable",
      "type": "function"
    },
    {
      "inputs": [
        {
          "internalType": "string",
          "name": "_description",
          "type": "string"
        },
        {
          "internalType": "uint256",
          "name": "_voteforID",
          "type": "uint256"
        },
        {
          "internalType": "uint256[]",
          "name": "_votedIds",
          "type": "uint256[]"
        },
        {
          "internalType": "uint256",
          "name": "_totalVote",
          "type": "uint256"
        }
      ],
      "name": "createProposalMultiple",
      "outputs": [
        {
          "internalType": "uint256",
          "name": "",
          "type": "uint256"
        }
      ],
      "stateMutability": "nonpayable",
      "type": "function"
    },
    {
      "inputs": [
        {
          "internalType": "uint256",
          "name": "_proposalId",
          "type": "uint256"
        }
      ],
      "name": "endVoteChooseCourse",
      "outputs": [
        {
          "internalType": "uint256",
          "name": "",
          "type": "uint256"
        },
        {
          "internalType": "uint256",
          "name": "",
          "type": "uint256"
        }
      ],
      "stateMutability": "view",
      "type": "function",
      "constant": true
    },
    {
      "inputs": [
        {
          "internalType": "uint256",
          "name": "_proposalId",
          "type": "uint256"
        }
      ],
      "name": "endVoteChooseTeacher",
      "outputs": [
        {
          "internalType": "uint256",
          "name": "",
          "type": "uint256"
        },
        {
          "internalType": "uint256",
          "name": "",
          "type": "uint256"
        }
      ],
      "stateMutability": "view",
      "type": "function",
      "constant": true
    },
    {
      "inputs": [
        {
          "internalType": "uint256",
          "name": "_proposalId",
          "type": "uint256"
        }
      ],
      "name": "endVoteMultiple",
      "outputs": [
        {
          "internalType": "uint256",
          "name": "",
          "type": "uint256"
        },
        {
          "internalType": "uint256",
          "name": "",
          "type": "uint256"
        }
      ],
      "stateMutability": "view",
      "type": "function",
      "constant": true
    },
    {
      "inputs": [
        {
          "internalType": "uint256",
          "name": "_proposalId",
          "type": "uint256"
        },
        {
          "internalType": "uint256",
          "name": "_voteId",
          "type": "uint256"
        }
      ],
      "name": "getVoteIdToCount",
      "outputs": [
        {
          "internalType": "uint256",
          "name": "",
          "type": "uint256"
        }
      ],
      "stateMutability": "view",
      "type": "function",
      "constant": true
    },
    {
      "inputs": [
        {
          "internalType": "uint256",
          "name": "_proposalId",
          "type": "uint256"
        }
      ],
      "name": "getVotedIds",
      "outputs": [
        {
          "internalType": "uint256[]",
          "name": "",
          "type": "uint256[]"
        },
        {
          "internalType": "uint256",
          "name": "",
          "type": "uint256"
        }
      ],
      "stateMutability": "view",
      "type": "function",
      "constant": true
    },
    {
      "inputs": [],
      "name": "proposalCount",
      "outputs": [
        {
          "internalType": "uint256",
          "name": "",
          "type": "uint256"
        }
      ],
      "stateMutability": "view",
      "type": "function",
      "constant": true
    },
    {
      "inputs": [
        {
          "internalType": "uint256",
          "name": "",
          "type": "uint256"
        }
      ],
      "name": "proposalMultipleIds",
      "outputs": [
        {
          "internalType": "uint256",
          "name": "",
          "type": "uint256"
        }
      ],
      "stateMutability": "view",
      "type": "function",
      "constant": true
    },
    {
      "inputs": [
        {
          "internalType": "uint256",
          "name": "",
          "type": "uint256"
        }
      ],
      "name": "proposalMultiples",
      "outputs": [
        {
          "internalType": "uint256",
          "name": "id",
          "type": "uint256"
        },
        {
          "internalType": "string",
          "name": "description",
          "type": "string"
        },
        {
          "internalType": "uint256",
          "name": "voteforID",
          "type": "uint256"
        },
        {
          "internalType": "uint256",
          "name": "voteCount",
          "type": "uint256"
        },
        {
          "internalType": "uint256",
          "name": "totalVote",
          "type": "uint256"
        }
      ],
      "stateMutability": "view",
      "type": "function",
      "constant": true
    },
    {
      "inputs": [
        {
          "internalType": "uint256",
          "name": "",
          "type": "uint256"
        }
      ],
      "name": "proposals",
      "outputs": [
        {
          "internalType": "uint256",
          "name": "courseId",
          "type": "uint256"
        },
        {
          "internalType": "uint256",
          "name": "totalRating",
          "type": "uint256"
        },
        {
          "internalType": "uint256",
          "name": "raterCount",
          "type": "uint256"
        },
        {
          "internalType": "uint256",
          "name": "suitabilityProposalId",
          "type": "uint256"
        },
        {
          "internalType": "bool",
          "name": "executed",
          "type": "bool"
        },
        {
          "internalType": "uint256",
          "name": "agreeCount",
          "type": "uint256"
        },
        {
          "internalType": "uint256",
          "name": "disagreeCount",
          "type": "uint256"
        }
      ],
      "stateMutability": "view",
      "type": "function",
      "constant": true
    },
    {
      "inputs": [
        {
          "internalType": "address",
          "name": "_voter",
          "type": "address"
        }
      ],
      "name": "registerVoter",
      "outputs": [],
      "stateMutability": "nonpayable",
      "type": "function"
    },
    {
      "inputs": [
        {
          "internalType": "uint256",
          "name": "",
          "type": "uint256"
        },
        {
          "internalType": "address",
          "name": "",
          "type": "address"
        }
      ],
      "name": "suitabilityVotes",
      "outputs": [
        {
          "internalType": "bool",
          "name": "",
          "type": "bool"
        }
      ],
      "stateMutability": "view",
      "type": "function",
      "constant": true
    },
    {
      "inputs": [
        {
          "internalType": "uint256",
          "name": "",
          "type": "uint256"
        },
        {
          "internalType": "uint256",
          "name": "",
          "type": "uint256"
        }
      ],
      "name": "teacherRatings",
      "outputs": [
        {
          "internalType": "uint256",
          "name": "rating",
          "type": "uint256"
        },
        {
          "internalType": "bool",
          "name": "hasRated",
          "type": "bool"
        }
      ],
      "stateMutability": "view",
      "type": "function",
      "constant": true
    },
    {
      "inputs": [
        {
          "internalType": "address",
          "name": "voterAddress",
          "type": "address"
        },
        {
          "internalType": "uint256",
          "name": "_proposalId",
          "type": "uint256"
        },
        {
          "internalType": "uint256",
          "name": "_voteId",
          "type": "uint256"
        }
      ],
      "name": "voteChooseCourse",
      "outputs": [],
      "stateMutability": "nonpayable",
      "type": "function"
    },
    {
      "inputs": [
        {
          "internalType": "address",
          "name": "voterAddress",
          "type": "address"
        },
        {
          "internalType": "uint256",
          "name": "_proposalId",
          "type": "uint256"
        },
        {
          "internalType": "uint256",
          "name": "_voteId",
          "type": "uint256"
        }
      ],
      "name": "voteChooseTeacher",
      "outputs": [],
      "stateMutability": "nonpayable",
      "type": "function"
    },
    {
      "inputs": [
        {
          "internalType": "address",
          "name": "voter",
          "type": "address"
        },
        {
          "internalType": "uint256",
          "name": "_proposalId",
          "type": "uint256"
        },
        {
          "internalType": "uint256",
          "name": "_voteId",
          "type": "uint256"
        }
      ],
      "name": "voteMultiple",
      "outputs": [],
      "stateMutability": "nonpayable",
      "type": "function"
    },
    {
      "inputs": [
        {
          "internalType": "address",
          "name": "",
          "type": "address"
        }
      ],
      "name": "voters",
      "outputs": [
        {
          "internalType": "uint256",
          "name": "id",
          "type": "uint256"
        },
        {
          "internalType": "address",
          "name": "voter",
          "type": "address"
        },
        {
          "internalType": "uint256",
          "name": "weight",
          "type": "uint256"
        }
      ],
      "stateMutability": "view",
      "type": "function",
      "constant": true
    },
    {
      "inputs": [
        {
          "internalType": "uint256",
          "name": "",
          "type": "uint256"
        }
      ],
      "name": "votersAddress",
      "outputs": [
        {
          "internalType": "address",
          "name": "",
          "type": "address"
        }
      ],
      "stateMutability": "view",
      "type": "function",
      "constant": true
    },
    {
      "inputs": [
        {
          "internalType": "address",
          "name": "_addr",
          "type": "address"
        }
      ],
      "name": "setCourseAllocation",
      "outputs": [],
      "stateMutability": "nonpayable",
      "type": "function"
    },
    {
      "inputs": [
        {
          "internalType": "uint256",
          "name": "courseId",
          "type": "uint256"
        }
      ],
      "name": "createCombinedProposal",
      "outputs": [
        {
          "internalType": "uint256",
          "name": "",
          "type": "uint256"
        }
      ],
      "stateMutability": "nonpayable",
      "type": "function"
    },
    {
      "inputs": [
        {
          "internalType": "uint256",
          "name": "proposalId",
          "type": "uint256"
        },
        {
          "internalType": "uint256",
          "name": "rating",
          "type": "uint256"
        },
        {
          "internalType": "uint256",
          "name": "suitabilityOptionIndex",
          "type": "uint256"
        }
      ],
      "name": "submitCombinedVote",
      "outputs": [],
      "stateMutability": "nonpayable",
      "type": "function"
    },
    {
      "inputs": [
        {
          "internalType": "uint256",
          "name": "proposalId",
          "type": "uint256"
        }
      ],
      "name": "executeProposal",
      "outputs": [],
      "stateMutability": "nonpayable",
      "type": "function"
    },
    {
      "inputs": [
        {
          "internalType": "uint256",
          "name": "proposalId",
          "type": "uint256"
        }
      ],
      "name": "getVoteDetails",
      "outputs": [
        {
          "internalType": "uint256",
          "name": "agree",
          "type": "uint256"
        },
        {
          "internalType": "uint256",
          "name": "disagree",
          "type": "uint256"
        },
        {
          "internalType": "uint256",
          "name": "totalRatings",
          "type": "uint256"
        }
      ],
      "stateMutability": "view",
      "type": "function",
      "constant": true
    },
    {
      "inputs": [
        {
          "internalType": "uint256",
          "name": "proposalId",
          "type": "uint256"
        },
        {
          "internalType": "uint256",
          "name": "teacherId",
          "type": "uint256"
        }
      ],
      "name": "getTeacherRating",
      "outputs": [
        {
          "internalType": "uint256",
          "name": "",
          "type": "uint256"
        }
      ],
      "stateMutability": "view",
      "type": "function",
      "constant": true
    }
  ],
  "bytecode": "0x60806040523480156200001157600080fd5b50604051620036fd380380620036fd833981810160405281019062000037919062000096565b80600460006101000a81548173ffffffffffffffffffffffffffffffffffffffff021916908373ffffffffffffffffffffffffffffffffffffffff160217905550506200011b565b600081519050620000908162000101565b92915050565b600060208284031215620000af57620000ae620000fc565b5b6000620000bf848285016200007f565b91505092915050565b6000620000d582620000dc565b9050919050565b600073ffffffffffffffffffffffffffffffffffffffff82169050919050565b600080fd5b6200010c81620000c8565b81146200011857600080fd5b50565b6135d2806200012b6000396000f3fe608060405234801561001057600080fd5b50600436106101cf5760003560e01c80636d1efef011610104578063b2af0cc5116100a2578063c845c19811610071578063c845c1981461060d578063da35c6641461063d578063e20e71f91461065b578063fe8d724c14610677576101cf565b8063b2af0cc514610575578063b9002f3d146105a5578063bc8c24d9146105c1578063bc9cad8a146105dd576101cf565b806388462f2c116100de57806388462f2c146104c75780638984e993146104e3578063a3ec138d14610513578063b201539f14610545576101cf565b80636d1efef01461043657806376ce93f714610466578063777ea2c914610497576101cf565b8063361d5b791161017157806345f509961161014b57806345f509961461038457806346c7e2a9146103a257806354a1b431146103d357806355d2f08e14610405576101cf565b8063361d5b791461030757806338db6dd31461033857806343242daa14610354576101cf565b80630f0626b5116101ad5780630f0626b514610256578063148f8e4f14610286578063162b040d146102ba5780632b6b189b146102eb576101cf565b8063013cf08b146101d45780630202f8471461020a5780630d61b5191461023a575b600080fd5b6101ee60048036038101906101e99190612621565b6106a7565b6040516102019796959493929190612e7b565b60405180910390f35b610224600480360381019061021f9190612582565b6106f6565b6040516102319190612d16565b60405180910390f35b610254600480360381019061024f9190612621565b61070e565b005b610270600480360381019061026b9190612621565b6109bc565b60405161027d9190612d16565b60405180910390f35b6102a0600480360381019061029b9190612621565b6109e0565b6040516102b1959493929190612dc1565b60405180910390f35b6102d460048036038101906102cf9190612621565b610a9e565b6040516102e2929190612e1b565b60405180910390f35b610305600480360381019061030091906123a5565b610c02565b005b610321600480360381019061031c9190612621565b610f8a565b60405161032f929190612e1b565b60405180910390f35b610352600480360381019061034d9190612378565b610f9f565b005b61036e60048036038101906103699190612621565b6111b3565b60405161037b9190612ab5565b60405180910390f35b61038c6111f2565b6040516103999190612b1b565b60405180910390f35b6103bc60048036038101906103b791906126bb565b611218565b6040516103ca929190612d68565b60405180910390f35b6103ed60048036038101906103e89190612621565b611256565b6040516103fc93929190612e44565b60405180910390f35b61041f600480360381019061041a9190612621565b6112f0565b60405161042d929190612e1b565b60405180910390f35b610450600480360381019061044b919061267b565b611305565b60405161045d9190612b00565b60405180910390f35b610480600480360381019061047b9190612621565b611334565b60405161048e929190612ad0565b60405180910390f35b6104b160048036038101906104ac9190612582565b6113c0565b6040516104be9190612d16565b60405180910390f35b6104e160048036038101906104dc91906123a5565b6113d8565b005b6104fd60048036038101906104f89190612621565b6113e8565b60405161050a9190612d16565b60405180910390f35b61052d60048036038101906105289190612378565b6116ed565b60405161053c93929190612d31565b60405180910390f35b61055f600480360381019061055a91906124b3565b611737565b60405161056c9190612d16565b60405180910390f35b61058f600480360381019061058a9190612582565b611933565b60405161059c9190612d16565b60405180910390f35b6105bf60048036038101906105ba91906126fb565b611ace565b005b6105db60048036038101906105d691906123a5565b612063565b005b6105f760048036038101906105f291906123f8565b612073565b6040516106049190612d16565b60405180910390f35b610627600480360381019061062291906126bb565b61208d565b6040516106349190612d16565b60405180910390f35b6106456120bf565b6040516106529190612d16565b60405180910390f35b61067560048036038101906106709190612378565b6120c5565b005b610691600480360381019061068c91906126bb565b612109565b60405161069e9190612d16565b60405180910390f35b60066020528060005260406000206000915090508060000154908060010154908060020154908060030154908060040160009054906101000a900460ff16908060050154908060060154905087565b600061070485858585611933565b9050949350505050565b600060066000838152602001908152602001600020905060008160000154141561076d576040517f08c379a000000000000000000000000000000000000000000000000000000000815260040161076490612cf6565b60405180910390fd5b8060040160009054906101000a900460ff16156107bf576040517f08c379a00000000000000000000000000000000000000000000000000000000081526004016107b690612b96565b60405180910390fd5b6000816002015411610806576040517f08c379a00000000000000000000000000000000000000000000000000000000081526004016107fd90612bb6565b60405180910390fd5b60008160020154826001015461081c9190613022565b9050600061082d83600301546112f0565b5090506000600282149050600460009054906101000a900473ffffffffffffffffffffffffffffffffffffffff1673ffffffffffffffffffffffffffffffffffffffff1663e204b1028560000154856040518363ffffffff1660e01b8152600401610899929190612e1b565b600060405180830381600087803b1580156108b357600080fd5b505af11580156108c7573d6000803e3d6000fd5b50505050600460009054906101000a900473ffffffffffffffffffffffffffffffffffffffff1673ffffffffffffffffffffffffffffffffffffffff1663cb8540458560000154836040518363ffffffff1660e01b815260040161092c929190612d68565b600060405180830381600087803b15801561094657600080fd5b505af115801561095a573d6000803e3d6000fd5b5050505060018460040160006101000a81548160ff021916908315150217905550847f675c71fb6cbf880ec8fed9c345ef0bb3019cc44b99708edb402b85a7535d7d1984836040516109ad929190612d68565b60405180910390a25050505050565b600381815481106109cc57600080fd5b906000526020600020016000915090505481565b6002602052806000526040600020600091509050806000015490806001018054610a0990613113565b80601f0160208091040260200160405190810160405280929190818152602001828054610a3590613113565b8015610a825780601f10610a5757610100808354040283529160200191610a82565b820191906000526020600020905b815481529060010190602001808311610a6557829003601f168201915b5050505050908060020154908060060154908060070154905085565b600080600080600060026000878152602001908152602001600020600301805480602002602001604051908101604052809291908181526020018280548015610b0657602002820191906000526020600020905b815481526020019060010190808311610af2575b5050505050905060006002600088815260200190815260200160002060020154905060005b8251811015610bf25784600260008a81526020019081526020016000206004016000858481518110610b6057610b5f613256565b5b60200260200101518152602001908152602001600020541115610bdf57600260008981526020019081526020016000206004016000848381518110610ba857610ba7613256565b5b60200260200101518152602001908152602001600020549450828181518110610bd457610bd3613256565b5b602002602001015193505b8080610bea90613176565b915050610b2b565b5082819550955050505050915091565b600073ffffffffffffffffffffffffffffffffffffffff166000808573ffffffffffffffffffffffffffffffffffffffff1673ffffffffffffffffffffffffffffffffffffffff16815260200190815260200160002060010160009054906101000a900473ffffffffffffffffffffffffffffffffffffffff1673ffffffffffffffffffffffffffffffffffffffff161415610cd3576040517f08c379a0000000000000000000000000000000000000000000000000000000008152600401610cca90612bd6565b60405180910390fd5b600015156002600084815260200190815260200160002060050160008573ffffffffffffffffffffffffffffffffffffffff1673ffffffffffffffffffffffffffffffffffffffff16815260200190815260200160002060009054906101000a900460ff16151514610d7a576040517f08c379a0000000000000000000000000000000000000000000000000000000008152600401610d7190612c36565b60405180910390fd5b6002600083815260200190815260200160002060070154600260008481526020019081526020016000206006015410610de8576040517f08c379a0000000000000000000000000000000000000000000000000000000008152600401610ddf90612c96565b60405180910390fd5b6000805b6002600085815260200190815260200160002060030180549050811015610f3c5782600260008681526020019081526020016000206003018281548110610e3657610e35613256565b5b90600052602060002001541415610f295760016002600086815260200190815260200160002060040160008581526020019081526020016000206000828254610e7f9190612fcc565b925050819055506001600260008681526020019081526020016000206006016000828254610ead9190612fcc565b9250508190555060016002600086815260200190815260200160002060050160008773ffffffffffffffffffffffffffffffffffffffff1673ffffffffffffffffffffffffffffffffffffffff16815260200190815260200160002060006101000a81548160ff02191690831515021790555060019150610f3c565b8080610f3490613176565b915050610dec565b506001151581151514610f84576040517f08c379a0000000000000000000000000000000000000000000000000000000008152600401610f7b90612b36565b60405180910390fd5b50505050565b600080610f9683610a9e565b91509150915091565b600073ffffffffffffffffffffffffffffffffffffffff166000808373ffffffffffffffffffffffffffffffffffffffff1673ffffffffffffffffffffffffffffffffffffffff16815260200190815260200160002060010160009054906101000a900473ffffffffffffffffffffffffffffffffffffffff1673ffffffffffffffffffffffffffffffffffffffff161461106f576040517f08c379a000000000000000000000000000000000000000000000000000000000815260040161106690612cd6565b60405180910390fd5b60405180606001604052806001808054905061108b9190612fcc565b81526020018273ffffffffffffffffffffffffffffffffffffffff16815260200160018152506000808373ffffffffffffffffffffffffffffffffffffffff1673ffffffffffffffffffffffffffffffffffffffff1681526020019081526020016000206000820151816000015560208201518160010160006101000a81548173ffffffffffffffffffffffffffffffffffffffff021916908373ffffffffffffffffffffffffffffffffffffffff160217905550604082015181600201559050506001819080600181540180825580915050600190039060005260206000200160009091909190916101000a81548173ffffffffffffffffffffffffffffffffffffffff021916908373ffffffffffffffffffffffffffffffffffffffff16021790555050565b600181815481106111c357600080fd5b906000526020600020016000915054906101000a900473ffffffffffffffffffffffffffffffffffffffff1681565b600460009054906101000a900473ffffffffffffffffffffffffffffffffffffffff1681565b6007602052816000526040600020602052806000526040600020600091509150508060000154908060010160009054906101000a900460ff16905082565b600080600080600660008681526020019081526020016000206040518060e0016040529081600082015481526020016001820154815260200160028201548152602001600382015481526020016004820160009054906101000a900460ff161515151581526020016005820154815260200160068201548152505090508060a001518160c001518260400151935093509350509193909250565b6000806112fc83610a9e565b91509150915091565b60086020528160005260406000206020528060005260406000206000915091509054906101000a900460ff1681565b60606000600260008481526020019081526020016000206003016002600085815260200190815260200160002060020154818054806020026020016040519081016040528092919081815260200182805480156113b057602002820191906000526020600020905b81548152602001906001019080831161139c575b5050505050915091509150915091565b60006113ce85858585611933565b9050949350505050565b6113e3838383610c02565b505050565b600080600460009054906101000a900473ffffffffffffffffffffffffffffffffffffffff1673ffffffffffffffffffffffffffffffffffffffff16630f7f13cf336040518263ffffffff1660e01b81526004016114469190612ab5565b60206040518083038186803b15801561145e57600080fd5b505afa158015611472573d6000803e3d6000fd5b505050506040513d601f19601f82011682018060405250810190611496919061264e565b14156114d7576040517f08c379a00000000000000000000000000000000000000000000000000000000081526004016114ce90612bf6565b60405180910390fd5b6000600267ffffffffffffffff8111156114f4576114f3613285565b5b6040519080825280602002602001820160405280156115225781602001602082028036833780820191505090505b50905060018160008151811061153b5761153a613256565b5b60200260200101818152505060028160018151811061155d5761155c613256565b5b60200260200101818152505060006115b68460405160200161157f9190612a8f565b60405160208183030381529060405285847fffffffffffffffffffffffffffffffffffffffffffffffffffffffffffffffff6106f6565b9050816005600083815260200190815260200160002090805190602001906115df92919061213b565b50600960008154809291906115f390613176565b91905055506040518060e0016040528085815260200160008152602001600081526020018281526020016000151581526020016000815260200160008152506006600060095481526020019081526020016000206000820151816000015560208201518160010155604082015181600201556060820151816003015560808201518160040160006101000a81548160ff02191690831515021790555060a0820151816005015560c08201518160060155905050836009547f588dccb0986c4198655070050849469a27cde1cecc8e248546bbfaf007188c65836040516116d99190612d16565b60405180910390a360095492505050919050565b60006020528060005260406000206000915090508060000154908060010160009054906101000a900473ffffffffffffffffffffffffffffffffffffffff16908060020154905083565b600080600160038054905061174c9190612fcc565b905080600260008381526020019081526020016000206000018190555086600260008381526020019081526020016000206001019080519060200190611793929190612188565b5060005b855181101561188d5760008682815181106117b5576117b4613256565b5b60200260200101511461187a57600260008381526020019081526020016000206003018682815181106117eb576117ea613256565b5b6020026020010151908060018154018082558091505060019003906000526020600020016000909190919091505584818151811061182c5761182b613256565b5b602002602001015160026000848152602001908152602001600020600401600088848151811061185f5761185e613256565b5b60200260200101518152602001908152602001600020819055505b808061188590613176565b915050611797565b5082600260008381526020019081526020016000206007018190555085600260008381526020019081526020016000206002018190555060038190806001815401808255809150506001900390600052602060002001600090919091909150557f9c770c289ab5bf7e57cb1d23c8ceae993aea46eb64847072fd3d78ca60d3e432818860405161191e929190612d91565b60405180910390a18091505095945050505050565b60008060016003805490506119489190612fcc565b90508060026000838152602001908152602001600020600001819055508560026000838152602001908152602001600020600101908051906020019061198f929190612188565b5060005b8451811015611a295760008582815181106119b1576119b0613256565b5b602002602001015114611a1657600260008381526020019081526020016000206003018582815181106119e7576119e6613256565b5b602002602001015190806001815401808255809150506001900390600052602060002001600090919091909150555b8080611a2190613176565b915050611993565b5082600260008381526020019081526020016000206007018190555084600260008381526020019081526020016000206002018190555060038190806001815401808255809150506001900390600052602060002001600090919091909150557f9c770c289ab5bf7e57cb1d23c8ceae993aea46eb64847072fd3d78ca60d3e4328187604051611aba929190612d91565b60405180910390a180915050949350505050565b6000600460009054906101000a900473ffffffffffffffffffffffffffffffffffffffff1673ffffffffffffffffffffffffffffffffffffffff16630f7f13cf336040518263ffffffff1660e01b8152600401611b2b9190612ab5565b60206040518083038186803b158015611b4357600080fd5b505afa158015611b57573d6000803e3d6000fd5b505050506040513d601f19601f82011682018060405250810190611b7b919061264e565b1415611bbc576040517f08c379a0000000000000000000000000000000000000000000000000000000008152600401611bb390612bf6565b60405180910390fd5b6000600660008581526020019081526020016000209050600081600001541415611c1b576040517f08c379a0000000000000000000000000000000000000000000000000000000008152600401611c1290612cf6565b60405180910390fd5b8060040160009054906101000a900460ff1615611c6d576040517f08c379a0000000000000000000000000000000000000000000000000000000008152600401611c6490612c56565b60405180910390fd5b6000600460009054906101000a900473ffffffffffffffffffffffffffffffffffffffff1673ffffffffffffffffffffffffffffffffffffffff16630f7f13cf336040518263ffffffff1660e01b8152600401611cca9190612ab5565b60206040518083038186803b158015611ce257600080fd5b505afa158015611cf6573d6000803e3d6000fd5b505050506040513d601f19601f82011682018060405250810190611d1a919061264e565b90506000811415611d60576040517f08c379a0000000000000000000000000000000000000000000000000000000008152600401611d5790612b56565b60405180910390fd5b60018410158015611d725750600a8411155b611db1576040517f08c379a0000000000000000000000000000000000000000000000000000000008152600401611da890612c16565b60405180910390fd5b600060076000878152602001908152602001600020600083815260200190815260200160002090508060010160009054906101000a900460ff1615611e2b576040517f08c379a0000000000000000000000000000000000000000000000000000000008152600401611e2290612c76565b60405180910390fd5b84816000018190555060018160010160006101000a81548160ff02191690831515021790555084836001016000828254611e659190612fcc565b92505081905550826002016000815480929190611e8190613176565b919050555060028410611ec9576040517f08c379a0000000000000000000000000000000000000000000000000000000008152600401611ec090612cb6565b60405180910390fd5b6008600087815260200190815260200160002060003373ffffffffffffffffffffffffffffffffffffffff1673ffffffffffffffffffffffffffffffffffffffff16815260200190815260200160002060009054906101000a900460ff1615611f67576040517f08c379a0000000000000000000000000000000000000000000000000000000008152600401611f5e90612b76565b60405180910390fd5b6001841415611f8f57826005016000815480929190611f8590613176565b9190505550611faa565b826006016000815480929190611fa490613176565b91905055505b60016008600088815260200190815260200160002060003373ffffffffffffffffffffffffffffffffffffffff1673ffffffffffffffffffffffffffffffffffffffff16815260200190815260200160002060006101000a81548160ff02191690831515021790555060006005600085600301548152602001908152602001600020858154811061203e5761203d613256565b5b9060005260206000200154905061205a33856003015483612063565b50505050505050565b61206e838383610c02565b505050565b6000612083858585856007611737565b9050949350505050565b600060076000848152602001908152602001600020600083815260200190815260200160002060000154905092915050565b60095481565b80600460006101000a81548173ffffffffffffffffffffffffffffffffffffffff021916908373ffffffffffffffffffffffffffffffffffffffff16021790555050565b600060026000848152602001908152602001600020600401600083815260200190815260200160002054905092915050565b828054828255906000526020600020908101928215612177579160200282015b8281111561217657825182559160200191906001019061215b565b5b509050612184919061220e565b5090565b82805461219490613113565b90600052602060002090601f0160209004810192826121b657600085556121fd565b82601f106121cf57805160ff19168380011785556121fd565b828001600101855582156121fd579182015b828111156121fc5782518255916020019190600101906121e1565b5b50905061220a919061220e565b5090565b5b8082111561222757600081600090555060010161220f565b5090565b600061223e61223984612f0f565b612eea565b90508083825260208201905082856020860282011115612261576122606132b9565b5b60005b858110156122915781612277888261234e565b845260208401935060208301925050600181019050612264565b5050509392505050565b60006122ae6122a984612f3b565b612eea565b9050828152602081018484840111156122ca576122c96132be565b5b6122d58482856130d1565b509392505050565b6000813590506122ec8161356e565b92915050565b600082601f830112612307576123066132b4565b5b813561231784826020860161222b565b91505092915050565b600082601f830112612335576123346132b4565b5b813561234584826020860161229b565b91505092915050565b60008135905061235d81613585565b92915050565b60008151905061237281613585565b92915050565b60006020828403121561238e5761238d6132c8565b5b600061239c848285016122dd565b91505092915050565b6000806000606084860312156123be576123bd6132c8565b5b60006123cc868287016122dd565b93505060206123dd8682870161234e565b92505060406123ee8682870161234e565b9150509250925092565b60008060008060808587031215612412576124116132c8565b5b600085013567ffffffffffffffff8111156124305761242f6132c3565b5b61243c87828801612320565b945050602061244d8782880161234e565b935050604085013567ffffffffffffffff81111561246e5761246d6132c3565b5b61247a878288016122f2565b925050606085013567ffffffffffffffff81111561249b5761249a6132c3565b5b6124a7878288016122f2565b91505092959194509250565b600080600080600060a086880312156124cf576124ce6132c8565b5b600086013567ffffffffffffffff8111156124ed576124ec6132c3565b5b6124f988828901612320565b955050602061250a8882890161234e565b945050604086013567ffffffffffffffff81111561252b5761252a6132c3565b5b612537888289016122f2565b935050606086013567ffffffffffffffff811115612558576125576132c3565b5b612564888289016122f2565b92505060806125758882890161234e565b9150509295509295909350565b6000806000806080858703121561259c5761259b6132c8565b5b600085013567ffffffffffffffff8111156125ba576125b96132c3565b5b6125c687828801612320565b94505060206125d78782880161234e565b935050604085013567ffffffffffffffff8111156125f8576125f76132c3565b5b612604878288016122f2565b92505060606126158782880161234e565b91505092959194509250565b600060208284031215612637576126366132c8565b5b60006126458482850161234e565b91505092915050565b600060208284031215612664576126636132c8565b5b600061267284828501612363565b91505092915050565b60008060408385031215612692576126916132c8565b5b60006126a08582860161234e565b92505060206126b1858286016122dd565b9150509250929050565b600080604083850312156126d2576126d16132c8565b5b60006126e08582860161234e565b92505060206126f18582860161234e565b9150509250929050565b600080600060608486031215612714576127136132c8565b5b60006127228682870161234e565b93505060206127338682870161234e565b92505060406127448682870161234e565b9150509250925092565b600061275a8383612a5a565b60208301905092915050565b61276f81613053565b82525050565b600061278082612f7c565b61278a8185612f9f565b935061279583612f6c565b8060005b838110156127c65781516127ad888261274e565b97506127b883612f92565b925050600181019050612799565b5085935050505092915050565b6127dc81613065565b82525050565b6127eb8161309b565b82525050565b60006127fc82612f87565b6128068185612fb0565b93506128168185602086016130e0565b61281f816132cd565b840191505092915050565b6000612837601883612fb0565b9150612842826132de565b602082019050919050565b600061285a600783612fc1565b915061286582613307565b600782019050919050565b600061287d601483612fb0565b915061288882613330565b602082019050919050565b60006128a0600d83612fb0565b91506128ab82613359565b602082019050919050565b60006128c3601083612fb0565b91506128ce82613382565b602082019050919050565b60006128e6601483612fb0565b91506128f1826133ab565b602082019050919050565b6000612909600f83612fb0565b9150612914826133d4565b602082019050919050565b600061292c601b83612fb0565b9150612937826133fd565b602082019050919050565b600061294f601583612fb0565b915061295a82613426565b602082019050919050565b6000612972600c83612fb0565b915061297d8261344f565b602082019050919050565b6000612995601183612fb0565b91506129a082613478565b602082019050919050565b60006129b8600d83612fb0565b91506129c3826134a1565b602082019050919050565b60006129db601283612fb0565b91506129e6826134ca565b602082019050919050565b60006129fe601a83612fb0565b9150612a09826134f3565b602082019050919050565b6000612a21600f83612fb0565b9150612a2c8261351c565b602082019050919050565b6000612a44601083612fb0565b9150612a4f82613545565b602082019050919050565b612a6381613091565b82525050565b612a7281613091565b82525050565b612a89612a8482613091565b6131bf565b82525050565b6000612a9a8261284d565b9150612aa68284612a78565b60208201915081905092915050565b6000602082019050612aca6000830184612766565b92915050565b60006040820190508181036000830152612aea8185612775565b9050612af96020830184612a69565b9392505050565b6000602082019050612b1560008301846127d3565b92915050565b6000602082019050612b3060008301846127e2565b92915050565b60006020820190508181036000830152612b4f8161282a565b9050919050565b60006020820190508181036000830152612b6f81612870565b9050919050565b60006020820190508181036000830152612b8f81612893565b9050919050565b60006020820190508181036000830152612baf816128b6565b9050919050565b60006020820190508181036000830152612bcf816128d9565b9050919050565b60006020820190508181036000830152612bef816128fc565b9050919050565b60006020820190508181036000830152612c0f8161291f565b9050919050565b60006020820190508181036000830152612c2f81612942565b9050919050565b60006020820190508181036000830152612c4f81612965565b9050919050565b60006020820190508181036000830152612c6f81612988565b9050919050565b60006020820190508181036000830152612c8f816129ab565b9050919050565b60006020820190508181036000830152612caf816129ce565b9050919050565b60006020820190508181036000830152612ccf816129f1565b9050919050565b60006020820190508181036000830152612cef81612a14565b9050919050565b60006020820190508181036000830152612d0f81612a37565b9050919050565b6000602082019050612d2b6000830184612a69565b92915050565b6000606082019050612d466000830186612a69565b612d536020830185612766565b612d606040830184612a69565b949350505050565b6000604082019050612d7d6000830185612a69565b612d8a60208301846127d3565b9392505050565b6000604082019050612da66000830185612a69565b8181036020830152612db881846127f1565b90509392505050565b600060a082019050612dd66000830188612a69565b8181036020830152612de881876127f1565b9050612df76040830186612a69565b612e046060830185612a69565b612e116080830184612a69565b9695505050505050565b6000604082019050612e306000830185612a69565b612e3d6020830184612a69565b9392505050565b6000606082019050612e596000830186612a69565b612e666020830185612a69565b612e736040830184612a69565b949350505050565b600060e082019050612e90600083018a612a69565b612e9d6020830189612a69565b612eaa6040830188612a69565b612eb76060830187612a69565b612ec460808301866127d3565b612ed160a0830185612a69565b612ede60c0830184612a69565b98975050505050505050565b6000612ef4612f05565b9050612f008282613145565b919050565b6000604051905090565b600067ffffffffffffffff821115612f2a57612f29613285565b5b602082029050602081019050919050565b600067ffffffffffffffff821115612f5657612f55613285565b5b612f5f826132cd565b9050602081019050919050565b6000819050602082019050919050565b600081519050919050565b600081519050919050565b6000602082019050919050565b600082825260208201905092915050565b600082825260208201905092915050565b600081905092915050565b6000612fd782613091565b9150612fe283613091565b9250827fffffffffffffffffffffffffffffffffffffffffffffffffffffffffffffffff03821115613017576130166131c9565b5b828201905092915050565b600061302d82613091565b915061303883613091565b925082613048576130476131f8565b5b828204905092915050565b600061305e82613071565b9050919050565b60008115159050919050565b600073ffffffffffffffffffffffffffffffffffffffff82169050919050565b6000819050919050565b60006130a6826130ad565b9050919050565b60006130b8826130bf565b9050919050565b60006130ca82613071565b9050919050565b82818337600083830152505050565b60005b838110156130fe5780820151818401526020810190506130e3565b8381111561310d576000848401525b50505050565b6000600282049050600182168061312b57607f821691505b6020821081141561313f5761313e613227565b5b50919050565b61314e826132cd565b810181811067ffffffffffffffff8211171561316d5761316c613285565b5b80604052505050565b600061318182613091565b91507fffffffffffffffffffffffffffffffffffffffffffffffffffffffffffffffff8214156131b4576131b36131c9565b5b600182019050919050565b6000819050919050565b7f4e487b7100000000000000000000000000000000000000000000000000000000600052601160045260246000fd5b7f4e487b7100000000000000000000000000000000000000000000000000000000600052601260045260246000fd5b7f4e487b7100000000000000000000000000000000000000000000000000000000600052602260045260246000fd5b7f4e487b7100000000000000000000000000000000000000000000000000000000600052603260045260246000fd5b7f4e487b7100000000000000000000000000000000000000000000000000000000600052604160045260246000fd5b600080fd5b600080fd5b600080fd5b600080fd5b600080fd5b6000601f19601f8301169050919050565b7fe68a95e7a5a8e79a84e98089e9a1b9e4b88de5ad98e59ca80000000000000000600082015250565b7f436f757273652000000000000000000000000000000000000000000000000000600082015250565b7f556e726567697374657265642074656163686572000000000000000000000000600082015250565b7f416c726561647920766f74656400000000000000000000000000000000000000600082015250565b7f416c726561647920657865637574656400000000000000000000000000000000600082015250565b7f4e6f20726174696e6773207375626d6974746564000000000000000000000000600082015250565b7fe8b4a6e688b7e69caae6b3a8e5868c0000000000000000000000000000000000600082015250565b7f4f6e6c792074656163686572732063616e2063616c6c20746869730000000000600082015250565b7f496e76616c696420726174696e672028312d3130290000000000000000000000600082015250565b7fe682a8e5b7b2e68a95e7a5a80000000000000000000000000000000000000000600082015250565b7f50726f706f73616c206578656375746564000000000000000000000000000000600082015250565b7f416c726561647920726174656400000000000000000000000000000000000000600082015250565b7fe68a95e7a5a8e4babae695b0e5b7b2e6bba10000000000000000000000000000600082015250565b7f496e76616c6964206f7074696f6e20696e6465782028302d3129000000000000600082015250565b7fe8b4a6e688b7e5b7b2e6b3a8e5868c0000000000000000000000000000000000600082015250565b7f496e76616c69642070726f706f73616c00000000000000000000000000000000600082015250565b61357781613053565b811461358257600080fd5b50565b61358e81613091565b811461359957600080fd5b5056fea26469706673582212206ffa5e2c9fb55c8968e0759dc9daed96d6405cd362165630d995cb069360cc4b64736f6c63430008070033",
  "immutableReferences": {},
  "source": "// SPDX-License-Identifier: MIT\r\npragma solidity ^0.8.7;\r\n\r\nimport \"./Vote.sol\";\r\nimport \"./CourseAllocation.sol\";\r\n\r\ncontract TeacherVote is Vote {\r\n    CourseAllocation public courseAllocation;\r\n\r\n    // 新增本地选项存储\r\n    mapping(uint256 => uint256[]) private _proposalOptions; //存储每个提案的投票选项\r\n\r\n    struct ProposalBase {\r\n        uint256 courseId;\r\n        uint256 totalRating;\r\n        uint256 raterCount;\r\n        uint256 suitabilityProposalId;\r\n        bool executed;\r\n        uint256 agreeCount;\r\n        uint256 disagreeCount;\r\n    }\r\n\r\n    struct TeacherRating {\r\n        uint256 rating;\r\n        bool hasRated;\r\n    }\r\n\r\n    mapping(uint256 => ProposalBase) public proposals;\r\n    mapping(uint256 => mapping(uint256 => TeacherRating)) public teacherRatings;\r\n    mapping(uint256 => mapping(address => bool)) public suitabilityVotes;\r\n\r\n    uint256 public proposalCount;\r\n\r\n    event NewCombinedProposal(\r\n        uint256 indexed proposalId,\r\n        uint256 indexed courseId,\r\n        uint256 suitabilityProposalId\r\n    );\r\n    event ProposalExecuted(\r\n        uint256 indexed proposalId,\r\n        uint256 avgImportance,\r\n        bool isAgentSuitable\r\n    );\r\n\r\n    modifier onlyTeacher() {\r\n        require(\r\n            courseAllocation.addressToTeacherId(msg.sender) != 0,\r\n            \"Only teachers can call this\"\r\n        );\r\n        _;\r\n    }\r\n\r\n    constructor(address _courseAllocationAddress) Vote() {\r\n        courseAllocation = CourseAllocation(_courseAllocationAddress);\r\n    }\r\n\r\n    function setCourseAllocation(address _addr) external {\r\n        courseAllocation = CourseAllocation(_addr);\r\n    }\r\n\r\n    function createCombinedProposal(\r\n        uint256 courseId\r\n    ) external onlyTeacher returns (uint256) {\r\n        // 定义投票选项值\r\n        uint256[] memory options = new uint256[](2);\r\n        options[0] = 1; // 反对选项值\r\n        options[1] = 2; // 赞成选项值\r\n\r\n        // 调用父合约创建提案\r\n        uint256 suitabilityProposalId = createChooseTeacherProposal(\r\n            string(abi.encodePacked(\"Course \", courseId)),\r\n            courseId,\r\n            options,\r\n            type(uint256).max\r\n        );\r\n\r\n        // 存储选项到本地映射\r\n        _proposalOptions[suitabilityProposalId] = options;\r\n\r\n        // 初始化合并提案\r\n        proposalCount++;\r\n        proposals[proposalCount] = ProposalBase({\r\n            courseId: courseId,\r\n            totalRating: 0,\r\n            raterCount: 0,\r\n            suitabilityProposalId: suitabilityProposalId,\r\n            executed: false,\r\n            agreeCount: 0,\r\n            disagreeCount: 0\r\n        });\r\n\r\n        emit NewCombinedProposal(\r\n            proposalCount,\r\n            courseId,\r\n            suitabilityProposalId\r\n        );\r\n        return proposalCount;\r\n    }\r\n\r\n    function submitCombinedVote(\r\n        uint256 proposalId,\r\n        uint256 rating,\r\n        uint256 suitabilityOptionIndex\r\n    ) external onlyTeacher {\r\n        ProposalBase storage p = proposals[proposalId];\r\n        require(p.courseId != 0, \"Invalid proposal\");\r\n        require(!p.executed, \"Proposal executed\");\r\n\r\n        // 验证教师身份\r\n        uint256 teacherId = courseAllocation.addressToTeacherId(msg.sender);\r\n        require(teacherId != 0, \"Unregistered teacher\");\r\n\r\n        // 处理评分逻辑\r\n        require(rating >= 1 && rating <= 10, \"Invalid rating (1-10)\");\r\n        TeacherRating storage tr = teacherRatings[proposalId][teacherId];\r\n        require(!tr.hasRated, \"Already rated\");\r\n\r\n        tr.rating = rating;\r\n        tr.hasRated = true;\r\n        p.totalRating += rating;\r\n        p.raterCount++;\r\n\r\n        // 处理投票逻辑\r\n        require(suitabilityOptionIndex < 2, \"Invalid option index (0-1)\");\r\n        require(!suitabilityVotes[proposalId][msg.sender], \"Already voted\");\r\n\r\n        if (suitabilityOptionIndex == 1) {\r\n            p.agreeCount++;\r\n        } else {\r\n            p.disagreeCount++;\r\n        }\r\n        suitabilityVotes[proposalId][msg.sender] = true;\r\n\r\n        // 从本地存储获取选项值\r\n        uint256 optionValue = _proposalOptions[p.suitabilityProposalId][\r\n            suitabilityOptionIndex\r\n        ];\r\n\r\n        // 调用父合约投票\r\n        super.voteChooseTeacher(\r\n            msg.sender,\r\n            p.suitabilityProposalId,\r\n            optionValue\r\n        );\r\n    }\r\n\r\n    function executeProposal(uint256 proposalId) external {\r\n        ProposalBase storage p = proposals[proposalId];\r\n        require(p.courseId != 0, \"Invalid proposal\");\r\n        require(!p.executed, \"Already executed\");\r\n        require(p.raterCount > 0, \"No ratings submitted\");\r\n\r\n        // 计算平均评分\r\n        uint256 avgRating = p.totalRating / p.raterCount;\r\n\r\n        // 获取投票结果\r\n        (uint256 winningOption, ) = endVoteChooseTeacher(\r\n            p.suitabilityProposalId\r\n        );\r\n        bool isSuitable = (winningOption == 2); // 假设2是赞成选项值\r\n\r\n        // 更新课程状态\r\n        courseAllocation.setCourseImportance(p.courseId, avgRating);\r\n        courseAllocation.setCourseIsAgentSuitable(p.courseId, isSuitable);\r\n\r\n        p.executed = true;\r\n        emit ProposalExecuted(proposalId, avgRating, isSuitable);\r\n    }\r\n\r\n    function getVoteDetails(\r\n        uint256 proposalId\r\n    )\r\n        external\r\n        view\r\n        returns (uint256 agree, uint256 disagree, uint256 totalRatings)\r\n    {\r\n        ProposalBase memory p = proposals[proposalId];\r\n        return (p.agreeCount, p.disagreeCount, p.raterCount);\r\n    }\r\n\r\n    function getTeacherRating(\r\n        uint256 proposalId,\r\n        uint256 teacherId\r\n    ) public view returns (uint256) {\r\n        return teacherRatings[proposalId][teacherId].rating;\r\n    }\r\n}\r\n",
  "sourcePath": "E:\\dao\\327\\Course-allocation\\project\\contracts\\TeacherVote.sol",
  "compiler": {
    "name": "solc",
    "version": "0.8.7+commit.e28d00a7.Emscripten.clang"
  },
  "schemaVersion": "3.4.16",
  "updatedAt": "2025-04-05T05:50:36.298Z",
  "networkType": "ethereum",
  "devdoc": {
    "kind": "dev",
    "methods": {},
    "version": 1
  },
  "userdoc": {
    "kind": "user",
    "methods": {},
    "version": 1
  }
}