{
  "contractName": "TeacherVote",
  "abi": [
    {
      "inputs": [
        {
          "internalType": "address",
          "name": "_courseAllocationAddress",
          "type": "address"
        }
      ],
      "stateMutability": "nonpayable",
      "type": "constructor"
    },
    {
      "anonymous": false,
      "inputs": [
        {
          "indexed": true,
          "internalType": "uint256",
          "name": "proposalId",
          "type": "uint256"
        },
        {
          "indexed": true,
          "internalType": "uint256",
          "name": "courseId",
          "type": "uint256"
        },
        {
          "indexed": false,
          "internalType": "uint256",
          "name": "suitabilityProposalId",
          "type": "uint256"
        }
      ],
      "name": "NewCombinedProposal",
      "type": "event"
    },
    {
      "anonymous": false,
      "inputs": [
        {
          "indexed": false,
          "internalType": "uint256",
          "name": "proposalId",
          "type": "uint256"
        },
        {
          "indexed": false,
          "internalType": "string",
          "name": "description",
          "type": "string"
        }
      ],
      "name": "ProposalCreated",
      "type": "event"
    },
    {
      "anonymous": false,
      "inputs": [
        {
          "indexed": true,
          "internalType": "uint256",
          "name": "proposalId",
          "type": "uint256"
        },
        {
          "indexed": false,
          "internalType": "uint256",
          "name": "avgImportance",
          "type": "uint256"
        },
        {
          "indexed": false,
          "internalType": "bool",
          "name": "isAgentSuitable",
          "type": "bool"
        }
      ],
      "name": "ProposalExecuted",
      "type": "event"
    },
    {
      "inputs": [],
      "name": "courseAllocation",
      "outputs": [
        {
          "internalType": "contract CourseAllocation",
          "name": "",
          "type": "address"
        }
      ],
      "stateMutability": "view",
      "type": "function",
      "constant": true
    },
    {
      "inputs": [
        {
          "internalType": "string",
          "name": "_description",
          "type": "string"
        },
        {
          "internalType": "uint256",
          "name": "_voteforID",
          "type": "uint256"
        },
        {
          "internalType": "uint256[]",
          "name": "_votedIds",
          "type": "uint256[]"
        },
        {
          "internalType": "uint256",
          "name": "_totalVote",
          "type": "uint256"
        }
      ],
      "name": "createChooseCourseProposal",
      "outputs": [
        {
          "internalType": "uint256",
          "name": "",
          "type": "uint256"
        }
      ],
      "stateMutability": "nonpayable",
      "type": "function"
    },
    {
      "inputs": [
        {
          "internalType": "string",
          "name": "_description",
          "type": "string"
        },
        {
          "internalType": "uint256",
          "name": "_voteforID",
          "type": "uint256"
        },
        {
          "internalType": "uint256[]",
          "name": "_votedIds",
          "type": "uint256[]"
        },
        {
          "internalType": "uint256",
          "name": "_totalVote",
          "type": "uint256"
        }
      ],
      "name": "createChooseTeacherProposal",
      "outputs": [
        {
          "internalType": "uint256",
          "name": "",
          "type": "uint256"
        }
      ],
      "stateMutability": "nonpayable",
      "type": "function"
    },
    {
      "inputs": [
        {
          "internalType": "string",
          "name": "_description",
          "type": "string"
        },
        {
          "internalType": "uint256",
          "name": "_voteforID",
          "type": "uint256"
        },
        {
          "internalType": "uint256[]",
          "name": "_votedIds",
          "type": "uint256[]"
        },
        {
          "internalType": "uint256[]",
          "name": "_votedCounts",
          "type": "uint256[]"
        },
        {
          "internalType": "uint256",
          "name": "_totalVote",
          "type": "uint256"
        }
      ],
      "name": "createMachineProposal",
      "outputs": [
        {
          "internalType": "uint256",
          "name": "",
          "type": "uint256"
        }
      ],
      "stateMutability": "nonpayable",
      "type": "function"
    },
    {
      "inputs": [
        {
          "internalType": "string",
          "name": "_description",
          "type": "string"
        },
        {
          "internalType": "uint256",
          "name": "_voteforID",
          "type": "uint256"
        },
        {
          "internalType": "uint256[]",
          "name": "_votedIds",
          "type": "uint256[]"
        },
        {
          "internalType": "uint256[]",
          "name": "_votedCounts",
          "type": "uint256[]"
        }
      ],
      "name": "createMachineVoteProposal",
      "outputs": [
        {
          "internalType": "uint256",
          "name": "",
          "type": "uint256"
        }
      ],
      "stateMutability": "nonpayable",
      "type": "function"
    },
    {
      "inputs": [
        {
          "internalType": "string",
          "name": "_description",
          "type": "string"
        },
        {
          "internalType": "uint256",
          "name": "_voteforID",
          "type": "uint256"
        },
        {
          "internalType": "uint256[]",
          "name": "_votedIds",
          "type": "uint256[]"
        },
        {
          "internalType": "uint256",
          "name": "_totalVote",
          "type": "uint256"
        }
      ],
      "name": "createProposalMultiple",
      "outputs": [
        {
          "internalType": "uint256",
          "name": "",
          "type": "uint256"
        }
      ],
      "stateMutability": "nonpayable",
      "type": "function"
    },
    {
      "inputs": [
        {
          "internalType": "uint256",
          "name": "_proposalId",
          "type": "uint256"
        }
      ],
      "name": "endVoteChooseCourse",
      "outputs": [
        {
          "internalType": "uint256",
          "name": "",
          "type": "uint256"
        },
        {
          "internalType": "uint256",
          "name": "",
          "type": "uint256"
        }
      ],
      "stateMutability": "view",
      "type": "function",
      "constant": true
    },
    {
      "inputs": [
        {
          "internalType": "uint256",
          "name": "_proposalId",
          "type": "uint256"
        }
      ],
      "name": "endVoteChooseTeacher",
      "outputs": [
        {
          "internalType": "uint256",
          "name": "",
          "type": "uint256"
        },
        {
          "internalType": "uint256",
          "name": "",
          "type": "uint256"
        }
      ],
      "stateMutability": "view",
      "type": "function",
      "constant": true
    },
    {
      "inputs": [
        {
          "internalType": "uint256",
          "name": "_proposalId",
          "type": "uint256"
        }
      ],
      "name": "endVoteMultiple",
      "outputs": [
        {
          "internalType": "uint256",
          "name": "",
          "type": "uint256"
        },
        {
          "internalType": "uint256",
          "name": "",
          "type": "uint256"
        }
      ],
      "stateMutability": "view",
      "type": "function",
      "constant": true
    },
    {
      "inputs": [
        {
          "internalType": "uint256",
          "name": "_proposalId",
          "type": "uint256"
        },
        {
          "internalType": "uint256",
          "name": "_voteId",
          "type": "uint256"
        }
      ],
      "name": "getVoteIdToCount",
      "outputs": [
        {
          "internalType": "uint256",
          "name": "",
          "type": "uint256"
        }
      ],
      "stateMutability": "view",
      "type": "function",
      "constant": true
    },
    {
      "inputs": [
        {
          "internalType": "uint256",
          "name": "_proposalId",
          "type": "uint256"
        }
      ],
      "name": "getVotedIds",
      "outputs": [
        {
          "internalType": "uint256[]",
          "name": "",
          "type": "uint256[]"
        },
        {
          "internalType": "uint256",
          "name": "",
          "type": "uint256"
        }
      ],
      "stateMutability": "view",
      "type": "function",
      "constant": true
    },
    {
      "inputs": [],
      "name": "proposalCount",
      "outputs": [
        {
          "internalType": "uint256",
          "name": "",
          "type": "uint256"
        }
      ],
      "stateMutability": "view",
      "type": "function",
      "constant": true
    },
    {
      "inputs": [
        {
          "internalType": "uint256",
          "name": "",
          "type": "uint256"
        }
      ],
      "name": "proposalMultipleIds",
      "outputs": [
        {
          "internalType": "uint256",
          "name": "",
          "type": "uint256"
        }
      ],
      "stateMutability": "view",
      "type": "function",
      "constant": true
    },
    {
      "inputs": [
        {
          "internalType": "uint256",
          "name": "",
          "type": "uint256"
        }
      ],
      "name": "proposalMultiples",
      "outputs": [
        {
          "internalType": "uint256",
          "name": "id",
          "type": "uint256"
        },
        {
          "internalType": "string",
          "name": "description",
          "type": "string"
        },
        {
          "internalType": "uint256",
          "name": "voteforID",
          "type": "uint256"
        },
        {
          "internalType": "uint256",
          "name": "voteCount",
          "type": "uint256"
        },
        {
          "internalType": "uint256",
          "name": "totalVote",
          "type": "uint256"
        }
      ],
      "stateMutability": "view",
      "type": "function",
      "constant": true
    },
    {
      "inputs": [
        {
          "internalType": "uint256",
          "name": "",
          "type": "uint256"
        }
      ],
      "name": "proposals",
      "outputs": [
        {
          "internalType": "uint256",
          "name": "courseId",
          "type": "uint256"
        },
        {
          "internalType": "uint256",
          "name": "totalRating",
          "type": "uint256"
        },
        {
          "internalType": "uint256",
          "name": "raterCount",
          "type": "uint256"
        },
        {
          "internalType": "uint256",
          "name": "suitabilityProposalId",
          "type": "uint256"
        },
        {
          "internalType": "bool",
          "name": "executed",
          "type": "bool"
        },
        {
          "internalType": "uint256",
          "name": "agreeCount",
          "type": "uint256"
        },
        {
          "internalType": "uint256",
          "name": "disagreeCount",
          "type": "uint256"
        }
      ],
      "stateMutability": "view",
      "type": "function",
      "constant": true
    },
    {
      "inputs": [
        {
          "internalType": "address",
          "name": "_voter",
          "type": "address"
        }
      ],
      "name": "registerVoter",
      "outputs": [],
      "stateMutability": "nonpayable",
      "type": "function"
    },
    {
      "inputs": [
        {
          "internalType": "uint256",
          "name": "",
          "type": "uint256"
        },
        {
          "internalType": "address",
          "name": "",
          "type": "address"
        }
      ],
      "name": "suitabilityVotes",
      "outputs": [
        {
          "internalType": "bool",
          "name": "",
          "type": "bool"
        }
      ],
      "stateMutability": "view",
      "type": "function",
      "constant": true
    },
    {
      "inputs": [
        {
          "internalType": "uint256",
          "name": "",
          "type": "uint256"
        },
        {
          "internalType": "uint256",
          "name": "",
          "type": "uint256"
        }
      ],
      "name": "teacherRatings",
      "outputs": [
        {
          "internalType": "uint256",
          "name": "rating",
          "type": "uint256"
        },
        {
          "internalType": "bool",
          "name": "hasRated",
          "type": "bool"
        }
      ],
      "stateMutability": "view",
      "type": "function",
      "constant": true
    },
    {
      "inputs": [
        {
          "internalType": "address",
          "name": "voterAddress",
          "type": "address"
        },
        {
          "internalType": "uint256",
          "name": "_proposalId",
          "type": "uint256"
        },
        {
          "internalType": "uint256",
          "name": "_voteId",
          "type": "uint256"
        }
      ],
      "name": "voteChooseCourse",
      "outputs": [],
      "stateMutability": "nonpayable",
      "type": "function"
    },
    {
      "inputs": [
        {
          "internalType": "address",
          "name": "voterAddress",
          "type": "address"
        },
        {
          "internalType": "uint256",
          "name": "_proposalId",
          "type": "uint256"
        },
        {
          "internalType": "uint256",
          "name": "_voteId",
          "type": "uint256"
        }
      ],
      "name": "voteChooseTeacher",
      "outputs": [],
      "stateMutability": "nonpayable",
      "type": "function"
    },
    {
      "inputs": [
        {
          "internalType": "address",
          "name": "voter",
          "type": "address"
        },
        {
          "internalType": "uint256",
          "name": "_proposalId",
          "type": "uint256"
        },
        {
          "internalType": "uint256",
          "name": "_voteId",
          "type": "uint256"
        }
      ],
      "name": "voteMultiple",
      "outputs": [],
      "stateMutability": "nonpayable",
      "type": "function"
    },
    {
      "inputs": [
        {
          "internalType": "address",
          "name": "",
          "type": "address"
        }
      ],
      "name": "voters",
      "outputs": [
        {
          "internalType": "uint256",
          "name": "id",
          "type": "uint256"
        },
        {
          "internalType": "address",
          "name": "voter",
          "type": "address"
        },
        {
          "internalType": "uint256",
          "name": "weight",
          "type": "uint256"
        }
      ],
      "stateMutability": "view",
      "type": "function",
      "constant": true
    },
    {
      "inputs": [
        {
          "internalType": "uint256",
          "name": "",
          "type": "uint256"
        }
      ],
      "name": "votersAddress",
      "outputs": [
        {
          "internalType": "address",
          "name": "",
          "type": "address"
        }
      ],
      "stateMutability": "view",
      "type": "function",
      "constant": true
    },
    {
      "inputs": [
        {
          "internalType": "address",
          "name": "_addr",
          "type": "address"
        }
      ],
      "name": "setCourseAllocation",
      "outputs": [],
      "stateMutability": "nonpayable",
      "type": "function"
    },
    {
      "inputs": [
        {
          "internalType": "uint256",
          "name": "courseId",
          "type": "uint256"
        }
      ],
      "name": "createCombinedProposal",
      "outputs": [
        {
          "internalType": "uint256",
          "name": "",
          "type": "uint256"
        }
      ],
      "stateMutability": "nonpayable",
      "type": "function"
    },
    {
      "inputs": [
        {
          "internalType": "uint256",
          "name": "proposalId",
          "type": "uint256"
        },
        {
          "internalType": "uint256",
          "name": "rating",
          "type": "uint256"
        },
        {
          "internalType": "uint256",
          "name": "suitabilityOptionIndex",
          "type": "uint256"
        }
      ],
      "name": "submitCombinedVote",
      "outputs": [],
      "stateMutability": "nonpayable",
      "type": "function"
    },
    {
      "inputs": [
        {
          "internalType": "uint256",
          "name": "proposalId",
          "type": "uint256"
        }
      ],
      "name": "executeProposal",
      "outputs": [],
      "stateMutability": "nonpayable",
      "type": "function"
    },
    {
      "inputs": [
        {
          "internalType": "uint256",
          "name": "proposalId",
          "type": "uint256"
        }
      ],
      "name": "getVoteDetails",
      "outputs": [
        {
          "internalType": "uint256",
          "name": "agree",
          "type": "uint256"
        },
        {
          "internalType": "uint256",
          "name": "disagree",
          "type": "uint256"
        },
        {
          "internalType": "uint256",
          "name": "totalRatings",
          "type": "uint256"
        }
      ],
      "stateMutability": "view",
      "type": "function",
      "constant": true
    },
    {
      "inputs": [
        {
          "internalType": "uint256",
          "name": "proposalId",
          "type": "uint256"
        },
        {
          "internalType": "uint256",
          "name": "teacherId",
          "type": "uint256"
        }
      ],
      "name": "getTeacherRating",
      "outputs": [
        {
          "internalType": "uint256",
          "name": "",
          "type": "uint256"
        }
      ],
      "stateMutability": "view",
      "type": "function",
      "constant": true
    }
  ],
  "bytecode": "0x60806040523480156200001157600080fd5b50604051620036a3380380620036a3833981810160405281019062000037919062000096565b80600460006101000a81548173ffffffffffffffffffffffffffffffffffffffff021916908373ffffffffffffffffffffffffffffffffffffffff160217905550506200011b565b600081519050620000908162000101565b92915050565b600060208284031215620000af57620000ae620000fc565b5b6000620000bf848285016200007f565b91505092915050565b6000620000d582620000dc565b9050919050565b600073ffffffffffffffffffffffffffffffffffffffff82169050919050565b600080fd5b6200010c81620000c8565b81146200011857600080fd5b50565b613578806200012b6000396000f3fe608060405234801561001057600080fd5b50600436106101cf5760003560e01c80636d1efef011610104578063b2af0cc5116100a2578063c845c19811610071578063c845c1981461060d578063da35c6641461063d578063e20e71f91461065b578063fe8d724c14610677576101cf565b8063b2af0cc514610575578063b9002f3d146105a5578063bc8c24d9146105c1578063bc9cad8a146105dd576101cf565b806388462f2c116100de57806388462f2c146104c75780638984e993146104e3578063a3ec138d14610513578063b201539f14610545576101cf565b80636d1efef01461043657806376ce93f714610466578063777ea2c914610497576101cf565b8063361d5b791161017157806345f509961161014b57806345f509961461038457806346c7e2a9146103a257806354a1b431146103d357806355d2f08e14610405576101cf565b8063361d5b791461030757806338db6dd31461033857806343242daa14610354576101cf565b80630f0626b5116101ad5780630f0626b514610256578063148f8e4f14610286578063162b040d146102ba5780632b6b189b146102eb576101cf565b8063013cf08b146101d45780630202f8471461020a5780630d61b5191461023a575b600080fd5b6101ee60048036038101906101e99190612590565b6106a7565b6040516102019796959493929190612e21565b60405180910390f35b610224600480360381019061021f91906124f1565b6106f6565b6040516102319190612c85565b60405180910390f35b610254600480360381019061024f9190612590565b61070e565b005b610270600480360381019061026b9190612590565b61092b565b60405161027d9190612c85565b60405180910390f35b6102a0600480360381019061029b9190612590565b61094f565b6040516102b1959493929190612d30565b60405180910390f35b6102d460048036038101906102cf9190612590565b610a0d565b6040516102e2929190612d8a565b60405180910390f35b61030560048036038101906103009190612314565b610b71565b005b610321600480360381019061031c9190612590565b610ef9565b60405161032f929190612d8a565b60405180910390f35b610352600480360381019061034d91906122e7565b610f0e565b005b61036e60048036038101906103699190612590565b611122565b60405161037b9190612a24565b60405180910390f35b61038c611161565b6040516103999190612a8a565b60405180910390f35b6103bc60048036038101906103b7919061262a565b611187565b6040516103ca929190612cd7565b60405180910390f35b6103ed60048036038101906103e89190612590565b6111c5565b6040516103fc93929190612dea565b60405180910390f35b61041f600480360381019061041a9190612590565b61125f565b60405161042d929190612d8a565b60405180910390f35b610450600480360381019061044b91906125ea565b611274565b60405161045d9190612a6f565b60405180910390f35b610480600480360381019061047b9190612590565b6112a3565b60405161048e929190612a3f565b60405180910390f35b6104b160048036038101906104ac91906124f1565b61132f565b6040516104be9190612c85565b60405180910390f35b6104e160048036038101906104dc9190612314565b611347565b005b6104fd60048036038101906104f89190612590565b611357565b60405161050a9190612c85565b60405180910390f35b61052d600480360381019061052891906122e7565b61165c565b60405161053c93929190612ca0565b60405180910390f35b61055f600480360381019061055a9190612422565b6116a6565b60405161056c9190612c85565b60405180910390f35b61058f600480360381019061058a91906124f1565b6118a2565b60405161059c9190612c85565b60405180910390f35b6105bf60048036038101906105ba919061266a565b611a3d565b005b6105db60048036038101906105d69190612314565b611fd2565b005b6105f760048036038101906105f29190612367565b611fe2565b6040516106049190612c85565b60405180910390f35b6106276004803603810190610622919061262a565b611ffc565b6040516106349190612c85565b60405180910390f35b61064561202e565b6040516106529190612c85565b60405180910390f35b610675600480360381019061067091906122e7565b612034565b005b610691600480360381019061068c919061262a565b612078565b60405161069e9190612c85565b60405180910390f35b60066020528060005260406000206000915090508060000154908060010154908060020154908060030154908060040160009054906101000a900460ff16908060050154908060060154905087565b6000610704858585856118a2565b9050949350505050565b600060066000838152602001908152602001600020905060008160000154141561076d576040517f08c379a000000000000000000000000000000000000000000000000000000000815260040161076490612c65565b60405180910390fd5b8060040160009054906101000a900460ff16156107bf576040517f08c379a00000000000000000000000000000000000000000000000000000000081526004016107b690612b05565b60405180910390fd5b6000816002015411610806576040517f08c379a00000000000000000000000000000000000000000000000000000000081526004016107fd90612b25565b60405180910390fd5b60008160020154826001015461081c9190612fc8565b9050600061082d836003015461125f565b5090506000600282149050600460009054906101000a900473ffffffffffffffffffffffffffffffffffffffff1673ffffffffffffffffffffffffffffffffffffffff16630dbd6b90856000015485846040518463ffffffff1660e01b815260040161089b93929190612db3565b600060405180830381600087803b1580156108b557600080fd5b505af11580156108c9573d6000803e3d6000fd5b5050505060018460040160006101000a81548160ff021916908315150217905550847f675c71fb6cbf880ec8fed9c345ef0bb3019cc44b99708edb402b85a7535d7d19848360405161091c929190612cd7565b60405180910390a25050505050565b6003818154811061093b57600080fd5b906000526020600020016000915090505481565b6002602052806000526040600020600091509050806000015490806001018054610978906130b9565b80601f01602080910402602001604051908101604052809291908181526020018280546109a4906130b9565b80156109f15780601f106109c6576101008083540402835291602001916109f1565b820191906000526020600020905b8154815290600101906020018083116109d457829003601f168201915b5050505050908060020154908060060154908060070154905085565b600080600080600060026000878152602001908152602001600020600301805480602002602001604051908101604052809291908181526020018280548015610a7557602002820191906000526020600020905b815481526020019060010190808311610a61575b5050505050905060006002600088815260200190815260200160002060020154905060005b8251811015610b615784600260008a81526020019081526020016000206004016000858481518110610acf57610ace6131fc565b5b60200260200101518152602001908152602001600020541115610b4e57600260008981526020019081526020016000206004016000848381518110610b1757610b166131fc565b5b60200260200101518152602001908152602001600020549450828181518110610b4357610b426131fc565b5b602002602001015193505b8080610b599061311c565b915050610a9a565b5082819550955050505050915091565b600073ffffffffffffffffffffffffffffffffffffffff166000808573ffffffffffffffffffffffffffffffffffffffff1673ffffffffffffffffffffffffffffffffffffffff16815260200190815260200160002060010160009054906101000a900473ffffffffffffffffffffffffffffffffffffffff1673ffffffffffffffffffffffffffffffffffffffff161415610c42576040517f08c379a0000000000000000000000000000000000000000000000000000000008152600401610c3990612b45565b60405180910390fd5b600015156002600084815260200190815260200160002060050160008573ffffffffffffffffffffffffffffffffffffffff1673ffffffffffffffffffffffffffffffffffffffff16815260200190815260200160002060009054906101000a900460ff16151514610ce9576040517f08c379a0000000000000000000000000000000000000000000000000000000008152600401610ce090612ba5565b60405180910390fd5b6002600083815260200190815260200160002060070154600260008481526020019081526020016000206006015410610d57576040517f08c379a0000000000000000000000000000000000000000000000000000000008152600401610d4e90612c05565b60405180910390fd5b6000805b6002600085815260200190815260200160002060030180549050811015610eab5782600260008681526020019081526020016000206003018281548110610da557610da46131fc565b5b90600052602060002001541415610e985760016002600086815260200190815260200160002060040160008581526020019081526020016000206000828254610dee9190612f72565b925050819055506001600260008681526020019081526020016000206006016000828254610e1c9190612f72565b9250508190555060016002600086815260200190815260200160002060050160008773ffffffffffffffffffffffffffffffffffffffff1673ffffffffffffffffffffffffffffffffffffffff16815260200190815260200160002060006101000a81548160ff02191690831515021790555060019150610eab565b8080610ea39061311c565b915050610d5b565b506001151581151514610ef3576040517f08c379a0000000000000000000000000000000000000000000000000000000008152600401610eea90612aa5565b60405180910390fd5b50505050565b600080610f0583610a0d565b91509150915091565b600073ffffffffffffffffffffffffffffffffffffffff166000808373ffffffffffffffffffffffffffffffffffffffff1673ffffffffffffffffffffffffffffffffffffffff16815260200190815260200160002060010160009054906101000a900473ffffffffffffffffffffffffffffffffffffffff1673ffffffffffffffffffffffffffffffffffffffff1614610fde576040517f08c379a0000000000000000000000000000000000000000000000000000000008152600401610fd590612c45565b60405180910390fd5b604051806060016040528060018080549050610ffa9190612f72565b81526020018273ffffffffffffffffffffffffffffffffffffffff16815260200160018152506000808373ffffffffffffffffffffffffffffffffffffffff1673ffffffffffffffffffffffffffffffffffffffff1681526020019081526020016000206000820151816000015560208201518160010160006101000a81548173ffffffffffffffffffffffffffffffffffffffff021916908373ffffffffffffffffffffffffffffffffffffffff160217905550604082015181600201559050506001819080600181540180825580915050600190039060005260206000200160009091909190916101000a81548173ffffffffffffffffffffffffffffffffffffffff021916908373ffffffffffffffffffffffffffffffffffffffff16021790555050565b6001818154811061113257600080fd5b906000526020600020016000915054906101000a900473ffffffffffffffffffffffffffffffffffffffff1681565b600460009054906101000a900473ffffffffffffffffffffffffffffffffffffffff1681565b6007602052816000526040600020602052806000526040600020600091509150508060000154908060010160009054906101000a900460ff16905082565b600080600080600660008681526020019081526020016000206040518060e0016040529081600082015481526020016001820154815260200160028201548152602001600382015481526020016004820160009054906101000a900460ff161515151581526020016005820154815260200160068201548152505090508060a001518160c001518260400151935093509350509193909250565b60008061126b83610a0d565b91509150915091565b60086020528160005260406000206020528060005260406000206000915091509054906101000a900460ff1681565b606060006002600084815260200190815260200160002060030160026000858152602001908152602001600020600201548180548060200260200160405190810160405280929190818152602001828054801561131f57602002820191906000526020600020905b81548152602001906001019080831161130b575b5050505050915091509150915091565b600061133d858585856118a2565b9050949350505050565b611352838383610b71565b505050565b600080600460009054906101000a900473ffffffffffffffffffffffffffffffffffffffff1673ffffffffffffffffffffffffffffffffffffffff16630f7f13cf336040518263ffffffff1660e01b81526004016113b59190612a24565b60206040518083038186803b1580156113cd57600080fd5b505afa1580156113e1573d6000803e3d6000fd5b505050506040513d601f19601f8201168201806040525081019061140591906125bd565b1415611446576040517f08c379a000000000000000000000000000000000000000000000000000000000815260040161143d90612b65565b60405180910390fd5b6000600267ffffffffffffffff8111156114635761146261322b565b5b6040519080825280602002602001820160405280156114915781602001602082028036833780820191505090505b5090506001816000815181106114aa576114a96131fc565b5b6020026020010181815250506002816001815181106114cc576114cb6131fc565b5b6020026020010181815250506000611525846040516020016114ee91906129fe565b60405160208183030381529060405285847fffffffffffffffffffffffffffffffffffffffffffffffffffffffffffffffff6106f6565b90508160056000838152602001908152602001600020908051906020019061154e9291906120aa565b50600960008154809291906115629061311c565b91905055506040518060e0016040528085815260200160008152602001600081526020018281526020016000151581526020016000815260200160008152506006600060095481526020019081526020016000206000820151816000015560208201518160010155604082015181600201556060820151816003015560808201518160040160006101000a81548160ff02191690831515021790555060a0820151816005015560c08201518160060155905050836009547f588dccb0986c4198655070050849469a27cde1cecc8e248546bbfaf007188c65836040516116489190612c85565b60405180910390a360095492505050919050565b60006020528060005260406000206000915090508060000154908060010160009054906101000a900473ffffffffffffffffffffffffffffffffffffffff16908060020154905083565b60008060016003805490506116bb9190612f72565b9050806002600083815260200190815260200160002060000181905550866002600083815260200190815260200160002060010190805190602001906117029291906120f7565b5060005b85518110156117fc576000868281518110611724576117236131fc565b5b6020026020010151146117e9576002600083815260200190815260200160002060030186828151811061175a576117596131fc565b5b6020026020010151908060018154018082558091505060019003906000526020600020016000909190919091505584818151811061179b5761179a6131fc565b5b60200260200101516002600084815260200190815260200160002060040160008884815181106117ce576117cd6131fc565b5b60200260200101518152602001908152602001600020819055505b80806117f49061311c565b915050611706565b5082600260008381526020019081526020016000206007018190555085600260008381526020019081526020016000206002018190555060038190806001815401808255809150506001900390600052602060002001600090919091909150557f9c770c289ab5bf7e57cb1d23c8ceae993aea46eb64847072fd3d78ca60d3e432818860405161188d929190612d00565b60405180910390a18091505095945050505050565b60008060016003805490506118b79190612f72565b9050806002600083815260200190815260200160002060000181905550856002600083815260200190815260200160002060010190805190602001906118fe9291906120f7565b5060005b84518110156119985760008582815181106119205761191f6131fc565b5b6020026020010151146119855760026000838152602001908152602001600020600301858281518110611956576119556131fc565b5b602002602001015190806001815401808255809150506001900390600052602060002001600090919091909150555b80806119909061311c565b915050611902565b5082600260008381526020019081526020016000206007018190555084600260008381526020019081526020016000206002018190555060038190806001815401808255809150506001900390600052602060002001600090919091909150557f9c770c289ab5bf7e57cb1d23c8ceae993aea46eb64847072fd3d78ca60d3e4328187604051611a29929190612d00565b60405180910390a180915050949350505050565b6000600460009054906101000a900473ffffffffffffffffffffffffffffffffffffffff1673ffffffffffffffffffffffffffffffffffffffff16630f7f13cf336040518263ffffffff1660e01b8152600401611a9a9190612a24565b60206040518083038186803b158015611ab257600080fd5b505afa158015611ac6573d6000803e3d6000fd5b505050506040513d601f19601f82011682018060405250810190611aea91906125bd565b1415611b2b576040517f08c379a0000000000000000000000000000000000000000000000000000000008152600401611b2290612b65565b60405180910390fd5b6000600660008581526020019081526020016000209050600081600001541415611b8a576040517f08c379a0000000000000000000000000000000000000000000000000000000008152600401611b8190612c65565b60405180910390fd5b8060040160009054906101000a900460ff1615611bdc576040517f08c379a0000000000000000000000000000000000000000000000000000000008152600401611bd390612bc5565b60405180910390fd5b6000600460009054906101000a900473ffffffffffffffffffffffffffffffffffffffff1673ffffffffffffffffffffffffffffffffffffffff16630f7f13cf336040518263ffffffff1660e01b8152600401611c399190612a24565b60206040518083038186803b158015611c5157600080fd5b505afa158015611c65573d6000803e3d6000fd5b505050506040513d601f19601f82011682018060405250810190611c8991906125bd565b90506000811415611ccf576040517f08c379a0000000000000000000000000000000000000000000000000000000008152600401611cc690612ac5565b60405180910390fd5b60018410158015611ce15750600a8411155b611d20576040517f08c379a0000000000000000000000000000000000000000000000000000000008152600401611d1790612b85565b60405180910390fd5b600060076000878152602001908152602001600020600083815260200190815260200160002090508060010160009054906101000a900460ff1615611d9a576040517f08c379a0000000000000000000000000000000000000000000000000000000008152600401611d9190612be5565b60405180910390fd5b84816000018190555060018160010160006101000a81548160ff02191690831515021790555084836001016000828254611dd49190612f72565b92505081905550826002016000815480929190611df09061311c565b919050555060028410611e38576040517f08c379a0000000000000000000000000000000000000000000000000000000008152600401611e2f90612c25565b60405180910390fd5b6008600087815260200190815260200160002060003373ffffffffffffffffffffffffffffffffffffffff1673ffffffffffffffffffffffffffffffffffffffff16815260200190815260200160002060009054906101000a900460ff1615611ed6576040517f08c379a0000000000000000000000000000000000000000000000000000000008152600401611ecd90612ae5565b60405180910390fd5b6001841415611efe57826005016000815480929190611ef49061311c565b9190505550611f19565b826006016000815480929190611f139061311c565b91905055505b60016008600088815260200190815260200160002060003373ffffffffffffffffffffffffffffffffffffffff1673ffffffffffffffffffffffffffffffffffffffff16815260200190815260200160002060006101000a81548160ff021916908315150217905550600060056000856003015481526020019081526020016000208581548110611fad57611fac6131fc565b5b90600052602060002001549050611fc933856003015483611fd2565b50505050505050565b611fdd838383610b71565b505050565b6000611ff28585858560076116a6565b9050949350505050565b600060076000848152602001908152602001600020600083815260200190815260200160002060000154905092915050565b60095481565b80600460006101000a81548173ffffffffffffffffffffffffffffffffffffffff021916908373ffffffffffffffffffffffffffffffffffffffff16021790555050565b600060026000848152602001908152602001600020600401600083815260200190815260200160002054905092915050565b8280548282559060005260206000209081019282156120e6579160200282015b828111156120e55782518255916020019190600101906120ca565b5b5090506120f3919061217d565b5090565b828054612103906130b9565b90600052602060002090601f016020900481019282612125576000855561216c565b82601f1061213e57805160ff191683800117855561216c565b8280016001018555821561216c579182015b8281111561216b578251825591602001919060010190612150565b5b509050612179919061217d565b5090565b5b8082111561219657600081600090555060010161217e565b5090565b60006121ad6121a884612eb5565b612e90565b905080838252602082019050828560208602820111156121d0576121cf61325f565b5b60005b8581101561220057816121e688826122bd565b8452602084019350602083019250506001810190506121d3565b5050509392505050565b600061221d61221884612ee1565b612e90565b90508281526020810184848401111561223957612238613264565b5b612244848285613077565b509392505050565b60008135905061225b81613514565b92915050565b600082601f8301126122765761227561325a565b5b813561228684826020860161219a565b91505092915050565b600082601f8301126122a4576122a361325a565b5b81356122b484826020860161220a565b91505092915050565b6000813590506122cc8161352b565b92915050565b6000815190506122e18161352b565b92915050565b6000602082840312156122fd576122fc61326e565b5b600061230b8482850161224c565b91505092915050565b60008060006060848603121561232d5761232c61326e565b5b600061233b8682870161224c565b935050602061234c868287016122bd565b925050604061235d868287016122bd565b9150509250925092565b600080600080608085870312156123815761238061326e565b5b600085013567ffffffffffffffff81111561239f5761239e613269565b5b6123ab8782880161228f565b94505060206123bc878288016122bd565b935050604085013567ffffffffffffffff8111156123dd576123dc613269565b5b6123e987828801612261565b925050606085013567ffffffffffffffff81111561240a57612409613269565b5b61241687828801612261565b91505092959194509250565b600080600080600060a0868803121561243e5761243d61326e565b5b600086013567ffffffffffffffff81111561245c5761245b613269565b5b6124688882890161228f565b9550506020612479888289016122bd565b945050604086013567ffffffffffffffff81111561249a57612499613269565b5b6124a688828901612261565b935050606086013567ffffffffffffffff8111156124c7576124c6613269565b5b6124d388828901612261565b92505060806124e4888289016122bd565b9150509295509295909350565b6000806000806080858703121561250b5761250a61326e565b5b600085013567ffffffffffffffff81111561252957612528613269565b5b6125358782880161228f565b9450506020612546878288016122bd565b935050604085013567ffffffffffffffff81111561256757612566613269565b5b61257387828801612261565b9250506060612584878288016122bd565b91505092959194509250565b6000602082840312156125a6576125a561326e565b5b60006125b4848285016122bd565b91505092915050565b6000602082840312156125d3576125d261326e565b5b60006125e1848285016122d2565b91505092915050565b600080604083850312156126015761260061326e565b5b600061260f858286016122bd565b92505060206126208582860161224c565b9150509250929050565b600080604083850312156126415761264061326e565b5b600061264f858286016122bd565b9250506020612660858286016122bd565b9150509250929050565b6000806000606084860312156126835761268261326e565b5b6000612691868287016122bd565b93505060206126a2868287016122bd565b92505060406126b3868287016122bd565b9150509250925092565b60006126c983836129c9565b60208301905092915050565b6126de81612ff9565b82525050565b60006126ef82612f22565b6126f98185612f45565b935061270483612f12565b8060005b8381101561273557815161271c88826126bd565b975061272783612f38565b925050600181019050612708565b5085935050505092915050565b61274b8161300b565b82525050565b61275a81613041565b82525050565b600061276b82612f2d565b6127758185612f56565b9350612785818560208601613086565b61278e81613273565b840191505092915050565b60006127a6601883612f56565b91506127b182613284565b602082019050919050565b60006127c9600783612f67565b91506127d4826132ad565b600782019050919050565b60006127ec601483612f56565b91506127f7826132d6565b602082019050919050565b600061280f600d83612f56565b915061281a826132ff565b602082019050919050565b6000612832601083612f56565b915061283d82613328565b602082019050919050565b6000612855601483612f56565b915061286082613351565b602082019050919050565b6000612878600f83612f56565b91506128838261337a565b602082019050919050565b600061289b601b83612f56565b91506128a6826133a3565b602082019050919050565b60006128be601583612f56565b91506128c9826133cc565b602082019050919050565b60006128e1600c83612f56565b91506128ec826133f5565b602082019050919050565b6000612904601183612f56565b915061290f8261341e565b602082019050919050565b6000612927600d83612f56565b915061293282613447565b602082019050919050565b600061294a601283612f56565b915061295582613470565b602082019050919050565b600061296d601a83612f56565b915061297882613499565b602082019050919050565b6000612990600f83612f56565b915061299b826134c2565b602082019050919050565b60006129b3601083612f56565b91506129be826134eb565b602082019050919050565b6129d281613037565b82525050565b6129e181613037565b82525050565b6129f86129f382613037565b613165565b82525050565b6000612a09826127bc565b9150612a1582846129e7565b60208201915081905092915050565b6000602082019050612a3960008301846126d5565b92915050565b60006040820190508181036000830152612a5981856126e4565b9050612a6860208301846129d8565b9392505050565b6000602082019050612a846000830184612742565b92915050565b6000602082019050612a9f6000830184612751565b92915050565b60006020820190508181036000830152612abe81612799565b9050919050565b60006020820190508181036000830152612ade816127df565b9050919050565b60006020820190508181036000830152612afe81612802565b9050919050565b60006020820190508181036000830152612b1e81612825565b9050919050565b60006020820190508181036000830152612b3e81612848565b9050919050565b60006020820190508181036000830152612b5e8161286b565b9050919050565b60006020820190508181036000830152612b7e8161288e565b9050919050565b60006020820190508181036000830152612b9e816128b1565b9050919050565b60006020820190508181036000830152612bbe816128d4565b9050919050565b60006020820190508181036000830152612bde816128f7565b9050919050565b60006020820190508181036000830152612bfe8161291a565b9050919050565b60006020820190508181036000830152612c1e8161293d565b9050919050565b60006020820190508181036000830152612c3e81612960565b9050919050565b60006020820190508181036000830152612c5e81612983565b9050919050565b60006020820190508181036000830152612c7e816129a6565b9050919050565b6000602082019050612c9a60008301846129d8565b92915050565b6000606082019050612cb560008301866129d8565b612cc260208301856126d5565b612ccf60408301846129d8565b949350505050565b6000604082019050612cec60008301856129d8565b612cf96020830184612742565b9392505050565b6000604082019050612d1560008301856129d8565b8181036020830152612d278184612760565b90509392505050565b600060a082019050612d4560008301886129d8565b8181036020830152612d578187612760565b9050612d6660408301866129d8565b612d7360608301856129d8565b612d8060808301846129d8565b9695505050505050565b6000604082019050612d9f60008301856129d8565b612dac60208301846129d8565b9392505050565b6000606082019050612dc860008301866129d8565b612dd560208301856129d8565b612de26040830184612742565b949350505050565b6000606082019050612dff60008301866129d8565b612e0c60208301856129d8565b612e1960408301846129d8565b949350505050565b600060e082019050612e36600083018a6129d8565b612e4360208301896129d8565b612e5060408301886129d8565b612e5d60608301876129d8565b612e6a6080830186612742565b612e7760a08301856129d8565b612e8460c08301846129d8565b98975050505050505050565b6000612e9a612eab565b9050612ea682826130eb565b919050565b6000604051905090565b600067ffffffffffffffff821115612ed057612ecf61322b565b5b602082029050602081019050919050565b600067ffffffffffffffff821115612efc57612efb61322b565b5b612f0582613273565b9050602081019050919050565b6000819050602082019050919050565b600081519050919050565b600081519050919050565b6000602082019050919050565b600082825260208201905092915050565b600082825260208201905092915050565b600081905092915050565b6000612f7d82613037565b9150612f8883613037565b9250827fffffffffffffffffffffffffffffffffffffffffffffffffffffffffffffffff03821115612fbd57612fbc61316f565b5b828201905092915050565b6000612fd382613037565b9150612fde83613037565b925082612fee57612fed61319e565b5b828204905092915050565b600061300482613017565b9050919050565b60008115159050919050565b600073ffffffffffffffffffffffffffffffffffffffff82169050919050565b6000819050919050565b600061304c82613053565b9050919050565b600061305e82613065565b9050919050565b600061307082613017565b9050919050565b82818337600083830152505050565b60005b838110156130a4578082015181840152602081019050613089565b838111156130b3576000848401525b50505050565b600060028204905060018216806130d157607f821691505b602082108114156130e5576130e46131cd565b5b50919050565b6130f482613273565b810181811067ffffffffffffffff821117156131135761311261322b565b5b80604052505050565b600061312782613037565b91507fffffffffffffffffffffffffffffffffffffffffffffffffffffffffffffffff82141561315a5761315961316f565b5b600182019050919050565b6000819050919050565b7f4e487b7100000000000000000000000000000000000000000000000000000000600052601160045260246000fd5b7f4e487b7100000000000000000000000000000000000000000000000000000000600052601260045260246000fd5b7f4e487b7100000000000000000000000000000000000000000000000000000000600052602260045260246000fd5b7f4e487b7100000000000000000000000000000000000000000000000000000000600052603260045260246000fd5b7f4e487b7100000000000000000000000000000000000000000000000000000000600052604160045260246000fd5b600080fd5b600080fd5b600080fd5b600080fd5b600080fd5b6000601f19601f8301169050919050565b7fe68a95e7a5a8e79a84e98089e9a1b9e4b88de5ad98e59ca80000000000000000600082015250565b7f436f757273652000000000000000000000000000000000000000000000000000600082015250565b7f556e726567697374657265642074656163686572000000000000000000000000600082015250565b7f416c726561647920766f74656400000000000000000000000000000000000000600082015250565b7f416c726561647920657865637574656400000000000000000000000000000000600082015250565b7f4e6f20726174696e6773207375626d6974746564000000000000000000000000600082015250565b7fe8b4a6e688b7e69caae6b3a8e5868c0000000000000000000000000000000000600082015250565b7f4f6e6c792074656163686572732063616e2063616c6c20746869730000000000600082015250565b7f496e76616c696420726174696e672028312d3130290000000000000000000000600082015250565b7fe682a8e5b7b2e68a95e7a5a80000000000000000000000000000000000000000600082015250565b7f50726f706f73616c206578656375746564000000000000000000000000000000600082015250565b7f416c726561647920726174656400000000000000000000000000000000000000600082015250565b7fe68a95e7a5a8e4babae695b0e5b7b2e6bba10000000000000000000000000000600082015250565b7f496e76616c6964206f7074696f6e20696e6465782028302d3129000000000000600082015250565b7fe8b4a6e688b7e5b7b2e6b3a8e5868c0000000000000000000000000000000000600082015250565b7f496e76616c69642070726f706f73616c00000000000000000000000000000000600082015250565b61351d81612ff9565b811461352857600080fd5b50565b61353481613037565b811461353f57600080fd5b5056fea264697066735822122034ffdd00c053d13422420f4f5b242ece7ebd1c2750152f945e44516232bd151764736f6c63430008070033",
  "immutableReferences": {},
  "source": "// SPDX-License-Identifier: MIT\r\npragma solidity ^0.8.7;\r\n\r\nimport \"./Vote.sol\";\r\nimport \"./CourseAllocation.sol\";\r\n\r\ncontract TeacherVote is Vote {\r\n    CourseAllocation public courseAllocation;\r\n\r\n    // 新增本地选项存储\r\n    mapping(uint256 => uint256[]) private _proposalOptions;\r\n\r\n    struct ProposalBase {\r\n        uint256 courseId;\r\n        uint256 totalRating;\r\n        uint256 raterCount;\r\n        uint256 suitabilityProposalId;\r\n        bool executed;\r\n        uint256 agreeCount;\r\n        uint256 disagreeCount;\r\n    }\r\n\r\n    struct TeacherRating {\r\n        uint256 rating;\r\n        bool hasRated;\r\n    }\r\n\r\n    mapping(uint256 => ProposalBase) public proposals;\r\n    mapping(uint256 => mapping(uint256 => TeacherRating)) public teacherRatings;\r\n    mapping(uint256 => mapping(address => bool)) public suitabilityVotes;\r\n\r\n    uint256 public proposalCount;\r\n\r\n    event NewCombinedProposal(\r\n        uint256 indexed proposalId,\r\n        uint256 indexed courseId,\r\n        uint256 suitabilityProposalId\r\n    );\r\n    event ProposalExecuted(\r\n        uint256 indexed proposalId,\r\n        uint256 avgImportance,\r\n        bool isAgentSuitable\r\n    );\r\n\r\n    modifier onlyTeacher() {\r\n        require(\r\n            courseAllocation.addressToTeacherId(msg.sender) != 0,\r\n            \"Only teachers can call this\"\r\n        );\r\n        _;\r\n    }\r\n\r\n    constructor(address _courseAllocationAddress) Vote() {\r\n        courseAllocation = CourseAllocation(_courseAllocationAddress);\r\n    }\r\n\r\n    function setCourseAllocation(address _addr) external {\r\n        courseAllocation = CourseAllocation(_addr);\r\n    }\r\n\r\n    function createCombinedProposal(\r\n        uint256 courseId\r\n    ) external onlyTeacher returns (uint256) {\r\n        // 定义投票选项值\r\n        uint256[] memory options = new uint256[](2);\r\n        options[0] = 1; // 反对选项值\r\n        options[1] = 2; // 赞成选项值\r\n\r\n        // 调用父合约创建提案\r\n        uint256 suitabilityProposalId = createChooseTeacherProposal(\r\n            string(abi.encodePacked(\"Course \", courseId)),\r\n            courseId,\r\n            options,\r\n            type(uint256).max\r\n        );\r\n\r\n        // 存储选项到本地映射\r\n        _proposalOptions[suitabilityProposalId] = options;\r\n\r\n        // 初始化合并提案\r\n        proposalCount++;\r\n        proposals[proposalCount] = ProposalBase({\r\n            courseId: courseId,\r\n            totalRating: 0,\r\n            raterCount: 0,\r\n            suitabilityProposalId: suitabilityProposalId,\r\n            executed: false,\r\n            agreeCount: 0,\r\n            disagreeCount: 0\r\n        });\r\n\r\n        emit NewCombinedProposal(\r\n            proposalCount,\r\n            courseId,\r\n            suitabilityProposalId\r\n        );\r\n        return proposalCount;\r\n    }\r\n\r\n    function submitCombinedVote(\r\n        uint256 proposalId,\r\n        uint256 rating,\r\n        uint256 suitabilityOptionIndex\r\n    ) external onlyTeacher {\r\n        ProposalBase storage p = proposals[proposalId];\r\n        require(p.courseId != 0, \"Invalid proposal\");\r\n        require(!p.executed, \"Proposal executed\");\r\n\r\n        // 验证教师身份\r\n        uint256 teacherId = courseAllocation.addressToTeacherId(msg.sender);\r\n        require(teacherId != 0, \"Unregistered teacher\");\r\n\r\n        // 处理评分逻辑\r\n        require(rating >= 1 && rating <= 10, \"Invalid rating (1-10)\");\r\n        TeacherRating storage tr = teacherRatings[proposalId][teacherId];\r\n        require(!tr.hasRated, \"Already rated\");\r\n\r\n        tr.rating = rating;\r\n        tr.hasRated = true;\r\n        p.totalRating += rating;\r\n        p.raterCount++;\r\n\r\n        // 处理投票逻辑\r\n        require(suitabilityOptionIndex < 2, \"Invalid option index (0-1)\");\r\n        require(!suitabilityVotes[proposalId][msg.sender], \"Already voted\");\r\n\r\n        if (suitabilityOptionIndex == 1) {\r\n            p.agreeCount++;\r\n        } else {\r\n            p.disagreeCount++;\r\n        }\r\n        suitabilityVotes[proposalId][msg.sender] = true;\r\n\r\n        // 从本地存储获取选项值\r\n        uint256 optionValue = _proposalOptions[p.suitabilityProposalId][\r\n            suitabilityOptionIndex\r\n        ];\r\n\r\n        // 调用父合约投票\r\n        super.voteChooseTeacher(\r\n            msg.sender,\r\n            p.suitabilityProposalId,\r\n            optionValue\r\n        );\r\n    }\r\n\r\n    function executeProposal(uint256 proposalId) external {\r\n        ProposalBase storage p = proposals[proposalId];\r\n        require(p.courseId != 0, \"Invalid proposal\");\r\n        require(!p.executed, \"Already executed\");\r\n        require(p.raterCount > 0, \"No ratings submitted\");\r\n\r\n        // 计算平均评分\r\n        uint256 avgRating = p.totalRating / p.raterCount;\r\n\r\n        // 获取投票结果\r\n        (uint256 winningOption, ) = endVoteChooseTeacher(\r\n            p.suitabilityProposalId\r\n        );\r\n        bool isSuitable = (winningOption == 2); // 假设2是赞成选项值\r\n\r\n        // 更新课程状态\r\n        courseAllocation.setCourseProperties(p.courseId, avgRating, isSuitable);\r\n\r\n        p.executed = true;\r\n        emit ProposalExecuted(proposalId, avgRating, isSuitable);\r\n    }\r\n\r\n    function getVoteDetails(\r\n        uint256 proposalId\r\n    )\r\n        external\r\n        view\r\n        returns (uint256 agree, uint256 disagree, uint256 totalRatings)\r\n    {\r\n        ProposalBase memory p = proposals[proposalId];\r\n        return (p.agreeCount, p.disagreeCount, p.raterCount);\r\n    }\r\n\r\n    function getTeacherRating(\r\n        uint256 proposalId,\r\n        uint256 teacherId\r\n    ) public view returns (uint256) {\r\n        return teacherRatings[proposalId][teacherId].rating;\r\n    }\r\n}\r\n",
  "sourcePath": "E:\\dao\\327\\Course-allocation\\project\\contracts\\TeacherVote.sol",
  "compiler": {
    "name": "solc",
    "version": "0.8.7+commit.e28d00a7.Emscripten.clang"
  },
  "schemaVersion": "3.4.16",
  "updatedAt": "2025-04-04T09:21:20.592Z",
  "networkType": "ethereum",
  "devdoc": {
    "kind": "dev",
    "methods": {},
    "version": 1
  },
  "userdoc": {
    "kind": "user",
    "methods": {},
    "version": 1
  }
}