{
  "contractName": "TeacherVote",
  "abi": [
    {
      "inputs": [
        {
          "internalType": "address",
          "name": "_courseAllocationAddress",
          "type": "address"
        }
      ],
      "stateMutability": "nonpayable",
      "type": "constructor"
    },
    {
      "anonymous": false,
      "inputs": [
        {
          "indexed": true,
          "internalType": "uint256",
          "name": "proposalId",
          "type": "uint256"
        },
        {
          "indexed": true,
          "internalType": "uint256",
          "name": "courseId",
          "type": "uint256"
        },
        {
          "indexed": false,
          "internalType": "uint256",
          "name": "suitabilityProposalId",
          "type": "uint256"
        }
      ],
      "name": "NewCombinedProposal",
      "type": "event"
    },
    {
      "anonymous": false,
      "inputs": [
        {
          "indexed": false,
          "internalType": "uint256",
          "name": "proposalId",
          "type": "uint256"
        },
        {
          "indexed": false,
          "internalType": "string",
          "name": "description",
          "type": "string"
        }
      ],
      "name": "ProposalCreated",
      "type": "event"
    },
    {
      "anonymous": false,
      "inputs": [
        {
          "indexed": true,
          "internalType": "uint256",
          "name": "proposalId",
          "type": "uint256"
        },
        {
          "indexed": false,
          "internalType": "string",
          "name": "Choice",
          "type": "string"
        }
      ],
      "name": "ProposalExecuted",
      "type": "event"
    },
    {
      "inputs": [],
      "name": "courseAllocation",
      "outputs": [
        {
          "internalType": "contract ICourseAllocation",
          "name": "",
          "type": "address"
        }
      ],
      "stateMutability": "view",
      "type": "function",
      "constant": true
    },
    {
      "inputs": [
        {
          "internalType": "string",
          "name": "_description",
          "type": "string"
        },
        {
          "internalType": "uint256",
          "name": "_voteforID",
          "type": "uint256"
        },
        {
          "internalType": "uint256[]",
          "name": "_votedIds",
          "type": "uint256[]"
        },
        {
          "internalType": "uint256",
          "name": "_totalVote",
          "type": "uint256"
        }
      ],
      "name": "createChooseCourseProposal",
      "outputs": [
        {
          "internalType": "uint256",
          "name": "",
          "type": "uint256"
        }
      ],
      "stateMutability": "nonpayable",
      "type": "function"
    },
    {
      "inputs": [
        {
          "internalType": "string",
          "name": "_description",
          "type": "string"
        },
        {
          "internalType": "uint256",
          "name": "_voteforID",
          "type": "uint256"
        },
        {
          "internalType": "uint256[]",
          "name": "_votedIds",
          "type": "uint256[]"
        },
        {
          "internalType": "uint256",
          "name": "_totalVote",
          "type": "uint256"
        }
      ],
      "name": "createChooseTeacherProposal",
      "outputs": [
        {
          "internalType": "uint256",
          "name": "",
          "type": "uint256"
        }
      ],
      "stateMutability": "nonpayable",
      "type": "function"
    },
    {
      "inputs": [
        {
          "internalType": "string",
          "name": "_description",
          "type": "string"
        },
        {
          "internalType": "uint256",
          "name": "_voteforID",
          "type": "uint256"
        },
        {
          "internalType": "uint256[]",
          "name": "_votedIds",
          "type": "uint256[]"
        },
        {
          "internalType": "uint256[]",
          "name": "_votedCounts",
          "type": "uint256[]"
        },
        {
          "internalType": "uint256",
          "name": "_totalVote",
          "type": "uint256"
        }
      ],
      "name": "createMachineProposal",
      "outputs": [
        {
          "internalType": "uint256",
          "name": "",
          "type": "uint256"
        }
      ],
      "stateMutability": "nonpayable",
      "type": "function"
    },
    {
      "inputs": [
        {
          "internalType": "string",
          "name": "_description",
          "type": "string"
        },
        {
          "internalType": "uint256",
          "name": "_voteforID",
          "type": "uint256"
        },
        {
          "internalType": "uint256[]",
          "name": "_votedIds",
          "type": "uint256[]"
        },
        {
          "internalType": "uint256[]",
          "name": "_votedCounts",
          "type": "uint256[]"
        }
      ],
      "name": "createMachineVoteProposal",
      "outputs": [
        {
          "internalType": "uint256",
          "name": "",
          "type": "uint256"
        }
      ],
      "stateMutability": "nonpayable",
      "type": "function"
    },
    {
      "inputs": [
        {
          "internalType": "string",
          "name": "_description",
          "type": "string"
        },
        {
          "internalType": "uint256",
          "name": "_voteforID",
          "type": "uint256"
        },
        {
          "internalType": "uint256[]",
          "name": "_votedIds",
          "type": "uint256[]"
        },
        {
          "internalType": "uint256",
          "name": "_totalVote",
          "type": "uint256"
        }
      ],
      "name": "createProposalMultiple",
      "outputs": [
        {
          "internalType": "uint256",
          "name": "",
          "type": "uint256"
        }
      ],
      "stateMutability": "nonpayable",
      "type": "function"
    },
    {
      "inputs": [
        {
          "internalType": "uint256",
          "name": "_proposalId",
          "type": "uint256"
        }
      ],
      "name": "endVoteChooseCourse",
      "outputs": [
        {
          "internalType": "uint256",
          "name": "",
          "type": "uint256"
        },
        {
          "internalType": "uint256",
          "name": "",
          "type": "uint256"
        },
        {
          "internalType": "uint256[]",
          "name": "",
          "type": "uint256[]"
        },
        {
          "internalType": "uint256[]",
          "name": "",
          "type": "uint256[]"
        }
      ],
      "stateMutability": "view",
      "type": "function",
      "constant": true
    },
    {
      "inputs": [
        {
          "internalType": "uint256",
          "name": "_proposalId",
          "type": "uint256"
        }
      ],
      "name": "endVoteChooseTeacher",
      "outputs": [
        {
          "internalType": "uint256",
          "name": "",
          "type": "uint256"
        },
        {
          "internalType": "uint256",
          "name": "",
          "type": "uint256"
        },
        {
          "internalType": "uint256[]",
          "name": "",
          "type": "uint256[]"
        },
        {
          "internalType": "uint256[]",
          "name": "",
          "type": "uint256[]"
        }
      ],
      "stateMutability": "view",
      "type": "function",
      "constant": true
    },
    {
      "inputs": [
        {
          "internalType": "uint256",
          "name": "_proposalId",
          "type": "uint256"
        }
      ],
      "name": "endVoteMultiple",
      "outputs": [
        {
          "internalType": "uint256",
          "name": "",
          "type": "uint256"
        },
        {
          "internalType": "uint256",
          "name": "",
          "type": "uint256"
        },
        {
          "internalType": "uint256[]",
          "name": "",
          "type": "uint256[]"
        },
        {
          "internalType": "uint256[]",
          "name": "",
          "type": "uint256[]"
        }
      ],
      "stateMutability": "view",
      "type": "function",
      "constant": true
    },
    {
      "inputs": [
        {
          "internalType": "uint256",
          "name": "_proposalId",
          "type": "uint256"
        },
        {
          "internalType": "uint256",
          "name": "_voteId",
          "type": "uint256"
        }
      ],
      "name": "getVoteIdToCount",
      "outputs": [
        {
          "internalType": "uint256",
          "name": "",
          "type": "uint256"
        }
      ],
      "stateMutability": "view",
      "type": "function",
      "constant": true
    },
    {
      "inputs": [
        {
          "internalType": "uint256",
          "name": "_proposalId",
          "type": "uint256"
        }
      ],
      "name": "getVotedIds",
      "outputs": [
        {
          "internalType": "uint256[]",
          "name": "",
          "type": "uint256[]"
        },
        {
          "internalType": "uint256",
          "name": "",
          "type": "uint256"
        }
      ],
      "stateMutability": "view",
      "type": "function",
      "constant": true
    },
    {
      "inputs": [],
      "name": "proposalCount",
      "outputs": [
        {
          "internalType": "uint256",
          "name": "",
          "type": "uint256"
        }
      ],
      "stateMutability": "view",
      "type": "function",
      "constant": true
    },
    {
      "inputs": [
        {
          "internalType": "uint256",
          "name": "",
          "type": "uint256"
        }
      ],
      "name": "proposalMultipleIds",
      "outputs": [
        {
          "internalType": "uint256",
          "name": "",
          "type": "uint256"
        }
      ],
      "stateMutability": "view",
      "type": "function",
      "constant": true
    },
    {
      "inputs": [
        {
          "internalType": "uint256",
          "name": "",
          "type": "uint256"
        }
      ],
      "name": "proposalMultiples",
      "outputs": [
        {
          "internalType": "uint256",
          "name": "id",
          "type": "uint256"
        },
        {
          "internalType": "string",
          "name": "description",
          "type": "string"
        },
        {
          "internalType": "uint256",
          "name": "voteforID",
          "type": "uint256"
        },
        {
          "internalType": "uint256",
          "name": "voteCount",
          "type": "uint256"
        },
        {
          "internalType": "uint256",
          "name": "totalVote",
          "type": "uint256"
        }
      ],
      "stateMutability": "view",
      "type": "function",
      "constant": true
    },
    {
      "inputs": [
        {
          "internalType": "uint256",
          "name": "",
          "type": "uint256"
        }
      ],
      "name": "proposals",
      "outputs": [
        {
          "internalType": "uint256",
          "name": "courseId",
          "type": "uint256"
        },
        {
          "internalType": "uint256",
          "name": "suitabilityProposalId",
          "type": "uint256"
        },
        {
          "internalType": "bool",
          "name": "executed",
          "type": "bool"
        },
        {
          "internalType": "uint256",
          "name": "agreeCount",
          "type": "uint256"
        },
        {
          "internalType": "uint256",
          "name": "disagreeCount",
          "type": "uint256"
        }
      ],
      "stateMutability": "view",
      "type": "function",
      "constant": true
    },
    {
      "inputs": [
        {
          "internalType": "address",
          "name": "_voter",
          "type": "address"
        }
      ],
      "name": "registerVoter",
      "outputs": [],
      "stateMutability": "nonpayable",
      "type": "function"
    },
    {
      "inputs": [
        {
          "internalType": "uint256",
          "name": "",
          "type": "uint256"
        },
        {
          "internalType": "address",
          "name": "",
          "type": "address"
        }
      ],
      "name": "suitabilityVotes",
      "outputs": [
        {
          "internalType": "bool",
          "name": "",
          "type": "bool"
        }
      ],
      "stateMutability": "view",
      "type": "function",
      "constant": true
    },
    {
      "inputs": [
        {
          "internalType": "address",
          "name": "voterAddress",
          "type": "address"
        },
        {
          "internalType": "uint256",
          "name": "_proposalId",
          "type": "uint256"
        },
        {
          "internalType": "uint256",
          "name": "_voteId",
          "type": "uint256"
        }
      ],
      "name": "voteChooseCourse",
      "outputs": [],
      "stateMutability": "nonpayable",
      "type": "function"
    },
    {
      "inputs": [
        {
          "internalType": "address",
          "name": "voterAddress",
          "type": "address"
        },
        {
          "internalType": "uint256",
          "name": "_proposalId",
          "type": "uint256"
        },
        {
          "internalType": "uint256",
          "name": "_voteId",
          "type": "uint256"
        }
      ],
      "name": "voteChooseTeacher",
      "outputs": [],
      "stateMutability": "nonpayable",
      "type": "function"
    },
    {
      "inputs": [
        {
          "internalType": "address",
          "name": "voter",
          "type": "address"
        },
        {
          "internalType": "uint256",
          "name": "_proposalId",
          "type": "uint256"
        },
        {
          "internalType": "uint256",
          "name": "_voteId",
          "type": "uint256"
        }
      ],
      "name": "voteMultiple",
      "outputs": [],
      "stateMutability": "nonpayable",
      "type": "function"
    },
    {
      "inputs": [
        {
          "internalType": "address",
          "name": "",
          "type": "address"
        }
      ],
      "name": "voters",
      "outputs": [
        {
          "internalType": "uint256",
          "name": "id",
          "type": "uint256"
        },
        {
          "internalType": "address",
          "name": "voter",
          "type": "address"
        },
        {
          "internalType": "uint256",
          "name": "weight",
          "type": "uint256"
        }
      ],
      "stateMutability": "view",
      "type": "function",
      "constant": true
    },
    {
      "inputs": [
        {
          "internalType": "uint256",
          "name": "",
          "type": "uint256"
        }
      ],
      "name": "votersAddress",
      "outputs": [
        {
          "internalType": "address",
          "name": "",
          "type": "address"
        }
      ],
      "stateMutability": "view",
      "type": "function",
      "constant": true
    },
    {
      "inputs": [
        {
          "internalType": "address",
          "name": "_addr",
          "type": "address"
        }
      ],
      "name": "setCourseAllocation",
      "outputs": [],
      "stateMutability": "nonpayable",
      "type": "function"
    },
    {
      "inputs": [
        {
          "internalType": "uint256",
          "name": "courseId",
          "type": "uint256"
        }
      ],
      "name": "createCombinedProposal",
      "outputs": [
        {
          "internalType": "uint256",
          "name": "",
          "type": "uint256"
        }
      ],
      "stateMutability": "nonpayable",
      "type": "function"
    },
    {
      "inputs": [
        {
          "internalType": "uint256",
          "name": "proposalId",
          "type": "uint256"
        },
        {
          "internalType": "uint256",
          "name": "suitabilityOptionIndex",
          "type": "uint256"
        }
      ],
      "name": "submitCombinedVote",
      "outputs": [],
      "stateMutability": "nonpayable",
      "type": "function"
    },
    {
      "inputs": [
        {
          "internalType": "uint256",
          "name": "proposalId",
          "type": "uint256"
        }
      ],
      "name": "executeProposal",
      "outputs": [],
      "stateMutability": "nonpayable",
      "type": "function"
    },
    {
      "inputs": [
        {
          "internalType": "uint256",
          "name": "_proposalId",
          "type": "uint256"
        }
      ],
      "name": "endVote",
      "outputs": [
        {
          "internalType": "uint256",
          "name": "",
          "type": "uint256"
        },
        {
          "internalType": "uint256",
          "name": "",
          "type": "uint256"
        }
      ],
      "stateMutability": "view",
      "type": "function",
      "constant": true
    },
    {
      "inputs": [
        {
          "internalType": "uint256",
          "name": "proposalId",
          "type": "uint256"
        }
      ],
      "name": "getVoteDetails",
      "outputs": [
        {
          "internalType": "uint256",
          "name": "agree",
          "type": "uint256"
        },
        {
          "internalType": "uint256",
          "name": "disagree",
          "type": "uint256"
        },
        {
          "internalType": "uint256",
          "name": "total",
          "type": "uint256"
        }
      ],
      "stateMutability": "view",
      "type": "function",
      "constant": true
    }
  ],
  "bytecode": "0x60806040523480156200001157600080fd5b50604051620033d9380380620033d9833981810160405281019062000037919062000096565b80600460006101000a81548173ffffffffffffffffffffffffffffffffffffffff021916908373ffffffffffffffffffffffffffffffffffffffff160217905550506200011b565b600081519050620000908162000101565b92915050565b600060208284031215620000af57620000ae620000fc565b5b6000620000bf848285016200007f565b91505092915050565b6000620000d582620000dc565b9050919050565b600073ffffffffffffffffffffffffffffffffffffffff82169050919050565b600080fd5b6200010c81620000c8565b81146200011857600080fd5b50565b6132ae806200012b6000396000f3fe608060405234801561001057600080fd5b50600436106101c45760003560e01c80636d1efef0116100f9578063b201539f11610097578063bc9cad8a11610071578063bc9cad8a146105d6578063da35c66414610606578063e20e71f914610624578063fe8d724c14610640576101c4565b8063b201539f1461055a578063b2af0cc51461058a578063bc8c24d9146105ba576101c4565b8063865df0ad116100d3578063865df0ad146104ab57806388462f2c146104dc5780638984e993146104f8578063a3ec138d14610528576101c4565b80636d1efef01461041a57806376ce93f71461044a578063777ea2c91461047b576101c4565b8063361d5b791161016657806343242daa1161014057806343242daa1461036757806345f509961461039757806354a1b431146103b557806355d2f08e146103e7576101c4565b8063361d5b79146102fc57806338db6dd31461032f5780633c894da91461034b576101c4565b80630f0626b5116101a25780630f0626b514610249578063148f8e4f14610279578063162b040d146102ad5780632b6b189b146102e0576101c4565b8063013cf08b146101c95780630202f847146101fd5780630d61b5191461022d575b600080fd5b6101e360048036038101906101de91906124c4565b610670565b6040516101f4959493929190612c17565b60405180910390f35b61021760048036038101906102129190612425565b6106b3565b6040516102249190612abf565b60405180910390f35b610247600480360381019061024291906124c4565b6106cb565b005b610263600480360381019061025e91906124c4565b6108f7565b6040516102709190612abf565b60405180910390f35b610293600480360381019061028e91906124c4565b61091b565b6040516102a4959493929190612b41565b60405180910390f35b6102c760048036038101906102c291906124c4565b6109d9565b6040516102d79493929190612bc4565b60405180910390f35b6102fa60048036038101906102f59190612248565b610bf8565b005b610316600480360381019061031191906124c4565b610f80565b6040516103269493929190612bc4565b60405180910390f35b6103496004803603810190610344919061221b565b610f9e565b005b6103656004803603810190610360919061255e565b6111b2565b005b610381600480360381019061037c91906124c4565b61161f565b60405161038e919061289c565b60405180910390f35b61039f61165e565b6040516103ac9190612902565b60405180910390f35b6103cf60048036038101906103ca91906124c4565b611684565b6040516103de93929190612c6a565b60405180910390f35b61040160048036038101906103fc91906124c4565b611719565b6040516104119493929190612bc4565b60405180910390f35b610434600480360381019061042f919061251e565b611737565b60405161044191906128e7565b60405180910390f35b610464600480360381019061045f91906124c4565b611766565b6040516104729291906128b7565b60405180910390f35b61049560048036038101906104909190612425565b6117f2565b6040516104a29190612abf565b60405180910390f35b6104c560048036038101906104c091906124c4565b61180a565b6040516104d3929190612b9b565b60405180910390f35b6104f660048036038101906104f19190612248565b611864565b005b610512600480360381019061050d91906124c4565b611874565b60405161051f9190612abf565b60405180910390f35b610542600480360381019061053d919061221b565b611b57565b60405161055193929190612ada565b60405180910390f35b610574600480360381019061056f9190612356565b611ba1565b6040516105819190612abf565b60405180910390f35b6105a4600480360381019061059f9190612425565b611d9d565b6040516105b19190612abf565b60405180910390f35b6105d460048036038101906105cf9190612248565b611f38565b005b6105f060048036038101906105eb919061229b565b611f48565b6040516105fd9190612abf565b60405180910390f35b61060e611f62565b60405161061b9190612abf565b60405180910390f35b61063e6004803603810190610639919061221b565b611f68565b005b61065a6004803603810190610655919061255e565b611fac565b6040516106679190612abf565b60405180910390f35b60066020528060005260406000206000915090508060000154908060010154908060020160009054906101000a900460ff16908060030154908060040154905085565b60006106c185858585611d9d565b9050949350505050565b600060066000838152602001908152602001600020905060008160000154141561072a576040517f08c379a000000000000000000000000000000000000000000000000000000000815260040161072190612a9f565b60405180910390fd5b8060020160009054906101000a900460ff161561077c576040517f08c379a00000000000000000000000000000000000000000000000000000000081526004016107739061299f565b60405180910390fd5b600061078b826001015461180a565b509050606060028214156107d6576040518060400160405280601681526020017f537569746162696c69747926507265666572656e636500000000000000000000815250905061080f565b6040518060400160405280601281526020017f436f73742d6566666563746976656e657373000000000000000000000000000081525090505b600460009054906101000a900473ffffffffffffffffffffffffffffffffffffffff1673ffffffffffffffffffffffffffffffffffffffff16637e4d1641826040518263ffffffff1660e01b815260040161086a919061291d565b600060405180830381600087803b15801561088457600080fd5b505af1158015610898573d6000803e3d6000fd5b5050505060018360020160006101000a81548160ff021916908315150217905550837f537137e7fc21556269dc66003ff063d7ee0ce98cf05ad2feddda124690976e95826040516108e9919061291d565b60405180910390a250505050565b6003818154811061090757600080fd5b906000526020600020016000915090505481565b600260205280600052604060002060009150905080600001549080600101805461094490612e99565b80601f016020809104026020016040519081016040528092919081815260200182805461097090612e99565b80156109bd5780601f10610992576101008083540402835291602001916109bd565b820191906000526020600020905b8154815290600101906020018083116109a057829003601f168201915b5050505050908060020154908060060154908060070154905085565b600080606080600080600060026000898152602001908152602001600020600301805480602002602001604051908101604052809291908181526020018280548015610a4457602002820191906000526020600020905b815481526020019060010190808311610a30575b505050505090506000600260008a81526020019081526020016000206002015490506000825167ffffffffffffffff811115610a8357610a82612fdc565b5b604051908082528060200260200182016040528015610ab15781602001602082028036833780820191505090505b50905060005b8351811015610bdf5785600260008d81526020019081526020016000206004016000868481518110610aec57610aeb612fad565b5b60200260200101518152602001908152602001600020541115610b6b57600260008c81526020019081526020016000206004016000858381518110610b3457610b33612fad565b5b60200260200101518152602001908152602001600020549550838181518110610b6057610b5f612fad565b5b602002602001015194505b600260008c81526020019081526020016000206004016000858381518110610b9657610b95612fad565b5b6020026020010151815260200190815260200160002054828281518110610bc057610bbf612fad565b5b6020026020010181815250508080610bd790612efc565b915050610ab7565b5083828483985098509850985050505050509193509193565b600073ffffffffffffffffffffffffffffffffffffffff166000808573ffffffffffffffffffffffffffffffffffffffff1673ffffffffffffffffffffffffffffffffffffffff16815260200190815260200160002060010160009054906101000a900473ffffffffffffffffffffffffffffffffffffffff1673ffffffffffffffffffffffffffffffffffffffff161415610cc9576040517f08c379a0000000000000000000000000000000000000000000000000000000008152600401610cc0906129bf565b60405180910390fd5b600015156002600084815260200190815260200160002060050160008573ffffffffffffffffffffffffffffffffffffffff1673ffffffffffffffffffffffffffffffffffffffff16815260200190815260200160002060009054906101000a900460ff16151514610d70576040517f08c379a0000000000000000000000000000000000000000000000000000000008152600401610d67906129ff565b60405180910390fd5b6002600083815260200190815260200160002060070154600260008481526020019081526020016000206006015410610dde576040517f08c379a0000000000000000000000000000000000000000000000000000000008152600401610dd590612a3f565b60405180910390fd5b6000805b6002600085815260200190815260200160002060030180549050811015610f325782600260008681526020019081526020016000206003018281548110610e2c57610e2b612fad565b5b90600052602060002001541415610f1f5760016002600086815260200190815260200160002060040160008581526020019081526020016000206000828254610e759190612d83565b925050819055506001600260008681526020019081526020016000206006016000828254610ea39190612d83565b9250508190555060016002600086815260200190815260200160002060050160008773ffffffffffffffffffffffffffffffffffffffff1673ffffffffffffffffffffffffffffffffffffffff16815260200190815260200160002060006101000a81548160ff02191690831515021790555060019150610f32565b8080610f2a90612efc565b915050610de2565b506001151581151514610f7a576040517f08c379a0000000000000000000000000000000000000000000000000000000008152600401610f719061293f565b60405180910390fd5b50505050565b600080606080610f8f856109d9565b93509350935093509193509193565b600073ffffffffffffffffffffffffffffffffffffffff166000808373ffffffffffffffffffffffffffffffffffffffff1673ffffffffffffffffffffffffffffffffffffffff16815260200190815260200160002060010160009054906101000a900473ffffffffffffffffffffffffffffffffffffffff1673ffffffffffffffffffffffffffffffffffffffff161461106e576040517f08c379a000000000000000000000000000000000000000000000000000000000815260040161106590612a7f565b60405180910390fd5b60405180606001604052806001808054905061108a9190612d83565b81526020018273ffffffffffffffffffffffffffffffffffffffff16815260200160018152506000808373ffffffffffffffffffffffffffffffffffffffff1673ffffffffffffffffffffffffffffffffffffffff1681526020019081526020016000206000820151816000015560208201518160010160006101000a81548173ffffffffffffffffffffffffffffffffffffffff021916908373ffffffffffffffffffffffffffffffffffffffff160217905550604082015181600201559050506001819080600181540180825580915050600190039060005260206000200160009091909190916101000a81548173ffffffffffffffffffffffffffffffffffffffff021916908373ffffffffffffffffffffffffffffffffffffffff16021790555050565b6000600460009054906101000a900473ffffffffffffffffffffffffffffffffffffffff1673ffffffffffffffffffffffffffffffffffffffff16630f7f13cf336040518263ffffffff1660e01b815260040161120f919061289c565b60206040518083038186803b15801561122757600080fd5b505afa15801561123b573d6000803e3d6000fd5b505050506040513d601f19601f8201168201806040525081019061125f91906124f1565b14156112a0576040517f08c379a0000000000000000000000000000000000000000000000000000000008152600401611297906129df565b60405180910390fd5b60006006600084815260200190815260200160002090506000816000015414156112ff576040517f08c379a00000000000000000000000000000000000000000000000000000000081526004016112f690612a9f565b60405180910390fd5b8060020160009054906101000a900460ff1615611351576040517f08c379a000000000000000000000000000000000000000000000000000000000815260040161134890612a1f565b60405180910390fd5b6000600460009054906101000a900473ffffffffffffffffffffffffffffffffffffffff1673ffffffffffffffffffffffffffffffffffffffff16630f7f13cf336040518263ffffffff1660e01b81526004016113ae919061289c565b60206040518083038186803b1580156113c657600080fd5b505afa1580156113da573d6000803e3d6000fd5b505050506040513d601f19601f820116820180604052508101906113fe91906124f1565b90506000811415611444576040517f08c379a000000000000000000000000000000000000000000000000000000000815260040161143b9061295f565b60405180910390fd5b60028310611487576040517f08c379a000000000000000000000000000000000000000000000000000000000815260040161147e90612a5f565b60405180910390fd5b6007600085815260200190815260200160002060003373ffffffffffffffffffffffffffffffffffffffff1673ffffffffffffffffffffffffffffffffffffffff16815260200190815260200160002060009054906101000a900460ff1615611525576040517f08c379a000000000000000000000000000000000000000000000000000000000815260040161151c9061297f565b60405180910390fd5b600183141561154d5781600301600081548092919061154390612efc565b9190505550611568565b81600401600081548092919061156290612efc565b91905055505b60016007600086815260200190815260200160002060003373ffffffffffffffffffffffffffffffffffffffff1673ffffffffffffffffffffffffffffffffffffffff16815260200190815260200160002060006101000a81548160ff0219169083151502179055506000600560008460010154815260200190815260200160002084815481106115fc576115fb612fad565b5b9060005260206000200154905061161833846001015483611f38565b5050505050565b6001818154811061162f57600080fd5b906000526020600020016000915054906101000a900473ffffffffffffffffffffffffffffffffffffffff1681565b600460009054906101000a900473ffffffffffffffffffffffffffffffffffffffff1681565b600080600080600660008681526020019081526020016000206040518060a001604052908160008201548152602001600182015481526020016002820160009054906101000a900460ff16151515158152602001600382015481526020016004820154815250509050806060015181608001518260800151836060015161170b9190612d83565b935093509350509193909250565b600080606080611728856109d9565b93509350935093509193509193565b60076020528160005260406000206020528060005260406000206000915091509054906101000a900460ff1681565b60606000600260008481526020019081526020016000206003016002600085815260200190815260200160002060020154818054806020026020016040519081016040528092919081815260200182805480156117e257602002820191906000526020600020905b8154815260200190600101908083116117ce575b5050505050915091509150915091565b600061180085858585611d9d565b9050949350505050565b60008060006006600085815260200190815260200160002090506000816004015482600301541161183c57600161183f565b60025b60ff16905080826004015483600301546118599190612d83565b935093505050915091565b61186f838383610bf8565b505050565b600080600460009054906101000a900473ffffffffffffffffffffffffffffffffffffffff1673ffffffffffffffffffffffffffffffffffffffff16630f7f13cf336040518263ffffffff1660e01b81526004016118d2919061289c565b60206040518083038186803b1580156118ea57600080fd5b505afa1580156118fe573d6000803e3d6000fd5b505050506040513d601f19601f8201168201806040525081019061192291906124f1565b1415611963576040517f08c379a000000000000000000000000000000000000000000000000000000000815260040161195a906129df565b60405180910390fd5b6000600267ffffffffffffffff8111156119805761197f612fdc565b5b6040519080825280602002602001820160405280156119ae5781602001602082028036833780820191505090505b5090506001816000815181106119c7576119c6612fad565b5b6020026020010181815250506002816001815181106119e9576119e8612fad565b5b6020026020010181815250506000611a4284604051602001611a0b9190612876565b60405160208183030381529060405285847fffffffffffffffffffffffffffffffffffffffffffffffffffffffffffffffff6106b3565b905081600560008381526020019081526020016000209080519060200190611a6b929190611fde565b506040518060a00160405280858152602001828152602001600015158152602001600081526020016000815250600660006008548152602001908152602001600020600082015181600001556020820151816001015560408201518160020160006101000a81548160ff0219169083151502179055506060820151816003015560808201518160040155905050836008547f588dccb0986c4198655070050849469a27cde1cecc8e248546bbfaf007188c6583604051611b2b9190612abf565b60405180910390a360086000815480929190611b4690612efc565b919050555060085492505050919050565b60006020528060005260406000206000915090508060000154908060010160009054906101000a900473ffffffffffffffffffffffffffffffffffffffff16908060020154905083565b6000806001600380549050611bb69190612d83565b905080600260008381526020019081526020016000206000018190555086600260008381526020019081526020016000206001019080519060200190611bfd92919061202b565b5060005b8551811015611cf7576000868281518110611c1f57611c1e612fad565b5b602002602001015114611ce45760026000838152602001908152602001600020600301868281518110611c5557611c54612fad565b5b60200260200101519080600181540180825580915050600190039060005260206000200160009091909190915055848181518110611c9657611c95612fad565b5b6020026020010151600260008481526020019081526020016000206004016000888481518110611cc957611cc8612fad565b5b60200260200101518152602001908152602001600020819055505b8080611cef90612efc565b915050611c01565b5082600260008381526020019081526020016000206007018190555085600260008381526020019081526020016000206002018190555060038190806001815401808255809150506001900390600052602060002001600090919091909150557f9c770c289ab5bf7e57cb1d23c8ceae993aea46eb64847072fd3d78ca60d3e4328188604051611d88929190612b11565b60405180910390a18091505095945050505050565b6000806001600380549050611db29190612d83565b905080600260008381526020019081526020016000206000018190555085600260008381526020019081526020016000206001019080519060200190611df992919061202b565b5060005b8451811015611e93576000858281518110611e1b57611e1a612fad565b5b602002602001015114611e805760026000838152602001908152602001600020600301858281518110611e5157611e50612fad565b5b602002602001015190806001815401808255809150506001900390600052602060002001600090919091909150555b8080611e8b90612efc565b915050611dfd565b5082600260008381526020019081526020016000206007018190555084600260008381526020019081526020016000206002018190555060038190806001815401808255809150506001900390600052602060002001600090919091909150557f9c770c289ab5bf7e57cb1d23c8ceae993aea46eb64847072fd3d78ca60d3e4328187604051611f24929190612b11565b60405180910390a180915050949350505050565b611f43838383610bf8565b505050565b6000611f58858585856007611ba1565b9050949350505050565b60085481565b80600460006101000a81548173ffffffffffffffffffffffffffffffffffffffff021916908373ffffffffffffffffffffffffffffffffffffffff16021790555050565b600060026000848152602001908152602001600020600401600083815260200190815260200160002054905092915050565b82805482825590600052602060002090810192821561201a579160200282015b82811115612019578251825591602001919060010190611ffe565b5b50905061202791906120b1565b5090565b82805461203790612e99565b90600052602060002090601f01602090048101928261205957600085556120a0565b82601f1061207257805160ff19168380011785556120a0565b828001600101855582156120a0579182015b8281111561209f578251825591602001919060010190612084565b5b5090506120ad91906120b1565b5090565b5b808211156120ca5760008160009055506001016120b2565b5090565b60006120e16120dc84612cc6565b612ca1565b9050808382526020820190508285602086028201111561210457612103613010565b5b60005b85811015612134578161211a88826121f1565b845260208401935060208301925050600181019050612107565b5050509392505050565b600061215161214c84612cf2565b612ca1565b90508281526020810184848401111561216d5761216c613015565b5b612178848285612e57565b509392505050565b60008135905061218f8161324a565b92915050565b600082601f8301126121aa576121a961300b565b5b81356121ba8482602086016120ce565b91505092915050565b600082601f8301126121d8576121d761300b565b5b81356121e884826020860161213e565b91505092915050565b60008135905061220081613261565b92915050565b60008151905061221581613261565b92915050565b6000602082840312156122315761223061301f565b5b600061223f84828501612180565b91505092915050565b6000806000606084860312156122615761226061301f565b5b600061226f86828701612180565b9350506020612280868287016121f1565b9250506040612291868287016121f1565b9150509250925092565b600080600080608085870312156122b5576122b461301f565b5b600085013567ffffffffffffffff8111156122d3576122d261301a565b5b6122df878288016121c3565b94505060206122f0878288016121f1565b935050604085013567ffffffffffffffff8111156123115761231061301a565b5b61231d87828801612195565b925050606085013567ffffffffffffffff81111561233e5761233d61301a565b5b61234a87828801612195565b91505092959194509250565b600080600080600060a086880312156123725761237161301f565b5b600086013567ffffffffffffffff8111156123905761238f61301a565b5b61239c888289016121c3565b95505060206123ad888289016121f1565b945050604086013567ffffffffffffffff8111156123ce576123cd61301a565b5b6123da88828901612195565b935050606086013567ffffffffffffffff8111156123fb576123fa61301a565b5b61240788828901612195565b9250506080612418888289016121f1565b9150509295509295909350565b6000806000806080858703121561243f5761243e61301f565b5b600085013567ffffffffffffffff81111561245d5761245c61301a565b5b612469878288016121c3565b945050602061247a878288016121f1565b935050604085013567ffffffffffffffff81111561249b5761249a61301a565b5b6124a787828801612195565b92505060606124b8878288016121f1565b91505092959194509250565b6000602082840312156124da576124d961301f565b5b60006124e8848285016121f1565b91505092915050565b6000602082840312156125075761250661301f565b5b600061251584828501612206565b91505092915050565b600080604083850312156125355761253461301f565b5b6000612543858286016121f1565b925050602061255485828601612180565b9150509250929050565b600080604083850312156125755761257461301f565b5b6000612583858286016121f1565b9250506020612594858286016121f1565b9150509250929050565b60006125aa8383612841565b60208301905092915050565b6125bf81612dd9565b82525050565b60006125d082612d33565b6125da8185612d56565b93506125e583612d23565b8060005b838110156126165781516125fd888261259e565b975061260883612d49565b9250506001810190506125e9565b5085935050505092915050565b61262c81612deb565b82525050565b61263b81612e21565b82525050565b600061264c82612d3e565b6126568185612d67565b9350612666818560208601612e66565b61266f81613024565b840191505092915050565b6000612687601883612d67565b915061269282613035565b602082019050919050565b60006126aa600783612d78565b91506126b58261305e565b600782019050919050565b60006126cd601483612d67565b91506126d882613087565b602082019050919050565b60006126f0600d83612d67565b91506126fb826130b0565b602082019050919050565b6000612713601083612d67565b915061271e826130d9565b602082019050919050565b6000612736600f83612d67565b915061274182613102565b602082019050919050565b6000612759601b83612d67565b91506127648261312b565b602082019050919050565b600061277c600c83612d67565b915061278782613154565b602082019050919050565b600061279f601183612d67565b91506127aa8261317d565b602082019050919050565b60006127c2601283612d67565b91506127cd826131a6565b602082019050919050565b60006127e5601a83612d67565b91506127f0826131cf565b602082019050919050565b6000612808600f83612d67565b9150612813826131f8565b602082019050919050565b600061282b601083612d67565b915061283682613221565b602082019050919050565b61284a81612e17565b82525050565b61285981612e17565b82525050565b61287061286b82612e17565b612f45565b82525050565b60006128818261269d565b915061288d828461285f565b60208201915081905092915050565b60006020820190506128b160008301846125b6565b92915050565b600060408201905081810360008301526128d181856125c5565b90506128e06020830184612850565b9392505050565b60006020820190506128fc6000830184612623565b92915050565b60006020820190506129176000830184612632565b92915050565b600060208201905081810360008301526129378184612641565b905092915050565b600060208201905081810360008301526129588161267a565b9050919050565b60006020820190508181036000830152612978816126c0565b9050919050565b60006020820190508181036000830152612998816126e3565b9050919050565b600060208201905081810360008301526129b881612706565b9050919050565b600060208201905081810360008301526129d881612729565b9050919050565b600060208201905081810360008301526129f88161274c565b9050919050565b60006020820190508181036000830152612a188161276f565b9050919050565b60006020820190508181036000830152612a3881612792565b9050919050565b60006020820190508181036000830152612a58816127b5565b9050919050565b60006020820190508181036000830152612a78816127d8565b9050919050565b60006020820190508181036000830152612a98816127fb565b9050919050565b60006020820190508181036000830152612ab88161281e565b9050919050565b6000602082019050612ad46000830184612850565b92915050565b6000606082019050612aef6000830186612850565b612afc60208301856125b6565b612b096040830184612850565b949350505050565b6000604082019050612b266000830185612850565b8181036020830152612b388184612641565b90509392505050565b600060a082019050612b566000830188612850565b8181036020830152612b688187612641565b9050612b776040830186612850565b612b846060830185612850565b612b916080830184612850565b9695505050505050565b6000604082019050612bb06000830185612850565b612bbd6020830184612850565b9392505050565b6000608082019050612bd96000830187612850565b612be66020830186612850565b8181036040830152612bf881856125c5565b90508181036060830152612c0c81846125c5565b905095945050505050565b600060a082019050612c2c6000830188612850565b612c396020830187612850565b612c466040830186612623565b612c536060830185612850565b612c606080830184612850565b9695505050505050565b6000606082019050612c7f6000830186612850565b612c8c6020830185612850565b612c996040830184612850565b949350505050565b6000612cab612cbc565b9050612cb78282612ecb565b919050565b6000604051905090565b600067ffffffffffffffff821115612ce157612ce0612fdc565b5b602082029050602081019050919050565b600067ffffffffffffffff821115612d0d57612d0c612fdc565b5b612d1682613024565b9050602081019050919050565b6000819050602082019050919050565b600081519050919050565b600081519050919050565b6000602082019050919050565b600082825260208201905092915050565b600082825260208201905092915050565b600081905092915050565b6000612d8e82612e17565b9150612d9983612e17565b9250827fffffffffffffffffffffffffffffffffffffffffffffffffffffffffffffffff03821115612dce57612dcd612f4f565b5b828201905092915050565b6000612de482612df7565b9050919050565b60008115159050919050565b600073ffffffffffffffffffffffffffffffffffffffff82169050919050565b6000819050919050565b6000612e2c82612e33565b9050919050565b6000612e3e82612e45565b9050919050565b6000612e5082612df7565b9050919050565b82818337600083830152505050565b60005b83811015612e84578082015181840152602081019050612e69565b83811115612e93576000848401525b50505050565b60006002820490506001821680612eb157607f821691505b60208210811415612ec557612ec4612f7e565b5b50919050565b612ed482613024565b810181811067ffffffffffffffff82111715612ef357612ef2612fdc565b5b80604052505050565b6000612f0782612e17565b91507fffffffffffffffffffffffffffffffffffffffffffffffffffffffffffffffff821415612f3a57612f39612f4f565b5b600182019050919050565b6000819050919050565b7f4e487b7100000000000000000000000000000000000000000000000000000000600052601160045260246000fd5b7f4e487b7100000000000000000000000000000000000000000000000000000000600052602260045260246000fd5b7f4e487b7100000000000000000000000000000000000000000000000000000000600052603260045260246000fd5b7f4e487b7100000000000000000000000000000000000000000000000000000000600052604160045260246000fd5b600080fd5b600080fd5b600080fd5b600080fd5b600080fd5b6000601f19601f8301169050919050565b7fe68a95e7a5a8e79a84e98089e9a1b9e4b88de5ad98e59ca80000000000000000600082015250565b7f436f757273652000000000000000000000000000000000000000000000000000600082015250565b7f556e726567697374657265642074656163686572000000000000000000000000600082015250565b7f416c726561647920766f74656400000000000000000000000000000000000000600082015250565b7f416c726561647920657865637574656400000000000000000000000000000000600082015250565b7fe8b4a6e688b7e69caae6b3a8e5868c0000000000000000000000000000000000600082015250565b7f4f6e6c792074656163686572732063616e2063616c6c20746869730000000000600082015250565b7fe682a8e5b7b2e68a95e7a5a80000000000000000000000000000000000000000600082015250565b7f50726f706f73616c206578656375746564000000000000000000000000000000600082015250565b7fe68a95e7a5a8e4babae695b0e5b7b2e6bba10000000000000000000000000000600082015250565b7f496e76616c6964206f7074696f6e20696e6465782028302d3129000000000000600082015250565b7fe8b4a6e688b7e5b7b2e6b3a8e5868c0000000000000000000000000000000000600082015250565b7f496e76616c69642070726f706f73616c00000000000000000000000000000000600082015250565b61325381612dd9565b811461325e57600080fd5b50565b61326a81612e17565b811461327557600080fd5b5056fea2646970667358221220dc24682c10c4c1eabe2a3d790d7a8c5f99a28aa515280e47056b02e026e0c1da64736f6c63430008070033",
  "immutableReferences": {},
  "source": "// SPDX-License-Identifier: MIT\r\npragma solidity ^0.8.7;\r\n\r\nimport \"./Vote.sol\";\r\nimport \"./ICourseAllocation.sol\";\r\n\r\ncontract TeacherVote is Vote {\r\n    ICourseAllocation public courseAllocation;\r\n\r\n    // // \r\n    // mapping(uint256 => mapping(uint256 => mapping(uint256 => uint256))) public teacherAgentSuitability;\r\n\r\n    // \r\n    mapping(uint256 => uint256[]) private _proposalOptions; //\r\n\r\n    struct ProposalBase {\r\n        uint256 courseId; //\r\n        uint256 suitabilityProposalId;\r\n        bool executed;\r\n        uint256 agreeCount;\r\n        uint256 disagreeCount;\r\n    }\r\n\r\n    mapping(uint256 => ProposalBase) public proposals;\r\n    mapping(uint256 => mapping(address => bool)) public suitabilityVotes;\r\n    // mapping(uint256 => mapping(uint256 => uint256[])) public teacherScores;        // \r\n\r\n    uint256 public proposalCount;\r\n\r\n    event NewCombinedProposal(\r\n        uint256 indexed proposalId,\r\n        uint256 indexed courseId,\r\n        uint256 suitabilityProposalId\r\n    );\r\n    event ProposalExecuted(uint256 indexed proposalId, string Choice);\r\n\r\n    modifier onlyTeacher() {\r\n        require(\r\n            courseAllocation.addressToTeacherId(msg.sender) != 0,\r\n            \"Only teachers can call this\"\r\n        );\r\n        _;\r\n    }\r\n\r\n    constructor(address _courseAllocationAddress) Vote() {\r\n        courseAllocation = ICourseAllocation(_courseAllocationAddress);\r\n    }\r\n\r\n    function setCourseAllocation(address _addr) external {\r\n        courseAllocation = ICourseAllocation(_addr);\r\n    }\r\n\r\n    function createCombinedProposal(\r\n        uint256 courseId\r\n    ) external onlyTeacher returns (uint256) {\r\n        // \r\n        uint256[] memory options = new uint256[](2);\r\n        options[0] = 1; // \r\n        options[1] = 2; // \r\n\r\n        // \r\n        uint256 suitabilityProposalId = createChooseTeacherProposal(\r\n            string(abi.encodePacked(\"Course \", courseId)),\r\n            courseId,\r\n            options,\r\n            type(uint256).max\r\n        );\r\n\r\n        // \r\n        _proposalOptions[suitabilityProposalId] = options;\r\n\r\n        // \r\n\r\n        proposals[proposalCount] = ProposalBase({\r\n            courseId: courseId,\r\n            suitabilityProposalId: suitabilityProposalId,\r\n            executed: false,\r\n            agreeCount: 0,\r\n            disagreeCount: 0\r\n        });\r\n\r\n        emit NewCombinedProposal(\r\n            proposalCount,\r\n            courseId,\r\n            suitabilityProposalId\r\n        );\r\n        proposalCount++;\r\n        return proposalCount;\r\n    }\r\n\r\n    function submitCombinedVote(\r\n        uint256 proposalId,\r\n        uint256 suitabilityOptionIndex\r\n    ) external onlyTeacher {\r\n        ProposalBase storage p = proposals[proposalId];\r\n        require(p.courseId != 0, \"Invalid proposal\");\r\n        require(!p.executed, \"Proposal executed\");\r\n\r\n        // \r\n        uint256 teacherId = courseAllocation.addressToTeacherId(msg.sender);\r\n        require(teacherId != 0, \"Unregistered teacher\");\r\n\r\n        // \r\n        require(suitabilityOptionIndex < 2, \"Invalid option index (0-1)\");\r\n        require(!suitabilityVotes[proposalId][msg.sender], \"Already voted\");\r\n\r\n        if (suitabilityOptionIndex == 1) {\r\n            p.agreeCount++;\r\n        } else {\r\n            p.disagreeCount++;\r\n        }\r\n        suitabilityVotes[proposalId][msg.sender] = true;\r\n\r\n        // \r\n        uint256 optionValue = _proposalOptions[p.suitabilityProposalId][\r\n            suitabilityOptionIndex\r\n        ];\r\n\r\n        // \r\n        super.voteChooseTeacher(\r\n            msg.sender,\r\n            p.suitabilityProposalId,\r\n            optionValue\r\n        );\r\n    }\r\n\r\n    // // \r\n    // function setTeacherSuitabilityForAllCourses(\r\n    //     uint256 _teacherId,\r\n    //     uint256 _agentId,\r\n    //     uint256[] memory _courseIds,  //  ID \r\n    //     uint256[] memory _suitabilities  // \r\n    // ) public {\r\n    //     require(_courseIds.length == _suitabilities.length, unicode\"\");\r\n\r\n    //     // \r\n    //     for (uint256 i = 0; i < _courseIds.length; i++) {\r\n    //         uint256 suitability = _suitabilities[i];\r\n\r\n    //         // 0100\r\n    //         require(suitability >= 0 && suitability <= 100, unicode\"\");\r\n\r\n    //         //  teacherScores \r\n    //         teacherScores[_teacherId][_agentId].push(suitability);\r\n    //     }\r\n    // }\r\n\r\n    // // \r\n    // function saveAverageSuitability(uint256 _agentId, uint256[] memory _courseIds) public {\r\n    //     uint256 numTeachers = 5;  // \r\n    //     uint256[] memory averageSuitabilities = new uint256[](_courseIds.length);\r\n\r\n    //     // \r\n    //     for (uint256 j = 0; j < _courseIds.length; j++) {\r\n    //         uint256 totalSuitability = 0;\r\n\r\n    //         for (uint256 teacherId = 0; teacherId < numTeachers; teacherId++) {\r\n    //             uint256[] memory scores = teacherScores[teacherId][_agentId];\r\n    //             totalSuitability += scores[j];  // \r\n    //         }\r\n\r\n    //         // \r\n    //         uint256 averageSuitability = totalSuitability / numTeachers;\r\n    //         averageSuitabilities[j] = averageSuitability;\r\n    //     }\r\n\r\n    //     //  setAllAgentCourseSuitability \r\n    //     courseAllocation.setAllAgentCourseSuitability(_agentId, averageSuitabilities);\r\n    // }\r\n\r\n    function executeProposal(uint256 proposalId) external {\r\n        ProposalBase storage p = proposals[proposalId];\r\n        require(p.courseId != 0, \"Invalid proposal\");\r\n        require(!p.executed, \"Already executed\");\r\n\r\n        // \r\n        (uint256 winningOption, ) = endVote(p.suitabilityProposalId);\r\n\r\n        string memory Choice;\r\n        if (winningOption == 2) {\r\n            Choice = \"Suitability&Preference\";\r\n        } else Choice = \"Cost-effectiveness\";\r\n\r\n        // \r\n        courseAllocation.setScoreType(Choice);\r\n\r\n        p.executed = true;\r\n        emit ProposalExecuted(proposalId, Choice);\r\n    }\r\n\r\n    function endVote(\r\n        uint256 _proposalId\r\n    ) public view returns (uint256, uint256) {\r\n        ProposalBase storage p = proposals[_proposalId];\r\n\r\n        //  \"\"\r\n        uint256 winningOption = (p.agreeCount > p.disagreeCount) ? 2 : 1; // 2 1   1 2suit preference\r\n        return (winningOption, p.agreeCount + p.disagreeCount); // \r\n    }\r\n\r\n    function getVoteDetails(\r\n        uint256 proposalId\r\n    ) external view returns (uint256 agree, uint256 disagree, uint256 total) {\r\n        ProposalBase memory p = proposals[proposalId];\r\n        return (p.agreeCount, p.disagreeCount, p.agreeCount + p.disagreeCount);\r\n    }\r\n}\r\n",
  "sourcePath": "E:\\dao\\327\\Course-allocation\\project\\contracts\\TeacherVote.sol",
  "compiler": {
    "name": "solc",
    "version": "0.8.7+commit.e28d00a7.Emscripten.clang"
  },
  "schemaVersion": "3.4.16",
  "updatedAt": "2025-04-15T12:56:31.367Z",
  "networkType": "ethereum",
  "devdoc": {
    "kind": "dev",
    "methods": {},
    "version": 1
  },
  "userdoc": {
    "kind": "user",
    "methods": {},
    "version": 1
  }
}