{
  "contractName": "teachingSchedule",
  "abi": [
    {
      "inputs": [],
      "stateMutability": "nonpayable",
      "type": "constructor"
    },
    {
      "inputs": [],
      "name": "aiCount",
      "outputs": [
        {
          "internalType": "uint8",
          "name": "",
          "type": "uint8"
        }
      ],
      "stateMutability": "view",
      "type": "function"
    },
    {
      "inputs": [],
      "name": "courseCount",
      "outputs": [
        {
          "internalType": "uint8",
          "name": "",
          "type": "uint8"
        }
      ],
      "stateMutability": "view",
      "type": "function"
    },
    {
      "inputs": [
        {
          "internalType": "uint8",
          "name": "",
          "type": "uint8"
        }
      ],
      "name": "courses",
      "outputs": [
        {
          "internalType": "uint8",
          "name": "id",
          "type": "uint8"
        },
        {
          "internalType": "string",
          "name": "name",
          "type": "string"
        }
      ],
      "stateMutability": "view",
      "type": "function"
    },
    {
      "inputs": [
        {
          "internalType": "uint8",
          "name": "",
          "type": "uint8"
        }
      ],
      "name": "id2TeacherAddress",
      "outputs": [
        {
          "internalType": "address",
          "name": "",
          "type": "address"
        }
      ],
      "stateMutability": "view",
      "type": "function"
    },
    {
      "inputs": [
        {
          "internalType": "uint256",
          "name": "",
          "type": "uint256"
        }
      ],
      "name": "proposals",
      "outputs": [
        {
          "internalType": "contract baseproposal",
          "name": "",
          "type": "address"
        }
      ],
      "stateMutability": "view",
      "type": "function"
    },
    {
      "inputs": [],
      "name": "teacherCount",
      "outputs": [
        {
          "internalType": "uint8",
          "name": "",
          "type": "uint8"
        }
      ],
      "stateMutability": "view",
      "type": "function"
    },
    {
      "inputs": [
        {
          "internalType": "address",
          "name": "",
          "type": "address"
        }
      ],
      "name": "teachers",
      "outputs": [
        {
          "internalType": "enum teachingSchedule.teacherKind",
          "name": "kind",
          "type": "uint8"
        },
        {
          "internalType": "uint8",
          "name": "id",
          "type": "uint8"
        },
        {
          "internalType": "string",
          "name": "name",
          "type": "string"
        },
        {
          "internalType": "address",
          "name": "teacherAddress",
          "type": "address"
        },
        {
          "internalType": "uint8",
          "name": "token",
          "type": "uint8"
        }
      ],
      "stateMutability": "view",
      "type": "function"
    },
    {
      "inputs": [],
      "name": "proposalList",
      "outputs": [
        {
          "internalType": "contract baseproposal[]",
          "name": "",
          "type": "address[]"
        }
      ],
      "stateMutability": "view",
      "type": "function"
    },
    {
      "inputs": [
        {
          "internalType": "string",
          "name": "_name",
          "type": "string"
        },
        {
          "internalType": "string",
          "name": "_discription",
          "type": "string"
        },
        {
          "internalType": "uint8",
          "name": "_proposalKind",
          "type": "uint8"
        },
        {
          "internalType": "uint8",
          "name": "_proposalStatus",
          "type": "uint8"
        },
        {
          "internalType": "uint256",
          "name": "_startTime",
          "type": "uint256"
        },
        {
          "internalType": "uint256",
          "name": "_endTime",
          "type": "uint256"
        }
      ],
      "name": "createProposal",
      "outputs": [],
      "stateMutability": "nonpayable",
      "type": "function"
    },
    {
      "inputs": [
        {
          "internalType": "uint256",
          "name": "idx",
          "type": "uint256"
        },
        {
          "internalType": "uint256",
          "name": "_allowFailureMap",
          "type": "uint256"
        }
      ],
      "name": "proposal_execute",
      "outputs": [
        {
          "internalType": "bytes[]",
          "name": "execResults",
          "type": "bytes[]"
        },
        {
          "internalType": "uint256",
          "name": "failureMap",
          "type": "uint256"
        }
      ],
      "stateMutability": "nonpayable",
      "type": "function"
    },
    {
      "inputs": [
        {
          "internalType": "uint256",
          "name": "idx",
          "type": "uint256"
        },
        {
          "internalType": "address",
          "name": "fuction_address",
          "type": "address"
        },
        {
          "internalType": "uint256",
          "name": "money",
          "type": "uint256"
        },
        {
          "internalType": "bytes",
          "name": "_data",
          "type": "bytes"
        }
      ],
      "name": "set_proposal_actions",
      "outputs": [],
      "stateMutability": "nonpayable",
      "type": "function"
    },
    {
      "inputs": [
        {
          "internalType": "uint256",
          "name": "idx",
          "type": "uint256"
        },
        {
          "internalType": "enum teachingSchedule.VoteChoice",
          "name": "chioce",
          "type": "uint8"
        }
      ],
      "name": "vote",
      "outputs": [],
      "stateMutability": "nonpayable",
      "type": "function"
    },
    {
      "inputs": [
        {
          "internalType": "enum teachingSchedule.teacherKind",
          "name": "kind",
          "type": "uint8"
        },
        {
          "internalType": "string",
          "name": "_name",
          "type": "string"
        },
        {
          "internalType": "address",
          "name": "teacherAddress",
          "type": "address"
        }
      ],
      "name": "addTeacher",
      "outputs": [],
      "stateMutability": "nonpayable",
      "type": "function"
    },
    {
      "inputs": [
        {
          "internalType": "string",
          "name": "_name",
          "type": "string"
        }
      ],
      "name": "addCourse",
      "outputs": [],
      "stateMutability": "nonpayable",
      "type": "function"
    },
    {
      "inputs": [
        {
          "internalType": "uint8",
          "name": "_courseId",
          "type": "uint8"
        },
        {
          "internalType": "address",
          "name": "_teacherAddress",
          "type": "address"
        },
        {
          "internalType": "uint8",
          "name": "_suitablity",
          "type": "uint8"
        }
      ],
      "name": "suitablityToTeacher",
      "outputs": [],
      "stateMutability": "nonpayable",
      "type": "function"
    },
    {
      "inputs": [
        {
          "internalType": "uint8",
          "name": "_courseId",
          "type": "uint8"
        }
      ],
      "name": "allocateCourse",
      "outputs": [],
      "stateMutability": "nonpayable",
      "type": "function"
    },
    {
      "inputs": [
        {
          "internalType": "uint8",
          "name": "_courseId",
          "type": "uint8"
        },
        {
          "internalType": "uint8",
          "name": "fromId",
          "type": "uint8"
        },
        {
          "internalType": "uint8",
          "name": "toId",
          "type": "uint8"
        }
      ],
      "name": "transferCourse",
      "outputs": [],
      "stateMutability": "nonpayable",
      "type": "function"
    },
    {
      "inputs": [
        {
          "internalType": "uint8",
          "name": "_courseId",
          "type": "uint8"
        },
        {
          "internalType": "uint8",
          "name": "fromId",
          "type": "uint8"
        },
        {
          "internalType": "uint8",
          "name": "toId",
          "type": "uint8"
        }
      ],
      "name": "requestCourse",
      "outputs": [],
      "stateMutability": "nonpayable",
      "type": "function"
    },
    {
      "inputs": [
        {
          "internalType": "address",
          "name": "_teacherAddress",
          "type": "address"
        }
      ],
      "name": "getAssignedCourses",
      "outputs": [
        {
          "internalType": "uint8[]",
          "name": "",
          "type": "uint8[]"
        }
      ],
      "stateMutability": "view",
      "type": "function"
    },
    {
      "inputs": [],
      "name": "getAllCourses",
      "outputs": [
        {
          "internalType": "uint8[]",
          "name": "",
          "type": "uint8[]"
        },
        {
          "internalType": "string[]",
          "name": "",
          "type": "string[]"
        }
      ],
      "stateMutability": "view",
      "type": "function"
    },
    {
      "inputs": [],
      "name": "getCourseCount",
      "outputs": [
        {
          "internalType": "uint8",
          "name": "",
          "type": "uint8"
        }
      ],
      "stateMutability": "view",
      "type": "function"
    }
  ],
  "bytecode": "0x60806040526000600460006101000a81548160ff021916908360ff1602179055506000600460016101000a81548160ff021916908360ff1602179055506000600460026101000a81548160ff021916908360ff16021790555034801561006457600080fd5b5061649b806100746000396000f3fe60806040523480156200001157600080fd5b5060043610620001545760003560e01c806358f1a8f111620000c957806396cfda06116200008757806396cfda061462000387578063a19e2f3414620003a9578063c6de0bc914620003c9578063d0b17c411462000400578063f0a47f781462000436578063fe130ad214620004705762000154565b806358f1a8f114620002e55780636168b778146200030557806366055159146200032557806388437c3f1462000347578063943e821614620003675762000154565b8063380f297f1162000117578063380f297f146200021257806344389524146200024957806346be3136146200026b5780634817880a146200028d5780634f6827a114620002af5762000154565b8063013cf08b1462000159578063042f0b90146200018f57806304e48bd114620001af57806323a40a4714620001d25780632e55407614620001f2575b600080fd5b62000177600480360381019062000171919062002b9e565b62000490565b604051620001869190620035b7565b60405180910390f35b620001ad6004803603810190620001a7919062002ac4565b620004d0565b005b620001b962000682565b604051620001c99291906200357c565b60405180910390f35b620001f06004803603810190620001ea919062002d21565b620008d9565b005b6200021060048036038101906200020a919062002a73565b62000a52565b005b6200023060048036038101906200022a919062002cef565b62000b24565b6040516200024092919062003887565b60405180910390f35b6200025362000be5565b60405162000262919062003534565b60405180910390f35b6200027562000c75565b6040516200028491906200386a565b60405180910390f35b6200029762000c88565b604051620002a691906200386a565b60405180910390f35b620002cd6004803603810190620002c7919062002960565b62000c9b565b604051620002dc919062003558565b60405180910390f35b620003036004803603810190620002fd919062002d7d565b62000d5d565b005b6200032360048036038101906200031d919062002cef565b6200128c565b005b6200032f6200132a565b6040516200033e91906200386a565b60405180910390f35b6200036560048036038101906200035f9190620029f8565b6200133d565b005b6200038560048036038101906200037f919062002c61565b6200156f565b005b6200039162001c80565b604051620003a091906200386a565b60405180910390f35b620003c76004803603810190620003c1919062002d7d565b62001c97565b005b620003e76004803603810190620003e1919062002ca8565b62002128565b604051620003f792919062003500565b60405180910390f35b6200041e600480360381019062000418919062002cef565b6200220d565b6040516200042d9190620033fc565b60405180910390f35b6200045460048036038101906200044e919062002960565b62002240565b60405162000467959493929190620035d4565b60405180910390f35b6200048e600480360381019062000488919062002bd0565b6200234d565b005b60008181548110620004a157600080fd5b906000526020600020016000915054906101000a900473ffffffffffffffffffffffffffffffffffffffff1681565b6000868686868686604051620004e690620025cf565b620004f79695949392919062003638565b604051809103906000f08015801562000514573d6000803e3d6000fd5b5090506000819080600181540180825580915050600190039060005260206000200160009091909190916101000a81548173ffffffffffffffffffffffffffffffffffffffff021916908373ffffffffffffffffffffffffffffffffffffffff1602179055506000600190505b600460009054906101000a900460ff1660ff168160ff161162000678576000600260008360ff1660ff16815260200190815260200160002060009054906101000a900473ffffffffffffffffffffffffffffffffffffffff169050600160008273ffffffffffffffffffffffffffffffffffffffff1673ffffffffffffffffffffffffffffffffffffffff168152602001908152602001600020600501600090806001815401808255809150506001900390600052602060002090602091828204019190069091909190916101000a81548160ff0219169083151502179055505080806200066f9062003d42565b91505062000581565b5050505050505050565b6060806000600460029054906101000a900460ff1660ff1667ffffffffffffffff811115620006b657620006b562003e70565b5b604051908082528060200260200182016040528015620006e55781602001602082028036833780820191505090505b5090506000600460029054906101000a900460ff1660ff1667ffffffffffffffff81111562000719576200071862003e70565b5b6040519080825280602002602001820160405280156200074e57816020015b6060815260200190600190039081620007385790505b50905060005b600460029054906101000a900460ff1660ff168160ff161015620008cc576003600060018362000785919062003ab7565b60ff1660ff16815260200190815260200160002060000160009054906101000a900460ff16838260ff1681518110620007c357620007c262003e41565b5b602002602001019060ff16908160ff168152505060036000600183620007ea919062003ab7565b60ff1660ff16815260200190815260200160002060010180546200080e9062003c88565b80601f01602080910402602001604051908101604052809291908181526020018280546200083c9062003c88565b80156200088d5780601f1062000861576101008083540402835291602001916200088d565b820191906000526020600020905b8154815290600101906020018083116200086f57829003601f168201915b5050505050828260ff1681518110620008ab57620008aa62003e41565b5b60200260200101819052508080620008c39062003d42565b91505062000754565b5081819350935050509091565b6000600160008473ffffffffffffffffffffffffffffffffffffffff1673ffffffffffffffffffffffffffffffffffffffff16815260200190815260200160002060000160019054906101000a900460ff169050600a8260ff16111562000977576040517f08c379a00000000000000000000000000000000000000000000000000000000081526004016200096e90620036b3565b60405180910390fd5b6000600360008660ff1660ff16815260200190815260200160002060020160008360ff1660ff16815260200190815260200160002060009054906101000a900460ff1660ff161462000a00576040517f08c379a0000000000000000000000000000000000000000000000000000000008152600401620009f790620036f7565b60405180910390fd5b81600360008660ff1660ff16815260200190815260200160002060020160008360ff1660ff16815260200190815260200160002060006101000a81548160ff021916908360ff16021790555050505050565b6004600281819054906101000a900460ff168092919062000a739062003d42565b91906101000a81548160ff021916908360ff16021790555050600460029054906101000a900460ff1660036000600460029054906101000a900460ff1660ff1660ff16815260200190815260200160002060000160006101000a81548160ff021916908360ff1602179055508060036000600460029054906101000a900460ff1660ff1660ff168152602001908152602001600020600101908051906020019062000b20929190620025dd565b5050565b60036020528060005260406000206000915090508060000160009054906101000a900460ff169080600101805462000b5c9062003c88565b80601f016020809104026020016040519081016040528092919081815260200182805462000b8a9062003c88565b801562000bdb5780601f1062000baf5761010080835404028352916020019162000bdb565b820191906000526020600020905b81548152906001019060200180831162000bbd57829003601f168201915b5050505050905082565b6060600080548060200260200160405190810160405280929190818152602001828054801562000c6b57602002820191906000526020600020905b8160009054906101000a900473ffffffffffffffffffffffffffffffffffffffff1673ffffffffffffffffffffffffffffffffffffffff168152602001906001019080831162000c20575b5050505050905090565b600460009054906101000a900460ff1681565b600460019054906101000a900460ff1681565b6060600160008373ffffffffffffffffffffffffffffffffffffffff1673ffffffffffffffffffffffffffffffffffffffff16815260200190815260200160002060030180548060200260200160405190810160405280929190818152602001828054801562000d5157602002820191906000526020600020906000905b82829054906101000a900460ff1660ff168152602001906001019060208260000104928301926001038202915080841162000d195790505b50505050509050919050565b600060016000600260008660ff1660ff16815260200190815260200160002060009054906101000a900473ffffffffffffffffffffffffffffffffffffffff1673ffffffffffffffffffffffffffffffffffffffff1673ffffffffffffffffffffffffffffffffffffffff1681526020019081526020016000209050600060016000600260008660ff1660ff16815260200190815260200160002060009054906101000a900473ffffffffffffffffffffffffffffffffffffffff1673ffffffffffffffffffffffffffffffffffffffff1673ffffffffffffffffffffffffffffffffffffffff1681526020019081526020016000209050600381600301805490501062000ea2576040517f08c379a000000000000000000000000000000000000000000000000000000000815260040162000e9990620036d5565b60405180910390fd5b600182600301805490501162000eef576040517f08c379a000000000000000000000000000000000000000000000000000000000815260040162000ee690620037a1565b60405180910390fd5b60018160040160009054906101000a900460ff1660ff161162000f49576040517f08c379a000000000000000000000000000000000000000000000000000000000815260040162000f409062003719565b60405180910390fd5b60018160040160008282829054906101000a900460ff1662000f6c919062003b30565b92506101000a81548160ff021916908360ff1602179055506000600360008760ff1660ff16815260200190815260200160002060020160008560ff1660ff16815260200190815260200160002060009054906101000a900460ff16905060058160ff16101562001013576040517f08c379a00000000000000000000000000000000000000000000000000000000081526004016200100a906200373b565b60405180910390fd5b6000600360008860ff1660ff16815260200190815260200160002060020160008760ff1660ff16815260200190815260200160002060009054906101000a900460ff1690508060ff168260ff161015620010a4576040517f08c379a00000000000000000000000000000000000000000000000000000000081526004016200109b906200377f565b60405180910390fd5b8060ff168260ff161415620010f257600087604051602001620010c89190620033d2565b6040516020818303038152906040529050620010eb8182600080600080620004d0565b5062001283565b60005b84600301805490508110156200123a578760ff1685600301828154811062001122576200112162003e41565b5b90600052602060002090602091828204019190069054906101000a900460ff1660ff1614156200122457846003016001866003018054905062001166919062003af5565b815481106200117a576200117962003e41565b5b90600052602060002090602091828204019190069054906101000a900460ff16856003018281548110620011b357620011b262003e41565b5b90600052602060002090602091828204019190066101000a81548160ff021916908360ff16021790555084600301805480620011f457620011f362003e12565b5b60019003818190600052602060002090602091828204019190066101000a81549060ff021916905590556200123a565b8080620012319062003cf4565b915050620010f5565b50826003018790806001815401808255809150506001900390600052602060002090602091828204019190069091909190916101000a81548160ff021916908360ff1602179055505b50505050505050565b6000620012998262002439565b90506000600160008373ffffffffffffffffffffffffffffffffffffffff1673ffffffffffffffffffffffffffffffffffffffff1681526020019081526020016000209050806003018390806001815401808255809150506001900390600052602060002090602091828204019190069091909190916101000a81548160ff021916908360ff160217905550505050565b600460029054906101000a900460ff1681565b6004600081819054906101000a900460ff16809291906200135e9062003d42565b91906101000a81548160ff021916908360ff1602179055505082600160008373ffffffffffffffffffffffffffffffffffffffff1673ffffffffffffffffffffffffffffffffffffffff16815260200190815260200160002060000160006101000a81548160ff02191690836001811115620013df57620013de62003db4565b5b0217905550600460009054906101000a900460ff16600160008373ffffffffffffffffffffffffffffffffffffffff1673ffffffffffffffffffffffffffffffffffffffff16815260200190815260200160002060000160016101000a81548160ff021916908360ff16021790555081600160008373ffffffffffffffffffffffffffffffffffffffff1673ffffffffffffffffffffffffffffffffffffffff1681526020019081526020016000206001019080519060200190620014a6929190620025dd565b508060026000600460009054906101000a900460ff1660ff1660ff16815260200190815260200160002060006101000a81548173ffffffffffffffffffffffffffffffffffffffff021916908373ffffffffffffffffffffffffffffffffffffffff160217905550600a600160008373ffffffffffffffffffffffffffffffffffffffff1673ffffffffffffffffffffffffffffffffffffffff16815260200190815260200160002060040160006101000a81548160ff021916908360ff160217905550505050565b600033905060018060008373ffffffffffffffffffffffffffffffffffffffff1673ffffffffffffffffffffffffffffffffffffffff1681526020019081526020016000206005018481548110620015cc57620015cb62003e41565b5b90600052602060002090602091828204019190066101000a81548160ff0219169083151502179055506000600160008373ffffffffffffffffffffffffffffffffffffffff1673ffffffffffffffffffffffffffffffffffffffff16815260200190815260200160002060040160009054906101000a900460ff1660ff1690506000848154811062001663576200166262003e41565b5b9060005260206000200160009054906101000a900473ffffffffffffffffffffffffffffffffffffffff1673ffffffffffffffffffffffffffffffffffffffff16631ea62323826040518263ffffffff1660e01b8152600401620016c891906200384d565b600060405180830381600087803b158015620016e357600080fd5b505af1158015620016f8573d6000803e3d6000fd5b505050506000600281111562001713576200171262003db4565b5b83600281111562001729576200172862003db4565b5b14156200187e576000848154811062001747576200174662003e41565b5b9060005260206000200160009054906101000a900473ffffffffffffffffffffffffffffffffffffffff1673ffffffffffffffffffffffffffffffffffffffff166379d623df8360016000806040518563ffffffff1660e01b8152600401620017b49493929190620034b3565b600060405180830381600087803b158015620017cf57600080fd5b505af1158015620017e4573d6000803e3d6000fd5b505050506000600160008473ffffffffffffffffffffffffffffffffffffffff1673ffffffffffffffffffffffffffffffffffffffff168152602001908152602001600020600601858154811062001841576200184062003e41565b5b90600052602060002090602091828204019190066101000a81548160ff0219169083600281111562001878576200187762003db4565b5b02179055505b6001600281111562001895576200189462003db4565b5b836002811115620018ab57620018aa62003db4565b5b141562001a005760008481548110620018c957620018c862003e41565b5b9060005260206000200160009054906101000a900473ffffffffffffffffffffffffffffffffffffffff1673ffffffffffffffffffffffffffffffffffffffff166379d623df836000600160006040518563ffffffff1660e01b815260040162001937949392919062003466565b600060405180830381600087803b1580156200195257600080fd5b505af115801562001967573d6000803e3d6000fd5b5050505060018060008473ffffffffffffffffffffffffffffffffffffffff1673ffffffffffffffffffffffffffffffffffffffff1681526020019081526020016000206006018581548110620019c357620019c262003e41565b5b90600052602060002090602091828204019190066101000a81548160ff02191690836002811115620019fa57620019f962003db4565b5b02179055505b60028081111562001a165762001a1562003db4565b5b83600281111562001a2c5762001a2b62003db4565b5b141562001b81576000848154811062001a4a5762001a4962003e41565b5b9060005260206000200160009054906101000a900473ffffffffffffffffffffffffffffffffffffffff1673ffffffffffffffffffffffffffffffffffffffff166379d623df8360008060016040518563ffffffff1660e01b815260040162001ab7949392919062003419565b600060405180830381600087803b15801562001ad257600080fd5b505af115801562001ae7573d6000803e3d6000fd5b505050506002600160008473ffffffffffffffffffffffffffffffffffffffff1673ffffffffffffffffffffffffffffffffffffffff168152602001908152602001600020600601858154811062001b445762001b4362003e41565b5b90600052602060002090602091828204019190066101000a81548160ff0219169083600281111562001b7b5762001b7a62003db4565b5b02179055505b60018060008473ffffffffffffffffffffffffffffffffffffffff1673ffffffffffffffffffffffffffffffffffffffff168152602001908152602001600020600501858154811062001bd95762001bd862003e41565b5b90600052602060002090602091828204019190066101000a81548160ff02191690831515021790555060018060008473ffffffffffffffffffffffffffffffffffffffff1673ffffffffffffffffffffffffffffffffffffffff16815260200190815260200160002060040160008282829054906101000a900460ff1662001c62919062003ab7565b92506101000a81548160ff021916908360ff16021790555050505050565b6000600460029054906101000a900460ff16905090565b600060016000600260008660ff1660ff16815260200190815260200160002060009054906101000a900473ffffffffffffffffffffffffffffffffffffffff1673ffffffffffffffffffffffffffffffffffffffff1673ffffffffffffffffffffffffffffffffffffffff1681526020019081526020016000209050600060016000600260008660ff1660ff16815260200190815260200160002060009054906101000a900473ffffffffffffffffffffffffffffffffffffffff1673ffffffffffffffffffffffffffffffffffffffff1673ffffffffffffffffffffffffffffffffffffffff168152602001908152602001600020905060018260040160009054906101000a900460ff1660ff161162001de9576040517f08c379a000000000000000000000000000000000000000000000000000000000815260040162001de0906200375d565b60405180910390fd5b6000600360008760ff1660ff16815260200190815260200160002060020160008660ff1660ff16815260200190815260200160002060009054906101000a900460ff16905060038160ff16111562001e78576040517f08c379a000000000000000000000000000000000000000000000000000000000815260040162001e6f90620037c3565b60405180910390fd5b600382600301805490501062001ec5576040517f08c379a000000000000000000000000000000000000000000000000000000000815260040162001ebc9062003807565b60405180910390fd5b6000600360008860ff1660ff16815260200190815260200160002060020160008660ff1660ff16815260200190815260200160002060009054906101000a900460ff16905060058160ff16101562001f54576040517f08c379a000000000000000000000000000000000000000000000000000000000815260040162001f4b906200373b565b60405180910390fd5b60028460040160008282829054906101000a900460ff1662001f77919062003b30565b92506101000a81548160ff021916908360ff16021790555060005b8460030180549050811015620020d7578760ff1685600301828154811062001fbf5762001fbe62003e41565b5b90600052602060002090602091828204019190069054906101000a900460ff1660ff161415620020c157846003016001866003018054905062002003919062003af5565b8154811062002017576200201662003e41565b5b90600052602060002090602091828204019190069054906101000a900460ff1685600301828154811062002050576200204f62003e41565b5b90600052602060002090602091828204019190066101000a81548160ff021916908360ff1602179055508460030180548062002091576200209062003e12565b5b60019003818190600052602060002090602091828204019190066101000a81549060ff02191690559055620020d7565b8080620020ce9062003cf4565b91505062001f92565b50826003018790806001815401808255809150506001900390600052602060002090602091828204019190069091909190916101000a81548160ff021916908360ff16021790555050505050505050565b6060600080848154811062002142576200214162003e41565b5b9060005260206000200160009054906101000a900473ffffffffffffffffffffffffffffffffffffffff1673ffffffffffffffffffffffffffffffffffffffff166330ad2bc3846040518263ffffffff1660e01b8152600401620021a791906200384d565b600060405180830381600087803b158015620021c257600080fd5b505af1158015620021d7573d6000803e3d6000fd5b505050506040513d6000823e3d601f19601f8201168201806040525081019062002202919062002992565b915091509250929050565b60026020528060005260406000206000915054906101000a900473ffffffffffffffffffffffffffffffffffffffff1681565b60016020528060005260406000206000915090508060000160009054906101000a900460ff16908060000160019054906101000a900460ff16908060010180546200228b9062003c88565b80601f0160208091040260200160405190810160405280929190818152602001828054620022b99062003c88565b80156200230a5780601f10620022de576101008083540402835291602001916200230a565b820191906000526020600020905b815481529060010190602001808311620022ec57829003601f168201915b5050505050908060020160009054906101000a900473ffffffffffffffffffffffffffffffffffffffff16908060040160009054906101000a900460ff16905085565b600060405180606001604052808573ffffffffffffffffffffffffffffffffffffffff1681526020018481526020018381525090506000858154811062002399576200239862003e41565b5b9060005260206000200160009054906101000a900473ffffffffffffffffffffffffffffffffffffffff1673ffffffffffffffffffffffffffffffffffffffff1663367c317c826040518263ffffffff1660e01b8152600401620023fe919062003829565b600060405180830381600087803b1580156200241957600080fd5b505af11580156200242e573d6000803e3d6000fd5b505050505050505050565b60008060009050600080600460029054906101000a900460ff1660ff161162002499576040517f08c379a00000000000000000000000000000000000000000000000000000000081526004016200249090620037e5565b60405180910390fd5b6000600190505b600460009054906101000a900460ff1660ff168160ff1611620025c4576000600260008360ff1660ff16815260200190815260200160002060009054906101000a900473ffffffffffffffffffffffffffffffffffffffff1690506003600160008373ffffffffffffffffffffffffffffffffffffffff1673ffffffffffffffffffffffffffffffffffffffff1681526020019081526020016000206003018054905010620025505750620025ae565b6000600360008860ff1660ff16815260200190815260200160002060020160008460ff1660ff16815260200190815260200160002060009054906101000a900460ff1690508460ff168160ff161115620025ab578094508193505b50505b8080620025bb9062003d42565b915050620024a0565b508092505050919050565b6121a080620042c683390190565b828054620025eb9062003c88565b90600052602060002090601f0160209004810192826200260f57600085556200265b565b82601f106200262a57805160ff19168380011785556200265b565b828001600101855582156200265b579182015b828111156200265a5782518255916020019190600101906200263d565b5b5090506200266a91906200266e565b5090565b5b80821115620026895760008160009055506001016200266f565b5090565b6000620026a46200269e84620038e4565b620038bb565b90508083825260208201905082856020860282011115620026ca57620026c962003ea4565b5b60005b858110156200271f57815167ffffffffffffffff811115620026f457620026f362003e9f565b5b80860162002703898262002887565b85526020850194506020840193505050600181019050620026cd565b5050509392505050565b6000620027406200273a8462003913565b620038bb565b9050828152602081018484840111156200275f576200275e62003ea9565b5b6200276c84828562003c43565b509392505050565b60006200278b620027858462003913565b620038bb565b905082815260208101848484011115620027aa57620027a962003ea9565b5b620027b784828562003c52565b509392505050565b6000620027d6620027d08462003949565b620038bb565b905082815260208101848484011115620027f557620027f462003ea9565b5b6200280284828562003c43565b509392505050565b6000813590506200281b8162004255565b92915050565b600082601f83011262002839576200283862003e9f565b5b81516200284b8482602086016200268d565b91505092915050565b600082601f8301126200286c576200286b62003e9f565b5b81356200287e84826020860162002729565b91505092915050565b600082601f8301126200289f576200289e62003e9f565b5b8151620028b184826020860162002774565b91505092915050565b600081359050620028cb816200426f565b92915050565b600081359050620028e28162004280565b92915050565b600082601f8301126200290057620028ff62003e9f565b5b813562002912848260208601620027bf565b91505092915050565b6000813590506200292c8162004291565b92915050565b600081519050620029438162004291565b92915050565b6000813590506200295a81620042ab565b92915050565b60006020828403121562002979576200297862003eb3565b5b600062002989848285016200280a565b91505092915050565b60008060408385031215620029ac57620029ab62003eb3565b5b600083015167ffffffffffffffff811115620029cd57620029cc62003eae565b5b620029db8582860162002821565b9250506020620029ee8582860162002932565b9150509250929050565b60008060006060848603121562002a145762002a1362003eb3565b5b600062002a2486828701620028d1565b935050602084013567ffffffffffffffff81111562002a485762002a4762003eae565b5b62002a5686828701620028e8565b925050604062002a69868287016200280a565b9150509250925092565b60006020828403121562002a8c5762002a8b62003eb3565b5b600082013567ffffffffffffffff81111562002aad5762002aac62003eae565b5b62002abb84828501620028e8565b91505092915050565b60008060008060008060c0878903121562002ae45762002ae362003eb3565b5b600087013567ffffffffffffffff81111562002b055762002b0462003eae565b5b62002b1389828a01620028e8565b965050602087013567ffffffffffffffff81111562002b375762002b3662003eae565b5b62002b4589828a01620028e8565b955050604062002b5889828a0162002949565b945050606062002b6b89828a0162002949565b935050608062002b7e89828a016200291b565b92505060a062002b9189828a016200291b565b9150509295509295509295565b60006020828403121562002bb75762002bb662003eb3565b5b600062002bc7848285016200291b565b91505092915050565b6000806000806080858703121562002bed5762002bec62003eb3565b5b600062002bfd878288016200291b565b945050602062002c10878288016200280a565b935050604062002c23878288016200291b565b925050606085013567ffffffffffffffff81111562002c475762002c4662003eae565b5b62002c558782880162002854565b91505092959194509250565b6000806040838503121562002c7b5762002c7a62003eb3565b5b600062002c8b858286016200291b565b925050602062002c9e85828601620028ba565b9150509250929050565b6000806040838503121562002cc25762002cc162003eb3565b5b600062002cd2858286016200291b565b925050602062002ce5858286016200291b565b9150509250929050565b60006020828403121562002d085762002d0762003eb3565b5b600062002d188482850162002949565b91505092915050565b60008060006060848603121562002d3d5762002d3c62003eb3565b5b600062002d4d8682870162002949565b935050602062002d60868287016200280a565b925050604062002d738682870162002949565b9150509250925092565b60008060006060848603121562002d995762002d9862003eb3565b5b600062002da98682870162002949565b935050602062002dbc8682870162002949565b925050604062002dcf8682870162002949565b9150509250925092565b600062002de7838362003031565b905092915050565b600062002dfd838362003072565b60208301905092915050565b600062002e178383620030c7565b905092915050565b600062002e2d838362003395565b60208301905092915050565b62002e448162003b6b565b82525050565b62002e558162003b6b565b82525050565b600062002e6882620039bf565b62002e74818562003a46565b93508360208202850162002e88856200397f565b8060005b8581101562002eca578484038952815162002ea8858262002dd9565b945062002eb58362003a01565b925060208a0199505060018101905062002e8c565b50829750879550505050505092915050565b600062002ee982620039ca565b62002ef5818562003a35565b935062002f02836200398f565b8060005b8381101562002f3957815162002f1d888262002def565b975062002f2a8362003a0e565b92505060018101905062002f06565b5085935050505092915050565b600062002f5382620039d5565b62002f5f818562003a57565b93508360208202850162002f73856200399f565b8060005b8581101562002fb5578484038952815162002f93858262002e09565b945062002fa08362003a1b565b925060208a0199505060018101905062002f77565b50829750879550505050505092915050565b600062002fd482620039e0565b62002fe0818562003a68565b935062002fed83620039af565b8060005b838110156200302457815162003008888262002e1f565b9750620030158362003a28565b92505060018101905062002ff1565b5085935050505092915050565b60006200303e82620039eb565b6200304a818562003a79565b93506200305c81856020860162003c52565b620030678162003eb8565b840191505092915050565b6200307d8162003bcb565b82525050565b6200308e8162003bcb565b82525050565b6200309f8162003bdf565b82525050565b620030b08162003bf3565b82525050565b620030c18162003c07565b82525050565b6000620030d482620039f6565b620030e0818562003a8a565b9350620030f281856020860162003c52565b620030fd8162003eb8565b840191505092915050565b60006200311582620039f6565b62003121818562003a9b565b93506200313381856020860162003c52565b6200313e8162003eb8565b840191505092915050565b60006200315860248362003a9b565b9150620031658262003ed6565b604082019050919050565b60006200317f60218362003a9b565b91506200318c8262003f25565b604082019050919050565b6000620031a6601b8362003a9b565b9150620031b38262003f74565b602082019050919050565b6000620031cd60238362003a9b565b9150620031da8262003f9d565b604082019050919050565b6000620031f4602a8362003a9b565b9150620032018262003fec565b604082019050919050565b60006200321b60248362003a9b565b915062003228826200403b565b604082019050919050565b60006200324260458362003a9b565b91506200324f826200408a565b606082019050919050565b600062003269602a8362003a9b565b91506200327682620040ff565b604082019050919050565b600062003290602d8362003a9b565b91506200329d826200414e565b604082019050919050565b6000620032b760158362003a9b565b9150620032c4826200419d565b602082019050919050565b6000620032de600d8362003aac565b9150620032eb82620041c6565b600d82019050919050565b600062003305602f8362003a9b565b91506200331282620041ef565b604082019050919050565b600060608301600083015162003337600086018262002e39565b5060208301516200334c602086018262003373565b506040830151848203604086015262003366828262003031565b9150508091505092915050565b6200337e8162003bb4565b82525050565b6200338f8162003bb4565b82525050565b620033a08162003bbe565b82525050565b620033b18162003bbe565b82525050565b620033cc620033c68262003bbe565b62003d71565b82525050565b6000620033df82620032cf565b9150620033ed8284620033b7565b60018201915081905092915050565b600060208201905062003413600083018462002e4a565b92915050565b600060808201905062003430600083018762002e4a565b6200343f6020830186620030a5565b6200344e6040830185620030a5565b6200345d6060830184620030b6565b95945050505050565b60006080820190506200347d600083018762002e4a565b6200348c6020830186620030a5565b6200349b6040830185620030b6565b620034aa6060830184620030a5565b95945050505050565b6000608082019050620034ca600083018762002e4a565b620034d96020830186620030b6565b620034e86040830185620030a5565b620034f76060830184620030a5565b95945050505050565b600060408201905081810360008301526200351c818562002e5b565b90506200352d602083018462003384565b9392505050565b6000602082019050818103600083015262003550818462002edc565b905092915050565b6000602082019050818103600083015262003574818462002fc7565b905092915050565b6000604082019050818103600083015262003598818562002fc7565b90508181036020830152620035ae818462002f46565b90509392505050565b6000602082019050620035ce600083018462003083565b92915050565b600060a082019050620035eb600083018862003094565b620035fa6020830187620033a6565b81810360408301526200360e818662003108565b90506200361f606083018562002e4a565b6200362e6080830184620033a6565b9695505050505050565b600060c082019050818103600083015262003654818962003108565b905081810360208301526200366a818862003108565b90506200367b6040830187620033a6565b6200368a6060830186620033a6565b62003699608083018562003384565b620036a860a083018462003384565b979650505050505050565b60006020820190508181036000830152620036ce8162003149565b9050919050565b60006020820190508181036000830152620036f08162003170565b9050919050565b60006020820190508181036000830152620037128162003197565b9050919050565b600060208201905081810360008301526200373481620031be565b9050919050565b600060208201905081810360008301526200375681620031e5565b9050919050565b6000602082019050818103600083015262003778816200320c565b9050919050565b600060208201905081810360008301526200379a8162003233565b9050919050565b60006020820190508181036000830152620037bc816200325a565b9050919050565b60006020820190508181036000830152620037de8162003281565b9050919050565b600060208201905081810360008301526200380081620032a8565b9050919050565b600060208201905081810360008301526200382281620032f6565b9050919050565b600060208201905081810360008301526200384581846200331d565b905092915050565b600060208201905062003864600083018462003384565b92915050565b6000602082019050620038816000830184620033a6565b92915050565b60006040820190506200389e6000830185620033a6565b8181036020830152620038b2818462003108565b90509392505050565b6000620038c7620038da565b9050620038d5828262003cbe565b919050565b6000604051905090565b600067ffffffffffffffff82111562003902576200390162003e70565b5b602082029050602081019050919050565b600067ffffffffffffffff82111562003931576200393062003e70565b5b6200393c8262003eb8565b9050602081019050919050565b600067ffffffffffffffff82111562003967576200396662003e70565b5b620039728262003eb8565b9050602081019050919050565b6000819050602082019050919050565b6000819050602082019050919050565b6000819050602082019050919050565b6000819050602082019050919050565b600081519050919050565b600081519050919050565b600081519050919050565b600081519050919050565b600081519050919050565b600081519050919050565b6000602082019050919050565b6000602082019050919050565b6000602082019050919050565b6000602082019050919050565b600082825260208201905092915050565b600082825260208201905092915050565b600082825260208201905092915050565b600082825260208201905092915050565b600082825260208201905092915050565b600082825260208201905092915050565b600082825260208201905092915050565b600081905092915050565b600062003ac48262003bbe565b915062003ad18362003bbe565b92508260ff0382111562003aea5762003ae962003d85565b5b828201905092915050565b600062003b028262003bb4565b915062003b0f8362003bb4565b92508282101562003b255762003b2462003d85565b5b828203905092915050565b600062003b3d8262003bbe565b915062003b4a8362003bbe565b92508282101562003b605762003b5f62003d85565b5b828203905092915050565b600062003b788262003b94565b9050919050565b600081905062003b8f826200423e565b919050565b600073ffffffffffffffffffffffffffffffffffffffff82169050919050565b6000819050919050565b600060ff82169050919050565b600062003bd88262003c1b565b9050919050565b600062003bec8262003b7f565b9050919050565b600062003c008262003bbe565b9050919050565b600062003c148262003bbe565b9050919050565b600062003c288262003c2f565b9050919050565b600062003c3c8262003b94565b9050919050565b82818337600083830152505050565b60005b8381101562003c7257808201518184015260208101905062003c55565b8381111562003c82576000848401525b50505050565b6000600282049050600182168062003ca157607f821691505b6020821081141562003cb85762003cb762003de3565b5b50919050565b62003cc98262003eb8565b810181811067ffffffffffffffff8211171562003ceb5762003cea62003e70565b5b80604052505050565b600062003d018262003bb4565b91507fffffffffffffffffffffffffffffffffffffffffffffffffffffffffffffffff82141562003d375762003d3662003d85565b5b600182019050919050565b600062003d4f8262003bbe565b915060ff82141562003d665762003d6562003d85565b5b600182019050919050565b600062003d7e8262003ec9565b9050919050565b7f4e487b7100000000000000000000000000000000000000000000000000000000600052601160045260246000fd5b7f4e487b7100000000000000000000000000000000000000000000000000000000600052602160045260246000fd5b7f4e487b7100000000000000000000000000000000000000000000000000000000600052602260045260246000fd5b7f4e487b7100000000000000000000000000000000000000000000000000000000600052603160045260246000fd5b7f4e487b7100000000000000000000000000000000000000000000000000000000600052603260045260246000fd5b7f4e487b7100000000000000000000000000000000000000000000000000000000600052604160045260246000fd5b600080fd5b600080fd5b600080fd5b600080fd5b600080fd5b6000601f19601f8301169050919050565b60008160f81b9050919050565b7f5375697461626c697479206d757374206265206265747765656e203120616e6460008201527f2031302e00000000000000000000000000000000000000000000000000000000602082015250565b7f546f207465616368657220616c726561647920686173203320636f757273657360008201527f2e00000000000000000000000000000000000000000000000000000000000000602082015250565b7f537569746162696c69747920616c7265616479206578697374732e0000000000600082015250565b7f546f2074656163686572206d757374206861766520656e6f75676820746f6b6560008201527f6e732e0000000000000000000000000000000000000000000000000000000000602082015250565b7f546f207465616368657220737569746162696c697479206d757374206265206160008201527f74206c6561737420352e00000000000000000000000000000000000000000000602082015250565b7f46726f6d2074656163686572206d757374206861766520656e6f75676820746f60008201527f6b656e2e00000000000000000000000000000000000000000000000000000000602082015250565b7f546f207465616368657220737569746162696c697479206d757374206265206760008201527f726561746572207468616e206f7220657175616c20746f2066726f6d2074656160208201527f636865722e000000000000000000000000000000000000000000000000000000604082015250565b7f46726f6d2074656163686572206d7573742068617665206d6f7265207468616e60008201527f203120636f757273652e00000000000000000000000000000000000000000000602082015250565b7f46726f6d207465616368657220737569746162696c697479206d75737420626560008201527f206c657373207468616e20332e00000000000000000000000000000000000000602082015250565b7f4e6f20636f757273657320617661696c61626c652e0000000000000000000000600082015250565b7f6368616e676520636f7572736500000000000000000000000000000000000000600082015250565b7f546f20746561636865722068617320616c7265616479206265656e206173736960008201527f676e6564203320636f75727365732e0000000000000000000000000000000000602082015250565b6002811062004252576200425162003db4565b5b50565b620042608162003b6b565b81146200426c57600080fd5b50565b600381106200427d57600080fd5b50565b600281106200428e57600080fd5b50565b6200429c8162003bb4565b8114620042a857600080fd5b50565b620042b68162003bbe565b8114620042c257600080fd5b5056fe60806040523480156200001157600080fd5b50604051620021a0380380620021a08339818101604052810190620000379190620002b4565b336000806101000a81548173ffffffffffffffffffffffffffffffffffffffff021916908373ffffffffffffffffffffffffffffffffffffffff16021790555085600190805190602001906200008f92919062000158565b508460029080519060200190620000a892919062000158565b508360ff166002811115620000c257620000c1620004a6565b5b600860016101000a81548160ff02191690836002811115620000e957620000e8620004a6565b5b02179055508260ff166006811115620001075762000106620004a6565b5b600860006101000a81548160ff021916908360068111156200012e576200012d620004a6565b5b0217905550816003819055508060048190555063ffffffff6007819055505050505050506200058c565b82805462000166906200043a565b90600052602060002090601f0160209004810192826200018a5760008555620001d6565b82601f10620001a557805160ff1916838001178555620001d6565b82800160010185558215620001d6579182015b82811115620001d5578251825591602001919060010190620001b8565b5b509050620001e59190620001e9565b5090565b5b8082111562000204576000816000905550600101620001ea565b5090565b60006200021f6200021984620003b7565b6200038e565b9050828152602081018484840111156200023e576200023d62000538565b5b6200024b84828562000404565b509392505050565b600082601f8301126200026b576200026a62000533565b5b81516200027d84826020860162000208565b91505092915050565b600081519050620002978162000558565b92915050565b600081519050620002ae8162000572565b92915050565b60008060008060008060c08789031215620002d457620002d362000542565b5b600087015167ffffffffffffffff811115620002f557620002f46200053d565b5b6200030389828a0162000253565b965050602087015167ffffffffffffffff8111156200032757620003266200053d565b5b6200033589828a0162000253565b95505060406200034889828a016200029d565b94505060606200035b89828a016200029d565b93505060806200036e89828a0162000286565b92505060a06200038189828a0162000286565b9150509295509295509295565b60006200039a620003ad565b9050620003a8828262000470565b919050565b6000604051905090565b600067ffffffffffffffff821115620003d557620003d462000504565b5b620003e08262000547565b9050602081019050919050565b6000819050919050565b600060ff82169050919050565b60005b838110156200042457808201518184015260208101905062000407565b8381111562000434576000848401525b50505050565b600060028204905060018216806200045357607f821691505b602082108114156200046a5762000469620004d5565b5b50919050565b6200047b8262000547565b810181811067ffffffffffffffff821117156200049d576200049c62000504565b5b80604052505050565b7f4e487b7100000000000000000000000000000000000000000000000000000000600052602160045260246000fd5b7f4e487b7100000000000000000000000000000000000000000000000000000000600052602260045260246000fd5b7f4e487b7100000000000000000000000000000000000000000000000000000000600052604160045260246000fd5b600080fd5b600080fd5b600080fd5b600080fd5b6000601f19601f8301169050919050565b6200056381620003ed565b81146200056f57600080fd5b50565b6200057d81620003f7565b81146200058957600080fd5b50565b611c04806200059c6000396000f3fe608060405234801561001057600080fd5b50600436106101165760003560e01c8063367c317c116100a25780638b2bd4a6116100715780638b2bd4a6146102be578063aea5df16146102da578063e53240b6146102f8578063ee1ef2b214610316578063f83eb3951461033257610116565b8063367c317c146102365780636dd7d8ea1461025257806378e979251461028457806379d623df146102a257610116565b80631ea62323116100e95780631ea62323146101935780632cefeb07146101af57806330ad2bc3146101cb5780633197cbb6146101fc578063332982171461021a57610116565b806302d05d3f1461011b57806306fdde03146101395780630f01870b146101575780631132ac2b14610175575b600080fd5b61012361034e565b604051610130919061158d565b60405180910390f35b610141610372565b60405161014e919061165b565b60405180910390f35b61015f610400565b60405161016c919061167d565b60405180910390f35b61017d610406565b60405161018a919061167d565b60405180910390f35b6101ad60048036038101906101a8919061113c565b610410565b005b6101c960048036038101906101c491906110aa565b61041a565b005b6101e560048036038101906101e0919061113c565b610434565b6040516101f3929190611609565b60405180910390f35b6102046106ee565b604051610211919061167d565b60405180910390f35b610234600480360381019061022f9190611050565b6106f4565b005b610250600480360381019061024b91906110f3565b610721565b005b61026c60048036038101906102679190610f4d565b6107c0565b60405161027b93929190611698565b60405180910390f35b61028c610811565b604051610299919061167d565b60405180910390f35b6102bc60048036038101906102b79190610fe9565b610817565b005b6102d860048036038101906102d3919061107d565b61092e565b005b6102e261095b565b6040516102ef9190611639565b60405180910390f35b610300610aac565b60405161030d919061165b565b60405180910390f35b610330600480360381019061032b91906110aa565b610b3a565b005b61034c60048036038101906103479190610f7a565b610b54565b005b60008054906101000a900473ffffffffffffffffffffffffffffffffffffffff1681565b6001805461037f90611933565b80601f01602080910402602001604051908101604052809291908181526020018280546103ab90611933565b80156103f85780601f106103cd576101008083540402835291602001916103f8565b820191906000526020600020905b8154815290600101906020018083116103db57829003601f168201915b505050505081565b60055481565b6000600554905090565b8060058190555050565b8060019080519060200190610430929190610c5b565b5050565b6060600060068054905067ffffffffffffffff81111561045757610456611afe565b5b60405190808252806020026020018201604052801561048a57816020015b60608152602001906001900390816104755790505b50915060008060005b600680549050811015610686575a9250600080600683815481106104ba576104b9611acf565b5b906000526020600020906003020160000160009054906101000a900473ffffffffffffffffffffffffffffffffffffffff1673ffffffffffffffffffffffffffffffffffffffff166006848154811061051657610515611acf565b5b9060005260206000209060030201600101546006858154811061053c5761053b611acf565b5b906000526020600020906003020160020160405161055a9190611576565b60006040518083038185875af1925050503d8060008114610597576040519150601f19603f3d011682016040523d82523d6000602084013e61059c565b606091505b50915091505a93506105ae8884610c2b565b6105f957816105f457826040517fa6a7dbbd0000000000000000000000000000000000000000000000000000000081526004016105eb919061167d565b60405180910390fd5b610652565b816106515760408561060b919061184d565b841015610644576040517f1c26714c00000000000000000000000000000000000000000000000000000000815260040160405180910390fd5b61064e8684610c47565b95505b5b8087848151811061066657610665611acf565b5b60200260200101819052505050808061067e906119ca565b915050610493565b507fdf4eb9388a298d4ffcfdf7f0c74dc60f7dbf6481fd0f774fae678d0ad102c24e60008054906101000a900473ffffffffffffffffffffffffffffffffffffffff1660068786886040516106df9594939291906115a8565b60405180910390a15050915091565b60045481565b80600860016101000a81548160ff0219169083600281111561071957610718611a71565b5b021790555050565b600681908060018154018082558091505060019003906000526020600020906003020160009091909190915060008201518160000160006101000a81548173ffffffffffffffffffffffffffffffffffffffff021916908373ffffffffffffffffffffffffffffffffffffffff1602179055506020820151816001015560408201518160020190805190602001906107ba929190610ce1565b50505050565b60096020528060005260406000206000915090508060000160009054906101000a900460ff16908060000160019054906101000a900460ff16908060000160029054906101000a900460ff16905083565b60035481565b82600960008673ffffffffffffffffffffffffffffffffffffffff1673ffffffffffffffffffffffffffffffffffffffff16815260200190815260200160002060000160006101000a81548160ff021916908360ff16021790555081600960008673ffffffffffffffffffffffffffffffffffffffff1673ffffffffffffffffffffffffffffffffffffffff16815260200190815260200160002060000160016101000a81548160ff021916908360ff16021790555080600960008673ffffffffffffffffffffffffffffffffffffffff1673ffffffffffffffffffffffffffffffffffffffff16815260200190815260200160002060000160026101000a81548160ff021916908360ff16021790555050505050565b80600860006101000a81548160ff0219169083600681111561095357610952611a71565b5b021790555050565b60606006805480602002602001604051908101604052809291908181526020016000905b82821015610aa357838290600052602060002090600302016040518060600160405290816000820160009054906101000a900473ffffffffffffffffffffffffffffffffffffffff1673ffffffffffffffffffffffffffffffffffffffff1673ffffffffffffffffffffffffffffffffffffffff16815260200160018201548152602001600282018054610a1290611933565b80601f0160208091040260200160405190810160405280929190818152602001828054610a3e90611933565b8015610a8b5780601f10610a6057610100808354040283529160200191610a8b565b820191906000526020600020905b815481529060010190602001808311610a6e57829003601f168201915b5050505050815250508152602001906001019061097f565b50505050905090565b60028054610ab990611933565b80601f0160208091040260200160405190810160405280929190818152602001828054610ae590611933565b8015610b325780601f10610b0757610100808354040283529160200191610b32565b820191906000526020600020905b815481529060010190602001808311610b1557829003601f168201915b505050505081565b8060029080519060200190610b50929190610c5b565b5050565b600060405180606001604052808573ffffffffffffffffffffffffffffffffffffffff168152602001848152602001838152509050600681908060018154018082558091505060019003906000526020600020906003020160009091909190915060008201518160000160006101000a81548173ffffffffffffffffffffffffffffffffffffffff021916908373ffffffffffffffffffffffffffffffffffffffff160217905550602082015181600101556040820151816002019080519060200190610c22929190610ce1565b50505050505050565b6000808260ff166001901b841690506000811191505092915050565b60008160ff166001901b8318905092915050565b828054610c6790611933565b90600052602060002090601f016020900481019282610c895760008555610cd0565b82601f10610ca257805160ff1916838001178555610cd0565b82800160010185558215610cd0579182015b82811115610ccf578251825591602001919060010190610cb4565b5b509050610cdd9190610d67565b5090565b828054610ced90611933565b90600052602060002090601f016020900481019282610d0f5760008555610d56565b82601f10610d2857805160ff1916838001178555610d56565b82800160010185558215610d56579182015b82811115610d55578251825591602001919060010190610d3a565b5b509050610d639190610d67565b5090565b5b80821115610d80576000816000905550600101610d68565b5090565b6000610d97610d92846116f4565b6116cf565b905082815260208101848484011115610db357610db2611b3c565b5b610dbe8482856118f1565b509392505050565b6000610dd9610dd484611725565b6116cf565b905082815260208101848484011115610df557610df4611b3c565b5b610e008482856118f1565b509392505050565b600081359050610e1781611b69565b92915050565b600082601f830112610e3257610e31611b2d565b5b8135610e42848260208601610d84565b91505092915050565b600081359050610e5a81611b80565b92915050565b600081359050610e6f81611b90565b92915050565b600082601f830112610e8a57610e89611b2d565b5b8135610e9a848260208601610dc6565b91505092915050565b600060608284031215610eb957610eb8611b32565b5b610ec360606116cf565b90506000610ed384828501610e08565b6000830152506020610ee784828501610f23565b602083015250604082013567ffffffffffffffff811115610f0b57610f0a611b37565b5b610f1784828501610e1d565b60408301525092915050565b600081359050610f3281611ba0565b92915050565b600081359050610f4781611bb7565b92915050565b600060208284031215610f6357610f62611b46565b5b6000610f7184828501610e08565b91505092915050565b600080600060608486031215610f9357610f92611b46565b5b6000610fa186828701610e08565b9350506020610fb286828701610f23565b925050604084013567ffffffffffffffff811115610fd357610fd2611b41565b5b610fdf86828701610e1d565b9150509250925092565b6000806000806080858703121561100357611002611b46565b5b600061101187828801610e08565b945050602061102287828801610f38565b935050604061103387828801610f38565b925050606061104487828801610f38565b91505092959194509250565b60006020828403121561106657611065611b46565b5b600061107484828501610e4b565b91505092915050565b60006020828403121561109357611092611b46565b5b60006110a184828501610e60565b91505092915050565b6000602082840312156110c0576110bf611b46565b5b600082013567ffffffffffffffff8111156110de576110dd611b41565b5b6110ea84828501610e75565b91505092915050565b60006020828403121561110957611108611b46565b5b600082013567ffffffffffffffff81111561112757611126611b41565b5b61113384828501610ea3565b91505092915050565b60006020828403121561115257611151611b46565b5b600061116084828501610f23565b91505092915050565b60006111758383611321565b905092915050565b60006111898383611492565b905092915050565b600061119d83836114e2565b905092915050565b6111ae816118a8565b82525050565b6111bd816118a8565b82525050565b60006111ce826117a0565b6111d881856117fe565b9350836020820285016111ea85611756565b8060005b8581101561122657848403895281516112078582611169565b9450611212836117d7565b925060208a019950506001810190506111ee565b50829750879550505050505092915050565b6000611243826117ab565b61124d818561180f565b93508360208202850161125f85611766565b8060005b8581101561129b578484038952815161127c858261117d565b9450611287836117e4565b925060208a01995050600181019050611263565b50829750879550505050505092915050565b60006112b8826117b6565b6112c2818561180f565b9350836020820285016112d485611776565b8060005b8581101561130f578484038952816112f08582611191565b94506112fb836117f1565b925060208a019950506001810190506112d8565b50829750879550505050505092915050565b600061132c826117c1565b6113368185611820565b9350611346818560208601611900565b61134f81611b4b565b840191505092915050565b6000815461136781611933565b6113718186611820565b9450600182166000811461138c576001811461139e576113d1565b60ff19831686526020860193506113d1565b6113a78561178b565b60005b838110156113c9578154818901526001820191506020810190506113aa565b808801955050505b50505092915050565b600081546113e781611933565b6113f18186611831565b9450600182166000811461140c576001811461141d57611450565b60ff19831686528186019350611450565b6114268561178b565b60005b8381101561144857815481890152600182019150602081019050611429565b838801955050505b50505092915050565b6000611464826117cc565b61146e818561183c565b935061147e818560208601611900565b61148781611b4b565b840191505092915050565b60006060830160008301516114aa60008601826111a5565b5060208301516114bd6020860182611549565b50604083015184820360408601526114d58282611321565b9150508091505092915050565b60006060830160008084015490506114f981611965565b61150660008701826111a5565b50600184015490506115178161197f565b6115246020870182611549565b5060028401858303604087015261153b838261135a565b925050819250505092915050565b611552816118da565b82525050565b611561816118da565b82525050565b611570816118e4565b82525050565b600061158282846113da565b915081905092915050565b60006020820190506115a260008301846111b4565b92915050565b600060a0820190506115bd60008301886111b4565b81810360208301526115cf81876112ad565b90506115de6040830186611558565b6115eb6060830185611558565b81810360808301526115fd81846111c3565b90509695505050505050565b6000604082019050818103600083015261162381856111c3565b90506116326020830184611558565b9392505050565b600060208201905081810360008301526116538184611238565b905092915050565b600060208201905081810360008301526116758184611459565b905092915050565b60006020820190506116926000830184611558565b92915050565b60006060820190506116ad6000830186611567565b6116ba6020830185611567565b6116c76040830184611567565b949350505050565b60006116d96116ea565b90506116e58282611999565b919050565b6000604051905090565b600067ffffffffffffffff82111561170f5761170e611afe565b5b61171882611b4b565b9050602081019050919050565b600067ffffffffffffffff8211156117405761173f611afe565b5b61174982611b4b565b9050602081019050919050565b6000819050602082019050919050565b6000819050602082019050919050565b60008190508160005260206000209050919050565b60008190508160005260206000209050919050565b600081519050919050565b600081519050919050565b600081549050919050565b600081519050919050565b600081519050919050565b6000602082019050919050565b6000602082019050919050565b6000600382019050919050565b600082825260208201905092915050565b600082825260208201905092915050565b600082825260208201905092915050565b600081905092915050565b600082825260208201905092915050565b6000611858826118da565b9150611863836118da565b92508261187357611872611a42565b5b828204905092915050565b600073ffffffffffffffffffffffffffffffffffffffff82169050919050565b6000819050919050565b60006118b3826118ba565b9050919050565b600073ffffffffffffffffffffffffffffffffffffffff82169050919050565b6000819050919050565b600060ff82169050919050565b82818337600083830152505050565b60005b8381101561191e578082015181840152602081019050611903565b8381111561192d576000848401525b50505050565b6000600282049050600182168061194b57607f821691505b6020821081141561195f5761195e611aa0565b5b50919050565b600061197861197383611b5c565b61187e565b9050919050565b600061199261198d83611b5c565b61189e565b9050919050565b6119a282611b4b565b810181811067ffffffffffffffff821117156119c1576119c0611afe565b5b80604052505050565b60006119d5826118da565b91507fffffffffffffffffffffffffffffffffffffffffffffffffffffffffffffffff821415611a0857611a07611a13565b5b600182019050919050565b7f4e487b7100000000000000000000000000000000000000000000000000000000600052601160045260246000fd5b7f4e487b7100000000000000000000000000000000000000000000000000000000600052601260045260246000fd5b7f4e487b7100000000000000000000000000000000000000000000000000000000600052602160045260246000fd5b7f4e487b7100000000000000000000000000000000000000000000000000000000600052602260045260246000fd5b7f4e487b7100000000000000000000000000000000000000000000000000000000600052603260045260246000fd5b7f4e487b7100000000000000000000000000000000000000000000000000000000600052604160045260246000fd5b600080fd5b600080fd5b600080fd5b600080fd5b600080fd5b600080fd5b6000601f19601f8301169050919050565b60008160001c9050919050565b611b72816118a8565b8114611b7d57600080fd5b50565b60038110611b8d57600080fd5b50565b60078110611b9d57600080fd5b50565b611ba9816118da565b8114611bb457600080fd5b50565b611bc0816118e4565b8114611bcb57600080fd5b5056fea26469706673582212207af2d9b88d75356380f23468159830e09d23967e82aa8803c1684ed6740bb79f64736f6c63430008070033a2646970667358221220ed92f292a4334622d5fd1820ebd34b49a70b5f574404ef02097ee5aec5a1180164736f6c63430008070033",
  "immutableReferences": {},
  "source": "// \r\n// SPDX-License-Identifier: GPL-3.0-or-later\r\n\r\npragma solidity ^0.8.7;\r\nimport {Action,baseproposal} from \"./newContracts/baseproposal.sol\";\r\n\r\ncontract teachingSchedule {\r\n    enum teacherKind{\r\n        TEACHER,\r\n        AI\r\n    }\r\n\r\n    enum VoteChoice {\r\n        Approval,\r\n        Reject,\r\n        abstain\r\n    }\r\n\r\n    struct Teacher {\r\n        teacherKind kind;\r\n        uint8 id;\r\n        string name;\r\n        address teacherAddress;\r\n        uint8[] assignedCourses;   // \r\n        uint8 token;\r\n        bool[] voted; // \r\n        VoteChoice[] choice; // \r\n    }\r\n\r\n    struct Course {\r\n        uint8 id;\r\n        string name;\r\n        mapping(uint8 => uint8) suitabilityToTeacher; // 1-10\r\n    }\r\n\r\n    // \r\n    baseproposal[] public proposals;\r\n\r\n\r\n    mapping(address => Teacher) public teachers;\r\n    mapping(uint8 => address) public id2TeacherAddress;\r\n    mapping(uint8 => Course) public courses;\r\n\r\n    uint8 public teacherCount = 0;\r\n    uint8 public aiCount = 0;\r\n    uint8 public courseCount = 0;\r\n\r\n\r\n    constructor(){\r\n    }\r\n\r\n    // \r\n    function proposalList() public view returns (baseproposal[] memory) {\r\n        return proposals;\r\n    }\r\n\r\n    function createProposal(\r\n        string memory _name, \r\n        string memory _discription,\r\n        uint8 _proposalKind,\r\n        uint8 _proposalStatus,\r\n        uint _startTime,\r\n        uint _endTime\r\n    ) public {\r\n        baseproposal new_proposal = new baseproposal(\r\n            _name, _discription, _proposalKind, _proposalStatus, _startTime, _endTime\r\n        );\r\n        proposals.push(new_proposal);\r\n        for (uint8 i = 1; i <= teacherCount; i++) {\r\n            //   \r\n            address now_address = id2TeacherAddress[i];\r\n            teachers[now_address].voted.push(false);\r\n        }\r\n    }\r\n\r\n    function proposal_execute(\r\n        uint256 idx,\r\n        uint256 _allowFailureMap\r\n    )public returns(bytes[] memory execResults, uint256 failureMap){\r\n        return proposals[idx].execute_actions(_allowFailureMap);\r\n    }\r\n\r\n    // actions\r\n    function set_proposal_actions(\r\n        uint256 idx,\r\n        address fuction_address, \r\n        uint256 money,\r\n        bytes memory _data // abi encode ) public{\r\n    )public{\r\n        Action memory action = Action({\r\n            to: fuction_address,\r\n            value: money,\r\n            data: _data\r\n        });\r\n        proposals[idx].addactions(action);\r\n    }\r\n\r\n    // \r\n    function vote(uint256 idx, VoteChoice chioce) public{\r\n        address now_address = msg.sender;\r\n        teachers[now_address].voted[idx] = true;\r\n        uint256 now_weight = teachers[now_address].token;\r\n        proposals[idx].setvoteCounts(now_weight);\r\n        if(chioce == VoteChoice.Approval){\r\n            proposals[idx].setvote(now_address,1,0,0);\r\n            teachers[now_address].choice[idx] = VoteChoice.Approval;\r\n        }\r\n        if(chioce == VoteChoice.Reject){\r\n            proposals[idx].setvote(now_address,0,1,0);\r\n            teachers[now_address].choice[idx] = VoteChoice.Reject;\r\n        }\r\n        if(chioce == VoteChoice.abstain){\r\n            proposals[idx].setvote(now_address,0,0,1);\r\n            teachers[now_address].choice[idx] = VoteChoice.abstain;\r\n        }\r\n        teachers[now_address].voted[idx] = true;\r\n        teachers[now_address].token += 1;\r\n    }\r\n\r\n    // \r\n    function addTeacher(teacherKind kind, string memory _name, address teacherAddress) public {\r\n        teacherCount++;\r\n        teachers[teacherAddress].kind = kind;\r\n        teachers[teacherAddress].id = teacherCount;\r\n        teachers[teacherAddress].name = _name;\r\n        id2TeacherAddress[teacherCount] = teacherAddress;\r\n        teachers[teacherAddress].token = 10;\r\n    }\r\n\r\n    // \r\n    function addCourse(string memory _name) public {\r\n        courseCount++;\r\n        courses[courseCount].id = courseCount;\r\n        courses[courseCount].name = _name;\r\n    }\r\n    \r\n    // \r\n    function suitablityToTeacher(uint8 _courseId, address _teacherAddress, uint8 _suitablity) public {\r\n        uint8 _teacherId = teachers[_teacherAddress].id;\r\n        require(_suitablity<= 10, \"Suitablity must be between 1 and 10.\");\r\n        require(courses[_courseId].suitabilityToTeacher[_teacherId]== 0, \"Suitability already exists.\");\r\n        courses[_courseId].suitabilityToTeacher[_teacherId] = _suitablity;\r\n    }\r\n\r\n    // AI\r\n    function getBestCandidate(uint8 _courseId) internal view returns (address) {\r\n\r\n        uint8 maxSuitability = 0;\r\n        address bestCandidate;\r\n        require (courseCount > 0, \"No courses available.\");\r\n\r\n        // \r\n        for (uint8 i = 1; i <= teacherCount; i++) {\r\n            address teacherAddr = id2TeacherAddress[i];\r\n            if(teachers[teacherAddr].assignedCourses.length >= 3) continue;\r\n            uint8 suitability = courses[_courseId].suitabilityToTeacher[i];\r\n            if (suitability > maxSuitability) {\r\n                maxSuitability = suitability;\r\n                bestCandidate = teacherAddr;\r\n            }\r\n        }\r\n\r\n        return bestCandidate;\r\n    }\r\n\r\n    // AI\r\n    function allocateCourse(uint8 _courseId) public {\r\n        address bestCandidate = getBestCandidate(_courseId);\r\n\r\n        // \r\n        Teacher storage teacher = teachers[bestCandidate];\r\n        teacher.assignedCourses.push(_courseId);\r\n    }\r\n\r\n    // fromIdtoId\r\n    function transferCourse(uint8 _courseId, uint8 fromId, uint8 toId) public {\r\n        Teacher storage fromTeacher = teachers[id2TeacherAddress[fromId]];\r\n        Teacher storage toTeacher = teachers[id2TeacherAddress[toId]];\r\n\r\n        // fromIdtoken\r\n        require(fromTeacher.token > 1, \"From teacher must have enough token.\");\r\n\r\n        // fromId3\r\n        uint8 suitabilityFrom = courses[_courseId].suitabilityToTeacher[fromId];\r\n        require(suitabilityFrom <= 3, \"From teacher suitability must be less than 3.\");\r\n\r\n        // toId3\r\n        require(toTeacher.assignedCourses.length < 3, \"To teacher has already been assigned 3 courses.\");\r\n\r\n        // toId5\r\n        uint8 suitabilityTo = courses[_courseId].suitabilityToTeacher[toId];\r\n        require(suitabilityTo >= 5, \"To teacher suitability must be at least 5.\");\r\n\r\n        // fromIdtoken\r\n        fromTeacher.token -= 2;\r\n\r\n        // fromId\r\n        for (uint i = 0; i < fromTeacher.assignedCourses.length; i++) {\r\n            if (fromTeacher.assignedCourses[i] == _courseId) {\r\n                fromTeacher.assignedCourses[i] = fromTeacher.assignedCourses[fromTeacher.assignedCourses.length - 1];\r\n                fromTeacher.assignedCourses.pop();\r\n                break;\r\n            }\r\n        }\r\n\r\n        // toId\r\n        toTeacher.assignedCourses.push(_courseId);\r\n    }\r\n\r\n    // \r\n    function requestCourse(uint8 _courseId, uint8 fromId, uint8 toId) public {\r\n        Teacher storage fromTeacher = teachers[id2TeacherAddress[fromId]];\r\n        Teacher storage toTeacher = teachers[id2TeacherAddress[toId]];\r\n\r\n        // toId3\r\n        require(toTeacher.assignedCourses.length < 3, \"To teacher already has 3 courses.\");\r\n\r\n        // fromId1\r\n        require(fromTeacher.assignedCourses.length > 1, \"From teacher must have more than 1 course.\");\r\n\r\n        // toIdtoken1\r\n        require(toTeacher.token > 1, \"To teacher must have enough tokens.\");\r\n        toTeacher.token -= 1;\r\n\r\n        // toId5\r\n        uint8 suitabilityTo = courses[_courseId].suitabilityToTeacher[toId];\r\n        require(suitabilityTo >= 5, \"To teacher suitability must be at least 5.\");\r\n\r\n        // toIdfromId\r\n        uint8 suitabilityFrom = courses[_courseId].suitabilityToTeacher[fromId];\r\n        require(suitabilityTo >= suitabilityFrom, \"To teacher suitability must be greater than or equal to from teacher.\");\r\n\r\n        // \r\n        if (suitabilityTo == suitabilityFrom) {\r\n            // \r\n            string memory _name = string(abi.encodePacked(\"change course\", _courseId));\r\n            createProposal(_name, _name, 0, 0, 0 ,0);\r\n\r\n        } else {\r\n            // fromId\r\n            for (uint i = 0; i < fromTeacher.assignedCourses.length; i++) {\r\n                if (fromTeacher.assignedCourses[i] == _courseId) {\r\n                    fromTeacher.assignedCourses[i] = fromTeacher.assignedCourses[fromTeacher.assignedCourses.length - 1];\r\n                    fromTeacher.assignedCourses.pop();\r\n                    break;\r\n                }\r\n            }\r\n            // toId\r\n            toTeacher.assignedCourses.push(_courseId);\r\n        }\r\n    }\r\n\r\n    // \r\n    function getAssignedCourses(address _teacherAddress) public view returns (uint8[] memory) {\r\n        return teachers[_teacherAddress].assignedCourses;\r\n    }\r\n\r\n    //  id  name\r\n    function getAllCourses() public view returns (uint8[] memory, string[] memory) {\r\n        uint8[] memory courseIds = new uint8[](courseCount);\r\n        string[] memory courseNames = new string[](courseCount);\r\n\r\n        for (uint8 i = 0; i < courseCount; i++) {\r\n            courseIds[i] = courses[i+1].id;\r\n            courseNames[i] = courses[i+1].name;\r\n        }\r\n\r\n        return (courseIds, courseNames);\r\n    }\r\n\r\n    function getCourseCount() public view returns (uint8){\r\n        return courseCount;\r\n    }\r\n}",
  "sourcePath": "E:\\\\paper\\DAO\\test\\project\\contracts\\teachingSchedule.sol",
  "compiler": {
    "name": "solc",
    "version": "0.8.7+commit.e28d00a7.Emscripten.clang"
  },
  "schemaVersion": "3.4.16",
  "updatedAt": "2025-03-13T03:10:50.855Z",
  "devdoc": {
    "kind": "dev",
    "methods": {},
    "version": 1
  },
  "userdoc": {
    "kind": "user",
    "methods": {},
    "version": 1
  }
}