{
  "contractName": "TeacherVote",
  "abi": [
    {
      "inputs": [
        {
          "internalType": "address",
          "name": "_courseAllocationAddress",
          "type": "address"
        }
      ],
      "stateMutability": "nonpayable",
      "type": "constructor"
    },
    {
      "anonymous": false,
      "inputs": [
        {
          "indexed": true,
          "internalType": "uint256",
          "name": "proposalId",
          "type": "uint256"
        },
        {
          "indexed": true,
          "internalType": "uint256",
          "name": "courseId",
          "type": "uint256"
        },
        {
          "indexed": false,
          "internalType": "uint256",
          "name": "suitabilityProposalId",
          "type": "uint256"
        }
      ],
      "name": "NewCombinedProposal",
      "type": "event"
    },
    {
      "anonymous": false,
      "inputs": [
        {
          "indexed": false,
          "internalType": "uint256",
          "name": "proposalId",
          "type": "uint256"
        },
        {
          "indexed": false,
          "internalType": "string",
          "name": "description",
          "type": "string"
        }
      ],
      "name": "ProposalCreated",
      "type": "event"
    },
    {
      "anonymous": false,
      "inputs": [
        {
          "indexed": true,
          "internalType": "uint256",
          "name": "proposalId",
          "type": "uint256"
        },
        {
          "indexed": false,
          "internalType": "uint256",
          "name": "avgImportance",
          "type": "uint256"
        },
        {
          "indexed": false,
          "internalType": "bool",
          "name": "isAgentSuitable",
          "type": "bool"
        }
      ],
      "name": "ProposalExecuted",
      "type": "event"
    },
    {
      "inputs": [],
      "name": "courseAllocation",
      "outputs": [
        {
          "internalType": "contract ICourseAllocation",
          "name": "",
          "type": "address"
        }
      ],
      "stateMutability": "view",
      "type": "function",
      "constant": true
    },
    {
      "inputs": [
        {
          "internalType": "string",
          "name": "_description",
          "type": "string"
        },
        {
          "internalType": "uint256",
          "name": "_voteforID",
          "type": "uint256"
        },
        {
          "internalType": "uint256[]",
          "name": "_votedIds",
          "type": "uint256[]"
        },
        {
          "internalType": "uint256",
          "name": "_totalVote",
          "type": "uint256"
        }
      ],
      "name": "createChooseCourseProposal",
      "outputs": [
        {
          "internalType": "uint256",
          "name": "",
          "type": "uint256"
        }
      ],
      "stateMutability": "nonpayable",
      "type": "function"
    },
    {
      "inputs": [
        {
          "internalType": "string",
          "name": "_description",
          "type": "string"
        },
        {
          "internalType": "uint256",
          "name": "_voteforID",
          "type": "uint256"
        },
        {
          "internalType": "uint256[]",
          "name": "_votedIds",
          "type": "uint256[]"
        },
        {
          "internalType": "uint256",
          "name": "_totalVote",
          "type": "uint256"
        }
      ],
      "name": "createChooseTeacherProposal",
      "outputs": [
        {
          "internalType": "uint256",
          "name": "",
          "type": "uint256"
        }
      ],
      "stateMutability": "nonpayable",
      "type": "function"
    },
    {
      "inputs": [
        {
          "internalType": "string",
          "name": "_description",
          "type": "string"
        },
        {
          "internalType": "uint256",
          "name": "_voteforID",
          "type": "uint256"
        },
        {
          "internalType": "uint256[]",
          "name": "_votedIds",
          "type": "uint256[]"
        },
        {
          "internalType": "uint256[]",
          "name": "_votedCounts",
          "type": "uint256[]"
        },
        {
          "internalType": "uint256",
          "name": "_totalVote",
          "type": "uint256"
        }
      ],
      "name": "createMachineProposal",
      "outputs": [
        {
          "internalType": "uint256",
          "name": "",
          "type": "uint256"
        }
      ],
      "stateMutability": "nonpayable",
      "type": "function"
    },
    {
      "inputs": [
        {
          "internalType": "string",
          "name": "_description",
          "type": "string"
        },
        {
          "internalType": "uint256",
          "name": "_voteforID",
          "type": "uint256"
        },
        {
          "internalType": "uint256[]",
          "name": "_votedIds",
          "type": "uint256[]"
        },
        {
          "internalType": "uint256[]",
          "name": "_votedCounts",
          "type": "uint256[]"
        }
      ],
      "name": "createMachineVoteProposal",
      "outputs": [
        {
          "internalType": "uint256",
          "name": "",
          "type": "uint256"
        }
      ],
      "stateMutability": "nonpayable",
      "type": "function"
    },
    {
      "inputs": [
        {
          "internalType": "string",
          "name": "_description",
          "type": "string"
        },
        {
          "internalType": "uint256",
          "name": "_voteforID",
          "type": "uint256"
        },
        {
          "internalType": "uint256[]",
          "name": "_votedIds",
          "type": "uint256[]"
        },
        {
          "internalType": "uint256",
          "name": "_totalVote",
          "type": "uint256"
        }
      ],
      "name": "createProposalMultiple",
      "outputs": [
        {
          "internalType": "uint256",
          "name": "",
          "type": "uint256"
        }
      ],
      "stateMutability": "nonpayable",
      "type": "function"
    },
    {
      "inputs": [
        {
          "internalType": "uint256",
          "name": "_proposalId",
          "type": "uint256"
        }
      ],
      "name": "endVoteChooseCourse",
      "outputs": [
        {
          "internalType": "uint256",
          "name": "",
          "type": "uint256"
        },
        {
          "internalType": "uint256",
          "name": "",
          "type": "uint256"
        },
        {
          "internalType": "uint256[]",
          "name": "",
          "type": "uint256[]"
        },
        {
          "internalType": "uint256[]",
          "name": "",
          "type": "uint256[]"
        }
      ],
      "stateMutability": "view",
      "type": "function",
      "constant": true
    },
    {
      "inputs": [
        {
          "internalType": "uint256",
          "name": "_proposalId",
          "type": "uint256"
        }
      ],
      "name": "endVoteChooseTeacher",
      "outputs": [
        {
          "internalType": "uint256",
          "name": "",
          "type": "uint256"
        },
        {
          "internalType": "uint256",
          "name": "",
          "type": "uint256"
        },
        {
          "internalType": "uint256[]",
          "name": "",
          "type": "uint256[]"
        },
        {
          "internalType": "uint256[]",
          "name": "",
          "type": "uint256[]"
        }
      ],
      "stateMutability": "view",
      "type": "function",
      "constant": true
    },
    {
      "inputs": [
        {
          "internalType": "uint256",
          "name": "_proposalId",
          "type": "uint256"
        }
      ],
      "name": "endVoteMultiple",
      "outputs": [
        {
          "internalType": "uint256",
          "name": "",
          "type": "uint256"
        },
        {
          "internalType": "uint256",
          "name": "",
          "type": "uint256"
        },
        {
          "internalType": "uint256[]",
          "name": "",
          "type": "uint256[]"
        },
        {
          "internalType": "uint256[]",
          "name": "",
          "type": "uint256[]"
        }
      ],
      "stateMutability": "view",
      "type": "function",
      "constant": true
    },
    {
      "inputs": [
        {
          "internalType": "uint256",
          "name": "_proposalId",
          "type": "uint256"
        },
        {
          "internalType": "uint256",
          "name": "_voteId",
          "type": "uint256"
        }
      ],
      "name": "getVoteIdToCount",
      "outputs": [
        {
          "internalType": "uint256",
          "name": "",
          "type": "uint256"
        }
      ],
      "stateMutability": "view",
      "type": "function",
      "constant": true
    },
    {
      "inputs": [
        {
          "internalType": "uint256",
          "name": "_proposalId",
          "type": "uint256"
        }
      ],
      "name": "getVotedIds",
      "outputs": [
        {
          "internalType": "uint256[]",
          "name": "",
          "type": "uint256[]"
        },
        {
          "internalType": "uint256",
          "name": "",
          "type": "uint256"
        }
      ],
      "stateMutability": "view",
      "type": "function",
      "constant": true
    },
    {
      "inputs": [],
      "name": "proposalCount",
      "outputs": [
        {
          "internalType": "uint256",
          "name": "",
          "type": "uint256"
        }
      ],
      "stateMutability": "view",
      "type": "function",
      "constant": true
    },
    {
      "inputs": [
        {
          "internalType": "uint256",
          "name": "",
          "type": "uint256"
        }
      ],
      "name": "proposalMultipleIds",
      "outputs": [
        {
          "internalType": "uint256",
          "name": "",
          "type": "uint256"
        }
      ],
      "stateMutability": "view",
      "type": "function",
      "constant": true
    },
    {
      "inputs": [
        {
          "internalType": "uint256",
          "name": "",
          "type": "uint256"
        }
      ],
      "name": "proposalMultiples",
      "outputs": [
        {
          "internalType": "uint256",
          "name": "id",
          "type": "uint256"
        },
        {
          "internalType": "string",
          "name": "description",
          "type": "string"
        },
        {
          "internalType": "uint256",
          "name": "voteforID",
          "type": "uint256"
        },
        {
          "internalType": "uint256",
          "name": "voteCount",
          "type": "uint256"
        },
        {
          "internalType": "uint256",
          "name": "totalVote",
          "type": "uint256"
        }
      ],
      "stateMutability": "view",
      "type": "function",
      "constant": true
    },
    {
      "inputs": [
        {
          "internalType": "uint256",
          "name": "",
          "type": "uint256"
        }
      ],
      "name": "proposals",
      "outputs": [
        {
          "internalType": "uint256",
          "name": "courseId",
          "type": "uint256"
        },
        {
          "internalType": "uint256",
          "name": "totalRating",
          "type": "uint256"
        },
        {
          "internalType": "uint256",
          "name": "raterCount",
          "type": "uint256"
        },
        {
          "internalType": "uint256",
          "name": "suitabilityProposalId",
          "type": "uint256"
        },
        {
          "internalType": "bool",
          "name": "executed",
          "type": "bool"
        },
        {
          "internalType": "uint256",
          "name": "agreeCount",
          "type": "uint256"
        },
        {
          "internalType": "uint256",
          "name": "disagreeCount",
          "type": "uint256"
        }
      ],
      "stateMutability": "view",
      "type": "function",
      "constant": true
    },
    {
      "inputs": [
        {
          "internalType": "address",
          "name": "_voter",
          "type": "address"
        }
      ],
      "name": "registerVoter",
      "outputs": [],
      "stateMutability": "nonpayable",
      "type": "function"
    },
    {
      "inputs": [
        {
          "internalType": "uint256",
          "name": "",
          "type": "uint256"
        },
        {
          "internalType": "address",
          "name": "",
          "type": "address"
        }
      ],
      "name": "suitabilityVotes",
      "outputs": [
        {
          "internalType": "bool",
          "name": "",
          "type": "bool"
        }
      ],
      "stateMutability": "view",
      "type": "function",
      "constant": true
    },
    {
      "inputs": [
        {
          "internalType": "uint256",
          "name": "",
          "type": "uint256"
        },
        {
          "internalType": "uint256",
          "name": "",
          "type": "uint256"
        }
      ],
      "name": "teacherRatings",
      "outputs": [
        {
          "internalType": "uint256",
          "name": "rating",
          "type": "uint256"
        },
        {
          "internalType": "bool",
          "name": "hasRated",
          "type": "bool"
        }
      ],
      "stateMutability": "view",
      "type": "function",
      "constant": true
    },
    {
      "inputs": [
        {
          "internalType": "address",
          "name": "voterAddress",
          "type": "address"
        },
        {
          "internalType": "uint256",
          "name": "_proposalId",
          "type": "uint256"
        },
        {
          "internalType": "uint256",
          "name": "_voteId",
          "type": "uint256"
        }
      ],
      "name": "voteChooseCourse",
      "outputs": [],
      "stateMutability": "nonpayable",
      "type": "function"
    },
    {
      "inputs": [
        {
          "internalType": "address",
          "name": "voterAddress",
          "type": "address"
        },
        {
          "internalType": "uint256",
          "name": "_proposalId",
          "type": "uint256"
        },
        {
          "internalType": "uint256",
          "name": "_voteId",
          "type": "uint256"
        }
      ],
      "name": "voteChooseTeacher",
      "outputs": [],
      "stateMutability": "nonpayable",
      "type": "function"
    },
    {
      "inputs": [
        {
          "internalType": "address",
          "name": "voter",
          "type": "address"
        },
        {
          "internalType": "uint256",
          "name": "_proposalId",
          "type": "uint256"
        },
        {
          "internalType": "uint256",
          "name": "_voteId",
          "type": "uint256"
        }
      ],
      "name": "voteMultiple",
      "outputs": [],
      "stateMutability": "nonpayable",
      "type": "function"
    },
    {
      "inputs": [
        {
          "internalType": "address",
          "name": "",
          "type": "address"
        }
      ],
      "name": "voters",
      "outputs": [
        {
          "internalType": "uint256",
          "name": "id",
          "type": "uint256"
        },
        {
          "internalType": "address",
          "name": "voter",
          "type": "address"
        },
        {
          "internalType": "uint256",
          "name": "weight",
          "type": "uint256"
        }
      ],
      "stateMutability": "view",
      "type": "function",
      "constant": true
    },
    {
      "inputs": [
        {
          "internalType": "uint256",
          "name": "",
          "type": "uint256"
        }
      ],
      "name": "votersAddress",
      "outputs": [
        {
          "internalType": "address",
          "name": "",
          "type": "address"
        }
      ],
      "stateMutability": "view",
      "type": "function",
      "constant": true
    },
    {
      "inputs": [
        {
          "internalType": "address",
          "name": "_addr",
          "type": "address"
        }
      ],
      "name": "setCourseAllocation",
      "outputs": [],
      "stateMutability": "nonpayable",
      "type": "function"
    },
    {
      "inputs": [
        {
          "internalType": "uint256",
          "name": "courseId",
          "type": "uint256"
        }
      ],
      "name": "createCombinedProposal",
      "outputs": [
        {
          "internalType": "uint256",
          "name": "",
          "type": "uint256"
        }
      ],
      "stateMutability": "nonpayable",
      "type": "function"
    },
    {
      "inputs": [
        {
          "internalType": "uint256",
          "name": "proposalId",
          "type": "uint256"
        },
        {
          "internalType": "uint256",
          "name": "rating",
          "type": "uint256"
        },
        {
          "internalType": "uint256",
          "name": "suitabilityOptionIndex",
          "type": "uint256"
        }
      ],
      "name": "submitCombinedVote",
      "outputs": [],
      "stateMutability": "nonpayable",
      "type": "function"
    },
    {
      "inputs": [
        {
          "internalType": "uint256",
          "name": "proposalId",
          "type": "uint256"
        }
      ],
      "name": "executeProposal",
      "outputs": [],
      "stateMutability": "nonpayable",
      "type": "function"
    },
    {
      "inputs": [
        {
          "internalType": "uint256",
          "name": "_proposalId",
          "type": "uint256"
        }
      ],
      "name": "endVote",
      "outputs": [
        {
          "internalType": "uint256",
          "name": "",
          "type": "uint256"
        },
        {
          "internalType": "uint256",
          "name": "",
          "type": "uint256"
        }
      ],
      "stateMutability": "view",
      "type": "function",
      "constant": true
    },
    {
      "inputs": [
        {
          "internalType": "uint256",
          "name": "proposalId",
          "type": "uint256"
        }
      ],
      "name": "getVoteDetails",
      "outputs": [
        {
          "internalType": "uint256",
          "name": "agree",
          "type": "uint256"
        },
        {
          "internalType": "uint256",
          "name": "disagree",
          "type": "uint256"
        },
        {
          "internalType": "uint256",
          "name": "totalRatings",
          "type": "uint256"
        },
        {
          "internalType": "uint256",
          "name": "courseId",
          "type": "uint256"
        }
      ],
      "stateMutability": "view",
      "type": "function",
      "constant": true
    },
    {
      "inputs": [
        {
          "internalType": "uint256",
          "name": "proposalId",
          "type": "uint256"
        },
        {
          "internalType": "uint256",
          "name": "teacherId",
          "type": "uint256"
        }
      ],
      "name": "getTeacherRating",
      "outputs": [
        {
          "internalType": "uint256",
          "name": "",
          "type": "uint256"
        }
      ],
      "stateMutability": "view",
      "type": "function",
      "constant": true
    }
  ],
  "bytecode": "0x60806040523480156200001157600080fd5b50604051620038d1380380620038d1833981810160405281019062000037919062000096565b80600460006101000a81548173ffffffffffffffffffffffffffffffffffffffff021916908373ffffffffffffffffffffffffffffffffffffffff160217905550506200011b565b600081519050620000908162000101565b92915050565b600060208284031215620000af57620000ae620000fc565b5b6000620000bf848285016200007f565b91505092915050565b6000620000d582620000dc565b9050919050565b600073ffffffffffffffffffffffffffffffffffffffff82169050919050565b600080fd5b6200010c81620000c8565b81146200011857600080fd5b50565b6137a6806200012b6000396000f3fe608060405234801561001057600080fd5b50600436106101da5760003560e01c806376ce93f711610104578063b2af0cc5116100a2578063c845c19811610071578063c845c19814610650578063da35c66414610680578063e20e71f91461069e578063fe8d724c146106ba576101da565b8063b2af0cc5146105b8578063b9002f3d146105e8578063bc8c24d914610604578063bc9cad8a14610620576101da565b806388462f2c116100de57806388462f2c1461050a5780638984e99314610526578063a3ec138d14610556578063b201539f14610588576101da565b806376ce93f714610478578063777ea2c9146104a9578063865df0ad146104d9576101da565b8063361d5b791161017c57806346c7e2a91161014b57806346c7e2a9146103b157806354a1b431146103e257806355d2f08e146104155780636d1efef014610448576101da565b8063361d5b791461031457806338db6dd31461034757806343242daa1461036357806345f5099614610393576101da565b80630f0626b5116101b85780630f0626b514610261578063148f8e4f14610291578063162b040d146102c55780632b6b189b146102f8576101da565b8063013cf08b146101df5780630202f847146102155780630d61b51914610245575b600080fd5b6101f960048036038101906101f49190612794565b6106ea565b60405161020c979695949392919061304f565b60405180910390f35b61022f600480360381019061022a91906126f5565b610739565b60405161023c9190612e89565b60405180910390f35b61025f600480360381019061025a9190612794565b610751565b005b61027b60048036038101906102769190612794565b6109ff565b6040516102889190612e89565b60405180910390f35b6102ab60048036038101906102a69190612794565b610a23565b6040516102bc959493929190612f34565b60405180910390f35b6102df60048036038101906102da9190612794565b610ae1565b6040516102ef9493929190612fb7565b60405180910390f35b610312600480360381019061030d9190612518565b610d00565b005b61032e60048036038101906103299190612794565b611088565b60405161033e9493929190612fb7565b60405180910390f35b610361600480360381019061035c91906124eb565b6110a6565b005b61037d60048036038101906103789190612794565b6112ba565b60405161038a9190612c28565b60405180910390f35b61039b6112f9565b6040516103a89190612c8e565b60405180910390f35b6103cb60048036038101906103c6919061282e565b61131f565b6040516103d9929190612edb565b60405180910390f35b6103fc60048036038101906103f79190612794565b61135d565b60405161040c949392919061300a565b60405180910390f35b61042f600480360381019061042a9190612794565b611400565b60405161043f9493929190612fb7565b60405180910390f35b610462600480360381019061045d91906127ee565b61141e565b60405161046f9190612c73565b60405180910390f35b610492600480360381019061048d9190612794565b61144d565b6040516104a0929190612c43565b60405180910390f35b6104c360048036038101906104be91906126f5565b6114d9565b6040516104d09190612e89565b60405180910390f35b6104f360048036038101906104ee9190612794565b6114f1565b604051610501929190612f8e565b60405180910390f35b610524600480360381019061051f9190612518565b61154b565b005b610540600480360381019061053b9190612794565b61155b565b60405161054d9190612e89565b60405180910390f35b610570600480360381019061056b91906124eb565b611860565b60405161057f93929190612ea4565b60405180910390f35b6105a2600480360381019061059d9190612626565b6118aa565b6040516105af9190612e89565b60405180910390f35b6105d260048036038101906105cd91906126f5565b611aa6565b6040516105df9190612e89565b60405180910390f35b61060260048036038101906105fd919061286e565b611c41565b005b61061e60048036038101906106199190612518565b6121d6565b005b61063a6004803603810190610635919061256b565b6121e6565b6040516106479190612e89565b60405180910390f35b61066a6004803603810190610665919061282e565b612200565b6040516106779190612e89565b60405180910390f35b610688612232565b6040516106959190612e89565b60405180910390f35b6106b860048036038101906106b391906124eb565b612238565b005b6106d460048036038101906106cf919061282e565b61227c565b6040516106e19190612e89565b60405180910390f35b60066020528060005260406000206000915090508060000154908060010154908060020154908060030154908060040160009054906101000a900460ff16908060050154908060060154905087565b600061074785858585611aa6565b9050949350505050565b60006006600083815260200190815260200160002090506000816000015414156107b0576040517f08c379a00000000000000000000000000000000000000000000000000000000081526004016107a790612e69565b60405180910390fd5b8060040160009054906101000a900460ff1615610802576040517f08c379a00000000000000000000000000000000000000000000000000000000081526004016107f990612d09565b60405180910390fd5b6000816002015411610849576040517f08c379a000000000000000000000000000000000000000000000000000000000815260040161084090612d29565b60405180910390fd5b60008160020154826001015461085f91906131f6565b9050600061087083600301546114f1565b5090506000600282149050600460009054906101000a900473ffffffffffffffffffffffffffffffffffffffff1673ffffffffffffffffffffffffffffffffffffffff1663e204b1028560000154856040518363ffffffff1660e01b81526004016108dc929190612f8e565b600060405180830381600087803b1580156108f657600080fd5b505af115801561090a573d6000803e3d6000fd5b50505050600460009054906101000a900473ffffffffffffffffffffffffffffffffffffffff1673ffffffffffffffffffffffffffffffffffffffff1663cb8540458560000154836040518363ffffffff1660e01b815260040161096f929190612edb565b600060405180830381600087803b15801561098957600080fd5b505af115801561099d573d6000803e3d6000fd5b5050505060018460040160006101000a81548160ff021916908315150217905550847f675c71fb6cbf880ec8fed9c345ef0bb3019cc44b99708edb402b85a7535d7d1984836040516109f0929190612edb565b60405180910390a25050505050565b60038181548110610a0f57600080fd5b906000526020600020016000915090505481565b6002602052806000526040600020600091509050806000015490806001018054610a4c906132e7565b80601f0160208091040260200160405190810160405280929190818152602001828054610a78906132e7565b8015610ac55780601f10610a9a57610100808354040283529160200191610ac5565b820191906000526020600020905b815481529060010190602001808311610aa857829003601f168201915b5050505050908060020154908060060154908060070154905085565b600080606080600080600060026000898152602001908152602001600020600301805480602002602001604051908101604052809291908181526020018280548015610b4c57602002820191906000526020600020905b815481526020019060010190808311610b38575b505050505090506000600260008a81526020019081526020016000206002015490506000825167ffffffffffffffff811115610b8b57610b8a613459565b5b604051908082528060200260200182016040528015610bb95781602001602082028036833780820191505090505b50905060005b8351811015610ce75785600260008d81526020019081526020016000206004016000868481518110610bf457610bf361342a565b5b60200260200101518152602001908152602001600020541115610c7357600260008c81526020019081526020016000206004016000858381518110610c3c57610c3b61342a565b5b60200260200101518152602001908152602001600020549550838181518110610c6857610c6761342a565b5b602002602001015194505b600260008c81526020019081526020016000206004016000858381518110610c9e57610c9d61342a565b5b6020026020010151815260200190815260200160002054828281518110610cc857610cc761342a565b5b6020026020010181815250508080610cdf9061334a565b915050610bbf565b5083828483985098509850985050505050509193509193565b600073ffffffffffffffffffffffffffffffffffffffff166000808573ffffffffffffffffffffffffffffffffffffffff1673ffffffffffffffffffffffffffffffffffffffff16815260200190815260200160002060010160009054906101000a900473ffffffffffffffffffffffffffffffffffffffff1673ffffffffffffffffffffffffffffffffffffffff161415610dd1576040517f08c379a0000000000000000000000000000000000000000000000000000000008152600401610dc890612d49565b60405180910390fd5b600015156002600084815260200190815260200160002060050160008573ffffffffffffffffffffffffffffffffffffffff1673ffffffffffffffffffffffffffffffffffffffff16815260200190815260200160002060009054906101000a900460ff16151514610e78576040517f08c379a0000000000000000000000000000000000000000000000000000000008152600401610e6f90612da9565b60405180910390fd5b6002600083815260200190815260200160002060070154600260008481526020019081526020016000206006015410610ee6576040517f08c379a0000000000000000000000000000000000000000000000000000000008152600401610edd90612e09565b60405180910390fd5b6000805b600260008581526020019081526020016000206003018054905081101561103a5782600260008681526020019081526020016000206003018281548110610f3457610f3361342a565b5b906000526020600020015414156110275760016002600086815260200190815260200160002060040160008581526020019081526020016000206000828254610f7d91906131a0565b925050819055506001600260008681526020019081526020016000206006016000828254610fab91906131a0565b9250508190555060016002600086815260200190815260200160002060050160008773ffffffffffffffffffffffffffffffffffffffff1673ffffffffffffffffffffffffffffffffffffffff16815260200190815260200160002060006101000a81548160ff0219169083151502179055506001915061103a565b80806110329061334a565b915050610eea565b506001151581151514611082576040517f08c379a000000000000000000000000000000000000000000000000000000000815260040161107990612ca9565b60405180910390fd5b50505050565b60008060608061109785610ae1565b93509350935093509193509193565b600073ffffffffffffffffffffffffffffffffffffffff166000808373ffffffffffffffffffffffffffffffffffffffff1673ffffffffffffffffffffffffffffffffffffffff16815260200190815260200160002060010160009054906101000a900473ffffffffffffffffffffffffffffffffffffffff1673ffffffffffffffffffffffffffffffffffffffff1614611176576040517f08c379a000000000000000000000000000000000000000000000000000000000815260040161116d90612e49565b60405180910390fd5b60405180606001604052806001808054905061119291906131a0565b81526020018273ffffffffffffffffffffffffffffffffffffffff16815260200160018152506000808373ffffffffffffffffffffffffffffffffffffffff1673ffffffffffffffffffffffffffffffffffffffff1681526020019081526020016000206000820151816000015560208201518160010160006101000a81548173ffffffffffffffffffffffffffffffffffffffff021916908373ffffffffffffffffffffffffffffffffffffffff160217905550604082015181600201559050506001819080600181540180825580915050600190039060005260206000200160009091909190916101000a81548173ffffffffffffffffffffffffffffffffffffffff021916908373ffffffffffffffffffffffffffffffffffffffff16021790555050565b600181815481106112ca57600080fd5b906000526020600020016000915054906101000a900473ffffffffffffffffffffffffffffffffffffffff1681565b600460009054906101000a900473ffffffffffffffffffffffffffffffffffffffff1681565b6007602052816000526040600020602052806000526040600020600091509150508060000154908060010160009054906101000a900460ff16905082565b6000806000806000600660008781526020019081526020016000206040518060e0016040529081600082015481526020016001820154815260200160028201548152602001600382015481526020016004820160009054906101000a900460ff161515151581526020016005820154815260200160068201548152505090508060a001518160c00151826040015183600001519450945094509450509193509193565b60008060608061140f85610ae1565b93509350935093509193509193565b60086020528160005260406000206020528060005260406000206000915091509054906101000a900460ff1681565b60606000600260008481526020019081526020016000206003016002600085815260200190815260200160002060020154818054806020026020016040519081016040528092919081815260200182805480156114c957602002820191906000526020600020905b8154815260200190600101908083116114b5575b5050505050915091509150915091565b60006114e785858585611aa6565b9050949350505050565b600080600060066000858152602001908152602001600020905060008160060154826005015411611523576001611526565b60025b60ff169050808260060154836005015461154091906131a0565b935093505050915091565b611556838383610d00565b505050565b600080600460009054906101000a900473ffffffffffffffffffffffffffffffffffffffff1673ffffffffffffffffffffffffffffffffffffffff16630f7f13cf336040518263ffffffff1660e01b81526004016115b99190612c28565b60206040518083038186803b1580156115d157600080fd5b505afa1580156115e5573d6000803e3d6000fd5b505050506040513d601f19601f8201168201806040525081019061160991906127c1565b141561164a576040517f08c379a000000000000000000000000000000000000000000000000000000000815260040161164190612d69565b60405180910390fd5b6000600267ffffffffffffffff81111561166757611666613459565b5b6040519080825280602002602001820160405280156116955781602001602082028036833780820191505090505b5090506001816000815181106116ae576116ad61342a565b5b6020026020010181815250506002816001815181106116d0576116cf61342a565b5b6020026020010181815250506000611729846040516020016116f29190612c02565b60405160208183030381529060405285847fffffffffffffffffffffffffffffffffffffffffffffffffffffffffffffffff610739565b9050816005600083815260200190815260200160002090805190602001906117529291906122ae565b50600960008154809291906117669061334a565b91905055506040518060e0016040528085815260200160008152602001600081526020018281526020016000151581526020016000815260200160008152506006600060095481526020019081526020016000206000820151816000015560208201518160010155604082015181600201556060820151816003015560808201518160040160006101000a81548160ff02191690831515021790555060a0820151816005015560c08201518160060155905050836009547f588dccb0986c4198655070050849469a27cde1cecc8e248546bbfaf007188c658360405161184c9190612e89565b60405180910390a360095492505050919050565b60006020528060005260406000206000915090508060000154908060010160009054906101000a900473ffffffffffffffffffffffffffffffffffffffff16908060020154905083565b60008060016003805490506118bf91906131a0565b9050806002600083815260200190815260200160002060000181905550866002600083815260200190815260200160002060010190805190602001906119069291906122fb565b5060005b8551811015611a005760008682815181106119285761192761342a565b5b6020026020010151146119ed576002600083815260200190815260200160002060030186828151811061195e5761195d61342a565b5b6020026020010151908060018154018082558091505060019003906000526020600020016000909190919091505584818151811061199f5761199e61342a565b5b60200260200101516002600084815260200190815260200160002060040160008884815181106119d2576119d161342a565b5b60200260200101518152602001908152602001600020819055505b80806119f89061334a565b91505061190a565b5082600260008381526020019081526020016000206007018190555085600260008381526020019081526020016000206002018190555060038190806001815401808255809150506001900390600052602060002001600090919091909150557f9c770c289ab5bf7e57cb1d23c8ceae993aea46eb64847072fd3d78ca60d3e4328188604051611a91929190612f04565b60405180910390a18091505095945050505050565b6000806001600380549050611abb91906131a0565b905080600260008381526020019081526020016000206000018190555085600260008381526020019081526020016000206001019080519060200190611b029291906122fb565b5060005b8451811015611b9c576000858281518110611b2457611b2361342a565b5b602002602001015114611b895760026000838152602001908152602001600020600301858281518110611b5a57611b5961342a565b5b602002602001015190806001815401808255809150506001900390600052602060002001600090919091909150555b8080611b949061334a565b915050611b06565b5082600260008381526020019081526020016000206007018190555084600260008381526020019081526020016000206002018190555060038190806001815401808255809150506001900390600052602060002001600090919091909150557f9c770c289ab5bf7e57cb1d23c8ceae993aea46eb64847072fd3d78ca60d3e4328187604051611c2d929190612f04565b60405180910390a180915050949350505050565b6000600460009054906101000a900473ffffffffffffffffffffffffffffffffffffffff1673ffffffffffffffffffffffffffffffffffffffff16630f7f13cf336040518263ffffffff1660e01b8152600401611c9e9190612c28565b60206040518083038186803b158015611cb657600080fd5b505afa158015611cca573d6000803e3d6000fd5b505050506040513d601f19601f82011682018060405250810190611cee91906127c1565b1415611d2f576040517f08c379a0000000000000000000000000000000000000000000000000000000008152600401611d2690612d69565b60405180910390fd5b6000600660008581526020019081526020016000209050600081600001541415611d8e576040517f08c379a0000000000000000000000000000000000000000000000000000000008152600401611d8590612e69565b60405180910390fd5b8060040160009054906101000a900460ff1615611de0576040517f08c379a0000000000000000000000000000000000000000000000000000000008152600401611dd790612dc9565b60405180910390fd5b6000600460009054906101000a900473ffffffffffffffffffffffffffffffffffffffff1673ffffffffffffffffffffffffffffffffffffffff16630f7f13cf336040518263ffffffff1660e01b8152600401611e3d9190612c28565b60206040518083038186803b158015611e5557600080fd5b505afa158015611e69573d6000803e3d6000fd5b505050506040513d601f19601f82011682018060405250810190611e8d91906127c1565b90506000811415611ed3576040517f08c379a0000000000000000000000000000000000000000000000000000000008152600401611eca90612cc9565b60405180910390fd5b60018410158015611ee55750600a8411155b611f24576040517f08c379a0000000000000000000000000000000000000000000000000000000008152600401611f1b90612d89565b60405180910390fd5b600060076000878152602001908152602001600020600083815260200190815260200160002090508060010160009054906101000a900460ff1615611f9e576040517f08c379a0000000000000000000000000000000000000000000000000000000008152600401611f9590612de9565b60405180910390fd5b84816000018190555060018160010160006101000a81548160ff02191690831515021790555084836001016000828254611fd891906131a0565b92505081905550826002016000815480929190611ff49061334a565b91905055506002841061203c576040517f08c379a000000000000000000000000000000000000000000000000000000000815260040161203390612e29565b60405180910390fd5b6008600087815260200190815260200160002060003373ffffffffffffffffffffffffffffffffffffffff1673ffffffffffffffffffffffffffffffffffffffff16815260200190815260200160002060009054906101000a900460ff16156120da576040517f08c379a00000000000000000000000000000000000000000000000000000000081526004016120d190612ce9565b60405180910390fd5b6001841415612102578260050160008154809291906120f89061334a565b919050555061211d565b8260060160008154809291906121179061334a565b91905055505b60016008600088815260200190815260200160002060003373ffffffffffffffffffffffffffffffffffffffff1673ffffffffffffffffffffffffffffffffffffffff16815260200190815260200160002060006101000a81548160ff0219169083151502179055506000600560008560030154815260200190815260200160002085815481106121b1576121b061342a565b5b906000526020600020015490506121cd338560030154836121d6565b50505050505050565b6121e1838383610d00565b505050565b60006121f68585858560076118aa565b9050949350505050565b600060076000848152602001908152602001600020600083815260200190815260200160002060000154905092915050565b60095481565b80600460006101000a81548173ffffffffffffffffffffffffffffffffffffffff021916908373ffffffffffffffffffffffffffffffffffffffff16021790555050565b600060026000848152602001908152602001600020600401600083815260200190815260200160002054905092915050565b8280548282559060005260206000209081019282156122ea579160200282015b828111156122e95782518255916020019190600101906122ce565b5b5090506122f79190612381565b5090565b828054612307906132e7565b90600052602060002090601f0160209004810192826123295760008555612370565b82601f1061234257805160ff1916838001178555612370565b82800160010185558215612370579182015b8281111561236f578251825591602001919060010190612354565b5b50905061237d9190612381565b5090565b5b8082111561239a576000816000905550600101612382565b5090565b60006123b16123ac846130e3565b6130be565b905080838252602082019050828560208602820111156123d4576123d361348d565b5b60005b8581101561240457816123ea88826124c1565b8452602084019350602083019250506001810190506123d7565b5050509392505050565b600061242161241c8461310f565b6130be565b90508281526020810184848401111561243d5761243c613492565b5b6124488482856132a5565b509392505050565b60008135905061245f81613742565b92915050565b600082601f83011261247a57612479613488565b5b813561248a84826020860161239e565b91505092915050565b600082601f8301126124a8576124a7613488565b5b81356124b884826020860161240e565b91505092915050565b6000813590506124d081613759565b92915050565b6000815190506124e581613759565b92915050565b6000602082840312156125015761250061349c565b5b600061250f84828501612450565b91505092915050565b6000806000606084860312156125315761253061349c565b5b600061253f86828701612450565b9350506020612550868287016124c1565b9250506040612561868287016124c1565b9150509250925092565b600080600080608085870312156125855761258461349c565b5b600085013567ffffffffffffffff8111156125a3576125a2613497565b5b6125af87828801612493565b94505060206125c0878288016124c1565b935050604085013567ffffffffffffffff8111156125e1576125e0613497565b5b6125ed87828801612465565b925050606085013567ffffffffffffffff81111561260e5761260d613497565b5b61261a87828801612465565b91505092959194509250565b600080600080600060a086880312156126425761264161349c565b5b600086013567ffffffffffffffff8111156126605761265f613497565b5b61266c88828901612493565b955050602061267d888289016124c1565b945050604086013567ffffffffffffffff81111561269e5761269d613497565b5b6126aa88828901612465565b935050606086013567ffffffffffffffff8111156126cb576126ca613497565b5b6126d788828901612465565b92505060806126e8888289016124c1565b9150509295509295909350565b6000806000806080858703121561270f5761270e61349c565b5b600085013567ffffffffffffffff81111561272d5761272c613497565b5b61273987828801612493565b945050602061274a878288016124c1565b935050604085013567ffffffffffffffff81111561276b5761276a613497565b5b61277787828801612465565b9250506060612788878288016124c1565b91505092959194509250565b6000602082840312156127aa576127a961349c565b5b60006127b8848285016124c1565b91505092915050565b6000602082840312156127d7576127d661349c565b5b60006127e5848285016124d6565b91505092915050565b600080604083850312156128055761280461349c565b5b6000612813858286016124c1565b925050602061282485828601612450565b9150509250929050565b600080604083850312156128455761284461349c565b5b6000612853858286016124c1565b9250506020612864858286016124c1565b9150509250929050565b6000806000606084860312156128875761288661349c565b5b6000612895868287016124c1565b93505060206128a6868287016124c1565b92505060406128b7868287016124c1565b9150509250925092565b60006128cd8383612bcd565b60208301905092915050565b6128e281613227565b82525050565b60006128f382613150565b6128fd8185613173565b935061290883613140565b8060005b8381101561293957815161292088826128c1565b975061292b83613166565b92505060018101905061290c565b5085935050505092915050565b61294f81613239565b82525050565b61295e8161326f565b82525050565b600061296f8261315b565b6129798185613184565b93506129898185602086016132b4565b612992816134a1565b840191505092915050565b60006129aa601883613184565b91506129b5826134b2565b602082019050919050565b60006129cd600783613195565b91506129d8826134db565b600782019050919050565b60006129f0601483613184565b91506129fb82613504565b602082019050919050565b6000612a13600d83613184565b9150612a1e8261352d565b602082019050919050565b6000612a36601083613184565b9150612a4182613556565b602082019050919050565b6000612a59601483613184565b9150612a648261357f565b602082019050919050565b6000612a7c600f83613184565b9150612a87826135a8565b602082019050919050565b6000612a9f601b83613184565b9150612aaa826135d1565b602082019050919050565b6000612ac2601583613184565b9150612acd826135fa565b602082019050919050565b6000612ae5600c83613184565b9150612af082613623565b602082019050919050565b6000612b08601183613184565b9150612b138261364c565b602082019050919050565b6000612b2b600d83613184565b9150612b3682613675565b602082019050919050565b6000612b4e601283613184565b9150612b598261369e565b602082019050919050565b6000612b71601a83613184565b9150612b7c826136c7565b602082019050919050565b6000612b94600f83613184565b9150612b9f826136f0565b602082019050919050565b6000612bb7601083613184565b9150612bc282613719565b602082019050919050565b612bd681613265565b82525050565b612be581613265565b82525050565b612bfc612bf782613265565b613393565b82525050565b6000612c0d826129c0565b9150612c198284612beb565b60208201915081905092915050565b6000602082019050612c3d60008301846128d9565b92915050565b60006040820190508181036000830152612c5d81856128e8565b9050612c6c6020830184612bdc565b9392505050565b6000602082019050612c886000830184612946565b92915050565b6000602082019050612ca36000830184612955565b92915050565b60006020820190508181036000830152612cc28161299d565b9050919050565b60006020820190508181036000830152612ce2816129e3565b9050919050565b60006020820190508181036000830152612d0281612a06565b9050919050565b60006020820190508181036000830152612d2281612a29565b9050919050565b60006020820190508181036000830152612d4281612a4c565b9050919050565b60006020820190508181036000830152612d6281612a6f565b9050919050565b60006020820190508181036000830152612d8281612a92565b9050919050565b60006020820190508181036000830152612da281612ab5565b9050919050565b60006020820190508181036000830152612dc281612ad8565b9050919050565b60006020820190508181036000830152612de281612afb565b9050919050565b60006020820190508181036000830152612e0281612b1e565b9050919050565b60006020820190508181036000830152612e2281612b41565b9050919050565b60006020820190508181036000830152612e4281612b64565b9050919050565b60006020820190508181036000830152612e6281612b87565b9050919050565b60006020820190508181036000830152612e8281612baa565b9050919050565b6000602082019050612e9e6000830184612bdc565b92915050565b6000606082019050612eb96000830186612bdc565b612ec660208301856128d9565b612ed36040830184612bdc565b949350505050565b6000604082019050612ef06000830185612bdc565b612efd6020830184612946565b9392505050565b6000604082019050612f196000830185612bdc565b8181036020830152612f2b8184612964565b90509392505050565b600060a082019050612f496000830188612bdc565b8181036020830152612f5b8187612964565b9050612f6a6040830186612bdc565b612f776060830185612bdc565b612f846080830184612bdc565b9695505050505050565b6000604082019050612fa36000830185612bdc565b612fb06020830184612bdc565b9392505050565b6000608082019050612fcc6000830187612bdc565b612fd96020830186612bdc565b8181036040830152612feb81856128e8565b90508181036060830152612fff81846128e8565b905095945050505050565b600060808201905061301f6000830187612bdc565b61302c6020830186612bdc565b6130396040830185612bdc565b6130466060830184612bdc565b95945050505050565b600060e082019050613064600083018a612bdc565b6130716020830189612bdc565b61307e6040830188612bdc565b61308b6060830187612bdc565b6130986080830186612946565b6130a560a0830185612bdc565b6130b260c0830184612bdc565b98975050505050505050565b60006130c86130d9565b90506130d48282613319565b919050565b6000604051905090565b600067ffffffffffffffff8211156130fe576130fd613459565b5b602082029050602081019050919050565b600067ffffffffffffffff82111561312a57613129613459565b5b613133826134a1565b9050602081019050919050565b6000819050602082019050919050565b600081519050919050565b600081519050919050565b6000602082019050919050565b600082825260208201905092915050565b600082825260208201905092915050565b600081905092915050565b60006131ab82613265565b91506131b683613265565b9250827fffffffffffffffffffffffffffffffffffffffffffffffffffffffffffffffff038211156131eb576131ea61339d565b5b828201905092915050565b600061320182613265565b915061320c83613265565b92508261321c5761321b6133cc565b5b828204905092915050565b600061323282613245565b9050919050565b60008115159050919050565b600073ffffffffffffffffffffffffffffffffffffffff82169050919050565b6000819050919050565b600061327a82613281565b9050919050565b600061328c82613293565b9050919050565b600061329e82613245565b9050919050565b82818337600083830152505050565b60005b838110156132d25780820151818401526020810190506132b7565b838111156132e1576000848401525b50505050565b600060028204905060018216806132ff57607f821691505b60208210811415613313576133126133fb565b5b50919050565b613322826134a1565b810181811067ffffffffffffffff8211171561334157613340613459565b5b80604052505050565b600061335582613265565b91507fffffffffffffffffffffffffffffffffffffffffffffffffffffffffffffffff8214156133885761338761339d565b5b600182019050919050565b6000819050919050565b7f4e487b7100000000000000000000000000000000000000000000000000000000600052601160045260246000fd5b7f4e487b7100000000000000000000000000000000000000000000000000000000600052601260045260246000fd5b7f4e487b7100000000000000000000000000000000000000000000000000000000600052602260045260246000fd5b7f4e487b7100000000000000000000000000000000000000000000000000000000600052603260045260246000fd5b7f4e487b7100000000000000000000000000000000000000000000000000000000600052604160045260246000fd5b600080fd5b600080fd5b600080fd5b600080fd5b600080fd5b6000601f19601f8301169050919050565b7fe68a95e7a5a8e79a84e98089e9a1b9e4b88de5ad98e59ca80000000000000000600082015250565b7f436f757273652000000000000000000000000000000000000000000000000000600082015250565b7f556e726567697374657265642074656163686572000000000000000000000000600082015250565b7f416c726561647920766f74656400000000000000000000000000000000000000600082015250565b7f416c726561647920657865637574656400000000000000000000000000000000600082015250565b7f4e6f20726174696e6773207375626d6974746564000000000000000000000000600082015250565b7fe8b4a6e688b7e69caae6b3a8e5868c0000000000000000000000000000000000600082015250565b7f4f6e6c792074656163686572732063616e2063616c6c20746869730000000000600082015250565b7f496e76616c696420726174696e672028312d3130290000000000000000000000600082015250565b7fe682a8e5b7b2e68a95e7a5a80000000000000000000000000000000000000000600082015250565b7f50726f706f73616c206578656375746564000000000000000000000000000000600082015250565b7f416c726561647920726174656400000000000000000000000000000000000000600082015250565b7fe68a95e7a5a8e4babae695b0e5b7b2e6bba10000000000000000000000000000600082015250565b7f496e76616c6964206f7074696f6e20696e6465782028302d3129000000000000600082015250565b7fe8b4a6e688b7e5b7b2e6b3a8e5868c0000000000000000000000000000000000600082015250565b7f496e76616c69642070726f706f73616c00000000000000000000000000000000600082015250565b61374b81613227565b811461375657600080fd5b50565b61376281613265565b811461376d57600080fd5b5056fea26469706673582212205e640d99f9957ff4916baf6bf73592079ecabef2c04198680beb5818646ceee564736f6c63430008070033",
  "immutableReferences": {},
  "source": "// SPDX-License-Identifier: MIT\r\npragma solidity ^0.8.7;\r\n\r\nimport \"./Vote.sol\";\r\nimport \"./ICourseAllocation.sol\";\r\n\r\ncontract TeacherVote is Vote {\r\n    ICourseAllocation public courseAllocation;\r\n\r\n    // \r\n    mapping(uint256 => uint256[]) private _proposalOptions; //\r\n\r\n    struct ProposalBase {\r\n        uint256 courseId;\r\n        uint256 totalRating;\r\n        uint256 raterCount;\r\n        uint256 suitabilityProposalId;\r\n        bool executed;\r\n        uint256 agreeCount;\r\n        uint256 disagreeCount;\r\n    }\r\n\r\n    struct TeacherRating {\r\n        uint256 rating;\r\n        bool hasRated;\r\n    }\r\n\r\n    mapping(uint256 => ProposalBase) public proposals;\r\n    mapping(uint256 => mapping(uint256 => TeacherRating)) public teacherRatings;\r\n    mapping(uint256 => mapping(address => bool)) public suitabilityVotes;\r\n\r\n    uint256 public proposalCount;\r\n\r\n    event NewCombinedProposal(\r\n        uint256 indexed proposalId,\r\n        uint256 indexed courseId,\r\n        uint256 suitabilityProposalId\r\n    );\r\n    event ProposalExecuted(\r\n        uint256 indexed proposalId,\r\n        uint256 avgImportance,\r\n        bool isAgentSuitable\r\n    );\r\n\r\n    modifier onlyTeacher() {\r\n        require(\r\n            courseAllocation.addressToTeacherId(msg.sender) != 0,\r\n            \"Only teachers can call this\"\r\n        );\r\n        _;\r\n    }\r\n\r\n    constructor(address _courseAllocationAddress) Vote() {\r\n        courseAllocation = ICourseAllocation(_courseAllocationAddress);\r\n    }\r\n\r\n    function setCourseAllocation(address _addr) external {\r\n        courseAllocation = ICourseAllocation(_addr);\r\n    }\r\n\r\n    function createCombinedProposal(\r\n        uint256 courseId\r\n    ) external onlyTeacher returns (uint256) {\r\n        // \r\n        uint256[] memory options = new uint256[](2);\r\n        options[0] = 1; // \r\n        options[1] = 2; // \r\n\r\n        // \r\n        uint256 suitabilityProposalId = createChooseTeacherProposal(\r\n            string(abi.encodePacked(\"Course \", courseId)),\r\n            courseId,\r\n            options,\r\n            type(uint256).max\r\n        );\r\n\r\n        // \r\n        _proposalOptions[suitabilityProposalId] = options;\r\n\r\n        // \r\n        proposalCount++;\r\n        proposals[proposalCount] = ProposalBase({\r\n            courseId: courseId,\r\n            totalRating: 0,\r\n            raterCount: 0,\r\n            suitabilityProposalId: suitabilityProposalId,\r\n            executed: false,\r\n            agreeCount: 0,\r\n            disagreeCount: 0\r\n        });\r\n\r\n        emit NewCombinedProposal(\r\n            proposalCount,\r\n            courseId,\r\n            suitabilityProposalId\r\n        );\r\n        return proposalCount;\r\n    }\r\n\r\n    function submitCombinedVote(\r\n        uint256 proposalId,\r\n        uint256 rating,\r\n        uint256 suitabilityOptionIndex\r\n    ) external onlyTeacher {\r\n        ProposalBase storage p = proposals[proposalId];\r\n        require(p.courseId != 0, \"Invalid proposal\");\r\n        require(!p.executed, \"Proposal executed\");\r\n\r\n        // \r\n        uint256 teacherId = courseAllocation.addressToTeacherId(msg.sender);\r\n        require(teacherId != 0, \"Unregistered teacher\");\r\n\r\n        // \r\n        require(rating >= 1 && rating <= 10, \"Invalid rating (1-10)\");\r\n        TeacherRating storage tr = teacherRatings[proposalId][teacherId];\r\n        require(!tr.hasRated, \"Already rated\");\r\n\r\n        tr.rating = rating;\r\n        tr.hasRated = true;\r\n        p.totalRating += rating;\r\n        p.raterCount++;\r\n\r\n        // \r\n        require(suitabilityOptionIndex < 2, \"Invalid option index (0-1)\");\r\n        require(!suitabilityVotes[proposalId][msg.sender], \"Already voted\");\r\n\r\n        if (suitabilityOptionIndex == 1) {\r\n            p.agreeCount++;\r\n        } else {\r\n            p.disagreeCount++;\r\n        }\r\n        suitabilityVotes[proposalId][msg.sender] = true;\r\n\r\n        // \r\n        uint256 optionValue = _proposalOptions[p.suitabilityProposalId][\r\n            suitabilityOptionIndex\r\n        ];\r\n\r\n        // \r\n        super.voteChooseTeacher(\r\n            msg.sender,\r\n            p.suitabilityProposalId,\r\n            optionValue\r\n        );\r\n    }\r\n\r\n    function executeProposal(uint256 proposalId) external {\r\n        ProposalBase storage p = proposals[proposalId];\r\n        require(p.courseId != 0, \"Invalid proposal\");\r\n        require(!p.executed, \"Already executed\");\r\n        require(p.raterCount > 0, \"No ratings submitted\");\r\n\r\n        // \r\n        uint256 avgRating = p.totalRating / p.raterCount;\r\n\r\n        // \r\n        (uint256 winningOption, ) = endVote(p.suitabilityProposalId);\r\n        bool isSuitable = (winningOption == 2); // 2\r\n\r\n        // \r\n        courseAllocation.setCourseImportance(p.courseId, avgRating);\r\n        courseAllocation.setCourseIsAgentSuitable(p.courseId, isSuitable);\r\n\r\n        p.executed = true;\r\n        emit ProposalExecuted(proposalId, avgRating, isSuitable);\r\n    }\r\n\r\n    function endVote(\r\n        uint256 _proposalId\r\n    ) public view returns (uint256, uint256) {\r\n        ProposalBase storage p = proposals[_proposalId];\r\n\r\n        //  \"\"\r\n        uint256 winningOption = (p.agreeCount > p.disagreeCount) ? 2 : 1; // 2 1 \r\n        return (winningOption, p.agreeCount + p.disagreeCount); // \r\n    }\r\n\r\n    function getVoteDetails(\r\n        uint256 proposalId\r\n    )\r\n        external\r\n        view\r\n        returns (\r\n            uint256 agree,\r\n            uint256 disagree,\r\n            uint256 totalRatings,\r\n            uint256 courseId\r\n        )\r\n    {\r\n        ProposalBase memory p = proposals[proposalId];\r\n        return (p.agreeCount, p.disagreeCount, p.raterCount, p.courseId);\r\n    }\r\n\r\n    function getTeacherRating(\r\n        uint256 proposalId,\r\n        uint256 teacherId\r\n    ) public view returns (uint256) {\r\n        return teacherRatings[proposalId][teacherId].rating;\r\n    }\r\n}\r\n",
  "sourcePath": "D:\\vscode\\\\course\\project\\contracts\\TeacherVote.sol",
  "compiler": {
    "name": "solc",
    "version": "0.8.7+commit.e28d00a7.Emscripten.clang"
  },
  "schemaVersion": "3.4.16",
  "updatedAt": "2025-04-08T11:16:31.696Z",
  "networkType": "ethereum",
  "devdoc": {
    "kind": "dev",
    "methods": {},
    "version": 1
  },
  "userdoc": {
    "kind": "user",
    "methods": {},
    "version": 1
  }
}