{
  "contractName": "TeacherVote",
  "abi": [
    {
      "inputs": [
        {
          "internalType": "address",
          "name": "_courseAllocationAddress",
          "type": "address"
        }
      ],
      "stateMutability": "nonpayable",
      "type": "constructor"
    },
    {
      "anonymous": false,
      "inputs": [
        {
          "indexed": true,
          "internalType": "uint256",
          "name": "proposalId",
          "type": "uint256"
        },
        {
          "indexed": true,
          "internalType": "uint256",
          "name": "courseId",
          "type": "uint256"
        },
        {
          "indexed": false,
          "internalType": "uint256",
          "name": "suitabilityProposalId",
          "type": "uint256"
        }
      ],
      "name": "NewCombinedProposal",
      "type": "event"
    },
    {
      "anonymous": false,
      "inputs": [
        {
          "indexed": false,
          "internalType": "uint256",
          "name": "proposalId",
          "type": "uint256"
        },
        {
          "indexed": false,
          "internalType": "string",
          "name": "description",
          "type": "string"
        }
      ],
      "name": "ProposalCreated",
      "type": "event"
    },
    {
      "anonymous": false,
      "inputs": [
        {
          "indexed": true,
          "internalType": "uint256",
          "name": "proposalId",
          "type": "uint256"
        },
        {
          "indexed": false,
          "internalType": "string",
          "name": "Choice",
          "type": "string"
        },
        {
          "indexed": false,
          "internalType": "uint256",
          "name": "winningOption",
          "type": "uint256"
        }
      ],
      "name": "ProposalExecuted",
      "type": "event"
    },
    {
      "inputs": [],
      "name": "courseAllocation",
      "outputs": [
        {
          "internalType": "contract ICourseAllocation",
          "name": "",
          "type": "address"
        }
      ],
      "stateMutability": "view",
      "type": "function",
      "constant": true
    },
    {
      "inputs": [
        {
          "internalType": "string",
          "name": "_description",
          "type": "string"
        },
        {
          "internalType": "uint256",
          "name": "_voteforID",
          "type": "uint256"
        },
        {
          "internalType": "uint256[]",
          "name": "_votedIds",
          "type": "uint256[]"
        },
        {
          "internalType": "uint256",
          "name": "_totalVote",
          "type": "uint256"
        }
      ],
      "name": "createChooseCourseProposal",
      "outputs": [
        {
          "internalType": "uint256",
          "name": "",
          "type": "uint256"
        }
      ],
      "stateMutability": "nonpayable",
      "type": "function"
    },
    {
      "inputs": [
        {
          "internalType": "string",
          "name": "_description",
          "type": "string"
        },
        {
          "internalType": "uint256",
          "name": "_voteforID",
          "type": "uint256"
        },
        {
          "internalType": "uint256[]",
          "name": "_votedIds",
          "type": "uint256[]"
        },
        {
          "internalType": "uint256",
          "name": "_totalVote",
          "type": "uint256"
        }
      ],
      "name": "createChooseTeacherProposal",
      "outputs": [
        {
          "internalType": "uint256",
          "name": "",
          "type": "uint256"
        }
      ],
      "stateMutability": "nonpayable",
      "type": "function"
    },
    {
      "inputs": [
        {
          "internalType": "string",
          "name": "_description",
          "type": "string"
        },
        {
          "internalType": "uint256",
          "name": "_voteforID",
          "type": "uint256"
        },
        {
          "internalType": "uint256[]",
          "name": "_votedIds",
          "type": "uint256[]"
        },
        {
          "internalType": "uint256[]",
          "name": "_votedCounts",
          "type": "uint256[]"
        },
        {
          "internalType": "uint256",
          "name": "_totalVote",
          "type": "uint256"
        }
      ],
      "name": "createMachineProposal",
      "outputs": [
        {
          "internalType": "uint256",
          "name": "",
          "type": "uint256"
        }
      ],
      "stateMutability": "nonpayable",
      "type": "function"
    },
    {
      "inputs": [
        {
          "internalType": "string",
          "name": "_description",
          "type": "string"
        },
        {
          "internalType": "uint256",
          "name": "_voteforID",
          "type": "uint256"
        },
        {
          "internalType": "uint256[]",
          "name": "_votedIds",
          "type": "uint256[]"
        },
        {
          "internalType": "uint256[]",
          "name": "_votedCounts",
          "type": "uint256[]"
        }
      ],
      "name": "createMachineVoteProposal",
      "outputs": [
        {
          "internalType": "uint256",
          "name": "",
          "type": "uint256"
        }
      ],
      "stateMutability": "nonpayable",
      "type": "function"
    },
    {
      "inputs": [
        {
          "internalType": "string",
          "name": "_description",
          "type": "string"
        },
        {
          "internalType": "uint256",
          "name": "_voteforID",
          "type": "uint256"
        },
        {
          "internalType": "uint256[]",
          "name": "_votedIds",
          "type": "uint256[]"
        },
        {
          "internalType": "uint256",
          "name": "_totalVote",
          "type": "uint256"
        }
      ],
      "name": "createProposalMultiple",
      "outputs": [
        {
          "internalType": "uint256",
          "name": "",
          "type": "uint256"
        }
      ],
      "stateMutability": "nonpayable",
      "type": "function"
    },
    {
      "inputs": [
        {
          "internalType": "uint256",
          "name": "_proposalId",
          "type": "uint256"
        }
      ],
      "name": "endVoteChooseCourse",
      "outputs": [
        {
          "internalType": "uint256",
          "name": "",
          "type": "uint256"
        },
        {
          "internalType": "uint256",
          "name": "",
          "type": "uint256"
        },
        {
          "internalType": "uint256[]",
          "name": "",
          "type": "uint256[]"
        },
        {
          "internalType": "uint256[]",
          "name": "",
          "type": "uint256[]"
        }
      ],
      "stateMutability": "view",
      "type": "function",
      "constant": true
    },
    {
      "inputs": [
        {
          "internalType": "uint256",
          "name": "_proposalId",
          "type": "uint256"
        }
      ],
      "name": "endVoteChooseTeacher",
      "outputs": [
        {
          "internalType": "uint256",
          "name": "",
          "type": "uint256"
        },
        {
          "internalType": "uint256",
          "name": "",
          "type": "uint256"
        },
        {
          "internalType": "uint256[]",
          "name": "",
          "type": "uint256[]"
        },
        {
          "internalType": "uint256[]",
          "name": "",
          "type": "uint256[]"
        }
      ],
      "stateMutability": "view",
      "type": "function",
      "constant": true
    },
    {
      "inputs": [
        {
          "internalType": "uint256",
          "name": "_proposalId",
          "type": "uint256"
        }
      ],
      "name": "endVoteMultiple",
      "outputs": [
        {
          "internalType": "uint256",
          "name": "",
          "type": "uint256"
        },
        {
          "internalType": "uint256",
          "name": "",
          "type": "uint256"
        },
        {
          "internalType": "uint256[]",
          "name": "",
          "type": "uint256[]"
        },
        {
          "internalType": "uint256[]",
          "name": "",
          "type": "uint256[]"
        }
      ],
      "stateMutability": "view",
      "type": "function",
      "constant": true
    },
    {
      "inputs": [
        {
          "internalType": "uint256",
          "name": "_proposalId",
          "type": "uint256"
        },
        {
          "internalType": "uint256",
          "name": "_voteId",
          "type": "uint256"
        }
      ],
      "name": "getVoteIdToCount",
      "outputs": [
        {
          "internalType": "uint256",
          "name": "",
          "type": "uint256"
        }
      ],
      "stateMutability": "view",
      "type": "function",
      "constant": true
    },
    {
      "inputs": [
        {
          "internalType": "uint256",
          "name": "_proposalId",
          "type": "uint256"
        }
      ],
      "name": "getVotedIds",
      "outputs": [
        {
          "internalType": "uint256[]",
          "name": "",
          "type": "uint256[]"
        },
        {
          "internalType": "uint256",
          "name": "",
          "type": "uint256"
        }
      ],
      "stateMutability": "view",
      "type": "function",
      "constant": true
    },
    {
      "inputs": [],
      "name": "proposalCount",
      "outputs": [
        {
          "internalType": "uint256",
          "name": "",
          "type": "uint256"
        }
      ],
      "stateMutability": "view",
      "type": "function",
      "constant": true
    },
    {
      "inputs": [
        {
          "internalType": "uint256",
          "name": "",
          "type": "uint256"
        }
      ],
      "name": "proposalMultipleIds",
      "outputs": [
        {
          "internalType": "uint256",
          "name": "",
          "type": "uint256"
        }
      ],
      "stateMutability": "view",
      "type": "function",
      "constant": true
    },
    {
      "inputs": [
        {
          "internalType": "uint256",
          "name": "",
          "type": "uint256"
        }
      ],
      "name": "proposalMultiples",
      "outputs": [
        {
          "internalType": "uint256",
          "name": "id",
          "type": "uint256"
        },
        {
          "internalType": "string",
          "name": "description",
          "type": "string"
        },
        {
          "internalType": "uint256",
          "name": "voteforID",
          "type": "uint256"
        },
        {
          "internalType": "uint256",
          "name": "voteCount",
          "type": "uint256"
        },
        {
          "internalType": "uint256",
          "name": "totalVote",
          "type": "uint256"
        }
      ],
      "stateMutability": "view",
      "type": "function",
      "constant": true
    },
    {
      "inputs": [
        {
          "internalType": "uint256",
          "name": "",
          "type": "uint256"
        }
      ],
      "name": "proposals",
      "outputs": [
        {
          "internalType": "uint256",
          "name": "courseId",
          "type": "uint256"
        },
        {
          "internalType": "uint256",
          "name": "suitabilityProposalId",
          "type": "uint256"
        },
        {
          "internalType": "bool",
          "name": "executed",
          "type": "bool"
        },
        {
          "internalType": "uint256",
          "name": "agreeCount",
          "type": "uint256"
        },
        {
          "internalType": "uint256",
          "name": "disagreeCount",
          "type": "uint256"
        }
      ],
      "stateMutability": "view",
      "type": "function",
      "constant": true
    },
    {
      "inputs": [
        {
          "internalType": "address",
          "name": "_voter",
          "type": "address"
        }
      ],
      "name": "registerVoter",
      "outputs": [],
      "stateMutability": "nonpayable",
      "type": "function"
    },
    {
      "inputs": [
        {
          "internalType": "uint256",
          "name": "",
          "type": "uint256"
        },
        {
          "internalType": "address",
          "name": "",
          "type": "address"
        }
      ],
      "name": "suitabilityVotes",
      "outputs": [
        {
          "internalType": "bool",
          "name": "",
          "type": "bool"
        }
      ],
      "stateMutability": "view",
      "type": "function",
      "constant": true
    },
    {
      "inputs": [
        {
          "internalType": "address",
          "name": "voterAddress",
          "type": "address"
        },
        {
          "internalType": "uint256",
          "name": "_proposalId",
          "type": "uint256"
        },
        {
          "internalType": "uint256",
          "name": "_voteId",
          "type": "uint256"
        }
      ],
      "name": "voteChooseCourse",
      "outputs": [],
      "stateMutability": "nonpayable",
      "type": "function"
    },
    {
      "inputs": [
        {
          "internalType": "address",
          "name": "voterAddress",
          "type": "address"
        },
        {
          "internalType": "uint256",
          "name": "_proposalId",
          "type": "uint256"
        },
        {
          "internalType": "uint256",
          "name": "_voteId",
          "type": "uint256"
        }
      ],
      "name": "voteChooseTeacher",
      "outputs": [],
      "stateMutability": "nonpayable",
      "type": "function"
    },
    {
      "inputs": [
        {
          "internalType": "address",
          "name": "voter",
          "type": "address"
        },
        {
          "internalType": "uint256",
          "name": "_proposalId",
          "type": "uint256"
        },
        {
          "internalType": "uint256",
          "name": "_voteId",
          "type": "uint256"
        }
      ],
      "name": "voteMultiple",
      "outputs": [],
      "stateMutability": "nonpayable",
      "type": "function"
    },
    {
      "inputs": [
        {
          "internalType": "address",
          "name": "",
          "type": "address"
        }
      ],
      "name": "voters",
      "outputs": [
        {
          "internalType": "uint256",
          "name": "id",
          "type": "uint256"
        },
        {
          "internalType": "address",
          "name": "voter",
          "type": "address"
        },
        {
          "internalType": "uint256",
          "name": "weight",
          "type": "uint256"
        }
      ],
      "stateMutability": "view",
      "type": "function",
      "constant": true
    },
    {
      "inputs": [
        {
          "internalType": "uint256",
          "name": "",
          "type": "uint256"
        }
      ],
      "name": "votersAddress",
      "outputs": [
        {
          "internalType": "address",
          "name": "",
          "type": "address"
        }
      ],
      "stateMutability": "view",
      "type": "function",
      "constant": true
    },
    {
      "inputs": [
        {
          "internalType": "address",
          "name": "_addr",
          "type": "address"
        }
      ],
      "name": "setCourseAllocation",
      "outputs": [],
      "stateMutability": "nonpayable",
      "type": "function"
    },
    {
      "inputs": [
        {
          "internalType": "uint256",
          "name": "courseId",
          "type": "uint256"
        }
      ],
      "name": "createCombinedProposal",
      "outputs": [
        {
          "internalType": "uint256",
          "name": "",
          "type": "uint256"
        }
      ],
      "stateMutability": "nonpayable",
      "type": "function"
    },
    {
      "inputs": [
        {
          "internalType": "uint256",
          "name": "proposalId",
          "type": "uint256"
        },
        {
          "internalType": "uint256",
          "name": "suitabilityOptionIndex",
          "type": "uint256"
        }
      ],
      "name": "submitCombinedVote",
      "outputs": [],
      "stateMutability": "nonpayable",
      "type": "function"
    },
    {
      "inputs": [
        {
          "internalType": "uint256",
          "name": "proposalId",
          "type": "uint256"
        }
      ],
      "name": "executeProposal",
      "outputs": [],
      "stateMutability": "nonpayable",
      "type": "function"
    },
    {
      "inputs": [
        {
          "internalType": "uint256",
          "name": "_proposalId",
          "type": "uint256"
        }
      ],
      "name": "endVote",
      "outputs": [
        {
          "internalType": "uint256",
          "name": "",
          "type": "uint256"
        },
        {
          "internalType": "uint256",
          "name": "",
          "type": "uint256"
        }
      ],
      "stateMutability": "view",
      "type": "function",
      "constant": true
    },
    {
      "inputs": [
        {
          "internalType": "uint256",
          "name": "proposalId",
          "type": "uint256"
        }
      ],
      "name": "getVoteDetails",
      "outputs": [
        {
          "internalType": "uint256",
          "name": "agree",
          "type": "uint256"
        },
        {
          "internalType": "uint256",
          "name": "disagree",
          "type": "uint256"
        },
        {
          "internalType": "uint256",
          "name": "total",
          "type": "uint256"
        }
      ],
      "stateMutability": "view",
      "type": "function",
      "constant": true
    }
  ],
  "bytecode": "0x60806040523480156200001157600080fd5b506040516200340738038062003407833981810160405281019062000037919062000096565b80600460006101000a81548173ffffffffffffffffffffffffffffffffffffffff021916908373ffffffffffffffffffffffffffffffffffffffff160217905550506200011b565b600081519050620000908162000101565b92915050565b600060208284031215620000af57620000ae620000fc565b5b6000620000bf848285016200007f565b91505092915050565b6000620000d582620000dc565b9050919050565b600073ffffffffffffffffffffffffffffffffffffffff82169050919050565b600080fd5b6200010c81620000c8565b81146200011857600080fd5b50565b6132dc806200012b6000396000f3fe608060405234801561001057600080fd5b50600436106101c45760003560e01c80636d1efef0116100f9578063b201539f11610097578063bc9cad8a11610071578063bc9cad8a146105d6578063da35c66414610606578063e20e71f914610624578063fe8d724c14610640576101c4565b8063b201539f1461055a578063b2af0cc51461058a578063bc8c24d9146105ba576101c4565b8063865df0ad116100d3578063865df0ad146104ab57806388462f2c146104dc5780638984e993146104f8578063a3ec138d14610528576101c4565b80636d1efef01461041a57806376ce93f71461044a578063777ea2c91461047b576101c4565b8063361d5b791161016657806343242daa1161014057806343242daa1461036757806345f509961461039757806354a1b431146103b557806355d2f08e146103e7576101c4565b8063361d5b79146102fc57806338db6dd31461032f5780633c894da91461034b576101c4565b80630f0626b5116101a25780630f0626b514610249578063148f8e4f14610279578063162b040d146102ad5780632b6b189b146102e0576101c4565b8063013cf08b146101c95780630202f847146101fd5780630d61b5191461022d575b600080fd5b6101e360048036038101906101de91906124c2565b610670565b6040516101f4959493929190612c45565b60405180910390f35b61021760048036038101906102129190612423565b6106b3565b6040516102249190612aed565b60405180910390f35b610247600480360381019061024291906124c2565b6106cb565b005b610263600480360381019061025e91906124c2565b6108f5565b6040516102709190612aed565b60405180910390f35b610293600480360381019061028e91906124c2565b610919565b6040516102a4959493929190612b6f565b60405180910390f35b6102c760048036038101906102c291906124c2565b6109d7565b6040516102d79493929190612bf2565b60405180910390f35b6102fa60048036038101906102f59190612246565b610bf6565b005b610316600480360381019061031191906124c2565b610f7e565b6040516103269493929190612bf2565b60405180910390f35b61034960048036038101906103449190612219565b610f9c565b005b6103656004803603810190610360919061255c565b6111b0565b005b610381600480360381019061037c91906124c2565b61161d565b60405161038e919061289a565b60405180910390f35b61039f61165c565b6040516103ac9190612900565b60405180910390f35b6103cf60048036038101906103ca91906124c2565b611682565b6040516103de93929190612c98565b60405180910390f35b61040160048036038101906103fc91906124c2565b611717565b6040516104119493929190612bf2565b60405180910390f35b610434600480360381019061042f919061251c565b611735565b60405161044191906128e5565b60405180910390f35b610464600480360381019061045f91906124c2565b611764565b6040516104729291906128b5565b60405180910390f35b61049560048036038101906104909190612423565b6117f0565b6040516104a29190612aed565b60405180910390f35b6104c560048036038101906104c091906124c2565b611808565b6040516104d3929190612bc9565b60405180910390f35b6104f660048036038101906104f19190612246565b611862565b005b610512600480360381019061050d91906124c2565b611872565b60405161051f9190612aed565b60405180910390f35b610542600480360381019061053d9190612219565b611b55565b60405161055193929190612b08565b60405180910390f35b610574600480360381019061056f9190612354565b611b9f565b6040516105819190612aed565b60405180910390f35b6105a4600480360381019061059f9190612423565b611d9b565b6040516105b19190612aed565b60405180910390f35b6105d460048036038101906105cf9190612246565b611f36565b005b6105f060048036038101906105eb9190612299565b611f46565b6040516105fd9190612aed565b60405180910390f35b61060e611f60565b60405161061b9190612aed565b60405180910390f35b61063e60048036038101906106399190612219565b611f66565b005b61065a6004803603810190610655919061255c565b611faa565b6040516106679190612aed565b60405180910390f35b60066020528060005260406000206000915090508060000154908060010154908060020160009054906101000a900460ff16908060030154908060040154905085565b60006106c185858585611d9b565b9050949350505050565b600060066000838152602001908152602001600020905060008160000154141561072a576040517f08c379a000000000000000000000000000000000000000000000000000000000815260040161072190612acd565b60405180910390fd5b8060020160009054906101000a900460ff161561077c576040517f08c379a0000000000000000000000000000000000000000000000000000000008152600401610773906129cd565b60405180910390fd5b600061078783611808565b509050606060028214156107d2576040518060400160405280601681526020017f537569746162696c69747926507265666572656e636500000000000000000000815250905061080b565b6040518060400160405280601281526020017f436f73742d6566666563746976656e657373000000000000000000000000000081525090505b600460009054906101000a900473ffffffffffffffffffffffffffffffffffffffff1673ffffffffffffffffffffffffffffffffffffffff16637e4d1641826040518263ffffffff1660e01b8152600401610866919061291b565b600060405180830381600087803b15801561088057600080fd5b505af1158015610894573d6000803e3d6000fd5b5050505060018360020160006101000a81548160ff021916908315150217905550837fa09c997a61d7187a857f9280b7ebaa92865381236d98ef3e854bf0169d7afecc82846040516108e792919061293d565b60405180910390a250505050565b6003818154811061090557600080fd5b906000526020600020016000915090505481565b600260205280600052604060002060009150905080600001549080600101805461094290612ec7565b80601f016020809104026020016040519081016040528092919081815260200182805461096e90612ec7565b80156109bb5780601f10610990576101008083540402835291602001916109bb565b820191906000526020600020905b81548152906001019060200180831161099e57829003601f168201915b5050505050908060020154908060060154908060070154905085565b600080606080600080600060026000898152602001908152602001600020600301805480602002602001604051908101604052809291908181526020018280548015610a4257602002820191906000526020600020905b815481526020019060010190808311610a2e575b505050505090506000600260008a81526020019081526020016000206002015490506000825167ffffffffffffffff811115610a8157610a8061300a565b5b604051908082528060200260200182016040528015610aaf5781602001602082028036833780820191505090505b50905060005b8351811015610bdd5785600260008d81526020019081526020016000206004016000868481518110610aea57610ae9612fdb565b5b60200260200101518152602001908152602001600020541115610b6957600260008c81526020019081526020016000206004016000858381518110610b3257610b31612fdb565b5b60200260200101518152602001908152602001600020549550838181518110610b5e57610b5d612fdb565b5b602002602001015194505b600260008c81526020019081526020016000206004016000858381518110610b9457610b93612fdb565b5b6020026020010151815260200190815260200160002054828281518110610bbe57610bbd612fdb565b5b6020026020010181815250508080610bd590612f2a565b915050610ab5565b5083828483985098509850985050505050509193509193565b600073ffffffffffffffffffffffffffffffffffffffff166000808573ffffffffffffffffffffffffffffffffffffffff1673ffffffffffffffffffffffffffffffffffffffff16815260200190815260200160002060010160009054906101000a900473ffffffffffffffffffffffffffffffffffffffff1673ffffffffffffffffffffffffffffffffffffffff161415610cc7576040517f08c379a0000000000000000000000000000000000000000000000000000000008152600401610cbe906129ed565b60405180910390fd5b600015156002600084815260200190815260200160002060050160008573ffffffffffffffffffffffffffffffffffffffff1673ffffffffffffffffffffffffffffffffffffffff16815260200190815260200160002060009054906101000a900460ff16151514610d6e576040517f08c379a0000000000000000000000000000000000000000000000000000000008152600401610d6590612a2d565b60405180910390fd5b6002600083815260200190815260200160002060070154600260008481526020019081526020016000206006015410610ddc576040517f08c379a0000000000000000000000000000000000000000000000000000000008152600401610dd390612a6d565b60405180910390fd5b6000805b6002600085815260200190815260200160002060030180549050811015610f305782600260008681526020019081526020016000206003018281548110610e2a57610e29612fdb565b5b90600052602060002001541415610f1d5760016002600086815260200190815260200160002060040160008581526020019081526020016000206000828254610e739190612db1565b925050819055506001600260008681526020019081526020016000206006016000828254610ea19190612db1565b9250508190555060016002600086815260200190815260200160002060050160008773ffffffffffffffffffffffffffffffffffffffff1673ffffffffffffffffffffffffffffffffffffffff16815260200190815260200160002060006101000a81548160ff02191690831515021790555060019150610f30565b8080610f2890612f2a565b915050610de0565b506001151581151514610f78576040517f08c379a0000000000000000000000000000000000000000000000000000000008152600401610f6f9061296d565b60405180910390fd5b50505050565b600080606080610f8d856109d7565b93509350935093509193509193565b600073ffffffffffffffffffffffffffffffffffffffff166000808373ffffffffffffffffffffffffffffffffffffffff1673ffffffffffffffffffffffffffffffffffffffff16815260200190815260200160002060010160009054906101000a900473ffffffffffffffffffffffffffffffffffffffff1673ffffffffffffffffffffffffffffffffffffffff161461106c576040517f08c379a000000000000000000000000000000000000000000000000000000000815260040161106390612aad565b60405180910390fd5b6040518060600160405280600180805490506110889190612db1565b81526020018273ffffffffffffffffffffffffffffffffffffffff16815260200160018152506000808373ffffffffffffffffffffffffffffffffffffffff1673ffffffffffffffffffffffffffffffffffffffff1681526020019081526020016000206000820151816000015560208201518160010160006101000a81548173ffffffffffffffffffffffffffffffffffffffff021916908373ffffffffffffffffffffffffffffffffffffffff160217905550604082015181600201559050506001819080600181540180825580915050600190039060005260206000200160009091909190916101000a81548173ffffffffffffffffffffffffffffffffffffffff021916908373ffffffffffffffffffffffffffffffffffffffff16021790555050565b6000600460009054906101000a900473ffffffffffffffffffffffffffffffffffffffff1673ffffffffffffffffffffffffffffffffffffffff16630f7f13cf336040518263ffffffff1660e01b815260040161120d919061289a565b60206040518083038186803b15801561122557600080fd5b505afa158015611239573d6000803e3d6000fd5b505050506040513d601f19601f8201168201806040525081019061125d91906124ef565b141561129e576040517f08c379a000000000000000000000000000000000000000000000000000000000815260040161129590612a0d565b60405180910390fd5b60006006600084815260200190815260200160002090506000816000015414156112fd576040517f08c379a00000000000000000000000000000000000000000000000000000000081526004016112f490612acd565b60405180910390fd5b8060020160009054906101000a900460ff161561134f576040517f08c379a000000000000000000000000000000000000000000000000000000000815260040161134690612a4d565b60405180910390fd5b6000600460009054906101000a900473ffffffffffffffffffffffffffffffffffffffff1673ffffffffffffffffffffffffffffffffffffffff16630f7f13cf336040518263ffffffff1660e01b81526004016113ac919061289a565b60206040518083038186803b1580156113c457600080fd5b505afa1580156113d8573d6000803e3d6000fd5b505050506040513d601f19601f820116820180604052508101906113fc91906124ef565b90506000811415611442576040517f08c379a00000000000000000000000000000000000000000000000000000000081526004016114399061298d565b60405180910390fd5b60028310611485576040517f08c379a000000000000000000000000000000000000000000000000000000000815260040161147c90612a8d565b60405180910390fd5b6007600085815260200190815260200160002060003373ffffffffffffffffffffffffffffffffffffffff1673ffffffffffffffffffffffffffffffffffffffff16815260200190815260200160002060009054906101000a900460ff1615611523576040517f08c379a000000000000000000000000000000000000000000000000000000000815260040161151a906129ad565b60405180910390fd5b600183141561154b5781600301600081548092919061154190612f2a565b9190505550611566565b81600401600081548092919061156090612f2a565b91905055505b60016007600086815260200190815260200160002060003373ffffffffffffffffffffffffffffffffffffffff1673ffffffffffffffffffffffffffffffffffffffff16815260200190815260200160002060006101000a81548160ff0219169083151502179055506000600560008460010154815260200190815260200160002084815481106115fa576115f9612fdb565b5b9060005260206000200154905061161633846001015483611f36565b5050505050565b6001818154811061162d57600080fd5b906000526020600020016000915054906101000a900473ffffffffffffffffffffffffffffffffffffffff1681565b600460009054906101000a900473ffffffffffffffffffffffffffffffffffffffff1681565b600080600080600660008681526020019081526020016000206040518060a001604052908160008201548152602001600182015481526020016002820160009054906101000a900460ff1615151515815260200160038201548152602001600482015481525050905080606001518160800151826080015183606001516117099190612db1565b935093509350509193909250565b600080606080611726856109d7565b93509350935093509193509193565b60076020528160005260406000206020528060005260406000206000915091509054906101000a900460ff1681565b60606000600260008481526020019081526020016000206003016002600085815260200190815260200160002060020154818054806020026020016040519081016040528092919081815260200182805480156117e057602002820191906000526020600020905b8154815260200190600101908083116117cc575b5050505050915091509150915091565b60006117fe85858585611d9b565b9050949350505050565b60008060006006600085815260200190815260200160002090506000816004015482600301541161183a57600261183d565b60015b60ff16905080826004015483600301546118579190612db1565b935093505050915091565b61186d838383610bf6565b505050565b600080600460009054906101000a900473ffffffffffffffffffffffffffffffffffffffff1673ffffffffffffffffffffffffffffffffffffffff16630f7f13cf336040518263ffffffff1660e01b81526004016118d0919061289a565b60206040518083038186803b1580156118e857600080fd5b505afa1580156118fc573d6000803e3d6000fd5b505050506040513d601f19601f8201168201806040525081019061192091906124ef565b1415611961576040517f08c379a000000000000000000000000000000000000000000000000000000000815260040161195890612a0d565b60405180910390fd5b6000600267ffffffffffffffff81111561197e5761197d61300a565b5b6040519080825280602002602001820160405280156119ac5781602001602082028036833780820191505090505b5090506001816000815181106119c5576119c4612fdb565b5b6020026020010181815250506002816001815181106119e7576119e6612fdb565b5b6020026020010181815250506000611a4084604051602001611a099190612874565b60405160208183030381529060405285847fffffffffffffffffffffffffffffffffffffffffffffffffffffffffffffffff6106b3565b905081600560008381526020019081526020016000209080519060200190611a69929190611fdc565b506040518060a00160405280858152602001828152602001600015158152602001600081526020016000815250600660006008548152602001908152602001600020600082015181600001556020820151816001015560408201518160020160006101000a81548160ff0219169083151502179055506060820151816003015560808201518160040155905050836008547f588dccb0986c4198655070050849469a27cde1cecc8e248546bbfaf007188c6583604051611b299190612aed565b60405180910390a360086000815480929190611b4490612f2a565b919050555060085492505050919050565b60006020528060005260406000206000915090508060000154908060010160009054906101000a900473ffffffffffffffffffffffffffffffffffffffff16908060020154905083565b6000806001600380549050611bb49190612db1565b905080600260008381526020019081526020016000206000018190555086600260008381526020019081526020016000206001019080519060200190611bfb929190612029565b5060005b8551811015611cf5576000868281518110611c1d57611c1c612fdb565b5b602002602001015114611ce25760026000838152602001908152602001600020600301868281518110611c5357611c52612fdb565b5b60200260200101519080600181540180825580915050600190039060005260206000200160009091909190915055848181518110611c9457611c93612fdb565b5b6020026020010151600260008481526020019081526020016000206004016000888481518110611cc757611cc6612fdb565b5b60200260200101518152602001908152602001600020819055505b8080611ced90612f2a565b915050611bff565b5082600260008381526020019081526020016000206007018190555085600260008381526020019081526020016000206002018190555060038190806001815401808255809150506001900390600052602060002001600090919091909150557f9c770c289ab5bf7e57cb1d23c8ceae993aea46eb64847072fd3d78ca60d3e4328188604051611d86929190612b3f565b60405180910390a18091505095945050505050565b6000806001600380549050611db09190612db1565b905080600260008381526020019081526020016000206000018190555085600260008381526020019081526020016000206001019080519060200190611df7929190612029565b5060005b8451811015611e91576000858281518110611e1957611e18612fdb565b5b602002602001015114611e7e5760026000838152602001908152602001600020600301858281518110611e4f57611e4e612fdb565b5b602002602001015190806001815401808255809150506001900390600052602060002001600090919091909150555b8080611e8990612f2a565b915050611dfb565b5082600260008381526020019081526020016000206007018190555084600260008381526020019081526020016000206002018190555060038190806001815401808255809150506001900390600052602060002001600090919091909150557f9c770c289ab5bf7e57cb1d23c8ceae993aea46eb64847072fd3d78ca60d3e4328187604051611f22929190612b3f565b60405180910390a180915050949350505050565b611f41838383610bf6565b505050565b6000611f56858585856007611b9f565b9050949350505050565b60085481565b80600460006101000a81548173ffffffffffffffffffffffffffffffffffffffff021916908373ffffffffffffffffffffffffffffffffffffffff16021790555050565b600060026000848152602001908152602001600020600401600083815260200190815260200160002054905092915050565b828054828255906000526020600020908101928215612018579160200282015b82811115612017578251825591602001919060010190611ffc565b5b50905061202591906120af565b5090565b82805461203590612ec7565b90600052602060002090601f016020900481019282612057576000855561209e565b82601f1061207057805160ff191683800117855561209e565b8280016001018555821561209e579182015b8281111561209d578251825591602001919060010190612082565b5b5090506120ab91906120af565b5090565b5b808211156120c85760008160009055506001016120b0565b5090565b60006120df6120da84612cf4565b612ccf565b905080838252602082019050828560208602820111156121025761210161303e565b5b60005b85811015612132578161211888826121ef565b845260208401935060208301925050600181019050612105565b5050509392505050565b600061214f61214a84612d20565b612ccf565b90508281526020810184848401111561216b5761216a613043565b5b612176848285612e85565b509392505050565b60008135905061218d81613278565b92915050565b600082601f8301126121a8576121a7613039565b5b81356121b88482602086016120cc565b91505092915050565b600082601f8301126121d6576121d5613039565b5b81356121e684826020860161213c565b91505092915050565b6000813590506121fe8161328f565b92915050565b6000815190506122138161328f565b92915050565b60006020828403121561222f5761222e61304d565b5b600061223d8482850161217e565b91505092915050565b60008060006060848603121561225f5761225e61304d565b5b600061226d8682870161217e565b935050602061227e868287016121ef565b925050604061228f868287016121ef565b9150509250925092565b600080600080608085870312156122b3576122b261304d565b5b600085013567ffffffffffffffff8111156122d1576122d0613048565b5b6122dd878288016121c1565b94505060206122ee878288016121ef565b935050604085013567ffffffffffffffff81111561230f5761230e613048565b5b61231b87828801612193565b925050606085013567ffffffffffffffff81111561233c5761233b613048565b5b61234887828801612193565b91505092959194509250565b600080600080600060a086880312156123705761236f61304d565b5b600086013567ffffffffffffffff81111561238e5761238d613048565b5b61239a888289016121c1565b95505060206123ab888289016121ef565b945050604086013567ffffffffffffffff8111156123cc576123cb613048565b5b6123d888828901612193565b935050606086013567ffffffffffffffff8111156123f9576123f8613048565b5b61240588828901612193565b9250506080612416888289016121ef565b9150509295509295909350565b6000806000806080858703121561243d5761243c61304d565b5b600085013567ffffffffffffffff81111561245b5761245a613048565b5b612467878288016121c1565b9450506020612478878288016121ef565b935050604085013567ffffffffffffffff81111561249957612498613048565b5b6124a587828801612193565b92505060606124b6878288016121ef565b91505092959194509250565b6000602082840312156124d8576124d761304d565b5b60006124e6848285016121ef565b91505092915050565b6000602082840312156125055761250461304d565b5b600061251384828501612204565b91505092915050565b600080604083850312156125335761253261304d565b5b6000612541858286016121ef565b92505060206125528582860161217e565b9150509250929050565b600080604083850312156125735761257261304d565b5b6000612581858286016121ef565b9250506020612592858286016121ef565b9150509250929050565b60006125a8838361283f565b60208301905092915050565b6125bd81612e07565b82525050565b60006125ce82612d61565b6125d88185612d84565b93506125e383612d51565b8060005b838110156126145781516125fb888261259c565b975061260683612d77565b9250506001810190506125e7565b5085935050505092915050565b61262a81612e19565b82525050565b61263981612e4f565b82525050565b600061264a82612d6c565b6126548185612d95565b9350612664818560208601612e94565b61266d81613052565b840191505092915050565b6000612685601883612d95565b915061269082613063565b602082019050919050565b60006126a8600783612da6565b91506126b38261308c565b600782019050919050565b60006126cb601483612d95565b91506126d6826130b5565b602082019050919050565b60006126ee600d83612d95565b91506126f9826130de565b602082019050919050565b6000612711601083612d95565b915061271c82613107565b602082019050919050565b6000612734600f83612d95565b915061273f82613130565b602082019050919050565b6000612757601b83612d95565b915061276282613159565b602082019050919050565b600061277a600c83612d95565b915061278582613182565b602082019050919050565b600061279d601183612d95565b91506127a8826131ab565b602082019050919050565b60006127c0601283612d95565b91506127cb826131d4565b602082019050919050565b60006127e3601a83612d95565b91506127ee826131fd565b602082019050919050565b6000612806600f83612d95565b915061281182613226565b602082019050919050565b6000612829601083612d95565b91506128348261324f565b602082019050919050565b61284881612e45565b82525050565b61285781612e45565b82525050565b61286e61286982612e45565b612f73565b82525050565b600061287f8261269b565b915061288b828461285d565b60208201915081905092915050565b60006020820190506128af60008301846125b4565b92915050565b600060408201905081810360008301526128cf81856125c3565b90506128de602083018461284e565b9392505050565b60006020820190506128fa6000830184612621565b92915050565b60006020820190506129156000830184612630565b92915050565b60006020820190508181036000830152612935818461263f565b905092915050565b60006040820190508181036000830152612957818561263f565b9050612966602083018461284e565b9392505050565b6000602082019050818103600083015261298681612678565b9050919050565b600060208201905081810360008301526129a6816126be565b9050919050565b600060208201905081810360008301526129c6816126e1565b9050919050565b600060208201905081810360008301526129e681612704565b9050919050565b60006020820190508181036000830152612a0681612727565b9050919050565b60006020820190508181036000830152612a268161274a565b9050919050565b60006020820190508181036000830152612a468161276d565b9050919050565b60006020820190508181036000830152612a6681612790565b9050919050565b60006020820190508181036000830152612a86816127b3565b9050919050565b60006020820190508181036000830152612aa6816127d6565b9050919050565b60006020820190508181036000830152612ac6816127f9565b9050919050565b60006020820190508181036000830152612ae68161281c565b9050919050565b6000602082019050612b02600083018461284e565b92915050565b6000606082019050612b1d600083018661284e565b612b2a60208301856125b4565b612b37604083018461284e565b949350505050565b6000604082019050612b54600083018561284e565b8181036020830152612b66818461263f565b90509392505050565b600060a082019050612b84600083018861284e565b8181036020830152612b96818761263f565b9050612ba5604083018661284e565b612bb2606083018561284e565b612bbf608083018461284e565b9695505050505050565b6000604082019050612bde600083018561284e565b612beb602083018461284e565b9392505050565b6000608082019050612c07600083018761284e565b612c14602083018661284e565b8181036040830152612c2681856125c3565b90508181036060830152612c3a81846125c3565b905095945050505050565b600060a082019050612c5a600083018861284e565b612c67602083018761284e565b612c746040830186612621565b612c81606083018561284e565b612c8e608083018461284e565b9695505050505050565b6000606082019050612cad600083018661284e565b612cba602083018561284e565b612cc7604083018461284e565b949350505050565b6000612cd9612cea565b9050612ce58282612ef9565b919050565b6000604051905090565b600067ffffffffffffffff821115612d0f57612d0e61300a565b5b602082029050602081019050919050565b600067ffffffffffffffff821115612d3b57612d3a61300a565b5b612d4482613052565b9050602081019050919050565b6000819050602082019050919050565b600081519050919050565b600081519050919050565b6000602082019050919050565b600082825260208201905092915050565b600082825260208201905092915050565b600081905092915050565b6000612dbc82612e45565b9150612dc783612e45565b9250827fffffffffffffffffffffffffffffffffffffffffffffffffffffffffffffffff03821115612dfc57612dfb612f7d565b5b828201905092915050565b6000612e1282612e25565b9050919050565b60008115159050919050565b600073ffffffffffffffffffffffffffffffffffffffff82169050919050565b6000819050919050565b6000612e5a82612e61565b9050919050565b6000612e6c82612e73565b9050919050565b6000612e7e82612e25565b9050919050565b82818337600083830152505050565b60005b83811015612eb2578082015181840152602081019050612e97565b83811115612ec1576000848401525b50505050565b60006002820490506001821680612edf57607f821691505b60208210811415612ef357612ef2612fac565b5b50919050565b612f0282613052565b810181811067ffffffffffffffff82111715612f2157612f2061300a565b5b80604052505050565b6000612f3582612e45565b91507fffffffffffffffffffffffffffffffffffffffffffffffffffffffffffffffff821415612f6857612f67612f7d565b5b600182019050919050565b6000819050919050565b7f4e487b7100000000000000000000000000000000000000000000000000000000600052601160045260246000fd5b7f4e487b7100000000000000000000000000000000000000000000000000000000600052602260045260246000fd5b7f4e487b7100000000000000000000000000000000000000000000000000000000600052603260045260246000fd5b7f4e487b7100000000000000000000000000000000000000000000000000000000600052604160045260246000fd5b600080fd5b600080fd5b600080fd5b600080fd5b600080fd5b6000601f19601f8301169050919050565b7fe68a95e7a5a8e79a84e98089e9a1b9e4b88de5ad98e59ca80000000000000000600082015250565b7f436f757273652000000000000000000000000000000000000000000000000000600082015250565b7f556e726567697374657265642074656163686572000000000000000000000000600082015250565b7f416c726561647920766f74656400000000000000000000000000000000000000600082015250565b7f416c726561647920657865637574656400000000000000000000000000000000600082015250565b7fe8b4a6e688b7e69caae6b3a8e5868c0000000000000000000000000000000000600082015250565b7f4f6e6c792074656163686572732063616e2063616c6c20746869730000000000600082015250565b7fe682a8e5b7b2e68a95e7a5a80000000000000000000000000000000000000000600082015250565b7f50726f706f73616c206578656375746564000000000000000000000000000000600082015250565b7fe68a95e7a5a8e4babae695b0e5b7b2e6bba10000000000000000000000000000600082015250565b7f496e76616c6964206f7074696f6e20696e6465782028302d3129000000000000600082015250565b7fe8b4a6e688b7e5b7b2e6b3a8e5868c0000000000000000000000000000000000600082015250565b7f496e76616c69642070726f706f73616c00000000000000000000000000000000600082015250565b61328181612e07565b811461328c57600080fd5b50565b61329881612e45565b81146132a357600080fd5b5056fea26469706673582212202cc943d4b2033e51e4054f3f0048075b25d97fa39f790aa38e1a66863accd5b364736f6c63430008070033",
  "immutableReferences": {},
  "source": "// SPDX-License-Identifier: MIT\r\npragma solidity ^0.8.7;\r\n\r\nimport \"./Vote.sol\";\r\nimport \"./ICourseAllocation.sol\";\r\n\r\ncontract TeacherVote is Vote {\r\n    ICourseAllocation public courseAllocation;\r\n\r\n    // // \r\n    // mapping(uint256 => mapping(uint256 => mapping(uint256 => uint256))) public teacherAgentSuitability;\r\n\r\n    // \r\n    mapping(uint256 => uint256[]) private _proposalOptions; //\r\n\r\n    struct ProposalBase {\r\n        uint256 courseId; //\r\n        uint256 suitabilityProposalId;\r\n        bool executed;\r\n        uint256 agreeCount;\r\n        uint256 disagreeCount;\r\n    }\r\n\r\n    mapping(uint256 => ProposalBase) public proposals;\r\n    mapping(uint256 => mapping(address => bool)) public suitabilityVotes;\r\n    // mapping(uint256 => mapping(uint256 => uint256[])) public teacherScores;        // \r\n\r\n    uint256 public proposalCount;\r\n\r\n    event NewCombinedProposal(\r\n        uint256 indexed proposalId,\r\n        uint256 indexed courseId,\r\n        uint256 suitabilityProposalId\r\n    );\r\n    event ProposalExecuted(uint256 indexed proposalId, string Choice, uint256 winningOption);\r\n\r\n    modifier onlyTeacher() {\r\n        require(\r\n            courseAllocation.addressToTeacherId(msg.sender) != 0,\r\n            \"Only teachers can call this\"\r\n        );\r\n        _;\r\n    }\r\n\r\n    constructor(address _courseAllocationAddress) Vote() {\r\n        courseAllocation = ICourseAllocation(_courseAllocationAddress);\r\n    }\r\n\r\n    function setCourseAllocation(address _addr) external {\r\n        courseAllocation = ICourseAllocation(_addr);\r\n    }\r\n\r\n    function createCombinedProposal(\r\n        uint256 courseId\r\n    ) external onlyTeacher returns (uint256) {\r\n        // \r\n        uint256[] memory options = new uint256[](2);\r\n        options[0] = 1; // \r\n        options[1] = 2; // \r\n\r\n        // \r\n        uint256 suitabilityProposalId = createChooseTeacherProposal(\r\n            string(abi.encodePacked(\"Course \", courseId)),\r\n            courseId,\r\n            options,\r\n            type(uint256).max\r\n        );\r\n\r\n        // \r\n        _proposalOptions[suitabilityProposalId] = options;\r\n\r\n        // \r\n\r\n        proposals[proposalCount] = ProposalBase({\r\n            courseId: courseId,\r\n            suitabilityProposalId: suitabilityProposalId,\r\n            executed: false,\r\n            agreeCount: 0,\r\n            disagreeCount: 0\r\n        });\r\n\r\n        emit NewCombinedProposal(\r\n            proposalCount,\r\n            courseId,\r\n            suitabilityProposalId\r\n        );\r\n        proposalCount++;        \r\n        return proposalCount;\r\n    }\r\n\r\n    function submitCombinedVote(\r\n        uint256 proposalId,\r\n        uint256 suitabilityOptionIndex\r\n    ) external onlyTeacher {\r\n        ProposalBase storage p = proposals[proposalId];\r\n        require(p.courseId != 0, \"Invalid proposal\");\r\n        require(!p.executed, \"Proposal executed\");\r\n\r\n        // \r\n        uint256 teacherId = courseAllocation.addressToTeacherId(msg.sender);\r\n        require(teacherId != 0, \"Unregistered teacher\");\r\n\r\n        // \r\n        require(suitabilityOptionIndex < 2, \"Invalid option index (0-1)\");\r\n        require(!suitabilityVotes[proposalId][msg.sender], \"Already voted\");\r\n\r\n        if (suitabilityOptionIndex == 1) {\r\n            p.agreeCount++;\r\n        } else {\r\n            p.disagreeCount++;\r\n        }\r\n        suitabilityVotes[proposalId][msg.sender] = true;\r\n\r\n        // \r\n        uint256 optionValue = _proposalOptions[p.suitabilityProposalId][\r\n            suitabilityOptionIndex\r\n        ];\r\n\r\n        // \r\n        super.voteChooseTeacher(\r\n            msg.sender,\r\n            p.suitabilityProposalId,\r\n            optionValue\r\n        );\r\n    }\r\n\r\n    // // \r\n    // function setTeacherSuitabilityForAllCourses(\r\n    //     uint256 _teacherId,\r\n    //     uint256 _agentId,\r\n    //     uint256[] memory _courseIds,  //  ID \r\n    //     uint256[] memory _suitabilities  // \r\n    // ) public {\r\n    //     require(_courseIds.length == _suitabilities.length, unicode\"\");\r\n\r\n    //     // \r\n    //     for (uint256 i = 0; i < _courseIds.length; i++) {\r\n    //         uint256 suitability = _suitabilities[i];\r\n\r\n    //         // 0100\r\n    //         require(suitability >= 0 && suitability <= 100, unicode\"\");\r\n\r\n    //         //  teacherScores \r\n    //         teacherScores[_teacherId][_agentId].push(suitability);\r\n    //     }\r\n    // }\r\n\r\n    // // \r\n    // function saveAverageSuitability(uint256 _agentId, uint256[] memory _courseIds) public {\r\n    //     uint256 numTeachers = 5;  // \r\n    //     uint256[] memory averageSuitabilities = new uint256[](_courseIds.length);\r\n\r\n    //     // \r\n    //     for (uint256 j = 0; j < _courseIds.length; j++) {\r\n    //         uint256 totalSuitability = 0;\r\n\r\n    //         for (uint256 teacherId = 0; teacherId < numTeachers; teacherId++) {\r\n    //             uint256[] memory scores = teacherScores[teacherId][_agentId];\r\n    //             totalSuitability += scores[j];  // \r\n    //         }\r\n\r\n    //         // \r\n    //         uint256 averageSuitability = totalSuitability / numTeachers;\r\n    //         averageSuitabilities[j] = averageSuitability;\r\n    //     }\r\n\r\n    //     //  setAllAgentCourseSuitability \r\n    //     courseAllocation.setAllAgentCourseSuitability(_agentId, averageSuitabilities);\r\n    // }\r\n\r\n    function executeProposal(uint256 proposalId) external {\r\n        ProposalBase storage p = proposals[proposalId];\r\n        require(p.courseId != 0, \"Invalid proposal\");\r\n        require(!p.executed, \"Already executed\");\r\n\r\n        // \r\n        (uint256 winningOption, ) = endVote(proposalId);\r\n\r\n        string memory Choice;\r\n        if (winningOption == 2) {\r\n            Choice = \"Suitability&Preference\";\r\n        } else Choice = \"Cost-effectiveness\";\r\n\r\n        // \r\n        courseAllocation.setScoreType(Choice);\r\n\r\n        p.executed = true;\r\n        emit ProposalExecuted(proposalId, Choice, winningOption);\r\n    }\r\n\r\n    function endVote(\r\n        uint256 _proposalId\r\n    ) public view returns (uint256, uint256) {\r\n        ProposalBase storage p = proposals[_proposalId];\r\n\r\n        //  \"\"\r\n        uint256 winningOption = (p.agreeCount > p.disagreeCount) ? 1 : 2; // 2 1   1 2suit preference\r\n        return (winningOption, p.agreeCount + p.disagreeCount); // \r\n    }\r\n\r\n    function getVoteDetails(\r\n        uint256 proposalId\r\n    ) external view returns (uint256 agree, uint256 disagree, uint256 total) {\r\n        ProposalBase memory p = proposals[proposalId];\r\n        return (p.agreeCount, p.disagreeCount, p.agreeCount + p.disagreeCount);\r\n    }\r\n}\r\n",
  "sourcePath": "E:\\\\paper\\DAO\\git-DAO\\yzt\\Course-allocation\\project\\contracts\\TeacherVote.sol",
  "compiler": {
    "name": "solc",
    "version": "0.8.7+commit.e28d00a7.Emscripten.clang"
  },
  "schemaVersion": "3.4.16",
  "updatedAt": "2025-04-18T10:26:11.316Z",
  "networkType": "ethereum",
  "devdoc": {
    "kind": "dev",
    "methods": {},
    "version": 1
  },
  "userdoc": {
    "kind": "user",
    "methods": {},
    "version": 1
  }
}