{
  "contractName": "TeacherVote",
  "abi": [
    {
      "inputs": [
        {
          "internalType": "address",
          "name": "_courseAllocationAddress",
          "type": "address"
        }
      ],
      "stateMutability": "nonpayable",
      "type": "constructor"
    },
    {
      "anonymous": false,
      "inputs": [
        {
          "indexed": true,
          "internalType": "uint256",
          "name": "proposalId",
          "type": "uint256"
        },
        {
          "indexed": true,
          "internalType": "uint256",
          "name": "courseId",
          "type": "uint256"
        }
      ],
      "name": "NewRatingProposal",
      "type": "event"
    },
    {
      "anonymous": false,
      "inputs": [
        {
          "indexed": false,
          "internalType": "uint256",
          "name": "proposalId",
          "type": "uint256"
        },
        {
          "indexed": false,
          "internalType": "string",
          "name": "description",
          "type": "string"
        }
      ],
      "name": "ProposalCreated",
      "type": "event"
    },
    {
      "anonymous": false,
      "inputs": [
        {
          "indexed": true,
          "internalType": "uint256",
          "name": "proposalId",
          "type": "uint256"
        },
        {
          "indexed": false,
          "internalType": "uint256",
          "name": "avgImportance",
          "type": "uint256"
        },
        {
          "indexed": false,
          "internalType": "bool",
          "name": "isAgentSuitable",
          "type": "bool"
        }
      ],
      "name": "ProposalExecuted",
      "type": "event"
    },
    {
      "inputs": [],
      "name": "courseAllocation",
      "outputs": [
        {
          "internalType": "contract CourseAllocation",
          "name": "",
          "type": "address"
        }
      ],
      "stateMutability": "view",
      "type": "function",
      "constant": true
    },
    {
      "inputs": [
        {
          "internalType": "string",
          "name": "_description",
          "type": "string"
        },
        {
          "internalType": "uint256",
          "name": "_voteforID",
          "type": "uint256"
        },
        {
          "internalType": "uint256[]",
          "name": "_votedIds",
          "type": "uint256[]"
        },
        {
          "internalType": "uint256",
          "name": "_totalVote",
          "type": "uint256"
        }
      ],
      "name": "createChooseCourseProposal",
      "outputs": [
        {
          "internalType": "uint256",
          "name": "",
          "type": "uint256"
        }
      ],
      "stateMutability": "nonpayable",
      "type": "function"
    },
    {
      "inputs": [
        {
          "internalType": "string",
          "name": "_description",
          "type": "string"
        },
        {
          "internalType": "uint256",
          "name": "_voteforID",
          "type": "uint256"
        },
        {
          "internalType": "uint256[]",
          "name": "_votedIds",
          "type": "uint256[]"
        },
        {
          "internalType": "uint256",
          "name": "_totalVote",
          "type": "uint256"
        }
      ],
      "name": "createChooseTeacherProposal",
      "outputs": [
        {
          "internalType": "uint256",
          "name": "",
          "type": "uint256"
        }
      ],
      "stateMutability": "nonpayable",
      "type": "function"
    },
    {
      "inputs": [
        {
          "internalType": "string",
          "name": "_description",
          "type": "string"
        },
        {
          "internalType": "uint256",
          "name": "_voteforID",
          "type": "uint256"
        },
        {
          "internalType": "uint256[]",
          "name": "_votedIds",
          "type": "uint256[]"
        },
        {
          "internalType": "uint256[]",
          "name": "_votedCounts",
          "type": "uint256[]"
        },
        {
          "internalType": "uint256",
          "name": "_totalVote",
          "type": "uint256"
        }
      ],
      "name": "createMachineProposal",
      "outputs": [
        {
          "internalType": "uint256",
          "name": "",
          "type": "uint256"
        }
      ],
      "stateMutability": "nonpayable",
      "type": "function"
    },
    {
      "inputs": [
        {
          "internalType": "string",
          "name": "_description",
          "type": "string"
        },
        {
          "internalType": "uint256",
          "name": "_voteforID",
          "type": "uint256"
        },
        {
          "internalType": "uint256[]",
          "name": "_votedIds",
          "type": "uint256[]"
        },
        {
          "internalType": "uint256[]",
          "name": "_votedCounts",
          "type": "uint256[]"
        }
      ],
      "name": "createMachineVoteProposal",
      "outputs": [
        {
          "internalType": "uint256",
          "name": "",
          "type": "uint256"
        }
      ],
      "stateMutability": "nonpayable",
      "type": "function"
    },
    {
      "inputs": [
        {
          "internalType": "string",
          "name": "_description",
          "type": "string"
        },
        {
          "internalType": "uint256",
          "name": "_voteforID",
          "type": "uint256"
        },
        {
          "internalType": "uint256[]",
          "name": "_votedIds",
          "type": "uint256[]"
        },
        {
          "internalType": "uint256",
          "name": "_totalVote",
          "type": "uint256"
        }
      ],
      "name": "createProposalMultiple",
      "outputs": [
        {
          "internalType": "uint256",
          "name": "",
          "type": "uint256"
        }
      ],
      "stateMutability": "nonpayable",
      "type": "function"
    },
    {
      "inputs": [
        {
          "internalType": "uint256",
          "name": "_proposalId",
          "type": "uint256"
        }
      ],
      "name": "endVoteChooseCourse",
      "outputs": [
        {
          "internalType": "uint256",
          "name": "",
          "type": "uint256"
        },
        {
          "internalType": "uint256",
          "name": "",
          "type": "uint256"
        }
      ],
      "stateMutability": "view",
      "type": "function",
      "constant": true
    },
    {
      "inputs": [
        {
          "internalType": "uint256",
          "name": "_proposalId",
          "type": "uint256"
        }
      ],
      "name": "endVoteChooseTeacher",
      "outputs": [
        {
          "internalType": "uint256",
          "name": "",
          "type": "uint256"
        },
        {
          "internalType": "uint256",
          "name": "",
          "type": "uint256"
        }
      ],
      "stateMutability": "view",
      "type": "function",
      "constant": true
    },
    {
      "inputs": [
        {
          "internalType": "uint256",
          "name": "_proposalId",
          "type": "uint256"
        }
      ],
      "name": "endVoteMultiple",
      "outputs": [
        {
          "internalType": "uint256",
          "name": "",
          "type": "uint256"
        },
        {
          "internalType": "uint256",
          "name": "",
          "type": "uint256"
        }
      ],
      "stateMutability": "view",
      "type": "function",
      "constant": true
    },
    {
      "inputs": [
        {
          "internalType": "uint256",
          "name": "_proposalId",
          "type": "uint256"
        },
        {
          "internalType": "uint256",
          "name": "_voteId",
          "type": "uint256"
        }
      ],
      "name": "getVoteIdToCount",
      "outputs": [
        {
          "internalType": "uint256",
          "name": "",
          "type": "uint256"
        }
      ],
      "stateMutability": "view",
      "type": "function",
      "constant": true
    },
    {
      "inputs": [
        {
          "internalType": "uint256",
          "name": "_proposalId",
          "type": "uint256"
        }
      ],
      "name": "getVotedIds",
      "outputs": [
        {
          "internalType": "uint256[]",
          "name": "",
          "type": "uint256[]"
        },
        {
          "internalType": "uint256",
          "name": "",
          "type": "uint256"
        }
      ],
      "stateMutability": "view",
      "type": "function",
      "constant": true
    },
    {
      "inputs": [],
      "name": "proposalCount",
      "outputs": [
        {
          "internalType": "uint256",
          "name": "",
          "type": "uint256"
        }
      ],
      "stateMutability": "view",
      "type": "function",
      "constant": true
    },
    {
      "inputs": [
        {
          "internalType": "uint256",
          "name": "",
          "type": "uint256"
        }
      ],
      "name": "proposalMultipleIds",
      "outputs": [
        {
          "internalType": "uint256",
          "name": "",
          "type": "uint256"
        }
      ],
      "stateMutability": "view",
      "type": "function",
      "constant": true
    },
    {
      "inputs": [
        {
          "internalType": "uint256",
          "name": "",
          "type": "uint256"
        }
      ],
      "name": "proposalMultiples",
      "outputs": [
        {
          "internalType": "uint256",
          "name": "id",
          "type": "uint256"
        },
        {
          "internalType": "string",
          "name": "description",
          "type": "string"
        },
        {
          "internalType": "uint256",
          "name": "voteforID",
          "type": "uint256"
        },
        {
          "internalType": "uint256",
          "name": "voteCount",
          "type": "uint256"
        },
        {
          "internalType": "uint256",
          "name": "totalVote",
          "type": "uint256"
        }
      ],
      "stateMutability": "view",
      "type": "function",
      "constant": true
    },
    {
      "inputs": [
        {
          "internalType": "uint256",
          "name": "",
          "type": "uint256"
        }
      ],
      "name": "proposals",
      "outputs": [
        {
          "internalType": "uint256",
          "name": "courseId",
          "type": "uint256"
        },
        {
          "internalType": "uint256",
          "name": "totalRating",
          "type": "uint256"
        },
        {
          "internalType": "uint256",
          "name": "raterCount",
          "type": "uint256"
        },
        {
          "internalType": "bool",
          "name": "isAgentSuitable",
          "type": "bool"
        },
        {
          "internalType": "uint256",
          "name": "proposalId",
          "type": "uint256"
        },
        {
          "internalType": "bool",
          "name": "executed",
          "type": "bool"
        }
      ],
      "stateMutability": "view",
      "type": "function",
      "constant": true
    },
    {
      "inputs": [
        {
          "internalType": "address",
          "name": "_voter",
          "type": "address"
        }
      ],
      "name": "registerVoter",
      "outputs": [],
      "stateMutability": "nonpayable",
      "type": "function"
    },
    {
      "inputs": [
        {
          "internalType": "address",
          "name": "voterAddress",
          "type": "address"
        },
        {
          "internalType": "uint256",
          "name": "_proposalId",
          "type": "uint256"
        },
        {
          "internalType": "uint256",
          "name": "_voteId",
          "type": "uint256"
        }
      ],
      "name": "voteChooseCourse",
      "outputs": [],
      "stateMutability": "nonpayable",
      "type": "function"
    },
    {
      "inputs": [
        {
          "internalType": "address",
          "name": "voterAddress",
          "type": "address"
        },
        {
          "internalType": "uint256",
          "name": "_proposalId",
          "type": "uint256"
        },
        {
          "internalType": "uint256",
          "name": "_voteId",
          "type": "uint256"
        }
      ],
      "name": "voteChooseTeacher",
      "outputs": [],
      "stateMutability": "nonpayable",
      "type": "function"
    },
    {
      "inputs": [
        {
          "internalType": "address",
          "name": "voter",
          "type": "address"
        },
        {
          "internalType": "uint256",
          "name": "_proposalId",
          "type": "uint256"
        },
        {
          "internalType": "uint256",
          "name": "_voteId",
          "type": "uint256"
        }
      ],
      "name": "voteMultiple",
      "outputs": [],
      "stateMutability": "nonpayable",
      "type": "function"
    },
    {
      "inputs": [
        {
          "internalType": "address",
          "name": "",
          "type": "address"
        }
      ],
      "name": "voters",
      "outputs": [
        {
          "internalType": "uint256",
          "name": "id",
          "type": "uint256"
        },
        {
          "internalType": "address",
          "name": "voter",
          "type": "address"
        },
        {
          "internalType": "uint256",
          "name": "weight",
          "type": "uint256"
        }
      ],
      "stateMutability": "view",
      "type": "function",
      "constant": true
    },
    {
      "inputs": [
        {
          "internalType": "uint256",
          "name": "",
          "type": "uint256"
        }
      ],
      "name": "votersAddress",
      "outputs": [
        {
          "internalType": "address",
          "name": "",
          "type": "address"
        }
      ],
      "stateMutability": "view",
      "type": "function",
      "constant": true
    },
    {
      "inputs": [
        {
          "internalType": "uint256",
          "name": "courseId",
          "type": "uint256"
        },
        {
          "internalType": "bool",
          "name": "proposedAgentSuitable",
          "type": "bool"
        }
      ],
      "name": "createRatingProposal",
      "outputs": [
        {
          "internalType": "uint256",
          "name": "",
          "type": "uint256"
        }
      ],
      "stateMutability": "nonpayable",
      "type": "function"
    },
    {
      "inputs": [
        {
          "internalType": "uint256",
          "name": "proposalId",
          "type": "uint256"
        },
        {
          "internalType": "uint256",
          "name": "rating",
          "type": "uint256"
        }
      ],
      "name": "submitRating",
      "outputs": [],
      "stateMutability": "nonpayable",
      "type": "function"
    },
    {
      "inputs": [
        {
          "internalType": "uint256",
          "name": "proposalId",
          "type": "uint256"
        }
      ],
      "name": "executeProposal",
      "outputs": [],
      "stateMutability": "nonpayable",
      "type": "function"
    },
    {
      "inputs": [
        {
          "internalType": "uint256",
          "name": "proposalId",
          "type": "uint256"
        },
        {
          "internalType": "uint256",
          "name": "teacherId",
          "type": "uint256"
        }
      ],
      "name": "getTeacherRating",
      "outputs": [
        {
          "internalType": "uint256",
          "name": "",
          "type": "uint256"
        }
      ],
      "stateMutability": "view",
      "type": "function",
      "constant": true
    }
  ],
  "bytecode": "0x60806040523480156200001157600080fd5b5060405162002f8f38038062002f8f833981810160405281019062000037919062000096565b80600460006101000a81548173ffffffffffffffffffffffffffffffffffffffff021916908373ffffffffffffffffffffffffffffffffffffffff160217905550506200011b565b600081519050620000908162000101565b92915050565b600060208284031215620000af57620000ae620000fc565b5b6000620000bf848285016200007f565b91505092915050565b6000620000d582620000dc565b9050919050565b600073ffffffffffffffffffffffffffffffffffffffff82169050919050565b600080fd5b6200010c81620000c8565b81146200011857600080fd5b50565b612e64806200012b6000396000f3fe608060405234801561001057600080fd5b50600436106101735760003560e01c806355d2f08e116100de578063b201539f11610097578063bc9cad8a11610071578063bc9cad8a146104ed578063c845c1981461051d578063da35c6641461054d578063fe8d724c1461056b57610173565b8063b201539f14610471578063b2af0cc5146104a1578063bc8c24d9146104d157610173565b806355d2f08e1461037557806370851171146103a657806376ce93f7146103c2578063777ea2c9146103f357806388462f2c14610423578063a3ec138d1461043f57610173565b8063162b040d11610130578063162b040d1461028d5780632b6b189b146102be578063361d5b79146102da57806338db6dd31461030b57806343242daa1461032757806345f509961461035757610173565b8063013cf08b1461017857806301cc13f6146101ad5780630202f847146101dd5780630d61b5191461020d5780630f0626b514610229578063148f8e4f14610259575b600080fd5b610192600480360381019061018d919061205c565b61059b565b6040516101a49695949392919061277f565b60405180910390f35b6101c760048036038101906101c291906120b6565b6105f1565b6040516101d4919061261a565b60405180910390f35b6101f760048036038101906101f29190611fbd565b61092d565b604051610204919061261a565b60405180910390f35b6102276004803603810190610222919061205c565b610945565b005b610243600480360381019061023e919061205c565b610b1a565b604051610250919061261a565b60405180910390f35b610273600480360381019061026e919061205c565b610b3e565b6040516102849594939291906126c5565b60405180910390f35b6102a760048036038101906102a2919061205c565b610bfc565b6040516102b592919061271f565b60405180910390f35b6102d860048036038101906102d39190611de0565b610d60565b005b6102f460048036038101906102ef919061205c565b6110e8565b60405161030292919061271f565b60405180910390f35b61032560048036038101906103209190611db3565b6110fd565b005b610341600480360381019061033c919061205c565b611311565b60405161034e9190612434565b60405180910390f35b61035f611350565b60405161036c919061247f565b60405180910390f35b61038f600480360381019061038a919061205c565b611376565b60405161039d92919061271f565b60405180910390f35b6103c060048036038101906103bb91906120f6565b61138b565b005b6103dc60048036038101906103d7919061205c565b611685565b6040516103ea92919061244f565b60405180910390f35b61040d60048036038101906104089190611fbd565b611711565b60405161041a919061261a565b60405180910390f35b61043d60048036038101906104389190611de0565b611729565b005b61045960048036038101906104549190611db3565b611739565b60405161046893929190612635565b60405180910390f35b61048b60048036038101906104869190611eee565b611783565b604051610498919061261a565b60405180910390f35b6104bb60048036038101906104b69190611fbd565b61197f565b6040516104c8919061261a565b60405180910390f35b6104eb60048036038101906104e69190611de0565b611b1a565b005b61050760048036038101906105029190611e33565b611b2a565b604051610514919061261a565b60405180910390f35b610537600480360381019061053291906120f6565b611b44565b604051610544919061261a565b60405180910390f35b610555611b76565b604051610562919061261a565b60405180910390f35b610585600480360381019061058091906120f6565b611b7c565b604051610592919061261a565b60405180910390f35b60056020528060005260406000206000915090508060000154908060010154908060020154908060030160009054906101000a900460ff16908060040154908060050160009054906101000a900460ff16905086565b600080600460009054906101000a900473ffffffffffffffffffffffffffffffffffffffff1673ffffffffffffffffffffffffffffffffffffffff16630f7f13cf336040518263ffffffff1660e01b815260040161064f9190612434565b60206040518083038186803b15801561066757600080fd5b505afa15801561067b573d6000803e3d6000fd5b505050506040513d601f19601f8201168201806040525081019061069f9190612089565b14156106e0576040517f08c379a00000000000000000000000000000000000000000000000000000000081526004016106d79061253a565b60405180910390fd5b6000600460009054906101000a900473ffffffffffffffffffffffffffffffffffffffff1673ffffffffffffffffffffffffffffffffffffffff16630f7f13cf336040518263ffffffff1660e01b815260040161073d9190612434565b60206040518083038186803b15801561075557600080fd5b505afa158015610769573d6000803e3d6000fd5b505050506040513d601f19601f8201168201806040525081019061078d9190612089565b14156107ce576040517f08c379a00000000000000000000000000000000000000000000000000000000081526004016107c5906124ba565b60405180910390fd5b6000600267ffffffffffffffff8111156107eb576107ea612b7b565b5b6040519080825280602002602001820160405280156108195781602001602082028036833780820191505090505b50905060018160008151811061083257610831612b4c565b5b60200260200101818152505060028160018151811061085457610853612b4c565b5b602002602001018181525050600061088e85604051602001610876919061240e565b6040516020818303038152906040528684600061092d565b9050600660008154809291906108a390612a6c565b919050555060006005600060065481526020019081526020016000209050858160000181905550848160030160006101000a81548160ff021916908315150217905550818160040181905550856006547f2ecac54f4e0c294257c2927d07bb4a88af044bf272ca05ee184631007489a5cf60405160405180910390a3600654935050505092915050565b600061093b8585858561197f565b9050949350505050565b60006005600083815260200190815260200160002090508060050160009054906101000a900460ff16156109ae576040517f08c379a00000000000000000000000000000000000000000000000000000000081526004016109a5906124da565b60405180910390fd5b60008160020154116109f5576040517f08c379a00000000000000000000000000000000000000000000000000000000081526004016109ec906124fa565b60405180910390fd5b600081600201548260010154610a0b9190612918565b90506000610a1c8360040154611376565b5090506000600282149050600460009054906101000a900473ffffffffffffffffffffffffffffffffffffffff1673ffffffffffffffffffffffffffffffffffffffff16630dbd6b90856000015485846040518463ffffffff1660e01b8152600401610a8a93929190612748565b600060405180830381600087803b158015610aa457600080fd5b505af1158015610ab8573d6000803e3d6000fd5b5050505060018460050160006101000a81548160ff021916908315150217905550847f675c71fb6cbf880ec8fed9c345ef0bb3019cc44b99708edb402b85a7535d7d198483604051610b0b92919061266c565b60405180910390a25050505050565b60038181548110610b2a57600080fd5b906000526020600020016000915090505481565b6002602052806000526040600020600091509050806000015490806001018054610b6790612a09565b80601f0160208091040260200160405190810160405280929190818152602001828054610b9390612a09565b8015610be05780601f10610bb557610100808354040283529160200191610be0565b820191906000526020600020905b815481529060010190602001808311610bc357829003601f168201915b5050505050908060020154908060060154908060070154905085565b600080600080600060026000878152602001908152602001600020600301805480602002602001604051908101604052809291908181526020018280548015610c6457602002820191906000526020600020905b815481526020019060010190808311610c50575b5050505050905060006002600088815260200190815260200160002060020154905060005b8251811015610d505784600260008a81526020019081526020016000206004016000858481518110610cbe57610cbd612b4c565b5b60200260200101518152602001908152602001600020541115610d3d57600260008981526020019081526020016000206004016000848381518110610d0657610d05612b4c565b5b60200260200101518152602001908152602001600020549450828181518110610d3257610d31612b4c565b5b602002602001015193505b8080610d4890612a6c565b915050610c89565b5082819550955050505050915091565b600073ffffffffffffffffffffffffffffffffffffffff166000808573ffffffffffffffffffffffffffffffffffffffff1673ffffffffffffffffffffffffffffffffffffffff16815260200190815260200160002060010160009054906101000a900473ffffffffffffffffffffffffffffffffffffffff1673ffffffffffffffffffffffffffffffffffffffff161415610e31576040517f08c379a0000000000000000000000000000000000000000000000000000000008152600401610e289061251a565b60405180910390fd5b600015156002600084815260200190815260200160002060050160008573ffffffffffffffffffffffffffffffffffffffff1673ffffffffffffffffffffffffffffffffffffffff16815260200190815260200160002060009054906101000a900460ff16151514610ed8576040517f08c379a0000000000000000000000000000000000000000000000000000000008152600401610ecf9061257a565b60405180910390fd5b6002600083815260200190815260200160002060070154600260008481526020019081526020016000206006015410610f46576040517f08c379a0000000000000000000000000000000000000000000000000000000008152600401610f3d906125ba565b60405180910390fd5b6000805b600260008581526020019081526020016000206003018054905081101561109a5782600260008681526020019081526020016000206003018281548110610f9457610f93612b4c565b5b906000526020600020015414156110875760016002600086815260200190815260200160002060040160008581526020019081526020016000206000828254610fdd91906128c2565b92505081905550600160026000868152602001908152602001600020600601600082825461100b91906128c2565b9250508190555060016002600086815260200190815260200160002060050160008773ffffffffffffffffffffffffffffffffffffffff1673ffffffffffffffffffffffffffffffffffffffff16815260200190815260200160002060006101000a81548160ff0219169083151502179055506001915061109a565b808061109290612a6c565b915050610f4a565b5060011515811515146110e2576040517f08c379a00000000000000000000000000000000000000000000000000000000081526004016110d99061249a565b60405180910390fd5b50505050565b6000806110f483610bfc565b91509150915091565b600073ffffffffffffffffffffffffffffffffffffffff166000808373ffffffffffffffffffffffffffffffffffffffff1673ffffffffffffffffffffffffffffffffffffffff16815260200190815260200160002060010160009054906101000a900473ffffffffffffffffffffffffffffffffffffffff1673ffffffffffffffffffffffffffffffffffffffff16146111cd576040517f08c379a00000000000000000000000000000000000000000000000000000000081526004016111c4906125da565b60405180910390fd5b6040518060600160405280600180805490506111e991906128c2565b81526020018273ffffffffffffffffffffffffffffffffffffffff16815260200160018152506000808373ffffffffffffffffffffffffffffffffffffffff1673ffffffffffffffffffffffffffffffffffffffff1681526020019081526020016000206000820151816000015560208201518160010160006101000a81548173ffffffffffffffffffffffffffffffffffffffff021916908373ffffffffffffffffffffffffffffffffffffffff160217905550604082015181600201559050506001819080600181540180825580915050600190039060005260206000200160009091909190916101000a81548173ffffffffffffffffffffffffffffffffffffffff021916908373ffffffffffffffffffffffffffffffffffffffff16021790555050565b6001818154811061132157600080fd5b906000526020600020016000915054906101000a900473ffffffffffffffffffffffffffffffffffffffff1681565b600460009054906101000a900473ffffffffffffffffffffffffffffffffffffffff1681565b60008061138283610bfc565b91509150915091565b6000600460009054906101000a900473ffffffffffffffffffffffffffffffffffffffff1673ffffffffffffffffffffffffffffffffffffffff16630f7f13cf336040518263ffffffff1660e01b81526004016113e89190612434565b60206040518083038186803b15801561140057600080fd5b505afa158015611414573d6000803e3d6000fd5b505050506040513d601f19601f820116820180604052508101906114389190612089565b1415611479576040517f08c379a00000000000000000000000000000000000000000000000000000000081526004016114709061253a565b60405180910390fd5b60006005600084815260200190815260200160002090506000816000015414156114d8576040517f08c379a00000000000000000000000000000000000000000000000000000000081526004016114cf906125fa565b60405180910390fd5b600182101580156114ea5750600a8211155b611529576040517f08c379a00000000000000000000000000000000000000000000000000000000081526004016115209061255a565b60405180910390fd5b6000600460009054906101000a900473ffffffffffffffffffffffffffffffffffffffff1673ffffffffffffffffffffffffffffffffffffffff16630f7f13cf336040518263ffffffff1660e01b81526004016115869190612434565b60206040518083038186803b15801561159e57600080fd5b505afa1580156115b2573d6000803e3d6000fd5b505050506040513d601f19601f820116820180604052508101906115d69190612089565b905060008260060160008381526020019081526020016000205414611630576040517f08c379a00000000000000000000000000000000000000000000000000000000081526004016116279061259a565b60405180910390fd5b82826006016000838152602001908152602001600020819055508282600101600082825461165e91906128c2565b9250508190555081600201600081548092919061167a90612a6c565b919050555050505050565b606060006002600084815260200190815260200160002060030160026000858152602001908152602001600020600201548180548060200260200160405190810160405280929190818152602001828054801561170157602002820191906000526020600020905b8154815260200190600101908083116116ed575b5050505050915091509150915091565b600061171f8585858561197f565b9050949350505050565b611734838383610d60565b505050565b60006020528060005260406000206000915090508060000154908060010160009054906101000a900473ffffffffffffffffffffffffffffffffffffffff16908060020154905083565b600080600160038054905061179891906128c2565b9050806002600083815260200190815260200160002060000181905550866002600083815260200190815260200160002060010190805190602001906117df929190611bae565b5060005b85518110156118d957600086828151811061180157611800612b4c565b5b6020026020010151146118c6576002600083815260200190815260200160002060030186828151811061183757611836612b4c565b5b6020026020010151908060018154018082558091505060019003906000526020600020016000909190919091505584818151811061187857611877612b4c565b5b60200260200101516002600084815260200190815260200160002060040160008884815181106118ab576118aa612b4c565b5b60200260200101518152602001908152602001600020819055505b80806118d190612a6c565b9150506117e3565b5082600260008381526020019081526020016000206007018190555085600260008381526020019081526020016000206002018190555060038190806001815401808255809150506001900390600052602060002001600090919091909150557f9c770c289ab5bf7e57cb1d23c8ceae993aea46eb64847072fd3d78ca60d3e432818860405161196a929190612695565b60405180910390a18091505095945050505050565b600080600160038054905061199491906128c2565b9050806002600083815260200190815260200160002060000181905550856002600083815260200190815260200160002060010190805190602001906119db929190611bae565b5060005b8451811015611a755760008582815181106119fd576119fc612b4c565b5b602002602001015114611a625760026000838152602001908152602001600020600301858281518110611a3357611a32612b4c565b5b602002602001015190806001815401808255809150506001900390600052602060002001600090919091909150555b8080611a6d90612a6c565b9150506119df565b5082600260008381526020019081526020016000206007018190555084600260008381526020019081526020016000206002018190555060038190806001815401808255809150506001900390600052602060002001600090919091909150557f9c770c289ab5bf7e57cb1d23c8ceae993aea46eb64847072fd3d78ca60d3e4328187604051611b06929190612695565b60405180910390a180915050949350505050565b611b25838383610d60565b505050565b6000611b3a858585856007611783565b9050949350505050565b600060056000848152602001908152602001600020600601600083815260200190815260200160002054905092915050565b60065481565b600060026000848152602001908152602001600020600401600083815260200190815260200160002054905092915050565b828054611bba90612a09565b90600052602060002090601f016020900481019282611bdc5760008555611c23565b82601f10611bf557805160ff1916838001178555611c23565b82800160010185558215611c23579182015b82811115611c22578251825591602001919060010190611c07565b5b509050611c309190611c34565b5090565b5b80821115611c4d576000816000905550600101611c35565b5090565b6000611c64611c5f84612805565b6127e0565b90508083825260208201905082856020860282011115611c8757611c86612baf565b5b60005b85811015611cb75781611c9d8882611d89565b845260208401935060208301925050600181019050611c8a565b5050509392505050565b6000611cd4611ccf84612831565b6127e0565b905082815260208101848484011115611cf057611cef612bb4565b5b611cfb8482856129c7565b509392505050565b600081359050611d1281612de9565b92915050565b600082601f830112611d2d57611d2c612baa565b5b8135611d3d848260208601611c51565b91505092915050565b600081359050611d5581612e00565b92915050565b600082601f830112611d7057611d6f612baa565b5b8135611d80848260208601611cc1565b91505092915050565b600081359050611d9881612e17565b92915050565b600081519050611dad81612e17565b92915050565b600060208284031215611dc957611dc8612bbe565b5b6000611dd784828501611d03565b91505092915050565b600080600060608486031215611df957611df8612bbe565b5b6000611e0786828701611d03565b9350506020611e1886828701611d89565b9250506040611e2986828701611d89565b9150509250925092565b60008060008060808587031215611e4d57611e4c612bbe565b5b600085013567ffffffffffffffff811115611e6b57611e6a612bb9565b5b611e7787828801611d5b565b9450506020611e8887828801611d89565b935050604085013567ffffffffffffffff811115611ea957611ea8612bb9565b5b611eb587828801611d18565b925050606085013567ffffffffffffffff811115611ed657611ed5612bb9565b5b611ee287828801611d18565b91505092959194509250565b600080600080600060a08688031215611f0a57611f09612bbe565b5b600086013567ffffffffffffffff811115611f2857611f27612bb9565b5b611f3488828901611d5b565b9550506020611f4588828901611d89565b945050604086013567ffffffffffffffff811115611f6657611f65612bb9565b5b611f7288828901611d18565b935050606086013567ffffffffffffffff811115611f9357611f92612bb9565b5b611f9f88828901611d18565b9250506080611fb088828901611d89565b9150509295509295909350565b60008060008060808587031215611fd757611fd6612bbe565b5b600085013567ffffffffffffffff811115611ff557611ff4612bb9565b5b61200187828801611d5b565b945050602061201287828801611d89565b935050604085013567ffffffffffffffff81111561203357612032612bb9565b5b61203f87828801611d18565b925050606061205087828801611d89565b91505092959194509250565b60006020828403121561207257612071612bbe565b5b600061208084828501611d89565b91505092915050565b60006020828403121561209f5761209e612bbe565b5b60006120ad84828501611d9e565b91505092915050565b600080604083850312156120cd576120cc612bbe565b5b60006120db85828601611d89565b92505060206120ec85828601611d46565b9150509250929050565b6000806040838503121561210d5761210c612bbe565b5b600061211b85828601611d89565b925050602061212c85828601611d89565b9150509250929050565b600061214283836123d9565b60208301905092915050565b61215781612949565b82525050565b600061216882612872565b6121728185612895565b935061217d83612862565b8060005b838110156121ae5781516121958882612136565b97506121a083612888565b925050600181019050612181565b5085935050505092915050565b6121c48161295b565b82525050565b6121d381612991565b82525050565b60006121e48261287d565b6121ee81856128a6565b93506121fe8185602086016129d6565b61220781612bc3565b840191505092915050565b600061221f6018836128a6565b915061222a82612bd4565b602082019050919050565b6000612242601d836128b7565b915061224d82612bfd565b601d82019050919050565b6000612265600e836128a6565b915061227082612c26565b602082019050919050565b60006122886010836128a6565b915061229382612c4f565b602082019050919050565b60006122ab6014836128a6565b91506122b682612c78565b602082019050919050565b60006122ce600f836128a6565b91506122d982612ca1565b602082019050919050565b60006122f1601b836128a6565b91506122fc82612cca565b602082019050919050565b60006123146010836128a6565b915061231f82612cf3565b602082019050919050565b6000612337600c836128a6565b915061234282612d1c565b602082019050919050565b600061235a600d836128a6565b915061236582612d45565b602082019050919050565b600061237d6012836128a6565b915061238882612d6e565b602082019050919050565b60006123a0600f836128a6565b91506123ab82612d97565b602082019050919050565b60006123c36010836128a6565b91506123ce82612dc0565b602082019050919050565b6123e281612987565b82525050565b6123f181612987565b82525050565b61240861240382612987565b612ab5565b82525050565b600061241982612235565b915061242582846123f7565b60208201915081905092915050565b6000602082019050612449600083018461214e565b92915050565b60006040820190508181036000830152612469818561215d565b905061247860208301846123e8565b9392505050565b600060208201905061249460008301846121ca565b92915050565b600060208201905081810360008301526124b381612212565b9050919050565b600060208201905081810360008301526124d381612258565b9050919050565b600060208201905081810360008301526124f38161227b565b9050919050565b600060208201905081810360008301526125138161229e565b9050919050565b60006020820190508181036000830152612533816122c1565b9050919050565b60006020820190508181036000830152612553816122e4565b9050919050565b6000602082019050818103600083015261257381612307565b9050919050565b600060208201905081810360008301526125938161232a565b9050919050565b600060208201905081810360008301526125b38161234d565b9050919050565b600060208201905081810360008301526125d381612370565b9050919050565b600060208201905081810360008301526125f381612393565b9050919050565b60006020820190508181036000830152612613816123b6565b9050919050565b600060208201905061262f60008301846123e8565b92915050565b600060608201905061264a60008301866123e8565b612657602083018561214e565b61266460408301846123e8565b949350505050565b600060408201905061268160008301856123e8565b61268e60208301846121bb565b9392505050565b60006040820190506126aa60008301856123e8565b81810360208301526126bc81846121d9565b90509392505050565b600060a0820190506126da60008301886123e8565b81810360208301526126ec81876121d9565b90506126fb60408301866123e8565b61270860608301856123e8565b61271560808301846123e8565b9695505050505050565b600060408201905061273460008301856123e8565b61274160208301846123e8565b9392505050565b600060608201905061275d60008301866123e8565b61276a60208301856123e8565b61277760408301846121bb565b949350505050565b600060c08201905061279460008301896123e8565b6127a160208301886123e8565b6127ae60408301876123e8565b6127bb60608301866121bb565b6127c860808301856123e8565b6127d560a08301846121bb565b979650505050505050565b60006127ea6127fb565b90506127f68282612a3b565b919050565b6000604051905090565b600067ffffffffffffffff8211156128205761281f612b7b565b5b602082029050602081019050919050565b600067ffffffffffffffff82111561284c5761284b612b7b565b5b61285582612bc3565b9050602081019050919050565b6000819050602082019050919050565b600081519050919050565b600081519050919050565b6000602082019050919050565b600082825260208201905092915050565b600082825260208201905092915050565b600081905092915050565b60006128cd82612987565b91506128d883612987565b9250827fffffffffffffffffffffffffffffffffffffffffffffffffffffffffffffffff0382111561290d5761290c612abf565b5b828201905092915050565b600061292382612987565b915061292e83612987565b92508261293e5761293d612aee565b5b828204905092915050565b600061295482612967565b9050919050565b60008115159050919050565b600073ffffffffffffffffffffffffffffffffffffffff82169050919050565b6000819050919050565b600061299c826129a3565b9050919050565b60006129ae826129b5565b9050919050565b60006129c082612967565b9050919050565b82818337600083830152505050565b60005b838110156129f45780820151818401526020810190506129d9565b83811115612a03576000848401525b50505050565b60006002820490506001821680612a2157607f821691505b60208210811415612a3557612a34612b1d565b5b50919050565b612a4482612bc3565b810181811067ffffffffffffffff82111715612a6357612a62612b7b565b5b80604052505050565b6000612a7782612987565b91507fffffffffffffffffffffffffffffffffffffffffffffffffffffffffffffffff821415612aaa57612aa9612abf565b5b600182019050919050565b6000819050919050565b7f4e487b7100000000000000000000000000000000000000000000000000000000600052601160045260246000fd5b7f4e487b7100000000000000000000000000000000000000000000000000000000600052601260045260246000fd5b7f4e487b7100000000000000000000000000000000000000000000000000000000600052602260045260246000fd5b7f4e487b7100000000000000000000000000000000000000000000000000000000600052603260045260246000fd5b7f4e487b7100000000000000000000000000000000000000000000000000000000600052604160045260246000fd5b600080fd5b600080fd5b600080fd5b600080fd5b600080fd5b6000601f19601f8301169050919050565b7fe68a95e7a5a8e79a84e98089e9a1b9e4b88de5ad98e59ca80000000000000000600082015250565b7f4167656e7420537569746162696c69747920666f7220436f7572736520000000600082015250565b7f496e76616c696420636f75727365000000000000000000000000000000000000600082015250565b7f416c726561647920657865637574656400000000000000000000000000000000600082015250565b7f4e6f20726174696e6773207375626d6974746564000000000000000000000000600082015250565b7fe8b4a6e688b7e69caae6b3a8e5868c0000000000000000000000000000000000600082015250565b7f4f6e6c792074656163686572732063616e2063616c6c20746869730000000000600082015250565b7f526174696e6720312d3130206f6e6c7900000000000000000000000000000000600082015250565b7fe682a8e5b7b2e68a95e7a5a80000000000000000000000000000000000000000600082015250565b7f416c726561647920726174656400000000000000000000000000000000000000600082015250565b7fe68a95e7a5a8e4babae695b0e5b7b2e6bba10000000000000000000000000000600082015250565b7fe8b4a6e688b7e5b7b2e6b3a8e5868c0000000000000000000000000000000000600082015250565b7f496e76616c69642070726f706f73616c00000000000000000000000000000000600082015250565b612df281612949565b8114612dfd57600080fd5b50565b612e098161295b565b8114612e1457600080fd5b50565b612e2081612987565b8114612e2b57600080fd5b5056fea264697066735822122002f45afb7bbf3e490d7541ac787c79a4901626a6d36a3a87338848bc736a889164736f6c63430008070033",
  "immutableReferences": {},
  "source": "// SPDX-License-Identifier: MIT\r\npragma solidity ^0.8.7;\r\n\r\nimport \"./Vote.sol\";\r\nimport \"./CourseAllocation.sol\";\r\n\r\ncontract TeacherVote is Vote {\r\n    CourseAllocation public courseAllocation;\r\n\r\n    constructor(address _courseAllocationAddress) {\r\n        courseAllocation = CourseAllocation(_courseAllocationAddress);\r\n    }\r\n\r\n    // 课程评分提案结构\r\n    struct CourseRatingProposal {\r\n        uint256 courseId;\r\n        uint256 totalRating;\r\n        uint256 raterCount;\r\n        bool isAgentSuitable;\r\n        uint256 proposalId;\r\n        bool executed;\r\n        mapping(uint256 => uint256) teacherRatings;\r\n    }\r\n\r\n    mapping(uint256 => CourseRatingProposal) public proposals;\r\n    uint256 public proposalCount;\r\n\r\n    event NewRatingProposal(\r\n        uint256 indexed proposalId,\r\n        uint256 indexed courseId\r\n    );\r\n    event ProposalExecuted(\r\n        uint256 indexed proposalId,\r\n        uint256 avgImportance,\r\n        bool isAgentSuitable\r\n    );\r\n\r\n    modifier onlyTeacher() {\r\n        require(\r\n            courseAllocation.addressToTeacherId(msg.sender) != 0,\r\n            \"Only teachers can call this\"\r\n        );\r\n        _;\r\n    }\r\n\r\n    // 创建新课程评分提案（关键修改点）\r\n    function createRatingProposal(\r\n        uint256 courseId,\r\n        bool proposedAgentSuitable\r\n    ) external onlyTeacher returns (uint256) {\r\n        require(\r\n            courseAllocation.addressToTeacherId(msg.sender) != 0,\r\n            \"Invalid course\"\r\n        );\r\n\r\n        // 手动创建二元选择选项 [1=反对, 2=赞成]\r\n        uint256[] memory suitabilityOptions = new uint256[](2);\r\n        suitabilityOptions[0] = 1; // 选项1表示反对\r\n        suitabilityOptions[1] = 2; // 选项2表示赞成\r\n\r\n        // 创建适合性投票提案（显式传递选项）\r\n        uint256 suitabilityProposalId = createChooseTeacherProposal(\r\n            string(abi.encodePacked(\"Agent Suitability for Course \", courseId)),\r\n            courseId,\r\n            suitabilityOptions,\r\n            0 // 特殊标记表示需要全体老师投票\r\n        );\r\n\r\n        proposalCount++;\r\n        CourseRatingProposal storage p = proposals[proposalCount];\r\n        p.courseId = courseId;\r\n        p.isAgentSuitable = proposedAgentSuitable;\r\n        p.proposalId = suitabilityProposalId;\r\n\r\n        emit NewRatingProposal(proposalCount, courseId);\r\n        return proposalCount;\r\n    }\r\n\r\n    // 提交评分（保持不变）\r\n    function submitRating(\r\n        uint256 proposalId,\r\n        uint256 rating\r\n    ) external onlyTeacher {\r\n        CourseRatingProposal storage p = proposals[proposalId];\r\n        require(p.courseId != 0, \"Invalid proposal\");\r\n        require(rating >= 1 && rating <= 10, \"Rating 1-10 only\");\r\n\r\n        uint256 teacherId = courseAllocation.addressToTeacherId(msg.sender);\r\n        require(p.teacherRatings[teacherId] == 0, \"Already rated\");\r\n\r\n        p.teacherRatings[teacherId] = rating;\r\n        p.totalRating += rating;\r\n        p.raterCount++;\r\n    }\r\n\r\n    // 执行提案（修改结果判断逻辑）\r\n    function executeProposal(uint256 proposalId) external {\r\n        CourseRatingProposal storage p = proposals[proposalId];\r\n        require(!p.executed, \"Already executed\");\r\n        require(p.raterCount > 0, \"No ratings submitted\");\r\n\r\n        // 1. 计算平均重要性\r\n        uint256 avgImportance = p.totalRating / p.raterCount;\r\n\r\n        // 2. 处理适合性投票结果（选项2表示赞成）\r\n        (uint256 result, ) = endVoteChooseTeacher(p.proposalId);\r\n        bool finalSuitability = result == 2; // 只有选项2被视作赞成\r\n\r\n        // 3. 更新课程属性\r\n        courseAllocation.setCourseProperties(\r\n            p.courseId,\r\n            avgImportance,\r\n            finalSuitability\r\n        );\r\n\r\n        p.executed = true;\r\n        emit ProposalExecuted(proposalId, avgImportance, finalSuitability);\r\n    }\r\n\r\n    // 获取评分（保持不变）\r\n    function getTeacherRating(\r\n        uint256 proposalId,\r\n        uint256 teacherId\r\n    ) public view returns (uint256) {\r\n        return proposals[proposalId].teacherRatings[teacherId];\r\n    }\r\n}\r\n",
  "sourcePath": "E:\\dao\\327\\Course-allocation\\project\\contracts\\TeacherVote.sol",
  "compiler": {
    "name": "solc",
    "version": "0.8.7+commit.e28d00a7.Emscripten.clang"
  },
  "schemaVersion": "3.4.16",
  "updatedAt": "2025-04-02T11:17:45.220Z",
  "networkType": "ethereum",
  "devdoc": {
    "kind": "dev",
    "methods": {},
    "version": 1
  },
  "userdoc": {
    "kind": "user",
    "methods": {},
    "version": 1
  }
}