{
  "contractName": "Vote",
  "abi": [
    {
      "inputs": [],
      "stateMutability": "nonpayable",
      "type": "constructor"
    },
    {
      "anonymous": false,
      "inputs": [
        {
          "indexed": false,
          "internalType": "uint256",
          "name": "proposalId",
          "type": "uint256"
        },
        {
          "indexed": false,
          "internalType": "string",
          "name": "description",
          "type": "string"
        }
      ],
      "name": "ProposalCreated",
      "type": "event"
    },
    {
      "inputs": [
        {
          "internalType": "uint256",
          "name": "",
          "type": "uint256"
        }
      ],
      "name": "proposalMultipleIds",
      "outputs": [
        {
          "internalType": "uint256",
          "name": "",
          "type": "uint256"
        }
      ],
      "stateMutability": "view",
      "type": "function",
      "constant": true
    },
    {
      "inputs": [
        {
          "internalType": "uint256",
          "name": "",
          "type": "uint256"
        }
      ],
      "name": "proposalMultiples",
      "outputs": [
        {
          "internalType": "uint256",
          "name": "id",
          "type": "uint256"
        },
        {
          "internalType": "string",
          "name": "description",
          "type": "string"
        },
        {
          "internalType": "uint256",
          "name": "voteforID",
          "type": "uint256"
        },
        {
          "internalType": "uint256",
          "name": "voteCount",
          "type": "uint256"
        },
        {
          "internalType": "uint256",
          "name": "totalVote",
          "type": "uint256"
        }
      ],
      "stateMutability": "view",
      "type": "function",
      "constant": true
    },
    {
      "inputs": [
        {
          "internalType": "address",
          "name": "",
          "type": "address"
        }
      ],
      "name": "voters",
      "outputs": [
        {
          "internalType": "uint256",
          "name": "id",
          "type": "uint256"
        },
        {
          "internalType": "address",
          "name": "voter",
          "type": "address"
        },
        {
          "internalType": "uint256",
          "name": "weight",
          "type": "uint256"
        }
      ],
      "stateMutability": "view",
      "type": "function",
      "constant": true
    },
    {
      "inputs": [
        {
          "internalType": "uint256",
          "name": "",
          "type": "uint256"
        }
      ],
      "name": "votersAddress",
      "outputs": [
        {
          "internalType": "address",
          "name": "",
          "type": "address"
        }
      ],
      "stateMutability": "view",
      "type": "function",
      "constant": true
    },
    {
      "inputs": [
        {
          "internalType": "address",
          "name": "_voter",
          "type": "address"
        }
      ],
      "name": "registerVoter",
      "outputs": [],
      "stateMutability": "nonpayable",
      "type": "function"
    },
    {
      "inputs": [
        {
          "internalType": "string",
          "name": "_description",
          "type": "string"
        },
        {
          "internalType": "uint256",
          "name": "_voteforID",
          "type": "uint256"
        },
        {
          "internalType": "uint256[]",
          "name": "_votedIds",
          "type": "uint256[]"
        },
        {
          "internalType": "uint256",
          "name": "_totalVote",
          "type": "uint256"
        }
      ],
      "name": "createProposalMultiple",
      "outputs": [
        {
          "internalType": "uint256",
          "name": "",
          "type": "uint256"
        }
      ],
      "stateMutability": "nonpayable",
      "type": "function"
    },
    {
      "inputs": [
        {
          "internalType": "string",
          "name": "_description",
          "type": "string"
        },
        {
          "internalType": "uint256",
          "name": "_voteforID",
          "type": "uint256"
        },
        {
          "internalType": "uint256[]",
          "name": "_votedIds",
          "type": "uint256[]"
        },
        {
          "internalType": "uint256[]",
          "name": "_votedCounts",
          "type": "uint256[]"
        },
        {
          "internalType": "uint256",
          "name": "_totalVote",
          "type": "uint256"
        }
      ],
      "name": "createMachineProposal",
      "outputs": [
        {
          "internalType": "uint256",
          "name": "",
          "type": "uint256"
        }
      ],
      "stateMutability": "nonpayable",
      "type": "function"
    },
    {
      "inputs": [
        {
          "internalType": "uint256",
          "name": "_proposalId",
          "type": "uint256"
        }
      ],
      "name": "getVotedIds",
      "outputs": [
        {
          "internalType": "uint256[]",
          "name": "",
          "type": "uint256[]"
        },
        {
          "internalType": "uint256",
          "name": "",
          "type": "uint256"
        }
      ],
      "stateMutability": "view",
      "type": "function",
      "constant": true
    },
    {
      "inputs": [
        {
          "internalType": "uint256",
          "name": "_proposalId",
          "type": "uint256"
        },
        {
          "internalType": "uint256",
          "name": "_voteId",
          "type": "uint256"
        }
      ],
      "name": "getVoteIdToCount",
      "outputs": [
        {
          "internalType": "uint256",
          "name": "",
          "type": "uint256"
        }
      ],
      "stateMutability": "view",
      "type": "function",
      "constant": true
    },
    {
      "inputs": [
        {
          "internalType": "address",
          "name": "voter",
          "type": "address"
        },
        {
          "internalType": "uint256",
          "name": "_proposalId",
          "type": "uint256"
        },
        {
          "internalType": "uint256",
          "name": "_voteId",
          "type": "uint256"
        }
      ],
      "name": "voteMultiple",
      "outputs": [],
      "stateMutability": "nonpayable",
      "type": "function"
    },
    {
      "inputs": [
        {
          "internalType": "uint256",
          "name": "_proposalId",
          "type": "uint256"
        }
      ],
      "name": "endVoteMultiple",
      "outputs": [
        {
          "internalType": "uint256",
          "name": "",
          "type": "uint256"
        },
        {
          "internalType": "uint256",
          "name": "",
          "type": "uint256"
        }
      ],
      "stateMutability": "view",
      "type": "function",
      "constant": true
    },
    {
      "inputs": [
        {
          "internalType": "string",
          "name": "_description",
          "type": "string"
        },
        {
          "internalType": "uint256",
          "name": "_voteforID",
          "type": "uint256"
        },
        {
          "internalType": "uint256[]",
          "name": "_votedIds",
          "type": "uint256[]"
        },
        {
          "internalType": "uint256",
          "name": "_totalVote",
          "type": "uint256"
        }
      ],
      "name": "createChooseTeacherProposal",
      "outputs": [
        {
          "internalType": "uint256",
          "name": "",
          "type": "uint256"
        }
      ],
      "stateMutability": "nonpayable",
      "type": "function"
    },
    {
      "inputs": [
        {
          "internalType": "string",
          "name": "_description",
          "type": "string"
        },
        {
          "internalType": "uint256",
          "name": "_voteforID",
          "type": "uint256"
        },
        {
          "internalType": "uint256[]",
          "name": "_votedIds",
          "type": "uint256[]"
        },
        {
          "internalType": "uint256[]",
          "name": "_votedCounts",
          "type": "uint256[]"
        }
      ],
      "name": "createMachineVoteProposal",
      "outputs": [
        {
          "internalType": "uint256",
          "name": "",
          "type": "uint256"
        }
      ],
      "stateMutability": "nonpayable",
      "type": "function"
    },
    {
      "inputs": [
        {
          "internalType": "string",
          "name": "_description",
          "type": "string"
        },
        {
          "internalType": "uint256",
          "name": "_voteforID",
          "type": "uint256"
        },
        {
          "internalType": "uint256[]",
          "name": "_votedIds",
          "type": "uint256[]"
        },
        {
          "internalType": "uint256",
          "name": "_totalVote",
          "type": "uint256"
        }
      ],
      "name": "createChooseCourseProposal",
      "outputs": [
        {
          "internalType": "uint256",
          "name": "",
          "type": "uint256"
        }
      ],
      "stateMutability": "nonpayable",
      "type": "function"
    },
    {
      "inputs": [
        {
          "internalType": "address",
          "name": "voterAddress",
          "type": "address"
        },
        {
          "internalType": "uint256",
          "name": "_proposalId",
          "type": "uint256"
        },
        {
          "internalType": "uint256",
          "name": "_voteId",
          "type": "uint256"
        }
      ],
      "name": "voteChooseTeacher",
      "outputs": [],
      "stateMutability": "nonpayable",
      "type": "function"
    },
    {
      "inputs": [
        {
          "internalType": "address",
          "name": "voterAddress",
          "type": "address"
        },
        {
          "internalType": "uint256",
          "name": "_proposalId",
          "type": "uint256"
        },
        {
          "internalType": "uint256",
          "name": "_voteId",
          "type": "uint256"
        }
      ],
      "name": "voteChooseCourse",
      "outputs": [],
      "stateMutability": "nonpayable",
      "type": "function"
    },
    {
      "inputs": [
        {
          "internalType": "uint256",
          "name": "_proposalId",
          "type": "uint256"
        }
      ],
      "name": "endVoteChooseTeacher",
      "outputs": [
        {
          "internalType": "uint256",
          "name": "",
          "type": "uint256"
        },
        {
          "internalType": "uint256",
          "name": "",
          "type": "uint256"
        }
      ],
      "stateMutability": "view",
      "type": "function",
      "constant": true
    },
    {
      "inputs": [
        {
          "internalType": "uint256",
          "name": "_proposalId",
          "type": "uint256"
        }
      ],
      "name": "endVoteChooseCourse",
      "outputs": [
        {
          "internalType": "uint256",
          "name": "",
          "type": "uint256"
        },
        {
          "internalType": "uint256",
          "name": "",
          "type": "uint256"
        }
      ],
      "stateMutability": "view",
      "type": "function",
      "constant": true
    }
  ],
  "bytecode": "0x608060405234801561001057600080fd5b506120b0806100206000396000f3fe608060405234801561001057600080fd5b50600436106101165760003560e01c806376ce93f7116100a2578063b201539f11610071578063b201539f14610359578063b2af0cc514610389578063bc8c24d9146103b9578063bc9cad8a146103d5578063fe8d724c1461040557610116565b806376ce93f7146102aa578063777ea2c9146102db57806388462f2c1461030b578063a3ec138d1461032757610116565b80632b6b189b116100e95780632b6b189b146101e0578063361d5b79146101fc57806338db6dd31461022d57806343242daa1461024957806355d2f08e1461027957610116565b80630202f8471461011b5780630f0626b51461014b578063148f8e4f1461017b578063162b040d146101af575b600080fd5b610135600480360381019061013091906116e3565b610435565b6040516101429190611aeb565b60405180910390f35b61016560048036038101906101609190611782565b61044d565b6040516101729190611aeb565b60405180910390f35b61019560048036038101906101909190611782565b610471565b6040516101a6959493929190611b6d565b60405180910390f35b6101c960048036038101906101c49190611782565b61052f565b6040516101d7929190611bc7565b60405180910390f35b6101fa60048036038101906101f59190611506565b610693565b005b61021660048036038101906102119190611782565b610b90565b604051610224929190611bc7565b60405180910390f35b610247600480360381019061024291906114d9565b610ba5565b005b610263600480360381019061025e9190611782565b610db9565b60405161027091906119c0565b60405180910390f35b610293600480360381019061028e9190611782565b610df8565b6040516102a1929190611bc7565b60405180910390f35b6102c460048036038101906102bf9190611782565b610e0d565b6040516102d29291906119db565b60405180910390f35b6102f560048036038101906102f091906116e3565b610e99565b6040516103029190611aeb565b60405180910390f35b61032560048036038101906103209190611506565b610eb1565b005b610341600480360381019061033c91906114d9565b610ec1565b60405161035093929190611b06565b60405180910390f35b610373600480360381019061036e9190611614565b610f0b565b6040516103809190611aeb565b60405180910390f35b6103a3600480360381019061039e91906116e3565b611107565b6040516103b09190611aeb565b60405180910390f35b6103d360048036038101906103ce9190611506565b6112a2565b005b6103ef60048036038101906103ea9190611559565b6112b2565b6040516103fc9190611aeb565b60405180910390f35b61041f600480360381019061041a91906117af565b6112cc565b60405161042c9190611aeb565b60405180910390f35b600061044385858585611107565b9050949350505050565b6003818154811061045d57600080fd5b906000526020600020016000915090505481565b600260205280600052604060002060009150905080600001549080600101805461049a90611d9b565b80601f01602080910402602001604051908101604052809291908181526020018280546104c690611d9b565b80156105135780601f106104e857610100808354040283529160200191610513565b820191906000526020600020905b8154815290600101906020018083116104f657829003601f168201915b5050505050908060020154908060060154908060070154905085565b60008060008060006002600087815260200190815260200160002060030180548060200260200160405190810160405280929190818152602001828054801561059757602002820191906000526020600020905b815481526020019060010190808311610583575b5050505050905060006002600088815260200190815260200160002060020154905060005b82518110156106835784600260008a815260200190815260200160002060040160008584815181106105f1576105f0611ea5565b5b602002602001015181526020019081526020016000205411156106705760026000898152602001908152602001600020600401600084838151811061063957610638611ea5565b5b6020026020010151815260200190815260200160002054945082818151811061066557610664611ea5565b5b602002602001015193505b808061067b90611dfe565b9150506105bc565b5082819550955050505050915091565b3073ffffffffffffffffffffffffffffffffffffffff163373ffffffffffffffffffffffffffffffffffffffff1614806106f857508273ffffffffffffffffffffffffffffffffffffffff163373ffffffffffffffffffffffffffffffffffffffff16145b610737576040517f08c379a000000000000000000000000000000000000000000000000000000000815260040161072e90611a6b565b60405180910390fd5b600073ffffffffffffffffffffffffffffffffffffffff166000808573ffffffffffffffffffffffffffffffffffffffff1673ffffffffffffffffffffffffffffffffffffffff16815260200190815260200160002060010160009054906101000a900473ffffffffffffffffffffffffffffffffffffffff1673ffffffffffffffffffffffffffffffffffffffff161415610808576040517f08c379a00000000000000000000000000000000000000000000000000000000081526004016107ff90611a2b565b60405180910390fd5b600073ffffffffffffffffffffffffffffffffffffffff166000808573ffffffffffffffffffffffffffffffffffffffff1673ffffffffffffffffffffffffffffffffffffffff16815260200190815260200160002060010160009054906101000a900473ffffffffffffffffffffffffffffffffffffffff1673ffffffffffffffffffffffffffffffffffffffff1614156108d9576040517f08c379a00000000000000000000000000000000000000000000000000000000081526004016108d090611a4b565b60405180910390fd5b600015156002600084815260200190815260200160002060050160008573ffffffffffffffffffffffffffffffffffffffff1673ffffffffffffffffffffffffffffffffffffffff16815260200190815260200160002060009054906101000a900460ff16151514610980576040517f08c379a000000000000000000000000000000000000000000000000000000000815260040161097790611a8b565b60405180910390fd5b60026000838152602001908152602001600020600701546002600084815260200190815260200160002060060154106109ee576040517f08c379a00000000000000000000000000000000000000000000000000000000081526004016109e590611aab565b60405180910390fd5b6000805b6002600085815260200190815260200160002060030180549050811015610b425782600260008681526020019081526020016000206003018281548110610a3c57610a3b611ea5565b5b90600052602060002001541415610b2f5760016002600086815260200190815260200160002060040160008581526020019081526020016000206000828254610a859190611cc7565b925050819055506001600260008681526020019081526020016000206006016000828254610ab39190611cc7565b9250508190555060016002600086815260200190815260200160002060050160008773ffffffffffffffffffffffffffffffffffffffff1673ffffffffffffffffffffffffffffffffffffffff16815260200190815260200160002060006101000a81548160ff02191690831515021790555060019150610b42565b8080610b3a90611dfe565b9150506109f2565b506001151581151514610b8a576040517f08c379a0000000000000000000000000000000000000000000000000000000008152600401610b8190611a0b565b60405180910390fd5b50505050565b600080610b9c8361052f565b91509150915091565b600073ffffffffffffffffffffffffffffffffffffffff166000808373ffffffffffffffffffffffffffffffffffffffff1673ffffffffffffffffffffffffffffffffffffffff16815260200190815260200160002060010160009054906101000a900473ffffffffffffffffffffffffffffffffffffffff1673ffffffffffffffffffffffffffffffffffffffff1614610c75576040517f08c379a0000000000000000000000000000000000000000000000000000000008152600401610c6c90611acb565b60405180910390fd5b604051806060016040528060018080549050610c919190611cc7565b81526020018273ffffffffffffffffffffffffffffffffffffffff16815260200160018152506000808373ffffffffffffffffffffffffffffffffffffffff1673ffffffffffffffffffffffffffffffffffffffff1681526020019081526020016000206000820151816000015560208201518160010160006101000a81548173ffffffffffffffffffffffffffffffffffffffff021916908373ffffffffffffffffffffffffffffffffffffffff160217905550604082015181600201559050506001819080600181540180825580915050600190039060005260206000200160009091909190916101000a81548173ffffffffffffffffffffffffffffffffffffffff021916908373ffffffffffffffffffffffffffffffffffffffff16021790555050565b60018181548110610dc957600080fd5b906000526020600020016000915054906101000a900473ffffffffffffffffffffffffffffffffffffffff1681565b600080610e048361052f565b91509150915091565b6060600060026000848152602001908152602001600020600301600260008581526020019081526020016000206002015481805480602002602001604051908101604052809291908181526020018280548015610e8957602002820191906000526020600020905b815481526020019060010190808311610e75575b5050505050915091509150915091565b6000610ea785858585611107565b9050949350505050565b610ebc838383610693565b505050565b60006020528060005260406000206000915090508060000154908060010160009054906101000a900473ffffffffffffffffffffffffffffffffffffffff16908060020154905083565b6000806001600380549050610f209190611cc7565b905080600260008381526020019081526020016000206000018190555086600260008381526020019081526020016000206001019080519060200190610f679291906112fe565b5060005b8551811015611061576000868281518110610f8957610f88611ea5565b5b60200260200101511461104e5760026000838152602001908152602001600020600301868281518110610fbf57610fbe611ea5565b5b6020026020010151908060018154018082558091505060019003906000526020600020016000909190919091505584818151811061100057610fff611ea5565b5b602002602001015160026000848152602001908152602001600020600401600088848151811061103357611032611ea5565b5b60200260200101518152602001908152602001600020819055505b808061105990611dfe565b915050610f6b565b5082600260008381526020019081526020016000206007018190555085600260008381526020019081526020016000206002018190555060038190806001815401808255809150506001900390600052602060002001600090919091909150557f9c770c289ab5bf7e57cb1d23c8ceae993aea46eb64847072fd3d78ca60d3e43281886040516110f2929190611b3d565b60405180910390a18091505095945050505050565b600080600160038054905061111c9190611cc7565b9050806002600083815260200190815260200160002060000181905550856002600083815260200190815260200160002060010190805190602001906111639291906112fe565b5060005b84518110156111fd57600085828151811061118557611184611ea5565b5b6020026020010151146111ea57600260008381526020019081526020016000206003018582815181106111bb576111ba611ea5565b5b602002602001015190806001815401808255809150506001900390600052602060002001600090919091909150555b80806111f590611dfe565b915050611167565b5082600260008381526020019081526020016000206007018190555084600260008381526020019081526020016000206002018190555060038190806001815401808255809150506001900390600052602060002001600090919091909150557f9c770c289ab5bf7e57cb1d23c8ceae993aea46eb64847072fd3d78ca60d3e432818760405161128e929190611b3d565b60405180910390a180915050949350505050565b6112ad838383610693565b505050565b60006112c2858585856007610f0b565b9050949350505050565b600060026000848152602001908152602001600020600401600083815260200190815260200160002054905092915050565b82805461130a90611d9b565b90600052602060002090601f01602090048101928261132c5760008555611373565b82601f1061134557805160ff1916838001178555611373565b82800160010185558215611373579182015b82811115611372578251825591602001919060010190611357565b5b5090506113809190611384565b5090565b5b8082111561139d576000816000905550600101611385565b5090565b60006113b46113af84611c15565b611bf0565b905080838252602082019050828560208602820111156113d7576113d6611f08565b5b60005b8581101561140757816113ed88826114c4565b8452602084019350602083019250506001810190506113da565b5050509392505050565b600061142461141f84611c41565b611bf0565b9050828152602081018484840111156114405761143f611f0d565b5b61144b848285611d59565b509392505050565b6000813590506114628161204c565b92915050565b600082601f83011261147d5761147c611f03565b5b813561148d8482602086016113a1565b91505092915050565b600082601f8301126114ab576114aa611f03565b5b81356114bb848260208601611411565b91505092915050565b6000813590506114d381612063565b92915050565b6000602082840312156114ef576114ee611f17565b5b60006114fd84828501611453565b91505092915050565b60008060006060848603121561151f5761151e611f17565b5b600061152d86828701611453565b935050602061153e868287016114c4565b925050604061154f868287016114c4565b9150509250925092565b6000806000806080858703121561157357611572611f17565b5b600085013567ffffffffffffffff81111561159157611590611f12565b5b61159d87828801611496565b94505060206115ae878288016114c4565b935050604085013567ffffffffffffffff8111156115cf576115ce611f12565b5b6115db87828801611468565b925050606085013567ffffffffffffffff8111156115fc576115fb611f12565b5b61160887828801611468565b91505092959194509250565b600080600080600060a086880312156116305761162f611f17565b5b600086013567ffffffffffffffff81111561164e5761164d611f12565b5b61165a88828901611496565b955050602061166b888289016114c4565b945050604086013567ffffffffffffffff81111561168c5761168b611f12565b5b61169888828901611468565b935050606086013567ffffffffffffffff8111156116b9576116b8611f12565b5b6116c588828901611468565b92505060806116d6888289016114c4565b9150509295509295909350565b600080600080608085870312156116fd576116fc611f17565b5b600085013567ffffffffffffffff81111561171b5761171a611f12565b5b61172787828801611496565b9450506020611738878288016114c4565b935050604085013567ffffffffffffffff81111561175957611758611f12565b5b61176587828801611468565b9250506060611776878288016114c4565b91505092959194509250565b60006020828403121561179857611797611f17565b5b60006117a6848285016114c4565b91505092915050565b600080604083850312156117c6576117c5611f17565b5b60006117d4858286016114c4565b92505060206117e5858286016114c4565b9150509250929050565b60006117fb83836119a2565b60208301905092915050565b61181081611d1d565b82525050565b600061182182611c82565b61182b8185611ca5565b935061183683611c72565b8060005b8381101561186757815161184e88826117ef565b975061185983611c98565b92505060018101905061183a565b5085935050505092915050565b600061187f82611c8d565b6118898185611cb6565b9350611899818560208601611d68565b6118a281611f1c565b840191505092915050565b60006118ba601883611cb6565b91506118c582611f2d565b602082019050919050565b60006118dd601483611cb6565b91506118e882611f56565b602082019050919050565b6000611900600f83611cb6565b915061190b82611f7f565b602082019050919050565b6000611923602083611cb6565b915061192e82611fa8565b602082019050919050565b6000611946600c83611cb6565b915061195182611fd1565b602082019050919050565b6000611969601283611cb6565b915061197482611ffa565b602082019050919050565b600061198c600f83611cb6565b915061199782612023565b602082019050919050565b6119ab81611d4f565b82525050565b6119ba81611d4f565b82525050565b60006020820190506119d56000830184611807565b92915050565b600060408201905081810360008301526119f58185611816565b9050611a0460208301846119b1565b9392505050565b60006020820190508181036000830152611a24816118ad565b9050919050565b60006020820190508181036000830152611a44816118d0565b9050919050565b60006020820190508181036000830152611a64816118f3565b9050919050565b60006020820190508181036000830152611a8481611916565b9050919050565b60006020820190508181036000830152611aa481611939565b9050919050565b60006020820190508181036000830152611ac48161195c565b9050919050565b60006020820190508181036000830152611ae48161197f565b9050919050565b6000602082019050611b0060008301846119b1565b92915050565b6000606082019050611b1b60008301866119b1565b611b286020830185611807565b611b3560408301846119b1565b949350505050565b6000604082019050611b5260008301856119b1565b8181036020830152611b648184611874565b90509392505050565b600060a082019050611b8260008301886119b1565b8181036020830152611b948187611874565b9050611ba360408301866119b1565b611bb060608301856119b1565b611bbd60808301846119b1565b9695505050505050565b6000604082019050611bdc60008301856119b1565b611be960208301846119b1565b9392505050565b6000611bfa611c0b565b9050611c068282611dcd565b919050565b6000604051905090565b600067ffffffffffffffff821115611c3057611c2f611ed4565b5b602082029050602081019050919050565b600067ffffffffffffffff821115611c5c57611c5b611ed4565b5b611c6582611f1c565b9050602081019050919050565b6000819050602082019050919050565b600081519050919050565b600081519050919050565b6000602082019050919050565b600082825260208201905092915050565b600082825260208201905092915050565b6000611cd282611d4f565b9150611cdd83611d4f565b9250827fffffffffffffffffffffffffffffffffffffffffffffffffffffffffffffffff03821115611d1257611d11611e47565b5b828201905092915050565b6000611d2882611d2f565b9050919050565b600073ffffffffffffffffffffffffffffffffffffffff82169050919050565b6000819050919050565b82818337600083830152505050565b60005b83811015611d86578082015181840152602081019050611d6b565b83811115611d95576000848401525b50505050565b60006002820490506001821680611db357607f821691505b60208210811415611dc757611dc6611e76565b5b50919050565b611dd682611f1c565b810181811067ffffffffffffffff82111715611df557611df4611ed4565b5b80604052505050565b6000611e0982611d4f565b91507fffffffffffffffffffffffffffffffffffffffffffffffffffffffffffffffff821415611e3c57611e3b611e47565b5b600182019050919050565b7f4e487b7100000000000000000000000000000000000000000000000000000000600052601160045260246000fd5b7f4e487b7100000000000000000000000000000000000000000000000000000000600052602260045260246000fd5b7f4e487b7100000000000000000000000000000000000000000000000000000000600052603260045260246000fd5b7f4e487b7100000000000000000000000000000000000000000000000000000000600052604160045260246000fd5b600080fd5b600080fd5b600080fd5b600080fd5b600080fd5b6000601f19601f8301169050919050565b7fe68a95e7a5a8e79a84e98089e9a1b9e4b88de5ad98e59ca80000000000000000600082015250565b7f566f746572206e6f742072656769737465726564000000000000000000000000600082015250565b7fe8b4a6e688b7e69caae6b3a8e5868c0000000000000000000000000000000000600082015250565b7f43616c6c6572206d75737420626520636f6e7472616374206f7220766f746572600082015250565b7fe682a8e5b7b2e68a95e7a5a80000000000000000000000000000000000000000600082015250565b7fe68a95e7a5a8e4babae695b0e5b7b2e6bba10000000000000000000000000000600082015250565b7fe8b4a6e688b7e5b7b2e6b3a8e5868c0000000000000000000000000000000000600082015250565b61205581611d1d565b811461206057600080fd5b50565b61206c81611d4f565b811461207757600080fd5b5056fea26469706673582212202b8e8223f1422f4eeb2cd9831635f746bcce9262a5dade12dcb7efc4fac4a61264736f6c63430008070033",
  "immutableReferences": {},
  "source": "// SPDX-License-Identifier: MIT\r\npragma solidity ^0.8.7;\r\n\r\nimport {IVote} from \"./VoteInterface.sol\";\r\n\r\ncontract Vote is IVote {\r\n    struct Voter {\r\n        uint256 id;\r\n        address voter;\r\n        uint256 weight;\r\n    }\r\n\r\n    struct ProposalMultiple {\r\n        uint256 id;\r\n        string description;\r\n        uint256 voteforID; // 为哪个ID进行投票\r\n        uint256[] votedIds; // 选项id,看投票的id是否在里面\r\n        mapping(uint256 => uint256) voteIdToCount; // 每个选项的票数\r\n        mapping(address => bool) ifVote; // 是否已经投票\r\n        uint256 voteCount; // 已经投票人数\r\n        uint256 totalVote; // 投票总数\r\n    }\r\n    mapping(address => Voter) public voters; // 投票者地址到投票者结构体的映射\r\n    address[] public votersAddress; // 投票者地址列表\r\n    mapping(uint256 => ProposalMultiple) public proposalMultiples; // 投票id到投票内容\r\n    uint256[] public proposalMultipleIds; // 投票id列表\r\n\r\n    // 事件：当有新提案创建时触发\r\n    event ProposalCreated(uint256 proposalId, string description);\r\n\r\n    constructor() {}\r\n\r\n    // 地址注册为投票者\r\n    function registerVoter(address _voter) public override(IVote) {\r\n        // 检查地址是否已注册\r\n        require(voters[_voter].voter == address(0), unicode\"账户已注册\");\r\n        // 注册新的投票者\r\n        voters[_voter] = Voter(votersAddress.length + 1, _voter, 1);\r\n        votersAddress.push(_voter);\r\n    }\r\n\r\n    // 添加提案\r\n    function createProposalMultiple(\r\n        string memory _description,\r\n        uint256 _voteforID,\r\n        uint256[] memory _votedIds,\r\n        uint256 _totalVote\r\n    ) public returns (uint256) {\r\n        uint256 newProposalId = proposalMultipleIds.length + 1;\r\n\r\n        proposalMultiples[newProposalId].id = newProposalId;\r\n        proposalMultiples[newProposalId].description = _description;\r\n        for (uint256 i = 0; i < _votedIds.length; i++) {\r\n            if (_votedIds[i] != 0) {\r\n                proposalMultiples[newProposalId].votedIds.push(_votedIds[i]);\r\n            }\r\n        }\r\n        proposalMultiples[newProposalId].totalVote = _totalVote;\r\n        proposalMultiples[newProposalId].voteforID = _voteforID;\r\n\r\n        proposalMultipleIds.push(newProposalId);\r\n\r\n        emit ProposalCreated(newProposalId, _description);\r\n\r\n        return newProposalId;\r\n    }\r\n\r\n    // 添加提案\r\n    function createMachineProposal(\r\n        string memory _description,\r\n        uint256 _voteforID,\r\n        uint256[] memory _votedIds,\r\n        uint256[] memory _votedCounts,\r\n        uint256 _totalVote\r\n    ) public returns (uint256) {\r\n        uint256 newProposalId = proposalMultipleIds.length + 1;\r\n\r\n        proposalMultiples[newProposalId].id = newProposalId;\r\n        proposalMultiples[newProposalId].description = _description;\r\n        for (uint256 i = 0; i < _votedIds.length; i++) {\r\n            if (_votedIds[i] != 0) {\r\n                proposalMultiples[newProposalId].votedIds.push(_votedIds[i]);\r\n                proposalMultiples[newProposalId].voteIdToCount[\r\n                    _votedIds[i]\r\n                ] = _votedCounts[i];\r\n            }\r\n        }\r\n        proposalMultiples[newProposalId].totalVote = _totalVote;\r\n        proposalMultiples[newProposalId].voteforID = _voteforID;\r\n\r\n        proposalMultipleIds.push(newProposalId);\r\n\r\n        emit ProposalCreated(newProposalId, _description);\r\n\r\n        return newProposalId;\r\n    }\r\n\r\n    // 查看某个提案被投票的选项的ids\r\n    function getVotedIds(\r\n        uint256 _proposalId\r\n    ) public view override(IVote) returns (uint256[] memory, uint256) {\r\n        return (\r\n            proposalMultiples[_proposalId].votedIds,\r\n            proposalMultiples[_proposalId].voteforID\r\n        );\r\n    }\r\n\r\n    // 查看某个提案某个选项的票数\r\n    function getVoteIdToCount(\r\n        uint256 _proposalId,\r\n        uint256 _voteId\r\n    ) public view override(IVote) returns (uint256) {\r\n        return proposalMultiples[_proposalId].voteIdToCount[_voteId];\r\n    }\r\n\r\n    // 投票\r\n    function voteMultiple(\r\n        address voter,\r\n        uint256 _proposalId,\r\n        uint256 _voteId\r\n    ) public {\r\n        // 增加严格的权限验证（关键修复）\r\n        require(\r\n            msg.sender == address(this) || msg.sender == voter,\r\n            \"Caller must be contract or voter\"\r\n        );\r\n\r\n        require(voters[voter].voter != address(0), \"Voter not registered\");\r\n        require(voters[voter].voter != address(0), unicode\"账户未注册\");\r\n        require(\r\n            proposalMultiples[_proposalId].ifVote[voter] == false,\r\n            unicode\"您已投票\"\r\n        );\r\n        require(\r\n            proposalMultiples[_proposalId].voteCount <\r\n                proposalMultiples[_proposalId].totalVote,\r\n            unicode\"投票人数已满\"\r\n        );\r\n        // 看投票的_voteId是否在votedIds里面\r\n        bool ifIn = false;\r\n        for (\r\n            uint256 i = 0;\r\n            i < proposalMultiples[_proposalId].votedIds.length;\r\n            i++\r\n        ) {\r\n            if (proposalMultiples[_proposalId].votedIds[i] == _voteId) {\r\n                proposalMultiples[_proposalId].voteIdToCount[_voteId] += 1;\r\n                proposalMultiples[_proposalId].voteCount += 1;\r\n                proposalMultiples[_proposalId].ifVote[voter] = true;\r\n                ifIn = true;\r\n                break;\r\n            }\r\n        }\r\n        require(ifIn == true, unicode\"投票的选项不存在\");\r\n    }\r\n\r\n    // 结束投票并返回结果\r\n    function endVoteMultiple(\r\n        uint256 _proposalId\r\n    ) public view returns (uint256, uint256) {\r\n        uint256 maxVoteCount = 0;\r\n        uint256 result = 0;\r\n        uint256[] memory temp = proposalMultiples[_proposalId].votedIds;\r\n        uint256 _voteforID = proposalMultiples[_proposalId].voteforID;\r\n        for (uint256 i = 0; i < temp.length; i++) {\r\n            if (\r\n                proposalMultiples[_proposalId].voteIdToCount[temp[i]] >\r\n                maxVoteCount\r\n            ) {\r\n                maxVoteCount = proposalMultiples[_proposalId].voteIdToCount[\r\n                    temp[i]\r\n                ];\r\n                result = temp[i];\r\n            }\r\n        }\r\n        return (result, _voteforID);\r\n    }\r\n\r\n    // 创建选老师提案\r\n    function createChooseTeacherProposal(\r\n        string memory _description,\r\n        uint256 _voteforID,\r\n        uint256[] memory _votedIds,\r\n        uint256 _totalVote\r\n    ) public override(IVote) returns (uint256) {\r\n        return\r\n            createProposalMultiple(\r\n                _description,\r\n                _voteforID,\r\n                _votedIds,\r\n                _totalVote\r\n            );\r\n    }\r\n\r\n    // 创机器投票提案\r\n    function createMachineVoteProposal(\r\n        string memory _description,\r\n        uint256 _voteforID,\r\n        uint256[] memory _votedIds,\r\n        uint256[] memory _votedCounts\r\n    ) public override(IVote) returns (uint256) {\r\n        return\r\n            createMachineProposal(\r\n                _description,\r\n                _voteforID,\r\n                _votedIds,\r\n                _votedCounts,\r\n                7\r\n            );\r\n    }\r\n\r\n    // 创建选课程提案\r\n    function createChooseCourseProposal(\r\n        string memory _description,\r\n        uint256 _voteforID,\r\n        uint256[] memory _votedIds,\r\n        uint256 _totalVote\r\n    ) public override(IVote) returns (uint256) {\r\n        return\r\n            createProposalMultiple(\r\n                _description,\r\n                _voteforID,\r\n                _votedIds,\r\n                _totalVote\r\n            );\r\n    }\r\n\r\n    // 通过接口投票\r\n    // 选老师投票\r\n    function voteChooseTeacher(\r\n        address voterAddress,\r\n        uint256 _proposalId,\r\n        uint256 _voteId\r\n    ) public override(IVote) {\r\n        voteMultiple(voterAddress, _proposalId, _voteId);\r\n    }\r\n\r\n    // 选课程投票\r\n    function voteChooseCourse(\r\n        address voterAddress,\r\n        uint256 _proposalId,\r\n        uint256 _voteId\r\n    ) public override(IVote) {\r\n        voteMultiple(voterAddress, _proposalId, _voteId);\r\n    }\r\n\r\n    // 通过接口结束投票\r\n    // 选老师结束投票\r\n    function endVoteChooseTeacher(\r\n        uint256 _proposalId\r\n    ) public view override(IVote) returns (uint256, uint256) {\r\n        return endVoteMultiple(_proposalId);\r\n    }\r\n\r\n    // 选课程结束投票\r\n    function endVoteChooseCourse(\r\n        uint256 _proposalId\r\n    ) public view override(IVote) returns (uint256, uint256) {\r\n        return endVoteMultiple(_proposalId);\r\n    }\r\n}\r\n",
  "sourcePath": "E:\\dao\\327\\Course-allocation\\project\\contracts\\Vote.sol",
  "compiler": {
    "name": "solc",
    "version": "0.8.7+commit.e28d00a7.Emscripten.clang"
  },
  "schemaVersion": "3.4.16",
  "updatedAt": "2025-04-03T07:44:04.105Z",
  "networkType": "ethereum",
  "devdoc": {
    "kind": "dev",
    "methods": {},
    "version": 1
  },
  "userdoc": {
    "kind": "user",
    "methods": {},
    "version": 1
  }
}