{
  "contractName": "VoteCaller",
  "abi": [
    {
      "inputs": [
        {
          "internalType": "address",
          "name": "voteAddress",
          "type": "address"
        },
        {
          "internalType": "address",
          "name": "voterAddress",
          "type": "address"
        }
      ],
      "name": "registerVoterViaInterface",
      "outputs": [],
      "stateMutability": "nonpayable",
      "type": "function"
    },
    {
      "inputs": [
        {
          "internalType": "address",
          "name": "voteAddress",
          "type": "address"
        },
        {
          "internalType": "string",
          "name": "_description",
          "type": "string"
        },
        {
          "internalType": "uint256[]",
          "name": "_votedIds",
          "type": "uint256[]"
        },
        {
          "internalType": "uint256",
          "name": "_totalVote",
          "type": "uint256"
        }
      ],
      "name": "createChooseTeacherProposalViaInterface",
      "outputs": [],
      "stateMutability": "nonpayable",
      "type": "function"
    },
    {
      "inputs": [
        {
          "internalType": "address",
          "name": "voteAddress",
          "type": "address"
        },
        {
          "internalType": "string",
          "name": "_description",
          "type": "string"
        },
        {
          "internalType": "uint256[]",
          "name": "_votedIds",
          "type": "uint256[]"
        },
        {
          "internalType": "uint256",
          "name": "_totalVote",
          "type": "uint256"
        }
      ],
      "name": "createChooseCourseProposalViaInterface",
      "outputs": [],
      "stateMutability": "nonpayable",
      "type": "function"
    },
    {
      "inputs": [
        {
          "internalType": "address",
          "name": "voteAddress",
          "type": "address"
        },
        {
          "internalType": "address",
          "name": "voterAddress",
          "type": "address"
        },
        {
          "internalType": "uint256",
          "name": "_proposalId",
          "type": "uint256"
        },
        {
          "internalType": "uint256",
          "name": "_voteId",
          "type": "uint256"
        }
      ],
      "name": "voteChooseTeacherViaInterface",
      "outputs": [],
      "stateMutability": "nonpayable",
      "type": "function"
    },
    {
      "inputs": [
        {
          "internalType": "address",
          "name": "voteAddress",
          "type": "address"
        },
        {
          "internalType": "address",
          "name": "voterAddress",
          "type": "address"
        },
        {
          "internalType": "uint256",
          "name": "_proposalId",
          "type": "uint256"
        },
        {
          "internalType": "uint256",
          "name": "_voteId",
          "type": "uint256"
        }
      ],
      "name": "voteChooseCourseViaInterface",
      "outputs": [],
      "stateMutability": "nonpayable",
      "type": "function"
    },
    {
      "inputs": [
        {
          "internalType": "address",
          "name": "voteAddress",
          "type": "address"
        },
        {
          "internalType": "uint256",
          "name": "_proposalId",
          "type": "uint256"
        }
      ],
      "name": "endVoteChooseTeacherViaInterface",
      "outputs": [
        {
          "internalType": "uint256",
          "name": "",
          "type": "uint256"
        }
      ],
      "stateMutability": "view",
      "type": "function"
    },
    {
      "inputs": [
        {
          "internalType": "address",
          "name": "voteAddress",
          "type": "address"
        },
        {
          "internalType": "uint256",
          "name": "_proposalId",
          "type": "uint256"
        }
      ],
      "name": "endVoteChooseCourseViaInterface",
      "outputs": [
        {
          "internalType": "uint256",
          "name": "",
          "type": "uint256"
        }
      ],
      "stateMutability": "view",
      "type": "function"
    },
    {
      "inputs": [
        {
          "internalType": "address",
          "name": "voteAddress",
          "type": "address"
        },
        {
          "internalType": "uint256",
          "name": "_proposalId",
          "type": "uint256"
        }
      ],
      "name": "getVotedIdsViaInterface",
      "outputs": [
        {
          "internalType": "uint256[]",
          "name": "",
          "type": "uint256[]"
        }
      ],
      "stateMutability": "view",
      "type": "function"
    },
    {
      "inputs": [
        {
          "internalType": "address",
          "name": "voteAddress",
          "type": "address"
        },
        {
          "internalType": "uint256",
          "name": "_proposalId",
          "type": "uint256"
        },
        {
          "internalType": "uint256",
          "name": "_voteId",
          "type": "uint256"
        }
      ],
      "name": "getVoteIdToCountViaInterface",
      "outputs": [
        {
          "internalType": "uint256",
          "name": "",
          "type": "uint256"
        }
      ],
      "stateMutability": "view",
      "type": "function"
    }
  ],
  "bytecode": "0x608060405234801561001057600080fd5b50610f13806100206000396000f3fe608060405234801561001057600080fd5b50600436106100935760003560e01c806395c0a47a1161006657806395c0a47a14610130578063b87e15b51461014c578063e433c0161461017c578063ed43304814610198578063f5934043146101b457610093565b806339e26658146100985780634a66d526146100c85780637e2c76ee146100e45780637fb42f6414610114575b600080fd5b6100b260048036038101906100ad91906109ee565b6101e4565b6040516100bf9190610c8c565b60405180910390f35b6100e260048036038101906100dd919061094f565b610277565b005b6100fe60048036038101906100f99190610a2e565b61030d565b60405161010b9190610c8c565b60405180910390f35b61012e600480360381019061012991906108e8565b6103a3565b005b61014a600480360381019061014591906108a8565b610418565b005b610166600480360381019061016191906109ee565b610487565b6040516101739190610c25565b60405180910390f35b6101966004803603810190610191919061094f565b61051f565b005b6101b260048036038101906101ad91906108e8565b6105b5565b005b6101ce60048036038101906101c991906109ee565b61062a565b6040516101db9190610c8c565b60405180910390f35b60008273ffffffffffffffffffffffffffffffffffffffff166355d2f08e836040518263ffffffff1660e01b815260040161021f9190610c8c565b60206040518083038186803b15801561023757600080fd5b505afa15801561024b573d6000803e3d6000fd5b505050506040513d601f19601f8201168201806040525081019061026f9190610aca565b905092915050565b8373ffffffffffffffffffffffffffffffffffffffff166385cbfcae8484846040518463ffffffff1660e01b81526004016102b493929190610c47565b602060405180830381600087803b1580156102ce57600080fd5b505af11580156102e2573d6000803e3d6000fd5b505050506040513d601f19601f820116820180604052508101906103069190610aca565b5050505050565b60008373ffffffffffffffffffffffffffffffffffffffff1663fe8d724c84846040518363ffffffff1660e01b815260040161034a929190610ca7565b60206040518083038186803b15801561036257600080fd5b505afa158015610376573d6000803e3d6000fd5b505050506040513d601f19601f8201168201806040525081019061039a9190610aca565b90509392505050565b8373ffffffffffffffffffffffffffffffffffffffff1663bc8c24d98484846040518463ffffffff1660e01b81526004016103e093929190610bee565b600060405180830381600087803b1580156103fa57600080fd5b505af115801561040e573d6000803e3d6000fd5b5050505050505050565b8173ffffffffffffffffffffffffffffffffffffffff166338db6dd3826040518263ffffffff1660e01b81526004016104519190610bd3565b600060405180830381600087803b15801561046b57600080fd5b505af115801561047f573d6000803e3d6000fd5b505050505050565b60608273ffffffffffffffffffffffffffffffffffffffff166376ce93f7836040518263ffffffff1660e01b81526004016104c29190610c8c565b60006040518083038186803b1580156104da57600080fd5b505afa1580156104ee573d6000803e3d6000fd5b505050506040513d6000823e3d601f19601f820116820180604052508101906105179190610a81565b905092915050565b8373ffffffffffffffffffffffffffffffffffffffff1663b9fdf8778484846040518463ffffffff1660e01b815260040161055c93929190610c47565b602060405180830381600087803b15801561057657600080fd5b505af115801561058a573d6000803e3d6000fd5b505050506040513d601f19601f820116820180604052508101906105ae9190610aca565b5050505050565b8373ffffffffffffffffffffffffffffffffffffffff166388462f2c8484846040518463ffffffff1660e01b81526004016105f293929190610bee565b600060405180830381600087803b15801561060c57600080fd5b505af1158015610620573d6000803e3d6000fd5b5050505050505050565b60008273ffffffffffffffffffffffffffffffffffffffff1663361d5b79836040518263ffffffff1660e01b81526004016106659190610c8c565b60206040518083038186803b15801561067d57600080fd5b505afa158015610691573d6000803e3d6000fd5b505050506040513d601f19601f820116820180604052508101906106b59190610aca565b905092915050565b60006106d06106cb84610cf5565b610cd0565b905080838252602082019050828560208602820111156106f3576106f2610e8a565b5b60005b858110156107235781610709888261087e565b8452602084019350602083019250506001810190506106f6565b5050509392505050565b600061074061073b84610cf5565b610cd0565b9050808382526020820190508285602086028201111561076357610762610e8a565b5b60005b8581101561079357816107798882610893565b845260208401935060208301925050600181019050610766565b5050509392505050565b60006107b06107ab84610d21565b610cd0565b9050828152602081018484840111156107cc576107cb610e8f565b5b6107d7848285610de3565b509392505050565b6000813590506107ee81610eaf565b92915050565b600082601f83011261080957610808610e85565b5b81356108198482602086016106bd565b91505092915050565b600082601f83011261083757610836610e85565b5b815161084784826020860161072d565b91505092915050565b600082601f83011261086557610864610e85565b5b813561087584826020860161079d565b91505092915050565b60008135905061088d81610ec6565b92915050565b6000815190506108a281610ec6565b92915050565b600080604083850312156108bf576108be610e99565b5b60006108cd858286016107df565b92505060206108de858286016107df565b9150509250929050565b6000806000806080858703121561090257610901610e99565b5b6000610910878288016107df565b9450506020610921878288016107df565b93505060406109328782880161087e565b92505060606109438782880161087e565b91505092959194509250565b6000806000806080858703121561096957610968610e99565b5b6000610977878288016107df565b945050602085013567ffffffffffffffff81111561099857610997610e94565b5b6109a487828801610850565b935050604085013567ffffffffffffffff8111156109c5576109c4610e94565b5b6109d1878288016107f4565b92505060606109e28782880161087e565b91505092959194509250565b60008060408385031215610a0557610a04610e99565b5b6000610a13858286016107df565b9250506020610a248582860161087e565b9150509250929050565b600080600060608486031215610a4757610a46610e99565b5b6000610a55868287016107df565b9350506020610a668682870161087e565b9250506040610a778682870161087e565b9150509250925092565b600060208284031215610a9757610a96610e99565b5b600082015167ffffffffffffffff811115610ab557610ab4610e94565b5b610ac184828501610822565b91505092915050565b600060208284031215610ae057610adf610e99565b5b6000610aee84828501610893565b91505092915050565b6000610b038383610bb5565b60208301905092915050565b610b1881610da7565b82525050565b6000610b2982610d62565b610b338185610d85565b9350610b3e83610d52565b8060005b83811015610b6f578151610b568882610af7565b9750610b6183610d78565b925050600181019050610b42565b5085935050505092915050565b6000610b8782610d6d565b610b918185610d96565b9350610ba1818560208601610df2565b610baa81610e9e565b840191505092915050565b610bbe81610dd9565b82525050565b610bcd81610dd9565b82525050565b6000602082019050610be86000830184610b0f565b92915050565b6000606082019050610c036000830186610b0f565b610c106020830185610bc4565b610c1d6040830184610bc4565b949350505050565b60006020820190508181036000830152610c3f8184610b1e565b905092915050565b60006060820190508181036000830152610c618186610b7c565b90508181036020830152610c758185610b1e565b9050610c846040830184610bc4565b949350505050565b6000602082019050610ca16000830184610bc4565b92915050565b6000604082019050610cbc6000830185610bc4565b610cc96020830184610bc4565b9392505050565b6000610cda610ceb565b9050610ce68282610e25565b919050565b6000604051905090565b600067ffffffffffffffff821115610d1057610d0f610e56565b5b602082029050602081019050919050565b600067ffffffffffffffff821115610d3c57610d3b610e56565b5b610d4582610e9e565b9050602081019050919050565b6000819050602082019050919050565b600081519050919050565b600081519050919050565b6000602082019050919050565b600082825260208201905092915050565b600082825260208201905092915050565b6000610db282610db9565b9050919050565b600073ffffffffffffffffffffffffffffffffffffffff82169050919050565b6000819050919050565b82818337600083830152505050565b60005b83811015610e10578082015181840152602081019050610df5565b83811115610e1f576000848401525b50505050565b610e2e82610e9e565b810181811067ffffffffffffffff82111715610e4d57610e4c610e56565b5b80604052505050565b7f4e487b7100000000000000000000000000000000000000000000000000000000600052604160045260246000fd5b600080fd5b600080fd5b600080fd5b600080fd5b600080fd5b6000601f19601f8301169050919050565b610eb881610da7565b8114610ec357600080fd5b50565b610ecf81610dd9565b8114610eda57600080fd5b5056fea26469706673582212208810d8ee41a7f1f95c589f9d31cd13a9d9246343c353b36dee84a7a07da1d90364736f6c63430008070033",
  "immutableReferences": {},
  "source": "// SPDX-License-Identifier: MIT\r\npragma solidity ^0.8.7;\r\n\r\ninterface IVote {\r\n    // ;\r\n    function registerVoter(address _voter) external; // \r\n    function createChooseTeacherProposal(string memory _description, uint[] memory _votedIds,uint _totalVote) external returns (uint); // \r\n    function createChooseCourseProposal(string memory _description, uint[] memory _votedIds,uint _totalVote) external returns (uint); // \r\n    function voteChooseTeacher(address voter, uint _proposalId, uint _voteId) external; // \r\n    function voteChooseCourse(address voter, uint _proposalId, uint _voteId) external; // \r\n    function endVoteChooseTeacher(uint _proposalId) external view returns (uint); // \r\n    function endVoteChooseCourse(uint _proposalId) external view returns (uint); // \r\n    \r\n    // \r\n    function getVotedIds(uint _proposalId) external view returns (uint[] memory); // ids\r\n    function getVoteIdToCount(uint _proposalId, uint _voteId) external view returns (uint); // \r\n}\r\n\r\n// \r\ncontract VoteCaller {\r\n    // \r\n    function registerVoterViaInterface(address voteAddress,address voterAddress) public {\r\n        IVote(voteAddress).registerVoter(voterAddress);\r\n    }\r\n\r\n    // \r\n    // \r\n    function createChooseTeacherProposalViaInterface(address voteAddress,string memory _description, uint[] memory _votedIds,uint _totalVote) public {\r\n        IVote(voteAddress).createChooseTeacherProposal(_description, _votedIds, _totalVote);\r\n    }\r\n    // \r\n    function createChooseCourseProposalViaInterface(address voteAddress,string memory _description, uint[] memory _votedIds,uint _totalVote) public {\r\n        IVote(voteAddress).createChooseCourseProposal(_description, _votedIds, _totalVote);\r\n    }\r\n\r\n    // \r\n    // \r\n    function voteChooseTeacherViaInterface(address voteAddress,address voterAddress, uint _proposalId, uint _voteId) public {\r\n        IVote(voteAddress).voteChooseTeacher(voterAddress, _proposalId, _voteId); \r\n    }\r\n    // \r\n    function voteChooseCourseViaInterface(address voteAddress,address voterAddress, uint _proposalId, uint _voteId) public {\r\n        IVote(voteAddress).voteChooseCourse(voterAddress, _proposalId, _voteId); \r\n    }\r\n\r\n    // \r\n    // \r\n    function endVoteChooseTeacherViaInterface(address voteAddress, uint _proposalId) public view returns (uint) {\r\n        return IVote(voteAddress).endVoteChooseTeacher(_proposalId); \r\n    }\r\n\r\n    // \r\n    function endVoteChooseCourseViaInterface(address voteAddress, uint _proposalId) public view returns (uint) {\r\n        return IVote(voteAddress).endVoteChooseCourse(_proposalId); \r\n    }\r\n\r\n    // \r\n    function getVotedIdsViaInterface(address voteAddress, uint _proposalId) public view returns (uint[] memory) {\r\n        return IVote(voteAddress).getVotedIds(_proposalId);\r\n    }\r\n\r\n    // \r\n    function getVoteIdToCountViaInterface(address voteAddress, uint _proposalId, uint _voteId) public view returns (uint) {\r\n        return IVote(voteAddress).getVoteIdToCount(_proposalId, _voteId);\r\n    }\r\n}\r\n",
  "sourcePath": "E:\\\\paper\\DAO\\test\\project\\contracts\\VoteInterface.sol",
  "compiler": {
    "name": "solc",
    "version": "0.8.7+commit.e28d00a7.Emscripten.clang"
  },
  "schemaVersion": "3.4.16",
  "updatedAt": "2025-03-14T03:26:43.525Z",
  "devdoc": {
    "kind": "dev",
    "methods": {},
    "version": 1
  },
  "userdoc": {
    "kind": "user",
    "methods": {},
    "version": 1
  }
}