{
  "contractName": "Vote",
  "abi": [
    {
      "inputs": [],
      "stateMutability": "nonpayable",
      "type": "constructor"
    },
    {
      "anonymous": false,
      "inputs": [
        {
          "indexed": false,
          "internalType": "uint256",
          "name": "proposalId",
          "type": "uint256"
        },
        {
          "indexed": false,
          "internalType": "string",
          "name": "description",
          "type": "string"
        }
      ],
      "name": "ProposalCreated",
      "type": "event"
    },
    {
      "inputs": [
        {
          "internalType": "uint256",
          "name": "",
          "type": "uint256"
        }
      ],
      "name": "proposalMultipleIds",
      "outputs": [
        {
          "internalType": "uint256",
          "name": "",
          "type": "uint256"
        }
      ],
      "stateMutability": "view",
      "type": "function",
      "constant": true
    },
    {
      "inputs": [
        {
          "internalType": "uint256",
          "name": "",
          "type": "uint256"
        }
      ],
      "name": "proposalMultiples",
      "outputs": [
        {
          "internalType": "uint256",
          "name": "id",
          "type": "uint256"
        },
        {
          "internalType": "string",
          "name": "description",
          "type": "string"
        },
        {
          "internalType": "uint256",
          "name": "voteforID",
          "type": "uint256"
        },
        {
          "internalType": "uint256",
          "name": "voteCount",
          "type": "uint256"
        },
        {
          "internalType": "uint256",
          "name": "totalVote",
          "type": "uint256"
        }
      ],
      "stateMutability": "view",
      "type": "function",
      "constant": true
    },
    {
      "inputs": [
        {
          "internalType": "address",
          "name": "",
          "type": "address"
        }
      ],
      "name": "voters",
      "outputs": [
        {
          "internalType": "uint256",
          "name": "id",
          "type": "uint256"
        },
        {
          "internalType": "address",
          "name": "voter",
          "type": "address"
        },
        {
          "internalType": "uint256",
          "name": "weight",
          "type": "uint256"
        }
      ],
      "stateMutability": "view",
      "type": "function",
      "constant": true
    },
    {
      "inputs": [
        {
          "internalType": "uint256",
          "name": "",
          "type": "uint256"
        }
      ],
      "name": "votersAddress",
      "outputs": [
        {
          "internalType": "address",
          "name": "",
          "type": "address"
        }
      ],
      "stateMutability": "view",
      "type": "function",
      "constant": true
    },
    {
      "inputs": [
        {
          "internalType": "address",
          "name": "_voter",
          "type": "address"
        }
      ],
      "name": "registerVoter",
      "outputs": [],
      "stateMutability": "nonpayable",
      "type": "function"
    },
    {
      "inputs": [
        {
          "internalType": "string",
          "name": "_description",
          "type": "string"
        },
        {
          "internalType": "uint256",
          "name": "_voteforID",
          "type": "uint256"
        },
        {
          "internalType": "uint256[]",
          "name": "_votedIds",
          "type": "uint256[]"
        },
        {
          "internalType": "uint256",
          "name": "_totalVote",
          "type": "uint256"
        }
      ],
      "name": "createProposalMultiple",
      "outputs": [
        {
          "internalType": "uint256",
          "name": "",
          "type": "uint256"
        }
      ],
      "stateMutability": "nonpayable",
      "type": "function"
    },
    {
      "inputs": [
        {
          "internalType": "string",
          "name": "_description",
          "type": "string"
        },
        {
          "internalType": "uint256",
          "name": "_voteforID",
          "type": "uint256"
        },
        {
          "internalType": "uint256[]",
          "name": "_votedIds",
          "type": "uint256[]"
        },
        {
          "internalType": "uint256[]",
          "name": "_votedCounts",
          "type": "uint256[]"
        },
        {
          "internalType": "uint256",
          "name": "_totalVote",
          "type": "uint256"
        }
      ],
      "name": "createMachineProposal",
      "outputs": [
        {
          "internalType": "uint256",
          "name": "",
          "type": "uint256"
        }
      ],
      "stateMutability": "nonpayable",
      "type": "function"
    },
    {
      "inputs": [
        {
          "internalType": "uint256",
          "name": "_proposalId",
          "type": "uint256"
        }
      ],
      "name": "getVotedIds",
      "outputs": [
        {
          "internalType": "uint256[]",
          "name": "",
          "type": "uint256[]"
        },
        {
          "internalType": "uint256",
          "name": "",
          "type": "uint256"
        }
      ],
      "stateMutability": "view",
      "type": "function",
      "constant": true
    },
    {
      "inputs": [
        {
          "internalType": "uint256",
          "name": "_proposalId",
          "type": "uint256"
        },
        {
          "internalType": "uint256",
          "name": "_voteId",
          "type": "uint256"
        }
      ],
      "name": "getVoteIdToCount",
      "outputs": [
        {
          "internalType": "uint256",
          "name": "",
          "type": "uint256"
        }
      ],
      "stateMutability": "view",
      "type": "function",
      "constant": true
    },
    {
      "inputs": [
        {
          "internalType": "address",
          "name": "voter",
          "type": "address"
        },
        {
          "internalType": "uint256",
          "name": "_proposalId",
          "type": "uint256"
        },
        {
          "internalType": "uint256",
          "name": "_voteId",
          "type": "uint256"
        }
      ],
      "name": "voteMultiple",
      "outputs": [],
      "stateMutability": "nonpayable",
      "type": "function"
    },
    {
      "inputs": [
        {
          "internalType": "uint256",
          "name": "_proposalId",
          "type": "uint256"
        }
      ],
      "name": "endVoteMultiple",
      "outputs": [
        {
          "internalType": "uint256",
          "name": "",
          "type": "uint256"
        },
        {
          "internalType": "uint256",
          "name": "",
          "type": "uint256"
        }
      ],
      "stateMutability": "view",
      "type": "function",
      "constant": true
    },
    {
      "inputs": [
        {
          "internalType": "string",
          "name": "_description",
          "type": "string"
        },
        {
          "internalType": "uint256",
          "name": "_voteforID",
          "type": "uint256"
        },
        {
          "internalType": "uint256[]",
          "name": "_votedIds",
          "type": "uint256[]"
        },
        {
          "internalType": "uint256",
          "name": "_totalVote",
          "type": "uint256"
        }
      ],
      "name": "createChooseTeacherProposal",
      "outputs": [
        {
          "internalType": "uint256",
          "name": "",
          "type": "uint256"
        }
      ],
      "stateMutability": "nonpayable",
      "type": "function"
    },
    {
      "inputs": [
        {
          "internalType": "string",
          "name": "_description",
          "type": "string"
        },
        {
          "internalType": "uint256",
          "name": "_voteforID",
          "type": "uint256"
        },
        {
          "internalType": "uint256[]",
          "name": "_votedIds",
          "type": "uint256[]"
        },
        {
          "internalType": "uint256[]",
          "name": "_votedCounts",
          "type": "uint256[]"
        }
      ],
      "name": "createMachineVoteProposal",
      "outputs": [
        {
          "internalType": "uint256",
          "name": "",
          "type": "uint256"
        }
      ],
      "stateMutability": "nonpayable",
      "type": "function"
    },
    {
      "inputs": [
        {
          "internalType": "string",
          "name": "_description",
          "type": "string"
        },
        {
          "internalType": "uint256",
          "name": "_voteforID",
          "type": "uint256"
        },
        {
          "internalType": "uint256[]",
          "name": "_votedIds",
          "type": "uint256[]"
        },
        {
          "internalType": "uint256",
          "name": "_totalVote",
          "type": "uint256"
        }
      ],
      "name": "createChooseCourseProposal",
      "outputs": [
        {
          "internalType": "uint256",
          "name": "",
          "type": "uint256"
        }
      ],
      "stateMutability": "nonpayable",
      "type": "function"
    },
    {
      "inputs": [
        {
          "internalType": "address",
          "name": "voterAddress",
          "type": "address"
        },
        {
          "internalType": "uint256",
          "name": "_proposalId",
          "type": "uint256"
        },
        {
          "internalType": "uint256",
          "name": "_voteId",
          "type": "uint256"
        }
      ],
      "name": "voteChooseTeacher",
      "outputs": [],
      "stateMutability": "nonpayable",
      "type": "function"
    },
    {
      "inputs": [
        {
          "internalType": "address",
          "name": "voterAddress",
          "type": "address"
        },
        {
          "internalType": "uint256",
          "name": "_proposalId",
          "type": "uint256"
        },
        {
          "internalType": "uint256",
          "name": "_voteId",
          "type": "uint256"
        }
      ],
      "name": "voteChooseCourse",
      "outputs": [],
      "stateMutability": "nonpayable",
      "type": "function"
    },
    {
      "inputs": [
        {
          "internalType": "uint256",
          "name": "_proposalId",
          "type": "uint256"
        }
      ],
      "name": "endVoteChooseTeacher",
      "outputs": [
        {
          "internalType": "uint256",
          "name": "",
          "type": "uint256"
        },
        {
          "internalType": "uint256",
          "name": "",
          "type": "uint256"
        }
      ],
      "stateMutability": "view",
      "type": "function",
      "constant": true
    },
    {
      "inputs": [
        {
          "internalType": "uint256",
          "name": "_proposalId",
          "type": "uint256"
        }
      ],
      "name": "endVoteChooseCourse",
      "outputs": [
        {
          "internalType": "uint256",
          "name": "",
          "type": "uint256"
        },
        {
          "internalType": "uint256",
          "name": "",
          "type": "uint256"
        }
      ],
      "stateMutability": "view",
      "type": "function",
      "constant": true
    }
  ],
  "bytecode": "0x608060405234801561001057600080fd5b50611e63806100206000396000f3fe608060405234801561001057600080fd5b50600436106101165760003560e01c806376ce93f7116100a2578063b201539f11610071578063b201539f14610359578063b2af0cc514610389578063bc8c24d9146103b9578063bc9cad8a146103d5578063fe8d724c1461040557610116565b806376ce93f7146102aa578063777ea2c9146102db57806388462f2c1461030b578063a3ec138d1461032757610116565b80632b6b189b116100e95780632b6b189b146101e0578063361d5b79146101fc57806338db6dd31461022d57806343242daa1461024957806355d2f08e1461027957610116565b80630202f8471461011b5780630f0626b51461014b578063148f8e4f1461017b578063162b040d146101af575b600080fd5b6101356004803603810190610130919061156e565b610435565b60405161014291906118f0565b60405180910390f35b6101656004803603810190610160919061160d565b61044d565b60405161017291906118f0565b60405180910390f35b6101956004803603810190610190919061160d565b610471565b6040516101a6959493929190611972565b60405180910390f35b6101c960048036038101906101c4919061160d565b61052f565b6040516101d79291906119cc565b60405180910390f35b6101fa60048036038101906101f59190611391565b610693565b005b6102166004803603810190610211919061160d565b610a1b565b6040516102249291906119cc565b60405180910390f35b61024760048036038101906102429190611364565b610a30565b005b610263600480360381019061025e919061160d565b610c44565b6040516102709190611805565b60405180910390f35b610293600480360381019061028e919061160d565b610c83565b6040516102a19291906119cc565b60405180910390f35b6102c460048036038101906102bf919061160d565b610c98565b6040516102d2929190611820565b60405180910390f35b6102f560048036038101906102f0919061156e565b610d24565b60405161030291906118f0565b60405180910390f35b61032560048036038101906103209190611391565b610d3c565b005b610341600480360381019061033c9190611364565b610d4c565b6040516103509392919061190b565b60405180910390f35b610373600480360381019061036e919061149f565b610d96565b60405161038091906118f0565b60405180910390f35b6103a3600480360381019061039e919061156e565b610f92565b6040516103b091906118f0565b60405180910390f35b6103d360048036038101906103ce9190611391565b61112d565b005b6103ef60048036038101906103ea91906113e4565b61113d565b6040516103fc91906118f0565b60405180910390f35b61041f600480360381019061041a919061163a565b611157565b60405161042c91906118f0565b60405180910390f35b600061044385858585610f92565b9050949350505050565b6003818154811061045d57600080fd5b906000526020600020016000915090505481565b600260205280600052604060002060009150905080600001549080600101805461049a90611ba0565b80601f01602080910402602001604051908101604052809291908181526020018280546104c690611ba0565b80156105135780601f106104e857610100808354040283529160200191610513565b820191906000526020600020905b8154815290600101906020018083116104f657829003601f168201915b5050505050908060020154908060060154908060070154905085565b60008060008060006002600087815260200190815260200160002060030180548060200260200160405190810160405280929190818152602001828054801561059757602002820191906000526020600020905b815481526020019060010190808311610583575b5050505050905060006002600088815260200190815260200160002060020154905060005b82518110156106835784600260008a815260200190815260200160002060040160008584815181106105f1576105f0611caa565b5b602002602001015181526020019081526020016000205411156106705760026000898152602001908152602001600020600401600084838151811061063957610638611caa565b5b6020026020010151815260200190815260200160002054945082818151811061066557610664611caa565b5b602002602001015193505b808061067b90611c03565b9150506105bc565b5082819550955050505050915091565b600073ffffffffffffffffffffffffffffffffffffffff166000808573ffffffffffffffffffffffffffffffffffffffff1673ffffffffffffffffffffffffffffffffffffffff16815260200190815260200160002060010160009054906101000a900473ffffffffffffffffffffffffffffffffffffffff1673ffffffffffffffffffffffffffffffffffffffff161415610764576040517f08c379a000000000000000000000000000000000000000000000000000000000815260040161075b90611870565b60405180910390fd5b600015156002600084815260200190815260200160002060050160008573ffffffffffffffffffffffffffffffffffffffff1673ffffffffffffffffffffffffffffffffffffffff16815260200190815260200160002060009054906101000a900460ff1615151461080b576040517f08c379a000000000000000000000000000000000000000000000000000000000815260040161080290611890565b60405180910390fd5b6002600083815260200190815260200160002060070154600260008481526020019081526020016000206006015410610879576040517f08c379a0000000000000000000000000000000000000000000000000000000008152600401610870906118b0565b60405180910390fd5b6000805b60026000858152602001908152602001600020600301805490508110156109cd57826002600086815260200190815260200160002060030182815481106108c7576108c6611caa565b5b906000526020600020015414156109ba57600160026000868152602001908152602001600020600401600085815260200190815260200160002060008282546109109190611acc565b92505081905550600160026000868152602001908152602001600020600601600082825461093e9190611acc565b9250508190555060016002600086815260200190815260200160002060050160008773ffffffffffffffffffffffffffffffffffffffff1673ffffffffffffffffffffffffffffffffffffffff16815260200190815260200160002060006101000a81548160ff021916908315150217905550600191506109cd565b80806109c590611c03565b91505061087d565b506001151581151514610a15576040517f08c379a0000000000000000000000000000000000000000000000000000000008152600401610a0c90611850565b60405180910390fd5b50505050565b600080610a278361052f565b91509150915091565b600073ffffffffffffffffffffffffffffffffffffffff166000808373ffffffffffffffffffffffffffffffffffffffff1673ffffffffffffffffffffffffffffffffffffffff16815260200190815260200160002060010160009054906101000a900473ffffffffffffffffffffffffffffffffffffffff1673ffffffffffffffffffffffffffffffffffffffff1614610b00576040517f08c379a0000000000000000000000000000000000000000000000000000000008152600401610af7906118d0565b60405180910390fd5b604051806060016040528060018080549050610b1c9190611acc565b81526020018273ffffffffffffffffffffffffffffffffffffffff16815260200160018152506000808373ffffffffffffffffffffffffffffffffffffffff1673ffffffffffffffffffffffffffffffffffffffff1681526020019081526020016000206000820151816000015560208201518160010160006101000a81548173ffffffffffffffffffffffffffffffffffffffff021916908373ffffffffffffffffffffffffffffffffffffffff160217905550604082015181600201559050506001819080600181540180825580915050600190039060005260206000200160009091909190916101000a81548173ffffffffffffffffffffffffffffffffffffffff021916908373ffffffffffffffffffffffffffffffffffffffff16021790555050565b60018181548110610c5457600080fd5b906000526020600020016000915054906101000a900473ffffffffffffffffffffffffffffffffffffffff1681565b600080610c8f8361052f565b91509150915091565b6060600060026000848152602001908152602001600020600301600260008581526020019081526020016000206002015481805480602002602001604051908101604052809291908181526020018280548015610d1457602002820191906000526020600020905b815481526020019060010190808311610d00575b5050505050915091509150915091565b6000610d3285858585610f92565b9050949350505050565b610d47838383610693565b505050565b60006020528060005260406000206000915090508060000154908060010160009054906101000a900473ffffffffffffffffffffffffffffffffffffffff16908060020154905083565b6000806001600380549050610dab9190611acc565b905080600260008381526020019081526020016000206000018190555086600260008381526020019081526020016000206001019080519060200190610df2929190611189565b5060005b8551811015610eec576000868281518110610e1457610e13611caa565b5b602002602001015114610ed95760026000838152602001908152602001600020600301868281518110610e4a57610e49611caa565b5b60200260200101519080600181540180825580915050600190039060005260206000200160009091909190915055848181518110610e8b57610e8a611caa565b5b6020026020010151600260008481526020019081526020016000206004016000888481518110610ebe57610ebd611caa565b5b60200260200101518152602001908152602001600020819055505b8080610ee490611c03565b915050610df6565b5082600260008381526020019081526020016000206007018190555085600260008381526020019081526020016000206002018190555060038190806001815401808255809150506001900390600052602060002001600090919091909150557f9c770c289ab5bf7e57cb1d23c8ceae993aea46eb64847072fd3d78ca60d3e4328188604051610f7d929190611942565b60405180910390a18091505095945050505050565b6000806001600380549050610fa79190611acc565b905080600260008381526020019081526020016000206000018190555085600260008381526020019081526020016000206001019080519060200190610fee929190611189565b5060005b84518110156110885760008582815181106110105761100f611caa565b5b602002602001015114611075576002600083815260200190815260200160002060030185828151811061104657611045611caa565b5b602002602001015190806001815401808255809150506001900390600052602060002001600090919091909150555b808061108090611c03565b915050610ff2565b5082600260008381526020019081526020016000206007018190555084600260008381526020019081526020016000206002018190555060038190806001815401808255809150506001900390600052602060002001600090919091909150557f9c770c289ab5bf7e57cb1d23c8ceae993aea46eb64847072fd3d78ca60d3e4328187604051611119929190611942565b60405180910390a180915050949350505050565b611138838383610693565b505050565b600061114d858585856007610d96565b9050949350505050565b600060026000848152602001908152602001600020600401600083815260200190815260200160002054905092915050565b82805461119590611ba0565b90600052602060002090601f0160209004810192826111b757600085556111fe565b82601f106111d057805160ff19168380011785556111fe565b828001600101855582156111fe579182015b828111156111fd5782518255916020019190600101906111e2565b5b50905061120b919061120f565b5090565b5b80821115611228576000816000905550600101611210565b5090565b600061123f61123a84611a1a565b6119f5565b9050808382526020820190508285602086028201111561126257611261611d0d565b5b60005b858110156112925781611278888261134f565b845260208401935060208301925050600181019050611265565b5050509392505050565b60006112af6112aa84611a46565b6119f5565b9050828152602081018484840111156112cb576112ca611d12565b5b6112d6848285611b5e565b509392505050565b6000813590506112ed81611dff565b92915050565b600082601f83011261130857611307611d08565b5b813561131884826020860161122c565b91505092915050565b600082601f83011261133657611335611d08565b5b813561134684826020860161129c565b91505092915050565b60008135905061135e81611e16565b92915050565b60006020828403121561137a57611379611d1c565b5b6000611388848285016112de565b91505092915050565b6000806000606084860312156113aa576113a9611d1c565b5b60006113b8868287016112de565b93505060206113c98682870161134f565b92505060406113da8682870161134f565b9150509250925092565b600080600080608085870312156113fe576113fd611d1c565b5b600085013567ffffffffffffffff81111561141c5761141b611d17565b5b61142887828801611321565b94505060206114398782880161134f565b935050604085013567ffffffffffffffff81111561145a57611459611d17565b5b611466878288016112f3565b925050606085013567ffffffffffffffff81111561148757611486611d17565b5b611493878288016112f3565b91505092959194509250565b600080600080600060a086880312156114bb576114ba611d1c565b5b600086013567ffffffffffffffff8111156114d9576114d8611d17565b5b6114e588828901611321565b95505060206114f68882890161134f565b945050604086013567ffffffffffffffff81111561151757611516611d17565b5b611523888289016112f3565b935050606086013567ffffffffffffffff81111561154457611543611d17565b5b611550888289016112f3565b92505060806115618882890161134f565b9150509295509295909350565b6000806000806080858703121561158857611587611d1c565b5b600085013567ffffffffffffffff8111156115a6576115a5611d17565b5b6115b287828801611321565b94505060206115c38782880161134f565b935050604085013567ffffffffffffffff8111156115e4576115e3611d17565b5b6115f0878288016112f3565b92505060606116018782880161134f565b91505092959194509250565b60006020828403121561162357611622611d1c565b5b60006116318482850161134f565b91505092915050565b6000806040838503121561165157611650611d1c565b5b600061165f8582860161134f565b92505060206116708582860161134f565b9150509250929050565b600061168683836117e7565b60208301905092915050565b61169b81611b22565b82525050565b60006116ac82611a87565b6116b68185611aaa565b93506116c183611a77565b8060005b838110156116f25781516116d9888261167a565b97506116e483611a9d565b9250506001810190506116c5565b5085935050505092915050565b600061170a82611a92565b6117148185611abb565b9350611724818560208601611b6d565b61172d81611d21565b840191505092915050565b6000611745601883611abb565b915061175082611d32565b602082019050919050565b6000611768600f83611abb565b915061177382611d5b565b602082019050919050565b600061178b600c83611abb565b915061179682611d84565b602082019050919050565b60006117ae601283611abb565b91506117b982611dad565b602082019050919050565b60006117d1600f83611abb565b91506117dc82611dd6565b602082019050919050565b6117f081611b54565b82525050565b6117ff81611b54565b82525050565b600060208201905061181a6000830184611692565b92915050565b6000604082019050818103600083015261183a81856116a1565b905061184960208301846117f6565b9392505050565b6000602082019050818103600083015261186981611738565b9050919050565b600060208201905081810360008301526118898161175b565b9050919050565b600060208201905081810360008301526118a98161177e565b9050919050565b600060208201905081810360008301526118c9816117a1565b9050919050565b600060208201905081810360008301526118e9816117c4565b9050919050565b600060208201905061190560008301846117f6565b92915050565b600060608201905061192060008301866117f6565b61192d6020830185611692565b61193a60408301846117f6565b949350505050565b600060408201905061195760008301856117f6565b818103602083015261196981846116ff565b90509392505050565b600060a08201905061198760008301886117f6565b818103602083015261199981876116ff565b90506119a860408301866117f6565b6119b560608301856117f6565b6119c260808301846117f6565b9695505050505050565b60006040820190506119e160008301856117f6565b6119ee60208301846117f6565b9392505050565b60006119ff611a10565b9050611a0b8282611bd2565b919050565b6000604051905090565b600067ffffffffffffffff821115611a3557611a34611cd9565b5b602082029050602081019050919050565b600067ffffffffffffffff821115611a6157611a60611cd9565b5b611a6a82611d21565b9050602081019050919050565b6000819050602082019050919050565b600081519050919050565b600081519050919050565b6000602082019050919050565b600082825260208201905092915050565b600082825260208201905092915050565b6000611ad782611b54565b9150611ae283611b54565b9250827fffffffffffffffffffffffffffffffffffffffffffffffffffffffffffffffff03821115611b1757611b16611c4c565b5b828201905092915050565b6000611b2d82611b34565b9050919050565b600073ffffffffffffffffffffffffffffffffffffffff82169050919050565b6000819050919050565b82818337600083830152505050565b60005b83811015611b8b578082015181840152602081019050611b70565b83811115611b9a576000848401525b50505050565b60006002820490506001821680611bb857607f821691505b60208210811415611bcc57611bcb611c7b565b5b50919050565b611bdb82611d21565b810181811067ffffffffffffffff82111715611bfa57611bf9611cd9565b5b80604052505050565b6000611c0e82611b54565b91507fffffffffffffffffffffffffffffffffffffffffffffffffffffffffffffffff821415611c4157611c40611c4c565b5b600182019050919050565b7f4e487b7100000000000000000000000000000000000000000000000000000000600052601160045260246000fd5b7f4e487b7100000000000000000000000000000000000000000000000000000000600052602260045260246000fd5b7f4e487b7100000000000000000000000000000000000000000000000000000000600052603260045260246000fd5b7f4e487b7100000000000000000000000000000000000000000000000000000000600052604160045260246000fd5b600080fd5b600080fd5b600080fd5b600080fd5b600080fd5b6000601f19601f8301169050919050565b7fe68a95e7a5a8e79a84e98089e9a1b9e4b88de5ad98e59ca80000000000000000600082015250565b7fe8b4a6e688b7e69caae6b3a8e5868c0000000000000000000000000000000000600082015250565b7fe682a8e5b7b2e68a95e7a5a80000000000000000000000000000000000000000600082015250565b7fe68a95e7a5a8e4babae695b0e5b7b2e6bba10000000000000000000000000000600082015250565b7fe8b4a6e688b7e5b7b2e6b3a8e5868c0000000000000000000000000000000000600082015250565b611e0881611b22565b8114611e1357600080fd5b50565b611e1f81611b54565b8114611e2a57600080fd5b5056fea26469706673582212201d9e37edea7f8b0a61306a10897917f3e9a0faf92194d6184b30ba940b208e6d64736f6c63430008070033",
  "immutableReferences": {},
  "source": "// SPDX-License-Identifier: MIT\r\npragma solidity ^0.8.7;\r\n\r\nimport {IVote} from \"./VoteInterface.sol\";\r\n\r\ncontract Vote is IVote{\r\n    struct Voter {\r\n        uint256 id;\r\n        address voter;\r\n        uint256 weight;\r\n    }\r\n\r\n    struct ProposalMultiple {\r\n        uint256 id;\r\n        string description;\r\n        uint256 voteforID; // ID\r\n        uint256[] votedIds;// id,id\r\n        mapping (uint256 => uint256) voteIdToCount; // \r\n        mapping (address => bool) ifVote; // \r\n        uint256 voteCount;  // \r\n        uint256 totalVote; // \r\n    }\r\n    mapping(address => Voter) public voters; // \r\n    address[] public votersAddress; // \r\n    mapping (uint256 => ProposalMultiple) public proposalMultiples; // id\r\n    uint256[] public proposalMultipleIds; // id\r\n\r\n    // \r\n    event ProposalCreated(uint256 proposalId, string description);\r\n    \r\n    constructor(){\r\n        \r\n    }\r\n    // \r\n    function registerVoter(address _voter) public override(IVote) {\r\n        // \r\n        require(voters[_voter].voter == address(0), unicode\"\"); \r\n        // \r\n        voters[_voter] = Voter(votersAddress.length+1, _voter, 1);\r\n        votersAddress.push(_voter);\r\n    }\r\n    \r\n    // \r\n    function createProposalMultiple(string memory _description, uint256 _voteforID, uint256[] memory _votedIds, uint256 _totalVote) public returns (uint256){\r\n        uint256 newProposalId = proposalMultipleIds.length + 1;\r\n\r\n        proposalMultiples[newProposalId].id = newProposalId;\r\n        proposalMultiples[newProposalId].description = _description;\r\n        for (uint256 i = 0; i < _votedIds.length; i++) {\r\n            if(_votedIds[i] != 0){\r\n                proposalMultiples[newProposalId].votedIds.push(_votedIds[i]);\r\n            }\r\n        }\r\n        proposalMultiples[newProposalId].totalVote = _totalVote;\r\n        proposalMultiples[newProposalId].voteforID = _voteforID;\r\n\r\n        proposalMultipleIds.push(newProposalId);\r\n\r\n        emit ProposalCreated(newProposalId, _description);\r\n\r\n        return newProposalId;\r\n    }\r\n\r\n    // \r\n    function createMachineProposal(string memory _description, uint256 _voteforID, uint256[] memory _votedIds, uint256[] memory _votedCounts, uint256 _totalVote) public returns (uint256){\r\n        uint256 newProposalId = proposalMultipleIds.length + 1;\r\n\r\n        proposalMultiples[newProposalId].id = newProposalId;\r\n        proposalMultiples[newProposalId].description = _description;\r\n        for (uint256 i = 0; i < _votedIds.length; i++) {\r\n            if(_votedIds[i] != 0){\r\n                proposalMultiples[newProposalId].votedIds.push(_votedIds[i]);\r\n                proposalMultiples[newProposalId].voteIdToCount[_votedIds[i]] = _votedCounts[i];\r\n            }\r\n        }\r\n        proposalMultiples[newProposalId].totalVote = _totalVote;\r\n        proposalMultiples[newProposalId].voteforID = _voteforID;\r\n\r\n        proposalMultipleIds.push(newProposalId);\r\n\r\n        emit ProposalCreated(newProposalId, _description);\r\n\r\n        return newProposalId;\r\n    }\r\n    // ids\r\n    function getVotedIds(uint256 _proposalId) public override(IVote) view returns (uint256[] memory, uint256) {\r\n        return (proposalMultiples[_proposalId].votedIds, proposalMultiples[_proposalId].voteforID);\r\n    }\r\n\r\n    // \r\n    function getVoteIdToCount(uint256 _proposalId, uint256 _voteId) public override(IVote) view returns (uint256) {\r\n        return proposalMultiples[_proposalId].voteIdToCount[_voteId]; \r\n    }\r\n\r\n    // \r\n    function voteMultiple(address voter, uint256 _proposalId, uint256 _voteId) public {\r\n        require(voters[voter].voter != address(0), unicode\"\"); \r\n        require(proposalMultiples[_proposalId].ifVote[voter] == false, unicode\"\");\r\n        require(proposalMultiples[_proposalId].voteCount < proposalMultiples[_proposalId].totalVote, unicode\"\"); \r\n        // _voteIdvotedIds\r\n        bool ifIn = false;\r\n        for(uint256 i=0;i<proposalMultiples[_proposalId].votedIds.length;i++){\r\n            if(proposalMultiples[_proposalId].votedIds[i] == _voteId){\r\n                proposalMultiples[_proposalId].voteIdToCount[_voteId] += 1;\r\n                proposalMultiples[_proposalId].voteCount += 1; \r\n                proposalMultiples[_proposalId].ifVote[voter] = true;\r\n                ifIn = true;\r\n                break;\r\n            }\r\n        }\r\n        require(ifIn == true, unicode\"\");\r\n    }\r\n\r\n    // \r\n    function endVoteMultiple(uint256 _proposalId) public view returns (uint256, uint256) {\r\n        uint256 maxVoteCount = 0;\r\n        uint256 result = 0;\r\n        uint256[] memory temp = proposalMultiples[_proposalId].votedIds;\r\n        uint256 _voteforID = proposalMultiples[_proposalId].voteforID;\r\n        for (uint256 i = 0; i < temp.length; i++) {\r\n            if(proposalMultiples[_proposalId].voteIdToCount[temp[i]]>maxVoteCount){\r\n                maxVoteCount = proposalMultiples[_proposalId].voteIdToCount[temp[i]];\r\n                result = temp[i];\r\n            }\r\n        }\r\n        return (result, _voteforID);\r\n    }\r\n\r\n    // \r\n    function createChooseTeacherProposal(string memory _description, uint256 _voteforID, uint256[] memory _votedIds,uint256 _totalVote) public override(IVote) returns(uint256){\r\n        return createProposalMultiple(_description, _voteforID, _votedIds, _totalVote);\r\n    }\r\n    // \r\n    function createMachineVoteProposal(string memory _description, uint256 _voteforID, uint256[] memory _votedIds, uint256[] memory _votedCounts) public override(IVote) returns(uint256){\r\n        return createMachineProposal(_description, _voteforID, _votedIds, _votedCounts, 7);\r\n    }\r\n    // \r\n    function createChooseCourseProposal(string memory _description, uint256 _voteforID, uint256[] memory _votedIds,uint256 _totalVote) public override(IVote) returns(uint256){\r\n        return createProposalMultiple(_description, _voteforID, _votedIds, _totalVote);\r\n    }\r\n\r\n    // \r\n    // \r\n    function voteChooseTeacher(address voterAddress, uint256 _proposalId, uint256 _voteId) public override(IVote) {\r\n        voteMultiple(voterAddress, _proposalId, _voteId); \r\n    }\r\n    // \r\n    function voteChooseCourse(address voterAddress, uint256 _proposalId, uint256 _voteId) public override(IVote) {\r\n        voteMultiple(voterAddress, _proposalId, _voteId); \r\n    }\r\n\r\n    // \r\n    // \r\n    function endVoteChooseTeacher(uint256 _proposalId) public override(IVote) view returns (uint256, uint256) {\r\n        return endVoteMultiple(_proposalId); \r\n    }\r\n\r\n    // \r\n    function endVoteChooseCourse(uint256 _proposalId) public override(IVote) view returns (uint256, uint256) {\r\n        return endVoteMultiple(_proposalId); \r\n    }\r\n\r\n}",
  "sourcePath": "E:\\\\paper\\DAO\\test\\project\\contracts\\Vote.sol",
  "compiler": {
    "name": "solc",
    "version": "0.8.7+commit.e28d00a7.Emscripten.clang"
  },
  "schemaVersion": "3.4.16",
  "updatedAt": "2025-03-22T01:27:11.309Z",
  "networkType": "ethereum",
  "devdoc": {
    "kind": "dev",
    "methods": {},
    "version": 1
  },
  "userdoc": {
    "kind": "user",
    "methods": {},
    "version": 1
  }
}